{
  "contracts/SwapContract.sol": {
    "SwapContract": {
      "abi": [
        {
          "inputs": [
            {
              "internalType": "address",
              "name": "_lpToken",
              "type": "address"
            },
            {
              "internalType": "address",
              "name": "_btct",
              "type": "address"
            },
            {
              "internalType": "uint256",
              "name": "_existingBTCFloat",
              "type": "uint256"
            }
          ],
          "stateMutability": "nonpayable",
          "type": "constructor"
        },
        {
          "anonymous": false,
          "inputs": [
            {
              "indexed": false,
              "internalType": "address",
              "name": "token",
              "type": "address"
            },
            {
              "indexed": false,
              "internalType": "uint256",
              "name": "amountOfLP",
              "type": "uint256"
            },
            {
              "indexed": false,
              "internalType": "uint256",
              "name": "amountOfFloat",
              "type": "uint256"
            },
            {
              "indexed": false,
              "internalType": "uint256",
              "name": "currentPriceLP",
              "type": "uint256"
            },
            {
              "indexed": false,
              "internalType": "uint256",
              "name": "withdrawal",
              "type": "uint256"
            },
            {
              "indexed": false,
              "internalType": "bytes32",
              "name": "txid",
              "type": "bytes32"
            }
          ],
          "name": "BurnLPTokensForFloat",
          "type": "event"
        },
        {
          "anonymous": false,
          "inputs": [
            {
              "indexed": false,
              "internalType": "uint256",
              "name": "rewardLPTsForNodes",
              "type": "uint256"
            }
          ],
          "name": "DistributeNodeRewards",
          "type": "event"
        },
        {
          "anonymous": false,
          "inputs": [
            {
              "indexed": false,
              "internalType": "address",
              "name": "to",
              "type": "address"
            },
            {
              "indexed": false,
              "internalType": "uint256",
              "name": "amountOfFloat",
              "type": "uint256"
            },
            {
              "indexed": false,
              "internalType": "uint256",
              "name": "amountOfLP",
              "type": "uint256"
            },
            {
              "indexed": false,
              "internalType": "uint256",
              "name": "currentPriceLP",
              "type": "uint256"
            },
            {
              "indexed": false,
              "internalType": "uint256",
              "name": "depositFees",
              "type": "uint256"
            },
            {
              "indexed": false,
              "internalType": "bytes32",
              "name": "txid",
              "type": "bytes32"
            }
          ],
          "name": "IssueLPTokensForFloat",
          "type": "event"
        },
        {
          "anonymous": false,
          "inputs": [
            {
              "indexed": true,
              "internalType": "address",
              "name": "previousOwner",
              "type": "address"
            },
            {
              "indexed": true,
              "internalType": "address",
              "name": "newOwner",
              "type": "address"
            }
          ],
          "name": "OwnershipTransferred",
          "type": "event"
        },
        {
          "anonymous": false,
          "inputs": [
            {
              "indexed": false,
              "internalType": "address",
              "name": "feesToken",
              "type": "address"
            },
            {
              "indexed": false,
              "internalType": "uint256",
              "name": "rewards",
              "type": "uint256"
            },
            {
              "indexed": false,
              "internalType": "uint256",
              "name": "amountLPTokensForNode",
              "type": "uint256"
            },
            {
              "indexed": false,
              "internalType": "uint256",
              "name": "currentPriceLP",
              "type": "uint256"
            }
          ],
          "name": "RewardsCollection",
          "type": "event"
        },
        {
          "anonymous": false,
          "inputs": [
            {
              "indexed": false,
              "internalType": "address",
              "name": "from",
              "type": "address"
            },
            {
              "indexed": false,
              "internalType": "address",
              "name": "to",
              "type": "address"
            },
            {
              "indexed": false,
              "internalType": "uint256",
              "name": "amount",
              "type": "uint256"
            }
          ],
          "name": "Swap",
          "type": "event"
        },
        {
          "stateMutability": "nonpayable",
          "type": "fallback"
        },
        {
          "inputs": [],
          "name": "BTCT_ADDR",
          "outputs": [
            {
              "internalType": "address",
              "name": "",
              "type": "address"
            }
          ],
          "stateMutability": "view",
          "type": "function"
        },
        {
          "inputs": [
            {
              "internalType": "address",
              "name": "_newOwner",
              "type": "address"
            },
            {
              "internalType": "bytes32[]",
              "name": "_rewardAddressAndAmounts",
              "type": "bytes32[]"
            },
            {
              "internalType": "bool[]",
              "name": "_isRemoved",
              "type": "bool[]"
            },
            {
              "internalType": "uint8",
              "name": "_churnedInCount",
              "type": "uint8"
            },
            {
              "internalType": "uint8",
              "name": "_tssThreshold",
              "type": "uint8"
            },
            {
              "internalType": "uint8",
              "name": "_nodeRewardsRatio",
              "type": "uint8"
            },
            {
              "internalType": "uint8",
              "name": "_withdrawalFeeBPS",
              "type": "uint8"
            }
          ],
          "name": "churn",
          "outputs": [
            {
              "internalType": "bool",
              "name": "",
              "type": "bool"
            }
          ],
          "stateMutability": "nonpayable",
          "type": "function"
        },
        {
          "inputs": [],
          "name": "churnedInCount",
          "outputs": [
            {
              "internalType": "uint8",
              "name": "",
              "type": "uint8"
            }
          ],
          "stateMutability": "view",
          "type": "function"
        },
        {
          "inputs": [
            {
              "internalType": "address",
              "name": "_destToken",
              "type": "address"
            },
            {
              "internalType": "uint256",
              "name": "_incomingAmount",
              "type": "uint256"
            },
            {
              "internalType": "uint256",
              "name": "_minerFee",
              "type": "uint256"
            },
            {
              "internalType": "uint256",
              "name": "_rewardsAmount",
              "type": "uint256"
            }
          ],
          "name": "collectSwapFeesForBTC",
          "outputs": [
            {
              "internalType": "bool",
              "name": "",
              "type": "bool"
            }
          ],
          "stateMutability": "nonpayable",
          "type": "function"
        },
        {
          "inputs": [],
          "name": "depositFeesBPS",
          "outputs": [
            {
              "internalType": "uint8",
              "name": "",
              "type": "uint8"
            }
          ],
          "stateMutability": "view",
          "type": "function"
        },
        {
          "inputs": [],
          "name": "distributeNodeRewards",
          "outputs": [
            {
              "internalType": "bool",
              "name": "",
              "type": "bool"
            }
          ],
          "stateMutability": "nonpayable",
          "type": "function"
        },
        {
          "inputs": [],
          "name": "feesLPTokensForNode",
          "outputs": [
            {
              "internalType": "uint256",
              "name": "",
              "type": "uint256"
            }
          ],
          "stateMutability": "view",
          "type": "function"
        },
        {
          "inputs": [],
          "name": "getActiveNodes",
          "outputs": [
            {
              "internalType": "bytes32[]",
              "name": "",
              "type": "bytes32[]"
            }
          ],
          "stateMutability": "view",
          "type": "function"
        },
        {
          "inputs": [],
          "name": "getCurrentPriceLP",
          "outputs": [
            {
              "internalType": "uint256",
              "name": "nowPrice",
              "type": "uint256"
            }
          ],
          "stateMutability": "view",
          "type": "function"
        },
        {
          "inputs": [
            {
              "internalType": "address",
              "name": "_token",
              "type": "address"
            },
            {
              "internalType": "uint256",
              "name": "_amountOfFloat",
              "type": "uint256"
            }
          ],
          "name": "getDepositFeeRate",
          "outputs": [
            {
              "internalType": "uint256",
              "name": "depositFeeRate",
              "type": "uint256"
            }
          ],
          "stateMutability": "view",
          "type": "function"
        },
        {
          "inputs": [
            {
              "internalType": "address",
              "name": "_tokenA",
              "type": "address"
            },
            {
              "internalType": "address",
              "name": "_tokenB",
              "type": "address"
            }
          ],
          "name": "getFloatReserve",
          "outputs": [
            {
              "internalType": "uint256",
              "name": "reserveA",
              "type": "uint256"
            },
            {
              "internalType": "uint256",
              "name": "reserveB",
              "type": "uint256"
            }
          ],
          "stateMutability": "view",
          "type": "function"
        },
        {
          "inputs": [],
          "name": "initialExchangeRate",
          "outputs": [
            {
              "internalType": "uint256",
              "name": "",
              "type": "uint256"
            }
          ],
          "stateMutability": "view",
          "type": "function"
        },
        {
          "inputs": [
            {
              "internalType": "bytes32",
              "name": "_txid",
              "type": "bytes32"
            }
          ],
          "name": "isTxUsed",
          "outputs": [
            {
              "internalType": "bool",
              "name": "",
              "type": "bool"
            }
          ],
          "stateMutability": "view",
          "type": "function"
        },
        {
          "inputs": [],
          "name": "lockedLPTokensForNode",
          "outputs": [
            {
              "internalType": "uint256",
              "name": "",
              "type": "uint256"
            }
          ],
          "stateMutability": "view",
          "type": "function"
        },
        {
          "inputs": [],
          "name": "lpToken",
          "outputs": [
            {
              "internalType": "address",
              "name": "",
              "type": "address"
            }
          ],
          "stateMutability": "view",
          "type": "function"
        },
        {
          "inputs": [
            {
              "internalType": "address",
              "name": "_destToken",
              "type": "address"
            },
            {
              "internalType": "bytes32[]",
              "name": "_addressesAndAmounts",
              "type": "bytes32[]"
            },
            {
              "internalType": "uint256",
              "name": "_totalSwapped",
              "type": "uint256"
            },
            {
              "internalType": "uint256",
              "name": "_rewardsAmount",
              "type": "uint256"
            },
            {
              "internalType": "bytes32[]",
              "name": "_redeemedFloatTxIds",
              "type": "bytes32[]"
            }
          ],
          "name": "multiTransferERC20TightlyPacked",
          "outputs": [
            {
              "internalType": "bool",
              "name": "",
              "type": "bool"
            }
          ],
          "stateMutability": "nonpayable",
          "type": "function"
        },
        {
          "inputs": [],
          "name": "nodeRewardsRatio",
          "outputs": [
            {
              "internalType": "uint8",
              "name": "",
              "type": "uint8"
            }
          ],
          "stateMutability": "view",
          "type": "function"
        },
        {
          "inputs": [],
          "name": "owner",
          "outputs": [
            {
              "internalType": "address",
              "name": "",
              "type": "address"
            }
          ],
          "stateMutability": "view",
          "type": "function"
        },
        {
          "inputs": [
            {
              "internalType": "address",
              "name": "_token",
              "type": "address"
            },
            {
              "internalType": "bytes32",
              "name": "_addressesAndAmountOfFloat",
              "type": "bytes32"
            },
            {
              "internalType": "bool",
              "name": "_zerofee",
              "type": "bool"
            },
            {
              "internalType": "bytes32",
              "name": "_txid",
              "type": "bytes32"
            }
          ],
          "name": "recordIncomingFloat",
          "outputs": [
            {
              "internalType": "bool",
              "name": "",
              "type": "bool"
            }
          ],
          "stateMutability": "nonpayable",
          "type": "function"
        },
        {
          "inputs": [
            {
              "internalType": "address",
              "name": "_token",
              "type": "address"
            },
            {
              "internalType": "bytes32",
              "name": "_addressesAndAmountOfLPtoken",
              "type": "bytes32"
            },
            {
              "internalType": "uint256",
              "name": "_minerFee",
              "type": "uint256"
            },
            {
              "internalType": "bytes32",
              "name": "_txid",
              "type": "bytes32"
            }
          ],
          "name": "recordOutcomingFloat",
          "outputs": [
            {
              "internalType": "bool",
              "name": "",
              "type": "bool"
            }
          ],
          "stateMutability": "nonpayable",
          "type": "function"
        },
        {
          "inputs": [
            {
              "internalType": "uint256",
              "name": "_minerFee",
              "type": "uint256"
            },
            {
              "internalType": "bytes32",
              "name": "_txid",
              "type": "bytes32"
            }
          ],
          "name": "recordUTXOSweepMinerFee",
          "outputs": [
            {
              "internalType": "bool",
              "name": "",
              "type": "bool"
            }
          ],
          "stateMutability": "nonpayable",
          "type": "function"
        },
        {
          "inputs": [],
          "name": "renounceOwnership",
          "outputs": [],
          "stateMutability": "nonpayable",
          "type": "function"
        },
        {
          "inputs": [
            {
              "internalType": "address",
              "name": "_destToken",
              "type": "address"
            },
            {
              "internalType": "address",
              "name": "_to",
              "type": "address"
            },
            {
              "internalType": "uint256",
              "name": "_amount",
              "type": "uint256"
            },
            {
              "internalType": "uint256",
              "name": "_totalSwapped",
              "type": "uint256"
            },
            {
              "internalType": "uint256",
              "name": "_rewardsAmount",
              "type": "uint256"
            },
            {
              "internalType": "bytes32[]",
              "name": "_redeemedFloatTxIds",
              "type": "bytes32[]"
            }
          ],
          "name": "singleTransferERC20",
          "outputs": [
            {
              "internalType": "bool",
              "name": "",
              "type": "bool"
            }
          ],
          "stateMutability": "nonpayable",
          "type": "function"
        },
        {
          "inputs": [
            {
              "internalType": "address",
              "name": "newOwner",
              "type": "address"
            }
          ],
          "name": "transferOwnership",
          "outputs": [],
          "stateMutability": "nonpayable",
          "type": "function"
        },
        {
          "inputs": [],
          "name": "tssThreshold",
          "outputs": [
            {
              "internalType": "uint8",
              "name": "",
              "type": "uint8"
            }
          ],
          "stateMutability": "view",
          "type": "function"
        },
        {
          "inputs": [
            {
              "internalType": "address",
              "name": "",
              "type": "address"
            }
          ],
          "name": "whitelist",
          "outputs": [
            {
              "internalType": "bool",
              "name": "",
              "type": "bool"
            }
          ],
          "stateMutability": "view",
          "type": "function"
        },
        {
          "inputs": [],
          "name": "withdrawalFeeBPS",
          "outputs": [
            {
              "internalType": "uint8",
              "name": "",
              "type": "uint8"
            }
          ],
          "stateMutability": "view",
          "type": "function"
        }
      ],
      "evm": {
        "bytecode": {
          "linkReferences": {},
          "object": "60806040523480156200001157600080fd5b5060405162002d0738038062002d07833981810160405260608110156200003757600080fd5b508051602082015160409092015190919060006200005462000296565b600080546001600160a01b0319166001600160a01b0383169081178255604051929350917f8be0079c531659141344cd1fd0a4f28419497f9722a3daafe3b4186f6b6457e0908290a350600280546001600160a01b0319166001600160a01b0385811691909117918290556040805163313ce56760e01b81529051929091169163313ce56791600480820192602092909190829003018186803b158015620000fb57600080fd5b505afa15801562000110573d6000803e3d6000fd5b505050506040513d60208110156200012757600080fd5b505160ff16600a0a600955600180546001600160a01b0319166001600160a01b0384169081179091556004805462ff00001916624200001763ff000000191663320000001760ff60201b19166414000000001781556040805163313ce56760e01b815290516008939263313ce56792808201926020929091829003018186803b158015620001b457600080fd5b505afa158015620001c9573d6000803e3d6000fd5b505050506040513d6020811015620001e057600080fd5b50510360ff16600a90810a600855600954600755600060058190556006819055600180546001600160a01b039081168352600360209081526040808520805460ff1990811686179091556002549093168552842080548316841790559280527f3617319a054d772f909f7c479a2cebe5066e836a939412e32403c99029b92eff80549091169091179055527f13da86008ba1c6922daee3e07db95305ef49ebced9f5467a0b8613fcc6b343e355506200029a9050565b3390565b612a5d80620002aa6000396000f3fe608060405234801561001057600080fd5b50600436106101a85760003560e01c80636b51e919116100f9578063b6268e5d11610097578063e9e9bf6a11610071578063e9e9bf6a14610755578063ec4827291461075d578063f2fde38b146107a4578063f7824bc7146107ca576101a8565b8063b6268e5d1461070d578063c810a53914610715578063e6ca208414610738576101a8565b80638006cc3e116100d35780638006cc3e146105685780638da5cb5b146105a05780639b19251a146105a8578063ad289e76146105ce576101a8565b80636b51e919146104fe5780636d019f3514610556578063715018a61461055e576101a8565b80632d55282d1161016657806345137e271161014057806345137e27146103665780634e54cee01461036e5780635fcbd285146104bc57806363f289d9146104c4576101a8565b80632d55282d146103185780633b6fa12714610332578063424192551461035e576101a8565b806289356f146101ad5780630b68134d146101cb5780630d63aca7146101d35780630f909486146102b457806312d1441e146102d85780632586c562146102e0575b600080fd5b6101b56107d2565b6040805160ff9092168252519081900360200190f35b6101b56107db565b6102a0600480360360c08110156101e957600080fd5b6001600160a01b0382358116926020810135909116916040820135916060810135916080820135919081019060c0810160a0820135600160201b81111561022f57600080fd5b82018360208201111561024157600080fd5b803590602001918460208302840111600160201b8311171561026257600080fd5b9190808060200260200160405190810160405280939291908181526020018383602002808284376000920191909152509295506107ea945050505050565b604080519115158252519081900360200190f35b6102bc610989565b604080516001600160a01b039092168252519081900360200190f35b6101b5610998565b6102a0600480360360808110156102f657600080fd5b506001600160a01b0381351690602081013590604081013590606001356109a6565b610320610aea565b60408051918252519081900360200190f35b6103206004803603604081101561034857600080fd5b506001600160a01b038135169060200135610af0565b6101b5610b7c565b610320610b8c565b6102a0600480360360e081101561038457600080fd5b6001600160a01b038235169190810190604081016020820135600160201b8111156103ae57600080fd5b8201836020820111156103c057600080fd5b803590602001918460208302840111600160201b831117156103e157600080fd5b9190808060200260200160405190810160405280939291908181526020018383602002808284376000920191909152509295949360208101935035915050600160201b81111561043057600080fd5b82018360208201111561044257600080fd5b803590602001918460208302840111600160201b8311171561046357600080fd5b9190808060200260200160405190810160405280939291908181526020018383602002808284376000920191909152509295505060ff833581169450602084013581169360408101358216935060600135169050610c78565b6102bc610f96565b6102a0600480360360808110156104da57600080fd5b506001600160a01b0381351690602081013590604081013515159060600135610fa5565b610506611083565b60408051602080825283518183015283519192839290830191858101910280838360005b8381101561054257818101518382015260200161052a565b505050509050019250505060405180910390f35b6103206111e2565b6105666111e8565b005b6102a06004803603608081101561057e57600080fd5b506001600160a01b038135169060208101359060408101359060600135611294565b6102bc6113c5565b6102a0600480360360208110156105be57600080fd5b50356001600160a01b03166113d4565b6102a0600480360360a08110156105e457600080fd5b6001600160a01b038235169190810190604081016020820135600160201b81111561060e57600080fd5b82018360208201111561062057600080fd5b803590602001918460208302840111600160201b8311171561064157600080fd5b9190808060200260200160405190810160405280939291908181526020018383602002808284376000920191909152509295843595602086013595919450925060608101915060400135600160201b81111561069c57600080fd5b8201836020820111156106ae57600080fd5b803590602001918460208302840111600160201b831117156106cf57600080fd5b9190808060200260200160405190810160405280939291908181526020018383602002808284376000920191909152509295506113e9945050505050565b6101b56115c3565b6102a06004803603604081101561072b57600080fd5b50803590602001356115d3565b6102a06004803603602081101561074e57600080fd5b5035611738565b6102a061174d565b61078b6004803603604081101561077357600080fd5b506001600160a01b03813581169160200135166119b4565b6040805192835260208301919091528051918290030190f35b610566600480360360208110156107ba57600080fd5b50356001600160a01b03166119de565b610320611ae0565b60045460ff1681565b60045462010000900460ff1681565b60006107f4611ae6565b6001600160a01b03166108056113c5565b6001600160a01b03161461084e576040805162461bcd60e51b81526020600482018190526024820152600080516020612983833981519152604482015290519081900360640190fd5b6001600160a01b03871660009081526003602052604090205460ff166108bb576040805162461bcd60e51b815260206004820152601d60248201527f5f64657374546f6b656e206973206e6f742077686974656c6973746564000000604482015290519081900360640190fd5b6001600160a01b0387166109005760405162461bcd60e51b8152600401808060200182810382526023815260200180612a056023913960400191505060405180910390fd5b6000841561092657600154610921906000906001600160a01b031687611aea565b610939565b8461093957506001546001600160a01b03165b6002546001600160a01b038981169116141561095d57506002546001600160a01b03165b6109678185611bd6565b61097083611d4d565b61097b888888611d9c565b506001979650505050505050565b6001546001600160a01b031681565b600454610100900460ff1681565b60006109b0611ae6565b6001600160a01b03166109c16113c5565b6001600160a01b031614610a0a576040805162461bcd60e51b81526020600482018190526024820152600080516020612983833981519152604482015290519081900360640190fd5b6000610a14610b8c565b6001600160a01b03871660009081526003602052604090205490915060ff16610a78576040805162461bcd60e51b815260206004820152601160248201527017dd1bdad95b881a5cc81a5b9d985b1a59607a1b604482015290519081900360640190fd5b610a8486868686611e54565b610a8d57600080fd5b6001915080610a9a610b8c565b1015610ae1576040805162461bcd60e51b8152602060048201526011602482015270496e76616c6964204c505420707269636560781b604482015290519081900360640190fd5b50949350505050565b60055481565b600080610afd84846121f0565b90508060ff1660011415610b3f576001546001600160a01b03858116911614610b27576000610b35565b6004546301000000900460ff165b60ff169150610b75565b8060ff1660021415610b75576001600160a01b03841615610b61576000610b6f565b6004546301000000900460ff165b60ff1691505b5092915050565b6004546301000000900460ff1681565b60015460009081908190610baa9082906001600160a01b03166119b4565b915091506000600260009054906101000a90046001600160a01b03166001600160a01b03166318160ddd6040518163ffffffff1660e01b815260040160206040518083038186803b158015610bfe57600080fd5b505afa158015610c12573d6000803e3d6000fd5b505050506040513d6020811015610c2857600080fd5b505190508015610c6c57610c67610c4a600554836122aa90919063ffffffff16565b600954610c6190610c5b87876122aa565b9061230b565b90612364565b610c70565b6007545b935050505090565b6000610c82611ae6565b6001600160a01b0316610c936113c5565b6001600160a01b031614610cdc576040805162461bcd60e51b81526020600482018190526024820152600080516020612983833981519152604482015290519081900360640190fd5b60045460ff610100909104811690851610801590610cfe575060ff8460ff1611155b610d395760405162461bcd60e51b815260040180806020018281038252602781526020018061291a6027913960400191505060405180910390fd5b6001840160ff168560ff161015610d8c576040805162461bcd60e51b81526020600482015260126024820152716e2073686f756c64206265203e3d20742b3160701b604482015290519081900360640190fd5b60648360ff161115610de5576040805162461bcd60e51b815260206004820152601e60248201527f5f6e6f646552657761726473526174696f206973206e6f742076616c69640000604482015290519081900360640190fd5b60648260ff161115610e3e576040805162461bcd60e51b815260206004820152601c60248201527f5f7769746864726177616c46656542505320697320696e76616c696400000000604482015290519081900360640190fd5b8551875114610e7e5760405162461bcd60e51b815260040180806020018281038252603b8152602001806129ca603b913960400191505060405180910390fd5b610e87886119de565b60005b8751811015610eef576000610eb1898381518110610ea457fe5b60200260200101516123cb565b509050610ee5818a8481518110610ec457fe5b60200260200101518a8581518110610ed857fe5b60200260200101516123d4565b5050600101610e8a565b506060610efa611083565b9050606481511115610f3d5760405162461bcd60e51b81526004018080602001828103825260218152602001806129626021913960400191505060405180910390fd5b50506004805460ff191660ff9586161761ff001916610100948616949094029390931762ff0000191662010000928516929092029190911764ff000000001916600160201b919093160291909117905550600192915050565b6002546001600160a01b031681565b6000610faf611ae6565b6001600160a01b0316610fc06113c5565b6001600160a01b031614611009576040805162461bcd60e51b81526020600482018190526024820152600080516020612983833981519152604482015290519081900360640190fd5b6000611013610b8c565b6001600160a01b03871660009081526003602052604090205490915060ff16611077576040805162461bcd60e51b815260206004820152601160248201527017dd1bdad95b881a5cc81a5b9d985b1a59607a1b604482015290519081900360640190fd5b610a84868686866124c4565b606060008060005b600e548110156110e657600c6000600e83815481106110a657fe5b60009182526020808320909101546001600160a01b03168352820192909252604001902054156110de576110db8360016122aa565b92505b60010161108b565b5060608267ffffffffffffffff8111801561110057600080fd5b5060405190808252806020026020018201604052801561112a578160200160208202803683370190505b50905060005b600e548110156111da57600c6000600e838154811061114b57fe5b60009182526020808320909101546001600160a01b03168352820192909252604001902054156111d257600c6000600e838154811061118657fe5b60009182526020808320909101546001600160a01b0316835282019290925260400190205482518390859081106111b957fe5b60209081029190910101526111cf8360016122aa565b92505b600101611130565b509250505090565b60075481565b6111f0611ae6565b6001600160a01b03166112016113c5565b6001600160a01b03161461124a576040805162461bcd60e51b81526020600482018190526024820152600080516020612983833981519152604482015290519081900360640190fd5b600080546040516001600160a01b03909116907f8be0079c531659141344cd1fd0a4f28419497f9722a3daafe3b4186f6b6457e0908390a3600080546001600160a01b0319169055565b600061129e611ae6565b6001600160a01b03166112af6113c5565b6001600160a01b0316146112f8576040805162461bcd60e51b81526020600482018190526024820152600080516020612983833981519152604482015290519081900360640190fd5b6001600160a01b03851615611354576040805162461bcd60e51b815260206004820152601f60248201527f5f64657374546f6b656e2073686f756c64206265206164647265737328302900604482015290519081900360640190fd5b6001546001600160a01b031684156113a657600061137c85611376888761270b565b9061270b565b6001549091506113a0906001600160a01b0316600061139b84896122aa565b611aea565b506113af565b846113af575060005b6113b98184611bd6565b50600195945050505050565b6000546001600160a01b031690565b60036020526000908152604090205460ff1681565b60006113f3611ae6565b6001600160a01b03166114046113c5565b6001600160a01b03161461144d576040805162461bcd60e51b81526020600482018190526024820152600080516020612983833981519152604482015290519081900360640190fd5b6001600160a01b03861660009081526003602052604090205460ff166114ba576040805162461bcd60e51b815260206004820152601d60248201527f5f64657374546f6b656e206973206e6f742077686974656c6973746564000000604482015290519081900360640190fd5b6001600160a01b0386166114ff5760405162461bcd60e51b8152600401808060200182810382526023815260200180612a056023913960400191505060405180910390fd5b6000841561152557600154611520906000906001600160a01b031687611aea565b611538565b8461153857506001546001600160a01b03165b6002546001600160a01b038881169116141561155c57506002546001600160a01b03165b6115668185611bd6565b61156f83611d4d565b60005b865181101561097b576115bb8888838151811061158b57fe5b602002602001015160001c8984815181106115a257fe5b602002602001015160a01c6001600160601b0316611d9c565b600101611572565b600454600160201b900460ff1681565b60006115dd611ae6565b6001600160a01b03166115ee6113c5565b6001600160a01b031614611637576040805162461bcd60e51b81526020600482018190526024820152600080516020612983833981519152604482015290519081900360640190fd5b61164082611738565b1561168d576040805162461bcd60e51b8152602060048201526018602482015277151a19481d1e1a59081a5cc8185b1c9958591e481d5cd95960421b604482015290519081900360640190fd5b60408051808201909152601d81527f42544320666c6f617420616d6f756e7420696e73756666696369656e7400000060208083019190915260008052600a90527f13da86008ba1c6922daee3e07db95305ef49ebced9f5467a0b8613fcc6b343e3546116fa918590612768565b60008052600a6020527f13da86008ba1c6922daee3e07db95305ef49ebced9f5467a0b8613fcc6b343e35561172e826127ff565b5060015b92915050565b6000908152600b602052604090205460ff1690565b6000806117676006546005546122aa90919063ffffffff16565b9050600081116117a85760405162461bcd60e51b815260040180806020018281038252602581526020018061289b6025913960400191505060405180910390fd5b60606117b2611083565b90506000805b82518110156117fd576117f38382815181106117d057fe5b602002602001015160a01c6001600160601b0316836122aa90919063ffffffff16565b91506001016117b8565b50600254600554604080516340c10f1960e01b81523060048201526024810192909252516001600160a01b03909216916340c10f19916044808201926020929091908290030181600087803b15801561185557600080fd5b505af1158015611869573d6000803e3d6000fd5b505050506040513d602081101561187f57600080fd5b50600090505b825181101561196c5760025483516001600160a01b039091169063a9059cbb908590849081106118b157fe5b602002602001015160001c6118f285610c618887815181106118cf57fe5b602002602001015160a01c6001600160601b03168a61230b90919063ffffffff16565b6040518363ffffffff1660e01b815260040180836001600160a01b0316815260200182815260200192505050602060405180830381600087803b15801561193857600080fd5b505af115801561194c573d6000803e3d6000fd5b505050506040513d602081101561196257600080fd5b5050600101611885565b506040805184815290517f86dd6ae252e62228b47b3c1a12762cbf634952b2d29319b04f4f72fb153bcbdd9181900360200190a1505060006005819055600655506001905090565b6001600160a01b039182166000908152600a60205260408082205492909316815291909120549091565b6119e6611ae6565b6001600160a01b03166119f76113c5565b6001600160a01b031614611a40576040805162461bcd60e51b81526020600482018190526024820152600080516020612983833981519152604482015290519081900360640190fd5b6001600160a01b038116611a855760405162461bcd60e51b81526004018080602001828103825260268152602001806128f46026913960400191505060405180910390fd5b600080546040516001600160a01b03808516939216917f8be0079c531659141344cd1fd0a4f28419497f9722a3daafe3b4186f6b6457e091a3600080546001600160a01b0319166001600160a01b0392909216919091179055565b60065481565b3390565b60408051808201825260208082527f5f737761703a20666c6f617420616d6f756e7420696e73756666696369656e74818301526001600160a01b0385166000908152600a9091529190912054611b41918390612768565b6001600160a01b038084166000908152600a60205260408082209390935590851681522054611b7090826122aa565b6001600160a01b038085166000818152600a602090815260409182902094909455805191825291851692810192909252818101839052517fea368a40e9570069bb8e6511d668293ad2e1f03b0d982431fd223de9f3b70ca69181900360600190a1505050565b80611be057611d49565b6002546001600160a01b0383811691161415611c5b57600654611c0390826122aa565b600655604080516001600160a01b0384168152602081018390526000818301819052606082015290517fe3debe835f6848edc082b32a1d729781d3bfcd7e14422d80bcaa6794d3816b2f9181900360800190a1611d49565b6000611c65610b8c565b6001600160a01b0384166000908152600a6020526040902054909150611c8b90836122aa565b6001600160a01b0384166000908152600a6020526040812091909155600454611cc590606490610c6190869062010000900460ff1661230b565b90506000611ce283610c616009548561230b90919063ffffffff16565b600554909150611cf290826122aa565b600555604080516001600160a01b0387168152602081018690528082018390526060810185905290517fe3debe835f6848edc082b32a1d729781d3bfcd7e14422d80bcaa6794d3816b2f9181900360800190a15050505b5050565b60005b8151811015611d49576001600b6000848481518110611d6b57fe5b6020908102919091018101518252810191909152604001600020805460ff1916911515919091179055600101611d50565b6001546001600160a01b0384811691161415611dc357600854611dc090829061230b565b90505b826001600160a01b031663a9059cbb83836040518363ffffffff1660e01b815260040180836001600160a01b0316815260200182815260200192505050602060405180830381600087803b158015611e1a57600080fd5b505af1158015611e2e573d6000803e3d6000fd5b505050506040513d6020811015611e4457600080fd5b5051611e4f57600080fd5b505050565b6000611e5f82611738565b15611eac576040805162461bcd60e51b8152602060048201526018602482015277151a19481d1e1a59081a5cc8185b1c9958591e481d5cd95960421b604482015290519081900360640190fd5b83611efe576040805162461bcd60e51b815260206004820152601c60248201527f546865207472616e73616374696f6e206973206e6f742076616c696400000000604482015290519081900360640190fd5b600080611f0a866123cb565b915091506000611f18610b8c565b90506000611f35600954610c61848661230b90919063ffffffff16565b600454909150600090611f5b9061271090610c61908590600160201b900460ff1661230b565b905087611f68838361270b565b1015611fa55760405162461bcd60e51b81526004018080602001828103825260348152602001806128c06034913960400191505060405180910390fd5b6000611fb589611376858561270b565b6001549091506000908190611fd49082906001600160a01b03166119b4565b90925090506001600160a01b038d1661204a57611ff1858561270b565b821015612045576040805162461bcd60e51b815260206004820152601f60248201527f54686520666c6f61742062616c616e636520696e73756666696369656e742e00604482015290519081900360640190fd5b6120be565b6001546001600160a01b038e8116911614156120be5761206a858561270b565b8110156120be576040805162461bcd60e51b815260206004820152601f60248201527f54686520666c6f61742062616c616e636520696e73756666696369656e742e00604482015290519081900360640190fd5b6120c88d85611bd6565b6120d28d8661281a565b6120db8a6127ff565b6001546001600160a01b038e8116911614156120fc576120fc8d8985611d9c565b60025460408051630852cd8d60e31b8152600481018a905290516001600160a01b03909216916342966c68916024808201926020929091908290030181600087803b15801561214a57600080fd5b505af115801561215e573d6000803e3d6000fd5b505050506040513d602081101561217457600080fd5b505161217f57600080fd5b604080516001600160a01b038a16815260208101899052808201879052606081018890526080810185905260a081018c905290517fa9da34e5e4a956b744307ae7611795634e8365951073bf049d76b64b2ae7a0589181900360c00190a15060019c9b505050505050505050505050565b6001546000908190819061220e9082906001600160a01b03166119b4565b909250905060006122336003610c616002610c5b8961222d89896122aa565b906122aa565b6001549091506001600160a01b03878116911614801561225c57508061225983876122aa565b10155b1561226d5760019350505050611732565b6001600160a01b03861615801561228d57508061228a84876122aa565b10155b1561229e5760029350505050611732565b50600095945050505050565b600082820183811015612304576040805162461bcd60e51b815260206004820152601b60248201527f536166654d6174683a206164646974696f6e206f766572666c6f770000000000604482015290519081900360640190fd5b9392505050565b60008261231a57506000611732565b8282028284828161232757fe5b04146123045760405162461bcd60e51b81526004018080602001828103825260218152602001806129416021913960400191505060405180910390fd5b60008082116123ba576040805162461bcd60e51b815260206004820152601a60248201527f536166654d6174683a206469766973696f6e206279207a65726f000000000000604482015290519081900360640190fd5b8183816123c357fe5b049392505050565b9060a082901c90565b600081156123fd57506001600160a01b0383166000908152600c60205260408120556001612304565b6001600160a01b0384166000908152600d602052604090205460ff1661248157600e805460018082019092557fbb7b4a454dc3493923482f07822329ed19e8244eff582cc204f8554c3620c3fd0180546001600160a01b0319166001600160a01b0387169081179091556000908152600d60205260409020805460ff191690911790555b6001600160a01b0384166000908152600c60205260409020546124ba576001600160a01b0384166000908152600c602052604090208390555b5060019392505050565b60006124cf82611738565b1561251c576040805162461bcd60e51b8152602060048201526018602482015277151a19481d1e1a59081a5cc8185b1c9958591e481d5cd95960421b604482015290519081900360640190fd5b8361256e576040805162461bcd60e51b815260206004820152601c60248201527f546865207472616e73616374696f6e206973206e6f742076616c696400000000604482015290519081900360640190fd5b60008061257a866123cb565b915091506000612588610b8c565b905060006125a582610c616009548661230b90919063ffffffff16565b905060006125b38a85610af0565b90506000816125c35760006125d3565b6125d3612710610c61858561230b565b90508880156125e157508015155b156125eb57600080fd5b6002546001600160a01b03166340c10f1987612607868561270b565b6040518363ffffffff1660e01b815260040180836001600160a01b0316815260200182815260200192505050602060405180830381600087803b15801561264d57600080fd5b505af1158015612661573d6000803e3d6000fd5b505050506040513d602081101561267757600080fd5b505060055461268690826122aa565b6005556126938b86612877565b61269c886127ff565b604080516001600160a01b038816815260208101879052808201859052606081018690526080810183905260a081018a905290517fdfaf4e23f7030adafec91a682e05bf9fb30c721f9cec3d8bcfae0459c5362db19181900360c00190a15060019a9950505050505050505050565b600082821115612762576040805162461bcd60e51b815260206004820152601e60248201527f536166654d6174683a207375627472616374696f6e206f766572666c6f770000604482015290519081900360640190fd5b50900390565b600081848411156127f75760405162461bcd60e51b81526004018080602001828103825283818151815260200191508051906020019080838360005b838110156127bc5781810151838201526020016127a4565b50505050905090810190601f1680156127e95780820380516001836020036101000a031916815260200191505b509250505060405180910390fd5b505050900390565b6000908152600b60205260409020805460ff19166001179055565b612857816040518060600160405280602781526020016129a3602791396001600160a01b0385166000908152600a60205260409020549190612768565b6001600160a01b039092166000908152600a602052604090209190915550565b6001600160a01b0382166000908152600a602052604090205461285790826122aa56fe746f74616c5265776172644c5073466f724e6f6465206973206e6f7420706f7369746976654572726f723a20616d6f756e744f66466c6f61742e737562287769746864726177616c4665657329203c205f6d696e65724665654f776e61626c653a206e6577206f776e657220697320746865207a65726f20616464726573735f7473735468726573686f6c642073686f756c64206265203e3d207473735468726573686f6c64536166654d6174683a206d756c7469706c69636174696f6e206f766572666c6f7753746f726564206e6f64652073697a652073686f756c64206265203c3d203130304f776e61626c653a2063616c6c6572206973206e6f7420746865206f776e65725f72656d6f7665466c6f61743a20666c6f617420616d6f756e7420696e73756666696369656e745f72657761726441646472657373416e64416d6f756e747320616e64205f697352656d6f766564206c656e677468206973206e6f74206d617463685f64657374546f6b656e2073686f756c64206e6f742062652061646472657373283029a2646970667358221220b2c9b43a6000b347a31866cf166fd884f5de5240f6f305857a837f784275074f64736f6c63430007030033",
          "opcodes": "PUSH1 0x80 PUSH1 0x40 MSTORE CALLVALUE DUP1 ISZERO PUSH3 0x11 JUMPI PUSH1 0x0 DUP1 REVERT JUMPDEST POP PUSH1 0x40 MLOAD PUSH3 0x2D07 CODESIZE SUB DUP1 PUSH3 0x2D07 DUP4 CODECOPY DUP2 DUP2 ADD PUSH1 0x40 MSTORE PUSH1 0x60 DUP2 LT ISZERO PUSH3 0x37 JUMPI PUSH1 0x0 DUP1 REVERT JUMPDEST POP DUP1 MLOAD PUSH1 0x20 DUP3 ADD MLOAD PUSH1 0x40 SWAP1 SWAP3 ADD MLOAD SWAP1 SWAP2 SWAP1 PUSH1 0x0 PUSH3 0x54 PUSH3 0x296 JUMP JUMPDEST PUSH1 0x0 DUP1 SLOAD PUSH1 0x1 PUSH1 0x1 PUSH1 0xA0 SHL SUB NOT AND PUSH1 0x1 PUSH1 0x1 PUSH1 0xA0 SHL SUB DUP4 AND SWAP1 DUP2 OR DUP3 SSTORE PUSH1 0x40 MLOAD SWAP3 SWAP4 POP SWAP2 PUSH32 0x8BE0079C531659141344CD1FD0A4F28419497F9722A3DAAFE3B4186F6B6457E0 SWAP1 DUP3 SWAP1 LOG3 POP PUSH1 0x2 DUP1 SLOAD PUSH1 0x1 PUSH1 0x1 PUSH1 0xA0 SHL SUB NOT AND PUSH1 0x1 PUSH1 0x1 PUSH1 0xA0 SHL SUB DUP6 DUP2 AND SWAP2 SWAP1 SWAP2 OR SWAP2 DUP3 SWAP1 SSTORE PUSH1 0x40 DUP1 MLOAD PUSH4 0x313CE567 PUSH1 0xE0 SHL DUP2 MSTORE SWAP1 MLOAD SWAP3 SWAP1 SWAP2 AND SWAP2 PUSH4 0x313CE567 SWAP2 PUSH1 0x4 DUP1 DUP3 ADD SWAP3 PUSH1 0x20 SWAP3 SWAP1 SWAP2 SWAP1 DUP3 SWAP1 SUB ADD DUP2 DUP7 DUP1 EXTCODESIZE ISZERO DUP1 ISZERO PUSH3 0xFB JUMPI PUSH1 0x0 DUP1 REVERT JUMPDEST POP GAS STATICCALL ISZERO DUP1 ISZERO PUSH3 0x110 JUMPI RETURNDATASIZE PUSH1 0x0 DUP1 RETURNDATACOPY RETURNDATASIZE PUSH1 0x0 REVERT JUMPDEST POP POP POP POP PUSH1 0x40 MLOAD RETURNDATASIZE PUSH1 0x20 DUP2 LT ISZERO PUSH3 0x127 JUMPI PUSH1 0x0 DUP1 REVERT JUMPDEST POP MLOAD PUSH1 0xFF AND PUSH1 0xA EXP PUSH1 0x9 SSTORE PUSH1 0x1 DUP1 SLOAD PUSH1 0x1 PUSH1 0x1 PUSH1 0xA0 SHL SUB NOT AND PUSH1 0x1 PUSH1 0x1 PUSH1 0xA0 SHL SUB DUP5 AND SWAP1 DUP2 OR SWAP1 SWAP2 SSTORE PUSH1 0x4 DUP1 SLOAD PUSH3 0xFF0000 NOT AND PUSH3 0x420000 OR PUSH4 0xFF000000 NOT AND PUSH4 0x32000000 OR PUSH1 0xFF PUSH1 0x20 SHL NOT AND PUSH5 0x1400000000 OR DUP2 SSTORE PUSH1 0x40 DUP1 MLOAD PUSH4 0x313CE567 PUSH1 0xE0 SHL DUP2 MSTORE SWAP1 MLOAD PUSH1 0x8 SWAP4 SWAP3 PUSH4 0x313CE567 SWAP3 DUP1 DUP3 ADD SWAP3 PUSH1 0x20 SWAP3 SWAP1 SWAP2 DUP3 SWAP1 SUB ADD DUP2 DUP7 DUP1 EXTCODESIZE ISZERO DUP1 ISZERO PUSH3 0x1B4 JUMPI PUSH1 0x0 DUP1 REVERT JUMPDEST POP GAS STATICCALL ISZERO DUP1 ISZERO PUSH3 0x1C9 JUMPI RETURNDATASIZE PUSH1 0x0 DUP1 RETURNDATACOPY RETURNDATASIZE PUSH1 0x0 REVERT JUMPDEST POP POP POP POP PUSH1 0x40 MLOAD RETURNDATASIZE PUSH1 0x20 DUP2 LT ISZERO PUSH3 0x1E0 JUMPI PUSH1 0x0 DUP1 REVERT JUMPDEST POP MLOAD SUB PUSH1 0xFF AND PUSH1 0xA SWAP1 DUP2 EXP PUSH1 0x8 SSTORE PUSH1 0x9 SLOAD PUSH1 0x7 SSTORE PUSH1 0x0 PUSH1 0x5 DUP2 SWAP1 SSTORE PUSH1 0x6 DUP2 SWAP1 SSTORE PUSH1 0x1 DUP1 SLOAD PUSH1 0x1 PUSH1 0x1 PUSH1 0xA0 SHL SUB SWAP1 DUP2 AND DUP4 MSTORE PUSH1 0x3 PUSH1 0x20 SWAP1 DUP2 MSTORE PUSH1 0x40 DUP1 DUP6 KECCAK256 DUP1 SLOAD PUSH1 0xFF NOT SWAP1 DUP2 AND DUP7 OR SWAP1 SWAP2 SSTORE PUSH1 0x2 SLOAD SWAP1 SWAP4 AND DUP6 MSTORE DUP5 KECCAK256 DUP1 SLOAD DUP4 AND DUP5 OR SWAP1 SSTORE SWAP3 DUP1 MSTORE PUSH32 0x3617319A054D772F909F7C479A2CEBE5066E836A939412E32403C99029B92EFF DUP1 SLOAD SWAP1 SWAP2 AND SWAP1 SWAP2 OR SWAP1 SSTORE MSTORE PUSH32 0x13DA86008BA1C6922DAEE3E07DB95305EF49EBCED9F5467A0B8613FCC6B343E3 SSTORE POP PUSH3 0x29A SWAP1 POP JUMP JUMPDEST CALLER SWAP1 JUMP JUMPDEST PUSH2 0x2A5D DUP1 PUSH3 0x2AA PUSH1 0x0 CODECOPY PUSH1 0x0 RETURN INVALID PUSH1 0x80 PUSH1 0x40 MSTORE CALLVALUE DUP1 ISZERO PUSH2 0x10 JUMPI PUSH1 0x0 DUP1 REVERT JUMPDEST POP PUSH1 0x4 CALLDATASIZE LT PUSH2 0x1A8 JUMPI PUSH1 0x0 CALLDATALOAD PUSH1 0xE0 SHR DUP1 PUSH4 0x6B51E919 GT PUSH2 0xF9 JUMPI DUP1 PUSH4 0xB6268E5D GT PUSH2 0x97 JUMPI DUP1 PUSH4 0xE9E9BF6A GT PUSH2 0x71 JUMPI DUP1 PUSH4 0xE9E9BF6A EQ PUSH2 0x755 JUMPI DUP1 PUSH4 0xEC482729 EQ PUSH2 0x75D JUMPI DUP1 PUSH4 0xF2FDE38B EQ PUSH2 0x7A4 JUMPI DUP1 PUSH4 0xF7824BC7 EQ PUSH2 0x7CA JUMPI PUSH2 0x1A8 JUMP JUMPDEST DUP1 PUSH4 0xB6268E5D EQ PUSH2 0x70D JUMPI DUP1 PUSH4 0xC810A539 EQ PUSH2 0x715 JUMPI DUP1 PUSH4 0xE6CA2084 EQ PUSH2 0x738 JUMPI PUSH2 0x1A8 JUMP JUMPDEST DUP1 PUSH4 0x8006CC3E GT PUSH2 0xD3 JUMPI DUP1 PUSH4 0x8006CC3E EQ PUSH2 0x568 JUMPI DUP1 PUSH4 0x8DA5CB5B EQ PUSH2 0x5A0 JUMPI DUP1 PUSH4 0x9B19251A EQ PUSH2 0x5A8 JUMPI DUP1 PUSH4 0xAD289E76 EQ PUSH2 0x5CE JUMPI PUSH2 0x1A8 JUMP JUMPDEST DUP1 PUSH4 0x6B51E919 EQ PUSH2 0x4FE JUMPI DUP1 PUSH4 0x6D019F35 EQ PUSH2 0x556 JUMPI DUP1 PUSH4 0x715018A6 EQ PUSH2 0x55E JUMPI PUSH2 0x1A8 JUMP JUMPDEST DUP1 PUSH4 0x2D55282D GT PUSH2 0x166 JUMPI DUP1 PUSH4 0x45137E27 GT PUSH2 0x140 JUMPI DUP1 PUSH4 0x45137E27 EQ PUSH2 0x366 JUMPI DUP1 PUSH4 0x4E54CEE0 EQ PUSH2 0x36E JUMPI DUP1 PUSH4 0x5FCBD285 EQ PUSH2 0x4BC JUMPI DUP1 PUSH4 0x63F289D9 EQ PUSH2 0x4C4 JUMPI PUSH2 0x1A8 JUMP JUMPDEST DUP1 PUSH4 0x2D55282D EQ PUSH2 0x318 JUMPI DUP1 PUSH4 0x3B6FA127 EQ PUSH2 0x332 JUMPI DUP1 PUSH4 0x42419255 EQ PUSH2 0x35E JUMPI PUSH2 0x1A8 JUMP JUMPDEST DUP1 PUSH3 0x89356F EQ PUSH2 0x1AD JUMPI DUP1 PUSH4 0xB68134D EQ PUSH2 0x1CB JUMPI DUP1 PUSH4 0xD63ACA7 EQ PUSH2 0x1D3 JUMPI DUP1 PUSH4 0xF909486 EQ PUSH2 0x2B4 JUMPI DUP1 PUSH4 0x12D1441E EQ PUSH2 0x2D8 JUMPI DUP1 PUSH4 0x2586C562 EQ PUSH2 0x2E0 JUMPI JUMPDEST PUSH1 0x0 DUP1 REVERT JUMPDEST PUSH2 0x1B5 PUSH2 0x7D2 JUMP JUMPDEST PUSH1 0x40 DUP1 MLOAD PUSH1 0xFF SWAP1 SWAP3 AND DUP3 MSTORE MLOAD SWAP1 DUP2 SWAP1 SUB PUSH1 0x20 ADD SWAP1 RETURN JUMPDEST PUSH2 0x1B5 PUSH2 0x7DB JUMP JUMPDEST PUSH2 0x2A0 PUSH1 0x4 DUP1 CALLDATASIZE SUB PUSH1 0xC0 DUP2 LT ISZERO PUSH2 0x1E9 JUMPI PUSH1 0x0 DUP1 REVERT JUMPDEST PUSH1 0x1 PUSH1 0x1 PUSH1 0xA0 SHL SUB DUP3 CALLDATALOAD DUP2 AND SWAP3 PUSH1 0x20 DUP2 ADD CALLDATALOAD SWAP1 SWAP2 AND SWAP2 PUSH1 0x40 DUP3 ADD CALLDATALOAD SWAP2 PUSH1 0x60 DUP2 ADD CALLDATALOAD SWAP2 PUSH1 0x80 DUP3 ADD CALLDATALOAD SWAP2 SWAP1 DUP2 ADD SWAP1 PUSH1 0xC0 DUP2 ADD PUSH1 0xA0 DUP3 ADD CALLDATALOAD PUSH1 0x1 PUSH1 0x20 SHL DUP2 GT ISZERO PUSH2 0x22F JUMPI PUSH1 0x0 DUP1 REVERT JUMPDEST DUP3 ADD DUP4 PUSH1 0x20 DUP3 ADD GT ISZERO PUSH2 0x241 JUMPI PUSH1 0x0 DUP1 REVERT JUMPDEST DUP1 CALLDATALOAD SWAP1 PUSH1 0x20 ADD SWAP2 DUP5 PUSH1 0x20 DUP4 MUL DUP5 ADD GT PUSH1 0x1 PUSH1 0x20 SHL DUP4 GT OR ISZERO PUSH2 0x262 JUMPI PUSH1 0x0 DUP1 REVERT JUMPDEST SWAP2 SWAP1 DUP1 DUP1 PUSH1 0x20 MUL PUSH1 0x20 ADD PUSH1 0x40 MLOAD SWAP1 DUP2 ADD PUSH1 0x40 MSTORE DUP1 SWAP4 SWAP3 SWAP2 SWAP1 DUP2 DUP2 MSTORE PUSH1 0x20 ADD DUP4 DUP4 PUSH1 0x20 MUL DUP1 DUP3 DUP5 CALLDATACOPY PUSH1 0x0 SWAP3 ADD SWAP2 SWAP1 SWAP2 MSTORE POP SWAP3 SWAP6 POP PUSH2 0x7EA SWAP5 POP POP POP POP POP JUMP JUMPDEST PUSH1 0x40 DUP1 MLOAD SWAP2 ISZERO ISZERO DUP3 MSTORE MLOAD SWAP1 DUP2 SWAP1 SUB PUSH1 0x20 ADD SWAP1 RETURN JUMPDEST PUSH2 0x2BC PUSH2 0x989 JUMP JUMPDEST PUSH1 0x40 DUP1 MLOAD PUSH1 0x1 PUSH1 0x1 PUSH1 0xA0 SHL SUB SWAP1 SWAP3 AND DUP3 MSTORE MLOAD SWAP1 DUP2 SWAP1 SUB PUSH1 0x20 ADD SWAP1 RETURN JUMPDEST PUSH2 0x1B5 PUSH2 0x998 JUMP JUMPDEST PUSH2 0x2A0 PUSH1 0x4 DUP1 CALLDATASIZE SUB PUSH1 0x80 DUP2 LT ISZERO PUSH2 0x2F6 JUMPI PUSH1 0x0 DUP1 REVERT JUMPDEST POP PUSH1 0x1 PUSH1 0x1 PUSH1 0xA0 SHL SUB DUP2 CALLDATALOAD AND SWAP1 PUSH1 0x20 DUP2 ADD CALLDATALOAD SWAP1 PUSH1 0x40 DUP2 ADD CALLDATALOAD SWAP1 PUSH1 0x60 ADD CALLDATALOAD PUSH2 0x9A6 JUMP JUMPDEST PUSH2 0x320 PUSH2 0xAEA JUMP JUMPDEST PUSH1 0x40 DUP1 MLOAD SWAP2 DUP3 MSTORE MLOAD SWAP1 DUP2 SWAP1 SUB PUSH1 0x20 ADD SWAP1 RETURN JUMPDEST PUSH2 0x320 PUSH1 0x4 DUP1 CALLDATASIZE SUB PUSH1 0x40 DUP2 LT ISZERO PUSH2 0x348 JUMPI PUSH1 0x0 DUP1 REVERT JUMPDEST POP PUSH1 0x1 PUSH1 0x1 PUSH1 0xA0 SHL SUB DUP2 CALLDATALOAD AND SWAP1 PUSH1 0x20 ADD CALLDATALOAD PUSH2 0xAF0 JUMP JUMPDEST PUSH2 0x1B5 PUSH2 0xB7C JUMP JUMPDEST PUSH2 0x320 PUSH2 0xB8C JUMP JUMPDEST PUSH2 0x2A0 PUSH1 0x4 DUP1 CALLDATASIZE SUB PUSH1 0xE0 DUP2 LT ISZERO PUSH2 0x384 JUMPI PUSH1 0x0 DUP1 REVERT JUMPDEST PUSH1 0x1 PUSH1 0x1 PUSH1 0xA0 SHL SUB DUP3 CALLDATALOAD AND SWAP2 SWAP1 DUP2 ADD SWAP1 PUSH1 0x40 DUP2 ADD PUSH1 0x20 DUP3 ADD CALLDATALOAD PUSH1 0x1 PUSH1 0x20 SHL DUP2 GT ISZERO PUSH2 0x3AE JUMPI PUSH1 0x0 DUP1 REVERT JUMPDEST DUP3 ADD DUP4 PUSH1 0x20 DUP3 ADD GT ISZERO PUSH2 0x3C0 JUMPI PUSH1 0x0 DUP1 REVERT JUMPDEST DUP1 CALLDATALOAD SWAP1 PUSH1 0x20 ADD SWAP2 DUP5 PUSH1 0x20 DUP4 MUL DUP5 ADD GT PUSH1 0x1 PUSH1 0x20 SHL DUP4 GT OR ISZERO PUSH2 0x3E1 JUMPI PUSH1 0x0 DUP1 REVERT JUMPDEST SWAP2 SWAP1 DUP1 DUP1 PUSH1 0x20 MUL PUSH1 0x20 ADD PUSH1 0x40 MLOAD SWAP1 DUP2 ADD PUSH1 0x40 MSTORE DUP1 SWAP4 SWAP3 SWAP2 SWAP1 DUP2 DUP2 MSTORE PUSH1 0x20 ADD DUP4 DUP4 PUSH1 0x20 MUL DUP1 DUP3 DUP5 CALLDATACOPY PUSH1 0x0 SWAP3 ADD SWAP2 SWAP1 SWAP2 MSTORE POP SWAP3 SWAP6 SWAP5 SWAP4 PUSH1 0x20 DUP2 ADD SWAP4 POP CALLDATALOAD SWAP2 POP POP PUSH1 0x1 PUSH1 0x20 SHL DUP2 GT ISZERO PUSH2 0x430 JUMPI PUSH1 0x0 DUP1 REVERT JUMPDEST DUP3 ADD DUP4 PUSH1 0x20 DUP3 ADD GT ISZERO PUSH2 0x442 JUMPI PUSH1 0x0 DUP1 REVERT JUMPDEST DUP1 CALLDATALOAD SWAP1 PUSH1 0x20 ADD SWAP2 DUP5 PUSH1 0x20 DUP4 MUL DUP5 ADD GT PUSH1 0x1 PUSH1 0x20 SHL DUP4 GT OR ISZERO PUSH2 0x463 JUMPI PUSH1 0x0 DUP1 REVERT JUMPDEST SWAP2 SWAP1 DUP1 DUP1 PUSH1 0x20 MUL PUSH1 0x20 ADD PUSH1 0x40 MLOAD SWAP1 DUP2 ADD PUSH1 0x40 MSTORE DUP1 SWAP4 SWAP3 SWAP2 SWAP1 DUP2 DUP2 MSTORE PUSH1 0x20 ADD DUP4 DUP4 PUSH1 0x20 MUL DUP1 DUP3 DUP5 CALLDATACOPY PUSH1 0x0 SWAP3 ADD SWAP2 SWAP1 SWAP2 MSTORE POP SWAP3 SWAP6 POP POP PUSH1 0xFF DUP4 CALLDATALOAD DUP2 AND SWAP5 POP PUSH1 0x20 DUP5 ADD CALLDATALOAD DUP2 AND SWAP4 PUSH1 0x40 DUP2 ADD CALLDATALOAD DUP3 AND SWAP4 POP PUSH1 0x60 ADD CALLDATALOAD AND SWAP1 POP PUSH2 0xC78 JUMP JUMPDEST PUSH2 0x2BC PUSH2 0xF96 JUMP JUMPDEST PUSH2 0x2A0 PUSH1 0x4 DUP1 CALLDATASIZE SUB PUSH1 0x80 DUP2 LT ISZERO PUSH2 0x4DA JUMPI PUSH1 0x0 DUP1 REVERT JUMPDEST POP PUSH1 0x1 PUSH1 0x1 PUSH1 0xA0 SHL SUB DUP2 CALLDATALOAD AND SWAP1 PUSH1 0x20 DUP2 ADD CALLDATALOAD SWAP1 PUSH1 0x40 DUP2 ADD CALLDATALOAD ISZERO ISZERO SWAP1 PUSH1 0x60 ADD CALLDATALOAD PUSH2 0xFA5 JUMP JUMPDEST PUSH2 0x506 PUSH2 0x1083 JUMP JUMPDEST PUSH1 0x40 DUP1 MLOAD PUSH1 0x20 DUP1 DUP3 MSTORE DUP4 MLOAD DUP2 DUP4 ADD MSTORE DUP4 MLOAD SWAP2 SWAP3 DUP4 SWAP3 SWAP1 DUP4 ADD SWAP2 DUP6 DUP2 ADD SWAP2 MUL DUP1 DUP4 DUP4 PUSH1 0x0 JUMPDEST DUP4 DUP2 LT ISZERO PUSH2 0x542 JUMPI DUP2 DUP2 ADD MLOAD DUP4 DUP3 ADD MSTORE PUSH1 0x20 ADD PUSH2 0x52A JUMP JUMPDEST POP POP POP POP SWAP1 POP ADD SWAP3 POP POP POP PUSH1 0x40 MLOAD DUP1 SWAP2 SUB SWAP1 RETURN JUMPDEST PUSH2 0x320 PUSH2 0x11E2 JUMP JUMPDEST PUSH2 0x566 PUSH2 0x11E8 JUMP JUMPDEST STOP JUMPDEST PUSH2 0x2A0 PUSH1 0x4 DUP1 CALLDATASIZE SUB PUSH1 0x80 DUP2 LT ISZERO PUSH2 0x57E JUMPI PUSH1 0x0 DUP1 REVERT JUMPDEST POP PUSH1 0x1 PUSH1 0x1 PUSH1 0xA0 SHL SUB DUP2 CALLDATALOAD AND SWAP1 PUSH1 0x20 DUP2 ADD CALLDATALOAD SWAP1 PUSH1 0x40 DUP2 ADD CALLDATALOAD SWAP1 PUSH1 0x60 ADD CALLDATALOAD PUSH2 0x1294 JUMP JUMPDEST PUSH2 0x2BC PUSH2 0x13C5 JUMP JUMPDEST PUSH2 0x2A0 PUSH1 0x4 DUP1 CALLDATASIZE SUB PUSH1 0x20 DUP2 LT ISZERO PUSH2 0x5BE JUMPI PUSH1 0x0 DUP1 REVERT JUMPDEST POP CALLDATALOAD PUSH1 0x1 PUSH1 0x1 PUSH1 0xA0 SHL SUB AND PUSH2 0x13D4 JUMP JUMPDEST PUSH2 0x2A0 PUSH1 0x4 DUP1 CALLDATASIZE SUB PUSH1 0xA0 DUP2 LT ISZERO PUSH2 0x5E4 JUMPI PUSH1 0x0 DUP1 REVERT JUMPDEST PUSH1 0x1 PUSH1 0x1 PUSH1 0xA0 SHL SUB DUP3 CALLDATALOAD AND SWAP2 SWAP1 DUP2 ADD SWAP1 PUSH1 0x40 DUP2 ADD PUSH1 0x20 DUP3 ADD CALLDATALOAD PUSH1 0x1 PUSH1 0x20 SHL DUP2 GT ISZERO PUSH2 0x60E JUMPI PUSH1 0x0 DUP1 REVERT JUMPDEST DUP3 ADD DUP4 PUSH1 0x20 DUP3 ADD GT ISZERO PUSH2 0x620 JUMPI PUSH1 0x0 DUP1 REVERT JUMPDEST DUP1 CALLDATALOAD SWAP1 PUSH1 0x20 ADD SWAP2 DUP5 PUSH1 0x20 DUP4 MUL DUP5 ADD GT PUSH1 0x1 PUSH1 0x20 SHL DUP4 GT OR ISZERO PUSH2 0x641 JUMPI PUSH1 0x0 DUP1 REVERT JUMPDEST SWAP2 SWAP1 DUP1 DUP1 PUSH1 0x20 MUL PUSH1 0x20 ADD PUSH1 0x40 MLOAD SWAP1 DUP2 ADD PUSH1 0x40 MSTORE DUP1 SWAP4 SWAP3 SWAP2 SWAP1 DUP2 DUP2 MSTORE PUSH1 0x20 ADD DUP4 DUP4 PUSH1 0x20 MUL DUP1 DUP3 DUP5 CALLDATACOPY PUSH1 0x0 SWAP3 ADD SWAP2 SWAP1 SWAP2 MSTORE POP SWAP3 SWAP6 DUP5 CALLDATALOAD SWAP6 PUSH1 0x20 DUP7 ADD CALLDATALOAD SWAP6 SWAP2 SWAP5 POP SWAP3 POP PUSH1 0x60 DUP2 ADD SWAP2 POP PUSH1 0x40 ADD CALLDATALOAD PUSH1 0x1 PUSH1 0x20 SHL DUP2 GT ISZERO PUSH2 0x69C JUMPI PUSH1 0x0 DUP1 REVERT JUMPDEST DUP3 ADD DUP4 PUSH1 0x20 DUP3 ADD GT ISZERO PUSH2 0x6AE JUMPI PUSH1 0x0 DUP1 REVERT JUMPDEST DUP1 CALLDATALOAD SWAP1 PUSH1 0x20 ADD SWAP2 DUP5 PUSH1 0x20 DUP4 MUL DUP5 ADD GT PUSH1 0x1 PUSH1 0x20 SHL DUP4 GT OR ISZERO PUSH2 0x6CF JUMPI PUSH1 0x0 DUP1 REVERT JUMPDEST SWAP2 SWAP1 DUP1 DUP1 PUSH1 0x20 MUL PUSH1 0x20 ADD PUSH1 0x40 MLOAD SWAP1 DUP2 ADD PUSH1 0x40 MSTORE DUP1 SWAP4 SWAP3 SWAP2 SWAP1 DUP2 DUP2 MSTORE PUSH1 0x20 ADD DUP4 DUP4 PUSH1 0x20 MUL DUP1 DUP3 DUP5 CALLDATACOPY PUSH1 0x0 SWAP3 ADD SWAP2 SWAP1 SWAP2 MSTORE POP SWAP3 SWAP6 POP PUSH2 0x13E9 SWAP5 POP POP POP POP POP JUMP JUMPDEST PUSH2 0x1B5 PUSH2 0x15C3 JUMP JUMPDEST PUSH2 0x2A0 PUSH1 0x4 DUP1 CALLDATASIZE SUB PUSH1 0x40 DUP2 LT ISZERO PUSH2 0x72B JUMPI PUSH1 0x0 DUP1 REVERT JUMPDEST POP DUP1 CALLDATALOAD SWAP1 PUSH1 0x20 ADD CALLDATALOAD PUSH2 0x15D3 JUMP JUMPDEST PUSH2 0x2A0 PUSH1 0x4 DUP1 CALLDATASIZE SUB PUSH1 0x20 DUP2 LT ISZERO PUSH2 0x74E JUMPI PUSH1 0x0 DUP1 REVERT JUMPDEST POP CALLDATALOAD PUSH2 0x1738 JUMP JUMPDEST PUSH2 0x2A0 PUSH2 0x174D JUMP JUMPDEST PUSH2 0x78B PUSH1 0x4 DUP1 CALLDATASIZE SUB PUSH1 0x40 DUP2 LT ISZERO PUSH2 0x773 JUMPI PUSH1 0x0 DUP1 REVERT JUMPDEST POP PUSH1 0x1 PUSH1 0x1 PUSH1 0xA0 SHL SUB DUP2 CALLDATALOAD DUP2 AND SWAP2 PUSH1 0x20 ADD CALLDATALOAD AND PUSH2 0x19B4 JUMP JUMPDEST PUSH1 0x40 DUP1 MLOAD SWAP3 DUP4 MSTORE PUSH1 0x20 DUP4 ADD SWAP2 SWAP1 SWAP2 MSTORE DUP1 MLOAD SWAP2 DUP3 SWAP1 SUB ADD SWAP1 RETURN JUMPDEST PUSH2 0x566 PUSH1 0x4 DUP1 CALLDATASIZE SUB PUSH1 0x20 DUP2 LT ISZERO PUSH2 0x7BA JUMPI PUSH1 0x0 DUP1 REVERT JUMPDEST POP CALLDATALOAD PUSH1 0x1 PUSH1 0x1 PUSH1 0xA0 SHL SUB AND PUSH2 0x19DE JUMP JUMPDEST PUSH2 0x320 PUSH2 0x1AE0 JUMP JUMPDEST PUSH1 0x4 SLOAD PUSH1 0xFF AND DUP2 JUMP JUMPDEST PUSH1 0x4 SLOAD PUSH3 0x10000 SWAP1 DIV PUSH1 0xFF AND DUP2 JUMP JUMPDEST PUSH1 0x0 PUSH2 0x7F4 PUSH2 0x1AE6 JUMP JUMPDEST PUSH1 0x1 PUSH1 0x1 PUSH1 0xA0 SHL SUB AND PUSH2 0x805 PUSH2 0x13C5 JUMP JUMPDEST PUSH1 0x1 PUSH1 0x1 PUSH1 0xA0 SHL SUB AND EQ PUSH2 0x84E JUMPI PUSH1 0x40 DUP1 MLOAD PUSH3 0x461BCD PUSH1 0xE5 SHL DUP2 MSTORE PUSH1 0x20 PUSH1 0x4 DUP3 ADD DUP2 SWAP1 MSTORE PUSH1 0x24 DUP3 ADD MSTORE PUSH1 0x0 DUP1 MLOAD PUSH1 0x20 PUSH2 0x2983 DUP4 CODECOPY DUP2 MLOAD SWAP2 MSTORE PUSH1 0x44 DUP3 ADD MSTORE SWAP1 MLOAD SWAP1 DUP2 SWAP1 SUB PUSH1 0x64 ADD SWAP1 REVERT JUMPDEST PUSH1 0x1 PUSH1 0x1 PUSH1 0xA0 SHL SUB DUP8 AND PUSH1 0x0 SWAP1 DUP2 MSTORE PUSH1 0x3 PUSH1 0x20 MSTORE PUSH1 0x40 SWAP1 KECCAK256 SLOAD PUSH1 0xFF AND PUSH2 0x8BB JUMPI PUSH1 0x40 DUP1 MLOAD PUSH3 0x461BCD PUSH1 0xE5 SHL DUP2 MSTORE PUSH1 0x20 PUSH1 0x4 DUP3 ADD MSTORE PUSH1 0x1D PUSH1 0x24 DUP3 ADD MSTORE PUSH32 0x5F64657374546F6B656E206973206E6F742077686974656C6973746564000000 PUSH1 0x44 DUP3 ADD MSTORE SWAP1 MLOAD SWAP1 DUP2 SWAP1 SUB PUSH1 0x64 ADD SWAP1 REVERT JUMPDEST PUSH1 0x1 PUSH1 0x1 PUSH1 0xA0 SHL SUB DUP8 AND PUSH2 0x900 JUMPI PUSH1 0x40 MLOAD PUSH3 0x461BCD PUSH1 0xE5 SHL DUP2 MSTORE PUSH1 0x4 ADD DUP1 DUP1 PUSH1 0x20 ADD DUP3 DUP2 SUB DUP3 MSTORE PUSH1 0x23 DUP2 MSTORE PUSH1 0x20 ADD DUP1 PUSH2 0x2A05 PUSH1 0x23 SWAP2 CODECOPY PUSH1 0x40 ADD SWAP2 POP POP PUSH1 0x40 MLOAD DUP1 SWAP2 SUB SWAP1 REVERT JUMPDEST PUSH1 0x0 DUP5 ISZERO PUSH2 0x926 JUMPI PUSH1 0x1 SLOAD PUSH2 0x921 SWAP1 PUSH1 0x0 SWAP1 PUSH1 0x1 PUSH1 0x1 PUSH1 0xA0 SHL SUB AND DUP8 PUSH2 0x1AEA JUMP JUMPDEST PUSH2 0x939 JUMP JUMPDEST DUP5 PUSH2 0x939 JUMPI POP PUSH1 0x1 SLOAD PUSH1 0x1 PUSH1 0x1 PUSH1 0xA0 SHL SUB AND JUMPDEST PUSH1 0x2 SLOAD PUSH1 0x1 PUSH1 0x1 PUSH1 0xA0 SHL SUB DUP10 DUP2 AND SWAP2 AND EQ ISZERO PUSH2 0x95D JUMPI POP PUSH1 0x2 SLOAD PUSH1 0x1 PUSH1 0x1 PUSH1 0xA0 SHL SUB AND JUMPDEST PUSH2 0x967 DUP2 DUP6 PUSH2 0x1BD6 JUMP JUMPDEST PUSH2 0x970 DUP4 PUSH2 0x1D4D JUMP JUMPDEST PUSH2 0x97B DUP9 DUP9 DUP9 PUSH2 0x1D9C JUMP JUMPDEST POP PUSH1 0x1 SWAP8 SWAP7 POP POP POP POP POP POP POP JUMP JUMPDEST PUSH1 0x1 SLOAD PUSH1 0x1 PUSH1 0x1 PUSH1 0xA0 SHL SUB AND DUP2 JUMP JUMPDEST PUSH1 0x4 SLOAD PUSH2 0x100 SWAP1 DIV PUSH1 0xFF AND DUP2 JUMP JUMPDEST PUSH1 0x0 PUSH2 0x9B0 PUSH2 0x1AE6 JUMP JUMPDEST PUSH1 0x1 PUSH1 0x1 PUSH1 0xA0 SHL SUB AND PUSH2 0x9C1 PUSH2 0x13C5 JUMP JUMPDEST PUSH1 0x1 PUSH1 0x1 PUSH1 0xA0 SHL SUB AND EQ PUSH2 0xA0A JUMPI PUSH1 0x40 DUP1 MLOAD PUSH3 0x461BCD PUSH1 0xE5 SHL DUP2 MSTORE PUSH1 0x20 PUSH1 0x4 DUP3 ADD DUP2 SWAP1 MSTORE PUSH1 0x24 DUP3 ADD MSTORE PUSH1 0x0 DUP1 MLOAD PUSH1 0x20 PUSH2 0x2983 DUP4 CODECOPY DUP2 MLOAD SWAP2 MSTORE PUSH1 0x44 DUP3 ADD MSTORE SWAP1 MLOAD SWAP1 DUP2 SWAP1 SUB PUSH1 0x64 ADD SWAP1 REVERT JUMPDEST PUSH1 0x0 PUSH2 0xA14 PUSH2 0xB8C JUMP JUMPDEST PUSH1 0x1 PUSH1 0x1 PUSH1 0xA0 SHL SUB DUP8 AND PUSH1 0x0 SWAP1 DUP2 MSTORE PUSH1 0x3 PUSH1 0x20 MSTORE PUSH1 0x40 SWAP1 KECCAK256 SLOAD SWAP1 SWAP2 POP PUSH1 0xFF AND PUSH2 0xA78 JUMPI PUSH1 0x40 DUP1 MLOAD PUSH3 0x461BCD PUSH1 0xE5 SHL DUP2 MSTORE PUSH1 0x20 PUSH1 0x4 DUP3 ADD MSTORE PUSH1 0x11 PUSH1 0x24 DUP3 ADD MSTORE PUSH17 0x17DD1BDAD95B881A5CC81A5B9D985B1A59 PUSH1 0x7A SHL PUSH1 0x44 DUP3 ADD MSTORE SWAP1 MLOAD SWAP1 DUP2 SWAP1 SUB PUSH1 0x64 ADD SWAP1 REVERT JUMPDEST PUSH2 0xA84 DUP7 DUP7 DUP7 DUP7 PUSH2 0x1E54 JUMP JUMPDEST PUSH2 0xA8D JUMPI PUSH1 0x0 DUP1 REVERT JUMPDEST PUSH1 0x1 SWAP2 POP DUP1 PUSH2 0xA9A PUSH2 0xB8C JUMP JUMPDEST LT ISZERO PUSH2 0xAE1 JUMPI PUSH1 0x40 DUP1 MLOAD PUSH3 0x461BCD PUSH1 0xE5 SHL DUP2 MSTORE PUSH1 0x20 PUSH1 0x4 DUP3 ADD MSTORE PUSH1 0x11 PUSH1 0x24 DUP3 ADD MSTORE PUSH17 0x496E76616C6964204C5054207072696365 PUSH1 0x78 SHL PUSH1 0x44 DUP3 ADD MSTORE SWAP1 MLOAD SWAP1 DUP2 SWAP1 SUB PUSH1 0x64 ADD SWAP1 REVERT JUMPDEST POP SWAP5 SWAP4 POP POP POP POP JUMP JUMPDEST PUSH1 0x5 SLOAD DUP2 JUMP JUMPDEST PUSH1 0x0 DUP1 PUSH2 0xAFD DUP5 DUP5 PUSH2 0x21F0 JUMP JUMPDEST SWAP1 POP DUP1 PUSH1 0xFF AND PUSH1 0x1 EQ ISZERO PUSH2 0xB3F JUMPI PUSH1 0x1 SLOAD PUSH1 0x1 PUSH1 0x1 PUSH1 0xA0 SHL SUB DUP6 DUP2 AND SWAP2 AND EQ PUSH2 0xB27 JUMPI PUSH1 0x0 PUSH2 0xB35 JUMP JUMPDEST PUSH1 0x4 SLOAD PUSH4 0x1000000 SWAP1 DIV PUSH1 0xFF AND JUMPDEST PUSH1 0xFF AND SWAP2 POP PUSH2 0xB75 JUMP JUMPDEST DUP1 PUSH1 0xFF AND PUSH1 0x2 EQ ISZERO PUSH2 0xB75 JUMPI PUSH1 0x1 PUSH1 0x1 PUSH1 0xA0 SHL SUB DUP5 AND ISZERO PUSH2 0xB61 JUMPI PUSH1 0x0 PUSH2 0xB6F JUMP JUMPDEST PUSH1 0x4 SLOAD PUSH4 0x1000000 SWAP1 DIV PUSH1 0xFF AND JUMPDEST PUSH1 0xFF AND SWAP2 POP JUMPDEST POP SWAP3 SWAP2 POP POP JUMP JUMPDEST PUSH1 0x4 SLOAD PUSH4 0x1000000 SWAP1 DIV PUSH1 0xFF AND DUP2 JUMP JUMPDEST PUSH1 0x1 SLOAD PUSH1 0x0 SWAP1 DUP2 SWAP1 DUP2 SWAP1 PUSH2 0xBAA SWAP1 DUP3 SWAP1 PUSH1 0x1 PUSH1 0x1 PUSH1 0xA0 SHL SUB AND PUSH2 0x19B4 JUMP JUMPDEST SWAP2 POP SWAP2 POP PUSH1 0x0 PUSH1 0x2 PUSH1 0x0 SWAP1 SLOAD SWAP1 PUSH2 0x100 EXP SWAP1 DIV PUSH1 0x1 PUSH1 0x1 PUSH1 0xA0 SHL SUB AND PUSH1 0x1 PUSH1 0x1 PUSH1 0xA0 SHL SUB AND PUSH4 0x18160DDD PUSH1 0x40 MLOAD DUP2 PUSH4 0xFFFFFFFF AND PUSH1 0xE0 SHL DUP2 MSTORE PUSH1 0x4 ADD PUSH1 0x20 PUSH1 0x40 MLOAD DUP1 DUP4 SUB DUP2 DUP7 DUP1 EXTCODESIZE ISZERO DUP1 ISZERO PUSH2 0xBFE JUMPI PUSH1 0x0 DUP1 REVERT JUMPDEST POP GAS STATICCALL ISZERO DUP1 ISZERO PUSH2 0xC12 JUMPI RETURNDATASIZE PUSH1 0x0 DUP1 RETURNDATACOPY RETURNDATASIZE PUSH1 0x0 REVERT JUMPDEST POP POP POP POP PUSH1 0x40 MLOAD RETURNDATASIZE PUSH1 0x20 DUP2 LT ISZERO PUSH2 0xC28 JUMPI PUSH1 0x0 DUP1 REVERT JUMPDEST POP MLOAD SWAP1 POP DUP1 ISZERO PUSH2 0xC6C JUMPI PUSH2 0xC67 PUSH2 0xC4A PUSH1 0x5 SLOAD DUP4 PUSH2 0x22AA SWAP1 SWAP2 SWAP1 PUSH4 0xFFFFFFFF AND JUMP JUMPDEST PUSH1 0x9 SLOAD PUSH2 0xC61 SWAP1 PUSH2 0xC5B DUP8 DUP8 PUSH2 0x22AA JUMP JUMPDEST SWAP1 PUSH2 0x230B JUMP JUMPDEST SWAP1 PUSH2 0x2364 JUMP JUMPDEST PUSH2 0xC70 JUMP JUMPDEST PUSH1 0x7 SLOAD JUMPDEST SWAP4 POP POP POP POP SWAP1 JUMP JUMPDEST PUSH1 0x0 PUSH2 0xC82 PUSH2 0x1AE6 JUMP JUMPDEST PUSH1 0x1 PUSH1 0x1 PUSH1 0xA0 SHL SUB AND PUSH2 0xC93 PUSH2 0x13C5 JUMP JUMPDEST PUSH1 0x1 PUSH1 0x1 PUSH1 0xA0 SHL SUB AND EQ PUSH2 0xCDC JUMPI PUSH1 0x40 DUP1 MLOAD PUSH3 0x461BCD PUSH1 0xE5 SHL DUP2 MSTORE PUSH1 0x20 PUSH1 0x4 DUP3 ADD DUP2 SWAP1 MSTORE PUSH1 0x24 DUP3 ADD MSTORE PUSH1 0x0 DUP1 MLOAD PUSH1 0x20 PUSH2 0x2983 DUP4 CODECOPY DUP2 MLOAD SWAP2 MSTORE PUSH1 0x44 DUP3 ADD MSTORE SWAP1 MLOAD SWAP1 DUP2 SWAP1 SUB PUSH1 0x64 ADD SWAP1 REVERT JUMPDEST PUSH1 0x4 SLOAD PUSH1 0xFF PUSH2 0x100 SWAP1 SWAP2 DIV DUP2 AND SWAP1 DUP6 AND LT DUP1 ISZERO SWAP1 PUSH2 0xCFE JUMPI POP PUSH1 0xFF DUP5 PUSH1 0xFF AND GT ISZERO JUMPDEST PUSH2 0xD39 JUMPI PUSH1 0x40 MLOAD PUSH3 0x461BCD PUSH1 0xE5 SHL DUP2 MSTORE PUSH1 0x4 ADD DUP1 DUP1 PUSH1 0x20 ADD DUP3 DUP2 SUB DUP3 MSTORE PUSH1 0x27 DUP2 MSTORE PUSH1 0x20 ADD DUP1 PUSH2 0x291A PUSH1 0x27 SWAP2 CODECOPY PUSH1 0x40 ADD SWAP2 POP POP PUSH1 0x40 MLOAD DUP1 SWAP2 SUB SWAP1 REVERT JUMPDEST PUSH1 0x1 DUP5 ADD PUSH1 0xFF AND DUP6 PUSH1 0xFF AND LT ISZERO PUSH2 0xD8C JUMPI PUSH1 0x40 DUP1 MLOAD PUSH3 0x461BCD PUSH1 0xE5 SHL DUP2 MSTORE PUSH1 0x20 PUSH1 0x4 DUP3 ADD MSTORE PUSH1 0x12 PUSH1 0x24 DUP3 ADD MSTORE PUSH18 0x6E2073686F756C64206265203E3D20742B31 PUSH1 0x70 SHL PUSH1 0x44 DUP3 ADD MSTORE SWAP1 MLOAD SWAP1 DUP2 SWAP1 SUB PUSH1 0x64 ADD SWAP1 REVERT JUMPDEST PUSH1 0x64 DUP4 PUSH1 0xFF AND GT ISZERO PUSH2 0xDE5 JUMPI PUSH1 0x40 DUP1 MLOAD PUSH3 0x461BCD PUSH1 0xE5 SHL DUP2 MSTORE PUSH1 0x20 PUSH1 0x4 DUP3 ADD MSTORE PUSH1 0x1E PUSH1 0x24 DUP3 ADD MSTORE PUSH32 0x5F6E6F646552657761726473526174696F206973206E6F742076616C69640000 PUSH1 0x44 DUP3 ADD MSTORE SWAP1 MLOAD SWAP1 DUP2 SWAP1 SUB PUSH1 0x64 ADD SWAP1 REVERT JUMPDEST PUSH1 0x64 DUP3 PUSH1 0xFF AND GT ISZERO PUSH2 0xE3E JUMPI PUSH1 0x40 DUP1 MLOAD PUSH3 0x461BCD PUSH1 0xE5 SHL DUP2 MSTORE PUSH1 0x20 PUSH1 0x4 DUP3 ADD MSTORE PUSH1 0x1C PUSH1 0x24 DUP3 ADD MSTORE PUSH32 0x5F7769746864726177616C46656542505320697320696E76616C696400000000 PUSH1 0x44 DUP3 ADD MSTORE SWAP1 MLOAD SWAP1 DUP2 SWAP1 SUB PUSH1 0x64 ADD SWAP1 REVERT JUMPDEST DUP6 MLOAD DUP8 MLOAD EQ PUSH2 0xE7E JUMPI PUSH1 0x40 MLOAD PUSH3 0x461BCD PUSH1 0xE5 SHL DUP2 MSTORE PUSH1 0x4 ADD DUP1 DUP1 PUSH1 0x20 ADD DUP3 DUP2 SUB DUP3 MSTORE PUSH1 0x3B DUP2 MSTORE PUSH1 0x20 ADD DUP1 PUSH2 0x29CA PUSH1 0x3B SWAP2 CODECOPY PUSH1 0x40 ADD SWAP2 POP POP PUSH1 0x40 MLOAD DUP1 SWAP2 SUB SWAP1 REVERT JUMPDEST PUSH2 0xE87 DUP9 PUSH2 0x19DE JUMP JUMPDEST PUSH1 0x0 JUMPDEST DUP8 MLOAD DUP2 LT ISZERO PUSH2 0xEEF JUMPI PUSH1 0x0 PUSH2 0xEB1 DUP10 DUP4 DUP2 MLOAD DUP2 LT PUSH2 0xEA4 JUMPI INVALID JUMPDEST PUSH1 0x20 MUL PUSH1 0x20 ADD ADD MLOAD PUSH2 0x23CB JUMP JUMPDEST POP SWAP1 POP PUSH2 0xEE5 DUP2 DUP11 DUP5 DUP2 MLOAD DUP2 LT PUSH2 0xEC4 JUMPI INVALID JUMPDEST PUSH1 0x20 MUL PUSH1 0x20 ADD ADD MLOAD DUP11 DUP6 DUP2 MLOAD DUP2 LT PUSH2 0xED8 JUMPI INVALID JUMPDEST PUSH1 0x20 MUL PUSH1 0x20 ADD ADD MLOAD PUSH2 0x23D4 JUMP JUMPDEST POP POP PUSH1 0x1 ADD PUSH2 0xE8A JUMP JUMPDEST POP PUSH1 0x60 PUSH2 0xEFA PUSH2 0x1083 JUMP JUMPDEST SWAP1 POP PUSH1 0x64 DUP2 MLOAD GT ISZERO PUSH2 0xF3D JUMPI PUSH1 0x40 MLOAD PUSH3 0x461BCD PUSH1 0xE5 SHL DUP2 MSTORE PUSH1 0x4 ADD DUP1 DUP1 PUSH1 0x20 ADD DUP3 DUP2 SUB DUP3 MSTORE PUSH1 0x21 DUP2 MSTORE PUSH1 0x20 ADD DUP1 PUSH2 0x2962 PUSH1 0x21 SWAP2 CODECOPY PUSH1 0x40 ADD SWAP2 POP POP PUSH1 0x40 MLOAD DUP1 SWAP2 SUB SWAP1 REVERT JUMPDEST POP POP PUSH1 0x4 DUP1 SLOAD PUSH1 0xFF NOT AND PUSH1 0xFF SWAP6 DUP7 AND OR PUSH2 0xFF00 NOT AND PUSH2 0x100 SWAP5 DUP7 AND SWAP5 SWAP1 SWAP5 MUL SWAP4 SWAP1 SWAP4 OR PUSH3 0xFF0000 NOT AND PUSH3 0x10000 SWAP3 DUP6 AND SWAP3 SWAP1 SWAP3 MUL SWAP2 SWAP1 SWAP2 OR PUSH5 0xFF00000000 NOT AND PUSH1 0x1 PUSH1 0x20 SHL SWAP2 SWAP1 SWAP4 AND MUL SWAP2 SWAP1 SWAP2 OR SWAP1 SSTORE POP PUSH1 0x1 SWAP3 SWAP2 POP POP JUMP JUMPDEST PUSH1 0x2 SLOAD PUSH1 0x1 PUSH1 0x1 PUSH1 0xA0 SHL SUB AND DUP2 JUMP JUMPDEST PUSH1 0x0 PUSH2 0xFAF PUSH2 0x1AE6 JUMP JUMPDEST PUSH1 0x1 PUSH1 0x1 PUSH1 0xA0 SHL SUB AND PUSH2 0xFC0 PUSH2 0x13C5 JUMP JUMPDEST PUSH1 0x1 PUSH1 0x1 PUSH1 0xA0 SHL SUB AND EQ PUSH2 0x1009 JUMPI PUSH1 0x40 DUP1 MLOAD PUSH3 0x461BCD PUSH1 0xE5 SHL DUP2 MSTORE PUSH1 0x20 PUSH1 0x4 DUP3 ADD DUP2 SWAP1 MSTORE PUSH1 0x24 DUP3 ADD MSTORE PUSH1 0x0 DUP1 MLOAD PUSH1 0x20 PUSH2 0x2983 DUP4 CODECOPY DUP2 MLOAD SWAP2 MSTORE PUSH1 0x44 DUP3 ADD MSTORE SWAP1 MLOAD SWAP1 DUP2 SWAP1 SUB PUSH1 0x64 ADD SWAP1 REVERT JUMPDEST PUSH1 0x0 PUSH2 0x1013 PUSH2 0xB8C JUMP JUMPDEST PUSH1 0x1 PUSH1 0x1 PUSH1 0xA0 SHL SUB DUP8 AND PUSH1 0x0 SWAP1 DUP2 MSTORE PUSH1 0x3 PUSH1 0x20 MSTORE PUSH1 0x40 SWAP1 KECCAK256 SLOAD SWAP1 SWAP2 POP PUSH1 0xFF AND PUSH2 0x1077 JUMPI PUSH1 0x40 DUP1 MLOAD PUSH3 0x461BCD PUSH1 0xE5 SHL DUP2 MSTORE PUSH1 0x20 PUSH1 0x4 DUP3 ADD MSTORE PUSH1 0x11 PUSH1 0x24 DUP3 ADD MSTORE PUSH17 0x17DD1BDAD95B881A5CC81A5B9D985B1A59 PUSH1 0x7A SHL PUSH1 0x44 DUP3 ADD MSTORE SWAP1 MLOAD SWAP1 DUP2 SWAP1 SUB PUSH1 0x64 ADD SWAP1 REVERT JUMPDEST PUSH2 0xA84 DUP7 DUP7 DUP7 DUP7 PUSH2 0x24C4 JUMP JUMPDEST PUSH1 0x60 PUSH1 0x0 DUP1 PUSH1 0x0 JUMPDEST PUSH1 0xE SLOAD DUP2 LT ISZERO PUSH2 0x10E6 JUMPI PUSH1 0xC PUSH1 0x0 PUSH1 0xE DUP4 DUP2 SLOAD DUP2 LT PUSH2 0x10A6 JUMPI INVALID JUMPDEST PUSH1 0x0 SWAP2 DUP3 MSTORE PUSH1 0x20 DUP1 DUP4 KECCAK256 SWAP1 SWAP2 ADD SLOAD PUSH1 0x1 PUSH1 0x1 PUSH1 0xA0 SHL SUB AND DUP4 MSTORE DUP3 ADD SWAP3 SWAP1 SWAP3 MSTORE PUSH1 0x40 ADD SWAP1 KECCAK256 SLOAD ISZERO PUSH2 0x10DE JUMPI PUSH2 0x10DB DUP4 PUSH1 0x1 PUSH2 0x22AA JUMP JUMPDEST SWAP3 POP JUMPDEST PUSH1 0x1 ADD PUSH2 0x108B JUMP JUMPDEST POP PUSH1 0x60 DUP3 PUSH8 0xFFFFFFFFFFFFFFFF DUP2 GT DUP1 ISZERO PUSH2 0x1100 JUMPI PUSH1 0x0 DUP1 REVERT JUMPDEST POP PUSH1 0x40 MLOAD SWAP1 DUP1 DUP3 MSTORE DUP1 PUSH1 0x20 MUL PUSH1 0x20 ADD DUP3 ADD PUSH1 0x40 MSTORE DUP1 ISZERO PUSH2 0x112A JUMPI DUP2 PUSH1 0x20 ADD PUSH1 0x20 DUP3 MUL DUP1 CALLDATASIZE DUP4 CALLDATACOPY ADD SWAP1 POP JUMPDEST POP SWAP1 POP PUSH1 0x0 JUMPDEST PUSH1 0xE SLOAD DUP2 LT ISZERO PUSH2 0x11DA JUMPI PUSH1 0xC PUSH1 0x0 PUSH1 0xE DUP4 DUP2 SLOAD DUP2 LT PUSH2 0x114B JUMPI INVALID JUMPDEST PUSH1 0x0 SWAP2 DUP3 MSTORE PUSH1 0x20 DUP1 DUP4 KECCAK256 SWAP1 SWAP2 ADD SLOAD PUSH1 0x1 PUSH1 0x1 PUSH1 0xA0 SHL SUB AND DUP4 MSTORE DUP3 ADD SWAP3 SWAP1 SWAP3 MSTORE PUSH1 0x40 ADD SWAP1 KECCAK256 SLOAD ISZERO PUSH2 0x11D2 JUMPI PUSH1 0xC PUSH1 0x0 PUSH1 0xE DUP4 DUP2 SLOAD DUP2 LT PUSH2 0x1186 JUMPI INVALID JUMPDEST PUSH1 0x0 SWAP2 DUP3 MSTORE PUSH1 0x20 DUP1 DUP4 KECCAK256 SWAP1 SWAP2 ADD SLOAD PUSH1 0x1 PUSH1 0x1 PUSH1 0xA0 SHL SUB AND DUP4 MSTORE DUP3 ADD SWAP3 SWAP1 SWAP3 MSTORE PUSH1 0x40 ADD SWAP1 KECCAK256 SLOAD DUP3 MLOAD DUP4 SWAP1 DUP6 SWAP1 DUP2 LT PUSH2 0x11B9 JUMPI INVALID JUMPDEST PUSH1 0x20 SWAP1 DUP2 MUL SWAP2 SWAP1 SWAP2 ADD ADD MSTORE PUSH2 0x11CF DUP4 PUSH1 0x1 PUSH2 0x22AA JUMP JUMPDEST SWAP3 POP JUMPDEST PUSH1 0x1 ADD PUSH2 0x1130 JUMP JUMPDEST POP SWAP3 POP POP POP SWAP1 JUMP JUMPDEST PUSH1 0x7 SLOAD DUP2 JUMP JUMPDEST PUSH2 0x11F0 PUSH2 0x1AE6 JUMP JUMPDEST PUSH1 0x1 PUSH1 0x1 PUSH1 0xA0 SHL SUB AND PUSH2 0x1201 PUSH2 0x13C5 JUMP JUMPDEST PUSH1 0x1 PUSH1 0x1 PUSH1 0xA0 SHL SUB AND EQ PUSH2 0x124A JUMPI PUSH1 0x40 DUP1 MLOAD PUSH3 0x461BCD PUSH1 0xE5 SHL DUP2 MSTORE PUSH1 0x20 PUSH1 0x4 DUP3 ADD DUP2 SWAP1 MSTORE PUSH1 0x24 DUP3 ADD MSTORE PUSH1 0x0 DUP1 MLOAD PUSH1 0x20 PUSH2 0x2983 DUP4 CODECOPY DUP2 MLOAD SWAP2 MSTORE PUSH1 0x44 DUP3 ADD MSTORE SWAP1 MLOAD SWAP1 DUP2 SWAP1 SUB PUSH1 0x64 ADD SWAP1 REVERT JUMPDEST PUSH1 0x0 DUP1 SLOAD PUSH1 0x40 MLOAD PUSH1 0x1 PUSH1 0x1 PUSH1 0xA0 SHL SUB SWAP1 SWAP2 AND SWAP1 PUSH32 0x8BE0079C531659141344CD1FD0A4F28419497F9722A3DAAFE3B4186F6B6457E0 SWAP1 DUP4 SWAP1 LOG3 PUSH1 0x0 DUP1 SLOAD PUSH1 0x1 PUSH1 0x1 PUSH1 0xA0 SHL SUB NOT AND SWAP1 SSTORE JUMP JUMPDEST PUSH1 0x0 PUSH2 0x129E PUSH2 0x1AE6 JUMP JUMPDEST PUSH1 0x1 PUSH1 0x1 PUSH1 0xA0 SHL SUB AND PUSH2 0x12AF PUSH2 0x13C5 JUMP JUMPDEST PUSH1 0x1 PUSH1 0x1 PUSH1 0xA0 SHL SUB AND EQ PUSH2 0x12F8 JUMPI PUSH1 0x40 DUP1 MLOAD PUSH3 0x461BCD PUSH1 0xE5 SHL DUP2 MSTORE PUSH1 0x20 PUSH1 0x4 DUP3 ADD DUP2 SWAP1 MSTORE PUSH1 0x24 DUP3 ADD MSTORE PUSH1 0x0 DUP1 MLOAD PUSH1 0x20 PUSH2 0x2983 DUP4 CODECOPY DUP2 MLOAD SWAP2 MSTORE PUSH1 0x44 DUP3 ADD MSTORE SWAP1 MLOAD SWAP1 DUP2 SWAP1 SUB PUSH1 0x64 ADD SWAP1 REVERT JUMPDEST PUSH1 0x1 PUSH1 0x1 PUSH1 0xA0 SHL SUB DUP6 AND ISZERO PUSH2 0x1354 JUMPI PUSH1 0x40 DUP1 MLOAD PUSH3 0x461BCD PUSH1 0xE5 SHL DUP2 MSTORE PUSH1 0x20 PUSH1 0x4 DUP3 ADD MSTORE PUSH1 0x1F PUSH1 0x24 DUP3 ADD MSTORE PUSH32 0x5F64657374546F6B656E2073686F756C64206265206164647265737328302900 PUSH1 0x44 DUP3 ADD MSTORE SWAP1 MLOAD SWAP1 DUP2 SWAP1 SUB PUSH1 0x64 ADD SWAP1 REVERT JUMPDEST PUSH1 0x1 SLOAD PUSH1 0x1 PUSH1 0x1 PUSH1 0xA0 SHL SUB AND DUP5 ISZERO PUSH2 0x13A6 JUMPI PUSH1 0x0 PUSH2 0x137C DUP6 PUSH2 0x1376 DUP9 DUP8 PUSH2 0x270B JUMP JUMPDEST SWAP1 PUSH2 0x270B JUMP JUMPDEST PUSH1 0x1 SLOAD SWAP1 SWAP2 POP PUSH2 0x13A0 SWAP1 PUSH1 0x1 PUSH1 0x1 PUSH1 0xA0 SHL SUB AND PUSH1 0x0 PUSH2 0x139B DUP5 DUP10 PUSH2 0x22AA JUMP JUMPDEST PUSH2 0x1AEA JUMP JUMPDEST POP PUSH2 0x13AF JUMP JUMPDEST DUP5 PUSH2 0x13AF JUMPI POP PUSH1 0x0 JUMPDEST PUSH2 0x13B9 DUP2 DUP5 PUSH2 0x1BD6 JUMP JUMPDEST POP PUSH1 0x1 SWAP6 SWAP5 POP POP POP POP POP JUMP JUMPDEST PUSH1 0x0 SLOAD PUSH1 0x1 PUSH1 0x1 PUSH1 0xA0 SHL SUB AND SWAP1 JUMP JUMPDEST PUSH1 0x3 PUSH1 0x20 MSTORE PUSH1 0x0 SWAP1 DUP2 MSTORE PUSH1 0x40 SWAP1 KECCAK256 SLOAD PUSH1 0xFF AND DUP2 JUMP JUMPDEST PUSH1 0x0 PUSH2 0x13F3 PUSH2 0x1AE6 JUMP JUMPDEST PUSH1 0x1 PUSH1 0x1 PUSH1 0xA0 SHL SUB AND PUSH2 0x1404 PUSH2 0x13C5 JUMP JUMPDEST PUSH1 0x1 PUSH1 0x1 PUSH1 0xA0 SHL SUB AND EQ PUSH2 0x144D JUMPI PUSH1 0x40 DUP1 MLOAD PUSH3 0x461BCD PUSH1 0xE5 SHL DUP2 MSTORE PUSH1 0x20 PUSH1 0x4 DUP3 ADD DUP2 SWAP1 MSTORE PUSH1 0x24 DUP3 ADD MSTORE PUSH1 0x0 DUP1 MLOAD PUSH1 0x20 PUSH2 0x2983 DUP4 CODECOPY DUP2 MLOAD SWAP2 MSTORE PUSH1 0x44 DUP3 ADD MSTORE SWAP1 MLOAD SWAP1 DUP2 SWAP1 SUB PUSH1 0x64 ADD SWAP1 REVERT JUMPDEST PUSH1 0x1 PUSH1 0x1 PUSH1 0xA0 SHL SUB DUP7 AND PUSH1 0x0 SWAP1 DUP2 MSTORE PUSH1 0x3 PUSH1 0x20 MSTORE PUSH1 0x40 SWAP1 KECCAK256 SLOAD PUSH1 0xFF AND PUSH2 0x14BA JUMPI PUSH1 0x40 DUP1 MLOAD PUSH3 0x461BCD PUSH1 0xE5 SHL DUP2 MSTORE PUSH1 0x20 PUSH1 0x4 DUP3 ADD MSTORE PUSH1 0x1D PUSH1 0x24 DUP3 ADD MSTORE PUSH32 0x5F64657374546F6B656E206973206E6F742077686974656C6973746564000000 PUSH1 0x44 DUP3 ADD MSTORE SWAP1 MLOAD SWAP1 DUP2 SWAP1 SUB PUSH1 0x64 ADD SWAP1 REVERT JUMPDEST PUSH1 0x1 PUSH1 0x1 PUSH1 0xA0 SHL SUB DUP7 AND PUSH2 0x14FF JUMPI PUSH1 0x40 MLOAD PUSH3 0x461BCD PUSH1 0xE5 SHL DUP2 MSTORE PUSH1 0x4 ADD DUP1 DUP1 PUSH1 0x20 ADD DUP3 DUP2 SUB DUP3 MSTORE PUSH1 0x23 DUP2 MSTORE PUSH1 0x20 ADD DUP1 PUSH2 0x2A05 PUSH1 0x23 SWAP2 CODECOPY PUSH1 0x40 ADD SWAP2 POP POP PUSH1 0x40 MLOAD DUP1 SWAP2 SUB SWAP1 REVERT JUMPDEST PUSH1 0x0 DUP5 ISZERO PUSH2 0x1525 JUMPI PUSH1 0x1 SLOAD PUSH2 0x1520 SWAP1 PUSH1 0x0 SWAP1 PUSH1 0x1 PUSH1 0x1 PUSH1 0xA0 SHL SUB AND DUP8 PUSH2 0x1AEA JUMP JUMPDEST PUSH2 0x1538 JUMP JUMPDEST DUP5 PUSH2 0x1538 JUMPI POP PUSH1 0x1 SLOAD PUSH1 0x1 PUSH1 0x1 PUSH1 0xA0 SHL SUB AND JUMPDEST PUSH1 0x2 SLOAD PUSH1 0x1 PUSH1 0x1 PUSH1 0xA0 SHL SUB DUP9 DUP2 AND SWAP2 AND EQ ISZERO PUSH2 0x155C JUMPI POP PUSH1 0x2 SLOAD PUSH1 0x1 PUSH1 0x1 PUSH1 0xA0 SHL SUB AND JUMPDEST PUSH2 0x1566 DUP2 DUP6 PUSH2 0x1BD6 JUMP JUMPDEST PUSH2 0x156F DUP4 PUSH2 0x1D4D JUMP JUMPDEST PUSH1 0x0 JUMPDEST DUP7 MLOAD DUP2 LT ISZERO PUSH2 0x97B JUMPI PUSH2 0x15BB DUP9 DUP9 DUP4 DUP2 MLOAD DUP2 LT PUSH2 0x158B JUMPI INVALID JUMPDEST PUSH1 0x20 MUL PUSH1 0x20 ADD ADD MLOAD PUSH1 0x0 SHR DUP10 DUP5 DUP2 MLOAD DUP2 LT PUSH2 0x15A2 JUMPI INVALID JUMPDEST PUSH1 0x20 MUL PUSH1 0x20 ADD ADD MLOAD PUSH1 0xA0 SHR PUSH1 0x1 PUSH1 0x1 PUSH1 0x60 SHL SUB AND PUSH2 0x1D9C JUMP JUMPDEST PUSH1 0x1 ADD PUSH2 0x1572 JUMP JUMPDEST PUSH1 0x4 SLOAD PUSH1 0x1 PUSH1 0x20 SHL SWAP1 DIV PUSH1 0xFF AND DUP2 JUMP JUMPDEST PUSH1 0x0 PUSH2 0x15DD PUSH2 0x1AE6 JUMP JUMPDEST PUSH1 0x1 PUSH1 0x1 PUSH1 0xA0 SHL SUB AND PUSH2 0x15EE PUSH2 0x13C5 JUMP JUMPDEST PUSH1 0x1 PUSH1 0x1 PUSH1 0xA0 SHL SUB AND EQ PUSH2 0x1637 JUMPI PUSH1 0x40 DUP1 MLOAD PUSH3 0x461BCD PUSH1 0xE5 SHL DUP2 MSTORE PUSH1 0x20 PUSH1 0x4 DUP3 ADD DUP2 SWAP1 MSTORE PUSH1 0x24 DUP3 ADD MSTORE PUSH1 0x0 DUP1 MLOAD PUSH1 0x20 PUSH2 0x2983 DUP4 CODECOPY DUP2 MLOAD SWAP2 MSTORE PUSH1 0x44 DUP3 ADD MSTORE SWAP1 MLOAD SWAP1 DUP2 SWAP1 SUB PUSH1 0x64 ADD SWAP1 REVERT JUMPDEST PUSH2 0x1640 DUP3 PUSH2 0x1738 JUMP JUMPDEST ISZERO PUSH2 0x168D JUMPI PUSH1 0x40 DUP1 MLOAD PUSH3 0x461BCD PUSH1 0xE5 SHL DUP2 MSTORE PUSH1 0x20 PUSH1 0x4 DUP3 ADD MSTORE PUSH1 0x18 PUSH1 0x24 DUP3 ADD MSTORE PUSH24 0x151A19481D1E1A59081A5CC8185B1C9958591E481D5CD959 PUSH1 0x42 SHL PUSH1 0x44 DUP3 ADD MSTORE SWAP1 MLOAD SWAP1 DUP2 SWAP1 SUB PUSH1 0x64 ADD SWAP1 REVERT JUMPDEST PUSH1 0x40 DUP1 MLOAD DUP1 DUP3 ADD SWAP1 SWAP2 MSTORE PUSH1 0x1D DUP2 MSTORE PUSH32 0x42544320666C6F617420616D6F756E7420696E73756666696369656E74000000 PUSH1 0x20 DUP1 DUP4 ADD SWAP2 SWAP1 SWAP2 MSTORE PUSH1 0x0 DUP1 MSTORE PUSH1 0xA SWAP1 MSTORE PUSH32 0x13DA86008BA1C6922DAEE3E07DB95305EF49EBCED9F5467A0B8613FCC6B343E3 SLOAD PUSH2 0x16FA SWAP2 DUP6 SWAP1 PUSH2 0x2768 JUMP JUMPDEST PUSH1 0x0 DUP1 MSTORE PUSH1 0xA PUSH1 0x20 MSTORE PUSH32 0x13DA86008BA1C6922DAEE3E07DB95305EF49EBCED9F5467A0B8613FCC6B343E3 SSTORE PUSH2 0x172E DUP3 PUSH2 0x27FF JUMP JUMPDEST POP PUSH1 0x1 JUMPDEST SWAP3 SWAP2 POP POP JUMP JUMPDEST PUSH1 0x0 SWAP1 DUP2 MSTORE PUSH1 0xB PUSH1 0x20 MSTORE PUSH1 0x40 SWAP1 KECCAK256 SLOAD PUSH1 0xFF AND SWAP1 JUMP JUMPDEST PUSH1 0x0 DUP1 PUSH2 0x1767 PUSH1 0x6 SLOAD PUSH1 0x5 SLOAD PUSH2 0x22AA SWAP1 SWAP2 SWAP1 PUSH4 0xFFFFFFFF AND JUMP JUMPDEST SWAP1 POP PUSH1 0x0 DUP2 GT PUSH2 0x17A8 JUMPI PUSH1 0x40 MLOAD PUSH3 0x461BCD PUSH1 0xE5 SHL DUP2 MSTORE PUSH1 0x4 ADD DUP1 DUP1 PUSH1 0x20 ADD DUP3 DUP2 SUB DUP3 MSTORE PUSH1 0x25 DUP2 MSTORE PUSH1 0x20 ADD DUP1 PUSH2 0x289B PUSH1 0x25 SWAP2 CODECOPY PUSH1 0x40 ADD SWAP2 POP POP PUSH1 0x40 MLOAD DUP1 SWAP2 SUB SWAP1 REVERT JUMPDEST PUSH1 0x60 PUSH2 0x17B2 PUSH2 0x1083 JUMP JUMPDEST SWAP1 POP PUSH1 0x0 DUP1 JUMPDEST DUP3 MLOAD DUP2 LT ISZERO PUSH2 0x17FD JUMPI PUSH2 0x17F3 DUP4 DUP3 DUP2 MLOAD DUP2 LT PUSH2 0x17D0 JUMPI INVALID JUMPDEST PUSH1 0x20 MUL PUSH1 0x20 ADD ADD MLOAD PUSH1 0xA0 SHR PUSH1 0x1 PUSH1 0x1 PUSH1 0x60 SHL SUB AND DUP4 PUSH2 0x22AA SWAP1 SWAP2 SWAP1 PUSH4 0xFFFFFFFF AND JUMP JUMPDEST SWAP2 POP PUSH1 0x1 ADD PUSH2 0x17B8 JUMP JUMPDEST POP PUSH1 0x2 SLOAD PUSH1 0x5 SLOAD PUSH1 0x40 DUP1 MLOAD PUSH4 0x40C10F19 PUSH1 0xE0 SHL DUP2 MSTORE ADDRESS PUSH1 0x4 DUP3 ADD MSTORE PUSH1 0x24 DUP2 ADD SWAP3 SWAP1 SWAP3 MSTORE MLOAD PUSH1 0x1 PUSH1 0x1 PUSH1 0xA0 SHL SUB SWAP1 SWAP3 AND SWAP2 PUSH4 0x40C10F19 SWAP2 PUSH1 0x44 DUP1 DUP3 ADD SWAP3 PUSH1 0x20 SWAP3 SWAP1 SWAP2 SWAP1 DUP3 SWAP1 SUB ADD DUP2 PUSH1 0x0 DUP8 DUP1 EXTCODESIZE ISZERO DUP1 ISZERO PUSH2 0x1855 JUMPI PUSH1 0x0 DUP1 REVERT JUMPDEST POP GAS CALL ISZERO DUP1 ISZERO PUSH2 0x1869 JUMPI RETURNDATASIZE PUSH1 0x0 DUP1 RETURNDATACOPY RETURNDATASIZE PUSH1 0x0 REVERT JUMPDEST POP POP POP POP PUSH1 0x40 MLOAD RETURNDATASIZE PUSH1 0x20 DUP2 LT ISZERO PUSH2 0x187F JUMPI PUSH1 0x0 DUP1 REVERT JUMPDEST POP PUSH1 0x0 SWAP1 POP JUMPDEST DUP3 MLOAD DUP2 LT ISZERO PUSH2 0x196C JUMPI PUSH1 0x2 SLOAD DUP4 MLOAD PUSH1 0x1 PUSH1 0x1 PUSH1 0xA0 SHL SUB SWAP1 SWAP2 AND SWAP1 PUSH4 0xA9059CBB SWAP1 DUP6 SWAP1 DUP5 SWAP1 DUP2 LT PUSH2 0x18B1 JUMPI INVALID JUMPDEST PUSH1 0x20 MUL PUSH1 0x20 ADD ADD MLOAD PUSH1 0x0 SHR PUSH2 0x18F2 DUP6 PUSH2 0xC61 DUP9 DUP8 DUP2 MLOAD DUP2 LT PUSH2 0x18CF JUMPI INVALID JUMPDEST PUSH1 0x20 MUL PUSH1 0x20 ADD ADD MLOAD PUSH1 0xA0 SHR PUSH1 0x1 PUSH1 0x1 PUSH1 0x60 SHL SUB AND DUP11 PUSH2 0x230B SWAP1 SWAP2 SWAP1 PUSH4 0xFFFFFFFF AND JUMP JUMPDEST PUSH1 0x40 MLOAD DUP4 PUSH4 0xFFFFFFFF AND PUSH1 0xE0 SHL DUP2 MSTORE PUSH1 0x4 ADD DUP1 DUP4 PUSH1 0x1 PUSH1 0x1 PUSH1 0xA0 SHL SUB AND DUP2 MSTORE PUSH1 0x20 ADD DUP3 DUP2 MSTORE PUSH1 0x20 ADD SWAP3 POP POP POP PUSH1 0x20 PUSH1 0x40 MLOAD DUP1 DUP4 SUB DUP2 PUSH1 0x0 DUP8 DUP1 EXTCODESIZE ISZERO DUP1 ISZERO PUSH2 0x1938 JUMPI PUSH1 0x0 DUP1 REVERT JUMPDEST POP GAS CALL ISZERO DUP1 ISZERO PUSH2 0x194C JUMPI RETURNDATASIZE PUSH1 0x0 DUP1 RETURNDATACOPY RETURNDATASIZE PUSH1 0x0 REVERT JUMPDEST POP POP POP POP PUSH1 0x40 MLOAD RETURNDATASIZE PUSH1 0x20 DUP2 LT ISZERO PUSH2 0x1962 JUMPI PUSH1 0x0 DUP1 REVERT JUMPDEST POP POP PUSH1 0x1 ADD PUSH2 0x1885 JUMP JUMPDEST POP PUSH1 0x40 DUP1 MLOAD DUP5 DUP2 MSTORE SWAP1 MLOAD PUSH32 0x86DD6AE252E62228B47B3C1A12762CBF634952B2D29319B04F4F72FB153BCBDD SWAP2 DUP2 SWAP1 SUB PUSH1 0x20 ADD SWAP1 LOG1 POP POP PUSH1 0x0 PUSH1 0x5 DUP2 SWAP1 SSTORE PUSH1 0x6 SSTORE POP PUSH1 0x1 SWAP1 POP SWAP1 JUMP JUMPDEST PUSH1 0x1 PUSH1 0x1 PUSH1 0xA0 SHL SUB SWAP2 DUP3 AND PUSH1 0x0 SWAP1 DUP2 MSTORE PUSH1 0xA PUSH1 0x20 MSTORE PUSH1 0x40 DUP1 DUP3 KECCAK256 SLOAD SWAP3 SWAP1 SWAP4 AND DUP2 MSTORE SWAP2 SWAP1 SWAP2 KECCAK256 SLOAD SWAP1 SWAP2 JUMP JUMPDEST PUSH2 0x19E6 PUSH2 0x1AE6 JUMP JUMPDEST PUSH1 0x1 PUSH1 0x1 PUSH1 0xA0 SHL SUB AND PUSH2 0x19F7 PUSH2 0x13C5 JUMP JUMPDEST PUSH1 0x1 PUSH1 0x1 PUSH1 0xA0 SHL SUB AND EQ PUSH2 0x1A40 JUMPI PUSH1 0x40 DUP1 MLOAD PUSH3 0x461BCD PUSH1 0xE5 SHL DUP2 MSTORE PUSH1 0x20 PUSH1 0x4 DUP3 ADD DUP2 SWAP1 MSTORE PUSH1 0x24 DUP3 ADD MSTORE PUSH1 0x0 DUP1 MLOAD PUSH1 0x20 PUSH2 0x2983 DUP4 CODECOPY DUP2 MLOAD SWAP2 MSTORE PUSH1 0x44 DUP3 ADD MSTORE SWAP1 MLOAD SWAP1 DUP2 SWAP1 SUB PUSH1 0x64 ADD SWAP1 REVERT JUMPDEST PUSH1 0x1 PUSH1 0x1 PUSH1 0xA0 SHL SUB DUP2 AND PUSH2 0x1A85 JUMPI PUSH1 0x40 MLOAD PUSH3 0x461BCD PUSH1 0xE5 SHL DUP2 MSTORE PUSH1 0x4 ADD DUP1 DUP1 PUSH1 0x20 ADD DUP3 DUP2 SUB DUP3 MSTORE PUSH1 0x26 DUP2 MSTORE PUSH1 0x20 ADD DUP1 PUSH2 0x28F4 PUSH1 0x26 SWAP2 CODECOPY PUSH1 0x40 ADD SWAP2 POP POP PUSH1 0x40 MLOAD DUP1 SWAP2 SUB SWAP1 REVERT JUMPDEST PUSH1 0x0 DUP1 SLOAD PUSH1 0x40 MLOAD PUSH1 0x1 PUSH1 0x1 PUSH1 0xA0 SHL SUB DUP1 DUP6 AND SWAP4 SWAP3 AND SWAP2 PUSH32 0x8BE0079C531659141344CD1FD0A4F28419497F9722A3DAAFE3B4186F6B6457E0 SWAP2 LOG3 PUSH1 0x0 DUP1 SLOAD PUSH1 0x1 PUSH1 0x1 PUSH1 0xA0 SHL SUB NOT AND PUSH1 0x1 PUSH1 0x1 PUSH1 0xA0 SHL SUB SWAP3 SWAP1 SWAP3 AND SWAP2 SWAP1 SWAP2 OR SWAP1 SSTORE JUMP JUMPDEST PUSH1 0x6 SLOAD DUP2 JUMP JUMPDEST CALLER SWAP1 JUMP JUMPDEST PUSH1 0x40 DUP1 MLOAD DUP1 DUP3 ADD DUP3 MSTORE PUSH1 0x20 DUP1 DUP3 MSTORE PUSH32 0x5F737761703A20666C6F617420616D6F756E7420696E73756666696369656E74 DUP2 DUP4 ADD MSTORE PUSH1 0x1 PUSH1 0x1 PUSH1 0xA0 SHL SUB DUP6 AND PUSH1 0x0 SWAP1 DUP2 MSTORE PUSH1 0xA SWAP1 SWAP2 MSTORE SWAP2 SWAP1 SWAP2 KECCAK256 SLOAD PUSH2 0x1B41 SWAP2 DUP4 SWAP1 PUSH2 0x2768 JUMP JUMPDEST PUSH1 0x1 PUSH1 0x1 PUSH1 0xA0 SHL SUB DUP1 DUP5 AND PUSH1 0x0 SWAP1 DUP2 MSTORE PUSH1 0xA PUSH1 0x20 MSTORE PUSH1 0x40 DUP1 DUP3 KECCAK256 SWAP4 SWAP1 SWAP4 SSTORE SWAP1 DUP6 AND DUP2 MSTORE KECCAK256 SLOAD PUSH2 0x1B70 SWAP1 DUP3 PUSH2 0x22AA JUMP JUMPDEST PUSH1 0x1 PUSH1 0x1 PUSH1 0xA0 SHL SUB DUP1 DUP6 AND PUSH1 0x0 DUP2 DUP2 MSTORE PUSH1 0xA PUSH1 0x20 SWAP1 DUP2 MSTORE PUSH1 0x40 SWAP2 DUP3 SWAP1 KECCAK256 SWAP5 SWAP1 SWAP5 SSTORE DUP1 MLOAD SWAP2 DUP3 MSTORE SWAP2 DUP6 AND SWAP3 DUP2 ADD SWAP3 SWAP1 SWAP3 MSTORE DUP2 DUP2 ADD DUP4 SWAP1 MSTORE MLOAD PUSH32 0xEA368A40E9570069BB8E6511D668293AD2E1F03B0D982431FD223DE9F3B70CA6 SWAP2 DUP2 SWAP1 SUB PUSH1 0x60 ADD SWAP1 LOG1 POP POP POP JUMP JUMPDEST DUP1 PUSH2 0x1BE0 JUMPI PUSH2 0x1D49 JUMP JUMPDEST PUSH1 0x2 SLOAD PUSH1 0x1 PUSH1 0x1 PUSH1 0xA0 SHL SUB DUP4 DUP2 AND SWAP2 AND EQ ISZERO PUSH2 0x1C5B JUMPI PUSH1 0x6 SLOAD PUSH2 0x1C03 SWAP1 DUP3 PUSH2 0x22AA JUMP JUMPDEST PUSH1 0x6 SSTORE PUSH1 0x40 DUP1 MLOAD PUSH1 0x1 PUSH1 0x1 PUSH1 0xA0 SHL SUB DUP5 AND DUP2 MSTORE PUSH1 0x20 DUP2 ADD DUP4 SWAP1 MSTORE PUSH1 0x0 DUP2 DUP4 ADD DUP2 SWAP1 MSTORE PUSH1 0x60 DUP3 ADD MSTORE SWAP1 MLOAD PUSH32 0xE3DEBE835F6848EDC082B32A1D729781D3BFCD7E14422D80BCAA6794D3816B2F SWAP2 DUP2 SWAP1 SUB PUSH1 0x80 ADD SWAP1 LOG1 PUSH2 0x1D49 JUMP JUMPDEST PUSH1 0x0 PUSH2 0x1C65 PUSH2 0xB8C JUMP JUMPDEST PUSH1 0x1 PUSH1 0x1 PUSH1 0xA0 SHL SUB DUP5 AND PUSH1 0x0 SWAP1 DUP2 MSTORE PUSH1 0xA PUSH1 0x20 MSTORE PUSH1 0x40 SWAP1 KECCAK256 SLOAD SWAP1 SWAP2 POP PUSH2 0x1C8B SWAP1 DUP4 PUSH2 0x22AA JUMP JUMPDEST PUSH1 0x1 PUSH1 0x1 PUSH1 0xA0 SHL SUB DUP5 AND PUSH1 0x0 SWAP1 DUP2 MSTORE PUSH1 0xA PUSH1 0x20 MSTORE PUSH1 0x40 DUP2 KECCAK256 SWAP2 SWAP1 SWAP2 SSTORE PUSH1 0x4 SLOAD PUSH2 0x1CC5 SWAP1 PUSH1 0x64 SWAP1 PUSH2 0xC61 SWAP1 DUP7 SWAP1 PUSH3 0x10000 SWAP1 DIV PUSH1 0xFF AND PUSH2 0x230B JUMP JUMPDEST SWAP1 POP PUSH1 0x0 PUSH2 0x1CE2 DUP4 PUSH2 0xC61 PUSH1 0x9 SLOAD DUP6 PUSH2 0x230B SWAP1 SWAP2 SWAP1 PUSH4 0xFFFFFFFF AND JUMP JUMPDEST PUSH1 0x5 SLOAD SWAP1 SWAP2 POP PUSH2 0x1CF2 SWAP1 DUP3 PUSH2 0x22AA JUMP JUMPDEST PUSH1 0x5 SSTORE PUSH1 0x40 DUP1 MLOAD PUSH1 0x1 PUSH1 0x1 PUSH1 0xA0 SHL SUB DUP8 AND DUP2 MSTORE PUSH1 0x20 DUP2 ADD DUP7 SWAP1 MSTORE DUP1 DUP3 ADD DUP4 SWAP1 MSTORE PUSH1 0x60 DUP2 ADD DUP6 SWAP1 MSTORE SWAP1 MLOAD PUSH32 0xE3DEBE835F6848EDC082B32A1D729781D3BFCD7E14422D80BCAA6794D3816B2F SWAP2 DUP2 SWAP1 SUB PUSH1 0x80 ADD SWAP1 LOG1 POP POP POP JUMPDEST POP POP JUMP JUMPDEST PUSH1 0x0 JUMPDEST DUP2 MLOAD DUP2 LT ISZERO PUSH2 0x1D49 JUMPI PUSH1 0x1 PUSH1 0xB PUSH1 0x0 DUP5 DUP5 DUP2 MLOAD DUP2 LT PUSH2 0x1D6B JUMPI INVALID JUMPDEST PUSH1 0x20 SWAP1 DUP2 MUL SWAP2 SWAP1 SWAP2 ADD DUP2 ADD MLOAD DUP3 MSTORE DUP2 ADD SWAP2 SWAP1 SWAP2 MSTORE PUSH1 0x40 ADD PUSH1 0x0 KECCAK256 DUP1 SLOAD PUSH1 0xFF NOT AND SWAP2 ISZERO ISZERO SWAP2 SWAP1 SWAP2 OR SWAP1 SSTORE PUSH1 0x1 ADD PUSH2 0x1D50 JUMP JUMPDEST PUSH1 0x1 SLOAD PUSH1 0x1 PUSH1 0x1 PUSH1 0xA0 SHL SUB DUP5 DUP2 AND SWAP2 AND EQ ISZERO PUSH2 0x1DC3 JUMPI PUSH1 0x8 SLOAD PUSH2 0x1DC0 SWAP1 DUP3 SWAP1 PUSH2 0x230B JUMP JUMPDEST SWAP1 POP JUMPDEST DUP3 PUSH1 0x1 PUSH1 0x1 PUSH1 0xA0 SHL SUB AND PUSH4 0xA9059CBB DUP4 DUP4 PUSH1 0x40 MLOAD DUP4 PUSH4 0xFFFFFFFF AND PUSH1 0xE0 SHL DUP2 MSTORE PUSH1 0x4 ADD DUP1 DUP4 PUSH1 0x1 PUSH1 0x1 PUSH1 0xA0 SHL SUB AND DUP2 MSTORE PUSH1 0x20 ADD DUP3 DUP2 MSTORE PUSH1 0x20 ADD SWAP3 POP POP POP PUSH1 0x20 PUSH1 0x40 MLOAD DUP1 DUP4 SUB DUP2 PUSH1 0x0 DUP8 DUP1 EXTCODESIZE ISZERO DUP1 ISZERO PUSH2 0x1E1A JUMPI PUSH1 0x0 DUP1 REVERT JUMPDEST POP GAS CALL ISZERO DUP1 ISZERO PUSH2 0x1E2E JUMPI RETURNDATASIZE PUSH1 0x0 DUP1 RETURNDATACOPY RETURNDATASIZE PUSH1 0x0 REVERT JUMPDEST POP POP POP POP PUSH1 0x40 MLOAD RETURNDATASIZE PUSH1 0x20 DUP2 LT ISZERO PUSH2 0x1E44 JUMPI PUSH1 0x0 DUP1 REVERT JUMPDEST POP MLOAD PUSH2 0x1E4F JUMPI PUSH1 0x0 DUP1 REVERT JUMPDEST POP POP POP JUMP JUMPDEST PUSH1 0x0 PUSH2 0x1E5F DUP3 PUSH2 0x1738 JUMP JUMPDEST ISZERO PUSH2 0x1EAC JUMPI PUSH1 0x40 DUP1 MLOAD PUSH3 0x461BCD PUSH1 0xE5 SHL DUP2 MSTORE PUSH1 0x20 PUSH1 0x4 DUP3 ADD MSTORE PUSH1 0x18 PUSH1 0x24 DUP3 ADD MSTORE PUSH24 0x151A19481D1E1A59081A5CC8185B1C9958591E481D5CD959 PUSH1 0x42 SHL PUSH1 0x44 DUP3 ADD MSTORE SWAP1 MLOAD SWAP1 DUP2 SWAP1 SUB PUSH1 0x64 ADD SWAP1 REVERT JUMPDEST DUP4 PUSH2 0x1EFE JUMPI PUSH1 0x40 DUP1 MLOAD PUSH3 0x461BCD PUSH1 0xE5 SHL DUP2 MSTORE PUSH1 0x20 PUSH1 0x4 DUP3 ADD MSTORE PUSH1 0x1C PUSH1 0x24 DUP3 ADD MSTORE PUSH32 0x546865207472616E73616374696F6E206973206E6F742076616C696400000000 PUSH1 0x44 DUP3 ADD MSTORE SWAP1 MLOAD SWAP1 DUP2 SWAP1 SUB PUSH1 0x64 ADD SWAP1 REVERT JUMPDEST PUSH1 0x0 DUP1 PUSH2 0x1F0A DUP7 PUSH2 0x23CB JUMP JUMPDEST SWAP2 POP SWAP2 POP PUSH1 0x0 PUSH2 0x1F18 PUSH2 0xB8C JUMP JUMPDEST SWAP1 POP PUSH1 0x0 PUSH2 0x1F35 PUSH1 0x9 SLOAD PUSH2 0xC61 DUP5 DUP7 PUSH2 0x230B SWAP1 SWAP2 SWAP1 PUSH4 0xFFFFFFFF AND JUMP JUMPDEST PUSH1 0x4 SLOAD SWAP1 SWAP2 POP PUSH1 0x0 SWAP1 PUSH2 0x1F5B SWAP1 PUSH2 0x2710 SWAP1 PUSH2 0xC61 SWAP1 DUP6 SWAP1 PUSH1 0x1 PUSH1 0x20 SHL SWAP1 DIV PUSH1 0xFF AND PUSH2 0x230B JUMP JUMPDEST SWAP1 POP DUP8 PUSH2 0x1F68 DUP4 DUP4 PUSH2 0x270B JUMP JUMPDEST LT ISZERO PUSH2 0x1FA5 JUMPI PUSH1 0x40 MLOAD PUSH3 0x461BCD PUSH1 0xE5 SHL DUP2 MSTORE PUSH1 0x4 ADD DUP1 DUP1 PUSH1 0x20 ADD DUP3 DUP2 SUB DUP3 MSTORE PUSH1 0x34 DUP2 MSTORE PUSH1 0x20 ADD DUP1 PUSH2 0x28C0 PUSH1 0x34 SWAP2 CODECOPY PUSH1 0x40 ADD SWAP2 POP POP PUSH1 0x40 MLOAD DUP1 SWAP2 SUB SWAP1 REVERT JUMPDEST PUSH1 0x0 PUSH2 0x1FB5 DUP10 PUSH2 0x1376 DUP6 DUP6 PUSH2 0x270B JUMP JUMPDEST PUSH1 0x1 SLOAD SWAP1 SWAP2 POP PUSH1 0x0 SWAP1 DUP2 SWAP1 PUSH2 0x1FD4 SWAP1 DUP3 SWAP1 PUSH1 0x1 PUSH1 0x1 PUSH1 0xA0 SHL SUB AND PUSH2 0x19B4 JUMP JUMPDEST SWAP1 SWAP3 POP SWAP1 POP PUSH1 0x1 PUSH1 0x1 PUSH1 0xA0 SHL SUB DUP14 AND PUSH2 0x204A JUMPI PUSH2 0x1FF1 DUP6 DUP6 PUSH2 0x270B JUMP JUMPDEST DUP3 LT ISZERO PUSH2 0x2045 JUMPI PUSH1 0x40 DUP1 MLOAD PUSH3 0x461BCD PUSH1 0xE5 SHL DUP2 MSTORE PUSH1 0x20 PUSH1 0x4 DUP3 ADD MSTORE PUSH1 0x1F PUSH1 0x24 DUP3 ADD MSTORE PUSH32 0x54686520666C6F61742062616C616E636520696E73756666696369656E742E00 PUSH1 0x44 DUP3 ADD MSTORE SWAP1 MLOAD SWAP1 DUP2 SWAP1 SUB PUSH1 0x64 ADD SWAP1 REVERT JUMPDEST PUSH2 0x20BE JUMP JUMPDEST PUSH1 0x1 SLOAD PUSH1 0x1 PUSH1 0x1 PUSH1 0xA0 SHL SUB DUP15 DUP2 AND SWAP2 AND EQ ISZERO PUSH2 0x20BE JUMPI PUSH2 0x206A DUP6 DUP6 PUSH2 0x270B JUMP JUMPDEST DUP2 LT ISZERO PUSH2 0x20BE JUMPI PUSH1 0x40 DUP1 MLOAD PUSH3 0x461BCD PUSH1 0xE5 SHL DUP2 MSTORE PUSH1 0x20 PUSH1 0x4 DUP3 ADD MSTORE PUSH1 0x1F PUSH1 0x24 DUP3 ADD MSTORE PUSH32 0x54686520666C6F61742062616C616E636520696E73756666696369656E742E00 PUSH1 0x44 DUP3 ADD MSTORE SWAP1 MLOAD SWAP1 DUP2 SWAP1 SUB PUSH1 0x64 ADD SWAP1 REVERT JUMPDEST PUSH2 0x20C8 DUP14 DUP6 PUSH2 0x1BD6 JUMP JUMPDEST PUSH2 0x20D2 DUP14 DUP7 PUSH2 0x281A JUMP JUMPDEST PUSH2 0x20DB DUP11 PUSH2 0x27FF JUMP JUMPDEST PUSH1 0x1 SLOAD PUSH1 0x1 PUSH1 0x1 PUSH1 0xA0 SHL SUB DUP15 DUP2 AND SWAP2 AND EQ ISZERO PUSH2 0x20FC JUMPI PUSH2 0x20FC DUP14 DUP10 DUP6 PUSH2 0x1D9C JUMP JUMPDEST PUSH1 0x2 SLOAD PUSH1 0x40 DUP1 MLOAD PUSH4 0x852CD8D PUSH1 0xE3 SHL DUP2 MSTORE PUSH1 0x4 DUP2 ADD DUP11 SWAP1 MSTORE SWAP1 MLOAD PUSH1 0x1 PUSH1 0x1 PUSH1 0xA0 SHL SUB SWAP1 SWAP3 AND SWAP2 PUSH4 0x42966C68 SWAP2 PUSH1 0x24 DUP1 DUP3 ADD SWAP3 PUSH1 0x20 SWAP3 SWAP1 SWAP2 SWAP1 DUP3 SWAP1 SUB ADD DUP2 PUSH1 0x0 DUP8 DUP1 EXTCODESIZE ISZERO DUP1 ISZERO PUSH2 0x214A JUMPI PUSH1 0x0 DUP1 REVERT JUMPDEST POP GAS CALL ISZERO DUP1 ISZERO PUSH2 0x215E JUMPI RETURNDATASIZE PUSH1 0x0 DUP1 RETURNDATACOPY RETURNDATASIZE PUSH1 0x0 REVERT JUMPDEST POP POP POP POP PUSH1 0x40 MLOAD RETURNDATASIZE PUSH1 0x20 DUP2 LT ISZERO PUSH2 0x2174 JUMPI PUSH1 0x0 DUP1 REVERT JUMPDEST POP MLOAD PUSH2 0x217F JUMPI PUSH1 0x0 DUP1 REVERT JUMPDEST PUSH1 0x40 DUP1 MLOAD PUSH1 0x1 PUSH1 0x1 PUSH1 0xA0 SHL SUB DUP11 AND DUP2 MSTORE PUSH1 0x20 DUP2 ADD DUP10 SWAP1 MSTORE DUP1 DUP3 ADD DUP8 SWAP1 MSTORE PUSH1 0x60 DUP2 ADD DUP9 SWAP1 MSTORE PUSH1 0x80 DUP2 ADD DUP6 SWAP1 MSTORE PUSH1 0xA0 DUP2 ADD DUP13 SWAP1 MSTORE SWAP1 MLOAD PUSH32 0xA9DA34E5E4A956B744307AE7611795634E8365951073BF049D76B64B2AE7A058 SWAP2 DUP2 SWAP1 SUB PUSH1 0xC0 ADD SWAP1 LOG1 POP PUSH1 0x1 SWAP13 SWAP12 POP POP POP POP POP POP POP POP POP POP POP POP JUMP JUMPDEST PUSH1 0x1 SLOAD PUSH1 0x0 SWAP1 DUP2 SWAP1 DUP2 SWAP1 PUSH2 0x220E SWAP1 DUP3 SWAP1 PUSH1 0x1 PUSH1 0x1 PUSH1 0xA0 SHL SUB AND PUSH2 0x19B4 JUMP JUMPDEST SWAP1 SWAP3 POP SWAP1 POP PUSH1 0x0 PUSH2 0x2233 PUSH1 0x3 PUSH2 0xC61 PUSH1 0x2 PUSH2 0xC5B DUP10 PUSH2 0x222D DUP10 DUP10 PUSH2 0x22AA JUMP JUMPDEST SWAP1 PUSH2 0x22AA JUMP JUMPDEST PUSH1 0x1 SLOAD SWAP1 SWAP2 POP PUSH1 0x1 PUSH1 0x1 PUSH1 0xA0 SHL SUB DUP8 DUP2 AND SWAP2 AND EQ DUP1 ISZERO PUSH2 0x225C JUMPI POP DUP1 PUSH2 0x2259 DUP4 DUP8 PUSH2 0x22AA JUMP JUMPDEST LT ISZERO JUMPDEST ISZERO PUSH2 0x226D JUMPI PUSH1 0x1 SWAP4 POP POP POP POP PUSH2 0x1732 JUMP JUMPDEST PUSH1 0x1 PUSH1 0x1 PUSH1 0xA0 SHL SUB DUP7 AND ISZERO DUP1 ISZERO PUSH2 0x228D JUMPI POP DUP1 PUSH2 0x228A DUP5 DUP8 PUSH2 0x22AA JUMP JUMPDEST LT ISZERO JUMPDEST ISZERO PUSH2 0x229E JUMPI PUSH1 0x2 SWAP4 POP POP POP POP PUSH2 0x1732 JUMP JUMPDEST POP PUSH1 0x0 SWAP6 SWAP5 POP POP POP POP POP JUMP JUMPDEST PUSH1 0x0 DUP3 DUP3 ADD DUP4 DUP2 LT ISZERO PUSH2 0x2304 JUMPI PUSH1 0x40 DUP1 MLOAD PUSH3 0x461BCD PUSH1 0xE5 SHL DUP2 MSTORE PUSH1 0x20 PUSH1 0x4 DUP3 ADD MSTORE PUSH1 0x1B PUSH1 0x24 DUP3 ADD MSTORE PUSH32 0x536166654D6174683A206164646974696F6E206F766572666C6F770000000000 PUSH1 0x44 DUP3 ADD MSTORE SWAP1 MLOAD SWAP1 DUP2 SWAP1 SUB PUSH1 0x64 ADD SWAP1 REVERT JUMPDEST SWAP4 SWAP3 POP POP POP JUMP JUMPDEST PUSH1 0x0 DUP3 PUSH2 0x231A JUMPI POP PUSH1 0x0 PUSH2 0x1732 JUMP JUMPDEST DUP3 DUP3 MUL DUP3 DUP5 DUP3 DUP2 PUSH2 0x2327 JUMPI INVALID JUMPDEST DIV EQ PUSH2 0x2304 JUMPI PUSH1 0x40 MLOAD PUSH3 0x461BCD PUSH1 0xE5 SHL DUP2 MSTORE PUSH1 0x4 ADD DUP1 DUP1 PUSH1 0x20 ADD DUP3 DUP2 SUB DUP3 MSTORE PUSH1 0x21 DUP2 MSTORE PUSH1 0x20 ADD DUP1 PUSH2 0x2941 PUSH1 0x21 SWAP2 CODECOPY PUSH1 0x40 ADD SWAP2 POP POP PUSH1 0x40 MLOAD DUP1 SWAP2 SUB SWAP1 REVERT JUMPDEST PUSH1 0x0 DUP1 DUP3 GT PUSH2 0x23BA JUMPI PUSH1 0x40 DUP1 MLOAD PUSH3 0x461BCD PUSH1 0xE5 SHL DUP2 MSTORE PUSH1 0x20 PUSH1 0x4 DUP3 ADD MSTORE PUSH1 0x1A PUSH1 0x24 DUP3 ADD MSTORE PUSH32 0x536166654D6174683A206469766973696F6E206279207A65726F000000000000 PUSH1 0x44 DUP3 ADD MSTORE SWAP1 MLOAD SWAP1 DUP2 SWAP1 SUB PUSH1 0x64 ADD SWAP1 REVERT JUMPDEST DUP2 DUP4 DUP2 PUSH2 0x23C3 JUMPI INVALID JUMPDEST DIV SWAP4 SWAP3 POP POP POP JUMP JUMPDEST SWAP1 PUSH1 0xA0 DUP3 SWAP1 SHR SWAP1 JUMP JUMPDEST PUSH1 0x0 DUP2 ISZERO PUSH2 0x23FD JUMPI POP PUSH1 0x1 PUSH1 0x1 PUSH1 0xA0 SHL SUB DUP4 AND PUSH1 0x0 SWAP1 DUP2 MSTORE PUSH1 0xC PUSH1 0x20 MSTORE PUSH1 0x40 DUP2 KECCAK256 SSTORE PUSH1 0x1 PUSH2 0x2304 JUMP JUMPDEST PUSH1 0x1 PUSH1 0x1 PUSH1 0xA0 SHL SUB DUP5 AND PUSH1 0x0 SWAP1 DUP2 MSTORE PUSH1 0xD PUSH1 0x20 MSTORE PUSH1 0x40 SWAP1 KECCAK256 SLOAD PUSH1 0xFF AND PUSH2 0x2481 JUMPI PUSH1 0xE DUP1 SLOAD PUSH1 0x1 DUP1 DUP3 ADD SWAP1 SWAP3 SSTORE PUSH32 0xBB7B4A454DC3493923482F07822329ED19E8244EFF582CC204F8554C3620C3FD ADD DUP1 SLOAD PUSH1 0x1 PUSH1 0x1 PUSH1 0xA0 SHL SUB NOT AND PUSH1 0x1 PUSH1 0x1 PUSH1 0xA0 SHL SUB DUP8 AND SWAP1 DUP2 OR SWAP1 SWAP2 SSTORE PUSH1 0x0 SWAP1 DUP2 MSTORE PUSH1 0xD PUSH1 0x20 MSTORE PUSH1 0x40 SWAP1 KECCAK256 DUP1 SLOAD PUSH1 0xFF NOT AND SWAP1 SWAP2 OR SWAP1 SSTORE JUMPDEST PUSH1 0x1 PUSH1 0x1 PUSH1 0xA0 SHL SUB DUP5 AND PUSH1 0x0 SWAP1 DUP2 MSTORE PUSH1 0xC PUSH1 0x20 MSTORE PUSH1 0x40 SWAP1 KECCAK256 SLOAD PUSH2 0x24BA JUMPI PUSH1 0x1 PUSH1 0x1 PUSH1 0xA0 SHL SUB DUP5 AND PUSH1 0x0 SWAP1 DUP2 MSTORE PUSH1 0xC PUSH1 0x20 MSTORE PUSH1 0x40 SWAP1 KECCAK256 DUP4 SWAP1 SSTORE JUMPDEST POP PUSH1 0x1 SWAP4 SWAP3 POP POP POP JUMP JUMPDEST PUSH1 0x0 PUSH2 0x24CF DUP3 PUSH2 0x1738 JUMP JUMPDEST ISZERO PUSH2 0x251C JUMPI PUSH1 0x40 DUP1 MLOAD PUSH3 0x461BCD PUSH1 0xE5 SHL DUP2 MSTORE PUSH1 0x20 PUSH1 0x4 DUP3 ADD MSTORE PUSH1 0x18 PUSH1 0x24 DUP3 ADD MSTORE PUSH24 0x151A19481D1E1A59081A5CC8185B1C9958591E481D5CD959 PUSH1 0x42 SHL PUSH1 0x44 DUP3 ADD MSTORE SWAP1 MLOAD SWAP1 DUP2 SWAP1 SUB PUSH1 0x64 ADD SWAP1 REVERT JUMPDEST DUP4 PUSH2 0x256E JUMPI PUSH1 0x40 DUP1 MLOAD PUSH3 0x461BCD PUSH1 0xE5 SHL DUP2 MSTORE PUSH1 0x20 PUSH1 0x4 DUP3 ADD MSTORE PUSH1 0x1C PUSH1 0x24 DUP3 ADD MSTORE PUSH32 0x546865207472616E73616374696F6E206973206E6F742076616C696400000000 PUSH1 0x44 DUP3 ADD MSTORE SWAP1 MLOAD SWAP1 DUP2 SWAP1 SUB PUSH1 0x64 ADD SWAP1 REVERT JUMPDEST PUSH1 0x0 DUP1 PUSH2 0x257A DUP7 PUSH2 0x23CB JUMP JUMPDEST SWAP2 POP SWAP2 POP PUSH1 0x0 PUSH2 0x2588 PUSH2 0xB8C JUMP JUMPDEST SWAP1 POP PUSH1 0x0 PUSH2 0x25A5 DUP3 PUSH2 0xC61 PUSH1 0x9 SLOAD DUP7 PUSH2 0x230B SWAP1 SWAP2 SWAP1 PUSH4 0xFFFFFFFF AND JUMP JUMPDEST SWAP1 POP PUSH1 0x0 PUSH2 0x25B3 DUP11 DUP6 PUSH2 0xAF0 JUMP JUMPDEST SWAP1 POP PUSH1 0x0 DUP2 PUSH2 0x25C3 JUMPI PUSH1 0x0 PUSH2 0x25D3 JUMP JUMPDEST PUSH2 0x25D3 PUSH2 0x2710 PUSH2 0xC61 DUP6 DUP6 PUSH2 0x230B JUMP JUMPDEST SWAP1 POP DUP9 DUP1 ISZERO PUSH2 0x25E1 JUMPI POP DUP1 ISZERO ISZERO JUMPDEST ISZERO PUSH2 0x25EB JUMPI PUSH1 0x0 DUP1 REVERT JUMPDEST PUSH1 0x2 SLOAD PUSH1 0x1 PUSH1 0x1 PUSH1 0xA0 SHL SUB AND PUSH4 0x40C10F19 DUP8 PUSH2 0x2607 DUP7 DUP6 PUSH2 0x270B JUMP JUMPDEST PUSH1 0x40 MLOAD DUP4 PUSH4 0xFFFFFFFF AND PUSH1 0xE0 SHL DUP2 MSTORE PUSH1 0x4 ADD DUP1 DUP4 PUSH1 0x1 PUSH1 0x1 PUSH1 0xA0 SHL SUB AND DUP2 MSTORE PUSH1 0x20 ADD DUP3 DUP2 MSTORE PUSH1 0x20 ADD SWAP3 POP POP POP PUSH1 0x20 PUSH1 0x40 MLOAD DUP1 DUP4 SUB DUP2 PUSH1 0x0 DUP8 DUP1 EXTCODESIZE ISZERO DUP1 ISZERO PUSH2 0x264D JUMPI PUSH1 0x0 DUP1 REVERT JUMPDEST POP GAS CALL ISZERO DUP1 ISZERO PUSH2 0x2661 JUMPI RETURNDATASIZE PUSH1 0x0 DUP1 RETURNDATACOPY RETURNDATASIZE PUSH1 0x0 REVERT JUMPDEST POP POP POP POP PUSH1 0x40 MLOAD RETURNDATASIZE PUSH1 0x20 DUP2 LT ISZERO PUSH2 0x2677 JUMPI PUSH1 0x0 DUP1 REVERT JUMPDEST POP POP PUSH1 0x5 SLOAD PUSH2 0x2686 SWAP1 DUP3 PUSH2 0x22AA JUMP JUMPDEST PUSH1 0x5 SSTORE PUSH2 0x2693 DUP12 DUP7 PUSH2 0x2877 JUMP JUMPDEST PUSH2 0x269C DUP9 PUSH2 0x27FF JUMP JUMPDEST PUSH1 0x40 DUP1 MLOAD PUSH1 0x1 PUSH1 0x1 PUSH1 0xA0 SHL SUB DUP9 AND DUP2 MSTORE PUSH1 0x20 DUP2 ADD DUP8 SWAP1 MSTORE DUP1 DUP3 ADD DUP6 SWAP1 MSTORE PUSH1 0x60 DUP2 ADD DUP7 SWAP1 MSTORE PUSH1 0x80 DUP2 ADD DUP4 SWAP1 MSTORE PUSH1 0xA0 DUP2 ADD DUP11 SWAP1 MSTORE SWAP1 MLOAD PUSH32 0xDFAF4E23F7030ADAFEC91A682E05BF9FB30C721F9CEC3D8BCFAE0459C5362DB1 SWAP2 DUP2 SWAP1 SUB PUSH1 0xC0 ADD SWAP1 LOG1 POP PUSH1 0x1 SWAP11 SWAP10 POP POP POP POP POP POP POP POP POP POP JUMP JUMPDEST PUSH1 0x0 DUP3 DUP3 GT ISZERO PUSH2 0x2762 JUMPI PUSH1 0x40 DUP1 MLOAD PUSH3 0x461BCD PUSH1 0xE5 SHL DUP2 MSTORE PUSH1 0x20 PUSH1 0x4 DUP3 ADD MSTORE PUSH1 0x1E PUSH1 0x24 DUP3 ADD MSTORE PUSH32 0x536166654D6174683A207375627472616374696F6E206F766572666C6F770000 PUSH1 0x44 DUP3 ADD MSTORE SWAP1 MLOAD SWAP1 DUP2 SWAP1 SUB PUSH1 0x64 ADD SWAP1 REVERT JUMPDEST POP SWAP1 SUB SWAP1 JUMP JUMPDEST PUSH1 0x0 DUP2 DUP5 DUP5 GT ISZERO PUSH2 0x27F7 JUMPI PUSH1 0x40 MLOAD PUSH3 0x461BCD PUSH1 0xE5 SHL DUP2 MSTORE PUSH1 0x4 ADD DUP1 DUP1 PUSH1 0x20 ADD DUP3 DUP2 SUB DUP3 MSTORE DUP4 DUP2 DUP2 MLOAD DUP2 MSTORE PUSH1 0x20 ADD SWAP2 POP DUP1 MLOAD SWAP1 PUSH1 0x20 ADD SWAP1 DUP1 DUP4 DUP4 PUSH1 0x0 JUMPDEST DUP4 DUP2 LT ISZERO PUSH2 0x27BC JUMPI DUP2 DUP2 ADD MLOAD DUP4 DUP3 ADD MSTORE PUSH1 0x20 ADD PUSH2 0x27A4 JUMP JUMPDEST POP POP POP POP SWAP1 POP SWAP1 DUP2 ADD SWAP1 PUSH1 0x1F AND DUP1 ISZERO PUSH2 0x27E9 JUMPI DUP1 DUP3 SUB DUP1 MLOAD PUSH1 0x1 DUP4 PUSH1 0x20 SUB PUSH2 0x100 EXP SUB NOT AND DUP2 MSTORE PUSH1 0x20 ADD SWAP2 POP JUMPDEST POP SWAP3 POP POP POP PUSH1 0x40 MLOAD DUP1 SWAP2 SUB SWAP1 REVERT JUMPDEST POP POP POP SWAP1 SUB SWAP1 JUMP JUMPDEST PUSH1 0x0 SWAP1 DUP2 MSTORE PUSH1 0xB PUSH1 0x20 MSTORE PUSH1 0x40 SWAP1 KECCAK256 DUP1 SLOAD PUSH1 0xFF NOT AND PUSH1 0x1 OR SWAP1 SSTORE JUMP JUMPDEST PUSH2 0x2857 DUP2 PUSH1 0x40 MLOAD DUP1 PUSH1 0x60 ADD PUSH1 0x40 MSTORE DUP1 PUSH1 0x27 DUP2 MSTORE PUSH1 0x20 ADD PUSH2 0x29A3 PUSH1 0x27 SWAP2 CODECOPY PUSH1 0x1 PUSH1 0x1 PUSH1 0xA0 SHL SUB DUP6 AND PUSH1 0x0 SWAP1 DUP2 MSTORE PUSH1 0xA PUSH1 0x20 MSTORE PUSH1 0x40 SWAP1 KECCAK256 SLOAD SWAP2 SWAP1 PUSH2 0x2768 JUMP JUMPDEST PUSH1 0x1 PUSH1 0x1 PUSH1 0xA0 SHL SUB SWAP1 SWAP3 AND PUSH1 0x0 SWAP1 DUP2 MSTORE PUSH1 0xA PUSH1 0x20 MSTORE PUSH1 0x40 SWAP1 KECCAK256 SWAP2 SWAP1 SWAP2 SSTORE POP JUMP JUMPDEST PUSH1 0x1 PUSH1 0x1 PUSH1 0xA0 SHL SUB DUP3 AND PUSH1 0x0 SWAP1 DUP2 MSTORE PUSH1 0xA PUSH1 0x20 MSTORE PUSH1 0x40 SWAP1 KECCAK256 SLOAD PUSH2 0x2857 SWAP1 DUP3 PUSH2 0x22AA JUMP INVALID PUSH21 0x6F74616C5265776172644C5073466F724E6F646520 PUSH10 0x73206E6F7420706F7369 PUSH21 0x6976654572726F723A20616D6F756E744F66466C6F PUSH2 0x742E PUSH20 0x7562287769746864726177616C4665657329203C KECCAK256 0x5F PUSH14 0x696E65724665654F776E61626C65 GASPRICE KECCAK256 PUSH15 0x6577206F776E657220697320746865 KECCAK256 PUSH27 0x65726F20616464726573735F7473735468726573686F6C64207368 PUSH16 0x756C64206265203E3D20747373546872 PUSH6 0x73686F6C6453 PUSH2 0x6665 0x4D PUSH2 0x7468 GASPRICE KECCAK256 PUSH14 0x756C7469706C69636174696F6E20 PUSH16 0x766572666C6F7753746F726564206E6F PUSH5 0x652073697A PUSH6 0x2073686F756C PUSH5 0x206265203C RETURNDATASIZE KECCAK256 BALANCE ADDRESS ADDRESS 0x4F PUSH24 0x6E61626C653A2063616C6C6572206973206E6F7420746865 KECCAK256 PUSH16 0x776E65725F72656D6F7665466C6F6174 GASPRICE KECCAK256 PUSH7 0x6C6F617420616D PUSH16 0x756E7420696E73756666696369656E74 0x5F PUSH19 0x657761726441646472657373416E64416D6F75 PUSH15 0x747320616E64205F697352656D6F76 PUSH6 0x64206C656E67 PUSH21 0x68206973206E6F74206D617463685F64657374546F PUSH12 0x656E2073686F756C64206E6F PUSH21 0x2062652061646472657373283029A2646970667358 0x22 SLT KECCAK256 0xB2 0xC9 0xB4 GASPRICE PUSH1 0x0 0xB3 SELFBALANCE LOG3 XOR PUSH7 0xCF166FD884F5DE MSTORE BLOCKHASH 0xF6 RETURN SDIV DUP6 PUSH27 0x837F784275074F64736F6C63430007030033000000000000000000 "
        },
        "methodIdentifiers": {
          "BTCT_ADDR()": "0f909486",
          "churn(address,bytes32[],bool[],uint8,uint8,uint8,uint8)": "4e54cee0",
          "churnedInCount()": "0089356f",
          "collectSwapFeesForBTC(address,uint256,uint256,uint256)": "8006cc3e",
          "depositFeesBPS()": "42419255",
          "distributeNodeRewards()": "e9e9bf6a",
          "feesLPTokensForNode()": "f7824bc7",
          "getActiveNodes()": "6b51e919",
          "getCurrentPriceLP()": "45137e27",
          "getDepositFeeRate(address,uint256)": "3b6fa127",
          "getFloatReserve(address,address)": "ec482729",
          "initialExchangeRate()": "6d019f35",
          "isTxUsed(bytes32)": "e6ca2084",
          "lockedLPTokensForNode()": "2d55282d",
          "lpToken()": "5fcbd285",
          "multiTransferERC20TightlyPacked(address,bytes32[],uint256,uint256,bytes32[])": "ad289e76",
          "nodeRewardsRatio()": "0b68134d",
          "owner()": "8da5cb5b",
          "recordIncomingFloat(address,bytes32,bool,bytes32)": "63f289d9",
          "recordOutcomingFloat(address,bytes32,uint256,bytes32)": "2586c562",
          "recordUTXOSweepMinerFee(uint256,bytes32)": "c810a539",
          "renounceOwnership()": "715018a6",
          "singleTransferERC20(address,address,uint256,uint256,uint256,bytes32[])": "0d63aca7",
          "transferOwnership(address)": "f2fde38b",
          "tssThreshold()": "12d1441e",
          "whitelist(address)": "9b19251a",
          "withdrawalFeeBPS()": "b6268e5d"
        }
      }
    }
  }
}