{
  "contracts/SwapContract.sol": {
    "SwapContract": {
      "abi": [
        {
          "inputs": [
            {
              "internalType": "address",
              "name": "_lpToken",
              "type": "address"
            },
            {
              "internalType": "address",
              "name": "_btct",
              "type": "address"
            },
            {
              "internalType": "uint256",
              "name": "_existingBTCFloat",
              "type": "uint256"
            }
          ],
          "stateMutability": "nonpayable",
          "type": "constructor"
        },
        {
          "anonymous": false,
          "inputs": [
            {
              "indexed": false,
              "internalType": "address",
              "name": "token",
              "type": "address"
            },
            {
              "indexed": false,
              "internalType": "uint256",
              "name": "amountOfLP",
              "type": "uint256"
            },
            {
              "indexed": false,
              "internalType": "uint256",
              "name": "amountOfFloat",
              "type": "uint256"
            },
            {
              "indexed": false,
              "internalType": "uint256",
              "name": "currentPriceLP",
              "type": "uint256"
            },
            {
              "indexed": false,
              "internalType": "uint256",
              "name": "withdrawal",
              "type": "uint256"
            },
            {
              "indexed": false,
              "internalType": "bytes32",
              "name": "txid",
              "type": "bytes32"
            }
          ],
          "name": "BurnLPTokensForFloat",
          "type": "event"
        },
        {
          "anonymous": false,
          "inputs": [
            {
              "indexed": false,
              "internalType": "uint256",
              "name": "rewardLPTsForNodes",
              "type": "uint256"
            }
          ],
          "name": "DistributeNodeRewards",
          "type": "event"
        },
        {
          "anonymous": false,
          "inputs": [
            {
              "indexed": false,
              "internalType": "address",
              "name": "to",
              "type": "address"
            },
            {
              "indexed": false,
              "internalType": "uint256",
              "name": "amountOfFloat",
              "type": "uint256"
            },
            {
              "indexed": false,
              "internalType": "uint256",
              "name": "amountOfLP",
              "type": "uint256"
            },
            {
              "indexed": false,
              "internalType": "uint256",
              "name": "currentPriceLP",
              "type": "uint256"
            },
            {
              "indexed": false,
              "internalType": "uint256",
              "name": "depositFees",
              "type": "uint256"
            },
            {
              "indexed": false,
              "internalType": "bytes32",
              "name": "txid",
              "type": "bytes32"
            }
          ],
          "name": "IssueLPTokensForFloat",
          "type": "event"
        },
        {
          "anonymous": false,
          "inputs": [
            {
              "indexed": true,
              "internalType": "address",
              "name": "previousOwner",
              "type": "address"
            },
            {
              "indexed": true,
              "internalType": "address",
              "name": "newOwner",
              "type": "address"
            }
          ],
          "name": "OwnershipTransferred",
          "type": "event"
        },
        {
          "anonymous": false,
          "inputs": [
            {
              "indexed": false,
              "internalType": "address",
              "name": "feesToken",
              "type": "address"
            },
            {
              "indexed": false,
              "internalType": "uint256",
              "name": "rewards",
              "type": "uint256"
            },
            {
              "indexed": false,
              "internalType": "uint256",
              "name": "amountLPTokensForNode",
              "type": "uint256"
            },
            {
              "indexed": false,
              "internalType": "uint256",
              "name": "currentPriceLP",
              "type": "uint256"
            }
          ],
          "name": "RewardsCollection",
          "type": "event"
        },
        {
          "anonymous": false,
          "inputs": [
            {
              "indexed": false,
              "internalType": "address",
              "name": "from",
              "type": "address"
            },
            {
              "indexed": false,
              "internalType": "address",
              "name": "to",
              "type": "address"
            },
            {
              "indexed": false,
              "internalType": "uint256",
              "name": "amount",
              "type": "uint256"
            }
          ],
          "name": "Swap",
          "type": "event"
        },
        {
          "stateMutability": "nonpayable",
          "type": "fallback"
        },
        {
          "inputs": [],
          "name": "BTCT_ADDR",
          "outputs": [
            {
              "internalType": "address",
              "name": "",
              "type": "address"
            }
          ],
          "stateMutability": "view",
          "type": "function"
        },
        {
          "inputs": [
            {
              "internalType": "address",
              "name": "_token",
              "type": "address"
            }
          ],
          "name": "balanceOf",
          "outputs": [
            {
              "internalType": "uint256",
              "name": "",
              "type": "uint256"
            }
          ],
          "stateMutability": "view",
          "type": "function"
        },
        {
          "inputs": [
            {
              "internalType": "address",
              "name": "_newOwner",
              "type": "address"
            },
            {
              "internalType": "bytes32[]",
              "name": "_rewardAddressAndAmounts",
              "type": "bytes32[]"
            },
            {
              "internalType": "bool[]",
              "name": "_isRemoved",
              "type": "bool[]"
            },
            {
              "internalType": "uint8",
              "name": "_churnedInCount",
              "type": "uint8"
            },
            {
              "internalType": "uint8",
              "name": "_tssThreshold",
              "type": "uint8"
            },
            {
              "internalType": "uint8",
              "name": "_nodeRewardsRatio",
              "type": "uint8"
            },
            {
              "internalType": "uint8",
              "name": "_withdrawalFeeBPS",
              "type": "uint8"
            }
          ],
          "name": "churn",
          "outputs": [
            {
              "internalType": "bool",
              "name": "",
              "type": "bool"
            }
          ],
          "stateMutability": "nonpayable",
          "type": "function"
        },
        {
          "inputs": [],
          "name": "churnedInCount",
          "outputs": [
            {
              "internalType": "uint8",
              "name": "",
              "type": "uint8"
            }
          ],
          "stateMutability": "view",
          "type": "function"
        },
        {
          "inputs": [
            {
              "internalType": "address",
              "name": "_destToken",
              "type": "address"
            },
            {
              "internalType": "uint256",
              "name": "_incomingAmount",
              "type": "uint256"
            },
            {
              "internalType": "uint256",
              "name": "_minerFee",
              "type": "uint256"
            },
            {
              "internalType": "uint256",
              "name": "_rewardsAmount",
              "type": "uint256"
            }
          ],
          "name": "collectSwapFeesForBTC",
          "outputs": [
            {
              "internalType": "bool",
              "name": "",
              "type": "bool"
            }
          ],
          "stateMutability": "nonpayable",
          "type": "function"
        },
        {
          "inputs": [],
          "name": "depositFeesBPS",
          "outputs": [
            {
              "internalType": "uint8",
              "name": "",
              "type": "uint8"
            }
          ],
          "stateMutability": "view",
          "type": "function"
        },
        {
          "inputs": [],
          "name": "distributeNodeRewards",
          "outputs": [
            {
              "internalType": "bool",
              "name": "",
              "type": "bool"
            }
          ],
          "stateMutability": "nonpayable",
          "type": "function"
        },
        {
          "inputs": [],
          "name": "do1InchTrade",
          "outputs": [
            {
              "internalType": "bool",
              "name": "",
              "type": "bool"
            }
          ],
          "stateMutability": "nonpayable",
          "type": "function"
        },
        {
          "inputs": [],
          "name": "doParaSwap",
          "outputs": [
            {
              "internalType": "bool",
              "name": "",
              "type": "bool"
            }
          ],
          "stateMutability": "nonpayable",
          "type": "function"
        },
        {
          "inputs": [],
          "name": "feesLPTokensForNode",
          "outputs": [
            {
              "internalType": "uint256",
              "name": "",
              "type": "uint256"
            }
          ],
          "stateMutability": "view",
          "type": "function"
        },
        {
          "inputs": [],
          "name": "getActiveNodes",
          "outputs": [
            {
              "internalType": "bytes32[]",
              "name": "",
              "type": "bytes32[]"
            }
          ],
          "stateMutability": "view",
          "type": "function"
        },
        {
          "inputs": [],
          "name": "getCurrentPriceLP",
          "outputs": [
            {
              "internalType": "uint256",
              "name": "nowPrice",
              "type": "uint256"
            }
          ],
          "stateMutability": "view",
          "type": "function"
        },
        {
          "inputs": [
            {
              "internalType": "address",
              "name": "_token",
              "type": "address"
            },
            {
              "internalType": "uint256",
              "name": "_amountOfFloat",
              "type": "uint256"
            }
          ],
          "name": "getDepositFeeRate",
          "outputs": [
            {
              "internalType": "uint256",
              "name": "depositFeeRate",
              "type": "uint256"
            }
          ],
          "stateMutability": "view",
          "type": "function"
        },
        {
          "inputs": [
            {
              "internalType": "address",
              "name": "_tokenA",
              "type": "address"
            },
            {
              "internalType": "address",
              "name": "_tokenB",
              "type": "address"
            }
          ],
          "name": "getFloatReserve",
          "outputs": [
            {
              "internalType": "uint256",
              "name": "reserveA",
              "type": "uint256"
            },
            {
              "internalType": "uint256",
              "name": "reserveB",
              "type": "uint256"
            }
          ],
          "stateMutability": "view",
          "type": "function"
        },
        {
          "inputs": [],
          "name": "initialExchangeRate",
          "outputs": [
            {
              "internalType": "uint256",
              "name": "",
              "type": "uint256"
            }
          ],
          "stateMutability": "view",
          "type": "function"
        },
        {
          "inputs": [
            {
              "internalType": "bytes32",
              "name": "_txid",
              "type": "bytes32"
            }
          ],
          "name": "isTxUsed",
          "outputs": [
            {
              "internalType": "bool",
              "name": "",
              "type": "bool"
            }
          ],
          "stateMutability": "view",
          "type": "function"
        },
        {
          "inputs": [],
          "name": "lockedLPTokensForNode",
          "outputs": [
            {
              "internalType": "uint256",
              "name": "",
              "type": "uint256"
            }
          ],
          "stateMutability": "view",
          "type": "function"
        },
        {
          "inputs": [],
          "name": "lpToken",
          "outputs": [
            {
              "internalType": "address",
              "name": "",
              "type": "address"
            }
          ],
          "stateMutability": "view",
          "type": "function"
        },
        {
          "inputs": [
            {
              "internalType": "address",
              "name": "_destToken",
              "type": "address"
            },
            {
              "internalType": "bytes32[]",
              "name": "_addressesAndAmounts",
              "type": "bytes32[]"
            },
            {
              "internalType": "uint256",
              "name": "_totalSwapped",
              "type": "uint256"
            },
            {
              "internalType": "uint256",
              "name": "_rewardsAmount",
              "type": "uint256"
            },
            {
              "internalType": "bytes32[]",
              "name": "_redeemedFloatTxIds",
              "type": "bytes32[]"
            }
          ],
          "name": "multiTransferERC20TightlyPacked",
          "outputs": [
            {
              "internalType": "bool",
              "name": "",
              "type": "bool"
            }
          ],
          "stateMutability": "nonpayable",
          "type": "function"
        },
        {
          "inputs": [],
          "name": "nodeRewardsRatio",
          "outputs": [
            {
              "internalType": "uint8",
              "name": "",
              "type": "uint8"
            }
          ],
          "stateMutability": "view",
          "type": "function"
        },
        {
          "inputs": [],
          "name": "owner",
          "outputs": [
            {
              "internalType": "address",
              "name": "",
              "type": "address"
            }
          ],
          "stateMutability": "view",
          "type": "function"
        },
        {
          "inputs": [
            {
              "internalType": "address",
              "name": "_token",
              "type": "address"
            },
            {
              "internalType": "bytes32",
              "name": "_addressesAndAmountOfFloat",
              "type": "bytes32"
            },
            {
              "internalType": "bool",
              "name": "_zerofee",
              "type": "bool"
            },
            {
              "internalType": "bytes32",
              "name": "_txid",
              "type": "bytes32"
            }
          ],
          "name": "recordIncomingFloat",
          "outputs": [
            {
              "internalType": "bool",
              "name": "",
              "type": "bool"
            }
          ],
          "stateMutability": "nonpayable",
          "type": "function"
        },
        {
          "inputs": [
            {
              "internalType": "address",
              "name": "_token",
              "type": "address"
            },
            {
              "internalType": "bytes32",
              "name": "_addressesAndAmountOfLPtoken",
              "type": "bytes32"
            },
            {
              "internalType": "uint256",
              "name": "_minerFee",
              "type": "uint256"
            },
            {
              "internalType": "bytes32",
              "name": "_txid",
              "type": "bytes32"
            }
          ],
          "name": "recordOutcomingFloat",
          "outputs": [
            {
              "internalType": "bool",
              "name": "",
              "type": "bool"
            }
          ],
          "stateMutability": "nonpayable",
          "type": "function"
        },
        {
          "inputs": [
            {
              "internalType": "address",
              "name": "_destToken",
              "type": "address"
            },
            {
              "internalType": "address",
              "name": "_to",
              "type": "address"
            },
            {
              "internalType": "uint256",
              "name": "_amount",
              "type": "uint256"
            },
            {
              "internalType": "bytes32[]",
              "name": "_redeemedFloatTxIds",
              "type": "bytes32[]"
            }
          ],
          "name": "recordSkyPoolsTX",
          "outputs": [
            {
              "internalType": "bool",
              "name": "",
              "type": "bool"
            }
          ],
          "stateMutability": "nonpayable",
          "type": "function"
        },
        {
          "inputs": [
            {
              "internalType": "uint256",
              "name": "_minerFee",
              "type": "uint256"
            },
            {
              "internalType": "bytes32",
              "name": "_txid",
              "type": "bytes32"
            }
          ],
          "name": "recordUTXOSweepMinerFee",
          "outputs": [
            {
              "internalType": "bool",
              "name": "",
              "type": "bool"
            }
          ],
          "stateMutability": "nonpayable",
          "type": "function"
        },
        {
          "inputs": [
            {
              "internalType": "address",
              "name": "_token",
              "type": "address"
            },
            {
              "internalType": "uint256",
              "name": "_amount",
              "type": "uint256"
            }
          ],
          "name": "redeemERC20Token",
          "outputs": [
            {
              "internalType": "bool",
              "name": "",
              "type": "bool"
            }
          ],
          "stateMutability": "nonpayable",
          "type": "function"
        },
        {
          "inputs": [],
          "name": "renounceOwnership",
          "outputs": [],
          "stateMutability": "nonpayable",
          "type": "function"
        },
        {
          "inputs": [
            {
              "internalType": "address",
              "name": "_destToken",
              "type": "address"
            },
            {
              "internalType": "address",
              "name": "_to",
              "type": "address"
            },
            {
              "internalType": "uint256",
              "name": "_amount",
              "type": "uint256"
            },
            {
              "internalType": "uint256",
              "name": "_totalSwapped",
              "type": "uint256"
            },
            {
              "internalType": "uint256",
              "name": "_rewardsAmount",
              "type": "uint256"
            },
            {
              "internalType": "bytes32[]",
              "name": "_redeemedFloatTxIds",
              "type": "bytes32[]"
            }
          ],
          "name": "singleTransferERC20",
          "outputs": [
            {
              "internalType": "bool",
              "name": "",
              "type": "bool"
            }
          ],
          "stateMutability": "nonpayable",
          "type": "function"
        },
        {
          "inputs": [
            {
              "internalType": "address",
              "name": "",
              "type": "address"
            },
            {
              "internalType": "address",
              "name": "",
              "type": "address"
            }
          ],
          "name": "tokens",
          "outputs": [
            {
              "internalType": "uint256",
              "name": "",
              "type": "uint256"
            }
          ],
          "stateMutability": "view",
          "type": "function"
        },
        {
          "inputs": [
            {
              "internalType": "address",
              "name": "newOwner",
              "type": "address"
            }
          ],
          "name": "transferOwnership",
          "outputs": [],
          "stateMutability": "nonpayable",
          "type": "function"
        },
        {
          "inputs": [],
          "name": "tssThreshold",
          "outputs": [
            {
              "internalType": "uint8",
              "name": "",
              "type": "uint8"
            }
          ],
          "stateMutability": "view",
          "type": "function"
        },
        {
          "inputs": [
            {
              "internalType": "address",
              "name": "",
              "type": "address"
            }
          ],
          "name": "whitelist",
          "outputs": [
            {
              "internalType": "bool",
              "name": "",
              "type": "bool"
            }
          ],
          "stateMutability": "view",
          "type": "function"
        },
        {
          "inputs": [],
          "name": "withdrawalFeeBPS",
          "outputs": [
            {
              "internalType": "uint8",
              "name": "",
              "type": "uint8"
            }
          ],
          "stateMutability": "view",
          "type": "function"
        }
      ],
      "evm": {
        "bytecode": {
          "linkReferences": {},
          "object": "60806040523480156200001157600080fd5b50604051620030d6380380620030d6833981810160405260608110156200003757600080fd5b508051602082015160409092015190919060006200005462000296565b600080546001600160a01b0319166001600160a01b0383169081178255604051929350917f8be0079c531659141344cd1fd0a4f28419497f9722a3daafe3b4186f6b6457e0908290a350600280546001600160a01b0319166001600160a01b0385811691909117918290556040805163313ce56760e01b81529051929091169163313ce56791600480820192602092909190829003018186803b158015620000fb57600080fd5b505afa15801562000110573d6000803e3d6000fd5b505050506040513d60208110156200012757600080fd5b505160ff16600a0a600955600180546001600160a01b0319166001600160a01b0384169081179091556004805462ff00001916624200001763ff000000191663320000001760ff60201b19166414000000001781556040805163313ce56760e01b815290516008939263313ce56792808201926020929091829003018186803b158015620001b457600080fd5b505afa158015620001c9573d6000803e3d6000fd5b505050506040513d6020811015620001e057600080fd5b50510360ff16600a90810a600855600954600755600060058190556006819055600180546001600160a01b039081168352600360209081526040808520805460ff1990811686179091556002549093168552842080548316841790559280527f3617319a054d772f909f7c479a2cebe5066e836a939412e32403c99029b92eff80549091169091179055527f13da86008ba1c6922daee3e07db95305ef49ebced9f5467a0b8613fcc6b343e355506200029a9050565b3390565b612e2c80620002aa6000396000f3fe608060405234801561001057600080fd5b50600436106101fa5760003560e01c80635fcbd2851161011a5780639b19251a116100ad578063e6ca20841161007c578063e6ca2084146108d3578063e9e9bf6a146108f0578063ec482729146108f8578063f2fde38b1461093f578063f7824bc714610965576101fa565b80639b19251a14610743578063ad289e7614610769578063b6268e5d146108a8578063c810a539146108b0576101fa565b806370a08231116100e957806370a08231146106d3578063715018a6146106f95780638006cc3e146107035780638da5cb5b1461073b576101fa565b80635fcbd2851461063157806363f289d9146106395780636b51e919146106735780636d019f35146106cb576101fa565b806330adb1181161019257806345468b661161016157806345468b661461032a5780634db75485146104895780634e54cee0146104b5578063508493bc14610603576101fa565b806330adb1181461038c5780633b6fa1271461044d578063424192551461047957806345137e2714610481576101fa565b80630fd3d41c116101ce5780630fd3d41c1461032a57806312d1441e146103325780632586c5621461033a5780632d55282d14610372576101fa565b806289356f146101ff5780630b68134d1461021d5780630d63aca7146102255780630f90948614610306575b600080fd5b61020761096d565b6040805160ff9092168252519081900360200190f35b610207610976565b6102f2600480360360c081101561023b57600080fd5b6001600160a01b0382358116926020810135909116916040820135916060810135916080820135919081019060c0810160a0820135600160201b81111561028157600080fd5b82018360208201111561029357600080fd5b803590602001918460208302840111600160201b831117156102b457600080fd5b919080806020026020016040519081016040528093929190818152602001838360200280828437600092019190915250929550610985945050505050565b604080519115158252519081900360200190f35b61030e610b24565b604080516001600160a01b039092168252519081900360200190f35b6102f2610b33565b610207610b38565b6102f26004803603608081101561035057600080fd5b506001600160a01b038135169060208101359060408101359060600135610b46565b61037a610c8a565b60408051918252519081900360200190f35b6102f2600480360360808110156103a257600080fd5b6001600160a01b03823581169260208101359091169160408201359190810190608081016060820135600160201b8111156103dc57600080fd5b8201836020820111156103ee57600080fd5b803590602001918460208302840111600160201b8311171561040f57600080fd5b919080806020026020016040519081016040528093929190818152602001838360200280828437600092019190915250929550610c90945050505050565b61037a6004803603604081101561046357600080fd5b506001600160a01b038135169060200135610e12565b610207610e9e565b61037a610eae565b6102f26004803603604081101561049f57600080fd5b506001600160a01b038135169060200135610f9a565b6102f2600480360360e08110156104cb57600080fd5b6001600160a01b038235169190810190604081016020820135600160201b8111156104f557600080fd5b82018360208201111561050757600080fd5b803590602001918460208302840111600160201b8311171561052857600080fd5b9190808060200260200160405190810160405280939291908181526020018383602002808284376000920191909152509295949360208101935035915050600160201b81111561057757600080fd5b82018360208201111561058957600080fd5b803590602001918460208302840111600160201b831117156105aa57600080fd5b9190808060200260200160405190810160405280939291908181526020018383602002808284376000920191909152509295505060ff83358116945060208401358116936040810135821693506060013516905061100e565b61037a6004803603604081101561061957600080fd5b506001600160a01b038135811691602001351661132c565b61030e611349565b6102f26004803603608081101561064f57600080fd5b506001600160a01b0381351690602081013590604081013515159060600135611358565b61067b611436565b60408051602080825283518183015283519192839290830191858101910280838360005b838110156106b757818101518382015260200161069f565b505050509050019250505060405180910390f35b61037a611595565b61037a600480360360208110156106e957600080fd5b50356001600160a01b031661159b565b6107016115c1565b005b6102f26004803603608081101561071957600080fd5b506001600160a01b03813516906020810135906040810135906060013561166d565b61030e61179e565b6102f26004803603602081101561075957600080fd5b50356001600160a01b03166117ad565b6102f2600480360360a081101561077f57600080fd5b6001600160a01b038235169190810190604081016020820135600160201b8111156107a957600080fd5b8201836020820111156107bb57600080fd5b803590602001918460208302840111600160201b831117156107dc57600080fd5b9190808060200260200160405190810160405280939291908181526020018383602002808284376000920191909152509295843595602086013595919450925060608101915060400135600160201b81111561083757600080fd5b82018360208201111561084957600080fd5b803590602001918460208302840111600160201b8311171561086a57600080fd5b9190808060200260200160405190810160405280939291908181526020018383602002808284376000920191909152509295506117c2945050505050565b61020761199c565b6102f2600480360360408110156108c657600080fd5b50803590602001356119ac565b6102f2600480360360208110156108e957600080fd5b5035611b07565b6102f2611b1c565b6109266004803603604081101561090e57600080fd5b506001600160a01b0381358116916020013516611d83565b6040805192835260208301919091528051918290030190f35b6107016004803603602081101561095557600080fd5b50356001600160a01b0316611dad565b61037a611eaf565b60045460ff1681565b60045462010000900460ff1681565b600061098f611eb5565b6001600160a01b03166109a061179e565b6001600160a01b0316146109e9576040805162461bcd60e51b81526020600482018190526024820152600080516020612d52833981519152604482015290519081900360640190fd5b6001600160a01b03871660009081526003602052604090205460ff16610a56576040805162461bcd60e51b815260206004820152601d60248201527f5f64657374546f6b656e206973206e6f742077686974656c6973746564000000604482015290519081900360640190fd5b6001600160a01b038716610a9b5760405162461bcd60e51b8152600401808060200182810382526023815260200180612dd46023913960400191505060405180910390fd5b60008415610ac157600154610abc906000906001600160a01b031687611eb9565b610ad4565b84610ad457506001546001600160a01b03165b6002546001600160a01b0389811691161415610af857506002546001600160a01b03165b610b028185611fa5565b610b0b8361211c565b610b1688888861216b565b506001979650505050505050565b6001546001600160a01b031681565b600090565b600454610100900460ff1681565b6000610b50611eb5565b6001600160a01b0316610b6161179e565b6001600160a01b031614610baa576040805162461bcd60e51b81526020600482018190526024820152600080516020612d52833981519152604482015290519081900360640190fd5b6000610bb4610eae565b6001600160a01b03871660009081526003602052604090205490915060ff16610c18576040805162461bcd60e51b815260206004820152601160248201527017dd1bdad95b881a5cc81a5b9d985b1a59607a1b604482015290519081900360640190fd5b610c2486868686612223565b610c2d57600080fd5b6001915080610c3a610eae565b1015610c81576040805162461bcd60e51b8152602060048201526011602482015270496e76616c6964204c505420707269636560781b604482015290519081900360640190fd5b50949350505050565b60055481565b6000610c9a611eb5565b6001600160a01b0316610cab61179e565b6001600160a01b031614610cf4576040805162461bcd60e51b81526020600482018190526024820152600080516020612d52833981519152604482015290519081900360640190fd5b6001600160a01b03851660009081526003602052604090205460ff16610d61576040805162461bcd60e51b815260206004820152601d60248201527f5f64657374546f6b656e206973206e6f742077686974656c6973746564000000604482015290519081900360640190fd5b6001600160a01b038516610da65760405162461bcd60e51b8152600401808060200182810382526023815260200180612dd46023913960400191505060405180910390fd5b6002546000906001600160a01b0387811691161415610dcd57506002546001600160a01b03165b610dd786856125bf565b610de08361211c565b5050506001600160a01b039283166000908152600f602090815260408083209490951682529290925291902055600190565b600080610e1f848461261c565b90508060ff1660011415610e61576001546001600160a01b03858116911614610e49576000610e57565b6004546301000000900460ff165b60ff169150610e97565b8060ff1660021415610e97576001600160a01b03841615610e83576000610e91565b6004546301000000900460ff165b60ff1691505b5092915050565b6004546301000000900460ff1681565b60015460009081908190610ecc9082906001600160a01b0316611d83565b915091506000600260009054906101000a90046001600160a01b03166001600160a01b03166318160ddd6040518163ffffffff1660e01b815260040160206040518083038186803b158015610f2057600080fd5b505afa158015610f34573d6000803e3d6000fd5b505050506040513d6020811015610f4a57600080fd5b505190508015610f8e57610f89610f6c600554836126d690919063ffffffff16565b600954610f8390610f7d87876126d6565b90612737565b90612790565b610f92565b6007545b935050505090565b6001600160a01b0382166000908152600f60209081526040808320338452909152812054821115610fca57600080fd5b6001600160a01b0383166000908152600f60209081526040808320338452909152902054610ff890836127f7565b5061100483338461216b565b5060015b92915050565b6000611018611eb5565b6001600160a01b031661102961179e565b6001600160a01b031614611072576040805162461bcd60e51b81526020600482018190526024820152600080516020612d52833981519152604482015290519081900360640190fd5b60045460ff610100909104811690851610801590611094575060ff8460ff1611155b6110cf5760405162461bcd60e51b8152600401808060200182810382526027815260200180612ce96027913960400191505060405180910390fd5b6001840160ff168560ff161015611122576040805162461bcd60e51b81526020600482015260126024820152716e2073686f756c64206265203e3d20742b3160701b604482015290519081900360640190fd5b60648360ff16111561117b576040805162461bcd60e51b815260206004820152601e60248201527f5f6e6f646552657761726473526174696f206973206e6f742076616c69640000604482015290519081900360640190fd5b60648260ff1611156111d4576040805162461bcd60e51b815260206004820152601c60248201527f5f7769746864726177616c46656542505320697320696e76616c696400000000604482015290519081900360640190fd5b85518751146112145760405162461bcd60e51b815260040180806020018281038252603b815260200180612d99603b913960400191505060405180910390fd5b61121d88611dad565b60005b875181101561128557600061124789838151811061123a57fe5b6020026020010151612854565b50905061127b818a848151811061125a57fe5b60200260200101518a858151811061126e57fe5b602002602001015161285d565b5050600101611220565b506060611290611436565b90506064815111156112d35760405162461bcd60e51b8152600401808060200182810382526021815260200180612d316021913960400191505060405180910390fd5b50506004805460ff191660ff9586161761ff001916610100948616949094029390931762ff0000191662010000928516929092029190911764ff000000001916600160201b919093160291909117905550600192915050565b600f60209081526000928352604080842090915290825290205481565b6002546001600160a01b031681565b6000611362611eb5565b6001600160a01b031661137361179e565b6001600160a01b0316146113bc576040805162461bcd60e51b81526020600482018190526024820152600080516020612d52833981519152604482015290519081900360640190fd5b60006113c6610eae565b6001600160a01b03871660009081526003602052604090205490915060ff1661142a576040805162461bcd60e51b815260206004820152601160248201527017dd1bdad95b881a5cc81a5b9d985b1a59607a1b604482015290519081900360640190fd5b610c248686868661294d565b606060008060005b600e5481101561149957600c6000600e838154811061145957fe5b60009182526020808320909101546001600160a01b03168352820192909252604001902054156114915761148e8360016126d6565b92505b60010161143e565b5060608267ffffffffffffffff811180156114b357600080fd5b506040519080825280602002602001820160405280156114dd578160200160208202803683370190505b50905060005b600e5481101561158d57600c6000600e83815481106114fe57fe5b60009182526020808320909101546001600160a01b031683528201929092526040019020541561158557600c6000600e838154811061153957fe5b60009182526020808320909101546001600160a01b03168352820192909252604001902054825183908590811061156c57fe5b60209081029190910101526115828360016126d6565b92505b6001016114e3565b509250505090565b60075481565b6001600160a01b03166000908152600f6020908152604080832033845290915290205490565b6115c9611eb5565b6001600160a01b03166115da61179e565b6001600160a01b031614611623576040805162461bcd60e51b81526020600482018190526024820152600080516020612d52833981519152604482015290519081900360640190fd5b600080546040516001600160a01b03909116907f8be0079c531659141344cd1fd0a4f28419497f9722a3daafe3b4186f6b6457e0908390a3600080546001600160a01b0319169055565b6000611677611eb5565b6001600160a01b031661168861179e565b6001600160a01b0316146116d1576040805162461bcd60e51b81526020600482018190526024820152600080516020612d52833981519152604482015290519081900360640190fd5b6001600160a01b0385161561172d576040805162461bcd60e51b815260206004820152601f60248201527f5f64657374546f6b656e2073686f756c64206265206164647265737328302900604482015290519081900360640190fd5b6001546001600160a01b0316841561177f5760006117558561174f88876127f7565b906127f7565b600154909150611779906001600160a01b0316600061177484896126d6565b611eb9565b50611788565b84611788575060005b6117928184611fa5565b50600195945050505050565b6000546001600160a01b031690565b60036020526000908152604090205460ff1681565b60006117cc611eb5565b6001600160a01b03166117dd61179e565b6001600160a01b031614611826576040805162461bcd60e51b81526020600482018190526024820152600080516020612d52833981519152604482015290519081900360640190fd5b6001600160a01b03861660009081526003602052604090205460ff16611893576040805162461bcd60e51b815260206004820152601d60248201527f5f64657374546f6b656e206973206e6f742077686974656c6973746564000000604482015290519081900360640190fd5b6001600160a01b0386166118d85760405162461bcd60e51b8152600401808060200182810382526023815260200180612dd46023913960400191505060405180910390fd5b600084156118fe576001546118f9906000906001600160a01b031687611eb9565b611911565b8461191157506001546001600160a01b03165b6002546001600160a01b038881169116141561193557506002546001600160a01b03165b61193f8185611fa5565b6119488361211c565b60005b8651811015610b16576119948888838151811061196457fe5b602002602001015160001c89848151811061197b57fe5b602002602001015160a01c6001600160601b031661216b565b60010161194b565b600454600160201b900460ff1681565b60006119b6611eb5565b6001600160a01b03166119c761179e565b6001600160a01b031614611a10576040805162461bcd60e51b81526020600482018190526024820152600080516020612d52833981519152604482015290519081900360640190fd5b611a1982611b07565b15611a66576040805162461bcd60e51b8152602060048201526018602482015277151a19481d1e1a59081a5cc8185b1c9958591e481d5cd95960421b604482015290519081900360640190fd5b60408051808201909152601d81527f42544320666c6f617420616d6f756e7420696e73756666696369656e7400000060208083019190915260008052600a90527f13da86008ba1c6922daee3e07db95305ef49ebced9f5467a0b8613fcc6b343e354611ad3918590612b94565b60008052600a6020527f13da86008ba1c6922daee3e07db95305ef49ebced9f5467a0b8613fcc6b343e35561100482612c2b565b6000908152600b602052604090205460ff1690565b600080611b366006546005546126d690919063ffffffff16565b905060008111611b775760405162461bcd60e51b8152600401808060200182810382526025815260200180612c6a6025913960400191505060405180910390fd5b6060611b81611436565b90506000805b8251811015611bcc57611bc2838281518110611b9f57fe5b602002602001015160a01c6001600160601b0316836126d690919063ffffffff16565b9150600101611b87565b50600254600554604080516340c10f1960e01b81523060048201526024810192909252516001600160a01b03909216916340c10f19916044808201926020929091908290030181600087803b158015611c2457600080fd5b505af1158015611c38573d6000803e3d6000fd5b505050506040513d6020811015611c4e57600080fd5b50600090505b8251811015611d3b5760025483516001600160a01b039091169063a9059cbb90859084908110611c8057fe5b602002602001015160001c611cc185610f83888781518110611c9e57fe5b602002602001015160a01c6001600160601b03168a61273790919063ffffffff16565b6040518363ffffffff1660e01b815260040180836001600160a01b0316815260200182815260200192505050602060405180830381600087803b158015611d0757600080fd5b505af1158015611d1b573d6000803e3d6000fd5b505050506040513d6020811015611d3157600080fd5b5050600101611c54565b506040805184815290517f86dd6ae252e62228b47b3c1a12762cbf634952b2d29319b04f4f72fb153bcbdd9181900360200190a1505060006005819055600655506001905090565b6001600160a01b039182166000908152600a60205260408082205492909316815291909120549091565b611db5611eb5565b6001600160a01b0316611dc661179e565b6001600160a01b031614611e0f576040805162461bcd60e51b81526020600482018190526024820152600080516020612d52833981519152604482015290519081900360640190fd5b6001600160a01b038116611e545760405162461bcd60e51b8152600401808060200182810382526026815260200180612cc36026913960400191505060405180910390fd5b600080546040516001600160a01b03808516939216917f8be0079c531659141344cd1fd0a4f28419497f9722a3daafe3b4186f6b6457e091a3600080546001600160a01b0319166001600160a01b0392909216919091179055565b60065481565b3390565b60408051808201825260208082527f5f737761703a20666c6f617420616d6f756e7420696e73756666696369656e74818301526001600160a01b0385166000908152600a9091529190912054611f10918390612b94565b6001600160a01b038084166000908152600a60205260408082209390935590851681522054611f3f90826126d6565b6001600160a01b038085166000818152600a602090815260409182902094909455805191825291851692810192909252818101839052517fea368a40e9570069bb8e6511d668293ad2e1f03b0d982431fd223de9f3b70ca69181900360600190a1505050565b80611faf57612118565b6002546001600160a01b038381169116141561202a57600654611fd290826126d6565b600655604080516001600160a01b0384168152602081018390526000818301819052606082015290517fe3debe835f6848edc082b32a1d729781d3bfcd7e14422d80bcaa6794d3816b2f9181900360800190a1612118565b6000612034610eae565b6001600160a01b0384166000908152600a602052604090205490915061205a90836126d6565b6001600160a01b0384166000908152600a602052604081209190915560045461209490606490610f8390869062010000900460ff16612737565b905060006120b183610f836009548561273790919063ffffffff16565b6005549091506120c190826126d6565b600555604080516001600160a01b0387168152602081018690528082018390526060810185905290517fe3debe835f6848edc082b32a1d729781d3bfcd7e14422d80bcaa6794d3816b2f9181900360800190a15050505b5050565b60005b8151811015612118576001600b600084848151811061213a57fe5b6020908102919091018101518252810191909152604001600020805460ff191691151591909117905560010161211f565b6001546001600160a01b03848116911614156121925760085461218f908290612737565b90505b826001600160a01b031663a9059cbb83836040518363ffffffff1660e01b815260040180836001600160a01b0316815260200182815260200192505050602060405180830381600087803b1580156121e957600080fd5b505af11580156121fd573d6000803e3d6000fd5b505050506040513d602081101561221357600080fd5b505161221e57600080fd5b505050565b600061222e82611b07565b1561227b576040805162461bcd60e51b8152602060048201526018602482015277151a19481d1e1a59081a5cc8185b1c9958591e481d5cd95960421b604482015290519081900360640190fd5b836122cd576040805162461bcd60e51b815260206004820152601c60248201527f546865207472616e73616374696f6e206973206e6f742076616c696400000000604482015290519081900360640190fd5b6000806122d986612854565b9150915060006122e7610eae565b90506000612304600954610f83848661273790919063ffffffff16565b60045490915060009061232a9061271090610f83908590600160201b900460ff16612737565b90508761233783836127f7565b10156123745760405162461bcd60e51b8152600401808060200182810382526034815260200180612c8f6034913960400191505060405180910390fd5b60006123848961174f85856127f7565b60015490915060009081906123a39082906001600160a01b0316611d83565b90925090506001600160a01b038d16612419576123c085856127f7565b821015612414576040805162461bcd60e51b815260206004820152601f60248201527f54686520666c6f61742062616c616e636520696e73756666696369656e742e00604482015290519081900360640190fd5b61248d565b6001546001600160a01b038e81169116141561248d5761243985856127f7565b81101561248d576040805162461bcd60e51b815260206004820152601f60248201527f54686520666c6f61742062616c616e636520696e73756666696369656e742e00604482015290519081900360640190fd5b6124978d85611fa5565b6124a18d866125bf565b6124aa8a612c2b565b6001546001600160a01b038e8116911614156124cb576124cb8d898561216b565b60025460408051630852cd8d60e31b8152600481018a905290516001600160a01b03909216916342966c68916024808201926020929091908290030181600087803b15801561251957600080fd5b505af115801561252d573d6000803e3d6000fd5b505050506040513d602081101561254357600080fd5b505161254e57600080fd5b604080516001600160a01b038a16815260208101899052808201879052606081018890526080810185905260a081018c905290517fa9da34e5e4a956b744307ae7611795634e8365951073bf049d76b64b2ae7a0589181900360c00190a15060019c9b505050505050505050505050565b6125fc81604051806060016040528060278152602001612d72602791396001600160a01b0385166000908152600a60205260409020549190612b94565b6001600160a01b039092166000908152600a602052604090209190915550565b6001546000908190819061263a9082906001600160a01b0316611d83565b9092509050600061265f6003610f836002610f7d8961265989896126d6565b906126d6565b6001549091506001600160a01b03878116911614801561268857508061268583876126d6565b10155b156126995760019350505050611008565b6001600160a01b0386161580156126b95750806126b684876126d6565b10155b156126ca5760029350505050611008565b50600095945050505050565b600082820183811015612730576040805162461bcd60e51b815260206004820152601b60248201527f536166654d6174683a206164646974696f6e206f766572666c6f770000000000604482015290519081900360640190fd5b9392505050565b60008261274657506000611008565b8282028284828161275357fe5b04146127305760405162461bcd60e51b8152600401808060200182810382526021815260200180612d106021913960400191505060405180910390fd5b60008082116127e6576040805162461bcd60e51b815260206004820152601a60248201527f536166654d6174683a206469766973696f6e206279207a65726f000000000000604482015290519081900360640190fd5b8183816127ef57fe5b049392505050565b60008282111561284e576040805162461bcd60e51b815260206004820152601e60248201527f536166654d6174683a207375627472616374696f6e206f766572666c6f770000604482015290519081900360640190fd5b50900390565b9060a082901c90565b6000811561288657506001600160a01b0383166000908152600c60205260408120556001612730565b6001600160a01b0384166000908152600d602052604090205460ff1661290a57600e805460018082019092557fbb7b4a454dc3493923482f07822329ed19e8244eff582cc204f8554c3620c3fd0180546001600160a01b0319166001600160a01b0387169081179091556000908152600d60205260409020805460ff191690911790555b6001600160a01b0384166000908152600c6020526040902054612943576001600160a01b0384166000908152600c602052604090208390555b5060019392505050565b600061295882611b07565b156129a5576040805162461bcd60e51b8152602060048201526018602482015277151a19481d1e1a59081a5cc8185b1c9958591e481d5cd95960421b604482015290519081900360640190fd5b836129f7576040805162461bcd60e51b815260206004820152601c60248201527f546865207472616e73616374696f6e206973206e6f742076616c696400000000604482015290519081900360640190fd5b600080612a0386612854565b915091506000612a11610eae565b90506000612a2e82610f836009548661273790919063ffffffff16565b90506000612a3c8a85610e12565b9050600081612a4c576000612a5c565b612a5c612710610f838585612737565b9050888015612a6a57508015155b15612a7457600080fd5b6002546001600160a01b03166340c10f1987612a9086856127f7565b6040518363ffffffff1660e01b815260040180836001600160a01b0316815260200182815260200192505050602060405180830381600087803b158015612ad657600080fd5b505af1158015612aea573d6000803e3d6000fd5b505050506040513d6020811015612b0057600080fd5b5050600554612b0f90826126d6565b600555612b1c8b86612c46565b612b2588612c2b565b604080516001600160a01b038816815260208101879052808201859052606081018690526080810183905260a081018a905290517fdfaf4e23f7030adafec91a682e05bf9fb30c721f9cec3d8bcfae0459c5362db19181900360c00190a15060019a9950505050505050505050565b60008184841115612c235760405162461bcd60e51b81526004018080602001828103825283818151815260200191508051906020019080838360005b83811015612be8578181015183820152602001612bd0565b50505050905090810190601f168015612c155780820380516001836020036101000a031916815260200191505b509250505060405180910390fd5b505050900390565b6000908152600b60205260409020805460ff19166001179055565b6001600160a01b0382166000908152600a60205260409020546125fc90826126d656fe746f74616c5265776172644c5073466f724e6f6465206973206e6f7420706f7369746976654572726f723a20616d6f756e744f66466c6f61742e737562287769746864726177616c4665657329203c205f6d696e65724665654f776e61626c653a206e6577206f776e657220697320746865207a65726f20616464726573735f7473735468726573686f6c642073686f756c64206265203e3d207473735468726573686f6c64536166654d6174683a206d756c7469706c69636174696f6e206f766572666c6f7753746f726564206e6f64652073697a652073686f756c64206265203c3d203130304f776e61626c653a2063616c6c6572206973206e6f7420746865206f776e65725f72656d6f7665466c6f61743a20666c6f617420616d6f756e7420696e73756666696369656e745f72657761726441646472657373416e64416d6f756e747320616e64205f697352656d6f766564206c656e677468206973206e6f74206d617463685f64657374546f6b656e2073686f756c64206e6f742062652061646472657373283029a264697066735822122010fcbf124750f8f13b97113ee8249ce64c59d775ad03d3e2e9cf0efd7cca924e64736f6c63430007030033",
          "opcodes": "PUSH1 0x80 PUSH1 0x40 MSTORE CALLVALUE DUP1 ISZERO PUSH3 0x11 JUMPI PUSH1 0x0 DUP1 REVERT JUMPDEST POP PUSH1 0x40 MLOAD PUSH3 0x30D6 CODESIZE SUB DUP1 PUSH3 0x30D6 DUP4 CODECOPY DUP2 DUP2 ADD PUSH1 0x40 MSTORE PUSH1 0x60 DUP2 LT ISZERO PUSH3 0x37 JUMPI PUSH1 0x0 DUP1 REVERT JUMPDEST POP DUP1 MLOAD PUSH1 0x20 DUP3 ADD MLOAD PUSH1 0x40 SWAP1 SWAP3 ADD MLOAD SWAP1 SWAP2 SWAP1 PUSH1 0x0 PUSH3 0x54 PUSH3 0x296 JUMP JUMPDEST PUSH1 0x0 DUP1 SLOAD PUSH1 0x1 PUSH1 0x1 PUSH1 0xA0 SHL SUB NOT AND PUSH1 0x1 PUSH1 0x1 PUSH1 0xA0 SHL SUB DUP4 AND SWAP1 DUP2 OR DUP3 SSTORE PUSH1 0x40 MLOAD SWAP3 SWAP4 POP SWAP2 PUSH32 0x8BE0079C531659141344CD1FD0A4F28419497F9722A3DAAFE3B4186F6B6457E0 SWAP1 DUP3 SWAP1 LOG3 POP PUSH1 0x2 DUP1 SLOAD PUSH1 0x1 PUSH1 0x1 PUSH1 0xA0 SHL SUB NOT AND PUSH1 0x1 PUSH1 0x1 PUSH1 0xA0 SHL SUB DUP6 DUP2 AND SWAP2 SWAP1 SWAP2 OR SWAP2 DUP3 SWAP1 SSTORE PUSH1 0x40 DUP1 MLOAD PUSH4 0x313CE567 PUSH1 0xE0 SHL DUP2 MSTORE SWAP1 MLOAD SWAP3 SWAP1 SWAP2 AND SWAP2 PUSH4 0x313CE567 SWAP2 PUSH1 0x4 DUP1 DUP3 ADD SWAP3 PUSH1 0x20 SWAP3 SWAP1 SWAP2 SWAP1 DUP3 SWAP1 SUB ADD DUP2 DUP7 DUP1 EXTCODESIZE ISZERO DUP1 ISZERO PUSH3 0xFB JUMPI PUSH1 0x0 DUP1 REVERT JUMPDEST POP GAS STATICCALL ISZERO DUP1 ISZERO PUSH3 0x110 JUMPI RETURNDATASIZE PUSH1 0x0 DUP1 RETURNDATACOPY RETURNDATASIZE PUSH1 0x0 REVERT JUMPDEST POP POP POP POP PUSH1 0x40 MLOAD RETURNDATASIZE PUSH1 0x20 DUP2 LT ISZERO PUSH3 0x127 JUMPI PUSH1 0x0 DUP1 REVERT JUMPDEST POP MLOAD PUSH1 0xFF AND PUSH1 0xA EXP PUSH1 0x9 SSTORE PUSH1 0x1 DUP1 SLOAD PUSH1 0x1 PUSH1 0x1 PUSH1 0xA0 SHL SUB NOT AND PUSH1 0x1 PUSH1 0x1 PUSH1 0xA0 SHL SUB DUP5 AND SWAP1 DUP2 OR SWAP1 SWAP2 SSTORE PUSH1 0x4 DUP1 SLOAD PUSH3 0xFF0000 NOT AND PUSH3 0x420000 OR PUSH4 0xFF000000 NOT AND PUSH4 0x32000000 OR PUSH1 0xFF PUSH1 0x20 SHL NOT AND PUSH5 0x1400000000 OR DUP2 SSTORE PUSH1 0x40 DUP1 MLOAD PUSH4 0x313CE567 PUSH1 0xE0 SHL DUP2 MSTORE SWAP1 MLOAD PUSH1 0x8 SWAP4 SWAP3 PUSH4 0x313CE567 SWAP3 DUP1 DUP3 ADD SWAP3 PUSH1 0x20 SWAP3 SWAP1 SWAP2 DUP3 SWAP1 SUB ADD DUP2 DUP7 DUP1 EXTCODESIZE ISZERO DUP1 ISZERO PUSH3 0x1B4 JUMPI PUSH1 0x0 DUP1 REVERT JUMPDEST POP GAS STATICCALL ISZERO DUP1 ISZERO PUSH3 0x1C9 JUMPI RETURNDATASIZE PUSH1 0x0 DUP1 RETURNDATACOPY RETURNDATASIZE PUSH1 0x0 REVERT JUMPDEST POP POP POP POP PUSH1 0x40 MLOAD RETURNDATASIZE PUSH1 0x20 DUP2 LT ISZERO PUSH3 0x1E0 JUMPI PUSH1 0x0 DUP1 REVERT JUMPDEST POP MLOAD SUB PUSH1 0xFF AND PUSH1 0xA SWAP1 DUP2 EXP PUSH1 0x8 SSTORE PUSH1 0x9 SLOAD PUSH1 0x7 SSTORE PUSH1 0x0 PUSH1 0x5 DUP2 SWAP1 SSTORE PUSH1 0x6 DUP2 SWAP1 SSTORE PUSH1 0x1 DUP1 SLOAD PUSH1 0x1 PUSH1 0x1 PUSH1 0xA0 SHL SUB SWAP1 DUP2 AND DUP4 MSTORE PUSH1 0x3 PUSH1 0x20 SWAP1 DUP2 MSTORE PUSH1 0x40 DUP1 DUP6 KECCAK256 DUP1 SLOAD PUSH1 0xFF NOT SWAP1 DUP2 AND DUP7 OR SWAP1 SWAP2 SSTORE PUSH1 0x2 SLOAD SWAP1 SWAP4 AND DUP6 MSTORE DUP5 KECCAK256 DUP1 SLOAD DUP4 AND DUP5 OR SWAP1 SSTORE SWAP3 DUP1 MSTORE PUSH32 0x3617319A054D772F909F7C479A2CEBE5066E836A939412E32403C99029B92EFF DUP1 SLOAD SWAP1 SWAP2 AND SWAP1 SWAP2 OR SWAP1 SSTORE MSTORE PUSH32 0x13DA86008BA1C6922DAEE3E07DB95305EF49EBCED9F5467A0B8613FCC6B343E3 SSTORE POP PUSH3 0x29A SWAP1 POP JUMP JUMPDEST CALLER SWAP1 JUMP JUMPDEST PUSH2 0x2E2C DUP1 PUSH3 0x2AA PUSH1 0x0 CODECOPY PUSH1 0x0 RETURN INVALID PUSH1 0x80 PUSH1 0x40 MSTORE CALLVALUE DUP1 ISZERO PUSH2 0x10 JUMPI PUSH1 0x0 DUP1 REVERT JUMPDEST POP PUSH1 0x4 CALLDATASIZE LT PUSH2 0x1FA JUMPI PUSH1 0x0 CALLDATALOAD PUSH1 0xE0 SHR DUP1 PUSH4 0x5FCBD285 GT PUSH2 0x11A JUMPI DUP1 PUSH4 0x9B19251A GT PUSH2 0xAD JUMPI DUP1 PUSH4 0xE6CA2084 GT PUSH2 0x7C JUMPI DUP1 PUSH4 0xE6CA2084 EQ PUSH2 0x8D3 JUMPI DUP1 PUSH4 0xE9E9BF6A EQ PUSH2 0x8F0 JUMPI DUP1 PUSH4 0xEC482729 EQ PUSH2 0x8F8 JUMPI DUP1 PUSH4 0xF2FDE38B EQ PUSH2 0x93F JUMPI DUP1 PUSH4 0xF7824BC7 EQ PUSH2 0x965 JUMPI PUSH2 0x1FA JUMP JUMPDEST DUP1 PUSH4 0x9B19251A EQ PUSH2 0x743 JUMPI DUP1 PUSH4 0xAD289E76 EQ PUSH2 0x769 JUMPI DUP1 PUSH4 0xB6268E5D EQ PUSH2 0x8A8 JUMPI DUP1 PUSH4 0xC810A539 EQ PUSH2 0x8B0 JUMPI PUSH2 0x1FA JUMP JUMPDEST DUP1 PUSH4 0x70A08231 GT PUSH2 0xE9 JUMPI DUP1 PUSH4 0x70A08231 EQ PUSH2 0x6D3 JUMPI DUP1 PUSH4 0x715018A6 EQ PUSH2 0x6F9 JUMPI DUP1 PUSH4 0x8006CC3E EQ PUSH2 0x703 JUMPI DUP1 PUSH4 0x8DA5CB5B EQ PUSH2 0x73B JUMPI PUSH2 0x1FA JUMP JUMPDEST DUP1 PUSH4 0x5FCBD285 EQ PUSH2 0x631 JUMPI DUP1 PUSH4 0x63F289D9 EQ PUSH2 0x639 JUMPI DUP1 PUSH4 0x6B51E919 EQ PUSH2 0x673 JUMPI DUP1 PUSH4 0x6D019F35 EQ PUSH2 0x6CB JUMPI PUSH2 0x1FA JUMP JUMPDEST DUP1 PUSH4 0x30ADB118 GT PUSH2 0x192 JUMPI DUP1 PUSH4 0x45468B66 GT PUSH2 0x161 JUMPI DUP1 PUSH4 0x45468B66 EQ PUSH2 0x32A JUMPI DUP1 PUSH4 0x4DB75485 EQ PUSH2 0x489 JUMPI DUP1 PUSH4 0x4E54CEE0 EQ PUSH2 0x4B5 JUMPI DUP1 PUSH4 0x508493BC EQ PUSH2 0x603 JUMPI PUSH2 0x1FA JUMP JUMPDEST DUP1 PUSH4 0x30ADB118 EQ PUSH2 0x38C JUMPI DUP1 PUSH4 0x3B6FA127 EQ PUSH2 0x44D JUMPI DUP1 PUSH4 0x42419255 EQ PUSH2 0x479 JUMPI DUP1 PUSH4 0x45137E27 EQ PUSH2 0x481 JUMPI PUSH2 0x1FA JUMP JUMPDEST DUP1 PUSH4 0xFD3D41C GT PUSH2 0x1CE JUMPI DUP1 PUSH4 0xFD3D41C EQ PUSH2 0x32A JUMPI DUP1 PUSH4 0x12D1441E EQ PUSH2 0x332 JUMPI DUP1 PUSH4 0x2586C562 EQ PUSH2 0x33A JUMPI DUP1 PUSH4 0x2D55282D EQ PUSH2 0x372 JUMPI PUSH2 0x1FA JUMP JUMPDEST DUP1 PUSH3 0x89356F EQ PUSH2 0x1FF JUMPI DUP1 PUSH4 0xB68134D EQ PUSH2 0x21D JUMPI DUP1 PUSH4 0xD63ACA7 EQ PUSH2 0x225 JUMPI DUP1 PUSH4 0xF909486 EQ PUSH2 0x306 JUMPI JUMPDEST PUSH1 0x0 DUP1 REVERT JUMPDEST PUSH2 0x207 PUSH2 0x96D JUMP JUMPDEST PUSH1 0x40 DUP1 MLOAD PUSH1 0xFF SWAP1 SWAP3 AND DUP3 MSTORE MLOAD SWAP1 DUP2 SWAP1 SUB PUSH1 0x20 ADD SWAP1 RETURN JUMPDEST PUSH2 0x207 PUSH2 0x976 JUMP JUMPDEST PUSH2 0x2F2 PUSH1 0x4 DUP1 CALLDATASIZE SUB PUSH1 0xC0 DUP2 LT ISZERO PUSH2 0x23B JUMPI PUSH1 0x0 DUP1 REVERT JUMPDEST PUSH1 0x1 PUSH1 0x1 PUSH1 0xA0 SHL SUB DUP3 CALLDATALOAD DUP2 AND SWAP3 PUSH1 0x20 DUP2 ADD CALLDATALOAD SWAP1 SWAP2 AND SWAP2 PUSH1 0x40 DUP3 ADD CALLDATALOAD SWAP2 PUSH1 0x60 DUP2 ADD CALLDATALOAD SWAP2 PUSH1 0x80 DUP3 ADD CALLDATALOAD SWAP2 SWAP1 DUP2 ADD SWAP1 PUSH1 0xC0 DUP2 ADD PUSH1 0xA0 DUP3 ADD CALLDATALOAD PUSH1 0x1 PUSH1 0x20 SHL DUP2 GT ISZERO PUSH2 0x281 JUMPI PUSH1 0x0 DUP1 REVERT JUMPDEST DUP3 ADD DUP4 PUSH1 0x20 DUP3 ADD GT ISZERO PUSH2 0x293 JUMPI PUSH1 0x0 DUP1 REVERT JUMPDEST DUP1 CALLDATALOAD SWAP1 PUSH1 0x20 ADD SWAP2 DUP5 PUSH1 0x20 DUP4 MUL DUP5 ADD GT PUSH1 0x1 PUSH1 0x20 SHL DUP4 GT OR ISZERO PUSH2 0x2B4 JUMPI PUSH1 0x0 DUP1 REVERT JUMPDEST SWAP2 SWAP1 DUP1 DUP1 PUSH1 0x20 MUL PUSH1 0x20 ADD PUSH1 0x40 MLOAD SWAP1 DUP2 ADD PUSH1 0x40 MSTORE DUP1 SWAP4 SWAP3 SWAP2 SWAP1 DUP2 DUP2 MSTORE PUSH1 0x20 ADD DUP4 DUP4 PUSH1 0x20 MUL DUP1 DUP3 DUP5 CALLDATACOPY PUSH1 0x0 SWAP3 ADD SWAP2 SWAP1 SWAP2 MSTORE POP SWAP3 SWAP6 POP PUSH2 0x985 SWAP5 POP POP POP POP POP JUMP JUMPDEST PUSH1 0x40 DUP1 MLOAD SWAP2 ISZERO ISZERO DUP3 MSTORE MLOAD SWAP1 DUP2 SWAP1 SUB PUSH1 0x20 ADD SWAP1 RETURN JUMPDEST PUSH2 0x30E PUSH2 0xB24 JUMP JUMPDEST PUSH1 0x40 DUP1 MLOAD PUSH1 0x1 PUSH1 0x1 PUSH1 0xA0 SHL SUB SWAP1 SWAP3 AND DUP3 MSTORE MLOAD SWAP1 DUP2 SWAP1 SUB PUSH1 0x20 ADD SWAP1 RETURN JUMPDEST PUSH2 0x2F2 PUSH2 0xB33 JUMP JUMPDEST PUSH2 0x207 PUSH2 0xB38 JUMP JUMPDEST PUSH2 0x2F2 PUSH1 0x4 DUP1 CALLDATASIZE SUB PUSH1 0x80 DUP2 LT ISZERO PUSH2 0x350 JUMPI PUSH1 0x0 DUP1 REVERT JUMPDEST POP PUSH1 0x1 PUSH1 0x1 PUSH1 0xA0 SHL SUB DUP2 CALLDATALOAD AND SWAP1 PUSH1 0x20 DUP2 ADD CALLDATALOAD SWAP1 PUSH1 0x40 DUP2 ADD CALLDATALOAD SWAP1 PUSH1 0x60 ADD CALLDATALOAD PUSH2 0xB46 JUMP JUMPDEST PUSH2 0x37A PUSH2 0xC8A JUMP JUMPDEST PUSH1 0x40 DUP1 MLOAD SWAP2 DUP3 MSTORE MLOAD SWAP1 DUP2 SWAP1 SUB PUSH1 0x20 ADD SWAP1 RETURN JUMPDEST PUSH2 0x2F2 PUSH1 0x4 DUP1 CALLDATASIZE SUB PUSH1 0x80 DUP2 LT ISZERO PUSH2 0x3A2 JUMPI PUSH1 0x0 DUP1 REVERT JUMPDEST PUSH1 0x1 PUSH1 0x1 PUSH1 0xA0 SHL SUB DUP3 CALLDATALOAD DUP2 AND SWAP3 PUSH1 0x20 DUP2 ADD CALLDATALOAD SWAP1 SWAP2 AND SWAP2 PUSH1 0x40 DUP3 ADD CALLDATALOAD SWAP2 SWAP1 DUP2 ADD SWAP1 PUSH1 0x80 DUP2 ADD PUSH1 0x60 DUP3 ADD CALLDATALOAD PUSH1 0x1 PUSH1 0x20 SHL DUP2 GT ISZERO PUSH2 0x3DC JUMPI PUSH1 0x0 DUP1 REVERT JUMPDEST DUP3 ADD DUP4 PUSH1 0x20 DUP3 ADD GT ISZERO PUSH2 0x3EE JUMPI PUSH1 0x0 DUP1 REVERT JUMPDEST DUP1 CALLDATALOAD SWAP1 PUSH1 0x20 ADD SWAP2 DUP5 PUSH1 0x20 DUP4 MUL DUP5 ADD GT PUSH1 0x1 PUSH1 0x20 SHL DUP4 GT OR ISZERO PUSH2 0x40F JUMPI PUSH1 0x0 DUP1 REVERT JUMPDEST SWAP2 SWAP1 DUP1 DUP1 PUSH1 0x20 MUL PUSH1 0x20 ADD PUSH1 0x40 MLOAD SWAP1 DUP2 ADD PUSH1 0x40 MSTORE DUP1 SWAP4 SWAP3 SWAP2 SWAP1 DUP2 DUP2 MSTORE PUSH1 0x20 ADD DUP4 DUP4 PUSH1 0x20 MUL DUP1 DUP3 DUP5 CALLDATACOPY PUSH1 0x0 SWAP3 ADD SWAP2 SWAP1 SWAP2 MSTORE POP SWAP3 SWAP6 POP PUSH2 0xC90 SWAP5 POP POP POP POP POP JUMP JUMPDEST PUSH2 0x37A PUSH1 0x4 DUP1 CALLDATASIZE SUB PUSH1 0x40 DUP2 LT ISZERO PUSH2 0x463 JUMPI PUSH1 0x0 DUP1 REVERT JUMPDEST POP PUSH1 0x1 PUSH1 0x1 PUSH1 0xA0 SHL SUB DUP2 CALLDATALOAD AND SWAP1 PUSH1 0x20 ADD CALLDATALOAD PUSH2 0xE12 JUMP JUMPDEST PUSH2 0x207 PUSH2 0xE9E JUMP JUMPDEST PUSH2 0x37A PUSH2 0xEAE JUMP JUMPDEST PUSH2 0x2F2 PUSH1 0x4 DUP1 CALLDATASIZE SUB PUSH1 0x40 DUP2 LT ISZERO PUSH2 0x49F JUMPI PUSH1 0x0 DUP1 REVERT JUMPDEST POP PUSH1 0x1 PUSH1 0x1 PUSH1 0xA0 SHL SUB DUP2 CALLDATALOAD AND SWAP1 PUSH1 0x20 ADD CALLDATALOAD PUSH2 0xF9A JUMP JUMPDEST PUSH2 0x2F2 PUSH1 0x4 DUP1 CALLDATASIZE SUB PUSH1 0xE0 DUP2 LT ISZERO PUSH2 0x4CB JUMPI PUSH1 0x0 DUP1 REVERT JUMPDEST PUSH1 0x1 PUSH1 0x1 PUSH1 0xA0 SHL SUB DUP3 CALLDATALOAD AND SWAP2 SWAP1 DUP2 ADD SWAP1 PUSH1 0x40 DUP2 ADD PUSH1 0x20 DUP3 ADD CALLDATALOAD PUSH1 0x1 PUSH1 0x20 SHL DUP2 GT ISZERO PUSH2 0x4F5 JUMPI PUSH1 0x0 DUP1 REVERT JUMPDEST DUP3 ADD DUP4 PUSH1 0x20 DUP3 ADD GT ISZERO PUSH2 0x507 JUMPI PUSH1 0x0 DUP1 REVERT JUMPDEST DUP1 CALLDATALOAD SWAP1 PUSH1 0x20 ADD SWAP2 DUP5 PUSH1 0x20 DUP4 MUL DUP5 ADD GT PUSH1 0x1 PUSH1 0x20 SHL DUP4 GT OR ISZERO PUSH2 0x528 JUMPI PUSH1 0x0 DUP1 REVERT JUMPDEST SWAP2 SWAP1 DUP1 DUP1 PUSH1 0x20 MUL PUSH1 0x20 ADD PUSH1 0x40 MLOAD SWAP1 DUP2 ADD PUSH1 0x40 MSTORE DUP1 SWAP4 SWAP3 SWAP2 SWAP1 DUP2 DUP2 MSTORE PUSH1 0x20 ADD DUP4 DUP4 PUSH1 0x20 MUL DUP1 DUP3 DUP5 CALLDATACOPY PUSH1 0x0 SWAP3 ADD SWAP2 SWAP1 SWAP2 MSTORE POP SWAP3 SWAP6 SWAP5 SWAP4 PUSH1 0x20 DUP2 ADD SWAP4 POP CALLDATALOAD SWAP2 POP POP PUSH1 0x1 PUSH1 0x20 SHL DUP2 GT ISZERO PUSH2 0x577 JUMPI PUSH1 0x0 DUP1 REVERT JUMPDEST DUP3 ADD DUP4 PUSH1 0x20 DUP3 ADD GT ISZERO PUSH2 0x589 JUMPI PUSH1 0x0 DUP1 REVERT JUMPDEST DUP1 CALLDATALOAD SWAP1 PUSH1 0x20 ADD SWAP2 DUP5 PUSH1 0x20 DUP4 MUL DUP5 ADD GT PUSH1 0x1 PUSH1 0x20 SHL DUP4 GT OR ISZERO PUSH2 0x5AA JUMPI PUSH1 0x0 DUP1 REVERT JUMPDEST SWAP2 SWAP1 DUP1 DUP1 PUSH1 0x20 MUL PUSH1 0x20 ADD PUSH1 0x40 MLOAD SWAP1 DUP2 ADD PUSH1 0x40 MSTORE DUP1 SWAP4 SWAP3 SWAP2 SWAP1 DUP2 DUP2 MSTORE PUSH1 0x20 ADD DUP4 DUP4 PUSH1 0x20 MUL DUP1 DUP3 DUP5 CALLDATACOPY PUSH1 0x0 SWAP3 ADD SWAP2 SWAP1 SWAP2 MSTORE POP SWAP3 SWAP6 POP POP PUSH1 0xFF DUP4 CALLDATALOAD DUP2 AND SWAP5 POP PUSH1 0x20 DUP5 ADD CALLDATALOAD DUP2 AND SWAP4 PUSH1 0x40 DUP2 ADD CALLDATALOAD DUP3 AND SWAP4 POP PUSH1 0x60 ADD CALLDATALOAD AND SWAP1 POP PUSH2 0x100E JUMP JUMPDEST PUSH2 0x37A PUSH1 0x4 DUP1 CALLDATASIZE SUB PUSH1 0x40 DUP2 LT ISZERO PUSH2 0x619 JUMPI PUSH1 0x0 DUP1 REVERT JUMPDEST POP PUSH1 0x1 PUSH1 0x1 PUSH1 0xA0 SHL SUB DUP2 CALLDATALOAD DUP2 AND SWAP2 PUSH1 0x20 ADD CALLDATALOAD AND PUSH2 0x132C JUMP JUMPDEST PUSH2 0x30E PUSH2 0x1349 JUMP JUMPDEST PUSH2 0x2F2 PUSH1 0x4 DUP1 CALLDATASIZE SUB PUSH1 0x80 DUP2 LT ISZERO PUSH2 0x64F JUMPI PUSH1 0x0 DUP1 REVERT JUMPDEST POP PUSH1 0x1 PUSH1 0x1 PUSH1 0xA0 SHL SUB DUP2 CALLDATALOAD AND SWAP1 PUSH1 0x20 DUP2 ADD CALLDATALOAD SWAP1 PUSH1 0x40 DUP2 ADD CALLDATALOAD ISZERO ISZERO SWAP1 PUSH1 0x60 ADD CALLDATALOAD PUSH2 0x1358 JUMP JUMPDEST PUSH2 0x67B PUSH2 0x1436 JUMP JUMPDEST PUSH1 0x40 DUP1 MLOAD PUSH1 0x20 DUP1 DUP3 MSTORE DUP4 MLOAD DUP2 DUP4 ADD MSTORE DUP4 MLOAD SWAP2 SWAP3 DUP4 SWAP3 SWAP1 DUP4 ADD SWAP2 DUP6 DUP2 ADD SWAP2 MUL DUP1 DUP4 DUP4 PUSH1 0x0 JUMPDEST DUP4 DUP2 LT ISZERO PUSH2 0x6B7 JUMPI DUP2 DUP2 ADD MLOAD DUP4 DUP3 ADD MSTORE PUSH1 0x20 ADD PUSH2 0x69F JUMP JUMPDEST POP POP POP POP SWAP1 POP ADD SWAP3 POP POP POP PUSH1 0x40 MLOAD DUP1 SWAP2 SUB SWAP1 RETURN JUMPDEST PUSH2 0x37A PUSH2 0x1595 JUMP JUMPDEST PUSH2 0x37A PUSH1 0x4 DUP1 CALLDATASIZE SUB PUSH1 0x20 DUP2 LT ISZERO PUSH2 0x6E9 JUMPI PUSH1 0x0 DUP1 REVERT JUMPDEST POP CALLDATALOAD PUSH1 0x1 PUSH1 0x1 PUSH1 0xA0 SHL SUB AND PUSH2 0x159B JUMP JUMPDEST PUSH2 0x701 PUSH2 0x15C1 JUMP JUMPDEST STOP JUMPDEST PUSH2 0x2F2 PUSH1 0x4 DUP1 CALLDATASIZE SUB PUSH1 0x80 DUP2 LT ISZERO PUSH2 0x719 JUMPI PUSH1 0x0 DUP1 REVERT JUMPDEST POP PUSH1 0x1 PUSH1 0x1 PUSH1 0xA0 SHL SUB DUP2 CALLDATALOAD AND SWAP1 PUSH1 0x20 DUP2 ADD CALLDATALOAD SWAP1 PUSH1 0x40 DUP2 ADD CALLDATALOAD SWAP1 PUSH1 0x60 ADD CALLDATALOAD PUSH2 0x166D JUMP JUMPDEST PUSH2 0x30E PUSH2 0x179E JUMP JUMPDEST PUSH2 0x2F2 PUSH1 0x4 DUP1 CALLDATASIZE SUB PUSH1 0x20 DUP2 LT ISZERO PUSH2 0x759 JUMPI PUSH1 0x0 DUP1 REVERT JUMPDEST POP CALLDATALOAD PUSH1 0x1 PUSH1 0x1 PUSH1 0xA0 SHL SUB AND PUSH2 0x17AD JUMP JUMPDEST PUSH2 0x2F2 PUSH1 0x4 DUP1 CALLDATASIZE SUB PUSH1 0xA0 DUP2 LT ISZERO PUSH2 0x77F JUMPI PUSH1 0x0 DUP1 REVERT JUMPDEST PUSH1 0x1 PUSH1 0x1 PUSH1 0xA0 SHL SUB DUP3 CALLDATALOAD AND SWAP2 SWAP1 DUP2 ADD SWAP1 PUSH1 0x40 DUP2 ADD PUSH1 0x20 DUP3 ADD CALLDATALOAD PUSH1 0x1 PUSH1 0x20 SHL DUP2 GT ISZERO PUSH2 0x7A9 JUMPI PUSH1 0x0 DUP1 REVERT JUMPDEST DUP3 ADD DUP4 PUSH1 0x20 DUP3 ADD GT ISZERO PUSH2 0x7BB JUMPI PUSH1 0x0 DUP1 REVERT JUMPDEST DUP1 CALLDATALOAD SWAP1 PUSH1 0x20 ADD SWAP2 DUP5 PUSH1 0x20 DUP4 MUL DUP5 ADD GT PUSH1 0x1 PUSH1 0x20 SHL DUP4 GT OR ISZERO PUSH2 0x7DC JUMPI PUSH1 0x0 DUP1 REVERT JUMPDEST SWAP2 SWAP1 DUP1 DUP1 PUSH1 0x20 MUL PUSH1 0x20 ADD PUSH1 0x40 MLOAD SWAP1 DUP2 ADD PUSH1 0x40 MSTORE DUP1 SWAP4 SWAP3 SWAP2 SWAP1 DUP2 DUP2 MSTORE PUSH1 0x20 ADD DUP4 DUP4 PUSH1 0x20 MUL DUP1 DUP3 DUP5 CALLDATACOPY PUSH1 0x0 SWAP3 ADD SWAP2 SWAP1 SWAP2 MSTORE POP SWAP3 SWAP6 DUP5 CALLDATALOAD SWAP6 PUSH1 0x20 DUP7 ADD CALLDATALOAD SWAP6 SWAP2 SWAP5 POP SWAP3 POP PUSH1 0x60 DUP2 ADD SWAP2 POP PUSH1 0x40 ADD CALLDATALOAD PUSH1 0x1 PUSH1 0x20 SHL DUP2 GT ISZERO PUSH2 0x837 JUMPI PUSH1 0x0 DUP1 REVERT JUMPDEST DUP3 ADD DUP4 PUSH1 0x20 DUP3 ADD GT ISZERO PUSH2 0x849 JUMPI PUSH1 0x0 DUP1 REVERT JUMPDEST DUP1 CALLDATALOAD SWAP1 PUSH1 0x20 ADD SWAP2 DUP5 PUSH1 0x20 DUP4 MUL DUP5 ADD GT PUSH1 0x1 PUSH1 0x20 SHL DUP4 GT OR ISZERO PUSH2 0x86A JUMPI PUSH1 0x0 DUP1 REVERT JUMPDEST SWAP2 SWAP1 DUP1 DUP1 PUSH1 0x20 MUL PUSH1 0x20 ADD PUSH1 0x40 MLOAD SWAP1 DUP2 ADD PUSH1 0x40 MSTORE DUP1 SWAP4 SWAP3 SWAP2 SWAP1 DUP2 DUP2 MSTORE PUSH1 0x20 ADD DUP4 DUP4 PUSH1 0x20 MUL DUP1 DUP3 DUP5 CALLDATACOPY PUSH1 0x0 SWAP3 ADD SWAP2 SWAP1 SWAP2 MSTORE POP SWAP3 SWAP6 POP PUSH2 0x17C2 SWAP5 POP POP POP POP POP JUMP JUMPDEST PUSH2 0x207 PUSH2 0x199C JUMP JUMPDEST PUSH2 0x2F2 PUSH1 0x4 DUP1 CALLDATASIZE SUB PUSH1 0x40 DUP2 LT ISZERO PUSH2 0x8C6 JUMPI PUSH1 0x0 DUP1 REVERT JUMPDEST POP DUP1 CALLDATALOAD SWAP1 PUSH1 0x20 ADD CALLDATALOAD PUSH2 0x19AC JUMP JUMPDEST PUSH2 0x2F2 PUSH1 0x4 DUP1 CALLDATASIZE SUB PUSH1 0x20 DUP2 LT ISZERO PUSH2 0x8E9 JUMPI PUSH1 0x0 DUP1 REVERT JUMPDEST POP CALLDATALOAD PUSH2 0x1B07 JUMP JUMPDEST PUSH2 0x2F2 PUSH2 0x1B1C JUMP JUMPDEST PUSH2 0x926 PUSH1 0x4 DUP1 CALLDATASIZE SUB PUSH1 0x40 DUP2 LT ISZERO PUSH2 0x90E JUMPI PUSH1 0x0 DUP1 REVERT JUMPDEST POP PUSH1 0x1 PUSH1 0x1 PUSH1 0xA0 SHL SUB DUP2 CALLDATALOAD DUP2 AND SWAP2 PUSH1 0x20 ADD CALLDATALOAD AND PUSH2 0x1D83 JUMP JUMPDEST PUSH1 0x40 DUP1 MLOAD SWAP3 DUP4 MSTORE PUSH1 0x20 DUP4 ADD SWAP2 SWAP1 SWAP2 MSTORE DUP1 MLOAD SWAP2 DUP3 SWAP1 SUB ADD SWAP1 RETURN JUMPDEST PUSH2 0x701 PUSH1 0x4 DUP1 CALLDATASIZE SUB PUSH1 0x20 DUP2 LT ISZERO PUSH2 0x955 JUMPI PUSH1 0x0 DUP1 REVERT JUMPDEST POP CALLDATALOAD PUSH1 0x1 PUSH1 0x1 PUSH1 0xA0 SHL SUB AND PUSH2 0x1DAD JUMP JUMPDEST PUSH2 0x37A PUSH2 0x1EAF JUMP JUMPDEST PUSH1 0x4 SLOAD PUSH1 0xFF AND DUP2 JUMP JUMPDEST PUSH1 0x4 SLOAD PUSH3 0x10000 SWAP1 DIV PUSH1 0xFF AND DUP2 JUMP JUMPDEST PUSH1 0x0 PUSH2 0x98F PUSH2 0x1EB5 JUMP JUMPDEST PUSH1 0x1 PUSH1 0x1 PUSH1 0xA0 SHL SUB AND PUSH2 0x9A0 PUSH2 0x179E JUMP JUMPDEST PUSH1 0x1 PUSH1 0x1 PUSH1 0xA0 SHL SUB AND EQ PUSH2 0x9E9 JUMPI PUSH1 0x40 DUP1 MLOAD PUSH3 0x461BCD PUSH1 0xE5 SHL DUP2 MSTORE PUSH1 0x20 PUSH1 0x4 DUP3 ADD DUP2 SWAP1 MSTORE PUSH1 0x24 DUP3 ADD MSTORE PUSH1 0x0 DUP1 MLOAD PUSH1 0x20 PUSH2 0x2D52 DUP4 CODECOPY DUP2 MLOAD SWAP2 MSTORE PUSH1 0x44 DUP3 ADD MSTORE SWAP1 MLOAD SWAP1 DUP2 SWAP1 SUB PUSH1 0x64 ADD SWAP1 REVERT JUMPDEST PUSH1 0x1 PUSH1 0x1 PUSH1 0xA0 SHL SUB DUP8 AND PUSH1 0x0 SWAP1 DUP2 MSTORE PUSH1 0x3 PUSH1 0x20 MSTORE PUSH1 0x40 SWAP1 KECCAK256 SLOAD PUSH1 0xFF AND PUSH2 0xA56 JUMPI PUSH1 0x40 DUP1 MLOAD PUSH3 0x461BCD PUSH1 0xE5 SHL DUP2 MSTORE PUSH1 0x20 PUSH1 0x4 DUP3 ADD MSTORE PUSH1 0x1D PUSH1 0x24 DUP3 ADD MSTORE PUSH32 0x5F64657374546F6B656E206973206E6F742077686974656C6973746564000000 PUSH1 0x44 DUP3 ADD MSTORE SWAP1 MLOAD SWAP1 DUP2 SWAP1 SUB PUSH1 0x64 ADD SWAP1 REVERT JUMPDEST PUSH1 0x1 PUSH1 0x1 PUSH1 0xA0 SHL SUB DUP8 AND PUSH2 0xA9B JUMPI PUSH1 0x40 MLOAD PUSH3 0x461BCD PUSH1 0xE5 SHL DUP2 MSTORE PUSH1 0x4 ADD DUP1 DUP1 PUSH1 0x20 ADD DUP3 DUP2 SUB DUP3 MSTORE PUSH1 0x23 DUP2 MSTORE PUSH1 0x20 ADD DUP1 PUSH2 0x2DD4 PUSH1 0x23 SWAP2 CODECOPY PUSH1 0x40 ADD SWAP2 POP POP PUSH1 0x40 MLOAD DUP1 SWAP2 SUB SWAP1 REVERT JUMPDEST PUSH1 0x0 DUP5 ISZERO PUSH2 0xAC1 JUMPI PUSH1 0x1 SLOAD PUSH2 0xABC SWAP1 PUSH1 0x0 SWAP1 PUSH1 0x1 PUSH1 0x1 PUSH1 0xA0 SHL SUB AND DUP8 PUSH2 0x1EB9 JUMP JUMPDEST PUSH2 0xAD4 JUMP JUMPDEST DUP5 PUSH2 0xAD4 JUMPI POP PUSH1 0x1 SLOAD PUSH1 0x1 PUSH1 0x1 PUSH1 0xA0 SHL SUB AND JUMPDEST PUSH1 0x2 SLOAD PUSH1 0x1 PUSH1 0x1 PUSH1 0xA0 SHL SUB DUP10 DUP2 AND SWAP2 AND EQ ISZERO PUSH2 0xAF8 JUMPI POP PUSH1 0x2 SLOAD PUSH1 0x1 PUSH1 0x1 PUSH1 0xA0 SHL SUB AND JUMPDEST PUSH2 0xB02 DUP2 DUP6 PUSH2 0x1FA5 JUMP JUMPDEST PUSH2 0xB0B DUP4 PUSH2 0x211C JUMP JUMPDEST PUSH2 0xB16 DUP9 DUP9 DUP9 PUSH2 0x216B JUMP JUMPDEST POP PUSH1 0x1 SWAP8 SWAP7 POP POP POP POP POP POP POP JUMP JUMPDEST PUSH1 0x1 SLOAD PUSH1 0x1 PUSH1 0x1 PUSH1 0xA0 SHL SUB AND DUP2 JUMP JUMPDEST PUSH1 0x0 SWAP1 JUMP JUMPDEST PUSH1 0x4 SLOAD PUSH2 0x100 SWAP1 DIV PUSH1 0xFF AND DUP2 JUMP JUMPDEST PUSH1 0x0 PUSH2 0xB50 PUSH2 0x1EB5 JUMP JUMPDEST PUSH1 0x1 PUSH1 0x1 PUSH1 0xA0 SHL SUB AND PUSH2 0xB61 PUSH2 0x179E JUMP JUMPDEST PUSH1 0x1 PUSH1 0x1 PUSH1 0xA0 SHL SUB AND EQ PUSH2 0xBAA JUMPI PUSH1 0x40 DUP1 MLOAD PUSH3 0x461BCD PUSH1 0xE5 SHL DUP2 MSTORE PUSH1 0x20 PUSH1 0x4 DUP3 ADD DUP2 SWAP1 MSTORE PUSH1 0x24 DUP3 ADD MSTORE PUSH1 0x0 DUP1 MLOAD PUSH1 0x20 PUSH2 0x2D52 DUP4 CODECOPY DUP2 MLOAD SWAP2 MSTORE PUSH1 0x44 DUP3 ADD MSTORE SWAP1 MLOAD SWAP1 DUP2 SWAP1 SUB PUSH1 0x64 ADD SWAP1 REVERT JUMPDEST PUSH1 0x0 PUSH2 0xBB4 PUSH2 0xEAE JUMP JUMPDEST PUSH1 0x1 PUSH1 0x1 PUSH1 0xA0 SHL SUB DUP8 AND PUSH1 0x0 SWAP1 DUP2 MSTORE PUSH1 0x3 PUSH1 0x20 MSTORE PUSH1 0x40 SWAP1 KECCAK256 SLOAD SWAP1 SWAP2 POP PUSH1 0xFF AND PUSH2 0xC18 JUMPI PUSH1 0x40 DUP1 MLOAD PUSH3 0x461BCD PUSH1 0xE5 SHL DUP2 MSTORE PUSH1 0x20 PUSH1 0x4 DUP3 ADD MSTORE PUSH1 0x11 PUSH1 0x24 DUP3 ADD MSTORE PUSH17 0x17DD1BDAD95B881A5CC81A5B9D985B1A59 PUSH1 0x7A SHL PUSH1 0x44 DUP3 ADD MSTORE SWAP1 MLOAD SWAP1 DUP2 SWAP1 SUB PUSH1 0x64 ADD SWAP1 REVERT JUMPDEST PUSH2 0xC24 DUP7 DUP7 DUP7 DUP7 PUSH2 0x2223 JUMP JUMPDEST PUSH2 0xC2D JUMPI PUSH1 0x0 DUP1 REVERT JUMPDEST PUSH1 0x1 SWAP2 POP DUP1 PUSH2 0xC3A PUSH2 0xEAE JUMP JUMPDEST LT ISZERO PUSH2 0xC81 JUMPI PUSH1 0x40 DUP1 MLOAD PUSH3 0x461BCD PUSH1 0xE5 SHL DUP2 MSTORE PUSH1 0x20 PUSH1 0x4 DUP3 ADD MSTORE PUSH1 0x11 PUSH1 0x24 DUP3 ADD MSTORE PUSH17 0x496E76616C6964204C5054207072696365 PUSH1 0x78 SHL PUSH1 0x44 DUP3 ADD MSTORE SWAP1 MLOAD SWAP1 DUP2 SWAP1 SUB PUSH1 0x64 ADD SWAP1 REVERT JUMPDEST POP SWAP5 SWAP4 POP POP POP POP JUMP JUMPDEST PUSH1 0x5 SLOAD DUP2 JUMP JUMPDEST PUSH1 0x0 PUSH2 0xC9A PUSH2 0x1EB5 JUMP JUMPDEST PUSH1 0x1 PUSH1 0x1 PUSH1 0xA0 SHL SUB AND PUSH2 0xCAB PUSH2 0x179E JUMP JUMPDEST PUSH1 0x1 PUSH1 0x1 PUSH1 0xA0 SHL SUB AND EQ PUSH2 0xCF4 JUMPI PUSH1 0x40 DUP1 MLOAD PUSH3 0x461BCD PUSH1 0xE5 SHL DUP2 MSTORE PUSH1 0x20 PUSH1 0x4 DUP3 ADD DUP2 SWAP1 MSTORE PUSH1 0x24 DUP3 ADD MSTORE PUSH1 0x0 DUP1 MLOAD PUSH1 0x20 PUSH2 0x2D52 DUP4 CODECOPY DUP2 MLOAD SWAP2 MSTORE PUSH1 0x44 DUP3 ADD MSTORE SWAP1 MLOAD SWAP1 DUP2 SWAP1 SUB PUSH1 0x64 ADD SWAP1 REVERT JUMPDEST PUSH1 0x1 PUSH1 0x1 PUSH1 0xA0 SHL SUB DUP6 AND PUSH1 0x0 SWAP1 DUP2 MSTORE PUSH1 0x3 PUSH1 0x20 MSTORE PUSH1 0x40 SWAP1 KECCAK256 SLOAD PUSH1 0xFF AND PUSH2 0xD61 JUMPI PUSH1 0x40 DUP1 MLOAD PUSH3 0x461BCD PUSH1 0xE5 SHL DUP2 MSTORE PUSH1 0x20 PUSH1 0x4 DUP3 ADD MSTORE PUSH1 0x1D PUSH1 0x24 DUP3 ADD MSTORE PUSH32 0x5F64657374546F6B656E206973206E6F742077686974656C6973746564000000 PUSH1 0x44 DUP3 ADD MSTORE SWAP1 MLOAD SWAP1 DUP2 SWAP1 SUB PUSH1 0x64 ADD SWAP1 REVERT JUMPDEST PUSH1 0x1 PUSH1 0x1 PUSH1 0xA0 SHL SUB DUP6 AND PUSH2 0xDA6 JUMPI PUSH1 0x40 MLOAD PUSH3 0x461BCD PUSH1 0xE5 SHL DUP2 MSTORE PUSH1 0x4 ADD DUP1 DUP1 PUSH1 0x20 ADD DUP3 DUP2 SUB DUP3 MSTORE PUSH1 0x23 DUP2 MSTORE PUSH1 0x20 ADD DUP1 PUSH2 0x2DD4 PUSH1 0x23 SWAP2 CODECOPY PUSH1 0x40 ADD SWAP2 POP POP PUSH1 0x40 MLOAD DUP1 SWAP2 SUB SWAP1 REVERT JUMPDEST PUSH1 0x2 SLOAD PUSH1 0x0 SWAP1 PUSH1 0x1 PUSH1 0x1 PUSH1 0xA0 SHL SUB DUP8 DUP2 AND SWAP2 AND EQ ISZERO PUSH2 0xDCD JUMPI POP PUSH1 0x2 SLOAD PUSH1 0x1 PUSH1 0x1 PUSH1 0xA0 SHL SUB AND JUMPDEST PUSH2 0xDD7 DUP7 DUP6 PUSH2 0x25BF JUMP JUMPDEST PUSH2 0xDE0 DUP4 PUSH2 0x211C JUMP JUMPDEST POP POP POP PUSH1 0x1 PUSH1 0x1 PUSH1 0xA0 SHL SUB SWAP3 DUP4 AND PUSH1 0x0 SWAP1 DUP2 MSTORE PUSH1 0xF PUSH1 0x20 SWAP1 DUP2 MSTORE PUSH1 0x40 DUP1 DUP4 KECCAK256 SWAP5 SWAP1 SWAP6 AND DUP3 MSTORE SWAP3 SWAP1 SWAP3 MSTORE SWAP2 SWAP1 KECCAK256 SSTORE PUSH1 0x1 SWAP1 JUMP JUMPDEST PUSH1 0x0 DUP1 PUSH2 0xE1F DUP5 DUP5 PUSH2 0x261C JUMP JUMPDEST SWAP1 POP DUP1 PUSH1 0xFF AND PUSH1 0x1 EQ ISZERO PUSH2 0xE61 JUMPI PUSH1 0x1 SLOAD PUSH1 0x1 PUSH1 0x1 PUSH1 0xA0 SHL SUB DUP6 DUP2 AND SWAP2 AND EQ PUSH2 0xE49 JUMPI PUSH1 0x0 PUSH2 0xE57 JUMP JUMPDEST PUSH1 0x4 SLOAD PUSH4 0x1000000 SWAP1 DIV PUSH1 0xFF AND JUMPDEST PUSH1 0xFF AND SWAP2 POP PUSH2 0xE97 JUMP JUMPDEST DUP1 PUSH1 0xFF AND PUSH1 0x2 EQ ISZERO PUSH2 0xE97 JUMPI PUSH1 0x1 PUSH1 0x1 PUSH1 0xA0 SHL SUB DUP5 AND ISZERO PUSH2 0xE83 JUMPI PUSH1 0x0 PUSH2 0xE91 JUMP JUMPDEST PUSH1 0x4 SLOAD PUSH4 0x1000000 SWAP1 DIV PUSH1 0xFF AND JUMPDEST PUSH1 0xFF AND SWAP2 POP JUMPDEST POP SWAP3 SWAP2 POP POP JUMP JUMPDEST PUSH1 0x4 SLOAD PUSH4 0x1000000 SWAP1 DIV PUSH1 0xFF AND DUP2 JUMP JUMPDEST PUSH1 0x1 SLOAD PUSH1 0x0 SWAP1 DUP2 SWAP1 DUP2 SWAP1 PUSH2 0xECC SWAP1 DUP3 SWAP1 PUSH1 0x1 PUSH1 0x1 PUSH1 0xA0 SHL SUB AND PUSH2 0x1D83 JUMP JUMPDEST SWAP2 POP SWAP2 POP PUSH1 0x0 PUSH1 0x2 PUSH1 0x0 SWAP1 SLOAD SWAP1 PUSH2 0x100 EXP SWAP1 DIV PUSH1 0x1 PUSH1 0x1 PUSH1 0xA0 SHL SUB AND PUSH1 0x1 PUSH1 0x1 PUSH1 0xA0 SHL SUB AND PUSH4 0x18160DDD PUSH1 0x40 MLOAD DUP2 PUSH4 0xFFFFFFFF AND PUSH1 0xE0 SHL DUP2 MSTORE PUSH1 0x4 ADD PUSH1 0x20 PUSH1 0x40 MLOAD DUP1 DUP4 SUB DUP2 DUP7 DUP1 EXTCODESIZE ISZERO DUP1 ISZERO PUSH2 0xF20 JUMPI PUSH1 0x0 DUP1 REVERT JUMPDEST POP GAS STATICCALL ISZERO DUP1 ISZERO PUSH2 0xF34 JUMPI RETURNDATASIZE PUSH1 0x0 DUP1 RETURNDATACOPY RETURNDATASIZE PUSH1 0x0 REVERT JUMPDEST POP POP POP POP PUSH1 0x40 MLOAD RETURNDATASIZE PUSH1 0x20 DUP2 LT ISZERO PUSH2 0xF4A JUMPI PUSH1 0x0 DUP1 REVERT JUMPDEST POP MLOAD SWAP1 POP DUP1 ISZERO PUSH2 0xF8E JUMPI PUSH2 0xF89 PUSH2 0xF6C PUSH1 0x5 SLOAD DUP4 PUSH2 0x26D6 SWAP1 SWAP2 SWAP1 PUSH4 0xFFFFFFFF AND JUMP JUMPDEST PUSH1 0x9 SLOAD PUSH2 0xF83 SWAP1 PUSH2 0xF7D DUP8 DUP8 PUSH2 0x26D6 JUMP JUMPDEST SWAP1 PUSH2 0x2737 JUMP JUMPDEST SWAP1 PUSH2 0x2790 JUMP JUMPDEST PUSH2 0xF92 JUMP JUMPDEST PUSH1 0x7 SLOAD JUMPDEST SWAP4 POP POP POP POP SWAP1 JUMP JUMPDEST PUSH1 0x1 PUSH1 0x1 PUSH1 0xA0 SHL SUB DUP3 AND PUSH1 0x0 SWAP1 DUP2 MSTORE PUSH1 0xF PUSH1 0x20 SWAP1 DUP2 MSTORE PUSH1 0x40 DUP1 DUP4 KECCAK256 CALLER DUP5 MSTORE SWAP1 SWAP2 MSTORE DUP2 KECCAK256 SLOAD DUP3 GT ISZERO PUSH2 0xFCA JUMPI PUSH1 0x0 DUP1 REVERT JUMPDEST PUSH1 0x1 PUSH1 0x1 PUSH1 0xA0 SHL SUB DUP4 AND PUSH1 0x0 SWAP1 DUP2 MSTORE PUSH1 0xF PUSH1 0x20 SWAP1 DUP2 MSTORE PUSH1 0x40 DUP1 DUP4 KECCAK256 CALLER DUP5 MSTORE SWAP1 SWAP2 MSTORE SWAP1 KECCAK256 SLOAD PUSH2 0xFF8 SWAP1 DUP4 PUSH2 0x27F7 JUMP JUMPDEST POP PUSH2 0x1004 DUP4 CALLER DUP5 PUSH2 0x216B JUMP JUMPDEST POP PUSH1 0x1 JUMPDEST SWAP3 SWAP2 POP POP JUMP JUMPDEST PUSH1 0x0 PUSH2 0x1018 PUSH2 0x1EB5 JUMP JUMPDEST PUSH1 0x1 PUSH1 0x1 PUSH1 0xA0 SHL SUB AND PUSH2 0x1029 PUSH2 0x179E JUMP JUMPDEST PUSH1 0x1 PUSH1 0x1 PUSH1 0xA0 SHL SUB AND EQ PUSH2 0x1072 JUMPI PUSH1 0x40 DUP1 MLOAD PUSH3 0x461BCD PUSH1 0xE5 SHL DUP2 MSTORE PUSH1 0x20 PUSH1 0x4 DUP3 ADD DUP2 SWAP1 MSTORE PUSH1 0x24 DUP3 ADD MSTORE PUSH1 0x0 DUP1 MLOAD PUSH1 0x20 PUSH2 0x2D52 DUP4 CODECOPY DUP2 MLOAD SWAP2 MSTORE PUSH1 0x44 DUP3 ADD MSTORE SWAP1 MLOAD SWAP1 DUP2 SWAP1 SUB PUSH1 0x64 ADD SWAP1 REVERT JUMPDEST PUSH1 0x4 SLOAD PUSH1 0xFF PUSH2 0x100 SWAP1 SWAP2 DIV DUP2 AND SWAP1 DUP6 AND LT DUP1 ISZERO SWAP1 PUSH2 0x1094 JUMPI POP PUSH1 0xFF DUP5 PUSH1 0xFF AND GT ISZERO JUMPDEST PUSH2 0x10CF JUMPI PUSH1 0x40 MLOAD PUSH3 0x461BCD PUSH1 0xE5 SHL DUP2 MSTORE PUSH1 0x4 ADD DUP1 DUP1 PUSH1 0x20 ADD DUP3 DUP2 SUB DUP3 MSTORE PUSH1 0x27 DUP2 MSTORE PUSH1 0x20 ADD DUP1 PUSH2 0x2CE9 PUSH1 0x27 SWAP2 CODECOPY PUSH1 0x40 ADD SWAP2 POP POP PUSH1 0x40 MLOAD DUP1 SWAP2 SUB SWAP1 REVERT JUMPDEST PUSH1 0x1 DUP5 ADD PUSH1 0xFF AND DUP6 PUSH1 0xFF AND LT ISZERO PUSH2 0x1122 JUMPI PUSH1 0x40 DUP1 MLOAD PUSH3 0x461BCD PUSH1 0xE5 SHL DUP2 MSTORE PUSH1 0x20 PUSH1 0x4 DUP3 ADD MSTORE PUSH1 0x12 PUSH1 0x24 DUP3 ADD MSTORE PUSH18 0x6E2073686F756C64206265203E3D20742B31 PUSH1 0x70 SHL PUSH1 0x44 DUP3 ADD MSTORE SWAP1 MLOAD SWAP1 DUP2 SWAP1 SUB PUSH1 0x64 ADD SWAP1 REVERT JUMPDEST PUSH1 0x64 DUP4 PUSH1 0xFF AND GT ISZERO PUSH2 0x117B JUMPI PUSH1 0x40 DUP1 MLOAD PUSH3 0x461BCD PUSH1 0xE5 SHL DUP2 MSTORE PUSH1 0x20 PUSH1 0x4 DUP3 ADD MSTORE PUSH1 0x1E PUSH1 0x24 DUP3 ADD MSTORE PUSH32 0x5F6E6F646552657761726473526174696F206973206E6F742076616C69640000 PUSH1 0x44 DUP3 ADD MSTORE SWAP1 MLOAD SWAP1 DUP2 SWAP1 SUB PUSH1 0x64 ADD SWAP1 REVERT JUMPDEST PUSH1 0x64 DUP3 PUSH1 0xFF AND GT ISZERO PUSH2 0x11D4 JUMPI PUSH1 0x40 DUP1 MLOAD PUSH3 0x461BCD PUSH1 0xE5 SHL DUP2 MSTORE PUSH1 0x20 PUSH1 0x4 DUP3 ADD MSTORE PUSH1 0x1C PUSH1 0x24 DUP3 ADD MSTORE PUSH32 0x5F7769746864726177616C46656542505320697320696E76616C696400000000 PUSH1 0x44 DUP3 ADD MSTORE SWAP1 MLOAD SWAP1 DUP2 SWAP1 SUB PUSH1 0x64 ADD SWAP1 REVERT JUMPDEST DUP6 MLOAD DUP8 MLOAD EQ PUSH2 0x1214 JUMPI PUSH1 0x40 MLOAD PUSH3 0x461BCD PUSH1 0xE5 SHL DUP2 MSTORE PUSH1 0x4 ADD DUP1 DUP1 PUSH1 0x20 ADD DUP3 DUP2 SUB DUP3 MSTORE PUSH1 0x3B DUP2 MSTORE PUSH1 0x20 ADD DUP1 PUSH2 0x2D99 PUSH1 0x3B SWAP2 CODECOPY PUSH1 0x40 ADD SWAP2 POP POP PUSH1 0x40 MLOAD DUP1 SWAP2 SUB SWAP1 REVERT JUMPDEST PUSH2 0x121D DUP9 PUSH2 0x1DAD JUMP JUMPDEST PUSH1 0x0 JUMPDEST DUP8 MLOAD DUP2 LT ISZERO PUSH2 0x1285 JUMPI PUSH1 0x0 PUSH2 0x1247 DUP10 DUP4 DUP2 MLOAD DUP2 LT PUSH2 0x123A JUMPI INVALID JUMPDEST PUSH1 0x20 MUL PUSH1 0x20 ADD ADD MLOAD PUSH2 0x2854 JUMP JUMPDEST POP SWAP1 POP PUSH2 0x127B DUP2 DUP11 DUP5 DUP2 MLOAD DUP2 LT PUSH2 0x125A JUMPI INVALID JUMPDEST PUSH1 0x20 MUL PUSH1 0x20 ADD ADD MLOAD DUP11 DUP6 DUP2 MLOAD DUP2 LT PUSH2 0x126E JUMPI INVALID JUMPDEST PUSH1 0x20 MUL PUSH1 0x20 ADD ADD MLOAD PUSH2 0x285D JUMP JUMPDEST POP POP PUSH1 0x1 ADD PUSH2 0x1220 JUMP JUMPDEST POP PUSH1 0x60 PUSH2 0x1290 PUSH2 0x1436 JUMP JUMPDEST SWAP1 POP PUSH1 0x64 DUP2 MLOAD GT ISZERO PUSH2 0x12D3 JUMPI PUSH1 0x40 MLOAD PUSH3 0x461BCD PUSH1 0xE5 SHL DUP2 MSTORE PUSH1 0x4 ADD DUP1 DUP1 PUSH1 0x20 ADD DUP3 DUP2 SUB DUP3 MSTORE PUSH1 0x21 DUP2 MSTORE PUSH1 0x20 ADD DUP1 PUSH2 0x2D31 PUSH1 0x21 SWAP2 CODECOPY PUSH1 0x40 ADD SWAP2 POP POP PUSH1 0x40 MLOAD DUP1 SWAP2 SUB SWAP1 REVERT JUMPDEST POP POP PUSH1 0x4 DUP1 SLOAD PUSH1 0xFF NOT AND PUSH1 0xFF SWAP6 DUP7 AND OR PUSH2 0xFF00 NOT AND PUSH2 0x100 SWAP5 DUP7 AND SWAP5 SWAP1 SWAP5 MUL SWAP4 SWAP1 SWAP4 OR PUSH3 0xFF0000 NOT AND PUSH3 0x10000 SWAP3 DUP6 AND SWAP3 SWAP1 SWAP3 MUL SWAP2 SWAP1 SWAP2 OR PUSH5 0xFF00000000 NOT AND PUSH1 0x1 PUSH1 0x20 SHL SWAP2 SWAP1 SWAP4 AND MUL SWAP2 SWAP1 SWAP2 OR SWAP1 SSTORE POP PUSH1 0x1 SWAP3 SWAP2 POP POP JUMP JUMPDEST PUSH1 0xF PUSH1 0x20 SWAP1 DUP2 MSTORE PUSH1 0x0 SWAP3 DUP4 MSTORE PUSH1 0x40 DUP1 DUP5 KECCAK256 SWAP1 SWAP2 MSTORE SWAP1 DUP3 MSTORE SWAP1 KECCAK256 SLOAD DUP2 JUMP JUMPDEST PUSH1 0x2 SLOAD PUSH1 0x1 PUSH1 0x1 PUSH1 0xA0 SHL SUB AND DUP2 JUMP JUMPDEST PUSH1 0x0 PUSH2 0x1362 PUSH2 0x1EB5 JUMP JUMPDEST PUSH1 0x1 PUSH1 0x1 PUSH1 0xA0 SHL SUB AND PUSH2 0x1373 PUSH2 0x179E JUMP JUMPDEST PUSH1 0x1 PUSH1 0x1 PUSH1 0xA0 SHL SUB AND EQ PUSH2 0x13BC JUMPI PUSH1 0x40 DUP1 MLOAD PUSH3 0x461BCD PUSH1 0xE5 SHL DUP2 MSTORE PUSH1 0x20 PUSH1 0x4 DUP3 ADD DUP2 SWAP1 MSTORE PUSH1 0x24 DUP3 ADD MSTORE PUSH1 0x0 DUP1 MLOAD PUSH1 0x20 PUSH2 0x2D52 DUP4 CODECOPY DUP2 MLOAD SWAP2 MSTORE PUSH1 0x44 DUP3 ADD MSTORE SWAP1 MLOAD SWAP1 DUP2 SWAP1 SUB PUSH1 0x64 ADD SWAP1 REVERT JUMPDEST PUSH1 0x0 PUSH2 0x13C6 PUSH2 0xEAE JUMP JUMPDEST PUSH1 0x1 PUSH1 0x1 PUSH1 0xA0 SHL SUB DUP8 AND PUSH1 0x0 SWAP1 DUP2 MSTORE PUSH1 0x3 PUSH1 0x20 MSTORE PUSH1 0x40 SWAP1 KECCAK256 SLOAD SWAP1 SWAP2 POP PUSH1 0xFF AND PUSH2 0x142A JUMPI PUSH1 0x40 DUP1 MLOAD PUSH3 0x461BCD PUSH1 0xE5 SHL DUP2 MSTORE PUSH1 0x20 PUSH1 0x4 DUP3 ADD MSTORE PUSH1 0x11 PUSH1 0x24 DUP3 ADD MSTORE PUSH17 0x17DD1BDAD95B881A5CC81A5B9D985B1A59 PUSH1 0x7A SHL PUSH1 0x44 DUP3 ADD MSTORE SWAP1 MLOAD SWAP1 DUP2 SWAP1 SUB PUSH1 0x64 ADD SWAP1 REVERT JUMPDEST PUSH2 0xC24 DUP7 DUP7 DUP7 DUP7 PUSH2 0x294D JUMP JUMPDEST PUSH1 0x60 PUSH1 0x0 DUP1 PUSH1 0x0 JUMPDEST PUSH1 0xE SLOAD DUP2 LT ISZERO PUSH2 0x1499 JUMPI PUSH1 0xC PUSH1 0x0 PUSH1 0xE DUP4 DUP2 SLOAD DUP2 LT PUSH2 0x1459 JUMPI INVALID JUMPDEST PUSH1 0x0 SWAP2 DUP3 MSTORE PUSH1 0x20 DUP1 DUP4 KECCAK256 SWAP1 SWAP2 ADD SLOAD PUSH1 0x1 PUSH1 0x1 PUSH1 0xA0 SHL SUB AND DUP4 MSTORE DUP3 ADD SWAP3 SWAP1 SWAP3 MSTORE PUSH1 0x40 ADD SWAP1 KECCAK256 SLOAD ISZERO PUSH2 0x1491 JUMPI PUSH2 0x148E DUP4 PUSH1 0x1 PUSH2 0x26D6 JUMP JUMPDEST SWAP3 POP JUMPDEST PUSH1 0x1 ADD PUSH2 0x143E JUMP JUMPDEST POP PUSH1 0x60 DUP3 PUSH8 0xFFFFFFFFFFFFFFFF DUP2 GT DUP1 ISZERO PUSH2 0x14B3 JUMPI PUSH1 0x0 DUP1 REVERT JUMPDEST POP PUSH1 0x40 MLOAD SWAP1 DUP1 DUP3 MSTORE DUP1 PUSH1 0x20 MUL PUSH1 0x20 ADD DUP3 ADD PUSH1 0x40 MSTORE DUP1 ISZERO PUSH2 0x14DD JUMPI DUP2 PUSH1 0x20 ADD PUSH1 0x20 DUP3 MUL DUP1 CALLDATASIZE DUP4 CALLDATACOPY ADD SWAP1 POP JUMPDEST POP SWAP1 POP PUSH1 0x0 JUMPDEST PUSH1 0xE SLOAD DUP2 LT ISZERO PUSH2 0x158D JUMPI PUSH1 0xC PUSH1 0x0 PUSH1 0xE DUP4 DUP2 SLOAD DUP2 LT PUSH2 0x14FE JUMPI INVALID JUMPDEST PUSH1 0x0 SWAP2 DUP3 MSTORE PUSH1 0x20 DUP1 DUP4 KECCAK256 SWAP1 SWAP2 ADD SLOAD PUSH1 0x1 PUSH1 0x1 PUSH1 0xA0 SHL SUB AND DUP4 MSTORE DUP3 ADD SWAP3 SWAP1 SWAP3 MSTORE PUSH1 0x40 ADD SWAP1 KECCAK256 SLOAD ISZERO PUSH2 0x1585 JUMPI PUSH1 0xC PUSH1 0x0 PUSH1 0xE DUP4 DUP2 SLOAD DUP2 LT PUSH2 0x1539 JUMPI INVALID JUMPDEST PUSH1 0x0 SWAP2 DUP3 MSTORE PUSH1 0x20 DUP1 DUP4 KECCAK256 SWAP1 SWAP2 ADD SLOAD PUSH1 0x1 PUSH1 0x1 PUSH1 0xA0 SHL SUB AND DUP4 MSTORE DUP3 ADD SWAP3 SWAP1 SWAP3 MSTORE PUSH1 0x40 ADD SWAP1 KECCAK256 SLOAD DUP3 MLOAD DUP4 SWAP1 DUP6 SWAP1 DUP2 LT PUSH2 0x156C JUMPI INVALID JUMPDEST PUSH1 0x20 SWAP1 DUP2 MUL SWAP2 SWAP1 SWAP2 ADD ADD MSTORE PUSH2 0x1582 DUP4 PUSH1 0x1 PUSH2 0x26D6 JUMP JUMPDEST SWAP3 POP JUMPDEST PUSH1 0x1 ADD PUSH2 0x14E3 JUMP JUMPDEST POP SWAP3 POP POP POP SWAP1 JUMP JUMPDEST PUSH1 0x7 SLOAD DUP2 JUMP JUMPDEST PUSH1 0x1 PUSH1 0x1 PUSH1 0xA0 SHL SUB AND PUSH1 0x0 SWAP1 DUP2 MSTORE PUSH1 0xF PUSH1 0x20 SWAP1 DUP2 MSTORE PUSH1 0x40 DUP1 DUP4 KECCAK256 CALLER DUP5 MSTORE SWAP1 SWAP2 MSTORE SWAP1 KECCAK256 SLOAD SWAP1 JUMP JUMPDEST PUSH2 0x15C9 PUSH2 0x1EB5 JUMP JUMPDEST PUSH1 0x1 PUSH1 0x1 PUSH1 0xA0 SHL SUB AND PUSH2 0x15DA PUSH2 0x179E JUMP JUMPDEST PUSH1 0x1 PUSH1 0x1 PUSH1 0xA0 SHL SUB AND EQ PUSH2 0x1623 JUMPI PUSH1 0x40 DUP1 MLOAD PUSH3 0x461BCD PUSH1 0xE5 SHL DUP2 MSTORE PUSH1 0x20 PUSH1 0x4 DUP3 ADD DUP2 SWAP1 MSTORE PUSH1 0x24 DUP3 ADD MSTORE PUSH1 0x0 DUP1 MLOAD PUSH1 0x20 PUSH2 0x2D52 DUP4 CODECOPY DUP2 MLOAD SWAP2 MSTORE PUSH1 0x44 DUP3 ADD MSTORE SWAP1 MLOAD SWAP1 DUP2 SWAP1 SUB PUSH1 0x64 ADD SWAP1 REVERT JUMPDEST PUSH1 0x0 DUP1 SLOAD PUSH1 0x40 MLOAD PUSH1 0x1 PUSH1 0x1 PUSH1 0xA0 SHL SUB SWAP1 SWAP2 AND SWAP1 PUSH32 0x8BE0079C531659141344CD1FD0A4F28419497F9722A3DAAFE3B4186F6B6457E0 SWAP1 DUP4 SWAP1 LOG3 PUSH1 0x0 DUP1 SLOAD PUSH1 0x1 PUSH1 0x1 PUSH1 0xA0 SHL SUB NOT AND SWAP1 SSTORE JUMP JUMPDEST PUSH1 0x0 PUSH2 0x1677 PUSH2 0x1EB5 JUMP JUMPDEST PUSH1 0x1 PUSH1 0x1 PUSH1 0xA0 SHL SUB AND PUSH2 0x1688 PUSH2 0x179E JUMP JUMPDEST PUSH1 0x1 PUSH1 0x1 PUSH1 0xA0 SHL SUB AND EQ PUSH2 0x16D1 JUMPI PUSH1 0x40 DUP1 MLOAD PUSH3 0x461BCD PUSH1 0xE5 SHL DUP2 MSTORE PUSH1 0x20 PUSH1 0x4 DUP3 ADD DUP2 SWAP1 MSTORE PUSH1 0x24 DUP3 ADD MSTORE PUSH1 0x0 DUP1 MLOAD PUSH1 0x20 PUSH2 0x2D52 DUP4 CODECOPY DUP2 MLOAD SWAP2 MSTORE PUSH1 0x44 DUP3 ADD MSTORE SWAP1 MLOAD SWAP1 DUP2 SWAP1 SUB PUSH1 0x64 ADD SWAP1 REVERT JUMPDEST PUSH1 0x1 PUSH1 0x1 PUSH1 0xA0 SHL SUB DUP6 AND ISZERO PUSH2 0x172D JUMPI PUSH1 0x40 DUP1 MLOAD PUSH3 0x461BCD PUSH1 0xE5 SHL DUP2 MSTORE PUSH1 0x20 PUSH1 0x4 DUP3 ADD MSTORE PUSH1 0x1F PUSH1 0x24 DUP3 ADD MSTORE PUSH32 0x5F64657374546F6B656E2073686F756C64206265206164647265737328302900 PUSH1 0x44 DUP3 ADD MSTORE SWAP1 MLOAD SWAP1 DUP2 SWAP1 SUB PUSH1 0x64 ADD SWAP1 REVERT JUMPDEST PUSH1 0x1 SLOAD PUSH1 0x1 PUSH1 0x1 PUSH1 0xA0 SHL SUB AND DUP5 ISZERO PUSH2 0x177F JUMPI PUSH1 0x0 PUSH2 0x1755 DUP6 PUSH2 0x174F DUP9 DUP8 PUSH2 0x27F7 JUMP JUMPDEST SWAP1 PUSH2 0x27F7 JUMP JUMPDEST PUSH1 0x1 SLOAD SWAP1 SWAP2 POP PUSH2 0x1779 SWAP1 PUSH1 0x1 PUSH1 0x1 PUSH1 0xA0 SHL SUB AND PUSH1 0x0 PUSH2 0x1774 DUP5 DUP10 PUSH2 0x26D6 JUMP JUMPDEST PUSH2 0x1EB9 JUMP JUMPDEST POP PUSH2 0x1788 JUMP JUMPDEST DUP5 PUSH2 0x1788 JUMPI POP PUSH1 0x0 JUMPDEST PUSH2 0x1792 DUP2 DUP5 PUSH2 0x1FA5 JUMP JUMPDEST POP PUSH1 0x1 SWAP6 SWAP5 POP POP POP POP POP JUMP JUMPDEST PUSH1 0x0 SLOAD PUSH1 0x1 PUSH1 0x1 PUSH1 0xA0 SHL SUB AND SWAP1 JUMP JUMPDEST PUSH1 0x3 PUSH1 0x20 MSTORE PUSH1 0x0 SWAP1 DUP2 MSTORE PUSH1 0x40 SWAP1 KECCAK256 SLOAD PUSH1 0xFF AND DUP2 JUMP JUMPDEST PUSH1 0x0 PUSH2 0x17CC PUSH2 0x1EB5 JUMP JUMPDEST PUSH1 0x1 PUSH1 0x1 PUSH1 0xA0 SHL SUB AND PUSH2 0x17DD PUSH2 0x179E JUMP JUMPDEST PUSH1 0x1 PUSH1 0x1 PUSH1 0xA0 SHL SUB AND EQ PUSH2 0x1826 JUMPI PUSH1 0x40 DUP1 MLOAD PUSH3 0x461BCD PUSH1 0xE5 SHL DUP2 MSTORE PUSH1 0x20 PUSH1 0x4 DUP3 ADD DUP2 SWAP1 MSTORE PUSH1 0x24 DUP3 ADD MSTORE PUSH1 0x0 DUP1 MLOAD PUSH1 0x20 PUSH2 0x2D52 DUP4 CODECOPY DUP2 MLOAD SWAP2 MSTORE PUSH1 0x44 DUP3 ADD MSTORE SWAP1 MLOAD SWAP1 DUP2 SWAP1 SUB PUSH1 0x64 ADD SWAP1 REVERT JUMPDEST PUSH1 0x1 PUSH1 0x1 PUSH1 0xA0 SHL SUB DUP7 AND PUSH1 0x0 SWAP1 DUP2 MSTORE PUSH1 0x3 PUSH1 0x20 MSTORE PUSH1 0x40 SWAP1 KECCAK256 SLOAD PUSH1 0xFF AND PUSH2 0x1893 JUMPI PUSH1 0x40 DUP1 MLOAD PUSH3 0x461BCD PUSH1 0xE5 SHL DUP2 MSTORE PUSH1 0x20 PUSH1 0x4 DUP3 ADD MSTORE PUSH1 0x1D PUSH1 0x24 DUP3 ADD MSTORE PUSH32 0x5F64657374546F6B656E206973206E6F742077686974656C6973746564000000 PUSH1 0x44 DUP3 ADD MSTORE SWAP1 MLOAD SWAP1 DUP2 SWAP1 SUB PUSH1 0x64 ADD SWAP1 REVERT JUMPDEST PUSH1 0x1 PUSH1 0x1 PUSH1 0xA0 SHL SUB DUP7 AND PUSH2 0x18D8 JUMPI PUSH1 0x40 MLOAD PUSH3 0x461BCD PUSH1 0xE5 SHL DUP2 MSTORE PUSH1 0x4 ADD DUP1 DUP1 PUSH1 0x20 ADD DUP3 DUP2 SUB DUP3 MSTORE PUSH1 0x23 DUP2 MSTORE PUSH1 0x20 ADD DUP1 PUSH2 0x2DD4 PUSH1 0x23 SWAP2 CODECOPY PUSH1 0x40 ADD SWAP2 POP POP PUSH1 0x40 MLOAD DUP1 SWAP2 SUB SWAP1 REVERT JUMPDEST PUSH1 0x0 DUP5 ISZERO PUSH2 0x18FE JUMPI PUSH1 0x1 SLOAD PUSH2 0x18F9 SWAP1 PUSH1 0x0 SWAP1 PUSH1 0x1 PUSH1 0x1 PUSH1 0xA0 SHL SUB AND DUP8 PUSH2 0x1EB9 JUMP JUMPDEST PUSH2 0x1911 JUMP JUMPDEST DUP5 PUSH2 0x1911 JUMPI POP PUSH1 0x1 SLOAD PUSH1 0x1 PUSH1 0x1 PUSH1 0xA0 SHL SUB AND JUMPDEST PUSH1 0x2 SLOAD PUSH1 0x1 PUSH1 0x1 PUSH1 0xA0 SHL SUB DUP9 DUP2 AND SWAP2 AND EQ ISZERO PUSH2 0x1935 JUMPI POP PUSH1 0x2 SLOAD PUSH1 0x1 PUSH1 0x1 PUSH1 0xA0 SHL SUB AND JUMPDEST PUSH2 0x193F DUP2 DUP6 PUSH2 0x1FA5 JUMP JUMPDEST PUSH2 0x1948 DUP4 PUSH2 0x211C JUMP JUMPDEST PUSH1 0x0 JUMPDEST DUP7 MLOAD DUP2 LT ISZERO PUSH2 0xB16 JUMPI PUSH2 0x1994 DUP9 DUP9 DUP4 DUP2 MLOAD DUP2 LT PUSH2 0x1964 JUMPI INVALID JUMPDEST PUSH1 0x20 MUL PUSH1 0x20 ADD ADD MLOAD PUSH1 0x0 SHR DUP10 DUP5 DUP2 MLOAD DUP2 LT PUSH2 0x197B JUMPI INVALID JUMPDEST PUSH1 0x20 MUL PUSH1 0x20 ADD ADD MLOAD PUSH1 0xA0 SHR PUSH1 0x1 PUSH1 0x1 PUSH1 0x60 SHL SUB AND PUSH2 0x216B JUMP JUMPDEST PUSH1 0x1 ADD PUSH2 0x194B JUMP JUMPDEST PUSH1 0x4 SLOAD PUSH1 0x1 PUSH1 0x20 SHL SWAP1 DIV PUSH1 0xFF AND DUP2 JUMP JUMPDEST PUSH1 0x0 PUSH2 0x19B6 PUSH2 0x1EB5 JUMP JUMPDEST PUSH1 0x1 PUSH1 0x1 PUSH1 0xA0 SHL SUB AND PUSH2 0x19C7 PUSH2 0x179E JUMP JUMPDEST PUSH1 0x1 PUSH1 0x1 PUSH1 0xA0 SHL SUB AND EQ PUSH2 0x1A10 JUMPI PUSH1 0x40 DUP1 MLOAD PUSH3 0x461BCD PUSH1 0xE5 SHL DUP2 MSTORE PUSH1 0x20 PUSH1 0x4 DUP3 ADD DUP2 SWAP1 MSTORE PUSH1 0x24 DUP3 ADD MSTORE PUSH1 0x0 DUP1 MLOAD PUSH1 0x20 PUSH2 0x2D52 DUP4 CODECOPY DUP2 MLOAD SWAP2 MSTORE PUSH1 0x44 DUP3 ADD MSTORE SWAP1 MLOAD SWAP1 DUP2 SWAP1 SUB PUSH1 0x64 ADD SWAP1 REVERT JUMPDEST PUSH2 0x1A19 DUP3 PUSH2 0x1B07 JUMP JUMPDEST ISZERO PUSH2 0x1A66 JUMPI PUSH1 0x40 DUP1 MLOAD PUSH3 0x461BCD PUSH1 0xE5 SHL DUP2 MSTORE PUSH1 0x20 PUSH1 0x4 DUP3 ADD MSTORE PUSH1 0x18 PUSH1 0x24 DUP3 ADD MSTORE PUSH24 0x151A19481D1E1A59081A5CC8185B1C9958591E481D5CD959 PUSH1 0x42 SHL PUSH1 0x44 DUP3 ADD MSTORE SWAP1 MLOAD SWAP1 DUP2 SWAP1 SUB PUSH1 0x64 ADD SWAP1 REVERT JUMPDEST PUSH1 0x40 DUP1 MLOAD DUP1 DUP3 ADD SWAP1 SWAP2 MSTORE PUSH1 0x1D DUP2 MSTORE PUSH32 0x42544320666C6F617420616D6F756E7420696E73756666696369656E74000000 PUSH1 0x20 DUP1 DUP4 ADD SWAP2 SWAP1 SWAP2 MSTORE PUSH1 0x0 DUP1 MSTORE PUSH1 0xA SWAP1 MSTORE PUSH32 0x13DA86008BA1C6922DAEE3E07DB95305EF49EBCED9F5467A0B8613FCC6B343E3 SLOAD PUSH2 0x1AD3 SWAP2 DUP6 SWAP1 PUSH2 0x2B94 JUMP JUMPDEST PUSH1 0x0 DUP1 MSTORE PUSH1 0xA PUSH1 0x20 MSTORE PUSH32 0x13DA86008BA1C6922DAEE3E07DB95305EF49EBCED9F5467A0B8613FCC6B343E3 SSTORE PUSH2 0x1004 DUP3 PUSH2 0x2C2B JUMP JUMPDEST PUSH1 0x0 SWAP1 DUP2 MSTORE PUSH1 0xB PUSH1 0x20 MSTORE PUSH1 0x40 SWAP1 KECCAK256 SLOAD PUSH1 0xFF AND SWAP1 JUMP JUMPDEST PUSH1 0x0 DUP1 PUSH2 0x1B36 PUSH1 0x6 SLOAD PUSH1 0x5 SLOAD PUSH2 0x26D6 SWAP1 SWAP2 SWAP1 PUSH4 0xFFFFFFFF AND JUMP JUMPDEST SWAP1 POP PUSH1 0x0 DUP2 GT PUSH2 0x1B77 JUMPI PUSH1 0x40 MLOAD PUSH3 0x461BCD PUSH1 0xE5 SHL DUP2 MSTORE PUSH1 0x4 ADD DUP1 DUP1 PUSH1 0x20 ADD DUP3 DUP2 SUB DUP3 MSTORE PUSH1 0x25 DUP2 MSTORE PUSH1 0x20 ADD DUP1 PUSH2 0x2C6A PUSH1 0x25 SWAP2 CODECOPY PUSH1 0x40 ADD SWAP2 POP POP PUSH1 0x40 MLOAD DUP1 SWAP2 SUB SWAP1 REVERT JUMPDEST PUSH1 0x60 PUSH2 0x1B81 PUSH2 0x1436 JUMP JUMPDEST SWAP1 POP PUSH1 0x0 DUP1 JUMPDEST DUP3 MLOAD DUP2 LT ISZERO PUSH2 0x1BCC JUMPI PUSH2 0x1BC2 DUP4 DUP3 DUP2 MLOAD DUP2 LT PUSH2 0x1B9F JUMPI INVALID JUMPDEST PUSH1 0x20 MUL PUSH1 0x20 ADD ADD MLOAD PUSH1 0xA0 SHR PUSH1 0x1 PUSH1 0x1 PUSH1 0x60 SHL SUB AND DUP4 PUSH2 0x26D6 SWAP1 SWAP2 SWAP1 PUSH4 0xFFFFFFFF AND JUMP JUMPDEST SWAP2 POP PUSH1 0x1 ADD PUSH2 0x1B87 JUMP JUMPDEST POP PUSH1 0x2 SLOAD PUSH1 0x5 SLOAD PUSH1 0x40 DUP1 MLOAD PUSH4 0x40C10F19 PUSH1 0xE0 SHL DUP2 MSTORE ADDRESS PUSH1 0x4 DUP3 ADD MSTORE PUSH1 0x24 DUP2 ADD SWAP3 SWAP1 SWAP3 MSTORE MLOAD PUSH1 0x1 PUSH1 0x1 PUSH1 0xA0 SHL SUB SWAP1 SWAP3 AND SWAP2 PUSH4 0x40C10F19 SWAP2 PUSH1 0x44 DUP1 DUP3 ADD SWAP3 PUSH1 0x20 SWAP3 SWAP1 SWAP2 SWAP1 DUP3 SWAP1 SUB ADD DUP2 PUSH1 0x0 DUP8 DUP1 EXTCODESIZE ISZERO DUP1 ISZERO PUSH2 0x1C24 JUMPI PUSH1 0x0 DUP1 REVERT JUMPDEST POP GAS CALL ISZERO DUP1 ISZERO PUSH2 0x1C38 JUMPI RETURNDATASIZE PUSH1 0x0 DUP1 RETURNDATACOPY RETURNDATASIZE PUSH1 0x0 REVERT JUMPDEST POP POP POP POP PUSH1 0x40 MLOAD RETURNDATASIZE PUSH1 0x20 DUP2 LT ISZERO PUSH2 0x1C4E JUMPI PUSH1 0x0 DUP1 REVERT JUMPDEST POP PUSH1 0x0 SWAP1 POP JUMPDEST DUP3 MLOAD DUP2 LT ISZERO PUSH2 0x1D3B JUMPI PUSH1 0x2 SLOAD DUP4 MLOAD PUSH1 0x1 PUSH1 0x1 PUSH1 0xA0 SHL SUB SWAP1 SWAP2 AND SWAP1 PUSH4 0xA9059CBB SWAP1 DUP6 SWAP1 DUP5 SWAP1 DUP2 LT PUSH2 0x1C80 JUMPI INVALID JUMPDEST PUSH1 0x20 MUL PUSH1 0x20 ADD ADD MLOAD PUSH1 0x0 SHR PUSH2 0x1CC1 DUP6 PUSH2 0xF83 DUP9 DUP8 DUP2 MLOAD DUP2 LT PUSH2 0x1C9E JUMPI INVALID JUMPDEST PUSH1 0x20 MUL PUSH1 0x20 ADD ADD MLOAD PUSH1 0xA0 SHR PUSH1 0x1 PUSH1 0x1 PUSH1 0x60 SHL SUB AND DUP11 PUSH2 0x2737 SWAP1 SWAP2 SWAP1 PUSH4 0xFFFFFFFF AND JUMP JUMPDEST PUSH1 0x40 MLOAD DUP4 PUSH4 0xFFFFFFFF AND PUSH1 0xE0 SHL DUP2 MSTORE PUSH1 0x4 ADD DUP1 DUP4 PUSH1 0x1 PUSH1 0x1 PUSH1 0xA0 SHL SUB AND DUP2 MSTORE PUSH1 0x20 ADD DUP3 DUP2 MSTORE PUSH1 0x20 ADD SWAP3 POP POP POP PUSH1 0x20 PUSH1 0x40 MLOAD DUP1 DUP4 SUB DUP2 PUSH1 0x0 DUP8 DUP1 EXTCODESIZE ISZERO DUP1 ISZERO PUSH2 0x1D07 JUMPI PUSH1 0x0 DUP1 REVERT JUMPDEST POP GAS CALL ISZERO DUP1 ISZERO PUSH2 0x1D1B JUMPI RETURNDATASIZE PUSH1 0x0 DUP1 RETURNDATACOPY RETURNDATASIZE PUSH1 0x0 REVERT JUMPDEST POP POP POP POP PUSH1 0x40 MLOAD RETURNDATASIZE PUSH1 0x20 DUP2 LT ISZERO PUSH2 0x1D31 JUMPI PUSH1 0x0 DUP1 REVERT JUMPDEST POP POP PUSH1 0x1 ADD PUSH2 0x1C54 JUMP JUMPDEST POP PUSH1 0x40 DUP1 MLOAD DUP5 DUP2 MSTORE SWAP1 MLOAD PUSH32 0x86DD6AE252E62228B47B3C1A12762CBF634952B2D29319B04F4F72FB153BCBDD SWAP2 DUP2 SWAP1 SUB PUSH1 0x20 ADD SWAP1 LOG1 POP POP PUSH1 0x0 PUSH1 0x5 DUP2 SWAP1 SSTORE PUSH1 0x6 SSTORE POP PUSH1 0x1 SWAP1 POP SWAP1 JUMP JUMPDEST PUSH1 0x1 PUSH1 0x1 PUSH1 0xA0 SHL SUB SWAP2 DUP3 AND PUSH1 0x0 SWAP1 DUP2 MSTORE PUSH1 0xA PUSH1 0x20 MSTORE PUSH1 0x40 DUP1 DUP3 KECCAK256 SLOAD SWAP3 SWAP1 SWAP4 AND DUP2 MSTORE SWAP2 SWAP1 SWAP2 KECCAK256 SLOAD SWAP1 SWAP2 JUMP JUMPDEST PUSH2 0x1DB5 PUSH2 0x1EB5 JUMP JUMPDEST PUSH1 0x1 PUSH1 0x1 PUSH1 0xA0 SHL SUB AND PUSH2 0x1DC6 PUSH2 0x179E JUMP JUMPDEST PUSH1 0x1 PUSH1 0x1 PUSH1 0xA0 SHL SUB AND EQ PUSH2 0x1E0F JUMPI PUSH1 0x40 DUP1 MLOAD PUSH3 0x461BCD PUSH1 0xE5 SHL DUP2 MSTORE PUSH1 0x20 PUSH1 0x4 DUP3 ADD DUP2 SWAP1 MSTORE PUSH1 0x24 DUP3 ADD MSTORE PUSH1 0x0 DUP1 MLOAD PUSH1 0x20 PUSH2 0x2D52 DUP4 CODECOPY DUP2 MLOAD SWAP2 MSTORE PUSH1 0x44 DUP3 ADD MSTORE SWAP1 MLOAD SWAP1 DUP2 SWAP1 SUB PUSH1 0x64 ADD SWAP1 REVERT JUMPDEST PUSH1 0x1 PUSH1 0x1 PUSH1 0xA0 SHL SUB DUP2 AND PUSH2 0x1E54 JUMPI PUSH1 0x40 MLOAD PUSH3 0x461BCD PUSH1 0xE5 SHL DUP2 MSTORE PUSH1 0x4 ADD DUP1 DUP1 PUSH1 0x20 ADD DUP3 DUP2 SUB DUP3 MSTORE PUSH1 0x26 DUP2 MSTORE PUSH1 0x20 ADD DUP1 PUSH2 0x2CC3 PUSH1 0x26 SWAP2 CODECOPY PUSH1 0x40 ADD SWAP2 POP POP PUSH1 0x40 MLOAD DUP1 SWAP2 SUB SWAP1 REVERT JUMPDEST PUSH1 0x0 DUP1 SLOAD PUSH1 0x40 MLOAD PUSH1 0x1 PUSH1 0x1 PUSH1 0xA0 SHL SUB DUP1 DUP6 AND SWAP4 SWAP3 AND SWAP2 PUSH32 0x8BE0079C531659141344CD1FD0A4F28419497F9722A3DAAFE3B4186F6B6457E0 SWAP2 LOG3 PUSH1 0x0 DUP1 SLOAD PUSH1 0x1 PUSH1 0x1 PUSH1 0xA0 SHL SUB NOT AND PUSH1 0x1 PUSH1 0x1 PUSH1 0xA0 SHL SUB SWAP3 SWAP1 SWAP3 AND SWAP2 SWAP1 SWAP2 OR SWAP1 SSTORE JUMP JUMPDEST PUSH1 0x6 SLOAD DUP2 JUMP JUMPDEST CALLER SWAP1 JUMP JUMPDEST PUSH1 0x40 DUP1 MLOAD DUP1 DUP3 ADD DUP3 MSTORE PUSH1 0x20 DUP1 DUP3 MSTORE PUSH32 0x5F737761703A20666C6F617420616D6F756E7420696E73756666696369656E74 DUP2 DUP4 ADD MSTORE PUSH1 0x1 PUSH1 0x1 PUSH1 0xA0 SHL SUB DUP6 AND PUSH1 0x0 SWAP1 DUP2 MSTORE PUSH1 0xA SWAP1 SWAP2 MSTORE SWAP2 SWAP1 SWAP2 KECCAK256 SLOAD PUSH2 0x1F10 SWAP2 DUP4 SWAP1 PUSH2 0x2B94 JUMP JUMPDEST PUSH1 0x1 PUSH1 0x1 PUSH1 0xA0 SHL SUB DUP1 DUP5 AND PUSH1 0x0 SWAP1 DUP2 MSTORE PUSH1 0xA PUSH1 0x20 MSTORE PUSH1 0x40 DUP1 DUP3 KECCAK256 SWAP4 SWAP1 SWAP4 SSTORE SWAP1 DUP6 AND DUP2 MSTORE KECCAK256 SLOAD PUSH2 0x1F3F SWAP1 DUP3 PUSH2 0x26D6 JUMP JUMPDEST PUSH1 0x1 PUSH1 0x1 PUSH1 0xA0 SHL SUB DUP1 DUP6 AND PUSH1 0x0 DUP2 DUP2 MSTORE PUSH1 0xA PUSH1 0x20 SWAP1 DUP2 MSTORE PUSH1 0x40 SWAP2 DUP3 SWAP1 KECCAK256 SWAP5 SWAP1 SWAP5 SSTORE DUP1 MLOAD SWAP2 DUP3 MSTORE SWAP2 DUP6 AND SWAP3 DUP2 ADD SWAP3 SWAP1 SWAP3 MSTORE DUP2 DUP2 ADD DUP4 SWAP1 MSTORE MLOAD PUSH32 0xEA368A40E9570069BB8E6511D668293AD2E1F03B0D982431FD223DE9F3B70CA6 SWAP2 DUP2 SWAP1 SUB PUSH1 0x60 ADD SWAP1 LOG1 POP POP POP JUMP JUMPDEST DUP1 PUSH2 0x1FAF JUMPI PUSH2 0x2118 JUMP JUMPDEST PUSH1 0x2 SLOAD PUSH1 0x1 PUSH1 0x1 PUSH1 0xA0 SHL SUB DUP4 DUP2 AND SWAP2 AND EQ ISZERO PUSH2 0x202A JUMPI PUSH1 0x6 SLOAD PUSH2 0x1FD2 SWAP1 DUP3 PUSH2 0x26D6 JUMP JUMPDEST PUSH1 0x6 SSTORE PUSH1 0x40 DUP1 MLOAD PUSH1 0x1 PUSH1 0x1 PUSH1 0xA0 SHL SUB DUP5 AND DUP2 MSTORE PUSH1 0x20 DUP2 ADD DUP4 SWAP1 MSTORE PUSH1 0x0 DUP2 DUP4 ADD DUP2 SWAP1 MSTORE PUSH1 0x60 DUP3 ADD MSTORE SWAP1 MLOAD PUSH32 0xE3DEBE835F6848EDC082B32A1D729781D3BFCD7E14422D80BCAA6794D3816B2F SWAP2 DUP2 SWAP1 SUB PUSH1 0x80 ADD SWAP1 LOG1 PUSH2 0x2118 JUMP JUMPDEST PUSH1 0x0 PUSH2 0x2034 PUSH2 0xEAE JUMP JUMPDEST PUSH1 0x1 PUSH1 0x1 PUSH1 0xA0 SHL SUB DUP5 AND PUSH1 0x0 SWAP1 DUP2 MSTORE PUSH1 0xA PUSH1 0x20 MSTORE PUSH1 0x40 SWAP1 KECCAK256 SLOAD SWAP1 SWAP2 POP PUSH2 0x205A SWAP1 DUP4 PUSH2 0x26D6 JUMP JUMPDEST PUSH1 0x1 PUSH1 0x1 PUSH1 0xA0 SHL SUB DUP5 AND PUSH1 0x0 SWAP1 DUP2 MSTORE PUSH1 0xA PUSH1 0x20 MSTORE PUSH1 0x40 DUP2 KECCAK256 SWAP2 SWAP1 SWAP2 SSTORE PUSH1 0x4 SLOAD PUSH2 0x2094 SWAP1 PUSH1 0x64 SWAP1 PUSH2 0xF83 SWAP1 DUP7 SWAP1 PUSH3 0x10000 SWAP1 DIV PUSH1 0xFF AND PUSH2 0x2737 JUMP JUMPDEST SWAP1 POP PUSH1 0x0 PUSH2 0x20B1 DUP4 PUSH2 0xF83 PUSH1 0x9 SLOAD DUP6 PUSH2 0x2737 SWAP1 SWAP2 SWAP1 PUSH4 0xFFFFFFFF AND JUMP JUMPDEST PUSH1 0x5 SLOAD SWAP1 SWAP2 POP PUSH2 0x20C1 SWAP1 DUP3 PUSH2 0x26D6 JUMP JUMPDEST PUSH1 0x5 SSTORE PUSH1 0x40 DUP1 MLOAD PUSH1 0x1 PUSH1 0x1 PUSH1 0xA0 SHL SUB DUP8 AND DUP2 MSTORE PUSH1 0x20 DUP2 ADD DUP7 SWAP1 MSTORE DUP1 DUP3 ADD DUP4 SWAP1 MSTORE PUSH1 0x60 DUP2 ADD DUP6 SWAP1 MSTORE SWAP1 MLOAD PUSH32 0xE3DEBE835F6848EDC082B32A1D729781D3BFCD7E14422D80BCAA6794D3816B2F SWAP2 DUP2 SWAP1 SUB PUSH1 0x80 ADD SWAP1 LOG1 POP POP POP JUMPDEST POP POP JUMP JUMPDEST PUSH1 0x0 JUMPDEST DUP2 MLOAD DUP2 LT ISZERO PUSH2 0x2118 JUMPI PUSH1 0x1 PUSH1 0xB PUSH1 0x0 DUP5 DUP5 DUP2 MLOAD DUP2 LT PUSH2 0x213A JUMPI INVALID JUMPDEST PUSH1 0x20 SWAP1 DUP2 MUL SWAP2 SWAP1 SWAP2 ADD DUP2 ADD MLOAD DUP3 MSTORE DUP2 ADD SWAP2 SWAP1 SWAP2 MSTORE PUSH1 0x40 ADD PUSH1 0x0 KECCAK256 DUP1 SLOAD PUSH1 0xFF NOT AND SWAP2 ISZERO ISZERO SWAP2 SWAP1 SWAP2 OR SWAP1 SSTORE PUSH1 0x1 ADD PUSH2 0x211F JUMP JUMPDEST PUSH1 0x1 SLOAD PUSH1 0x1 PUSH1 0x1 PUSH1 0xA0 SHL SUB DUP5 DUP2 AND SWAP2 AND EQ ISZERO PUSH2 0x2192 JUMPI PUSH1 0x8 SLOAD PUSH2 0x218F SWAP1 DUP3 SWAP1 PUSH2 0x2737 JUMP JUMPDEST SWAP1 POP JUMPDEST DUP3 PUSH1 0x1 PUSH1 0x1 PUSH1 0xA0 SHL SUB AND PUSH4 0xA9059CBB DUP4 DUP4 PUSH1 0x40 MLOAD DUP4 PUSH4 0xFFFFFFFF AND PUSH1 0xE0 SHL DUP2 MSTORE PUSH1 0x4 ADD DUP1 DUP4 PUSH1 0x1 PUSH1 0x1 PUSH1 0xA0 SHL SUB AND DUP2 MSTORE PUSH1 0x20 ADD DUP3 DUP2 MSTORE PUSH1 0x20 ADD SWAP3 POP POP POP PUSH1 0x20 PUSH1 0x40 MLOAD DUP1 DUP4 SUB DUP2 PUSH1 0x0 DUP8 DUP1 EXTCODESIZE ISZERO DUP1 ISZERO PUSH2 0x21E9 JUMPI PUSH1 0x0 DUP1 REVERT JUMPDEST POP GAS CALL ISZERO DUP1 ISZERO PUSH2 0x21FD JUMPI RETURNDATASIZE PUSH1 0x0 DUP1 RETURNDATACOPY RETURNDATASIZE PUSH1 0x0 REVERT JUMPDEST POP POP POP POP PUSH1 0x40 MLOAD RETURNDATASIZE PUSH1 0x20 DUP2 LT ISZERO PUSH2 0x2213 JUMPI PUSH1 0x0 DUP1 REVERT JUMPDEST POP MLOAD PUSH2 0x221E JUMPI PUSH1 0x0 DUP1 REVERT JUMPDEST POP POP POP JUMP JUMPDEST PUSH1 0x0 PUSH2 0x222E DUP3 PUSH2 0x1B07 JUMP JUMPDEST ISZERO PUSH2 0x227B JUMPI PUSH1 0x40 DUP1 MLOAD PUSH3 0x461BCD PUSH1 0xE5 SHL DUP2 MSTORE PUSH1 0x20 PUSH1 0x4 DUP3 ADD MSTORE PUSH1 0x18 PUSH1 0x24 DUP3 ADD MSTORE PUSH24 0x151A19481D1E1A59081A5CC8185B1C9958591E481D5CD959 PUSH1 0x42 SHL PUSH1 0x44 DUP3 ADD MSTORE SWAP1 MLOAD SWAP1 DUP2 SWAP1 SUB PUSH1 0x64 ADD SWAP1 REVERT JUMPDEST DUP4 PUSH2 0x22CD JUMPI PUSH1 0x40 DUP1 MLOAD PUSH3 0x461BCD PUSH1 0xE5 SHL DUP2 MSTORE PUSH1 0x20 PUSH1 0x4 DUP3 ADD MSTORE PUSH1 0x1C PUSH1 0x24 DUP3 ADD MSTORE PUSH32 0x546865207472616E73616374696F6E206973206E6F742076616C696400000000 PUSH1 0x44 DUP3 ADD MSTORE SWAP1 MLOAD SWAP1 DUP2 SWAP1 SUB PUSH1 0x64 ADD SWAP1 REVERT JUMPDEST PUSH1 0x0 DUP1 PUSH2 0x22D9 DUP7 PUSH2 0x2854 JUMP JUMPDEST SWAP2 POP SWAP2 POP PUSH1 0x0 PUSH2 0x22E7 PUSH2 0xEAE JUMP JUMPDEST SWAP1 POP PUSH1 0x0 PUSH2 0x2304 PUSH1 0x9 SLOAD PUSH2 0xF83 DUP5 DUP7 PUSH2 0x2737 SWAP1 SWAP2 SWAP1 PUSH4 0xFFFFFFFF AND JUMP JUMPDEST PUSH1 0x4 SLOAD SWAP1 SWAP2 POP PUSH1 0x0 SWAP1 PUSH2 0x232A SWAP1 PUSH2 0x2710 SWAP1 PUSH2 0xF83 SWAP1 DUP6 SWAP1 PUSH1 0x1 PUSH1 0x20 SHL SWAP1 DIV PUSH1 0xFF AND PUSH2 0x2737 JUMP JUMPDEST SWAP1 POP DUP8 PUSH2 0x2337 DUP4 DUP4 PUSH2 0x27F7 JUMP JUMPDEST LT ISZERO PUSH2 0x2374 JUMPI PUSH1 0x40 MLOAD PUSH3 0x461BCD PUSH1 0xE5 SHL DUP2 MSTORE PUSH1 0x4 ADD DUP1 DUP1 PUSH1 0x20 ADD DUP3 DUP2 SUB DUP3 MSTORE PUSH1 0x34 DUP2 MSTORE PUSH1 0x20 ADD DUP1 PUSH2 0x2C8F PUSH1 0x34 SWAP2 CODECOPY PUSH1 0x40 ADD SWAP2 POP POP PUSH1 0x40 MLOAD DUP1 SWAP2 SUB SWAP1 REVERT JUMPDEST PUSH1 0x0 PUSH2 0x2384 DUP10 PUSH2 0x174F DUP6 DUP6 PUSH2 0x27F7 JUMP JUMPDEST PUSH1 0x1 SLOAD SWAP1 SWAP2 POP PUSH1 0x0 SWAP1 DUP2 SWAP1 PUSH2 0x23A3 SWAP1 DUP3 SWAP1 PUSH1 0x1 PUSH1 0x1 PUSH1 0xA0 SHL SUB AND PUSH2 0x1D83 JUMP JUMPDEST SWAP1 SWAP3 POP SWAP1 POP PUSH1 0x1 PUSH1 0x1 PUSH1 0xA0 SHL SUB DUP14 AND PUSH2 0x2419 JUMPI PUSH2 0x23C0 DUP6 DUP6 PUSH2 0x27F7 JUMP JUMPDEST DUP3 LT ISZERO PUSH2 0x2414 JUMPI PUSH1 0x40 DUP1 MLOAD PUSH3 0x461BCD PUSH1 0xE5 SHL DUP2 MSTORE PUSH1 0x20 PUSH1 0x4 DUP3 ADD MSTORE PUSH1 0x1F PUSH1 0x24 DUP3 ADD MSTORE PUSH32 0x54686520666C6F61742062616C616E636520696E73756666696369656E742E00 PUSH1 0x44 DUP3 ADD MSTORE SWAP1 MLOAD SWAP1 DUP2 SWAP1 SUB PUSH1 0x64 ADD SWAP1 REVERT JUMPDEST PUSH2 0x248D JUMP JUMPDEST PUSH1 0x1 SLOAD PUSH1 0x1 PUSH1 0x1 PUSH1 0xA0 SHL SUB DUP15 DUP2 AND SWAP2 AND EQ ISZERO PUSH2 0x248D JUMPI PUSH2 0x2439 DUP6 DUP6 PUSH2 0x27F7 JUMP JUMPDEST DUP2 LT ISZERO PUSH2 0x248D JUMPI PUSH1 0x40 DUP1 MLOAD PUSH3 0x461BCD PUSH1 0xE5 SHL DUP2 MSTORE PUSH1 0x20 PUSH1 0x4 DUP3 ADD MSTORE PUSH1 0x1F PUSH1 0x24 DUP3 ADD MSTORE PUSH32 0x54686520666C6F61742062616C616E636520696E73756666696369656E742E00 PUSH1 0x44 DUP3 ADD MSTORE SWAP1 MLOAD SWAP1 DUP2 SWAP1 SUB PUSH1 0x64 ADD SWAP1 REVERT JUMPDEST PUSH2 0x2497 DUP14 DUP6 PUSH2 0x1FA5 JUMP JUMPDEST PUSH2 0x24A1 DUP14 DUP7 PUSH2 0x25BF JUMP JUMPDEST PUSH2 0x24AA DUP11 PUSH2 0x2C2B JUMP JUMPDEST PUSH1 0x1 SLOAD PUSH1 0x1 PUSH1 0x1 PUSH1 0xA0 SHL SUB DUP15 DUP2 AND SWAP2 AND EQ ISZERO PUSH2 0x24CB JUMPI PUSH2 0x24CB DUP14 DUP10 DUP6 PUSH2 0x216B JUMP JUMPDEST PUSH1 0x2 SLOAD PUSH1 0x40 DUP1 MLOAD PUSH4 0x852CD8D PUSH1 0xE3 SHL DUP2 MSTORE PUSH1 0x4 DUP2 ADD DUP11 SWAP1 MSTORE SWAP1 MLOAD PUSH1 0x1 PUSH1 0x1 PUSH1 0xA0 SHL SUB SWAP1 SWAP3 AND SWAP2 PUSH4 0x42966C68 SWAP2 PUSH1 0x24 DUP1 DUP3 ADD SWAP3 PUSH1 0x20 SWAP3 SWAP1 SWAP2 SWAP1 DUP3 SWAP1 SUB ADD DUP2 PUSH1 0x0 DUP8 DUP1 EXTCODESIZE ISZERO DUP1 ISZERO PUSH2 0x2519 JUMPI PUSH1 0x0 DUP1 REVERT JUMPDEST POP GAS CALL ISZERO DUP1 ISZERO PUSH2 0x252D JUMPI RETURNDATASIZE PUSH1 0x0 DUP1 RETURNDATACOPY RETURNDATASIZE PUSH1 0x0 REVERT JUMPDEST POP POP POP POP PUSH1 0x40 MLOAD RETURNDATASIZE PUSH1 0x20 DUP2 LT ISZERO PUSH2 0x2543 JUMPI PUSH1 0x0 DUP1 REVERT JUMPDEST POP MLOAD PUSH2 0x254E JUMPI PUSH1 0x0 DUP1 REVERT JUMPDEST PUSH1 0x40 DUP1 MLOAD PUSH1 0x1 PUSH1 0x1 PUSH1 0xA0 SHL SUB DUP11 AND DUP2 MSTORE PUSH1 0x20 DUP2 ADD DUP10 SWAP1 MSTORE DUP1 DUP3 ADD DUP8 SWAP1 MSTORE PUSH1 0x60 DUP2 ADD DUP9 SWAP1 MSTORE PUSH1 0x80 DUP2 ADD DUP6 SWAP1 MSTORE PUSH1 0xA0 DUP2 ADD DUP13 SWAP1 MSTORE SWAP1 MLOAD PUSH32 0xA9DA34E5E4A956B744307AE7611795634E8365951073BF049D76B64B2AE7A058 SWAP2 DUP2 SWAP1 SUB PUSH1 0xC0 ADD SWAP1 LOG1 POP PUSH1 0x1 SWAP13 SWAP12 POP POP POP POP POP POP POP POP POP POP POP POP JUMP JUMPDEST PUSH2 0x25FC DUP2 PUSH1 0x40 MLOAD DUP1 PUSH1 0x60 ADD PUSH1 0x40 MSTORE DUP1 PUSH1 0x27 DUP2 MSTORE PUSH1 0x20 ADD PUSH2 0x2D72 PUSH1 0x27 SWAP2 CODECOPY PUSH1 0x1 PUSH1 0x1 PUSH1 0xA0 SHL SUB DUP6 AND PUSH1 0x0 SWAP1 DUP2 MSTORE PUSH1 0xA PUSH1 0x20 MSTORE PUSH1 0x40 SWAP1 KECCAK256 SLOAD SWAP2 SWAP1 PUSH2 0x2B94 JUMP JUMPDEST PUSH1 0x1 PUSH1 0x1 PUSH1 0xA0 SHL SUB SWAP1 SWAP3 AND PUSH1 0x0 SWAP1 DUP2 MSTORE PUSH1 0xA PUSH1 0x20 MSTORE PUSH1 0x40 SWAP1 KECCAK256 SWAP2 SWAP1 SWAP2 SSTORE POP JUMP JUMPDEST PUSH1 0x1 SLOAD PUSH1 0x0 SWAP1 DUP2 SWAP1 DUP2 SWAP1 PUSH2 0x263A SWAP1 DUP3 SWAP1 PUSH1 0x1 PUSH1 0x1 PUSH1 0xA0 SHL SUB AND PUSH2 0x1D83 JUMP JUMPDEST SWAP1 SWAP3 POP SWAP1 POP PUSH1 0x0 PUSH2 0x265F PUSH1 0x3 PUSH2 0xF83 PUSH1 0x2 PUSH2 0xF7D DUP10 PUSH2 0x2659 DUP10 DUP10 PUSH2 0x26D6 JUMP JUMPDEST SWAP1 PUSH2 0x26D6 JUMP JUMPDEST PUSH1 0x1 SLOAD SWAP1 SWAP2 POP PUSH1 0x1 PUSH1 0x1 PUSH1 0xA0 SHL SUB DUP8 DUP2 AND SWAP2 AND EQ DUP1 ISZERO PUSH2 0x2688 JUMPI POP DUP1 PUSH2 0x2685 DUP4 DUP8 PUSH2 0x26D6 JUMP JUMPDEST LT ISZERO JUMPDEST ISZERO PUSH2 0x2699 JUMPI PUSH1 0x1 SWAP4 POP POP POP POP PUSH2 0x1008 JUMP JUMPDEST PUSH1 0x1 PUSH1 0x1 PUSH1 0xA0 SHL SUB DUP7 AND ISZERO DUP1 ISZERO PUSH2 0x26B9 JUMPI POP DUP1 PUSH2 0x26B6 DUP5 DUP8 PUSH2 0x26D6 JUMP JUMPDEST LT ISZERO JUMPDEST ISZERO PUSH2 0x26CA JUMPI PUSH1 0x2 SWAP4 POP POP POP POP PUSH2 0x1008 JUMP JUMPDEST POP PUSH1 0x0 SWAP6 SWAP5 POP POP POP POP POP JUMP JUMPDEST PUSH1 0x0 DUP3 DUP3 ADD DUP4 DUP2 LT ISZERO PUSH2 0x2730 JUMPI PUSH1 0x40 DUP1 MLOAD PUSH3 0x461BCD PUSH1 0xE5 SHL DUP2 MSTORE PUSH1 0x20 PUSH1 0x4 DUP3 ADD MSTORE PUSH1 0x1B PUSH1 0x24 DUP3 ADD MSTORE PUSH32 0x536166654D6174683A206164646974696F6E206F766572666C6F770000000000 PUSH1 0x44 DUP3 ADD MSTORE SWAP1 MLOAD SWAP1 DUP2 SWAP1 SUB PUSH1 0x64 ADD SWAP1 REVERT JUMPDEST SWAP4 SWAP3 POP POP POP JUMP JUMPDEST PUSH1 0x0 DUP3 PUSH2 0x2746 JUMPI POP PUSH1 0x0 PUSH2 0x1008 JUMP JUMPDEST DUP3 DUP3 MUL DUP3 DUP5 DUP3 DUP2 PUSH2 0x2753 JUMPI INVALID JUMPDEST DIV EQ PUSH2 0x2730 JUMPI PUSH1 0x40 MLOAD PUSH3 0x461BCD PUSH1 0xE5 SHL DUP2 MSTORE PUSH1 0x4 ADD DUP1 DUP1 PUSH1 0x20 ADD DUP3 DUP2 SUB DUP3 MSTORE PUSH1 0x21 DUP2 MSTORE PUSH1 0x20 ADD DUP1 PUSH2 0x2D10 PUSH1 0x21 SWAP2 CODECOPY PUSH1 0x40 ADD SWAP2 POP POP PUSH1 0x40 MLOAD DUP1 SWAP2 SUB SWAP1 REVERT JUMPDEST PUSH1 0x0 DUP1 DUP3 GT PUSH2 0x27E6 JUMPI PUSH1 0x40 DUP1 MLOAD PUSH3 0x461BCD PUSH1 0xE5 SHL DUP2 MSTORE PUSH1 0x20 PUSH1 0x4 DUP3 ADD MSTORE PUSH1 0x1A PUSH1 0x24 DUP3 ADD MSTORE PUSH32 0x536166654D6174683A206469766973696F6E206279207A65726F000000000000 PUSH1 0x44 DUP3 ADD MSTORE SWAP1 MLOAD SWAP1 DUP2 SWAP1 SUB PUSH1 0x64 ADD SWAP1 REVERT JUMPDEST DUP2 DUP4 DUP2 PUSH2 0x27EF JUMPI INVALID JUMPDEST DIV SWAP4 SWAP3 POP POP POP JUMP JUMPDEST PUSH1 0x0 DUP3 DUP3 GT ISZERO PUSH2 0x284E JUMPI PUSH1 0x40 DUP1 MLOAD PUSH3 0x461BCD PUSH1 0xE5 SHL DUP2 MSTORE PUSH1 0x20 PUSH1 0x4 DUP3 ADD MSTORE PUSH1 0x1E PUSH1 0x24 DUP3 ADD MSTORE PUSH32 0x536166654D6174683A207375627472616374696F6E206F766572666C6F770000 PUSH1 0x44 DUP3 ADD MSTORE SWAP1 MLOAD SWAP1 DUP2 SWAP1 SUB PUSH1 0x64 ADD SWAP1 REVERT JUMPDEST POP SWAP1 SUB SWAP1 JUMP JUMPDEST SWAP1 PUSH1 0xA0 DUP3 SWAP1 SHR SWAP1 JUMP JUMPDEST PUSH1 0x0 DUP2 ISZERO PUSH2 0x2886 JUMPI POP PUSH1 0x1 PUSH1 0x1 PUSH1 0xA0 SHL SUB DUP4 AND PUSH1 0x0 SWAP1 DUP2 MSTORE PUSH1 0xC PUSH1 0x20 MSTORE PUSH1 0x40 DUP2 KECCAK256 SSTORE PUSH1 0x1 PUSH2 0x2730 JUMP JUMPDEST PUSH1 0x1 PUSH1 0x1 PUSH1 0xA0 SHL SUB DUP5 AND PUSH1 0x0 SWAP1 DUP2 MSTORE PUSH1 0xD PUSH1 0x20 MSTORE PUSH1 0x40 SWAP1 KECCAK256 SLOAD PUSH1 0xFF AND PUSH2 0x290A JUMPI PUSH1 0xE DUP1 SLOAD PUSH1 0x1 DUP1 DUP3 ADD SWAP1 SWAP3 SSTORE PUSH32 0xBB7B4A454DC3493923482F07822329ED19E8244EFF582CC204F8554C3620C3FD ADD DUP1 SLOAD PUSH1 0x1 PUSH1 0x1 PUSH1 0xA0 SHL SUB NOT AND PUSH1 0x1 PUSH1 0x1 PUSH1 0xA0 SHL SUB DUP8 AND SWAP1 DUP2 OR SWAP1 SWAP2 SSTORE PUSH1 0x0 SWAP1 DUP2 MSTORE PUSH1 0xD PUSH1 0x20 MSTORE PUSH1 0x40 SWAP1 KECCAK256 DUP1 SLOAD PUSH1 0xFF NOT AND SWAP1 SWAP2 OR SWAP1 SSTORE JUMPDEST PUSH1 0x1 PUSH1 0x1 PUSH1 0xA0 SHL SUB DUP5 AND PUSH1 0x0 SWAP1 DUP2 MSTORE PUSH1 0xC PUSH1 0x20 MSTORE PUSH1 0x40 SWAP1 KECCAK256 SLOAD PUSH2 0x2943 JUMPI PUSH1 0x1 PUSH1 0x1 PUSH1 0xA0 SHL SUB DUP5 AND PUSH1 0x0 SWAP1 DUP2 MSTORE PUSH1 0xC PUSH1 0x20 MSTORE PUSH1 0x40 SWAP1 KECCAK256 DUP4 SWAP1 SSTORE JUMPDEST POP PUSH1 0x1 SWAP4 SWAP3 POP POP POP JUMP JUMPDEST PUSH1 0x0 PUSH2 0x2958 DUP3 PUSH2 0x1B07 JUMP JUMPDEST ISZERO PUSH2 0x29A5 JUMPI PUSH1 0x40 DUP1 MLOAD PUSH3 0x461BCD PUSH1 0xE5 SHL DUP2 MSTORE PUSH1 0x20 PUSH1 0x4 DUP3 ADD MSTORE PUSH1 0x18 PUSH1 0x24 DUP3 ADD MSTORE PUSH24 0x151A19481D1E1A59081A5CC8185B1C9958591E481D5CD959 PUSH1 0x42 SHL PUSH1 0x44 DUP3 ADD MSTORE SWAP1 MLOAD SWAP1 DUP2 SWAP1 SUB PUSH1 0x64 ADD SWAP1 REVERT JUMPDEST DUP4 PUSH2 0x29F7 JUMPI PUSH1 0x40 DUP1 MLOAD PUSH3 0x461BCD PUSH1 0xE5 SHL DUP2 MSTORE PUSH1 0x20 PUSH1 0x4 DUP3 ADD MSTORE PUSH1 0x1C PUSH1 0x24 DUP3 ADD MSTORE PUSH32 0x546865207472616E73616374696F6E206973206E6F742076616C696400000000 PUSH1 0x44 DUP3 ADD MSTORE SWAP1 MLOAD SWAP1 DUP2 SWAP1 SUB PUSH1 0x64 ADD SWAP1 REVERT JUMPDEST PUSH1 0x0 DUP1 PUSH2 0x2A03 DUP7 PUSH2 0x2854 JUMP JUMPDEST SWAP2 POP SWAP2 POP PUSH1 0x0 PUSH2 0x2A11 PUSH2 0xEAE JUMP JUMPDEST SWAP1 POP PUSH1 0x0 PUSH2 0x2A2E DUP3 PUSH2 0xF83 PUSH1 0x9 SLOAD DUP7 PUSH2 0x2737 SWAP1 SWAP2 SWAP1 PUSH4 0xFFFFFFFF AND JUMP JUMPDEST SWAP1 POP PUSH1 0x0 PUSH2 0x2A3C DUP11 DUP6 PUSH2 0xE12 JUMP JUMPDEST SWAP1 POP PUSH1 0x0 DUP2 PUSH2 0x2A4C JUMPI PUSH1 0x0 PUSH2 0x2A5C JUMP JUMPDEST PUSH2 0x2A5C PUSH2 0x2710 PUSH2 0xF83 DUP6 DUP6 PUSH2 0x2737 JUMP JUMPDEST SWAP1 POP DUP9 DUP1 ISZERO PUSH2 0x2A6A JUMPI POP DUP1 ISZERO ISZERO JUMPDEST ISZERO PUSH2 0x2A74 JUMPI PUSH1 0x0 DUP1 REVERT JUMPDEST PUSH1 0x2 SLOAD PUSH1 0x1 PUSH1 0x1 PUSH1 0xA0 SHL SUB AND PUSH4 0x40C10F19 DUP8 PUSH2 0x2A90 DUP7 DUP6 PUSH2 0x27F7 JUMP JUMPDEST PUSH1 0x40 MLOAD DUP4 PUSH4 0xFFFFFFFF AND PUSH1 0xE0 SHL DUP2 MSTORE PUSH1 0x4 ADD DUP1 DUP4 PUSH1 0x1 PUSH1 0x1 PUSH1 0xA0 SHL SUB AND DUP2 MSTORE PUSH1 0x20 ADD DUP3 DUP2 MSTORE PUSH1 0x20 ADD SWAP3 POP POP POP PUSH1 0x20 PUSH1 0x40 MLOAD DUP1 DUP4 SUB DUP2 PUSH1 0x0 DUP8 DUP1 EXTCODESIZE ISZERO DUP1 ISZERO PUSH2 0x2AD6 JUMPI PUSH1 0x0 DUP1 REVERT JUMPDEST POP GAS CALL ISZERO DUP1 ISZERO PUSH2 0x2AEA JUMPI RETURNDATASIZE PUSH1 0x0 DUP1 RETURNDATACOPY RETURNDATASIZE PUSH1 0x0 REVERT JUMPDEST POP POP POP POP PUSH1 0x40 MLOAD RETURNDATASIZE PUSH1 0x20 DUP2 LT ISZERO PUSH2 0x2B00 JUMPI PUSH1 0x0 DUP1 REVERT JUMPDEST POP POP PUSH1 0x5 SLOAD PUSH2 0x2B0F SWAP1 DUP3 PUSH2 0x26D6 JUMP JUMPDEST PUSH1 0x5 SSTORE PUSH2 0x2B1C DUP12 DUP7 PUSH2 0x2C46 JUMP JUMPDEST PUSH2 0x2B25 DUP9 PUSH2 0x2C2B JUMP JUMPDEST PUSH1 0x40 DUP1 MLOAD PUSH1 0x1 PUSH1 0x1 PUSH1 0xA0 SHL SUB DUP9 AND DUP2 MSTORE PUSH1 0x20 DUP2 ADD DUP8 SWAP1 MSTORE DUP1 DUP3 ADD DUP6 SWAP1 MSTORE PUSH1 0x60 DUP2 ADD DUP7 SWAP1 MSTORE PUSH1 0x80 DUP2 ADD DUP4 SWAP1 MSTORE PUSH1 0xA0 DUP2 ADD DUP11 SWAP1 MSTORE SWAP1 MLOAD PUSH32 0xDFAF4E23F7030ADAFEC91A682E05BF9FB30C721F9CEC3D8BCFAE0459C5362DB1 SWAP2 DUP2 SWAP1 SUB PUSH1 0xC0 ADD SWAP1 LOG1 POP PUSH1 0x1 SWAP11 SWAP10 POP POP POP POP POP POP POP POP POP POP JUMP JUMPDEST PUSH1 0x0 DUP2 DUP5 DUP5 GT ISZERO PUSH2 0x2C23 JUMPI PUSH1 0x40 MLOAD PUSH3 0x461BCD PUSH1 0xE5 SHL DUP2 MSTORE PUSH1 0x4 ADD DUP1 DUP1 PUSH1 0x20 ADD DUP3 DUP2 SUB DUP3 MSTORE DUP4 DUP2 DUP2 MLOAD DUP2 MSTORE PUSH1 0x20 ADD SWAP2 POP DUP1 MLOAD SWAP1 PUSH1 0x20 ADD SWAP1 DUP1 DUP4 DUP4 PUSH1 0x0 JUMPDEST DUP4 DUP2 LT ISZERO PUSH2 0x2BE8 JUMPI DUP2 DUP2 ADD MLOAD DUP4 DUP3 ADD MSTORE PUSH1 0x20 ADD PUSH2 0x2BD0 JUMP JUMPDEST POP POP POP POP SWAP1 POP SWAP1 DUP2 ADD SWAP1 PUSH1 0x1F AND DUP1 ISZERO PUSH2 0x2C15 JUMPI DUP1 DUP3 SUB DUP1 MLOAD PUSH1 0x1 DUP4 PUSH1 0x20 SUB PUSH2 0x100 EXP SUB NOT AND DUP2 MSTORE PUSH1 0x20 ADD SWAP2 POP JUMPDEST POP SWAP3 POP POP POP PUSH1 0x40 MLOAD DUP1 SWAP2 SUB SWAP1 REVERT JUMPDEST POP POP POP SWAP1 SUB SWAP1 JUMP JUMPDEST PUSH1 0x0 SWAP1 DUP2 MSTORE PUSH1 0xB PUSH1 0x20 MSTORE PUSH1 0x40 SWAP1 KECCAK256 DUP1 SLOAD PUSH1 0xFF NOT AND PUSH1 0x1 OR SWAP1 SSTORE JUMP JUMPDEST PUSH1 0x1 PUSH1 0x1 PUSH1 0xA0 SHL SUB DUP3 AND PUSH1 0x0 SWAP1 DUP2 MSTORE PUSH1 0xA PUSH1 0x20 MSTORE PUSH1 0x40 SWAP1 KECCAK256 SLOAD PUSH2 0x25FC SWAP1 DUP3 PUSH2 0x26D6 JUMP INVALID PUSH21 0x6F74616C5265776172644C5073466F724E6F646520 PUSH10 0x73206E6F7420706F7369 PUSH21 0x6976654572726F723A20616D6F756E744F66466C6F PUSH2 0x742E PUSH20 0x7562287769746864726177616C4665657329203C KECCAK256 0x5F PUSH14 0x696E65724665654F776E61626C65 GASPRICE KECCAK256 PUSH15 0x6577206F776E657220697320746865 KECCAK256 PUSH27 0x65726F20616464726573735F7473735468726573686F6C64207368 PUSH16 0x756C64206265203E3D20747373546872 PUSH6 0x73686F6C6453 PUSH2 0x6665 0x4D PUSH2 0x7468 GASPRICE KECCAK256 PUSH14 0x756C7469706C69636174696F6E20 PUSH16 0x766572666C6F7753746F726564206E6F PUSH5 0x652073697A PUSH6 0x2073686F756C PUSH5 0x206265203C RETURNDATASIZE KECCAK256 BALANCE ADDRESS ADDRESS 0x4F PUSH24 0x6E61626C653A2063616C6C6572206973206E6F7420746865 KECCAK256 PUSH16 0x776E65725F72656D6F7665466C6F6174 GASPRICE KECCAK256 PUSH7 0x6C6F617420616D PUSH16 0x756E7420696E73756666696369656E74 0x5F PUSH19 0x657761726441646472657373416E64416D6F75 PUSH15 0x747320616E64205F697352656D6F76 PUSH6 0x64206C656E67 PUSH21 0x68206973206E6F74206D617463685F64657374546F PUSH12 0x656E2073686F756C64206E6F PUSH21 0x2062652061646472657373283029A2646970667358 0x22 SLT KECCAK256 LT 0xFC 0xBF SLT SELFBALANCE POP 0xF8 CALL EXTCODESIZE SWAP8 GT RETURNDATACOPY 0xE8 0x24 SWAP13 0xE6 0x4C MSIZE 0xD7 PUSH22 0xAD03D3E2E9CF0EFD7CCA924E64736F6C634300070300 CALLER "
        },
        "methodIdentifiers": {
          "BTCT_ADDR()": "0f909486",
          "balanceOf(address)": "70a08231",
          "churn(address,bytes32[],bool[],uint8,uint8,uint8,uint8)": "4e54cee0",
          "churnedInCount()": "0089356f",
          "collectSwapFeesForBTC(address,uint256,uint256,uint256)": "8006cc3e",
          "depositFeesBPS()": "42419255",
          "distributeNodeRewards()": "e9e9bf6a",
          "do1InchTrade()": "0fd3d41c",
          "doParaSwap()": "45468b66",
          "feesLPTokensForNode()": "f7824bc7",
          "getActiveNodes()": "6b51e919",
          "getCurrentPriceLP()": "45137e27",
          "getDepositFeeRate(address,uint256)": "3b6fa127",
          "getFloatReserve(address,address)": "ec482729",
          "initialExchangeRate()": "6d019f35",
          "isTxUsed(bytes32)": "e6ca2084",
          "lockedLPTokensForNode()": "2d55282d",
          "lpToken()": "5fcbd285",
          "multiTransferERC20TightlyPacked(address,bytes32[],uint256,uint256,bytes32[])": "ad289e76",
          "nodeRewardsRatio()": "0b68134d",
          "owner()": "8da5cb5b",
          "recordIncomingFloat(address,bytes32,bool,bytes32)": "63f289d9",
          "recordOutcomingFloat(address,bytes32,uint256,bytes32)": "2586c562",
          "recordSkyPoolsTX(address,address,uint256,bytes32[])": "30adb118",
          "recordUTXOSweepMinerFee(uint256,bytes32)": "c810a539",
          "redeemERC20Token(address,uint256)": "4db75485",
          "renounceOwnership()": "715018a6",
          "singleTransferERC20(address,address,uint256,uint256,uint256,bytes32[])": "0d63aca7",
          "tokens(address,address)": "508493bc",
          "transferOwnership(address)": "f2fde38b",
          "tssThreshold()": "12d1441e",
          "whitelist(address)": "9b19251a",
          "withdrawalFeeBPS()": "b6268e5d"
        }
      }
    }
  }
}