{
  "contracts/SwapContract.sol": {
    "SwapContract": {
      "abi": [
        {
          "inputs": [
            {
              "internalType": "address",
              "name": "_lpToken",
              "type": "address"
            },
            {
              "internalType": "address",
              "name": "_btct",
              "type": "address"
            },
            {
              "internalType": "uint256",
              "name": "_existingBTCFloat",
              "type": "uint256"
            }
          ],
          "stateMutability": "nonpayable",
          "type": "constructor"
        },
        {
          "anonymous": false,
          "inputs": [
            {
              "indexed": false,
              "internalType": "address",
              "name": "token",
              "type": "address"
            },
            {
              "indexed": false,
              "internalType": "uint256",
              "name": "amountOfLP",
              "type": "uint256"
            },
            {
              "indexed": false,
              "internalType": "uint256",
              "name": "amountOfFloat",
              "type": "uint256"
            },
            {
              "indexed": false,
              "internalType": "uint256",
              "name": "currentPriceLP",
              "type": "uint256"
            },
            {
              "indexed": false,
              "internalType": "uint256",
              "name": "withdrawal",
              "type": "uint256"
            },
            {
              "indexed": false,
              "internalType": "bytes32",
              "name": "txid",
              "type": "bytes32"
            }
          ],
          "name": "BurnLPTokensForFloat",
          "type": "event"
        },
        {
          "anonymous": false,
          "inputs": [
            {
              "indexed": false,
              "internalType": "uint256",
              "name": "rewardLPTsForNodes",
              "type": "uint256"
            }
          ],
          "name": "DistributeNodeRewards",
          "type": "event"
        },
        {
          "anonymous": false,
          "inputs": [
            {
              "indexed": false,
              "internalType": "address",
              "name": "to",
              "type": "address"
            },
            {
              "indexed": false,
              "internalType": "uint256",
              "name": "amountOfFloat",
              "type": "uint256"
            },
            {
              "indexed": false,
              "internalType": "uint256",
              "name": "amountOfLP",
              "type": "uint256"
            },
            {
              "indexed": false,
              "internalType": "uint256",
              "name": "currentPriceLP",
              "type": "uint256"
            },
            {
              "indexed": false,
              "internalType": "uint256",
              "name": "depositFees",
              "type": "uint256"
            },
            {
              "indexed": false,
              "internalType": "bytes32",
              "name": "txid",
              "type": "bytes32"
            }
          ],
          "name": "IssueLPTokensForFloat",
          "type": "event"
        },
        {
          "anonymous": false,
          "inputs": [
            {
              "indexed": true,
              "internalType": "address",
              "name": "previousOwner",
              "type": "address"
            },
            {
              "indexed": true,
              "internalType": "address",
              "name": "newOwner",
              "type": "address"
            }
          ],
          "name": "OwnershipTransferred",
          "type": "event"
        },
        {
          "anonymous": false,
          "inputs": [
            {
              "indexed": false,
              "internalType": "address",
              "name": "feesToken",
              "type": "address"
            },
            {
              "indexed": false,
              "internalType": "uint256",
              "name": "rewards",
              "type": "uint256"
            },
            {
              "indexed": false,
              "internalType": "uint256",
              "name": "amountLPTokensForNode",
              "type": "uint256"
            },
            {
              "indexed": false,
              "internalType": "uint256",
              "name": "currentPriceLP",
              "type": "uint256"
            }
          ],
          "name": "RewardsCollection",
          "type": "event"
        },
        {
          "anonymous": false,
          "inputs": [
            {
              "indexed": false,
              "internalType": "address",
              "name": "from",
              "type": "address"
            },
            {
              "indexed": false,
              "internalType": "address",
              "name": "to",
              "type": "address"
            },
            {
              "indexed": false,
              "internalType": "uint256",
              "name": "amount",
              "type": "uint256"
            }
          ],
          "name": "Swap",
          "type": "event"
        },
        {
          "stateMutability": "nonpayable",
          "type": "fallback"
        },
        {
          "inputs": [],
          "name": "BTCT_ADDR",
          "outputs": [
            {
              "internalType": "address",
              "name": "",
              "type": "address"
            }
          ],
          "stateMutability": "view",
          "type": "function"
        },
        {
          "inputs": [
            {
              "internalType": "address",
              "name": "_token",
              "type": "address"
            },
            {
              "internalType": "address",
              "name": "_user",
              "type": "address"
            }
          ],
          "name": "balanceOf",
          "outputs": [
            {
              "internalType": "uint256",
              "name": "",
              "type": "uint256"
            }
          ],
          "stateMutability": "view",
          "type": "function"
        },
        {
          "inputs": [
            {
              "internalType": "address",
              "name": "_newOwner",
              "type": "address"
            },
            {
              "internalType": "bytes32[]",
              "name": "_rewardAddressAndAmounts",
              "type": "bytes32[]"
            },
            {
              "internalType": "bool[]",
              "name": "_isRemoved",
              "type": "bool[]"
            },
            {
              "internalType": "uint8",
              "name": "_churnedInCount",
              "type": "uint8"
            },
            {
              "internalType": "uint8",
              "name": "_tssThreshold",
              "type": "uint8"
            },
            {
              "internalType": "uint8",
              "name": "_nodeRewardsRatio",
              "type": "uint8"
            },
            {
              "internalType": "uint8",
              "name": "_withdrawalFeeBPS",
              "type": "uint8"
            }
          ],
          "name": "churn",
          "outputs": [
            {
              "internalType": "bool",
              "name": "",
              "type": "bool"
            }
          ],
          "stateMutability": "nonpayable",
          "type": "function"
        },
        {
          "inputs": [],
          "name": "churnedInCount",
          "outputs": [
            {
              "internalType": "uint8",
              "name": "",
              "type": "uint8"
            }
          ],
          "stateMutability": "view",
          "type": "function"
        },
        {
          "inputs": [
            {
              "internalType": "address",
              "name": "_destToken",
              "type": "address"
            },
            {
              "internalType": "uint256",
              "name": "_incomingAmount",
              "type": "uint256"
            },
            {
              "internalType": "uint256",
              "name": "_minerFee",
              "type": "uint256"
            },
            {
              "internalType": "uint256",
              "name": "_rewardsAmount",
              "type": "uint256"
            }
          ],
          "name": "collectSwapFeesForBTC",
          "outputs": [
            {
              "internalType": "bool",
              "name": "",
              "type": "bool"
            }
          ],
          "stateMutability": "nonpayable",
          "type": "function"
        },
        {
          "inputs": [],
          "name": "depositFeesBPS",
          "outputs": [
            {
              "internalType": "uint8",
              "name": "",
              "type": "uint8"
            }
          ],
          "stateMutability": "view",
          "type": "function"
        },
        {
          "inputs": [],
          "name": "distributeNodeRewards",
          "outputs": [
            {
              "internalType": "bool",
              "name": "",
              "type": "bool"
            }
          ],
          "stateMutability": "nonpayable",
          "type": "function"
        },
        {
          "inputs": [],
          "name": "do1InchTrade",
          "outputs": [
            {
              "internalType": "bool",
              "name": "",
              "type": "bool"
            }
          ],
          "stateMutability": "nonpayable",
          "type": "function"
        },
        {
          "inputs": [],
          "name": "doParaSwap",
          "outputs": [
            {
              "internalType": "bool",
              "name": "",
              "type": "bool"
            }
          ],
          "stateMutability": "nonpayable",
          "type": "function"
        },
        {
          "inputs": [],
          "name": "feesLPTokensForNode",
          "outputs": [
            {
              "internalType": "uint256",
              "name": "",
              "type": "uint256"
            }
          ],
          "stateMutability": "view",
          "type": "function"
        },
        {
          "inputs": [],
          "name": "getActiveNodes",
          "outputs": [
            {
              "internalType": "bytes32[]",
              "name": "",
              "type": "bytes32[]"
            }
          ],
          "stateMutability": "view",
          "type": "function"
        },
        {
          "inputs": [],
          "name": "getCurrentPriceLP",
          "outputs": [
            {
              "internalType": "uint256",
              "name": "nowPrice",
              "type": "uint256"
            }
          ],
          "stateMutability": "view",
          "type": "function"
        },
        {
          "inputs": [
            {
              "internalType": "address",
              "name": "_token",
              "type": "address"
            },
            {
              "internalType": "uint256",
              "name": "_amountOfFloat",
              "type": "uint256"
            }
          ],
          "name": "getDepositFeeRate",
          "outputs": [
            {
              "internalType": "uint256",
              "name": "depositFeeRate",
              "type": "uint256"
            }
          ],
          "stateMutability": "view",
          "type": "function"
        },
        {
          "inputs": [
            {
              "internalType": "address",
              "name": "_tokenA",
              "type": "address"
            },
            {
              "internalType": "address",
              "name": "_tokenB",
              "type": "address"
            }
          ],
          "name": "getFloatReserve",
          "outputs": [
            {
              "internalType": "uint256",
              "name": "reserveA",
              "type": "uint256"
            },
            {
              "internalType": "uint256",
              "name": "reserveB",
              "type": "uint256"
            }
          ],
          "stateMutability": "view",
          "type": "function"
        },
        {
          "inputs": [],
          "name": "initialExchangeRate",
          "outputs": [
            {
              "internalType": "uint256",
              "name": "",
              "type": "uint256"
            }
          ],
          "stateMutability": "view",
          "type": "function"
        },
        {
          "inputs": [
            {
              "internalType": "bytes32",
              "name": "_txid",
              "type": "bytes32"
            }
          ],
          "name": "isTxUsed",
          "outputs": [
            {
              "internalType": "bool",
              "name": "",
              "type": "bool"
            }
          ],
          "stateMutability": "view",
          "type": "function"
        },
        {
          "inputs": [],
          "name": "lockedLPTokensForNode",
          "outputs": [
            {
              "internalType": "uint256",
              "name": "",
              "type": "uint256"
            }
          ],
          "stateMutability": "view",
          "type": "function"
        },
        {
          "inputs": [],
          "name": "lpToken",
          "outputs": [
            {
              "internalType": "address",
              "name": "",
              "type": "address"
            }
          ],
          "stateMutability": "view",
          "type": "function"
        },
        {
          "inputs": [
            {
              "internalType": "address",
              "name": "_destToken",
              "type": "address"
            },
            {
              "internalType": "bytes32[]",
              "name": "_addressesAndAmounts",
              "type": "bytes32[]"
            },
            {
              "internalType": "uint256",
              "name": "_totalSwapped",
              "type": "uint256"
            },
            {
              "internalType": "uint256",
              "name": "_rewardsAmount",
              "type": "uint256"
            },
            {
              "internalType": "bytes32[]",
              "name": "_redeemedFloatTxIds",
              "type": "bytes32[]"
            }
          ],
          "name": "multiTransferERC20TightlyPacked",
          "outputs": [
            {
              "internalType": "bool",
              "name": "",
              "type": "bool"
            }
          ],
          "stateMutability": "nonpayable",
          "type": "function"
        },
        {
          "inputs": [],
          "name": "nodeRewardsRatio",
          "outputs": [
            {
              "internalType": "uint8",
              "name": "",
              "type": "uint8"
            }
          ],
          "stateMutability": "view",
          "type": "function"
        },
        {
          "inputs": [],
          "name": "owner",
          "outputs": [
            {
              "internalType": "address",
              "name": "",
              "type": "address"
            }
          ],
          "stateMutability": "view",
          "type": "function"
        },
        {
          "inputs": [
            {
              "internalType": "address",
              "name": "_token",
              "type": "address"
            },
            {
              "internalType": "bytes32",
              "name": "_addressesAndAmountOfFloat",
              "type": "bytes32"
            },
            {
              "internalType": "bool",
              "name": "_zerofee",
              "type": "bool"
            },
            {
              "internalType": "bytes32",
              "name": "_txid",
              "type": "bytes32"
            }
          ],
          "name": "recordIncomingFloat",
          "outputs": [
            {
              "internalType": "bool",
              "name": "",
              "type": "bool"
            }
          ],
          "stateMutability": "nonpayable",
          "type": "function"
        },
        {
          "inputs": [
            {
              "internalType": "address",
              "name": "_token",
              "type": "address"
            },
            {
              "internalType": "bytes32",
              "name": "_addressesAndAmountOfLPtoken",
              "type": "bytes32"
            },
            {
              "internalType": "uint256",
              "name": "_minerFee",
              "type": "uint256"
            },
            {
              "internalType": "bytes32",
              "name": "_txid",
              "type": "bytes32"
            }
          ],
          "name": "recordOutcomingFloat",
          "outputs": [
            {
              "internalType": "bool",
              "name": "",
              "type": "bool"
            }
          ],
          "stateMutability": "nonpayable",
          "type": "function"
        },
        {
          "inputs": [],
          "name": "recordSkyPoolsTX",
          "outputs": [
            {
              "internalType": "bool",
              "name": "",
              "type": "bool"
            }
          ],
          "stateMutability": "nonpayable",
          "type": "function"
        },
        {
          "inputs": [
            {
              "internalType": "uint256",
              "name": "_minerFee",
              "type": "uint256"
            },
            {
              "internalType": "bytes32",
              "name": "_txid",
              "type": "bytes32"
            }
          ],
          "name": "recordUTXOSweepMinerFee",
          "outputs": [
            {
              "internalType": "bool",
              "name": "",
              "type": "bool"
            }
          ],
          "stateMutability": "nonpayable",
          "type": "function"
        },
        {
          "inputs": [
            {
              "internalType": "uint256",
              "name": "_amount",
              "type": "uint256"
            }
          ],
          "name": "redeemwBTC",
          "outputs": [
            {
              "internalType": "bool",
              "name": "",
              "type": "bool"
            }
          ],
          "stateMutability": "nonpayable",
          "type": "function"
        },
        {
          "inputs": [],
          "name": "renounceOwnership",
          "outputs": [],
          "stateMutability": "nonpayable",
          "type": "function"
        },
        {
          "inputs": [
            {
              "internalType": "address",
              "name": "_destToken",
              "type": "address"
            },
            {
              "internalType": "address",
              "name": "_to",
              "type": "address"
            },
            {
              "internalType": "uint256",
              "name": "_amount",
              "type": "uint256"
            },
            {
              "internalType": "uint256",
              "name": "_totalSwapped",
              "type": "uint256"
            },
            {
              "internalType": "uint256",
              "name": "_rewardsAmount",
              "type": "uint256"
            },
            {
              "internalType": "bytes32[]",
              "name": "_redeemedFloatTxIds",
              "type": "bytes32[]"
            }
          ],
          "name": "singleTransferERC20",
          "outputs": [
            {
              "internalType": "bool",
              "name": "",
              "type": "bool"
            }
          ],
          "stateMutability": "nonpayable",
          "type": "function"
        },
        {
          "inputs": [
            {
              "internalType": "address",
              "name": "",
              "type": "address"
            },
            {
              "internalType": "address",
              "name": "",
              "type": "address"
            }
          ],
          "name": "tokens",
          "outputs": [
            {
              "internalType": "uint256",
              "name": "",
              "type": "uint256"
            }
          ],
          "stateMutability": "view",
          "type": "function"
        },
        {
          "inputs": [
            {
              "internalType": "address",
              "name": "newOwner",
              "type": "address"
            }
          ],
          "name": "transferOwnership",
          "outputs": [],
          "stateMutability": "nonpayable",
          "type": "function"
        },
        {
          "inputs": [],
          "name": "tssThreshold",
          "outputs": [
            {
              "internalType": "uint8",
              "name": "",
              "type": "uint8"
            }
          ],
          "stateMutability": "view",
          "type": "function"
        },
        {
          "inputs": [
            {
              "internalType": "address",
              "name": "",
              "type": "address"
            }
          ],
          "name": "whitelist",
          "outputs": [
            {
              "internalType": "bool",
              "name": "",
              "type": "bool"
            }
          ],
          "stateMutability": "view",
          "type": "function"
        },
        {
          "inputs": [],
          "name": "withdrawalFeeBPS",
          "outputs": [
            {
              "internalType": "uint8",
              "name": "",
              "type": "uint8"
            }
          ],
          "stateMutability": "view",
          "type": "function"
        }
      ],
      "evm": {
        "bytecode": {
          "linkReferences": {},
          "object": "60806040523480156200001157600080fd5b5060405162002f1838038062002f18833981810160405260608110156200003757600080fd5b508051602082015160409092015190919060006200005462000296565b600080546001600160a01b0319166001600160a01b0383169081178255604051929350917f8be0079c531659141344cd1fd0a4f28419497f9722a3daafe3b4186f6b6457e0908290a350600280546001600160a01b0319166001600160a01b0385811691909117918290556040805163313ce56760e01b81529051929091169163313ce56791600480820192602092909190829003018186803b158015620000fb57600080fd5b505afa15801562000110573d6000803e3d6000fd5b505050506040513d60208110156200012757600080fd5b505160ff16600a0a600955600180546001600160a01b0319166001600160a01b0384169081179091556004805462ff00001916624200001763ff000000191663320000001760ff60201b19166414000000001781556040805163313ce56760e01b815290516008939263313ce56792808201926020929091829003018186803b158015620001b457600080fd5b505afa158015620001c9573d6000803e3d6000fd5b505050506040513d6020811015620001e057600080fd5b50510360ff16600a90810a600855600954600755600060058190556006819055600180546001600160a01b039081168352600360209081526040808520805460ff1990811686179091556002549093168552842080548316841790559280527f3617319a054d772f909f7c479a2cebe5066e836a939412e32403c99029b92eff80549091169091179055527f13da86008ba1c6922daee3e07db95305ef49ebced9f5467a0b8613fcc6b343e355506200029a9050565b3390565b612c6e80620002aa6000396000f3fe608060405234801561001057600080fd5b50600436106101fa5760003560e01c80635fcbd2851161011a578063ad289e76116100ad578063e9e9bf6a1161007c578063e9e9bf6a14610802578063ec4827291461080a578063f2fde38b14610851578063f7824bc714610877578063f7888aec1461087f576101fa565b8063ad289e761461067b578063b6268e5d146107ba578063c810a539146107c2578063e6ca2084146107e5576101fa565b8063715018a6116100e9578063715018a61461060b5780638006cc3e146106155780638da5cb5b1461064d5780639b19251a14610655576101fa565b80635fcbd2851461056957806363f289d9146105715780636b51e919146105ab5780636d019f3514610603576101fa565b80633b6fa1271161019257806345137e271161016157806345137e27146103e557806345468b661461032a5780634e54cee0146103ed578063508493bc1461053b576101fa565b80633b6fa1271461038c5780633c8cf602146103b857806342419255146103c0578063429dec96146103c8576101fa565b80630fd3d41c116101ce5780630fd3d41c1461032a57806312d1441e146103325780632586c5621461033a5780632d55282d14610372576101fa565b806289356f146101ff5780630b68134d1461021d5780630d63aca7146102255780630f90948614610306575b600080fd5b6102076108ad565b6040805160ff9092168252519081900360200190f35b6102076108b6565b6102f2600480360360c081101561023b57600080fd5b6001600160a01b0382358116926020810135909116916040820135916060810135916080820135919081019060c0810160a0820135600160201b81111561028157600080fd5b82018360208201111561029357600080fd5b803590602001918460208302840111600160201b831117156102b457600080fd5b9190808060200260200160405190810160405280939291908181526020018383602002808284376000920191909152509295506108c5945050505050565b604080519115158252519081900360200190f35b61030e610a64565b604080516001600160a01b039092168252519081900360200190f35b6102f2610a73565b610207610a78565b6102f26004803603608081101561035057600080fd5b506001600160a01b038135169060208101359060408101359060600135610a86565b61037a610bca565b60408051918252519081900360200190f35b61037a600480360360408110156103a257600080fd5b506001600160a01b038135169060200135610bd0565b6102f2610c5c565b610207610cc3565b6102f2600480360360208110156103de57600080fd5b5035610cd3565b61037a610d55565b6102f2600480360360e081101561040357600080fd5b6001600160a01b038235169190810190604081016020820135600160201b81111561042d57600080fd5b82018360208201111561043f57600080fd5b803590602001918460208302840111600160201b8311171561046057600080fd5b9190808060200260200160405190810160405280939291908181526020018383602002808284376000920191909152509295949360208101935035915050600160201b8111156104af57600080fd5b8201836020820111156104c157600080fd5b803590602001918460208302840111600160201b831117156104e257600080fd5b9190808060200260200160405190810160405280939291908181526020018383602002808284376000920191909152509295505060ff833581169450602084013581169360408101358216935060600135169050610e41565b61037a6004803603604081101561055157600080fd5b506001600160a01b038135811691602001351661115f565b61030e61117c565b6102f26004803603608081101561058757600080fd5b506001600160a01b038135169060208101359060408101351515906060013561118b565b6105b3611269565b60408051602080825283518183015283519192839290830191858101910280838360005b838110156105ef5781810151838201526020016105d7565b505050509050019250505060405180910390f35b61037a6113c8565b6106136113ce565b005b6102f26004803603608081101561062b57600080fd5b506001600160a01b03813516906020810135906040810135906060013561147a565b61030e6115ab565b6102f26004803603602081101561066b57600080fd5b50356001600160a01b03166115ba565b6102f2600480360360a081101561069157600080fd5b6001600160a01b038235169190810190604081016020820135600160201b8111156106bb57600080fd5b8201836020820111156106cd57600080fd5b803590602001918460208302840111600160201b831117156106ee57600080fd5b9190808060200260200160405190810160405280939291908181526020018383602002808284376000920191909152509295843595602086013595919450925060608101915060400135600160201b81111561074957600080fd5b82018360208201111561075b57600080fd5b803590602001918460208302840111600160201b8311171561077c57600080fd5b9190808060200260200160405190810160405280939291908181526020018383602002808284376000920191909152509295506115cf945050505050565b6102076117a9565b6102f2600480360360408110156107d857600080fd5b50803590602001356117b9565b6102f2600480360360208110156107fb57600080fd5b503561191e565b6102f2611933565b6108386004803603604081101561082057600080fd5b506001600160a01b0381358116916020013516611b9a565b6040805192835260208301919091528051918290030190f35b6106136004803603602081101561086757600080fd5b50356001600160a01b0316611bc4565b61037a611cc6565b61037a6004803603604081101561089557600080fd5b506001600160a01b0381358116916020013516611ccc565b60045460ff1681565b60045462010000900460ff1681565b60006108cf611cf7565b6001600160a01b03166108e06115ab565b6001600160a01b031614610929576040805162461bcd60e51b81526020600482018190526024820152600080516020612b94833981519152604482015290519081900360640190fd5b6001600160a01b03871660009081526003602052604090205460ff16610996576040805162461bcd60e51b815260206004820152601d60248201527f5f64657374546f6b656e206973206e6f742077686974656c6973746564000000604482015290519081900360640190fd5b6001600160a01b0387166109db5760405162461bcd60e51b8152600401808060200182810382526023815260200180612c166023913960400191505060405180910390fd5b60008415610a01576001546109fc906000906001600160a01b031687611cfb565b610a14565b84610a1457506001546001600160a01b03165b6002546001600160a01b0389811691161415610a3857506002546001600160a01b03165b610a428185611de7565b610a4b83611f5e565b610a56888888611fad565b506001979650505050505050565b6001546001600160a01b031681565b600090565b600454610100900460ff1681565b6000610a90611cf7565b6001600160a01b0316610aa16115ab565b6001600160a01b031614610aea576040805162461bcd60e51b81526020600482018190526024820152600080516020612b94833981519152604482015290519081900360640190fd5b6000610af4610d55565b6001600160a01b03871660009081526003602052604090205490915060ff16610b58576040805162461bcd60e51b815260206004820152601160248201527017dd1bdad95b881a5cc81a5b9d985b1a59607a1b604482015290519081900360640190fd5b610b6486868686612065565b610b6d57600080fd5b6001915080610b7a610d55565b1015610bc1576040805162461bcd60e51b8152602060048201526011602482015270496e76616c6964204c505420707269636560781b604482015290519081900360640190fd5b50949350505050565b60055481565b600080610bdd8484612401565b90508060ff1660011415610c1f576001546001600160a01b03858116911614610c07576000610c15565b6004546301000000900460ff165b60ff169150610c55565b8060ff1660021415610c55576001600160a01b03841615610c41576000610c4f565b6004546301000000900460ff165b60ff1691505b5092915050565b6000610c66611cf7565b6001600160a01b0316610c776115ab565b6001600160a01b031614610cc0576040805162461bcd60e51b81526020600482018190526024820152600080516020612b94833981519152604482015290519081900360640190fd5b90565b6004546301000000900460ff1681565b6001546001600160a01b03166000908152600f60209081526040808320338452909152812054821115610d0557600080fd5b6001546001600160a01b03166000908152600f60209081526040808320338452909152902054610d3590836124bb565b50600154610d4d906001600160a01b03163384611fad565b506001919050565b60015460009081908190610d739082906001600160a01b0316611b9a565b915091506000600260009054906101000a90046001600160a01b03166001600160a01b03166318160ddd6040518163ffffffff1660e01b815260040160206040518083038186803b158015610dc757600080fd5b505afa158015610ddb573d6000803e3d6000fd5b505050506040513d6020811015610df157600080fd5b505190508015610e3557610e30610e136005548361251890919063ffffffff16565b600954610e2a90610e248787612518565b90612579565b906125d2565b610e39565b6007545b935050505090565b6000610e4b611cf7565b6001600160a01b0316610e5c6115ab565b6001600160a01b031614610ea5576040805162461bcd60e51b81526020600482018190526024820152600080516020612b94833981519152604482015290519081900360640190fd5b60045460ff610100909104811690851610801590610ec7575060ff8460ff1611155b610f025760405162461bcd60e51b8152600401808060200182810382526027815260200180612b2b6027913960400191505060405180910390fd5b6001840160ff168560ff161015610f55576040805162461bcd60e51b81526020600482015260126024820152716e2073686f756c64206265203e3d20742b3160701b604482015290519081900360640190fd5b60648360ff161115610fae576040805162461bcd60e51b815260206004820152601e60248201527f5f6e6f646552657761726473526174696f206973206e6f742076616c69640000604482015290519081900360640190fd5b60648260ff161115611007576040805162461bcd60e51b815260206004820152601c60248201527f5f7769746864726177616c46656542505320697320696e76616c696400000000604482015290519081900360640190fd5b85518751146110475760405162461bcd60e51b815260040180806020018281038252603b815260200180612bdb603b913960400191505060405180910390fd5b61105088611bc4565b60005b87518110156110b857600061107a89838151811061106d57fe5b6020026020010151612639565b5090506110ae818a848151811061108d57fe5b60200260200101518a85815181106110a157fe5b6020026020010151612642565b5050600101611053565b5060606110c3611269565b90506064815111156111065760405162461bcd60e51b8152600401808060200182810382526021815260200180612b736021913960400191505060405180910390fd5b50506004805460ff191660ff9586161761ff001916610100948616949094029390931762ff0000191662010000928516929092029190911764ff000000001916600160201b919093160291909117905550600192915050565b600f60209081526000928352604080842090915290825290205481565b6002546001600160a01b031681565b6000611195611cf7565b6001600160a01b03166111a66115ab565b6001600160a01b0316146111ef576040805162461bcd60e51b81526020600482018190526024820152600080516020612b94833981519152604482015290519081900360640190fd5b60006111f9610d55565b6001600160a01b03871660009081526003602052604090205490915060ff1661125d576040805162461bcd60e51b815260206004820152601160248201527017dd1bdad95b881a5cc81a5b9d985b1a59607a1b604482015290519081900360640190fd5b610b6486868686612732565b606060008060005b600e548110156112cc57600c6000600e838154811061128c57fe5b60009182526020808320909101546001600160a01b03168352820192909252604001902054156112c4576112c1836001612518565b92505b600101611271565b5060608267ffffffffffffffff811180156112e657600080fd5b50604051908082528060200260200182016040528015611310578160200160208202803683370190505b50905060005b600e548110156113c057600c6000600e838154811061133157fe5b60009182526020808320909101546001600160a01b03168352820192909252604001902054156113b857600c6000600e838154811061136c57fe5b60009182526020808320909101546001600160a01b03168352820192909252604001902054825183908590811061139f57fe5b60209081029190910101526113b5836001612518565b92505b600101611316565b509250505090565b60075481565b6113d6611cf7565b6001600160a01b03166113e76115ab565b6001600160a01b031614611430576040805162461bcd60e51b81526020600482018190526024820152600080516020612b94833981519152604482015290519081900360640190fd5b600080546040516001600160a01b03909116907f8be0079c531659141344cd1fd0a4f28419497f9722a3daafe3b4186f6b6457e0908390a3600080546001600160a01b0319169055565b6000611484611cf7565b6001600160a01b03166114956115ab565b6001600160a01b0316146114de576040805162461bcd60e51b81526020600482018190526024820152600080516020612b94833981519152604482015290519081900360640190fd5b6001600160a01b0385161561153a576040805162461bcd60e51b815260206004820152601f60248201527f5f64657374546f6b656e2073686f756c64206265206164647265737328302900604482015290519081900360640190fd5b6001546001600160a01b0316841561158c5760006115628561155c88876124bb565b906124bb565b600154909150611586906001600160a01b031660006115818489612518565b611cfb565b50611595565b84611595575060005b61159f8184611de7565b50600195945050505050565b6000546001600160a01b031690565b60036020526000908152604090205460ff1681565b60006115d9611cf7565b6001600160a01b03166115ea6115ab565b6001600160a01b031614611633576040805162461bcd60e51b81526020600482018190526024820152600080516020612b94833981519152604482015290519081900360640190fd5b6001600160a01b03861660009081526003602052604090205460ff166116a0576040805162461bcd60e51b815260206004820152601d60248201527f5f64657374546f6b656e206973206e6f742077686974656c6973746564000000604482015290519081900360640190fd5b6001600160a01b0386166116e55760405162461bcd60e51b8152600401808060200182810382526023815260200180612c166023913960400191505060405180910390fd5b6000841561170b57600154611706906000906001600160a01b031687611cfb565b61171e565b8461171e57506001546001600160a01b03165b6002546001600160a01b038881169116141561174257506002546001600160a01b03165b61174c8185611de7565b61175583611f5e565b60005b8651811015610a56576117a18888838151811061177157fe5b602002602001015160001c89848151811061178857fe5b602002602001015160a01c6001600160601b0316611fad565b600101611758565b600454600160201b900460ff1681565b60006117c3611cf7565b6001600160a01b03166117d46115ab565b6001600160a01b03161461181d576040805162461bcd60e51b81526020600482018190526024820152600080516020612b94833981519152604482015290519081900360640190fd5b6118268261191e565b15611873576040805162461bcd60e51b8152602060048201526018602482015277151a19481d1e1a59081a5cc8185b1c9958591e481d5cd95960421b604482015290519081900360640190fd5b60408051808201909152601d81527f42544320666c6f617420616d6f756e7420696e73756666696369656e7400000060208083019190915260008052600a90527f13da86008ba1c6922daee3e07db95305ef49ebced9f5467a0b8613fcc6b343e3546118e0918590612979565b60008052600a6020527f13da86008ba1c6922daee3e07db95305ef49ebced9f5467a0b8613fcc6b343e35561191482612a10565b5060015b92915050565b6000908152600b602052604090205460ff1690565b60008061194d60065460055461251890919063ffffffff16565b90506000811161198e5760405162461bcd60e51b8152600401808060200182810382526025815260200180612aac6025913960400191505060405180910390fd5b6060611998611269565b90506000805b82518110156119e3576119d98382815181106119b657fe5b602002602001015160a01c6001600160601b03168361251890919063ffffffff16565b915060010161199e565b50600254600554604080516340c10f1960e01b81523060048201526024810192909252516001600160a01b03909216916340c10f19916044808201926020929091908290030181600087803b158015611a3b57600080fd5b505af1158015611a4f573d6000803e3d6000fd5b505050506040513d6020811015611a6557600080fd5b50600090505b8251811015611b525760025483516001600160a01b039091169063a9059cbb90859084908110611a9757fe5b602002602001015160001c611ad885610e2a888781518110611ab557fe5b602002602001015160a01c6001600160601b03168a61257990919063ffffffff16565b6040518363ffffffff1660e01b815260040180836001600160a01b0316815260200182815260200192505050602060405180830381600087803b158015611b1e57600080fd5b505af1158015611b32573d6000803e3d6000fd5b505050506040513d6020811015611b4857600080fd5b5050600101611a6b565b506040805184815290517f86dd6ae252e62228b47b3c1a12762cbf634952b2d29319b04f4f72fb153bcbdd9181900360200190a1505060006005819055600655506001905090565b6001600160a01b039182166000908152600a60205260408082205492909316815291909120549091565b611bcc611cf7565b6001600160a01b0316611bdd6115ab565b6001600160a01b031614611c26576040805162461bcd60e51b81526020600482018190526024820152600080516020612b94833981519152604482015290519081900360640190fd5b6001600160a01b038116611c6b5760405162461bcd60e51b8152600401808060200182810382526026815260200180612b056026913960400191505060405180910390fd5b600080546040516001600160a01b03808516939216917f8be0079c531659141344cd1fd0a4f28419497f9722a3daafe3b4186f6b6457e091a3600080546001600160a01b0319166001600160a01b0392909216919091179055565b60065481565b6001600160a01b039182166000908152600f6020908152604080832093909416825291909152205490565b3390565b60408051808201825260208082527f5f737761703a20666c6f617420616d6f756e7420696e73756666696369656e74818301526001600160a01b0385166000908152600a9091529190912054611d52918390612979565b6001600160a01b038084166000908152600a60205260408082209390935590851681522054611d819082612518565b6001600160a01b038085166000818152600a602090815260409182902094909455805191825291851692810192909252818101839052517fea368a40e9570069bb8e6511d668293ad2e1f03b0d982431fd223de9f3b70ca69181900360600190a1505050565b80611df157611f5a565b6002546001600160a01b0383811691161415611e6c57600654611e149082612518565b600655604080516001600160a01b0384168152602081018390526000818301819052606082015290517fe3debe835f6848edc082b32a1d729781d3bfcd7e14422d80bcaa6794d3816b2f9181900360800190a1611f5a565b6000611e76610d55565b6001600160a01b0384166000908152600a6020526040902054909150611e9c9083612518565b6001600160a01b0384166000908152600a6020526040812091909155600454611ed690606490610e2a90869062010000900460ff16612579565b90506000611ef383610e2a6009548561257990919063ffffffff16565b600554909150611f039082612518565b600555604080516001600160a01b0387168152602081018690528082018390526060810185905290517fe3debe835f6848edc082b32a1d729781d3bfcd7e14422d80bcaa6794d3816b2f9181900360800190a15050505b5050565b60005b8151811015611f5a576001600b6000848481518110611f7c57fe5b6020908102919091018101518252810191909152604001600020805460ff1916911515919091179055600101611f61565b6001546001600160a01b0384811691161415611fd457600854611fd1908290612579565b90505b826001600160a01b031663a9059cbb83836040518363ffffffff1660e01b815260040180836001600160a01b0316815260200182815260200192505050602060405180830381600087803b15801561202b57600080fd5b505af115801561203f573d6000803e3d6000fd5b505050506040513d602081101561205557600080fd5b505161206057600080fd5b505050565b60006120708261191e565b156120bd576040805162461bcd60e51b8152602060048201526018602482015277151a19481d1e1a59081a5cc8185b1c9958591e481d5cd95960421b604482015290519081900360640190fd5b8361210f576040805162461bcd60e51b815260206004820152601c60248201527f546865207472616e73616374696f6e206973206e6f742076616c696400000000604482015290519081900360640190fd5b60008061211b86612639565b915091506000612129610d55565b90506000612146600954610e2a848661257990919063ffffffff16565b60045490915060009061216c9061271090610e2a908590600160201b900460ff16612579565b90508761217983836124bb565b10156121b65760405162461bcd60e51b8152600401808060200182810382526034815260200180612ad16034913960400191505060405180910390fd5b60006121c68961155c85856124bb565b60015490915060009081906121e59082906001600160a01b0316611b9a565b90925090506001600160a01b038d1661225b5761220285856124bb565b821015612256576040805162461bcd60e51b815260206004820152601f60248201527f54686520666c6f61742062616c616e636520696e73756666696369656e742e00604482015290519081900360640190fd5b6122cf565b6001546001600160a01b038e8116911614156122cf5761227b85856124bb565b8110156122cf576040805162461bcd60e51b815260206004820152601f60248201527f54686520666c6f61742062616c616e636520696e73756666696369656e742e00604482015290519081900360640190fd5b6122d98d85611de7565b6122e38d86612a2b565b6122ec8a612a10565b6001546001600160a01b038e81169116141561230d5761230d8d8985611fad565b60025460408051630852cd8d60e31b8152600481018a905290516001600160a01b03909216916342966c68916024808201926020929091908290030181600087803b15801561235b57600080fd5b505af115801561236f573d6000803e3d6000fd5b505050506040513d602081101561238557600080fd5b505161239057600080fd5b604080516001600160a01b038a16815260208101899052808201879052606081018890526080810185905260a081018c905290517fa9da34e5e4a956b744307ae7611795634e8365951073bf049d76b64b2ae7a0589181900360c00190a15060019c9b505050505050505050505050565b6001546000908190819061241f9082906001600160a01b0316611b9a565b909250905060006124446003610e2a6002610e248961243e8989612518565b90612518565b6001549091506001600160a01b03878116911614801561246d57508061246a8387612518565b10155b1561247e5760019350505050611918565b6001600160a01b03861615801561249e57508061249b8487612518565b10155b156124af5760029350505050611918565b50600095945050505050565b600082821115612512576040805162461bcd60e51b815260206004820152601e60248201527f536166654d6174683a207375627472616374696f6e206f766572666c6f770000604482015290519081900360640190fd5b50900390565b600082820183811015612572576040805162461bcd60e51b815260206004820152601b60248201527f536166654d6174683a206164646974696f6e206f766572666c6f770000000000604482015290519081900360640190fd5b9392505050565b60008261258857506000611918565b8282028284828161259557fe5b04146125725760405162461bcd60e51b8152600401808060200182810382526021815260200180612b526021913960400191505060405180910390fd5b6000808211612628576040805162461bcd60e51b815260206004820152601a60248201527f536166654d6174683a206469766973696f6e206279207a65726f000000000000604482015290519081900360640190fd5b81838161263157fe5b049392505050565b9060a082901c90565b6000811561266b57506001600160a01b0383166000908152600c60205260408120556001612572565b6001600160a01b0384166000908152600d602052604090205460ff166126ef57600e805460018082019092557fbb7b4a454dc3493923482f07822329ed19e8244eff582cc204f8554c3620c3fd0180546001600160a01b0319166001600160a01b0387169081179091556000908152600d60205260409020805460ff191690911790555b6001600160a01b0384166000908152600c6020526040902054612728576001600160a01b0384166000908152600c602052604090208390555b5060019392505050565b600061273d8261191e565b1561278a576040805162461bcd60e51b8152602060048201526018602482015277151a19481d1e1a59081a5cc8185b1c9958591e481d5cd95960421b604482015290519081900360640190fd5b836127dc576040805162461bcd60e51b815260206004820152601c60248201527f546865207472616e73616374696f6e206973206e6f742076616c696400000000604482015290519081900360640190fd5b6000806127e886612639565b9150915060006127f6610d55565b9050600061281382610e2a6009548661257990919063ffffffff16565b905060006128218a85610bd0565b9050600081612831576000612841565b612841612710610e2a8585612579565b905088801561284f57508015155b1561285957600080fd5b6002546001600160a01b03166340c10f198761287586856124bb565b6040518363ffffffff1660e01b815260040180836001600160a01b0316815260200182815260200192505050602060405180830381600087803b1580156128bb57600080fd5b505af11580156128cf573d6000803e3d6000fd5b505050506040513d60208110156128e557600080fd5b50506005546128f49082612518565b6005556129018b86612a88565b61290a88612a10565b604080516001600160a01b038816815260208101879052808201859052606081018690526080810183905260a081018a905290517fdfaf4e23f7030adafec91a682e05bf9fb30c721f9cec3d8bcfae0459c5362db19181900360c00190a15060019a9950505050505050505050565b60008184841115612a085760405162461bcd60e51b81526004018080602001828103825283818151815260200191508051906020019080838360005b838110156129cd5781810151838201526020016129b5565b50505050905090810190601f1680156129fa5780820380516001836020036101000a031916815260200191505b509250505060405180910390fd5b505050900390565b6000908152600b60205260409020805460ff19166001179055565b612a6881604051806060016040528060278152602001612bb4602791396001600160a01b0385166000908152600a60205260409020549190612979565b6001600160a01b039092166000908152600a602052604090209190915550565b6001600160a01b0382166000908152600a6020526040902054612a68908261251856fe746f74616c5265776172644c5073466f724e6f6465206973206e6f7420706f7369746976654572726f723a20616d6f756e744f66466c6f61742e737562287769746864726177616c4665657329203c205f6d696e65724665654f776e61626c653a206e6577206f776e657220697320746865207a65726f20616464726573735f7473735468726573686f6c642073686f756c64206265203e3d207473735468726573686f6c64536166654d6174683a206d756c7469706c69636174696f6e206f766572666c6f7753746f726564206e6f64652073697a652073686f756c64206265203c3d203130304f776e61626c653a2063616c6c6572206973206e6f7420746865206f776e65725f72656d6f7665466c6f61743a20666c6f617420616d6f756e7420696e73756666696369656e745f72657761726441646472657373416e64416d6f756e747320616e64205f697352656d6f766564206c656e677468206973206e6f74206d617463685f64657374546f6b656e2073686f756c64206e6f742062652061646472657373283029a2646970667358221220e06ca54240d3d4426a93931684530489eefd55ea97f2323f377c9b6970936f2864736f6c63430007030033",
          "opcodes": "PUSH1 0x80 PUSH1 0x40 MSTORE CALLVALUE DUP1 ISZERO PUSH3 0x11 JUMPI PUSH1 0x0 DUP1 REVERT JUMPDEST POP PUSH1 0x40 MLOAD PUSH3 0x2F18 CODESIZE SUB DUP1 PUSH3 0x2F18 DUP4 CODECOPY DUP2 DUP2 ADD PUSH1 0x40 MSTORE PUSH1 0x60 DUP2 LT ISZERO PUSH3 0x37 JUMPI PUSH1 0x0 DUP1 REVERT JUMPDEST POP DUP1 MLOAD PUSH1 0x20 DUP3 ADD MLOAD PUSH1 0x40 SWAP1 SWAP3 ADD MLOAD SWAP1 SWAP2 SWAP1 PUSH1 0x0 PUSH3 0x54 PUSH3 0x296 JUMP JUMPDEST PUSH1 0x0 DUP1 SLOAD PUSH1 0x1 PUSH1 0x1 PUSH1 0xA0 SHL SUB NOT AND PUSH1 0x1 PUSH1 0x1 PUSH1 0xA0 SHL SUB DUP4 AND SWAP1 DUP2 OR DUP3 SSTORE PUSH1 0x40 MLOAD SWAP3 SWAP4 POP SWAP2 PUSH32 0x8BE0079C531659141344CD1FD0A4F28419497F9722A3DAAFE3B4186F6B6457E0 SWAP1 DUP3 SWAP1 LOG3 POP PUSH1 0x2 DUP1 SLOAD PUSH1 0x1 PUSH1 0x1 PUSH1 0xA0 SHL SUB NOT AND PUSH1 0x1 PUSH1 0x1 PUSH1 0xA0 SHL SUB DUP6 DUP2 AND SWAP2 SWAP1 SWAP2 OR SWAP2 DUP3 SWAP1 SSTORE PUSH1 0x40 DUP1 MLOAD PUSH4 0x313CE567 PUSH1 0xE0 SHL DUP2 MSTORE SWAP1 MLOAD SWAP3 SWAP1 SWAP2 AND SWAP2 PUSH4 0x313CE567 SWAP2 PUSH1 0x4 DUP1 DUP3 ADD SWAP3 PUSH1 0x20 SWAP3 SWAP1 SWAP2 SWAP1 DUP3 SWAP1 SUB ADD DUP2 DUP7 DUP1 EXTCODESIZE ISZERO DUP1 ISZERO PUSH3 0xFB JUMPI PUSH1 0x0 DUP1 REVERT JUMPDEST POP GAS STATICCALL ISZERO DUP1 ISZERO PUSH3 0x110 JUMPI RETURNDATASIZE PUSH1 0x0 DUP1 RETURNDATACOPY RETURNDATASIZE PUSH1 0x0 REVERT JUMPDEST POP POP POP POP PUSH1 0x40 MLOAD RETURNDATASIZE PUSH1 0x20 DUP2 LT ISZERO PUSH3 0x127 JUMPI PUSH1 0x0 DUP1 REVERT JUMPDEST POP MLOAD PUSH1 0xFF AND PUSH1 0xA EXP PUSH1 0x9 SSTORE PUSH1 0x1 DUP1 SLOAD PUSH1 0x1 PUSH1 0x1 PUSH1 0xA0 SHL SUB NOT AND PUSH1 0x1 PUSH1 0x1 PUSH1 0xA0 SHL SUB DUP5 AND SWAP1 DUP2 OR SWAP1 SWAP2 SSTORE PUSH1 0x4 DUP1 SLOAD PUSH3 0xFF0000 NOT AND PUSH3 0x420000 OR PUSH4 0xFF000000 NOT AND PUSH4 0x32000000 OR PUSH1 0xFF PUSH1 0x20 SHL NOT AND PUSH5 0x1400000000 OR DUP2 SSTORE PUSH1 0x40 DUP1 MLOAD PUSH4 0x313CE567 PUSH1 0xE0 SHL DUP2 MSTORE SWAP1 MLOAD PUSH1 0x8 SWAP4 SWAP3 PUSH4 0x313CE567 SWAP3 DUP1 DUP3 ADD SWAP3 PUSH1 0x20 SWAP3 SWAP1 SWAP2 DUP3 SWAP1 SUB ADD DUP2 DUP7 DUP1 EXTCODESIZE ISZERO DUP1 ISZERO PUSH3 0x1B4 JUMPI PUSH1 0x0 DUP1 REVERT JUMPDEST POP GAS STATICCALL ISZERO DUP1 ISZERO PUSH3 0x1C9 JUMPI RETURNDATASIZE PUSH1 0x0 DUP1 RETURNDATACOPY RETURNDATASIZE PUSH1 0x0 REVERT JUMPDEST POP POP POP POP PUSH1 0x40 MLOAD RETURNDATASIZE PUSH1 0x20 DUP2 LT ISZERO PUSH3 0x1E0 JUMPI PUSH1 0x0 DUP1 REVERT JUMPDEST POP MLOAD SUB PUSH1 0xFF AND PUSH1 0xA SWAP1 DUP2 EXP PUSH1 0x8 SSTORE PUSH1 0x9 SLOAD PUSH1 0x7 SSTORE PUSH1 0x0 PUSH1 0x5 DUP2 SWAP1 SSTORE PUSH1 0x6 DUP2 SWAP1 SSTORE PUSH1 0x1 DUP1 SLOAD PUSH1 0x1 PUSH1 0x1 PUSH1 0xA0 SHL SUB SWAP1 DUP2 AND DUP4 MSTORE PUSH1 0x3 PUSH1 0x20 SWAP1 DUP2 MSTORE PUSH1 0x40 DUP1 DUP6 KECCAK256 DUP1 SLOAD PUSH1 0xFF NOT SWAP1 DUP2 AND DUP7 OR SWAP1 SWAP2 SSTORE PUSH1 0x2 SLOAD SWAP1 SWAP4 AND DUP6 MSTORE DUP5 KECCAK256 DUP1 SLOAD DUP4 AND DUP5 OR SWAP1 SSTORE SWAP3 DUP1 MSTORE PUSH32 0x3617319A054D772F909F7C479A2CEBE5066E836A939412E32403C99029B92EFF DUP1 SLOAD SWAP1 SWAP2 AND SWAP1 SWAP2 OR SWAP1 SSTORE MSTORE PUSH32 0x13DA86008BA1C6922DAEE3E07DB95305EF49EBCED9F5467A0B8613FCC6B343E3 SSTORE POP PUSH3 0x29A SWAP1 POP JUMP JUMPDEST CALLER SWAP1 JUMP JUMPDEST PUSH2 0x2C6E DUP1 PUSH3 0x2AA PUSH1 0x0 CODECOPY PUSH1 0x0 RETURN INVALID PUSH1 0x80 PUSH1 0x40 MSTORE CALLVALUE DUP1 ISZERO PUSH2 0x10 JUMPI PUSH1 0x0 DUP1 REVERT JUMPDEST POP PUSH1 0x4 CALLDATASIZE LT PUSH2 0x1FA JUMPI PUSH1 0x0 CALLDATALOAD PUSH1 0xE0 SHR DUP1 PUSH4 0x5FCBD285 GT PUSH2 0x11A JUMPI DUP1 PUSH4 0xAD289E76 GT PUSH2 0xAD JUMPI DUP1 PUSH4 0xE9E9BF6A GT PUSH2 0x7C JUMPI DUP1 PUSH4 0xE9E9BF6A EQ PUSH2 0x802 JUMPI DUP1 PUSH4 0xEC482729 EQ PUSH2 0x80A JUMPI DUP1 PUSH4 0xF2FDE38B EQ PUSH2 0x851 JUMPI DUP1 PUSH4 0xF7824BC7 EQ PUSH2 0x877 JUMPI DUP1 PUSH4 0xF7888AEC EQ PUSH2 0x87F JUMPI PUSH2 0x1FA JUMP JUMPDEST DUP1 PUSH4 0xAD289E76 EQ PUSH2 0x67B JUMPI DUP1 PUSH4 0xB6268E5D EQ PUSH2 0x7BA JUMPI DUP1 PUSH4 0xC810A539 EQ PUSH2 0x7C2 JUMPI DUP1 PUSH4 0xE6CA2084 EQ PUSH2 0x7E5 JUMPI PUSH2 0x1FA JUMP JUMPDEST DUP1 PUSH4 0x715018A6 GT PUSH2 0xE9 JUMPI DUP1 PUSH4 0x715018A6 EQ PUSH2 0x60B JUMPI DUP1 PUSH4 0x8006CC3E EQ PUSH2 0x615 JUMPI DUP1 PUSH4 0x8DA5CB5B EQ PUSH2 0x64D JUMPI DUP1 PUSH4 0x9B19251A EQ PUSH2 0x655 JUMPI PUSH2 0x1FA JUMP JUMPDEST DUP1 PUSH4 0x5FCBD285 EQ PUSH2 0x569 JUMPI DUP1 PUSH4 0x63F289D9 EQ PUSH2 0x571 JUMPI DUP1 PUSH4 0x6B51E919 EQ PUSH2 0x5AB JUMPI DUP1 PUSH4 0x6D019F35 EQ PUSH2 0x603 JUMPI PUSH2 0x1FA JUMP JUMPDEST DUP1 PUSH4 0x3B6FA127 GT PUSH2 0x192 JUMPI DUP1 PUSH4 0x45137E27 GT PUSH2 0x161 JUMPI DUP1 PUSH4 0x45137E27 EQ PUSH2 0x3E5 JUMPI DUP1 PUSH4 0x45468B66 EQ PUSH2 0x32A JUMPI DUP1 PUSH4 0x4E54CEE0 EQ PUSH2 0x3ED JUMPI DUP1 PUSH4 0x508493BC EQ PUSH2 0x53B JUMPI PUSH2 0x1FA JUMP JUMPDEST DUP1 PUSH4 0x3B6FA127 EQ PUSH2 0x38C JUMPI DUP1 PUSH4 0x3C8CF602 EQ PUSH2 0x3B8 JUMPI DUP1 PUSH4 0x42419255 EQ PUSH2 0x3C0 JUMPI DUP1 PUSH4 0x429DEC96 EQ PUSH2 0x3C8 JUMPI PUSH2 0x1FA JUMP JUMPDEST DUP1 PUSH4 0xFD3D41C GT PUSH2 0x1CE JUMPI DUP1 PUSH4 0xFD3D41C EQ PUSH2 0x32A JUMPI DUP1 PUSH4 0x12D1441E EQ PUSH2 0x332 JUMPI DUP1 PUSH4 0x2586C562 EQ PUSH2 0x33A JUMPI DUP1 PUSH4 0x2D55282D EQ PUSH2 0x372 JUMPI PUSH2 0x1FA JUMP JUMPDEST DUP1 PUSH3 0x89356F EQ PUSH2 0x1FF JUMPI DUP1 PUSH4 0xB68134D EQ PUSH2 0x21D JUMPI DUP1 PUSH4 0xD63ACA7 EQ PUSH2 0x225 JUMPI DUP1 PUSH4 0xF909486 EQ PUSH2 0x306 JUMPI JUMPDEST PUSH1 0x0 DUP1 REVERT JUMPDEST PUSH2 0x207 PUSH2 0x8AD JUMP JUMPDEST PUSH1 0x40 DUP1 MLOAD PUSH1 0xFF SWAP1 SWAP3 AND DUP3 MSTORE MLOAD SWAP1 DUP2 SWAP1 SUB PUSH1 0x20 ADD SWAP1 RETURN JUMPDEST PUSH2 0x207 PUSH2 0x8B6 JUMP JUMPDEST PUSH2 0x2F2 PUSH1 0x4 DUP1 CALLDATASIZE SUB PUSH1 0xC0 DUP2 LT ISZERO PUSH2 0x23B JUMPI PUSH1 0x0 DUP1 REVERT JUMPDEST PUSH1 0x1 PUSH1 0x1 PUSH1 0xA0 SHL SUB DUP3 CALLDATALOAD DUP2 AND SWAP3 PUSH1 0x20 DUP2 ADD CALLDATALOAD SWAP1 SWAP2 AND SWAP2 PUSH1 0x40 DUP3 ADD CALLDATALOAD SWAP2 PUSH1 0x60 DUP2 ADD CALLDATALOAD SWAP2 PUSH1 0x80 DUP3 ADD CALLDATALOAD SWAP2 SWAP1 DUP2 ADD SWAP1 PUSH1 0xC0 DUP2 ADD PUSH1 0xA0 DUP3 ADD CALLDATALOAD PUSH1 0x1 PUSH1 0x20 SHL DUP2 GT ISZERO PUSH2 0x281 JUMPI PUSH1 0x0 DUP1 REVERT JUMPDEST DUP3 ADD DUP4 PUSH1 0x20 DUP3 ADD GT ISZERO PUSH2 0x293 JUMPI PUSH1 0x0 DUP1 REVERT JUMPDEST DUP1 CALLDATALOAD SWAP1 PUSH1 0x20 ADD SWAP2 DUP5 PUSH1 0x20 DUP4 MUL DUP5 ADD GT PUSH1 0x1 PUSH1 0x20 SHL DUP4 GT OR ISZERO PUSH2 0x2B4 JUMPI PUSH1 0x0 DUP1 REVERT JUMPDEST SWAP2 SWAP1 DUP1 DUP1 PUSH1 0x20 MUL PUSH1 0x20 ADD PUSH1 0x40 MLOAD SWAP1 DUP2 ADD PUSH1 0x40 MSTORE DUP1 SWAP4 SWAP3 SWAP2 SWAP1 DUP2 DUP2 MSTORE PUSH1 0x20 ADD DUP4 DUP4 PUSH1 0x20 MUL DUP1 DUP3 DUP5 CALLDATACOPY PUSH1 0x0 SWAP3 ADD SWAP2 SWAP1 SWAP2 MSTORE POP SWAP3 SWAP6 POP PUSH2 0x8C5 SWAP5 POP POP POP POP POP JUMP JUMPDEST PUSH1 0x40 DUP1 MLOAD SWAP2 ISZERO ISZERO DUP3 MSTORE MLOAD SWAP1 DUP2 SWAP1 SUB PUSH1 0x20 ADD SWAP1 RETURN JUMPDEST PUSH2 0x30E PUSH2 0xA64 JUMP JUMPDEST PUSH1 0x40 DUP1 MLOAD PUSH1 0x1 PUSH1 0x1 PUSH1 0xA0 SHL SUB SWAP1 SWAP3 AND DUP3 MSTORE MLOAD SWAP1 DUP2 SWAP1 SUB PUSH1 0x20 ADD SWAP1 RETURN JUMPDEST PUSH2 0x2F2 PUSH2 0xA73 JUMP JUMPDEST PUSH2 0x207 PUSH2 0xA78 JUMP JUMPDEST PUSH2 0x2F2 PUSH1 0x4 DUP1 CALLDATASIZE SUB PUSH1 0x80 DUP2 LT ISZERO PUSH2 0x350 JUMPI PUSH1 0x0 DUP1 REVERT JUMPDEST POP PUSH1 0x1 PUSH1 0x1 PUSH1 0xA0 SHL SUB DUP2 CALLDATALOAD AND SWAP1 PUSH1 0x20 DUP2 ADD CALLDATALOAD SWAP1 PUSH1 0x40 DUP2 ADD CALLDATALOAD SWAP1 PUSH1 0x60 ADD CALLDATALOAD PUSH2 0xA86 JUMP JUMPDEST PUSH2 0x37A PUSH2 0xBCA JUMP JUMPDEST PUSH1 0x40 DUP1 MLOAD SWAP2 DUP3 MSTORE MLOAD SWAP1 DUP2 SWAP1 SUB PUSH1 0x20 ADD SWAP1 RETURN JUMPDEST PUSH2 0x37A PUSH1 0x4 DUP1 CALLDATASIZE SUB PUSH1 0x40 DUP2 LT ISZERO PUSH2 0x3A2 JUMPI PUSH1 0x0 DUP1 REVERT JUMPDEST POP PUSH1 0x1 PUSH1 0x1 PUSH1 0xA0 SHL SUB DUP2 CALLDATALOAD AND SWAP1 PUSH1 0x20 ADD CALLDATALOAD PUSH2 0xBD0 JUMP JUMPDEST PUSH2 0x2F2 PUSH2 0xC5C JUMP JUMPDEST PUSH2 0x207 PUSH2 0xCC3 JUMP JUMPDEST PUSH2 0x2F2 PUSH1 0x4 DUP1 CALLDATASIZE SUB PUSH1 0x20 DUP2 LT ISZERO PUSH2 0x3DE JUMPI PUSH1 0x0 DUP1 REVERT JUMPDEST POP CALLDATALOAD PUSH2 0xCD3 JUMP JUMPDEST PUSH2 0x37A PUSH2 0xD55 JUMP JUMPDEST PUSH2 0x2F2 PUSH1 0x4 DUP1 CALLDATASIZE SUB PUSH1 0xE0 DUP2 LT ISZERO PUSH2 0x403 JUMPI PUSH1 0x0 DUP1 REVERT JUMPDEST PUSH1 0x1 PUSH1 0x1 PUSH1 0xA0 SHL SUB DUP3 CALLDATALOAD AND SWAP2 SWAP1 DUP2 ADD SWAP1 PUSH1 0x40 DUP2 ADD PUSH1 0x20 DUP3 ADD CALLDATALOAD PUSH1 0x1 PUSH1 0x20 SHL DUP2 GT ISZERO PUSH2 0x42D JUMPI PUSH1 0x0 DUP1 REVERT JUMPDEST DUP3 ADD DUP4 PUSH1 0x20 DUP3 ADD GT ISZERO PUSH2 0x43F JUMPI PUSH1 0x0 DUP1 REVERT JUMPDEST DUP1 CALLDATALOAD SWAP1 PUSH1 0x20 ADD SWAP2 DUP5 PUSH1 0x20 DUP4 MUL DUP5 ADD GT PUSH1 0x1 PUSH1 0x20 SHL DUP4 GT OR ISZERO PUSH2 0x460 JUMPI PUSH1 0x0 DUP1 REVERT JUMPDEST SWAP2 SWAP1 DUP1 DUP1 PUSH1 0x20 MUL PUSH1 0x20 ADD PUSH1 0x40 MLOAD SWAP1 DUP2 ADD PUSH1 0x40 MSTORE DUP1 SWAP4 SWAP3 SWAP2 SWAP1 DUP2 DUP2 MSTORE PUSH1 0x20 ADD DUP4 DUP4 PUSH1 0x20 MUL DUP1 DUP3 DUP5 CALLDATACOPY PUSH1 0x0 SWAP3 ADD SWAP2 SWAP1 SWAP2 MSTORE POP SWAP3 SWAP6 SWAP5 SWAP4 PUSH1 0x20 DUP2 ADD SWAP4 POP CALLDATALOAD SWAP2 POP POP PUSH1 0x1 PUSH1 0x20 SHL DUP2 GT ISZERO PUSH2 0x4AF JUMPI PUSH1 0x0 DUP1 REVERT JUMPDEST DUP3 ADD DUP4 PUSH1 0x20 DUP3 ADD GT ISZERO PUSH2 0x4C1 JUMPI PUSH1 0x0 DUP1 REVERT JUMPDEST DUP1 CALLDATALOAD SWAP1 PUSH1 0x20 ADD SWAP2 DUP5 PUSH1 0x20 DUP4 MUL DUP5 ADD GT PUSH1 0x1 PUSH1 0x20 SHL DUP4 GT OR ISZERO PUSH2 0x4E2 JUMPI PUSH1 0x0 DUP1 REVERT JUMPDEST SWAP2 SWAP1 DUP1 DUP1 PUSH1 0x20 MUL PUSH1 0x20 ADD PUSH1 0x40 MLOAD SWAP1 DUP2 ADD PUSH1 0x40 MSTORE DUP1 SWAP4 SWAP3 SWAP2 SWAP1 DUP2 DUP2 MSTORE PUSH1 0x20 ADD DUP4 DUP4 PUSH1 0x20 MUL DUP1 DUP3 DUP5 CALLDATACOPY PUSH1 0x0 SWAP3 ADD SWAP2 SWAP1 SWAP2 MSTORE POP SWAP3 SWAP6 POP POP PUSH1 0xFF DUP4 CALLDATALOAD DUP2 AND SWAP5 POP PUSH1 0x20 DUP5 ADD CALLDATALOAD DUP2 AND SWAP4 PUSH1 0x40 DUP2 ADD CALLDATALOAD DUP3 AND SWAP4 POP PUSH1 0x60 ADD CALLDATALOAD AND SWAP1 POP PUSH2 0xE41 JUMP JUMPDEST PUSH2 0x37A PUSH1 0x4 DUP1 CALLDATASIZE SUB PUSH1 0x40 DUP2 LT ISZERO PUSH2 0x551 JUMPI PUSH1 0x0 DUP1 REVERT JUMPDEST POP PUSH1 0x1 PUSH1 0x1 PUSH1 0xA0 SHL SUB DUP2 CALLDATALOAD DUP2 AND SWAP2 PUSH1 0x20 ADD CALLDATALOAD AND PUSH2 0x115F JUMP JUMPDEST PUSH2 0x30E PUSH2 0x117C JUMP JUMPDEST PUSH2 0x2F2 PUSH1 0x4 DUP1 CALLDATASIZE SUB PUSH1 0x80 DUP2 LT ISZERO PUSH2 0x587 JUMPI PUSH1 0x0 DUP1 REVERT JUMPDEST POP PUSH1 0x1 PUSH1 0x1 PUSH1 0xA0 SHL SUB DUP2 CALLDATALOAD AND SWAP1 PUSH1 0x20 DUP2 ADD CALLDATALOAD SWAP1 PUSH1 0x40 DUP2 ADD CALLDATALOAD ISZERO ISZERO SWAP1 PUSH1 0x60 ADD CALLDATALOAD PUSH2 0x118B JUMP JUMPDEST PUSH2 0x5B3 PUSH2 0x1269 JUMP JUMPDEST PUSH1 0x40 DUP1 MLOAD PUSH1 0x20 DUP1 DUP3 MSTORE DUP4 MLOAD DUP2 DUP4 ADD MSTORE DUP4 MLOAD SWAP2 SWAP3 DUP4 SWAP3 SWAP1 DUP4 ADD SWAP2 DUP6 DUP2 ADD SWAP2 MUL DUP1 DUP4 DUP4 PUSH1 0x0 JUMPDEST DUP4 DUP2 LT ISZERO PUSH2 0x5EF JUMPI DUP2 DUP2 ADD MLOAD DUP4 DUP3 ADD MSTORE PUSH1 0x20 ADD PUSH2 0x5D7 JUMP JUMPDEST POP POP POP POP SWAP1 POP ADD SWAP3 POP POP POP PUSH1 0x40 MLOAD DUP1 SWAP2 SUB SWAP1 RETURN JUMPDEST PUSH2 0x37A PUSH2 0x13C8 JUMP JUMPDEST PUSH2 0x613 PUSH2 0x13CE JUMP JUMPDEST STOP JUMPDEST PUSH2 0x2F2 PUSH1 0x4 DUP1 CALLDATASIZE SUB PUSH1 0x80 DUP2 LT ISZERO PUSH2 0x62B JUMPI PUSH1 0x0 DUP1 REVERT JUMPDEST POP PUSH1 0x1 PUSH1 0x1 PUSH1 0xA0 SHL SUB DUP2 CALLDATALOAD AND SWAP1 PUSH1 0x20 DUP2 ADD CALLDATALOAD SWAP1 PUSH1 0x40 DUP2 ADD CALLDATALOAD SWAP1 PUSH1 0x60 ADD CALLDATALOAD PUSH2 0x147A JUMP JUMPDEST PUSH2 0x30E PUSH2 0x15AB JUMP JUMPDEST PUSH2 0x2F2 PUSH1 0x4 DUP1 CALLDATASIZE SUB PUSH1 0x20 DUP2 LT ISZERO PUSH2 0x66B JUMPI PUSH1 0x0 DUP1 REVERT JUMPDEST POP CALLDATALOAD PUSH1 0x1 PUSH1 0x1 PUSH1 0xA0 SHL SUB AND PUSH2 0x15BA JUMP JUMPDEST PUSH2 0x2F2 PUSH1 0x4 DUP1 CALLDATASIZE SUB PUSH1 0xA0 DUP2 LT ISZERO PUSH2 0x691 JUMPI PUSH1 0x0 DUP1 REVERT JUMPDEST PUSH1 0x1 PUSH1 0x1 PUSH1 0xA0 SHL SUB DUP3 CALLDATALOAD AND SWAP2 SWAP1 DUP2 ADD SWAP1 PUSH1 0x40 DUP2 ADD PUSH1 0x20 DUP3 ADD CALLDATALOAD PUSH1 0x1 PUSH1 0x20 SHL DUP2 GT ISZERO PUSH2 0x6BB JUMPI PUSH1 0x0 DUP1 REVERT JUMPDEST DUP3 ADD DUP4 PUSH1 0x20 DUP3 ADD GT ISZERO PUSH2 0x6CD JUMPI PUSH1 0x0 DUP1 REVERT JUMPDEST DUP1 CALLDATALOAD SWAP1 PUSH1 0x20 ADD SWAP2 DUP5 PUSH1 0x20 DUP4 MUL DUP5 ADD GT PUSH1 0x1 PUSH1 0x20 SHL DUP4 GT OR ISZERO PUSH2 0x6EE JUMPI PUSH1 0x0 DUP1 REVERT JUMPDEST SWAP2 SWAP1 DUP1 DUP1 PUSH1 0x20 MUL PUSH1 0x20 ADD PUSH1 0x40 MLOAD SWAP1 DUP2 ADD PUSH1 0x40 MSTORE DUP1 SWAP4 SWAP3 SWAP2 SWAP1 DUP2 DUP2 MSTORE PUSH1 0x20 ADD DUP4 DUP4 PUSH1 0x20 MUL DUP1 DUP3 DUP5 CALLDATACOPY PUSH1 0x0 SWAP3 ADD SWAP2 SWAP1 SWAP2 MSTORE POP SWAP3 SWAP6 DUP5 CALLDATALOAD SWAP6 PUSH1 0x20 DUP7 ADD CALLDATALOAD SWAP6 SWAP2 SWAP5 POP SWAP3 POP PUSH1 0x60 DUP2 ADD SWAP2 POP PUSH1 0x40 ADD CALLDATALOAD PUSH1 0x1 PUSH1 0x20 SHL DUP2 GT ISZERO PUSH2 0x749 JUMPI PUSH1 0x0 DUP1 REVERT JUMPDEST DUP3 ADD DUP4 PUSH1 0x20 DUP3 ADD GT ISZERO PUSH2 0x75B JUMPI PUSH1 0x0 DUP1 REVERT JUMPDEST DUP1 CALLDATALOAD SWAP1 PUSH1 0x20 ADD SWAP2 DUP5 PUSH1 0x20 DUP4 MUL DUP5 ADD GT PUSH1 0x1 PUSH1 0x20 SHL DUP4 GT OR ISZERO PUSH2 0x77C JUMPI PUSH1 0x0 DUP1 REVERT JUMPDEST SWAP2 SWAP1 DUP1 DUP1 PUSH1 0x20 MUL PUSH1 0x20 ADD PUSH1 0x40 MLOAD SWAP1 DUP2 ADD PUSH1 0x40 MSTORE DUP1 SWAP4 SWAP3 SWAP2 SWAP1 DUP2 DUP2 MSTORE PUSH1 0x20 ADD DUP4 DUP4 PUSH1 0x20 MUL DUP1 DUP3 DUP5 CALLDATACOPY PUSH1 0x0 SWAP3 ADD SWAP2 SWAP1 SWAP2 MSTORE POP SWAP3 SWAP6 POP PUSH2 0x15CF SWAP5 POP POP POP POP POP JUMP JUMPDEST PUSH2 0x207 PUSH2 0x17A9 JUMP JUMPDEST PUSH2 0x2F2 PUSH1 0x4 DUP1 CALLDATASIZE SUB PUSH1 0x40 DUP2 LT ISZERO PUSH2 0x7D8 JUMPI PUSH1 0x0 DUP1 REVERT JUMPDEST POP DUP1 CALLDATALOAD SWAP1 PUSH1 0x20 ADD CALLDATALOAD PUSH2 0x17B9 JUMP JUMPDEST PUSH2 0x2F2 PUSH1 0x4 DUP1 CALLDATASIZE SUB PUSH1 0x20 DUP2 LT ISZERO PUSH2 0x7FB JUMPI PUSH1 0x0 DUP1 REVERT JUMPDEST POP CALLDATALOAD PUSH2 0x191E JUMP JUMPDEST PUSH2 0x2F2 PUSH2 0x1933 JUMP JUMPDEST PUSH2 0x838 PUSH1 0x4 DUP1 CALLDATASIZE SUB PUSH1 0x40 DUP2 LT ISZERO PUSH2 0x820 JUMPI PUSH1 0x0 DUP1 REVERT JUMPDEST POP PUSH1 0x1 PUSH1 0x1 PUSH1 0xA0 SHL SUB DUP2 CALLDATALOAD DUP2 AND SWAP2 PUSH1 0x20 ADD CALLDATALOAD AND PUSH2 0x1B9A JUMP JUMPDEST PUSH1 0x40 DUP1 MLOAD SWAP3 DUP4 MSTORE PUSH1 0x20 DUP4 ADD SWAP2 SWAP1 SWAP2 MSTORE DUP1 MLOAD SWAP2 DUP3 SWAP1 SUB ADD SWAP1 RETURN JUMPDEST PUSH2 0x613 PUSH1 0x4 DUP1 CALLDATASIZE SUB PUSH1 0x20 DUP2 LT ISZERO PUSH2 0x867 JUMPI PUSH1 0x0 DUP1 REVERT JUMPDEST POP CALLDATALOAD PUSH1 0x1 PUSH1 0x1 PUSH1 0xA0 SHL SUB AND PUSH2 0x1BC4 JUMP JUMPDEST PUSH2 0x37A PUSH2 0x1CC6 JUMP JUMPDEST PUSH2 0x37A PUSH1 0x4 DUP1 CALLDATASIZE SUB PUSH1 0x40 DUP2 LT ISZERO PUSH2 0x895 JUMPI PUSH1 0x0 DUP1 REVERT JUMPDEST POP PUSH1 0x1 PUSH1 0x1 PUSH1 0xA0 SHL SUB DUP2 CALLDATALOAD DUP2 AND SWAP2 PUSH1 0x20 ADD CALLDATALOAD AND PUSH2 0x1CCC JUMP JUMPDEST PUSH1 0x4 SLOAD PUSH1 0xFF AND DUP2 JUMP JUMPDEST PUSH1 0x4 SLOAD PUSH3 0x10000 SWAP1 DIV PUSH1 0xFF AND DUP2 JUMP JUMPDEST PUSH1 0x0 PUSH2 0x8CF PUSH2 0x1CF7 JUMP JUMPDEST PUSH1 0x1 PUSH1 0x1 PUSH1 0xA0 SHL SUB AND PUSH2 0x8E0 PUSH2 0x15AB JUMP JUMPDEST PUSH1 0x1 PUSH1 0x1 PUSH1 0xA0 SHL SUB AND EQ PUSH2 0x929 JUMPI PUSH1 0x40 DUP1 MLOAD PUSH3 0x461BCD PUSH1 0xE5 SHL DUP2 MSTORE PUSH1 0x20 PUSH1 0x4 DUP3 ADD DUP2 SWAP1 MSTORE PUSH1 0x24 DUP3 ADD MSTORE PUSH1 0x0 DUP1 MLOAD PUSH1 0x20 PUSH2 0x2B94 DUP4 CODECOPY DUP2 MLOAD SWAP2 MSTORE PUSH1 0x44 DUP3 ADD MSTORE SWAP1 MLOAD SWAP1 DUP2 SWAP1 SUB PUSH1 0x64 ADD SWAP1 REVERT JUMPDEST PUSH1 0x1 PUSH1 0x1 PUSH1 0xA0 SHL SUB DUP8 AND PUSH1 0x0 SWAP1 DUP2 MSTORE PUSH1 0x3 PUSH1 0x20 MSTORE PUSH1 0x40 SWAP1 KECCAK256 SLOAD PUSH1 0xFF AND PUSH2 0x996 JUMPI PUSH1 0x40 DUP1 MLOAD PUSH3 0x461BCD PUSH1 0xE5 SHL DUP2 MSTORE PUSH1 0x20 PUSH1 0x4 DUP3 ADD MSTORE PUSH1 0x1D PUSH1 0x24 DUP3 ADD MSTORE PUSH32 0x5F64657374546F6B656E206973206E6F742077686974656C6973746564000000 PUSH1 0x44 DUP3 ADD MSTORE SWAP1 MLOAD SWAP1 DUP2 SWAP1 SUB PUSH1 0x64 ADD SWAP1 REVERT JUMPDEST PUSH1 0x1 PUSH1 0x1 PUSH1 0xA0 SHL SUB DUP8 AND PUSH2 0x9DB JUMPI PUSH1 0x40 MLOAD PUSH3 0x461BCD PUSH1 0xE5 SHL DUP2 MSTORE PUSH1 0x4 ADD DUP1 DUP1 PUSH1 0x20 ADD DUP3 DUP2 SUB DUP3 MSTORE PUSH1 0x23 DUP2 MSTORE PUSH1 0x20 ADD DUP1 PUSH2 0x2C16 PUSH1 0x23 SWAP2 CODECOPY PUSH1 0x40 ADD SWAP2 POP POP PUSH1 0x40 MLOAD DUP1 SWAP2 SUB SWAP1 REVERT JUMPDEST PUSH1 0x0 DUP5 ISZERO PUSH2 0xA01 JUMPI PUSH1 0x1 SLOAD PUSH2 0x9FC SWAP1 PUSH1 0x0 SWAP1 PUSH1 0x1 PUSH1 0x1 PUSH1 0xA0 SHL SUB AND DUP8 PUSH2 0x1CFB JUMP JUMPDEST PUSH2 0xA14 JUMP JUMPDEST DUP5 PUSH2 0xA14 JUMPI POP PUSH1 0x1 SLOAD PUSH1 0x1 PUSH1 0x1 PUSH1 0xA0 SHL SUB AND JUMPDEST PUSH1 0x2 SLOAD PUSH1 0x1 PUSH1 0x1 PUSH1 0xA0 SHL SUB DUP10 DUP2 AND SWAP2 AND EQ ISZERO PUSH2 0xA38 JUMPI POP PUSH1 0x2 SLOAD PUSH1 0x1 PUSH1 0x1 PUSH1 0xA0 SHL SUB AND JUMPDEST PUSH2 0xA42 DUP2 DUP6 PUSH2 0x1DE7 JUMP JUMPDEST PUSH2 0xA4B DUP4 PUSH2 0x1F5E JUMP JUMPDEST PUSH2 0xA56 DUP9 DUP9 DUP9 PUSH2 0x1FAD JUMP JUMPDEST POP PUSH1 0x1 SWAP8 SWAP7 POP POP POP POP POP POP POP JUMP JUMPDEST PUSH1 0x1 SLOAD PUSH1 0x1 PUSH1 0x1 PUSH1 0xA0 SHL SUB AND DUP2 JUMP JUMPDEST PUSH1 0x0 SWAP1 JUMP JUMPDEST PUSH1 0x4 SLOAD PUSH2 0x100 SWAP1 DIV PUSH1 0xFF AND DUP2 JUMP JUMPDEST PUSH1 0x0 PUSH2 0xA90 PUSH2 0x1CF7 JUMP JUMPDEST PUSH1 0x1 PUSH1 0x1 PUSH1 0xA0 SHL SUB AND PUSH2 0xAA1 PUSH2 0x15AB JUMP JUMPDEST PUSH1 0x1 PUSH1 0x1 PUSH1 0xA0 SHL SUB AND EQ PUSH2 0xAEA JUMPI PUSH1 0x40 DUP1 MLOAD PUSH3 0x461BCD PUSH1 0xE5 SHL DUP2 MSTORE PUSH1 0x20 PUSH1 0x4 DUP3 ADD DUP2 SWAP1 MSTORE PUSH1 0x24 DUP3 ADD MSTORE PUSH1 0x0 DUP1 MLOAD PUSH1 0x20 PUSH2 0x2B94 DUP4 CODECOPY DUP2 MLOAD SWAP2 MSTORE PUSH1 0x44 DUP3 ADD MSTORE SWAP1 MLOAD SWAP1 DUP2 SWAP1 SUB PUSH1 0x64 ADD SWAP1 REVERT JUMPDEST PUSH1 0x0 PUSH2 0xAF4 PUSH2 0xD55 JUMP JUMPDEST PUSH1 0x1 PUSH1 0x1 PUSH1 0xA0 SHL SUB DUP8 AND PUSH1 0x0 SWAP1 DUP2 MSTORE PUSH1 0x3 PUSH1 0x20 MSTORE PUSH1 0x40 SWAP1 KECCAK256 SLOAD SWAP1 SWAP2 POP PUSH1 0xFF AND PUSH2 0xB58 JUMPI PUSH1 0x40 DUP1 MLOAD PUSH3 0x461BCD PUSH1 0xE5 SHL DUP2 MSTORE PUSH1 0x20 PUSH1 0x4 DUP3 ADD MSTORE PUSH1 0x11 PUSH1 0x24 DUP3 ADD MSTORE PUSH17 0x17DD1BDAD95B881A5CC81A5B9D985B1A59 PUSH1 0x7A SHL PUSH1 0x44 DUP3 ADD MSTORE SWAP1 MLOAD SWAP1 DUP2 SWAP1 SUB PUSH1 0x64 ADD SWAP1 REVERT JUMPDEST PUSH2 0xB64 DUP7 DUP7 DUP7 DUP7 PUSH2 0x2065 JUMP JUMPDEST PUSH2 0xB6D JUMPI PUSH1 0x0 DUP1 REVERT JUMPDEST PUSH1 0x1 SWAP2 POP DUP1 PUSH2 0xB7A PUSH2 0xD55 JUMP JUMPDEST LT ISZERO PUSH2 0xBC1 JUMPI PUSH1 0x40 DUP1 MLOAD PUSH3 0x461BCD PUSH1 0xE5 SHL DUP2 MSTORE PUSH1 0x20 PUSH1 0x4 DUP3 ADD MSTORE PUSH1 0x11 PUSH1 0x24 DUP3 ADD MSTORE PUSH17 0x496E76616C6964204C5054207072696365 PUSH1 0x78 SHL PUSH1 0x44 DUP3 ADD MSTORE SWAP1 MLOAD SWAP1 DUP2 SWAP1 SUB PUSH1 0x64 ADD SWAP1 REVERT JUMPDEST POP SWAP5 SWAP4 POP POP POP POP JUMP JUMPDEST PUSH1 0x5 SLOAD DUP2 JUMP JUMPDEST PUSH1 0x0 DUP1 PUSH2 0xBDD DUP5 DUP5 PUSH2 0x2401 JUMP JUMPDEST SWAP1 POP DUP1 PUSH1 0xFF AND PUSH1 0x1 EQ ISZERO PUSH2 0xC1F JUMPI PUSH1 0x1 SLOAD PUSH1 0x1 PUSH1 0x1 PUSH1 0xA0 SHL SUB DUP6 DUP2 AND SWAP2 AND EQ PUSH2 0xC07 JUMPI PUSH1 0x0 PUSH2 0xC15 JUMP JUMPDEST PUSH1 0x4 SLOAD PUSH4 0x1000000 SWAP1 DIV PUSH1 0xFF AND JUMPDEST PUSH1 0xFF AND SWAP2 POP PUSH2 0xC55 JUMP JUMPDEST DUP1 PUSH1 0xFF AND PUSH1 0x2 EQ ISZERO PUSH2 0xC55 JUMPI PUSH1 0x1 PUSH1 0x1 PUSH1 0xA0 SHL SUB DUP5 AND ISZERO PUSH2 0xC41 JUMPI PUSH1 0x0 PUSH2 0xC4F JUMP JUMPDEST PUSH1 0x4 SLOAD PUSH4 0x1000000 SWAP1 DIV PUSH1 0xFF AND JUMPDEST PUSH1 0xFF AND SWAP2 POP JUMPDEST POP SWAP3 SWAP2 POP POP JUMP JUMPDEST PUSH1 0x0 PUSH2 0xC66 PUSH2 0x1CF7 JUMP JUMPDEST PUSH1 0x1 PUSH1 0x1 PUSH1 0xA0 SHL SUB AND PUSH2 0xC77 PUSH2 0x15AB JUMP JUMPDEST PUSH1 0x1 PUSH1 0x1 PUSH1 0xA0 SHL SUB AND EQ PUSH2 0xCC0 JUMPI PUSH1 0x40 DUP1 MLOAD PUSH3 0x461BCD PUSH1 0xE5 SHL DUP2 MSTORE PUSH1 0x20 PUSH1 0x4 DUP3 ADD DUP2 SWAP1 MSTORE PUSH1 0x24 DUP3 ADD MSTORE PUSH1 0x0 DUP1 MLOAD PUSH1 0x20 PUSH2 0x2B94 DUP4 CODECOPY DUP2 MLOAD SWAP2 MSTORE PUSH1 0x44 DUP3 ADD MSTORE SWAP1 MLOAD SWAP1 DUP2 SWAP1 SUB PUSH1 0x64 ADD SWAP1 REVERT JUMPDEST SWAP1 JUMP JUMPDEST PUSH1 0x4 SLOAD PUSH4 0x1000000 SWAP1 DIV PUSH1 0xFF AND DUP2 JUMP JUMPDEST PUSH1 0x1 SLOAD PUSH1 0x1 PUSH1 0x1 PUSH1 0xA0 SHL SUB AND PUSH1 0x0 SWAP1 DUP2 MSTORE PUSH1 0xF PUSH1 0x20 SWAP1 DUP2 MSTORE PUSH1 0x40 DUP1 DUP4 KECCAK256 CALLER DUP5 MSTORE SWAP1 SWAP2 MSTORE DUP2 KECCAK256 SLOAD DUP3 GT ISZERO PUSH2 0xD05 JUMPI PUSH1 0x0 DUP1 REVERT JUMPDEST PUSH1 0x1 SLOAD PUSH1 0x1 PUSH1 0x1 PUSH1 0xA0 SHL SUB AND PUSH1 0x0 SWAP1 DUP2 MSTORE PUSH1 0xF PUSH1 0x20 SWAP1 DUP2 MSTORE PUSH1 0x40 DUP1 DUP4 KECCAK256 CALLER DUP5 MSTORE SWAP1 SWAP2 MSTORE SWAP1 KECCAK256 SLOAD PUSH2 0xD35 SWAP1 DUP4 PUSH2 0x24BB JUMP JUMPDEST POP PUSH1 0x1 SLOAD PUSH2 0xD4D SWAP1 PUSH1 0x1 PUSH1 0x1 PUSH1 0xA0 SHL SUB AND CALLER DUP5 PUSH2 0x1FAD JUMP JUMPDEST POP PUSH1 0x1 SWAP2 SWAP1 POP JUMP JUMPDEST PUSH1 0x1 SLOAD PUSH1 0x0 SWAP1 DUP2 SWAP1 DUP2 SWAP1 PUSH2 0xD73 SWAP1 DUP3 SWAP1 PUSH1 0x1 PUSH1 0x1 PUSH1 0xA0 SHL SUB AND PUSH2 0x1B9A JUMP JUMPDEST SWAP2 POP SWAP2 POP PUSH1 0x0 PUSH1 0x2 PUSH1 0x0 SWAP1 SLOAD SWAP1 PUSH2 0x100 EXP SWAP1 DIV PUSH1 0x1 PUSH1 0x1 PUSH1 0xA0 SHL SUB AND PUSH1 0x1 PUSH1 0x1 PUSH1 0xA0 SHL SUB AND PUSH4 0x18160DDD PUSH1 0x40 MLOAD DUP2 PUSH4 0xFFFFFFFF AND PUSH1 0xE0 SHL DUP2 MSTORE PUSH1 0x4 ADD PUSH1 0x20 PUSH1 0x40 MLOAD DUP1 DUP4 SUB DUP2 DUP7 DUP1 EXTCODESIZE ISZERO DUP1 ISZERO PUSH2 0xDC7 JUMPI PUSH1 0x0 DUP1 REVERT JUMPDEST POP GAS STATICCALL ISZERO DUP1 ISZERO PUSH2 0xDDB JUMPI RETURNDATASIZE PUSH1 0x0 DUP1 RETURNDATACOPY RETURNDATASIZE PUSH1 0x0 REVERT JUMPDEST POP POP POP POP PUSH1 0x40 MLOAD RETURNDATASIZE PUSH1 0x20 DUP2 LT ISZERO PUSH2 0xDF1 JUMPI PUSH1 0x0 DUP1 REVERT JUMPDEST POP MLOAD SWAP1 POP DUP1 ISZERO PUSH2 0xE35 JUMPI PUSH2 0xE30 PUSH2 0xE13 PUSH1 0x5 SLOAD DUP4 PUSH2 0x2518 SWAP1 SWAP2 SWAP1 PUSH4 0xFFFFFFFF AND JUMP JUMPDEST PUSH1 0x9 SLOAD PUSH2 0xE2A SWAP1 PUSH2 0xE24 DUP8 DUP8 PUSH2 0x2518 JUMP JUMPDEST SWAP1 PUSH2 0x2579 JUMP JUMPDEST SWAP1 PUSH2 0x25D2 JUMP JUMPDEST PUSH2 0xE39 JUMP JUMPDEST PUSH1 0x7 SLOAD JUMPDEST SWAP4 POP POP POP POP SWAP1 JUMP JUMPDEST PUSH1 0x0 PUSH2 0xE4B PUSH2 0x1CF7 JUMP JUMPDEST PUSH1 0x1 PUSH1 0x1 PUSH1 0xA0 SHL SUB AND PUSH2 0xE5C PUSH2 0x15AB JUMP JUMPDEST PUSH1 0x1 PUSH1 0x1 PUSH1 0xA0 SHL SUB AND EQ PUSH2 0xEA5 JUMPI PUSH1 0x40 DUP1 MLOAD PUSH3 0x461BCD PUSH1 0xE5 SHL DUP2 MSTORE PUSH1 0x20 PUSH1 0x4 DUP3 ADD DUP2 SWAP1 MSTORE PUSH1 0x24 DUP3 ADD MSTORE PUSH1 0x0 DUP1 MLOAD PUSH1 0x20 PUSH2 0x2B94 DUP4 CODECOPY DUP2 MLOAD SWAP2 MSTORE PUSH1 0x44 DUP3 ADD MSTORE SWAP1 MLOAD SWAP1 DUP2 SWAP1 SUB PUSH1 0x64 ADD SWAP1 REVERT JUMPDEST PUSH1 0x4 SLOAD PUSH1 0xFF PUSH2 0x100 SWAP1 SWAP2 DIV DUP2 AND SWAP1 DUP6 AND LT DUP1 ISZERO SWAP1 PUSH2 0xEC7 JUMPI POP PUSH1 0xFF DUP5 PUSH1 0xFF AND GT ISZERO JUMPDEST PUSH2 0xF02 JUMPI PUSH1 0x40 MLOAD PUSH3 0x461BCD PUSH1 0xE5 SHL DUP2 MSTORE PUSH1 0x4 ADD DUP1 DUP1 PUSH1 0x20 ADD DUP3 DUP2 SUB DUP3 MSTORE PUSH1 0x27 DUP2 MSTORE PUSH1 0x20 ADD DUP1 PUSH2 0x2B2B PUSH1 0x27 SWAP2 CODECOPY PUSH1 0x40 ADD SWAP2 POP POP PUSH1 0x40 MLOAD DUP1 SWAP2 SUB SWAP1 REVERT JUMPDEST PUSH1 0x1 DUP5 ADD PUSH1 0xFF AND DUP6 PUSH1 0xFF AND LT ISZERO PUSH2 0xF55 JUMPI PUSH1 0x40 DUP1 MLOAD PUSH3 0x461BCD PUSH1 0xE5 SHL DUP2 MSTORE PUSH1 0x20 PUSH1 0x4 DUP3 ADD MSTORE PUSH1 0x12 PUSH1 0x24 DUP3 ADD MSTORE PUSH18 0x6E2073686F756C64206265203E3D20742B31 PUSH1 0x70 SHL PUSH1 0x44 DUP3 ADD MSTORE SWAP1 MLOAD SWAP1 DUP2 SWAP1 SUB PUSH1 0x64 ADD SWAP1 REVERT JUMPDEST PUSH1 0x64 DUP4 PUSH1 0xFF AND GT ISZERO PUSH2 0xFAE JUMPI PUSH1 0x40 DUP1 MLOAD PUSH3 0x461BCD PUSH1 0xE5 SHL DUP2 MSTORE PUSH1 0x20 PUSH1 0x4 DUP3 ADD MSTORE PUSH1 0x1E PUSH1 0x24 DUP3 ADD MSTORE PUSH32 0x5F6E6F646552657761726473526174696F206973206E6F742076616C69640000 PUSH1 0x44 DUP3 ADD MSTORE SWAP1 MLOAD SWAP1 DUP2 SWAP1 SUB PUSH1 0x64 ADD SWAP1 REVERT JUMPDEST PUSH1 0x64 DUP3 PUSH1 0xFF AND GT ISZERO PUSH2 0x1007 JUMPI PUSH1 0x40 DUP1 MLOAD PUSH3 0x461BCD PUSH1 0xE5 SHL DUP2 MSTORE PUSH1 0x20 PUSH1 0x4 DUP3 ADD MSTORE PUSH1 0x1C PUSH1 0x24 DUP3 ADD MSTORE PUSH32 0x5F7769746864726177616C46656542505320697320696E76616C696400000000 PUSH1 0x44 DUP3 ADD MSTORE SWAP1 MLOAD SWAP1 DUP2 SWAP1 SUB PUSH1 0x64 ADD SWAP1 REVERT JUMPDEST DUP6 MLOAD DUP8 MLOAD EQ PUSH2 0x1047 JUMPI PUSH1 0x40 MLOAD PUSH3 0x461BCD PUSH1 0xE5 SHL DUP2 MSTORE PUSH1 0x4 ADD DUP1 DUP1 PUSH1 0x20 ADD DUP3 DUP2 SUB DUP3 MSTORE PUSH1 0x3B DUP2 MSTORE PUSH1 0x20 ADD DUP1 PUSH2 0x2BDB PUSH1 0x3B SWAP2 CODECOPY PUSH1 0x40 ADD SWAP2 POP POP PUSH1 0x40 MLOAD DUP1 SWAP2 SUB SWAP1 REVERT JUMPDEST PUSH2 0x1050 DUP9 PUSH2 0x1BC4 JUMP JUMPDEST PUSH1 0x0 JUMPDEST DUP8 MLOAD DUP2 LT ISZERO PUSH2 0x10B8 JUMPI PUSH1 0x0 PUSH2 0x107A DUP10 DUP4 DUP2 MLOAD DUP2 LT PUSH2 0x106D JUMPI INVALID JUMPDEST PUSH1 0x20 MUL PUSH1 0x20 ADD ADD MLOAD PUSH2 0x2639 JUMP JUMPDEST POP SWAP1 POP PUSH2 0x10AE DUP2 DUP11 DUP5 DUP2 MLOAD DUP2 LT PUSH2 0x108D JUMPI INVALID JUMPDEST PUSH1 0x20 MUL PUSH1 0x20 ADD ADD MLOAD DUP11 DUP6 DUP2 MLOAD DUP2 LT PUSH2 0x10A1 JUMPI INVALID JUMPDEST PUSH1 0x20 MUL PUSH1 0x20 ADD ADD MLOAD PUSH2 0x2642 JUMP JUMPDEST POP POP PUSH1 0x1 ADD PUSH2 0x1053 JUMP JUMPDEST POP PUSH1 0x60 PUSH2 0x10C3 PUSH2 0x1269 JUMP JUMPDEST SWAP1 POP PUSH1 0x64 DUP2 MLOAD GT ISZERO PUSH2 0x1106 JUMPI PUSH1 0x40 MLOAD PUSH3 0x461BCD PUSH1 0xE5 SHL DUP2 MSTORE PUSH1 0x4 ADD DUP1 DUP1 PUSH1 0x20 ADD DUP3 DUP2 SUB DUP3 MSTORE PUSH1 0x21 DUP2 MSTORE PUSH1 0x20 ADD DUP1 PUSH2 0x2B73 PUSH1 0x21 SWAP2 CODECOPY PUSH1 0x40 ADD SWAP2 POP POP PUSH1 0x40 MLOAD DUP1 SWAP2 SUB SWAP1 REVERT JUMPDEST POP POP PUSH1 0x4 DUP1 SLOAD PUSH1 0xFF NOT AND PUSH1 0xFF SWAP6 DUP7 AND OR PUSH2 0xFF00 NOT AND PUSH2 0x100 SWAP5 DUP7 AND SWAP5 SWAP1 SWAP5 MUL SWAP4 SWAP1 SWAP4 OR PUSH3 0xFF0000 NOT AND PUSH3 0x10000 SWAP3 DUP6 AND SWAP3 SWAP1 SWAP3 MUL SWAP2 SWAP1 SWAP2 OR PUSH5 0xFF00000000 NOT AND PUSH1 0x1 PUSH1 0x20 SHL SWAP2 SWAP1 SWAP4 AND MUL SWAP2 SWAP1 SWAP2 OR SWAP1 SSTORE POP PUSH1 0x1 SWAP3 SWAP2 POP POP JUMP JUMPDEST PUSH1 0xF PUSH1 0x20 SWAP1 DUP2 MSTORE PUSH1 0x0 SWAP3 DUP4 MSTORE PUSH1 0x40 DUP1 DUP5 KECCAK256 SWAP1 SWAP2 MSTORE SWAP1 DUP3 MSTORE SWAP1 KECCAK256 SLOAD DUP2 JUMP JUMPDEST PUSH1 0x2 SLOAD PUSH1 0x1 PUSH1 0x1 PUSH1 0xA0 SHL SUB AND DUP2 JUMP JUMPDEST PUSH1 0x0 PUSH2 0x1195 PUSH2 0x1CF7 JUMP JUMPDEST PUSH1 0x1 PUSH1 0x1 PUSH1 0xA0 SHL SUB AND PUSH2 0x11A6 PUSH2 0x15AB JUMP JUMPDEST PUSH1 0x1 PUSH1 0x1 PUSH1 0xA0 SHL SUB AND EQ PUSH2 0x11EF JUMPI PUSH1 0x40 DUP1 MLOAD PUSH3 0x461BCD PUSH1 0xE5 SHL DUP2 MSTORE PUSH1 0x20 PUSH1 0x4 DUP3 ADD DUP2 SWAP1 MSTORE PUSH1 0x24 DUP3 ADD MSTORE PUSH1 0x0 DUP1 MLOAD PUSH1 0x20 PUSH2 0x2B94 DUP4 CODECOPY DUP2 MLOAD SWAP2 MSTORE PUSH1 0x44 DUP3 ADD MSTORE SWAP1 MLOAD SWAP1 DUP2 SWAP1 SUB PUSH1 0x64 ADD SWAP1 REVERT JUMPDEST PUSH1 0x0 PUSH2 0x11F9 PUSH2 0xD55 JUMP JUMPDEST PUSH1 0x1 PUSH1 0x1 PUSH1 0xA0 SHL SUB DUP8 AND PUSH1 0x0 SWAP1 DUP2 MSTORE PUSH1 0x3 PUSH1 0x20 MSTORE PUSH1 0x40 SWAP1 KECCAK256 SLOAD SWAP1 SWAP2 POP PUSH1 0xFF AND PUSH2 0x125D JUMPI PUSH1 0x40 DUP1 MLOAD PUSH3 0x461BCD PUSH1 0xE5 SHL DUP2 MSTORE PUSH1 0x20 PUSH1 0x4 DUP3 ADD MSTORE PUSH1 0x11 PUSH1 0x24 DUP3 ADD MSTORE PUSH17 0x17DD1BDAD95B881A5CC81A5B9D985B1A59 PUSH1 0x7A SHL PUSH1 0x44 DUP3 ADD MSTORE SWAP1 MLOAD SWAP1 DUP2 SWAP1 SUB PUSH1 0x64 ADD SWAP1 REVERT JUMPDEST PUSH2 0xB64 DUP7 DUP7 DUP7 DUP7 PUSH2 0x2732 JUMP JUMPDEST PUSH1 0x60 PUSH1 0x0 DUP1 PUSH1 0x0 JUMPDEST PUSH1 0xE SLOAD DUP2 LT ISZERO PUSH2 0x12CC JUMPI PUSH1 0xC PUSH1 0x0 PUSH1 0xE DUP4 DUP2 SLOAD DUP2 LT PUSH2 0x128C JUMPI INVALID JUMPDEST PUSH1 0x0 SWAP2 DUP3 MSTORE PUSH1 0x20 DUP1 DUP4 KECCAK256 SWAP1 SWAP2 ADD SLOAD PUSH1 0x1 PUSH1 0x1 PUSH1 0xA0 SHL SUB AND DUP4 MSTORE DUP3 ADD SWAP3 SWAP1 SWAP3 MSTORE PUSH1 0x40 ADD SWAP1 KECCAK256 SLOAD ISZERO PUSH2 0x12C4 JUMPI PUSH2 0x12C1 DUP4 PUSH1 0x1 PUSH2 0x2518 JUMP JUMPDEST SWAP3 POP JUMPDEST PUSH1 0x1 ADD PUSH2 0x1271 JUMP JUMPDEST POP PUSH1 0x60 DUP3 PUSH8 0xFFFFFFFFFFFFFFFF DUP2 GT DUP1 ISZERO PUSH2 0x12E6 JUMPI PUSH1 0x0 DUP1 REVERT JUMPDEST POP PUSH1 0x40 MLOAD SWAP1 DUP1 DUP3 MSTORE DUP1 PUSH1 0x20 MUL PUSH1 0x20 ADD DUP3 ADD PUSH1 0x40 MSTORE DUP1 ISZERO PUSH2 0x1310 JUMPI DUP2 PUSH1 0x20 ADD PUSH1 0x20 DUP3 MUL DUP1 CALLDATASIZE DUP4 CALLDATACOPY ADD SWAP1 POP JUMPDEST POP SWAP1 POP PUSH1 0x0 JUMPDEST PUSH1 0xE SLOAD DUP2 LT ISZERO PUSH2 0x13C0 JUMPI PUSH1 0xC PUSH1 0x0 PUSH1 0xE DUP4 DUP2 SLOAD DUP2 LT PUSH2 0x1331 JUMPI INVALID JUMPDEST PUSH1 0x0 SWAP2 DUP3 MSTORE PUSH1 0x20 DUP1 DUP4 KECCAK256 SWAP1 SWAP2 ADD SLOAD PUSH1 0x1 PUSH1 0x1 PUSH1 0xA0 SHL SUB AND DUP4 MSTORE DUP3 ADD SWAP3 SWAP1 SWAP3 MSTORE PUSH1 0x40 ADD SWAP1 KECCAK256 SLOAD ISZERO PUSH2 0x13B8 JUMPI PUSH1 0xC PUSH1 0x0 PUSH1 0xE DUP4 DUP2 SLOAD DUP2 LT PUSH2 0x136C JUMPI INVALID JUMPDEST PUSH1 0x0 SWAP2 DUP3 MSTORE PUSH1 0x20 DUP1 DUP4 KECCAK256 SWAP1 SWAP2 ADD SLOAD PUSH1 0x1 PUSH1 0x1 PUSH1 0xA0 SHL SUB AND DUP4 MSTORE DUP3 ADD SWAP3 SWAP1 SWAP3 MSTORE PUSH1 0x40 ADD SWAP1 KECCAK256 SLOAD DUP3 MLOAD DUP4 SWAP1 DUP6 SWAP1 DUP2 LT PUSH2 0x139F JUMPI INVALID JUMPDEST PUSH1 0x20 SWAP1 DUP2 MUL SWAP2 SWAP1 SWAP2 ADD ADD MSTORE PUSH2 0x13B5 DUP4 PUSH1 0x1 PUSH2 0x2518 JUMP JUMPDEST SWAP3 POP JUMPDEST PUSH1 0x1 ADD PUSH2 0x1316 JUMP JUMPDEST POP SWAP3 POP POP POP SWAP1 JUMP JUMPDEST PUSH1 0x7 SLOAD DUP2 JUMP JUMPDEST PUSH2 0x13D6 PUSH2 0x1CF7 JUMP JUMPDEST PUSH1 0x1 PUSH1 0x1 PUSH1 0xA0 SHL SUB AND PUSH2 0x13E7 PUSH2 0x15AB JUMP JUMPDEST PUSH1 0x1 PUSH1 0x1 PUSH1 0xA0 SHL SUB AND EQ PUSH2 0x1430 JUMPI PUSH1 0x40 DUP1 MLOAD PUSH3 0x461BCD PUSH1 0xE5 SHL DUP2 MSTORE PUSH1 0x20 PUSH1 0x4 DUP3 ADD DUP2 SWAP1 MSTORE PUSH1 0x24 DUP3 ADD MSTORE PUSH1 0x0 DUP1 MLOAD PUSH1 0x20 PUSH2 0x2B94 DUP4 CODECOPY DUP2 MLOAD SWAP2 MSTORE PUSH1 0x44 DUP3 ADD MSTORE SWAP1 MLOAD SWAP1 DUP2 SWAP1 SUB PUSH1 0x64 ADD SWAP1 REVERT JUMPDEST PUSH1 0x0 DUP1 SLOAD PUSH1 0x40 MLOAD PUSH1 0x1 PUSH1 0x1 PUSH1 0xA0 SHL SUB SWAP1 SWAP2 AND SWAP1 PUSH32 0x8BE0079C531659141344CD1FD0A4F28419497F9722A3DAAFE3B4186F6B6457E0 SWAP1 DUP4 SWAP1 LOG3 PUSH1 0x0 DUP1 SLOAD PUSH1 0x1 PUSH1 0x1 PUSH1 0xA0 SHL SUB NOT AND SWAP1 SSTORE JUMP JUMPDEST PUSH1 0x0 PUSH2 0x1484 PUSH2 0x1CF7 JUMP JUMPDEST PUSH1 0x1 PUSH1 0x1 PUSH1 0xA0 SHL SUB AND PUSH2 0x1495 PUSH2 0x15AB JUMP JUMPDEST PUSH1 0x1 PUSH1 0x1 PUSH1 0xA0 SHL SUB AND EQ PUSH2 0x14DE JUMPI PUSH1 0x40 DUP1 MLOAD PUSH3 0x461BCD PUSH1 0xE5 SHL DUP2 MSTORE PUSH1 0x20 PUSH1 0x4 DUP3 ADD DUP2 SWAP1 MSTORE PUSH1 0x24 DUP3 ADD MSTORE PUSH1 0x0 DUP1 MLOAD PUSH1 0x20 PUSH2 0x2B94 DUP4 CODECOPY DUP2 MLOAD SWAP2 MSTORE PUSH1 0x44 DUP3 ADD MSTORE SWAP1 MLOAD SWAP1 DUP2 SWAP1 SUB PUSH1 0x64 ADD SWAP1 REVERT JUMPDEST PUSH1 0x1 PUSH1 0x1 PUSH1 0xA0 SHL SUB DUP6 AND ISZERO PUSH2 0x153A JUMPI PUSH1 0x40 DUP1 MLOAD PUSH3 0x461BCD PUSH1 0xE5 SHL DUP2 MSTORE PUSH1 0x20 PUSH1 0x4 DUP3 ADD MSTORE PUSH1 0x1F PUSH1 0x24 DUP3 ADD MSTORE PUSH32 0x5F64657374546F6B656E2073686F756C64206265206164647265737328302900 PUSH1 0x44 DUP3 ADD MSTORE SWAP1 MLOAD SWAP1 DUP2 SWAP1 SUB PUSH1 0x64 ADD SWAP1 REVERT JUMPDEST PUSH1 0x1 SLOAD PUSH1 0x1 PUSH1 0x1 PUSH1 0xA0 SHL SUB AND DUP5 ISZERO PUSH2 0x158C JUMPI PUSH1 0x0 PUSH2 0x1562 DUP6 PUSH2 0x155C DUP9 DUP8 PUSH2 0x24BB JUMP JUMPDEST SWAP1 PUSH2 0x24BB JUMP JUMPDEST PUSH1 0x1 SLOAD SWAP1 SWAP2 POP PUSH2 0x1586 SWAP1 PUSH1 0x1 PUSH1 0x1 PUSH1 0xA0 SHL SUB AND PUSH1 0x0 PUSH2 0x1581 DUP5 DUP10 PUSH2 0x2518 JUMP JUMPDEST PUSH2 0x1CFB JUMP JUMPDEST POP PUSH2 0x1595 JUMP JUMPDEST DUP5 PUSH2 0x1595 JUMPI POP PUSH1 0x0 JUMPDEST PUSH2 0x159F DUP2 DUP5 PUSH2 0x1DE7 JUMP JUMPDEST POP PUSH1 0x1 SWAP6 SWAP5 POP POP POP POP POP JUMP JUMPDEST PUSH1 0x0 SLOAD PUSH1 0x1 PUSH1 0x1 PUSH1 0xA0 SHL SUB AND SWAP1 JUMP JUMPDEST PUSH1 0x3 PUSH1 0x20 MSTORE PUSH1 0x0 SWAP1 DUP2 MSTORE PUSH1 0x40 SWAP1 KECCAK256 SLOAD PUSH1 0xFF AND DUP2 JUMP JUMPDEST PUSH1 0x0 PUSH2 0x15D9 PUSH2 0x1CF7 JUMP JUMPDEST PUSH1 0x1 PUSH1 0x1 PUSH1 0xA0 SHL SUB AND PUSH2 0x15EA PUSH2 0x15AB JUMP JUMPDEST PUSH1 0x1 PUSH1 0x1 PUSH1 0xA0 SHL SUB AND EQ PUSH2 0x1633 JUMPI PUSH1 0x40 DUP1 MLOAD PUSH3 0x461BCD PUSH1 0xE5 SHL DUP2 MSTORE PUSH1 0x20 PUSH1 0x4 DUP3 ADD DUP2 SWAP1 MSTORE PUSH1 0x24 DUP3 ADD MSTORE PUSH1 0x0 DUP1 MLOAD PUSH1 0x20 PUSH2 0x2B94 DUP4 CODECOPY DUP2 MLOAD SWAP2 MSTORE PUSH1 0x44 DUP3 ADD MSTORE SWAP1 MLOAD SWAP1 DUP2 SWAP1 SUB PUSH1 0x64 ADD SWAP1 REVERT JUMPDEST PUSH1 0x1 PUSH1 0x1 PUSH1 0xA0 SHL SUB DUP7 AND PUSH1 0x0 SWAP1 DUP2 MSTORE PUSH1 0x3 PUSH1 0x20 MSTORE PUSH1 0x40 SWAP1 KECCAK256 SLOAD PUSH1 0xFF AND PUSH2 0x16A0 JUMPI PUSH1 0x40 DUP1 MLOAD PUSH3 0x461BCD PUSH1 0xE5 SHL DUP2 MSTORE PUSH1 0x20 PUSH1 0x4 DUP3 ADD MSTORE PUSH1 0x1D PUSH1 0x24 DUP3 ADD MSTORE PUSH32 0x5F64657374546F6B656E206973206E6F742077686974656C6973746564000000 PUSH1 0x44 DUP3 ADD MSTORE SWAP1 MLOAD SWAP1 DUP2 SWAP1 SUB PUSH1 0x64 ADD SWAP1 REVERT JUMPDEST PUSH1 0x1 PUSH1 0x1 PUSH1 0xA0 SHL SUB DUP7 AND PUSH2 0x16E5 JUMPI PUSH1 0x40 MLOAD PUSH3 0x461BCD PUSH1 0xE5 SHL DUP2 MSTORE PUSH1 0x4 ADD DUP1 DUP1 PUSH1 0x20 ADD DUP3 DUP2 SUB DUP3 MSTORE PUSH1 0x23 DUP2 MSTORE PUSH1 0x20 ADD DUP1 PUSH2 0x2C16 PUSH1 0x23 SWAP2 CODECOPY PUSH1 0x40 ADD SWAP2 POP POP PUSH1 0x40 MLOAD DUP1 SWAP2 SUB SWAP1 REVERT JUMPDEST PUSH1 0x0 DUP5 ISZERO PUSH2 0x170B JUMPI PUSH1 0x1 SLOAD PUSH2 0x1706 SWAP1 PUSH1 0x0 SWAP1 PUSH1 0x1 PUSH1 0x1 PUSH1 0xA0 SHL SUB AND DUP8 PUSH2 0x1CFB JUMP JUMPDEST PUSH2 0x171E JUMP JUMPDEST DUP5 PUSH2 0x171E JUMPI POP PUSH1 0x1 SLOAD PUSH1 0x1 PUSH1 0x1 PUSH1 0xA0 SHL SUB AND JUMPDEST PUSH1 0x2 SLOAD PUSH1 0x1 PUSH1 0x1 PUSH1 0xA0 SHL SUB DUP9 DUP2 AND SWAP2 AND EQ ISZERO PUSH2 0x1742 JUMPI POP PUSH1 0x2 SLOAD PUSH1 0x1 PUSH1 0x1 PUSH1 0xA0 SHL SUB AND JUMPDEST PUSH2 0x174C DUP2 DUP6 PUSH2 0x1DE7 JUMP JUMPDEST PUSH2 0x1755 DUP4 PUSH2 0x1F5E JUMP JUMPDEST PUSH1 0x0 JUMPDEST DUP7 MLOAD DUP2 LT ISZERO PUSH2 0xA56 JUMPI PUSH2 0x17A1 DUP9 DUP9 DUP4 DUP2 MLOAD DUP2 LT PUSH2 0x1771 JUMPI INVALID JUMPDEST PUSH1 0x20 MUL PUSH1 0x20 ADD ADD MLOAD PUSH1 0x0 SHR DUP10 DUP5 DUP2 MLOAD DUP2 LT PUSH2 0x1788 JUMPI INVALID JUMPDEST PUSH1 0x20 MUL PUSH1 0x20 ADD ADD MLOAD PUSH1 0xA0 SHR PUSH1 0x1 PUSH1 0x1 PUSH1 0x60 SHL SUB AND PUSH2 0x1FAD JUMP JUMPDEST PUSH1 0x1 ADD PUSH2 0x1758 JUMP JUMPDEST PUSH1 0x4 SLOAD PUSH1 0x1 PUSH1 0x20 SHL SWAP1 DIV PUSH1 0xFF AND DUP2 JUMP JUMPDEST PUSH1 0x0 PUSH2 0x17C3 PUSH2 0x1CF7 JUMP JUMPDEST PUSH1 0x1 PUSH1 0x1 PUSH1 0xA0 SHL SUB AND PUSH2 0x17D4 PUSH2 0x15AB JUMP JUMPDEST PUSH1 0x1 PUSH1 0x1 PUSH1 0xA0 SHL SUB AND EQ PUSH2 0x181D JUMPI PUSH1 0x40 DUP1 MLOAD PUSH3 0x461BCD PUSH1 0xE5 SHL DUP2 MSTORE PUSH1 0x20 PUSH1 0x4 DUP3 ADD DUP2 SWAP1 MSTORE PUSH1 0x24 DUP3 ADD MSTORE PUSH1 0x0 DUP1 MLOAD PUSH1 0x20 PUSH2 0x2B94 DUP4 CODECOPY DUP2 MLOAD SWAP2 MSTORE PUSH1 0x44 DUP3 ADD MSTORE SWAP1 MLOAD SWAP1 DUP2 SWAP1 SUB PUSH1 0x64 ADD SWAP1 REVERT JUMPDEST PUSH2 0x1826 DUP3 PUSH2 0x191E JUMP JUMPDEST ISZERO PUSH2 0x1873 JUMPI PUSH1 0x40 DUP1 MLOAD PUSH3 0x461BCD PUSH1 0xE5 SHL DUP2 MSTORE PUSH1 0x20 PUSH1 0x4 DUP3 ADD MSTORE PUSH1 0x18 PUSH1 0x24 DUP3 ADD MSTORE PUSH24 0x151A19481D1E1A59081A5CC8185B1C9958591E481D5CD959 PUSH1 0x42 SHL PUSH1 0x44 DUP3 ADD MSTORE SWAP1 MLOAD SWAP1 DUP2 SWAP1 SUB PUSH1 0x64 ADD SWAP1 REVERT JUMPDEST PUSH1 0x40 DUP1 MLOAD DUP1 DUP3 ADD SWAP1 SWAP2 MSTORE PUSH1 0x1D DUP2 MSTORE PUSH32 0x42544320666C6F617420616D6F756E7420696E73756666696369656E74000000 PUSH1 0x20 DUP1 DUP4 ADD SWAP2 SWAP1 SWAP2 MSTORE PUSH1 0x0 DUP1 MSTORE PUSH1 0xA SWAP1 MSTORE PUSH32 0x13DA86008BA1C6922DAEE3E07DB95305EF49EBCED9F5467A0B8613FCC6B343E3 SLOAD PUSH2 0x18E0 SWAP2 DUP6 SWAP1 PUSH2 0x2979 JUMP JUMPDEST PUSH1 0x0 DUP1 MSTORE PUSH1 0xA PUSH1 0x20 MSTORE PUSH32 0x13DA86008BA1C6922DAEE3E07DB95305EF49EBCED9F5467A0B8613FCC6B343E3 SSTORE PUSH2 0x1914 DUP3 PUSH2 0x2A10 JUMP JUMPDEST POP PUSH1 0x1 JUMPDEST SWAP3 SWAP2 POP POP JUMP JUMPDEST PUSH1 0x0 SWAP1 DUP2 MSTORE PUSH1 0xB PUSH1 0x20 MSTORE PUSH1 0x40 SWAP1 KECCAK256 SLOAD PUSH1 0xFF AND SWAP1 JUMP JUMPDEST PUSH1 0x0 DUP1 PUSH2 0x194D PUSH1 0x6 SLOAD PUSH1 0x5 SLOAD PUSH2 0x2518 SWAP1 SWAP2 SWAP1 PUSH4 0xFFFFFFFF AND JUMP JUMPDEST SWAP1 POP PUSH1 0x0 DUP2 GT PUSH2 0x198E JUMPI PUSH1 0x40 MLOAD PUSH3 0x461BCD PUSH1 0xE5 SHL DUP2 MSTORE PUSH1 0x4 ADD DUP1 DUP1 PUSH1 0x20 ADD DUP3 DUP2 SUB DUP3 MSTORE PUSH1 0x25 DUP2 MSTORE PUSH1 0x20 ADD DUP1 PUSH2 0x2AAC PUSH1 0x25 SWAP2 CODECOPY PUSH1 0x40 ADD SWAP2 POP POP PUSH1 0x40 MLOAD DUP1 SWAP2 SUB SWAP1 REVERT JUMPDEST PUSH1 0x60 PUSH2 0x1998 PUSH2 0x1269 JUMP JUMPDEST SWAP1 POP PUSH1 0x0 DUP1 JUMPDEST DUP3 MLOAD DUP2 LT ISZERO PUSH2 0x19E3 JUMPI PUSH2 0x19D9 DUP4 DUP3 DUP2 MLOAD DUP2 LT PUSH2 0x19B6 JUMPI INVALID JUMPDEST PUSH1 0x20 MUL PUSH1 0x20 ADD ADD MLOAD PUSH1 0xA0 SHR PUSH1 0x1 PUSH1 0x1 PUSH1 0x60 SHL SUB AND DUP4 PUSH2 0x2518 SWAP1 SWAP2 SWAP1 PUSH4 0xFFFFFFFF AND JUMP JUMPDEST SWAP2 POP PUSH1 0x1 ADD PUSH2 0x199E JUMP JUMPDEST POP PUSH1 0x2 SLOAD PUSH1 0x5 SLOAD PUSH1 0x40 DUP1 MLOAD PUSH4 0x40C10F19 PUSH1 0xE0 SHL DUP2 MSTORE ADDRESS PUSH1 0x4 DUP3 ADD MSTORE PUSH1 0x24 DUP2 ADD SWAP3 SWAP1 SWAP3 MSTORE MLOAD PUSH1 0x1 PUSH1 0x1 PUSH1 0xA0 SHL SUB SWAP1 SWAP3 AND SWAP2 PUSH4 0x40C10F19 SWAP2 PUSH1 0x44 DUP1 DUP3 ADD SWAP3 PUSH1 0x20 SWAP3 SWAP1 SWAP2 SWAP1 DUP3 SWAP1 SUB ADD DUP2 PUSH1 0x0 DUP8 DUP1 EXTCODESIZE ISZERO DUP1 ISZERO PUSH2 0x1A3B JUMPI PUSH1 0x0 DUP1 REVERT JUMPDEST POP GAS CALL ISZERO DUP1 ISZERO PUSH2 0x1A4F JUMPI RETURNDATASIZE PUSH1 0x0 DUP1 RETURNDATACOPY RETURNDATASIZE PUSH1 0x0 REVERT JUMPDEST POP POP POP POP PUSH1 0x40 MLOAD RETURNDATASIZE PUSH1 0x20 DUP2 LT ISZERO PUSH2 0x1A65 JUMPI PUSH1 0x0 DUP1 REVERT JUMPDEST POP PUSH1 0x0 SWAP1 POP JUMPDEST DUP3 MLOAD DUP2 LT ISZERO PUSH2 0x1B52 JUMPI PUSH1 0x2 SLOAD DUP4 MLOAD PUSH1 0x1 PUSH1 0x1 PUSH1 0xA0 SHL SUB SWAP1 SWAP2 AND SWAP1 PUSH4 0xA9059CBB SWAP1 DUP6 SWAP1 DUP5 SWAP1 DUP2 LT PUSH2 0x1A97 JUMPI INVALID JUMPDEST PUSH1 0x20 MUL PUSH1 0x20 ADD ADD MLOAD PUSH1 0x0 SHR PUSH2 0x1AD8 DUP6 PUSH2 0xE2A DUP9 DUP8 DUP2 MLOAD DUP2 LT PUSH2 0x1AB5 JUMPI INVALID JUMPDEST PUSH1 0x20 MUL PUSH1 0x20 ADD ADD MLOAD PUSH1 0xA0 SHR PUSH1 0x1 PUSH1 0x1 PUSH1 0x60 SHL SUB AND DUP11 PUSH2 0x2579 SWAP1 SWAP2 SWAP1 PUSH4 0xFFFFFFFF AND JUMP JUMPDEST PUSH1 0x40 MLOAD DUP4 PUSH4 0xFFFFFFFF AND PUSH1 0xE0 SHL DUP2 MSTORE PUSH1 0x4 ADD DUP1 DUP4 PUSH1 0x1 PUSH1 0x1 PUSH1 0xA0 SHL SUB AND DUP2 MSTORE PUSH1 0x20 ADD DUP3 DUP2 MSTORE PUSH1 0x20 ADD SWAP3 POP POP POP PUSH1 0x20 PUSH1 0x40 MLOAD DUP1 DUP4 SUB DUP2 PUSH1 0x0 DUP8 DUP1 EXTCODESIZE ISZERO DUP1 ISZERO PUSH2 0x1B1E JUMPI PUSH1 0x0 DUP1 REVERT JUMPDEST POP GAS CALL ISZERO DUP1 ISZERO PUSH2 0x1B32 JUMPI RETURNDATASIZE PUSH1 0x0 DUP1 RETURNDATACOPY RETURNDATASIZE PUSH1 0x0 REVERT JUMPDEST POP POP POP POP PUSH1 0x40 MLOAD RETURNDATASIZE PUSH1 0x20 DUP2 LT ISZERO PUSH2 0x1B48 JUMPI PUSH1 0x0 DUP1 REVERT JUMPDEST POP POP PUSH1 0x1 ADD PUSH2 0x1A6B JUMP JUMPDEST POP PUSH1 0x40 DUP1 MLOAD DUP5 DUP2 MSTORE SWAP1 MLOAD PUSH32 0x86DD6AE252E62228B47B3C1A12762CBF634952B2D29319B04F4F72FB153BCBDD SWAP2 DUP2 SWAP1 SUB PUSH1 0x20 ADD SWAP1 LOG1 POP POP PUSH1 0x0 PUSH1 0x5 DUP2 SWAP1 SSTORE PUSH1 0x6 SSTORE POP PUSH1 0x1 SWAP1 POP SWAP1 JUMP JUMPDEST PUSH1 0x1 PUSH1 0x1 PUSH1 0xA0 SHL SUB SWAP2 DUP3 AND PUSH1 0x0 SWAP1 DUP2 MSTORE PUSH1 0xA PUSH1 0x20 MSTORE PUSH1 0x40 DUP1 DUP3 KECCAK256 SLOAD SWAP3 SWAP1 SWAP4 AND DUP2 MSTORE SWAP2 SWAP1 SWAP2 KECCAK256 SLOAD SWAP1 SWAP2 JUMP JUMPDEST PUSH2 0x1BCC PUSH2 0x1CF7 JUMP JUMPDEST PUSH1 0x1 PUSH1 0x1 PUSH1 0xA0 SHL SUB AND PUSH2 0x1BDD PUSH2 0x15AB JUMP JUMPDEST PUSH1 0x1 PUSH1 0x1 PUSH1 0xA0 SHL SUB AND EQ PUSH2 0x1C26 JUMPI PUSH1 0x40 DUP1 MLOAD PUSH3 0x461BCD PUSH1 0xE5 SHL DUP2 MSTORE PUSH1 0x20 PUSH1 0x4 DUP3 ADD DUP2 SWAP1 MSTORE PUSH1 0x24 DUP3 ADD MSTORE PUSH1 0x0 DUP1 MLOAD PUSH1 0x20 PUSH2 0x2B94 DUP4 CODECOPY DUP2 MLOAD SWAP2 MSTORE PUSH1 0x44 DUP3 ADD MSTORE SWAP1 MLOAD SWAP1 DUP2 SWAP1 SUB PUSH1 0x64 ADD SWAP1 REVERT JUMPDEST PUSH1 0x1 PUSH1 0x1 PUSH1 0xA0 SHL SUB DUP2 AND PUSH2 0x1C6B JUMPI PUSH1 0x40 MLOAD PUSH3 0x461BCD PUSH1 0xE5 SHL DUP2 MSTORE PUSH1 0x4 ADD DUP1 DUP1 PUSH1 0x20 ADD DUP3 DUP2 SUB DUP3 MSTORE PUSH1 0x26 DUP2 MSTORE PUSH1 0x20 ADD DUP1 PUSH2 0x2B05 PUSH1 0x26 SWAP2 CODECOPY PUSH1 0x40 ADD SWAP2 POP POP PUSH1 0x40 MLOAD DUP1 SWAP2 SUB SWAP1 REVERT JUMPDEST PUSH1 0x0 DUP1 SLOAD PUSH1 0x40 MLOAD PUSH1 0x1 PUSH1 0x1 PUSH1 0xA0 SHL SUB DUP1 DUP6 AND SWAP4 SWAP3 AND SWAP2 PUSH32 0x8BE0079C531659141344CD1FD0A4F28419497F9722A3DAAFE3B4186F6B6457E0 SWAP2 LOG3 PUSH1 0x0 DUP1 SLOAD PUSH1 0x1 PUSH1 0x1 PUSH1 0xA0 SHL SUB NOT AND PUSH1 0x1 PUSH1 0x1 PUSH1 0xA0 SHL SUB SWAP3 SWAP1 SWAP3 AND SWAP2 SWAP1 SWAP2 OR SWAP1 SSTORE JUMP JUMPDEST PUSH1 0x6 SLOAD DUP2 JUMP JUMPDEST PUSH1 0x1 PUSH1 0x1 PUSH1 0xA0 SHL SUB SWAP2 DUP3 AND PUSH1 0x0 SWAP1 DUP2 MSTORE PUSH1 0xF PUSH1 0x20 SWAP1 DUP2 MSTORE PUSH1 0x40 DUP1 DUP4 KECCAK256 SWAP4 SWAP1 SWAP5 AND DUP3 MSTORE SWAP2 SWAP1 SWAP2 MSTORE KECCAK256 SLOAD SWAP1 JUMP JUMPDEST CALLER SWAP1 JUMP JUMPDEST PUSH1 0x40 DUP1 MLOAD DUP1 DUP3 ADD DUP3 MSTORE PUSH1 0x20 DUP1 DUP3 MSTORE PUSH32 0x5F737761703A20666C6F617420616D6F756E7420696E73756666696369656E74 DUP2 DUP4 ADD MSTORE PUSH1 0x1 PUSH1 0x1 PUSH1 0xA0 SHL SUB DUP6 AND PUSH1 0x0 SWAP1 DUP2 MSTORE PUSH1 0xA SWAP1 SWAP2 MSTORE SWAP2 SWAP1 SWAP2 KECCAK256 SLOAD PUSH2 0x1D52 SWAP2 DUP4 SWAP1 PUSH2 0x2979 JUMP JUMPDEST PUSH1 0x1 PUSH1 0x1 PUSH1 0xA0 SHL SUB DUP1 DUP5 AND PUSH1 0x0 SWAP1 DUP2 MSTORE PUSH1 0xA PUSH1 0x20 MSTORE PUSH1 0x40 DUP1 DUP3 KECCAK256 SWAP4 SWAP1 SWAP4 SSTORE SWAP1 DUP6 AND DUP2 MSTORE KECCAK256 SLOAD PUSH2 0x1D81 SWAP1 DUP3 PUSH2 0x2518 JUMP JUMPDEST PUSH1 0x1 PUSH1 0x1 PUSH1 0xA0 SHL SUB DUP1 DUP6 AND PUSH1 0x0 DUP2 DUP2 MSTORE PUSH1 0xA PUSH1 0x20 SWAP1 DUP2 MSTORE PUSH1 0x40 SWAP2 DUP3 SWAP1 KECCAK256 SWAP5 SWAP1 SWAP5 SSTORE DUP1 MLOAD SWAP2 DUP3 MSTORE SWAP2 DUP6 AND SWAP3 DUP2 ADD SWAP3 SWAP1 SWAP3 MSTORE DUP2 DUP2 ADD DUP4 SWAP1 MSTORE MLOAD PUSH32 0xEA368A40E9570069BB8E6511D668293AD2E1F03B0D982431FD223DE9F3B70CA6 SWAP2 DUP2 SWAP1 SUB PUSH1 0x60 ADD SWAP1 LOG1 POP POP POP JUMP JUMPDEST DUP1 PUSH2 0x1DF1 JUMPI PUSH2 0x1F5A JUMP JUMPDEST PUSH1 0x2 SLOAD PUSH1 0x1 PUSH1 0x1 PUSH1 0xA0 SHL SUB DUP4 DUP2 AND SWAP2 AND EQ ISZERO PUSH2 0x1E6C JUMPI PUSH1 0x6 SLOAD PUSH2 0x1E14 SWAP1 DUP3 PUSH2 0x2518 JUMP JUMPDEST PUSH1 0x6 SSTORE PUSH1 0x40 DUP1 MLOAD PUSH1 0x1 PUSH1 0x1 PUSH1 0xA0 SHL SUB DUP5 AND DUP2 MSTORE PUSH1 0x20 DUP2 ADD DUP4 SWAP1 MSTORE PUSH1 0x0 DUP2 DUP4 ADD DUP2 SWAP1 MSTORE PUSH1 0x60 DUP3 ADD MSTORE SWAP1 MLOAD PUSH32 0xE3DEBE835F6848EDC082B32A1D729781D3BFCD7E14422D80BCAA6794D3816B2F SWAP2 DUP2 SWAP1 SUB PUSH1 0x80 ADD SWAP1 LOG1 PUSH2 0x1F5A JUMP JUMPDEST PUSH1 0x0 PUSH2 0x1E76 PUSH2 0xD55 JUMP JUMPDEST PUSH1 0x1 PUSH1 0x1 PUSH1 0xA0 SHL SUB DUP5 AND PUSH1 0x0 SWAP1 DUP2 MSTORE PUSH1 0xA PUSH1 0x20 MSTORE PUSH1 0x40 SWAP1 KECCAK256 SLOAD SWAP1 SWAP2 POP PUSH2 0x1E9C SWAP1 DUP4 PUSH2 0x2518 JUMP JUMPDEST PUSH1 0x1 PUSH1 0x1 PUSH1 0xA0 SHL SUB DUP5 AND PUSH1 0x0 SWAP1 DUP2 MSTORE PUSH1 0xA PUSH1 0x20 MSTORE PUSH1 0x40 DUP2 KECCAK256 SWAP2 SWAP1 SWAP2 SSTORE PUSH1 0x4 SLOAD PUSH2 0x1ED6 SWAP1 PUSH1 0x64 SWAP1 PUSH2 0xE2A SWAP1 DUP7 SWAP1 PUSH3 0x10000 SWAP1 DIV PUSH1 0xFF AND PUSH2 0x2579 JUMP JUMPDEST SWAP1 POP PUSH1 0x0 PUSH2 0x1EF3 DUP4 PUSH2 0xE2A PUSH1 0x9 SLOAD DUP6 PUSH2 0x2579 SWAP1 SWAP2 SWAP1 PUSH4 0xFFFFFFFF AND JUMP JUMPDEST PUSH1 0x5 SLOAD SWAP1 SWAP2 POP PUSH2 0x1F03 SWAP1 DUP3 PUSH2 0x2518 JUMP JUMPDEST PUSH1 0x5 SSTORE PUSH1 0x40 DUP1 MLOAD PUSH1 0x1 PUSH1 0x1 PUSH1 0xA0 SHL SUB DUP8 AND DUP2 MSTORE PUSH1 0x20 DUP2 ADD DUP7 SWAP1 MSTORE DUP1 DUP3 ADD DUP4 SWAP1 MSTORE PUSH1 0x60 DUP2 ADD DUP6 SWAP1 MSTORE SWAP1 MLOAD PUSH32 0xE3DEBE835F6848EDC082B32A1D729781D3BFCD7E14422D80BCAA6794D3816B2F SWAP2 DUP2 SWAP1 SUB PUSH1 0x80 ADD SWAP1 LOG1 POP POP POP JUMPDEST POP POP JUMP JUMPDEST PUSH1 0x0 JUMPDEST DUP2 MLOAD DUP2 LT ISZERO PUSH2 0x1F5A JUMPI PUSH1 0x1 PUSH1 0xB PUSH1 0x0 DUP5 DUP5 DUP2 MLOAD DUP2 LT PUSH2 0x1F7C JUMPI INVALID JUMPDEST PUSH1 0x20 SWAP1 DUP2 MUL SWAP2 SWAP1 SWAP2 ADD DUP2 ADD MLOAD DUP3 MSTORE DUP2 ADD SWAP2 SWAP1 SWAP2 MSTORE PUSH1 0x40 ADD PUSH1 0x0 KECCAK256 DUP1 SLOAD PUSH1 0xFF NOT AND SWAP2 ISZERO ISZERO SWAP2 SWAP1 SWAP2 OR SWAP1 SSTORE PUSH1 0x1 ADD PUSH2 0x1F61 JUMP JUMPDEST PUSH1 0x1 SLOAD PUSH1 0x1 PUSH1 0x1 PUSH1 0xA0 SHL SUB DUP5 DUP2 AND SWAP2 AND EQ ISZERO PUSH2 0x1FD4 JUMPI PUSH1 0x8 SLOAD PUSH2 0x1FD1 SWAP1 DUP3 SWAP1 PUSH2 0x2579 JUMP JUMPDEST SWAP1 POP JUMPDEST DUP3 PUSH1 0x1 PUSH1 0x1 PUSH1 0xA0 SHL SUB AND PUSH4 0xA9059CBB DUP4 DUP4 PUSH1 0x40 MLOAD DUP4 PUSH4 0xFFFFFFFF AND PUSH1 0xE0 SHL DUP2 MSTORE PUSH1 0x4 ADD DUP1 DUP4 PUSH1 0x1 PUSH1 0x1 PUSH1 0xA0 SHL SUB AND DUP2 MSTORE PUSH1 0x20 ADD DUP3 DUP2 MSTORE PUSH1 0x20 ADD SWAP3 POP POP POP PUSH1 0x20 PUSH1 0x40 MLOAD DUP1 DUP4 SUB DUP2 PUSH1 0x0 DUP8 DUP1 EXTCODESIZE ISZERO DUP1 ISZERO PUSH2 0x202B JUMPI PUSH1 0x0 DUP1 REVERT JUMPDEST POP GAS CALL ISZERO DUP1 ISZERO PUSH2 0x203F JUMPI RETURNDATASIZE PUSH1 0x0 DUP1 RETURNDATACOPY RETURNDATASIZE PUSH1 0x0 REVERT JUMPDEST POP POP POP POP PUSH1 0x40 MLOAD RETURNDATASIZE PUSH1 0x20 DUP2 LT ISZERO PUSH2 0x2055 JUMPI PUSH1 0x0 DUP1 REVERT JUMPDEST POP MLOAD PUSH2 0x2060 JUMPI PUSH1 0x0 DUP1 REVERT JUMPDEST POP POP POP JUMP JUMPDEST PUSH1 0x0 PUSH2 0x2070 DUP3 PUSH2 0x191E JUMP JUMPDEST ISZERO PUSH2 0x20BD JUMPI PUSH1 0x40 DUP1 MLOAD PUSH3 0x461BCD PUSH1 0xE5 SHL DUP2 MSTORE PUSH1 0x20 PUSH1 0x4 DUP3 ADD MSTORE PUSH1 0x18 PUSH1 0x24 DUP3 ADD MSTORE PUSH24 0x151A19481D1E1A59081A5CC8185B1C9958591E481D5CD959 PUSH1 0x42 SHL PUSH1 0x44 DUP3 ADD MSTORE SWAP1 MLOAD SWAP1 DUP2 SWAP1 SUB PUSH1 0x64 ADD SWAP1 REVERT JUMPDEST DUP4 PUSH2 0x210F JUMPI PUSH1 0x40 DUP1 MLOAD PUSH3 0x461BCD PUSH1 0xE5 SHL DUP2 MSTORE PUSH1 0x20 PUSH1 0x4 DUP3 ADD MSTORE PUSH1 0x1C PUSH1 0x24 DUP3 ADD MSTORE PUSH32 0x546865207472616E73616374696F6E206973206E6F742076616C696400000000 PUSH1 0x44 DUP3 ADD MSTORE SWAP1 MLOAD SWAP1 DUP2 SWAP1 SUB PUSH1 0x64 ADD SWAP1 REVERT JUMPDEST PUSH1 0x0 DUP1 PUSH2 0x211B DUP7 PUSH2 0x2639 JUMP JUMPDEST SWAP2 POP SWAP2 POP PUSH1 0x0 PUSH2 0x2129 PUSH2 0xD55 JUMP JUMPDEST SWAP1 POP PUSH1 0x0 PUSH2 0x2146 PUSH1 0x9 SLOAD PUSH2 0xE2A DUP5 DUP7 PUSH2 0x2579 SWAP1 SWAP2 SWAP1 PUSH4 0xFFFFFFFF AND JUMP JUMPDEST PUSH1 0x4 SLOAD SWAP1 SWAP2 POP PUSH1 0x0 SWAP1 PUSH2 0x216C SWAP1 PUSH2 0x2710 SWAP1 PUSH2 0xE2A SWAP1 DUP6 SWAP1 PUSH1 0x1 PUSH1 0x20 SHL SWAP1 DIV PUSH1 0xFF AND PUSH2 0x2579 JUMP JUMPDEST SWAP1 POP DUP8 PUSH2 0x2179 DUP4 DUP4 PUSH2 0x24BB JUMP JUMPDEST LT ISZERO PUSH2 0x21B6 JUMPI PUSH1 0x40 MLOAD PUSH3 0x461BCD PUSH1 0xE5 SHL DUP2 MSTORE PUSH1 0x4 ADD DUP1 DUP1 PUSH1 0x20 ADD DUP3 DUP2 SUB DUP3 MSTORE PUSH1 0x34 DUP2 MSTORE PUSH1 0x20 ADD DUP1 PUSH2 0x2AD1 PUSH1 0x34 SWAP2 CODECOPY PUSH1 0x40 ADD SWAP2 POP POP PUSH1 0x40 MLOAD DUP1 SWAP2 SUB SWAP1 REVERT JUMPDEST PUSH1 0x0 PUSH2 0x21C6 DUP10 PUSH2 0x155C DUP6 DUP6 PUSH2 0x24BB JUMP JUMPDEST PUSH1 0x1 SLOAD SWAP1 SWAP2 POP PUSH1 0x0 SWAP1 DUP2 SWAP1 PUSH2 0x21E5 SWAP1 DUP3 SWAP1 PUSH1 0x1 PUSH1 0x1 PUSH1 0xA0 SHL SUB AND PUSH2 0x1B9A JUMP JUMPDEST SWAP1 SWAP3 POP SWAP1 POP PUSH1 0x1 PUSH1 0x1 PUSH1 0xA0 SHL SUB DUP14 AND PUSH2 0x225B JUMPI PUSH2 0x2202 DUP6 DUP6 PUSH2 0x24BB JUMP JUMPDEST DUP3 LT ISZERO PUSH2 0x2256 JUMPI PUSH1 0x40 DUP1 MLOAD PUSH3 0x461BCD PUSH1 0xE5 SHL DUP2 MSTORE PUSH1 0x20 PUSH1 0x4 DUP3 ADD MSTORE PUSH1 0x1F PUSH1 0x24 DUP3 ADD MSTORE PUSH32 0x54686520666C6F61742062616C616E636520696E73756666696369656E742E00 PUSH1 0x44 DUP3 ADD MSTORE SWAP1 MLOAD SWAP1 DUP2 SWAP1 SUB PUSH1 0x64 ADD SWAP1 REVERT JUMPDEST PUSH2 0x22CF JUMP JUMPDEST PUSH1 0x1 SLOAD PUSH1 0x1 PUSH1 0x1 PUSH1 0xA0 SHL SUB DUP15 DUP2 AND SWAP2 AND EQ ISZERO PUSH2 0x22CF JUMPI PUSH2 0x227B DUP6 DUP6 PUSH2 0x24BB JUMP JUMPDEST DUP2 LT ISZERO PUSH2 0x22CF JUMPI PUSH1 0x40 DUP1 MLOAD PUSH3 0x461BCD PUSH1 0xE5 SHL DUP2 MSTORE PUSH1 0x20 PUSH1 0x4 DUP3 ADD MSTORE PUSH1 0x1F PUSH1 0x24 DUP3 ADD MSTORE PUSH32 0x54686520666C6F61742062616C616E636520696E73756666696369656E742E00 PUSH1 0x44 DUP3 ADD MSTORE SWAP1 MLOAD SWAP1 DUP2 SWAP1 SUB PUSH1 0x64 ADD SWAP1 REVERT JUMPDEST PUSH2 0x22D9 DUP14 DUP6 PUSH2 0x1DE7 JUMP JUMPDEST PUSH2 0x22E3 DUP14 DUP7 PUSH2 0x2A2B JUMP JUMPDEST PUSH2 0x22EC DUP11 PUSH2 0x2A10 JUMP JUMPDEST PUSH1 0x1 SLOAD PUSH1 0x1 PUSH1 0x1 PUSH1 0xA0 SHL SUB DUP15 DUP2 AND SWAP2 AND EQ ISZERO PUSH2 0x230D JUMPI PUSH2 0x230D DUP14 DUP10 DUP6 PUSH2 0x1FAD JUMP JUMPDEST PUSH1 0x2 SLOAD PUSH1 0x40 DUP1 MLOAD PUSH4 0x852CD8D PUSH1 0xE3 SHL DUP2 MSTORE PUSH1 0x4 DUP2 ADD DUP11 SWAP1 MSTORE SWAP1 MLOAD PUSH1 0x1 PUSH1 0x1 PUSH1 0xA0 SHL SUB SWAP1 SWAP3 AND SWAP2 PUSH4 0x42966C68 SWAP2 PUSH1 0x24 DUP1 DUP3 ADD SWAP3 PUSH1 0x20 SWAP3 SWAP1 SWAP2 SWAP1 DUP3 SWAP1 SUB ADD DUP2 PUSH1 0x0 DUP8 DUP1 EXTCODESIZE ISZERO DUP1 ISZERO PUSH2 0x235B JUMPI PUSH1 0x0 DUP1 REVERT JUMPDEST POP GAS CALL ISZERO DUP1 ISZERO PUSH2 0x236F JUMPI RETURNDATASIZE PUSH1 0x0 DUP1 RETURNDATACOPY RETURNDATASIZE PUSH1 0x0 REVERT JUMPDEST POP POP POP POP PUSH1 0x40 MLOAD RETURNDATASIZE PUSH1 0x20 DUP2 LT ISZERO PUSH2 0x2385 JUMPI PUSH1 0x0 DUP1 REVERT JUMPDEST POP MLOAD PUSH2 0x2390 JUMPI PUSH1 0x0 DUP1 REVERT JUMPDEST PUSH1 0x40 DUP1 MLOAD PUSH1 0x1 PUSH1 0x1 PUSH1 0xA0 SHL SUB DUP11 AND DUP2 MSTORE PUSH1 0x20 DUP2 ADD DUP10 SWAP1 MSTORE DUP1 DUP3 ADD DUP8 SWAP1 MSTORE PUSH1 0x60 DUP2 ADD DUP9 SWAP1 MSTORE PUSH1 0x80 DUP2 ADD DUP6 SWAP1 MSTORE PUSH1 0xA0 DUP2 ADD DUP13 SWAP1 MSTORE SWAP1 MLOAD PUSH32 0xA9DA34E5E4A956B744307AE7611795634E8365951073BF049D76B64B2AE7A058 SWAP2 DUP2 SWAP1 SUB PUSH1 0xC0 ADD SWAP1 LOG1 POP PUSH1 0x1 SWAP13 SWAP12 POP POP POP POP POP POP POP POP POP POP POP POP JUMP JUMPDEST PUSH1 0x1 SLOAD PUSH1 0x0 SWAP1 DUP2 SWAP1 DUP2 SWAP1 PUSH2 0x241F SWAP1 DUP3 SWAP1 PUSH1 0x1 PUSH1 0x1 PUSH1 0xA0 SHL SUB AND PUSH2 0x1B9A JUMP JUMPDEST SWAP1 SWAP3 POP SWAP1 POP PUSH1 0x0 PUSH2 0x2444 PUSH1 0x3 PUSH2 0xE2A PUSH1 0x2 PUSH2 0xE24 DUP10 PUSH2 0x243E DUP10 DUP10 PUSH2 0x2518 JUMP JUMPDEST SWAP1 PUSH2 0x2518 JUMP JUMPDEST PUSH1 0x1 SLOAD SWAP1 SWAP2 POP PUSH1 0x1 PUSH1 0x1 PUSH1 0xA0 SHL SUB DUP8 DUP2 AND SWAP2 AND EQ DUP1 ISZERO PUSH2 0x246D JUMPI POP DUP1 PUSH2 0x246A DUP4 DUP8 PUSH2 0x2518 JUMP JUMPDEST LT ISZERO JUMPDEST ISZERO PUSH2 0x247E JUMPI PUSH1 0x1 SWAP4 POP POP POP POP PUSH2 0x1918 JUMP JUMPDEST PUSH1 0x1 PUSH1 0x1 PUSH1 0xA0 SHL SUB DUP7 AND ISZERO DUP1 ISZERO PUSH2 0x249E JUMPI POP DUP1 PUSH2 0x249B DUP5 DUP8 PUSH2 0x2518 JUMP JUMPDEST LT ISZERO JUMPDEST ISZERO PUSH2 0x24AF JUMPI PUSH1 0x2 SWAP4 POP POP POP POP PUSH2 0x1918 JUMP JUMPDEST POP PUSH1 0x0 SWAP6 SWAP5 POP POP POP POP POP JUMP JUMPDEST PUSH1 0x0 DUP3 DUP3 GT ISZERO PUSH2 0x2512 JUMPI PUSH1 0x40 DUP1 MLOAD PUSH3 0x461BCD PUSH1 0xE5 SHL DUP2 MSTORE PUSH1 0x20 PUSH1 0x4 DUP3 ADD MSTORE PUSH1 0x1E PUSH1 0x24 DUP3 ADD MSTORE PUSH32 0x536166654D6174683A207375627472616374696F6E206F766572666C6F770000 PUSH1 0x44 DUP3 ADD MSTORE SWAP1 MLOAD SWAP1 DUP2 SWAP1 SUB PUSH1 0x64 ADD SWAP1 REVERT JUMPDEST POP SWAP1 SUB SWAP1 JUMP JUMPDEST PUSH1 0x0 DUP3 DUP3 ADD DUP4 DUP2 LT ISZERO PUSH2 0x2572 JUMPI PUSH1 0x40 DUP1 MLOAD PUSH3 0x461BCD PUSH1 0xE5 SHL DUP2 MSTORE PUSH1 0x20 PUSH1 0x4 DUP3 ADD MSTORE PUSH1 0x1B PUSH1 0x24 DUP3 ADD MSTORE PUSH32 0x536166654D6174683A206164646974696F6E206F766572666C6F770000000000 PUSH1 0x44 DUP3 ADD MSTORE SWAP1 MLOAD SWAP1 DUP2 SWAP1 SUB PUSH1 0x64 ADD SWAP1 REVERT JUMPDEST SWAP4 SWAP3 POP POP POP JUMP JUMPDEST PUSH1 0x0 DUP3 PUSH2 0x2588 JUMPI POP PUSH1 0x0 PUSH2 0x1918 JUMP JUMPDEST DUP3 DUP3 MUL DUP3 DUP5 DUP3 DUP2 PUSH2 0x2595 JUMPI INVALID JUMPDEST DIV EQ PUSH2 0x2572 JUMPI PUSH1 0x40 MLOAD PUSH3 0x461BCD PUSH1 0xE5 SHL DUP2 MSTORE PUSH1 0x4 ADD DUP1 DUP1 PUSH1 0x20 ADD DUP3 DUP2 SUB DUP3 MSTORE PUSH1 0x21 DUP2 MSTORE PUSH1 0x20 ADD DUP1 PUSH2 0x2B52 PUSH1 0x21 SWAP2 CODECOPY PUSH1 0x40 ADD SWAP2 POP POP PUSH1 0x40 MLOAD DUP1 SWAP2 SUB SWAP1 REVERT JUMPDEST PUSH1 0x0 DUP1 DUP3 GT PUSH2 0x2628 JUMPI PUSH1 0x40 DUP1 MLOAD PUSH3 0x461BCD PUSH1 0xE5 SHL DUP2 MSTORE PUSH1 0x20 PUSH1 0x4 DUP3 ADD MSTORE PUSH1 0x1A PUSH1 0x24 DUP3 ADD MSTORE PUSH32 0x536166654D6174683A206469766973696F6E206279207A65726F000000000000 PUSH1 0x44 DUP3 ADD MSTORE SWAP1 MLOAD SWAP1 DUP2 SWAP1 SUB PUSH1 0x64 ADD SWAP1 REVERT JUMPDEST DUP2 DUP4 DUP2 PUSH2 0x2631 JUMPI INVALID JUMPDEST DIV SWAP4 SWAP3 POP POP POP JUMP JUMPDEST SWAP1 PUSH1 0xA0 DUP3 SWAP1 SHR SWAP1 JUMP JUMPDEST PUSH1 0x0 DUP2 ISZERO PUSH2 0x266B JUMPI POP PUSH1 0x1 PUSH1 0x1 PUSH1 0xA0 SHL SUB DUP4 AND PUSH1 0x0 SWAP1 DUP2 MSTORE PUSH1 0xC PUSH1 0x20 MSTORE PUSH1 0x40 DUP2 KECCAK256 SSTORE PUSH1 0x1 PUSH2 0x2572 JUMP JUMPDEST PUSH1 0x1 PUSH1 0x1 PUSH1 0xA0 SHL SUB DUP5 AND PUSH1 0x0 SWAP1 DUP2 MSTORE PUSH1 0xD PUSH1 0x20 MSTORE PUSH1 0x40 SWAP1 KECCAK256 SLOAD PUSH1 0xFF AND PUSH2 0x26EF JUMPI PUSH1 0xE DUP1 SLOAD PUSH1 0x1 DUP1 DUP3 ADD SWAP1 SWAP3 SSTORE PUSH32 0xBB7B4A454DC3493923482F07822329ED19E8244EFF582CC204F8554C3620C3FD ADD DUP1 SLOAD PUSH1 0x1 PUSH1 0x1 PUSH1 0xA0 SHL SUB NOT AND PUSH1 0x1 PUSH1 0x1 PUSH1 0xA0 SHL SUB DUP8 AND SWAP1 DUP2 OR SWAP1 SWAP2 SSTORE PUSH1 0x0 SWAP1 DUP2 MSTORE PUSH1 0xD PUSH1 0x20 MSTORE PUSH1 0x40 SWAP1 KECCAK256 DUP1 SLOAD PUSH1 0xFF NOT AND SWAP1 SWAP2 OR SWAP1 SSTORE JUMPDEST PUSH1 0x1 PUSH1 0x1 PUSH1 0xA0 SHL SUB DUP5 AND PUSH1 0x0 SWAP1 DUP2 MSTORE PUSH1 0xC PUSH1 0x20 MSTORE PUSH1 0x40 SWAP1 KECCAK256 SLOAD PUSH2 0x2728 JUMPI PUSH1 0x1 PUSH1 0x1 PUSH1 0xA0 SHL SUB DUP5 AND PUSH1 0x0 SWAP1 DUP2 MSTORE PUSH1 0xC PUSH1 0x20 MSTORE PUSH1 0x40 SWAP1 KECCAK256 DUP4 SWAP1 SSTORE JUMPDEST POP PUSH1 0x1 SWAP4 SWAP3 POP POP POP JUMP JUMPDEST PUSH1 0x0 PUSH2 0x273D DUP3 PUSH2 0x191E JUMP JUMPDEST ISZERO PUSH2 0x278A JUMPI PUSH1 0x40 DUP1 MLOAD PUSH3 0x461BCD PUSH1 0xE5 SHL DUP2 MSTORE PUSH1 0x20 PUSH1 0x4 DUP3 ADD MSTORE PUSH1 0x18 PUSH1 0x24 DUP3 ADD MSTORE PUSH24 0x151A19481D1E1A59081A5CC8185B1C9958591E481D5CD959 PUSH1 0x42 SHL PUSH1 0x44 DUP3 ADD MSTORE SWAP1 MLOAD SWAP1 DUP2 SWAP1 SUB PUSH1 0x64 ADD SWAP1 REVERT JUMPDEST DUP4 PUSH2 0x27DC JUMPI PUSH1 0x40 DUP1 MLOAD PUSH3 0x461BCD PUSH1 0xE5 SHL DUP2 MSTORE PUSH1 0x20 PUSH1 0x4 DUP3 ADD MSTORE PUSH1 0x1C PUSH1 0x24 DUP3 ADD MSTORE PUSH32 0x546865207472616E73616374696F6E206973206E6F742076616C696400000000 PUSH1 0x44 DUP3 ADD MSTORE SWAP1 MLOAD SWAP1 DUP2 SWAP1 SUB PUSH1 0x64 ADD SWAP1 REVERT JUMPDEST PUSH1 0x0 DUP1 PUSH2 0x27E8 DUP7 PUSH2 0x2639 JUMP JUMPDEST SWAP2 POP SWAP2 POP PUSH1 0x0 PUSH2 0x27F6 PUSH2 0xD55 JUMP JUMPDEST SWAP1 POP PUSH1 0x0 PUSH2 0x2813 DUP3 PUSH2 0xE2A PUSH1 0x9 SLOAD DUP7 PUSH2 0x2579 SWAP1 SWAP2 SWAP1 PUSH4 0xFFFFFFFF AND JUMP JUMPDEST SWAP1 POP PUSH1 0x0 PUSH2 0x2821 DUP11 DUP6 PUSH2 0xBD0 JUMP JUMPDEST SWAP1 POP PUSH1 0x0 DUP2 PUSH2 0x2831 JUMPI PUSH1 0x0 PUSH2 0x2841 JUMP JUMPDEST PUSH2 0x2841 PUSH2 0x2710 PUSH2 0xE2A DUP6 DUP6 PUSH2 0x2579 JUMP JUMPDEST SWAP1 POP DUP9 DUP1 ISZERO PUSH2 0x284F JUMPI POP DUP1 ISZERO ISZERO JUMPDEST ISZERO PUSH2 0x2859 JUMPI PUSH1 0x0 DUP1 REVERT JUMPDEST PUSH1 0x2 SLOAD PUSH1 0x1 PUSH1 0x1 PUSH1 0xA0 SHL SUB AND PUSH4 0x40C10F19 DUP8 PUSH2 0x2875 DUP7 DUP6 PUSH2 0x24BB JUMP JUMPDEST PUSH1 0x40 MLOAD DUP4 PUSH4 0xFFFFFFFF AND PUSH1 0xE0 SHL DUP2 MSTORE PUSH1 0x4 ADD DUP1 DUP4 PUSH1 0x1 PUSH1 0x1 PUSH1 0xA0 SHL SUB AND DUP2 MSTORE PUSH1 0x20 ADD DUP3 DUP2 MSTORE PUSH1 0x20 ADD SWAP3 POP POP POP PUSH1 0x20 PUSH1 0x40 MLOAD DUP1 DUP4 SUB DUP2 PUSH1 0x0 DUP8 DUP1 EXTCODESIZE ISZERO DUP1 ISZERO PUSH2 0x28BB JUMPI PUSH1 0x0 DUP1 REVERT JUMPDEST POP GAS CALL ISZERO DUP1 ISZERO PUSH2 0x28CF JUMPI RETURNDATASIZE PUSH1 0x0 DUP1 RETURNDATACOPY RETURNDATASIZE PUSH1 0x0 REVERT JUMPDEST POP POP POP POP PUSH1 0x40 MLOAD RETURNDATASIZE PUSH1 0x20 DUP2 LT ISZERO PUSH2 0x28E5 JUMPI PUSH1 0x0 DUP1 REVERT JUMPDEST POP POP PUSH1 0x5 SLOAD PUSH2 0x28F4 SWAP1 DUP3 PUSH2 0x2518 JUMP JUMPDEST PUSH1 0x5 SSTORE PUSH2 0x2901 DUP12 DUP7 PUSH2 0x2A88 JUMP JUMPDEST PUSH2 0x290A DUP9 PUSH2 0x2A10 JUMP JUMPDEST PUSH1 0x40 DUP1 MLOAD PUSH1 0x1 PUSH1 0x1 PUSH1 0xA0 SHL SUB DUP9 AND DUP2 MSTORE PUSH1 0x20 DUP2 ADD DUP8 SWAP1 MSTORE DUP1 DUP3 ADD DUP6 SWAP1 MSTORE PUSH1 0x60 DUP2 ADD DUP7 SWAP1 MSTORE PUSH1 0x80 DUP2 ADD DUP4 SWAP1 MSTORE PUSH1 0xA0 DUP2 ADD DUP11 SWAP1 MSTORE SWAP1 MLOAD PUSH32 0xDFAF4E23F7030ADAFEC91A682E05BF9FB30C721F9CEC3D8BCFAE0459C5362DB1 SWAP2 DUP2 SWAP1 SUB PUSH1 0xC0 ADD SWAP1 LOG1 POP PUSH1 0x1 SWAP11 SWAP10 POP POP POP POP POP POP POP POP POP POP JUMP JUMPDEST PUSH1 0x0 DUP2 DUP5 DUP5 GT ISZERO PUSH2 0x2A08 JUMPI PUSH1 0x40 MLOAD PUSH3 0x461BCD PUSH1 0xE5 SHL DUP2 MSTORE PUSH1 0x4 ADD DUP1 DUP1 PUSH1 0x20 ADD DUP3 DUP2 SUB DUP3 MSTORE DUP4 DUP2 DUP2 MLOAD DUP2 MSTORE PUSH1 0x20 ADD SWAP2 POP DUP1 MLOAD SWAP1 PUSH1 0x20 ADD SWAP1 DUP1 DUP4 DUP4 PUSH1 0x0 JUMPDEST DUP4 DUP2 LT ISZERO PUSH2 0x29CD JUMPI DUP2 DUP2 ADD MLOAD DUP4 DUP3 ADD MSTORE PUSH1 0x20 ADD PUSH2 0x29B5 JUMP JUMPDEST POP POP POP POP SWAP1 POP SWAP1 DUP2 ADD SWAP1 PUSH1 0x1F AND DUP1 ISZERO PUSH2 0x29FA JUMPI DUP1 DUP3 SUB DUP1 MLOAD PUSH1 0x1 DUP4 PUSH1 0x20 SUB PUSH2 0x100 EXP SUB NOT AND DUP2 MSTORE PUSH1 0x20 ADD SWAP2 POP JUMPDEST POP SWAP3 POP POP POP PUSH1 0x40 MLOAD DUP1 SWAP2 SUB SWAP1 REVERT JUMPDEST POP POP POP SWAP1 SUB SWAP1 JUMP JUMPDEST PUSH1 0x0 SWAP1 DUP2 MSTORE PUSH1 0xB PUSH1 0x20 MSTORE PUSH1 0x40 SWAP1 KECCAK256 DUP1 SLOAD PUSH1 0xFF NOT AND PUSH1 0x1 OR SWAP1 SSTORE JUMP JUMPDEST PUSH2 0x2A68 DUP2 PUSH1 0x40 MLOAD DUP1 PUSH1 0x60 ADD PUSH1 0x40 MSTORE DUP1 PUSH1 0x27 DUP2 MSTORE PUSH1 0x20 ADD PUSH2 0x2BB4 PUSH1 0x27 SWAP2 CODECOPY PUSH1 0x1 PUSH1 0x1 PUSH1 0xA0 SHL SUB DUP6 AND PUSH1 0x0 SWAP1 DUP2 MSTORE PUSH1 0xA PUSH1 0x20 MSTORE PUSH1 0x40 SWAP1 KECCAK256 SLOAD SWAP2 SWAP1 PUSH2 0x2979 JUMP JUMPDEST PUSH1 0x1 PUSH1 0x1 PUSH1 0xA0 SHL SUB SWAP1 SWAP3 AND PUSH1 0x0 SWAP1 DUP2 MSTORE PUSH1 0xA PUSH1 0x20 MSTORE PUSH1 0x40 SWAP1 KECCAK256 SWAP2 SWAP1 SWAP2 SSTORE POP JUMP JUMPDEST PUSH1 0x1 PUSH1 0x1 PUSH1 0xA0 SHL SUB DUP3 AND PUSH1 0x0 SWAP1 DUP2 MSTORE PUSH1 0xA PUSH1 0x20 MSTORE PUSH1 0x40 SWAP1 KECCAK256 SLOAD PUSH2 0x2A68 SWAP1 DUP3 PUSH2 0x2518 JUMP INVALID PUSH21 0x6F74616C5265776172644C5073466F724E6F646520 PUSH10 0x73206E6F7420706F7369 PUSH21 0x6976654572726F723A20616D6F756E744F66466C6F PUSH2 0x742E PUSH20 0x7562287769746864726177616C4665657329203C KECCAK256 0x5F PUSH14 0x696E65724665654F776E61626C65 GASPRICE KECCAK256 PUSH15 0x6577206F776E657220697320746865 KECCAK256 PUSH27 0x65726F20616464726573735F7473735468726573686F6C64207368 PUSH16 0x756C64206265203E3D20747373546872 PUSH6 0x73686F6C6453 PUSH2 0x6665 0x4D PUSH2 0x7468 GASPRICE KECCAK256 PUSH14 0x756C7469706C69636174696F6E20 PUSH16 0x766572666C6F7753746F726564206E6F PUSH5 0x652073697A PUSH6 0x2073686F756C PUSH5 0x206265203C RETURNDATASIZE KECCAK256 BALANCE ADDRESS ADDRESS 0x4F PUSH24 0x6E61626C653A2063616C6C6572206973206E6F7420746865 KECCAK256 PUSH16 0x776E65725F72656D6F7665466C6F6174 GASPRICE KECCAK256 PUSH7 0x6C6F617420616D PUSH16 0x756E7420696E73756666696369656E74 0x5F PUSH19 0x657761726441646472657373416E64416D6F75 PUSH15 0x747320616E64205F697352656D6F76 PUSH6 0x64206C656E67 PUSH21 0x68206973206E6F74206D617463685F64657374546F PUSH12 0x656E2073686F756C64206E6F PUSH21 0x2062652061646472657373283029A2646970667358 0x22 SLT KECCAK256 0xE0 PUSH13 0xA54240D3D4426A939316845304 DUP10 0xEE REVERT SSTORE 0xEA SWAP8 CALLCODE ORIGIN EXTCODEHASH CALLDATACOPY PUSH29 0x9B6970936F2864736F6C63430007030033000000000000000000000000 "
        },
        "methodIdentifiers": {
          "BTCT_ADDR()": "0f909486",
          "balanceOf(address,address)": "f7888aec",
          "churn(address,bytes32[],bool[],uint8,uint8,uint8,uint8)": "4e54cee0",
          "churnedInCount()": "0089356f",
          "collectSwapFeesForBTC(address,uint256,uint256,uint256)": "8006cc3e",
          "depositFeesBPS()": "42419255",
          "distributeNodeRewards()": "e9e9bf6a",
          "do1InchTrade()": "0fd3d41c",
          "doParaSwap()": "45468b66",
          "feesLPTokensForNode()": "f7824bc7",
          "getActiveNodes()": "6b51e919",
          "getCurrentPriceLP()": "45137e27",
          "getDepositFeeRate(address,uint256)": "3b6fa127",
          "getFloatReserve(address,address)": "ec482729",
          "initialExchangeRate()": "6d019f35",
          "isTxUsed(bytes32)": "e6ca2084",
          "lockedLPTokensForNode()": "2d55282d",
          "lpToken()": "5fcbd285",
          "multiTransferERC20TightlyPacked(address,bytes32[],uint256,uint256,bytes32[])": "ad289e76",
          "nodeRewardsRatio()": "0b68134d",
          "owner()": "8da5cb5b",
          "recordIncomingFloat(address,bytes32,bool,bytes32)": "63f289d9",
          "recordOutcomingFloat(address,bytes32,uint256,bytes32)": "2586c562",
          "recordSkyPoolsTX()": "3c8cf602",
          "recordUTXOSweepMinerFee(uint256,bytes32)": "c810a539",
          "redeemwBTC(uint256)": "429dec96",
          "renounceOwnership()": "715018a6",
          "singleTransferERC20(address,address,uint256,uint256,uint256,bytes32[])": "0d63aca7",
          "tokens(address,address)": "508493bc",
          "transferOwnership(address)": "f2fde38b",
          "tssThreshold()": "12d1441e",
          "whitelist(address)": "9b19251a",
          "withdrawalFeeBPS()": "b6268e5d"
        }
      }
    }
  }
}