{
  "_format": "hh-sol-artifact-1",
  "contractName": "Params",
  "sourceName": "contracts/Params.sol",
  "abi": [
    {
      "inputs": [],
      "stateMutability": "nonpayable",
      "type": "constructor"
    },
    {
      "anonymous": false,
      "inputs": [
        {
          "indexed": true,
          "internalType": "address",
          "name": "previousOwner",
          "type": "address"
        },
        {
          "indexed": true,
          "internalType": "address",
          "name": "newOwner",
          "type": "address"
        }
      ],
      "name": "OwnershipTransferred",
      "type": "event"
    },
    {
      "inputs": [],
      "name": "depositFeesBPS",
      "outputs": [
        {
          "internalType": "uint8",
          "name": "",
          "type": "uint8"
        }
      ],
      "stateMutability": "view",
      "type": "function"
    },
    {
      "inputs": [],
      "name": "expirationTime",
      "outputs": [
        {
          "internalType": "uint256",
          "name": "",
          "type": "uint256"
        }
      ],
      "stateMutability": "view",
      "type": "function"
    },
    {
      "inputs": [],
      "name": "loopCount",
      "outputs": [
        {
          "internalType": "uint8",
          "name": "",
          "type": "uint8"
        }
      ],
      "stateMutability": "view",
      "type": "function"
    },
    {
      "inputs": [],
      "name": "minimumSwapAmountForWBTC",
      "outputs": [
        {
          "internalType": "uint256",
          "name": "",
          "type": "uint256"
        }
      ],
      "stateMutability": "view",
      "type": "function"
    },
    {
      "inputs": [],
      "name": "nodeRewardsRatio",
      "outputs": [
        {
          "internalType": "uint8",
          "name": "",
          "type": "uint8"
        }
      ],
      "stateMutability": "view",
      "type": "function"
    },
    {
      "inputs": [],
      "name": "owner",
      "outputs": [
        {
          "internalType": "address",
          "name": "",
          "type": "address"
        }
      ],
      "stateMutability": "view",
      "type": "function"
    },
    {
      "inputs": [],
      "name": "renounceOwnership",
      "outputs": [],
      "stateMutability": "nonpayable",
      "type": "function"
    },
    {
      "inputs": [
        {
          "internalType": "uint8",
          "name": "_depositFeesBPS",
          "type": "uint8"
        }
      ],
      "name": "setDepositFeesBPS",
      "outputs": [],
      "stateMutability": "nonpayable",
      "type": "function"
    },
    {
      "inputs": [
        {
          "internalType": "uint256",
          "name": "_expirationTime",
          "type": "uint256"
        }
      ],
      "name": "setExpirationTime",
      "outputs": [],
      "stateMutability": "nonpayable",
      "type": "function"
    },
    {
      "inputs": [
        {
          "internalType": "uint8",
          "name": "_loopCount",
          "type": "uint8"
        }
      ],
      "name": "setLoopCount",
      "outputs": [],
      "stateMutability": "nonpayable",
      "type": "function"
    },
    {
      "inputs": [
        {
          "internalType": "uint256",
          "name": "_minimumSwapAmountForWBTC",
          "type": "uint256"
        }
      ],
      "name": "setMinimumSwapAmountForWBTC",
      "outputs": [],
      "stateMutability": "nonpayable",
      "type": "function"
    },
    {
      "inputs": [
        {
          "internalType": "uint8",
          "name": "_nodeRewardsRatio",
          "type": "uint8"
        }
      ],
      "name": "setNodeRewardsRatio",
      "outputs": [],
      "stateMutability": "nonpayable",
      "type": "function"
    },
    {
      "inputs": [
        {
          "internalType": "uint8",
          "name": "_withdrawalFeeBPS",
          "type": "uint8"
        }
      ],
      "name": "setWithdrawalFeeBPS",
      "outputs": [],
      "stateMutability": "nonpayable",
      "type": "function"
    },
    {
      "inputs": [
        {
          "internalType": "address",
          "name": "newOwner",
          "type": "address"
        }
      ],
      "name": "transferOwnership",
      "outputs": [],
      "stateMutability": "nonpayable",
      "type": "function"
    },
    {
      "inputs": [],
      "name": "withdrawalFeeBPS",
      "outputs": [
        {
          "internalType": "uint8",
          "name": "",
          "type": "uint8"
        }
      ],
      "stateMutability": "view",
      "type": "function"
    }
  ],
  "bytecode": "0x608060405234801561001057600080fd5b5061001a3361003f565b615dc06001556202a3006002556003805463ffffffff1916630a14004217905561008f565b600080546001600160a01b038381166001600160a01b0319831681178455604051919092169283917f8be0079c531659141344cd1fd0a4f28419497f9722a3daafe3b4186f6b6457e09190a35050565b6106118061009e6000396000f3fe608060405234801561001057600080fd5b50600436106100f55760003560e01c80638da5cb5b11610097578063da284dcc11610066578063da284dcc146101de578063dd62a515146101e7578063e91675b8146101fa578063f2fde38b1461020e57600080fd5b80638da5cb5b1461018a578063a0011cd4146101a5578063b6268e5d146101b8578063c0cc365d146101cb57600080fd5b806356151c06116100d357806356151c06146101475780635f79ec581461015c5780636ce81f801461016f578063715018a61461018257600080fd5b80630b68134d146100fa5780631411c5b71461011e5780634241925514610135575b600080fd5b6003546101079060ff1681565b60405160ff90911681526020015b60405180910390f35b61012760015481565b604051908152602001610115565b60035461010790610100900460ff1681565b61015a61015536600461056f565b610221565b005b61015a61016a366004610599565b61029e565b61015a61017d36600461056f565b61030a565b61015a610382565b6000546040516001600160a01b039091168152602001610115565b61015a6101b336600461056f565b610396565b6003546101079062010000900460ff1681565b61015a6101d9366004610599565b610408565b61012760025481565b61015a6101f536600461056f565b610415565b600354610107906301000000900460ff1681565b61015a61021c3660046105b2565b61048f565b610229610508565b60ff811661027e5760405162461bcd60e51b815260206004820152601a60248201527f5f6c6f6f70436f756e742063616e206e6f7420657175616c203000000000000060448201526064015b60405180910390fd5b6003805460ff90921663010000000263ff00000019909216919091179055565b6102a6610508565b600081116103055760405162461bcd60e51b815260206004820152602660248201527f5f6d696e696d756d53776170416d6f756e74466f72574254432063616e206e6f60448201526507420626520360d41b6064820152608401610275565b600155565b610312610508565b60648160ff1611156103665760405162461bcd60e51b815260206004820152601a60248201527f5f6465706f7369744665657342505320697320696e76616c69640000000000006044820152606401610275565b6003805460ff9092166101000261ff0019909216919091179055565b61038a610508565b610394600061051f565b565b61039e610508565b60648160ff1611156103f25760405162461bcd60e51b815260206004820152601e60248201527f5f6e6f646552657761726473526174696f206973206e6f742076616c696400006044820152606401610275565b6003805460ff191660ff92909216919091179055565b610410610508565b600255565b61041d610508565b60648160ff1611156104715760405162461bcd60e51b815260206004820152601c60248201527f5f7769746864726177616c46656542505320697320696e76616c6964000000006044820152606401610275565b6003805460ff909216620100000262ff000019909216919091179055565b610497610508565b6001600160a01b0381166104fc5760405162461bcd60e51b815260206004820152602660248201527f4f776e61626c653a206e6577206f776e657220697320746865207a65726f206160448201526564647265737360d01b6064820152608401610275565b6105058161051f565b50565b6000546001600160a01b0316331461039457600080fd5b600080546001600160a01b038381166001600160a01b0319831681178455604051919092169283917f8be0079c531659141344cd1fd0a4f28419497f9722a3daafe3b4186f6b6457e09190a35050565b60006020828403121561058157600080fd5b813560ff8116811461059257600080fd5b9392505050565b6000602082840312156105ab57600080fd5b5035919050565b6000602082840312156105c457600080fd5b81356001600160a01b038116811461059257600080fdfea264697066735822122006cdd2aa92551923205f11545eada5ac2e0d860ca600185363f8f5e5d5ec9c5864736f6c63430008090033",
  "linkReferences": {},
  "deployedLinkReferences": {}
}