{
  "_format": "hh-sol-artifact-1",
  "contractName": "Params",
  "sourceName": "contracts/Params.sol",
  "abi": [
    {
      "inputs": [],
      "stateMutability": "nonpayable",
      "type": "constructor"
    },
    {
      "anonymous": false,
      "inputs": [
        {
          "indexed": true,
          "internalType": "address",
          "name": "previousOwner",
          "type": "address"
        },
        {
          "indexed": true,
          "internalType": "address",
          "name": "newOwner",
          "type": "address"
        }
      ],
      "name": "OwnershipTransferred",
      "type": "event"
    },
    {
      "inputs": [],
      "name": "depositFeesBPS",
      "outputs": [
        {
          "internalType": "uint8",
          "name": "",
          "type": "uint8"
        }
      ],
      "stateMutability": "view",
      "type": "function"
    },
    {
      "inputs": [],
      "name": "expirationTime",
      "outputs": [
        {
          "internalType": "uint256",
          "name": "",
          "type": "uint256"
        }
      ],
      "stateMutability": "view",
      "type": "function"
    },
    {
      "inputs": [],
      "name": "minimumSwapAmountForWBTC",
      "outputs": [
        {
          "internalType": "uint256",
          "name": "",
          "type": "uint256"
        }
      ],
      "stateMutability": "view",
      "type": "function"
    },
    {
      "inputs": [],
      "name": "nodeRewardsRatio",
      "outputs": [
        {
          "internalType": "uint8",
          "name": "",
          "type": "uint8"
        }
      ],
      "stateMutability": "view",
      "type": "function"
    },
    {
      "inputs": [],
      "name": "owner",
      "outputs": [
        {
          "internalType": "address",
          "name": "",
          "type": "address"
        }
      ],
      "stateMutability": "view",
      "type": "function"
    },
    {
      "inputs": [],
      "name": "renounceOwnership",
      "outputs": [],
      "stateMutability": "nonpayable",
      "type": "function"
    },
    {
      "inputs": [
        {
          "internalType": "uint8",
          "name": "_depositFeesBPS",
          "type": "uint8"
        }
      ],
      "name": "setDepositFeesBPS",
      "outputs": [],
      "stateMutability": "nonpayable",
      "type": "function"
    },
    {
      "inputs": [
        {
          "internalType": "uint256",
          "name": "_expirationTime",
          "type": "uint256"
        }
      ],
      "name": "setExpirationTime",
      "outputs": [],
      "stateMutability": "nonpayable",
      "type": "function"
    },
    {
      "inputs": [
        {
          "internalType": "uint256",
          "name": "_minimumSwapAmountForWBTC",
          "type": "uint256"
        }
      ],
      "name": "setMinimumSwapAmountForWBTC",
      "outputs": [],
      "stateMutability": "nonpayable",
      "type": "function"
    },
    {
      "inputs": [
        {
          "internalType": "uint8",
          "name": "_nodeRewardsRatio",
          "type": "uint8"
        }
      ],
      "name": "setNodeRewardsRatio",
      "outputs": [],
      "stateMutability": "nonpayable",
      "type": "function"
    },
    {
      "inputs": [
        {
          "internalType": "uint8",
          "name": "_withdrawalFeeBPS",
          "type": "uint8"
        }
      ],
      "name": "setWithdrawalFeeBPS",
      "outputs": [],
      "stateMutability": "nonpayable",
      "type": "function"
    },
    {
      "inputs": [
        {
          "internalType": "address",
          "name": "newOwner",
          "type": "address"
        }
      ],
      "name": "transferOwnership",
      "outputs": [],
      "stateMutability": "nonpayable",
      "type": "function"
    },
    {
      "inputs": [],
      "name": "withdrawalFeeBPS",
      "outputs": [
        {
          "internalType": "uint8",
          "name": "",
          "type": "uint8"
        }
      ],
      "stateMutability": "view",
      "type": "function"
    }
  ],
  "bytecode": "0x608060405234801561001057600080fd5b5061001a3361003d565b615dc06001556202a3006002556003805462ffffff19166214004217905561008d565b600080546001600160a01b038381166001600160a01b0319831681178455604051919092169283917f8be0079c531659141344cd1fd0a4f28419497f9722a3daafe3b4186f6b6457e09190a35050565b61065c8061009c6000396000f3fe608060405234801561001057600080fd5b50600436106100cf5760003560e01c80638da5cb5b1161008c578063c0cc365d11610066578063c0cc365d14610192578063da284dcc146101a5578063dd62a515146101ae578063f2fde38b146101c157600080fd5b80638da5cb5b14610151578063a0011cd41461016c578063b6268e5d1461017f57600080fd5b80630b68134d146100d45780631411c5b7146100f8578063424192551461010f5780635f79ec58146101215780636ce81f8014610136578063715018a614610149575b600080fd5b6003546100e19060ff1681565b60405160ff90911681526020015b60405180910390f35b61010160015481565b6040519081526020016100ef565b6003546100e190610100900460ff1681565b61013461012f366004610585565b6101d4565b005b61013461014436600461059e565b61026b565b610134610305565b6000546040516001600160a01b0390911681526020016100ef565b61013461017a36600461059e565b61033b565b6003546100e19062010000900460ff1681565b6101346101a0366004610585565b6103cf565b61010160025481565b6101346101bc36600461059e565b6103fe565b6101346101cf3660046105c8565b61049a565b6000546001600160a01b031633146102075760405162461bcd60e51b81526004016101fe906105f1565b60405180910390fd5b600081116102665760405162461bcd60e51b815260206004820152602660248201527f5f6d696e696d756d53776170416d6f756e74466f72574254432063616e206e6f60448201526507420626520360d41b60648201526084016101fe565b600155565b6000546001600160a01b031633146102955760405162461bcd60e51b81526004016101fe906105f1565b60648160ff1611156102e95760405162461bcd60e51b815260206004820152601a60248201527f5f6465706f7369744665657342505320697320696e76616c696400000000000060448201526064016101fe565b6003805460ff9092166101000261ff0019909216919091179055565b6000546001600160a01b0316331461032f5760405162461bcd60e51b81526004016101fe906105f1565b6103396000610535565b565b6000546001600160a01b031633146103655760405162461bcd60e51b81526004016101fe906105f1565b60648160ff1611156103b95760405162461bcd60e51b815260206004820152601e60248201527f5f6e6f646552657761726473526174696f206973206e6f742076616c6964000060448201526064016101fe565b6003805460ff191660ff92909216919091179055565b6000546001600160a01b031633146103f95760405162461bcd60e51b81526004016101fe906105f1565b600255565b6000546001600160a01b031633146104285760405162461bcd60e51b81526004016101fe906105f1565b60648160ff16111561047c5760405162461bcd60e51b815260206004820152601c60248201527f5f7769746864726177616c46656542505320697320696e76616c69640000000060448201526064016101fe565b6003805460ff909216620100000262ff000019909216919091179055565b6000546001600160a01b031633146104c45760405162461bcd60e51b81526004016101fe906105f1565b6001600160a01b0381166105295760405162461bcd60e51b815260206004820152602660248201527f4f776e61626c653a206e6577206f776e657220697320746865207a65726f206160448201526564647265737360d01b60648201526084016101fe565b61053281610535565b50565b600080546001600160a01b038381166001600160a01b0319831681178455604051919092169283917f8be0079c531659141344cd1fd0a4f28419497f9722a3daafe3b4186f6b6457e09190a35050565b60006020828403121561059757600080fd5b5035919050565b6000602082840312156105b057600080fd5b813560ff811681146105c157600080fd5b9392505050565b6000602082840312156105da57600080fd5b81356001600160a01b03811681146105c157600080fd5b6020808252818101527f4f776e61626c653a2063616c6c6572206973206e6f7420746865206f776e657260408201526060019056fea2646970667358221220453daf8fc2fd59f5edf699318790414997c65216397d05082bbf1d5286972c9564736f6c63430008090033",
  "linkReferences": {},
  "deployedLinkReferences": {}
}