{
  "_format": "hh-sol-artifact-1",
  "contractName": "Params",
  "sourceName": "contracts/Params.sol",
  "abi": [
    {
      "inputs": [],
      "stateMutability": "nonpayable",
      "type": "constructor"
    },
    {
      "anonymous": false,
      "inputs": [
        {
          "indexed": true,
          "internalType": "address",
          "name": "previousOwner",
          "type": "address"
        },
        {
          "indexed": true,
          "internalType": "address",
          "name": "newOwner",
          "type": "address"
        }
      ],
      "name": "OwnershipTransferred",
      "type": "event"
    },
    {
      "inputs": [],
      "name": "depositFeesBPS",
      "outputs": [
        {
          "internalType": "uint8",
          "name": "",
          "type": "uint8"
        }
      ],
      "stateMutability": "view",
      "type": "function"
    },
    {
      "inputs": [],
      "name": "nodeRewardsRatio",
      "outputs": [
        {
          "internalType": "uint8",
          "name": "",
          "type": "uint8"
        }
      ],
      "stateMutability": "view",
      "type": "function"
    },
    {
      "inputs": [],
      "name": "owner",
      "outputs": [
        {
          "internalType": "address",
          "name": "",
          "type": "address"
        }
      ],
      "stateMutability": "view",
      "type": "function"
    },
    {
      "inputs": [],
      "name": "renounceOwnership",
      "outputs": [],
      "stateMutability": "nonpayable",
      "type": "function"
    },
    {
      "inputs": [
        {
          "internalType": "uint8",
          "name": "_depositFeesBPS",
          "type": "uint8"
        }
      ],
      "name": "setDepositFeesBPS",
      "outputs": [],
      "stateMutability": "nonpayable",
      "type": "function"
    },
    {
      "inputs": [
        {
          "internalType": "uint8",
          "name": "_nodeRewardsRatio",
          "type": "uint8"
        }
      ],
      "name": "setNodeRewardsRatio",
      "outputs": [],
      "stateMutability": "nonpayable",
      "type": "function"
    },
    {
      "inputs": [
        {
          "internalType": "uint8",
          "name": "_withdrawalFeeBPS",
          "type": "uint8"
        }
      ],
      "name": "setWithdrawalFeeBPS",
      "outputs": [],
      "stateMutability": "nonpayable",
      "type": "function"
    },
    {
      "inputs": [
        {
          "internalType": "address",
          "name": "newOwner",
          "type": "address"
        }
      ],
      "name": "transferOwnership",
      "outputs": [],
      "stateMutability": "nonpayable",
      "type": "function"
    },
    {
      "inputs": [],
      "name": "withdrawalFeeBPS",
      "outputs": [
        {
          "internalType": "uint8",
          "name": "",
          "type": "uint8"
        }
      ],
      "stateMutability": "view",
      "type": "function"
    }
  ],
  "bytecode": "0x608060405234801561001057600080fd5b5061001a33610036565b6000805462ffffff60a01b1916620a002160a11b179055610086565b600080546001600160a01b038381166001600160a01b0319831681178455604051919092169283917f8be0079c531659141344cd1fd0a4f28419497f9722a3daafe3b4186f6b6457e09190a35050565b610422806100956000396000f3fe608060405234801561001057600080fd5b50600436106100935760003560e01c80638da5cb5b116100665780638da5cb5b146100f4578063a0011cd41461010f578063b6268e5d14610122578063dd62a51514610136578063f2fde38b1461014957600080fd5b80630b68134d1461009857806342419255146100c35780636ce81f80146100d7578063715018a6146100ec575b600080fd5b6000546100ac90600160a01b900460ff1681565b60405160ff90911681526020015b60405180910390f35b6000546100ac90600160a81b900460ff1681565b6100ea6100e5366004610364565b61015c565b005b6100ea6101af565b6000546040516001600160a01b0390911681526020016100ba565b6100ea61011d366004610364565b6101e5565b6000546100ac90600160b01b900460ff1681565b6100ea610144366004610364565b61022f565b6100ea61015736600461038e565b610279565b6000546001600160a01b0316331461018f5760405162461bcd60e51b8152600401610186906103b7565b60405180910390fd5b6000805460ff909216600160a81b0260ff60a81b19909216919091179055565b6000546001600160a01b031633146101d95760405162461bcd60e51b8152600401610186906103b7565b6101e36000610314565b565b6000546001600160a01b0316331461020f5760405162461bcd60e51b8152600401610186906103b7565b6000805460ff909216600160a01b0260ff60a01b19909216919091179055565b6000546001600160a01b031633146102595760405162461bcd60e51b8152600401610186906103b7565b6000805460ff909216600160b01b0260ff60b01b19909216919091179055565b6000546001600160a01b031633146102a35760405162461bcd60e51b8152600401610186906103b7565b6001600160a01b0381166103085760405162461bcd60e51b815260206004820152602660248201527f4f776e61626c653a206e6577206f776e657220697320746865207a65726f206160448201526564647265737360d01b6064820152608401610186565b61031181610314565b50565b600080546001600160a01b038381166001600160a01b0319831681178455604051919092169283917f8be0079c531659141344cd1fd0a4f28419497f9722a3daafe3b4186f6b6457e09190a35050565b60006020828403121561037657600080fd5b813560ff8116811461038757600080fd5b9392505050565b6000602082840312156103a057600080fd5b81356001600160a01b038116811461038757600080fd5b6020808252818101527f4f776e61626c653a2063616c6c6572206973206e6f7420746865206f776e657260408201526060019056fea2646970667358221220fdd8a0d33330357bf8931e480ad76ce6ab1fe1fa24bbe79f22f145bfefa2bc3964736f6c63430008090033",
  "linkReferences": {},
  "deployedLinkReferences": {}
}