{
  "_format": "hh-sol-artifact-1",
  "contractName": "Params",
  "sourceName": "contracts/Params.sol",
  "abi": [
    {
      "inputs": [],
      "stateMutability": "nonpayable",
      "type": "constructor"
    },
    {
      "anonymous": false,
      "inputs": [
        {
          "indexed": true,
          "internalType": "address",
          "name": "previousOwner",
          "type": "address"
        },
        {
          "indexed": true,
          "internalType": "address",
          "name": "newOwner",
          "type": "address"
        }
      ],
      "name": "OwnershipTransferred",
      "type": "event"
    },
    {
      "inputs": [],
      "name": "depositFeesBPS",
      "outputs": [
        {
          "internalType": "uint8",
          "name": "",
          "type": "uint8"
        }
      ],
      "stateMutability": "view",
      "type": "function"
    },
    {
      "inputs": [],
      "name": "expirationTime",
      "outputs": [
        {
          "internalType": "uint256",
          "name": "",
          "type": "uint256"
        }
      ],
      "stateMutability": "view",
      "type": "function"
    },
    {
      "inputs": [],
      "name": "loopCount",
      "outputs": [
        {
          "internalType": "uint8",
          "name": "",
          "type": "uint8"
        }
      ],
      "stateMutability": "view",
      "type": "function"
    },
    {
      "inputs": [],
      "name": "minimumSwapAmountForWBTC",
      "outputs": [
        {
          "internalType": "uint256",
          "name": "",
          "type": "uint256"
        }
      ],
      "stateMutability": "view",
      "type": "function"
    },
    {
      "inputs": [],
      "name": "nodeRewardsRatio",
      "outputs": [
        {
          "internalType": "uint8",
          "name": "",
          "type": "uint8"
        }
      ],
      "stateMutability": "view",
      "type": "function"
    },
    {
      "inputs": [],
      "name": "owner",
      "outputs": [
        {
          "internalType": "address",
          "name": "",
          "type": "address"
        }
      ],
      "stateMutability": "view",
      "type": "function"
    },
    {
      "inputs": [],
      "name": "paraswapAddress",
      "outputs": [
        {
          "internalType": "address",
          "name": "",
          "type": "address"
        }
      ],
      "stateMutability": "view",
      "type": "function"
    },
    {
      "inputs": [],
      "name": "renounceOwnership",
      "outputs": [],
      "stateMutability": "nonpayable",
      "type": "function"
    },
    {
      "inputs": [
        {
          "internalType": "uint8",
          "name": "_depositFeesBPS",
          "type": "uint8"
        }
      ],
      "name": "setDepositFeesBPS",
      "outputs": [],
      "stateMutability": "nonpayable",
      "type": "function"
    },
    {
      "inputs": [
        {
          "internalType": "uint256",
          "name": "_expirationTime",
          "type": "uint256"
        }
      ],
      "name": "setExpirationTime",
      "outputs": [],
      "stateMutability": "nonpayable",
      "type": "function"
    },
    {
      "inputs": [
        {
          "internalType": "uint8",
          "name": "_loopCount",
          "type": "uint8"
        }
      ],
      "name": "setLoopCount",
      "outputs": [],
      "stateMutability": "nonpayable",
      "type": "function"
    },
    {
      "inputs": [
        {
          "internalType": "uint256",
          "name": "_minimumSwapAmountForWBTC",
          "type": "uint256"
        }
      ],
      "name": "setMinimumSwapAmountForWBTC",
      "outputs": [],
      "stateMutability": "nonpayable",
      "type": "function"
    },
    {
      "inputs": [
        {
          "internalType": "uint8",
          "name": "_nodeRewardsRatio",
          "type": "uint8"
        }
      ],
      "name": "setNodeRewardsRatio",
      "outputs": [],
      "stateMutability": "nonpayable",
      "type": "function"
    },
    {
      "inputs": [
        {
          "internalType": "address",
          "name": "_paraswapAddress",
          "type": "address"
        }
      ],
      "name": "setParaswapAddress",
      "outputs": [],
      "stateMutability": "nonpayable",
      "type": "function"
    },
    {
      "inputs": [
        {
          "internalType": "uint8",
          "name": "_withdrawalFeeBPS",
          "type": "uint8"
        }
      ],
      "name": "setWithdrawalFeeBPS",
      "outputs": [],
      "stateMutability": "nonpayable",
      "type": "function"
    },
    {
      "inputs": [
        {
          "internalType": "address",
          "name": "newOwner",
          "type": "address"
        }
      ],
      "name": "transferOwnership",
      "outputs": [],
      "stateMutability": "nonpayable",
      "type": "function"
    },
    {
      "inputs": [],
      "name": "withdrawalFeeBPS",
      "outputs": [
        {
          "internalType": "uint8",
          "name": "",
          "type": "uint8"
        }
      ],
      "stateMutability": "view",
      "type": "function"
    }
  ],
  "bytecode": "0x608060405234801561001057600080fd5b5061001a33610056565b615dc06001556202a300600255600380546001600160c01b031916770a140042def171fe48cf0115b1d80b88dc8eab59176fee571790556100a6565b600080546001600160a01b038381166001600160a01b0319831681178455604051919092169283917f8be0079c531659141344cd1fd0a4f28419497f9722a3daafe3b4186f6b6457e09190a35050565b61069b806100b56000396000f3fe608060405234801561001057600080fd5b506004361061010b5760003560e01c8063a0011cd4116100a2578063dd62a51511610071578063dd62a51514610211578063e91675b814610224578063f10d7c3514610238578063f2fde38b1461024b578063fb2784931461025e57600080fd5b8063a0011cd4146101ce578063b6268e5d146101e1578063c0cc365d146101f5578063da284dcc1461020857600080fd5b80635f79ec58116100de5780635f79ec581461017b5780636ce81f801461018e578063715018a6146101a15780638da5cb5b146101a957600080fd5b80630b68134d146101105780631411c5b71461013b578063424192551461015257806356151c0614610166575b600080fd5b60035461012490600160a01b900460ff1681565b60405160ff90911681526020015b60405180910390f35b61014460015481565b604051908152602001610132565b60035461012490600160a81b900460ff1681565b6101796101743660046105f9565b610271565b005b610179610189366004610623565b6102ee565b61017961019c3660046105f9565b61035a565b6101796103d6565b6000546001600160a01b03165b6040516001600160a01b039091168152602001610132565b6101796101dc3660046105f9565b6103ea565b60035461012490600160b01b900460ff1681565b610179610203366004610623565b610466565b61014460025481565b61017961021f3660046105f9565b610473565b60035461012490600160b81b900460ff1681565b6003546101b6906001600160a01b031681565b61017961025936600461063c565b6104ef565b61017961026c36600461063c565b610568565b610279610592565b60ff81166102ce5760405162461bcd60e51b815260206004820152601a60248201527f5f6c6f6f70436f756e742063616e206e6f7420657175616c203000000000000060448201526064015b60405180910390fd5b6003805460ff909216600160b81b0260ff60b81b19909216919091179055565b6102f6610592565b600081116103555760405162461bcd60e51b815260206004820152602660248201527f5f6d696e696d756d53776170416d6f756e74466f72574254432063616e206e6f60448201526507420626520360d41b60648201526084016102c5565b600155565b610362610592565b60648160ff1611156103b65760405162461bcd60e51b815260206004820152601a60248201527f5f6465706f7369744665657342505320697320696e76616c696400000000000060448201526064016102c5565b6003805460ff909216600160a81b0260ff60a81b19909216919091179055565b6103de610592565b6103e860006105a9565b565b6103f2610592565b60648160ff1611156104465760405162461bcd60e51b815260206004820152601e60248201527f5f6e6f646552657761726473526174696f206973206e6f742076616c6964000060448201526064016102c5565b6003805460ff909216600160a01b0260ff60a01b19909216919091179055565b61046e610592565b600255565b61047b610592565b60648160ff1611156104cf5760405162461bcd60e51b815260206004820152601c60248201527f5f7769746864726177616c46656542505320697320696e76616c69640000000060448201526064016102c5565b6003805460ff909216600160b01b0260ff60b01b19909216919091179055565b6104f7610592565b6001600160a01b03811661055c5760405162461bcd60e51b815260206004820152602660248201527f4f776e61626c653a206e6577206f776e657220697320746865207a65726f206160448201526564647265737360d01b60648201526084016102c5565b610565816105a9565b50565b610570610592565b600380546001600160a01b0319166001600160a01b0392909216919091179055565b6000546001600160a01b031633146103e857600080fd5b600080546001600160a01b038381166001600160a01b0319831681178455604051919092169283917f8be0079c531659141344cd1fd0a4f28419497f9722a3daafe3b4186f6b6457e09190a35050565b60006020828403121561060b57600080fd5b813560ff8116811461061c57600080fd5b9392505050565b60006020828403121561063557600080fd5b5035919050565b60006020828403121561064e57600080fd5b81356001600160a01b038116811461061c57600080fdfea2646970667358221220d5db682a9c5abdd6aaf0472d78e2c46e31153c5f889b5f01933715811db1b67e64736f6c63430008090033",
  "linkReferences": {},
  "deployedLinkReferences": {}
}