{
  "_format": "hh-sol-artifact-1",
  "contractName": "SwapContract",
  "sourceName": "contracts/SwapContract.sol",
  "abi": [
    {
      "inputs": [
        {
          "internalType": "address",
          "name": "_lpToken",
          "type": "address"
        },
        {
          "internalType": "address",
          "name": "_btct",
          "type": "address"
        },
        {
          "internalType": "uint256",
          "name": "_existingBTCFloat",
          "type": "uint256"
        }
      ],
      "stateMutability": "nonpayable",
      "type": "constructor"
    },
    {
      "anonymous": false,
      "inputs": [
        {
          "indexed": false,
          "internalType": "address",
          "name": "token",
          "type": "address"
        },
        {
          "indexed": false,
          "internalType": "uint256",
          "name": "amountOfLP",
          "type": "uint256"
        },
        {
          "indexed": false,
          "internalType": "uint256",
          "name": "amountOfFloat",
          "type": "uint256"
        },
        {
          "indexed": false,
          "internalType": "uint256",
          "name": "currentPriceLP",
          "type": "uint256"
        },
        {
          "indexed": false,
          "internalType": "uint256",
          "name": "withdrawal",
          "type": "uint256"
        },
        {
          "indexed": false,
          "internalType": "bytes32",
          "name": "txid",
          "type": "bytes32"
        }
      ],
      "name": "BurnLPTokensForFloat",
      "type": "event"
    },
    {
      "anonymous": false,
      "inputs": [
        {
          "indexed": false,
          "internalType": "uint256",
          "name": "rewardLPTsForNodes",
          "type": "uint256"
        }
      ],
      "name": "DistributeNodeRewards",
      "type": "event"
    },
    {
      "anonymous": false,
      "inputs": [
        {
          "indexed": false,
          "internalType": "address",
          "name": "to",
          "type": "address"
        },
        {
          "indexed": false,
          "internalType": "uint256",
          "name": "amountOfFloat",
          "type": "uint256"
        },
        {
          "indexed": false,
          "internalType": "uint256",
          "name": "amountOfLP",
          "type": "uint256"
        },
        {
          "indexed": false,
          "internalType": "uint256",
          "name": "currentPriceLP",
          "type": "uint256"
        },
        {
          "indexed": false,
          "internalType": "uint256",
          "name": "depositFees",
          "type": "uint256"
        },
        {
          "indexed": false,
          "internalType": "bytes32",
          "name": "txid",
          "type": "bytes32"
        }
      ],
      "name": "IssueLPTokensForFloat",
      "type": "event"
    },
    {
      "anonymous": false,
      "inputs": [
        {
          "indexed": true,
          "internalType": "address",
          "name": "previousOwner",
          "type": "address"
        },
        {
          "indexed": true,
          "internalType": "address",
          "name": "newOwner",
          "type": "address"
        }
      ],
      "name": "OwnershipTransferred",
      "type": "event"
    },
    {
      "anonymous": false,
      "inputs": [
        {
          "indexed": false,
          "internalType": "address",
          "name": "feesToken",
          "type": "address"
        },
        {
          "indexed": false,
          "internalType": "uint256",
          "name": "rewards",
          "type": "uint256"
        },
        {
          "indexed": false,
          "internalType": "uint256",
          "name": "amountLPTokensForNode",
          "type": "uint256"
        },
        {
          "indexed": false,
          "internalType": "uint256",
          "name": "currentPriceLP",
          "type": "uint256"
        }
      ],
      "name": "RewardsCollection",
      "type": "event"
    },
    {
      "anonymous": false,
      "inputs": [
        {
          "indexed": false,
          "internalType": "address",
          "name": "from",
          "type": "address"
        },
        {
          "indexed": false,
          "internalType": "address",
          "name": "to",
          "type": "address"
        },
        {
          "indexed": false,
          "internalType": "uint256",
          "name": "amount",
          "type": "uint256"
        }
      ],
      "name": "Swap",
      "type": "event"
    },
    {
      "stateMutability": "nonpayable",
      "type": "fallback"
    },
    {
      "inputs": [],
      "name": "BTCT_ADDR",
      "outputs": [
        {
          "internalType": "address",
          "name": "",
          "type": "address"
        }
      ],
      "stateMutability": "view",
      "type": "function"
    },
    {
      "inputs": [
        {
          "internalType": "address",
          "name": "_token",
          "type": "address"
        },
        {
          "internalType": "address",
          "name": "_user",
          "type": "address"
        }
      ],
      "name": "balanceOf",
      "outputs": [
        {
          "internalType": "uint256",
          "name": "",
          "type": "uint256"
        }
      ],
      "stateMutability": "view",
      "type": "function"
    },
    {
      "inputs": [
        {
          "internalType": "address",
          "name": "_newOwner",
          "type": "address"
        },
        {
          "internalType": "bytes32[]",
          "name": "_rewardAddressAndAmounts",
          "type": "bytes32[]"
        },
        {
          "internalType": "bool[]",
          "name": "_isRemoved",
          "type": "bool[]"
        },
        {
          "internalType": "uint8",
          "name": "_churnedInCount",
          "type": "uint8"
        },
        {
          "internalType": "uint8",
          "name": "_tssThreshold",
          "type": "uint8"
        },
        {
          "internalType": "uint8",
          "name": "_nodeRewardsRatio",
          "type": "uint8"
        },
        {
          "internalType": "uint8",
          "name": "_withdrawalFeeBPS",
          "type": "uint8"
        }
      ],
      "name": "churn",
      "outputs": [
        {
          "internalType": "bool",
          "name": "",
          "type": "bool"
        }
      ],
      "stateMutability": "nonpayable",
      "type": "function"
    },
    {
      "inputs": [],
      "name": "churnedInCount",
      "outputs": [
        {
          "internalType": "uint8",
          "name": "",
          "type": "uint8"
        }
      ],
      "stateMutability": "view",
      "type": "function"
    },
    {
      "inputs": [
        {
          "internalType": "address",
          "name": "_destToken",
          "type": "address"
        },
        {
          "internalType": "uint256",
          "name": "_incomingAmount",
          "type": "uint256"
        },
        {
          "internalType": "uint256",
          "name": "_minerFee",
          "type": "uint256"
        },
        {
          "internalType": "uint256",
          "name": "_rewardsAmount",
          "type": "uint256"
        }
      ],
      "name": "collectSwapFeesForBTC",
      "outputs": [
        {
          "internalType": "bool",
          "name": "",
          "type": "bool"
        }
      ],
      "stateMutability": "nonpayable",
      "type": "function"
    },
    {
      "inputs": [],
      "name": "depositFeesBPS",
      "outputs": [
        {
          "internalType": "uint8",
          "name": "",
          "type": "uint8"
        }
      ],
      "stateMutability": "view",
      "type": "function"
    },
    {
      "inputs": [],
      "name": "distributeNodeRewards",
      "outputs": [
        {
          "internalType": "bool",
          "name": "",
          "type": "bool"
        }
      ],
      "stateMutability": "nonpayable",
      "type": "function"
    },
    {
      "inputs": [],
      "name": "do1InchTrade",
      "outputs": [
        {
          "internalType": "bool",
          "name": "",
          "type": "bool"
        }
      ],
      "stateMutability": "nonpayable",
      "type": "function"
    },
    {
      "inputs": [],
      "name": "doParaSwap",
      "outputs": [
        {
          "internalType": "bool",
          "name": "",
          "type": "bool"
        }
      ],
      "stateMutability": "nonpayable",
      "type": "function"
    },
    {
      "inputs": [],
      "name": "feesLPTokensForNode",
      "outputs": [
        {
          "internalType": "uint256",
          "name": "",
          "type": "uint256"
        }
      ],
      "stateMutability": "view",
      "type": "function"
    },
    {
      "inputs": [],
      "name": "getActiveNodes",
      "outputs": [
        {
          "internalType": "bytes32[]",
          "name": "",
          "type": "bytes32[]"
        }
      ],
      "stateMutability": "view",
      "type": "function"
    },
    {
      "inputs": [],
      "name": "getCurrentPriceLP",
      "outputs": [
        {
          "internalType": "uint256",
          "name": "nowPrice",
          "type": "uint256"
        }
      ],
      "stateMutability": "view",
      "type": "function"
    },
    {
      "inputs": [
        {
          "internalType": "address",
          "name": "_token",
          "type": "address"
        },
        {
          "internalType": "uint256",
          "name": "_amountOfFloat",
          "type": "uint256"
        }
      ],
      "name": "getDepositFeeRate",
      "outputs": [
        {
          "internalType": "uint256",
          "name": "depositFeeRate",
          "type": "uint256"
        }
      ],
      "stateMutability": "view",
      "type": "function"
    },
    {
      "inputs": [
        {
          "internalType": "address",
          "name": "_tokenA",
          "type": "address"
        },
        {
          "internalType": "address",
          "name": "_tokenB",
          "type": "address"
        }
      ],
      "name": "getFloatReserve",
      "outputs": [
        {
          "internalType": "uint256",
          "name": "reserveA",
          "type": "uint256"
        },
        {
          "internalType": "uint256",
          "name": "reserveB",
          "type": "uint256"
        }
      ],
      "stateMutability": "view",
      "type": "function"
    },
    {
      "inputs": [],
      "name": "initialExchangeRate",
      "outputs": [
        {
          "internalType": "uint256",
          "name": "",
          "type": "uint256"
        }
      ],
      "stateMutability": "view",
      "type": "function"
    },
    {
      "inputs": [
        {
          "internalType": "bytes32",
          "name": "_txid",
          "type": "bytes32"
        }
      ],
      "name": "isTxUsed",
      "outputs": [
        {
          "internalType": "bool",
          "name": "",
          "type": "bool"
        }
      ],
      "stateMutability": "view",
      "type": "function"
    },
    {
      "inputs": [],
      "name": "lockedLPTokensForNode",
      "outputs": [
        {
          "internalType": "uint256",
          "name": "",
          "type": "uint256"
        }
      ],
      "stateMutability": "view",
      "type": "function"
    },
    {
      "inputs": [],
      "name": "lpToken",
      "outputs": [
        {
          "internalType": "address",
          "name": "",
          "type": "address"
        }
      ],
      "stateMutability": "view",
      "type": "function"
    },
    {
      "inputs": [
        {
          "internalType": "address",
          "name": "_destToken",
          "type": "address"
        },
        {
          "internalType": "bytes32[]",
          "name": "_addressesAndAmounts",
          "type": "bytes32[]"
        },
        {
          "internalType": "uint256",
          "name": "_totalSwapped",
          "type": "uint256"
        },
        {
          "internalType": "uint256",
          "name": "_rewardsAmount",
          "type": "uint256"
        },
        {
          "internalType": "bytes32[]",
          "name": "_redeemedFloatTxIds",
          "type": "bytes32[]"
        }
      ],
      "name": "multiTransferERC20TightlyPacked",
      "outputs": [
        {
          "internalType": "bool",
          "name": "",
          "type": "bool"
        }
      ],
      "stateMutability": "nonpayable",
      "type": "function"
    },
    {
      "inputs": [],
      "name": "nodeRewardsRatio",
      "outputs": [
        {
          "internalType": "uint8",
          "name": "",
          "type": "uint8"
        }
      ],
      "stateMutability": "view",
      "type": "function"
    },
    {
      "inputs": [],
      "name": "owner",
      "outputs": [
        {
          "internalType": "address",
          "name": "",
          "type": "address"
        }
      ],
      "stateMutability": "view",
      "type": "function"
    },
    {
      "inputs": [
        {
          "internalType": "address",
          "name": "_token",
          "type": "address"
        },
        {
          "internalType": "bytes32",
          "name": "_addressesAndAmountOfFloat",
          "type": "bytes32"
        },
        {
          "internalType": "bool",
          "name": "_zerofee",
          "type": "bool"
        },
        {
          "internalType": "bytes32",
          "name": "_txid",
          "type": "bytes32"
        }
      ],
      "name": "recordIncomingFloat",
      "outputs": [
        {
          "internalType": "bool",
          "name": "",
          "type": "bool"
        }
      ],
      "stateMutability": "nonpayable",
      "type": "function"
    },
    {
      "inputs": [
        {
          "internalType": "address",
          "name": "_token",
          "type": "address"
        },
        {
          "internalType": "bytes32",
          "name": "_addressesAndAmountOfLPtoken",
          "type": "bytes32"
        },
        {
          "internalType": "uint256",
          "name": "_minerFee",
          "type": "uint256"
        },
        {
          "internalType": "bytes32",
          "name": "_txid",
          "type": "bytes32"
        }
      ],
      "name": "recordOutcomingFloat",
      "outputs": [
        {
          "internalType": "bool",
          "name": "",
          "type": "bool"
        }
      ],
      "stateMutability": "nonpayable",
      "type": "function"
    },
    {
      "inputs": [],
      "name": "recordSkyPoolsTX",
      "outputs": [
        {
          "internalType": "bool",
          "name": "",
          "type": "bool"
        }
      ],
      "stateMutability": "nonpayable",
      "type": "function"
    },
    {
      "inputs": [
        {
          "internalType": "uint256",
          "name": "_minerFee",
          "type": "uint256"
        },
        {
          "internalType": "bytes32",
          "name": "_txid",
          "type": "bytes32"
        }
      ],
      "name": "recordUTXOSweepMinerFee",
      "outputs": [
        {
          "internalType": "bool",
          "name": "",
          "type": "bool"
        }
      ],
      "stateMutability": "nonpayable",
      "type": "function"
    },
    {
      "inputs": [
        {
          "internalType": "uint256",
          "name": "_amount",
          "type": "uint256"
        }
      ],
      "name": "redeemwBTC",
      "outputs": [
        {
          "internalType": "bool",
          "name": "",
          "type": "bool"
        }
      ],
      "stateMutability": "nonpayable",
      "type": "function"
    },
    {
      "inputs": [],
      "name": "renounceOwnership",
      "outputs": [],
      "stateMutability": "nonpayable",
      "type": "function"
    },
    {
      "inputs": [
        {
          "internalType": "address",
          "name": "_destToken",
          "type": "address"
        },
        {
          "internalType": "address",
          "name": "_to",
          "type": "address"
        },
        {
          "internalType": "uint256",
          "name": "_amount",
          "type": "uint256"
        },
        {
          "internalType": "uint256",
          "name": "_totalSwapped",
          "type": "uint256"
        },
        {
          "internalType": "uint256",
          "name": "_rewardsAmount",
          "type": "uint256"
        },
        {
          "internalType": "bytes32[]",
          "name": "_redeemedFloatTxIds",
          "type": "bytes32[]"
        }
      ],
      "name": "singleTransferERC20",
      "outputs": [
        {
          "internalType": "bool",
          "name": "",
          "type": "bool"
        }
      ],
      "stateMutability": "nonpayable",
      "type": "function"
    },
    {
      "inputs": [
        {
          "internalType": "address",
          "name": "",
          "type": "address"
        },
        {
          "internalType": "address",
          "name": "",
          "type": "address"
        }
      ],
      "name": "tokens",
      "outputs": [
        {
          "internalType": "uint256",
          "name": "",
          "type": "uint256"
        }
      ],
      "stateMutability": "view",
      "type": "function"
    },
    {
      "inputs": [
        {
          "internalType": "address",
          "name": "newOwner",
          "type": "address"
        }
      ],
      "name": "transferOwnership",
      "outputs": [],
      "stateMutability": "nonpayable",
      "type": "function"
    },
    {
      "inputs": [],
      "name": "tssThreshold",
      "outputs": [
        {
          "internalType": "uint8",
          "name": "",
          "type": "uint8"
        }
      ],
      "stateMutability": "view",
      "type": "function"
    },
    {
      "inputs": [
        {
          "internalType": "address",
          "name": "",
          "type": "address"
        }
      ],
      "name": "whitelist",
      "outputs": [
        {
          "internalType": "bool",
          "name": "",
          "type": "bool"
        }
      ],
      "stateMutability": "view",
      "type": "function"
    },
    {
      "inputs": [],
      "name": "withdrawalFeeBPS",
      "outputs": [
        {
          "internalType": "uint8",
          "name": "",
          "type": "uint8"
        }
      ],
      "stateMutability": "view",
      "type": "function"
    }
  ],
  "bytecode": "0x60806040523480156200001157600080fd5b5060405162002f1838038062002f18833981810160405260608110156200003757600080fd5b508051602082015160409092015190919060006200005462000296565b600080546001600160a01b0319166001600160a01b0383169081178255604051929350917f8be0079c531659141344cd1fd0a4f28419497f9722a3daafe3b4186f6b6457e0908290a350600280546001600160a01b0319166001600160a01b0385811691909117918290556040805163313ce56760e01b81529051929091169163313ce56791600480820192602092909190829003018186803b158015620000fb57600080fd5b505afa15801562000110573d6000803e3d6000fd5b505050506040513d60208110156200012757600080fd5b505160ff16600a0a600955600180546001600160a01b0319166001600160a01b0384169081179091556004805462ff00001916624200001763ff000000191663320000001760ff60201b19166414000000001781556040805163313ce56760e01b815290516008939263313ce56792808201926020929091829003018186803b158015620001b457600080fd5b505afa158015620001c9573d6000803e3d6000fd5b505050506040513d6020811015620001e057600080fd5b50510360ff16600a90810a600855600954600755600060058190556006819055600180546001600160a01b039081168352600360209081526040808520805460ff1990811686179091556002549093168552842080548316841790559280527f3617319a054d772f909f7c479a2cebe5066e836a939412e32403c99029b92eff80549091169091179055527f13da86008ba1c6922daee3e07db95305ef49ebced9f5467a0b8613fcc6b343e355506200029a9050565b3390565b612c6e80620002aa6000396000f3fe608060405234801561001057600080fd5b50600436106101fa5760003560e01c80635fcbd2851161011a578063ad289e76116100ad578063e9e9bf6a1161007c578063e9e9bf6a14610802578063ec4827291461080a578063f2fde38b14610851578063f7824bc714610877578063f7888aec1461087f576101fa565b8063ad289e761461067b578063b6268e5d146107ba578063c810a539146107c2578063e6ca2084146107e5576101fa565b8063715018a6116100e9578063715018a61461060b5780638006cc3e146106155780638da5cb5b1461064d5780639b19251a14610655576101fa565b80635fcbd2851461056957806363f289d9146105715780636b51e919146105ab5780636d019f3514610603576101fa565b80633b6fa1271161019257806345137e271161016157806345137e27146103e557806345468b661461032a5780634e54cee0146103ed578063508493bc1461053b576101fa565b80633b6fa1271461038c5780633c8cf602146103b857806342419255146103c0578063429dec96146103c8576101fa565b80630fd3d41c116101ce5780630fd3d41c1461032a57806312d1441e146103325780632586c5621461033a5780632d55282d14610372576101fa565b806289356f146101ff5780630b68134d1461021d5780630d63aca7146102255780630f90948614610306575b600080fd5b6102076108ad565b6040805160ff9092168252519081900360200190f35b6102076108b6565b6102f2600480360360c081101561023b57600080fd5b6001600160a01b0382358116926020810135909116916040820135916060810135916080820135919081019060c0810160a0820135600160201b81111561028157600080fd5b82018360208201111561029357600080fd5b803590602001918460208302840111600160201b831117156102b457600080fd5b9190808060200260200160405190810160405280939291908181526020018383602002808284376000920191909152509295506108c5945050505050565b604080519115158252519081900360200190f35b61030e610a64565b604080516001600160a01b039092168252519081900360200190f35b6102f2610a73565b610207610a78565b6102f26004803603608081101561035057600080fd5b506001600160a01b038135169060208101359060408101359060600135610a86565b61037a610bca565b60408051918252519081900360200190f35b61037a600480360360408110156103a257600080fd5b506001600160a01b038135169060200135610bd0565b6102f2610c5c565b610207610cc3565b6102f2600480360360208110156103de57600080fd5b5035610cd3565b61037a610d55565b6102f2600480360360e081101561040357600080fd5b6001600160a01b038235169190810190604081016020820135600160201b81111561042d57600080fd5b82018360208201111561043f57600080fd5b803590602001918460208302840111600160201b8311171561046057600080fd5b9190808060200260200160405190810160405280939291908181526020018383602002808284376000920191909152509295949360208101935035915050600160201b8111156104af57600080fd5b8201836020820111156104c157600080fd5b803590602001918460208302840111600160201b831117156104e257600080fd5b9190808060200260200160405190810160405280939291908181526020018383602002808284376000920191909152509295505060ff833581169450602084013581169360408101358216935060600135169050610e41565b61037a6004803603604081101561055157600080fd5b506001600160a01b038135811691602001351661115f565b61030e61117c565b6102f26004803603608081101561058757600080fd5b506001600160a01b038135169060208101359060408101351515906060013561118b565b6105b3611269565b60408051602080825283518183015283519192839290830191858101910280838360005b838110156105ef5781810151838201526020016105d7565b505050509050019250505060405180910390f35b61037a6113c8565b6106136113ce565b005b6102f26004803603608081101561062b57600080fd5b506001600160a01b03813516906020810135906040810135906060013561147a565b61030e6115ab565b6102f26004803603602081101561066b57600080fd5b50356001600160a01b03166115ba565b6102f2600480360360a081101561069157600080fd5b6001600160a01b038235169190810190604081016020820135600160201b8111156106bb57600080fd5b8201836020820111156106cd57600080fd5b803590602001918460208302840111600160201b831117156106ee57600080fd5b9190808060200260200160405190810160405280939291908181526020018383602002808284376000920191909152509295843595602086013595919450925060608101915060400135600160201b81111561074957600080fd5b82018360208201111561075b57600080fd5b803590602001918460208302840111600160201b8311171561077c57600080fd5b9190808060200260200160405190810160405280939291908181526020018383602002808284376000920191909152509295506115cf945050505050565b6102076117a9565b6102f2600480360360408110156107d857600080fd5b50803590602001356117b9565b6102f2600480360360208110156107fb57600080fd5b503561191e565b6102f2611933565b6108386004803603604081101561082057600080fd5b506001600160a01b0381358116916020013516611b9a565b6040805192835260208301919091528051918290030190f35b6106136004803603602081101561086757600080fd5b50356001600160a01b0316611bc4565b61037a611cc6565b61037a6004803603604081101561089557600080fd5b506001600160a01b0381358116916020013516611ccc565b60045460ff1681565b60045462010000900460ff1681565b60006108cf611cf7565b6001600160a01b03166108e06115ab565b6001600160a01b031614610929576040805162461bcd60e51b81526020600482018190526024820152600080516020612b94833981519152604482015290519081900360640190fd5b6001600160a01b03871660009081526003602052604090205460ff16610996576040805162461bcd60e51b815260206004820152601d60248201527f5f64657374546f6b656e206973206e6f742077686974656c6973746564000000604482015290519081900360640190fd5b6001600160a01b0387166109db5760405162461bcd60e51b8152600401808060200182810382526023815260200180612c166023913960400191505060405180910390fd5b60008415610a01576001546109fc906000906001600160a01b031687611cfb565b610a14565b84610a1457506001546001600160a01b03165b6002546001600160a01b0389811691161415610a3857506002546001600160a01b03165b610a428185611de7565b610a4b83611f5e565b610a56888888611fad565b506001979650505050505050565b6001546001600160a01b031681565b600090565b600454610100900460ff1681565b6000610a90611cf7565b6001600160a01b0316610aa16115ab565b6001600160a01b031614610aea576040805162461bcd60e51b81526020600482018190526024820152600080516020612b94833981519152604482015290519081900360640190fd5b6000610af4610d55565b6001600160a01b03871660009081526003602052604090205490915060ff16610b58576040805162461bcd60e51b815260206004820152601160248201527017dd1bdad95b881a5cc81a5b9d985b1a59607a1b604482015290519081900360640190fd5b610b6486868686612065565b610b6d57600080fd5b6001915080610b7a610d55565b1015610bc1576040805162461bcd60e51b8152602060048201526011602482015270496e76616c6964204c505420707269636560781b604482015290519081900360640190fd5b50949350505050565b60055481565b600080610bdd8484612401565b90508060ff1660011415610c1f576001546001600160a01b03858116911614610c07576000610c15565b6004546301000000900460ff165b60ff169150610c55565b8060ff1660021415610c55576001600160a01b03841615610c41576000610c4f565b6004546301000000900460ff165b60ff1691505b5092915050565b6000610c66611cf7565b6001600160a01b0316610c776115ab565b6001600160a01b031614610cc0576040805162461bcd60e51b81526020600482018190526024820152600080516020612b94833981519152604482015290519081900360640190fd5b90565b6004546301000000900460ff1681565b6001546001600160a01b03166000908152600f60209081526040808320338452909152812054821115610d0557600080fd5b6001546001600160a01b03166000908152600f60209081526040808320338452909152902054610d3590836124bb565b50600154610d4d906001600160a01b03163384611fad565b506001919050565b60015460009081908190610d739082906001600160a01b0316611b9a565b915091506000600260009054906101000a90046001600160a01b03166001600160a01b03166318160ddd6040518163ffffffff1660e01b815260040160206040518083038186803b158015610dc757600080fd5b505afa158015610ddb573d6000803e3d6000fd5b505050506040513d6020811015610df157600080fd5b505190508015610e3557610e30610e136005548361251890919063ffffffff16565b600954610e2a90610e248787612518565b90612579565b906125d2565b610e39565b6007545b935050505090565b6000610e4b611cf7565b6001600160a01b0316610e5c6115ab565b6001600160a01b031614610ea5576040805162461bcd60e51b81526020600482018190526024820152600080516020612b94833981519152604482015290519081900360640190fd5b60045460ff610100909104811690851610801590610ec7575060ff8460ff1611155b610f025760405162461bcd60e51b8152600401808060200182810382526027815260200180612b2b6027913960400191505060405180910390fd5b6001840160ff168560ff161015610f55576040805162461bcd60e51b81526020600482015260126024820152716e2073686f756c64206265203e3d20742b3160701b604482015290519081900360640190fd5b60648360ff161115610fae576040805162461bcd60e51b815260206004820152601e60248201527f5f6e6f646552657761726473526174696f206973206e6f742076616c69640000604482015290519081900360640190fd5b60648260ff161115611007576040805162461bcd60e51b815260206004820152601c60248201527f5f7769746864726177616c46656542505320697320696e76616c696400000000604482015290519081900360640190fd5b85518751146110475760405162461bcd60e51b815260040180806020018281038252603b815260200180612bdb603b913960400191505060405180910390fd5b61105088611bc4565b60005b87518110156110b857600061107a89838151811061106d57fe5b6020026020010151612639565b5090506110ae818a848151811061108d57fe5b60200260200101518a85815181106110a157fe5b6020026020010151612642565b5050600101611053565b5060606110c3611269565b90506064815111156111065760405162461bcd60e51b8152600401808060200182810382526021815260200180612b736021913960400191505060405180910390fd5b50506004805460ff191660ff9586161761ff001916610100948616949094029390931762ff0000191662010000928516929092029190911764ff000000001916600160201b919093160291909117905550600192915050565b600f60209081526000928352604080842090915290825290205481565b6002546001600160a01b031681565b6000611195611cf7565b6001600160a01b03166111a66115ab565b6001600160a01b0316146111ef576040805162461bcd60e51b81526020600482018190526024820152600080516020612b94833981519152604482015290519081900360640190fd5b60006111f9610d55565b6001600160a01b03871660009081526003602052604090205490915060ff1661125d576040805162461bcd60e51b815260206004820152601160248201527017dd1bdad95b881a5cc81a5b9d985b1a59607a1b604482015290519081900360640190fd5b610b6486868686612732565b606060008060005b600e548110156112cc57600c6000600e838154811061128c57fe5b60009182526020808320909101546001600160a01b03168352820192909252604001902054156112c4576112c1836001612518565b92505b600101611271565b5060608267ffffffffffffffff811180156112e657600080fd5b50604051908082528060200260200182016040528015611310578160200160208202803683370190505b50905060005b600e548110156113c057600c6000600e838154811061133157fe5b60009182526020808320909101546001600160a01b03168352820192909252604001902054156113b857600c6000600e838154811061136c57fe5b60009182526020808320909101546001600160a01b03168352820192909252604001902054825183908590811061139f57fe5b60209081029190910101526113b5836001612518565b92505b600101611316565b509250505090565b60075481565b6113d6611cf7565b6001600160a01b03166113e76115ab565b6001600160a01b031614611430576040805162461bcd60e51b81526020600482018190526024820152600080516020612b94833981519152604482015290519081900360640190fd5b600080546040516001600160a01b03909116907f8be0079c531659141344cd1fd0a4f28419497f9722a3daafe3b4186f6b6457e0908390a3600080546001600160a01b0319169055565b6000611484611cf7565b6001600160a01b03166114956115ab565b6001600160a01b0316146114de576040805162461bcd60e51b81526020600482018190526024820152600080516020612b94833981519152604482015290519081900360640190fd5b6001600160a01b0385161561153a576040805162461bcd60e51b815260206004820152601f60248201527f5f64657374546f6b656e2073686f756c64206265206164647265737328302900604482015290519081900360640190fd5b6001546001600160a01b0316841561158c5760006115628561155c88876124bb565b906124bb565b600154909150611586906001600160a01b031660006115818489612518565b611cfb565b50611595565b84611595575060005b61159f8184611de7565b50600195945050505050565b6000546001600160a01b031690565b60036020526000908152604090205460ff1681565b60006115d9611cf7565b6001600160a01b03166115ea6115ab565b6001600160a01b031614611633576040805162461bcd60e51b81526020600482018190526024820152600080516020612b94833981519152604482015290519081900360640190fd5b6001600160a01b03861660009081526003602052604090205460ff166116a0576040805162461bcd60e51b815260206004820152601d60248201527f5f64657374546f6b656e206973206e6f742077686974656c6973746564000000604482015290519081900360640190fd5b6001600160a01b0386166116e55760405162461bcd60e51b8152600401808060200182810382526023815260200180612c166023913960400191505060405180910390fd5b6000841561170b57600154611706906000906001600160a01b031687611cfb565b61171e565b8461171e57506001546001600160a01b03165b6002546001600160a01b038881169116141561174257506002546001600160a01b03165b61174c8185611de7565b61175583611f5e565b60005b8651811015610a56576117a18888838151811061177157fe5b602002602001015160001c89848151811061178857fe5b602002602001015160a01c6001600160601b0316611fad565b600101611758565b600454600160201b900460ff1681565b60006117c3611cf7565b6001600160a01b03166117d46115ab565b6001600160a01b03161461181d576040805162461bcd60e51b81526020600482018190526024820152600080516020612b94833981519152604482015290519081900360640190fd5b6118268261191e565b15611873576040805162461bcd60e51b8152602060048201526018602482015277151a19481d1e1a59081a5cc8185b1c9958591e481d5cd95960421b604482015290519081900360640190fd5b60408051808201909152601d81527f42544320666c6f617420616d6f756e7420696e73756666696369656e7400000060208083019190915260008052600a90527f13da86008ba1c6922daee3e07db95305ef49ebced9f5467a0b8613fcc6b343e3546118e0918590612979565b60008052600a6020527f13da86008ba1c6922daee3e07db95305ef49ebced9f5467a0b8613fcc6b343e35561191482612a10565b5060015b92915050565b6000908152600b602052604090205460ff1690565b60008061194d60065460055461251890919063ffffffff16565b90506000811161198e5760405162461bcd60e51b8152600401808060200182810382526025815260200180612aac6025913960400191505060405180910390fd5b6060611998611269565b90506000805b82518110156119e3576119d98382815181106119b657fe5b602002602001015160a01c6001600160601b03168361251890919063ffffffff16565b915060010161199e565b50600254600554604080516340c10f1960e01b81523060048201526024810192909252516001600160a01b03909216916340c10f19916044808201926020929091908290030181600087803b158015611a3b57600080fd5b505af1158015611a4f573d6000803e3d6000fd5b505050506040513d6020811015611a6557600080fd5b50600090505b8251811015611b525760025483516001600160a01b039091169063a9059cbb90859084908110611a9757fe5b602002602001015160001c611ad885610e2a888781518110611ab557fe5b602002602001015160a01c6001600160601b03168a61257990919063ffffffff16565b6040518363ffffffff1660e01b815260040180836001600160a01b0316815260200182815260200192505050602060405180830381600087803b158015611b1e57600080fd5b505af1158015611b32573d6000803e3d6000fd5b505050506040513d6020811015611b4857600080fd5b5050600101611a6b565b506040805184815290517f86dd6ae252e62228b47b3c1a12762cbf634952b2d29319b04f4f72fb153bcbdd9181900360200190a1505060006005819055600655506001905090565b6001600160a01b039182166000908152600a60205260408082205492909316815291909120549091565b611bcc611cf7565b6001600160a01b0316611bdd6115ab565b6001600160a01b031614611c26576040805162461bcd60e51b81526020600482018190526024820152600080516020612b94833981519152604482015290519081900360640190fd5b6001600160a01b038116611c6b5760405162461bcd60e51b8152600401808060200182810382526026815260200180612b056026913960400191505060405180910390fd5b600080546040516001600160a01b03808516939216917f8be0079c531659141344cd1fd0a4f28419497f9722a3daafe3b4186f6b6457e091a3600080546001600160a01b0319166001600160a01b0392909216919091179055565b60065481565b6001600160a01b039182166000908152600f6020908152604080832093909416825291909152205490565b3390565b60408051808201825260208082527f5f737761703a20666c6f617420616d6f756e7420696e73756666696369656e74818301526001600160a01b0385166000908152600a9091529190912054611d52918390612979565b6001600160a01b038084166000908152600a60205260408082209390935590851681522054611d819082612518565b6001600160a01b038085166000818152600a602090815260409182902094909455805191825291851692810192909252818101839052517fea368a40e9570069bb8e6511d668293ad2e1f03b0d982431fd223de9f3b70ca69181900360600190a1505050565b80611df157611f5a565b6002546001600160a01b0383811691161415611e6c57600654611e149082612518565b600655604080516001600160a01b0384168152602081018390526000818301819052606082015290517fe3debe835f6848edc082b32a1d729781d3bfcd7e14422d80bcaa6794d3816b2f9181900360800190a1611f5a565b6000611e76610d55565b6001600160a01b0384166000908152600a6020526040902054909150611e9c9083612518565b6001600160a01b0384166000908152600a6020526040812091909155600454611ed690606490610e2a90869062010000900460ff16612579565b90506000611ef383610e2a6009548561257990919063ffffffff16565b600554909150611f039082612518565b600555604080516001600160a01b0387168152602081018690528082018390526060810185905290517fe3debe835f6848edc082b32a1d729781d3bfcd7e14422d80bcaa6794d3816b2f9181900360800190a15050505b5050565b60005b8151811015611f5a576001600b6000848481518110611f7c57fe5b6020908102919091018101518252810191909152604001600020805460ff1916911515919091179055600101611f61565b6001546001600160a01b0384811691161415611fd457600854611fd1908290612579565b90505b826001600160a01b031663a9059cbb83836040518363ffffffff1660e01b815260040180836001600160a01b0316815260200182815260200192505050602060405180830381600087803b15801561202b57600080fd5b505af115801561203f573d6000803e3d6000fd5b505050506040513d602081101561205557600080fd5b505161206057600080fd5b505050565b60006120708261191e565b156120bd576040805162461bcd60e51b8152602060048201526018602482015277151a19481d1e1a59081a5cc8185b1c9958591e481d5cd95960421b604482015290519081900360640190fd5b8361210f576040805162461bcd60e51b815260206004820152601c60248201527f546865207472616e73616374696f6e206973206e6f742076616c696400000000604482015290519081900360640190fd5b60008061211b86612639565b915091506000612129610d55565b90506000612146600954610e2a848661257990919063ffffffff16565b60045490915060009061216c9061271090610e2a908590600160201b900460ff16612579565b90508761217983836124bb565b10156121b65760405162461bcd60e51b8152600401808060200182810382526034815260200180612ad16034913960400191505060405180910390fd5b60006121c68961155c85856124bb565b60015490915060009081906121e59082906001600160a01b0316611b9a565b90925090506001600160a01b038d1661225b5761220285856124bb565b821015612256576040805162461bcd60e51b815260206004820152601f60248201527f54686520666c6f61742062616c616e636520696e73756666696369656e742e00604482015290519081900360640190fd5b6122cf565b6001546001600160a01b038e8116911614156122cf5761227b85856124bb565b8110156122cf576040805162461bcd60e51b815260206004820152601f60248201527f54686520666c6f61742062616c616e636520696e73756666696369656e742e00604482015290519081900360640190fd5b6122d98d85611de7565b6122e38d86612a2b565b6122ec8a612a10565b6001546001600160a01b038e81169116141561230d5761230d8d8985611fad565b60025460408051630852cd8d60e31b8152600481018a905290516001600160a01b03909216916342966c68916024808201926020929091908290030181600087803b15801561235b57600080fd5b505af115801561236f573d6000803e3d6000fd5b505050506040513d602081101561238557600080fd5b505161239057600080fd5b604080516001600160a01b038a16815260208101899052808201879052606081018890526080810185905260a081018c905290517fa9da34e5e4a956b744307ae7611795634e8365951073bf049d76b64b2ae7a0589181900360c00190a15060019c9b505050505050505050505050565b6001546000908190819061241f9082906001600160a01b0316611b9a565b909250905060006124446003610e2a6002610e248961243e8989612518565b90612518565b6001549091506001600160a01b03878116911614801561246d57508061246a8387612518565b10155b1561247e5760019350505050611918565b6001600160a01b03861615801561249e57508061249b8487612518565b10155b156124af5760029350505050611918565b50600095945050505050565b600082821115612512576040805162461bcd60e51b815260206004820152601e60248201527f536166654d6174683a207375627472616374696f6e206f766572666c6f770000604482015290519081900360640190fd5b50900390565b600082820183811015612572576040805162461bcd60e51b815260206004820152601b60248201527f536166654d6174683a206164646974696f6e206f766572666c6f770000000000604482015290519081900360640190fd5b9392505050565b60008261258857506000611918565b8282028284828161259557fe5b04146125725760405162461bcd60e51b8152600401808060200182810382526021815260200180612b526021913960400191505060405180910390fd5b6000808211612628576040805162461bcd60e51b815260206004820152601a60248201527f536166654d6174683a206469766973696f6e206279207a65726f000000000000604482015290519081900360640190fd5b81838161263157fe5b049392505050565b9060a082901c90565b6000811561266b57506001600160a01b0383166000908152600c60205260408120556001612572565b6001600160a01b0384166000908152600d602052604090205460ff166126ef57600e805460018082019092557fbb7b4a454dc3493923482f07822329ed19e8244eff582cc204f8554c3620c3fd0180546001600160a01b0319166001600160a01b0387169081179091556000908152600d60205260409020805460ff191690911790555b6001600160a01b0384166000908152600c6020526040902054612728576001600160a01b0384166000908152600c602052604090208390555b5060019392505050565b600061273d8261191e565b1561278a576040805162461bcd60e51b8152602060048201526018602482015277151a19481d1e1a59081a5cc8185b1c9958591e481d5cd95960421b604482015290519081900360640190fd5b836127dc576040805162461bcd60e51b815260206004820152601c60248201527f546865207472616e73616374696f6e206973206e6f742076616c696400000000604482015290519081900360640190fd5b6000806127e886612639565b9150915060006127f6610d55565b9050600061281382610e2a6009548661257990919063ffffffff16565b905060006128218a85610bd0565b9050600081612831576000612841565b612841612710610e2a8585612579565b905088801561284f57508015155b1561285957600080fd5b6002546001600160a01b03166340c10f198761287586856124bb565b6040518363ffffffff1660e01b815260040180836001600160a01b0316815260200182815260200192505050602060405180830381600087803b1580156128bb57600080fd5b505af11580156128cf573d6000803e3d6000fd5b505050506040513d60208110156128e557600080fd5b50506005546128f49082612518565b6005556129018b86612a88565b61290a88612a10565b604080516001600160a01b038816815260208101879052808201859052606081018690526080810183905260a081018a905290517fdfaf4e23f7030adafec91a682e05bf9fb30c721f9cec3d8bcfae0459c5362db19181900360c00190a15060019a9950505050505050505050565b60008184841115612a085760405162461bcd60e51b81526004018080602001828103825283818151815260200191508051906020019080838360005b838110156129cd5781810151838201526020016129b5565b50505050905090810190601f1680156129fa5780820380516001836020036101000a031916815260200191505b509250505060405180910390fd5b505050900390565b6000908152600b60205260409020805460ff19166001179055565b612a6881604051806060016040528060278152602001612bb4602791396001600160a01b0385166000908152600a60205260409020549190612979565b6001600160a01b039092166000908152600a602052604090209190915550565b6001600160a01b0382166000908152600a6020526040902054612a68908261251856fe746f74616c5265776172644c5073466f724e6f6465206973206e6f7420706f7369746976654572726f723a20616d6f756e744f66466c6f61742e737562287769746864726177616c4665657329203c205f6d696e65724665654f776e61626c653a206e6577206f776e657220697320746865207a65726f20616464726573735f7473735468726573686f6c642073686f756c64206265203e3d207473735468726573686f6c64536166654d6174683a206d756c7469706c69636174696f6e206f766572666c6f7753746f726564206e6f64652073697a652073686f756c64206265203c3d203130304f776e61626c653a2063616c6c6572206973206e6f7420746865206f776e65725f72656d6f7665466c6f61743a20666c6f617420616d6f756e7420696e73756666696369656e745f72657761726441646472657373416e64416d6f756e747320616e64205f697352656d6f766564206c656e677468206973206e6f74206d617463685f64657374546f6b656e2073686f756c64206e6f742062652061646472657373283029a2646970667358221220e06ca54240d3d4426a93931684530489eefd55ea97f2323f377c9b6970936f2864736f6c63430007030033",
  "linkReferences": {},
  "deployedLinkReferences": {}
}