{
  "_format": "hh-sol-artifact-1",
  "contractName": "SwapContract",
  "sourceName": "contracts/SwapContract.sol",
  "abi": [
    {
      "inputs": [
        {
          "internalType": "address",
          "name": "_lpToken",
          "type": "address"
        },
        {
          "internalType": "address",
          "name": "_btct",
          "type": "address"
        },
        {
          "internalType": "uint256",
          "name": "_existingBTCFloat",
          "type": "uint256"
        }
      ],
      "stateMutability": "nonpayable",
      "type": "constructor"
    },
    {
      "anonymous": false,
      "inputs": [
        {
          "indexed": false,
          "internalType": "address",
          "name": "token",
          "type": "address"
        },
        {
          "indexed": false,
          "internalType": "uint256",
          "name": "amountOfLP",
          "type": "uint256"
        },
        {
          "indexed": false,
          "internalType": "uint256",
          "name": "amountOfFloat",
          "type": "uint256"
        },
        {
          "indexed": false,
          "internalType": "uint256",
          "name": "currentPriceLP",
          "type": "uint256"
        },
        {
          "indexed": false,
          "internalType": "uint256",
          "name": "withdrawal",
          "type": "uint256"
        },
        {
          "indexed": false,
          "internalType": "bytes32",
          "name": "txid",
          "type": "bytes32"
        }
      ],
      "name": "BurnLPTokensForFloat",
      "type": "event"
    },
    {
      "anonymous": false,
      "inputs": [
        {
          "indexed": false,
          "internalType": "uint256",
          "name": "rewardLPTsForNodes",
          "type": "uint256"
        }
      ],
      "name": "DistributeNodeRewards",
      "type": "event"
    },
    {
      "anonymous": false,
      "inputs": [
        {
          "indexed": false,
          "internalType": "address",
          "name": "to",
          "type": "address"
        },
        {
          "indexed": false,
          "internalType": "uint256",
          "name": "amountOfFloat",
          "type": "uint256"
        },
        {
          "indexed": false,
          "internalType": "uint256",
          "name": "amountOfLP",
          "type": "uint256"
        },
        {
          "indexed": false,
          "internalType": "uint256",
          "name": "currentPriceLP",
          "type": "uint256"
        },
        {
          "indexed": false,
          "internalType": "uint256",
          "name": "depositFees",
          "type": "uint256"
        },
        {
          "indexed": false,
          "internalType": "bytes32",
          "name": "txid",
          "type": "bytes32"
        }
      ],
      "name": "IssueLPTokensForFloat",
      "type": "event"
    },
    {
      "anonymous": false,
      "inputs": [
        {
          "indexed": true,
          "internalType": "address",
          "name": "previousOwner",
          "type": "address"
        },
        {
          "indexed": true,
          "internalType": "address",
          "name": "newOwner",
          "type": "address"
        }
      ],
      "name": "OwnershipTransferred",
      "type": "event"
    },
    {
      "anonymous": false,
      "inputs": [
        {
          "indexed": false,
          "internalType": "address",
          "name": "feesToken",
          "type": "address"
        },
        {
          "indexed": false,
          "internalType": "uint256",
          "name": "rewards",
          "type": "uint256"
        },
        {
          "indexed": false,
          "internalType": "uint256",
          "name": "amountLPTokensForNode",
          "type": "uint256"
        },
        {
          "indexed": false,
          "internalType": "uint256",
          "name": "currentPriceLP",
          "type": "uint256"
        }
      ],
      "name": "RewardsCollection",
      "type": "event"
    },
    {
      "anonymous": false,
      "inputs": [
        {
          "indexed": false,
          "internalType": "address",
          "name": "from",
          "type": "address"
        },
        {
          "indexed": false,
          "internalType": "address",
          "name": "to",
          "type": "address"
        },
        {
          "indexed": false,
          "internalType": "uint256",
          "name": "amount",
          "type": "uint256"
        }
      ],
      "name": "Swap",
      "type": "event"
    },
    {
      "anonymous": false,
      "inputs": [
        {
          "indexed": false,
          "internalType": "address",
          "name": "token",
          "type": "address"
        },
        {
          "indexed": false,
          "internalType": "address",
          "name": "user",
          "type": "address"
        },
        {
          "indexed": false,
          "internalType": "uint256",
          "name": "amount",
          "type": "uint256"
        },
        {
          "indexed": false,
          "internalType": "uint256",
          "name": "balance",
          "type": "uint256"
        }
      ],
      "name": "Withdraw",
      "type": "event"
    },
    {
      "stateMutability": "nonpayable",
      "type": "fallback"
    },
    {
      "inputs": [],
      "name": "BTCT_ADDR",
      "outputs": [
        {
          "internalType": "address",
          "name": "",
          "type": "address"
        }
      ],
      "stateMutability": "view",
      "type": "function"
    },
    {
      "inputs": [
        {
          "internalType": "address",
          "name": "_token",
          "type": "address"
        }
      ],
      "name": "balanceOf",
      "outputs": [
        {
          "internalType": "uint256",
          "name": "",
          "type": "uint256"
        }
      ],
      "stateMutability": "view",
      "type": "function"
    },
    {
      "inputs": [
        {
          "internalType": "address",
          "name": "_newOwner",
          "type": "address"
        },
        {
          "internalType": "bytes32[]",
          "name": "_rewardAddressAndAmounts",
          "type": "bytes32[]"
        },
        {
          "internalType": "bool[]",
          "name": "_isRemoved",
          "type": "bool[]"
        },
        {
          "internalType": "uint8",
          "name": "_churnedInCount",
          "type": "uint8"
        },
        {
          "internalType": "uint8",
          "name": "_tssThreshold",
          "type": "uint8"
        },
        {
          "internalType": "uint8",
          "name": "_nodeRewardsRatio",
          "type": "uint8"
        },
        {
          "internalType": "uint8",
          "name": "_withdrawalFeeBPS",
          "type": "uint8"
        }
      ],
      "name": "churn",
      "outputs": [
        {
          "internalType": "bool",
          "name": "",
          "type": "bool"
        }
      ],
      "stateMutability": "nonpayable",
      "type": "function"
    },
    {
      "inputs": [],
      "name": "churnedInCount",
      "outputs": [
        {
          "internalType": "uint8",
          "name": "",
          "type": "uint8"
        }
      ],
      "stateMutability": "view",
      "type": "function"
    },
    {
      "inputs": [
        {
          "internalType": "address",
          "name": "_destToken",
          "type": "address"
        },
        {
          "internalType": "uint256",
          "name": "_incomingAmount",
          "type": "uint256"
        },
        {
          "internalType": "uint256",
          "name": "_minerFee",
          "type": "uint256"
        },
        {
          "internalType": "uint256",
          "name": "_rewardsAmount",
          "type": "uint256"
        }
      ],
      "name": "collectSwapFeesForBTC",
      "outputs": [
        {
          "internalType": "bool",
          "name": "",
          "type": "bool"
        }
      ],
      "stateMutability": "nonpayable",
      "type": "function"
    },
    {
      "inputs": [],
      "name": "depositFeesBPS",
      "outputs": [
        {
          "internalType": "uint8",
          "name": "",
          "type": "uint8"
        }
      ],
      "stateMutability": "view",
      "type": "function"
    },
    {
      "inputs": [],
      "name": "distributeNodeRewards",
      "outputs": [
        {
          "internalType": "bool",
          "name": "",
          "type": "bool"
        }
      ],
      "stateMutability": "nonpayable",
      "type": "function"
    },
    {
      "inputs": [],
      "name": "do1InchTrade",
      "outputs": [
        {
          "internalType": "bool",
          "name": "",
          "type": "bool"
        }
      ],
      "stateMutability": "nonpayable",
      "type": "function"
    },
    {
      "inputs": [
        {
          "internalType": "address",
          "name": "paraSwapAddress",
          "type": "address"
        },
        {
          "internalType": "uint256",
          "name": "_amountIn",
          "type": "uint256"
        },
        {
          "internalType": "uint256",
          "name": "_amountOutMin",
          "type": "uint256"
        },
        {
          "internalType": "address[]",
          "name": "_path",
          "type": "address[]"
        },
        {
          "internalType": "uint8",
          "name": "_referrer",
          "type": "uint8"
        }
      ],
      "name": "doParaSwapOnUniswap",
      "outputs": [],
      "stateMutability": "nonpayable",
      "type": "function"
    },
    {
      "inputs": [
        {
          "internalType": "address",
          "name": "paraSwapAddress",
          "type": "address"
        },
        {
          "internalType": "address",
          "name": "_factory",
          "type": "address"
        },
        {
          "internalType": "bytes32",
          "name": "_initCode",
          "type": "bytes32"
        },
        {
          "internalType": "uint256",
          "name": "_amountIn",
          "type": "uint256"
        },
        {
          "internalType": "uint256",
          "name": "_amountOutMin",
          "type": "uint256"
        },
        {
          "internalType": "address[]",
          "name": "_path",
          "type": "address[]"
        },
        {
          "internalType": "uint8",
          "name": "_referrer",
          "type": "uint8"
        }
      ],
      "name": "doParaSwapOnUniswapFork",
      "outputs": [],
      "stateMutability": "nonpayable",
      "type": "function"
    },
    {
      "inputs": [
        {
          "internalType": "address",
          "name": "fromToken",
          "type": "address"
        },
        {
          "internalType": "address",
          "name": "toToken",
          "type": "address"
        },
        {
          "internalType": "uint256",
          "name": "fromAmount",
          "type": "uint256"
        },
        {
          "internalType": "uint256",
          "name": "toAmount",
          "type": "uint256"
        },
        {
          "internalType": "uint256",
          "name": "expectedAmount",
          "type": "uint256"
        },
        {
          "internalType": "address[]",
          "name": "callees",
          "type": "address[]"
        },
        {
          "internalType": "bytes",
          "name": "exchangeData",
          "type": "bytes"
        },
        {
          "internalType": "uint256[]",
          "name": "startIndexes",
          "type": "uint256[]"
        },
        {
          "internalType": "uint256[]",
          "name": "values",
          "type": "uint256[]"
        },
        {
          "internalType": "address payable",
          "name": "beneficiary",
          "type": "address"
        },
        {
          "internalType": "string",
          "name": "referrer",
          "type": "string"
        },
        {
          "internalType": "bool",
          "name": "useReduxToken",
          "type": "bool"
        }
      ],
      "name": "doParaSwapSimpleSwap",
      "outputs": [],
      "stateMutability": "nonpayable",
      "type": "function"
    },
    {
      "inputs": [],
      "name": "feesLPTokensForNode",
      "outputs": [
        {
          "internalType": "uint256",
          "name": "",
          "type": "uint256"
        }
      ],
      "stateMutability": "view",
      "type": "function"
    },
    {
      "inputs": [],
      "name": "getActiveNodes",
      "outputs": [
        {
          "internalType": "bytes32[]",
          "name": "",
          "type": "bytes32[]"
        }
      ],
      "stateMutability": "view",
      "type": "function"
    },
    {
      "inputs": [],
      "name": "getCurrentPriceLP",
      "outputs": [
        {
          "internalType": "uint256",
          "name": "nowPrice",
          "type": "uint256"
        }
      ],
      "stateMutability": "view",
      "type": "function"
    },
    {
      "inputs": [
        {
          "internalType": "address",
          "name": "_token",
          "type": "address"
        },
        {
          "internalType": "uint256",
          "name": "_amountOfFloat",
          "type": "uint256"
        }
      ],
      "name": "getDepositFeeRate",
      "outputs": [
        {
          "internalType": "uint256",
          "name": "depositFeeRate",
          "type": "uint256"
        }
      ],
      "stateMutability": "view",
      "type": "function"
    },
    {
      "inputs": [
        {
          "internalType": "address",
          "name": "_tokenA",
          "type": "address"
        },
        {
          "internalType": "address",
          "name": "_tokenB",
          "type": "address"
        }
      ],
      "name": "getFloatReserve",
      "outputs": [
        {
          "internalType": "uint256",
          "name": "reserveA",
          "type": "uint256"
        },
        {
          "internalType": "uint256",
          "name": "reserveB",
          "type": "uint256"
        }
      ],
      "stateMutability": "view",
      "type": "function"
    },
    {
      "inputs": [],
      "name": "initialExchangeRate",
      "outputs": [
        {
          "internalType": "uint256",
          "name": "",
          "type": "uint256"
        }
      ],
      "stateMutability": "view",
      "type": "function"
    },
    {
      "inputs": [
        {
          "internalType": "bytes32",
          "name": "_txid",
          "type": "bytes32"
        }
      ],
      "name": "isTxUsed",
      "outputs": [
        {
          "internalType": "bool",
          "name": "",
          "type": "bool"
        }
      ],
      "stateMutability": "view",
      "type": "function"
    },
    {
      "inputs": [],
      "name": "lockedLPTokensForNode",
      "outputs": [
        {
          "internalType": "uint256",
          "name": "",
          "type": "uint256"
        }
      ],
      "stateMutability": "view",
      "type": "function"
    },
    {
      "inputs": [],
      "name": "lpToken",
      "outputs": [
        {
          "internalType": "address",
          "name": "",
          "type": "address"
        }
      ],
      "stateMutability": "view",
      "type": "function"
    },
    {
      "inputs": [
        {
          "internalType": "address",
          "name": "_destToken",
          "type": "address"
        },
        {
          "internalType": "bytes32[]",
          "name": "_addressesAndAmounts",
          "type": "bytes32[]"
        },
        {
          "internalType": "uint256",
          "name": "_totalSwapped",
          "type": "uint256"
        },
        {
          "internalType": "uint256",
          "name": "_rewardsAmount",
          "type": "uint256"
        },
        {
          "internalType": "bytes32[]",
          "name": "_redeemedFloatTxIds",
          "type": "bytes32[]"
        }
      ],
      "name": "multiTransferERC20TightlyPacked",
      "outputs": [
        {
          "internalType": "bool",
          "name": "",
          "type": "bool"
        }
      ],
      "stateMutability": "nonpayable",
      "type": "function"
    },
    {
      "inputs": [],
      "name": "nodeRewardsRatio",
      "outputs": [
        {
          "internalType": "uint8",
          "name": "",
          "type": "uint8"
        }
      ],
      "stateMutability": "view",
      "type": "function"
    },
    {
      "inputs": [],
      "name": "owner",
      "outputs": [
        {
          "internalType": "address",
          "name": "",
          "type": "address"
        }
      ],
      "stateMutability": "view",
      "type": "function"
    },
    {
      "inputs": [
        {
          "internalType": "address",
          "name": "_token",
          "type": "address"
        },
        {
          "internalType": "bytes32",
          "name": "_addressesAndAmountOfFloat",
          "type": "bytes32"
        },
        {
          "internalType": "bool",
          "name": "_zerofee",
          "type": "bool"
        },
        {
          "internalType": "bytes32",
          "name": "_txid",
          "type": "bytes32"
        }
      ],
      "name": "recordIncomingFloat",
      "outputs": [
        {
          "internalType": "bool",
          "name": "",
          "type": "bool"
        }
      ],
      "stateMutability": "nonpayable",
      "type": "function"
    },
    {
      "inputs": [
        {
          "internalType": "address",
          "name": "_token",
          "type": "address"
        },
        {
          "internalType": "bytes32",
          "name": "_addressesAndAmountOfLPtoken",
          "type": "bytes32"
        },
        {
          "internalType": "uint256",
          "name": "_minerFee",
          "type": "uint256"
        },
        {
          "internalType": "bytes32",
          "name": "_txid",
          "type": "bytes32"
        }
      ],
      "name": "recordOutcomingFloat",
      "outputs": [
        {
          "internalType": "bool",
          "name": "",
          "type": "bool"
        }
      ],
      "stateMutability": "nonpayable",
      "type": "function"
    },
    {
      "inputs": [
        {
          "internalType": "address",
          "name": "_destToken",
          "type": "address"
        },
        {
          "internalType": "address",
          "name": "_to",
          "type": "address"
        },
        {
          "internalType": "uint256",
          "name": "_amount",
          "type": "uint256"
        },
        {
          "internalType": "uint256",
          "name": "_totalSwapped",
          "type": "uint256"
        },
        {
          "internalType": "bytes32[]",
          "name": "_redeemedFloatTxIds",
          "type": "bytes32[]"
        }
      ],
      "name": "recordSkyPoolsTX",
      "outputs": [
        {
          "internalType": "bool",
          "name": "",
          "type": "bool"
        }
      ],
      "stateMutability": "nonpayable",
      "type": "function"
    },
    {
      "inputs": [
        {
          "internalType": "uint256",
          "name": "_minerFee",
          "type": "uint256"
        },
        {
          "internalType": "bytes32",
          "name": "_txid",
          "type": "bytes32"
        }
      ],
      "name": "recordUTXOSweepMinerFee",
      "outputs": [
        {
          "internalType": "bool",
          "name": "",
          "type": "bool"
        }
      ],
      "stateMutability": "nonpayable",
      "type": "function"
    },
    {
      "inputs": [
        {
          "internalType": "address",
          "name": "_token",
          "type": "address"
        },
        {
          "internalType": "uint256",
          "name": "_amount",
          "type": "uint256"
        }
      ],
      "name": "redeemERC20Token",
      "outputs": [
        {
          "internalType": "bool",
          "name": "",
          "type": "bool"
        }
      ],
      "stateMutability": "nonpayable",
      "type": "function"
    },
    {
      "inputs": [],
      "name": "renounceOwnership",
      "outputs": [],
      "stateMutability": "nonpayable",
      "type": "function"
    },
    {
      "inputs": [
        {
          "internalType": "address",
          "name": "_destToken",
          "type": "address"
        },
        {
          "internalType": "address",
          "name": "_to",
          "type": "address"
        },
        {
          "internalType": "uint256",
          "name": "_amount",
          "type": "uint256"
        },
        {
          "internalType": "uint256",
          "name": "_totalSwapped",
          "type": "uint256"
        },
        {
          "internalType": "uint256",
          "name": "_rewardsAmount",
          "type": "uint256"
        },
        {
          "internalType": "bytes32[]",
          "name": "_redeemedFloatTxIds",
          "type": "bytes32[]"
        }
      ],
      "name": "singleTransferERC20",
      "outputs": [
        {
          "internalType": "bool",
          "name": "",
          "type": "bool"
        }
      ],
      "stateMutability": "nonpayable",
      "type": "function"
    },
    {
      "inputs": [
        {
          "internalType": "address",
          "name": "",
          "type": "address"
        },
        {
          "internalType": "address",
          "name": "",
          "type": "address"
        }
      ],
      "name": "tokens",
      "outputs": [
        {
          "internalType": "uint256",
          "name": "",
          "type": "uint256"
        }
      ],
      "stateMutability": "view",
      "type": "function"
    },
    {
      "inputs": [
        {
          "internalType": "address",
          "name": "newOwner",
          "type": "address"
        }
      ],
      "name": "transferOwnership",
      "outputs": [],
      "stateMutability": "nonpayable",
      "type": "function"
    },
    {
      "inputs": [],
      "name": "tssThreshold",
      "outputs": [
        {
          "internalType": "uint8",
          "name": "",
          "type": "uint8"
        }
      ],
      "stateMutability": "view",
      "type": "function"
    },
    {
      "inputs": [
        {
          "internalType": "address",
          "name": "",
          "type": "address"
        }
      ],
      "name": "whitelist",
      "outputs": [
        {
          "internalType": "bool",
          "name": "",
          "type": "bool"
        }
      ],
      "stateMutability": "view",
      "type": "function"
    },
    {
      "inputs": [],
      "name": "withdrawalFeeBPS",
      "outputs": [
        {
          "internalType": "uint8",
          "name": "",
          "type": "uint8"
        }
      ],
      "stateMutability": "view",
      "type": "function"
    }
  ],
  "bytecode": "0x60806040523480156200001157600080fd5b5060405162003b2538038062003b258339810160408190526200003491620002bd565b6000620000406200029c565b600080546001600160a01b0319166001600160a01b0383169081178255604051929350917f8be0079c531659141344cd1fd0a4f28419497f9722a3daafe3b4186f6b6457e0908290a350600280546001600160a01b0319166001600160a01b0385811691909117918290556040805163313ce56760e01b81529051929091169163313ce56791600480820192602092909190829003018186803b158015620000e757600080fd5b505afa158015620000fc573d6000803e3d6000fd5b505050506040513d601f19601f82011682018060405250810190620001229190620002fd565b60ff16600a0a600955600180546001600160a01b0319166001600160a01b0384169081179091556004805462ff00001916624200001763ff000000191663320000001760ff60201b19166414000000001781556040805163313ce56760e01b815290516008939263313ce56792808201926020929091829003018186803b158015620001ad57600080fd5b505afa158015620001c2573d6000803e3d6000fd5b505050506040513d601f19601f82011682018060405250810190620001e89190620002fd565b0360ff16600a90810a600855600954600755600060058190556006819055600180546001600160a01b039081168352600360209081526040808520805460ff1990811686179091556002549093168552842080548316841790559280527f3617319a054d772f909f7c479a2cebe5066e836a939412e32403c99029b92eff80549091169091179055527f13da86008ba1c6922daee3e07db95305ef49ebced9f5467a0b8613fcc6b343e35550620003279050565b3390565b80516001600160a01b0381168114620002b857600080fd5b919050565b600080600060608486031215620002d2578283fd5b620002dd84620002a0565b9250620002ed60208501620002a0565b9150604084015190509250925092565b6000602082840312156200030f578081fd5b815160ff8116811462000320578182fd5b9392505050565b6137ee80620003376000396000f3fe608060405234801561001057600080fd5b50600436106102105760003560e01c80636b51e91911610125578063b6268e5d116100ad578063e9e9bf6a1161007c578063e9e9bf6a14610401578063ec48272914610409578063f2fde38b1461042a578063f7824bc71461043d578063f9f479e11461044557610210565b8063b6268e5d146103c0578063c810a539146103c8578063d6b2779a146103db578063e6ca2084146103ee57610210565b80638006cc3e116100f45780638006cc3e1461036c578063824d026d1461037f5780638da5cb5b146103925780639b19251a1461039a578063ad289e76146103ad57610210565b80636b51e919146103345780636d019f351461034957806370a0823114610351578063715018a61461036457610210565b80632d55282d116101a85780634db75485116101775780634db75485146102e05780634e54cee0146102f3578063508493bc146103065780635fcbd2851461031957806363f289d91461032157610210565b80632d55282d146102a85780633b6fa127146102bd57806342419255146102d057806345137e27146102d857610210565b80630fd3d41c116101e45780630fd3d41c1461027057806312d1441e1461027857806314170d58146102805780632586c5621461029557610210565b806289356f146102155780630b68134d146102335780630d63aca71461023b5780630f9094861461025b575b600080fd5b61021d610458565b60405161022a91906136b9565b60405180910390f35b61021d610461565b61024e610249366004612ba5565b610470565b60405161022a9190613270565b6102636105c4565b60405161022a919061304a565b61024e6105d3565b61021d6105d8565b61029361028e366004612a56565b6105e6565b005b61024e6102a3366004612df5565b610666565b6102b0610758565b60405161022a919061366d565b6102b06102cb366004612e2f565b61075e565b61021d6107ea565b6102b06107fa565b61024e6102ee366004612e2f565b6108f2565b61024e610301366004612c20565b610a02565b6102b0610314366004612918565b610c30565b610263610c4d565b61024e61032f366004612dae565b610c5c565b61033c610d11565b60405161022a919061322c565b6102b0610e6f565b6102b061035f3660046128fc565b610e75565b610293610e9f565b61024e61037a366004612df5565b610f4b565b61029361038d366004612e5a565b611047565b6102636110b5565b61024e6103a83660046128fc565b6110c4565b61024e6103bb366004612d35565b6110d9565b61021d61125f565b61024e6103d6366004612f1c565b611270565b61024e6103e93660046129e3565b6113a4565b61024e6103fc366004612eec565b611509565b61024e61151e565b61041c610417366004612918565b61176b565b60405161022a929190613676565b6102936104383660046128fc565b611795565b6102b0611897565b610293610453366004612950565b61189d565b60045460ff1681565b60045462010000900460ff1681565b600061047a611911565b6001600160a01b031661048b6110b5565b6001600160a01b0316146104d4576040805162461bcd60e51b81526020600482018190526024820152600080516020613772833981519152604482015290519081900360640190fd5b6001600160a01b03871660009081526003602052604090205460ff166105155760405162461bcd60e51b815260040161050c906134db565b60405180910390fd5b6001600160a01b03871661053b5760405162461bcd60e51b815260040161050c906135ff565b600084156105615760015461055c906000906001600160a01b031687611915565b610574565b8461057457506001546001600160a01b03165b6002546001600160a01b038981169116141561059857506002546001600160a01b03165b6105a281856119f8565b6105ab83611b4c565b6105b6888888611b9b565b506001979650505050505050565b6001546001600160a01b031681565b600090565b600454610100900460ff1681565b6105ee6126d4565b6001600160a01b03808e1682528c81166020830152604082018c9052606082018b9052608082018a905260a0820189905260c0820188905260e0820187905261010082018690528416610120820152610140810183905281151561016082015261065781611c50565b50505050505050505050505050565b6000610670611911565b6001600160a01b03166106816110b5565b6001600160a01b0316146106ca576040805162461bcd60e51b81526020600482018190526024820152600080516020613772833981519152604482015290519081900360640190fd5b60006106d46107fa565b6001600160a01b03871660009081526003602052604090205490915060ff1661070f5760405162461bcd60e51b815260040161050c906135d4565b61071b86868686611dc5565b61072457600080fd5b60019150806107316107fa565b101561074f5760405162461bcd60e51b815260040161050c90613642565b50949350505050565b60055481565b60008061076b848461205f565b90508060ff16600114156107ad576001546001600160a01b038581169116146107955760006107a3565b6004546301000000900460ff165b60ff1691506107e3565b8060ff16600214156107e3576001600160a01b038416156107cf5760006107dd565b6004546301000000900460ff165b60ff1691505b5092915050565b6004546301000000900460ff1681565b600154600090819081906108189082906001600160a01b031661176b565b915091506000600260009054906101000a90046001600160a01b03166001600160a01b03166318160ddd6040518163ffffffff1660e01b815260040160206040518083038186803b15801561086c57600080fd5b505afa158015610880573d6000803e3d6000fd5b505050506040513d601f19601f820116820180604052508101906108a49190612f04565b905080156108e6576108e16108c46005548361211990919063ffffffff16565b6009546108db906108d58787612119565b9061217a565b906121d3565b6108ea565b6007545b935050505090565b6001600160a01b0382166000908152600f602090815260408083203384529091528120548211156109355760405162461bcd60e51b815260040161050c906135a6565b6001600160a01b0383166000908152600f60209081526040808320338452909152902054610963908361223a565b6001600160a01b0384166000908152600f602090815260408083203380855292529091209190915561099790849084611b9b565b6001600160a01b0383166000908152600f60209081526040808320338085529252918290205491517ff341246adaac6f497bc2a656f546ab9e182111d630394f0c57c710a59a2cb567926109f092879290918791613077565b60405180910390a15060015b92915050565b6000610a0c611911565b6001600160a01b0316610a1d6110b5565b6001600160a01b031614610a66576040805162461bcd60e51b81526020600482018190526024820152600080516020613772833981519152604482015290519081900360640190fd5b60045460ff610100909104811690851610801590610a88575060ff8460ff1611155b610aa45760405162461bcd60e51b815260040161050c90613382565b6001840160ff168560ff161015610acd5760405162461bcd60e51b815260040161050c90613437565b60648360ff161115610af15760405162461bcd60e51b815260040161050c9061327b565b60648260ff161115610b155760405162461bcd60e51b815260040161050c90613400565b8551875114610b365760405162461bcd60e51b815260040161050c90613549565b610b3f88611795565b60005b8751811015610ba7576000610b69898381518110610b5c57fe5b6020026020010151612297565b509050610b9d818a8481518110610b7c57fe5b60200260200101518a8581518110610b9057fe5b60200260200101516122a0565b5050600101610b42565b506060610bb2610d11565b9050606481511115610bd65760405162461bcd60e51b815260040161050c9061349a565b50506004805460ff191660ff9586161761ff001916610100948616949094029390931762ff0000191662010000928516929092029190911764ff000000001916640100000000919093160291909117905550600192915050565b600f60209081526000928352604080842090915290825290205481565b6002546001600160a01b031681565b6000610c66611911565b6001600160a01b0316610c776110b5565b6001600160a01b031614610cc0576040805162461bcd60e51b81526020600482018190526024820152600080516020613772833981519152604482015290519081900360640190fd5b6000610cca6107fa565b6001600160a01b03871660009081526003602052604090205490915060ff16610d055760405162461bcd60e51b815260040161050c906135d4565b61071b8686868661236f565b606060008060005b600e54811015610d7457600c6000600e8381548110610d3457fe5b60009182526020808320909101546001600160a01b0316835282019290925260400190205415610d6c57610d69836001612119565b92505b600101610d19565b506060826001600160401b0381118015610d8d57600080fd5b50604051908082528060200260200182016040528015610db7578160200160208202803683370190505b50905060005b600e54811015610e6757600c6000600e8381548110610dd857fe5b60009182526020808320909101546001600160a01b0316835282019290925260400190205415610e5f57600c6000600e8381548110610e1357fe5b60009182526020808320909101546001600160a01b031683528201929092526040019020548251839085908110610e4657fe5b6020908102919091010152610e5c836001612119565b92505b600101610dbd565b509250505090565b60075481565b6001600160a01b0381166000908152600f602090815260408083203384529091529020545b919050565b610ea7611911565b6001600160a01b0316610eb86110b5565b6001600160a01b031614610f01576040805162461bcd60e51b81526020600482018190526024820152600080516020613772833981519152604482015290519081900360640190fd5b600080546040516001600160a01b03909116907f8be0079c531659141344cd1fd0a4f28419497f9722a3daafe3b4186f6b6457e0908390a3600080546001600160a01b0319169055565b6000610f55611911565b6001600160a01b0316610f666110b5565b6001600160a01b031614610faf576040805162461bcd60e51b81526020600482018190526024820152600080516020613772833981519152604482015290519081900360640190fd5b6001600160a01b03851615610fd65760405162461bcd60e51b815260040161050c906133c9565b6001546001600160a01b03168415611028576000610ffe85610ff8888761223a565b9061223a565b600154909150611022906001600160a01b0316600061101d8489612119565b611915565b50611031565b84611031575060005b61103b81846119f8565b50600195945050505050565b6040516358b9d17960e01b81526001600160a01b038716906358b9d1799061107b9088908890889088908890600401613684565b600060405180830381600087803b15801561109557600080fd5b505af11580156110a9573d6000803e3d6000fd5b50505050505050505050565b6000546001600160a01b031690565b60036020526000908152604090205460ff1681565b60006110e3611911565b6001600160a01b03166110f46110b5565b6001600160a01b03161461113d576040805162461bcd60e51b81526020600482018190526024820152600080516020613772833981519152604482015290519081900360640190fd5b6001600160a01b03861660009081526003602052604090205460ff166111755760405162461bcd60e51b815260040161050c906134db565b6001600160a01b03861661119b5760405162461bcd60e51b815260040161050c906135ff565b600084156111c1576001546111bc906000906001600160a01b031687611915565b6111d4565b846111d457506001546001600160a01b03165b6002546001600160a01b03888116911614156111f857506002546001600160a01b03165b61120281856119f8565b61120b83611b4c565b60005b86518110156105b6576112578888838151811061122757fe5b602002602001015160001c89848151811061123e57fe5b602002602001015160a01c6001600160601b0316611b9b565b60010161120e565b600454640100000000900460ff1681565b600061127a611911565b6001600160a01b031661128b6110b5565b6001600160a01b0316146112d4576040805162461bcd60e51b81526020600482018190526024820152600080516020613772833981519152604482015290519081900360640190fd5b6112dd82611509565b156112fa5760405162461bcd60e51b815260040161050c90613463565b60408051808201909152601d81527f42544320666c6f617420616d6f756e7420696e73756666696369656e7400000060208083019190915260008052600a90527f13da86008ba1c6922daee3e07db95305ef49ebced9f5467a0b8613fcc6b343e354611367918590612532565b60008052600a6020527f13da86008ba1c6922daee3e07db95305ef49ebced9f5467a0b8613fcc6b343e35561139b826125c9565b50600192915050565b60006113ae611911565b6001600160a01b03166113bf6110b5565b6001600160a01b031614611408576040805162461bcd60e51b81526020600482018190526024820152600080516020613772833981519152604482015290519081900360640190fd5b6001600160a01b03861660009081526003602052604090205460ff166114405760405162461bcd60e51b815260040161050c906134db565b6001600160a01b0386166114665760405162461bcd60e51b815260040161050c906135ff565b6000831561148c57600154611487906000906001600160a01b031686611915565b61149f565b8361149f57506001546001600160a01b03165b6002546001600160a01b03888116911614156114c357506002546001600160a01b03165b6114cd87866125e4565b6114d683611b4c565b505050506001600160a01b039283166000908152600f602090815260408083209490951682529290925291902055600190565b6000908152600b602052604090205460ff1690565b60008061153860065460055461211990919063ffffffff16565b90506000811161155a5760405162461bcd60e51b815260040161050c906132e9565b6060611564610d11565b90506000805b82518110156115af576115a583828151811061158257fe5b602002602001015160a01c6001600160601b03168361211990919063ffffffff16565b915060010161156a565b506002546005546040516340c10f1960e01b81526001600160a01b03909216916340c10f19916115e49130919060040161305e565b602060405180830381600087803b1580156115fe57600080fd5b505af1158015611612573d6000803e3d6000fd5b505050506040513d601f19601f820116820180604052508101906116369190612ed0565b5060005b825181101561171f5760025483516001600160a01b039091169063a9059cbb9085908490811061166657fe5b602002602001015160001c6116a7856108db88878151811061168457fe5b602002602001015160a01c6001600160601b03168a61217a90919063ffffffff16565b6040518363ffffffff1660e01b81526004016116c492919061305e565b602060405180830381600087803b1580156116de57600080fd5b505af11580156116f2573d6000803e3d6000fd5b505050506040513d601f19601f820116820180604052508101906117169190612ed0565b5060010161163a565b507f86dd6ae252e62228b47b3c1a12762cbf634952b2d29319b04f4f72fb153bcbdd8360405161174f919061366d565b60405180910390a1505060006005819055600655506001905090565b6001600160a01b039182166000908152600a60205260408082205492909316815291909120549091565b61179d611911565b6001600160a01b03166117ae6110b5565b6001600160a01b0316146117f7576040805162461bcd60e51b81526020600482018190526024820152600080516020613772833981519152604482015290519081900360640190fd5b6001600160a01b03811661183c5760405162461bcd60e51b815260040180806020018281038252602681526020018061372b6026913960400191505060405180910390fd5b600080546040516001600160a01b03808516939216917f8be0079c531659141344cd1fd0a4f28419497f9722a3daafe3b4186f6b6457e091a3600080546001600160a01b0319166001600160a01b0392909216919091179055565b60065481565b604051630218edeb60e21b81526001600160a01b03891690630863b7ac906118d5908a908a908a908a908a908a908a90600401613188565b600060405180830381600087803b1580156118ef57600080fd5b505af1158015611903573d6000803e3d6000fd5b505050505050505050505050565b3390565b60408051808201825260208082527f5f737761703a20666c6f617420616d6f756e7420696e73756666696369656e74818301526001600160a01b0385166000908152600a909152919091205461196c918390612532565b6001600160a01b038084166000908152600a6020526040808220939093559085168152205461199b9082612119565b6001600160a01b0384166000908152600a60205260409081902091909155517fea368a40e9570069bb8e6511d668293ad2e1f03b0d982431fd223de9f3b70ca6906119eb908590859085906130a0565b60405180910390a1505050565b80611a0257611b48565b6002546001600160a01b0383811691161415611a6c57600654611a259082612119565b6006556040517fe3debe835f6848edc082b32a1d729781d3bfcd7e14422d80bcaa6794d3816b2f90611a5f908490849060009081906131d3565b60405180910390a1611b48565b6000611a766107fa565b6001600160a01b0384166000908152600a6020526040902054909150611a9c9083612119565b6001600160a01b0384166000908152600a6020526040812091909155600454611ad6906064906108db90869062010000900460ff1661217a565b90506000611af3836108db6009548561217a90919063ffffffff16565b600554909150611b039082612119565b6005556040517fe3debe835f6848edc082b32a1d729781d3bfcd7e14422d80bcaa6794d3816b2f90611b3c9087908790859088906131d3565b60405180910390a15050505b5050565b60005b8151811015611b48576001600b6000848481518110611b6a57fe5b6020908102919091018101518252810191909152604001600020805460ff1916911515919091179055600101611b4f565b6001546001600160a01b0384811691161415611bc257600854611bbf90829061217a565b90505b60405163a9059cbb60e01b81526001600160a01b0384169063a9059cbb90611bf0908590859060040161305e565b602060405180830381600087803b158015611c0a57600080fd5b505af1158015611c1e573d6000803e3d6000fd5b505050506040513d601f19601f82011682018060405250810190611c429190612ed0565b611c4b57600080fd5b505050565b8051606082015160405163095ea7b360e01b81526001600160a01b039092169163095ea7b391611c859130919060040161305e565b602060405180830381600087803b158015611c9f57600080fd5b505af1158015611cb3573d6000803e3d6000fd5b505050506040513d601f19601f82011682018060405250810190611cd79190612ed0565b611ce057600080fd5b611ce930612641565b731bd435f3c054b6e901b7b108a0ab7617c808677b6001600160a01b031663cfc0afeb826000015183602001518460400151856060015186608001518760a001518860c001518960e001518a61010001518b61012001518c61014001518d61016001516040518d63ffffffff1660e01b8152600401611d739c9b9a999897969594939291906130c4565b602060405180830381600087803b158015611d8d57600080fd5b505af1158015611da1573d6000803e3d6000fd5b505050506040513d601f19601f82011682018060405250810190611b489190612f04565b6000611dd082611509565b15611ded5760405162461bcd60e51b815260040161050c90613463565b83611e0a5760405162461bcd60e51b815260040161050c90613512565b600080611e1686612297565b915091506000611e246107fa565b90506000611e416009546108db848661217a90919063ffffffff16565b600454909150600090611e6890612710906108db908590640100000000900460ff1661217a565b905087611e75838361223a565b1015611e935760405162461bcd60e51b815260040161050c9061332e565b6000611ea389610ff8858561223a565b6001549091506000908190611ec29082906001600160a01b031661176b565b90925090506001600160a01b038d16611f0357611edf858561223a565b821015611efe5760405162461bcd60e51b815260040161050c906132b2565b611f42565b6001546001600160a01b038e811691161415611f4257611f23858561223a565b811015611f425760405162461bcd60e51b815260040161050c906132b2565b611f4c8d856119f8565b611f568d866125e4565b611f5f8a6125c9565b6001546001600160a01b038e811691161415611f8057611f808d8985611b9b565b600254604051630852cd8d60e31b81526001600160a01b03909116906342966c6890611fb0908a9060040161366d565b602060405180830381600087803b158015611fca57600080fd5b505af1158015611fde573d6000803e3d6000fd5b505050506040513d601f19601f820116820180604052508101906120029190612ed0565b61200b57600080fd5b7fa9da34e5e4a956b744307ae7611795634e8365951073bf049d76b64b2ae7a05888888789878f604051612044969594939291906131f9565b60405180910390a15060019c9b505050505050505050505050565b6001546000908190819061207d9082906001600160a01b031661176b565b909250905060006120a260036108db60026108d58961209c8989612119565b90612119565b6001549091506001600160a01b0387811691161480156120cb5750806120c88387612119565b10155b156120dc57600193505050506109fc565b6001600160a01b0386161580156120fc5750806120f98487612119565b10155b1561210d57600293505050506109fc565b50600095945050505050565b600082820183811015612173576040805162461bcd60e51b815260206004820152601b60248201527f536166654d6174683a206164646974696f6e206f766572666c6f770000000000604482015290519081900360640190fd5b9392505050565b600082612189575060006109fc565b8282028284828161219657fe5b04146121735760405162461bcd60e51b81526004018080602001828103825260218152602001806137516021913960400191505060405180910390fd5b6000808211612229576040805162461bcd60e51b815260206004820152601a60248201527f536166654d6174683a206469766973696f6e206279207a65726f000000000000604482015290519081900360640190fd5b81838161223257fe5b049392505050565b600082821115612291576040805162461bcd60e51b815260206004820152601e60248201527f536166654d6174683a207375627472616374696f6e206f766572666c6f770000604482015290519081900360640190fd5b50900390565b9060a082901c90565b600081156122c957506001600160a01b0383166000908152600c60205260408120556001612173565b6001600160a01b0384166000908152600d602052604090205460ff1661234d57600e805460018082019092557fbb7b4a454dc3493923482f07822329ed19e8244eff582cc204f8554c3620c3fd0180546001600160a01b0319166001600160a01b0387169081179091556000908152600d60205260409020805460ff191690911790555b50506001600160a01b03919091166000908152600c6020526040902055600190565b600061237a82611509565b156123975760405162461bcd60e51b815260040161050c90613463565b836123b45760405162461bcd60e51b815260040161050c90613512565b6000806123c086612297565b9150915060006123ce6107fa565b905060006123eb826108db6009548661217a90919063ffffffff16565b905060006123f98a8561075e565b9050600081612409576000612419565b6124196127106108db858561217a565b905088801561242757508015155b1561243157600080fd5b6002546001600160a01b03166340c10f198761244d868561223a565b6040518363ffffffff1660e01b815260040161246a92919061305e565b602060405180830381600087803b15801561248457600080fd5b505af1158015612498573d6000803e3d6000fd5b505050506040513d601f19601f820116820180604052508101906124bc9190612ed0565b506005546124ca9082612119565b6005556124d78b86612690565b6124e0886125c9565b7fdfaf4e23f7030adafec91a682e05bf9fb30c721f9cec3d8bcfae0459c5362db186868587858d604051612519969594939291906131f9565b60405180910390a15060019a9950505050505050505050565b600081848411156125c15760405162461bcd60e51b81526004018080602001828103825283818151815260200191508051906020019080838360005b8381101561258657818101518382015260200161256e565b50505050905090810190601f1680156125b35780820380516001836020036101000a031916815260200191505b509250505060405180910390fd5b505050900390565b6000908152600b60205260409020805460ff19166001179055565b61262181604051806060016040528060278152602001613792602791396001600160a01b0385166000908152600a60205260409020549190612532565b6001600160a01b039092166000908152600a602052604090209190915550565b604080516001600160a01b0383166024808301919091528251808303909101815260449091019091526020810180516001600160e01b031663161765e160e11b17905261268d906126b3565b50565b6001600160a01b0382166000908152600a60205260409020546126219082612119565b80516a636f6e736f6c652e6c6f67602083016000808483855afa5050505050565b60405180610180016040528060006001600160a01b0316815260200160006001600160a01b031681526020016000815260200160008152602001600081526020016060815260200160608152602001606081526020016060815260200160006001600160a01b03168152602001606081526020016000151581525090565b8035610e9a81613707565b60008083601f84011261276e578182fd5b5081356001600160401b03811115612784578182fd5b602083019150836020808302850101111561279e57600080fd5b9250929050565b600082601f8301126127b5578081fd5b81356127c86127c3826136ea565b6136c7565b8181529150602080830190848101818402860182018710156127e957600080fd5b60005b848110156128115781356127ff81613707565b845292820192908201906001016127ec565b505050505092915050565b600082601f83011261282c578081fd5b813561283a6127c3826136ea565b81815291506020808301908481018184028601820187101561285b57600080fd5b60005b848110156128115781358452928201929082019060010161285e565b8035610e9a8161371c565b600082601f830112612895578081fd5b81356001600160401b038111156128a857fe5b6128bb601f8201601f19166020016136c7565b91508082528360208285010111156128d257600080fd5b8060208401602084013760009082016020015292915050565b803560ff81168114610e9a57600080fd5b60006020828403121561290d578081fd5b813561217381613707565b6000806040838503121561292a578081fd5b823561293581613707565b9150602083013561294581613707565b809150509250929050565b60008060008060008060008060e0898b03121561296b578384fd5b883561297681613707565b9750602089013561298681613707565b965060408901359550606089013594506080890135935060a08901356001600160401b038111156129b5578384fd5b6129c18b828c0161275d565b90945092506129d4905060c08a016128eb565b90509295985092959890939650565b600080600080600060a086880312156129fa578081fd5b8535612a0581613707565b94506020860135612a1581613707565b9350604086013592506060860135915060808601356001600160401b03811115612a3d578182fd5b612a498882890161281c565b9150509295509295909350565b6000806000806000806000806000806000806101808d8f031215612a78578586fd5b612a818d612752565b9b50612a8f60208e01612752565b9a5060408d0135995060608d0135985060808d013597506001600160401b0360a08e01351115612abd578586fd5b612acd8e60a08f01358f016127a5565b96506001600160401b0360c08e01351115612ae6578586fd5b612af68e60c08f01358f01612885565b95506001600160401b0360e08e01351115612b0f578384fd5b612b1f8e60e08f01358f0161281c565b94506001600160401b036101008e01351115612b39578384fd5b612b4a8e6101008f01358f0161281c565b9350612b596101208e01612752565b92506001600160401b036101408e01351115612b73578081fd5b612b848e6101408f01358f01612885565b9150612b936101608e0161287a565b90509295989b509295989b509295989b565b60008060008060008060c08789031215612bbd578384fd5b8635612bc881613707565b95506020870135612bd881613707565b945060408701359350606087013592506080870135915060a08701356001600160401b03811115612c07578182fd5b612c1389828a0161281c565b9150509295509295509295565b600080600080600080600060e0888a031215612c3a578081fd5b8735612c4581613707565b96506020888101356001600160401b0380821115612c61578384fd5b612c6d8c838d0161281c565b985060408b0135915080821115612c82578384fd5b508901601f81018b13612c93578283fd5b8035612ca16127c3826136ea565b81815283810190838501858402850186018f1015612cbd578687fd5b8694505b83851015612ce8578035612cd48161371c565b835260019490940193918501918501612cc1565b508099505050505050612cfd606089016128eb565b9350612d0b608089016128eb565b9250612d1960a089016128eb565b9150612d2760c089016128eb565b905092959891949750929550565b600080600080600060a08688031215612d4c578283fd5b8535612d5781613707565b945060208601356001600160401b0380821115612d72578485fd5b612d7e89838a0161281c565b955060408801359450606088013593506080880135915080821115612da1578283fd5b50612a498882890161281c565b60008060008060808587031215612dc3578182fd5b8435612dce81613707565b9350602085013592506040850135612de58161371c565b9396929550929360600135925050565b60008060008060808587031215612e0a578182fd5b8435612e1581613707565b966020860135965060408601359560600135945092505050565b60008060408385031215612e41578182fd5b8235612e4c81613707565b946020939093013593505050565b60008060008060008060a08789031215612e72578384fd5b8635612e7d81613707565b9550602087013594506040870135935060608701356001600160401b03811115612ea5578283fd5b612eb189828a0161275d565b9094509250612ec49050608088016128eb565b90509295509295509295565b600060208284031215612ee1578081fd5b81516121738161371c565b600060208284031215612efd578081fd5b5035919050565b600060208284031215612f15578081fd5b5051919050565b60008060408385031215612f2e578182fd5b50508035926020909101359150565b6001600160a01b03169052565b60008284526020808501945082825b85811015612f87578135612f6c81613707565b6001600160a01b031687529582019590820190600101612f59565b509495945050505050565b6000815180845260208085019450808401835b83811015612f875781516001600160a01b031687529582019590820190600101612fa5565b6000815180845260208085019450808401835b83811015612f8757815187529582019590820190600101612fdd565b15159052565b60008151808452815b8181101561302457602081850181015186830182015201613008565b818111156130355782602083870101525b50601f01601f19169290920160200192915050565b6001600160a01b0391909116815260200190565b6001600160a01b03929092168252602082015260400190565b6001600160a01b0394851681529290931660208301526040820152606081019190915260800190565b6001600160a01b039384168152919092166020820152604081019190915260600190565b6001600160a01b038d16815260006101806130e2602084018f612f3d565b8c60408401528b60608401528a60808401528060a08401526131068184018b612f92565b905082810360c084015261311a818a612fff565b905082810360e084015261312e8189612fca565b90508281036101008401526131438188612fca565b9050613153610120840187612f3d565b8281036101408401526131668186612fff565b915050613177610160830184612ff9565b9d9c50505050505050505050505050565b600060018060a01b038916825287602083015286604083015285606083015260c060808301526131bc60c083018587612f4a565b905060ff831660a083015298975050505050505050565b6001600160a01b0394909416845260208401929092526040830152606082015260800190565b6001600160a01b03969096168652602086019490945260408501929092526060840152608083015260a082015260c00190565b6020808252825182820181905260009190848201906040850190845b8181101561326457835183529284019291840191600101613248565b50909695505050505050565b901515815260200190565b6020808252601e908201527f5f6e6f646552657761726473526174696f206973206e6f742076616c69640000604082015260600190565b6020808252601f908201527f54686520666c6f61742062616c616e636520696e73756666696369656e742e00604082015260600190565b60208082526025908201527f746f74616c5265776172644c5073466f724e6f6465206973206e6f7420706f73604082015264697469766560d81b606082015260800190565b60208082526034908201527f4572726f723a20616d6f756e744f66466c6f61742e737562287769746864726160408201527377616c4665657329203c205f6d696e657246656560601b606082015260800190565b60208082526027908201527f5f7473735468726573686f6c642073686f756c64206265203e3d2074737354686040820152661c995cda1bdb1960ca1b606082015260800190565b6020808252601f908201527f5f64657374546f6b656e2073686f756c64206265206164647265737328302900604082015260600190565b6020808252601c908201527f5f7769746864726177616c46656542505320697320696e76616c696400000000604082015260600190565b6020808252601290820152716e2073686f756c64206265203e3d20742b3160701b604082015260600190565b60208082526018908201527f546865207478696420697320616c726561647920757365640000000000000000604082015260600190565b60208082526021908201527f53746f726564206e6f64652073697a652073686f756c64206265203c3d2031306040820152600360fc1b606082015260800190565b6020808252601d908201527f5f64657374546f6b656e206973206e6f742077686974656c6973746564000000604082015260600190565b6020808252601c908201527f546865207472616e73616374696f6e206973206e6f742076616c696400000000604082015260600190565b6020808252603b908201527f5f72657761726441646472657373416e64416d6f756e747320616e64205f697360408201527f52656d6f766564206c656e677468206973206e6f74206d617463680000000000606082015260800190565b602080825260149082015273496e73756666696369656e742042616c616e636560601b604082015260600190565b60208082526011908201527017dd1bdad95b881a5cc81a5b9d985b1a59607a1b604082015260600190565b60208082526023908201527f5f64657374546f6b656e2073686f756c64206e6f74206265206164647265737360408201526228302960e81b606082015260800190565b602080825260119082015270496e76616c6964204c505420707269636560781b604082015260600190565b90815260200190565b918252602082015260400190565b6000868252856020830152608060408301526136a4608083018587612f4a565b905060ff831660608301529695505050505050565b60ff91909116815260200190565b6040518181016001600160401b03811182821017156136e257fe5b604052919050565b60006001600160401b038211156136fd57fe5b5060209081020190565b6001600160a01b038116811461268d57600080fd5b801515811461268d57600080fdfe4f776e61626c653a206e6577206f776e657220697320746865207a65726f2061646472657373536166654d6174683a206d756c7469706c69636174696f6e206f766572666c6f774f776e61626c653a2063616c6c6572206973206e6f7420746865206f776e65725f72656d6f7665466c6f61743a20666c6f617420616d6f756e7420696e73756666696369656e74a2646970667358221220a21fbbbd9500f9769899fffc2b251a2d2b4c3899a3dc91ae85be86be340ab6b964736f6c63430007050033",
  "linkReferences": {},
  "deployedLinkReferences": {}
}