{
  "_format": "hh-sol-artifact-1",
  "contractName": "SwapContract",
  "sourceName": "contracts/SwapContract.sol",
  "abi": [
    {
      "inputs": [
        {
          "internalType": "address",
          "name": "_lpToken",
          "type": "address"
        },
        {
          "internalType": "address",
          "name": "_btct",
          "type": "address"
        },
        {
          "internalType": "address",
          "name": "_wETH",
          "type": "address"
        },
        {
          "internalType": "uint256",
          "name": "_existingBTCFloat",
          "type": "uint256"
        }
      ],
      "stateMutability": "nonpayable",
      "type": "constructor"
    },
    {
      "anonymous": false,
      "inputs": [
        {
          "indexed": false,
          "internalType": "address",
          "name": "token",
          "type": "address"
        },
        {
          "indexed": false,
          "internalType": "uint256",
          "name": "amountOfLP",
          "type": "uint256"
        },
        {
          "indexed": false,
          "internalType": "uint256",
          "name": "amountOfFloat",
          "type": "uint256"
        },
        {
          "indexed": false,
          "internalType": "uint256",
          "name": "currentPriceLP",
          "type": "uint256"
        },
        {
          "indexed": false,
          "internalType": "uint256",
          "name": "withdrawal",
          "type": "uint256"
        },
        {
          "indexed": false,
          "internalType": "bytes32",
          "name": "txid",
          "type": "bytes32"
        }
      ],
      "name": "BurnLPTokensForFloat",
      "type": "event"
    },
    {
      "anonymous": false,
      "inputs": [
        {
          "indexed": false,
          "internalType": "address",
          "name": "token",
          "type": "address"
        },
        {
          "indexed": false,
          "internalType": "address",
          "name": "user",
          "type": "address"
        },
        {
          "indexed": false,
          "internalType": "uint256",
          "name": "amount",
          "type": "uint256"
        },
        {
          "indexed": false,
          "internalType": "uint256",
          "name": "balance",
          "type": "uint256"
        },
        {
          "indexed": false,
          "internalType": "uint256",
          "name": "Timestamp",
          "type": "uint256"
        }
      ],
      "name": "Deposit",
      "type": "event"
    },
    {
      "anonymous": false,
      "inputs": [
        {
          "indexed": false,
          "internalType": "uint256",
          "name": "rewardLPTsForNodes",
          "type": "uint256"
        }
      ],
      "name": "DistributeNodeRewards",
      "type": "event"
    },
    {
      "anonymous": false,
      "inputs": [
        {
          "indexed": false,
          "internalType": "address",
          "name": "to",
          "type": "address"
        },
        {
          "indexed": false,
          "internalType": "uint256",
          "name": "amountOfFloat",
          "type": "uint256"
        },
        {
          "indexed": false,
          "internalType": "uint256",
          "name": "amountOfLP",
          "type": "uint256"
        },
        {
          "indexed": false,
          "internalType": "uint256",
          "name": "currentPriceLP",
          "type": "uint256"
        },
        {
          "indexed": false,
          "internalType": "uint256",
          "name": "depositFees",
          "type": "uint256"
        },
        {
          "indexed": false,
          "internalType": "bytes32",
          "name": "txid",
          "type": "bytes32"
        }
      ],
      "name": "IssueLPTokensForFloat",
      "type": "event"
    },
    {
      "anonymous": false,
      "inputs": [
        {
          "indexed": true,
          "internalType": "address",
          "name": "previousOwner",
          "type": "address"
        },
        {
          "indexed": true,
          "internalType": "address",
          "name": "newOwner",
          "type": "address"
        }
      ],
      "name": "OwnershipTransferred",
      "type": "event"
    },
    {
      "anonymous": false,
      "inputs": [
        {
          "indexed": false,
          "internalType": "address",
          "name": "feesToken",
          "type": "address"
        },
        {
          "indexed": false,
          "internalType": "uint256",
          "name": "rewards",
          "type": "uint256"
        },
        {
          "indexed": false,
          "internalType": "uint256",
          "name": "amountLPTokensForNode",
          "type": "uint256"
        },
        {
          "indexed": false,
          "internalType": "uint256",
          "name": "currentPriceLP",
          "type": "uint256"
        }
      ],
      "name": "RewardsCollection",
      "type": "event"
    },
    {
      "anonymous": false,
      "inputs": [
        {
          "indexed": false,
          "internalType": "uint256",
          "name": "ExpirationTime",
          "type": "uint256"
        },
        {
          "indexed": false,
          "internalType": "uint256",
          "name": "Timestamp",
          "type": "uint256"
        }
      ],
      "name": "SetExpirationTime",
      "type": "event"
    },
    {
      "anonymous": false,
      "inputs": [
        {
          "indexed": false,
          "internalType": "address",
          "name": "from",
          "type": "address"
        },
        {
          "indexed": false,
          "internalType": "address",
          "name": "to",
          "type": "address"
        },
        {
          "indexed": false,
          "internalType": "uint256",
          "name": "amount",
          "type": "uint256"
        }
      ],
      "name": "Swap",
      "type": "event"
    },
    {
      "anonymous": false,
      "inputs": [
        {
          "indexed": false,
          "internalType": "bytes32",
          "name": "SwapID",
          "type": "bytes32"
        },
        {
          "indexed": false,
          "internalType": "bytes32",
          "name": "DestAddr",
          "type": "bytes32"
        },
        {
          "indexed": false,
          "internalType": "address",
          "name": "RefundAddr",
          "type": "address"
        },
        {
          "indexed": false,
          "internalType": "uint256",
          "name": "AmountWBTC",
          "type": "uint256"
        },
        {
          "indexed": false,
          "internalType": "uint256",
          "name": "Timestamp",
          "type": "uint256"
        }
      ],
      "name": "SwapTokensToBTC",
      "type": "event"
    },
    {
      "anonymous": false,
      "inputs": [
        {
          "indexed": false,
          "internalType": "address",
          "name": "token",
          "type": "address"
        },
        {
          "indexed": false,
          "internalType": "address",
          "name": "user",
          "type": "address"
        },
        {
          "indexed": false,
          "internalType": "uint256",
          "name": "amount",
          "type": "uint256"
        },
        {
          "indexed": false,
          "internalType": "uint256",
          "name": "balance",
          "type": "uint256"
        },
        {
          "indexed": false,
          "internalType": "uint256",
          "name": "Timestamp",
          "type": "uint256"
        }
      ],
      "name": "Withdraw",
      "type": "event"
    },
    {
      "stateMutability": "nonpayable",
      "type": "fallback"
    },
    {
      "inputs": [],
      "name": "BTCT_ADDR",
      "outputs": [
        {
          "internalType": "address",
          "name": "",
          "type": "address"
        }
      ],
      "stateMutability": "view",
      "type": "function"
    },
    {
      "inputs": [
        {
          "internalType": "address",
          "name": "_token",
          "type": "address"
        },
        {
          "internalType": "address",
          "name": "_user",
          "type": "address"
        }
      ],
      "name": "balanceOf",
      "outputs": [
        {
          "internalType": "uint256",
          "name": "",
          "type": "uint256"
        }
      ],
      "stateMutability": "view",
      "type": "function"
    },
    {
      "inputs": [
        {
          "internalType": "address",
          "name": "_newOwner",
          "type": "address"
        },
        {
          "internalType": "bytes32[]",
          "name": "_rewardAddressAndAmounts",
          "type": "bytes32[]"
        },
        {
          "internalType": "bool[]",
          "name": "_isRemoved",
          "type": "bool[]"
        },
        {
          "internalType": "uint8",
          "name": "_churnedInCount",
          "type": "uint8"
        },
        {
          "internalType": "uint8",
          "name": "_tssThreshold",
          "type": "uint8"
        },
        {
          "internalType": "uint8",
          "name": "_nodeRewardsRatio",
          "type": "uint8"
        },
        {
          "internalType": "uint8",
          "name": "_withdrawalFeeBPS",
          "type": "uint8"
        },
        {
          "internalType": "uint256",
          "name": "_expirationTime",
          "type": "uint256"
        }
      ],
      "name": "churn",
      "outputs": [
        {
          "internalType": "bool",
          "name": "",
          "type": "bool"
        }
      ],
      "stateMutability": "nonpayable",
      "type": "function"
    },
    {
      "inputs": [],
      "name": "churnedInCount",
      "outputs": [
        {
          "internalType": "uint8",
          "name": "",
          "type": "uint8"
        }
      ],
      "stateMutability": "view",
      "type": "function"
    },
    {
      "inputs": [
        {
          "internalType": "address",
          "name": "_destToken",
          "type": "address"
        },
        {
          "internalType": "uint256",
          "name": "_incomingAmount",
          "type": "uint256"
        },
        {
          "internalType": "uint256",
          "name": "_minerFee",
          "type": "uint256"
        },
        {
          "internalType": "uint256",
          "name": "_rewardsAmount",
          "type": "uint256"
        }
      ],
      "name": "collectSwapFeesForBTC",
      "outputs": [
        {
          "internalType": "bool",
          "name": "",
          "type": "bool"
        }
      ],
      "stateMutability": "nonpayable",
      "type": "function"
    },
    {
      "inputs": [],
      "name": "depositFeesBPS",
      "outputs": [
        {
          "internalType": "uint8",
          "name": "",
          "type": "uint8"
        }
      ],
      "stateMutability": "view",
      "type": "function"
    },
    {
      "inputs": [],
      "name": "distributeNodeRewards",
      "outputs": [
        {
          "internalType": "bool",
          "name": "",
          "type": "bool"
        }
      ],
      "stateMutability": "nonpayable",
      "type": "function"
    },
    {
      "inputs": [],
      "name": "expirationTime",
      "outputs": [
        {
          "internalType": "uint256",
          "name": "",
          "type": "uint256"
        }
      ],
      "stateMutability": "view",
      "type": "function"
    },
    {
      "inputs": [],
      "name": "feesLPTokensForNode",
      "outputs": [
        {
          "internalType": "uint256",
          "name": "",
          "type": "uint256"
        }
      ],
      "stateMutability": "view",
      "type": "function"
    },
    {
      "inputs": [],
      "name": "getActiveNodes",
      "outputs": [
        {
          "internalType": "bytes32[]",
          "name": "",
          "type": "bytes32[]"
        }
      ],
      "stateMutability": "view",
      "type": "function"
    },
    {
      "inputs": [],
      "name": "getCurrentPriceLP",
      "outputs": [
        {
          "internalType": "uint256",
          "name": "nowPrice",
          "type": "uint256"
        }
      ],
      "stateMutability": "view",
      "type": "function"
    },
    {
      "inputs": [
        {
          "internalType": "address",
          "name": "_token",
          "type": "address"
        },
        {
          "internalType": "uint256",
          "name": "_amountOfFloat",
          "type": "uint256"
        }
      ],
      "name": "getDepositFeeRate",
      "outputs": [
        {
          "internalType": "uint256",
          "name": "depositFeeRate",
          "type": "uint256"
        }
      ],
      "stateMutability": "view",
      "type": "function"
    },
    {
      "inputs": [
        {
          "internalType": "address",
          "name": "_tokenA",
          "type": "address"
        },
        {
          "internalType": "address",
          "name": "_tokenB",
          "type": "address"
        }
      ],
      "name": "getFloatReserve",
      "outputs": [
        {
          "internalType": "uint256",
          "name": "reserveA",
          "type": "uint256"
        },
        {
          "internalType": "uint256",
          "name": "reserveB",
          "type": "uint256"
        }
      ],
      "stateMutability": "view",
      "type": "function"
    },
    {
      "inputs": [],
      "name": "initialExchangeRate",
      "outputs": [
        {
          "internalType": "uint256",
          "name": "",
          "type": "uint256"
        }
      ],
      "stateMutability": "view",
      "type": "function"
    },
    {
      "inputs": [
        {
          "internalType": "bytes32",
          "name": "_txid",
          "type": "bytes32"
        }
      ],
      "name": "isTxUsed",
      "outputs": [
        {
          "internalType": "bool",
          "name": "",
          "type": "bool"
        }
      ],
      "stateMutability": "view",
      "type": "function"
    },
    {
      "inputs": [],
      "name": "latestRemovedIndex",
      "outputs": [
        {
          "internalType": "uint256",
          "name": "",
          "type": "uint256"
        }
      ],
      "stateMutability": "view",
      "type": "function"
    },
    {
      "inputs": [],
      "name": "lockedLPTokensForNode",
      "outputs": [
        {
          "internalType": "uint256",
          "name": "",
          "type": "uint256"
        }
      ],
      "stateMutability": "view",
      "type": "function"
    },
    {
      "inputs": [],
      "name": "lpToken",
      "outputs": [
        {
          "internalType": "address",
          "name": "",
          "type": "address"
        }
      ],
      "stateMutability": "view",
      "type": "function"
    },
    {
      "inputs": [
        {
          "internalType": "address",
          "name": "_destToken",
          "type": "address"
        },
        {
          "internalType": "bytes32[]",
          "name": "_addressesAndAmounts",
          "type": "bytes32[]"
        },
        {
          "internalType": "uint256",
          "name": "_totalSwapped",
          "type": "uint256"
        },
        {
          "internalType": "uint256",
          "name": "_rewardsAmount",
          "type": "uint256"
        },
        {
          "internalType": "bytes32[]",
          "name": "_redeemedFloatTxIds",
          "type": "bytes32[]"
        }
      ],
      "name": "multiTransferERC20TightlyPacked",
      "outputs": [
        {
          "internalType": "bool",
          "name": "",
          "type": "bool"
        }
      ],
      "stateMutability": "nonpayable",
      "type": "function"
    },
    {
      "inputs": [],
      "name": "nodeRewardsRatio",
      "outputs": [
        {
          "internalType": "uint8",
          "name": "",
          "type": "uint8"
        }
      ],
      "stateMutability": "view",
      "type": "function"
    },
    {
      "inputs": [],
      "name": "owner",
      "outputs": [
        {
          "internalType": "address",
          "name": "",
          "type": "address"
        }
      ],
      "stateMutability": "view",
      "type": "function"
    },
    {
      "inputs": [
        {
          "internalType": "address",
          "name": "_token",
          "type": "address"
        },
        {
          "internalType": "bytes32",
          "name": "_addressesAndAmountOfFloat",
          "type": "bytes32"
        },
        {
          "internalType": "bool",
          "name": "_zerofee",
          "type": "bool"
        },
        {
          "internalType": "bytes32",
          "name": "_txid",
          "type": "bytes32"
        }
      ],
      "name": "recordIncomingFloat",
      "outputs": [
        {
          "internalType": "bool",
          "name": "",
          "type": "bool"
        }
      ],
      "stateMutability": "nonpayable",
      "type": "function"
    },
    {
      "inputs": [
        {
          "internalType": "address",
          "name": "_token",
          "type": "address"
        },
        {
          "internalType": "bytes32",
          "name": "_addressesAndAmountOfLPtoken",
          "type": "bytes32"
        },
        {
          "internalType": "uint256",
          "name": "_minerFee",
          "type": "uint256"
        },
        {
          "internalType": "bytes32",
          "name": "_txid",
          "type": "bytes32"
        }
      ],
      "name": "recordOutcomingFloat",
      "outputs": [
        {
          "internalType": "bool",
          "name": "",
          "type": "bool"
        }
      ],
      "stateMutability": "nonpayable",
      "type": "function"
    },
    {
      "inputs": [
        {
          "internalType": "address",
          "name": "_to",
          "type": "address"
        },
        {
          "internalType": "uint256",
          "name": "_totalSwapped",
          "type": "uint256"
        },
        {
          "internalType": "uint256",
          "name": "_rewardsAmount",
          "type": "uint256"
        },
        {
          "internalType": "bytes32[]",
          "name": "_usedTxIds",
          "type": "bytes32[]"
        }
      ],
      "name": "recordSkyPoolsTX",
      "outputs": [
        {
          "internalType": "bool",
          "name": "",
          "type": "bool"
        }
      ],
      "stateMutability": "nonpayable",
      "type": "function"
    },
    {
      "inputs": [
        {
          "internalType": "uint256",
          "name": "_minerFee",
          "type": "uint256"
        },
        {
          "internalType": "bytes32",
          "name": "_txid",
          "type": "bytes32"
        }
      ],
      "name": "recordUTXOSweepMinerFee",
      "outputs": [
        {
          "internalType": "bool",
          "name": "",
          "type": "bool"
        }
      ],
      "stateMutability": "nonpayable",
      "type": "function"
    },
    {
      "inputs": [
        {
          "internalType": "address",
          "name": "_token",
          "type": "address"
        },
        {
          "internalType": "uint256",
          "name": "_amount",
          "type": "uint256"
        }
      ],
      "name": "redeemERC20Token",
      "outputs": [],
      "stateMutability": "nonpayable",
      "type": "function"
    },
    {
      "inputs": [
        {
          "internalType": "uint256",
          "name": "_amount",
          "type": "uint256"
        }
      ],
      "name": "redeemEther",
      "outputs": [],
      "stateMutability": "nonpayable",
      "type": "function"
    },
    {
      "inputs": [],
      "name": "renounceOwnership",
      "outputs": [],
      "stateMutability": "nonpayable",
      "type": "function"
    },
    {
      "inputs": [
        {
          "internalType": "address",
          "name": "_destToken",
          "type": "address"
        },
        {
          "internalType": "address",
          "name": "_to",
          "type": "address"
        },
        {
          "internalType": "uint256",
          "name": "_amount",
          "type": "uint256"
        },
        {
          "internalType": "uint256",
          "name": "_totalSwapped",
          "type": "uint256"
        },
        {
          "internalType": "uint256",
          "name": "_rewardsAmount",
          "type": "uint256"
        },
        {
          "internalType": "bytes32[]",
          "name": "_redeemedFloatTxIds",
          "type": "bytes32[]"
        }
      ],
      "name": "singleTransferERC20",
      "outputs": [
        {
          "internalType": "bool",
          "name": "",
          "type": "bool"
        }
      ],
      "stateMutability": "nonpayable",
      "type": "function"
    },
    {
      "inputs": [
        {
          "internalType": "uint256",
          "name": "_loopCount",
          "type": "uint256"
        }
      ],
      "name": "spCleanUpOldTXs",
      "outputs": [],
      "stateMutability": "nonpayable",
      "type": "function"
    },
    {
      "inputs": [
        {
          "internalType": "address",
          "name": "_token",
          "type": "address"
        },
        {
          "internalType": "uint256",
          "name": "_amount",
          "type": "uint256"
        }
      ],
      "name": "spDeposit",
      "outputs": [],
      "stateMutability": "payable",
      "type": "function"
    },
    {
      "inputs": [
        {
          "components": [
            {
              "internalType": "address",
              "name": "fromToken",
              "type": "address"
            },
            {
              "internalType": "address",
              "name": "toToken",
              "type": "address"
            },
            {
              "internalType": "uint256",
              "name": "fromAmount",
              "type": "uint256"
            },
            {
              "internalType": "uint256",
              "name": "toAmount",
              "type": "uint256"
            },
            {
              "internalType": "uint256",
              "name": "expectedAmount",
              "type": "uint256"
            },
            {
              "internalType": "address[]",
              "name": "callees",
              "type": "address[]"
            },
            {
              "internalType": "bytes",
              "name": "exchangeData",
              "type": "bytes"
            },
            {
              "internalType": "uint256[]",
              "name": "startIndexes",
              "type": "uint256[]"
            },
            {
              "internalType": "uint256[]",
              "name": "values",
              "type": "uint256[]"
            },
            {
              "internalType": "address payable",
              "name": "beneficiary",
              "type": "address"
            },
            {
              "internalType": "address payable",
              "name": "partner",
              "type": "address"
            },
            {
              "internalType": "uint256",
              "name": "feePercent",
              "type": "uint256"
            },
            {
              "internalType": "bytes",
              "name": "permit",
              "type": "bytes"
            },
            {
              "internalType": "uint256",
              "name": "deadline",
              "type": "uint256"
            },
            {
              "internalType": "bytes16",
              "name": "uuid",
              "type": "bytes16"
            }
          ],
          "internalType": "struct Utils.SimpleData",
          "name": "_data",
          "type": "tuple"
        }
      ],
      "name": "spFlow1SimpleSwap",
      "outputs": [],
      "stateMutability": "nonpayable",
      "type": "function"
    },
    {
      "inputs": [
        {
          "internalType": "bool",
          "name": "_fork",
          "type": "bool"
        },
        {
          "internalType": "address",
          "name": "_factory",
          "type": "address"
        },
        {
          "internalType": "bytes32",
          "name": "_initCode",
          "type": "bytes32"
        },
        {
          "internalType": "uint256",
          "name": "_amountIn",
          "type": "uint256"
        },
        {
          "internalType": "uint256",
          "name": "_amountOutMin",
          "type": "uint256"
        },
        {
          "internalType": "address[]",
          "name": "_path",
          "type": "address[]"
        }
      ],
      "name": "spFlow1Uniswap",
      "outputs": [],
      "stateMutability": "nonpayable",
      "type": "function"
    },
    {
      "inputs": [
        {
          "internalType": "bytes32",
          "name": "_destinationAddressForBTC",
          "type": "bytes32"
        },
        {
          "components": [
            {
              "internalType": "address",
              "name": "fromToken",
              "type": "address"
            },
            {
              "internalType": "address",
              "name": "toToken",
              "type": "address"
            },
            {
              "internalType": "uint256",
              "name": "fromAmount",
              "type": "uint256"
            },
            {
              "internalType": "uint256",
              "name": "toAmount",
              "type": "uint256"
            },
            {
              "internalType": "uint256",
              "name": "expectedAmount",
              "type": "uint256"
            },
            {
              "internalType": "address[]",
              "name": "callees",
              "type": "address[]"
            },
            {
              "internalType": "bytes",
              "name": "exchangeData",
              "type": "bytes"
            },
            {
              "internalType": "uint256[]",
              "name": "startIndexes",
              "type": "uint256[]"
            },
            {
              "internalType": "uint256[]",
              "name": "values",
              "type": "uint256[]"
            },
            {
              "internalType": "address payable",
              "name": "beneficiary",
              "type": "address"
            },
            {
              "internalType": "address payable",
              "name": "partner",
              "type": "address"
            },
            {
              "internalType": "uint256",
              "name": "feePercent",
              "type": "uint256"
            },
            {
              "internalType": "bytes",
              "name": "permit",
              "type": "bytes"
            },
            {
              "internalType": "uint256",
              "name": "deadline",
              "type": "uint256"
            },
            {
              "internalType": "bytes16",
              "name": "uuid",
              "type": "bytes16"
            }
          ],
          "internalType": "struct Utils.SimpleData",
          "name": "_data",
          "type": "tuple"
        }
      ],
      "name": "spFlow2SimpleSwap",
      "outputs": [],
      "stateMutability": "nonpayable",
      "type": "function"
    },
    {
      "inputs": [
        {
          "internalType": "bytes32",
          "name": "_destinationAddressForBTC",
          "type": "bytes32"
        },
        {
          "internalType": "bool",
          "name": "_fork",
          "type": "bool"
        },
        {
          "internalType": "address",
          "name": "_factory",
          "type": "address"
        },
        {
          "internalType": "bytes32",
          "name": "_initCode",
          "type": "bytes32"
        },
        {
          "internalType": "uint256",
          "name": "_amountIn",
          "type": "uint256"
        },
        {
          "internalType": "uint256",
          "name": "_amountOutMin",
          "type": "uint256"
        },
        {
          "internalType": "address[]",
          "name": "_path",
          "type": "address[]"
        }
      ],
      "name": "spFlow2Uniswap",
      "outputs": [],
      "stateMutability": "nonpayable",
      "type": "function"
    },
    {
      "inputs": [],
      "name": "spGetPendingSwaps",
      "outputs": [
        {
          "components": [
            {
              "internalType": "bytes32",
              "name": "SwapID",
              "type": "bytes32"
            },
            {
              "internalType": "bytes32",
              "name": "DestAddr",
              "type": "bytes32"
            },
            {
              "internalType": "address",
              "name": "RefundAddr",
              "type": "address"
            },
            {
              "internalType": "uint256",
              "name": "AmountWBTC",
              "type": "uint256"
            },
            {
              "internalType": "uint256",
              "name": "Timestamp",
              "type": "uint256"
            }
          ],
          "internalType": "struct SwapContract.spPendingTx[]",
          "name": "data",
          "type": "tuple[]"
        }
      ],
      "stateMutability": "view",
      "type": "function"
    },
    {
      "inputs": [
        {
          "internalType": "uint256",
          "name": "",
          "type": "uint256"
        }
      ],
      "name": "spPendingTXs",
      "outputs": [
        {
          "internalType": "bytes32",
          "name": "SwapID",
          "type": "bytes32"
        },
        {
          "internalType": "bytes32",
          "name": "DestAddr",
          "type": "bytes32"
        },
        {
          "internalType": "address",
          "name": "RefundAddr",
          "type": "address"
        },
        {
          "internalType": "uint256",
          "name": "AmountWBTC",
          "type": "uint256"
        },
        {
          "internalType": "uint256",
          "name": "Timestamp",
          "type": "uint256"
        }
      ],
      "stateMutability": "view",
      "type": "function"
    },
    {
      "inputs": [],
      "name": "swapCount",
      "outputs": [
        {
          "internalType": "uint256",
          "name": "",
          "type": "uint256"
        }
      ],
      "stateMutability": "view",
      "type": "function"
    },
    {
      "inputs": [
        {
          "internalType": "address",
          "name": "",
          "type": "address"
        },
        {
          "internalType": "address",
          "name": "",
          "type": "address"
        }
      ],
      "name": "tokens",
      "outputs": [
        {
          "internalType": "uint256",
          "name": "",
          "type": "uint256"
        }
      ],
      "stateMutability": "view",
      "type": "function"
    },
    {
      "inputs": [
        {
          "internalType": "address",
          "name": "newOwner",
          "type": "address"
        }
      ],
      "name": "transferOwnership",
      "outputs": [],
      "stateMutability": "nonpayable",
      "type": "function"
    },
    {
      "inputs": [],
      "name": "tssThreshold",
      "outputs": [
        {
          "internalType": "uint8",
          "name": "",
          "type": "uint8"
        }
      ],
      "stateMutability": "view",
      "type": "function"
    },
    {
      "inputs": [],
      "name": "wETH",
      "outputs": [
        {
          "internalType": "address",
          "name": "",
          "type": "address"
        }
      ],
      "stateMutability": "view",
      "type": "function"
    },
    {
      "inputs": [
        {
          "internalType": "address",
          "name": "",
          "type": "address"
        }
      ],
      "name": "whitelist",
      "outputs": [
        {
          "internalType": "bool",
          "name": "",
          "type": "bool"
        }
      ],
      "stateMutability": "view",
      "type": "function"
    },
    {
      "inputs": [],
      "name": "withdrawalFeeBPS",
      "outputs": [
        {
          "internalType": "uint8",
          "name": "",
          "type": "uint8"
        }
      ],
      "stateMutability": "view",
      "type": "function"
    },
    {
      "stateMutability": "payable",
      "type": "receive"
    }
  ],
  "bytecode": "0x6101206040523480156200001257600080fd5b506040516200638838038062006388833981016040819052620000359162000339565b6200004033620002cc565b600180556202a3006002556000600581905560049081556001600160a01b0380841661010052851660a08190526040805163313ce56760e01b81529051919263313ce567928282019260209290829003018186803b158015620000a257600080fd5b505afa158015620000b7573d6000803e3d6000fd5b505050506040513d601f19601f82011682018060405250810190620000dd91906200038b565b620000ea90600a620004cc565b60e0526001600160a01b03831660808190526007805464ffffff000019166414324200001790556040805163313ce56760e01b815290516008929163313ce567916004808301926020929190829003018186803b1580156200014b57600080fd5b505afa15801562000160573d6000803e3d6000fd5b505050506040513d601f19601f820116820180604052508101906200018691906200038b565b620001929190620004dd565b6200019f90600a620004cc565b60c08181525050836001600160a01b031663313ce5676040518163ffffffff1660e01b815260040160206040518083038186803b158015620001e057600080fd5b505afa158015620001f5573d6000803e3d6000fd5b505050506040513d601f19601f820116820180604052508101906200021b91906200038b565b6200022890600a620004cc565b600a556000600881905560098190556001600160a01b039384168152600660209081526040808320805460ff199081166001908117909255979096168352822080548716861790559080527f54cdd369e4e8a8515e52ca72ec816c2101831ad1f18bf44102ed171459c9b4f8805490951690931790935550600b90527fdf7de25b7f1fd6d0b5205f0e18f1f35bd7b8d84cce336588d184533ce43a6f765562000503565b600080546001600160a01b038381166001600160a01b0319831681178455604051919092169283917f8be0079c531659141344cd1fd0a4f28419497f9722a3daafe3b4186f6b6457e09190a35050565b80516001600160a01b03811681146200033457600080fd5b919050565b600080600080608085870312156200035057600080fd5b6200035b856200031c565b93506200036b602086016200031c565b92506200037b604086016200031c565b6060959095015193969295505050565b6000602082840312156200039e57600080fd5b815160ff81168114620003b057600080fd5b9392505050565b634e487b7160e01b600052601160045260246000fd5b600181815b808511156200040e578160001904821115620003f257620003f2620003b7565b808516156200040057918102915b93841c9390800290620003d2565b509250929050565b6000826200042757506001620004c6565b816200043657506000620004c6565b81600181146200044f57600281146200045a576200047a565b6001915050620004c6565b60ff8411156200046e576200046e620003b7565b50506001821b620004c6565b5060208310610133831016604e8410600b84101617156200049f575081810a620004c6565b620004ab8383620003cd565b8060001904821115620004c257620004c2620003b7565b0290505b92915050565b6000620003b060ff84168362000416565b600060ff821660ff841680821015620004fa57620004fa620003b7565b90039392505050565b60805160a05160c05160e05161010051615cd4620006b46000396000818161027a015281816108980152818161234f015281816123ab015281816124180152818161245f0152818161253d0152818161302c015281816130a601526130ef0152600081816113d10152818161374a01528181613cec015261455d015260006138810152600081816105ee01528181610a5b01528181610a960152818161131d015281816126f00152818161272b01528181613286015281816133190152818161363601528181613f7001526145d101526000818161034e01528181610a0701528181610a3901528181610bae01528181610c2f01528181611060015281816110a501528181611252015281816112f1015281816114490152818161149401528181611ac00152818161228c015281816122c80152818161269c015281816126ce01528181612894015281816128c30152818161291301528181612b4301528181612b8201528181612e290152818161384301528181613dd001528181613e6701528181613f170152818161407b015281816140c80152818161438101528181614a970152614adc0152615cd46000f3fe60806040526004361061026a5760003560e01c80636d019f3511610144578063c810a539116100b6578063e9e9bf6a1161007a578063e9e9bf6a1461083c578063ec48272914610851578063f242862114610886578063f2fde38b146108ba578063f7824bc7146108da578063f7888aec146108f0576102a9565b8063c810a539146107a3578063c929e2a2146107c3578063ca0707e7146107e3578063da284dcc146107f6578063e6ca20841461080c576102a9565b80638da5cb5b116101085780638da5cb5b146106dd57806392542d6d146106fb5780639b19251a14610711578063ad289e7614610741578063b345a35814610761578063b6268e5d14610781576102a9565b80636d019f3514610652578063715018a6146106685780637c747cf91461067d5780638006cc3e1461069d5780638535490f146106bd576102a9565b80632eff0d9e116101dd5780634db75485116101a15780634db7548514610564578063508493bc14610584578063511834c3146105bc5780635fcbd285146105dc57806363f289d9146106105780636b51e91914610630576102a9565b80632eff0d9e146104d85780633b6fa127146104ee578063424192551461050e57806345137e271461052f578063459b9e6b14610544576102a9565b8063130b7a631161022f578063130b7a63146103a75780631ab7e937146103c757806320199e991461045257806321959d3c146104745780632586c562146104945780632d55282d146104b4576102a9565b806289356f146102bb5780630b68134d146102ec5780630d63aca71461030c5780630f9094861461033c57806312d1441e14610388576102a9565b366102a957336001600160a01b037f000000000000000000000000000000000000000000000000000000000000000016146102a7576102a7614dd2565b005b3480156102b557600080fd5b50600080fd5b3480156102c757600080fd5b506007546102d59060ff1681565b60405160ff90911681526020015b60405180910390f35b3480156102f857600080fd5b506007546102d59062010000900460ff1681565b34801561031857600080fd5b5061032c610327366004614ee1565b610936565b60405190151581526020016102e3565b34801561034857600080fd5b506103707f000000000000000000000000000000000000000000000000000000000000000081565b6040516001600160a01b0390911681526020016102e3565b34801561039457600080fd5b506007546102d590610100900460ff1681565b3480156103b357600080fd5b506102a76103c2366004614fb7565b610ae2565b3480156103d357600080fd5b5061041c6103e236600461503c565b600360208190526000918252604090912080546001820154600283015493830154600490930154919390926001600160a01b039091169185565b6040805195865260208601949094526001600160a01b03909216928401929092526060830191909152608082015260a0016102e3565b34801561045e57600080fd5b50610467610e8c565b6040516102e39190615055565b34801561048057600080fd5b506102a761048f36600461503c565b610fed565b3480156104a057600080fd5b5061032c6104af3660046150cc565b611134565b3480156104c057600080fd5b506104ca60085481565b6040519081526020016102e3565b3480156104e457600080fd5b506104ca60045481565b3480156104fa57600080fd5b506104ca610509366004615107565b611235565b34801561051a57600080fd5b506007546102d5906301000000900460ff1681565b34801561053b57600080fd5b506104ca6112e5565b34801561055057600080fd5b506102a761055f36600461514c565b611417565b34801561057057600080fd5b506102a761057f366004615107565b61182c565b34801561059057600080fd5b506104ca61059f366004615192565b601060209081526000928352604080842090915290825290205481565b3480156105c857600080fd5b506102a76105d73660046151cb565b61198b565b3480156105e857600080fd5b506103707f000000000000000000000000000000000000000000000000000000000000000081565b34801561061c57600080fd5b5061032c61062b3660046151ff565b611c25565b34801561063c57600080fd5b50610645611cc5565b6040516102e39190615247565b34801561065e57600080fd5b506104ca600a5481565b34801561067457600080fd5b506102a7611e50565b34801561068957600080fd5b5061032c61069836600461529c565b611e86565b3480156106a957600080fd5b5061032c6106b83660046150cc565b612208565b3480156106c957600080fd5b506102a76106d836600461503c565b61231d565b3480156106e957600080fd5b506000546001600160a01b0316610370565b34801561070757600080fd5b506104ca60055481565b34801561071d57600080fd5b5061032c61072c3660046153bd565b60066020526000908152604090205460ff1681565b34801561074d57600080fd5b5061032c61075c3660046153da565b6125d4565b34801561076d57600080fd5b5061032c61077c366004615463565b6127c8565b34801561078d57600080fd5b506007546102d590640100000000900460ff1681565b3480156107af57600080fd5b5061032c6107be3660046154c5565b612972565b3480156107cf57600080fd5b506102a76107de3660046154e7565b612a77565b6102a76107f1366004615107565b612dd0565b34801561080257600080fd5b506104ca60025481565b34801561081857600080fd5b5061032c61082736600461503c565b6000908152600c602052604090205460ff1690565b34801561084857600080fd5b5061032c613186565b34801561085d57600080fd5b5061087161086c366004615192565b613478565b604080519283526020830191909152016102e3565b34801561089257600080fd5b506103707f000000000000000000000000000000000000000000000000000000000000000081565b3480156108c657600080fd5b506102a76108d53660046153bd565b6134a2565b3480156108e657600080fd5b506104ca60095481565b3480156108fc57600080fd5b506104ca61090b366004615192565b6001600160a01b03918216600090815260106020908152604080832093909416825291909152205490565b600080546001600160a01b0316331461096a5760405162461bcd60e51b815260040161096190615575565b60405180910390fd5b6001600160a01b03871660009081526006602052604090205460ff166109d25760405162461bcd60e51b815260206004820152601d60248201527f5f64657374546f6b656e206973206e6f742077686974656c69737465640000006044820152606401610961565b6001600160a01b0387166109f85760405162461bcd60e51b8152600401610961906155aa565b60008415610a3157610a2c60007f00000000000000000000000000000000000000000000000000000000000000008761353d565b610a59565b84610a5957507f00000000000000000000000000000000000000000000000000000000000000005b7f00000000000000000000000000000000000000000000000000000000000000006001600160a01b0316886001600160a01b03161415610ab657507f00000000000000000000000000000000000000000000000000000000000000005b610ac0818561362b565b610ac9836137d9565b610ad4888888613841565b506001979650505050505050565b60026001541415610b055760405162461bcd60e51b8152600401610961906155ed565b6002600155600082828281610b1c57610b1c615624565b9050602002016020810190610b3191906153bd565b905060008383610b42600182615650565b818110610b5157610b51615624565b9050602002016020810190610b6691906153bd565b6001600160a01b0383166000908152601060209081526040808320338452909152902054909150861115610bac5760405162461bcd60e51b815260040161096190615667565b7f00000000000000000000000000000000000000000000000000000000000000006001600160a01b0316826001600160a01b031614610c2d5760405162461bcd60e51b815260206004820152601860248201527f4d75737420737761702066726f6d2042544320746f6b656e00000000000000006044820152606401610961565b7f00000000000000000000000000000000000000000000000000000000000000006001600160a01b0316816001600160a01b03161415610c6c57600080fd5b6040516370a0823160e01b81523060048201526000906001600160a01b038316906370a082319060240160206040518083038186803b158015610cae57600080fd5b505afa158015610cc2573d6000803e3d6000fd5b505050506040513d601f19601f82011682018060405250810190610ce6919061569e565b6001600160a01b0384166000908152601060209081526040808320338452909152902054909150610d179088613938565b6001600160a01b03841660009081526010602090815260408083203384529091529020558915610d5457610d4f89898989898961394b565b610d60565b610d6087878787613ace565b6040516370a0823160e01b8152306004820152600090610de79083906001600160a01b038616906370a08231906024015b60206040518083038186803b158015610da957600080fd5b505afa158015610dbd573d6000803e3d6000fd5b505050506040513d601f19601f82011682018060405250810190610de1919061569e565b90613938565b905086811015610e095760405162461bcd60e51b8152600401610961906156b7565b80610e265760405162461bcd60e51b8152600401610961906156ee565b6001600160a01b0383166000908152601060209081526040808320338452909152902054610e549082613c4b565b6001600160a01b0390931660009081526010602090815260408083203384529091529020929092555050600180555050505050505050565b60606000610ea760055460045461393890919063ffffffff16565b6001600160401b03811115610ebe57610ebe614e0d565b604051908082528060200260200182016040528015610f1757816020015b6040805160a081018252600080825260208083018290529282018190526060820181905260808201528252600019909201910181610edc5790505b5091506000610f326001600554613c4b90919063ffffffff16565b90505b6004548111610fe85760036000610f5760055485613c4b90919063ffffffff16565b81526020808201929092526040908101600020815160a0810183528154815260018201549381019390935260028101546001600160a01b031691830191909152600381015460608301526004015460808201528351849084908110610fbe57610fbe615624565b6020908102919091010152610fd4826001613c4b565b915080610fe081615725565b915050610f35565b505090565b600554600090610ffd9083613c4b565b9050600454811061100d57506004545b60055442905b82811161112e57600254600082815260036020526040902060040154839161103b9190613c4b565b101561111c576000818152600360208181526040808420909201546001600160a01b037f00000000000000000000000000000000000000000000000000000000000000001684526010825282842030855290915291205461109b91613938565b6001600160a01b037f0000000000000000000000000000000000000000000000000000000000000000166000908152601060209081526040808320308452825280832093909355838252600390819052918120818155600181018290556002810180546001600160a01b031916905591820181905560049091015560058190555b8061112681615725565b915050611013565b50505050565b600080546001600160a01b0316331461115f5760405162461bcd60e51b815260040161096190615575565b60006111696112e5565b6001600160a01b03871660009081526006602052604090205490915060ff166111c85760405162461bcd60e51b815260206004820152601160248201527017dd1bdad95b881a5cc81a5b9d985b1a59607a1b6044820152606401610961565b6111d486868686613c57565b6111dd57600080fd5b60019150806111ea6112e5565b101561122c5760405162461bcd60e51b8152602060048201526011602482015270496e76616c6964204c505420707269636560781b6044820152606401610961565b50949350505050565b600080611242848461406f565b90508060ff16600114156112a8577f00000000000000000000000000000000000000000000000000000000000000006001600160a01b0316846001600160a01b03161461129057600061129e565b6007546301000000900460ff165b60ff1691506112de565b8060ff16600214156112de576001600160a01b038416156112ca5760006112d8565b6007546301000000900460ff165b60ff1691505b5092915050565b600080600061131560007f0000000000000000000000000000000000000000000000000000000000000000613478565b9150915060007f00000000000000000000000000000000000000000000000000000000000000006001600160a01b03166318160ddd6040518163ffffffff1660e01b815260040160206040518083038186803b15801561137457600080fd5b505afa158015611388573d6000803e3d6000fd5b505050506040513d601f19601f820116820180604052508101906113ac919061569e565b9050801561140b576114066113cc60085483613c4b90919063ffffffff16565b6114007f00000000000000000000000000000000000000000000000000000000000000006113fa8787613c4b565b9061415e565b9061416a565b61140f565b600a545b935050505090565b6002600154141561143a5760405162461bcd60e51b8152600401610961906155ed565b60026001556001600160a01b037f00000000000000000000000000000000000000000000000000000000000000001661147660208301836153bd565b6001600160a01b0316141561148a57600080fd5b6001600160a01b037f0000000000000000000000000000000000000000000000000000000000000000166114c460408301602084016153bd565b6001600160a01b0316146115135760405162461bcd60e51b815260206004820152601660248201527526bab9ba1039bbb0b8103a3790212a21903a37b5b2b760511b6044820152606401610961565b30611526610140830161012084016153bd565b6001600160a01b0316146115a25760405162461bcd60e51b815260206004820152603c60248201527f596f752063616e206f6e6c79206578656375746520666c6f772032207377617060448201527f7320746f207468697320636f6e747261637427732061646472657373000000006064820152608401610961565b6040810135601060006115b860208501856153bd565b6001600160a01b031681526020808201929092526040908101600090812033825290925290205410156115fd5760405162461bcd60e51b815260040161096190615667565b600061160f60408301602084016153bd565b6040516370a0823160e01b81523060048201526001600160a01b0391909116906370a082319060240160206040518083038186803b15801561165057600080fd5b505afa158015611664573d6000803e3d6000fd5b505050506040513d601f19601f82011682018060405250810190611688919061569e565b90506116d06040830135601060006116a360208701876153bd565b6001600160a01b031681526020808201929092526040908101600090812033825290925290205490613938565b601060006116e160208601866153bd565b6001600160a01b031681526020808201929092526040908101600090812033825290925290205561171182614176565b60006117558261172760408601602087016153bd565b6040516370a0823160e01b81523060048201526001600160a01b0391909116906370a0823190602401610d91565b9050826080013581101561177b5760405162461bcd60e51b8152600401610961906156b7565b806117985760405162461bcd60e51b8152600401610961906156ee565b6117dd81601060006117b060408801602089016153bd565b6001600160a01b031681526020808201929092526040908101600090812030825290925290205490613c4b565b601060006117f160408701602088016153bd565b6001600160a01b0316815260208082019290925260409081016000908120308252909252902055611822848261436b565b5050600180555050565b6002600154141561184f5760405162461bcd60e51b8152600401610961906155ed565b60026001556001600160a01b03821660009081526010602090815260408083203384529091529020548111156118be5760405162461bcd60e51b8152602060048201526014602482015273496e73756666696369656e742042616c616e636560601b6044820152606401610961565b6001600160a01b03821660009081526010602090815260408083203384529091529020546118ec9082613938565b6001600160a01b03831660009081526010602090815260408083203380855292529091209190915561192090839083613841565b6001600160a01b0382166000908152601060209081526040808320338085529252918290205491517febff2602b3f468259e1e99f613fed6691f3a6526effe6ef3e768ba7ae7a36c4f9261197b928692909186914290615740565b60405180910390a1505060018055565b600260015414156119ae5760405162461bcd60e51b8152600401610961906155ed565b6002600155336119c6610140830161012084016153bd565b6001600160a01b031614611a335760405162461bcd60e51b815260206004820152602e60248201527f596f752063616e206f6e6c79206578656375746520737761707320746f20796f60448201526d7572206f776e206164647265737360901b6064820152608401610961565b604081013560106000611a4960208501856153bd565b6001600160a01b031681526020810191909152604001600090812090611a77610140850161012086016153bd565b6001600160a01b03166001600160a01b03168152602001908152602001600020541015611ab65760405162461bcd60e51b815260040161096190615667565b6001600160a01b037f000000000000000000000000000000000000000000000000000000000000000016611aed60208301836153bd565b6001600160a01b031614611b555760405162461bcd60e51b815260206004820152602960248201527f66726f6d546f6b656e206d7573742062652074686520726571756972656420426044820152682a21ba103a37b5b2b760b91b6064820152608401610961565b611b5e81614176565b611bc5604082013560106000611b7760208601866153bd565b6001600160a01b031681526020810191909152604001600090812090611ba5610140860161012087016153bd565b6001600160a01b0316815260208101919091526040016000205490613938565b60106000611bd660208501856153bd565b6001600160a01b031681526020810191909152604001600090812090611c04610140850161012086016153bd565b6001600160a01b031681526020810191909152604001600020555060018055565b600080546001600160a01b03163314611c505760405162461bcd60e51b815260040161096190615575565b6000611c5a6112e5565b6001600160a01b03871660009081526006602052604090205490915060ff16611cb95760405162461bcd60e51b815260206004820152601160248201527017dd1bdad95b881a5cc81a5b9d985b1a59607a1b6044820152606401610961565b6111d4868686866144c3565b606060008060005b600f54811015611d3857600d6000600f8381548110611cee57611cee615624565b60009182526020808320909101546001600160a01b0316835282019290925260400190205415611d2657611d23836001613c4b565b92505b80611d3081615725565b915050611ccd565b506000826001600160401b03811115611d5357611d53614e0d565b604051908082528060200260200182016040528015611d7c578160200160208202803683370190505b50905060005b600f54811015611e4857600d6000600f8381548110611da357611da3615624565b60009182526020808320909101546001600160a01b0316835282019290925260400190205415611e3657600d6000600f8381548110611de457611de4615624565b60009182526020808320909101546001600160a01b031683528201929092526040019020548251839085908110611e1d57611e1d615624565b6020908102919091010152611e33836001613c4b565b92505b80611e4081615725565b915050611d82565b509392505050565b6000546001600160a01b03163314611e7a5760405162461bcd60e51b815260040161096190615575565b611e846000614713565b565b600080546001600160a01b03163314611eb15760405162461bcd60e51b815260040161096190615575565b60075460ff610100909104811690861610801590611ed3575060ff8560ff1611155b611f2f5760405162461bcd60e51b815260206004820152602760248201527f5f7473735468726573686f6c642073686f756c64206265203e3d2074737354686044820152661c995cda1bdb1960ca1b6064820152608401610961565b611f3a600186615771565b60ff168660ff161015611f845760405162461bcd60e51b81526020600482015260126024820152716e2073686f756c64206265203e3d20742b3160701b6044820152606401610961565b60648460ff161115611fd85760405162461bcd60e51b815260206004820152601e60248201527f5f6e6f646552657761726473526174696f206973206e6f742076616c696400006044820152606401610961565b60648360ff16111561202c5760405162461bcd60e51b815260206004820152601c60248201527f5f7769746864726177616c46656542505320697320696e76616c6964000000006044820152606401610961565b86518851146120a35760405162461bcd60e51b815260206004820152603b60248201527f5f72657761726441646472657373416e64416d6f756e747320616e64205f697360448201527f52656d6f766564206c656e677468206973206e6f74206d6174636800000000006064820152608401610961565b81156120b2576120b282614763565b6120bb896134a2565b60005b88518110156121445760006120ef8a83815181106120de576120de615624565b60200260200101519060a082901c90565b50905061212f818b848151811061210857612108615624565b60200260200101518b858151811061212257612122615624565b60200260200101516147a3565b5050808061213c90615725565b9150506120be565b50600061214f611cc5565b90506064815111156121ad5760405162461bcd60e51b815260206004820152602160248201527f53746f726564206e6f64652073697a652073686f756c64206265203c3d2031306044820152600360fc1b6064820152608401610961565b50506007805460ff8481166401000000000264ff000000001987831662010000021664ff00ff0000198984166101000261ffff19909516938b1693909317939093179190911691909117179055600198975050505050505050565b600080546001600160a01b031633146122335760405162461bcd60e51b815260040161096190615575565b6001600160a01b0385161561228a5760405162461bcd60e51b815260206004820152601f60248201527f5f64657374546f6b656e2073686f756c642062652061646472657373283029006044820152606401610961565b7f000000000000000000000000000000000000000000000000000000000000000084156122fe5760006122c185610de18887613938565b90506122f87f000000000000000000000000000000000000000000000000000000000000000060006122f38489613c4b565b61353d565b50612307565b84612307575060005b612311818461362b565b50600195945050505050565b600260015414156123405760405162461bcd60e51b8152600401610961906155ed565b60026001556001600160a01b037f000000000000000000000000000000000000000000000000000000000000000016600090815260106020908152604080832033845290915290205481111561239557600080fd5b604051632e1a7d4d60e01b8152600481018290527f00000000000000000000000000000000000000000000000000000000000000006001600160a01b031690632e1a7d4d90602401600060405180830381600087803b1580156123f757600080fd5b505af115801561240b573d6000803e3d6000fd5b5050506001600160a01b037f000000000000000000000000000000000000000000000000000000000000000016600090815260106020908152604080832033845290915290205461245d915082613938565b7f00000000000000000000000000000000000000000000000000000000000000006001600160a01b031660009081526010602090815260408083203380855292528083209390935591518190839085908381818185875af1925050503d80600081146124e5576040519150601f19603f3d011682016040523d82523d6000602084013e6124ea565b606091505b5091509150816125335760405162461bcd60e51b81526020600482015260146024820152732330b4b632b2103a379039b2b7321022ba3432b960611b6044820152606401610961565b6001600160a01b037f0000000000000000000000000000000000000000000000000000000000000000166000908152601060209081526040808320338085529252918290205491517febff2602b3f468259e1e99f613fed6691f3a6526effe6ef3e768ba7ae7a36c4f926125c29273eeeeeeeeeeeeeeeeeeeeeeeeeeeeeeeeeeeeeeee92909189914290615740565b60405180910390a15050600180555050565b600080546001600160a01b031633146125ff5760405162461bcd60e51b815260040161096190615575565b6001600160a01b03861660009081526006602052604090205460ff166126675760405162461bcd60e51b815260206004820152601d60248201527f5f64657374546f6b656e206973206e6f742077686974656c69737465640000006044820152606401610961565b6001600160a01b03861661268d5760405162461bcd60e51b8152600401610961906155aa565b600084156126c6576126c160007f00000000000000000000000000000000000000000000000000000000000000008761353d565b6126ee565b846126ee57507f00000000000000000000000000000000000000000000000000000000000000005b7f00000000000000000000000000000000000000000000000000000000000000006001600160a01b0316876001600160a01b0316141561274b57507f00000000000000000000000000000000000000000000000000000000000000005b612755818561362b565b61275e836137d9565b60005b8651811015610ad4576127b68888838151811061278057612780615624565b602002602001015160001c89848151811061279d5761279d615624565b602002602001015160a01c6001600160601b0316613841565b806127c081615725565b915050612761565b600080546001600160a01b031633146127f35760405162461bcd60e51b815260040161096190615575565b836128405760405162461bcd60e51b815260206004820152601e60248201527f5f746f74616c53776170706564206d757374206265206e6f6e207a65726f00006044820152606401610961565b8261288d5760405162461bcd60e51b815260206004820152601f60248201527f5f72657761726473416d6f756e74206d757374206265206e6f6e207a65726f006044820152606401610961565b6128b960007f00000000000000000000000000000000000000000000000000000000000000008661353d565b6001600160a01b037f000000000000000000000000000000000000000000000000000000000000000081166000908152601060209081526040808320938916835292905220546129099085613c4b565b6001600160a01b037f000000000000000000000000000000000000000000000000000000000000000081166000908152601060209081526040808320938a1683529290529081209190915561295e908461362b565b612967826137d9565b506001949350505050565b600080546001600160a01b0316331461299d5760405162461bcd60e51b815260040161096190615575565b6000828152600c602052604090205460ff16156129cc5760405162461bcd60e51b815260040161096190615796565b60408051808201909152601d81527f42544320666c6f617420616d6f756e7420696e73756666696369656e7400000060208083019190915260008052600b90527fdf7de25b7f1fd6d0b5205f0e18f1f35bd7b8d84cce336588d184533ce43a6f7654612a39918590614872565b60008052600b6020527fdf7de25b7f1fd6d0b5205f0e18f1f35bd7b8d84cce336588d184533ce43a6f7655612a6d8261489e565b5060015b92915050565b60026001541415612a9a5760405162461bcd60e51b8152600401610961906155ed565b6002600155600082828281612ab157612ab1615624565b9050602002016020810190612ac691906153bd565b905060008383612ad7600182615650565b818110612ae657612ae6615624565b9050602002016020810190612afb91906153bd565b6001600160a01b0383166000908152601060209081526040808320338452909152902054909150861115612b415760405162461bcd60e51b815260040161096190615667565b7f00000000000000000000000000000000000000000000000000000000000000006001600160a01b0316826001600160a01b03161415612b8057600080fd5b7f00000000000000000000000000000000000000000000000000000000000000006001600160a01b0316816001600160a01b031614612bfa5760405162461bcd60e51b815260206004820152601660248201527526bab9ba1039bbb0b8103a3790212a21903a37b5b2b760511b6044820152606401610961565b6040516370a0823160e01b81523060048201526000906001600160a01b038316906370a082319060240160206040518083038186803b158015612c3c57600080fd5b505afa158015612c50573d6000803e3d6000fd5b505050506040513d601f19601f82011682018060405250810190612c74919061569e565b6001600160a01b0384166000908152601060209081526040808320338452909152902054909150612ca59088613938565b6001600160a01b03841660009081526010602090815260408083203384529091529020558915612ce257612cdd89898989898961394b565b612cee565b612cee87878787613ace565b6040516370a0823160e01b8152306004820152600090612d239083906001600160a01b038616906370a0823190602401610d91565b905086811015612d455760405162461bcd60e51b8152600401610961906156b7565b80612d625760405162461bcd60e51b8152600401610961906156ee565b6001600160a01b0383166000908152601060209081526040808320308452909152902054612d909082613c4b565b6001600160a01b0384166000908152601060209081526040808320308452909152902055612dbe8c8261436b565b50506001805550505050505050505050565b60026001541415612df35760405162461bcd60e51b8152600401610961906155ed565b60026001553461301d576001600160a01b03821673eeeeeeeeeeeeeeeeeeeeeeeeeeeeeeeeeeeeeeee1415612e2757600080fd5b7f00000000000000000000000000000000000000000000000000000000000000006001600160a01b0316826001600160a01b03161415612e6657600080fd5b6040516370a0823160e01b81523060048201526000906001600160a01b038416906370a082319060240160206040518083038186803b158015612ea857600080fd5b505afa158015612ebc573d6000803e3d6000fd5b505050506040513d601f19601f82011682018060405250810190612ee0919061569e565b9050612ef76001600160a01b0384163330856148b9565b6040516370a0823160e01b81523060048201526000906001600160a01b038516906370a082319060240160206040518083038186803b158015612f3957600080fd5b505afa158015612f4d573d6000803e3d6000fd5b505050506040513d601f19601f82011682018060405250810190612f71919061569e565b90506000612f7f8284613938565b6001600160a01b0386166000908152601060209081526040808320338452909152902054909150612fb09082613c4b565b6001600160a01b03861660009081526010602090815260408083203380855292529182902083905590517f4e2ca0515ed1aef1395f66b5303bb5d6f1bf9d61a353fa53f73f8ac9973fa9f69261300d928992909186914290615740565b60405180910390a150505061317e565b6000341161302a57600080fd5b7f00000000000000000000000000000000000000000000000000000000000000006001600160a01b031663d0e30db0346040518263ffffffff1660e01b81526004016000604051808303818588803b15801561308557600080fd5b505af1158015613099573d6000803e3d6000fd5b5050506001600160a01b037f00000000000000000000000000000000000000000000000000000000000000001660009081526010602090815260408083203384529091529020546130ed9250905034613c4b565b7f00000000000000000000000000000000000000000000000000000000000000006001600160a01b031660009081526010602090815260408083203380855292529182902083905590517f4e2ca0515ed1aef1395f66b5303bb5d6f1bf9d61a353fa53f73f8ac9973fa9f69261197b9273eeeeeeeeeeeeeeeeeeeeeeeeeeeeeeeeeeeeeeee92909134914290615740565b505060018055565b6000806131a0600954600854613c4b90919063ffffffff16565b9050600081116132005760405162461bcd60e51b815260206004820152602560248201527f746f74616c5265776172644c5073466f724e6f6465206973206e6f7420706f73604482015264697469766560d81b6064820152608401610961565b600061320a611cc5565b90506000805b82518110156132655761325183828151811061322e5761322e615624565b602002602001015160a01c6001600160601b031683613c4b90919063ffffffff16565b91508061325d81615725565b915050613210565b506008546040516340c10f1960e01b815230600482015260248101919091527f00000000000000000000000000000000000000000000000000000000000000006001600160a01b0316906340c10f1990604401602060405180830381600087803b1580156132d257600080fd5b505af11580156132e6573d6000803e3d6000fd5b505050506040513d601f19601f8201168201806040525081019061330a91906157cd565b5060005b8251811015613430577f00000000000000000000000000000000000000000000000000000000000000006001600160a01b031663a9059cbb84838151811061335857613358615624565b602002602001015160001c61339f8561140088878151811061337c5761337c615624565b602002602001015160a01c6001600160601b03168a61415e90919063ffffffff16565b6040516001600160e01b031960e085901b1681526001600160a01b0390921660048301526024820152604401602060405180830381600087803b1580156133e557600080fd5b505af11580156133f9573d6000803e3d6000fd5b505050506040513d601f19601f8201168201806040525081019061341d91906157cd565b508061342881615725565b91505061330e565b506040518381527f86dd6ae252e62228b47b3c1a12762cbf634952b2d29319b04f4f72fb153bcbdd9060200160405180910390a1505060006008819055600955506001919050565b6001600160a01b039182166000908152600b60205260408082205492909316815291909120549091565b6000546001600160a01b031633146134cc5760405162461bcd60e51b815260040161096190615575565b6001600160a01b0381166135315760405162461bcd60e51b815260206004820152602660248201527f4f776e61626c653a206e6577206f776e657220697320746865207a65726f206160448201526564647265737360d01b6064820152608401610961565b61353a81614713565b50565b60408051808201825260208082527f5f737761703a20666c6f617420616d6f756e7420696e73756666696369656e74818301526001600160a01b0385166000908152600b9091529190912054613594918390614872565b6001600160a01b038084166000908152600b602052604080822093909355908516815220546135c39082613c4b565b6001600160a01b038481166000818152600b60209081526040918290209490945580519182529185169281019290925281018290527fea368a40e9570069bb8e6511d668293ad2e1f03b0d982431fd223de9f3b70ca6906060015b60405180910390a1505050565b80613634575050565b7f00000000000000000000000000000000000000000000000000000000000000006001600160a01b0316826001600160a01b031614156136d25760095461367b9082613c4b565b600955604080516001600160a01b0384168152602081018390526000818301819052606082015290517fe3debe835f6848edc082b32a1d729781d3bfcd7e14422d80bcaa6794d3816b2f9181900360800190a15050565b60006136dc6112e5565b6001600160a01b0384166000908152600b60205260409020549091506137029083613c4b565b6001600160a01b0384166000908152600b602052604081209190915560075461373c9060649061140090869062010000900460ff1661415e565b9050600061376e83611400847f000000000000000000000000000000000000000000000000000000000000000061415e565b60085490915061377e9082613c4b565b600855604080516001600160a01b038716815260208101869052908101829052606081018490527fe3debe835f6848edc082b32a1d729781d3bfcd7e14422d80bcaa6794d3816b2f9060800160405180910390a15050505050565b60005b815181101561383d576001600c60008484815181106137fd576137fd615624565b6020026020010151815260200190815260200160002060006101000a81548160ff021916908315150217905550808061383590615725565b9150506137dc565b5050565b7f00000000000000000000000000000000000000000000000000000000000000006001600160a01b0316836001600160a01b031614156138a8576138a5817f000000000000000000000000000000000000000000000000000000000000000061415e565b90505b60405163a9059cbb60e01b81526001600160a01b0383811660048301526024820183905284169063a9059cbb90604401602060405180830381600087803b1580156138f257600080fd5b505af1158015613906573d6000803e3d6000fd5b505050506040513d601f19601f8201168201806040525081019061392a91906157cd565b61393357600080fd5b505050565b60006139448284615650565b9392505050565b60008282600081811061396057613960615624565b905060200201602081019061397591906153bd565b90506001600160a01b03811673eeeeeeeeeeeeeeeeeeeeeeeeeeeeeeeeeeeeeeee14156139b45760405162461bcd60e51b8152600401610961906157ea565b600073def171fe48cf0115b1d80b88dc8eab59176fee576001600160a01b031663d2c4b5986040518163ffffffff1660e01b815260040160206040518083038186803b158015613a0357600080fd5b505afa158015613a17573d6000803e3d6000fd5b505050506040513d601f19601f82011682018060405250810190613a3b9190615819565b9050613a516001600160a01b0383168288614924565b604051633d59840d60e21b815273def171fe48cf0115b1d80b88dc8eab59176fee579063f566103490613a92908b908b908b908b908b908b9060040161587f565b600060405180830381600087803b158015613aac57600080fd5b505af1158015613ac0573d6000803e3d6000fd5b505050505050505050505050565b600082826000818110613ae357613ae3615624565b9050602002016020810190613af891906153bd565b90506001600160a01b03811673eeeeeeeeeeeeeeeeeeeeeeeeeeeeeeeeeeeeeeee1415613b375760405162461bcd60e51b8152600401610961906157ea565b600073def171fe48cf0115b1d80b88dc8eab59176fee576001600160a01b031663d2c4b5986040518163ffffffff1660e01b815260040160206040518083038186803b158015613b8657600080fd5b505afa158015613b9a573d6000803e3d6000fd5b505050506040513d601f19601f82011682018060405250810190613bbe9190615819565b9050613bd46001600160a01b0383168288614924565b604051632a42068d60e11b815273def171fe48cf0115b1d80b88dc8eab59176fee57906354840d1a90613c119089908990899089906004016158bf565b600060405180830381600087803b158015613c2b57600080fd5b505af1158015613c3f573d6000803e3d6000fd5b50505050505050505050565b600061394482846158e9565b6000818152600c602052604081205460ff1615613c865760405162461bcd60e51b815260040161096190615796565b83613cd35760405162461bcd60e51b815260206004820152601c60248201527f546865207472616e73616374696f6e206973206e6f742076616c6964000000006044820152606401610961565b8360a081901c6000613ce36112e5565b90506000613d157f0000000000000000000000000000000000000000000000000000000000000000611400858561415e565b600754909150600090613d3c9061271090611400908590640100000000900460ff1661415e565b905087613d498383613938565b1015613db45760405162461bcd60e51b815260206004820152603460248201527f4572726f723a20616d6f756e744f66466c6f61742e737562287769746864726160448201527377616c4665657329203c205f6d696e657246656560601b6064820152608401610961565b6000613dc489610de18585613938565b9050600080613df460007f0000000000000000000000000000000000000000000000000000000000000000613478565b90925090506001600160a01b038d16613e6557613e118585613938565b821015613e605760405162461bcd60e51b815260206004820152601f60248201527f54686520666c6f61742062616c616e636520696e73756666696369656e742e006044820152606401610961565b613ef8565b7f00000000000000000000000000000000000000000000000000000000000000006001600160a01b03168d6001600160a01b03161415613ef857613ea98585613938565b811015613ef85760405162461bcd60e51b815260206004820152601f60248201527f54686520666c6f61742062616c616e636520696e73756666696369656e742e006044820152606401610961565b613f028d8561362b565b613f0c8d866149e5565b613f158a61489e565b7f00000000000000000000000000000000000000000000000000000000000000006001600160a01b03168d6001600160a01b03161415613f5a57613f5a8d8985613841565b604051630852cd8d60e31b8152600481018890527f00000000000000000000000000000000000000000000000000000000000000006001600160a01b0316906342966c6890602401602060405180830381600087803b158015613fbc57600080fd5b505af1158015613fd0573d6000803e3d6000fd5b505050506040513d601f19601f82011682018060405250810190613ff491906157cd565b613ffd57600080fd5b604080516001600160a01b038a16815260208101899052908101869052606081018790526080810184905260a081018b90527fa9da34e5e4a956b744307ae7611795634e8365951073bf049d76b64b2ae7a0589060c00160405180910390a15060019c9b505050505050505050505050565b600080600061409f60007f0000000000000000000000000000000000000000000000000000000000000000613478565b909250905060006140c4600361140060026113fa896140be8989613c4b565b90613c4b565b90507f00000000000000000000000000000000000000000000000000000000000000006001600160a01b0316866001600160a01b031614801561411057508061410d8387613c4b565b10155b156141215760019350505050612a71565b6001600160a01b03861615801561414157508061413e8487613c4b565b10155b156141525760029350505050612a71565b50600095945050505050565b60006139448284615901565b60006139448284615920565b73eeeeeeeeeeeeeeeeeeeeeeeeeeeeeeeeeeeeeeee61419860208301836153bd565b6001600160a01b031614156141bf5760405162461bcd60e51b8152600401610961906157ea565b73eeeeeeeeeeeeeeeeeeeeeeeeeeeeeeeeeeeeeeee6141e460408301602084016153bd565b6001600160a01b031614156142335760405162461bcd60e51b81526020600482015260156024820152740aae6ca40e0c2e8d040ee84a886405a7c40ee8aa89605b1b6044820152606401610961565b600073def171fe48cf0115b1d80b88dc8eab59176fee576001600160a01b031663d2c4b5986040518163ffffffff1660e01b815260040160206040518083038186803b15801561428257600080fd5b505afa158015614296573d6000803e3d6000fd5b505050506040513d601f19601f820116820180604052508101906142ba9190615819565b90506142e28160408401356142d260208601866153bd565b6001600160a01b03169190614924565b6040516354e3f31b60e01b815273def171fe48cf0115b1d80b88dc8eab59176fee57906354e3f31b90614319908590600401615a46565b602060405180830381600087803b15801561433357600080fd5b505af1158015614347573d6000803e3d6000fd5b505050506040513d601f19601f82011682018060405250810190613933919061569e565b6004546040516bffffffffffffffffffffffff197f000000000000000000000000000000000000000000000000000000000000000060601b1660208201526034810191909152605481018390526074810182905242609482015260009060b40160408051808303601f19018152828252805160209182012060a0840183528084528184018781523385850190815260608601888152426080880190815260048054600090815260039788905297909720975188559251600188015590516002870180546001600160a01b0319166001600160a01b039092169190911790555192850192909255905192909101919091559050614465614a42565b600454614473906001613c4b565b60045560408051828152602081018590523391810191909152606081018390524260808201527f058800492a0e9d1ce3d60aa19b5a711354aaf0d831a5fa20197617dc4c0a573e9060a00161361e565b6000818152600c602052604081205460ff16156144f25760405162461bcd60e51b815260040161096190615796565b8361453f5760405162461bcd60e51b815260206004820152601c60248201527f546865207472616e73616374696f6e206973206e6f742076616c6964000000006044820152606401610961565b8360a081901c600061454f6112e5565b9050600061458182611400857f000000000000000000000000000000000000000000000000000000000000000061415e565b9050600061458f8a85611235565b905060008161459f5760006145af565b6145af612710611400858561415e565b90508880156145bd57508015155b156145c757600080fd5b6001600160a01b037f0000000000000000000000000000000000000000000000000000000000000000166340c10f19876146018685613938565b6040516001600160e01b031960e085901b1681526001600160a01b0390921660048301526024820152604401602060405180830381600087803b15801561464757600080fd5b505af115801561465b573d6000803e3d6000fd5b505050506040513d601f19601f8201168201806040525081019061467f91906157cd565b5060085461468d9082613c4b565b60085561469a8b86614b65565b6146a38861489e565b604080516001600160a01b038816815260208101879052908101849052606081018590526080810182905260a081018990527fdfaf4e23f7030adafec91a682e05bf9fb30c721f9cec3d8bcfae0459c5362db19060c00160405180910390a15060019a9950505050505050505050565b600080546001600160a01b038381166001600160a01b0319831681178455604051919092169283917f8be0079c531659141344cd1fd0a4f28419497f9722a3daafe3b4186f6b6457e09190a35050565b6002819055604080518281524260208201527fa1cc12e33e9907b789fd3c10ea0afd9d3e563e2db44d84c7269534f1046d1ca1910160405180910390a150565b600081156147cc57506001600160a01b0383166000908152600d60205260408120556001613944565b6001600160a01b0384166000908152600e602052604090205460ff1661485057600f805460018082019092557f8d1108e10bcb7c27dddfc02ed9d693a074039d026cf4ea4240b40f7d581ac8020180546001600160a01b0319166001600160a01b0387169081179091556000908152600e60205260409020805460ff191690911790555b50506001600160a01b03919091166000908152600d6020526040902055600190565b600081848411156148965760405162461bcd60e51b81526004016109619190615c28565b505050900390565b6000908152600c60205260409020805460ff19166001179055565b6040516001600160a01b038085166024830152831660448201526064810182905261112e9085906323b872dd60e01b906084015b60408051601f198184030181529190526020810180516001600160e01b03166001600160e01b031990931692909217909152614b88565b604051636eb1769f60e11b81523060048201526001600160a01b038381166024830152600091839186169063dd62ed3e9060440160206040518083038186803b15801561497057600080fd5b505afa158015614984573d6000803e3d6000fd5b505050506040513d601f19601f820116820180604052508101906149a8919061569e565b6149b291906158e9565b6040516001600160a01b03851660248201526044810182905290915061112e90859063095ea7b360e01b906064016148ed565b614a2281604051806060016040528060278152602001615c78602791396001600160a01b0385166000908152600b60205260409020549190614872565b6001600160a01b039092166000908152600b602052604090209190915550565b60055442905b600454811161383d576002546000828152600360205260409020600401548391614a729190613c4b565b1015614b53576000818152600360208181526040808420909201546001600160a01b037f000000000000000000000000000000000000000000000000000000000000000016845260108252828420308552909152912054614ad291613938565b6001600160a01b037f0000000000000000000000000000000000000000000000000000000000000000166000908152601060209081526040808320308452825280832093909355838252600390819052918120818155600181018290556002810180546001600160a01b031916905591820181905560049091015560058190555b80614b5d81615725565b915050614a48565b6001600160a01b0382166000908152600b6020526040902054614a229082613c4b565b6000614bdd826040518060400160405280602081526020017f5361666545524332303a206c6f772d6c6576656c2063616c6c206661696c6564815250856001600160a01b0316614c5a9092919063ffffffff16565b8051909150156139335780806020019051810190614bfb91906157cd565b6139335760405162461bcd60e51b815260206004820152602a60248201527f5361666545524332303a204552433230206f7065726174696f6e20646964206e6044820152691bdd081cdd58d8d9595960b21b6064820152608401610961565b6060614c698484600085614c71565b949350505050565b606082471015614cd25760405162461bcd60e51b815260206004820152602660248201527f416464726573733a20696e73756666696369656e742062616c616e636520666f6044820152651c8818d85b1b60d21b6064820152608401610961565b843b614d205760405162461bcd60e51b815260206004820152601d60248201527f416464726573733a2063616c6c20746f206e6f6e2d636f6e74726163740000006044820152606401610961565b600080866001600160a01b03168587604051614d3c9190615c5b565b60006040518083038185875af1925050503d8060008114614d79576040519150601f19603f3d011682016040523d82523d6000602084013e614d7e565b606091505b5091509150614d8e828286614d99565b979650505050505050565b60608315614da8575081613944565b825115614db85782518084602001fd5b8160405162461bcd60e51b81526004016109619190615c28565b634e487b7160e01b600052600160045260246000fd5b6001600160a01b038116811461353a57600080fd5b8035614e0881614de8565b919050565b634e487b7160e01b600052604160045260246000fd5b604051601f8201601f191681016001600160401b0381118282101715614e4b57614e4b614e0d565b604052919050565b60006001600160401b03821115614e6c57614e6c614e0d565b5060051b60200190565b600082601f830112614e8757600080fd5b81356020614e9c614e9783614e53565b614e23565b82815260059290921b84018101918181019086841115614ebb57600080fd5b8286015b84811015614ed65780358352918301918301614ebf565b509695505050505050565b60008060008060008060c08789031215614efa57600080fd5b8635614f0581614de8565b95506020870135614f1581614de8565b945060408701359350606087013592506080870135915060a08701356001600160401b03811115614f4557600080fd5b614f5189828a01614e76565b9150509295509295509295565b801515811461353a57600080fd5b60008083601f840112614f7e57600080fd5b5081356001600160401b03811115614f9557600080fd5b6020830191508360208260051b8501011115614fb057600080fd5b9250929050565b600080600080600080600060c0888a031215614fd257600080fd5b8735614fdd81614f5e565b96506020880135614fed81614de8565b955060408801359450606088013593506080880135925060a08801356001600160401b0381111561501d57600080fd5b6150298a828b01614f6c565b989b979a50959850939692959293505050565b60006020828403121561504e57600080fd5b5035919050565b602080825282518282018190526000919060409081850190868401855b828110156150bf578151805185528681015187860152858101516001600160a01b031686860152606080820151908601526080908101519085015260a09093019290850190600101615072565b5091979650505050505050565b600080600080608085870312156150e257600080fd5b84356150ed81614de8565b966020860135965060408601359560600135945092505050565b6000806040838503121561511a57600080fd5b823561512581614de8565b946020939093013593505050565b60006101e0828403121561514657600080fd5b50919050565b6000806040838503121561515f57600080fd5b8235915060208301356001600160401b0381111561517c57600080fd5b61518885828601615133565b9150509250929050565b600080604083850312156151a557600080fd5b82356151b081614de8565b915060208301356151c081614de8565b809150509250929050565b6000602082840312156151dd57600080fd5b81356001600160401b038111156151f357600080fd5b614c6984828501615133565b6000806000806080858703121561521557600080fd5b843561522081614de8565b935060208501359250604085013561523781614f5e565b9396929550929360600135925050565b6020808252825182820181905260009190848201906040850190845b8181101561527f57835183529284019291840191600101615263565b50909695505050505050565b803560ff81168114614e0857600080fd5b600080600080600080600080610100898b0312156152b957600080fd5b88356152c481614de8565b97506020898101356001600160401b03808211156152e157600080fd5b6152ed8d838e01614e76565b995060408c013591508082111561530357600080fd5b508a01601f81018c1361531557600080fd5b8035615323614e9782614e53565b81815260059190911b8201830190838101908e83111561534257600080fd5b928401925b8284101561536957833561535a81614f5e565b82529284019290840190615347565b809a50505050505061537d60608a0161528b565b945061538b60808a0161528b565b935061539960a08a0161528b565b92506153a760c08a0161528b565b915060e089013590509295985092959890939650565b6000602082840312156153cf57600080fd5b813561394481614de8565b600080600080600060a086880312156153f257600080fd5b85356153fd81614de8565b945060208601356001600160401b038082111561541957600080fd5b61542589838a01614e76565b95506040880135945060608801359350608088013591508082111561544957600080fd5b5061545688828901614e76565b9150509295509295909350565b6000806000806080858703121561547957600080fd5b843561548481614de8565b9350602085013592506040850135915060608501356001600160401b038111156154ad57600080fd5b6154b987828801614e76565b91505092959194509250565b600080604083850312156154d857600080fd5b50508035926020909101359150565b60008060008060008060008060e0898b03121561550357600080fd5b88359750602089013561551581614f5e565b9650604089013561552581614de8565b9550606089013594506080890135935060a0890135925060c08901356001600160401b0381111561555557600080fd5b6155618b828c01614f6c565b999c989b5096995094979396929594505050565b6020808252818101527f4f776e61626c653a2063616c6c6572206973206e6f7420746865206f776e6572604082015260600190565b60208082526023908201527f5f64657374546f6b656e2073686f756c64206e6f74206265206164647265737360408201526228302960e81b606082015260800190565b6020808252601f908201527f5265656e7472616e637947756172643a207265656e7472616e742063616c6c00604082015260600190565b634e487b7160e01b600052603260045260246000fd5b634e487b7160e01b600052601160045260246000fd5b6000828210156156625761566261563a565b500390565b60208082526019908201527f42616c616e6365206973206e6f742073756666696369656e7400000000000000604082015260600190565b6000602082840312156156b057600080fd5b5051919050565b6020808252601c908201527f526563656976656420616d6f756e7420696e73756666696369656e7400000000604082015260600190565b6020808252601c908201527f526563656976656420616d6f756e742063616e206e6f74206265203000000000604082015260600190565b60006000198214156157395761573961563a565b5060010190565b6001600160a01b03958616815293909416602084015260408301919091526060820152608081019190915260a00190565b600060ff821660ff84168060ff0382111561578e5761578e61563a565b019392505050565b60208082526018908201527f546865207478696420697320616c726561647920757365640000000000000000604082015260600190565b6000602082840312156157df57600080fd5b815161394481614f5e565b60208082526015908201527455736520706174682077455448202d3e207742544360581b604082015260600190565b60006020828403121561582b57600080fd5b815161394481614de8565b8183526000602080850194508260005b8581101561587457813561585981614de8565b6001600160a01b031687529582019590820190600101615846565b509495945050505050565b60018060a01b038716815285602082015284604082015283606082015260a0608082015260006158b360a083018486615836565b98975050505050505050565b8481528360208201526060604082015260006158df606083018486615836565b9695505050505050565b600082198211156158fc576158fc61563a565b500190565b600081600019048311821515161561591b5761591b61563a565b500290565b60008261593d57634e487b7160e01b600052601260045260246000fd5b500490565b6000808335601e1984360301811261595957600080fd5b83016020810192503590506001600160401b0381111561597857600080fd5b8060051b3603831315614fb057600080fd5b6000808335601e198436030181126159a157600080fd5b83016020810192503590506001600160401b038111156159c057600080fd5b803603831315614fb057600080fd5b81835281816020850137506000828201602090810191909152601f909101601f19169091010190565b81835260006001600160fb1b03831115615a1157600080fd5b8260051b8083602087013760009401602001938452509192915050565b80356001600160801b031981168114614e0857600080fd5b60208152615a6760208201615a5a84614dfd565b6001600160a01b03169052565b6000615a7560208401614dfd565b6001600160a01b0381166040840152506040830135606083015260608301356080830152608083013560a0830152615ab060a0840184615942565b6101e08060c0860152615ac861020086018385615836565b9250615ad760c087018761598a565b9250601f19808786030160e0880152615af18585846159cf565b9450615b0060e0890189615942565b94509150610100818887030181890152615b1b8686856159f8565b9550615b29818a018a615942565b9550925050610120818887030181890152615b458686856159f8565b9550615b52818a01614dfd565b9450506101409150615b6e828801856001600160a01b03169052565b615b79828901614dfd565b93506101609150615b94828801856001600160a01b03169052565b61018093508188013584880152615bad8489018961598a565b945091506101a0818887030181890152615bc88686856159cf565b95506101c094508089013585890152505050615be5828701615a2e565b6001600160801b0319169401939093529392505050565b60005b83811015615c17578181015183820152602001615bff565b8381111561112e5750506000910152565b6020815260008251806020840152615c47816040850160208701615bfc565b601f01601f19169190910160400192915050565b60008251615c6d818460208701615bfc565b919091019291505056fe5f72656d6f7665466c6f61743a20666c6f617420616d6f756e7420696e73756666696369656e74a2646970667358221220e081b1d8e297e0a6817d93dc612a80ed7923fe1fd8b18fdd019fe88e70c3fa8364736f6c63430008090033",
  "linkReferences": {},
  "deployedLinkReferences": {}
}