{
  "_format": "hh-sol-artifact-1",
  "contractName": "SwapContract",
  "sourceName": "contracts/SwapContract.sol",
  "abi": [
    {
      "inputs": [
        {
          "internalType": "address",
          "name": "_lpToken",
          "type": "address"
        },
        {
          "internalType": "address",
          "name": "_btct",
          "type": "address"
        },
        {
          "internalType": "address",
          "name": "_wETH",
          "type": "address"
        },
        {
          "internalType": "address",
          "name": "_sbBTCPool",
          "type": "address"
        },
        {
          "internalType": "address",
          "name": "_params",
          "type": "address"
        },
        {
          "internalType": "address",
          "name": "_swapRewards",
          "type": "address"
        },
        {
          "internalType": "uint256",
          "name": "_existingBTCFloat",
          "type": "uint256"
        }
      ],
      "stateMutability": "nonpayable",
      "type": "constructor"
    },
    {
      "anonymous": false,
      "inputs": [
        {
          "indexed": false,
          "internalType": "address",
          "name": "token",
          "type": "address"
        },
        {
          "indexed": false,
          "internalType": "uint256",
          "name": "amountOfLP",
          "type": "uint256"
        },
        {
          "indexed": false,
          "internalType": "uint256",
          "name": "amountOfFloat",
          "type": "uint256"
        },
        {
          "indexed": false,
          "internalType": "uint256",
          "name": "currentPriceLP",
          "type": "uint256"
        },
        {
          "indexed": false,
          "internalType": "uint256",
          "name": "withdrawal",
          "type": "uint256"
        },
        {
          "indexed": false,
          "internalType": "bytes32",
          "name": "txid",
          "type": "bytes32"
        }
      ],
      "name": "BurnLPTokensForFloat",
      "type": "event"
    },
    {
      "anonymous": false,
      "inputs": [
        {
          "indexed": false,
          "internalType": "address",
          "name": "token",
          "type": "address"
        },
        {
          "indexed": false,
          "internalType": "address",
          "name": "user",
          "type": "address"
        },
        {
          "indexed": false,
          "internalType": "uint256",
          "name": "amount",
          "type": "uint256"
        },
        {
          "indexed": false,
          "internalType": "uint256",
          "name": "balance",
          "type": "uint256"
        },
        {
          "indexed": false,
          "internalType": "uint256",
          "name": "Timestamp",
          "type": "uint256"
        }
      ],
      "name": "Deposit",
      "type": "event"
    },
    {
      "anonymous": false,
      "inputs": [
        {
          "indexed": false,
          "internalType": "uint256",
          "name": "rewardLPTsForNodes",
          "type": "uint256"
        }
      ],
      "name": "DistributeNodeRewards",
      "type": "event"
    },
    {
      "anonymous": false,
      "inputs": [
        {
          "indexed": false,
          "internalType": "address",
          "name": "to",
          "type": "address"
        },
        {
          "indexed": false,
          "internalType": "uint256",
          "name": "amountOfFloat",
          "type": "uint256"
        },
        {
          "indexed": false,
          "internalType": "uint256",
          "name": "amountOfLP",
          "type": "uint256"
        },
        {
          "indexed": false,
          "internalType": "uint256",
          "name": "currentPriceLP",
          "type": "uint256"
        },
        {
          "indexed": false,
          "internalType": "uint256",
          "name": "depositFees",
          "type": "uint256"
        },
        {
          "indexed": false,
          "internalType": "bytes32",
          "name": "txid",
          "type": "bytes32"
        }
      ],
      "name": "IssueLPTokensForFloat",
      "type": "event"
    },
    {
      "anonymous": false,
      "inputs": [
        {
          "indexed": true,
          "internalType": "address",
          "name": "previousOwner",
          "type": "address"
        },
        {
          "indexed": true,
          "internalType": "address",
          "name": "newOwner",
          "type": "address"
        }
      ],
      "name": "OwnershipTransferred",
      "type": "event"
    },
    {
      "anonymous": false,
      "inputs": [
        {
          "indexed": false,
          "internalType": "address",
          "name": "feesToken",
          "type": "address"
        },
        {
          "indexed": false,
          "internalType": "uint256",
          "name": "rewards",
          "type": "uint256"
        },
        {
          "indexed": false,
          "internalType": "uint256",
          "name": "amountLPTokensForNode",
          "type": "uint256"
        },
        {
          "indexed": false,
          "internalType": "uint256",
          "name": "currentPriceLP",
          "type": "uint256"
        }
      ],
      "name": "RewardsCollection",
      "type": "event"
    },
    {
      "anonymous": false,
      "inputs": [
        {
          "indexed": false,
          "internalType": "uint256",
          "name": "ExpirationTime",
          "type": "uint256"
        },
        {
          "indexed": false,
          "internalType": "uint256",
          "name": "Timestamp",
          "type": "uint256"
        }
      ],
      "name": "SetExpirationTime",
      "type": "event"
    },
    {
      "anonymous": false,
      "inputs": [
        {
          "indexed": false,
          "internalType": "address",
          "name": "from",
          "type": "address"
        },
        {
          "indexed": false,
          "internalType": "address",
          "name": "to",
          "type": "address"
        },
        {
          "indexed": false,
          "internalType": "uint256",
          "name": "amount",
          "type": "uint256"
        }
      ],
      "name": "Swap",
      "type": "event"
    },
    {
      "anonymous": false,
      "inputs": [
        {
          "indexed": false,
          "internalType": "bytes32",
          "name": "SwapID",
          "type": "bytes32"
        },
        {
          "indexed": false,
          "internalType": "string",
          "name": "DestAddr",
          "type": "string"
        },
        {
          "indexed": false,
          "internalType": "address",
          "name": "RefundAddr",
          "type": "address"
        },
        {
          "indexed": false,
          "internalType": "uint256",
          "name": "AmountWBTC",
          "type": "uint256"
        },
        {
          "indexed": false,
          "internalType": "uint256",
          "name": "Timestamp",
          "type": "uint256"
        }
      ],
      "name": "SwapTokensToBTC",
      "type": "event"
    },
    {
      "anonymous": false,
      "inputs": [
        {
          "indexed": false,
          "internalType": "address",
          "name": "token",
          "type": "address"
        },
        {
          "indexed": false,
          "internalType": "address",
          "name": "user",
          "type": "address"
        },
        {
          "indexed": false,
          "internalType": "uint256",
          "name": "amount",
          "type": "uint256"
        },
        {
          "indexed": false,
          "internalType": "uint256",
          "name": "balance",
          "type": "uint256"
        },
        {
          "indexed": false,
          "internalType": "uint256",
          "name": "Timestamp",
          "type": "uint256"
        }
      ],
      "name": "Withdraw",
      "type": "event"
    },
    {
      "stateMutability": "nonpayable",
      "type": "fallback"
    },
    {
      "inputs": [],
      "name": "BTCT_ADDR",
      "outputs": [
        {
          "internalType": "address",
          "name": "",
          "type": "address"
        }
      ],
      "stateMutability": "view",
      "type": "function"
    },
    {
      "inputs": [],
      "name": "activeNodeCount",
      "outputs": [
        {
          "internalType": "uint8",
          "name": "",
          "type": "uint8"
        }
      ],
      "stateMutability": "view",
      "type": "function"
    },
    {
      "inputs": [
        {
          "internalType": "address",
          "name": "_token",
          "type": "address"
        },
        {
          "internalType": "address",
          "name": "_user",
          "type": "address"
        }
      ],
      "name": "balanceOf",
      "outputs": [
        {
          "internalType": "uint256",
          "name": "",
          "type": "uint256"
        }
      ],
      "stateMutability": "view",
      "type": "function"
    },
    {
      "inputs": [
        {
          "internalType": "address",
          "name": "_newOwner",
          "type": "address"
        },
        {
          "internalType": "address[]",
          "name": "_nodes",
          "type": "address[]"
        },
        {
          "internalType": "bool[]",
          "name": "_isRemoved",
          "type": "bool[]"
        },
        {
          "internalType": "uint8",
          "name": "_churnedInCount",
          "type": "uint8"
        },
        {
          "internalType": "uint8",
          "name": "_tssThreshold",
          "type": "uint8"
        },
        {
          "internalType": "uint256",
          "name": "_totalStakedAmount",
          "type": "uint256"
        },
        {
          "internalType": "uint256",
          "name": "_minimumSwapAmountForWBTC",
          "type": "uint256"
        },
        {
          "internalType": "uint256",
          "name": "_expirationTime",
          "type": "uint256"
        }
      ],
      "name": "churn",
      "outputs": [
        {
          "internalType": "bool",
          "name": "",
          "type": "bool"
        }
      ],
      "stateMutability": "nonpayable",
      "type": "function"
    },
    {
      "inputs": [],
      "name": "churnedInCount",
      "outputs": [
        {
          "internalType": "uint8",
          "name": "",
          "type": "uint8"
        }
      ],
      "stateMutability": "view",
      "type": "function"
    },
    {
      "inputs": [
        {
          "internalType": "uint256",
          "name": "_incomingAmount",
          "type": "uint256"
        },
        {
          "internalType": "uint256",
          "name": "_minerFee",
          "type": "uint256"
        },
        {
          "internalType": "uint256",
          "name": "_rewardsAmount",
          "type": "uint256"
        },
        {
          "internalType": "address[]",
          "name": "_spenders",
          "type": "address[]"
        },
        {
          "internalType": "uint256[]",
          "name": "_swapAmounts",
          "type": "uint256[]"
        },
        {
          "internalType": "bool",
          "name": "_isUpdatelimitBTCForSPFlow2",
          "type": "bool"
        }
      ],
      "name": "collectSwapFeesForBTC",
      "outputs": [
        {
          "internalType": "bool",
          "name": "",
          "type": "bool"
        }
      ],
      "stateMutability": "nonpayable",
      "type": "function"
    },
    {
      "inputs": [],
      "name": "expirationTime",
      "outputs": [
        {
          "internalType": "uint256",
          "name": "",
          "type": "uint256"
        }
      ],
      "stateMutability": "view",
      "type": "function"
    },
    {
      "inputs": [],
      "name": "getActiveNodes",
      "outputs": [
        {
          "internalType": "address[]",
          "name": "",
          "type": "address[]"
        }
      ],
      "stateMutability": "view",
      "type": "function"
    },
    {
      "inputs": [],
      "name": "getCurrentPriceLP",
      "outputs": [
        {
          "internalType": "uint256",
          "name": "nowPrice",
          "type": "uint256"
        }
      ],
      "stateMutability": "view",
      "type": "function"
    },
    {
      "inputs": [
        {
          "internalType": "address",
          "name": "_tokenA",
          "type": "address"
        },
        {
          "internalType": "address",
          "name": "_tokenB",
          "type": "address"
        }
      ],
      "name": "getFloatReserve",
      "outputs": [
        {
          "internalType": "uint256",
          "name": "reserveA",
          "type": "uint256"
        },
        {
          "internalType": "uint256",
          "name": "reserveB",
          "type": "uint256"
        }
      ],
      "stateMutability": "view",
      "type": "function"
    },
    {
      "inputs": [],
      "name": "initialExchangeRate",
      "outputs": [
        {
          "internalType": "uint256",
          "name": "",
          "type": "uint256"
        }
      ],
      "stateMutability": "view",
      "type": "function"
    },
    {
      "inputs": [
        {
          "internalType": "address",
          "name": "_user",
          "type": "address"
        }
      ],
      "name": "isNodeStake",
      "outputs": [
        {
          "internalType": "bool",
          "name": "",
          "type": "bool"
        }
      ],
      "stateMutability": "view",
      "type": "function"
    },
    {
      "inputs": [
        {
          "internalType": "bytes32",
          "name": "_txid",
          "type": "bytes32"
        }
      ],
      "name": "isTxUsed",
      "outputs": [
        {
          "internalType": "bool",
          "name": "",
          "type": "bool"
        }
      ],
      "stateMutability": "view",
      "type": "function"
    },
    {
      "inputs": [],
      "name": "limitBTCForSPFlow2",
      "outputs": [
        {
          "internalType": "uint256",
          "name": "",
          "type": "uint256"
        }
      ],
      "stateMutability": "view",
      "type": "function"
    },
    {
      "inputs": [],
      "name": "lpToken",
      "outputs": [
        {
          "internalType": "address",
          "name": "",
          "type": "address"
        }
      ],
      "stateMutability": "view",
      "type": "function"
    },
    {
      "inputs": [],
      "name": "minimumSwapAmountForWBTC",
      "outputs": [
        {
          "internalType": "uint256",
          "name": "",
          "type": "uint256"
        }
      ],
      "stateMutability": "view",
      "type": "function"
    },
    {
      "inputs": [
        {
          "internalType": "bytes32[]",
          "name": "_addressesAndAmounts",
          "type": "bytes32[]"
        },
        {
          "internalType": "uint256",
          "name": "_totalSwapped",
          "type": "uint256"
        },
        {
          "internalType": "uint256",
          "name": "_rewardsAmount",
          "type": "uint256"
        },
        {
          "internalType": "bytes32[]",
          "name": "_usedTxIds",
          "type": "bytes32[]"
        }
      ],
      "name": "multiRecordSkyPoolsTX",
      "outputs": [
        {
          "internalType": "bool",
          "name": "",
          "type": "bool"
        }
      ],
      "stateMutability": "nonpayable",
      "type": "function"
    },
    {
      "inputs": [],
      "name": "oldestActiveIndex",
      "outputs": [
        {
          "internalType": "uint256",
          "name": "",
          "type": "uint256"
        }
      ],
      "stateMutability": "view",
      "type": "function"
    },
    {
      "inputs": [],
      "name": "owner",
      "outputs": [
        {
          "internalType": "address",
          "name": "",
          "type": "address"
        }
      ],
      "stateMutability": "view",
      "type": "function"
    },
    {
      "inputs": [],
      "name": "params",
      "outputs": [
        {
          "internalType": "address",
          "name": "",
          "type": "address"
        }
      ],
      "stateMutability": "view",
      "type": "function"
    },
    {
      "inputs": [
        {
          "internalType": "address",
          "name": "_token",
          "type": "address"
        },
        {
          "internalType": "bytes32",
          "name": "_addressesAndAmountOfFloat",
          "type": "bytes32"
        },
        {
          "internalType": "bytes32",
          "name": "_txid",
          "type": "bytes32"
        }
      ],
      "name": "recordIncomingFloat",
      "outputs": [
        {
          "internalType": "bool",
          "name": "",
          "type": "bool"
        }
      ],
      "stateMutability": "nonpayable",
      "type": "function"
    },
    {
      "inputs": [
        {
          "internalType": "address",
          "name": "_token",
          "type": "address"
        },
        {
          "internalType": "bytes32",
          "name": "_addressesAndAmountOfLPtoken",
          "type": "bytes32"
        },
        {
          "internalType": "uint256",
          "name": "_minerFee",
          "type": "uint256"
        },
        {
          "internalType": "bytes32",
          "name": "_txid",
          "type": "bytes32"
        }
      ],
      "name": "recordOutcomingFloat",
      "outputs": [
        {
          "internalType": "bool",
          "name": "",
          "type": "bool"
        }
      ],
      "stateMutability": "nonpayable",
      "type": "function"
    },
    {
      "inputs": [
        {
          "internalType": "address",
          "name": "_to",
          "type": "address"
        },
        {
          "internalType": "uint256",
          "name": "_totalSwapped",
          "type": "uint256"
        },
        {
          "internalType": "uint256",
          "name": "_rewardsAmount",
          "type": "uint256"
        },
        {
          "internalType": "bytes32[]",
          "name": "_usedTxIds",
          "type": "bytes32[]"
        }
      ],
      "name": "recordSkyPoolsTX",
      "outputs": [
        {
          "internalType": "bool",
          "name": "",
          "type": "bool"
        }
      ],
      "stateMutability": "nonpayable",
      "type": "function"
    },
    {
      "inputs": [
        {
          "internalType": "uint256",
          "name": "_minerFee",
          "type": "uint256"
        },
        {
          "internalType": "bytes32",
          "name": "_txid",
          "type": "bytes32"
        }
      ],
      "name": "recordUTXOSweepMinerFee",
      "outputs": [
        {
          "internalType": "bool",
          "name": "",
          "type": "bool"
        }
      ],
      "stateMutability": "nonpayable",
      "type": "function"
    },
    {
      "inputs": [
        {
          "internalType": "address",
          "name": "_token",
          "type": "address"
        },
        {
          "internalType": "uint256",
          "name": "_amount",
          "type": "uint256"
        }
      ],
      "name": "redeemERC20Token",
      "outputs": [],
      "stateMutability": "nonpayable",
      "type": "function"
    },
    {
      "inputs": [
        {
          "internalType": "uint256",
          "name": "_amount",
          "type": "uint256"
        }
      ],
      "name": "redeemEther",
      "outputs": [],
      "stateMutability": "nonpayable",
      "type": "function"
    },
    {
      "inputs": [],
      "name": "renounceOwnership",
      "outputs": [],
      "stateMutability": "nonpayable",
      "type": "function"
    },
    {
      "inputs": [],
      "name": "sbBTCPool",
      "outputs": [
        {
          "internalType": "address",
          "name": "",
          "type": "address"
        }
      ],
      "stateMutability": "view",
      "type": "function"
    },
    {
      "inputs": [
        {
          "internalType": "address",
          "name": "_destToken",
          "type": "address"
        },
        {
          "internalType": "address",
          "name": "_to",
          "type": "address"
        },
        {
          "internalType": "uint256",
          "name": "_amount",
          "type": "uint256"
        },
        {
          "internalType": "uint256",
          "name": "_totalSwapped",
          "type": "uint256"
        },
        {
          "internalType": "uint256",
          "name": "_rewardsAmount",
          "type": "uint256"
        },
        {
          "internalType": "bytes32[]",
          "name": "_redeemedFloatTxIds",
          "type": "bytes32[]"
        }
      ],
      "name": "singleTransferERC20",
      "outputs": [
        {
          "internalType": "bool",
          "name": "",
          "type": "bool"
        }
      ],
      "stateMutability": "nonpayable",
      "type": "function"
    },
    {
      "inputs": [
        {
          "internalType": "uint256",
          "name": "_loopCount",
          "type": "uint256"
        }
      ],
      "name": "spCleanUpOldTXs",
      "outputs": [],
      "stateMutability": "nonpayable",
      "type": "function"
    },
    {
      "inputs": [
        {
          "internalType": "address",
          "name": "_token",
          "type": "address"
        },
        {
          "internalType": "uint256",
          "name": "_amount",
          "type": "uint256"
        }
      ],
      "name": "spDeposit",
      "outputs": [],
      "stateMutability": "payable",
      "type": "function"
    },
    {
      "inputs": [
        {
          "components": [
            {
              "internalType": "address",
              "name": "fromToken",
              "type": "address"
            },
            {
              "internalType": "address",
              "name": "toToken",
              "type": "address"
            },
            {
              "internalType": "uint256",
              "name": "fromAmount",
              "type": "uint256"
            },
            {
              "internalType": "uint256",
              "name": "toAmount",
              "type": "uint256"
            },
            {
              "internalType": "uint256",
              "name": "expectedAmount",
              "type": "uint256"
            },
            {
              "internalType": "address[]",
              "name": "callees",
              "type": "address[]"
            },
            {
              "internalType": "bytes",
              "name": "exchangeData",
              "type": "bytes"
            },
            {
              "internalType": "uint256[]",
              "name": "startIndexes",
              "type": "uint256[]"
            },
            {
              "internalType": "uint256[]",
              "name": "values",
              "type": "uint256[]"
            },
            {
              "internalType": "address payable",
              "name": "beneficiary",
              "type": "address"
            },
            {
              "internalType": "address payable",
              "name": "partner",
              "type": "address"
            },
            {
              "internalType": "uint256",
              "name": "feePercent",
              "type": "uint256"
            },
            {
              "internalType": "bytes",
              "name": "permit",
              "type": "bytes"
            },
            {
              "internalType": "uint256",
              "name": "deadline",
              "type": "uint256"
            },
            {
              "internalType": "bytes16",
              "name": "uuid",
              "type": "bytes16"
            }
          ],
          "internalType": "struct Utils.SimpleData",
          "name": "_data",
          "type": "tuple"
        }
      ],
      "name": "spFlow1SimpleSwap",
      "outputs": [],
      "stateMutability": "nonpayable",
      "type": "function"
    },
    {
      "inputs": [
        {
          "internalType": "bool",
          "name": "_fork",
          "type": "bool"
        },
        {
          "internalType": "address",
          "name": "_factory",
          "type": "address"
        },
        {
          "internalType": "bytes32",
          "name": "_initCode",
          "type": "bytes32"
        },
        {
          "internalType": "uint256",
          "name": "_amountIn",
          "type": "uint256"
        },
        {
          "internalType": "uint256",
          "name": "_amountOutMin",
          "type": "uint256"
        },
        {
          "internalType": "address[]",
          "name": "_path",
          "type": "address[]"
        }
      ],
      "name": "spFlow1Uniswap",
      "outputs": [
        {
          "internalType": "uint256",
          "name": "receivedAmount",
          "type": "uint256"
        }
      ],
      "stateMutability": "nonpayable",
      "type": "function"
    },
    {
      "inputs": [
        {
          "internalType": "string",
          "name": "_destinationAddressForBTC",
          "type": "string"
        },
        {
          "components": [
            {
              "internalType": "address",
              "name": "fromToken",
              "type": "address"
            },
            {
              "internalType": "address",
              "name": "toToken",
              "type": "address"
            },
            {
              "internalType": "uint256",
              "name": "fromAmount",
              "type": "uint256"
            },
            {
              "internalType": "uint256",
              "name": "toAmount",
              "type": "uint256"
            },
            {
              "internalType": "uint256",
              "name": "expectedAmount",
              "type": "uint256"
            },
            {
              "internalType": "address[]",
              "name": "callees",
              "type": "address[]"
            },
            {
              "internalType": "bytes",
              "name": "exchangeData",
              "type": "bytes"
            },
            {
              "internalType": "uint256[]",
              "name": "startIndexes",
              "type": "uint256[]"
            },
            {
              "internalType": "uint256[]",
              "name": "values",
              "type": "uint256[]"
            },
            {
              "internalType": "address payable",
              "name": "beneficiary",
              "type": "address"
            },
            {
              "internalType": "address payable",
              "name": "partner",
              "type": "address"
            },
            {
              "internalType": "uint256",
              "name": "feePercent",
              "type": "uint256"
            },
            {
              "internalType": "bytes",
              "name": "permit",
              "type": "bytes"
            },
            {
              "internalType": "uint256",
              "name": "deadline",
              "type": "uint256"
            },
            {
              "internalType": "bytes16",
              "name": "uuid",
              "type": "bytes16"
            }
          ],
          "internalType": "struct Utils.SimpleData",
          "name": "_data",
          "type": "tuple"
        }
      ],
      "name": "spFlow2SimpleSwap",
      "outputs": [
        {
          "internalType": "uint256",
          "name": "receivedAmount",
          "type": "uint256"
        }
      ],
      "stateMutability": "nonpayable",
      "type": "function"
    },
    {
      "inputs": [
        {
          "internalType": "string",
          "name": "_destinationAddressForBTC",
          "type": "string"
        },
        {
          "internalType": "bool",
          "name": "_fork",
          "type": "bool"
        },
        {
          "internalType": "address",
          "name": "_factory",
          "type": "address"
        },
        {
          "internalType": "bytes32",
          "name": "_initCode",
          "type": "bytes32"
        },
        {
          "internalType": "uint256",
          "name": "_amountIn",
          "type": "uint256"
        },
        {
          "internalType": "uint256",
          "name": "_amountOutMin",
          "type": "uint256"
        },
        {
          "internalType": "address[]",
          "name": "_path",
          "type": "address[]"
        }
      ],
      "name": "spFlow2Uniswap",
      "outputs": [
        {
          "internalType": "uint256",
          "name": "receivedAmount",
          "type": "uint256"
        }
      ],
      "stateMutability": "nonpayable",
      "type": "function"
    },
    {
      "inputs": [],
      "name": "spGetPendingSwaps",
      "outputs": [
        {
          "components": [
            {
              "internalType": "bytes32",
              "name": "SwapID",
              "type": "bytes32"
            },
            {
              "internalType": "string",
              "name": "DestAddr",
              "type": "string"
            },
            {
              "internalType": "address",
              "name": "RefundAddr",
              "type": "address"
            },
            {
              "internalType": "uint256",
              "name": "AmountWBTC",
              "type": "uint256"
            },
            {
              "internalType": "uint256",
              "name": "Timestamp",
              "type": "uint256"
            }
          ],
          "internalType": "struct SwapContract.spPendingTx[]",
          "name": "data",
          "type": "tuple[]"
        }
      ],
      "stateMutability": "view",
      "type": "function"
    },
    {
      "inputs": [
        {
          "internalType": "uint256",
          "name": "",
          "type": "uint256"
        }
      ],
      "name": "spPendingTXs",
      "outputs": [
        {
          "internalType": "bytes32",
          "name": "SwapID",
          "type": "bytes32"
        },
        {
          "internalType": "string",
          "name": "DestAddr",
          "type": "string"
        },
        {
          "internalType": "address",
          "name": "RefundAddr",
          "type": "address"
        },
        {
          "internalType": "uint256",
          "name": "AmountWBTC",
          "type": "uint256"
        },
        {
          "internalType": "uint256",
          "name": "Timestamp",
          "type": "uint256"
        }
      ],
      "stateMutability": "view",
      "type": "function"
    },
    {
      "inputs": [],
      "name": "swapCount",
      "outputs": [
        {
          "internalType": "uint256",
          "name": "",
          "type": "uint256"
        }
      ],
      "stateMutability": "view",
      "type": "function"
    },
    {
      "inputs": [],
      "name": "swapRewards",
      "outputs": [
        {
          "internalType": "address",
          "name": "",
          "type": "address"
        }
      ],
      "stateMutability": "view",
      "type": "function"
    },
    {
      "inputs": [
        {
          "internalType": "address",
          "name": "",
          "type": "address"
        },
        {
          "internalType": "address",
          "name": "",
          "type": "address"
        }
      ],
      "name": "tokens",
      "outputs": [
        {
          "internalType": "uint256",
          "name": "",
          "type": "uint256"
        }
      ],
      "stateMutability": "view",
      "type": "function"
    },
    {
      "inputs": [],
      "name": "totalStakedAmount",
      "outputs": [
        {
          "internalType": "uint256",
          "name": "",
          "type": "uint256"
        }
      ],
      "stateMutability": "view",
      "type": "function"
    },
    {
      "inputs": [
        {
          "internalType": "address",
          "name": "newOwner",
          "type": "address"
        }
      ],
      "name": "transferOwnership",
      "outputs": [],
      "stateMutability": "nonpayable",
      "type": "function"
    },
    {
      "inputs": [],
      "name": "tssThreshold",
      "outputs": [
        {
          "internalType": "uint8",
          "name": "",
          "type": "uint8"
        }
      ],
      "stateMutability": "view",
      "type": "function"
    },
    {
      "inputs": [],
      "name": "wETH",
      "outputs": [
        {
          "internalType": "address",
          "name": "",
          "type": "address"
        }
      ],
      "stateMutability": "view",
      "type": "function"
    },
    {
      "inputs": [
        {
          "internalType": "address",
          "name": "",
          "type": "address"
        }
      ],
      "name": "whitelist",
      "outputs": [
        {
          "internalType": "bool",
          "name": "",
          "type": "bool"
        }
      ],
      "stateMutability": "view",
      "type": "function"
    },
    {
      "stateMutability": "payable",
      "type": "receive"
    }
  ],
  "bytecode": "0x6101806040523480156200001257600080fd5b506040516200657a3803806200657a833981016040819052620000359162000339565b6200004033620002cc565b600180556202a300600255615dc0600355600060068190556005556001600160a01b0380861661010052848116610120528381166101605282811661014052871660a08190526040805163313ce56760e01b8152905163313ce56791600480820192602092909190829003018186803b158015620000bd57600080fd5b505afa158015620000d2573d6000803e3d6000fd5b505050506040513d601f19601f82011682018060405250810190620000f89190620003c5565b6200010590600a62000506565b60e0526001600160a01b03861660808190526040805163313ce56760e01b815290516008929163313ce567916004808301926020929190829003018186803b1580156200015157600080fd5b505afa15801562000166573d6000803e3d6000fd5b505050506040513d601f19601f820116820180604052508101906200018c9190620003c5565b62000198919062000517565b620001a590600a62000506565b60c08181525050866001600160a01b031663313ce5676040518163ffffffff1660e01b815260040160206040518083038186803b158015620001e657600080fd5b505afa158015620001fb573d6000803e3d6000fd5b505050506040513d601f19601f82011682018060405250810190620002219190620003c5565b6200022e90600a62000506565b6009556001600160a01b0395861660009081526007602090815260408083208054600160ff1991821681179092559a9099168352822080548a16891790559080527f6d5257204ebe7d88fd91ae87941cb2dd9d8062b64ae5a2bd2d28ec40b9fbf6df80549098169096179096555050600b90925250507fdf7de25b7f1fd6d0b5205f0e18f1f35bd7b8d84cce336588d184533ce43a6f76556200053d565b600080546001600160a01b038381166001600160a01b0319831681178455604051919092169283917f8be0079c531659141344cd1fd0a4f28419497f9722a3daafe3b4186f6b6457e09190a35050565b80516001600160a01b03811681146200033457600080fd5b919050565b600080600080600080600060e0888a0312156200035557600080fd5b62000360886200031c565b965062000370602089016200031c565b955062000380604089016200031c565b945062000390606089016200031c565b9350620003a0608089016200031c565b9250620003b060a089016200031c565b915060c0880151905092959891949750929550565b600060208284031215620003d857600080fd5b815160ff81168114620003ea57600080fd5b9392505050565b634e487b7160e01b600052601160045260246000fd5b600181815b80851115620004485781600019048211156200042c576200042c620003f1565b808516156200043a57918102915b93841c93908002906200040c565b509250929050565b600082620004615750600162000500565b81620004705750600062000500565b81600181146200048957600281146200049457620004b4565b600191505062000500565b60ff841115620004a857620004a8620003f1565b50506001821b62000500565b5060208310610133831016604e8410600b8410161715620004d9575081810a62000500565b620004e5838362000407565b8060001904821115620004fc57620004fc620003f1565b0290505b92915050565b6000620003ea60ff84168362000450565b600060ff821660ff841680821015620005345762000534620003f1565b90039392505050565b60805160a05160c05160e05161010051610120516101405161016051615e72620007086000396000818161078f0152818161366501528181613d1d01526146330152600081816107c301528181610a2f01526132090152600081816102d7015281816135000152613749015260008181610284015281816108b201528181611ebe01528181611f1a01528181611f8701528181611fce015281816120b201528181612b9201528181612c0c0152612c550152600081816115140152818161370e01528181613ce5015261452d015260006138fa01526000818161059d01528181610b0701528181610b4201528181611474015281816134b10152818161352f0152818161377b01528181613f7c015261457a01526000818161038401528181610ab301528181610ae501528181610c5c01528181610cd80152818161144801528181611bc7015281816121c2015281816121f101528181612241015281816122d401528181612362015281816126aa01528181612723015281816127ba0152818161298f01528181612eaa01528181612f8c015281816131ba0152818161329b015281816138bc01528181613e1201528181613e8e01528181613f23015261425f0152615e726000f3fe6080604052600436106102745760003560e01c8063715018a61161014f578063ca0707e7116100c1578063dcc5f0c81161007a578063dcc5f0c81461081b578063e6ca20841461083b578063ec4827291461086b578063f2428621146108a0578063f2fde38b146108d4578063f7888aec146108f4576102b3565b8063ca0707e71461074a578063cf10b16b1461075d578063cff0ab961461077d578063d0f9a085146107b1578063d38c7bb1146107e5578063da284dcc14610805576102b3565b8063a742329d11610113578063a742329d14610694578063a827278b146106b4578063b345a358146106ca578063b4014fe8146106ea578063bf62dcc81461070a578063c810a5391461072a576102b3565b8063715018a6146105f7578063753408151461060c5780638535490f146106265780638da5cb5b146106465780639b19251a14610664576102b3565b80632586c562116101e8578063508493bc116101ac578063508493bc1461051d578063511834c314610555578063567e98f9146105755780635fcbd2851461058b5780636b51e919146105bf5780636d019f35146105e1576102b3565b80632586c562146104925780632eff0d9e146104b257806345137e27146104c8578063467f21d6146104dd5780634db75485146104fd576102b3565b8063130b7a631161023a578063130b7a63146103c55780631411c5b7146103f35780631ab7e937146104095780631bb069301461043a57806320199e991461045057806321959d3c14610472576102b3565b806285aea1146102c557806289356f146103165780630d63aca7146103425780630f9094861461037257806312d1441e146103a6576102b3565b366102b357336001600160a01b037f000000000000000000000000000000000000000000000000000000000000000016146102b1576102b1614c7e565b005b3480156102bf57600080fd5b50600080fd5b3480156102d157600080fd5b506102f97f000000000000000000000000000000000000000000000000000000000000000081565b6040516001600160a01b0390911681526020015b60405180910390f35b34801561032257600080fd5b506008546103309060ff1681565b60405160ff909116815260200161030d565b34801561034e57600080fd5b5061036261035d366004614d8d565b61093a565b604051901515815260200161030d565b34801561037e57600080fd5b506102f97f000000000000000000000000000000000000000000000000000000000000000081565b3480156103b257600080fd5b5060085461033090610100900460ff1681565b3480156103d157600080fd5b506103e56103e0366004614e6e565b610b8e565b60405190815260200161030d565b3480156103ff57600080fd5b506103e560035481565b34801561041557600080fd5b50610429610424366004614ef3565b610fc8565b60405161030d959493929190614f64565b34801561044657600080fd5b506103e560065481565b34801561045c57600080fd5b5061046561108b565b60405161030d9190614fa3565b34801561047e57600080fd5b506102b161048d366004614ef3565b61128c565b34801561049e57600080fd5b506103626104ad366004615041565b61134a565b3480156104be57600080fd5b506103e560055481565b3480156104d457600080fd5b506103e561143c565b3480156104e957600080fd5b506103626104f83660046150fa565b61155a565b34801561050957600080fd5b506102b161051836600461520b565b611933565b34801561052957600080fd5b506103e5610538366004615237565b601160209081526000928352604080842090915290825290205481565b34801561056157600080fd5b506102b1610570366004615289565b611a92565b34801561058157600080fd5b506103e560105481565b34801561059757600080fd5b506102f97f000000000000000000000000000000000000000000000000000000000000000081565b3480156105cb57600080fd5b506105d4611d2c565b60405161030d9190615301565b3480156105ed57600080fd5b506103e560095481565b34801561060357600080fd5b506102b1611e56565b34801561061857600080fd5b50600f546103309060ff1681565b34801561063257600080fd5b506102b1610641366004614ef3565b611e8c565b34801561065257600080fd5b506000546001600160a01b03166102f9565b34801561067057600080fd5b5061036261067f366004615314565b60076020526000908152604090205460ff1681565b3480156106a057600080fd5b506103626106af366004615314565b612148565b3480156106c057600080fd5b506103e5600a5481565b3480156106d657600080fd5b506103626106e5366004615331565b61217c565b3480156106f657600080fd5b506103e56107053660046153d4565b6122a0565b34801561071657600080fd5b5061036261072536600461543c565b612664565b34801561073657600080fd5b506103626107453660046154a6565b612841565b6102b161075836600461520b565b612936565b34801561076957600080fd5b506103626107783660046154c8565b612cec565b34801561078957600080fd5b506102f97f000000000000000000000000000000000000000000000000000000000000000081565b3480156107bd57600080fd5b506102f97f000000000000000000000000000000000000000000000000000000000000000081565b3480156107f157600080fd5b506103e56108003660046154fd565b612ddc565b34801561081157600080fd5b506103e560025481565b34801561082757600080fd5b506103626108363660046155b4565b61318d565b34801561084757600080fd5b50610362610856366004614ef3565b6000908152600c602052604090205460ff1690565b34801561087757600080fd5b5061088b610886366004615237565b61330b565b6040805192835260208301919091520161030d565b3480156108ac57600080fd5b506102f97f000000000000000000000000000000000000000000000000000000000000000081565b3480156108e057600080fd5b506102b16108ef366004615314565b613335565b34801561090057600080fd5b506103e561090f366004615237565b6001600160a01b03918216600090815260116020908152604080832093909416825291909152205490565b600080546001600160a01b0316331461096e5760405162461bcd60e51b815260040161096590615699565b60405180910390fd5b6001600160a01b03871660009081526007602052604090205460ff166109bb5760405162461bcd60e51b81526020600482015260026024820152610c4d60f21b6044820152606401610965565b6001600160a01b0387166109f65760405162461bcd60e51b8152602060048201526002602482015261313560f01b6044820152606401610965565b60008415610add5760405160016266faa960e11b031981526001600160a01b0389811660048301528881166024830152604482018790527f0000000000000000000000000000000000000000000000000000000000000000169063ff320aae90606401602060405180830381600087803b158015610a7357600080fd5b505af1158015610a87573d6000803e3d6000fd5b505050506040513d601f19601f82011682018060405250810190610aab91906156ce565b50610ad860007f0000000000000000000000000000000000000000000000000000000000000000876133d0565b610b05565b84610b0557507f00000000000000000000000000000000000000000000000000000000000000005b7f00000000000000000000000000000000000000000000000000000000000000006001600160a01b0316886001600160a01b03161415610b6257507f00000000000000000000000000000000000000000000000000000000000000005b610b6c81856134a6565b610b7583613852565b610b808888886138ba565b506001979650505050505050565b600060026001541415610bb35760405162461bcd60e51b8152600401610965906156eb565b6002600155600083838281610bca57610bca615722565b9050602002016020810190610bdf9190615314565b905060008484610bf060018261574e565b818110610bff57610bff615722565b9050602002016020810190610c149190615314565b6001600160a01b0383166000908152601160209081526040808320338452909152902054909150871115610c5a5760405162461bcd60e51b815260040161096590615765565b7f00000000000000000000000000000000000000000000000000000000000000006001600160a01b0316826001600160a01b031614610cd65760405162461bcd60e51b815260206004820152601860248201527726bab9ba1039bbb0b810333937b690212a21903a37b5b2b760411b6044820152606401610965565b7f00000000000000000000000000000000000000000000000000000000000000006001600160a01b0316816001600160a01b03161415610d585760405162461bcd60e51b815260206004820152601960248201527f456e64696e6720746f6b656e206d7573742062652077425443000000000000006044820152606401610965565b6001600160a01b03811673eeeeeeeeeeeeeeeeeeeeeeeeeeeeeeeeeeeeeeee1415610dbd5760405162461bcd60e51b81526020600482015260156024820152740aae6ca40e0c2e8d040ee84a886405a7c40ee8aa89605b1b6044820152606401610965565b6040516370a0823160e01b81523060048201526000906001600160a01b038316906370a082319060240160206040518083038186803b158015610dff57600080fd5b505afa158015610e13573d6000803e3d6000fd5b505050506040513d601f19601f82011682018060405250810190610e37919061579c565b6001600160a01b0384166000908152601160209081526040808320338452909152902054909150610e6890896139b1565b6001600160a01b03841660009081526011602090815260408083203384529091529020558a15610ea557610ea08a8a8a8a8a8a6139c4565b610eb1565b610eb188888888613b0a565b6040516370a0823160e01b8152306004820152610f359082906001600160a01b038516906370a08231906024015b60206040518083038186803b158015610ef757600080fd5b505afa158015610f0b573d6000803e3d6000fd5b505050506040513d601f19601f82011682018060405250810190610f2f919061579c565b906139b1565b935086841015610f575760405162461bcd60e51b8152600401610965906157b5565b83610f6157600080fd5b6001600160a01b0382166000908152601160209081526040808320338452909152902054610f8f9085613c4a565b6001600160a01b039092166000908152601160209081526040808320338452909152902091909155505060018055979650505050505050565b60046020526000908152604090208054600182018054919291610fea906157ec565b80601f0160208091040260200160405190810160405280929190818152602001828054611016906157ec565b80156110635780601f1061103857610100808354040283529160200191611063565b820191906000526020600020905b81548152906001019060200180831161104657829003601f168201915b505050506002830154600384015460049094015492936001600160a01b039091169290915085565b606060006110a66006546005546139b190919063ffffffff16565b6001600160401b038111156110bd576110bd614cb9565b60405190808252806020026020018201604052801561112c57816020015b6111196040518060a00160405280600080191681526020016060815260200160006001600160a01b0316815260200160008152602001600081525090565b8152602001906001900390816110db5790505b50915060006111476001600654613c4a90919063ffffffff16565b90505b6005548111611287576004600061116c60065485613c4a90919063ffffffff16565b81526020019081526020016000206040518060a00160405290816000820154815260200160018201805461119f906157ec565b80601f01602080910402602001604051908101604052809291908181526020018280546111cb906157ec565b80156112185780601f106111ed57610100808354040283529160200191611218565b820191906000526020600020905b8154815290600101906020018083116111fb57829003601f168201915b505050918352505060028201546001600160a01b0316602082015260038201546040820152600490910154606090910152835184908490811061125d5761125d615722565b6020908102919091010152611273826001613c4a565b91508061127f81615821565b91505061114a565b505090565b60065460009061129c9083613c4a565b905060055481106112ac57506005545b60065442905b82811015611344576002546000828152600460208190526040909120015483916112dc9190613c4a565b1015611332576000818152600460205260408120818155906113016001830182614bab565b506002810180546001600160a01b031916905560006003820181905560049091015561132e816001613c4a565b6006555b8061133c81615821565b9150506112b2565b50505050565b600080546001600160a01b031633146113755760405162461bcd60e51b815260040161096590615699565b600061137f61143c565b6001600160a01b03871660009081526007602052604090205490915060ff166113cf5760405162461bcd60e51b8152602060048201526002602482015261189b60f11b6044820152606401610965565b6113db86868686613c56565b6113e457600080fd5b60019150806113f161143c565b10156114335760405162461bcd60e51b8152602060048201526011602482015270496e76616c6964204c505420707269636560781b6044820152606401610965565b50949350505050565b600080600061146c60007f000000000000000000000000000000000000000000000000000000000000000061330b565b9150915060007f00000000000000000000000000000000000000000000000000000000000000006001600160a01b03166318160ddd6040518163ffffffff1660e01b815260040160206040518083038186803b1580156114cb57600080fd5b505afa1580156114df573d6000803e3d6000fd5b505050506040513d601f19601f82011682018060405250810190611503919061579c565b9050801561154e57611549816115437f000000000000000000000000000000000000000000000000000000000000000061153d8787613c4a565b9061407b565b90614087565b611552565b6009545b935050505090565b600080546001600160a01b031633146115855760405162461bcd60e51b815260040161096590615699565b60085460ff6101009091048116908616108015906115a7575060ff8560ff1611155b6115d85760405162461bcd60e51b8152602060048201526002602482015261303160f01b6044820152606401610965565b6115e360018661583c565b60ff168660ff16101561161d5760405162461bcd60e51b8152602060048201526002602482015261181960f11b6044820152606401610965565b86518851146116535760405162461bcd60e51b8152602060048201526002602482015261303560f01b6044820152606401610965565b821561165f5760038390555b811561166e5761166e82614093565b61167789613335565b60005b88518110156118a15787818151811061169557611695615722565b602002602001015161180a57600060ff16600d60008b84815181106116bc576116bc615722565b6020908102919091018101516001600160a01b031682528101919091526040016000205460ff16141561173957600e8982815181106116fd576116fd615722565b60209081029190910181015182546001810184556000938452919092200180546001600160a01b0319166001600160a01b039092169190911790555b600160ff16600d60008b848151811061175457611754615722565b6020908102919091018101516001600160a01b031682528101919091526040016000205460ff16146117ad57600f805460ff1690600061179383615861565b91906101000a81548160ff021916908360ff160217905550505b6001600d60008b84815181106117c5576117c5615722565b60200260200101516001600160a01b03166001600160a01b0316815260200190815260200160002060006101000a81548160ff021916908360ff16021790555061188f565b600f805460ff1690600061181d83615881565b91906101000a81548160ff021916908360ff160217905550506002600d60008b848151811061184e5761184e615722565b60200260200101516001600160a01b03166001600160a01b0316815260200190815260200160002060006101000a81548160ff021916908360ff1602179055505b8061189981615821565b91505061167a565b50600f54606460ff90911611156119045760405162461bcd60e51b815260206004820152602160248201527f53746f726564206e6f64652073697a652073686f756c64206265203c3d2031306044820152600360fc1b6064820152608401610965565b506008805460ff8681166101000261ffff19909216908816171790556010839055600198975050505050505050565b600260015414156119565760405162461bcd60e51b8152600401610965906156eb565b60026001556001600160a01b03821660009081526011602090815260408083203384529091529020548111156119c55760405162461bcd60e51b8152602060048201526014602482015273496e73756666696369656e742042616c616e636560601b6044820152606401610965565b6001600160a01b03821660009081526011602090815260408083203384529091529020546119f390826139b1565b6001600160a01b038316600090815260116020908152604080832033808552925290912091909155611a27908390836138ba565b6001600160a01b0382166000908152601160209081526040808320338085529252918290205491517febff2602b3f468259e1e99f613fed6691f3a6526effe6ef3e768ba7ae7a36c4f92611a8292869290918691429061589e565b60405180910390a1505060018055565b60026001541415611ab55760405162461bcd60e51b8152600401610965906156eb565b600260015533611acd61014083016101208401615314565b6001600160a01b031614611b3a5760405162461bcd60e51b815260206004820152602e60248201527f596f752063616e206f6e6c79206578656375746520737761707320746f20796f60448201526d7572206f776e206164647265737360901b6064820152608401610965565b604081013560116000611b506020850185615314565b6001600160a01b031681526020810191909152604001600090812090611b7e61014085016101208601615314565b6001600160a01b03166001600160a01b03168152602001908152602001600020541015611bbd5760405162461bcd60e51b815260040161096590615765565b6001600160a01b037f000000000000000000000000000000000000000000000000000000000000000016611bf46020830183615314565b6001600160a01b031614611c5c5760405162461bcd60e51b815260206004820152602960248201527f66726f6d546f6b656e206d7573742062652074686520726571756972656420426044820152682a21ba103a37b5b2b760b91b6064820152608401610965565b611c65816140d3565b611ccc604082013560116000611c7e6020860186615314565b6001600160a01b031681526020810191909152604001600090812090611cac61014086016101208701615314565b6001600160a01b03168152602081019190915260400160002054906139b1565b60116000611cdd6020850185615314565b6001600160a01b031681526020810191909152604001600090812090611d0b61014085016101208601615314565b6001600160a01b031681526020810191909152604001600020555060018055565b600f54606090600090819060ff166001600160401b03811115611d5157611d51614cb9565b604051908082528060200260200182016040528015611d7a578160200160208202803683370190505b50905060005b600e54811015611e4f57600160ff16600d6000600e8481548110611da657611da6615722565b60009182526020808320909101546001600160a01b0316835282019290925260400190205460ff161415611e3d57600e8181548110611de757611de7615722565b9060005260206000200160009054906101000a90046001600160a01b0316828481518110611e1757611e17615722565b6001600160a01b039092166020928302919091019091015282611e3981615821565b9350505b80611e4781615821565b915050611d80565b5092915050565b6000546001600160a01b03163314611e805760405162461bcd60e51b815260040161096590615699565b611e8a600061420b565b565b60026001541415611eaf5760405162461bcd60e51b8152600401610965906156eb565b60026001556001600160a01b037f0000000000000000000000000000000000000000000000000000000000000000166000908152601160209081526040808320338452909152902054811115611f0457600080fd5b604051632e1a7d4d60e01b8152600481018290527f00000000000000000000000000000000000000000000000000000000000000006001600160a01b031690632e1a7d4d90602401600060405180830381600087803b158015611f6657600080fd5b505af1158015611f7a573d6000803e3d6000fd5b5050506001600160a01b037f0000000000000000000000000000000000000000000000000000000000000000166000908152601160209081526040808320338452909152902054611fcc9150826139b1565b7f00000000000000000000000000000000000000000000000000000000000000006001600160a01b03166000908152601160209081526040808320338085529252808320939093559151829084908381818185875af1925050503d8060008114612052576040519150601f19603f3d011682016040523d82523d6000602084013e612057565b606091505b50509050806120a85760405162461bcd60e51b815260206004820152601e60248201527f72656365697665722072656a656374656420455448207472616e7366657200006044820152606401610965565b6001600160a01b037f0000000000000000000000000000000000000000000000000000000000000000166000908152601160209081526040808320338085529252918290205491517febff2602b3f468259e1e99f613fed6691f3a6526effe6ef3e768ba7ae7a36c4f926121379273eeeeeeeeeeeeeeeeeeeeeeeeeeeeeeeeeeeeeeee9290918891429061589e565b60405180910390a150506001805550565b6001600160a01b0381166000908152600d602052604081205460ff166001141561217457506001919050565b506000919050565b600080546001600160a01b031633146121a75760405162461bcd60e51b815260040161096590615699565b836121b157600080fd5b826121bb57600080fd5b6121e760007f0000000000000000000000000000000000000000000000000000000000000000866133d0565b6001600160a01b037f000000000000000000000000000000000000000000000000000000000000000081166000908152601160209081526040808320938916835292905220546122379085613c4a565b6001600160a01b037f000000000000000000000000000000000000000000000000000000000000000081166000908152601160209081526040808320938a1683529290529081209190915561228c90846134a6565b61229582613852565b506001949350505050565b6000600260015414156122c55760405162461bcd60e51b8152600401610965906156eb565b60026001556001600160a01b037f0000000000000000000000000000000000000000000000000000000000000000166123016020840184615314565b6001600160a01b031614156123585760405162461bcd60e51b815260206004820152601c60248201527f4d757374206e6f7420737761702066726f6d2042544320746f6b656e000000006044820152606401610965565b6001600160a01b037f0000000000000000000000000000000000000000000000000000000000000000166123926040840160208501615314565b6001600160a01b0316146123e15760405162461bcd60e51b815260206004820152601660248201527526bab9ba1039bbb0b8103a3790212a21903a37b5b2b760511b6044820152606401610965565b306123f461014084016101208501615314565b6001600160a01b0316146124545760405162461bcd60e51b815260206004820152602160248201527f42656e6566696369617279206d757374206265207468697320636f6e747261636044820152601d60fa1b6064820152608401610965565b60408201356011600061246a6020860186615314565b6001600160a01b031681526020808201929092526040908101600090812033825290925290205410156124af5760405162461bcd60e51b815260040161096590615765565b60006124c16040840160208501615314565b6040516370a0823160e01b81523060048201526001600160a01b0391909116906370a082319060240160206040518083038186803b15801561250257600080fd5b505afa158015612516573d6000803e3d6000fd5b505050506040513d601f19601f8201168201806040525081019061253a919061579c565b90506125826040840135601160006125556020880188615314565b6001600160a01b0316815260208082019290925260409081016000908120338252909252902054906139b1565b601160006125936020870187615314565b6001600160a01b03168152602080820192909252604090810160009081203382529092529020556125c3836140d3565b612605816125d76040860160208701615314565b6040516370a0823160e01b81523060048201526001600160a01b0391909116906370a0823190602401610edf565b9150826080013582101561262b5760405162461bcd60e51b8152600401610965906157b5565b60035482101561264d5760405162461bcd60e51b8152600401610965906158cf565b61265885858461425b565b50600180559392505050565b600080546001600160a01b0316331461268f5760405162461bcd60e51b815260040161096590615699565b8361269957600080fd5b826126a357600080fd5b6126cf60007f0000000000000000000000000000000000000000000000000000000000000000866133d0565b6126da6000846134a6565b6126e382613852565b60005b8551811015612835576127b086828151811061270457612704615722565b602002602001015160a01c6bffffffffffffffffffffffff16601160007f00000000000000000000000000000000000000000000000000000000000000006001600160a01b03166001600160a01b03168152602001908152602001600020600089858151811061277657612776615722565b602002602001015160001c6001600160a01b03166001600160a01b0316815260200190815260200160002054613c4a90919063ffffffff16565b6001600160a01b037f000000000000000000000000000000000000000000000000000000000000000016600090815260116020526040812088519091908990859081106127ff576127ff615722565b6020908102919091018101516001600160a01b03168252810191909152604001600020558061282d81615821565b9150506126e6565b50600195945050505050565b600080546001600160a01b0316331461286c5760405162461bcd60e51b815260040161096590615699565b6000828152600c602052604090205460ff16156128cb5760405162461bcd60e51b815260206004820152601860248201527f546865207478696420697320616c7265616479207573656400000000000000006044820152606401610965565b604080518082019091526002815261189960f11b60208083019190915260008052600b9052600080516020615e1d8339815191525461290b9185906143e7565b60008052600b602052600080516020615e1d8339815191525561292d82614413565b50600192915050565b600260015414156129595760405162461bcd60e51b8152600401610965906156eb565b600260015534612b83576001600160a01b03821673eeeeeeeeeeeeeeeeeeeeeeeeeeeeeeeeeeeeeeee141561298d57600080fd5b7f00000000000000000000000000000000000000000000000000000000000000006001600160a01b0316826001600160a01b031614156129cc57600080fd5b6040516370a0823160e01b81523060048201526000906001600160a01b038416906370a082319060240160206040518083038186803b158015612a0e57600080fd5b505afa158015612a22573d6000803e3d6000fd5b505050506040513d601f19601f82011682018060405250810190612a46919061579c565b9050612a5d6001600160a01b03841633308561442e565b6040516370a0823160e01b81523060048201526000906001600160a01b038516906370a082319060240160206040518083038186803b158015612a9f57600080fd5b505afa158015612ab3573d6000803e3d6000fd5b505050506040513d601f19601f82011682018060405250810190612ad7919061579c565b90506000612ae582846139b1565b6001600160a01b0386166000908152601160209081526040808320338452909152902054909150612b169082613c4a565b6001600160a01b03861660009081526011602090815260408083203380855292529182902083905590517f4e2ca0515ed1aef1395f66b5303bb5d6f1bf9d61a353fa53f73f8ac9973fa9f692612b7392899290918691429061589e565b60405180910390a1505050612ce4565b60003411612b9057600080fd5b7f00000000000000000000000000000000000000000000000000000000000000006001600160a01b031663d0e30db0346040518263ffffffff1660e01b81526004016000604051808303818588803b158015612beb57600080fd5b505af1158015612bff573d6000803e3d6000fd5b5050506001600160a01b037f0000000000000000000000000000000000000000000000000000000000000000166000908152601160209081526040808320338452909152902054612c539250905034613c4a565b7f00000000000000000000000000000000000000000000000000000000000000006001600160a01b031660009081526011602090815260408083203380855292529182902083905590517f4e2ca0515ed1aef1395f66b5303bb5d6f1bf9d61a353fa53f73f8ac9973fa9f692611a829273eeeeeeeeeeeeeeeeeeeeeeeeeeeeeeeeeeeeeeee9290913491429061589e565b505060018055565b600080546001600160a01b03163314612d175760405162461bcd60e51b815260040161096590615699565b6000612d2161143c565b6001600160a01b03861660009081526007602052604090205490915060ff16612d715760405162461bcd60e51b8152602060048201526002602482015261189b60f11b6044820152606401610965565b612d7c858585614499565b612d8557600080fd5b6001915080612d9261143c565b1015612dd45760405162461bcd60e51b8152602060048201526011602482015270496e76616c6964204c505420707269636560781b6044820152606401610965565b509392505050565b600060026001541415612e015760405162461bcd60e51b8152600401610965906156eb565b6002600155600083838281612e1857612e18615722565b9050602002016020810190612e2d9190615314565b905060008484612e3e60018261574e565b818110612e4d57612e4d615722565b9050602002016020810190612e629190615314565b6001600160a01b0383166000908152601160209081526040808320338452909152902054909150871115612ea85760405162461bcd60e51b815260040161096590615765565b7f00000000000000000000000000000000000000000000000000000000000000006001600160a01b0316826001600160a01b03161415612f255760405162461bcd60e51b815260206004820152601860248201527726bab9ba1039bbb0b810333937b690212a21903a37b5b2b760411b6044820152606401610965565b6001600160a01b03821673eeeeeeeeeeeeeeeeeeeeeeeeeeeeeeeeeeeeeeee1415612f8a5760405162461bcd60e51b815260206004820152601560248201527455736520706174682077455448202d3e207742544360581b6044820152606401610965565b7f00000000000000000000000000000000000000000000000000000000000000006001600160a01b0316816001600160a01b0316146130045760405162461bcd60e51b815260206004820152601660248201527526bab9ba1039bbb0b8103a3790212a21903a37b5b2b760511b6044820152606401610965565b6040516370a0823160e01b81523060048201526000906001600160a01b038316906370a082319060240160206040518083038186803b15801561304657600080fd5b505afa15801561305a573d6000803e3d6000fd5b505050506040513d601f19601f8201168201806040525081019061307e919061579c565b6001600160a01b03841660009081526011602090815260408083203384529091529020549091506130af90896139b1565b6001600160a01b03841660009081526011602090815260408083203384529091529020558a156130ec576130e78a8a8a8a8a8a6139c4565b6130f8565b6130f888888888613b0a565b6040516370a0823160e01b815230600482015261312a9082906001600160a01b038516906370a0823190602401610edf565b93508684101561314c5760405162461bcd60e51b8152600401610965906157b5565b60035484101561316e5760405162461bcd60e51b8152600401610965906158cf565b6131798d8d8661425b565b505050600180559998505050505050505050565b600080546001600160a01b031633146131b85760405162461bcd60e51b815260040161096590615699565b7f000000000000000000000000000000000000000000000000000000000000000087156132d15760006131ef88610f2f8b8a6139b1565b6040516349e031a560e01b81529091506001600160a01b037f000000000000000000000000000000000000000000000000000000000000000016906349e031a590613243906000908a908a90600401615923565b602060405180830381600087803b15801561325d57600080fd5b505af1158015613271573d6000803e3d6000fd5b505050506040513d601f19601f8201168201806040525081019061329591906156ce565b506132cb7f000000000000000000000000000000000000000000000000000000000000000060006132c6848c613c4a565b6133d0565b506132da565b876132da575060005b6132e481876134a6565b8215610b8057610b8060008052600b602052600080516020615e1d83398151915254600a55565b6001600160a01b039182166000908152600b60205260408082205492909316815291909120549091565b6000546001600160a01b0316331461335f5760405162461bcd60e51b815260040161096590615699565b6001600160a01b0381166133c45760405162461bcd60e51b815260206004820152602660248201527f4f776e61626c653a206e6577206f776e657220697320746865207a65726f206160448201526564647265737360d01b6064820152608401610965565b6133cd8161420b565b50565b6040805180820182526002815261313160f01b6020808301919091526001600160a01b0385166000908152600b90915291909120546134109183906143e7565b6001600160a01b038084166000908152600b6020526040808220939093559085168152205461343f9082613c4a565b6001600160a01b038481166000818152600b60209081526040918290209490945580519182529185169281019290925281018290527fea368a40e9570069bb8e6511d668293ad2e1f03b0d982431fd223de9f3b70ca69060600160405180910390a1505050565b806134af575050565b7f00000000000000000000000000000000000000000000000000000000000000006001600160a01b0316826001600160a01b031614156136005760405163a9059cbb60e01b81526001600160a01b037f000000000000000000000000000000000000000000000000000000000000000081166004830152602482018390527f0000000000000000000000000000000000000000000000000000000000000000169063a9059cbb90604401602060405180830381600087803b15801561357357600080fd5b505af1158015613587573d6000803e3d6000fd5b505050506040513d601f19601f820116820180604052508101906135ab91906156ce565b50604080516001600160a01b0384168152600060208201819052818301849052606082015290517fe3debe835f6848edc082b32a1d729781d3bfcd7e14422d80bcaa6794d3816b2f9181900360800190a15050565b600061360a61143c565b6001600160a01b0384166000908152600b60205260409020549091506136309083613c4a565b600b6000856001600160a01b03166001600160a01b0316815260200190815260200160002081905550600061370060646115437f00000000000000000000000000000000000000000000000000000000000000006001600160a01b0316630b68134d6040518163ffffffff1660e01b8152600401602060405180830381600087803b1580156136be57600080fd5b505af11580156136d2573d6000803e3d6000fd5b505050506040513d601f19601f820116820180604052508101906136f6919061597b565b869060ff1661407b565b9050600061373283611543847f000000000000000000000000000000000000000000000000000000000000000061407b565b6040516340c10f1960e01b81526001600160a01b037f000000000000000000000000000000000000000000000000000000000000000081166004830152602482018390529192507f0000000000000000000000000000000000000000000000000000000000000000909116906340c10f1990604401602060405180830381600087803b1580156137c157600080fd5b505af11580156137d5573d6000803e3d6000fd5b505050506040513d601f19601f820116820180604052508101906137f991906156ce565b50604080516001600160a01b038716815260208101869052908101829052606081018490527fe3debe835f6848edc082b32a1d729781d3bfcd7e14422d80bcaa6794d3816b2f9060800160405180910390a15050505050565b60005b81518110156138b6576001600c600084848151811061387657613876615722565b6020026020010151815260200190815260200160002060006101000a81548160ff02191690831515021790555080806138ae90615821565b915050613855565b5050565b7f00000000000000000000000000000000000000000000000000000000000000006001600160a01b0316836001600160a01b031614156139215761391e817f000000000000000000000000000000000000000000000000000000000000000061407b565b90505b60405163a9059cbb60e01b81526001600160a01b0383811660048301526024820183905284169063a9059cbb90604401602060405180830381600087803b15801561396b57600080fd5b505af115801561397f573d6000803e3d6000fd5b505050506040513d601f19601f820116820180604052508101906139a391906156ce565b6139ac57600080fd5b505050565b60006139bd828461574e565b9392505050565b6000828260008181106139d9576139d9615722565b90506020020160208101906139ee9190615314565b9050600073def171fe48cf0115b1d80b88dc8eab59176fee576001600160a01b031663d2c4b5986040518163ffffffff1660e01b815260040160206040518083038186803b158015613a3f57600080fd5b505afa158015613a53573d6000803e3d6000fd5b505050506040513d601f19601f82011682018060405250810190613a779190615998565b9050613a8d6001600160a01b038316828861470f565b604051633d59840d60e21b815273def171fe48cf0115b1d80b88dc8eab59176fee579063f566103490613ace908b908b908b908b908b908b906004016159f3565b600060405180830381600087803b158015613ae857600080fd5b505af1158015613afc573d6000803e3d6000fd5b505050505050505050505050565b600082826000818110613b1f57613b1f615722565b9050602002016020810190613b349190615314565b9050600073def171fe48cf0115b1d80b88dc8eab59176fee576001600160a01b031663d2c4b5986040518163ffffffff1660e01b815260040160206040518083038186803b158015613b8557600080fd5b505afa158015613b99573d6000803e3d6000fd5b505050506040513d601f19601f82011682018060405250810190613bbd9190615998565b9050613bd36001600160a01b038316828861470f565b604051632a42068d60e11b815273def171fe48cf0115b1d80b88dc8eab59176fee57906354840d1a90613c10908990899089908990600401615a33565b600060405180830381600087803b158015613c2a57600080fd5b505af1158015613c3e573d6000803e3d6000fd5b50505050505050505050565b60006139bd8284615a5d565b6000818152600c602052604081205460ff1615613c9a5760405162461bcd60e51b8152602060048201526002602482015261181b60f11b6044820152606401610965565b83613ccc5760405162461bcd60e51b8152602060048201526002602482015261303760f01b6044820152606401610965565b8360a081901c6000613cdc61143c565b90506000613d0e7f0000000000000000000000000000000000000000000000000000000000000000611543858561407b565b90506000613db66127106115437f00000000000000000000000000000000000000000000000000000000000000006001600160a01b031663b6268e5d6040518163ffffffff1660e01b815260040160206040518083038186803b158015613d7457600080fd5b505afa158015613d88573d6000803e3d6000fd5b505050506040513d601f19601f82011682018060405250810190613dac919061597b565b859060ff1661407b565b905087613dc383836139b1565b1015613df65760405162461bcd60e51b8152602060048201526002602482015261303960f01b6044820152606401610965565b6000613e0689610f2f85856139b1565b9050600080613e3660007f000000000000000000000000000000000000000000000000000000000000000061330b565b90925090506001600160a01b038d16613e8c57613e5385856139b1565b821015613e875760405162461bcd60e51b8152602060048201526002602482015261060760f31b6044820152606401610965565b613f04565b7f00000000000000000000000000000000000000000000000000000000000000006001600160a01b03168d6001600160a01b03161415613f0457613ed085856139b1565b811015613f045760405162461bcd60e51b8152602060048201526002602482015261189960f11b6044820152606401610965565b613f0e8d856134a6565b613f188d866147d0565b613f218a614413565b7f00000000000000000000000000000000000000000000000000000000000000006001600160a01b03168d6001600160a01b03161415613f6657613f668d89856138ba565b604051630852cd8d60e31b8152600481018890527f00000000000000000000000000000000000000000000000000000000000000006001600160a01b0316906342966c6890602401602060405180830381600087803b158015613fc857600080fd5b505af1158015613fdc573d6000803e3d6000fd5b505050506040513d601f19601f8201168201806040525081019061400091906156ce565b61400957600080fd5b604080516001600160a01b038a16815260208101899052908101869052606081018790526080810184905260a081018b90527fa9da34e5e4a956b744307ae7611795634e8365951073bf049d76b64b2ae7a0589060c00160405180910390a15060019c9b505050505050505050505050565b60006139bd8284615a75565b60006139bd8284615a94565b6002819055604080518281524260208201527fa1cc12e33e9907b789fd3c10ea0afd9d3e563e2db44d84c7269534f1046d1ca1910160405180910390a150565b600073def171fe48cf0115b1d80b88dc8eab59176fee576001600160a01b031663d2c4b5986040518163ffffffff1660e01b815260040160206040518083038186803b15801561412257600080fd5b505afa158015614136573d6000803e3d6000fd5b505050506040513d601f19601f8201168201806040525081019061415a9190615998565b90506141828160408401356141726020860186615314565b6001600160a01b0316919061470f565b6040516354e3f31b60e01b815273def171fe48cf0115b1d80b88dc8eab59176fee57906354e3f31b906141b9908590600401615bba565b602060405180830381600087803b1580156141d357600080fd5b505af11580156141e7573d6000803e3d6000fd5b505050506040513d601f19601f820116820180604052508101906139ac919061579c565b600080546001600160a01b038381166001600160a01b0319831681178455604051919092169283917f8be0079c531659141344cd1fd0a4f28419497f9722a3daafe3b4186f6b6457e09190a35050565b60007f00000000000000000000000000000000000000000000000000000000000000006005548585854260405160200161429a96959493929190615d70565b6040516020818303038152906040528051906020012090506040518060a0016040528082815260200185858080601f01602080910402602001604051908101604052809392919081815260200183838082843760009201829052509385525050336020808501919091526040808501889052426060909501949094526005548352600481529290912083518155838301518051919361434193506001850192910190614be5565b5060408201516002820180546001600160a01b0319166001600160a01b0390921691909117905560608201516003820155608090910151600490910155614386614830565b600554614394906001613c4a565b6005556143a0826148e9565b7faaa4c278970337923c885845b00985ecf5082317e2f9abf72a27b4d35255d6728185853386426040516143d996959493929190615dac565b60405180910390a150505050565b6000818484111561440b5760405162461bcd60e51b81526004016109659190615ded565b505050900390565b6000908152600c60205260409020805460ff19166001179055565b6040516001600160a01b03808516602483015283166044820152606481018290526113449085906323b872dd60e01b906084015b60408051601f198184030181529190526020810180516001600160e01b03166001600160e01b03199093169290921790915261493e565b6000818152600c602052604081205460ff16156144dd5760405162461bcd60e51b8152602060048201526002602482015261181b60f11b6044820152606401610965565b8261450f5760405162461bcd60e51b8152602060048201526002602482015261303760f01b6044820152606401610965565b8260a081901c600061451f61143c565b9050600061455182611543857f000000000000000000000000000000000000000000000000000000000000000061407b565b6040516340c10f1960e01b81526001600160a01b038681166004830152602482018390529192507f0000000000000000000000000000000000000000000000000000000000000000909116906340c10f1990604401602060405180830381600087803b1580156145c057600080fd5b505af11580156145d4573d6000803e3d6000fd5b505050506040513d601f19601f820116820180604052508101906145f891906156ce565b506146038884614a10565b61460c86614413565b7fdfaf4e23f7030adafec91a682e05bf9fb30c721f9cec3d8bcfae0459c5362db1848483857f00000000000000000000000000000000000000000000000000000000000000006001600160a01b031663424192556040518163ffffffff1660e01b815260040160206040518083038186803b15801561468a57600080fd5b505afa15801561469e573d6000803e3d6000fd5b505050506040513d601f19601f820116820180604052508101906146c2919061597b565b604080516001600160a01b039096168652602086019490945292840191909152606083015260ff16608082015260a0810188905260c00160405180910390a1506001979650505050505050565b604051636eb1769f60e11b81523060048201526001600160a01b038381166024830152600091839186169063dd62ed3e9060440160206040518083038186803b15801561475b57600080fd5b505afa15801561476f573d6000803e3d6000fd5b505050506040513d601f19601f82011682018060405250810190614793919061579c565b61479d9190615a5d565b6040516001600160a01b03851660248201526044810182905290915061134490859063095ea7b360e01b90606401614462565b6040805180820182526002815261031360f41b6020808301919091526001600160a01b0385166000908152600b90915291909120546148109183906143e7565b6001600160a01b039092166000908152600b602052604090209190915550565b60065460009061484190600a613c4a565b9050600554811061485157506005545b60065442905b828110156139ac576002546000828152600460208190526040909120015483916148819190613c4a565b10156148d7576000818152600460205260408120818155906148a66001830182614bab565b506002810180546001600160a01b03191690556000600382018190556004909101556148d3816001613c4a565b6006555b806148e181615821565b915050614857565b600a546149115761491160008052600b602052600080516020615e1d83398151915254600a55565b604080518082019091526002815261189960f11b6020820152600a546149389183906143e7565b600a5550565b6000614993826040518060400160405280602081526020017f5361666545524332303a206c6f772d6c6576656c2063616c6c206661696c6564815250856001600160a01b0316614a339092919063ffffffff16565b8051909150156139ac57808060200190518101906149b191906156ce565b6139ac5760405162461bcd60e51b815260206004820152602a60248201527f5361666545524332303a204552433230206f7065726174696f6e20646964206e6044820152691bdd081cdd58d8d9595960b21b6064820152608401610965565b6001600160a01b0382166000908152600b60205260409020546148109082613c4a565b6060614a428484600085614a4a565b949350505050565b606082471015614aab5760405162461bcd60e51b815260206004820152602660248201527f416464726573733a20696e73756666696369656e742062616c616e636520666f6044820152651c8818d85b1b60d21b6064820152608401610965565b843b614af95760405162461bcd60e51b815260206004820152601d60248201527f416464726573733a2063616c6c20746f206e6f6e2d636f6e74726163740000006044820152606401610965565b600080866001600160a01b03168587604051614b159190615e00565b60006040518083038185875af1925050503d8060008114614b52576040519150601f19603f3d011682016040523d82523d6000602084013e614b57565b606091505b5091509150614b67828286614b72565b979650505050505050565b60608315614b815750816139bd565b825115614b915782518084602001fd5b8160405162461bcd60e51b81526004016109659190615ded565b508054614bb7906157ec565b6000825580601f10614bc7575050565b601f0160209004906000526020600020908101906133cd9190614c69565b828054614bf1906157ec565b90600052602060002090601f016020900481019282614c135760008555614c59565b82601f10614c2c57805160ff1916838001178555614c59565b82800160010185558215614c59579182015b82811115614c59578251825591602001919060010190614c3e565b50614c65929150614c69565b5090565b5b80821115614c655760008155600101614c6a565b634e487b7160e01b600052600160045260246000fd5b6001600160a01b03811681146133cd57600080fd5b8035614cb481614c94565b919050565b634e487b7160e01b600052604160045260246000fd5b604051601f8201601f191681016001600160401b0381118282101715614cf757614cf7614cb9565b604052919050565b60006001600160401b03821115614d1857614d18614cb9565b5060051b60200190565b600082601f830112614d3357600080fd5b81356020614d48614d4383614cff565b614ccf565b82815260059290921b84018101918181019086841115614d6757600080fd5b8286015b84811015614d825780358352918301918301614d6b565b509695505050505050565b60008060008060008060c08789031215614da657600080fd5b8635614db181614c94565b95506020870135614dc181614c94565b945060408701359350606087013592506080870135915060a08701356001600160401b03811115614df157600080fd5b614dfd89828a01614d22565b9150509295509295509295565b80151581146133cd57600080fd5b8035614cb481614e0a565b60008083601f840112614e3557600080fd5b5081356001600160401b03811115614e4c57600080fd5b6020830191508360208260051b8501011115614e6757600080fd5b9250929050565b600080600080600080600060c0888a031215614e8957600080fd5b8735614e9481614e0a565b96506020880135614ea481614c94565b955060408801359450606088013593506080880135925060a08801356001600160401b03811115614ed457600080fd5b614ee08a828b01614e23565b989b979a50959850939692959293505050565b600060208284031215614f0557600080fd5b5035919050565b60005b83811015614f27578181015183820152602001614f0f565b838111156113445750506000910152565b60008151808452614f50816020860160208601614f0c565b601f01601f19169290920160200192915050565b85815260a060208201526000614f7d60a0830187614f38565b6001600160a01b0395909516604083015250606081019290925260809091015292915050565b60006020808301818452808551808352604092508286019150828160051b87010184880160005b8381101561503357603f19898403018552815160a08151855288820151818a870152614ff882870182614f38565b838a01516001600160a01b0316878b015260608085015190880152608093840151939096019290925250509386019390860190600101614fca565b509098975050505050505050565b6000806000806080858703121561505757600080fd5b843561506281614c94565b966020860135965060408601359560600135945092505050565b600082601f83011261508d57600080fd5b8135602061509d614d4383614cff565b82815260059290921b840181019181810190868411156150bc57600080fd5b8286015b84811015614d825780356150d381614c94565b83529183019183016150c0565b60ff811681146133cd57600080fd5b8035614cb4816150e0565b600080600080600080600080610100898b03121561511757600080fd5b883561512281614c94565b97506020898101356001600160401b038082111561513f57600080fd5b61514b8d838e0161507c565b995060408c013591508082111561516157600080fd5b508a01601f81018c1361517357600080fd5b8035615181614d4382614cff565b81815260059190911b8201830190838101908e8311156151a057600080fd5b928401925b828410156151c75783356151b881614e0a565b825292840192908401906151a5565b809a5050505050506151db60608a016150ef565b94506151e960808a016150ef565b979a969950949793969560a0850135955060c08501359460e001359350915050565b6000806040838503121561521e57600080fd5b823561522981614c94565b946020939093013593505050565b6000806040838503121561524a57600080fd5b823561525581614c94565b9150602083013561526581614c94565b809150509250929050565b60006101e0828403121561528357600080fd5b50919050565b60006020828403121561529b57600080fd5b81356001600160401b038111156152b157600080fd5b614a4284828501615270565b600081518084526020808501945080840160005b838110156152f65781516001600160a01b0316875295820195908201906001016152d1565b509495945050505050565b6020815260006139bd60208301846152bd565b60006020828403121561532657600080fd5b81356139bd81614c94565b6000806000806080858703121561534757600080fd5b843561535281614c94565b9350602085013592506040850135915060608501356001600160401b0381111561537b57600080fd5b61538787828801614d22565b91505092959194509250565b60008083601f8401126153a557600080fd5b5081356001600160401b038111156153bc57600080fd5b602083019150836020828501011115614e6757600080fd5b6000806000604084860312156153e957600080fd5b83356001600160401b038082111561540057600080fd5b61540c87838801615393565b9095509350602086013591508082111561542557600080fd5b5061543286828701615270565b9150509250925092565b6000806000806080858703121561545257600080fd5b84356001600160401b038082111561546957600080fd5b61547588838901614d22565b95506020870135945060408701359350606087013591508082111561549957600080fd5b5061538787828801614d22565b600080604083850312156154b957600080fd5b50508035926020909101359150565b6000806000606084860312156154dd57600080fd5b83356154e881614c94565b95602085013595506040909401359392505050565b600080600080600080600080600060e08a8c03121561551b57600080fd5b89356001600160401b038082111561553257600080fd5b61553e8d838e01615393565b909b50995060208c0135915061555382614e0a565b90975060408b01359061556582614c94565b90965060608b0135955060808b0135945060a08b0135935060c08b0135908082111561559057600080fd5b5061559d8c828d01614e23565b915080935050809150509295985092959850929598565b60008060008060008060c087890312156155cd57600080fd5b8635955060208088013595506040880135945060608801356001600160401b03808211156155fa57600080fd5b6156068b838c0161507c565b955060808a013591508082111561561c57600080fd5b508801601f81018a1361562e57600080fd5b803561563c614d4382614cff565b81815260059190911b8201830190838101908c83111561565b57600080fd5b928401925b8284101561567957833582529284019290840190615660565b809650505050505061568d60a08801614e18565b90509295509295509295565b6020808252818101527f4f776e61626c653a2063616c6c6572206973206e6f7420746865206f776e6572604082015260600190565b6000602082840312156156e057600080fd5b81516139bd81614e0a565b6020808252601f908201527f5265656e7472616e637947756172643a207265656e7472616e742063616c6c00604082015260600190565b634e487b7160e01b600052603260045260246000fd5b634e487b7160e01b600052601160045260246000fd5b60008282101561576057615760615738565b500390565b60208082526019908201527f42616c616e6365206973206e6f742073756666696369656e7400000000000000604082015260600190565b6000602082840312156157ae57600080fd5b5051919050565b6020808252601c908201527f526563656976656420616d6f756e7420696e73756666696369656e7400000000604082015260600190565b600181811c9082168061580057607f821691505b6020821081141561528357634e487b7160e01b600052602260045260246000fd5b600060001982141561583557615835615738565b5060010190565b600060ff821660ff84168060ff0382111561585957615859615738565b019392505050565b600060ff821660ff81141561587857615878615738565b60010192915050565b600060ff82168061589457615894615738565b6000190192915050565b6001600160a01b03958616815293909416602084015260408301919091526060820152608081019190915260a00190565b60208082526034908201527f526563656976656420616d6f756e7420686173206e6f74206d657420746865206040820152736d696e20666f7220464c4f57203220737761707360601b606082015260800190565b6001600160a01b038416815260606020808301829052600091615948908401866152bd565b838103604085015284518082528286019183019060005b818110156150335783518352928401929184019160010161595f565b60006020828403121561598d57600080fd5b81516139bd816150e0565b6000602082840312156159aa57600080fd5b81516139bd81614c94565b8183526000602080850194508260005b858110156152f65781356159d881614c94565b6001600160a01b0316875295820195908201906001016159c5565b60018060a01b038716815285602082015284604082015283606082015260a060808201526000615a2760a0830184866159b5565b98975050505050505050565b848152836020820152606060408201526000615a536060830184866159b5565b9695505050505050565b60008219821115615a7057615a70615738565b500190565b6000816000190483118215151615615a8f57615a8f615738565b500290565b600082615ab157634e487b7160e01b600052601260045260246000fd5b500490565b6000808335601e19843603018112615acd57600080fd5b83016020810192503590506001600160401b03811115615aec57600080fd5b8060051b3603831315614e6757600080fd5b6000808335601e19843603018112615b1557600080fd5b83016020810192503590506001600160401b03811115615b3457600080fd5b803603831315614e6757600080fd5b81835281816020850137506000828201602090810191909152601f909101601f19169091010190565b81835260006001600160fb1b03831115615b8557600080fd5b8260051b8083602087013760009401602001938452509192915050565b80356001600160801b031981168114614cb457600080fd5b60208152615bdb60208201615bce84614ca9565b6001600160a01b03169052565b6000615be960208401614ca9565b6001600160a01b0381166040840152506040830135606083015260608301356080830152608083013560a0830152615c2460a0840184615ab6565b6101e08060c0860152615c3c610200860183856159b5565b9250615c4b60c0870187615afe565b9250601f19808786030160e0880152615c65858584615b43565b9450615c7460e0890189615ab6565b94509150610100818887030181890152615c8f868685615b6c565b9550615c9d818a018a615ab6565b9550925050610120818887030181890152615cb9868685615b6c565b9550615cc6818a01614ca9565b9450506101409150615ce2828801856001600160a01b03169052565b615ced828901614ca9565b93506101609150615d08828801856001600160a01b03169052565b61018093508188013584880152615d2184890189615afe565b945091506101a0818887030181890152615d3c868685615b43565b95506101c094508089013585890152505050615d59828701615ba2565b6001600160801b0319169401939093529392505050565b6bffffffffffffffffffffffff198760601b16815285601482015283856034830137603493019283019190915260548201526074019392505050565b86815260a060208201526000615dc660a083018789615b43565b6001600160a01b039590951660408301525060608101929092526080909101529392505050565b6020815260006139bd6020830184614f38565b60008251615e12818460208701614f0c565b919091019291505056fedf7de25b7f1fd6d0b5205f0e18f1f35bd7b8d84cce336588d184533ce43a6f76a2646970667358221220ec7430e46c43013cfca8214dbdf5ef179d5fbf6fafa8206ff1a773de0b18b61164736f6c63430008090033",
  "linkReferences": {},
  "deployedLinkReferences": {}
}