{
  "_format": "hh-sol-artifact-1",
  "contractName": "SwapContract",
  "sourceName": "contracts/SwapContract.sol",
  "abi": [
    {
      "inputs": [
        {
          "internalType": "address",
          "name": "_lpToken",
          "type": "address"
        },
        {
          "internalType": "address",
          "name": "_btct",
          "type": "address"
        },
        {
          "internalType": "uint256",
          "name": "_existingBTCFloat",
          "type": "uint256"
        }
      ],
      "stateMutability": "nonpayable",
      "type": "constructor"
    },
    {
      "anonymous": false,
      "inputs": [
        {
          "indexed": false,
          "internalType": "address",
          "name": "token",
          "type": "address"
        },
        {
          "indexed": false,
          "internalType": "uint256",
          "name": "amountOfLP",
          "type": "uint256"
        },
        {
          "indexed": false,
          "internalType": "uint256",
          "name": "amountOfFloat",
          "type": "uint256"
        },
        {
          "indexed": false,
          "internalType": "uint256",
          "name": "currentPriceLP",
          "type": "uint256"
        },
        {
          "indexed": false,
          "internalType": "uint256",
          "name": "withdrawal",
          "type": "uint256"
        },
        {
          "indexed": false,
          "internalType": "bytes32",
          "name": "txid",
          "type": "bytes32"
        }
      ],
      "name": "BurnLPTokensForFloat",
      "type": "event"
    },
    {
      "anonymous": false,
      "inputs": [
        {
          "indexed": false,
          "internalType": "address",
          "name": "token",
          "type": "address"
        },
        {
          "indexed": false,
          "internalType": "address",
          "name": "user",
          "type": "address"
        },
        {
          "indexed": false,
          "internalType": "uint256",
          "name": "amount",
          "type": "uint256"
        },
        {
          "indexed": false,
          "internalType": "uint256",
          "name": "balance",
          "type": "uint256"
        },
        {
          "indexed": false,
          "internalType": "uint256",
          "name": "Timestamp",
          "type": "uint256"
        }
      ],
      "name": "Deposit",
      "type": "event"
    },
    {
      "anonymous": false,
      "inputs": [
        {
          "indexed": false,
          "internalType": "uint256",
          "name": "rewardLPTsForNodes",
          "type": "uint256"
        }
      ],
      "name": "DistributeNodeRewards",
      "type": "event"
    },
    {
      "anonymous": false,
      "inputs": [
        {
          "indexed": false,
          "internalType": "address",
          "name": "to",
          "type": "address"
        },
        {
          "indexed": false,
          "internalType": "uint256",
          "name": "amountOfFloat",
          "type": "uint256"
        },
        {
          "indexed": false,
          "internalType": "uint256",
          "name": "amountOfLP",
          "type": "uint256"
        },
        {
          "indexed": false,
          "internalType": "uint256",
          "name": "currentPriceLP",
          "type": "uint256"
        },
        {
          "indexed": false,
          "internalType": "uint256",
          "name": "depositFees",
          "type": "uint256"
        },
        {
          "indexed": false,
          "internalType": "bytes32",
          "name": "txid",
          "type": "bytes32"
        }
      ],
      "name": "IssueLPTokensForFloat",
      "type": "event"
    },
    {
      "anonymous": false,
      "inputs": [
        {
          "indexed": true,
          "internalType": "address",
          "name": "previousOwner",
          "type": "address"
        },
        {
          "indexed": true,
          "internalType": "address",
          "name": "newOwner",
          "type": "address"
        }
      ],
      "name": "OwnershipTransferred",
      "type": "event"
    },
    {
      "anonymous": false,
      "inputs": [
        {
          "indexed": false,
          "internalType": "address",
          "name": "feesToken",
          "type": "address"
        },
        {
          "indexed": false,
          "internalType": "uint256",
          "name": "rewards",
          "type": "uint256"
        },
        {
          "indexed": false,
          "internalType": "uint256",
          "name": "amountLPTokensForNode",
          "type": "uint256"
        },
        {
          "indexed": false,
          "internalType": "uint256",
          "name": "currentPriceLP",
          "type": "uint256"
        }
      ],
      "name": "RewardsCollection",
      "type": "event"
    },
    {
      "anonymous": false,
      "inputs": [
        {
          "indexed": false,
          "internalType": "address",
          "name": "from",
          "type": "address"
        },
        {
          "indexed": false,
          "internalType": "address",
          "name": "to",
          "type": "address"
        },
        {
          "indexed": false,
          "internalType": "uint256",
          "name": "amount",
          "type": "uint256"
        }
      ],
      "name": "Swap",
      "type": "event"
    },
    {
      "anonymous": false,
      "inputs": [
        {
          "indexed": false,
          "internalType": "address",
          "name": "token",
          "type": "address"
        },
        {
          "indexed": false,
          "internalType": "address",
          "name": "user",
          "type": "address"
        },
        {
          "indexed": false,
          "internalType": "uint256",
          "name": "amount",
          "type": "uint256"
        },
        {
          "indexed": false,
          "internalType": "uint256",
          "name": "balance",
          "type": "uint256"
        }
      ],
      "name": "Withdraw",
      "type": "event"
    },
    {
      "stateMutability": "nonpayable",
      "type": "fallback"
    },
    {
      "inputs": [],
      "name": "BTCT_ADDR",
      "outputs": [
        {
          "internalType": "address",
          "name": "",
          "type": "address"
        }
      ],
      "stateMutability": "view",
      "type": "function"
    },
    {
      "inputs": [
        {
          "internalType": "address",
          "name": "_token",
          "type": "address"
        }
      ],
      "name": "balanceOf",
      "outputs": [
        {
          "internalType": "uint256",
          "name": "",
          "type": "uint256"
        }
      ],
      "stateMutability": "view",
      "type": "function"
    },
    {
      "inputs": [
        {
          "internalType": "address",
          "name": "_newOwner",
          "type": "address"
        },
        {
          "internalType": "bytes32[]",
          "name": "_rewardAddressAndAmounts",
          "type": "bytes32[]"
        },
        {
          "internalType": "bool[]",
          "name": "_isRemoved",
          "type": "bool[]"
        },
        {
          "internalType": "uint8",
          "name": "_churnedInCount",
          "type": "uint8"
        },
        {
          "internalType": "uint8",
          "name": "_tssThreshold",
          "type": "uint8"
        },
        {
          "internalType": "uint8",
          "name": "_nodeRewardsRatio",
          "type": "uint8"
        },
        {
          "internalType": "uint8",
          "name": "_withdrawalFeeBPS",
          "type": "uint8"
        }
      ],
      "name": "churn",
      "outputs": [
        {
          "internalType": "bool",
          "name": "",
          "type": "bool"
        }
      ],
      "stateMutability": "nonpayable",
      "type": "function"
    },
    {
      "inputs": [],
      "name": "churnedInCount",
      "outputs": [
        {
          "internalType": "uint8",
          "name": "",
          "type": "uint8"
        }
      ],
      "stateMutability": "view",
      "type": "function"
    },
    {
      "inputs": [
        {
          "internalType": "address",
          "name": "_destToken",
          "type": "address"
        },
        {
          "internalType": "uint256",
          "name": "_incomingAmount",
          "type": "uint256"
        },
        {
          "internalType": "uint256",
          "name": "_minerFee",
          "type": "uint256"
        },
        {
          "internalType": "uint256",
          "name": "_rewardsAmount",
          "type": "uint256"
        }
      ],
      "name": "collectSwapFeesForBTC",
      "outputs": [
        {
          "internalType": "bool",
          "name": "",
          "type": "bool"
        }
      ],
      "stateMutability": "nonpayable",
      "type": "function"
    },
    {
      "inputs": [],
      "name": "depositFeesBPS",
      "outputs": [
        {
          "internalType": "uint8",
          "name": "",
          "type": "uint8"
        }
      ],
      "stateMutability": "view",
      "type": "function"
    },
    {
      "inputs": [],
      "name": "distributeNodeRewards",
      "outputs": [
        {
          "internalType": "bool",
          "name": "",
          "type": "bool"
        }
      ],
      "stateMutability": "nonpayable",
      "type": "function"
    },
    {
      "inputs": [
        {
          "internalType": "address",
          "name": "paraSwapAddress",
          "type": "address"
        },
        {
          "components": [
            {
              "internalType": "address",
              "name": "fromToken",
              "type": "address"
            },
            {
              "internalType": "address",
              "name": "toToken",
              "type": "address"
            },
            {
              "internalType": "uint256",
              "name": "fromAmount",
              "type": "uint256"
            },
            {
              "internalType": "uint256",
              "name": "toAmount",
              "type": "uint256"
            },
            {
              "internalType": "uint256",
              "name": "expectedAmount",
              "type": "uint256"
            },
            {
              "internalType": "address[]",
              "name": "callees",
              "type": "address[]"
            },
            {
              "internalType": "bytes",
              "name": "exchangeData",
              "type": "bytes"
            },
            {
              "internalType": "uint256[]",
              "name": "startIndexes",
              "type": "uint256[]"
            },
            {
              "internalType": "uint256[]",
              "name": "values",
              "type": "uint256[]"
            },
            {
              "internalType": "address payable",
              "name": "beneficiary",
              "type": "address"
            },
            {
              "internalType": "address payable",
              "name": "partner",
              "type": "address"
            },
            {
              "internalType": "uint256",
              "name": "feePercent",
              "type": "uint256"
            },
            {
              "internalType": "bytes",
              "name": "permit",
              "type": "bytes"
            },
            {
              "internalType": "uint256",
              "name": "deadline",
              "type": "uint256"
            },
            {
              "internalType": "bytes16",
              "name": "uuid",
              "type": "bytes16"
            }
          ],
          "internalType": "struct Utils.SimpleData",
          "name": "data",
          "type": "tuple"
        }
      ],
      "name": "doParaSwap",
      "outputs": [],
      "stateMutability": "payable",
      "type": "function"
    },
    {
      "inputs": [],
      "name": "feesLPTokensForNode",
      "outputs": [
        {
          "internalType": "uint256",
          "name": "",
          "type": "uint256"
        }
      ],
      "stateMutability": "view",
      "type": "function"
    },
    {
      "inputs": [],
      "name": "getActiveNodes",
      "outputs": [
        {
          "internalType": "bytes32[]",
          "name": "",
          "type": "bytes32[]"
        }
      ],
      "stateMutability": "view",
      "type": "function"
    },
    {
      "inputs": [],
      "name": "getCurrentPriceLP",
      "outputs": [
        {
          "internalType": "uint256",
          "name": "nowPrice",
          "type": "uint256"
        }
      ],
      "stateMutability": "view",
      "type": "function"
    },
    {
      "inputs": [
        {
          "internalType": "address",
          "name": "_token",
          "type": "address"
        },
        {
          "internalType": "uint256",
          "name": "_amountOfFloat",
          "type": "uint256"
        }
      ],
      "name": "getDepositFeeRate",
      "outputs": [
        {
          "internalType": "uint256",
          "name": "depositFeeRate",
          "type": "uint256"
        }
      ],
      "stateMutability": "view",
      "type": "function"
    },
    {
      "inputs": [
        {
          "internalType": "address",
          "name": "_tokenA",
          "type": "address"
        },
        {
          "internalType": "address",
          "name": "_tokenB",
          "type": "address"
        }
      ],
      "name": "getFloatReserve",
      "outputs": [
        {
          "internalType": "uint256",
          "name": "reserveA",
          "type": "uint256"
        },
        {
          "internalType": "uint256",
          "name": "reserveB",
          "type": "uint256"
        }
      ],
      "stateMutability": "view",
      "type": "function"
    },
    {
      "inputs": [],
      "name": "initialExchangeRate",
      "outputs": [
        {
          "internalType": "uint256",
          "name": "",
          "type": "uint256"
        }
      ],
      "stateMutability": "view",
      "type": "function"
    },
    {
      "inputs": [
        {
          "internalType": "bytes32",
          "name": "_txid",
          "type": "bytes32"
        }
      ],
      "name": "isTxUsed",
      "outputs": [
        {
          "internalType": "bool",
          "name": "",
          "type": "bool"
        }
      ],
      "stateMutability": "view",
      "type": "function"
    },
    {
      "inputs": [],
      "name": "lockedLPTokensForNode",
      "outputs": [
        {
          "internalType": "uint256",
          "name": "",
          "type": "uint256"
        }
      ],
      "stateMutability": "view",
      "type": "function"
    },
    {
      "inputs": [],
      "name": "lpToken",
      "outputs": [
        {
          "internalType": "address",
          "name": "",
          "type": "address"
        }
      ],
      "stateMutability": "view",
      "type": "function"
    },
    {
      "inputs": [
        {
          "internalType": "address",
          "name": "_destToken",
          "type": "address"
        },
        {
          "internalType": "bytes32[]",
          "name": "_addressesAndAmounts",
          "type": "bytes32[]"
        },
        {
          "internalType": "uint256",
          "name": "_totalSwapped",
          "type": "uint256"
        },
        {
          "internalType": "uint256",
          "name": "_rewardsAmount",
          "type": "uint256"
        },
        {
          "internalType": "bytes32[]",
          "name": "_redeemedFloatTxIds",
          "type": "bytes32[]"
        }
      ],
      "name": "multiTransferERC20TightlyPacked",
      "outputs": [
        {
          "internalType": "bool",
          "name": "",
          "type": "bool"
        }
      ],
      "stateMutability": "nonpayable",
      "type": "function"
    },
    {
      "inputs": [],
      "name": "nodeRewardsRatio",
      "outputs": [
        {
          "internalType": "uint8",
          "name": "",
          "type": "uint8"
        }
      ],
      "stateMutability": "view",
      "type": "function"
    },
    {
      "inputs": [],
      "name": "owner",
      "outputs": [
        {
          "internalType": "address",
          "name": "",
          "type": "address"
        }
      ],
      "stateMutability": "view",
      "type": "function"
    },
    {
      "inputs": [
        {
          "internalType": "address",
          "name": "_token",
          "type": "address"
        },
        {
          "internalType": "bytes32",
          "name": "_addressesAndAmountOfFloat",
          "type": "bytes32"
        },
        {
          "internalType": "bool",
          "name": "_zerofee",
          "type": "bool"
        },
        {
          "internalType": "bytes32",
          "name": "_txid",
          "type": "bytes32"
        }
      ],
      "name": "recordIncomingFloat",
      "outputs": [
        {
          "internalType": "bool",
          "name": "",
          "type": "bool"
        }
      ],
      "stateMutability": "nonpayable",
      "type": "function"
    },
    {
      "inputs": [
        {
          "internalType": "address",
          "name": "_token",
          "type": "address"
        },
        {
          "internalType": "bytes32",
          "name": "_addressesAndAmountOfLPtoken",
          "type": "bytes32"
        },
        {
          "internalType": "uint256",
          "name": "_minerFee",
          "type": "uint256"
        },
        {
          "internalType": "bytes32",
          "name": "_txid",
          "type": "bytes32"
        }
      ],
      "name": "recordOutcomingFloat",
      "outputs": [
        {
          "internalType": "bool",
          "name": "",
          "type": "bool"
        }
      ],
      "stateMutability": "nonpayable",
      "type": "function"
    },
    {
      "inputs": [
        {
          "internalType": "address",
          "name": "_destToken",
          "type": "address"
        },
        {
          "internalType": "address",
          "name": "_to",
          "type": "address"
        },
        {
          "internalType": "uint256",
          "name": "_amount",
          "type": "uint256"
        },
        {
          "internalType": "uint256",
          "name": "_totalSwapped",
          "type": "uint256"
        },
        {
          "internalType": "bytes32[]",
          "name": "_redeemedFloatTxIds",
          "type": "bytes32[]"
        }
      ],
      "name": "recordSkyPoolsTX",
      "outputs": [
        {
          "internalType": "bool",
          "name": "",
          "type": "bool"
        }
      ],
      "stateMutability": "nonpayable",
      "type": "function"
    },
    {
      "inputs": [
        {
          "internalType": "uint256",
          "name": "_minerFee",
          "type": "uint256"
        },
        {
          "internalType": "bytes32",
          "name": "_txid",
          "type": "bytes32"
        }
      ],
      "name": "recordUTXOSweepMinerFee",
      "outputs": [
        {
          "internalType": "bool",
          "name": "",
          "type": "bool"
        }
      ],
      "stateMutability": "nonpayable",
      "type": "function"
    },
    {
      "inputs": [
        {
          "internalType": "address",
          "name": "_token",
          "type": "address"
        },
        {
          "internalType": "uint256",
          "name": "_amount",
          "type": "uint256"
        }
      ],
      "name": "redeemERC20Token",
      "outputs": [
        {
          "internalType": "bool",
          "name": "",
          "type": "bool"
        }
      ],
      "stateMutability": "nonpayable",
      "type": "function"
    },
    {
      "inputs": [],
      "name": "renounceOwnership",
      "outputs": [],
      "stateMutability": "nonpayable",
      "type": "function"
    },
    {
      "inputs": [
        {
          "internalType": "address",
          "name": "_destToken",
          "type": "address"
        },
        {
          "internalType": "address",
          "name": "_to",
          "type": "address"
        },
        {
          "internalType": "uint256",
          "name": "_amount",
          "type": "uint256"
        },
        {
          "internalType": "uint256",
          "name": "_totalSwapped",
          "type": "uint256"
        },
        {
          "internalType": "uint256",
          "name": "_rewardsAmount",
          "type": "uint256"
        },
        {
          "internalType": "bytes32[]",
          "name": "_redeemedFloatTxIds",
          "type": "bytes32[]"
        }
      ],
      "name": "singleTransferERC20",
      "outputs": [
        {
          "internalType": "bool",
          "name": "",
          "type": "bool"
        }
      ],
      "stateMutability": "nonpayable",
      "type": "function"
    },
    {
      "inputs": [
        {
          "internalType": "address",
          "name": "token",
          "type": "address"
        },
        {
          "internalType": "uint256",
          "name": "amount",
          "type": "uint256"
        }
      ],
      "name": "spDeposit",
      "outputs": [],
      "stateMutability": "nonpayable",
      "type": "function"
    },
    {
      "inputs": [],
      "name": "spDeposit",
      "outputs": [],
      "stateMutability": "payable",
      "type": "function"
    },
    {
      "inputs": [
        {
          "internalType": "address",
          "name": "destinationAddressForBTC",
          "type": "address"
        }
      ],
      "name": "spParaSwapSimpleSwapAndRecord",
      "outputs": [],
      "stateMutability": "nonpayable",
      "type": "function"
    },
    {
      "inputs": [
        {
          "internalType": "uint256",
          "name": "",
          "type": "uint256"
        }
      ],
      "name": "spPendingTXs",
      "outputs": [
        {
          "internalType": "uint256",
          "name": "SwapID",
          "type": "uint256"
        },
        {
          "internalType": "address",
          "name": "DestAddr",
          "type": "address"
        },
        {
          "internalType": "uint256",
          "name": "AmountWBTC",
          "type": "uint256"
        },
        {
          "internalType": "uint256",
          "name": "Timestamp",
          "type": "uint256"
        }
      ],
      "stateMutability": "view",
      "type": "function"
    },
    {
      "inputs": [
        {
          "internalType": "address",
          "name": "",
          "type": "address"
        },
        {
          "internalType": "address",
          "name": "",
          "type": "address"
        }
      ],
      "name": "tokens",
      "outputs": [
        {
          "internalType": "uint256",
          "name": "",
          "type": "uint256"
        }
      ],
      "stateMutability": "view",
      "type": "function"
    },
    {
      "inputs": [
        {
          "internalType": "address",
          "name": "newOwner",
          "type": "address"
        }
      ],
      "name": "transferOwnership",
      "outputs": [],
      "stateMutability": "nonpayable",
      "type": "function"
    },
    {
      "inputs": [],
      "name": "tssThreshold",
      "outputs": [
        {
          "internalType": "uint8",
          "name": "",
          "type": "uint8"
        }
      ],
      "stateMutability": "view",
      "type": "function"
    },
    {
      "inputs": [
        {
          "internalType": "address",
          "name": "",
          "type": "address"
        }
      ],
      "name": "whitelist",
      "outputs": [
        {
          "internalType": "bool",
          "name": "",
          "type": "bool"
        }
      ],
      "stateMutability": "view",
      "type": "function"
    },
    {
      "inputs": [],
      "name": "withdrawalFeeBPS",
      "outputs": [
        {
          "internalType": "uint8",
          "name": "",
          "type": "uint8"
        }
      ],
      "stateMutability": "view",
      "type": "function"
    }
  ],
  "bytecode": "0x60806040523480156200001157600080fd5b5060405162003dbc38038062003dbc8339810160408190526200003491620002bd565b6000620000406200029c565b600080546001600160a01b0319166001600160a01b0383169081178255604051929350917f8be0079c531659141344cd1fd0a4f28419497f9722a3daafe3b4186f6b6457e0908290a350600480546001600160a01b0319166001600160a01b03858116919091178083556040805163313ce56760e01b81529051919092169263313ce56792808201926020929091829003018186803b158015620000e357600080fd5b505afa158015620000f8573d6000803e3d6000fd5b505050506040513d601f19601f820116820180604052508101906200011e9190620002fd565b60ff16600a0a600955600380546001600160a01b0319166001600160a01b0384169081179091556004805460ff60b01b1916602160b11b1760ff60b81b1916601960b91b1760ff60c01b1916600560c21b1781556040805163313ce56760e01b815290516008939263313ce56792808201926020929091829003018186803b158015620001aa57600080fd5b505afa158015620001bf573d6000803e3d6000fd5b505050506040513d601f19601f82011682018060405250810190620001e59190620002fd565b0360ff16600a90810a6008556009546007556000600581905560068190556003546001600160a01b039081168252600260209081526040808420805460ff199081166001908117909255600454909416855290842080548416821790559280527fac33ff75c19e70fe83507db0d683fd3465c996598dc972688b7ace676c89077b80549092169092179055527f13da86008ba1c6922daee3e07db95305ef49ebced9f5467a0b8613fcc6b343e35550620003279050565b3390565b80516001600160a01b0381168114620002b857600080fd5b919050565b600080600060608486031215620002d2578283fd5b620002dd84620002a0565b9250620002ed60208501620002a0565b9150604084015190509250925092565b6000602082840312156200030f578081fd5b815160ff8116811462000320578182fd5b9392505050565b613a8580620003376000396000f3fe60806040526004361061020e5760003560e01c80636d019f3511610118578063c810a539116100a0578063e9e9bf6a1161006f578063e9e9bf6a146105dc578063ec482729146105f1578063f2fde38b1461061f578063f7824bc71461063f578063faefef87146106545761020e565b8063c810a5391461055c578063ca0707e71461057c578063d6b2779a1461059c578063e6ca2084146105bc5761020e565b80638a3e152c116100e75780638a3e152c146104d25780638da5cb5b146104f25780639b19251a14610507578063ad289e7614610527578063b6268e5d146105475761020e565b80636d019f351461046857806370a082311461047d578063715018a61461049d5780638006cc3e146104b25761020e565b80633b6fa1271161019b5780634e54cee01161016a5780634e54cee0146103d1578063508493bc146103f15780635fcbd2851461041157806363f289d9146104265780636b51e919146104465761020e565b80633b6fa12714610367578063424192551461038757806345137e271461039c5780634db75485146103b15761020e565b806312d1441e116101e257806312d1441e146102cb5780631ab7e937146102e05780632586c562146103105780632d55282d14610330578063305ddc94146103525761020e565b806289356f1461023c5780630b68134d146102675780630d63aca71461027c5780630f909486146102a9575b34801561021a57600080fd5b5060405162461bcd60e51b81526004016102339061348d565b60405180910390fd5b34801561024857600080fd5b5061025161065c565b60405161025e91906138ba565b60405180910390f35b34801561027357600080fd5b5061025161066c565b34801561028857600080fd5b5061029c610297366004612c54565b61067c565b60405161025e91906131cc565b3480156102b557600080fd5b506102be6107c7565b60405161025e9190613084565b3480156102d757600080fd5b506102516107d6565b3480156102ec57600080fd5b506103006102fb366004612f72565b6107e6565b60405161025e9493929190613888565b34801561031c57600080fd5b5061029c61032b366004612ea7565b610818565b34801561033c57600080fd5b5061034561090a565b60405161025e919061387f565b610365610360366004612ee1565b610910565b005b34801561037357600080fd5b50610345610382366004612f2b565b610b95565b34801561039357600080fd5b50610251610c21565b3480156103a857600080fd5b50610345610c31565b3480156103bd57600080fd5b5061029c6103cc366004612f2b565b610d29565b3480156103dd57600080fd5b5061029c6103ec366004612cd0565b610e39565b3480156103fd57600080fd5b5061034561040c366004612ba8565b611076565b34801561041d57600080fd5b506102be611093565b34801561043257600080fd5b5061029c610441366004612e60565b6110a2565b34801561045257600080fd5b5061045b611157565b60405161025e9190613188565b34801561047457600080fd5b506103456112b6565b34801561048957600080fd5b50610345610498366004612b70565b6112bc565b3480156104a957600080fd5b506103656112e6565b3480156104be57600080fd5b5061029c6104cd366004612ea7565b611392565b3480156104de57600080fd5b506103656104ed366004612b70565b61148e565b3480156104fe57600080fd5b506102be6114f3565b34801561051357600080fd5b5061029c610522366004612b70565b611502565b34801561053357600080fd5b5061029c610542366004612de6565b611517565b34801561055357600080fd5b5061025161169d565b34801561056857600080fd5b5061029c610577366004612fa2565b6116ad565b34801561058857600080fd5b50610365610597366004612f2b565b6117e1565b3480156105a857600080fd5b5061029c6105b7366004612be0565b61192d565b3480156105c857600080fd5b5061029c6105d7366004612f72565b611a92565b3480156105e857600080fd5b5061029c611aa7565b3480156105fd57600080fd5b5061061161060c366004612ba8565b611cf4565b60405161025e9291906138ac565b34801561062b57600080fd5b5061036561063a366004612b70565b611d1e565b34801561064b57600080fd5b50610345611e20565b610365611e26565b600454600160a01b900460ff1681565b600454600160b01b900460ff1681565b6000610686611ef1565b6001600160a01b03166106976114f3565b6001600160a01b0316146106e0576040805162461bcd60e51b81526020600482018190526024820152600080516020613a09833981519152604482015290519081900360640190fd5b6001600160a01b03871660009081526002602052604090205460ff166107185760405162461bcd60e51b815260040161023390613550565b6001600160a01b03871661073e5760405162461bcd60e51b815260040161023390613674565b600084156107645760035461075f906000906001600160a01b031687611ef5565b610777565b8461077757506003546001600160a01b03165b6004546001600160a01b038981169116141561079b57506004546001600160a01b03165b6107a58185611fd8565b6107ae8361212d565b6107b988888861217c565b506001979650505050505050565b6003546001600160a01b031681565b600454600160a81b900460ff1681565b600160208190526000918252604090912080549181015460028201546003909201546001600160a01b03909116919084565b6000610822611ef1565b6001600160a01b03166108336114f3565b6001600160a01b03161461087c576040805162461bcd60e51b81526020600482018190526024820152600080516020613a09833981519152604482015290519081900360640190fd5b6000610886610c31565b6001600160a01b03871660009081526002602052604090205490915060ff166108c15760405162461bcd60e51b815260040161023390613649565b6108cd86868686612231565b6108d657600080fd5b60019150806108e3610c31565b10156109015760405162461bcd60e51b8152600401610233906136b7565b50949350505050565b60055481565b3361092361014083016101208401612b70565b6001600160a01b0316146109495760405162461bcd60e51b81526004016102339061320e565b6040810135600f600061095f6020850185612b70565b6001600160a01b03168152602081019190915260400160009081209061098d61014085016101208601612b70565b6001600160a01b03166001600160a01b031681526020019081526020016000205410156109cc5760405162461bcd60e51b8152600401610233906132d8565b6003546001600160a01b03166109e56020830183612b70565b6001600160a01b031614610a0b5760405162461bcd60e51b81526004016102339061330f565b6000826001600160a01b031663d2c4b5986040518163ffffffff1660e01b815260040160206040518083038186803b158015610a4657600080fd5b505afa158015610a5a573d6000803e3d6000fd5b505050506040513d601f19601f82011682018060405250810190610a7e9190612b8c565b9050610a8d6020830183612b70565b6001600160a01b031663095ea7b38284604001356040518363ffffffff1660e01b8152600401610abe9291906130bc565b602060405180830381600087803b158015610ad857600080fd5b505af1158015610aec573d6000803e3d6000fd5b505050506040513d601f19601f82011682018060405250810190610b109190612f56565b506040516354e3f31b60e01b81526001600160a01b038416906354e3f31b90610b3d9085906004016136e2565b602060405180830381600087803b158015610b5757600080fd5b505af1158015610b6b573d6000803e3d6000fd5b505050506040513d601f19601f82011682018060405250810190610b8f9190612f8a565b50505050565b600080610ba284846124c9565b90508060ff1660011415610be4576003546001600160a01b03858116911614610bcc576000610bda565b600454600160b81b900460ff165b60ff169150610c1a565b8060ff1660021415610c1a576001600160a01b03841615610c06576000610c14565b600454600160b81b900460ff165b60ff1691505b5092915050565b600454600160b81b900460ff1681565b60035460009081908190610c4f9082906001600160a01b0316611cf4565b915091506000600460009054906101000a90046001600160a01b03166001600160a01b03166318160ddd6040518163ffffffff1660e01b815260040160206040518083038186803b158015610ca357600080fd5b505afa158015610cb7573d6000803e3d6000fd5b505050506040513d601f19601f82011682018060405250810190610cdb9190612f8a565b90508015610d1d57610d18610cfb6005548361258390919063ffffffff16565b600954610d1290610d0c8787612583565b906125e4565b9061263d565b610d21565b6007545b935050505090565b6001600160a01b0382166000908152600f60209081526040808320338452909152812054821115610d6c5760405162461bcd60e51b81526004016102339061361b565b6001600160a01b0383166000908152600f60209081526040808320338452909152902054610d9a90836126a4565b6001600160a01b0384166000908152600f6020908152604080832033808552925290912091909155610dce9084908461217c565b6001600160a01b0383166000908152600f60209081526040808320338085529252918290205491517ff341246adaac6f497bc2a656f546ab9e182111d630394f0c57c710a59a2cb56792610e27928792909187916130d5565b60405180910390a15060015b92915050565b6000610e43611ef1565b6001600160a01b0316610e546114f3565b6001600160a01b031614610e9d576040805162461bcd60e51b81526020600482018190526024820152600080516020613a09833981519152604482015290519081900360640190fd5b60045460ff600160a81b909104811690851610801590610ec1575060ff8460ff1611155b610edd5760405162461bcd60e51b8152600401610233906133ac565b6001840160ff168560ff161015610f065760405162461bcd60e51b815260040161023390613461565b60648360ff161115610f2a5760405162461bcd60e51b8152600401610233906131d7565b60648260ff161115610f4e5760405162461bcd60e51b81526004016102339061342a565b8551875114610f6f5760405162461bcd60e51b8152600401610233906135be565b610f7888611d1e565b60005b8751811015610fe0576000610fa2898381518110610f9557fe5b6020026020010151612701565b509050610fd6818a8481518110610fb557fe5b60200260200101518a8581518110610fc957fe5b602002602001015161270a565b5050600101610f7b565b506060610feb611157565b905060648151111561100f5760405162461bcd60e51b81526004016102339061350f565b50506004805460ff60a01b1916600160a01b60ff968716021760ff60a81b1916600160a81b948616949094029390931760ff60b01b1916600160b01b928516929092029190911760ff60c01b1916600160c01b919093160291909117905550600192915050565b600f60209081526000928352604080842090915290825290205481565b6004546001600160a01b031681565b60006110ac611ef1565b6001600160a01b03166110bd6114f3565b6001600160a01b031614611106576040805162461bcd60e51b81526020600482018190526024820152600080516020613a09833981519152604482015290519081900360640190fd5b6000611110610c31565b6001600160a01b03871660009081526002602052604090205490915060ff1661114b5760405162461bcd60e51b815260040161023390613649565b6108cd868686866127d9565b606060008060005b600e548110156111ba57600c6000600e838154811061117a57fe5b60009182526020808320909101546001600160a01b03168352820192909252604001902054156111b2576111af836001612583565b92505b60010161115f565b5060608267ffffffffffffffff811180156111d457600080fd5b506040519080825280602002602001820160405280156111fe578160200160208202803683370190505b50905060005b600e548110156112ae57600c6000600e838154811061121f57fe5b60009182526020808320909101546001600160a01b03168352820192909252604001902054156112a657600c6000600e838154811061125a57fe5b60009182526020808320909101546001600160a01b03168352820192909252604001902054825183908590811061128d57fe5b60209081029190910101526112a3836001612583565b92505b600101611204565b509250505090565b60075481565b6001600160a01b0381166000908152600f602090815260408083203384529091529020545b919050565b6112ee611ef1565b6001600160a01b03166112ff6114f3565b6001600160a01b031614611348576040805162461bcd60e51b81526020600482018190526024820152600080516020613a09833981519152604482015290519081900360640190fd5b600080546040516001600160a01b03909116907f8be0079c531659141344cd1fd0a4f28419497f9722a3daafe3b4186f6b6457e0908390a3600080546001600160a01b0319169055565b600061139c611ef1565b6001600160a01b03166113ad6114f3565b6001600160a01b0316146113f6576040805162461bcd60e51b81526020600482018190526024820152600080516020613a09833981519152604482015290519081900360640190fd5b6001600160a01b0385161561141d5760405162461bcd60e51b8152600401610233906133f3565b6003546001600160a01b0316841561146f5760006114458561143f88876126a4565b906126a4565b600354909150611469906001600160a01b031660006114648489612583565b611ef5565b50611478565b84611478575060005b6114828184611fd8565b50600195945050505050565b611496611ef1565b6001600160a01b03166114a76114f3565b6001600160a01b0316146114f0576040805162461bcd60e51b81526020600482018190526024820152600080516020613a09833981519152604482015290519081900360640190fd5b50565b6000546001600160a01b031690565b60026020526000908152604090205460ff1681565b6000611521611ef1565b6001600160a01b03166115326114f3565b6001600160a01b03161461157b576040805162461bcd60e51b81526020600482018190526024820152600080516020613a09833981519152604482015290519081900360640190fd5b6001600160a01b03861660009081526002602052604090205460ff166115b35760405162461bcd60e51b815260040161023390613550565b6001600160a01b0386166115d95760405162461bcd60e51b815260040161023390613674565b600084156115ff576003546115fa906000906001600160a01b031687611ef5565b611612565b8461161257506003546001600160a01b03165b6004546001600160a01b038881169116141561163657506004546001600160a01b03165b6116408185611fd8565b6116498361212d565b60005b86518110156107b9576116958888838151811061166557fe5b602002602001015160001c89848151811061167c57fe5b602002602001015160a01c6001600160601b031661217c565b60010161164c565b600454600160c01b900460ff1681565b60006116b7611ef1565b6001600160a01b03166116c86114f3565b6001600160a01b031614611711576040805162461bcd60e51b81526020600482018190526024820152600080516020613a09833981519152604482015290519081900360640190fd5b61171a82611a92565b156117375760405162461bcd60e51b8152600401610233906134d8565b60408051808201909152601d81527f42544320666c6f617420616d6f756e7420696e73756666696369656e7400000060208083019190915260008052600a90527f13da86008ba1c6922daee3e07db95305ef49ebced9f5467a0b8613fcc6b343e3546117a491859061299c565b60008052600a6020527f13da86008ba1c6922daee3e07db95305ef49ebced9f5467a0b8613fcc6b343e3556117d882612a33565b50600192915050565b6001600160a01b03821673eeeeeeeeeeeeeeeeeeeeeeeeeeeeeeeeeeeeeeee141561180b57600080fd5b6040516323b872dd60e01b81526001600160a01b038316906323b872dd9061183b90339030908690600401613098565b602060405180830381600087803b15801561185557600080fd5b505af1158015611869573d6000803e3d6000fd5b505050506040513d601f19601f8201168201806040525081019061188d9190612f56565b61189657600080fd5b6001600160a01b0382166000908152600f602090815260408083203384529091529020546118c49082612583565b6001600160a01b0383166000908152600f602090815260408083203380855292529182902083905590517f4e2ca0515ed1aef1395f66b5303bb5d6f1bf9d61a353fa53f73f8ac9973fa9f6926119219286929091869142906130fe565b60405180910390a15050565b6000611937611ef1565b6001600160a01b03166119486114f3565b6001600160a01b031614611991576040805162461bcd60e51b81526020600482018190526024820152600080516020613a09833981519152604482015290519081900360640190fd5b6001600160a01b03861660009081526002602052604090205460ff166119c95760405162461bcd60e51b815260040161023390613550565b6001600160a01b0386166119ef5760405162461bcd60e51b815260040161023390613674565b60008315611a1557600354611a10906000906001600160a01b031686611ef5565b611a28565b83611a2857506003546001600160a01b03165b6004546001600160a01b0388811691161415611a4c57506004546001600160a01b03165b611a568786612a4e565b611a5f8361212d565b505050506001600160a01b039283166000908152600f602090815260408083209490951682529290925291902055600190565b6000908152600b602052604090205460ff1690565b600080611ac160065460055461258390919063ffffffff16565b905060008111611ae35760405162461bcd60e51b815260040161023390613293565b6060611aed611157565b90506000805b8251811015611b3857611b2e838281518110611b0b57fe5b602002602001015160a01c6001600160601b03168361258390919063ffffffff16565b9150600101611af3565b50600480546005546040516340c10f1960e01b81526001600160a01b03909216926340c10f1992611b6d9230929091016130bc565b602060405180830381600087803b158015611b8757600080fd5b505af1158015611b9b573d6000803e3d6000fd5b505050506040513d601f19601f82011682018060405250810190611bbf9190612f56565b5060005b8251811015611ca85760045483516001600160a01b039091169063a9059cbb90859084908110611bef57fe5b602002602001015160001c611c3085610d12888781518110611c0d57fe5b602002602001015160a01c6001600160601b03168a6125e490919063ffffffff16565b6040518363ffffffff1660e01b8152600401611c4d9291906130bc565b602060405180830381600087803b158015611c6757600080fd5b505af1158015611c7b573d6000803e3d6000fd5b505050506040513d601f19601f82011682018060405250810190611c9f9190612f56565b50600101611bc3565b507f86dd6ae252e62228b47b3c1a12762cbf634952b2d29319b04f4f72fb153bcbdd83604051611cd8919061387f565b60405180910390a1505060006005819055600655506001905090565b6001600160a01b039182166000908152600a60205260408082205492909316815291909120549091565b611d26611ef1565b6001600160a01b0316611d376114f3565b6001600160a01b031614611d80576040805162461bcd60e51b81526020600482018190526024820152600080516020613a09833981519152604482015290519081900360640190fd5b6001600160a01b038116611dc55760405162461bcd60e51b81526004018080602001828103825260268152602001806139c26026913960400191505060405180910390fd5b600080546040516001600160a01b03808516939216917f8be0079c531659141344cd1fd0a4f28419497f9722a3daafe3b4186f6b6457e091a3600080546001600160a01b0319166001600160a01b0392909216919091179055565b60065481565b60003411611e3357600080fd5b3360009081527fa781ca3e4bac15fa51ec762ef622d608ed239712ac63433a052bbf28d546961f6020526040902054611e6c9034612583565b3360008181527fa781ca3e4bac15fa51ec762ef622d608ed239712ac63433a052bbf28d546961f602052604090819020839055517f4e2ca0515ed1aef1395f66b5303bb5d6f1bf9d61a353fa53f73f8ac9973fa9f692611ee79273eeeeeeeeeeeeeeeeeeeeeeeeeeeeeeeeeeeeeeee929091349142906130fe565b60405180910390a1565b3390565b60408051808201825260208082527f5f737761703a20666c6f617420616d6f756e7420696e73756666696369656e74818301526001600160a01b0385166000908152600a9091529190912054611f4c91839061299c565b6001600160a01b038084166000908152600a60205260408082209390935590851681522054611f7b9082612583565b6001600160a01b0384166000908152600a60205260409081902091909155517fea368a40e9570069bb8e6511d668293ad2e1f03b0d982431fd223de9f3b70ca690611fcb90859085908590613098565b60405180910390a1505050565b80611fe257612129565b6004546001600160a01b038381169116141561204c576006546120059082612583565b6006556040517fe3debe835f6848edc082b32a1d729781d3bfcd7e14422d80bcaa6794d3816b2f9061203f9084908490600090819061312f565b60405180910390a1612129565b6000612056610c31565b6001600160a01b0384166000908152600a602052604090205490915061207c9083612583565b6001600160a01b0384166000908152600a60205260408120919091556004546120b790606490610d12908690600160b01b900460ff166125e4565b905060006120d483610d12600954856125e490919063ffffffff16565b6005549091506120e49082612583565b6005556040517fe3debe835f6848edc082b32a1d729781d3bfcd7e14422d80bcaa6794d3816b2f9061211d90879087908590889061312f565b60405180910390a15050505b5050565b60005b8151811015612129576001600b600084848151811061214b57fe5b6020908102919091018101518252810191909152604001600020805460ff1916911515919091179055600101612130565b6003546001600160a01b03848116911614156121a3576008546121a09082906125e4565b90505b60405163a9059cbb60e01b81526001600160a01b0384169063a9059cbb906121d190859085906004016130bc565b602060405180830381600087803b1580156121eb57600080fd5b505af11580156121ff573d6000803e3d6000fd5b505050506040513d601f19601f820116820180604052508101906122239190612f56565b61222c57600080fd5b505050565b600061223c82611a92565b156122595760405162461bcd60e51b8152600401610233906134d8565b836122765760405162461bcd60e51b815260040161023390613587565b60008061228286612701565b915091506000612290610c31565b905060006122ad600954610d1284866125e490919063ffffffff16565b6004549091506000906122d39061271090610d12908590600160c01b900460ff166125e4565b9050876122e083836126a4565b10156122fe5760405162461bcd60e51b815260040161023390613358565b600061230e8961143f85856126a4565b600354909150600090819061232d9082906001600160a01b0316611cf4565b90925090506001600160a01b038d1661236e5761234a85856126a4565b8210156123695760405162461bcd60e51b81526004016102339061325c565b6123ad565b6003546001600160a01b038e8116911614156123ad5761238e85856126a4565b8110156123ad5760405162461bcd60e51b81526004016102339061325c565b6123b78d85611fd8565b6123c18d86612a4e565b6123ca8a612a33565b6003546001600160a01b038e8116911614156123eb576123eb8d898561217c565b60048054604051630852cd8d60e31b81526001600160a01b03909116916342966c689161241a918b910161387f565b602060405180830381600087803b15801561243457600080fd5b505af1158015612448573d6000803e3d6000fd5b505050506040513d601f19601f8201168201806040525081019061246c9190612f56565b61247557600080fd5b7fa9da34e5e4a956b744307ae7611795634e8365951073bf049d76b64b2ae7a05888888789878f6040516124ae96959493929190613155565b60405180910390a15060019c9b505050505050505050505050565b600354600090819081906124e79082906001600160a01b0316611cf4565b9092509050600061250c6003610d126002610d0c896125068989612583565b90612583565b6003549091506001600160a01b0387811691161480156125355750806125328387612583565b10155b156125465760019350505050610e33565b6001600160a01b0386161580156125665750806125638487612583565b10155b156125775760029350505050610e33565b50600095945050505050565b6000828201838110156125dd576040805162461bcd60e51b815260206004820152601b60248201527f536166654d6174683a206164646974696f6e206f766572666c6f770000000000604482015290519081900360640190fd5b9392505050565b6000826125f357506000610e33565b8282028284828161260057fe5b04146125dd5760405162461bcd60e51b81526004018080602001828103825260218152602001806139e86021913960400191505060405180910390fd5b6000808211612693576040805162461bcd60e51b815260206004820152601a60248201527f536166654d6174683a206469766973696f6e206279207a65726f000000000000604482015290519081900360640190fd5b81838161269c57fe5b049392505050565b6000828211156126fb576040805162461bcd60e51b815260206004820152601e60248201527f536166654d6174683a207375627472616374696f6e206f766572666c6f770000604482015290519081900360640190fd5b50900390565b9060a082901c90565b6000811561273357506001600160a01b0383166000908152600c602052604081205560016125dd565b6001600160a01b0384166000908152600d602052604090205460ff166127b757600e805460018082019092557fbb7b4a454dc3493923482f07822329ed19e8244eff582cc204f8554c3620c3fd0180546001600160a01b0319166001600160a01b0387169081179091556000908152600d60205260409020805460ff191690911790555b50506001600160a01b03919091166000908152600c6020526040902055600190565b60006127e482611a92565b156128015760405162461bcd60e51b8152600401610233906134d8565b8361281e5760405162461bcd60e51b815260040161023390613587565b60008061282a86612701565b915091506000612838610c31565b9050600061285582610d12600954866125e490919063ffffffff16565b905060006128638a85610b95565b9050600081612873576000612883565b612883612710610d1285856125e4565b905088801561289157508015155b1561289b57600080fd5b6004546001600160a01b03166340c10f19876128b786856126a4565b6040518363ffffffff1660e01b81526004016128d49291906130bc565b602060405180830381600087803b1580156128ee57600080fd5b505af1158015612902573d6000803e3d6000fd5b505050506040513d601f19601f820116820180604052508101906129269190612f56565b506005546129349082612583565b6005556129418b86612aab565b61294a88612a33565b7fdfaf4e23f7030adafec91a682e05bf9fb30c721f9cec3d8bcfae0459c5362db186868587858d60405161298396959493929190613155565b60405180910390a15060019a9950505050505050505050565b60008184841115612a2b5760405162461bcd60e51b81526004018080602001828103825283818151815260200191508051906020019080838360005b838110156129f05781810151838201526020016129d8565b50505050905090810190601f168015612a1d5780820380516001836020036101000a031916815260200191505b509250505060405180910390fd5b505050900390565b6000908152600b60205260409020805460ff19166001179055565b612a8b81604051806060016040528060278152602001613a29602791396001600160a01b0385166000908152600a6020526040902054919061299c565b6001600160a01b039092166000908152600a602052604090209190915550565b6001600160a01b0382166000908152600a6020526040902054612a8b9082612583565b80356112e18161399e565b600082601f830112612ae9578081fd5b8135612afc612af7826138ec565b6138c8565b818152915060208083019084810181840286018201871015612b1d57600080fd5b60005b84811015612b3c57813584529282019290820190600101612b20565b505050505092915050565b80356001600160801b0319811681146112e157600080fd5b803560ff811681146112e157600080fd5b600060208284031215612b81578081fd5b81356125dd8161399e565b600060208284031215612b9d578081fd5b81516125dd8161399e565b60008060408385031215612bba578081fd5b8235612bc58161399e565b91506020830135612bd58161399e565b809150509250929050565b600080600080600060a08688031215612bf7578081fd5b8535612c028161399e565b94506020860135612c128161399e565b93506040860135925060608601359150608086013567ffffffffffffffff811115612c3b578182fd5b612c4788828901612ad9565b9150509295509295909350565b60008060008060008060c08789031215612c6c578081fd5b8635612c778161399e565b95506020870135612c878161399e565b945060408701359350606087013592506080870135915060a087013567ffffffffffffffff811115612cb7578182fd5b612cc389828a01612ad9565b9150509295509295509295565b600080600080600080600060e0888a031215612cea578081fd5b8735612cf58161399e565b965060208881013567ffffffffffffffff80821115612d12578384fd5b612d1e8c838d01612ad9565b985060408b0135915080821115612d33578384fd5b508901601f81018b13612d44578283fd5b8035612d52612af7826138ec565b81815283810190838501858402850186018f1015612d6e578687fd5b8694505b83851015612d99578035612d85816139b3565b835260019490940193918501918501612d72565b508099505050505050612dae60608901612b5f565b9350612dbc60808901612b5f565b9250612dca60a08901612b5f565b9150612dd860c08901612b5f565b905092959891949750929550565b600080600080600060a08688031215612dfd578081fd5b8535612e088161399e565b9450602086013567ffffffffffffffff80821115612e24578283fd5b612e3089838a01612ad9565b955060408801359450606088013593506080880135915080821115612e53578283fd5b50612c4788828901612ad9565b60008060008060808587031215612e75578182fd5b8435612e808161399e565b9350602085013592506040850135612e97816139b3565b9396929550929360600135925050565b60008060008060808587031215612ebc578182fd5b8435612ec78161399e565b966020860135965060408601359560600135945092505050565b60008060408385031215612ef3578182fd5b8235612efe8161399e565b9150602083013567ffffffffffffffff811115612f19578182fd5b83016101e08186031215612bd5578182fd5b60008060408385031215612f3d578182fd5b8235612f488161399e565b946020939093013593505050565b600060208284031215612f67578081fd5b81516125dd816139b3565b600060208284031215612f83578081fd5b5035919050565b600060208284031215612f9b578081fd5b5051919050565b60008060408385031215612fb4578182fd5b50508035926020909101359150565b6001600160a01b03169052565b60008284526020808501945082825b8581101561300d578135612ff28161399e565b6001600160a01b031687529582019590820190600101612fdf565b509495945050505050565b81835260006001600160fb1b03831115613030578081fd5b6020830280836020870137939093016020019283525090919050565b6001600160801b0319169052565b60008284528282602086013780602084860101526020601f19601f85011685010190509392505050565b6001600160a01b0391909116815260200190565b6001600160a01b039384168152919092166020820152604081019190915260600190565b6001600160a01b03929092168252602082015260400190565b6001600160a01b0394851681529290931660208301526040820152606081019190915260800190565b6001600160a01b03958616815293909416602084015260408301919091526060820152608081019190915260a00190565b6001600160a01b0394909416845260208401929092526040830152606082015260800190565b6001600160a01b03969096168652602086019490945260408501929092526060840152608083015260a082015260c00190565b6020808252825182820181905260009190848201906040850190845b818110156131c0578351835292840192918401916001016131a4565b50909695505050505050565b901515815260200190565b6020808252601e908201527f5f6e6f646552657761726473526174696f206973206e6f742076616c69640000604082015260600190565b6020808252602e908201527f596f752063616e206f6e6c79206578656375746520737761707320746f20796f60408201526d7572206f776e206164647265737360901b606082015260800190565b6020808252601f908201527f54686520666c6f61742062616c616e636520696e73756666696369656e742e00604082015260600190565b60208082526025908201527f746f74616c5265776172644c5073466f724e6f6465206973206e6f7420706f73604082015264697469766560d81b606082015260800190565b60208082526019908201527f42616c616e6365206973206e6f742073756666696369656e7400000000000000604082015260600190565b60208082526029908201527f66726f6d546f6b656e206d7573742062652074686520726571756972656420426040820152682a21ba103a37b5b2b760b91b606082015260800190565b60208082526034908201527f4572726f723a20616d6f756e744f66466c6f61742e737562287769746864726160408201527377616c4665657329203c205f6d696e657246656560601b606082015260800190565b60208082526027908201527f5f7473735468726573686f6c642073686f756c64206265203e3d2074737354686040820152661c995cda1bdb1960ca1b606082015260800190565b6020808252601f908201527f5f64657374546f6b656e2073686f756c64206265206164647265737328302900604082015260600190565b6020808252601c908201527f5f7769746864726177616c46656542505320697320696e76616c696400000000604082015260600190565b6020808252601290820152716e2073686f756c64206265203e3d20742b3160701b604082015260600190565b6020808252602b908201527f5468697320636f6e747261637420646f65736e277420616c6c6f77207265636560408201526a34bb34b7339022ba3432b960a91b606082015260800190565b60208082526018908201527f546865207478696420697320616c726561647920757365640000000000000000604082015260600190565b60208082526021908201527f53746f726564206e6f64652073697a652073686f756c64206265203c3d2031306040820152600360fc1b606082015260800190565b6020808252601d908201527f5f64657374546f6b656e206973206e6f742077686974656c6973746564000000604082015260600190565b6020808252601c908201527f546865207472616e73616374696f6e206973206e6f742076616c696400000000604082015260600190565b6020808252603b908201527f5f72657761726441646472657373416e64416d6f756e747320616e64205f697360408201527f52656d6f766564206c656e677468206973206e6f74206d617463680000000000606082015260800190565b602080825260149082015273496e73756666696369656e742042616c616e636560601b604082015260600190565b60208082526011908201527017dd1bdad95b881a5cc81a5b9d985b1a59607a1b604082015260600190565b60208082526023908201527f5f64657374546f6b656e2073686f756c64206e6f74206265206164647265737360408201526228302960e81b606082015260800190565b602080825260119082015270496e76616c6964204c505420707269636560781b604082015260600190565b6000602082526136fd602083016136f885612ace565b612fc3565b61370960208401612ace565b6137166040840182612fc3565b506040830135606083015260608301356080830152608083013560a083015261374260a084018461390a565b6101e08060c086015261375a61020086018385612fd0565b925061376960c0870187613959565b9250601f19808786030160e088015261378385858461305a565b945061379260e089018961390a565b945091506101008188870301818901526137ad868685613018565b95506137bb818a018a61390a565b95509250506101208188870301818901526137d7868685613018565b95506137e4818a01612ace565b94505061014091506137f882880185612fc3565b613803828901612ace565b9350610160915061381682880185612fc3565b6101809350818801358488015261382f84890189613959565b945091506101a081888703018189015261384a86868561305a565b95506101c094508089013585890152505050613867828701612b47565b91506138758186018361304c565b5090949350505050565b90815260200190565b9384526001600160a01b039290921660208401526040830152606082015260800190565b918252602082015260400190565b60ff91909116815260200190565b60405181810167ffffffffffffffff811182821017156138e457fe5b604052919050565b600067ffffffffffffffff82111561390057fe5b5060209081020190565b6000808335601e19843603018112613920578283fd5b830160208101925035905067ffffffffffffffff81111561394057600080fd5b60208102360383131561395257600080fd5b9250929050565b6000808335601e1984360301811261396f578283fd5b830160208101925035905067ffffffffffffffff81111561398f57600080fd5b80360383131561395257600080fd5b6001600160a01b03811681146114f057600080fd5b80151581146114f057600080fdfe4f776e61626c653a206e6577206f776e657220697320746865207a65726f2061646472657373536166654d6174683a206d756c7469706c69636174696f6e206f766572666c6f774f776e61626c653a2063616c6c6572206973206e6f7420746865206f776e65725f72656d6f7665466c6f61743a20666c6f617420616d6f756e7420696e73756666696369656e74a26469706673582212206da80e52a2f3d50e48f73c18703dcc7f5c60d8ed4d3454702c62fa0eb614e9a164736f6c63430007050033",
  "linkReferences": {},
  "deployedLinkReferences": {}
}