{
  "_format": "hh-sol-artifact-1",
  "contractName": "SwapContract",
  "sourceName": "contracts/SwapContract.sol",
  "abi": [
    {
      "inputs": [
        {
          "internalType": "address",
          "name": "_lpToken",
          "type": "address"
        },
        {
          "internalType": "address",
          "name": "_btct",
          "type": "address"
        },
        {
          "internalType": "address",
          "name": "_wETH",
          "type": "address"
        },
        {
          "internalType": "uint256",
          "name": "_existingBTCFloat",
          "type": "uint256"
        }
      ],
      "stateMutability": "nonpayable",
      "type": "constructor"
    },
    {
      "anonymous": false,
      "inputs": [
        {
          "indexed": false,
          "internalType": "address",
          "name": "token",
          "type": "address"
        },
        {
          "indexed": false,
          "internalType": "uint256",
          "name": "amountOfLP",
          "type": "uint256"
        },
        {
          "indexed": false,
          "internalType": "uint256",
          "name": "amountOfFloat",
          "type": "uint256"
        },
        {
          "indexed": false,
          "internalType": "uint256",
          "name": "currentPriceLP",
          "type": "uint256"
        },
        {
          "indexed": false,
          "internalType": "uint256",
          "name": "withdrawal",
          "type": "uint256"
        },
        {
          "indexed": false,
          "internalType": "bytes32",
          "name": "txid",
          "type": "bytes32"
        }
      ],
      "name": "BurnLPTokensForFloat",
      "type": "event"
    },
    {
      "anonymous": false,
      "inputs": [
        {
          "indexed": false,
          "internalType": "address",
          "name": "token",
          "type": "address"
        },
        {
          "indexed": false,
          "internalType": "address",
          "name": "user",
          "type": "address"
        },
        {
          "indexed": false,
          "internalType": "uint256",
          "name": "amount",
          "type": "uint256"
        },
        {
          "indexed": false,
          "internalType": "uint256",
          "name": "balance",
          "type": "uint256"
        },
        {
          "indexed": false,
          "internalType": "uint256",
          "name": "Timestamp",
          "type": "uint256"
        }
      ],
      "name": "Deposit",
      "type": "event"
    },
    {
      "anonymous": false,
      "inputs": [
        {
          "indexed": false,
          "internalType": "uint256",
          "name": "rewardLPTsForNodes",
          "type": "uint256"
        }
      ],
      "name": "DistributeNodeRewards",
      "type": "event"
    },
    {
      "anonymous": false,
      "inputs": [
        {
          "indexed": false,
          "internalType": "address",
          "name": "to",
          "type": "address"
        },
        {
          "indexed": false,
          "internalType": "uint256",
          "name": "amountOfFloat",
          "type": "uint256"
        },
        {
          "indexed": false,
          "internalType": "uint256",
          "name": "amountOfLP",
          "type": "uint256"
        },
        {
          "indexed": false,
          "internalType": "uint256",
          "name": "currentPriceLP",
          "type": "uint256"
        },
        {
          "indexed": false,
          "internalType": "uint256",
          "name": "depositFees",
          "type": "uint256"
        },
        {
          "indexed": false,
          "internalType": "bytes32",
          "name": "txid",
          "type": "bytes32"
        }
      ],
      "name": "IssueLPTokensForFloat",
      "type": "event"
    },
    {
      "anonymous": false,
      "inputs": [
        {
          "indexed": true,
          "internalType": "address",
          "name": "previousOwner",
          "type": "address"
        },
        {
          "indexed": true,
          "internalType": "address",
          "name": "newOwner",
          "type": "address"
        }
      ],
      "name": "OwnershipTransferred",
      "type": "event"
    },
    {
      "anonymous": false,
      "inputs": [
        {
          "indexed": false,
          "internalType": "address",
          "name": "feesToken",
          "type": "address"
        },
        {
          "indexed": false,
          "internalType": "uint256",
          "name": "rewards",
          "type": "uint256"
        },
        {
          "indexed": false,
          "internalType": "uint256",
          "name": "amountLPTokensForNode",
          "type": "uint256"
        },
        {
          "indexed": false,
          "internalType": "uint256",
          "name": "currentPriceLP",
          "type": "uint256"
        }
      ],
      "name": "RewardsCollection",
      "type": "event"
    },
    {
      "anonymous": false,
      "inputs": [
        {
          "indexed": false,
          "internalType": "uint256",
          "name": "ExpirationTime",
          "type": "uint256"
        },
        {
          "indexed": false,
          "internalType": "uint256",
          "name": "Timestamp",
          "type": "uint256"
        }
      ],
      "name": "SetExpirationTime",
      "type": "event"
    },
    {
      "anonymous": false,
      "inputs": [
        {
          "indexed": false,
          "internalType": "address",
          "name": "from",
          "type": "address"
        },
        {
          "indexed": false,
          "internalType": "address",
          "name": "to",
          "type": "address"
        },
        {
          "indexed": false,
          "internalType": "uint256",
          "name": "amount",
          "type": "uint256"
        }
      ],
      "name": "Swap",
      "type": "event"
    },
    {
      "anonymous": false,
      "inputs": [
        {
          "indexed": false,
          "internalType": "bytes32",
          "name": "SwapID",
          "type": "bytes32"
        },
        {
          "indexed": false,
          "internalType": "string",
          "name": "DestAddr",
          "type": "string"
        },
        {
          "indexed": false,
          "internalType": "address",
          "name": "RefundAddr",
          "type": "address"
        },
        {
          "indexed": false,
          "internalType": "uint256",
          "name": "AmountWBTC",
          "type": "uint256"
        },
        {
          "indexed": false,
          "internalType": "uint256",
          "name": "Timestamp",
          "type": "uint256"
        }
      ],
      "name": "SwapTokensToBTC",
      "type": "event"
    },
    {
      "anonymous": false,
      "inputs": [
        {
          "indexed": false,
          "internalType": "address",
          "name": "token",
          "type": "address"
        },
        {
          "indexed": false,
          "internalType": "address",
          "name": "user",
          "type": "address"
        },
        {
          "indexed": false,
          "internalType": "uint256",
          "name": "amount",
          "type": "uint256"
        },
        {
          "indexed": false,
          "internalType": "uint256",
          "name": "balance",
          "type": "uint256"
        },
        {
          "indexed": false,
          "internalType": "uint256",
          "name": "Timestamp",
          "type": "uint256"
        }
      ],
      "name": "Withdraw",
      "type": "event"
    },
    {
      "stateMutability": "nonpayable",
      "type": "fallback"
    },
    {
      "inputs": [],
      "name": "BTCT_ADDR",
      "outputs": [
        {
          "internalType": "address",
          "name": "",
          "type": "address"
        }
      ],
      "stateMutability": "view",
      "type": "function"
    },
    {
      "inputs": [
        {
          "internalType": "address",
          "name": "_token",
          "type": "address"
        },
        {
          "internalType": "address",
          "name": "_user",
          "type": "address"
        }
      ],
      "name": "balanceOf",
      "outputs": [
        {
          "internalType": "uint256",
          "name": "",
          "type": "uint256"
        }
      ],
      "stateMutability": "view",
      "type": "function"
    },
    {
      "inputs": [
        {
          "internalType": "address",
          "name": "_newOwner",
          "type": "address"
        },
        {
          "internalType": "bytes32[]",
          "name": "_rewardAddressAndAmounts",
          "type": "bytes32[]"
        },
        {
          "internalType": "bool[]",
          "name": "_isRemoved",
          "type": "bool[]"
        },
        {
          "internalType": "uint8",
          "name": "_churnedInCount",
          "type": "uint8"
        },
        {
          "internalType": "uint8",
          "name": "_tssThreshold",
          "type": "uint8"
        },
        {
          "internalType": "uint8",
          "name": "_nodeRewardsRatio",
          "type": "uint8"
        },
        {
          "internalType": "uint8",
          "name": "_withdrawalFeeBPS",
          "type": "uint8"
        },
        {
          "internalType": "uint256",
          "name": "_expirationTime",
          "type": "uint256"
        }
      ],
      "name": "churn",
      "outputs": [
        {
          "internalType": "bool",
          "name": "",
          "type": "bool"
        }
      ],
      "stateMutability": "nonpayable",
      "type": "function"
    },
    {
      "inputs": [],
      "name": "churnedInCount",
      "outputs": [
        {
          "internalType": "uint8",
          "name": "",
          "type": "uint8"
        }
      ],
      "stateMutability": "view",
      "type": "function"
    },
    {
      "inputs": [
        {
          "internalType": "address",
          "name": "_destToken",
          "type": "address"
        },
        {
          "internalType": "uint256",
          "name": "_incomingAmount",
          "type": "uint256"
        },
        {
          "internalType": "uint256",
          "name": "_minerFee",
          "type": "uint256"
        },
        {
          "internalType": "uint256",
          "name": "_rewardsAmount",
          "type": "uint256"
        }
      ],
      "name": "collectSwapFeesForBTC",
      "outputs": [
        {
          "internalType": "bool",
          "name": "",
          "type": "bool"
        }
      ],
      "stateMutability": "nonpayable",
      "type": "function"
    },
    {
      "inputs": [],
      "name": "depositFeesBPS",
      "outputs": [
        {
          "internalType": "uint8",
          "name": "",
          "type": "uint8"
        }
      ],
      "stateMutability": "view",
      "type": "function"
    },
    {
      "inputs": [],
      "name": "distributeNodeRewards",
      "outputs": [
        {
          "internalType": "bool",
          "name": "",
          "type": "bool"
        }
      ],
      "stateMutability": "nonpayable",
      "type": "function"
    },
    {
      "inputs": [],
      "name": "expirationTime",
      "outputs": [
        {
          "internalType": "uint256",
          "name": "",
          "type": "uint256"
        }
      ],
      "stateMutability": "view",
      "type": "function"
    },
    {
      "inputs": [],
      "name": "feesLPTokensForNode",
      "outputs": [
        {
          "internalType": "uint256",
          "name": "",
          "type": "uint256"
        }
      ],
      "stateMutability": "view",
      "type": "function"
    },
    {
      "inputs": [],
      "name": "getActiveNodes",
      "outputs": [
        {
          "internalType": "bytes32[]",
          "name": "",
          "type": "bytes32[]"
        }
      ],
      "stateMutability": "view",
      "type": "function"
    },
    {
      "inputs": [],
      "name": "getCurrentPriceLP",
      "outputs": [
        {
          "internalType": "uint256",
          "name": "nowPrice",
          "type": "uint256"
        }
      ],
      "stateMutability": "view",
      "type": "function"
    },
    {
      "inputs": [
        {
          "internalType": "address",
          "name": "_token",
          "type": "address"
        },
        {
          "internalType": "uint256",
          "name": "_amountOfFloat",
          "type": "uint256"
        }
      ],
      "name": "getDepositFeeRate",
      "outputs": [
        {
          "internalType": "uint256",
          "name": "depositFeeRate",
          "type": "uint256"
        }
      ],
      "stateMutability": "view",
      "type": "function"
    },
    {
      "inputs": [
        {
          "internalType": "address",
          "name": "_tokenA",
          "type": "address"
        },
        {
          "internalType": "address",
          "name": "_tokenB",
          "type": "address"
        }
      ],
      "name": "getFloatReserve",
      "outputs": [
        {
          "internalType": "uint256",
          "name": "reserveA",
          "type": "uint256"
        },
        {
          "internalType": "uint256",
          "name": "reserveB",
          "type": "uint256"
        }
      ],
      "stateMutability": "view",
      "type": "function"
    },
    {
      "inputs": [],
      "name": "initialExchangeRate",
      "outputs": [
        {
          "internalType": "uint256",
          "name": "",
          "type": "uint256"
        }
      ],
      "stateMutability": "view",
      "type": "function"
    },
    {
      "inputs": [
        {
          "internalType": "bytes32",
          "name": "_txid",
          "type": "bytes32"
        }
      ],
      "name": "isTxUsed",
      "outputs": [
        {
          "internalType": "bool",
          "name": "",
          "type": "bool"
        }
      ],
      "stateMutability": "view",
      "type": "function"
    },
    {
      "inputs": [],
      "name": "lockedLPTokensForNode",
      "outputs": [
        {
          "internalType": "uint256",
          "name": "",
          "type": "uint256"
        }
      ],
      "stateMutability": "view",
      "type": "function"
    },
    {
      "inputs": [],
      "name": "lpToken",
      "outputs": [
        {
          "internalType": "address",
          "name": "",
          "type": "address"
        }
      ],
      "stateMutability": "view",
      "type": "function"
    },
    {
      "inputs": [
        {
          "internalType": "address",
          "name": "_destToken",
          "type": "address"
        },
        {
          "internalType": "bytes32[]",
          "name": "_addressesAndAmounts",
          "type": "bytes32[]"
        },
        {
          "internalType": "uint256",
          "name": "_totalSwapped",
          "type": "uint256"
        },
        {
          "internalType": "uint256",
          "name": "_rewardsAmount",
          "type": "uint256"
        },
        {
          "internalType": "bytes32[]",
          "name": "_redeemedFloatTxIds",
          "type": "bytes32[]"
        }
      ],
      "name": "multiTransferERC20TightlyPacked",
      "outputs": [
        {
          "internalType": "bool",
          "name": "",
          "type": "bool"
        }
      ],
      "stateMutability": "nonpayable",
      "type": "function"
    },
    {
      "inputs": [],
      "name": "nodeRewardsRatio",
      "outputs": [
        {
          "internalType": "uint8",
          "name": "",
          "type": "uint8"
        }
      ],
      "stateMutability": "view",
      "type": "function"
    },
    {
      "inputs": [],
      "name": "oldestActiveIndex",
      "outputs": [
        {
          "internalType": "uint256",
          "name": "",
          "type": "uint256"
        }
      ],
      "stateMutability": "view",
      "type": "function"
    },
    {
      "inputs": [],
      "name": "owner",
      "outputs": [
        {
          "internalType": "address",
          "name": "",
          "type": "address"
        }
      ],
      "stateMutability": "view",
      "type": "function"
    },
    {
      "inputs": [
        {
          "internalType": "address",
          "name": "_token",
          "type": "address"
        },
        {
          "internalType": "bytes32",
          "name": "_addressesAndAmountOfFloat",
          "type": "bytes32"
        },
        {
          "internalType": "bool",
          "name": "_zerofee",
          "type": "bool"
        },
        {
          "internalType": "bytes32",
          "name": "_txid",
          "type": "bytes32"
        }
      ],
      "name": "recordIncomingFloat",
      "outputs": [
        {
          "internalType": "bool",
          "name": "",
          "type": "bool"
        }
      ],
      "stateMutability": "nonpayable",
      "type": "function"
    },
    {
      "inputs": [
        {
          "internalType": "address",
          "name": "_token",
          "type": "address"
        },
        {
          "internalType": "bytes32",
          "name": "_addressesAndAmountOfLPtoken",
          "type": "bytes32"
        },
        {
          "internalType": "uint256",
          "name": "_minerFee",
          "type": "uint256"
        },
        {
          "internalType": "bytes32",
          "name": "_txid",
          "type": "bytes32"
        }
      ],
      "name": "recordOutcomingFloat",
      "outputs": [
        {
          "internalType": "bool",
          "name": "",
          "type": "bool"
        }
      ],
      "stateMutability": "nonpayable",
      "type": "function"
    },
    {
      "inputs": [
        {
          "internalType": "address",
          "name": "_to",
          "type": "address"
        },
        {
          "internalType": "uint256",
          "name": "_totalSwapped",
          "type": "uint256"
        },
        {
          "internalType": "uint256",
          "name": "_rewardsAmount",
          "type": "uint256"
        },
        {
          "internalType": "bytes32[]",
          "name": "_usedTxIds",
          "type": "bytes32[]"
        }
      ],
      "name": "recordSkyPoolsTX",
      "outputs": [
        {
          "internalType": "bool",
          "name": "",
          "type": "bool"
        }
      ],
      "stateMutability": "nonpayable",
      "type": "function"
    },
    {
      "inputs": [
        {
          "internalType": "uint256",
          "name": "_minerFee",
          "type": "uint256"
        },
        {
          "internalType": "bytes32",
          "name": "_txid",
          "type": "bytes32"
        }
      ],
      "name": "recordUTXOSweepMinerFee",
      "outputs": [
        {
          "internalType": "bool",
          "name": "",
          "type": "bool"
        }
      ],
      "stateMutability": "nonpayable",
      "type": "function"
    },
    {
      "inputs": [
        {
          "internalType": "address",
          "name": "_token",
          "type": "address"
        },
        {
          "internalType": "uint256",
          "name": "_amount",
          "type": "uint256"
        }
      ],
      "name": "redeemERC20Token",
      "outputs": [],
      "stateMutability": "nonpayable",
      "type": "function"
    },
    {
      "inputs": [
        {
          "internalType": "uint256",
          "name": "_amount",
          "type": "uint256"
        }
      ],
      "name": "redeemEther",
      "outputs": [],
      "stateMutability": "nonpayable",
      "type": "function"
    },
    {
      "inputs": [],
      "name": "renounceOwnership",
      "outputs": [],
      "stateMutability": "nonpayable",
      "type": "function"
    },
    {
      "inputs": [
        {
          "internalType": "address",
          "name": "_destToken",
          "type": "address"
        },
        {
          "internalType": "address",
          "name": "_to",
          "type": "address"
        },
        {
          "internalType": "uint256",
          "name": "_amount",
          "type": "uint256"
        },
        {
          "internalType": "uint256",
          "name": "_totalSwapped",
          "type": "uint256"
        },
        {
          "internalType": "uint256",
          "name": "_rewardsAmount",
          "type": "uint256"
        },
        {
          "internalType": "bytes32[]",
          "name": "_redeemedFloatTxIds",
          "type": "bytes32[]"
        }
      ],
      "name": "singleTransferERC20",
      "outputs": [
        {
          "internalType": "bool",
          "name": "",
          "type": "bool"
        }
      ],
      "stateMutability": "nonpayable",
      "type": "function"
    },
    {
      "inputs": [
        {
          "internalType": "uint256",
          "name": "_loopCount",
          "type": "uint256"
        }
      ],
      "name": "spCleanUpOldTXs",
      "outputs": [],
      "stateMutability": "nonpayable",
      "type": "function"
    },
    {
      "inputs": [
        {
          "internalType": "address",
          "name": "_token",
          "type": "address"
        },
        {
          "internalType": "uint256",
          "name": "_amount",
          "type": "uint256"
        }
      ],
      "name": "spDeposit",
      "outputs": [],
      "stateMutability": "payable",
      "type": "function"
    },
    {
      "inputs": [
        {
          "components": [
            {
              "internalType": "address",
              "name": "fromToken",
              "type": "address"
            },
            {
              "internalType": "address",
              "name": "toToken",
              "type": "address"
            },
            {
              "internalType": "uint256",
              "name": "fromAmount",
              "type": "uint256"
            },
            {
              "internalType": "uint256",
              "name": "toAmount",
              "type": "uint256"
            },
            {
              "internalType": "uint256",
              "name": "expectedAmount",
              "type": "uint256"
            },
            {
              "internalType": "address[]",
              "name": "callees",
              "type": "address[]"
            },
            {
              "internalType": "bytes",
              "name": "exchangeData",
              "type": "bytes"
            },
            {
              "internalType": "uint256[]",
              "name": "startIndexes",
              "type": "uint256[]"
            },
            {
              "internalType": "uint256[]",
              "name": "values",
              "type": "uint256[]"
            },
            {
              "internalType": "address payable",
              "name": "beneficiary",
              "type": "address"
            },
            {
              "internalType": "address payable",
              "name": "partner",
              "type": "address"
            },
            {
              "internalType": "uint256",
              "name": "feePercent",
              "type": "uint256"
            },
            {
              "internalType": "bytes",
              "name": "permit",
              "type": "bytes"
            },
            {
              "internalType": "uint256",
              "name": "deadline",
              "type": "uint256"
            },
            {
              "internalType": "bytes16",
              "name": "uuid",
              "type": "bytes16"
            }
          ],
          "internalType": "struct Utils.SimpleData",
          "name": "_data",
          "type": "tuple"
        }
      ],
      "name": "spFlow1SimpleSwap",
      "outputs": [],
      "stateMutability": "nonpayable",
      "type": "function"
    },
    {
      "inputs": [
        {
          "internalType": "bool",
          "name": "_fork",
          "type": "bool"
        },
        {
          "internalType": "address",
          "name": "_factory",
          "type": "address"
        },
        {
          "internalType": "bytes32",
          "name": "_initCode",
          "type": "bytes32"
        },
        {
          "internalType": "uint256",
          "name": "_amountIn",
          "type": "uint256"
        },
        {
          "internalType": "uint256",
          "name": "_amountOutMin",
          "type": "uint256"
        },
        {
          "internalType": "address[]",
          "name": "_path",
          "type": "address[]"
        }
      ],
      "name": "spFlow1Uniswap",
      "outputs": [
        {
          "internalType": "uint256",
          "name": "receivedAmount",
          "type": "uint256"
        }
      ],
      "stateMutability": "nonpayable",
      "type": "function"
    },
    {
      "inputs": [
        {
          "internalType": "string",
          "name": "_destinationAddressForBTC",
          "type": "string"
        },
        {
          "components": [
            {
              "internalType": "address",
              "name": "fromToken",
              "type": "address"
            },
            {
              "internalType": "address",
              "name": "toToken",
              "type": "address"
            },
            {
              "internalType": "uint256",
              "name": "fromAmount",
              "type": "uint256"
            },
            {
              "internalType": "uint256",
              "name": "toAmount",
              "type": "uint256"
            },
            {
              "internalType": "uint256",
              "name": "expectedAmount",
              "type": "uint256"
            },
            {
              "internalType": "address[]",
              "name": "callees",
              "type": "address[]"
            },
            {
              "internalType": "bytes",
              "name": "exchangeData",
              "type": "bytes"
            },
            {
              "internalType": "uint256[]",
              "name": "startIndexes",
              "type": "uint256[]"
            },
            {
              "internalType": "uint256[]",
              "name": "values",
              "type": "uint256[]"
            },
            {
              "internalType": "address payable",
              "name": "beneficiary",
              "type": "address"
            },
            {
              "internalType": "address payable",
              "name": "partner",
              "type": "address"
            },
            {
              "internalType": "uint256",
              "name": "feePercent",
              "type": "uint256"
            },
            {
              "internalType": "bytes",
              "name": "permit",
              "type": "bytes"
            },
            {
              "internalType": "uint256",
              "name": "deadline",
              "type": "uint256"
            },
            {
              "internalType": "bytes16",
              "name": "uuid",
              "type": "bytes16"
            }
          ],
          "internalType": "struct Utils.SimpleData",
          "name": "_data",
          "type": "tuple"
        }
      ],
      "name": "spFlow2SimpleSwap",
      "outputs": [
        {
          "internalType": "uint256",
          "name": "receivedAmount",
          "type": "uint256"
        }
      ],
      "stateMutability": "nonpayable",
      "type": "function"
    },
    {
      "inputs": [
        {
          "internalType": "string",
          "name": "_destinationAddressForBTC",
          "type": "string"
        },
        {
          "internalType": "bool",
          "name": "_fork",
          "type": "bool"
        },
        {
          "internalType": "address",
          "name": "_factory",
          "type": "address"
        },
        {
          "internalType": "bytes32",
          "name": "_initCode",
          "type": "bytes32"
        },
        {
          "internalType": "uint256",
          "name": "_amountIn",
          "type": "uint256"
        },
        {
          "internalType": "uint256",
          "name": "_amountOutMin",
          "type": "uint256"
        },
        {
          "internalType": "address[]",
          "name": "_path",
          "type": "address[]"
        }
      ],
      "name": "spFlow2Uniswap",
      "outputs": [
        {
          "internalType": "uint256",
          "name": "receivedAmount",
          "type": "uint256"
        }
      ],
      "stateMutability": "nonpayable",
      "type": "function"
    },
    {
      "inputs": [],
      "name": "spGetPendingSwaps",
      "outputs": [
        {
          "components": [
            {
              "internalType": "bytes32",
              "name": "SwapID",
              "type": "bytes32"
            },
            {
              "internalType": "string",
              "name": "DestAddr",
              "type": "string"
            },
            {
              "internalType": "address",
              "name": "RefundAddr",
              "type": "address"
            },
            {
              "internalType": "uint256",
              "name": "AmountWBTC",
              "type": "uint256"
            },
            {
              "internalType": "uint256",
              "name": "Timestamp",
              "type": "uint256"
            }
          ],
          "internalType": "struct SwapContract.spPendingTx[]",
          "name": "data",
          "type": "tuple[]"
        }
      ],
      "stateMutability": "view",
      "type": "function"
    },
    {
      "inputs": [
        {
          "internalType": "uint256",
          "name": "",
          "type": "uint256"
        }
      ],
      "name": "spPendingTXs",
      "outputs": [
        {
          "internalType": "bytes32",
          "name": "SwapID",
          "type": "bytes32"
        },
        {
          "internalType": "string",
          "name": "DestAddr",
          "type": "string"
        },
        {
          "internalType": "address",
          "name": "RefundAddr",
          "type": "address"
        },
        {
          "internalType": "uint256",
          "name": "AmountWBTC",
          "type": "uint256"
        },
        {
          "internalType": "uint256",
          "name": "Timestamp",
          "type": "uint256"
        }
      ],
      "stateMutability": "view",
      "type": "function"
    },
    {
      "inputs": [],
      "name": "swapCount",
      "outputs": [
        {
          "internalType": "uint256",
          "name": "",
          "type": "uint256"
        }
      ],
      "stateMutability": "view",
      "type": "function"
    },
    {
      "inputs": [
        {
          "internalType": "address",
          "name": "",
          "type": "address"
        },
        {
          "internalType": "address",
          "name": "",
          "type": "address"
        }
      ],
      "name": "tokens",
      "outputs": [
        {
          "internalType": "uint256",
          "name": "",
          "type": "uint256"
        }
      ],
      "stateMutability": "view",
      "type": "function"
    },
    {
      "inputs": [
        {
          "internalType": "address",
          "name": "newOwner",
          "type": "address"
        }
      ],
      "name": "transferOwnership",
      "outputs": [],
      "stateMutability": "nonpayable",
      "type": "function"
    },
    {
      "inputs": [],
      "name": "tssThreshold",
      "outputs": [
        {
          "internalType": "uint8",
          "name": "",
          "type": "uint8"
        }
      ],
      "stateMutability": "view",
      "type": "function"
    },
    {
      "inputs": [],
      "name": "wETH",
      "outputs": [
        {
          "internalType": "address",
          "name": "",
          "type": "address"
        }
      ],
      "stateMutability": "view",
      "type": "function"
    },
    {
      "inputs": [
        {
          "internalType": "address",
          "name": "",
          "type": "address"
        }
      ],
      "name": "whitelist",
      "outputs": [
        {
          "internalType": "bool",
          "name": "",
          "type": "bool"
        }
      ],
      "stateMutability": "view",
      "type": "function"
    },
    {
      "inputs": [],
      "name": "withdrawalFeeBPS",
      "outputs": [
        {
          "internalType": "uint8",
          "name": "",
          "type": "uint8"
        }
      ],
      "stateMutability": "view",
      "type": "function"
    },
    {
      "stateMutability": "payable",
      "type": "receive"
    }
  ],
  "bytecode": "0x6101206040523480156200001257600080fd5b506040516200668638038062006686833981016040819052620000359162000339565b6200004033620002cc565b600180556202a3006002556000600581905560049081556001600160a01b0380841661010052851660a08190526040805163313ce56760e01b81529051919263313ce567928282019260209290829003018186803b158015620000a257600080fd5b505afa158015620000b7573d6000803e3d6000fd5b505050506040513d601f19601f82011682018060405250810190620000dd91906200038b565b620000ea90600a620004cc565b60e0526001600160a01b03831660808190526007805464ffffff000019166414324200001790556040805163313ce56760e01b815290516008929163313ce567916004808301926020929190829003018186803b1580156200014b57600080fd5b505afa15801562000160573d6000803e3d6000fd5b505050506040513d601f19601f820116820180604052508101906200018691906200038b565b620001929190620004dd565b6200019f90600a620004cc565b60c08181525050836001600160a01b031663313ce5676040518163ffffffff1660e01b815260040160206040518083038186803b158015620001e057600080fd5b505afa158015620001f5573d6000803e3d6000fd5b505050506040513d601f19601f820116820180604052508101906200021b91906200038b565b6200022890600a620004cc565b600a556000600881905560098190556001600160a01b039384168152600660209081526040808320805460ff199081166001908117909255979096168352822080548716861790559080527f54cdd369e4e8a8515e52ca72ec816c2101831ad1f18bf44102ed171459c9b4f8805490951690931790935550600b90527fdf7de25b7f1fd6d0b5205f0e18f1f35bd7b8d84cce336588d184533ce43a6f765562000503565b600080546001600160a01b038381166001600160a01b0319831681178455604051919092169283917f8be0079c531659141344cd1fd0a4f28419497f9722a3daafe3b4186f6b6457e09190a35050565b80516001600160a01b03811681146200033457600080fd5b919050565b600080600080608085870312156200035057600080fd5b6200035b856200031c565b93506200036b602086016200031c565b92506200037b604086016200031c565b6060959095015193969295505050565b6000602082840312156200039e57600080fd5b815160ff81168114620003b057600080fd5b9392505050565b634e487b7160e01b600052601160045260246000fd5b600181815b808511156200040e578160001904821115620003f257620003f2620003b7565b808516156200040057918102915b93841c9390800290620003d2565b509250929050565b6000826200042757506001620004c6565b816200043657506000620004c6565b81600181146200044f57600281146200045a576200047a565b6001915050620004c6565b60ff8411156200046e576200046e620003b7565b50506001821b620004c6565b5060208310610133831016604e8410600b84101617156200049f575081810a620004c6565b620004ab8383620003cd565b8060001904821115620004c257620004c2620003b7565b0290505b92915050565b6000620003b060ff84168362000416565b600060ff821660ff841680821015620004fa57620004fa620003b7565b90039392505050565b60805160a05160c05160e05161010051615fd2620006b46000396000818161027a0152818161083e015281816120a3015281816120ff0152818161216c015281816121b30152818161225701528181612e1c01528181612e960152612edf01526000818161157d0152818161392801528181613e5001526144ac01526000613a5f01526000818161058a01528181610a0101528181610a3c015281816114c90152818161240a0152818161244501528181613465015281816134f801528181613814015281816140d4015261452001526000818161034e015281816109ad015281816109df01528181610b5601528181610bd2015281816111fa0152818161123f015281816113fe0152818161149d0152818161185701528181611fe00152818161201c015281816123b6015281816123e8015281816125ae015281816125dd0152818161262d015281816126c00152818161274e01528181612c19015281816130440152818161312601528181613a2101528181613f3401528181613fcb0152818161407b015281816141df0152818161422c015281816147c501528181614b8e0152614bd30152615fd26000f3fe60806040526004361061026a5760003560e01c80636d019f3511610144578063c810a539116100b6578063e9e9bf6a1161007a578063e9e9bf6a146107e2578063ec482729146107f7578063f24286211461082c578063f2fde38b14610860578063f7824bc714610880578063f7888aec14610896576102a9565b8063c810a53914610749578063ca0707e714610769578063d38c7bb11461077c578063da284dcc1461079c578063e6ca2084146107b2576102a9565b80638da5cb5b116101085780638da5cb5b146106795780639b19251a14610697578063ad289e76146106c7578063b345a358146106e7578063b4014fe814610707578063b6268e5d14610727576102a9565b80636d019f35146105ee578063715018a6146106045780637c747cf9146106195780638006cc3e146106395780638535490f14610659576102a9565b80632d55282d116101dd5780634db75485116101a15780634db7548514610500578063508493bc14610520578063511834c3146105585780635fcbd2851461057857806363f289d9146105ac5780636b51e919146105cc576102a9565b80632d55282d1461047e5780632eff0d9e146104945780633b6fa127146104aa57806342419255146104ca57806345137e27146104eb576102a9565b8063130b7a631161022f578063130b7a63146103a75780631ab7e937146103d55780631bb069301461040657806320199e991461041c57806321959d3c1461043e5780632586c5621461045e576102a9565b806289356f146102bb5780630b68134d146102ec5780630d63aca71461030c5780630f9094861461033c57806312d1441e14610388576102a9565b366102a957336001600160a01b037f000000000000000000000000000000000000000000000000000000000000000016146102a7576102a7614f8b565b005b3480156102b557600080fd5b50600080fd5b3480156102c757600080fd5b506007546102d59060ff1681565b60405160ff90911681526020015b60405180910390f35b3480156102f857600080fd5b506007546102d59062010000900460ff1681565b34801561031857600080fd5b5061032c61032736600461509a565b6108dc565b60405190151581526020016102e3565b34801561034857600080fd5b506103707f000000000000000000000000000000000000000000000000000000000000000081565b6040516001600160a01b0390911681526020016102e3565b34801561039457600080fd5b506007546102d590610100900460ff1681565b3480156103b357600080fd5b506103c76103c2366004615170565b610a88565b6040519081526020016102e3565b3480156103e157600080fd5b506103f56103f03660046151f5565b610ec2565b6040516102e3959493929190615266565b34801561041257600080fd5b506103c760055481565b34801561042857600080fd5b50610431610f85565b6040516102e391906152a5565b34801561044a57600080fd5b506102a76104593660046151f5565b611186565b34801561046a57600080fd5b5061032c610479366004615343565b6112e0565b34801561048a57600080fd5b506103c760085481565b3480156104a057600080fd5b506103c760045481565b3480156104b657600080fd5b506103c76104c536600461537e565b6113e1565b3480156104d657600080fd5b506007546102d5906301000000900460ff1681565b3480156104f757600080fd5b506103c7611491565b34801561050c57600080fd5b506102a761051b36600461537e565b6115c3565b34801561052c57600080fd5b506103c761053b3660046153aa565b601060209081526000928352604080842090915290825290205481565b34801561056457600080fd5b506102a76105733660046153fc565b611722565b34801561058457600080fd5b506103707f000000000000000000000000000000000000000000000000000000000000000081565b3480156105b857600080fd5b5061032c6105c7366004615430565b6119bc565b3480156105d857600080fd5b506105e1611a5c565b6040516102e39190615478565b3480156105fa57600080fd5b506103c7600a5481565b34801561061057600080fd5b506102a7611be7565b34801561062557600080fd5b5061032c6106343660046154cd565b611c1d565b34801561064557600080fd5b5061032c610654366004615343565b611f5c565b34801561066557600080fd5b506102a76106743660046151f5565b612071565b34801561068557600080fd5b506000546001600160a01b0316610370565b3480156106a357600080fd5b5061032c6106b23660046155ee565b60066020526000908152604090205460ff1681565b3480156106d357600080fd5b5061032c6106e236600461560b565b6122ee565b3480156106f357600080fd5b5061032c610702366004615694565b6124e2565b34801561071357600080fd5b506103c7610722366004615737565b61268c565b34801561073357600080fd5b506007546102d590640100000000900460ff1681565b34801561075557600080fd5b5061032c61076436600461579f565b612abb565b6102a761077736600461537e565b612bc0565b34801561078857600080fd5b506103c76107973660046157c1565b612f76565b3480156107a857600080fd5b506103c760025481565b3480156107be57600080fd5b5061032c6107cd3660046151f5565b6000908152600c602052604090205460ff1690565b3480156107ee57600080fd5b5061032c613365565b34801561080357600080fd5b506108176108123660046153aa565b613657565b604080519283526020830191909152016102e3565b34801561083857600080fd5b506103707f000000000000000000000000000000000000000000000000000000000000000081565b34801561086c57600080fd5b506102a761087b3660046155ee565b613681565b34801561088c57600080fd5b506103c760095481565b3480156108a257600080fd5b506103c76108b13660046153aa565b6001600160a01b03918216600090815260106020908152604080832093909416825291909152205490565b600080546001600160a01b031633146109105760405162461bcd60e51b815260040161090790615878565b60405180910390fd5b6001600160a01b03871660009081526006602052604090205460ff166109785760405162461bcd60e51b815260206004820152601d60248201527f5f64657374546f6b656e206973206e6f742077686974656c69737465640000006044820152606401610907565b6001600160a01b03871661099e5760405162461bcd60e51b8152600401610907906158ad565b600084156109d7576109d260007f00000000000000000000000000000000000000000000000000000000000000008761371c565b6109ff565b846109ff57507f00000000000000000000000000000000000000000000000000000000000000005b7f00000000000000000000000000000000000000000000000000000000000000006001600160a01b0316886001600160a01b03161415610a5c57507f00000000000000000000000000000000000000000000000000000000000000005b610a668185613809565b610a6f836139b7565b610a7a888888613a1f565b506001979650505050505050565b600060026001541415610aad5760405162461bcd60e51b8152600401610907906158f0565b6002600155600083838281610ac457610ac4615927565b9050602002016020810190610ad991906155ee565b905060008484610aea600182615953565b818110610af957610af9615927565b9050602002016020810190610b0e91906155ee565b6001600160a01b0383166000908152601060209081526040808320338452909152902054909150871115610b545760405162461bcd60e51b81526004016109079061596a565b7f00000000000000000000000000000000000000000000000000000000000000006001600160a01b0316826001600160a01b031614610bd05760405162461bcd60e51b815260206004820152601860248201527726bab9ba1039bbb0b810333937b690212a21903a37b5b2b760411b6044820152606401610907565b7f00000000000000000000000000000000000000000000000000000000000000006001600160a01b0316816001600160a01b03161415610c525760405162461bcd60e51b815260206004820152601960248201527f456e64696e6720746f6b656e206d7573742062652077425443000000000000006044820152606401610907565b6001600160a01b03811673eeeeeeeeeeeeeeeeeeeeeeeeeeeeeeeeeeeeeeee1415610cb75760405162461bcd60e51b81526020600482015260156024820152740aae6ca40e0c2e8d040ee84a886405a7c40ee8aa89605b1b6044820152606401610907565b6040516370a0823160e01b81523060048201526000906001600160a01b038316906370a082319060240160206040518083038186803b158015610cf957600080fd5b505afa158015610d0d573d6000803e3d6000fd5b505050506040513d601f19601f82011682018060405250810190610d3191906159a1565b6001600160a01b0384166000908152601060209081526040808320338452909152902054909150610d629089613b16565b6001600160a01b03841660009081526010602090815260408083203384529091529020558a15610d9f57610d9a8a8a8a8a8a8a613b29565b610dab565b610dab88888888613c6f565b6040516370a0823160e01b8152306004820152610e2f9082906001600160a01b038516906370a08231906024015b60206040518083038186803b158015610df157600080fd5b505afa158015610e05573d6000803e3d6000fd5b505050506040513d601f19601f82011682018060405250810190610e2991906159a1565b90613b16565b935086841015610e515760405162461bcd60e51b8152600401610907906159ba565b83610e5b57600080fd5b6001600160a01b0382166000908152601060209081526040808320338452909152902054610e899085613daf565b6001600160a01b039092166000908152601060209081526040808320338452909152902091909155505060018055979650505050505050565b60036020526000908152604090208054600182018054919291610ee4906159f1565b80601f0160208091040260200160405190810160405280929190818152602001828054610f10906159f1565b8015610f5d5780601f10610f3257610100808354040283529160200191610f5d565b820191906000526020600020905b815481529060010190602001808311610f4057829003601f168201915b505050506002830154600384015460049094015492936001600160a01b039091169290915085565b60606000610fa0600554600454613b1690919063ffffffff16565b6001600160401b03811115610fb757610fb7614fc6565b60405190808252806020026020018201604052801561102657816020015b6110136040518060a00160405280600080191681526020016060815260200160006001600160a01b0316815260200160008152602001600081525090565b815260200190600190039081610fd55790505b50915060006110416001600554613daf90919063ffffffff16565b90505b6004548111611181576003600061106660055485613daf90919063ffffffff16565b81526020019081526020016000206040518060a001604052908160008201548152602001600182018054611099906159f1565b80601f01602080910402602001604051908101604052809291908181526020018280546110c5906159f1565b80156111125780601f106110e757610100808354040283529160200191611112565b820191906000526020600020905b8154815290600101906020018083116110f557829003601f168201915b505050918352505060028201546001600160a01b0316602082015260038201546040820152600490910154606090910152835184908490811061115757611157615927565b602090810291909101015261116d826001613daf565b91508061117981615a26565b915050611044565b505090565b6005546000906111969083613daf565b905060045481106111a657506004545b60055442905b828110156112da5760025460008281526003602052604090206004015483916111d59190613daf565b10156112c8576000818152600360208181526040808420909201546001600160a01b037f00000000000000000000000000000000000000000000000000000000000000001684526010825282842030855290915291205461123591613b16565b6001600160a01b037f000000000000000000000000000000000000000000000000000000000000000016600090815260106020908152604080832030845282528083209390935583825260039052908120818155906112976001830182614eb8565b506002810180546001600160a01b03191690556000600382018190556004909101556112c4816001613daf565b6005555b806112d281615a26565b9150506111ac565b50505050565b600080546001600160a01b0316331461130b5760405162461bcd60e51b815260040161090790615878565b6000611315611491565b6001600160a01b03871660009081526006602052604090205490915060ff166113745760405162461bcd60e51b815260206004820152601160248201527017dd1bdad95b881a5cc81a5b9d985b1a59607a1b6044820152606401610907565b61138086868686613dbb565b61138957600080fd5b6001915080611396611491565b10156113d85760405162461bcd60e51b8152602060048201526011602482015270496e76616c6964204c505420707269636560781b6044820152606401610907565b50949350505050565b6000806113ee84846141d3565b90508060ff1660011415611454577f00000000000000000000000000000000000000000000000000000000000000006001600160a01b0316846001600160a01b03161461143c57600061144a565b6007546301000000900460ff165b60ff16915061148a565b8060ff166002141561148a576001600160a01b03841615611476576000611484565b6007546301000000900460ff165b60ff1691505b5092915050565b60008060006114c160007f0000000000000000000000000000000000000000000000000000000000000000613657565b9150915060007f00000000000000000000000000000000000000000000000000000000000000006001600160a01b03166318160ddd6040518163ffffffff1660e01b815260040160206040518083038186803b15801561152057600080fd5b505afa158015611534573d6000803e3d6000fd5b505050506040513d601f19601f8201168201806040525081019061155891906159a1565b905080156115b7576115b261157860085483613daf90919063ffffffff16565b6115ac7f00000000000000000000000000000000000000000000000000000000000000006115a68787613daf565b906142c2565b906142ce565b6115bb565b600a545b935050505090565b600260015414156115e65760405162461bcd60e51b8152600401610907906158f0565b60026001556001600160a01b03821660009081526010602090815260408083203384529091529020548111156116555760405162461bcd60e51b8152602060048201526014602482015273496e73756666696369656e742042616c616e636560601b6044820152606401610907565b6001600160a01b03821660009081526010602090815260408083203384529091529020546116839082613b16565b6001600160a01b0383166000908152601060209081526040808320338085529252909120919091556116b790839083613a1f565b6001600160a01b0382166000908152601060209081526040808320338085529252918290205491517febff2602b3f468259e1e99f613fed6691f3a6526effe6ef3e768ba7ae7a36c4f92611712928692909186914290615a41565b60405180910390a1505060018055565b600260015414156117455760405162461bcd60e51b8152600401610907906158f0565b60026001553361175d610140830161012084016155ee565b6001600160a01b0316146117ca5760405162461bcd60e51b815260206004820152602e60248201527f596f752063616e206f6e6c79206578656375746520737761707320746f20796f60448201526d7572206f776e206164647265737360901b6064820152608401610907565b6040810135601060006117e060208501856155ee565b6001600160a01b03168152602081019190915260400160009081209061180e610140850161012086016155ee565b6001600160a01b03166001600160a01b0316815260200190815260200160002054101561184d5760405162461bcd60e51b81526004016109079061596a565b6001600160a01b037f00000000000000000000000000000000000000000000000000000000000000001661188460208301836155ee565b6001600160a01b0316146118ec5760405162461bcd60e51b815260206004820152602960248201527f66726f6d546f6b656e206d7573742062652074686520726571756972656420426044820152682a21ba103a37b5b2b760b91b6064820152608401610907565b6118f5816142da565b61195c60408201356010600061190e60208601866155ee565b6001600160a01b03168152602081019190915260400160009081209061193c610140860161012087016155ee565b6001600160a01b0316815260208101919091526040016000205490613b16565b6010600061196d60208501856155ee565b6001600160a01b03168152602081019190915260400160009081209061199b610140850161012086016155ee565b6001600160a01b031681526020810191909152604001600020555060018055565b600080546001600160a01b031633146119e75760405162461bcd60e51b815260040161090790615878565b60006119f1611491565b6001600160a01b03871660009081526006602052604090205490915060ff16611a505760405162461bcd60e51b815260206004820152601160248201527017dd1bdad95b881a5cc81a5b9d985b1a59607a1b6044820152606401610907565b61138086868686614412565b606060008060005b600f54811015611acf57600d6000600f8381548110611a8557611a85615927565b60009182526020808320909101546001600160a01b0316835282019290925260400190205415611abd57611aba836001613daf565b92505b80611ac781615a26565b915050611a64565b506000826001600160401b03811115611aea57611aea614fc6565b604051908082528060200260200182016040528015611b13578160200160208202803683370190505b50905060005b600f54811015611bdf57600d6000600f8381548110611b3a57611b3a615927565b60009182526020808320909101546001600160a01b0316835282019290925260400190205415611bcd57600d6000600f8381548110611b7b57611b7b615927565b60009182526020808320909101546001600160a01b031683528201929092526040019020548251839085908110611bb457611bb4615927565b6020908102919091010152611bca836001613daf565b92505b80611bd781615a26565b915050611b19565b509392505050565b6000546001600160a01b03163314611c115760405162461bcd60e51b815260040161090790615878565b611c1b6000614662565b565b600080546001600160a01b03163314611c485760405162461bcd60e51b815260040161090790615878565b60075460ff610100909104811690861610801590611c6a575060ff8560ff1611155b611cc65760405162461bcd60e51b815260206004820152602760248201527f5f7473735468726573686f6c642073686f756c64206265203e3d2074737354686044820152661c995cda1bdb1960ca1b6064820152608401610907565b611cd1600186615a72565b60ff168660ff161015611d1b5760405162461bcd60e51b81526020600482015260126024820152716e2073686f756c64206265203e3d20742b3160701b6044820152606401610907565b60648460ff161115611d6f5760405162461bcd60e51b815260206004820152601e60248201527f5f6e6f646552657761726473526174696f206973206e6f742076616c696400006044820152606401610907565b60648360ff161115611d8057600080fd5b8651885114611df75760405162461bcd60e51b815260206004820152603b60248201527f5f72657761726441646472657373416e64416d6f756e747320616e64205f697360448201527f52656d6f766564206c656e67746820646f206e6f74206d6174636800000000006064820152608401610907565b8115611e0657611e06826146b2565b611e0f89613681565b60005b8851811015611e98576000611e438a8381518110611e3257611e32615927565b60200260200101519060a082901c90565b509050611e83818b8481518110611e5c57611e5c615927565b60200260200101518b8581518110611e7657611e76615927565b60200260200101516146f2565b50508080611e9090615a26565b915050611e12565b506000611ea3611a5c565b9050606481511115611f015760405162461bcd60e51b815260206004820152602160248201527f53746f726564206e6f64652073697a652073686f756c64206265203c3d2031306044820152600360fc1b6064820152608401610907565b50506007805460ff8481166401000000000264ff000000001987831662010000021664ff00ff0000198984166101000261ffff19909516938b1693909317939093179190911691909117179055600198975050505050505050565b600080546001600160a01b03163314611f875760405162461bcd60e51b815260040161090790615878565b6001600160a01b03851615611fde5760405162461bcd60e51b815260206004820152601f60248201527f5f64657374546f6b656e2073686f756c642062652061646472657373283029006044820152606401610907565b7f0000000000000000000000000000000000000000000000000000000000000000841561205257600061201585610e298887613b16565b905061204c7f000000000000000000000000000000000000000000000000000000000000000060006120478489613daf565b61371c565b5061205b565b8461205b575060005b6120658184613809565b50600195945050505050565b600260015414156120945760405162461bcd60e51b8152600401610907906158f0565b60026001556001600160a01b037f00000000000000000000000000000000000000000000000000000000000000001660009081526010602090815260408083203384529091529020548111156120e957600080fd5b604051632e1a7d4d60e01b8152600481018290527f00000000000000000000000000000000000000000000000000000000000000006001600160a01b031690632e1a7d4d90602401600060405180830381600087803b15801561214b57600080fd5b505af115801561215f573d6000803e3d6000fd5b5050506001600160a01b037f00000000000000000000000000000000000000000000000000000000000000001660009081526010602090815260408083203384529091529020546121b1915082613b16565b7f00000000000000000000000000000000000000000000000000000000000000006001600160a01b031660009081526010602090815260408083203380855292528083209390935591518190839085908381818185875af1925050503d8060008114612239576040519150601f19603f3d011682016040523d82523d6000602084013e61223e565b606091505b50915091508161224d57600080fd5b6001600160a01b037f0000000000000000000000000000000000000000000000000000000000000000166000908152601060209081526040808320338085529252918290205491517febff2602b3f468259e1e99f613fed6691f3a6526effe6ef3e768ba7ae7a36c4f926122dc9273eeeeeeeeeeeeeeeeeeeeeeeeeeeeeeeeeeeeeeee92909189914290615a41565b60405180910390a15050600180555050565b600080546001600160a01b031633146123195760405162461bcd60e51b815260040161090790615878565b6001600160a01b03861660009081526006602052604090205460ff166123815760405162461bcd60e51b815260206004820152601d60248201527f5f64657374546f6b656e206973206e6f742077686974656c69737465640000006044820152606401610907565b6001600160a01b0386166123a75760405162461bcd60e51b8152600401610907906158ad565b600084156123e0576123db60007f00000000000000000000000000000000000000000000000000000000000000008761371c565b612408565b8461240857507f00000000000000000000000000000000000000000000000000000000000000005b7f00000000000000000000000000000000000000000000000000000000000000006001600160a01b0316876001600160a01b0316141561246557507f00000000000000000000000000000000000000000000000000000000000000005b61246f8185613809565b612478836139b7565b60005b8651811015610a7a576124d08888838151811061249a5761249a615927565b602002602001015160001c8984815181106124b7576124b7615927565b602002602001015160a01c6001600160601b0316613a1f565b806124da81615a26565b91505061247b565b600080546001600160a01b0316331461250d5760405162461bcd60e51b815260040161090790615878565b8361255a5760405162461bcd60e51b815260206004820152601e60248201527f5f746f74616c53776170706564206d757374206265206e6f6e207a65726f00006044820152606401610907565b826125a75760405162461bcd60e51b815260206004820152601f60248201527f5f72657761726473416d6f756e74206d757374206265206e6f6e207a65726f006044820152606401610907565b6125d360007f00000000000000000000000000000000000000000000000000000000000000008661371c565b6001600160a01b037f000000000000000000000000000000000000000000000000000000000000000081166000908152601060209081526040808320938916835292905220546126239085613daf565b6001600160a01b037f000000000000000000000000000000000000000000000000000000000000000081166000908152601060209081526040808320938a168352929052908120919091556126789084613809565b612681826139b7565b506001949350505050565b6000600260015414156126b15760405162461bcd60e51b8152600401610907906158f0565b60026001556001600160a01b037f0000000000000000000000000000000000000000000000000000000000000000166126ed60208401846155ee565b6001600160a01b031614156127445760405162461bcd60e51b815260206004820152601c60248201527f4d757374206e6f7420737761702066726f6d2042544320746f6b656e000000006044820152606401610907565b6001600160a01b037f00000000000000000000000000000000000000000000000000000000000000001661277e60408401602085016155ee565b6001600160a01b0316146127cd5760405162461bcd60e51b815260206004820152601660248201527526bab9ba1039bbb0b8103a3790212a21903a37b5b2b760511b6044820152606401610907565b306127e0610140840161012085016155ee565b6001600160a01b0316146128405760405162461bcd60e51b815260206004820152602160248201527f42656e6566696369617279206d757374206265207468697320636f6e747261636044820152601d60fa1b6064820152608401610907565b60408201356010600061285660208601866155ee565b6001600160a01b0316815260208082019290925260409081016000908120338252909252902054101561289b5760405162461bcd60e51b81526004016109079061596a565b60006128ad60408401602085016155ee565b6040516370a0823160e01b81523060048201526001600160a01b0391909116906370a082319060240160206040518083038186803b1580156128ee57600080fd5b505afa158015612902573d6000803e3d6000fd5b505050506040513d601f19601f8201168201806040525081019061292691906159a1565b905061296e60408401356010600061294160208801886155ee565b6001600160a01b031681526020808201929092526040908101600090812033825290925290205490613b16565b6010600061297f60208701876155ee565b6001600160a01b03168152602080820192909252604090810160009081203382529092529020556129af836142da565b60006129f3826129c560408701602088016155ee565b6040516370a0823160e01b81523060048201526001600160a01b0391909116906370a0823190602401610dd9565b90508360800135811015612a195760405162461bcd60e51b8152600401610907906159ba565b80612a2357600080fd5b612a688160106000612a3b6040890160208a016155ee565b6001600160a01b031681526020808201929092526040908101600090812030825290925290205490613daf565b60106000612a7c60408801602089016155ee565b6001600160a01b0316815260208082019290925260409081016000908120308252909252902055612aae8686836147c1565b6001805595945050505050565b600080546001600160a01b03163314612ae65760405162461bcd60e51b815260040161090790615878565b6000828152600c602052604090205460ff1615612b155760405162461bcd60e51b815260040161090790615a97565b60408051808201909152601d81527f42544320666c6f617420616d6f756e7420696e73756666696369656e7400000060208083019190915260008052600b90527fdf7de25b7f1fd6d0b5205f0e18f1f35bd7b8d84cce336588d184533ce43a6f7654612b82918590614945565b60008052600b6020527fdf7de25b7f1fd6d0b5205f0e18f1f35bd7b8d84cce336588d184533ce43a6f7655612bb682614971565b5060015b92915050565b60026001541415612be35760405162461bcd60e51b8152600401610907906158f0565b600260015534612e0d576001600160a01b03821673eeeeeeeeeeeeeeeeeeeeeeeeeeeeeeeeeeeeeeee1415612c1757600080fd5b7f00000000000000000000000000000000000000000000000000000000000000006001600160a01b0316826001600160a01b03161415612c5657600080fd5b6040516370a0823160e01b81523060048201526000906001600160a01b038416906370a082319060240160206040518083038186803b158015612c9857600080fd5b505afa158015612cac573d6000803e3d6000fd5b505050506040513d601f19601f82011682018060405250810190612cd091906159a1565b9050612ce76001600160a01b03841633308561498c565b6040516370a0823160e01b81523060048201526000906001600160a01b038516906370a082319060240160206040518083038186803b158015612d2957600080fd5b505afa158015612d3d573d6000803e3d6000fd5b505050506040513d601f19601f82011682018060405250810190612d6191906159a1565b90506000612d6f8284613b16565b6001600160a01b0386166000908152601060209081526040808320338452909152902054909150612da09082613daf565b6001600160a01b03861660009081526010602090815260408083203380855292529182902083905590517f4e2ca0515ed1aef1395f66b5303bb5d6f1bf9d61a353fa53f73f8ac9973fa9f692612dfd928992909186914290615a41565b60405180910390a1505050612f6e565b60003411612e1a57600080fd5b7f00000000000000000000000000000000000000000000000000000000000000006001600160a01b031663d0e30db0346040518263ffffffff1660e01b81526004016000604051808303818588803b158015612e7557600080fd5b505af1158015612e89573d6000803e3d6000fd5b5050506001600160a01b037f0000000000000000000000000000000000000000000000000000000000000000166000908152601060209081526040808320338452909152902054612edd9250905034613daf565b7f00000000000000000000000000000000000000000000000000000000000000006001600160a01b031660009081526010602090815260408083203380855292529182902083905590517f4e2ca0515ed1aef1395f66b5303bb5d6f1bf9d61a353fa53f73f8ac9973fa9f6926117129273eeeeeeeeeeeeeeeeeeeeeeeeeeeeeeeeeeeeeeee92909134914290615a41565b505060018055565b600060026001541415612f9b5760405162461bcd60e51b8152600401610907906158f0565b6002600155600083838281612fb257612fb2615927565b9050602002016020810190612fc791906155ee565b905060008484612fd8600182615953565b818110612fe757612fe7615927565b9050602002016020810190612ffc91906155ee565b6001600160a01b03831660009081526010602090815260408083203384529091529020549091508711156130425760405162461bcd60e51b81526004016109079061596a565b7f00000000000000000000000000000000000000000000000000000000000000006001600160a01b0316826001600160a01b031614156130bf5760405162461bcd60e51b815260206004820152601860248201527726bab9ba1039bbb0b810333937b690212a21903a37b5b2b760411b6044820152606401610907565b6001600160a01b03821673eeeeeeeeeeeeeeeeeeeeeeeeeeeeeeeeeeeeeeee14156131245760405162461bcd60e51b815260206004820152601560248201527455736520706174682077455448202d3e207742544360581b6044820152606401610907565b7f00000000000000000000000000000000000000000000000000000000000000006001600160a01b0316816001600160a01b03161461319e5760405162461bcd60e51b815260206004820152601660248201527526bab9ba1039bbb0b8103a3790212a21903a37b5b2b760511b6044820152606401610907565b6040516370a0823160e01b81523060048201526000906001600160a01b038316906370a082319060240160206040518083038186803b1580156131e057600080fd5b505afa1580156131f4573d6000803e3d6000fd5b505050506040513d601f19601f8201168201806040525081019061321891906159a1565b6001600160a01b03841660009081526010602090815260408083203384529091529020549091506132499089613b16565b6001600160a01b03841660009081526010602090815260408083203384529091529020558a15613286576132818a8a8a8a8a8a613b29565b613292565b61329288888888613c6f565b6040516370a0823160e01b81523060048201526000906132c79083906001600160a01b038616906370a0823190602401610dd9565b9050878110156132e95760405162461bcd60e51b8152600401610907906159ba565b806132f357600080fd5b6001600160a01b03831660009081526010602090815260408083203084529091529020546133219082613daf565b6001600160a01b03841660009081526010602090815260408083203084529091529020556133508e8e836147c1565b600180559d9c50505050505050505050505050565b60008061337f600954600854613daf90919063ffffffff16565b9050600081116133df5760405162461bcd60e51b815260206004820152602560248201527f746f74616c5265776172644c5073466f724e6f6465206973206e6f7420706f73604482015264697469766560d81b6064820152608401610907565b60006133e9611a5c565b90506000805b82518110156134445761343083828151811061340d5761340d615927565b602002602001015160a01c6001600160601b031683613daf90919063ffffffff16565b91508061343c81615a26565b9150506133ef565b506008546040516340c10f1960e01b815230600482015260248101919091527f00000000000000000000000000000000000000000000000000000000000000006001600160a01b0316906340c10f1990604401602060405180830381600087803b1580156134b157600080fd5b505af11580156134c5573d6000803e3d6000fd5b505050506040513d601f19601f820116820180604052508101906134e99190615ace565b5060005b825181101561360f577f00000000000000000000000000000000000000000000000000000000000000006001600160a01b031663a9059cbb84838151811061353757613537615927565b602002602001015160001c61357e856115ac88878151811061355b5761355b615927565b602002602001015160a01c6001600160601b03168a6142c290919063ffffffff16565b6040516001600160e01b031960e085901b1681526001600160a01b0390921660048301526024820152604401602060405180830381600087803b1580156135c457600080fd5b505af11580156135d8573d6000803e3d6000fd5b505050506040513d601f19601f820116820180604052508101906135fc9190615ace565b508061360781615a26565b9150506134ed565b506040518381527f86dd6ae252e62228b47b3c1a12762cbf634952b2d29319b04f4f72fb153bcbdd9060200160405180910390a1505060006008819055600955506001919050565b6001600160a01b039182166000908152600b60205260408082205492909316815291909120549091565b6000546001600160a01b031633146136ab5760405162461bcd60e51b815260040161090790615878565b6001600160a01b0381166137105760405162461bcd60e51b815260206004820152602660248201527f4f776e61626c653a206e6577206f776e657220697320746865207a65726f206160448201526564647265737360d01b6064820152608401610907565b61371981614662565b50565b60408051808201825260208082527f5f737761703a20666c6f617420616d6f756e7420696e73756666696369656e74818301526001600160a01b0385166000908152600b9091529190912054613773918390614945565b6001600160a01b038084166000908152600b602052604080822093909355908516815220546137a29082613daf565b6001600160a01b038481166000818152600b60209081526040918290209490945580519182529185169281019290925281018290527fea368a40e9570069bb8e6511d668293ad2e1f03b0d982431fd223de9f3b70ca69060600160405180910390a1505050565b80613812575050565b7f00000000000000000000000000000000000000000000000000000000000000006001600160a01b0316826001600160a01b031614156138b0576009546138599082613daf565b600955604080516001600160a01b0384168152602081018390526000818301819052606082015290517fe3debe835f6848edc082b32a1d729781d3bfcd7e14422d80bcaa6794d3816b2f9181900360800190a15050565b60006138ba611491565b6001600160a01b0384166000908152600b60205260409020549091506138e09083613daf565b6001600160a01b0384166000908152600b602052604081209190915560075461391a906064906115ac90869062010000900460ff166142c2565b9050600061394c836115ac847f00000000000000000000000000000000000000000000000000000000000000006142c2565b60085490915061395c9082613daf565b600855604080516001600160a01b038716815260208101869052908101829052606081018490527fe3debe835f6848edc082b32a1d729781d3bfcd7e14422d80bcaa6794d3816b2f9060800160405180910390a15050505050565b60005b8151811015613a1b576001600c60008484815181106139db576139db615927565b6020026020010151815260200190815260200160002060006101000a81548160ff0219169083151502179055508080613a1390615a26565b9150506139ba565b5050565b7f00000000000000000000000000000000000000000000000000000000000000006001600160a01b0316836001600160a01b03161415613a8657613a83817f00000000000000000000000000000000000000000000000000000000000000006142c2565b90505b60405163a9059cbb60e01b81526001600160a01b0383811660048301526024820183905284169063a9059cbb90604401602060405180830381600087803b158015613ad057600080fd5b505af1158015613ae4573d6000803e3d6000fd5b505050506040513d601f19601f82011682018060405250810190613b089190615ace565b613b1157600080fd5b505050565b6000613b228284615953565b9392505050565b600082826000818110613b3e57613b3e615927565b9050602002016020810190613b5391906155ee565b9050600073def171fe48cf0115b1d80b88dc8eab59176fee576001600160a01b031663d2c4b5986040518163ffffffff1660e01b815260040160206040518083038186803b158015613ba457600080fd5b505afa158015613bb8573d6000803e3d6000fd5b505050506040513d601f19601f82011682018060405250810190613bdc9190615aeb565b9050613bf26001600160a01b03831682886149f7565b604051633d59840d60e21b815273def171fe48cf0115b1d80b88dc8eab59176fee579063f566103490613c33908b908b908b908b908b908b90600401615b51565b600060405180830381600087803b158015613c4d57600080fd5b505af1158015613c61573d6000803e3d6000fd5b505050505050505050505050565b600082826000818110613c8457613c84615927565b9050602002016020810190613c9991906155ee565b9050600073def171fe48cf0115b1d80b88dc8eab59176fee576001600160a01b031663d2c4b5986040518163ffffffff1660e01b815260040160206040518083038186803b158015613cea57600080fd5b505afa158015613cfe573d6000803e3d6000fd5b505050506040513d601f19601f82011682018060405250810190613d229190615aeb565b9050613d386001600160a01b03831682886149f7565b604051632a42068d60e11b815273def171fe48cf0115b1d80b88dc8eab59176fee57906354840d1a90613d75908990899089908990600401615b91565b600060405180830381600087803b158015613d8f57600080fd5b505af1158015613da3573d6000803e3d6000fd5b50505050505050505050565b6000613b228284615bbb565b6000818152600c602052604081205460ff1615613dea5760405162461bcd60e51b815260040161090790615a97565b83613e375760405162461bcd60e51b815260206004820152601c60248201527f546865207472616e73616374696f6e206973206e6f742076616c6964000000006044820152606401610907565b8360a081901c6000613e47611491565b90506000613e797f00000000000000000000000000000000000000000000000000000000000000006115ac85856142c2565b600754909150600090613ea090612710906115ac908590640100000000900460ff166142c2565b905087613ead8383613b16565b1015613f185760405162461bcd60e51b815260206004820152603460248201527f4572726f723a20616d6f756e744f66466c6f61742e737562287769746864726160448201527377616c4665657329203c205f6d696e657246656560601b6064820152608401610907565b6000613f2889610e298585613b16565b9050600080613f5860007f0000000000000000000000000000000000000000000000000000000000000000613657565b90925090506001600160a01b038d16613fc957613f758585613b16565b821015613fc45760405162461bcd60e51b815260206004820152601f60248201527f54686520666c6f61742062616c616e636520696e73756666696369656e742e006044820152606401610907565b61405c565b7f00000000000000000000000000000000000000000000000000000000000000006001600160a01b03168d6001600160a01b0316141561405c5761400d8585613b16565b81101561405c5760405162461bcd60e51b815260206004820152601f60248201527f54686520666c6f61742062616c616e636520696e73756666696369656e742e006044820152606401610907565b6140668d85613809565b6140708d86614ab8565b6140798a614971565b7f00000000000000000000000000000000000000000000000000000000000000006001600160a01b03168d6001600160a01b031614156140be576140be8d8985613a1f565b604051630852cd8d60e31b8152600481018890527f00000000000000000000000000000000000000000000000000000000000000006001600160a01b0316906342966c6890602401602060405180830381600087803b15801561412057600080fd5b505af1158015614134573d6000803e3d6000fd5b505050506040513d601f19601f820116820180604052508101906141589190615ace565b61416157600080fd5b604080516001600160a01b038a16815260208101899052908101869052606081018790526080810184905260a081018b90527fa9da34e5e4a956b744307ae7611795634e8365951073bf049d76b64b2ae7a0589060c00160405180910390a15060019c9b505050505050505050505050565b600080600061420360007f0000000000000000000000000000000000000000000000000000000000000000613657565b9092509050600061422860036115ac60026115a6896142228989613daf565b90613daf565b90507f00000000000000000000000000000000000000000000000000000000000000006001600160a01b0316866001600160a01b03161480156142745750806142718387613daf565b10155b156142855760019350505050612bba565b6001600160a01b0386161580156142a55750806142a28487613daf565b10155b156142b65760029350505050612bba565b50600095945050505050565b6000613b228284615bd3565b6000613b228284615bf2565b600073def171fe48cf0115b1d80b88dc8eab59176fee576001600160a01b031663d2c4b5986040518163ffffffff1660e01b815260040160206040518083038186803b15801561432957600080fd5b505afa15801561433d573d6000803e3d6000fd5b505050506040513d601f19601f820116820180604052508101906143619190615aeb565b905061438981604084013561437960208601866155ee565b6001600160a01b031691906149f7565b6040516354e3f31b60e01b815273def171fe48cf0115b1d80b88dc8eab59176fee57906354e3f31b906143c0908590600401615d18565b602060405180830381600087803b1580156143da57600080fd5b505af11580156143ee573d6000803e3d6000fd5b505050506040513d601f19601f82011682018060405250810190613b1191906159a1565b6000818152600c602052604081205460ff16156144415760405162461bcd60e51b815260040161090790615a97565b8361448e5760405162461bcd60e51b815260206004820152601c60248201527f546865207472616e73616374696f6e206973206e6f742076616c6964000000006044820152606401610907565b8360a081901c600061449e611491565b905060006144d0826115ac857f00000000000000000000000000000000000000000000000000000000000000006142c2565b905060006144de8a856113e1565b90506000816144ee5760006144fe565b6144fe6127106115ac85856142c2565b905088801561450c57508015155b1561451657600080fd5b6001600160a01b037f0000000000000000000000000000000000000000000000000000000000000000166340c10f19876145508685613b16565b6040516001600160e01b031960e085901b1681526001600160a01b0390921660048301526024820152604401602060405180830381600087803b15801561459657600080fd5b505af11580156145aa573d6000803e3d6000fd5b505050506040513d601f19601f820116820180604052508101906145ce9190615ace565b506008546145dc9082613daf565b6008556145e98b86614b15565b6145f288614971565b604080516001600160a01b038816815260208101879052908101849052606081018590526080810182905260a081018990527fdfaf4e23f7030adafec91a682e05bf9fb30c721f9cec3d8bcfae0459c5362db19060c00160405180910390a15060019a9950505050505050505050565b600080546001600160a01b038381166001600160a01b0319831681178455604051919092169283917f8be0079c531659141344cd1fd0a4f28419497f9722a3daafe3b4186f6b6457e09190a35050565b6002819055604080518281524260208201527fa1cc12e33e9907b789fd3c10ea0afd9d3e563e2db44d84c7269534f1046d1ca1910160405180910390a150565b6000811561471b57506001600160a01b0383166000908152600d60205260408120556001613b22565b6001600160a01b0384166000908152600e602052604090205460ff1661479f57600f805460018082019092557f8d1108e10bcb7c27dddfc02ed9d693a074039d026cf4ea4240b40f7d581ac8020180546001600160a01b0319166001600160a01b0387169081179091556000908152600e60205260409020805460ff191690911790555b50506001600160a01b03919091166000908152600d6020526040902055600190565b60007f00000000000000000000000000000000000000000000000000000000000000006004548585854260405160200161480096959493929190615ece565b6040516020818303038152906040528051906020012090506040518060a0016040528082815260200185858080601f0160208091040260200160405190810160405280939291908181526020018383808284376000920182905250938552505033602080850191909152604080850188905242606090950194909452600454835260038152929091208351815583830151805191936148a793506001850192910190614ef2565b5060408201516002820180546001600160a01b0319166001600160a01b03909216919091179055606082015160038201556080909101516004909101556148ec614b38565b6004546148fa906001613daf565b6004556040517faaa4c278970337923c885845b00985ecf5082317e2f9abf72a27b4d35255d6729061493790839087908790339088904290615f05565b60405180910390a150505050565b600081848411156149695760405162461bcd60e51b81526004016109079190615f46565b505050900390565b6000908152600c60205260409020805460ff19166001179055565b6040516001600160a01b03808516602483015283166044820152606481018290526112da9085906323b872dd60e01b906084015b60408051601f198184030181529190526020810180516001600160e01b03166001600160e01b031990931692909217909152614c6e565b604051636eb1769f60e11b81523060048201526001600160a01b038381166024830152600091839186169063dd62ed3e9060440160206040518083038186803b158015614a4357600080fd5b505afa158015614a57573d6000803e3d6000fd5b505050506040513d601f19601f82011682018060405250810190614a7b91906159a1565b614a859190615bbb565b6040516001600160a01b0385166024820152604481018290529091506112da90859063095ea7b360e01b906064016149c0565b614af581604051806060016040528060278152602001615f76602791396001600160a01b0385166000908152600b60205260409020549190614945565b6001600160a01b039092166000908152600b602052604090209190915550565b6001600160a01b0382166000908152600b6020526040902054614af59082613daf565b60055442905b600454811015613a1b576002546000828152600360205260409020600401548391614b699190613daf565b1015614c5c576000818152600360208181526040808420909201546001600160a01b037f000000000000000000000000000000000000000000000000000000000000000016845260108252828420308552909152912054614bc991613b16565b6001600160a01b037f00000000000000000000000000000000000000000000000000000000000000001660009081526010602090815260408083203084528252808320939093558382526003905290812081815590614c2b6001830182614eb8565b506002810180546001600160a01b0319169055600060038201819055600490910155614c58816001613daf565b6005555b80614c6681615a26565b915050614b3e565b6000614cc3826040518060400160405280602081526020017f5361666545524332303a206c6f772d6c6576656c2063616c6c206661696c6564815250856001600160a01b0316614d409092919063ffffffff16565b805190915015613b115780806020019051810190614ce19190615ace565b613b115760405162461bcd60e51b815260206004820152602a60248201527f5361666545524332303a204552433230206f7065726174696f6e20646964206e6044820152691bdd081cdd58d8d9595960b21b6064820152608401610907565b6060614d4f8484600085614d57565b949350505050565b606082471015614db85760405162461bcd60e51b815260206004820152602660248201527f416464726573733a20696e73756666696369656e742062616c616e636520666f6044820152651c8818d85b1b60d21b6064820152608401610907565b843b614e065760405162461bcd60e51b815260206004820152601d60248201527f416464726573733a2063616c6c20746f206e6f6e2d636f6e74726163740000006044820152606401610907565b600080866001600160a01b03168587604051614e229190615f59565b60006040518083038185875af1925050503d8060008114614e5f576040519150601f19603f3d011682016040523d82523d6000602084013e614e64565b606091505b5091509150614e74828286614e7f565b979650505050505050565b60608315614e8e575081613b22565b825115614e9e5782518084602001fd5b8160405162461bcd60e51b81526004016109079190615f46565b508054614ec4906159f1565b6000825580601f10614ed4575050565b601f0160209004906000526020600020908101906137199190614f76565b828054614efe906159f1565b90600052602060002090601f016020900481019282614f205760008555614f66565b82601f10614f3957805160ff1916838001178555614f66565b82800160010185558215614f66579182015b82811115614f66578251825591602001919060010190614f4b565b50614f72929150614f76565b5090565b5b80821115614f725760008155600101614f77565b634e487b7160e01b600052600160045260246000fd5b6001600160a01b038116811461371957600080fd5b8035614fc181614fa1565b919050565b634e487b7160e01b600052604160045260246000fd5b604051601f8201601f191681016001600160401b038111828210171561500457615004614fc6565b604052919050565b60006001600160401b0382111561502557615025614fc6565b5060051b60200190565b600082601f83011261504057600080fd5b813560206150556150508361500c565b614fdc565b82815260059290921b8401810191818101908684111561507457600080fd5b8286015b8481101561508f5780358352918301918301615078565b509695505050505050565b60008060008060008060c087890312156150b357600080fd5b86356150be81614fa1565b955060208701356150ce81614fa1565b945060408701359350606087013592506080870135915060a08701356001600160401b038111156150fe57600080fd5b61510a89828a0161502f565b9150509295509295509295565b801515811461371957600080fd5b60008083601f84011261513757600080fd5b5081356001600160401b0381111561514e57600080fd5b6020830191508360208260051b850101111561516957600080fd5b9250929050565b600080600080600080600060c0888a03121561518b57600080fd5b873561519681615117565b965060208801356151a681614fa1565b955060408801359450606088013593506080880135925060a08801356001600160401b038111156151d657600080fd5b6151e28a828b01615125565b989b979a50959850939692959293505050565b60006020828403121561520757600080fd5b5035919050565b60005b83811015615229578181015183820152602001615211565b838111156112da5750506000910152565b6000815180845261525281602086016020860161520e565b601f01601f19169290920160200192915050565b85815260a06020820152600061527f60a083018761523a565b6001600160a01b0395909516604083015250606081019290925260809091015292915050565b60006020808301818452808551808352604092508286019150828160051b87010184880160005b8381101561533557603f19898403018552815160a08151855288820151818a8701526152fa8287018261523a565b838a01516001600160a01b0316878b0152606080850151908801526080938401519390960192909252505093860193908601906001016152cc565b509098975050505050505050565b6000806000806080858703121561535957600080fd5b843561536481614fa1565b966020860135965060408601359560600135945092505050565b6000806040838503121561539157600080fd5b823561539c81614fa1565b946020939093013593505050565b600080604083850312156153bd57600080fd5b82356153c881614fa1565b915060208301356153d881614fa1565b809150509250929050565b60006101e082840312156153f657600080fd5b50919050565b60006020828403121561540e57600080fd5b81356001600160401b0381111561542457600080fd5b614d4f848285016153e3565b6000806000806080858703121561544657600080fd5b843561545181614fa1565b935060208501359250604085013561546881615117565b9396929550929360600135925050565b6020808252825182820181905260009190848201906040850190845b818110156154b057835183529284019291840191600101615494565b50909695505050505050565b803560ff81168114614fc157600080fd5b600080600080600080600080610100898b0312156154ea57600080fd5b88356154f581614fa1565b97506020898101356001600160401b038082111561551257600080fd5b61551e8d838e0161502f565b995060408c013591508082111561553457600080fd5b508a01601f81018c1361554657600080fd5b80356155546150508261500c565b81815260059190911b8201830190838101908e83111561557357600080fd5b928401925b8284101561559a57833561558b81615117565b82529284019290840190615578565b809a5050505050506155ae60608a016154bc565b94506155bc60808a016154bc565b93506155ca60a08a016154bc565b92506155d860c08a016154bc565b915060e089013590509295985092959890939650565b60006020828403121561560057600080fd5b8135613b2281614fa1565b600080600080600060a0868803121561562357600080fd5b853561562e81614fa1565b945060208601356001600160401b038082111561564a57600080fd5b61565689838a0161502f565b95506040880135945060608801359350608088013591508082111561567a57600080fd5b506156878882890161502f565b9150509295509295909350565b600080600080608085870312156156aa57600080fd5b84356156b581614fa1565b9350602085013592506040850135915060608501356001600160401b038111156156de57600080fd5b6156ea8782880161502f565b91505092959194509250565b60008083601f84011261570857600080fd5b5081356001600160401b0381111561571f57600080fd5b60208301915083602082850101111561516957600080fd5b60008060006040848603121561574c57600080fd5b83356001600160401b038082111561576357600080fd5b61576f878388016156f6565b9095509350602086013591508082111561578857600080fd5b50615795868287016153e3565b9150509250925092565b600080604083850312156157b257600080fd5b50508035926020909101359150565b600080600080600080600080600060e08a8c0312156157df57600080fd5b89356001600160401b03808211156157f657600080fd5b6158028d838e016156f6565b909b50995060208c0135915061581782615117565b90975060408b01359061582982614fa1565b90965060608b0135955060808b0135945060a08b0135935060c08b0135908082111561585457600080fd5b506158618c828d01615125565b915080935050809150509295985092959850929598565b6020808252818101527f4f776e61626c653a2063616c6c6572206973206e6f7420746865206f776e6572604082015260600190565b60208082526023908201527f5f64657374546f6b656e2073686f756c64206e6f74206265206164647265737360408201526228302960e81b606082015260800190565b6020808252601f908201527f5265656e7472616e637947756172643a207265656e7472616e742063616c6c00604082015260600190565b634e487b7160e01b600052603260045260246000fd5b634e487b7160e01b600052601160045260246000fd5b6000828210156159655761596561593d565b500390565b60208082526019908201527f42616c616e6365206973206e6f742073756666696369656e7400000000000000604082015260600190565b6000602082840312156159b357600080fd5b5051919050565b6020808252601c908201527f526563656976656420616d6f756e7420696e73756666696369656e7400000000604082015260600190565b600181811c90821680615a0557607f821691505b602082108114156153f657634e487b7160e01b600052602260045260246000fd5b6000600019821415615a3a57615a3a61593d565b5060010190565b6001600160a01b03958616815293909416602084015260408301919091526060820152608081019190915260a00190565b600060ff821660ff84168060ff03821115615a8f57615a8f61593d565b019392505050565b60208082526018908201527f546865207478696420697320616c726561647920757365640000000000000000604082015260600190565b600060208284031215615ae057600080fd5b8151613b2281615117565b600060208284031215615afd57600080fd5b8151613b2281614fa1565b8183526000602080850194508260005b85811015615b46578135615b2b81614fa1565b6001600160a01b031687529582019590820190600101615b18565b509495945050505050565b60018060a01b038716815285602082015284604082015283606082015260a060808201526000615b8560a083018486615b08565b98975050505050505050565b848152836020820152606060408201526000615bb1606083018486615b08565b9695505050505050565b60008219821115615bce57615bce61593d565b500190565b6000816000190483118215151615615bed57615bed61593d565b500290565b600082615c0f57634e487b7160e01b600052601260045260246000fd5b500490565b6000808335601e19843603018112615c2b57600080fd5b83016020810192503590506001600160401b03811115615c4a57600080fd5b8060051b360383131561516957600080fd5b6000808335601e19843603018112615c7357600080fd5b83016020810192503590506001600160401b03811115615c9257600080fd5b80360383131561516957600080fd5b81835281816020850137506000828201602090810191909152601f909101601f19169091010190565b81835260006001600160fb1b03831115615ce357600080fd5b8260051b8083602087013760009401602001938452509192915050565b80356001600160801b031981168114614fc157600080fd5b60208152615d3960208201615d2c84614fb6565b6001600160a01b03169052565b6000615d4760208401614fb6565b6001600160a01b0381166040840152506040830135606083015260608301356080830152608083013560a0830152615d8260a0840184615c14565b6101e08060c0860152615d9a61020086018385615b08565b9250615da960c0870187615c5c565b9250601f19808786030160e0880152615dc3858584615ca1565b9450615dd260e0890189615c14565b94509150610100818887030181890152615ded868685615cca565b9550615dfb818a018a615c14565b9550925050610120818887030181890152615e17868685615cca565b9550615e24818a01614fb6565b9450506101409150615e40828801856001600160a01b03169052565b615e4b828901614fb6565b93506101609150615e66828801856001600160a01b03169052565b61018093508188013584880152615e7f84890189615c5c565b945091506101a0818887030181890152615e9a868685615ca1565b95506101c094508089013585890152505050615eb7828701615d00565b6001600160801b0319169401939093529392505050565b6001600160601b03198760601b16815285601482015283856034830137603493019283019190915260548201526074019392505050565b86815260a060208201526000615f1f60a083018789615ca1565b6001600160a01b039590951660408301525060608101929092526080909101529392505050565b602081526000613b22602083018461523a565b60008251615f6b81846020870161520e565b919091019291505056fe5f72656d6f7665466c6f61743a20666c6f617420616d6f756e7420696e73756666696369656e74a2646970667358221220b74cf8fc0ae2b8c5e319d6ad36ae64e7977fd75c46a6c48cff5395135e3b605664736f6c63430008090033",
  "linkReferences": {},
  "deployedLinkReferences": {}
}