{
  "_format": "hh-sol-artifact-1",
  "contractName": "SwapContract",
  "sourceName": "contracts/SwapContract.sol",
  "abi": [
    {
      "inputs": [
        {
          "internalType": "address",
          "name": "_lpToken",
          "type": "address"
        },
        {
          "internalType": "address",
          "name": "_btct",
          "type": "address"
        },
        {
          "internalType": "address",
          "name": "_wETH",
          "type": "address"
        },
        {
          "internalType": "uint256",
          "name": "_existingBTCFloat",
          "type": "uint256"
        }
      ],
      "stateMutability": "nonpayable",
      "type": "constructor"
    },
    {
      "anonymous": false,
      "inputs": [
        {
          "indexed": false,
          "internalType": "address",
          "name": "token",
          "type": "address"
        },
        {
          "indexed": false,
          "internalType": "uint256",
          "name": "amountOfLP",
          "type": "uint256"
        },
        {
          "indexed": false,
          "internalType": "uint256",
          "name": "amountOfFloat",
          "type": "uint256"
        },
        {
          "indexed": false,
          "internalType": "uint256",
          "name": "currentPriceLP",
          "type": "uint256"
        },
        {
          "indexed": false,
          "internalType": "uint256",
          "name": "withdrawal",
          "type": "uint256"
        },
        {
          "indexed": false,
          "internalType": "bytes32",
          "name": "txid",
          "type": "bytes32"
        }
      ],
      "name": "BurnLPTokensForFloat",
      "type": "event"
    },
    {
      "anonymous": false,
      "inputs": [
        {
          "indexed": false,
          "internalType": "address",
          "name": "token",
          "type": "address"
        },
        {
          "indexed": false,
          "internalType": "address",
          "name": "user",
          "type": "address"
        },
        {
          "indexed": false,
          "internalType": "uint256",
          "name": "amount",
          "type": "uint256"
        },
        {
          "indexed": false,
          "internalType": "uint256",
          "name": "balance",
          "type": "uint256"
        },
        {
          "indexed": false,
          "internalType": "uint256",
          "name": "Timestamp",
          "type": "uint256"
        }
      ],
      "name": "Deposit",
      "type": "event"
    },
    {
      "anonymous": false,
      "inputs": [
        {
          "indexed": false,
          "internalType": "uint256",
          "name": "rewardLPTsForNodes",
          "type": "uint256"
        }
      ],
      "name": "DistributeNodeRewards",
      "type": "event"
    },
    {
      "anonymous": false,
      "inputs": [
        {
          "indexed": false,
          "internalType": "address",
          "name": "to",
          "type": "address"
        },
        {
          "indexed": false,
          "internalType": "uint256",
          "name": "amountOfFloat",
          "type": "uint256"
        },
        {
          "indexed": false,
          "internalType": "uint256",
          "name": "amountOfLP",
          "type": "uint256"
        },
        {
          "indexed": false,
          "internalType": "uint256",
          "name": "currentPriceLP",
          "type": "uint256"
        },
        {
          "indexed": false,
          "internalType": "uint256",
          "name": "depositFees",
          "type": "uint256"
        },
        {
          "indexed": false,
          "internalType": "bytes32",
          "name": "txid",
          "type": "bytes32"
        }
      ],
      "name": "IssueLPTokensForFloat",
      "type": "event"
    },
    {
      "anonymous": false,
      "inputs": [
        {
          "indexed": true,
          "internalType": "address",
          "name": "previousOwner",
          "type": "address"
        },
        {
          "indexed": true,
          "internalType": "address",
          "name": "newOwner",
          "type": "address"
        }
      ],
      "name": "OwnershipTransferred",
      "type": "event"
    },
    {
      "anonymous": false,
      "inputs": [
        {
          "indexed": false,
          "internalType": "address",
          "name": "feesToken",
          "type": "address"
        },
        {
          "indexed": false,
          "internalType": "uint256",
          "name": "rewards",
          "type": "uint256"
        },
        {
          "indexed": false,
          "internalType": "uint256",
          "name": "amountLPTokensForNode",
          "type": "uint256"
        },
        {
          "indexed": false,
          "internalType": "uint256",
          "name": "currentPriceLP",
          "type": "uint256"
        }
      ],
      "name": "RewardsCollection",
      "type": "event"
    },
    {
      "anonymous": false,
      "inputs": [
        {
          "indexed": false,
          "internalType": "address",
          "name": "from",
          "type": "address"
        },
        {
          "indexed": false,
          "internalType": "address",
          "name": "to",
          "type": "address"
        },
        {
          "indexed": false,
          "internalType": "uint256",
          "name": "amount",
          "type": "uint256"
        }
      ],
      "name": "Swap",
      "type": "event"
    },
    {
      "anonymous": false,
      "inputs": [
        {
          "indexed": false,
          "internalType": "bytes32",
          "name": "swap_id",
          "type": "bytes32"
        },
        {
          "indexed": false,
          "internalType": "uint256",
          "name": "input_amount",
          "type": "uint256"
        },
        {
          "indexed": false,
          "internalType": "uint256",
          "name": "output_amount",
          "type": "uint256"
        },
        {
          "indexed": false,
          "internalType": "string",
          "name": "dest_address_btc",
          "type": "string"
        },
        {
          "indexed": false,
          "internalType": "uint64",
          "name": "Timestamp",
          "type": "uint64"
        },
        {
          "indexed": false,
          "internalType": "uint64",
          "name": "ExpirationTime",
          "type": "uint64"
        }
      ],
      "name": "SwapTokensToBTC",
      "type": "event"
    },
    {
      "anonymous": false,
      "inputs": [
        {
          "indexed": false,
          "internalType": "address",
          "name": "token",
          "type": "address"
        },
        {
          "indexed": false,
          "internalType": "address",
          "name": "user",
          "type": "address"
        },
        {
          "indexed": false,
          "internalType": "uint256",
          "name": "amount",
          "type": "uint256"
        },
        {
          "indexed": false,
          "internalType": "uint256",
          "name": "balance",
          "type": "uint256"
        }
      ],
      "name": "Withdraw",
      "type": "event"
    },
    {
      "stateMutability": "nonpayable",
      "type": "fallback"
    },
    {
      "inputs": [],
      "name": "BTCT_ADDR",
      "outputs": [
        {
          "internalType": "address",
          "name": "",
          "type": "address"
        }
      ],
      "stateMutability": "view",
      "type": "function"
    },
    {
      "inputs": [
        {
          "internalType": "address",
          "name": "_token",
          "type": "address"
        },
        {
          "internalType": "address",
          "name": "_user",
          "type": "address"
        }
      ],
      "name": "balanceOf",
      "outputs": [
        {
          "internalType": "uint256",
          "name": "",
          "type": "uint256"
        }
      ],
      "stateMutability": "view",
      "type": "function"
    },
    {
      "inputs": [
        {
          "internalType": "address",
          "name": "_newOwner",
          "type": "address"
        },
        {
          "internalType": "bytes32[]",
          "name": "_rewardAddressAndAmounts",
          "type": "bytes32[]"
        },
        {
          "internalType": "bool[]",
          "name": "_isRemoved",
          "type": "bool[]"
        },
        {
          "internalType": "uint8",
          "name": "_churnedInCount",
          "type": "uint8"
        },
        {
          "internalType": "uint8",
          "name": "_tssThreshold",
          "type": "uint8"
        },
        {
          "internalType": "uint8",
          "name": "_nodeRewardsRatio",
          "type": "uint8"
        },
        {
          "internalType": "uint8",
          "name": "_withdrawalFeeBPS",
          "type": "uint8"
        }
      ],
      "name": "churn",
      "outputs": [
        {
          "internalType": "bool",
          "name": "",
          "type": "bool"
        }
      ],
      "stateMutability": "nonpayable",
      "type": "function"
    },
    {
      "inputs": [],
      "name": "churnedInCount",
      "outputs": [
        {
          "internalType": "uint8",
          "name": "",
          "type": "uint8"
        }
      ],
      "stateMutability": "view",
      "type": "function"
    },
    {
      "inputs": [
        {
          "internalType": "address",
          "name": "_destToken",
          "type": "address"
        },
        {
          "internalType": "uint256",
          "name": "_incomingAmount",
          "type": "uint256"
        },
        {
          "internalType": "uint256",
          "name": "_minerFee",
          "type": "uint256"
        },
        {
          "internalType": "uint256",
          "name": "_rewardsAmount",
          "type": "uint256"
        }
      ],
      "name": "collectSwapFeesForBTC",
      "outputs": [
        {
          "internalType": "bool",
          "name": "",
          "type": "bool"
        }
      ],
      "stateMutability": "nonpayable",
      "type": "function"
    },
    {
      "inputs": [],
      "name": "depositFeesBPS",
      "outputs": [
        {
          "internalType": "uint8",
          "name": "",
          "type": "uint8"
        }
      ],
      "stateMutability": "view",
      "type": "function"
    },
    {
      "inputs": [],
      "name": "distributeNodeRewards",
      "outputs": [
        {
          "internalType": "bool",
          "name": "",
          "type": "bool"
        }
      ],
      "stateMutability": "nonpayable",
      "type": "function"
    },
    {
      "inputs": [],
      "name": "expirationTime",
      "outputs": [
        {
          "internalType": "uint64",
          "name": "",
          "type": "uint64"
        }
      ],
      "stateMutability": "view",
      "type": "function"
    },
    {
      "inputs": [],
      "name": "feesLPTokensForNode",
      "outputs": [
        {
          "internalType": "uint256",
          "name": "",
          "type": "uint256"
        }
      ],
      "stateMutability": "view",
      "type": "function"
    },
    {
      "inputs": [],
      "name": "getActiveNodes",
      "outputs": [
        {
          "internalType": "bytes32[]",
          "name": "",
          "type": "bytes32[]"
        }
      ],
      "stateMutability": "view",
      "type": "function"
    },
    {
      "inputs": [],
      "name": "getCurrentPriceLP",
      "outputs": [
        {
          "internalType": "uint256",
          "name": "nowPrice",
          "type": "uint256"
        }
      ],
      "stateMutability": "view",
      "type": "function"
    },
    {
      "inputs": [
        {
          "internalType": "address",
          "name": "_token",
          "type": "address"
        },
        {
          "internalType": "uint256",
          "name": "_amountOfFloat",
          "type": "uint256"
        }
      ],
      "name": "getDepositFeeRate",
      "outputs": [
        {
          "internalType": "uint256",
          "name": "depositFeeRate",
          "type": "uint256"
        }
      ],
      "stateMutability": "view",
      "type": "function"
    },
    {
      "inputs": [
        {
          "internalType": "address",
          "name": "_tokenA",
          "type": "address"
        },
        {
          "internalType": "address",
          "name": "_tokenB",
          "type": "address"
        }
      ],
      "name": "getFloatReserve",
      "outputs": [
        {
          "internalType": "uint256",
          "name": "reserveA",
          "type": "uint256"
        },
        {
          "internalType": "uint256",
          "name": "reserveB",
          "type": "uint256"
        }
      ],
      "stateMutability": "view",
      "type": "function"
    },
    {
      "inputs": [],
      "name": "initialExchangeRate",
      "outputs": [
        {
          "internalType": "uint256",
          "name": "",
          "type": "uint256"
        }
      ],
      "stateMutability": "view",
      "type": "function"
    },
    {
      "inputs": [
        {
          "internalType": "bytes32",
          "name": "_txid",
          "type": "bytes32"
        }
      ],
      "name": "isTxUsed",
      "outputs": [
        {
          "internalType": "bool",
          "name": "",
          "type": "bool"
        }
      ],
      "stateMutability": "view",
      "type": "function"
    },
    {
      "inputs": [],
      "name": "lockedLPTokensForNode",
      "outputs": [
        {
          "internalType": "uint256",
          "name": "",
          "type": "uint256"
        }
      ],
      "stateMutability": "view",
      "type": "function"
    },
    {
      "inputs": [],
      "name": "lpToken",
      "outputs": [
        {
          "internalType": "address",
          "name": "",
          "type": "address"
        }
      ],
      "stateMutability": "view",
      "type": "function"
    },
    {
      "inputs": [
        {
          "internalType": "address",
          "name": "_destToken",
          "type": "address"
        },
        {
          "internalType": "bytes32[]",
          "name": "_addressesAndAmounts",
          "type": "bytes32[]"
        },
        {
          "internalType": "uint256",
          "name": "_totalSwapped",
          "type": "uint256"
        },
        {
          "internalType": "uint256",
          "name": "_rewardsAmount",
          "type": "uint256"
        },
        {
          "internalType": "bytes32[]",
          "name": "_redeemedFloatTxIds",
          "type": "bytes32[]"
        }
      ],
      "name": "multiTransferERC20TightlyPacked",
      "outputs": [
        {
          "internalType": "bool",
          "name": "",
          "type": "bool"
        }
      ],
      "stateMutability": "nonpayable",
      "type": "function"
    },
    {
      "inputs": [],
      "name": "nodeRewardsRatio",
      "outputs": [
        {
          "internalType": "uint8",
          "name": "",
          "type": "uint8"
        }
      ],
      "stateMutability": "view",
      "type": "function"
    },
    {
      "inputs": [],
      "name": "owner",
      "outputs": [
        {
          "internalType": "address",
          "name": "",
          "type": "address"
        }
      ],
      "stateMutability": "view",
      "type": "function"
    },
    {
      "inputs": [
        {
          "internalType": "address",
          "name": "_token",
          "type": "address"
        },
        {
          "internalType": "bytes32",
          "name": "_addressesAndAmountOfFloat",
          "type": "bytes32"
        },
        {
          "internalType": "bool",
          "name": "_zerofee",
          "type": "bool"
        },
        {
          "internalType": "bytes32",
          "name": "_txid",
          "type": "bytes32"
        }
      ],
      "name": "recordIncomingFloat",
      "outputs": [
        {
          "internalType": "bool",
          "name": "",
          "type": "bool"
        }
      ],
      "stateMutability": "nonpayable",
      "type": "function"
    },
    {
      "inputs": [
        {
          "internalType": "address",
          "name": "_token",
          "type": "address"
        },
        {
          "internalType": "bytes32",
          "name": "_addressesAndAmountOfLPtoken",
          "type": "bytes32"
        },
        {
          "internalType": "uint256",
          "name": "_minerFee",
          "type": "uint256"
        },
        {
          "internalType": "bytes32",
          "name": "_txid",
          "type": "bytes32"
        }
      ],
      "name": "recordOutcomingFloat",
      "outputs": [
        {
          "internalType": "bool",
          "name": "",
          "type": "bool"
        }
      ],
      "stateMutability": "nonpayable",
      "type": "function"
    },
    {
      "inputs": [
        {
          "internalType": "address",
          "name": "_destToken",
          "type": "address"
        },
        {
          "internalType": "address",
          "name": "_to",
          "type": "address"
        },
        {
          "internalType": "uint256",
          "name": "_amount",
          "type": "uint256"
        },
        {
          "internalType": "uint256",
          "name": "_totalSwapped",
          "type": "uint256"
        },
        {
          "internalType": "bytes32[]",
          "name": "_redeemedFloatTxIds",
          "type": "bytes32[]"
        }
      ],
      "name": "recordSkyPoolsTX",
      "outputs": [
        {
          "internalType": "bool",
          "name": "",
          "type": "bool"
        }
      ],
      "stateMutability": "nonpayable",
      "type": "function"
    },
    {
      "inputs": [
        {
          "internalType": "uint256",
          "name": "_minerFee",
          "type": "uint256"
        },
        {
          "internalType": "bytes32",
          "name": "_txid",
          "type": "bytes32"
        }
      ],
      "name": "recordUTXOSweepMinerFee",
      "outputs": [
        {
          "internalType": "bool",
          "name": "",
          "type": "bool"
        }
      ],
      "stateMutability": "nonpayable",
      "type": "function"
    },
    {
      "inputs": [
        {
          "internalType": "address",
          "name": "_token",
          "type": "address"
        },
        {
          "internalType": "uint256",
          "name": "_amount",
          "type": "uint256"
        }
      ],
      "name": "redeemERC20Token",
      "outputs": [
        {
          "internalType": "bool",
          "name": "",
          "type": "bool"
        }
      ],
      "stateMutability": "nonpayable",
      "type": "function"
    },
    {
      "inputs": [
        {
          "internalType": "uint256",
          "name": "_amount",
          "type": "uint256"
        }
      ],
      "name": "redeemEther",
      "outputs": [],
      "stateMutability": "payable",
      "type": "function"
    },
    {
      "inputs": [],
      "name": "renounceOwnership",
      "outputs": [],
      "stateMutability": "nonpayable",
      "type": "function"
    },
    {
      "inputs": [
        {
          "internalType": "uint64",
          "name": "_expirationTime",
          "type": "uint64"
        }
      ],
      "name": "setExpirationTime",
      "outputs": [],
      "stateMutability": "nonpayable",
      "type": "function"
    },
    {
      "inputs": [
        {
          "internalType": "address",
          "name": "_destToken",
          "type": "address"
        },
        {
          "internalType": "address",
          "name": "_to",
          "type": "address"
        },
        {
          "internalType": "uint256",
          "name": "_amount",
          "type": "uint256"
        },
        {
          "internalType": "uint256",
          "name": "_totalSwapped",
          "type": "uint256"
        },
        {
          "internalType": "uint256",
          "name": "_rewardsAmount",
          "type": "uint256"
        },
        {
          "internalType": "bytes32[]",
          "name": "_redeemedFloatTxIds",
          "type": "bytes32[]"
        }
      ],
      "name": "singleTransferERC20",
      "outputs": [
        {
          "internalType": "bool",
          "name": "",
          "type": "bool"
        }
      ],
      "stateMutability": "nonpayable",
      "type": "function"
    },
    {
      "inputs": [
        {
          "internalType": "bool",
          "name": "_fullCheck",
          "type": "bool"
        }
      ],
      "name": "spCleanUpOldSPTXs",
      "outputs": [],
      "stateMutability": "nonpayable",
      "type": "function"
    },
    {
      "inputs": [
        {
          "internalType": "address",
          "name": "_token",
          "type": "address"
        },
        {
          "internalType": "uint256",
          "name": "_amount",
          "type": "uint256"
        }
      ],
      "name": "spDeposit",
      "outputs": [],
      "stateMutability": "payable",
      "type": "function"
    },
    {
      "inputs": [],
      "name": "spGetPendingSwaps",
      "outputs": [
        {
          "components": [
            {
              "internalType": "bytes32",
              "name": "SwapID",
              "type": "bytes32"
            },
            {
              "internalType": "string",
              "name": "DestAddr",
              "type": "string"
            },
            {
              "internalType": "uint256",
              "name": "AmountWBTC",
              "type": "uint256"
            },
            {
              "internalType": "uint64",
              "name": "Timestamp",
              "type": "uint64"
            },
            {
              "internalType": "uint64",
              "name": "ExpirationTime",
              "type": "uint64"
            }
          ],
          "internalType": "struct SwapContract.spPendingTx[]",
          "name": "data",
          "type": "tuple[]"
        }
      ],
      "stateMutability": "view",
      "type": "function"
    },
    {
      "inputs": [
        {
          "components": [
            {
              "internalType": "address",
              "name": "fromToken",
              "type": "address"
            },
            {
              "internalType": "address",
              "name": "toToken",
              "type": "address"
            },
            {
              "internalType": "uint256",
              "name": "fromAmount",
              "type": "uint256"
            },
            {
              "internalType": "uint256",
              "name": "toAmount",
              "type": "uint256"
            },
            {
              "internalType": "uint256",
              "name": "expectedAmount",
              "type": "uint256"
            },
            {
              "internalType": "address[]",
              "name": "callees",
              "type": "address[]"
            },
            {
              "internalType": "bytes",
              "name": "exchangeData",
              "type": "bytes"
            },
            {
              "internalType": "uint256[]",
              "name": "startIndexes",
              "type": "uint256[]"
            },
            {
              "internalType": "uint256[]",
              "name": "values",
              "type": "uint256[]"
            },
            {
              "internalType": "address payable",
              "name": "beneficiary",
              "type": "address"
            },
            {
              "internalType": "address payable",
              "name": "partner",
              "type": "address"
            },
            {
              "internalType": "uint256",
              "name": "feePercent",
              "type": "uint256"
            },
            {
              "internalType": "bytes",
              "name": "permit",
              "type": "bytes"
            },
            {
              "internalType": "uint256",
              "name": "deadline",
              "type": "uint256"
            },
            {
              "internalType": "bytes16",
              "name": "uuid",
              "type": "bytes16"
            }
          ],
          "internalType": "struct Utils.SimpleData",
          "name": "_data",
          "type": "tuple"
        }
      ],
      "name": "spParaSwapBTC2Token",
      "outputs": [],
      "stateMutability": "nonpayable",
      "type": "function"
    },
    {
      "inputs": [
        {
          "internalType": "string",
          "name": "_destinationAddressForBTC",
          "type": "string"
        },
        {
          "components": [
            {
              "internalType": "address",
              "name": "fromToken",
              "type": "address"
            },
            {
              "internalType": "address",
              "name": "toToken",
              "type": "address"
            },
            {
              "internalType": "uint256",
              "name": "fromAmount",
              "type": "uint256"
            },
            {
              "internalType": "uint256",
              "name": "toAmount",
              "type": "uint256"
            },
            {
              "internalType": "uint256",
              "name": "expectedAmount",
              "type": "uint256"
            },
            {
              "internalType": "address[]",
              "name": "callees",
              "type": "address[]"
            },
            {
              "internalType": "bytes",
              "name": "exchangeData",
              "type": "bytes"
            },
            {
              "internalType": "uint256[]",
              "name": "startIndexes",
              "type": "uint256[]"
            },
            {
              "internalType": "uint256[]",
              "name": "values",
              "type": "uint256[]"
            },
            {
              "internalType": "address payable",
              "name": "beneficiary",
              "type": "address"
            },
            {
              "internalType": "address payable",
              "name": "partner",
              "type": "address"
            },
            {
              "internalType": "uint256",
              "name": "feePercent",
              "type": "uint256"
            },
            {
              "internalType": "bytes",
              "name": "permit",
              "type": "bytes"
            },
            {
              "internalType": "uint256",
              "name": "deadline",
              "type": "uint256"
            },
            {
              "internalType": "bytes16",
              "name": "uuid",
              "type": "bytes16"
            }
          ],
          "internalType": "struct Utils.SimpleData",
          "name": "_data",
          "type": "tuple"
        }
      ],
      "name": "spParaSwapToken2BTC",
      "outputs": [],
      "stateMutability": "nonpayable",
      "type": "function"
    },
    {
      "inputs": [
        {
          "internalType": "uint256",
          "name": "",
          "type": "uint256"
        }
      ],
      "name": "spPendingTXs",
      "outputs": [
        {
          "internalType": "bytes32",
          "name": "SwapID",
          "type": "bytes32"
        },
        {
          "internalType": "string",
          "name": "DestAddr",
          "type": "string"
        },
        {
          "internalType": "uint256",
          "name": "AmountWBTC",
          "type": "uint256"
        },
        {
          "internalType": "uint64",
          "name": "Timestamp",
          "type": "uint64"
        },
        {
          "internalType": "uint64",
          "name": "ExpirationTime",
          "type": "uint64"
        }
      ],
      "stateMutability": "view",
      "type": "function"
    },
    {
      "inputs": [
        {
          "internalType": "address",
          "name": "",
          "type": "address"
        },
        {
          "internalType": "address",
          "name": "",
          "type": "address"
        }
      ],
      "name": "tokens",
      "outputs": [
        {
          "internalType": "uint256",
          "name": "",
          "type": "uint256"
        }
      ],
      "stateMutability": "view",
      "type": "function"
    },
    {
      "inputs": [
        {
          "internalType": "address",
          "name": "newOwner",
          "type": "address"
        }
      ],
      "name": "transferOwnership",
      "outputs": [],
      "stateMutability": "nonpayable",
      "type": "function"
    },
    {
      "inputs": [],
      "name": "tssThreshold",
      "outputs": [
        {
          "internalType": "uint8",
          "name": "",
          "type": "uint8"
        }
      ],
      "stateMutability": "view",
      "type": "function"
    },
    {
      "inputs": [],
      "name": "wETH",
      "outputs": [
        {
          "internalType": "address",
          "name": "",
          "type": "address"
        }
      ],
      "stateMutability": "view",
      "type": "function"
    },
    {
      "inputs": [
        {
          "internalType": "address",
          "name": "",
          "type": "address"
        }
      ],
      "name": "whitelist",
      "outputs": [
        {
          "internalType": "bool",
          "name": "",
          "type": "bool"
        }
      ],
      "stateMutability": "view",
      "type": "function"
    },
    {
      "inputs": [],
      "name": "withdrawalFeeBPS",
      "outputs": [
        {
          "internalType": "uint8",
          "name": "",
          "type": "uint8"
        }
      ],
      "stateMutability": "view",
      "type": "function"
    }
  ],
  "bytecode": "0x6101206040523480156200001257600080fd5b50604051620057d6380380620057d683398101604081905262000035916200035b565b6000620000416200033a565b600080546001600160a01b0319166001600160a01b0383169081178255604051929350917f8be0079c531659141344cd1fd0a4f28419497f9722a3daafe3b4186f6b6457e0908290a35060018055600280546001600160401b03191662093a801790556000600581905560049081556001600160601b0319606084811b82166101005286901b1660a0526040805163313ce56760e01b815290516001600160a01b0387169263313ce56792808201926020929091829003018186803b1580156200010a57600080fd5b505afa1580156200011f573d6000803e3d6000fd5b505050506040513d601f19601f82011682018060405250810190620001459190620003ac565b60ff16600a0a60e052606083901b6001600160601b0319166080526007805462ff00001916624200001763ff000000191663320000001760ff60201b19166414000000001790556040805163313ce56760e01b815290516008916001600160a01b0386169163313ce56791600480820192602092909190829003018186803b158015620001d157600080fd5b505afa158015620001e6573d6000803e3d6000fd5b505050506040513d601f19601f820116820180604052508101906200020c9190620003ac565b0360ff16600a0a60c08181525050836001600160a01b031663313ce5676040518163ffffffff1660e01b815260040160206040518083038186803b1580156200025457600080fd5b505afa15801562000269573d6000803e3d6000fd5b505050506040513d601f19601f820116820180604052508101906200028f9190620003ac565b60ff16600a90810a90556000600881905560098190556001600160a01b039384168152600660209081526040808320805460ff199081166001908117909255979096168352822080548716861790559080527f54cdd369e4e8a8515e52ca72ec816c2101831ad1f18bf44102ed171459c9b4f8805490951690931790935550600b90527fdf7de25b7f1fd6d0b5205f0e18f1f35bd7b8d84cce336588d184533ce43a6f7655620003d6565b3390565b80516001600160a01b03811681146200035657600080fd5b919050565b6000806000806080858703121562000371578384fd5b6200037c856200033e565b93506200038c602086016200033e565b92506200039c604086016200033e565b6060959095015193969295505050565b600060208284031215620003be578081fd5b815160ff81168114620003cf578182fd5b9392505050565b60805160601c60a05160601c60c05160e0516101005160601c6152fe620004d86000398061198c528061220e528061292c5250806111195280613004528061322752806137d752508061310f525080610b245280610b5f528061106552806115415280611c205280611c5b5280612444528061247f52806125b8528061264e5280612f0d52806133ff528061384b5250806107a752806107f25280610ad05280610b025280610bad5280610f8a528061103952806118b552806118f75280611bcc5280611bfe5280611e05528061209f52806123f0528061242252806130d152806132be528061332552806133a552806134ef528061353c52506152fe6000f3fe6080604052600436106102445760003560e01c80636d019f3511610139578063ca0707e7116100b6578063ec4827291161007a578063ec4827291461067f578063f1d32372146106ad578063f2428621146106cd578063f2fde38b146106e2578063f7824bc714610702578063f7888aec1461071757610244565b8063ca0707e7146105f5578063d6b2779a14610608578063da284dcc14610628578063e6ca20841461064a578063e9e9bf6a1461066a57610244565b80639b19251a116100fd5780639b19251a14610560578063ad289e7614610580578063b59b54c3146105a0578063b6268e5d146105c0578063c810a539146105d557610244565b80636d019f35146104ee578063715018a6146105035780638006cc3e146105185780638535490f146105385780638da5cb5b1461054b57610244565b80633b6fa127116101c7578063508493bc1161018b578063508493bc146104575780635fc2598c146104775780635fcbd2851461049757806363f289d9146104ac5780636b51e919146104cc57610244565b80633b6fa127146103cd57806342419255146103ed57806345137e27146104025780634db75485146104175780634e54cee01461043757610244565b806312d1441e1161020e57806312d1441e146103235780631ab7e9371461033857806320199e99146103695780632586c5621461038b5780632d55282d146103ab57610244565b806289356f14610272578062ba84f41461029d5780630b68134d146102bf5780630d63aca7146102d45780630f90948614610301575b34801561025057600080fd5b5060405162461bcd60e51b815260040161026990614d85565b60405180910390fd5b34801561027e57600080fd5b50610287610737565b604051610294919061509b565b60405180910390f35b3480156102a957600080fd5b506102bd6102b83660046143c0565b610740565b005b3480156102cb57600080fd5b506102876109f0565b3480156102e057600080fd5b506102f46102ef3660046140bb565b6109ff565b6040516102949190614843565b34801561030d57600080fd5b50610316610bab565b6040516102949190614621565b34801561032f57600080fd5b50610287610bcf565b34801561034457600080fd5b506103586103533660046143a8565b610bdd565b60405161029495949392919061484e565b34801561037557600080fd5b5061037e610ca5565b60405161029491906147a2565b34801561039757600080fd5b506102f46103a636600461430b565b610e75565b3480156103b757600080fd5b506103c0610f67565b6040516102949190615070565b3480156103d957600080fd5b506103c06103e8366004614345565b610f6d565b3480156103f957600080fd5b5061028761101d565b34801561040e57600080fd5b506103c061102d565b34801561042357600080fd5b506102f4610432366004614345565b61115f565b34801561044357600080fd5b506102f4610452366004614136565b61126f565b34801561046357600080fd5b506103c0610472366004614010565b61149d565b34801561048357600080fd5b506102bd6104923660046144d3565b6114ba565b3480156104a357600080fd5b5061031661153f565b3480156104b857600080fd5b506102f46104c73660046142c4565b611563565b3480156104d857600080fd5b506104e1611618565b604051610294919061475e565b3480156104fa57600080fd5b506103c0611776565b34801561050f57600080fd5b506102bd61177c565b34801561052457600080fd5b506102f461053336600461430b565b611828565b6102bd6105463660046143a8565b61194c565b34801561055757600080fd5b50610316611ad7565b34801561056c57600080fd5b506102f461057b366004613fd8565b611ae6565b34801561058c57600080fd5b506102f461059b36600461424b565b611afb565b3480156105ac57600080fd5b506102bd6105bb366004614468565b611ce2565b3480156105cc57600080fd5b50610287611f29565b3480156105e157600080fd5b506102f46105f03660046144b2565b611f3a565b6102bd610603366004614345565b61206e565b34801561061457600080fd5b506102f4610623366004614048565b61231f565b34801561063457600080fd5b5061063d6124e5565b6040516102949190615087565b34801561065657600080fd5b506102f46106653660046143a8565b6124f4565b34801561067657600080fd5b506102f461250c565b34801561068b57600080fd5b5061069f61069a366004614010565b61278c565b604051610294929190615079565b3480156106b957600080fd5b506102bd6106c8366004614370565b6127b6565b3480156106d957600080fd5b5061031661292a565b3480156106ee57600080fd5b506102bd6106fd366004613fd8565b61294e565b34801561070e57600080fd5b506103c0612a50565b34801561072357600080fd5b506103c0610732366004614010565b612a56565b60075460ff1681565b60026001541415610798576040805162461bcd60e51b815260206004820152601f60248201527f5265656e7472616e637947756172643a207265656e7472616e742063616c6c00604482015290519081900360640190fd5b60026001556001600160a01b037f0000000000000000000000000000000000000000000000000000000000000000166107d46020830183613fd8565b6001600160a01b031614156107e857600080fd5b6001600160a01b037f0000000000000000000000000000000000000000000000000000000000000000166108226040830160208401613fd8565b6001600160a01b0316146108485760405162461bcd60e51b815260040161026990614e78565b3061085b61014083016101208401613fd8565b6001600160a01b0316146108815760405162461bcd60e51b815260040161026990614c72565b6040810135601060006108976020850185613fd8565b6001600160a01b031681526020808201929092526040908101600090812033825290925290205410156108dc5760405162461bcd60e51b8152600401610269906149d7565b6109226040820135601060006108f56020860186613fd8565b6001600160a01b031681526020808201929092526040908101600090812033825290925290205490612a81565b601060006109336020850185613fd8565b6001600160a01b031681526020808201929092526040908101600090812033825290925281209190915561096682612ade565b90506109a081600b60006109806040870160208801613fd8565b6001600160a01b0316815260208101919091526040016000205490612c3c565b600b60006109b46040860160208701613fd8565b6001600160a01b03166001600160a01b03168152602001908152602001600020819055506109e783828460400135612c9d565b50506001805550565b60075462010000900460ff1681565b6000610a09612e1a565b6001600160a01b0316610a1a611ad7565b6001600160a01b031614610a63576040805162461bcd60e51b81526020600482018190526024820152600080516020615258833981519152604482015290519081900360640190fd5b6001600160a01b03871660009081526006602052604090205460ff16610a9b5760405162461bcd60e51b815260040161026990614c04565b6001600160a01b038716610ac15760405162461bcd60e51b815260040161026990614e35565b60008415610afa57610af560007f000000000000000000000000000000000000000000000000000000000000000087612e1e565b610b22565b84610b2257507f00000000000000000000000000000000000000000000000000000000000000005b7f00000000000000000000000000000000000000000000000000000000000000006001600160a01b0316886001600160a01b03161415610b7f57507f00000000000000000000000000000000000000000000000000000000000000005b610b898185612f01565b610b9283613080565b610b9d8888886130cf565b506001979650505050505050565b7f000000000000000000000000000000000000000000000000000000000000000081565b600754610100900460ff1681565b6003602090815260009182526040918290208054600180830180548651600293821615610100026000190190911692909204601f810186900486028301860190965285825291949293909290830182828015610c7a5780601f10610c4f57610100808354040283529160200191610c7a565b820191906000526020600020905b815481529060010190602001808311610c5d57829003601f168201915b5050505060028301546003909301549192916001600160401b038082169250600160401b9091041685565b60606000610cc0600554600454612a8190919063ffffffff16565b6001600160401b0381118015610cd557600080fd5b50604051908082528060200260200182016040528015610d0f57816020015b610cfc613e0d565b815260200190600190039081610cf45790505b5091506000610d2a6001600554612c3c90919063ffffffff16565b90505b6004548111610e705760036000610d4f60055485612c3c90919063ffffffff16565b81526020019081526020016000206040518060a001604052908160008201548152602001600182018054600181600116156101000203166002900480601f016020809104026020016040519081016040528092919081815260200182805460018160011615610100020316600290048015610e0b5780601f10610de057610100808354040283529160200191610e0b565b820191906000526020600020905b815481529060010190602001808311610dee57829003601f168201915b5050509183525050600282015460208201526003909101546001600160401b038082166040840152600160401b909104166060909101528351849084908110610e5057fe5b6020908102919091010152610e66826001612c3c565b9150600101610d2d565b505090565b6000610e7f612e1a565b6001600160a01b0316610e90611ad7565b6001600160a01b031614610ed9576040805162461bcd60e51b81526020600482018190526024820152600080516020615258833981519152604482015290519081900360640190fd5b6000610ee361102d565b6001600160a01b03871660009081526006602052604090205490915060ff16610f1e5760405162461bcd60e51b815260040161026990614d5a565b610f2a868686866131bf565b610f3357600080fd5b6001915080610f4061102d565b1015610f5e5760405162461bcd60e51b815260040161026990614ea8565b50949350505050565b60085481565b600080610f7a84846134e3565b90508060ff1660011415610fe0577f00000000000000000000000000000000000000000000000000000000000000006001600160a01b0316846001600160a01b031614610fc8576000610fd6565b6007546301000000900460ff165b60ff169150611016565b8060ff1660021415611016576001600160a01b03841615611002576000611010565b6007546301000000900460ff165b60ff1691505b5092915050565b6007546301000000900460ff1681565b600080600061105d60007f000000000000000000000000000000000000000000000000000000000000000061278c565b9150915060007f00000000000000000000000000000000000000000000000000000000000000006001600160a01b03166318160ddd6040518163ffffffff1660e01b815260040160206040518083038186803b1580156110bc57600080fd5b505afa1580156110d0573d6000803e3d6000fd5b505050506040513d601f19601f820116820180604052508101906110f4919061449a565b905080156111535761114e61111460085483612c3c90919063ffffffff16565b6111487f00000000000000000000000000000000000000000000000000000000000000006111428787612c3c565b906135d2565b9061362b565b611157565b600a545b935050505090565b6001600160a01b03821660009081526010602090815260408083203384529091528120548211156111a25760405162461bcd60e51b815260040161026990614d2c565b6001600160a01b03831660009081526010602090815260408083203384529091529020546111d09083612a81565b6001600160a01b038416600090815260106020908152604080832033808552925290912091909155611204908490846130cf565b6001600160a01b0383166000908152601060209081526040808320338085529252918290205491517ff341246adaac6f497bc2a656f546ab9e182111d630394f0c57c710a59a2cb5679261125d92879290918791614672565b60405180910390a15060015b92915050565b6000611279612e1a565b6001600160a01b031661128a611ad7565b6001600160a01b0316146112d3576040805162461bcd60e51b81526020600482018190526024820152600080516020615258833981519152604482015290519081900360640190fd5b60075460ff6101009091048116908516108015906112f5575060ff8460ff1611155b6113115760405162461bcd60e51b815260040161026990614aab565b6001840160ff168560ff16101561133a5760405162461bcd60e51b815260040161026990614b60565b60648360ff16111561135e5760405162461bcd60e51b8152600401610269906148d6565b60648260ff1611156113825760405162461bcd60e51b815260040161026990614b29565b85518751146113a35760405162461bcd60e51b815260040161026990614ccf565b6113ac8861294e565b60005b87518110156114145760006113d68983815181106113c957fe5b6020026020010151613692565b50905061140a818a84815181106113e957fe5b60200260200101518a85815181106113fd57fe5b602002602001015161369b565b50506001016113af565b50606061141f611618565b90506064815111156114435760405162461bcd60e51b815260040161026990614bc3565b50506007805460ff191660ff9586161761ff001916610100948616949094029390931762ff0000191662010000928516929092029190911764ff000000001916640100000000919093160291909117905550600192915050565b601060209081526000928352604080842090915290825290205481565b6114c2612e1a565b6001600160a01b03166114d3611ad7565b6001600160a01b03161461151c576040805162461bcd60e51b81526020600482018190526024820152600080516020615258833981519152604482015290519081900360640190fd5b6002805467ffffffffffffffff19166001600160401b0392909216919091179055565b7f000000000000000000000000000000000000000000000000000000000000000081565b600061156d612e1a565b6001600160a01b031661157e611ad7565b6001600160a01b0316146115c7576040805162461bcd60e51b81526020600482018190526024820152600080516020615258833981519152604482015290519081900360640190fd5b60006115d161102d565b6001600160a01b03871660009081526006602052604090205490915060ff1661160c5760405162461bcd60e51b815260040161026990614d5a565b610f2a8686868661376a565b606060008060005b600f5481101561167b57600d6000600f838154811061163b57fe5b60009182526020808320909101546001600160a01b031683528201929092526040019020541561167357611670836001612c3c565b92505b600101611620565b506060826001600160401b038111801561169457600080fd5b506040519080825280602002602001820160405280156116be578160200160208202803683370190505b50905060005b600f5481101561176e57600d6000600f83815481106116df57fe5b60009182526020808320909101546001600160a01b031683528201929092526040019020541561176657600d6000600f838154811061171a57fe5b60009182526020808320909101546001600160a01b03168352820192909252604001902054825183908590811061174d57fe5b6020908102919091010152611763836001612c3c565b92505b6001016116c4565b509250505090565b600a5481565b611784612e1a565b6001600160a01b0316611795611ad7565b6001600160a01b0316146117de576040805162461bcd60e51b81526020600482018190526024820152600080516020615258833981519152604482015290519081900360640190fd5b600080546040516001600160a01b03909116907f8be0079c531659141344cd1fd0a4f28419497f9722a3daafe3b4186f6b6457e0908390a3600080546001600160a01b0319169055565b6000611832612e1a565b6001600160a01b0316611843611ad7565b6001600160a01b03161461188c576040805162461bcd60e51b81526020600482018190526024820152600080516020615258833981519152604482015290519081900360640190fd5b6001600160a01b038516156118b35760405162461bcd60e51b815260040161026990614af2565b7f0000000000000000000000000000000000000000000000000000000000000000841561192d5760006118f0856118ea8887612a81565b90612a81565b90506119277f000000000000000000000000000000000000000000000000000000000000000060006119228489612c3c565b612e1e565b50611936565b84611936575060005b6119408184612f01565b50600195945050505050565b3360009081526000805160206151cb833981519152602052604090205481111561197557600080fd5b604051632e1a7d4d60e01b81526001600160a01b037f00000000000000000000000000000000000000000000000000000000000000001690632e1a7d4d906119c1908490600401615070565b600060405180830381600087803b1580156119db57600080fd5b505af11580156119ef573d6000803e3d6000fd5b50503360009081526000805160206151cb8339815191526020526040902054611a1b9250905082612a81565b3360008181526000805160206151cb8339815191526020526040808220939093559151909183156108fc02918491818181858888f19350505050158015611a66573d6000803e3d6000fd5b503360008181526000805160206151cb8339815191526020526040908190205490517ff341246adaac6f497bc2a656f546ab9e182111d630394f0c57c710a59a2cb56792611acc9273eeeeeeeeeeeeeeeeeeeeeeeeeeeeeeeeeeeeeeee92869190614672565b60405180910390a150565b6000546001600160a01b031690565b60066020526000908152604090205460ff1681565b6000611b05612e1a565b6001600160a01b0316611b16611ad7565b6001600160a01b031614611b5f576040805162461bcd60e51b81526020600482018190526024820152600080516020615258833981519152604482015290519081900360640190fd5b6001600160a01b03861660009081526006602052604090205460ff16611b975760405162461bcd60e51b815260040161026990614c04565b6001600160a01b038616611bbd5760405162461bcd60e51b815260040161026990614e35565b60008415611bf657611bf160007f000000000000000000000000000000000000000000000000000000000000000087612e1e565b611c1e565b84611c1e57507f00000000000000000000000000000000000000000000000000000000000000005b7f00000000000000000000000000000000000000000000000000000000000000006001600160a01b0316876001600160a01b03161415611c7b57507f00000000000000000000000000000000000000000000000000000000000000005b611c858185612f01565b611c8e83613080565b60005b8651811015610b9d57611cda88888381518110611caa57fe5b602002602001015160001c898481518110611cc157fe5b602002602001015160a01c6001600160601b03166130cf565b600101611c91565b60026001541415611d3a576040805162461bcd60e51b815260206004820152601f60248201527f5265656e7472616e637947756172643a207265656e7472616e742063616c6c00604482015290519081900360640190fd5b600260015533611d5261014083016101208401613fd8565b6001600160a01b031614611d785760405162461bcd60e51b81526004016102699061490d565b604081013560106000611d8e6020850185613fd8565b6001600160a01b031681526020810191909152604001600090812090611dbc61014085016101208601613fd8565b6001600160a01b03166001600160a01b03168152602001908152602001600020541015611dfb5760405162461bcd60e51b8152600401610269906149d7565b6001600160a01b037f000000000000000000000000000000000000000000000000000000000000000016611e326020830183613fd8565b6001600160a01b031614611e585760405162461bcd60e51b815260040161026990614a0e565b611e6181612ade565b50611ec9604082013560106000611e7b6020860186613fd8565b6001600160a01b031681526020810191909152604001600090812090611ea961014086016101208701613fd8565b6001600160a01b0316815260208101919091526040016000205490612a81565b60106000611eda6020850185613fd8565b6001600160a01b031681526020810191909152604001600090812090611f0861014085016101208601613fd8565b6001600160a01b031681526020810191909152604001600020555060018055565b600754640100000000900460ff1681565b6000611f44612e1a565b6001600160a01b0316611f55611ad7565b6001600160a01b031614611f9e576040805162461bcd60e51b81526020600482018190526024820152600080516020615258833981519152604482015290519081900360640190fd5b611fa7826124f4565b15611fc45760405162461bcd60e51b815260040161026990614b8c565b60408051808201909152601d81527f42544320666c6f617420616d6f756e7420696e73756666696369656e7400000060208083019190915260008052600b90527fdf7de25b7f1fd6d0b5205f0e18f1f35bd7b8d84cce336588d184533ce43a6f7654612031918590613960565b60008052600b6020527fdf7de25b7f1fd6d0b5205f0e18f1f35bd7b8d84cce336588d184533ce43a6f7655612065826139f7565b50600192915050565b346121ff576001600160a01b03821673eeeeeeeeeeeeeeeeeeeeeeeeeeeeeeeeeeeeeeee141561209d57600080fd5b7f00000000000000000000000000000000000000000000000000000000000000006001600160a01b0316826001600160a01b031614156120dc57600080fd5b6040516323b872dd60e01b81526001600160a01b038316906323b872dd9061210c90339030908690600401614635565b602060405180830381600087803b15801561212657600080fd5b505af115801561213a573d6000803e3d6000fd5b505050506040513d601f19601f8201168201806040525081019061215e919061438c565b61216757600080fd5b6001600160a01b03821660009081526010602090815260408083203384529091529020546121959082612c3c565b6001600160a01b03831660009081526010602090815260408083203380855292529182902083905590517f4e2ca0515ed1aef1395f66b5303bb5d6f1bf9d61a353fa53f73f8ac9973fa9f6926121f29286929091869142906146cc565b60405180910390a161231b565b6000341161220c57600080fd5b7f00000000000000000000000000000000000000000000000000000000000000006001600160a01b031663d0e30db0346040518263ffffffff1660e01b81526004016000604051808303818588803b15801561226757600080fd5b505af115801561227b573d6000803e3d6000fd5b50503360009081526000805160206151cb83398151915260205260409020546122a993509150349050612c3c565b3360008181526000805160206151cb833981519152602052604090819020839055517f4e2ca0515ed1aef1395f66b5303bb5d6f1bf9d61a353fa53f73f8ac9973fa9f6926123129273eeeeeeeeeeeeeeeeeeeeeeeeeeeeeeeeeeeeeeee9290913491429061469b565b60405180910390a15b5050565b6000612329612e1a565b6001600160a01b031661233a611ad7565b6001600160a01b031614612383576040805162461bcd60e51b81526020600482018190526024820152600080516020615258833981519152604482015290519081900360640190fd5b6001600160a01b03861660009081526006602052604090205460ff166123bb5760405162461bcd60e51b815260040161026990614c04565b6001600160a01b0386166123e15760405162461bcd60e51b815260040161026990614e35565b6000831561241a5761241560007f000000000000000000000000000000000000000000000000000000000000000086612e1e565b612442565b8361244257507f00000000000000000000000000000000000000000000000000000000000000005b7f00000000000000000000000000000000000000000000000000000000000000006001600160a01b0316876001600160a01b0316141561249f57507f00000000000000000000000000000000000000000000000000000000000000005b6124a98786613a12565b6124b283613080565b505050506001600160a01b0392831660009081526010602090815260408083209490951682529290925291902055600190565b6002546001600160401b031681565b6000818152600c602052604090205460ff165b919050565b600080612526600954600854612c3c90919063ffffffff16565b9050600081116125485760405162461bcd60e51b815260040161026990614992565b6060612552611618565b90506000805b825181101561259d5761259383828151811061257057fe5b602002602001015160a01c6001600160601b031683612c3c90919063ffffffff16565b9150600101612558565b506008546040516340c10f1960e01b81526001600160a01b037f000000000000000000000000000000000000000000000000000000000000000016916340c10f19916125ed913091600401614659565b602060405180830381600087803b15801561260757600080fd5b505af115801561261b573d6000803e3d6000fd5b505050506040513d601f19601f8201168201806040525081019061263f919061438c565b5060005b8251811015612740577f00000000000000000000000000000000000000000000000000000000000000006001600160a01b031663a9059cbb84838151811061268757fe5b602002602001015160001c6126c8856111488887815181106126a557fe5b602002602001015160a01c6001600160601b03168a6135d290919063ffffffff16565b6040518363ffffffff1660e01b81526004016126e5929190614659565b602060405180830381600087803b1580156126ff57600080fd5b505af1158015612713573d6000803e3d6000fd5b505050506040513d601f19601f82011682018060405250810190612737919061438c565b50600101612643565b507f86dd6ae252e62228b47b3c1a12762cbf634952b2d29319b04f4f72fb153bcbdd836040516127709190615070565b60405180910390a1505060006008819055600955506001905090565b6001600160a01b039182166000908152600b60205260408082205492909316815291909120549091565b6127be612e1a565b6001600160a01b03166127cf611ad7565b6001600160a01b031614612818576040805162461bcd60e51b81526020600482018190526024820152600080516020615258833981519152604482015290519081900360640190fd5b4281156128a55760005b60045481101561289f57600081815260036020819052604090912001546001600160401b03808416600160401b909204161015612897576000818152600360205260408120818155906128786001830182613e3c565b506000600282015560030180546001600160801b031916905560058190555b600101612822565b5061231b565b6005545b600454811161292557600081815260036020819052604090912001546001600160401b03808416600160401b90920416101561291d576000818152600360205260408120818155906128fe6001830182613e3c565b506000600282015560030180546001600160801b031916905560058190555b6001016128a9565b505050565b7f000000000000000000000000000000000000000000000000000000000000000081565b612956612e1a565b6001600160a01b0316612967611ad7565b6001600160a01b0316146129b0576040805162461bcd60e51b81526020600482018190526024820152600080516020615258833981519152604482015290519081900360640190fd5b6001600160a01b0381166129f55760405162461bcd60e51b81526004018080602001828103825260268152602001806151eb6026913960400191505060405180910390fd5b600080546040516001600160a01b03808516939216917f8be0079c531659141344cd1fd0a4f28419497f9722a3daafe3b4186f6b6457e091a3600080546001600160a01b0319166001600160a01b0392909216919091179055565b60095481565b6001600160a01b03918216600090815260106020908152604080832093909416825291909152205490565b600082821115612ad8576040805162461bcd60e51b815260206004820152601e60248201527f536166654d6174683a207375627472616374696f6e206f766572666c6f770000604482015290519081900360640190fd5b50900390565b60008073def171fe48cf0115b1d80b88dc8eab59176fee576001600160a01b031663d2c4b5986040518163ffffffff1660e01b815260040160206040518083038186803b158015612b2e57600080fd5b505afa158015612b42573d6000803e3d6000fd5b505050506040513d601f19601f82011682018060405250810190612b669190613ff4565b9050612b8e816040850135612b7e6020870187613fd8565b6001600160a01b03169190613a6f565b6040516354e3f31b60e01b815273def171fe48cf0115b1d80b88dc8eab59176fee57906354e3f31b90612bc5908690600401614ed3565b602060405180830381600087803b158015612bdf57600080fd5b505af1158015612bf3573d6000803e3d6000fd5b505050506040513d601f19601f82011682018060405250810190612c17919061449a565b915081612c365760405162461bcd60e51b815260040161026990614dfe565b50919050565b600082820183811015612c96576040805162461bcd60e51b815260206004820152601b60248201527f536166654d6174683a206164646974696f6e206f766572666c6f770000000000604482015290519081900360640190fd5b9392505050565b600060045484848442604051602001612cba9594939291906145e7565b60408051601f19818403018152828252805160209182012060a0840183528084529083018790529082018590526001600160401b034281811660608501526002549294506080840192612d0d9216612c3c565b6001600160401b031690526004546000908152600360209081526040909120825181558282015180519192612d4a92600185019290910190613e83565b50604082015160028201556060820151600390910180546080909301516001600160401b03908116600160401b026fffffffffffffffff0000000000000000199190931667ffffffffffffffff199094169390931792909216179055600454612db4906001612c3c565b6004556002547f83338cce32e9e34beb409352823d58dca7a8c20826c335abf22a00e1cd8712389082908490869088904290612dfa9082906001600160401b0316612c3c565b604051612e0c9695949392919061488e565b60405180910390a150505050565b3390565b60408051808201825260208082527f5f737761703a20666c6f617420616d6f756e7420696e73756666696369656e74818301526001600160a01b0385166000908152600b9091529190912054612e75918390613960565b6001600160a01b038084166000908152600b60205260408082209390935590851681522054612ea49082612c3c565b6001600160a01b0384166000908152600b60205260409081902091909155517fea368a40e9570069bb8e6511d668293ad2e1f03b0d982431fd223de9f3b70ca690612ef490859085908590614635565b60405180910390a1505050565b80612f0b5761231b565b7f00000000000000000000000000000000000000000000000000000000000000006001600160a01b0316826001600160a01b03161415612f8c57600954612f529082612c3c565b6009556040517fe3debe835f6848edc082b32a1d729781d3bfcd7e14422d80bcaa6794d3816b2f906121f290849084906000908190614705565b6000612f9661102d565b6001600160a01b0384166000908152600b6020526040902054909150612fbc9083612c3c565b6001600160a01b0384166000908152600b6020526040812091909155600754612ff69060649061114890869062010000900460ff166135d2565b9050600061302883611148847f00000000000000000000000000000000000000000000000000000000000000006135d2565b6008549091506130389082612c3c565b6008556040517fe3debe835f6848edc082b32a1d729781d3bfcd7e14422d80bcaa6794d3816b2f90613071908790879085908890614705565b60405180910390a15050505050565b60005b815181101561231b576001600c600084848151811061309e57fe5b6020908102919091018101518252810191909152604001600020805460ff1916911515919091179055600101613083565b7f00000000000000000000000000000000000000000000000000000000000000006001600160a01b0316836001600160a01b0316141561313657613133817f00000000000000000000000000000000000000000000000000000000000000006135d2565b90505b60405163a9059cbb60e01b81526001600160a01b0384169063a9059cbb906131649085908590600401614659565b602060405180830381600087803b15801561317e57600080fd5b505af1158015613192573d6000803e3d6000fd5b505050506040513d601f19601f820116820180604052508101906131b6919061438c565b61292557600080fd5b60006131ca826124f4565b156131e75760405162461bcd60e51b815260040161026990614b8c565b836132045760405162461bcd60e51b815260040161026990614c3b565b60008061321086613692565b91509150600061321e61102d565b905060006132507f000000000000000000000000000000000000000000000000000000000000000061114885856135d2565b6007549091506000906132779061271090611148908590640100000000900460ff166135d2565b9050876132848383612a81565b10156132a25760405162461bcd60e51b815260040161026990614a57565b60006132b2896118ea8585612a81565b90506000806132e260007f000000000000000000000000000000000000000000000000000000000000000061278c565b90925090506001600160a01b038d16613323576132ff8585612a81565b82101561331e5760405162461bcd60e51b81526004016102699061495b565b613386565b7f00000000000000000000000000000000000000000000000000000000000000006001600160a01b03168d6001600160a01b03161415613386576133678585612a81565b8110156133865760405162461bcd60e51b81526004016102699061495b565b6133908d85612f01565b61339a8d86613a12565b6133a38a6139f7565b7f00000000000000000000000000000000000000000000000000000000000000006001600160a01b03168d6001600160a01b031614156133e8576133e88d89856130cf565b604051630852cd8d60e31b81526001600160a01b037f000000000000000000000000000000000000000000000000000000000000000016906342966c6890613434908a90600401615070565b602060405180830381600087803b15801561344e57600080fd5b505af1158015613462573d6000803e3d6000fd5b505050506040513d601f19601f82011682018060405250810190613486919061438c565b61348f57600080fd5b7fa9da34e5e4a956b744307ae7611795634e8365951073bf049d76b64b2ae7a05888888789878f6040516134c89695949392919061472b565b60405180910390a15060019c9b505050505050505050505050565b600080600061351360007f000000000000000000000000000000000000000000000000000000000000000061278c565b9092509050600061353860036111486002611142896135328989612c3c565b90612c3c565b90507f00000000000000000000000000000000000000000000000000000000000000006001600160a01b0316866001600160a01b03161480156135845750806135818387612c3c565b10155b156135955760019350505050611269565b6001600160a01b0386161580156135b55750806135b28487612c3c565b10155b156135c65760029350505050611269565b50600095945050505050565b6000826135e157506000611269565b828202828482816135ee57fe5b0414612c965760405162461bcd60e51b81526004018080602001828103825260218152602001806152376021913960400191505060405180910390fd5b6000808211613681576040805162461bcd60e51b815260206004820152601a60248201527f536166654d6174683a206469766973696f6e206279207a65726f000000000000604482015290519081900360640190fd5b81838161368a57fe5b049392505050565b9060a082901c90565b600081156136c457506001600160a01b0383166000908152600d60205260408120556001612c96565b6001600160a01b0384166000908152600e602052604090205460ff1661374857600f805460018082019092557f8d1108e10bcb7c27dddfc02ed9d693a074039d026cf4ea4240b40f7d581ac8020180546001600160a01b0319166001600160a01b0387169081179091556000908152600e60205260409020805460ff191690911790555b50506001600160a01b03919091166000908152600d6020526040902055600190565b6000613775826124f4565b156137925760405162461bcd60e51b815260040161026990614b8c565b836137af5760405162461bcd60e51b815260040161026990614c3b565b6000806137bb86613692565b9150915060006137c961102d565b905060006137fb82611148857f00000000000000000000000000000000000000000000000000000000000000006135d2565b905060006138098a85610f6d565b9050600081613819576000613829565b61382961271061114885856135d2565b905088801561383757508015155b1561384157600080fd5b6001600160a01b037f0000000000000000000000000000000000000000000000000000000000000000166340c10f198761387b8685612a81565b6040518363ffffffff1660e01b8152600401613898929190614659565b602060405180830381600087803b1580156138b257600080fd5b505af11580156138c6573d6000803e3d6000fd5b505050506040513d601f19601f820116820180604052508101906138ea919061438c565b506008546138f89082612c3c565b6008556139058b86613b5a565b61390e886139f7565b7fdfaf4e23f7030adafec91a682e05bf9fb30c721f9cec3d8bcfae0459c5362db186868587858d6040516139479695949392919061472b565b60405180910390a15060019a9950505050505050505050565b600081848411156139ef5760405162461bcd60e51b81526004018080602001828103825283818151815260200191508051906020019080838360005b838110156139b457818101518382015260200161399c565b50505050905090810190601f1680156139e15780820380516001836020036101000a031916815260200191505b509250505060405180910390fd5b505050900390565b6000908152600c60205260409020805460ff19166001179055565b613a4f81604051806060016040528060278152602001615278602791396001600160a01b0385166000908152600b60205260409020549190613960565b6001600160a01b039092166000908152600b602052604090209190915550565b600081846001600160a01b031663dd62ed3e30866040518363ffffffff1660e01b815260040180836001600160a01b03168152602001826001600160a01b031681526020019250505060206040518083038186803b158015613ad057600080fd5b505afa158015613ae4573d6000803e3d6000fd5b505050506040513d6020811015613afa57600080fd5b5051604080516001600160a01b03871660248201529290910160448084018290528251808503909101815260649093019091526020820180516001600160e01b031663095ea7b360e01b1790529150613b54908590613b7d565b50505050565b6001600160a01b0382166000908152600b6020526040902054613a4f9082612c3c565b6060613bd2826040518060400160405280602081526020017f5361666545524332303a206c6f772d6c6576656c2063616c6c206661696c6564815250856001600160a01b0316613c2e9092919063ffffffff16565b80519091501561292557808060200190516020811015613bf157600080fd5b50516129255760405162461bcd60e51b815260040180806020018281038252602a81526020018061529f602a913960400191505060405180910390fd5b6060613c3d8484600085613c45565b949350505050565b606082471015613c865760405162461bcd60e51b81526004018080602001828103825260268152602001806152116026913960400191505060405180910390fd5b613c8f85613da1565b613ce0576040805162461bcd60e51b815260206004820152601d60248201527f416464726573733a2063616c6c20746f206e6f6e2d636f6e7472616374000000604482015290519081900360640190fd5b60006060866001600160a01b031685876040518082805190602001908083835b60208310613d1f5780518252601f199092019160209182019101613d00565b6001836020036101000a03801982511681845116808217855250505050505090500191505060006040518083038185875af1925050503d8060008114613d81576040519150601f19603f3d011682016040523d82523d6000602084013e613d86565b606091505b5091509150613d96828286613da7565b979650505050505050565b3b151590565b60608315613db6575081612c96565b825115613dc65782518084602001fd5b60405162461bcd60e51b81526020600482018181528451602484015284518593919283926044019190850190808383600083156139b457818101518382015260200161399c565b6040805160a0810182526000808252606060208301819052928201819052918101829052608081019190915290565b50805460018160011615610100020316600290046000825580601f10613e625750613e80565b601f016020900490600052602060002090810190613e809190613f0f565b50565b828054600181600116156101000203166002900490600052602060002090601f016020900481019282613eb95760008555613eff565b82601f10613ed257805160ff1916838001178555613eff565b82800160010185558215613eff579182015b82811115613eff578251825591602001919060010190613ee4565b50613f0b929150613f0f565b5090565b5b80821115613f0b5760008155600101613f10565b8035612507816151a7565b600082601f830112613f3f578081fd5b8135613f52613f4d826150cc565b6150a9565b818152915060208083019084810181840286018201871015613f7357600080fd5b60005b84811015613f9257813584529282019290820190600101613f76565b505050505092915050565b80356001600160801b03198116811461250757600080fd5b60006101e08284031215612c36578081fd5b803560ff8116811461250757600080fd5b600060208284031215613fe9578081fd5b8135612c96816151a7565b600060208284031215614005578081fd5b8151612c96816151a7565b60008060408385031215614022578081fd5b823561402d816151a7565b9150602083013561403d816151a7565b809150509250929050565b600080600080600060a0868803121561405f578081fd5b853561406a816151a7565b9450602086013561407a816151a7565b9350604086013592506060860135915060808601356001600160401b038111156140a2578182fd5b6140ae88828901613f2f565b9150509295509295909350565b60008060008060008060c087890312156140d3578081fd5b86356140de816151a7565b955060208701356140ee816151a7565b945060408701359350606087013592506080870135915060a08701356001600160401b0381111561411d578182fd5b61412989828a01613f2f565b9150509295509295509295565b600080600080600080600060e0888a031215614150578081fd5b873561415b816151a7565b96506020888101356001600160401b0380821115614177578384fd5b6141838c838d01613f2f565b985060408b0135915080821115614198578384fd5b508901601f81018b136141a9578283fd5b80356141b7613f4d826150cc565b81815283810190838501858402850186018f10156141d3578687fd5b8694505b838510156141fe5780356141ea816151bc565b8352600194909401939185019185016141d7565b50809950505050505061421360608901613fc7565b935061422160808901613fc7565b925061422f60a08901613fc7565b915061423d60c08901613fc7565b905092959891949750929550565b600080600080600060a08688031215614262578283fd5b853561426d816151a7565b945060208601356001600160401b0380821115614288578485fd5b61429489838a01613f2f565b9550604088013594506060880135935060808801359150808211156142b7578283fd5b506140ae88828901613f2f565b600080600080608085870312156142d9578182fd5b84356142e4816151a7565b93506020850135925060408501356142fb816151bc565b9396929550929360600135925050565b60008060008060808587031215614320578182fd5b843561432b816151a7565b966020860135965060408601359560600135945092505050565b60008060408385031215614357578182fd5b8235614362816151a7565b946020939093013593505050565b600060208284031215614381578081fd5b8135612c96816151bc565b60006020828403121561439d578081fd5b8151612c96816151bc565b6000602082840312156143b9578081fd5b5035919050565b600080604083850312156143d2578182fd5b82356001600160401b03808211156143e8578384fd5b818501915085601f8301126143fb578384fd5b81358181111561440757fe5b602061441b601f8301601f191682016150a9565b828152888284870101111561442e578687fd5b828286018383013791820181019590955293850135915080821115614451578283fd5b5061445e85828601613fb5565b9150509250929050565b600060208284031215614479578081fd5b81356001600160401b0381111561448e578182fd5b613c3d84828501613fb5565b6000602082840312156144ab578081fd5b5051919050565b600080604083850312156144c4578182fd5b50508035926020909101359150565b6000602082840312156144e4578081fd5b81356001600160401b0381168114612c96578182fd5b6001600160a01b03169052565b60008284526020808501945082825b85811015614544578135614529816151a7565b6001600160a01b031687529582019590820190600101614516565b509495945050505050565b81835260006001600160fb1b03831115614567578081fd5b6020830280836020870137939093016020019283525090919050565b6001600160801b0319169052565b60008284528282602086013780602084860101526020601f19601f85011685010190509392505050565b600081518084526145d381602086016020860161517b565b601f01601f19169290920160200192915050565b600086825285516145ff816020850160208a0161517b565b6020920191820194909452604081019290925260608201526080019392505050565b6001600160a01b0391909116815260200190565b6001600160a01b039384168152919092166020820152604081019190915260600190565b6001600160a01b03929092168252602082015260400190565b6001600160a01b0394851681529290931660208301526040820152606081019190915260800190565b6001600160a01b03958616815293909416602084015260408301919091526060820152608081019190915260a00190565b6001600160a01b039586168152939094166020840152604083019190915260608201526001600160401b03909116608082015260a00190565b6001600160a01b0394909416845260208401929092526040830152606082015260800190565b6001600160a01b03969096168652602086019490945260408501929092526060840152608083015260a082015260c00190565b6020808252825182820181905260009190848201906040850190845b818110156147965783518352928401929184019160010161477a565b50909695505050505050565b60208082528251828201819052600091906040908185019080840286018301878501865b8381101561483557603f19898403018552815160a08151855288820151818a8701526147f4828701826145bb565b838a0151878b01526060808501516001600160401b0390811691890191909152608094850151169390960192909252505093860193908601906001016147c6565b509098975050505050505050565b901515815260200190565b600086825260a0602083015261486760a08301876145bb565b6040830195909552506001600160401b039283166060820152911660809091015292915050565b600087825286602083015285604083015260c060608301526148b360c08301866145bb565b6001600160401b0394851660808401529290931660a09091015295945050505050565b6020808252601e908201527f5f6e6f646552657761726473526174696f206973206e6f742076616c69640000604082015260600190565b6020808252602e908201527f596f752063616e206f6e6c79206578656375746520737761707320746f20796f60408201526d7572206f776e206164647265737360901b606082015260800190565b6020808252601f908201527f54686520666c6f61742062616c616e636520696e73756666696369656e742e00604082015260600190565b60208082526025908201527f746f74616c5265776172644c5073466f724e6f6465206973206e6f7420706f73604082015264697469766560d81b606082015260800190565b60208082526019908201527f42616c616e6365206973206e6f742073756666696369656e7400000000000000604082015260600190565b60208082526029908201527f66726f6d546f6b656e206d7573742062652074686520726571756972656420426040820152682a21ba103a37b5b2b760b91b606082015260800190565b60208082526034908201527f4572726f723a20616d6f756e744f66466c6f61742e737562287769746864726160408201527377616c4665657329203c205f6d696e657246656560601b606082015260800190565b60208082526027908201527f5f7473735468726573686f6c642073686f756c64206265203e3d2074737354686040820152661c995cda1bdb1960ca1b606082015260800190565b6020808252601f908201527f5f64657374546f6b656e2073686f756c64206265206164647265737328302900604082015260600190565b6020808252601c908201527f5f7769746864726177616c46656542505320697320696e76616c696400000000604082015260600190565b6020808252601290820152716e2073686f756c64206265203e3d20742b3160701b604082015260600190565b60208082526018908201527f546865207478696420697320616c726561647920757365640000000000000000604082015260600190565b60208082526021908201527f53746f726564206e6f64652073697a652073686f756c64206265203c3d2031306040820152600360fc1b606082015260800190565b6020808252601d908201527f5f64657374546f6b656e206973206e6f742077686974656c6973746564000000604082015260600190565b6020808252601c908201527f546865207472616e73616374696f6e206973206e6f742076616c696400000000604082015260600190565b6020808252603c908201527f596f752063616e206f6e6c79206578656375746520666c6f772032207377617060408201527f7320746f207468697320636f6e74726163742773206164647265737300000000606082015260800190565b6020808252603b908201527f5f72657761726441646472657373416e64416d6f756e747320616e64205f697360408201527f52656d6f766564206c656e677468206973206e6f74206d617463680000000000606082015260800190565b602080825260149082015273496e73756666696369656e742042616c616e636560601b604082015260600190565b60208082526011908201527017dd1bdad95b881a5cc81a5b9d985b1a59607a1b604082015260600190565b60208082526053908201527f5468697320636f6e747261637420646f65736e277420616c6c6f77207265636560408201527f6976696e67204574686572202d207573652073704465706f73697445746865726060820152721414903a37903232b837b9b4ba1032ba3432b960691b608082015260a00190565b6020808252601c908201527f526563656976656420616d6f756e742063616e206e6f74206265203000000000604082015260600190565b60208082526023908201527f5f64657374546f6b656e2073686f756c64206e6f74206265206164647265737360408201526228302960e81b606082015260800190565b60208082526016908201527526bab9ba1039bbb0b8103a3790212a21903a37b5b2b760511b604082015260600190565b602080825260119082015270496e76616c6964204c505420707269636560781b604082015260600190565b600060208252614eee60208301614ee985613f24565b6144fa565b614efa60208401613f24565b614f0760408401826144fa565b506040830135606083015260608301356080830152608083013560a0830152614f3360a08401846150e9565b6101e08060c0860152614f4b61020086018385614507565b9250614f5a60c0870187615137565b9250601f19808786030160e0880152614f74858584614591565b9450614f8360e08901896150e9565b94509150610100818887030181890152614f9e86868561454f565b9550614fac818a018a6150e9565b9550925050610120818887030181890152614fc886868561454f565b9550614fd5818a01613f24565b9450506101409150614fe9828801856144fa565b614ff4828901613f24565b93506101609150615007828801856144fa565b6101809350818801358488015261502084890189615137565b945091506101a081888703018189015261503b868685614591565b95506101c094508089013585890152505050615058828701613f9d565b915061506681860183614583565b5090949350505050565b90815260200190565b918252602082015260400190565b6001600160401b0391909116815260200190565b60ff91909116815260200190565b6040518181016001600160401b03811182821017156150c457fe5b604052919050565b60006001600160401b038211156150df57fe5b5060209081020190565b6000808335601e198436030181126150ff578283fd5b83016020810192503590506001600160401b0381111561511e57600080fd5b60208102360383131561513057600080fd5b9250929050565b6000808335601e1984360301811261514d578283fd5b83016020810192503590506001600160401b0381111561516c57600080fd5b80360383131561513057600080fd5b60005b8381101561519657818101518382015260200161517e565b83811115613b545750506000910152565b6001600160a01b0381168114613e8057600080fd5b8015158114613e8057600080fdfe529981d9d55a3e7092cab7f7c4f0a07bdbf9e697c59653fe43c65e8ecf83e1804f776e61626c653a206e6577206f776e657220697320746865207a65726f2061646472657373416464726573733a20696e73756666696369656e742062616c616e636520666f722063616c6c536166654d6174683a206d756c7469706c69636174696f6e206f766572666c6f774f776e61626c653a2063616c6c6572206973206e6f7420746865206f776e65725f72656d6f7665466c6f61743a20666c6f617420616d6f756e7420696e73756666696369656e745361666545524332303a204552433230206f7065726174696f6e20646964206e6f742073756363656564a26469706673582212207f96c14f172e11de907271d1b4dc0e562882ba0930dfce5a44fc4e5dfca97c3464736f6c63430007050033",
  "linkReferences": {},
  "deployedLinkReferences": {}
}