{
  "_format": "hh-sol-artifact-1",
  "contractName": "SwapContract",
  "sourceName": "contracts/SwapContract.sol",
  "abi": [
    {
      "inputs": [
        {
          "internalType": "address",
          "name": "_lpToken",
          "type": "address"
        },
        {
          "internalType": "address",
          "name": "_btct",
          "type": "address"
        },
        {
          "internalType": "address",
          "name": "_wETH",
          "type": "address"
        },
        {
          "internalType": "uint256",
          "name": "_existingBTCFloat",
          "type": "uint256"
        }
      ],
      "stateMutability": "nonpayable",
      "type": "constructor"
    },
    {
      "anonymous": false,
      "inputs": [
        {
          "indexed": false,
          "internalType": "address",
          "name": "token",
          "type": "address"
        },
        {
          "indexed": false,
          "internalType": "uint256",
          "name": "amountOfLP",
          "type": "uint256"
        },
        {
          "indexed": false,
          "internalType": "uint256",
          "name": "amountOfFloat",
          "type": "uint256"
        },
        {
          "indexed": false,
          "internalType": "uint256",
          "name": "currentPriceLP",
          "type": "uint256"
        },
        {
          "indexed": false,
          "internalType": "uint256",
          "name": "withdrawal",
          "type": "uint256"
        },
        {
          "indexed": false,
          "internalType": "bytes32",
          "name": "txid",
          "type": "bytes32"
        }
      ],
      "name": "BurnLPTokensForFloat",
      "type": "event"
    },
    {
      "anonymous": false,
      "inputs": [
        {
          "indexed": false,
          "internalType": "address",
          "name": "token",
          "type": "address"
        },
        {
          "indexed": false,
          "internalType": "address",
          "name": "user",
          "type": "address"
        },
        {
          "indexed": false,
          "internalType": "uint256",
          "name": "amount",
          "type": "uint256"
        },
        {
          "indexed": false,
          "internalType": "uint256",
          "name": "balance",
          "type": "uint256"
        },
        {
          "indexed": false,
          "internalType": "uint256",
          "name": "Timestamp",
          "type": "uint256"
        }
      ],
      "name": "Deposit",
      "type": "event"
    },
    {
      "anonymous": false,
      "inputs": [
        {
          "indexed": false,
          "internalType": "uint256",
          "name": "rewardLPTsForNodes",
          "type": "uint256"
        }
      ],
      "name": "DistributeNodeRewards",
      "type": "event"
    },
    {
      "anonymous": false,
      "inputs": [
        {
          "indexed": false,
          "internalType": "address",
          "name": "to",
          "type": "address"
        },
        {
          "indexed": false,
          "internalType": "uint256",
          "name": "amountOfFloat",
          "type": "uint256"
        },
        {
          "indexed": false,
          "internalType": "uint256",
          "name": "amountOfLP",
          "type": "uint256"
        },
        {
          "indexed": false,
          "internalType": "uint256",
          "name": "currentPriceLP",
          "type": "uint256"
        },
        {
          "indexed": false,
          "internalType": "uint256",
          "name": "depositFees",
          "type": "uint256"
        },
        {
          "indexed": false,
          "internalType": "bytes32",
          "name": "txid",
          "type": "bytes32"
        }
      ],
      "name": "IssueLPTokensForFloat",
      "type": "event"
    },
    {
      "anonymous": false,
      "inputs": [
        {
          "indexed": true,
          "internalType": "address",
          "name": "previousOwner",
          "type": "address"
        },
        {
          "indexed": true,
          "internalType": "address",
          "name": "newOwner",
          "type": "address"
        }
      ],
      "name": "OwnershipTransferred",
      "type": "event"
    },
    {
      "anonymous": false,
      "inputs": [
        {
          "indexed": false,
          "internalType": "address",
          "name": "feesToken",
          "type": "address"
        },
        {
          "indexed": false,
          "internalType": "uint256",
          "name": "rewards",
          "type": "uint256"
        },
        {
          "indexed": false,
          "internalType": "uint256",
          "name": "amountLPTokensForNode",
          "type": "uint256"
        },
        {
          "indexed": false,
          "internalType": "uint256",
          "name": "currentPriceLP",
          "type": "uint256"
        }
      ],
      "name": "RewardsCollection",
      "type": "event"
    },
    {
      "anonymous": false,
      "inputs": [
        {
          "indexed": false,
          "internalType": "uint256",
          "name": "ExpirationTime",
          "type": "uint256"
        },
        {
          "indexed": false,
          "internalType": "uint256",
          "name": "Timestamp",
          "type": "uint256"
        }
      ],
      "name": "SetExpirationTime",
      "type": "event"
    },
    {
      "anonymous": false,
      "inputs": [
        {
          "indexed": false,
          "internalType": "address",
          "name": "from",
          "type": "address"
        },
        {
          "indexed": false,
          "internalType": "address",
          "name": "to",
          "type": "address"
        },
        {
          "indexed": false,
          "internalType": "uint256",
          "name": "amount",
          "type": "uint256"
        }
      ],
      "name": "Swap",
      "type": "event"
    },
    {
      "anonymous": false,
      "inputs": [
        {
          "indexed": false,
          "internalType": "bytes32",
          "name": "SwapID",
          "type": "bytes32"
        },
        {
          "indexed": false,
          "internalType": "bytes32",
          "name": "DestAddr",
          "type": "bytes32"
        },
        {
          "indexed": false,
          "internalType": "address",
          "name": "RefundAddr",
          "type": "address"
        },
        {
          "indexed": false,
          "internalType": "uint256",
          "name": "AmountWBTC",
          "type": "uint256"
        },
        {
          "indexed": false,
          "internalType": "uint256",
          "name": "Timestamp",
          "type": "uint256"
        }
      ],
      "name": "SwapTokensToBTC",
      "type": "event"
    },
    {
      "anonymous": false,
      "inputs": [
        {
          "indexed": false,
          "internalType": "address",
          "name": "token",
          "type": "address"
        },
        {
          "indexed": false,
          "internalType": "address",
          "name": "user",
          "type": "address"
        },
        {
          "indexed": false,
          "internalType": "uint256",
          "name": "amount",
          "type": "uint256"
        },
        {
          "indexed": false,
          "internalType": "uint256",
          "name": "balance",
          "type": "uint256"
        },
        {
          "indexed": false,
          "internalType": "uint256",
          "name": "Timestamp",
          "type": "uint256"
        }
      ],
      "name": "Withdraw",
      "type": "event"
    },
    {
      "stateMutability": "nonpayable",
      "type": "fallback"
    },
    {
      "inputs": [],
      "name": "BTCT_ADDR",
      "outputs": [
        {
          "internalType": "address",
          "name": "",
          "type": "address"
        }
      ],
      "stateMutability": "view",
      "type": "function"
    },
    {
      "inputs": [
        {
          "internalType": "address",
          "name": "_token",
          "type": "address"
        },
        {
          "internalType": "address",
          "name": "_user",
          "type": "address"
        }
      ],
      "name": "balanceOf",
      "outputs": [
        {
          "internalType": "uint256",
          "name": "",
          "type": "uint256"
        }
      ],
      "stateMutability": "view",
      "type": "function"
    },
    {
      "inputs": [
        {
          "internalType": "address",
          "name": "_newOwner",
          "type": "address"
        },
        {
          "internalType": "bytes32[]",
          "name": "_rewardAddressAndAmounts",
          "type": "bytes32[]"
        },
        {
          "internalType": "bool[]",
          "name": "_isRemoved",
          "type": "bool[]"
        },
        {
          "internalType": "uint8",
          "name": "_churnedInCount",
          "type": "uint8"
        },
        {
          "internalType": "uint8",
          "name": "_tssThreshold",
          "type": "uint8"
        },
        {
          "internalType": "uint8",
          "name": "_nodeRewardsRatio",
          "type": "uint8"
        },
        {
          "internalType": "uint8",
          "name": "_withdrawalFeeBPS",
          "type": "uint8"
        },
        {
          "internalType": "uint256",
          "name": "_expirationTime",
          "type": "uint256"
        }
      ],
      "name": "churn",
      "outputs": [
        {
          "internalType": "bool",
          "name": "",
          "type": "bool"
        }
      ],
      "stateMutability": "nonpayable",
      "type": "function"
    },
    {
      "inputs": [],
      "name": "churnedInCount",
      "outputs": [
        {
          "internalType": "uint8",
          "name": "",
          "type": "uint8"
        }
      ],
      "stateMutability": "view",
      "type": "function"
    },
    {
      "inputs": [
        {
          "internalType": "address",
          "name": "_destToken",
          "type": "address"
        },
        {
          "internalType": "uint256",
          "name": "_incomingAmount",
          "type": "uint256"
        },
        {
          "internalType": "uint256",
          "name": "_minerFee",
          "type": "uint256"
        },
        {
          "internalType": "uint256",
          "name": "_rewardsAmount",
          "type": "uint256"
        }
      ],
      "name": "collectSwapFeesForBTC",
      "outputs": [
        {
          "internalType": "bool",
          "name": "",
          "type": "bool"
        }
      ],
      "stateMutability": "nonpayable",
      "type": "function"
    },
    {
      "inputs": [],
      "name": "depositFeesBPS",
      "outputs": [
        {
          "internalType": "uint8",
          "name": "",
          "type": "uint8"
        }
      ],
      "stateMutability": "view",
      "type": "function"
    },
    {
      "inputs": [],
      "name": "distributeNodeRewards",
      "outputs": [
        {
          "internalType": "bool",
          "name": "",
          "type": "bool"
        }
      ],
      "stateMutability": "nonpayable",
      "type": "function"
    },
    {
      "inputs": [],
      "name": "expirationTime",
      "outputs": [
        {
          "internalType": "uint256",
          "name": "",
          "type": "uint256"
        }
      ],
      "stateMutability": "view",
      "type": "function"
    },
    {
      "inputs": [],
      "name": "feesLPTokensForNode",
      "outputs": [
        {
          "internalType": "uint256",
          "name": "",
          "type": "uint256"
        }
      ],
      "stateMutability": "view",
      "type": "function"
    },
    {
      "inputs": [],
      "name": "getActiveNodes",
      "outputs": [
        {
          "internalType": "bytes32[]",
          "name": "",
          "type": "bytes32[]"
        }
      ],
      "stateMutability": "view",
      "type": "function"
    },
    {
      "inputs": [],
      "name": "getCurrentPriceLP",
      "outputs": [
        {
          "internalType": "uint256",
          "name": "nowPrice",
          "type": "uint256"
        }
      ],
      "stateMutability": "view",
      "type": "function"
    },
    {
      "inputs": [
        {
          "internalType": "address",
          "name": "_token",
          "type": "address"
        },
        {
          "internalType": "uint256",
          "name": "_amountOfFloat",
          "type": "uint256"
        }
      ],
      "name": "getDepositFeeRate",
      "outputs": [
        {
          "internalType": "uint256",
          "name": "depositFeeRate",
          "type": "uint256"
        }
      ],
      "stateMutability": "view",
      "type": "function"
    },
    {
      "inputs": [
        {
          "internalType": "address",
          "name": "_tokenA",
          "type": "address"
        },
        {
          "internalType": "address",
          "name": "_tokenB",
          "type": "address"
        }
      ],
      "name": "getFloatReserve",
      "outputs": [
        {
          "internalType": "uint256",
          "name": "reserveA",
          "type": "uint256"
        },
        {
          "internalType": "uint256",
          "name": "reserveB",
          "type": "uint256"
        }
      ],
      "stateMutability": "view",
      "type": "function"
    },
    {
      "inputs": [],
      "name": "initialExchangeRate",
      "outputs": [
        {
          "internalType": "uint256",
          "name": "",
          "type": "uint256"
        }
      ],
      "stateMutability": "view",
      "type": "function"
    },
    {
      "inputs": [
        {
          "internalType": "bytes32",
          "name": "_txid",
          "type": "bytes32"
        }
      ],
      "name": "isTxUsed",
      "outputs": [
        {
          "internalType": "bool",
          "name": "",
          "type": "bool"
        }
      ],
      "stateMutability": "view",
      "type": "function"
    },
    {
      "inputs": [],
      "name": "latestRemovedIndex",
      "outputs": [
        {
          "internalType": "uint256",
          "name": "",
          "type": "uint256"
        }
      ],
      "stateMutability": "view",
      "type": "function"
    },
    {
      "inputs": [],
      "name": "lockedLPTokensForNode",
      "outputs": [
        {
          "internalType": "uint256",
          "name": "",
          "type": "uint256"
        }
      ],
      "stateMutability": "view",
      "type": "function"
    },
    {
      "inputs": [],
      "name": "lpToken",
      "outputs": [
        {
          "internalType": "address",
          "name": "",
          "type": "address"
        }
      ],
      "stateMutability": "view",
      "type": "function"
    },
    {
      "inputs": [
        {
          "internalType": "address",
          "name": "_destToken",
          "type": "address"
        },
        {
          "internalType": "bytes32[]",
          "name": "_addressesAndAmounts",
          "type": "bytes32[]"
        },
        {
          "internalType": "uint256",
          "name": "_totalSwapped",
          "type": "uint256"
        },
        {
          "internalType": "uint256",
          "name": "_rewardsAmount",
          "type": "uint256"
        },
        {
          "internalType": "bytes32[]",
          "name": "_redeemedFloatTxIds",
          "type": "bytes32[]"
        }
      ],
      "name": "multiTransferERC20TightlyPacked",
      "outputs": [
        {
          "internalType": "bool",
          "name": "",
          "type": "bool"
        }
      ],
      "stateMutability": "nonpayable",
      "type": "function"
    },
    {
      "inputs": [],
      "name": "nodeRewardsRatio",
      "outputs": [
        {
          "internalType": "uint8",
          "name": "",
          "type": "uint8"
        }
      ],
      "stateMutability": "view",
      "type": "function"
    },
    {
      "inputs": [],
      "name": "owner",
      "outputs": [
        {
          "internalType": "address",
          "name": "",
          "type": "address"
        }
      ],
      "stateMutability": "view",
      "type": "function"
    },
    {
      "inputs": [
        {
          "internalType": "address",
          "name": "_token",
          "type": "address"
        },
        {
          "internalType": "bytes32",
          "name": "_addressesAndAmountOfFloat",
          "type": "bytes32"
        },
        {
          "internalType": "bool",
          "name": "_zerofee",
          "type": "bool"
        },
        {
          "internalType": "bytes32",
          "name": "_txid",
          "type": "bytes32"
        }
      ],
      "name": "recordIncomingFloat",
      "outputs": [
        {
          "internalType": "bool",
          "name": "",
          "type": "bool"
        }
      ],
      "stateMutability": "nonpayable",
      "type": "function"
    },
    {
      "inputs": [
        {
          "internalType": "address",
          "name": "_token",
          "type": "address"
        },
        {
          "internalType": "bytes32",
          "name": "_addressesAndAmountOfLPtoken",
          "type": "bytes32"
        },
        {
          "internalType": "uint256",
          "name": "_minerFee",
          "type": "uint256"
        },
        {
          "internalType": "bytes32",
          "name": "_txid",
          "type": "bytes32"
        }
      ],
      "name": "recordOutcomingFloat",
      "outputs": [
        {
          "internalType": "bool",
          "name": "",
          "type": "bool"
        }
      ],
      "stateMutability": "nonpayable",
      "type": "function"
    },
    {
      "inputs": [
        {
          "internalType": "address",
          "name": "_to",
          "type": "address"
        },
        {
          "internalType": "uint256",
          "name": "_totalSwapped",
          "type": "uint256"
        },
        {
          "internalType": "uint256",
          "name": "_rewardsAmount",
          "type": "uint256"
        },
        {
          "internalType": "bytes32[]",
          "name": "_usedTxIds",
          "type": "bytes32[]"
        }
      ],
      "name": "recordSkyPoolsTX",
      "outputs": [
        {
          "internalType": "bool",
          "name": "",
          "type": "bool"
        }
      ],
      "stateMutability": "nonpayable",
      "type": "function"
    },
    {
      "inputs": [
        {
          "internalType": "uint256",
          "name": "_minerFee",
          "type": "uint256"
        },
        {
          "internalType": "bytes32",
          "name": "_txid",
          "type": "bytes32"
        }
      ],
      "name": "recordUTXOSweepMinerFee",
      "outputs": [
        {
          "internalType": "bool",
          "name": "",
          "type": "bool"
        }
      ],
      "stateMutability": "nonpayable",
      "type": "function"
    },
    {
      "inputs": [
        {
          "internalType": "address",
          "name": "_token",
          "type": "address"
        },
        {
          "internalType": "uint256",
          "name": "_amount",
          "type": "uint256"
        }
      ],
      "name": "redeemERC20Token",
      "outputs": [],
      "stateMutability": "nonpayable",
      "type": "function"
    },
    {
      "inputs": [
        {
          "internalType": "uint256",
          "name": "_amount",
          "type": "uint256"
        }
      ],
      "name": "redeemEther",
      "outputs": [],
      "stateMutability": "nonpayable",
      "type": "function"
    },
    {
      "inputs": [],
      "name": "renounceOwnership",
      "outputs": [],
      "stateMutability": "nonpayable",
      "type": "function"
    },
    {
      "inputs": [
        {
          "internalType": "address",
          "name": "_destToken",
          "type": "address"
        },
        {
          "internalType": "address",
          "name": "_to",
          "type": "address"
        },
        {
          "internalType": "uint256",
          "name": "_amount",
          "type": "uint256"
        },
        {
          "internalType": "uint256",
          "name": "_totalSwapped",
          "type": "uint256"
        },
        {
          "internalType": "uint256",
          "name": "_rewardsAmount",
          "type": "uint256"
        },
        {
          "internalType": "bytes32[]",
          "name": "_redeemedFloatTxIds",
          "type": "bytes32[]"
        }
      ],
      "name": "singleTransferERC20",
      "outputs": [
        {
          "internalType": "bool",
          "name": "",
          "type": "bool"
        }
      ],
      "stateMutability": "nonpayable",
      "type": "function"
    },
    {
      "inputs": [
        {
          "internalType": "uint256",
          "name": "_loopCount",
          "type": "uint256"
        }
      ],
      "name": "spCleanUpOldTXs",
      "outputs": [],
      "stateMutability": "nonpayable",
      "type": "function"
    },
    {
      "inputs": [
        {
          "internalType": "address",
          "name": "_token",
          "type": "address"
        },
        {
          "internalType": "uint256",
          "name": "_amount",
          "type": "uint256"
        }
      ],
      "name": "spDeposit",
      "outputs": [],
      "stateMutability": "payable",
      "type": "function"
    },
    {
      "inputs": [],
      "name": "spGetPendingSwaps",
      "outputs": [
        {
          "components": [
            {
              "internalType": "bytes32",
              "name": "SwapID",
              "type": "bytes32"
            },
            {
              "internalType": "bytes32",
              "name": "DestAddr",
              "type": "bytes32"
            },
            {
              "internalType": "address",
              "name": "RefundAddr",
              "type": "address"
            },
            {
              "internalType": "uint256",
              "name": "AmountWBTC",
              "type": "uint256"
            },
            {
              "internalType": "uint256",
              "name": "Timestamp",
              "type": "uint256"
            }
          ],
          "internalType": "struct SwapContract.spPendingTx[]",
          "name": "data",
          "type": "tuple[]"
        }
      ],
      "stateMutability": "view",
      "type": "function"
    },
    {
      "inputs": [
        {
          "components": [
            {
              "internalType": "address",
              "name": "fromToken",
              "type": "address"
            },
            {
              "internalType": "address",
              "name": "toToken",
              "type": "address"
            },
            {
              "internalType": "uint256",
              "name": "fromAmount",
              "type": "uint256"
            },
            {
              "internalType": "uint256",
              "name": "toAmount",
              "type": "uint256"
            },
            {
              "internalType": "uint256",
              "name": "expectedAmount",
              "type": "uint256"
            },
            {
              "internalType": "address[]",
              "name": "callees",
              "type": "address[]"
            },
            {
              "internalType": "bytes",
              "name": "exchangeData",
              "type": "bytes"
            },
            {
              "internalType": "uint256[]",
              "name": "startIndexes",
              "type": "uint256[]"
            },
            {
              "internalType": "uint256[]",
              "name": "values",
              "type": "uint256[]"
            },
            {
              "internalType": "address payable",
              "name": "beneficiary",
              "type": "address"
            },
            {
              "internalType": "address payable",
              "name": "partner",
              "type": "address"
            },
            {
              "internalType": "uint256",
              "name": "feePercent",
              "type": "uint256"
            },
            {
              "internalType": "bytes",
              "name": "permit",
              "type": "bytes"
            },
            {
              "internalType": "uint256",
              "name": "deadline",
              "type": "uint256"
            },
            {
              "internalType": "bytes16",
              "name": "uuid",
              "type": "bytes16"
            }
          ],
          "internalType": "struct Utils.SimpleData",
          "name": "_data",
          "type": "tuple"
        }
      ],
      "name": "spParaSwapBTC2Token",
      "outputs": [],
      "stateMutability": "nonpayable",
      "type": "function"
    },
    {
      "inputs": [
        {
          "internalType": "bytes32",
          "name": "_destinationAddressForBTC",
          "type": "bytes32"
        },
        {
          "components": [
            {
              "internalType": "address",
              "name": "fromToken",
              "type": "address"
            },
            {
              "internalType": "address",
              "name": "toToken",
              "type": "address"
            },
            {
              "internalType": "uint256",
              "name": "fromAmount",
              "type": "uint256"
            },
            {
              "internalType": "uint256",
              "name": "toAmount",
              "type": "uint256"
            },
            {
              "internalType": "uint256",
              "name": "expectedAmount",
              "type": "uint256"
            },
            {
              "internalType": "address[]",
              "name": "callees",
              "type": "address[]"
            },
            {
              "internalType": "bytes",
              "name": "exchangeData",
              "type": "bytes"
            },
            {
              "internalType": "uint256[]",
              "name": "startIndexes",
              "type": "uint256[]"
            },
            {
              "internalType": "uint256[]",
              "name": "values",
              "type": "uint256[]"
            },
            {
              "internalType": "address payable",
              "name": "beneficiary",
              "type": "address"
            },
            {
              "internalType": "address payable",
              "name": "partner",
              "type": "address"
            },
            {
              "internalType": "uint256",
              "name": "feePercent",
              "type": "uint256"
            },
            {
              "internalType": "bytes",
              "name": "permit",
              "type": "bytes"
            },
            {
              "internalType": "uint256",
              "name": "deadline",
              "type": "uint256"
            },
            {
              "internalType": "bytes16",
              "name": "uuid",
              "type": "bytes16"
            }
          ],
          "internalType": "struct Utils.SimpleData",
          "name": "_data",
          "type": "tuple"
        }
      ],
      "name": "spParaSwapToken2BTC",
      "outputs": [],
      "stateMutability": "nonpayable",
      "type": "function"
    },
    {
      "inputs": [
        {
          "internalType": "uint256",
          "name": "",
          "type": "uint256"
        }
      ],
      "name": "spPendingTXs",
      "outputs": [
        {
          "internalType": "bytes32",
          "name": "SwapID",
          "type": "bytes32"
        },
        {
          "internalType": "bytes32",
          "name": "DestAddr",
          "type": "bytes32"
        },
        {
          "internalType": "address",
          "name": "RefundAddr",
          "type": "address"
        },
        {
          "internalType": "uint256",
          "name": "AmountWBTC",
          "type": "uint256"
        },
        {
          "internalType": "uint256",
          "name": "Timestamp",
          "type": "uint256"
        }
      ],
      "stateMutability": "view",
      "type": "function"
    },
    {
      "inputs": [],
      "name": "swapCount",
      "outputs": [
        {
          "internalType": "uint256",
          "name": "",
          "type": "uint256"
        }
      ],
      "stateMutability": "view",
      "type": "function"
    },
    {
      "inputs": [
        {
          "internalType": "address",
          "name": "",
          "type": "address"
        },
        {
          "internalType": "address",
          "name": "",
          "type": "address"
        }
      ],
      "name": "tokens",
      "outputs": [
        {
          "internalType": "uint256",
          "name": "",
          "type": "uint256"
        }
      ],
      "stateMutability": "view",
      "type": "function"
    },
    {
      "inputs": [
        {
          "internalType": "address",
          "name": "newOwner",
          "type": "address"
        }
      ],
      "name": "transferOwnership",
      "outputs": [],
      "stateMutability": "nonpayable",
      "type": "function"
    },
    {
      "inputs": [],
      "name": "tssThreshold",
      "outputs": [
        {
          "internalType": "uint8",
          "name": "",
          "type": "uint8"
        }
      ],
      "stateMutability": "view",
      "type": "function"
    },
    {
      "inputs": [],
      "name": "wETH",
      "outputs": [
        {
          "internalType": "address",
          "name": "",
          "type": "address"
        }
      ],
      "stateMutability": "view",
      "type": "function"
    },
    {
      "inputs": [
        {
          "internalType": "address",
          "name": "",
          "type": "address"
        }
      ],
      "name": "whitelist",
      "outputs": [
        {
          "internalType": "bool",
          "name": "",
          "type": "bool"
        }
      ],
      "stateMutability": "view",
      "type": "function"
    },
    {
      "inputs": [],
      "name": "withdrawalFeeBPS",
      "outputs": [
        {
          "internalType": "uint8",
          "name": "",
          "type": "uint8"
        }
      ],
      "stateMutability": "view",
      "type": "function"
    },
    {
      "stateMutability": "payable",
      "type": "receive"
    }
  ],
  "bytecode": "0x6101206040523480156200001257600080fd5b50604051620057bb380380620057bb833981016040819052620000359162000339565b6200004033620002cc565b600180556202a3006002556000600581905560049081556001600160a01b0380841661010052851660a08190526040805163313ce56760e01b81529051919263313ce567928282019260209290829003018186803b158015620000a257600080fd5b505afa158015620000b7573d6000803e3d6000fd5b505050506040513d601f19601f82011682018060405250810190620000dd91906200038b565b620000ea90600a620004cc565b60e0526001600160a01b03831660808190526007805464ffffff000019166414324200001790556040805163313ce56760e01b815290516008929163313ce567916004808301926020929190829003018186803b1580156200014b57600080fd5b505afa15801562000160573d6000803e3d6000fd5b505050506040513d601f19601f820116820180604052508101906200018691906200038b565b620001929190620004dd565b6200019f90600a620004cc565b60c08181525050836001600160a01b031663313ce5676040518163ffffffff1660e01b815260040160206040518083038186803b158015620001e057600080fd5b505afa158015620001f5573d6000803e3d6000fd5b505050506040513d601f19601f820116820180604052508101906200021b91906200038b565b6200022890600a620004cc565b600a556000600881905560098190556001600160a01b039384168152600660209081526040808320805460ff199081166001908117909255979096168352822080548716861790559080527f54cdd369e4e8a8515e52ca72ec816c2101831ad1f18bf44102ed171459c9b4f8805490951690931790935550600b90527fdf7de25b7f1fd6d0b5205f0e18f1f35bd7b8d84cce336588d184533ce43a6f765562000503565b600080546001600160a01b038381166001600160a01b0319831681178455604051919092169283917f8be0079c531659141344cd1fd0a4f28419497f9722a3daafe3b4186f6b6457e09190a35050565b80516001600160a01b03811681146200033457600080fd5b919050565b600080600080608085870312156200035057600080fd5b6200035b856200031c565b93506200036b602086016200031c565b92506200037b604086016200031c565b6060959095015193969295505050565b6000602082840312156200039e57600080fd5b815160ff81168114620003b057600080fd5b9392505050565b634e487b7160e01b600052601160045260246000fd5b600181815b808511156200040e578160001904821115620003f257620003f2620003b7565b808516156200040057918102915b93841c9390800290620003d2565b509250929050565b6000826200042757506001620004c6565b816200043657506000620004c6565b81600181146200044f57600281146200045a576200047a565b6001915050620004c6565b60ff8411156200046e576200046e620003b7565b50506001821b620004c6565b5060208310610133831016604e8410600b84101617156200049f575081810a620004c6565b620004ab8383620003cd565b8060001904821115620004c257620004c2620003b7565b0290505b92915050565b6000620003b060ff84168362000416565b600060ff821660ff841680821015620004fa57620004fa620003b7565b90039392505050565b60805160a05160c05160e0516101005161512362000698600039600081816102640152818161084201528181611d9401528181611df001528181611e5d01528181611ea401528181611f82015281816129de01528181612a580152612aa10152600081816114c401528181613495015281816137130152613c37015260006135cc01526000818161059801528181610ef701528181610f3201528181611410015281816121350152818161217001528181612c3801528181612ccb01528181613381015281816139970152613cab0152600081816103580152818161091b0152818161096601528181610ea301528181610ed5015281816111530152818161119801528181611345015281816113e401528181611cd101528181611d0d015281816120e101528181612113015281816122d9015281816123080152818161235801528181612518015281816127db015281816131460152818161358e015281816137f70152818161388e0152818161393e01528181613aa201528181613aef01528181614114015261415901526151236000f3fe6080604052600436106102545760003560e01c8063715018a611610139578063b6268e5d116100b6578063e9e9bf6a1161007a578063e9e9bf6a146107e6578063ec482729146107fb578063f242862114610830578063f2fde38b14610864578063f7824bc714610884578063f7888aec1461089a57610293565b8063b6268e5d1461074b578063c810a5391461076d578063ca0707e71461078d578063da284dcc146107a0578063e6ca2084146107b657610293565b806392542d6d116100fd57806392542d6d146106a55780639b19251a146106bb578063ad289e76146106eb578063b345a3581461070b578063b59b54c31461072b57610293565b8063715018a6146106125780637c747cf9146106275780638006cc3e146106475780638535490f146106675780638da5cb5b1461068757610293565b80632d55282d116101d25780634db75485116101965780634db754851461052e578063508493bc1461054e5780635fcbd2851461058657806363f289d9146105ba5780636b51e919146105da5780636d019f35146105fc57610293565b80632d55282d1461049e5780632eff0d9e146104c25780633b6fa127146104d857806342419255146104f857806345137e271461051957610293565b806312d1441e1161021957806312d1441e146103925780631ab7e937146103b157806320199e991461043c57806321959d3c1461045e5780632586c5621461047e57610293565b806289356f146102a557806308f6263b146102d65780630b68134d146102f65780630d63aca7146103165780630f9094861461034657610293565b3661029357336001600160a01b037f00000000000000000000000000000000000000000000000000000000000000001614610291576102916144ac565b005b34801561029f57600080fd5b50600080fd5b3480156102b157600080fd5b506007546102bf9060ff1681565b60405160ff90911681526020015b60405180910390f35b3480156102e257600080fd5b506102916102f13660046144db565b6108e0565b34801561030257600080fd5b506007546102bf9062010000900460ff1681565b34801561032257600080fd5b5061033661033136600461461d565b610ddb565b60405190151581526020016102cd565b34801561035257600080fd5b5061037a7f000000000000000000000000000000000000000000000000000000000000000081565b6040516001600160a01b0390911681526020016102cd565b34801561039e57600080fd5b506007546102bf90610100900460ff1681565b3480156103bd57600080fd5b506104066103cc36600461469b565b600360208190526000918252604090912080546001820154600283015493830154600490930154919390926001600160a01b039091169185565b6040805195865260208601949094526001600160a01b03909216928401929092526060830191909152608082015260a0016102cd565b34801561044857600080fd5b50610451610f7e565b6040516102cd91906146b4565b34801561046a57600080fd5b5061029161047936600461469b565b6110e0565b34801561048a57600080fd5b5061033661049936600461472b565b611227565b3480156104aa57600080fd5b506104b460085481565b6040519081526020016102cd565b3480156104ce57600080fd5b506104b460045481565b3480156104e457600080fd5b506104b46104f3366004614766565b611328565b34801561050457600080fd5b506007546102bf906301000000900460ff1681565b34801561052557600080fd5b506104b46113d8565b34801561053a57600080fd5b50610291610549366004614766565b61150a565b34801561055a57600080fd5b506104b4610569366004614792565b601060209081526000928352604080842090915290825290205481565b34801561059257600080fd5b5061037a7f000000000000000000000000000000000000000000000000000000000000000081565b3480156105c657600080fd5b506103366105d53660046147d9565b611669565b3480156105e657600080fd5b506105ef611709565b6040516102cd9190614821565b34801561060857600080fd5b506104b4600a5481565b34801561061e57600080fd5b50610291611895565b34801561063357600080fd5b50610336610642366004614876565b6118cb565b34801561065357600080fd5b5061033661066236600461472b565b611c4d565b34801561067357600080fd5b5061029161068236600461469b565b611d62565b34801561069357600080fd5b506000546001600160a01b031661037a565b3480156106b157600080fd5b506104b460055481565b3480156106c757600080fd5b506103366106d6366004614998565b60066020526000908152604090205460ff1681565b3480156106f757600080fd5b506103366107063660046149b5565b612019565b34801561071757600080fd5b50610336610726366004614a3f565b61220d565b34801561073757600080fd5b50610291610746366004614aa2565b6123b7565b34801561075757600080fd5b506007546102bf90640100000000900460ff1681565b34801561077957600080fd5b50610336610788366004614ad7565b61267d565b61029161079b366004614766565b612782565b3480156107ac57600080fd5b506104b460025481565b3480156107c257600080fd5b506103366107d136600461469b565b6000908152600c602052604090205460ff1690565b3480156107f257600080fd5b50610336612b38565b34801561080757600080fd5b5061081b610816366004614792565b612e2a565b604080519283526020830191909152016102cd565b34801561083c57600080fd5b5061037a7f000000000000000000000000000000000000000000000000000000000000000081565b34801561087057600080fd5b5061029161087f366004614998565b612e54565b34801561089057600080fd5b506104b460095481565b3480156108a657600080fd5b506104b46108b5366004614792565b6001600160a01b03918216600090815260106020908152604080832093909416825291909152205490565b6002600154141561090c5760405162461bcd60e51b815260040161090390614af9565b60405180910390fd5b60026001556001600160a01b037f0000000000000000000000000000000000000000000000000000000000000000166109486020830183614998565b6001600160a01b0316141561095c57600080fd5b6001600160a01b037f0000000000000000000000000000000000000000000000000000000000000000166109966040830160208401614998565b6001600160a01b0316146109e55760405162461bcd60e51b815260206004820152601660248201527526bab9ba1039bbb0b8103a3790212a21903a37b5b2b760511b6044820152606401610903565b306109f861014083016101208401614998565b6001600160a01b031614610a745760405162461bcd60e51b815260206004820152603c60248201527f596f752063616e206f6e6c79206578656375746520666c6f772032207377617060448201527f7320746f207468697320636f6e747261637427732061646472657373000000006064820152608401610903565b604081013560106000610a8a6020850185614998565b6001600160a01b03168152602080820192909252604090810160009081203382529092529020541015610afb5760405162461bcd60e51b815260206004820152601960248201527810985b185b98d9481a5cc81b9bdd081cdd59999a58da595b9d603a1b6044820152606401610903565b6000610b0d6040830160208401614998565b6040516370a0823160e01b81523060048201526001600160a01b0391909116906370a082319060240160206040518083038186803b158015610b4e57600080fd5b505afa158015610b62573d6000803e3d6000fd5b505050506040513d601f19601f82011682018060405250810190610b869190614b30565b9050610bce604083013560106000610ba16020870187614998565b6001600160a01b031681526020808201929092526040908101600090812033825290925290205490612eef565b60106000610bdf6020860186614998565b6001600160a01b0316815260208082019290925260409081016000908120338252909252902055610c0f82612f02565b6000610ca482610c256040860160208701614998565b6040516370a0823160e01b81523060048201526001600160a01b0391909116906370a082319060240160206040518083038186803b158015610c6657600080fd5b505afa158015610c7a573d6000803e3d6000fd5b505050506040513d601f19601f82011682018060405250810190610c9e9190614b30565b90612eef565b90508260800135811015610cfa5760405162461bcd60e51b815260206004820152601c60248201527f526563656976656420616d6f756e7420696e73756666696369656e74000000006044820152606401610903565b80610d475760405162461bcd60e51b815260206004820152601c60248201527f526563656976656420616d6f756e742063616e206e6f742062652030000000006044820152606401610903565b610d8c8160106000610d5f6040880160208901614998565b6001600160a01b031681526020808201929092526040908101600090812030825290925290205490613124565b60106000610da06040870160208801614998565b6001600160a01b0316815260208082019290925260409081016000908120308252909252902055610dd18482613130565b5050600180555050565b600080546001600160a01b03163314610e065760405162461bcd60e51b815260040161090390614b49565b6001600160a01b03871660009081526006602052604090205460ff16610e6e5760405162461bcd60e51b815260206004820152601d60248201527f5f64657374546f6b656e206973206e6f742077686974656c69737465640000006044820152606401610903565b6001600160a01b038716610e945760405162461bcd60e51b815260040161090390614b7e565b60008415610ecd57610ec860007f000000000000000000000000000000000000000000000000000000000000000087613291565b610ef5565b84610ef557507f00000000000000000000000000000000000000000000000000000000000000005b7f00000000000000000000000000000000000000000000000000000000000000006001600160a01b0316886001600160a01b03161415610f5257507f00000000000000000000000000000000000000000000000000000000000000005b610f5c8185613376565b610f6583613524565b610f7088888861358c565b506001979650505050505050565b60606000610f99600554600454612eef90919063ffffffff16565b67ffffffffffffffff811115610fb157610fb1614547565b60405190808252806020026020018201604052801561100a57816020015b6040805160a081018252600080825260208083018290529282018190526060820181905260808201528252600019909201910181610fcf5790505b5091506000611025600160055461312490919063ffffffff16565b90505b60045481116110db576003600061104a6005548561312490919063ffffffff16565b81526020808201929092526040908101600020815160a0810183528154815260018201549381019390935260028101546001600160a01b0316918301919091526003810154606083015260040154608082015283518490849081106110b1576110b1614bc1565b60209081029190910101526110c7826001613124565b9150806110d381614bed565b915050611028565b505090565b6005546000906110f09083613124565b9050600454811061110057506004545b60055442905b82811161122157600254600082815260036020526040902060040154839161112e9190613124565b101561120f576000818152600360208181526040808420909201546001600160a01b037f00000000000000000000000000000000000000000000000000000000000000001684526010825282842030855290915291205461118e91612eef565b6001600160a01b037f0000000000000000000000000000000000000000000000000000000000000000166000908152601060209081526040808320308452825280832093909355838252600390819052918120818155600181018290556002810180546001600160a01b031916905591820181905560049091015560058190555b8061121981614bed565b915050611106565b50505050565b600080546001600160a01b031633146112525760405162461bcd60e51b815260040161090390614b49565b600061125c6113d8565b6001600160a01b03871660009081526006602052604090205490915060ff166112bb5760405162461bcd60e51b815260206004820152601160248201527017dd1bdad95b881a5cc81a5b9d985b1a59607a1b6044820152606401610903565b6112c78686868661367e565b6112d057600080fd5b60019150806112dd6113d8565b101561131f5760405162461bcd60e51b8152602060048201526011602482015270496e76616c6964204c505420707269636560781b6044820152606401610903565b50949350505050565b6000806113358484613a96565b90508060ff166001141561139b577f00000000000000000000000000000000000000000000000000000000000000006001600160a01b0316846001600160a01b031614611383576000611391565b6007546301000000900460ff165b60ff1691506113d1565b8060ff16600214156113d1576001600160a01b038416156113bd5760006113cb565b6007546301000000900460ff165b60ff1691505b5092915050565b600080600061140860007f0000000000000000000000000000000000000000000000000000000000000000612e2a565b9150915060007f00000000000000000000000000000000000000000000000000000000000000006001600160a01b03166318160ddd6040518163ffffffff1660e01b815260040160206040518083038186803b15801561146757600080fd5b505afa15801561147b573d6000803e3d6000fd5b505050506040513d601f19601f8201168201806040525081019061149f9190614b30565b905080156114fe576114f96114bf6008548361312490919063ffffffff16565b6114f37f00000000000000000000000000000000000000000000000000000000000000006114ed8787613124565b90613b85565b90613b91565b611502565b600a545b935050505090565b6002600154141561152d5760405162461bcd60e51b815260040161090390614af9565b60026001556001600160a01b038216600090815260106020908152604080832033845290915290205481111561159c5760405162461bcd60e51b8152602060048201526014602482015273496e73756666696369656e742042616c616e636560601b6044820152606401610903565b6001600160a01b03821660009081526010602090815260408083203384529091529020546115ca9082612eef565b6001600160a01b0383166000908152601060209081526040808320338085529252909120919091556115fe9083908361358c565b6001600160a01b0382166000908152601060209081526040808320338085529252918290205491517febff2602b3f468259e1e99f613fed6691f3a6526effe6ef3e768ba7ae7a36c4f92611659928692909186914290614c08565b60405180910390a1505060018055565b600080546001600160a01b031633146116945760405162461bcd60e51b815260040161090390614b49565b600061169e6113d8565b6001600160a01b03871660009081526006602052604090205490915060ff166116fd5760405162461bcd60e51b815260206004820152601160248201527017dd1bdad95b881a5cc81a5b9d985b1a59607a1b6044820152606401610903565b6112c786868686613b9d565b606060008060005b600f5481101561177c57600d6000600f838154811061173257611732614bc1565b60009182526020808320909101546001600160a01b031683528201929092526040019020541561176a57611767836001613124565b92505b8061177481614bed565b915050611711565b5060008267ffffffffffffffff81111561179857611798614547565b6040519080825280602002602001820160405280156117c1578160200160208202803683370190505b50905060005b600f5481101561188d57600d6000600f83815481106117e8576117e8614bc1565b60009182526020808320909101546001600160a01b031683528201929092526040019020541561187b57600d6000600f838154811061182957611829614bc1565b60009182526020808320909101546001600160a01b03168352820192909252604001902054825183908590811061186257611862614bc1565b6020908102919091010152611878836001613124565b92505b8061188581614bed565b9150506117c7565b509392505050565b6000546001600160a01b031633146118bf5760405162461bcd60e51b815260040161090390614b49565b6118c96000613ded565b565b600080546001600160a01b031633146118f65760405162461bcd60e51b815260040161090390614b49565b60075460ff610100909104811690861610801590611918575060ff8560ff1611155b6119745760405162461bcd60e51b815260206004820152602760248201527f5f7473735468726573686f6c642073686f756c64206265203e3d2074737354686044820152661c995cda1bdb1960ca1b6064820152608401610903565b61197f600186614c39565b60ff168660ff1610156119c95760405162461bcd60e51b81526020600482015260126024820152716e2073686f756c64206265203e3d20742b3160701b6044820152606401610903565b60648460ff161115611a1d5760405162461bcd60e51b815260206004820152601e60248201527f5f6e6f646552657761726473526174696f206973206e6f742076616c696400006044820152606401610903565b60648360ff161115611a715760405162461bcd60e51b815260206004820152601c60248201527f5f7769746864726177616c46656542505320697320696e76616c6964000000006044820152606401610903565b8651885114611ae85760405162461bcd60e51b815260206004820152603b60248201527f5f72657761726441646472657373416e64416d6f756e747320616e64205f697360448201527f52656d6f766564206c656e677468206973206e6f74206d6174636800000000006064820152608401610903565b8115611af757611af782613e3d565b611b0089612e54565b60005b8851811015611b89576000611b348a8381518110611b2357611b23614bc1565b60200260200101519060a082901c90565b509050611b74818b8481518110611b4d57611b4d614bc1565b60200260200101518b8581518110611b6757611b67614bc1565b6020026020010151613e7d565b50508080611b8190614bed565b915050611b03565b506000611b94611709565b9050606481511115611bf25760405162461bcd60e51b815260206004820152602160248201527f53746f726564206e6f64652073697a652073686f756c64206265203c3d2031306044820152600360fc1b6064820152608401610903565b50506007805460ff8481166401000000000264ff000000001987831662010000021664ff00ff0000198984166101000261ffff19909516938b1693909317939093179190911691909117179055600198975050505050505050565b600080546001600160a01b03163314611c785760405162461bcd60e51b815260040161090390614b49565b6001600160a01b03851615611ccf5760405162461bcd60e51b815260206004820152601f60248201527f5f64657374546f6b656e2073686f756c642062652061646472657373283029006044820152606401610903565b7f00000000000000000000000000000000000000000000000000000000000000008415611d43576000611d0685610c9e8887612eef565b9050611d3d7f00000000000000000000000000000000000000000000000000000000000000006000611d388489613124565b613291565b50611d4c565b84611d4c575060005b611d568184613376565b50600195945050505050565b60026001541415611d855760405162461bcd60e51b815260040161090390614af9565b60026001556001600160a01b037f0000000000000000000000000000000000000000000000000000000000000000166000908152601060209081526040808320338452909152902054811115611dda57600080fd5b604051632e1a7d4d60e01b8152600481018290527f00000000000000000000000000000000000000000000000000000000000000006001600160a01b031690632e1a7d4d90602401600060405180830381600087803b158015611e3c57600080fd5b505af1158015611e50573d6000803e3d6000fd5b5050506001600160a01b037f0000000000000000000000000000000000000000000000000000000000000000166000908152601060209081526040808320338452909152902054611ea2915082612eef565b7f00000000000000000000000000000000000000000000000000000000000000006001600160a01b031660009081526010602090815260408083203380855292528083209390935591518190839085908381818185875af1925050503d8060008114611f2a576040519150601f19603f3d011682016040523d82523d6000602084013e611f2f565b606091505b509150915081611f785760405162461bcd60e51b81526020600482015260146024820152732330b4b632b2103a379039b2b7321022ba3432b960611b6044820152606401610903565b6001600160a01b037f0000000000000000000000000000000000000000000000000000000000000000166000908152601060209081526040808320338085529252918290205491517febff2602b3f468259e1e99f613fed6691f3a6526effe6ef3e768ba7ae7a36c4f926120079273eeeeeeeeeeeeeeeeeeeeeeeeeeeeeeeeeeeeeeee92909189914290614c08565b60405180910390a15050600180555050565b600080546001600160a01b031633146120445760405162461bcd60e51b815260040161090390614b49565b6001600160a01b03861660009081526006602052604090205460ff166120ac5760405162461bcd60e51b815260206004820152601d60248201527f5f64657374546f6b656e206973206e6f742077686974656c69737465640000006044820152606401610903565b6001600160a01b0386166120d25760405162461bcd60e51b815260040161090390614b7e565b6000841561210b5761210660007f000000000000000000000000000000000000000000000000000000000000000087613291565b612133565b8461213357507f00000000000000000000000000000000000000000000000000000000000000005b7f00000000000000000000000000000000000000000000000000000000000000006001600160a01b0316876001600160a01b0316141561219057507f00000000000000000000000000000000000000000000000000000000000000005b61219a8185613376565b6121a383613524565b60005b8651811015610f70576121fb888883815181106121c5576121c5614bc1565b602002602001015160001c8984815181106121e2576121e2614bc1565b602002602001015160a01c6001600160601b031661358c565b8061220581614bed565b9150506121a6565b600080546001600160a01b031633146122385760405162461bcd60e51b815260040161090390614b49565b836122855760405162461bcd60e51b815260206004820152601e60248201527f5f746f74616c53776170706564206d757374206265206e6f6e207a65726f00006044820152606401610903565b826122d25760405162461bcd60e51b815260206004820152601f60248201527f5f72657761726473416d6f756e74206d757374206265206e6f6e207a65726f006044820152606401610903565b6122fe60007f000000000000000000000000000000000000000000000000000000000000000086613291565b6001600160a01b037f0000000000000000000000000000000000000000000000000000000000000000811660009081526010602090815260408083209389168352929052205461234e9085613124565b6001600160a01b037f000000000000000000000000000000000000000000000000000000000000000081166000908152601060209081526040808320938a168352929052908120919091556123a39084613376565b6123ac82613524565b506001949350505050565b600260015414156123da5760405162461bcd60e51b815260040161090390614af9565b6002600155336123f261014083016101208401614998565b6001600160a01b03161461245f5760405162461bcd60e51b815260206004820152602e60248201527f596f752063616e206f6e6c79206578656375746520737761707320746f20796f60448201526d7572206f776e206164647265737360901b6064820152608401610903565b6040810135601060006124756020850185614998565b6001600160a01b0316815260208101919091526040016000908120906124a361014085016101208601614998565b6001600160a01b03166001600160a01b0316815260200190815260200160002054101561250e5760405162461bcd60e51b815260206004820152601960248201527810985b185b98d9481a5cc81b9bdd081cdd59999a58da595b9d603a1b6044820152606401610903565b6001600160a01b037f0000000000000000000000000000000000000000000000000000000000000000166125456020830183614998565b6001600160a01b0316146125ad5760405162461bcd60e51b815260206004820152602960248201527f66726f6d546f6b656e206d7573742062652074686520726571756972656420426044820152682a21ba103a37b5b2b760b91b6064820152608401610903565b6125b681612f02565b61261d6040820135601060006125cf6020860186614998565b6001600160a01b0316815260208101919091526040016000908120906125fd61014086016101208701614998565b6001600160a01b0316815260208101919091526040016000205490612eef565b6010600061262e6020850185614998565b6001600160a01b03168152602081019190915260400160009081209061265c61014085016101208601614998565b6001600160a01b031681526020810191909152604001600020555060018055565b600080546001600160a01b031633146126a85760405162461bcd60e51b815260040161090390614b49565b6000828152600c602052604090205460ff16156126d75760405162461bcd60e51b815260040161090390614c5e565b60408051808201909152601d81527f42544320666c6f617420616d6f756e7420696e73756666696369656e7400000060208083019190915260008052600b90527fdf7de25b7f1fd6d0b5205f0e18f1f35bd7b8d84cce336588d184533ce43a6f7654612744918590613f4c565b60008052600b6020527fdf7de25b7f1fd6d0b5205f0e18f1f35bd7b8d84cce336588d184533ce43a6f765561277882613f78565b5060015b92915050565b600260015414156127a55760405162461bcd60e51b815260040161090390614af9565b6002600155346129cf576001600160a01b03821673eeeeeeeeeeeeeeeeeeeeeeeeeeeeeeeeeeeeeeee14156127d957600080fd5b7f00000000000000000000000000000000000000000000000000000000000000006001600160a01b0316826001600160a01b0316141561281857600080fd5b6040516370a0823160e01b81523060048201526000906001600160a01b038416906370a082319060240160206040518083038186803b15801561285a57600080fd5b505afa15801561286e573d6000803e3d6000fd5b505050506040513d601f19601f820116820180604052508101906128929190614b30565b90506128a96001600160a01b038416333085613f93565b6040516370a0823160e01b81523060048201526000906001600160a01b038516906370a082319060240160206040518083038186803b1580156128eb57600080fd5b505afa1580156128ff573d6000803e3d6000fd5b505050506040513d601f19601f820116820180604052508101906129239190614b30565b905060006129318284612eef565b6001600160a01b03861660009081526010602090815260408083203384529091529020549091506129629082613124565b6001600160a01b03861660009081526010602090815260408083203380855292529182902083905590517f4e2ca0515ed1aef1395f66b5303bb5d6f1bf9d61a353fa53f73f8ac9973fa9f6926129bf928992909186914290614c08565b60405180910390a1505050612b30565b600034116129dc57600080fd5b7f00000000000000000000000000000000000000000000000000000000000000006001600160a01b031663d0e30db0346040518263ffffffff1660e01b81526004016000604051808303818588803b158015612a3757600080fd5b505af1158015612a4b573d6000803e3d6000fd5b5050506001600160a01b037f0000000000000000000000000000000000000000000000000000000000000000166000908152601060209081526040808320338452909152902054612a9f9250905034613124565b7f00000000000000000000000000000000000000000000000000000000000000006001600160a01b031660009081526010602090815260408083203380855292529182902083905590517f4e2ca0515ed1aef1395f66b5303bb5d6f1bf9d61a353fa53f73f8ac9973fa9f6926116599273eeeeeeeeeeeeeeeeeeeeeeeeeeeeeeeeeeeeeeee92909134914290614c08565b505060018055565b600080612b5260095460085461312490919063ffffffff16565b905060008111612bb25760405162461bcd60e51b815260206004820152602560248201527f746f74616c5265776172644c5073466f724e6f6465206973206e6f7420706f73604482015264697469766560d81b6064820152608401610903565b6000612bbc611709565b90506000805b8251811015612c1757612c03838281518110612be057612be0614bc1565b602002602001015160a01c6001600160601b03168361312490919063ffffffff16565b915080612c0f81614bed565b915050612bc2565b506008546040516340c10f1960e01b815230600482015260248101919091527f00000000000000000000000000000000000000000000000000000000000000006001600160a01b0316906340c10f1990604401602060405180830381600087803b158015612c8457600080fd5b505af1158015612c98573d6000803e3d6000fd5b505050506040513d601f19601f82011682018060405250810190612cbc9190614c95565b5060005b8251811015612de2577f00000000000000000000000000000000000000000000000000000000000000006001600160a01b031663a9059cbb848381518110612d0a57612d0a614bc1565b602002602001015160001c612d51856114f3888781518110612d2e57612d2e614bc1565b602002602001015160a01c6001600160601b03168a613b8590919063ffffffff16565b6040516001600160e01b031960e085901b1681526001600160a01b0390921660048301526024820152604401602060405180830381600087803b158015612d9757600080fd5b505af1158015612dab573d6000803e3d6000fd5b505050506040513d601f19601f82011682018060405250810190612dcf9190614c95565b5080612dda81614bed565b915050612cc0565b506040518381527f86dd6ae252e62228b47b3c1a12762cbf634952b2d29319b04f4f72fb153bcbdd9060200160405180910390a1505060006008819055600955506001919050565b6001600160a01b039182166000908152600b60205260408082205492909316815291909120549091565b6000546001600160a01b03163314612e7e5760405162461bcd60e51b815260040161090390614b49565b6001600160a01b038116612ee35760405162461bcd60e51b815260206004820152602660248201527f4f776e61626c653a206e6577206f776e657220697320746865207a65726f206160448201526564647265737360d01b6064820152608401610903565b612eec81613ded565b50565b6000612efb8284614cb2565b9392505050565b73eeeeeeeeeeeeeeeeeeeeeeeeeeeeeeeeeeeeeeee612f246020830183614998565b6001600160a01b03161415612f735760405162461bcd60e51b815260206004820152601560248201527455736520706174682077455448202d3e207742544360581b6044820152606401610903565b73eeeeeeeeeeeeeeeeeeeeeeeeeeeeeeeeeeeeeeee612f986040830160208401614998565b6001600160a01b03161415612fe75760405162461bcd60e51b81526020600482015260156024820152740aae6ca40e0c2e8d040ee84a886405a7c40ee8aa89605b1b6044820152606401610903565b600073def171fe48cf0115b1d80b88dc8eab59176fee576001600160a01b031663d2c4b5986040518163ffffffff1660e01b815260040160206040518083038186803b15801561303657600080fd5b505afa15801561304a573d6000803e3d6000fd5b505050506040513d601f19601f8201168201806040525081019061306e9190614cc9565b90506130968160408401356130866020860186614998565b6001600160a01b03169190613ffe565b6040516354e3f31b60e01b815273def171fe48cf0115b1d80b88dc8eab59176fee57906354e3f31b906130cd908590600401614e3c565b602060405180830381600087803b1580156130e757600080fd5b505af11580156130fb573d6000803e3d6000fd5b505050506040513d601f19601f8201168201806040525081019061311f9190614b30565b505050565b6000612efb8284614ff2565b6004546040516bffffffffffffffffffffffff197f000000000000000000000000000000000000000000000000000000000000000060601b1660208201526034810191909152605481018390526074810182905242609482015260009060b40160408051808303601f19018152828252805160209182012060a0840183528084528184018781523385850190815260608601888152426080880190815260048054600090815260039788905297909720975188559251600188015590516002870180546001600160a01b0319166001600160a01b03909216919091179055519285019290925590519290910191909155905061322a6140bf565b600454613238906001613124565b60045560408051828152602081018590523391810191909152606081018390524260808201527f058800492a0e9d1ce3d60aa19b5a711354aaf0d831a5fa20197617dc4c0a573e9060a0015b60405180910390a1505050565b60408051808201825260208082527f5f737761703a20666c6f617420616d6f756e7420696e73756666696369656e74818301526001600160a01b0385166000908152600b90915291909120546132e8918390613f4c565b6001600160a01b038084166000908152600b602052604080822093909355908516815220546133179082613124565b6001600160a01b038481166000818152600b60209081526040918290209490945580519182529185169281019290925281018290527fea368a40e9570069bb8e6511d668293ad2e1f03b0d982431fd223de9f3b70ca690606001613284565b8061337f575050565b7f00000000000000000000000000000000000000000000000000000000000000006001600160a01b0316826001600160a01b0316141561341d576009546133c69082613124565b600955604080516001600160a01b0384168152602081018390526000818301819052606082015290517fe3debe835f6848edc082b32a1d729781d3bfcd7e14422d80bcaa6794d3816b2f9181900360800190a15050565b60006134276113d8565b6001600160a01b0384166000908152600b602052604090205490915061344d9083613124565b6001600160a01b0384166000908152600b6020526040812091909155600754613487906064906114f390869062010000900460ff16613b85565b905060006134b9836114f3847f0000000000000000000000000000000000000000000000000000000000000000613b85565b6008549091506134c99082613124565b600855604080516001600160a01b038716815260208101869052908101829052606081018490527fe3debe835f6848edc082b32a1d729781d3bfcd7e14422d80bcaa6794d3816b2f9060800160405180910390a15050505050565b60005b8151811015613588576001600c600084848151811061354857613548614bc1565b6020026020010151815260200190815260200160002060006101000a81548160ff021916908315150217905550808061358090614bed565b915050613527565b5050565b7f00000000000000000000000000000000000000000000000000000000000000006001600160a01b0316836001600160a01b031614156135f3576135f0817f0000000000000000000000000000000000000000000000000000000000000000613b85565b90505b60405163a9059cbb60e01b81526001600160a01b0383811660048301526024820183905284169063a9059cbb90604401602060405180830381600087803b15801561363d57600080fd5b505af1158015613651573d6000803e3d6000fd5b505050506040513d601f19601f820116820180604052508101906136759190614c95565b61311f57600080fd5b6000818152600c602052604081205460ff16156136ad5760405162461bcd60e51b815260040161090390614c5e565b836136fa5760405162461bcd60e51b815260206004820152601c60248201527f546865207472616e73616374696f6e206973206e6f742076616c6964000000006044820152606401610903565b8360a081901c600061370a6113d8565b9050600061373c7f00000000000000000000000000000000000000000000000000000000000000006114f38585613b85565b60075490915060009061376390612710906114f3908590640100000000900460ff16613b85565b9050876137708383612eef565b10156137db5760405162461bcd60e51b815260206004820152603460248201527f4572726f723a20616d6f756e744f66466c6f61742e737562287769746864726160448201527377616c4665657329203c205f6d696e657246656560601b6064820152608401610903565b60006137eb89610c9e8585612eef565b905060008061381b60007f0000000000000000000000000000000000000000000000000000000000000000612e2a565b90925090506001600160a01b038d1661388c576138388585612eef565b8210156138875760405162461bcd60e51b815260206004820152601f60248201527f54686520666c6f61742062616c616e636520696e73756666696369656e742e006044820152606401610903565b61391f565b7f00000000000000000000000000000000000000000000000000000000000000006001600160a01b03168d6001600160a01b0316141561391f576138d08585612eef565b81101561391f5760405162461bcd60e51b815260206004820152601f60248201527f54686520666c6f61742062616c616e636520696e73756666696369656e742e006044820152606401610903565b6139298d85613376565b6139338d866141e2565b61393c8a613f78565b7f00000000000000000000000000000000000000000000000000000000000000006001600160a01b03168d6001600160a01b03161415613981576139818d898561358c565b604051630852cd8d60e31b8152600481018890527f00000000000000000000000000000000000000000000000000000000000000006001600160a01b0316906342966c6890602401602060405180830381600087803b1580156139e357600080fd5b505af11580156139f7573d6000803e3d6000fd5b505050506040513d601f19601f82011682018060405250810190613a1b9190614c95565b613a2457600080fd5b604080516001600160a01b038a16815260208101899052908101869052606081018790526080810184905260a081018b90527fa9da34e5e4a956b744307ae7611795634e8365951073bf049d76b64b2ae7a0589060c00160405180910390a15060019c9b505050505050505050505050565b6000806000613ac660007f0000000000000000000000000000000000000000000000000000000000000000612e2a565b90925090506000613aeb60036114f360026114ed89613ae58989613124565b90613124565b90507f00000000000000000000000000000000000000000000000000000000000000006001600160a01b0316866001600160a01b0316148015613b37575080613b348387613124565b10155b15613b48576001935050505061277c565b6001600160a01b038616158015613b68575080613b658487613124565b10155b15613b79576002935050505061277c565b50600095945050505050565b6000612efb828461500a565b6000612efb8284615029565b6000818152600c602052604081205460ff1615613bcc5760405162461bcd60e51b815260040161090390614c5e565b83613c195760405162461bcd60e51b815260206004820152601c60248201527f546865207472616e73616374696f6e206973206e6f742076616c6964000000006044820152606401610903565b8360a081901c6000613c296113d8565b90506000613c5b826114f3857f0000000000000000000000000000000000000000000000000000000000000000613b85565b90506000613c698a85611328565b9050600081613c79576000613c89565b613c896127106114f38585613b85565b9050888015613c9757508015155b15613ca157600080fd5b6001600160a01b037f0000000000000000000000000000000000000000000000000000000000000000166340c10f1987613cdb8685612eef565b6040516001600160e01b031960e085901b1681526001600160a01b0390921660048301526024820152604401602060405180830381600087803b158015613d2157600080fd5b505af1158015613d35573d6000803e3d6000fd5b505050506040513d601f19601f82011682018060405250810190613d599190614c95565b50600854613d679082613124565b600855613d748b8661423f565b613d7d88613f78565b604080516001600160a01b038816815260208101879052908101849052606081018590526080810182905260a081018990527fdfaf4e23f7030adafec91a682e05bf9fb30c721f9cec3d8bcfae0459c5362db19060c00160405180910390a15060019a9950505050505050505050565b600080546001600160a01b038381166001600160a01b0319831681178455604051919092169283917f8be0079c531659141344cd1fd0a4f28419497f9722a3daafe3b4186f6b6457e09190a35050565b6002819055604080518281524260208201527fa1cc12e33e9907b789fd3c10ea0afd9d3e563e2db44d84c7269534f1046d1ca1910160405180910390a150565b60008115613ea657506001600160a01b0383166000908152600d60205260408120556001612efb565b6001600160a01b0384166000908152600e602052604090205460ff16613f2a57600f805460018082019092557f8d1108e10bcb7c27dddfc02ed9d693a074039d026cf4ea4240b40f7d581ac8020180546001600160a01b0319166001600160a01b0387169081179091556000908152600e60205260409020805460ff191690911790555b50506001600160a01b03919091166000908152600d6020526040902055600190565b60008184841115613f705760405162461bcd60e51b81526004016109039190615077565b505050900390565b6000908152600c60205260409020805460ff19166001179055565b6040516001600160a01b03808516602483015283166044820152606481018290526112219085906323b872dd60e01b906084015b60408051601f198184030181529190526020810180516001600160e01b03166001600160e01b031990931692909217909152614262565b604051636eb1769f60e11b81523060048201526001600160a01b038381166024830152600091839186169063dd62ed3e9060440160206040518083038186803b15801561404a57600080fd5b505afa15801561405e573d6000803e3d6000fd5b505050506040513d601f19601f820116820180604052508101906140829190614b30565b61408c9190614ff2565b6040516001600160a01b03851660248201526044810182905290915061122190859063095ea7b360e01b90606401613fc7565b60055442905b60045481116135885760025460008281526003602052604090206004015483916140ef9190613124565b10156141d0576000818152600360208181526040808420909201546001600160a01b037f00000000000000000000000000000000000000000000000000000000000000001684526010825282842030855290915291205461414f91612eef565b6001600160a01b037f0000000000000000000000000000000000000000000000000000000000000000166000908152601060209081526040808320308452825280832093909355838252600390819052918120818155600181018290556002810180546001600160a01b031916905591820181905560049091015560058190555b806141da81614bed565b9150506140c5565b61421f816040518060600160405280602781526020016150c7602791396001600160a01b0385166000908152600b60205260409020549190613f4c565b6001600160a01b039092166000908152600b602052604090209190915550565b6001600160a01b0382166000908152600b602052604090205461421f9082613124565b60006142b7826040518060400160405280602081526020017f5361666545524332303a206c6f772d6c6576656c2063616c6c206661696c6564815250856001600160a01b03166143349092919063ffffffff16565b80519091501561311f57808060200190518101906142d59190614c95565b61311f5760405162461bcd60e51b815260206004820152602a60248201527f5361666545524332303a204552433230206f7065726174696f6e20646964206e6044820152691bdd081cdd58d8d9595960b21b6064820152608401610903565b6060614343848460008561434b565b949350505050565b6060824710156143ac5760405162461bcd60e51b815260206004820152602660248201527f416464726573733a20696e73756666696369656e742062616c616e636520666f6044820152651c8818d85b1b60d21b6064820152608401610903565b843b6143fa5760405162461bcd60e51b815260206004820152601d60248201527f416464726573733a2063616c6c20746f206e6f6e2d636f6e74726163740000006044820152606401610903565b600080866001600160a01b0316858760405161441691906150aa565b60006040518083038185875af1925050503d8060008114614453576040519150601f19603f3d011682016040523d82523d6000602084013e614458565b606091505b5091509150614468828286614473565b979650505050505050565b60608315614482575081612efb565b8251156144925782518084602001fd5b8160405162461bcd60e51b81526004016109039190615077565b634e487b7160e01b600052600160045260246000fd5b60006101e082840312156144d557600080fd5b50919050565b600080604083850312156144ee57600080fd5b82359150602083013567ffffffffffffffff81111561450c57600080fd5b614518858286016144c2565b9150509250929050565b6001600160a01b0381168114612eec57600080fd5b803561454281614522565b919050565b634e487b7160e01b600052604160045260246000fd5b604051601f8201601f1916810167ffffffffffffffff8111828210171561458657614586614547565b604052919050565b600067ffffffffffffffff8211156145a8576145a8614547565b5060051b60200190565b600082601f8301126145c357600080fd5b813560206145d86145d38361458e565b61455d565b82815260059290921b840181019181810190868411156145f757600080fd5b8286015b8481101561461257803583529183019183016145fb565b509695505050505050565b60008060008060008060c0878903121561463657600080fd5b863561464181614522565b9550602087013561465181614522565b945060408701359350606087013592506080870135915060a087013567ffffffffffffffff81111561468257600080fd5b61468e89828a016145b2565b9150509295509295509295565b6000602082840312156146ad57600080fd5b5035919050565b602080825282518282018190526000919060409081850190868401855b8281101561471e578151805185528681015187860152858101516001600160a01b031686860152606080820151908601526080908101519085015260a090930192908501906001016146d1565b5091979650505050505050565b6000806000806080858703121561474157600080fd5b843561474c81614522565b966020860135965060408601359560600135945092505050565b6000806040838503121561477957600080fd5b823561478481614522565b946020939093013593505050565b600080604083850312156147a557600080fd5b82356147b081614522565b915060208301356147c081614522565b809150509250929050565b8015158114612eec57600080fd5b600080600080608085870312156147ef57600080fd5b84356147fa81614522565b9350602085013592506040850135614811816147cb565b9396929550929360600135925050565b6020808252825182820181905260009190848201906040850190845b818110156148595783518352928401929184019160010161483d565b50909695505050505050565b803560ff8116811461454257600080fd5b600080600080600080600080610100898b03121561489357600080fd5b883561489e81614522565b975060208981013567ffffffffffffffff808211156148bc57600080fd5b6148c88d838e016145b2565b995060408c01359150808211156148de57600080fd5b508a01601f81018c136148f057600080fd5b80356148fe6145d38261458e565b81815260059190911b8201830190838101908e83111561491d57600080fd5b928401925b82841015614944578335614935816147cb565b82529284019290840190614922565b809a50505050505061495860608a01614865565b945061496660808a01614865565b935061497460a08a01614865565b925061498260c08a01614865565b915060e089013590509295985092959890939650565b6000602082840312156149aa57600080fd5b8135612efb81614522565b600080600080600060a086880312156149cd57600080fd5b85356149d881614522565b9450602086013567ffffffffffffffff808211156149f557600080fd5b614a0189838a016145b2565b955060408801359450606088013593506080880135915080821115614a2557600080fd5b50614a32888289016145b2565b9150509295509295909350565b60008060008060808587031215614a5557600080fd5b8435614a6081614522565b93506020850135925060408501359150606085013567ffffffffffffffff811115614a8a57600080fd5b614a96878288016145b2565b91505092959194509250565b600060208284031215614ab457600080fd5b813567ffffffffffffffff811115614acb57600080fd5b614343848285016144c2565b60008060408385031215614aea57600080fd5b50508035926020909101359150565b6020808252601f908201527f5265656e7472616e637947756172643a207265656e7472616e742063616c6c00604082015260600190565b600060208284031215614b4257600080fd5b5051919050565b6020808252818101527f4f776e61626c653a2063616c6c6572206973206e6f7420746865206f776e6572604082015260600190565b60208082526023908201527f5f64657374546f6b656e2073686f756c64206e6f74206265206164647265737360408201526228302960e81b606082015260800190565b634e487b7160e01b600052603260045260246000fd5b634e487b7160e01b600052601160045260246000fd5b6000600019821415614c0157614c01614bd7565b5060010190565b6001600160a01b03958616815293909416602084015260408301919091526060820152608081019190915260a00190565b600060ff821660ff84168060ff03821115614c5657614c56614bd7565b019392505050565b60208082526018908201527f546865207478696420697320616c726561647920757365640000000000000000604082015260600190565b600060208284031215614ca757600080fd5b8151612efb816147cb565b600082821015614cc457614cc4614bd7565b500390565b600060208284031215614cdb57600080fd5b8151612efb81614522565b6000808335601e19843603018112614cfd57600080fd5b830160208101925035905067ffffffffffffffff811115614d1d57600080fd5b8060051b3603831315614d2f57600080fd5b9250929050565b8183526000602080850194508260005b85811015614d74578135614d5981614522565b6001600160a01b031687529582019590820190600101614d46565b509495945050505050565b6000808335601e19843603018112614d9657600080fd5b830160208101925035905067ffffffffffffffff811115614db657600080fd5b803603831315614d2f57600080fd5b81835281816020850137506000828201602090810191909152601f909101601f19169091010190565b81835260006001600160fb1b03831115614e0757600080fd5b8260051b8083602087013760009401602001938452509192915050565b80356001600160801b03198116811461454257600080fd5b60208152614e5d60208201614e5084614537565b6001600160a01b03169052565b6000614e6b60208401614537565b6001600160a01b0381166040840152506040830135606083015260608301356080830152608083013560a0830152614ea660a0840184614ce6565b6101e08060c0860152614ebe61020086018385614d36565b9250614ecd60c0870187614d7f565b9250601f19808786030160e0880152614ee7858584614dc5565b9450614ef660e0890189614ce6565b94509150610100818887030181890152614f11868685614dee565b9550614f1f818a018a614ce6565b9550925050610120818887030181890152614f3b868685614dee565b9550614f48818a01614537565b9450506101409150614f64828801856001600160a01b03169052565b614f6f828901614537565b93506101609150614f8a828801856001600160a01b03169052565b61018093508188013584880152614fa384890189614d7f565b945091506101a0818887030181890152614fbe868685614dc5565b95506101c094508089013585890152505050614fdb828701614e24565b6001600160801b0319169401939093529392505050565b6000821982111561500557615005614bd7565b500190565b600081600019048311821515161561502457615024614bd7565b500290565b60008261504657634e487b7160e01b600052601260045260246000fd5b500490565b60005b8381101561506657818101518382015260200161504e565b838111156112215750506000910152565b602081526000825180602084015261509681604085016020870161504b565b601f01601f19169190910160400192915050565b600082516150bc81846020870161504b565b919091019291505056fe5f72656d6f7665466c6f61743a20666c6f617420616d6f756e7420696e73756666696369656e74a26469706673582212200dbf02635dfbfb93c10a618d68eae4adc7cc8cbbbbc3c2dc35c3485b2216740f64736f6c63430008090033",
  "linkReferences": {},
  "deployedLinkReferences": {}
}