{
  "_format": "hh-sol-artifact-1",
  "contractName": "SwapContract",
  "sourceName": "contracts/SwapContract.sol",
  "abi": [
    {
      "inputs": [
        {
          "internalType": "address",
          "name": "_lpToken",
          "type": "address"
        },
        {
          "internalType": "address",
          "name": "_btct",
          "type": "address"
        },
        {
          "internalType": "address",
          "name": "_wETH",
          "type": "address"
        },
        {
          "internalType": "address",
          "name": "_sbBTCPool",
          "type": "address"
        },
        {
          "internalType": "address",
          "name": "_params",
          "type": "address"
        },
        {
          "internalType": "address",
          "name": "_swapRewards",
          "type": "address"
        },
        {
          "internalType": "uint256",
          "name": "_existingBTCFloat",
          "type": "uint256"
        }
      ],
      "stateMutability": "nonpayable",
      "type": "constructor"
    },
    {
      "anonymous": false,
      "inputs": [
        {
          "indexed": false,
          "internalType": "address",
          "name": "token",
          "type": "address"
        },
        {
          "indexed": false,
          "internalType": "uint256",
          "name": "amountOfLP",
          "type": "uint256"
        },
        {
          "indexed": false,
          "internalType": "uint256",
          "name": "amountOfFloat",
          "type": "uint256"
        },
        {
          "indexed": false,
          "internalType": "uint256",
          "name": "currentPriceLP",
          "type": "uint256"
        },
        {
          "indexed": false,
          "internalType": "uint256",
          "name": "withdrawal",
          "type": "uint256"
        },
        {
          "indexed": false,
          "internalType": "bytes32",
          "name": "txid",
          "type": "bytes32"
        }
      ],
      "name": "BurnLPTokensForFloat",
      "type": "event"
    },
    {
      "anonymous": false,
      "inputs": [
        {
          "indexed": false,
          "internalType": "address",
          "name": "token",
          "type": "address"
        },
        {
          "indexed": false,
          "internalType": "address",
          "name": "user",
          "type": "address"
        },
        {
          "indexed": false,
          "internalType": "uint256",
          "name": "amount",
          "type": "uint256"
        },
        {
          "indexed": false,
          "internalType": "uint256",
          "name": "balance",
          "type": "uint256"
        },
        {
          "indexed": false,
          "internalType": "uint256",
          "name": "Timestamp",
          "type": "uint256"
        }
      ],
      "name": "Deposit",
      "type": "event"
    },
    {
      "anonymous": false,
      "inputs": [
        {
          "indexed": false,
          "internalType": "uint256",
          "name": "rewardLPTsForNodes",
          "type": "uint256"
        }
      ],
      "name": "DistributeNodeRewards",
      "type": "event"
    },
    {
      "anonymous": false,
      "inputs": [
        {
          "indexed": false,
          "internalType": "address",
          "name": "to",
          "type": "address"
        },
        {
          "indexed": false,
          "internalType": "uint256",
          "name": "amountOfFloat",
          "type": "uint256"
        },
        {
          "indexed": false,
          "internalType": "uint256",
          "name": "amountOfLP",
          "type": "uint256"
        },
        {
          "indexed": false,
          "internalType": "uint256",
          "name": "currentPriceLP",
          "type": "uint256"
        },
        {
          "indexed": false,
          "internalType": "uint256",
          "name": "depositFees",
          "type": "uint256"
        },
        {
          "indexed": false,
          "internalType": "bytes32",
          "name": "txid",
          "type": "bytes32"
        }
      ],
      "name": "IssueLPTokensForFloat",
      "type": "event"
    },
    {
      "anonymous": false,
      "inputs": [
        {
          "indexed": true,
          "internalType": "address",
          "name": "previousOwner",
          "type": "address"
        },
        {
          "indexed": true,
          "internalType": "address",
          "name": "newOwner",
          "type": "address"
        }
      ],
      "name": "OwnershipTransferred",
      "type": "event"
    },
    {
      "anonymous": false,
      "inputs": [
        {
          "indexed": false,
          "internalType": "address",
          "name": "feesToken",
          "type": "address"
        },
        {
          "indexed": false,
          "internalType": "uint256",
          "name": "rewards",
          "type": "uint256"
        },
        {
          "indexed": false,
          "internalType": "uint256",
          "name": "amountLPTokensForNode",
          "type": "uint256"
        },
        {
          "indexed": false,
          "internalType": "uint256",
          "name": "currentPriceLP",
          "type": "uint256"
        }
      ],
      "name": "RewardsCollection",
      "type": "event"
    },
    {
      "anonymous": false,
      "inputs": [
        {
          "indexed": false,
          "internalType": "address",
          "name": "from",
          "type": "address"
        },
        {
          "indexed": false,
          "internalType": "address",
          "name": "to",
          "type": "address"
        },
        {
          "indexed": false,
          "internalType": "uint256",
          "name": "amount",
          "type": "uint256"
        }
      ],
      "name": "Swap",
      "type": "event"
    },
    {
      "anonymous": false,
      "inputs": [
        {
          "indexed": false,
          "internalType": "bytes32",
          "name": "SwapID",
          "type": "bytes32"
        },
        {
          "indexed": false,
          "internalType": "string",
          "name": "DestAddr",
          "type": "string"
        },
        {
          "indexed": false,
          "internalType": "address",
          "name": "RefundAddr",
          "type": "address"
        },
        {
          "indexed": false,
          "internalType": "uint256",
          "name": "AmountWBTC",
          "type": "uint256"
        },
        {
          "indexed": false,
          "internalType": "uint256",
          "name": "Timestamp",
          "type": "uint256"
        }
      ],
      "name": "SwapTokensToBTC",
      "type": "event"
    },
    {
      "anonymous": false,
      "inputs": [
        {
          "indexed": false,
          "internalType": "address",
          "name": "token",
          "type": "address"
        },
        {
          "indexed": false,
          "internalType": "address",
          "name": "user",
          "type": "address"
        },
        {
          "indexed": false,
          "internalType": "uint256",
          "name": "amount",
          "type": "uint256"
        },
        {
          "indexed": false,
          "internalType": "uint256",
          "name": "balance",
          "type": "uint256"
        },
        {
          "indexed": false,
          "internalType": "uint256",
          "name": "Timestamp",
          "type": "uint256"
        }
      ],
      "name": "Withdraw",
      "type": "event"
    },
    {
      "stateMutability": "nonpayable",
      "type": "fallback"
    },
    {
      "inputs": [],
      "name": "BTCT_ADDR",
      "outputs": [
        {
          "internalType": "address",
          "name": "",
          "type": "address"
        }
      ],
      "stateMutability": "view",
      "type": "function"
    },
    {
      "inputs": [],
      "name": "activeNodeCount",
      "outputs": [
        {
          "internalType": "uint8",
          "name": "",
          "type": "uint8"
        }
      ],
      "stateMutability": "view",
      "type": "function"
    },
    {
      "inputs": [
        {
          "internalType": "address",
          "name": "_token",
          "type": "address"
        },
        {
          "internalType": "address",
          "name": "_user",
          "type": "address"
        }
      ],
      "name": "balanceOf",
      "outputs": [
        {
          "internalType": "uint256",
          "name": "",
          "type": "uint256"
        }
      ],
      "stateMutability": "view",
      "type": "function"
    },
    {
      "inputs": [
        {
          "internalType": "address",
          "name": "_newOwner",
          "type": "address"
        },
        {
          "internalType": "address[]",
          "name": "_nodes",
          "type": "address[]"
        },
        {
          "internalType": "bool[]",
          "name": "_isRemoved",
          "type": "bool[]"
        },
        {
          "internalType": "uint8",
          "name": "_churnedInCount",
          "type": "uint8"
        },
        {
          "internalType": "uint8",
          "name": "_tssThreshold",
          "type": "uint8"
        },
        {
          "internalType": "uint256",
          "name": "_totalStakedAmount",
          "type": "uint256"
        }
      ],
      "name": "churn",
      "outputs": [
        {
          "internalType": "bool",
          "name": "",
          "type": "bool"
        }
      ],
      "stateMutability": "nonpayable",
      "type": "function"
    },
    {
      "inputs": [],
      "name": "churnedInCount",
      "outputs": [
        {
          "internalType": "uint8",
          "name": "",
          "type": "uint8"
        }
      ],
      "stateMutability": "view",
      "type": "function"
    },
    {
      "inputs": [
        {
          "internalType": "uint256",
          "name": "_incomingAmount",
          "type": "uint256"
        },
        {
          "internalType": "uint256",
          "name": "_minerFee",
          "type": "uint256"
        },
        {
          "internalType": "uint256",
          "name": "_rewardsAmount",
          "type": "uint256"
        },
        {
          "internalType": "address[]",
          "name": "_spenders",
          "type": "address[]"
        },
        {
          "internalType": "uint256[]",
          "name": "_swapAmounts",
          "type": "uint256[]"
        },
        {
          "internalType": "bool",
          "name": "_isUpdatelimitBTCForSPFlow2",
          "type": "bool"
        }
      ],
      "name": "collectSwapFeesForBTC",
      "outputs": [
        {
          "internalType": "bool",
          "name": "",
          "type": "bool"
        }
      ],
      "stateMutability": "nonpayable",
      "type": "function"
    },
    {
      "inputs": [],
      "name": "getActiveNodes",
      "outputs": [
        {
          "internalType": "address[]",
          "name": "",
          "type": "address[]"
        }
      ],
      "stateMutability": "view",
      "type": "function"
    },
    {
      "inputs": [],
      "name": "getCurrentPriceLP",
      "outputs": [
        {
          "internalType": "uint256",
          "name": "nowPrice",
          "type": "uint256"
        }
      ],
      "stateMutability": "view",
      "type": "function"
    },
    {
      "inputs": [
        {
          "internalType": "address",
          "name": "_tokenA",
          "type": "address"
        },
        {
          "internalType": "address",
          "name": "_tokenB",
          "type": "address"
        }
      ],
      "name": "getFloatReserve",
      "outputs": [
        {
          "internalType": "uint256",
          "name": "reserveA",
          "type": "uint256"
        },
        {
          "internalType": "uint256",
          "name": "reserveB",
          "type": "uint256"
        }
      ],
      "stateMutability": "view",
      "type": "function"
    },
    {
      "inputs": [],
      "name": "ip",
      "outputs": [
        {
          "internalType": "contract IParams",
          "name": "",
          "type": "address"
        }
      ],
      "stateMutability": "view",
      "type": "function"
    },
    {
      "inputs": [
        {
          "internalType": "address",
          "name": "_user",
          "type": "address"
        }
      ],
      "name": "isNodeStake",
      "outputs": [
        {
          "internalType": "bool",
          "name": "",
          "type": "bool"
        }
      ],
      "stateMutability": "view",
      "type": "function"
    },
    {
      "inputs": [
        {
          "internalType": "bytes32",
          "name": "_txid",
          "type": "bytes32"
        }
      ],
      "name": "isTxUsed",
      "outputs": [
        {
          "internalType": "bool",
          "name": "",
          "type": "bool"
        }
      ],
      "stateMutability": "view",
      "type": "function"
    },
    {
      "inputs": [],
      "name": "limitBTCForSPFlow2",
      "outputs": [
        {
          "internalType": "uint256",
          "name": "",
          "type": "uint256"
        }
      ],
      "stateMutability": "view",
      "type": "function"
    },
    {
      "inputs": [],
      "name": "lpToken",
      "outputs": [
        {
          "internalType": "address",
          "name": "",
          "type": "address"
        }
      ],
      "stateMutability": "view",
      "type": "function"
    },
    {
      "inputs": [
        {
          "internalType": "bytes32[]",
          "name": "_addressesAndAmounts",
          "type": "bytes32[]"
        },
        {
          "internalType": "uint256",
          "name": "_totalSwapped",
          "type": "uint256"
        },
        {
          "internalType": "uint256",
          "name": "_rewardsAmount",
          "type": "uint256"
        },
        {
          "internalType": "bytes32[]",
          "name": "_usedTxIds",
          "type": "bytes32[]"
        }
      ],
      "name": "multiRecordSkyPoolsTX",
      "outputs": [
        {
          "internalType": "bool",
          "name": "",
          "type": "bool"
        }
      ],
      "stateMutability": "nonpayable",
      "type": "function"
    },
    {
      "inputs": [
        {
          "internalType": "address",
          "name": "_destToken",
          "type": "address"
        },
        {
          "internalType": "bytes32[]",
          "name": "_addressesAndAmounts",
          "type": "bytes32[]"
        },
        {
          "internalType": "uint256",
          "name": "_totalSwapped",
          "type": "uint256"
        },
        {
          "internalType": "uint256",
          "name": "_rewardsAmount",
          "type": "uint256"
        },
        {
          "internalType": "bytes32[]",
          "name": "_redeemedFloatTxIds",
          "type": "bytes32[]"
        }
      ],
      "name": "multiTransferERC20TightlyPacked",
      "outputs": [
        {
          "internalType": "bool",
          "name": "",
          "type": "bool"
        }
      ],
      "stateMutability": "nonpayable",
      "type": "function"
    },
    {
      "inputs": [],
      "name": "oldestActiveIndex",
      "outputs": [
        {
          "internalType": "uint256",
          "name": "",
          "type": "uint256"
        }
      ],
      "stateMutability": "view",
      "type": "function"
    },
    {
      "inputs": [],
      "name": "owner",
      "outputs": [
        {
          "internalType": "address",
          "name": "",
          "type": "address"
        }
      ],
      "stateMutability": "view",
      "type": "function"
    },
    {
      "inputs": [],
      "name": "paraswapAddress",
      "outputs": [
        {
          "internalType": "address",
          "name": "",
          "type": "address"
        }
      ],
      "stateMutability": "view",
      "type": "function"
    },
    {
      "inputs": [
        {
          "internalType": "address",
          "name": "_token",
          "type": "address"
        },
        {
          "internalType": "bytes32",
          "name": "_addressesAndAmountOfFloat",
          "type": "bytes32"
        },
        {
          "internalType": "bytes32",
          "name": "_txid",
          "type": "bytes32"
        }
      ],
      "name": "recordIncomingFloat",
      "outputs": [
        {
          "internalType": "bool",
          "name": "",
          "type": "bool"
        }
      ],
      "stateMutability": "nonpayable",
      "type": "function"
    },
    {
      "inputs": [
        {
          "internalType": "address",
          "name": "_token",
          "type": "address"
        },
        {
          "internalType": "bytes32",
          "name": "_addressesAndAmountOfLPtoken",
          "type": "bytes32"
        },
        {
          "internalType": "uint256",
          "name": "_minerFee",
          "type": "uint256"
        },
        {
          "internalType": "bytes32",
          "name": "_txid",
          "type": "bytes32"
        }
      ],
      "name": "recordOutcomingFloat",
      "outputs": [
        {
          "internalType": "bool",
          "name": "",
          "type": "bool"
        }
      ],
      "stateMutability": "nonpayable",
      "type": "function"
    },
    {
      "inputs": [
        {
          "internalType": "address",
          "name": "_to",
          "type": "address"
        },
        {
          "internalType": "uint256",
          "name": "_totalSwapped",
          "type": "uint256"
        },
        {
          "internalType": "uint256",
          "name": "_rewardsAmount",
          "type": "uint256"
        },
        {
          "internalType": "bytes32[]",
          "name": "_usedTxIds",
          "type": "bytes32[]"
        }
      ],
      "name": "recordSkyPoolsTX",
      "outputs": [
        {
          "internalType": "bool",
          "name": "",
          "type": "bool"
        }
      ],
      "stateMutability": "nonpayable",
      "type": "function"
    },
    {
      "inputs": [
        {
          "internalType": "uint256",
          "name": "_minerFee",
          "type": "uint256"
        },
        {
          "internalType": "bytes32",
          "name": "_txid",
          "type": "bytes32"
        }
      ],
      "name": "recordUTXOSweepMinerFee",
      "outputs": [
        {
          "internalType": "bool",
          "name": "",
          "type": "bool"
        }
      ],
      "stateMutability": "nonpayable",
      "type": "function"
    },
    {
      "inputs": [
        {
          "internalType": "address",
          "name": "_token",
          "type": "address"
        },
        {
          "internalType": "uint256",
          "name": "_amount",
          "type": "uint256"
        }
      ],
      "name": "redeemERC20Token",
      "outputs": [],
      "stateMutability": "nonpayable",
      "type": "function"
    },
    {
      "inputs": [
        {
          "internalType": "uint256",
          "name": "_amount",
          "type": "uint256"
        }
      ],
      "name": "redeemEther",
      "outputs": [],
      "stateMutability": "nonpayable",
      "type": "function"
    },
    {
      "inputs": [],
      "name": "renounceOwnership",
      "outputs": [],
      "stateMutability": "nonpayable",
      "type": "function"
    },
    {
      "inputs": [],
      "name": "sbBTCPool",
      "outputs": [
        {
          "internalType": "address",
          "name": "",
          "type": "address"
        }
      ],
      "stateMutability": "view",
      "type": "function"
    },
    {
      "inputs": [
        {
          "internalType": "address",
          "name": "_destToken",
          "type": "address"
        },
        {
          "internalType": "address",
          "name": "_to",
          "type": "address"
        },
        {
          "internalType": "uint256",
          "name": "_amount",
          "type": "uint256"
        },
        {
          "internalType": "uint256",
          "name": "_totalSwapped",
          "type": "uint256"
        },
        {
          "internalType": "uint256",
          "name": "_rewardsAmount",
          "type": "uint256"
        },
        {
          "internalType": "bytes32[]",
          "name": "_redeemedFloatTxIds",
          "type": "bytes32[]"
        }
      ],
      "name": "singleTransferERC20",
      "outputs": [
        {
          "internalType": "bool",
          "name": "",
          "type": "bool"
        }
      ],
      "stateMutability": "nonpayable",
      "type": "function"
    },
    {
      "inputs": [],
      "name": "spCleanUpOldTXs",
      "outputs": [],
      "stateMutability": "nonpayable",
      "type": "function"
    },
    {
      "inputs": [
        {
          "internalType": "address",
          "name": "_token",
          "type": "address"
        },
        {
          "internalType": "uint256",
          "name": "_amount",
          "type": "uint256"
        }
      ],
      "name": "spDeposit",
      "outputs": [],
      "stateMutability": "payable",
      "type": "function"
    },
    {
      "inputs": [
        {
          "components": [
            {
              "internalType": "address",
              "name": "fromToken",
              "type": "address"
            },
            {
              "internalType": "address",
              "name": "toToken",
              "type": "address"
            },
            {
              "internalType": "uint256",
              "name": "fromAmount",
              "type": "uint256"
            },
            {
              "internalType": "uint256",
              "name": "toAmount",
              "type": "uint256"
            },
            {
              "internalType": "uint256",
              "name": "expectedAmount",
              "type": "uint256"
            },
            {
              "internalType": "address[]",
              "name": "callees",
              "type": "address[]"
            },
            {
              "internalType": "bytes",
              "name": "exchangeData",
              "type": "bytes"
            },
            {
              "internalType": "uint256[]",
              "name": "startIndexes",
              "type": "uint256[]"
            },
            {
              "internalType": "uint256[]",
              "name": "values",
              "type": "uint256[]"
            },
            {
              "internalType": "address payable",
              "name": "beneficiary",
              "type": "address"
            },
            {
              "internalType": "address payable",
              "name": "partner",
              "type": "address"
            },
            {
              "internalType": "uint256",
              "name": "feePercent",
              "type": "uint256"
            },
            {
              "internalType": "bytes",
              "name": "permit",
              "type": "bytes"
            },
            {
              "internalType": "uint256",
              "name": "deadline",
              "type": "uint256"
            },
            {
              "internalType": "bytes16",
              "name": "uuid",
              "type": "bytes16"
            }
          ],
          "internalType": "struct Utils.SimpleData",
          "name": "_data",
          "type": "tuple"
        }
      ],
      "name": "spFlow1SimpleSwap",
      "outputs": [],
      "stateMutability": "nonpayable",
      "type": "function"
    },
    {
      "inputs": [
        {
          "internalType": "bool",
          "name": "_fork",
          "type": "bool"
        },
        {
          "internalType": "address",
          "name": "_factory",
          "type": "address"
        },
        {
          "internalType": "bytes32",
          "name": "_initCode",
          "type": "bytes32"
        },
        {
          "internalType": "uint256",
          "name": "_amountIn",
          "type": "uint256"
        },
        {
          "internalType": "uint256",
          "name": "_amountOutMin",
          "type": "uint256"
        },
        {
          "internalType": "address[]",
          "name": "_path",
          "type": "address[]"
        }
      ],
      "name": "spFlow1Uniswap",
      "outputs": [
        {
          "internalType": "uint256",
          "name": "receivedAmount",
          "type": "uint256"
        }
      ],
      "stateMutability": "nonpayable",
      "type": "function"
    },
    {
      "inputs": [
        {
          "internalType": "string",
          "name": "_destinationAddressForBTC",
          "type": "string"
        },
        {
          "components": [
            {
              "internalType": "address",
              "name": "fromToken",
              "type": "address"
            },
            {
              "internalType": "address",
              "name": "toToken",
              "type": "address"
            },
            {
              "internalType": "uint256",
              "name": "fromAmount",
              "type": "uint256"
            },
            {
              "internalType": "uint256",
              "name": "toAmount",
              "type": "uint256"
            },
            {
              "internalType": "uint256",
              "name": "expectedAmount",
              "type": "uint256"
            },
            {
              "internalType": "address[]",
              "name": "callees",
              "type": "address[]"
            },
            {
              "internalType": "bytes",
              "name": "exchangeData",
              "type": "bytes"
            },
            {
              "internalType": "uint256[]",
              "name": "startIndexes",
              "type": "uint256[]"
            },
            {
              "internalType": "uint256[]",
              "name": "values",
              "type": "uint256[]"
            },
            {
              "internalType": "address payable",
              "name": "beneficiary",
              "type": "address"
            },
            {
              "internalType": "address payable",
              "name": "partner",
              "type": "address"
            },
            {
              "internalType": "uint256",
              "name": "feePercent",
              "type": "uint256"
            },
            {
              "internalType": "bytes",
              "name": "permit",
              "type": "bytes"
            },
            {
              "internalType": "uint256",
              "name": "deadline",
              "type": "uint256"
            },
            {
              "internalType": "bytes16",
              "name": "uuid",
              "type": "bytes16"
            }
          ],
          "internalType": "struct Utils.SimpleData",
          "name": "_data",
          "type": "tuple"
        }
      ],
      "name": "spFlow2SimpleSwap",
      "outputs": [
        {
          "internalType": "uint256",
          "name": "receivedAmount",
          "type": "uint256"
        }
      ],
      "stateMutability": "nonpayable",
      "type": "function"
    },
    {
      "inputs": [
        {
          "internalType": "string",
          "name": "_destinationAddressForBTC",
          "type": "string"
        },
        {
          "internalType": "bool",
          "name": "_fork",
          "type": "bool"
        },
        {
          "internalType": "address",
          "name": "_factory",
          "type": "address"
        },
        {
          "internalType": "bytes32",
          "name": "_initCode",
          "type": "bytes32"
        },
        {
          "internalType": "uint256",
          "name": "_amountIn",
          "type": "uint256"
        },
        {
          "internalType": "uint256",
          "name": "_amountOutMin",
          "type": "uint256"
        },
        {
          "internalType": "address[]",
          "name": "_path",
          "type": "address[]"
        }
      ],
      "name": "spFlow2Uniswap",
      "outputs": [
        {
          "internalType": "uint256",
          "name": "receivedAmount",
          "type": "uint256"
        }
      ],
      "stateMutability": "nonpayable",
      "type": "function"
    },
    {
      "inputs": [],
      "name": "spGetPendingSwaps",
      "outputs": [
        {
          "components": [
            {
              "internalType": "bytes32",
              "name": "SwapID",
              "type": "bytes32"
            },
            {
              "internalType": "string",
              "name": "DestAddr",
              "type": "string"
            },
            {
              "internalType": "address",
              "name": "RefundAddr",
              "type": "address"
            },
            {
              "internalType": "uint256",
              "name": "AmountWBTC",
              "type": "uint256"
            },
            {
              "internalType": "uint256",
              "name": "Timestamp",
              "type": "uint256"
            }
          ],
          "internalType": "struct SwapContract.spPendingTx[]",
          "name": "data",
          "type": "tuple[]"
        }
      ],
      "stateMutability": "view",
      "type": "function"
    },
    {
      "inputs": [
        {
          "internalType": "uint256",
          "name": "",
          "type": "uint256"
        }
      ],
      "name": "spPendingTXs",
      "outputs": [
        {
          "internalType": "bytes32",
          "name": "SwapID",
          "type": "bytes32"
        },
        {
          "internalType": "string",
          "name": "DestAddr",
          "type": "string"
        },
        {
          "internalType": "address",
          "name": "RefundAddr",
          "type": "address"
        },
        {
          "internalType": "uint256",
          "name": "AmountWBTC",
          "type": "uint256"
        },
        {
          "internalType": "uint256",
          "name": "Timestamp",
          "type": "uint256"
        }
      ],
      "stateMutability": "view",
      "type": "function"
    },
    {
      "inputs": [],
      "name": "sw",
      "outputs": [
        {
          "internalType": "contract ISwapRewards",
          "name": "",
          "type": "address"
        }
      ],
      "stateMutability": "view",
      "type": "function"
    },
    {
      "inputs": [],
      "name": "swapCount",
      "outputs": [
        {
          "internalType": "uint256",
          "name": "",
          "type": "uint256"
        }
      ],
      "stateMutability": "view",
      "type": "function"
    },
    {
      "inputs": [
        {
          "internalType": "address",
          "name": "",
          "type": "address"
        },
        {
          "internalType": "address",
          "name": "",
          "type": "address"
        }
      ],
      "name": "tokens",
      "outputs": [
        {
          "internalType": "uint256",
          "name": "",
          "type": "uint256"
        }
      ],
      "stateMutability": "view",
      "type": "function"
    },
    {
      "inputs": [],
      "name": "totalStakedAmount",
      "outputs": [
        {
          "internalType": "uint256",
          "name": "",
          "type": "uint256"
        }
      ],
      "stateMutability": "view",
      "type": "function"
    },
    {
      "inputs": [
        {
          "internalType": "address",
          "name": "newOwner",
          "type": "address"
        }
      ],
      "name": "transferOwnership",
      "outputs": [],
      "stateMutability": "nonpayable",
      "type": "function"
    },
    {
      "inputs": [],
      "name": "tssThreshold",
      "outputs": [
        {
          "internalType": "uint8",
          "name": "",
          "type": "uint8"
        }
      ],
      "stateMutability": "view",
      "type": "function"
    },
    {
      "inputs": [],
      "name": "wETH",
      "outputs": [
        {
          "internalType": "address",
          "name": "",
          "type": "address"
        }
      ],
      "stateMutability": "view",
      "type": "function"
    },
    {
      "inputs": [
        {
          "internalType": "address",
          "name": "",
          "type": "address"
        }
      ],
      "name": "whitelist",
      "outputs": [
        {
          "internalType": "bool",
          "name": "",
          "type": "bool"
        }
      ],
      "stateMutability": "view",
      "type": "function"
    },
    {
      "stateMutability": "payable",
      "type": "receive"
    }
  ],
  "bytecode": "0x6101806040523480156200001257600080fd5b50604051620065b5380380620065b5833981016040819052620000359162000333565b6200004033620002c6565b60018055600060048181556003919091556001600160a01b03808716610100528581166101205284166101408190526040805163f10d7c3560e01b81529051919263f10d7c35928282019260209290829003018186803b158015620000a457600080fd5b505afa158015620000b9573d6000803e3d6000fd5b505050506040513d601f19601f82011682018060405250810190620000df9190620003bf565b600f80546001600160a01b0319166001600160a01b0392831617905582811661016052871660a08190526040805163313ce56760e01b8152905163313ce56791600480820192602092909190829003018186803b1580156200014057600080fd5b505afa15801562000155573d6000803e3d6000fd5b505050506040513d601f19601f820116820180604052508101906200017b9190620003e4565b6200018890600a6200051e565b60e0526001600160a01b03861660808190526040805163313ce56760e01b815290516008929163313ce567916004808301926020929190829003018186803b158015620001d457600080fd5b505afa158015620001e9573d6000803e3d6000fd5b505050506040513d601f19601f820116820180604052508101906200020f9190620003e4565b6200021b91906200052f565b6200022890600a6200051e565b60c0526001600160a01b0395861660009081526005602090815260408083208054600160ff1991821681179092559a9099168352822080548a16891790559080527f05b8ccbb9d4d8fb16ea74ce3c29a41f1b461fbdaff4714a0d9a8eb05499746bc80549098169096179096555050600890925250507f5eff886ea0ce6ca488a3d6e336d6c0f75f46d19b42c06ce5ee98e42c96d256c75562000555565b600080546001600160a01b038381166001600160a01b0319831681178455604051919092169283917f8be0079c531659141344cd1fd0a4f28419497f9722a3daafe3b4186f6b6457e09190a35050565b80516001600160a01b03811681146200032e57600080fd5b919050565b600080600080600080600060e0888a0312156200034f57600080fd5b6200035a8862000316565b96506200036a6020890162000316565b95506200037a6040890162000316565b94506200038a6060890162000316565b93506200039a6080890162000316565b9250620003aa60a0890162000316565b915060c0880151905092959891949750929550565b600060208284031215620003d257600080fd5b620003dd8262000316565b9392505050565b600060208284031215620003f757600080fd5b815160ff81168114620003dd57600080fd5b634e487b7160e01b600052601160045260246000fd5b600181815b808511156200046057816000190482111562000444576200044462000409565b808516156200045257918102915b93841c939080029062000424565b509250929050565b600082620004795750600162000518565b81620004885750600062000518565b8160018114620004a15760028114620004ac57620004cc565b600191505062000518565b60ff841115620004c057620004c062000409565b50506001821b62000518565b5060208310610133831016604e8410600b8410161715620004f1575081810a62000518565b620004fd83836200041f565b806000190482111562000514576200051462000409565b0290505b92915050565b6000620003dd60ff84168362000468565b600060ff821660ff8416808210156200054c576200054c62000409565b90039392505050565b60805160a05160c05160e05161010051610120516101405161016051615e646200075160003960008181610348015281816109f101526133dc0152600081816107a00152818161264901528181612715015281816127d4015281816132b40152818161382d01528181613e3701526146ed0152600081816102cb015281816136c8015261390f0152600081816102780152818161089901528181611cc601528181611d2201528181611d8f01528181611dd601528181611eba01528181612d7b01528181612df50152612e3e01526000818161138e015281816113ca015281816138d401528181613dff01526145e701526000613ac001526000818161058f01528181610ac901528181610b04015281816112ee015281816120bb015281816120f601528181613679015281816136f7015281816139410152818161409601526146340152600081816103ac01528181610a7501528181610aa701528181610c1e015281816112c20152818161166f0152818161206701528181612099015281816121b8015281816121e701528181612237015281816122ca015281816123580152818161290d0152818161298101528181612a1801528181612bcc015281816130d70152818161338d0152818161346e01528181613a8201528181613f2c01528181613fa80152818161403d01526143130152615e646000f3fe6080604052600436106102685760003560e01c80638535490f11610144578063ca0707e7116100b6578063e6ca20841161007a578063e6ca208414610802578063ec48272914610832578063f10d7c3514610867578063f242862114610887578063f2fde38b146108bb578063f7888aec146108db576102a7565b8063ca0707e71461075b578063cf10b16b1461076e578063d023420d1461078e578063d38c7bb1146107c2578063dcc5f0c8146107e2576102a7565b8063ad289e7611610108578063ad289e76146106a6578063b345a358146106c6578063b4014fe8146106e6578063b9ae0adc14610706578063bf62dcc81461071b578063c810a5391461073b576102a7565b80638535490f146106025780638da5cb5b146106225780639b19251a14610640578063a742329d14610670578063a827278b14610690576102a7565b80632eff0d9e116101dd57806352dcd6b6116101a157806352dcd6b614610547578063567e98f9146105675780635fcbd2851461057d5780636b51e919146105b1578063715018a6146105d357806375340815146105e8576102a7565b80632eff0d9e146104a457806345137e27146104ba5780634db75485146104cf578063508493bc146104ef578063511834c314610527576102a7565b806312d1441e1161022f57806312d1441e146103ce578063130b7a63146103ed5780631ab7e9371461041b5780631bb069301461044c57806320199e99146104625780632586c56214610484576102a7565b806285aea1146102b957806289356f1461030a578062e5cee4146103365780630d63aca71461036a5780630f9094861461039a576102a7565b366102a757336001600160a01b037f000000000000000000000000000000000000000000000000000000000000000016146102a5576102a5614c7f565b005b3480156102b357600080fd5b50600080fd5b3480156102c557600080fd5b506102ed7f000000000000000000000000000000000000000000000000000000000000000081565b6040516001600160a01b0390911681526020015b60405180910390f35b34801561031657600080fd5b506006546103249060ff1681565b60405160ff9091168152602001610301565b34801561034257600080fd5b506102ed7f000000000000000000000000000000000000000000000000000000000000000081565b34801561037657600080fd5b5061038a610385366004614d8e565b610921565b6040519015158152602001610301565b3480156103a657600080fd5b506102ed7f000000000000000000000000000000000000000000000000000000000000000081565b3480156103da57600080fd5b5060065461032490610100900460ff1681565b3480156103f957600080fd5b5061040d610408366004614e6f565b610b50565b604051908152602001610301565b34801561042757600080fd5b5061043b610436366004614ef4565b610f21565b604051610301959493929190614f65565b34801561045857600080fd5b5061040d60045481565b34801561046e57600080fd5b50610477610fe4565b6040516103019190614fa4565b34801561049057600080fd5b5061038a61049f366004615042565b6111e5565b3480156104b057600080fd5b5061040d60035481565b3480156104c657600080fd5b5061040d6112b6565b3480156104db57600080fd5b506102a56104ea36600461507d565b6113f2565b3480156104fb57600080fd5b5061040d61050a3660046150a9565b600e60209081526000928352604080842090915290825290205481565b34801561053357600080fd5b506102a56105423660046150fb565b611551565b34801561055357600080fd5b5061038a6105623660046151ad565b6117bb565b34801561057357600080fd5b5061040d600d5481565b34801561058957600080fd5b506102ed7f000000000000000000000000000000000000000000000000000000000000000081565b3480156105bd57600080fd5b506105c6611b56565b60405161030191906152ef565b3480156105df57600080fd5b506102a5611c80565b3480156105f457600080fd5b50600c546103249060ff1681565b34801561060e57600080fd5b506102a561061d366004614ef4565b611c94565b34801561062e57600080fd5b506000546001600160a01b03166102ed565b34801561064c57600080fd5b5061038a61065b366004615302565b60056020526000908152604090205460ff1681565b34801561067c57600080fd5b5061038a61068b366004615302565b611f50565b34801561069c57600080fd5b5061040d60075481565b3480156106b257600080fd5b5061038a6106c136600461531f565b611f84565b3480156106d257600080fd5b5061038a6106e13660046153a8565b612193565b3480156106f257600080fd5b5061040d61070136600461544b565b612296565b34801561071257600080fd5b506102a561270e565b34801561072757600080fd5b5061038a6107363660046154b3565b6128e8565b34801561074757600080fd5b5061038a61075636600461551d565b612a9f565b6102a561076936600461507d565b612b73565b34801561077a57600080fd5b5061038a61078936600461553f565b612ed5565b34801561079a57600080fd5b506102ed7f000000000000000000000000000000000000000000000000000000000000000081565b3480156107ce57600080fd5b5061040d6107dd366004615574565b612fa4565b3480156107ee57600080fd5b5061038a6107fd36600461562b565b613381565b34801561080e57600080fd5b5061038a61081d366004614ef4565b60009081526009602052604090205460ff1690565b34801561083e57600080fd5b5061085261084d3660046150a9565b6134de565b60408051928352602083019190915201610301565b34801561087357600080fd5b50600f546102ed906001600160a01b031681565b34801561089357600080fd5b506102ed7f000000000000000000000000000000000000000000000000000000000000000081565b3480156108c757600080fd5b506102a56108d6366004615302565b613508565b3480156108e757600080fd5b5061040d6108f63660046150a9565b6001600160a01b039182166000908152600e6020908152604080832093909416825291909152205490565b600061092b613581565b6001600160a01b03871660009081526005602052604090205460ff1661097d5760405162461bcd60e51b81526020600482015260026024820152610c4d60f21b60448201526064015b60405180910390fd5b6001600160a01b0387166109b85760405162461bcd60e51b8152602060048201526002602482015261313560f01b6044820152606401610974565b60008415610a9f5760405160016266faa960e11b031981526001600160a01b0389811660048301528881166024830152604482018790527f0000000000000000000000000000000000000000000000000000000000000000169063ff320aae90606401602060405180830381600087803b158015610a3557600080fd5b505af1158015610a49573d6000803e3d6000fd5b505050506040513d601f19601f82011682018060405250810190610a6d9190615710565b50610a9a60007f000000000000000000000000000000000000000000000000000000000000000087613598565b610ac7565b84610ac757507f00000000000000000000000000000000000000000000000000000000000000005b7f00000000000000000000000000000000000000000000000000000000000000006001600160a01b0316886001600160a01b03161415610b2457507f00000000000000000000000000000000000000000000000000000000000000005b610b2e818561366e565b610b3783613a18565b610b42888888613a80565b506001979650505050505050565b600060026001541415610b755760405162461bcd60e51b81526004016109749061572d565b6002600155600083838281610b8c57610b8c615764565b9050602002016020810190610ba19190615302565b905060008484610bb2600182615790565b818110610bc157610bc1615764565b9050602002016020810190610bd69190615302565b6001600160a01b0383166000908152600e60209081526040808320338452909152902054909150871115610c1c5760405162461bcd60e51b8152600401610974906157a7565b7f00000000000000000000000000000000000000000000000000000000000000006001600160a01b0316826001600160a01b031614610c965760405162461bcd60e51b8152602060048201526016602482015275333937b6aa37b5b2b710109e90212a21aa2fa0a2222960511b6044820152606401610974565b6001600160a01b03811673eeeeeeeeeeeeeeeeeeeeeeeeeeeeeeeeeeeeeeee1415610cfb5760405162461bcd60e51b81526020600482015260156024820152740aae6ca40e0c2e8d040ee84a886405a7c40ee8aa89605b1b6044820152606401610974565b6040516370a0823160e01b81523060048201526000906001600160a01b038316906370a082319060240160206040518083038186803b158015610d3d57600080fd5b505afa158015610d51573d6000803e3d6000fd5b505050506040513d601f19601f82011682018060405250810190610d7591906157d5565b6001600160a01b0384166000908152600e60209081526040808320338452909152902054909150610da69089613b72565b6001600160a01b0384166000908152600e602090815260408083203384529091529020558a15610de357610dde8a8a8a8a8a8a613b85565b610def565b610def88888888613cb0565b6040516370a0823160e01b8152306004820152610e739082906001600160a01b038516906370a08231906024015b60206040518083038186803b158015610e3557600080fd5b505afa158015610e49573d6000803e3d6000fd5b505050506040513d601f19601f82011682018060405250810190610e6d91906157d5565b90613b72565b935086841015610eba5760405162461bcd60e51b81526020600482015260126024820152715265636569766564203c206d696e696d756d60701b6044820152606401610974565b6001600160a01b0382166000908152600e60209081526040808320338452909152902054610ee89085613d64565b6001600160a01b039092166000908152600e60209081526040808320338452909152902091909155505060018055979650505050505050565b60026020526000908152604090208054600182018054919291610f43906157ee565b80601f0160208091040260200160405190810160405280929190818152602001828054610f6f906157ee565b8015610fbc5780601f10610f9157610100808354040283529160200191610fbc565b820191906000526020600020905b815481529060010190602001808311610f9f57829003601f168201915b505050506002830154600384015460049094015492936001600160a01b039091169290915085565b60606000610fff600454600354613b7290919063ffffffff16565b6001600160401b0381111561101657611016614cba565b60405190808252806020026020018201604052801561108557816020015b6110726040518060a00160405280600080191681526020016060815260200160006001600160a01b0316815260200160008152602001600081525090565b8152602001906001900390816110345790505b50915060006110a06001600454613d6490919063ffffffff16565b90505b60035481116111e057600260006110c560045485613d6490919063ffffffff16565b81526020019081526020016000206040518060a0016040529081600082015481526020016001820180546110f8906157ee565b80601f0160208091040260200160405190810160405280929190818152602001828054611124906157ee565b80156111715780601f1061114657610100808354040283529160200191611171565b820191906000526020600020905b81548152906001019060200180831161115457829003601f168201915b505050918352505060028201546001600160a01b031660208201526003820154604082015260049091015460609091015283518490849081106111b6576111b6615764565b60209081029190910101526111cc826001613d64565b9150806111d881615823565b9150506110a3565b505090565b60006111ef613581565b60006111f96112b6565b6001600160a01b03871660009081526005602052604090205490915060ff166112495760405162461bcd60e51b8152602060048201526002602482015261189b60f11b6044820152606401610974565b61125586868686613d70565b61125e57600080fd5b600191508061126b6112b6565b10156112ad5760405162461bcd60e51b8152602060048201526011602482015270496e76616c6964204c505420707269636560781b6044820152606401610974565b50949350505050565b60008060006112e660007f00000000000000000000000000000000000000000000000000000000000000006134de565b9150915060007f00000000000000000000000000000000000000000000000000000000000000006001600160a01b03166318160ddd6040518163ffffffff1660e01b815260040160206040518083038186803b15801561134557600080fd5b505afa158015611359573d6000803e3d6000fd5b505050506040513d601f19601f8201168201806040525081019061137d91906157d5565b905080156113c8576113c3816113bd7f00000000000000000000000000000000000000000000000000000000000000006113b78787613d64565b90614195565b906141a1565b6113ea565b7f00000000000000000000000000000000000000000000000000000000000000005b935050505090565b600260015414156114155760405162461bcd60e51b81526004016109749061572d565b60026001556001600160a01b0382166000908152600e602090815260408083203384529091529020548111156114845760405162461bcd60e51b8152602060048201526014602482015273496e73756666696369656e742042616c616e636560601b6044820152606401610974565b6001600160a01b0382166000908152600e602090815260408083203384529091529020546114b29082613b72565b6001600160a01b0383166000908152600e60209081526040808320338085529252909120919091556114e690839083613a80565b6001600160a01b0382166000908152600e60209081526040808320338085529252918290205491517febff2602b3f468259e1e99f613fed6691f3a6526effe6ef3e768ba7ae7a36c4f9261154192869290918691429061583e565b60405180910390a1505060018055565b600260015414156115745760405162461bcd60e51b81526004016109749061572d565b60026001553361158c61014083016101208401615302565b6001600160a01b0316146115e25760405162461bcd60e51b815260206004820152601960248201527f62656e656669636961727920213d206d73672e73656e646572000000000000006044820152606401610974565b6040810135600e60006115f86020850185615302565b6001600160a01b03168152602081019190915260400160009081209061162661014085016101208601615302565b6001600160a01b03166001600160a01b031681526020019081526020016000205410156116655760405162461bcd60e51b8152600401610974906157a7565b6001600160a01b037f00000000000000000000000000000000000000000000000000000000000000001661169c6020830183615302565b6001600160a01b0316146116eb5760405162461bcd60e51b8152602060048201526016602482015275333937b6aa37b5b2b710109e90212a21aa2fa0a2222960511b6044820152606401610974565b6116f4816141ad565b61175b6040820135600e600061170d6020860186615302565b6001600160a01b03168152602081019190915260400160009081209061173b61014086016101208701615302565b6001600160a01b0316815260208101919091526040016000205490613b72565b600e600061176c6020850185615302565b6001600160a01b03168152602081019190915260400160009081209061179a61014085016101208601615302565b6001600160a01b031681526020810191909152604001600020555060018055565b60006117c5613581565b60065460ff6101009091048116908416108015906117e7575060ff8360ff1611155b6118185760405162461bcd60e51b8152602060048201526002602482015261303160f01b6044820152606401610974565b61182360018461586f565b60ff168460ff16101561185d5760405162461bcd60e51b8152602060048201526002602482015261181960f11b6044820152606401610974565b84518651146118935760405162461bcd60e51b8152602060048201526002602482015261303560f01b6044820152606401610974565b61189c87613508565b60005b8651811015611ac6578581815181106118ba576118ba615764565b6020026020010151611a2f57600060ff16600a60008984815181106118e1576118e1615764565b6020908102919091018101516001600160a01b031682528101919091526040016000205460ff16141561195e57600b87828151811061192257611922615764565b60209081029190910181015182546001810184556000938452919092200180546001600160a01b0319166001600160a01b039092169190911790555b600160ff16600a600089848151811061197957611979615764565b6020908102919091018101516001600160a01b031682528101919091526040016000205460ff16146119d257600c805460ff169060006119b883615894565b91906101000a81548160ff021916908360ff160217905550505b6001600a60008984815181106119ea576119ea615764565b60200260200101516001600160a01b03166001600160a01b0316815260200190815260200160002060006101000a81548160ff021916908360ff160217905550611ab4565b600c805460ff16906000611a42836158b4565b91906101000a81548160ff021916908360ff160217905550506002600a6000898481518110611a7357611a73615764565b60200260200101516001600160a01b03166001600160a01b0316815260200190815260200160002060006101000a81548160ff021916908360ff1602179055505b80611abe81615823565b91505061189f565b50600c54606460ff9091161115611b295760405162461bcd60e51b815260206004820152602160248201527f53746f726564206e6f64652073697a652073686f756c64206265203c3d2031306044820152600360fc1b6064820152608401610974565b506006805460ff8481166101000261ffff1990921690861617179055600d81905560019695505050505050565b600c54606090600090819060ff166001600160401b03811115611b7b57611b7b614cba565b604051908082528060200260200182016040528015611ba4578160200160208202803683370190505b50905060005b600b54811015611c7957600160ff16600a6000600b8481548110611bd057611bd0615764565b60009182526020808320909101546001600160a01b0316835282019290925260400190205460ff161415611c6757600b8181548110611c1157611c11615764565b9060005260206000200160009054906101000a90046001600160a01b0316828481518110611c4157611c41615764565b6001600160a01b039092166020928302919091019091015282611c6381615823565b9350505b80611c7181615823565b915050611baa565b5092915050565b611c88613581565b611c9260006142bf565b565b60026001541415611cb75760405162461bcd60e51b81526004016109749061572d565b60026001556001600160a01b037f0000000000000000000000000000000000000000000000000000000000000000166000908152600e60209081526040808320338452909152902054811115611d0c57600080fd5b604051632e1a7d4d60e01b8152600481018290527f00000000000000000000000000000000000000000000000000000000000000006001600160a01b031690632e1a7d4d90602401600060405180830381600087803b158015611d6e57600080fd5b505af1158015611d82573d6000803e3d6000fd5b5050506001600160a01b037f0000000000000000000000000000000000000000000000000000000000000000166000908152600e60209081526040808320338452909152902054611dd4915082613b72565b7f00000000000000000000000000000000000000000000000000000000000000006001600160a01b03166000908152600e60209081526040808320338085529252808320939093559151829084908381818185875af1925050503d8060008114611e5a576040519150601f19603f3d011682016040523d82523d6000602084013e611e5f565b606091505b5050905080611eb05760405162461bcd60e51b815260206004820152601e60248201527f72656365697665722072656a656374656420455448207472616e7366657200006044820152606401610974565b6001600160a01b037f0000000000000000000000000000000000000000000000000000000000000000166000908152600e60209081526040808320338085529252918290205491517febff2602b3f468259e1e99f613fed6691f3a6526effe6ef3e768ba7ae7a36c4f92611f3f9273eeeeeeeeeeeeeeeeeeeeeeeeeeeeeeeeeeeeeeee9290918891429061583e565b60405180910390a150506001805550565b6001600160a01b0381166000908152600a602052604081205460ff1660011415611f7c57506001919050565b506000919050565b6000611f8e613581565b6001600160a01b03861660009081526005602052604090205460ff16611ff65760405162461bcd60e51b815260206004820152601d60248201527f5f64657374546f6b656e206973206e6f742077686974656c69737465640000006044820152606401610974565b6001600160a01b0386166120585760405162461bcd60e51b815260206004820152602360248201527f5f64657374546f6b656e2073686f756c64206e6f74206265206164647265737360448201526228302960e81b6064820152608401610974565b600084156120915761208c60007f000000000000000000000000000000000000000000000000000000000000000087613598565b6120b9565b846120b957507f00000000000000000000000000000000000000000000000000000000000000005b7f00000000000000000000000000000000000000000000000000000000000000006001600160a01b0316876001600160a01b0316141561211657507f00000000000000000000000000000000000000000000000000000000000000005b612120818561366e565b61212983613a18565b60005b8651811015610b42576121818888838151811061214b5761214b615764565b602002602001015160001c89848151811061216857612168615764565b602002602001015160a01c6001600160601b0316613a80565b8061218b81615823565b91505061212c565b600061219d613581565b836121a757600080fd5b826121b157600080fd5b6121dd60007f000000000000000000000000000000000000000000000000000000000000000086613598565b6001600160a01b037f000000000000000000000000000000000000000000000000000000000000000081166000908152600e602090815260408083209389168352929052205461222d9085613d64565b6001600160a01b037f000000000000000000000000000000000000000000000000000000000000000081166000908152600e60209081526040808320938a16835292905290812091909155612282908461366e565b61228b82613a18565b506001949350505050565b6000600260015414156122bb5760405162461bcd60e51b81526004016109749061572d565b60026001556001600160a01b037f0000000000000000000000000000000000000000000000000000000000000000166122f76020840184615302565b6001600160a01b0316141561234e5760405162461bcd60e51b815260206004820152601c60248201527f4d757374206e6f7420737761702066726f6d2042544320746f6b656e000000006044820152606401610974565b6001600160a01b037f0000000000000000000000000000000000000000000000000000000000000000166123886040840160208501615302565b6001600160a01b0316146123d75760405162461bcd60e51b815260206004820152601660248201527526bab9ba1039bbb0b8103a3790212a21903a37b5b2b760511b6044820152606401610974565b306123ea61014084016101208501615302565b6001600160a01b0316146124405760405162461bcd60e51b815260206004820152601c60248201527f62656e656669636961727920213d207377617020636f6e7472616374000000006044820152606401610974565b6040820135600e60006124566020860186615302565b6001600160a01b0316815260208082019290925260409081016000908120338252909252902054101561249b5760405162461bcd60e51b8152600401610974906157a7565b60006124ad6040840160208501615302565b6040516370a0823160e01b81523060048201526001600160a01b0391909116906370a082319060240160206040518083038186803b1580156124ee57600080fd5b505afa158015612502573d6000803e3d6000fd5b505050506040513d601f19601f8201168201806040525081019061252691906157d5565b905061256e6040840135600e60006125416020880188615302565b6001600160a01b031681526020808201929092526040908101600090812033825290925290205490613b72565b600e600061257f6020870187615302565b6001600160a01b03168152602080820192909252604090810160009081203382529092529020556125af836141ad565b6125f1816125c36040860160208701615302565b6040516370a0823160e01b81523060048201526001600160a01b0391909116906370a0823190602401610e1d565b915082608001358210156126475760405162461bcd60e51b815260206004820152601c60248201527f526563656976656420616d6f756e7420696e73756666696369656e74000000006044820152606401610974565b7f00000000000000000000000000000000000000000000000000000000000000006001600160a01b0316631411c5b76040518163ffffffff1660e01b815260040160206040518083038186803b1580156126a057600080fd5b505afa1580156126b4573d6000803e3d6000fd5b505050506040513d601f19601f820116820180604052508101906126d891906157d5565b8210156126f75760405162461bcd60e51b8152600401610974906158d1565b61270285858461430f565b50600180559392505050565b60006127b07f00000000000000000000000000000000000000000000000000000000000000006001600160a01b031663e91675b86040518163ffffffff1660e01b815260040160206040518083038186803b15801561276c57600080fd5b505afa158015612780573d6000803e3d6000fd5b505050506040513d601f19601f820116820180604052508101906127a4919061591a565b6004549060ff16613d64565b905060035481106127c057506003545b60045442905b828110156128e3578161287b7f00000000000000000000000000000000000000000000000000000000000000006001600160a01b031663da284dcc6040518163ffffffff1660e01b815260040160206040518083038186803b15801561282b57600080fd5b505afa15801561283f573d6000803e3d6000fd5b505050506040513d601f19601f8201168201806040525081019061286391906157d5565b60008481526002602052604090206004015490613d64565b10156128d1576000818152600260205260408120818155906128a06001830182614bac565b506002810180546001600160a01b03191690556000600382018190556004909101556128cd816001613d64565b6004555b806128db81615823565b9150506127c6565b505050565b60006128f2613581565b836128fc57600080fd5b8261290657600080fd5b61293260007f000000000000000000000000000000000000000000000000000000000000000086613598565b61293d60008461366e565b61294682613a18565b60005b8551811015612a9357612a0e86828151811061296757612967615764565b602002602001015160a01c6001600160601b0316600e60007f00000000000000000000000000000000000000000000000000000000000000006001600160a01b03166001600160a01b0316815260200190815260200160002060008985815181106129d4576129d4615764565b602002602001015160001c6001600160a01b03166001600160a01b0316815260200190815260200160002054613d6490919063ffffffff16565b6001600160a01b037f0000000000000000000000000000000000000000000000000000000000000000166000908152600e602052604081208851909190899085908110612a5d57612a5d615764565b6020908102919091018101516001600160a01b031682528101919091526040016000205580612a8b81615823565b915050612949565b50600195945050505050565b6000612aa9613581565b60008281526009602052604090205460ff1615612b085760405162461bcd60e51b815260206004820152601860248201527f546865207478696420697320616c7265616479207573656400000000000000006044820152606401610974565b604080518082019091526002815261189960f11b6020808301919091526000805260089052600080516020615e0f83398151915254612b4891859061449b565b600080526008602052600080516020615e0f83398151915255612b6a826144c7565b50600192915050565b60026001541415612b965760405162461bcd60e51b81526004016109749061572d565b600260015534612d6c576001600160a01b03821673eeeeeeeeeeeeeeeeeeeeeeeeeeeeeeeeeeeeeeee1415612bca57600080fd5b7f00000000000000000000000000000000000000000000000000000000000000006001600160a01b0316826001600160a01b03161415612c0957600080fd5b6040516370a0823160e01b81523060048201526000906001600160a01b038416906370a082319060240160206040518083038186803b158015612c4b57600080fd5b505afa158015612c5f573d6000803e3d6000fd5b505050506040513d601f19601f82011682018060405250810190612c8391906157d5565b9050612c9a6001600160a01b0384163330856144e2565b6040516370a0823160e01b8152306004820152600090612ccf9083906001600160a01b038716906370a0823190602401610e1d565b6001600160a01b0385166000908152600e60209081526040808320338452909152902054909150612d009082613d64565b6001600160a01b0385166000908152600e602090815260408083203380855292529182902083905590517f4e2ca0515ed1aef1395f66b5303bb5d6f1bf9d61a353fa53f73f8ac9973fa9f692612d5d92889290918691429061583e565b60405180910390a15050612ecd565b60003411612d7957600080fd5b7f00000000000000000000000000000000000000000000000000000000000000006001600160a01b031663d0e30db0346040518263ffffffff1660e01b81526004016000604051808303818588803b158015612dd457600080fd5b505af1158015612de8573d6000803e3d6000fd5b5050506001600160a01b037f0000000000000000000000000000000000000000000000000000000000000000166000908152600e60209081526040808320338452909152902054612e3c9250905034613d64565b7f00000000000000000000000000000000000000000000000000000000000000006001600160a01b03166000908152600e602090815260408083203380855292529182902083905590517f4e2ca0515ed1aef1395f66b5303bb5d6f1bf9d61a353fa53f73f8ac9973fa9f6926115419273eeeeeeeeeeeeeeeeeeeeeeeeeeeeeeeeeeeeeeee9290913491429061583e565b505060018055565b6000612edf613581565b6000612ee96112b6565b6001600160a01b03861660009081526005602052604090205490915060ff16612f395760405162461bcd60e51b8152602060048201526002602482015261189b60f11b6044820152606401610974565b612f44858585614553565b612f4d57600080fd5b6001915080612f5a6112b6565b1015612f9c5760405162461bcd60e51b8152602060048201526011602482015270496e76616c6964204c505420707269636560781b6044820152606401610974565b509392505050565b600060026001541415612fc95760405162461bcd60e51b81526004016109749061572d565b6002600155600083838281612fe057612fe0615764565b9050602002016020810190612ff59190615302565b905060008484613006600182615790565b81811061301557613015615764565b905060200201602081019061302a9190615302565b6001600160a01b0383166000908152600e602090815260408083203384529091529020549091508711156130705760405162461bcd60e51b8152600401610974906157a7565b6001600160a01b03821673eeeeeeeeeeeeeeeeeeeeeeeeeeeeeeeeeeeeeeee14156130d55760405162461bcd60e51b815260206004820152601560248201527455736520706174682077455448202d3e207742544360581b6044820152606401610974565b7f00000000000000000000000000000000000000000000000000000000000000006001600160a01b0316816001600160a01b0316146131455760405162461bcd60e51b815260206004820152600c60248201526b1cddd85c080f4f88109510d560a21b6044820152606401610974565b6040516370a0823160e01b81523060048201526000906001600160a01b038316906370a082319060240160206040518083038186803b15801561318757600080fd5b505afa15801561319b573d6000803e3d6000fd5b505050506040513d601f19601f820116820180604052508101906131bf91906157d5565b6001600160a01b0384166000908152600e602090815260408083203384529091529020549091506131f09089613b72565b6001600160a01b0384166000908152600e602090815260408083203384529091529020558a1561322d576132288a8a8a8a8a8a613b85565b613239565b61323988888888613cb0565b6040516370a0823160e01b815230600482015261326b9082906001600160a01b038516906370a0823190602401610e1d565b9350868410156132b25760405162461bcd60e51b81526020600482015260126024820152715265636569766564203c206d696e696d756d60701b6044820152606401610974565b7f00000000000000000000000000000000000000000000000000000000000000006001600160a01b0316631411c5b76040518163ffffffff1660e01b815260040160206040518083038186803b15801561330b57600080fd5b505afa15801561331f573d6000803e3d6000fd5b505050506040513d601f19601f8201168201806040525081019061334391906157d5565b8410156133625760405162461bcd60e51b8152600401610974906158d1565b61336d8d8d8661430f565b505050600180559998505050505050505050565b600061338b613581565b7f000000000000000000000000000000000000000000000000000000000000000087156134a45760006133c288610e6d8b8a613b72565b6040516349e031a560e01b81529091506001600160a01b037f000000000000000000000000000000000000000000000000000000000000000016906349e031a590613416906000908a908a90600401615937565b602060405180830381600087803b15801561343057600080fd5b505af1158015613444573d6000803e3d6000fd5b505050506040513d601f19601f820116820180604052508101906134689190615710565b5061349e7f00000000000000000000000000000000000000000000000000000000000000006000613499848c613d64565b613598565b506134ad565b876134ad575060005b6134b7818761366e565b8215610b4257610b42600080526008602052600080516020615e0f83398151915254600755565b6001600160a01b039182166000908152600860205260408082205492909316815291909120549091565b613510613581565b6001600160a01b0381166135755760405162461bcd60e51b815260206004820152602660248201527f4f776e61626c653a206e6577206f776e657220697320746865207a65726f206160448201526564647265737360d01b6064820152608401610974565b61357e816142bf565b50565b6000546001600160a01b03163314611c9257600080fd5b6040805180820182526002815261313160f01b6020808301919091526001600160a01b0385166000908152600890915291909120546135d891839061449b565b6001600160a01b0380841660009081526008602052604080822093909355908516815220546136079082613d64565b6001600160a01b038481166000818152600860209081526040918290209490945580519182529185169281019290925281018290527fea368a40e9570069bb8e6511d668293ad2e1f03b0d982431fd223de9f3b70ca69060600160405180910390a1505050565b80613677575050565b7f00000000000000000000000000000000000000000000000000000000000000006001600160a01b0316826001600160a01b031614156137c85760405163a9059cbb60e01b81526001600160a01b037f000000000000000000000000000000000000000000000000000000000000000081166004830152602482018390527f0000000000000000000000000000000000000000000000000000000000000000169063a9059cbb90604401602060405180830381600087803b15801561373b57600080fd5b505af115801561374f573d6000803e3d6000fd5b505050506040513d601f19601f820116820180604052508101906137739190615710565b50604080516001600160a01b0384168152600060208201819052818301849052606082015290517fe3debe835f6848edc082b32a1d729781d3bfcd7e14422d80bcaa6794d3816b2f9181900360800190a15050565b60006137d26112b6565b6001600160a01b0384166000908152600860205260409020549091506137f89083613d64565b60086000856001600160a01b03166001600160a01b031681526020019081526020016000208190555060006138c660646113bd7f00000000000000000000000000000000000000000000000000000000000000006001600160a01b0316630b68134d6040518163ffffffff1660e01b815260040160206040518083038186803b15801561388457600080fd5b505afa158015613898573d6000803e3d6000fd5b505050506040513d601f19601f820116820180604052508101906138bc919061591a565b869060ff16614195565b905060006138f8836113bd847f0000000000000000000000000000000000000000000000000000000000000000614195565b6040516340c10f1960e01b81526001600160a01b037f000000000000000000000000000000000000000000000000000000000000000081166004830152602482018390529192507f0000000000000000000000000000000000000000000000000000000000000000909116906340c10f1990604401602060405180830381600087803b15801561398757600080fd5b505af115801561399b573d6000803e3d6000fd5b505050506040513d601f19601f820116820180604052508101906139bf9190615710565b50604080516001600160a01b038716815260208101869052908101829052606081018490527fe3debe835f6848edc082b32a1d729781d3bfcd7e14422d80bcaa6794d3816b2f9060800160405180910390a15050505050565b60005b8151811015613a7c57600160096000848481518110613a3c57613a3c615764565b6020026020010151815260200190815260200160002060006101000a81548160ff0219169083151502179055508080613a7490615823565b915050613a1b565b5050565b7f00000000000000000000000000000000000000000000000000000000000000006001600160a01b0316836001600160a01b03161415613ae757613ae4817f0000000000000000000000000000000000000000000000000000000000000000614195565b90505b60405163a9059cbb60e01b81526001600160a01b0383811660048301526024820183905284169063a9059cbb90604401602060405180830381600087803b158015613b3157600080fd5b505af1158015613b45573d6000803e3d6000fd5b505050506040513d601f19601f82011682018060405250810190613b699190615710565b6128e357600080fd5b6000613b7e8284615790565b9392505050565b600f5460408051631a5896b360e31b81529051613c3c926001600160a01b03169163d2c4b598916004808301926020929190829003018186803b158015613bcb57600080fd5b505afa158015613bdf573d6000803e3d6000fd5b505050506040513d601f19601f82011682018060405250810190613c03919061598f565b8584846000818110613c1757613c17615764565b9050602002016020810190613c2c9190615302565b6001600160a01b031691906147c9565b600f54604051633d59840d60e21b81526001600160a01b039091169063f566103490613c76908990899089908990899089906004016159ea565b600060405180830381600087803b158015613c9057600080fd5b505af1158015613ca4573d6000803e3d6000fd5b50505050505050505050565b600f5460408051631a5896b360e31b81529051613cf6926001600160a01b03169163d2c4b598916004808301926020929190829003018186803b158015613bcb57600080fd5b600f54604051632a42068d60e11b81526001600160a01b03909116906354840d1a90613d2c908790879087908790600401615a2a565b600060405180830381600087803b158015613d4657600080fd5b505af1158015613d5a573d6000803e3d6000fd5b5050505050505050565b6000613b7e8284615a54565b60008181526009602052604081205460ff1615613db45760405162461bcd60e51b8152602060048201526002602482015261181b60f11b6044820152606401610974565b83613de65760405162461bcd60e51b8152602060048201526002602482015261303760f01b6044820152606401610974565b8360a081901c6000613df66112b6565b90506000613e287f00000000000000000000000000000000000000000000000000000000000000006113bd8585614195565b90506000613ed06127106113bd7f00000000000000000000000000000000000000000000000000000000000000006001600160a01b031663b6268e5d6040518163ffffffff1660e01b815260040160206040518083038186803b158015613e8e57600080fd5b505afa158015613ea2573d6000803e3d6000fd5b505050506040513d601f19601f82011682018060405250810190613ec6919061591a565b859060ff16614195565b905087613edd8383613b72565b1015613f105760405162461bcd60e51b8152602060048201526002602482015261303960f01b6044820152606401610974565b6000613f2089610e6d8585613b72565b9050600080613f5060007f00000000000000000000000000000000000000000000000000000000000000006134de565b90925090506001600160a01b038d16613fa657613f6d8585613b72565b821015613fa15760405162461bcd60e51b8152602060048201526002602482015261060760f31b6044820152606401610974565b61401e565b7f00000000000000000000000000000000000000000000000000000000000000006001600160a01b03168d6001600160a01b0316141561401e57613fea8585613b72565b81101561401e5760405162461bcd60e51b8152602060048201526002602482015261189960f11b6044820152606401610974565b6140288d8561366e565b6140328d8661488a565b61403b8a6144c7565b7f00000000000000000000000000000000000000000000000000000000000000006001600160a01b03168d6001600160a01b03161415614080576140808d8985613a80565b604051630852cd8d60e31b8152600481018890527f00000000000000000000000000000000000000000000000000000000000000006001600160a01b0316906342966c6890602401602060405180830381600087803b1580156140e257600080fd5b505af11580156140f6573d6000803e3d6000fd5b505050506040513d601f19601f8201168201806040525081019061411a9190615710565b61412357600080fd5b604080516001600160a01b038a16815260208101899052908101869052606081018790526080810184905260a081018b90527fa9da34e5e4a956b744307ae7611795634e8365951073bf049d76b64b2ae7a0589060c00160405180910390a15060019c9b505050505050505050505050565b6000613b7e8284615a6c565b6000613b7e8284615a8b565b600f5460408051631a5896b360e31b8152905161423d926001600160a01b03169163d2c4b598916004808301926020929190829003018186803b1580156141f357600080fd5b505afa158015614207573d6000803e3d6000fd5b505050506040513d601f19601f8201168201806040525081019061422b919061598f565b6040830135613c2c6020850185615302565b600f546040516354e3f31b60e01b81526001600160a01b03909116906354e3f31b9061426d908490600401615bb1565b602060405180830381600087803b15801561428757600080fd5b505af115801561429b573d6000803e3d6000fd5b505050506040513d601f19601f82011682018060405250810190613a7c91906157d5565b600080546001600160a01b038381166001600160a01b0319831681178455604051919092169283917f8be0079c531659141344cd1fd0a4f28419497f9722a3daafe3b4186f6b6457e09190a35050565b60007f00000000000000000000000000000000000000000000000000000000000000006003548585854260405160200161434e96959493929190615d67565b6040516020818303038152906040528051906020012090506040518060a0016040528082815260200185858080601f0160208091040260200160405190810160405280939291908181526020018383808284376000920182905250938552505033602080850191909152604080850188905242606090950194909452600354835260028152929091208351815583830151805191936143f593506001850192910190614be6565b5060408201516002820180546001600160a01b0319166001600160a01b039092169190911790556060820151600382015560809091015160049091015561443a61270e565b600354614448906001613d64565b600355614454826148ea565b7faaa4c278970337923c885845b00985ecf5082317e2f9abf72a27b4d35255d67281858533864260405161448d96959493929190615d9e565b60405180910390a150505050565b600081848411156144bf5760405162461bcd60e51b81526004016109749190615ddf565b505050900390565b6000908152600960205260409020805460ff19166001179055565b6040516001600160a01b038085166024830152831660448201526064810182905261454d9085906323b872dd60e01b906084015b60408051601f198184030181529190526020810180516001600160e01b03166001600160e01b03199093169290921790915261493f565b50505050565b60008181526009602052604081205460ff16156145975760405162461bcd60e51b8152602060048201526002602482015261181b60f11b6044820152606401610974565b826145c95760405162461bcd60e51b8152602060048201526002602482015261303760f01b6044820152606401610974565b8260a081901c60006145d96112b6565b9050600061460b826113bd857f0000000000000000000000000000000000000000000000000000000000000000614195565b6040516340c10f1960e01b81526001600160a01b038681166004830152602482018390529192507f0000000000000000000000000000000000000000000000000000000000000000909116906340c10f1990604401602060405180830381600087803b15801561467a57600080fd5b505af115801561468e573d6000803e3d6000fd5b505050506040513d601f19601f820116820180604052508101906146b29190615710565b506146bd8884614a11565b6146c6866144c7565b7fdfaf4e23f7030adafec91a682e05bf9fb30c721f9cec3d8bcfae0459c5362db1848483857f00000000000000000000000000000000000000000000000000000000000000006001600160a01b031663424192556040518163ffffffff1660e01b815260040160206040518083038186803b15801561474457600080fd5b505afa158015614758573d6000803e3d6000fd5b505050506040513d601f19601f8201168201806040525081019061477c919061591a565b604080516001600160a01b039096168652602086019490945292840191909152606083015260ff16608082015260a0810188905260c00160405180910390a1506001979650505050505050565b604051636eb1769f60e11b81523060048201526001600160a01b038381166024830152600091839186169063dd62ed3e9060440160206040518083038186803b15801561481557600080fd5b505afa158015614829573d6000803e3d6000fd5b505050506040513d601f19601f8201168201806040525081019061484d91906157d5565b6148579190615a54565b6040516001600160a01b03851660248201526044810182905290915061454d90859063095ea7b360e01b90606401614516565b6040805180820182526002815261031360f41b6020808301919091526001600160a01b0385166000908152600890915291909120546148ca91839061449b565b6001600160a01b0390921660009081526008602052604090209190915550565b60075461491257614912600080526008602052600080516020615e0f83398151915254600755565b604080518082019091526002815261189960f11b602082015260075461493991839061449b565b60075550565b6000614994826040518060400160405280602081526020017f5361666545524332303a206c6f772d6c6576656c2063616c6c206661696c6564815250856001600160a01b0316614a349092919063ffffffff16565b8051909150156128e357808060200190518101906149b29190615710565b6128e35760405162461bcd60e51b815260206004820152602a60248201527f5361666545524332303a204552433230206f7065726174696f6e20646964206e6044820152691bdd081cdd58d8d9595960b21b6064820152608401610974565b6001600160a01b0382166000908152600860205260409020546148ca9082613d64565b6060614a438484600085614a4b565b949350505050565b606082471015614aac5760405162461bcd60e51b815260206004820152602660248201527f416464726573733a20696e73756666696369656e742062616c616e636520666f6044820152651c8818d85b1b60d21b6064820152608401610974565b843b614afa5760405162461bcd60e51b815260206004820152601d60248201527f416464726573733a2063616c6c20746f206e6f6e2d636f6e74726163740000006044820152606401610974565b600080866001600160a01b03168587604051614b169190615df2565b60006040518083038185875af1925050503d8060008114614b53576040519150601f19603f3d011682016040523d82523d6000602084013e614b58565b606091505b5091509150614b68828286614b73565b979650505050505050565b60608315614b82575081613b7e565b825115614b925782518084602001fd5b8160405162461bcd60e51b81526004016109749190615ddf565b508054614bb8906157ee565b6000825580601f10614bc8575050565b601f01602090049060005260206000209081019061357e9190614c6a565b828054614bf2906157ee565b90600052602060002090601f016020900481019282614c145760008555614c5a565b82601f10614c2d57805160ff1916838001178555614c5a565b82800160010185558215614c5a579182015b82811115614c5a578251825591602001919060010190614c3f565b50614c66929150614c6a565b5090565b5b80821115614c665760008155600101614c6b565b634e487b7160e01b600052600160045260246000fd5b6001600160a01b038116811461357e57600080fd5b8035614cb581614c95565b919050565b634e487b7160e01b600052604160045260246000fd5b604051601f8201601f191681016001600160401b0381118282101715614cf857614cf8614cba565b604052919050565b60006001600160401b03821115614d1957614d19614cba565b5060051b60200190565b600082601f830112614d3457600080fd5b81356020614d49614d4483614d00565b614cd0565b82815260059290921b84018101918181019086841115614d6857600080fd5b8286015b84811015614d835780358352918301918301614d6c565b509695505050505050565b60008060008060008060c08789031215614da757600080fd5b8635614db281614c95565b95506020870135614dc281614c95565b945060408701359350606087013592506080870135915060a08701356001600160401b03811115614df257600080fd5b614dfe89828a01614d23565b9150509295509295509295565b801515811461357e57600080fd5b8035614cb581614e0b565b60008083601f840112614e3657600080fd5b5081356001600160401b03811115614e4d57600080fd5b6020830191508360208260051b8501011115614e6857600080fd5b9250929050565b600080600080600080600060c0888a031215614e8a57600080fd5b8735614e9581614e0b565b96506020880135614ea581614c95565b955060408801359450606088013593506080880135925060a08801356001600160401b03811115614ed557600080fd5b614ee18a828b01614e24565b989b979a50959850939692959293505050565b600060208284031215614f0657600080fd5b5035919050565b60005b83811015614f28578181015183820152602001614f10565b8381111561454d5750506000910152565b60008151808452614f51816020860160208601614f0d565b601f01601f19169290920160200192915050565b85815260a060208201526000614f7e60a0830187614f39565b6001600160a01b0395909516604083015250606081019290925260809091015292915050565b60006020808301818452808551808352604092508286019150828160051b87010184880160005b8381101561503457603f19898403018552815160a08151855288820151818a870152614ff982870182614f39565b838a01516001600160a01b0316878b015260608085015190880152608093840151939096019290925250509386019390860190600101614fcb565b509098975050505050505050565b6000806000806080858703121561505857600080fd5b843561506381614c95565b966020860135965060408601359560600135945092505050565b6000806040838503121561509057600080fd5b823561509b81614c95565b946020939093013593505050565b600080604083850312156150bc57600080fd5b82356150c781614c95565b915060208301356150d781614c95565b809150509250929050565b60006101e082840312156150f557600080fd5b50919050565b60006020828403121561510d57600080fd5b81356001600160401b0381111561512357600080fd5b614a43848285016150e2565b600082601f83011261514057600080fd5b81356020615150614d4483614d00565b82815260059290921b8401810191818101908684111561516f57600080fd5b8286015b84811015614d8357803561518681614c95565b8352918301918301615173565b60ff8116811461357e57600080fd5b8035614cb581615193565b60008060008060008060c087890312156151c657600080fd5b86356151d181614c95565b95506020878101356001600160401b03808211156151ee57600080fd5b6151fa8b838c0161512f565b975060408a013591508082111561521057600080fd5b508801601f81018a1361522257600080fd5b8035615230614d4482614d00565b81815260059190911b8201830190838101908c83111561524f57600080fd5b928401925b8284101561527657833561526781614e0b565b82529284019290840190615254565b809850505050505061528a606088016151a2565b9250615298608088016151a2565b915060a087013590509295509295509295565b600081518084526020808501945080840160005b838110156152e45781516001600160a01b0316875295820195908201906001016152bf565b509495945050505050565b602081526000613b7e60208301846152ab565b60006020828403121561531457600080fd5b8135613b7e81614c95565b600080600080600060a0868803121561533757600080fd5b853561534281614c95565b945060208601356001600160401b038082111561535e57600080fd5b61536a89838a01614d23565b95506040880135945060608801359350608088013591508082111561538e57600080fd5b5061539b88828901614d23565b9150509295509295909350565b600080600080608085870312156153be57600080fd5b84356153c981614c95565b9350602085013592506040850135915060608501356001600160401b038111156153f257600080fd5b6153fe87828801614d23565b91505092959194509250565b60008083601f84011261541c57600080fd5b5081356001600160401b0381111561543357600080fd5b602083019150836020828501011115614e6857600080fd5b60008060006040848603121561546057600080fd5b83356001600160401b038082111561547757600080fd5b6154838783880161540a565b9095509350602086013591508082111561549c57600080fd5b506154a9868287016150e2565b9150509250925092565b600080600080608085870312156154c957600080fd5b84356001600160401b03808211156154e057600080fd5b6154ec88838901614d23565b95506020870135945060408701359350606087013591508082111561551057600080fd5b506153fe87828801614d23565b6000806040838503121561553057600080fd5b50508035926020909101359150565b60008060006060848603121561555457600080fd5b833561555f81614c95565b95602085013595506040909401359392505050565b600080600080600080600080600060e08a8c03121561559257600080fd5b89356001600160401b03808211156155a957600080fd5b6155b58d838e0161540a565b909b50995060208c013591506155ca82614e0b565b90975060408b0135906155dc82614c95565b90965060608b0135955060808b0135945060a08b0135935060c08b0135908082111561560757600080fd5b506156148c828d01614e24565b915080935050809150509295985092959850929598565b60008060008060008060c0878903121561564457600080fd5b8635955060208088013595506040880135945060608801356001600160401b038082111561567157600080fd5b61567d8b838c0161512f565b955060808a013591508082111561569357600080fd5b508801601f81018a136156a557600080fd5b80356156b3614d4482614d00565b81815260059190911b8201830190838101908c8311156156d257600080fd5b928401925b828410156156f0578335825292840192908401906156d7565b809650505050505061570460a08801614e19565b90509295509295509295565b60006020828403121561572257600080fd5b8151613b7e81614e0b565b6020808252601f908201527f5265656e7472616e637947756172643a207265656e7472616e742063616c6c00604082015260600190565b634e487b7160e01b600052603260045260246000fd5b634e487b7160e01b600052601160045260246000fd5b6000828210156157a2576157a261577a565b500390565b60208082526014908201527310985b185b98d9481a5b9cdd59999a58da595b9d60621b604082015260600190565b6000602082840312156157e757600080fd5b5051919050565b600181811c9082168061580257607f821691505b602082108114156150f557634e487b7160e01b600052602260045260246000fd5b60006000198214156158375761583761577a565b5060010190565b6001600160a01b03958616815293909416602084015260408301919091526060820152608081019190915260a00190565b600060ff821660ff84168060ff0382111561588c5761588c61577a565b019392505050565b600060ff821660ff8114156158ab576158ab61577a565b60010192915050565b600060ff8216806158c7576158c761577a565b6000190192915050565b60208082526029908201527f7265636569766564416d6f756e74203c206d696e696d756d53776170416d6f756040820152686e74466f725742544360b81b606082015260800190565b60006020828403121561592c57600080fd5b8151613b7e81615193565b6001600160a01b03841681526060602080830182905260009161595c908401866152ab565b838103604085015284518082528286019183019060005b8181101561503457835183529284019291840191600101615973565b6000602082840312156159a157600080fd5b8151613b7e81614c95565b8183526000602080850194508260005b858110156152e45781356159cf81614c95565b6001600160a01b0316875295820195908201906001016159bc565b60018060a01b038716815285602082015284604082015283606082015260a060808201526000615a1e60a0830184866159ac565b98975050505050505050565b848152836020820152606060408201526000615a4a6060830184866159ac565b9695505050505050565b60008219821115615a6757615a6761577a565b500190565b6000816000190483118215151615615a8657615a8661577a565b500290565b600082615aa857634e487b7160e01b600052601260045260246000fd5b500490565b6000808335601e19843603018112615ac457600080fd5b83016020810192503590506001600160401b03811115615ae357600080fd5b8060051b3603831315614e6857600080fd5b6000808335601e19843603018112615b0c57600080fd5b83016020810192503590506001600160401b03811115615b2b57600080fd5b803603831315614e6857600080fd5b81835281816020850137506000828201602090810191909152601f909101601f19169091010190565b81835260006001600160fb1b03831115615b7c57600080fd5b8260051b8083602087013760009401602001938452509192915050565b80356001600160801b031981168114614cb557600080fd5b60208152615bd260208201615bc584614caa565b6001600160a01b03169052565b6000615be060208401614caa565b6001600160a01b0381166040840152506040830135606083015260608301356080830152608083013560a0830152615c1b60a0840184615aad565b6101e08060c0860152615c33610200860183856159ac565b9250615c4260c0870187615af5565b9250601f19808786030160e0880152615c5c858584615b3a565b9450615c6b60e0890189615aad565b94509150610100818887030181890152615c86868685615b63565b9550615c94818a018a615aad565b9550925050610120818887030181890152615cb0868685615b63565b9550615cbd818a01614caa565b9450506101409150615cd9828801856001600160a01b03169052565b615ce4828901614caa565b93506101609150615cff828801856001600160a01b03169052565b61018093508188013584880152615d1884890189615af5565b945091506101a0818887030181890152615d33868685615b3a565b95506101c094508089013585890152505050615d50828701615b99565b6001600160801b0319169401939093529392505050565b6001600160601b03198760601b16815285601482015283856034830137603493019283019190915260548201526074019392505050565b86815260a060208201526000615db860a083018789615b3a565b6001600160a01b039590951660408301525060608101929092526080909101529392505050565b602081526000613b7e6020830184614f39565b60008251615e04818460208701614f0d565b919091019291505056fe5eff886ea0ce6ca488a3d6e336d6c0f75f46d19b42c06ce5ee98e42c96d256c7a26469706673582212206e7e40ac6dfc712f43eddda9d8d72e614b9cc29a9f05dcc4b1cfe2ba4e8c333264736f6c63430008090033",
  "linkReferences": {},
  "deployedLinkReferences": {}
}