{
  "_format": "hh-sol-artifact-1",
  "contractName": "SwapContract",
  "sourceName": "contracts/SwapContract.sol",
  "abi": [
    {
      "inputs": [
        {
          "internalType": "address",
          "name": "_lpToken",
          "type": "address"
        },
        {
          "internalType": "address",
          "name": "_btct",
          "type": "address"
        },
        {
          "internalType": "address",
          "name": "_wETH",
          "type": "address"
        },
        {
          "internalType": "address",
          "name": "_sbBTCPool",
          "type": "address"
        },
        {
          "internalType": "address",
          "name": "_swapRewards",
          "type": "address"
        },
        {
          "internalType": "uint256",
          "name": "_existingBTCFloat",
          "type": "uint256"
        }
      ],
      "stateMutability": "nonpayable",
      "type": "constructor"
    },
    {
      "anonymous": false,
      "inputs": [
        {
          "indexed": false,
          "internalType": "address",
          "name": "token",
          "type": "address"
        },
        {
          "indexed": false,
          "internalType": "uint256",
          "name": "amountOfLP",
          "type": "uint256"
        },
        {
          "indexed": false,
          "internalType": "uint256",
          "name": "amountOfFloat",
          "type": "uint256"
        },
        {
          "indexed": false,
          "internalType": "uint256",
          "name": "currentPriceLP",
          "type": "uint256"
        },
        {
          "indexed": false,
          "internalType": "uint256",
          "name": "withdrawal",
          "type": "uint256"
        },
        {
          "indexed": false,
          "internalType": "bytes32",
          "name": "txid",
          "type": "bytes32"
        }
      ],
      "name": "BurnLPTokensForFloat",
      "type": "event"
    },
    {
      "anonymous": false,
      "inputs": [
        {
          "indexed": false,
          "internalType": "address",
          "name": "token",
          "type": "address"
        },
        {
          "indexed": false,
          "internalType": "address",
          "name": "user",
          "type": "address"
        },
        {
          "indexed": false,
          "internalType": "uint256",
          "name": "amount",
          "type": "uint256"
        },
        {
          "indexed": false,
          "internalType": "uint256",
          "name": "balance",
          "type": "uint256"
        },
        {
          "indexed": false,
          "internalType": "uint256",
          "name": "Timestamp",
          "type": "uint256"
        }
      ],
      "name": "Deposit",
      "type": "event"
    },
    {
      "anonymous": false,
      "inputs": [
        {
          "indexed": false,
          "internalType": "uint256",
          "name": "rewardLPTsForNodes",
          "type": "uint256"
        }
      ],
      "name": "DistributeNodeRewards",
      "type": "event"
    },
    {
      "anonymous": false,
      "inputs": [
        {
          "indexed": false,
          "internalType": "address",
          "name": "to",
          "type": "address"
        },
        {
          "indexed": false,
          "internalType": "uint256",
          "name": "amountOfFloat",
          "type": "uint256"
        },
        {
          "indexed": false,
          "internalType": "uint256",
          "name": "amountOfLP",
          "type": "uint256"
        },
        {
          "indexed": false,
          "internalType": "uint256",
          "name": "currentPriceLP",
          "type": "uint256"
        },
        {
          "indexed": false,
          "internalType": "uint256",
          "name": "depositFees",
          "type": "uint256"
        },
        {
          "indexed": false,
          "internalType": "bytes32",
          "name": "txid",
          "type": "bytes32"
        }
      ],
      "name": "IssueLPTokensForFloat",
      "type": "event"
    },
    {
      "anonymous": false,
      "inputs": [
        {
          "indexed": true,
          "internalType": "address",
          "name": "previousOwner",
          "type": "address"
        },
        {
          "indexed": true,
          "internalType": "address",
          "name": "newOwner",
          "type": "address"
        }
      ],
      "name": "OwnershipTransferred",
      "type": "event"
    },
    {
      "anonymous": false,
      "inputs": [
        {
          "indexed": false,
          "internalType": "address",
          "name": "feesToken",
          "type": "address"
        },
        {
          "indexed": false,
          "internalType": "uint256",
          "name": "rewards",
          "type": "uint256"
        },
        {
          "indexed": false,
          "internalType": "uint256",
          "name": "amountLPTokensForNode",
          "type": "uint256"
        },
        {
          "indexed": false,
          "internalType": "uint256",
          "name": "currentPriceLP",
          "type": "uint256"
        }
      ],
      "name": "RewardsCollection",
      "type": "event"
    },
    {
      "anonymous": false,
      "inputs": [
        {
          "indexed": false,
          "internalType": "uint256",
          "name": "ExpirationTime",
          "type": "uint256"
        },
        {
          "indexed": false,
          "internalType": "uint256",
          "name": "Timestamp",
          "type": "uint256"
        }
      ],
      "name": "SetExpirationTime",
      "type": "event"
    },
    {
      "anonymous": false,
      "inputs": [
        {
          "indexed": false,
          "internalType": "address",
          "name": "from",
          "type": "address"
        },
        {
          "indexed": false,
          "internalType": "address",
          "name": "to",
          "type": "address"
        },
        {
          "indexed": false,
          "internalType": "uint256",
          "name": "amount",
          "type": "uint256"
        }
      ],
      "name": "Swap",
      "type": "event"
    },
    {
      "anonymous": false,
      "inputs": [
        {
          "indexed": false,
          "internalType": "bytes32",
          "name": "SwapID",
          "type": "bytes32"
        },
        {
          "indexed": false,
          "internalType": "string",
          "name": "DestAddr",
          "type": "string"
        },
        {
          "indexed": false,
          "internalType": "address",
          "name": "RefundAddr",
          "type": "address"
        },
        {
          "indexed": false,
          "internalType": "uint256",
          "name": "AmountWBTC",
          "type": "uint256"
        },
        {
          "indexed": false,
          "internalType": "uint256",
          "name": "Timestamp",
          "type": "uint256"
        }
      ],
      "name": "SwapTokensToBTC",
      "type": "event"
    },
    {
      "anonymous": false,
      "inputs": [
        {
          "indexed": false,
          "internalType": "address",
          "name": "token",
          "type": "address"
        },
        {
          "indexed": false,
          "internalType": "address",
          "name": "user",
          "type": "address"
        },
        {
          "indexed": false,
          "internalType": "uint256",
          "name": "amount",
          "type": "uint256"
        },
        {
          "indexed": false,
          "internalType": "uint256",
          "name": "balance",
          "type": "uint256"
        },
        {
          "indexed": false,
          "internalType": "uint256",
          "name": "Timestamp",
          "type": "uint256"
        }
      ],
      "name": "Withdraw",
      "type": "event"
    },
    {
      "stateMutability": "nonpayable",
      "type": "fallback"
    },
    {
      "inputs": [],
      "name": "BTCT_ADDR",
      "outputs": [
        {
          "internalType": "address",
          "name": "",
          "type": "address"
        }
      ],
      "stateMutability": "view",
      "type": "function"
    },
    {
      "inputs": [],
      "name": "activeNodeCount",
      "outputs": [
        {
          "internalType": "uint8",
          "name": "",
          "type": "uint8"
        }
      ],
      "stateMutability": "view",
      "type": "function"
    },
    {
      "inputs": [
        {
          "internalType": "address",
          "name": "_token",
          "type": "address"
        },
        {
          "internalType": "address",
          "name": "_user",
          "type": "address"
        }
      ],
      "name": "balanceOf",
      "outputs": [
        {
          "internalType": "uint256",
          "name": "",
          "type": "uint256"
        }
      ],
      "stateMutability": "view",
      "type": "function"
    },
    {
      "inputs": [
        {
          "internalType": "address",
          "name": "_newOwner",
          "type": "address"
        },
        {
          "internalType": "address[]",
          "name": "_nodes",
          "type": "address[]"
        },
        {
          "internalType": "bool[]",
          "name": "_isRemoved",
          "type": "bool[]"
        },
        {
          "internalType": "uint8",
          "name": "_churnedInCount",
          "type": "uint8"
        },
        {
          "internalType": "uint8",
          "name": "_tssThreshold",
          "type": "uint8"
        },
        {
          "internalType": "uint8",
          "name": "_nodeRewardsRatio",
          "type": "uint8"
        },
        {
          "internalType": "uint8",
          "name": "_withdrawalFeeBPS",
          "type": "uint8"
        },
        {
          "internalType": "uint256",
          "name": "_totalStakedAmount",
          "type": "uint256"
        },
        {
          "internalType": "uint256",
          "name": "_minimumSwapAmountForWBTC",
          "type": "uint256"
        },
        {
          "internalType": "uint256",
          "name": "_expirationTime",
          "type": "uint256"
        }
      ],
      "name": "churn",
      "outputs": [
        {
          "internalType": "bool",
          "name": "",
          "type": "bool"
        }
      ],
      "stateMutability": "nonpayable",
      "type": "function"
    },
    {
      "inputs": [],
      "name": "churnedInCount",
      "outputs": [
        {
          "internalType": "uint8",
          "name": "",
          "type": "uint8"
        }
      ],
      "stateMutability": "view",
      "type": "function"
    },
    {
      "inputs": [
        {
          "internalType": "uint256",
          "name": "_incomingAmount",
          "type": "uint256"
        },
        {
          "internalType": "uint256",
          "name": "_minerFee",
          "type": "uint256"
        },
        {
          "internalType": "uint256",
          "name": "_rewardsAmount",
          "type": "uint256"
        },
        {
          "internalType": "address[]",
          "name": "_spenders",
          "type": "address[]"
        },
        {
          "internalType": "uint256[]",
          "name": "_swapAmounts",
          "type": "uint256[]"
        },
        {
          "internalType": "bool",
          "name": "_isUpdatelimitBTCForSPFlow2",
          "type": "bool"
        }
      ],
      "name": "collectSwapFeesForBTC",
      "outputs": [
        {
          "internalType": "bool",
          "name": "",
          "type": "bool"
        }
      ],
      "stateMutability": "nonpayable",
      "type": "function"
    },
    {
      "inputs": [],
      "name": "expirationTime",
      "outputs": [
        {
          "internalType": "uint256",
          "name": "",
          "type": "uint256"
        }
      ],
      "stateMutability": "view",
      "type": "function"
    },
    {
      "inputs": [],
      "name": "getActiveNodes",
      "outputs": [
        {
          "internalType": "address[]",
          "name": "",
          "type": "address[]"
        }
      ],
      "stateMutability": "view",
      "type": "function"
    },
    {
      "inputs": [],
      "name": "getCurrentPriceLP",
      "outputs": [
        {
          "internalType": "uint256",
          "name": "nowPrice",
          "type": "uint256"
        }
      ],
      "stateMutability": "view",
      "type": "function"
    },
    {
      "inputs": [
        {
          "internalType": "address",
          "name": "_tokenA",
          "type": "address"
        },
        {
          "internalType": "address",
          "name": "_tokenB",
          "type": "address"
        }
      ],
      "name": "getFloatReserve",
      "outputs": [
        {
          "internalType": "uint256",
          "name": "reserveA",
          "type": "uint256"
        },
        {
          "internalType": "uint256",
          "name": "reserveB",
          "type": "uint256"
        }
      ],
      "stateMutability": "view",
      "type": "function"
    },
    {
      "inputs": [],
      "name": "initialExchangeRate",
      "outputs": [
        {
          "internalType": "uint256",
          "name": "",
          "type": "uint256"
        }
      ],
      "stateMutability": "view",
      "type": "function"
    },
    {
      "inputs": [
        {
          "internalType": "address",
          "name": "_user",
          "type": "address"
        }
      ],
      "name": "isNodeStake",
      "outputs": [
        {
          "internalType": "bool",
          "name": "",
          "type": "bool"
        }
      ],
      "stateMutability": "view",
      "type": "function"
    },
    {
      "inputs": [
        {
          "internalType": "bytes32",
          "name": "_txid",
          "type": "bytes32"
        }
      ],
      "name": "isTxUsed",
      "outputs": [
        {
          "internalType": "bool",
          "name": "",
          "type": "bool"
        }
      ],
      "stateMutability": "view",
      "type": "function"
    },
    {
      "inputs": [],
      "name": "limitBTCForSPFlow2",
      "outputs": [
        {
          "internalType": "uint256",
          "name": "",
          "type": "uint256"
        }
      ],
      "stateMutability": "view",
      "type": "function"
    },
    {
      "inputs": [],
      "name": "lpToken",
      "outputs": [
        {
          "internalType": "address",
          "name": "",
          "type": "address"
        }
      ],
      "stateMutability": "view",
      "type": "function"
    },
    {
      "inputs": [],
      "name": "minimumSwapAmountForWBTC",
      "outputs": [
        {
          "internalType": "uint256",
          "name": "",
          "type": "uint256"
        }
      ],
      "stateMutability": "view",
      "type": "function"
    },
    {
      "inputs": [
        {
          "internalType": "bytes32[]",
          "name": "_addressesAndAmounts",
          "type": "bytes32[]"
        },
        {
          "internalType": "uint256",
          "name": "_totalSwapped",
          "type": "uint256"
        },
        {
          "internalType": "uint256",
          "name": "_rewardsAmount",
          "type": "uint256"
        },
        {
          "internalType": "bytes32[]",
          "name": "_usedTxIds",
          "type": "bytes32[]"
        }
      ],
      "name": "multiRecordSkyPoolsTX",
      "outputs": [
        {
          "internalType": "bool",
          "name": "",
          "type": "bool"
        }
      ],
      "stateMutability": "nonpayable",
      "type": "function"
    },
    {
      "inputs": [],
      "name": "nodeRewardsRatio",
      "outputs": [
        {
          "internalType": "uint8",
          "name": "",
          "type": "uint8"
        }
      ],
      "stateMutability": "view",
      "type": "function"
    },
    {
      "inputs": [],
      "name": "oldestActiveIndex",
      "outputs": [
        {
          "internalType": "uint256",
          "name": "",
          "type": "uint256"
        }
      ],
      "stateMutability": "view",
      "type": "function"
    },
    {
      "inputs": [],
      "name": "owner",
      "outputs": [
        {
          "internalType": "address",
          "name": "",
          "type": "address"
        }
      ],
      "stateMutability": "view",
      "type": "function"
    },
    {
      "inputs": [
        {
          "internalType": "address",
          "name": "_token",
          "type": "address"
        },
        {
          "internalType": "bytes32",
          "name": "_addressesAndAmountOfFloat",
          "type": "bytes32"
        },
        {
          "internalType": "bytes32",
          "name": "_txid",
          "type": "bytes32"
        }
      ],
      "name": "recordIncomingFloat",
      "outputs": [
        {
          "internalType": "bool",
          "name": "",
          "type": "bool"
        }
      ],
      "stateMutability": "nonpayable",
      "type": "function"
    },
    {
      "inputs": [
        {
          "internalType": "address",
          "name": "_token",
          "type": "address"
        },
        {
          "internalType": "bytes32",
          "name": "_addressesAndAmountOfLPtoken",
          "type": "bytes32"
        },
        {
          "internalType": "uint256",
          "name": "_minerFee",
          "type": "uint256"
        },
        {
          "internalType": "bytes32",
          "name": "_txid",
          "type": "bytes32"
        }
      ],
      "name": "recordOutcomingFloat",
      "outputs": [
        {
          "internalType": "bool",
          "name": "",
          "type": "bool"
        }
      ],
      "stateMutability": "nonpayable",
      "type": "function"
    },
    {
      "inputs": [
        {
          "internalType": "address",
          "name": "_to",
          "type": "address"
        },
        {
          "internalType": "uint256",
          "name": "_totalSwapped",
          "type": "uint256"
        },
        {
          "internalType": "uint256",
          "name": "_rewardsAmount",
          "type": "uint256"
        },
        {
          "internalType": "bytes32[]",
          "name": "_usedTxIds",
          "type": "bytes32[]"
        }
      ],
      "name": "recordSkyPoolsTX",
      "outputs": [
        {
          "internalType": "bool",
          "name": "",
          "type": "bool"
        }
      ],
      "stateMutability": "nonpayable",
      "type": "function"
    },
    {
      "inputs": [
        {
          "internalType": "uint256",
          "name": "_minerFee",
          "type": "uint256"
        },
        {
          "internalType": "bytes32",
          "name": "_txid",
          "type": "bytes32"
        }
      ],
      "name": "recordUTXOSweepMinerFee",
      "outputs": [
        {
          "internalType": "bool",
          "name": "",
          "type": "bool"
        }
      ],
      "stateMutability": "nonpayable",
      "type": "function"
    },
    {
      "inputs": [
        {
          "internalType": "address",
          "name": "_token",
          "type": "address"
        },
        {
          "internalType": "uint256",
          "name": "_amount",
          "type": "uint256"
        }
      ],
      "name": "redeemERC20Token",
      "outputs": [],
      "stateMutability": "nonpayable",
      "type": "function"
    },
    {
      "inputs": [
        {
          "internalType": "uint256",
          "name": "_amount",
          "type": "uint256"
        }
      ],
      "name": "redeemEther",
      "outputs": [],
      "stateMutability": "nonpayable",
      "type": "function"
    },
    {
      "inputs": [],
      "name": "renounceOwnership",
      "outputs": [],
      "stateMutability": "nonpayable",
      "type": "function"
    },
    {
      "inputs": [],
      "name": "sbBTCPool",
      "outputs": [
        {
          "internalType": "address",
          "name": "",
          "type": "address"
        }
      ],
      "stateMutability": "view",
      "type": "function"
    },
    {
      "inputs": [
        {
          "internalType": "address",
          "name": "_destToken",
          "type": "address"
        },
        {
          "internalType": "address",
          "name": "_to",
          "type": "address"
        },
        {
          "internalType": "uint256",
          "name": "_amount",
          "type": "uint256"
        },
        {
          "internalType": "uint256",
          "name": "_totalSwapped",
          "type": "uint256"
        },
        {
          "internalType": "uint256",
          "name": "_rewardsAmount",
          "type": "uint256"
        },
        {
          "internalType": "bytes32[]",
          "name": "_redeemedFloatTxIds",
          "type": "bytes32[]"
        }
      ],
      "name": "singleTransferERC20",
      "outputs": [
        {
          "internalType": "bool",
          "name": "",
          "type": "bool"
        }
      ],
      "stateMutability": "nonpayable",
      "type": "function"
    },
    {
      "inputs": [
        {
          "internalType": "uint256",
          "name": "_loopCount",
          "type": "uint256"
        }
      ],
      "name": "spCleanUpOldTXs",
      "outputs": [],
      "stateMutability": "nonpayable",
      "type": "function"
    },
    {
      "inputs": [
        {
          "internalType": "address",
          "name": "_token",
          "type": "address"
        },
        {
          "internalType": "uint256",
          "name": "_amount",
          "type": "uint256"
        }
      ],
      "name": "spDeposit",
      "outputs": [],
      "stateMutability": "payable",
      "type": "function"
    },
    {
      "inputs": [
        {
          "components": [
            {
              "internalType": "address",
              "name": "fromToken",
              "type": "address"
            },
            {
              "internalType": "address",
              "name": "toToken",
              "type": "address"
            },
            {
              "internalType": "uint256",
              "name": "fromAmount",
              "type": "uint256"
            },
            {
              "internalType": "uint256",
              "name": "toAmount",
              "type": "uint256"
            },
            {
              "internalType": "uint256",
              "name": "expectedAmount",
              "type": "uint256"
            },
            {
              "internalType": "address[]",
              "name": "callees",
              "type": "address[]"
            },
            {
              "internalType": "bytes",
              "name": "exchangeData",
              "type": "bytes"
            },
            {
              "internalType": "uint256[]",
              "name": "startIndexes",
              "type": "uint256[]"
            },
            {
              "internalType": "uint256[]",
              "name": "values",
              "type": "uint256[]"
            },
            {
              "internalType": "address payable",
              "name": "beneficiary",
              "type": "address"
            },
            {
              "internalType": "address payable",
              "name": "partner",
              "type": "address"
            },
            {
              "internalType": "uint256",
              "name": "feePercent",
              "type": "uint256"
            },
            {
              "internalType": "bytes",
              "name": "permit",
              "type": "bytes"
            },
            {
              "internalType": "uint256",
              "name": "deadline",
              "type": "uint256"
            },
            {
              "internalType": "bytes16",
              "name": "uuid",
              "type": "bytes16"
            }
          ],
          "internalType": "struct Utils.SimpleData",
          "name": "_data",
          "type": "tuple"
        }
      ],
      "name": "spFlow1SimpleSwap",
      "outputs": [],
      "stateMutability": "nonpayable",
      "type": "function"
    },
    {
      "inputs": [
        {
          "internalType": "bool",
          "name": "_fork",
          "type": "bool"
        },
        {
          "internalType": "address",
          "name": "_factory",
          "type": "address"
        },
        {
          "internalType": "bytes32",
          "name": "_initCode",
          "type": "bytes32"
        },
        {
          "internalType": "uint256",
          "name": "_amountIn",
          "type": "uint256"
        },
        {
          "internalType": "uint256",
          "name": "_amountOutMin",
          "type": "uint256"
        },
        {
          "internalType": "address[]",
          "name": "_path",
          "type": "address[]"
        }
      ],
      "name": "spFlow1Uniswap",
      "outputs": [
        {
          "internalType": "uint256",
          "name": "receivedAmount",
          "type": "uint256"
        }
      ],
      "stateMutability": "nonpayable",
      "type": "function"
    },
    {
      "inputs": [
        {
          "internalType": "string",
          "name": "_destinationAddressForBTC",
          "type": "string"
        },
        {
          "components": [
            {
              "internalType": "address",
              "name": "fromToken",
              "type": "address"
            },
            {
              "internalType": "address",
              "name": "toToken",
              "type": "address"
            },
            {
              "internalType": "uint256",
              "name": "fromAmount",
              "type": "uint256"
            },
            {
              "internalType": "uint256",
              "name": "toAmount",
              "type": "uint256"
            },
            {
              "internalType": "uint256",
              "name": "expectedAmount",
              "type": "uint256"
            },
            {
              "internalType": "address[]",
              "name": "callees",
              "type": "address[]"
            },
            {
              "internalType": "bytes",
              "name": "exchangeData",
              "type": "bytes"
            },
            {
              "internalType": "uint256[]",
              "name": "startIndexes",
              "type": "uint256[]"
            },
            {
              "internalType": "uint256[]",
              "name": "values",
              "type": "uint256[]"
            },
            {
              "internalType": "address payable",
              "name": "beneficiary",
              "type": "address"
            },
            {
              "internalType": "address payable",
              "name": "partner",
              "type": "address"
            },
            {
              "internalType": "uint256",
              "name": "feePercent",
              "type": "uint256"
            },
            {
              "internalType": "bytes",
              "name": "permit",
              "type": "bytes"
            },
            {
              "internalType": "uint256",
              "name": "deadline",
              "type": "uint256"
            },
            {
              "internalType": "bytes16",
              "name": "uuid",
              "type": "bytes16"
            }
          ],
          "internalType": "struct Utils.SimpleData",
          "name": "_data",
          "type": "tuple"
        }
      ],
      "name": "spFlow2SimpleSwap",
      "outputs": [
        {
          "internalType": "uint256",
          "name": "receivedAmount",
          "type": "uint256"
        }
      ],
      "stateMutability": "nonpayable",
      "type": "function"
    },
    {
      "inputs": [
        {
          "internalType": "string",
          "name": "_destinationAddressForBTC",
          "type": "string"
        },
        {
          "internalType": "bool",
          "name": "_fork",
          "type": "bool"
        },
        {
          "internalType": "address",
          "name": "_factory",
          "type": "address"
        },
        {
          "internalType": "bytes32",
          "name": "_initCode",
          "type": "bytes32"
        },
        {
          "internalType": "uint256",
          "name": "_amountIn",
          "type": "uint256"
        },
        {
          "internalType": "uint256",
          "name": "_amountOutMin",
          "type": "uint256"
        },
        {
          "internalType": "address[]",
          "name": "_path",
          "type": "address[]"
        }
      ],
      "name": "spFlow2Uniswap",
      "outputs": [
        {
          "internalType": "uint256",
          "name": "receivedAmount",
          "type": "uint256"
        }
      ],
      "stateMutability": "nonpayable",
      "type": "function"
    },
    {
      "inputs": [],
      "name": "spGetPendingSwaps",
      "outputs": [
        {
          "components": [
            {
              "internalType": "bytes32",
              "name": "SwapID",
              "type": "bytes32"
            },
            {
              "internalType": "string",
              "name": "DestAddr",
              "type": "string"
            },
            {
              "internalType": "address",
              "name": "RefundAddr",
              "type": "address"
            },
            {
              "internalType": "uint256",
              "name": "AmountWBTC",
              "type": "uint256"
            },
            {
              "internalType": "uint256",
              "name": "Timestamp",
              "type": "uint256"
            }
          ],
          "internalType": "struct SwapContract.spPendingTx[]",
          "name": "data",
          "type": "tuple[]"
        }
      ],
      "stateMutability": "view",
      "type": "function"
    },
    {
      "inputs": [
        {
          "internalType": "uint256",
          "name": "",
          "type": "uint256"
        }
      ],
      "name": "spPendingTXs",
      "outputs": [
        {
          "internalType": "bytes32",
          "name": "SwapID",
          "type": "bytes32"
        },
        {
          "internalType": "string",
          "name": "DestAddr",
          "type": "string"
        },
        {
          "internalType": "address",
          "name": "RefundAddr",
          "type": "address"
        },
        {
          "internalType": "uint256",
          "name": "AmountWBTC",
          "type": "uint256"
        },
        {
          "internalType": "uint256",
          "name": "Timestamp",
          "type": "uint256"
        }
      ],
      "stateMutability": "view",
      "type": "function"
    },
    {
      "inputs": [],
      "name": "swapCount",
      "outputs": [
        {
          "internalType": "uint256",
          "name": "",
          "type": "uint256"
        }
      ],
      "stateMutability": "view",
      "type": "function"
    },
    {
      "inputs": [],
      "name": "swapRewards",
      "outputs": [
        {
          "internalType": "address",
          "name": "",
          "type": "address"
        }
      ],
      "stateMutability": "view",
      "type": "function"
    },
    {
      "inputs": [
        {
          "internalType": "address",
          "name": "",
          "type": "address"
        },
        {
          "internalType": "address",
          "name": "",
          "type": "address"
        }
      ],
      "name": "tokens",
      "outputs": [
        {
          "internalType": "uint256",
          "name": "",
          "type": "uint256"
        }
      ],
      "stateMutability": "view",
      "type": "function"
    },
    {
      "inputs": [],
      "name": "totalStakedAmount",
      "outputs": [
        {
          "internalType": "uint256",
          "name": "",
          "type": "uint256"
        }
      ],
      "stateMutability": "view",
      "type": "function"
    },
    {
      "inputs": [
        {
          "internalType": "address",
          "name": "newOwner",
          "type": "address"
        }
      ],
      "name": "transferOwnership",
      "outputs": [],
      "stateMutability": "nonpayable",
      "type": "function"
    },
    {
      "inputs": [],
      "name": "tssThreshold",
      "outputs": [
        {
          "internalType": "uint8",
          "name": "",
          "type": "uint8"
        }
      ],
      "stateMutability": "view",
      "type": "function"
    },
    {
      "inputs": [],
      "name": "wETH",
      "outputs": [
        {
          "internalType": "address",
          "name": "",
          "type": "address"
        }
      ],
      "stateMutability": "view",
      "type": "function"
    },
    {
      "inputs": [
        {
          "internalType": "address",
          "name": "",
          "type": "address"
        }
      ],
      "name": "whitelist",
      "outputs": [
        {
          "internalType": "bool",
          "name": "",
          "type": "bool"
        }
      ],
      "stateMutability": "view",
      "type": "function"
    },
    {
      "inputs": [],
      "name": "withdrawalFeeBPS",
      "outputs": [
        {
          "internalType": "uint8",
          "name": "",
          "type": "uint8"
        }
      ],
      "stateMutability": "view",
      "type": "function"
    },
    {
      "stateMutability": "payable",
      "type": "receive"
    }
  ],
  "bytecode": "0x6101606040523480156200001257600080fd5b506040516200645e3803806200645e833981016040819052620000359162000344565b6200004033620002d7565b600180556202a300600255615dc0600355600060068190556005556001600160a01b03808516610100528381166101205282811661014052861660a08190526040805163313ce56760e01b8152905163313ce56791600480820192602092909190829003018186803b158015620000b657600080fd5b505afa158015620000cb573d6000803e3d6000fd5b505050506040513d601f19601f82011682018060405250810190620000f19190620003bc565b620000fe90600a620004fd565b60e0526001600160a01b03851660808190526008805463ffff0000191663144200001781556040805163313ce56760e01b8152905191929163313ce56791600480820192602092909190829003018186803b1580156200015d57600080fd5b505afa15801562000172573d6000803e3d6000fd5b505050506040513d601f19601f82011682018060405250810190620001989190620003bc565b620001a491906200050e565b620001b190600a620004fd565b60c08181525050856001600160a01b031663313ce5676040518163ffffffff1660e01b815260040160206040518083038186803b158015620001f257600080fd5b505afa15801562000207573d6000803e3d6000fd5b505050506040513d601f19601f820116820180604052508101906200022d9190620003bc565b6200023a90600a620004fd565b6009556001600160a01b0394851660009081526007602090815260408083208054600160ff199182168117909255999098168352822080548916881790559080527f6d5257204ebe7d88fd91ae87941cb2dd9d8062b64ae5a2bd2d28ec40b9fbf6df80549097169095179095555050600b909152507fdf7de25b7f1fd6d0b5205f0e18f1f35bd7b8d84cce336588d184533ce43a6f765562000534565b600080546001600160a01b038381166001600160a01b0319831681178455604051919092169283917f8be0079c531659141344cd1fd0a4f28419497f9722a3daafe3b4186f6b6457e09190a35050565b80516001600160a01b03811681146200033f57600080fd5b919050565b60008060008060008060c087890312156200035e57600080fd5b620003698762000327565b9550620003796020880162000327565b9450620003896040880162000327565b9350620003996060880162000327565b9250620003a96080880162000327565b915060a087015190509295509295509295565b600060208284031215620003cf57600080fd5b815160ff81168114620003e157600080fd5b9392505050565b634e487b7160e01b600052601160045260246000fd5b600181815b808511156200043f578160001904821115620004235762000423620003e8565b808516156200043157918102915b93841c939080029062000403565b509250929050565b6000826200045857506001620004f7565b816200046757506000620004f7565b81600181146200048057600281146200048b57620004ab565b6001915050620004f7565b60ff8411156200049f576200049f620003e8565b50506001821b620004f7565b5060208310610133831016604e8410600b8410161715620004d0575081810a620004f7565b620004dc8383620003fe565b8060001904821115620004f357620004f3620003e8565b0290505b92915050565b6000620003e160ff84168362000447565b600060ff821660ff8416808210156200052b576200052b620003e8565b90039392505050565b60805160a05160c05160e051610100516101205161014051615d7f620006df600039600081816107db01528181610ec101526132c20152600081816102e2015281816135f901526137ac01526000818161028f015281816108ca01528181611f7701528181611fd301528181612040015281816120870152818161216b01528181612c4b01528181612cc50152612d0e0152600081816119a60152818161377101528181613d4801526144ce0152600061395d0152600081816105c801528181610f9901528181610fd401528181611906015281816135aa01528181613628015281816137de01528181613f5d015261451b0152600081816103cf01528181610f4501528181610f77015281816110ee0152818161116a015281816118da01528181611c800152818161227b015281816122aa015281816122fa0152818161238d0152818161241b01528181612763015281816127dc0152818161287301528181612a4801528181612f630152818161304501528181613273015281816133540152818161391f01528181613df301528181613e6f01528181613f0401526142000152615d7f6000f3fe60806040526004361061027f5760003560e01c8063715018a61161014f578063c810a539116100c1578063dcc5f0c81161007a578063dcc5f0c814610833578063e6ca208414610853578063ec48272914610883578063f2428621146108b8578063f2fde38b146108ec578063f7888aec1461090c576102be565b8063c810a53914610776578063ca0707e714610796578063cf10b16b146107a9578063d0f9a085146107c9578063d38c7bb1146107fd578063da284dcc1461081d576102be565b8063a742329d11610113578063a742329d146106bf578063a827278b146106df578063b345a358146106f5578063b4014fe814610715578063b6268e5d14610735578063bf62dcc814610756576102be565b8063715018a61461062257806375340815146106375780638535490f146106515780638da5cb5b146106715780639b19251a1461068f576102be565b806320199e99116101f3578063508493bc116101ac578063508493bc14610548578063511834c314610580578063567e98f9146105a05780635fcbd285146105b65780636b51e919146105ea5780636d019f351461060c576102be565b806320199e991461049b57806321959d3c146104bd5780632586c562146104dd5780632eff0d9e146104fd57806345137e27146105135780634db7548514610528576102be565b80630f909486116102455780630f909486146103bd57806312d1441e146103f1578063130b7a63146104105780631411c5b71461043e5780631ab7e937146104545780631bb0693014610485576102be565b806285aea1146102d057806289356f14610321578063045f888a1461034d5780630b68134d1461037d5780630d63aca71461039d576102be565b366102be57336001600160a01b037f000000000000000000000000000000000000000000000000000000000000000016146102bc576102bc614b89565b005b3480156102ca57600080fd5b50600080fd5b3480156102dc57600080fd5b506103047f000000000000000000000000000000000000000000000000000000000000000081565b6040516001600160a01b0390911681526020015b60405180910390f35b34801561032d57600080fd5b5060085461033b9060ff1681565b60405160ff9091168152602001610318565b34801561035957600080fd5b5061036d610368366004614d2f565b610952565b6040519015158152602001610318565b34801561038957600080fd5b5060085461033b9062010000900460ff1681565b3480156103a957600080fd5b5061036d6103b8366004614e5f565b610dd5565b3480156103c957600080fd5b506103047f000000000000000000000000000000000000000000000000000000000000000081565b3480156103fd57600080fd5b5060085461033b90610100900460ff1681565b34801561041c57600080fd5b5061043061042b366004614f27565b611020565b604051908152602001610318565b34801561044a57600080fd5b5061043060035481565b34801561046057600080fd5b5061047461046f366004614fac565b61145a565b60405161031895949392919061501d565b34801561049157600080fd5b5061043060065481565b3480156104a757600080fd5b506104b061151d565b604051610318919061505c565b3480156104c957600080fd5b506102bc6104d8366004614fac565b61171e565b3480156104e957600080fd5b5061036d6104f83660046150fa565b6117dc565b34801561050957600080fd5b5061043060055481565b34801561051f57600080fd5b506104306118ce565b34801561053457600080fd5b506102bc610543366004615135565b6119ec565b34801561055457600080fd5b50610430610563366004615161565b601160209081526000928352604080842090915290825290205481565b34801561058c57600080fd5b506102bc61059b3660046151b3565b611b4b565b3480156105ac57600080fd5b5061043060105481565b3480156105c257600080fd5b506103047f000000000000000000000000000000000000000000000000000000000000000081565b3480156105f657600080fd5b506105ff611de5565b604051610318919061522b565b34801561061857600080fd5b5061043060095481565b34801561062e57600080fd5b506102bc611f0f565b34801561064357600080fd5b50600f5461033b9060ff1681565b34801561065d57600080fd5b506102bc61066c366004614fac565b611f45565b34801561067d57600080fd5b506000546001600160a01b0316610304565b34801561069b57600080fd5b5061036d6106aa36600461523e565b60076020526000908152604090205460ff1681565b3480156106cb57600080fd5b5061036d6106da36600461523e565b612201565b3480156106eb57600080fd5b50610430600a5481565b34801561070157600080fd5b5061036d61071036600461525b565b612235565b34801561072157600080fd5b506104306107303660046152fe565b612359565b34801561074157600080fd5b5060085461033b906301000000900460ff1681565b34801561076257600080fd5b5061036d610771366004615366565b61271d565b34801561078257600080fd5b5061036d6107913660046153d0565b6128fa565b6102bc6107a4366004615135565b6129ef565b3480156107b557600080fd5b5061036d6107c43660046153f2565b612da5565b3480156107d557600080fd5b506103047f000000000000000000000000000000000000000000000000000000000000000081565b34801561080957600080fd5b50610430610818366004615427565b612e95565b34801561082957600080fd5b5061043060025481565b34801561083f57600080fd5b5061036d61084e3660046154de565b613246565b34801561085f57600080fd5b5061036d61086e366004614fac565b6000908152600c602052604090205460ff1690565b34801561088f57600080fd5b506108a361089e366004615161565b6133c4565b60408051928352602083019190915201610318565b3480156108c457600080fd5b506103047f000000000000000000000000000000000000000000000000000000000000000081565b3480156108f857600080fd5b506102bc61090736600461523e565b6133ee565b34801561091857600080fd5b50610430610927366004615161565b6001600160a01b03918216600090815260116020908152604080832093909416825291909152205490565b600080546001600160a01b031633146109865760405162461bcd60e51b815260040161097d906155c3565b60405180910390fd5b60085460ff6101009091048116908816108015906109a8575060ff8760ff1611155b6109d95760405162461bcd60e51b8152602060048201526002602482015261303160f01b604482015260640161097d565b6109e460018861560e565b60ff168860ff161015610a1e5760405162461bcd60e51b8152602060048201526002602482015261181960f11b604482015260640161097d565b60648660ff161115610a575760405162461bcd60e51b8152602060048201526002602482015261303360f01b604482015260640161097d565b60648560ff161115610a905760405162461bcd60e51b81526020600482015260026024820152610c0d60f21b604482015260640161097d565b88518a5114610ac65760405162461bcd60e51b8152602060048201526002602482015261303560f01b604482015260640161097d565b8215610ad25760038390555b8115610ae157610ae182613489565b610aea8b6133ee565b60005b8a51811015610d1457898181518110610b0857610b08615633565b6020026020010151610c7d57600060ff16600d60008d8481518110610b2f57610b2f615633565b6020908102919091018101516001600160a01b031682528101919091526040016000205460ff161415610bac57600e8b8281518110610b7057610b70615633565b60209081029190910181015182546001810184556000938452919092200180546001600160a01b0319166001600160a01b039092169190911790555b600160ff16600d60008d8481518110610bc757610bc7615633565b6020908102919091018101516001600160a01b031682528101919091526040016000205460ff1614610c2057600f805460ff16906000610c0683615649565b91906101000a81548160ff021916908360ff160217905550505b6001600d60008d8481518110610c3857610c38615633565b60200260200101516001600160a01b03166001600160a01b0316815260200190815260200160002060006101000a81548160ff021916908360ff160217905550610d02565b600f805460ff16906000610c9083615669565b91906101000a81548160ff021916908360ff160217905550506002600d60008d8481518110610cc157610cc1615633565b60200260200101516001600160a01b03166001600160a01b0316815260200190815260200160002060006101000a81548160ff021916908360ff1602179055505b80610d0c81615686565b915050610aed565b50600f54606460ff9091161115610d775760405162461bcd60e51b815260206004820152602160248201527f53746f726564206e6f64652073697a652073686f756c64206265203c3d2031306044820152600360fc1b606482015260840161097d565b506008805460ff86811663010000000263ff0000001989831662010000021663ffff0000198b84166101000261ffff19909516938d1693909317939093179190911691909117179055601083905560019a9950505050505050505050565b600080546001600160a01b03163314610e005760405162461bcd60e51b815260040161097d906155c3565b6001600160a01b03871660009081526007602052604090205460ff16610e4d5760405162461bcd60e51b81526020600482015260026024820152610c4d60f21b604482015260640161097d565b6001600160a01b038716610e885760405162461bcd60e51b8152602060048201526002602482015261313560f01b604482015260640161097d565b60008415610f6f5760405160016266faa960e11b031981526001600160a01b0389811660048301528881166024830152604482018790527f0000000000000000000000000000000000000000000000000000000000000000169063ff320aae90606401602060405180830381600087803b158015610f0557600080fd5b505af1158015610f19573d6000803e3d6000fd5b505050506040513d601f19601f82011682018060405250810190610f3d91906156a1565b50610f6a60007f0000000000000000000000000000000000000000000000000000000000000000876134c9565b610f97565b84610f9757507f00000000000000000000000000000000000000000000000000000000000000005b7f00000000000000000000000000000000000000000000000000000000000000006001600160a01b0316886001600160a01b03161415610ff457507f00000000000000000000000000000000000000000000000000000000000000005b610ffe818561359f565b611007836138b5565b61101288888861391d565b506001979650505050505050565b6000600260015414156110455760405162461bcd60e51b815260040161097d906156be565b600260015560008383828161105c5761105c615633565b9050602002016020810190611071919061523e565b9050600084846110826001826156f5565b81811061109157611091615633565b90506020020160208101906110a6919061523e565b6001600160a01b03831660009081526011602090815260408083203384529091529020549091508711156110ec5760405162461bcd60e51b815260040161097d9061570c565b7f00000000000000000000000000000000000000000000000000000000000000006001600160a01b0316826001600160a01b0316146111685760405162461bcd60e51b815260206004820152601860248201527726bab9ba1039bbb0b810333937b690212a21903a37b5b2b760411b604482015260640161097d565b7f00000000000000000000000000000000000000000000000000000000000000006001600160a01b0316816001600160a01b031614156111ea5760405162461bcd60e51b815260206004820152601960248201527f456e64696e6720746f6b656e206d757374206265207742544300000000000000604482015260640161097d565b6001600160a01b03811673eeeeeeeeeeeeeeeeeeeeeeeeeeeeeeeeeeeeeeee141561124f5760405162461bcd60e51b81526020600482015260156024820152740aae6ca40e0c2e8d040ee84a886405a7c40ee8aa89605b1b604482015260640161097d565b6040516370a0823160e01b81523060048201526000906001600160a01b038316906370a082319060240160206040518083038186803b15801561129157600080fd5b505afa1580156112a5573d6000803e3d6000fd5b505050506040513d601f19601f820116820180604052508101906112c99190615743565b6001600160a01b03841660009081526011602090815260408083203384529091529020549091506112fa9089613a14565b6001600160a01b03841660009081526011602090815260408083203384529091529020558a15611337576113328a8a8a8a8a8a613a27565b611343565b61134388888888613b6d565b6040516370a0823160e01b81523060048201526113c79082906001600160a01b038516906370a08231906024015b60206040518083038186803b15801561138957600080fd5b505afa15801561139d573d6000803e3d6000fd5b505050506040513d601f19601f820116820180604052508101906113c19190615743565b90613a14565b9350868410156113e95760405162461bcd60e51b815260040161097d9061575c565b836113f357600080fd5b6001600160a01b03821660009081526011602090815260408083203384529091529020546114219085613cad565b6001600160a01b039092166000908152601160209081526040808320338452909152902091909155505060018055979650505050505050565b6004602052600090815260409020805460018201805491929161147c90615793565b80601f01602080910402602001604051908101604052809291908181526020018280546114a890615793565b80156114f55780601f106114ca576101008083540402835291602001916114f5565b820191906000526020600020905b8154815290600101906020018083116114d857829003601f168201915b505050506002830154600384015460049094015492936001600160a01b039091169290915085565b60606000611538600654600554613a1490919063ffffffff16565b6001600160401b0381111561154f5761154f614bc4565b6040519080825280602002602001820160405280156115be57816020015b6115ab6040518060a00160405280600080191681526020016060815260200160006001600160a01b0316815260200160008152602001600081525090565b81526020019060019003908161156d5790505b50915060006115d96001600654613cad90919063ffffffff16565b90505b600554811161171957600460006115fe60065485613cad90919063ffffffff16565b81526020019081526020016000206040518060a00160405290816000820154815260200160018201805461163190615793565b80601f016020809104026020016040519081016040528092919081815260200182805461165d90615793565b80156116aa5780601f1061167f576101008083540402835291602001916116aa565b820191906000526020600020905b81548152906001019060200180831161168d57829003601f168201915b505050918352505060028201546001600160a01b031660208201526003820154604082015260049091015460609091015283518490849081106116ef576116ef615633565b6020908102919091010152611705826001613cad565b91508061171181615686565b9150506115dc565b505090565b60065460009061172e9083613cad565b9050600554811061173e57506005545b60065442905b828110156117d65760025460008281526004602081905260409091200154839161176e9190613cad565b10156117c4576000818152600460205260408120818155906117936001830182614ab6565b506002810180546001600160a01b03191690556000600382018190556004909101556117c0816001613cad565b6006555b806117ce81615686565b915050611744565b50505050565b600080546001600160a01b031633146118075760405162461bcd60e51b815260040161097d906155c3565b60006118116118ce565b6001600160a01b03871660009081526007602052604090205490915060ff166118615760405162461bcd60e51b8152602060048201526002602482015261189b60f11b604482015260640161097d565b61186d86868686613cb9565b61187657600080fd5b60019150806118836118ce565b10156118c55760405162461bcd60e51b8152602060048201526011602482015270496e76616c6964204c505420707269636560781b604482015260640161097d565b50949350505050565b60008060006118fe60007f00000000000000000000000000000000000000000000000000000000000000006133c4565b9150915060007f00000000000000000000000000000000000000000000000000000000000000006001600160a01b03166318160ddd6040518163ffffffff1660e01b815260040160206040518083038186803b15801561195d57600080fd5b505afa158015611971573d6000803e3d6000fd5b505050506040513d601f19601f820116820180604052508101906119959190615743565b905080156119e0576119db816119d57f00000000000000000000000000000000000000000000000000000000000000006119cf8787613cad565b9061405c565b90614068565b6119e4565b6009545b935050505090565b60026001541415611a0f5760405162461bcd60e51b815260040161097d906156be565b60026001556001600160a01b0382166000908152601160209081526040808320338452909152902054811115611a7e5760405162461bcd60e51b8152602060048201526014602482015273496e73756666696369656e742042616c616e636560601b604482015260640161097d565b6001600160a01b0382166000908152601160209081526040808320338452909152902054611aac9082613a14565b6001600160a01b038316600090815260116020908152604080832033808552925290912091909155611ae09083908361391d565b6001600160a01b0382166000908152601160209081526040808320338085529252918290205491517febff2602b3f468259e1e99f613fed6691f3a6526effe6ef3e768ba7ae7a36c4f92611b3b9286929091869142906157c8565b60405180910390a1505060018055565b60026001541415611b6e5760405162461bcd60e51b815260040161097d906156be565b600260015533611b866101408301610120840161523e565b6001600160a01b031614611bf35760405162461bcd60e51b815260206004820152602e60248201527f596f752063616e206f6e6c79206578656375746520737761707320746f20796f60448201526d7572206f776e206164647265737360901b606482015260840161097d565b604081013560116000611c09602085018561523e565b6001600160a01b031681526020810191909152604001600090812090611c376101408501610120860161523e565b6001600160a01b03166001600160a01b03168152602001908152602001600020541015611c765760405162461bcd60e51b815260040161097d9061570c565b6001600160a01b037f000000000000000000000000000000000000000000000000000000000000000016611cad602083018361523e565b6001600160a01b031614611d155760405162461bcd60e51b815260206004820152602960248201527f66726f6d546f6b656e206d7573742062652074686520726571756972656420426044820152682a21ba103a37b5b2b760b91b606482015260840161097d565b611d1e81614074565b611d85604082013560116000611d37602086018661523e565b6001600160a01b031681526020810191909152604001600090812090611d656101408601610120870161523e565b6001600160a01b0316815260208101919091526040016000205490613a14565b60116000611d96602085018561523e565b6001600160a01b031681526020810191909152604001600090812090611dc46101408501610120860161523e565b6001600160a01b031681526020810191909152604001600020555060018055565b600f54606090600090819060ff166001600160401b03811115611e0a57611e0a614bc4565b604051908082528060200260200182016040528015611e33578160200160208202803683370190505b50905060005b600e54811015611f0857600160ff16600d6000600e8481548110611e5f57611e5f615633565b60009182526020808320909101546001600160a01b0316835282019290925260400190205460ff161415611ef657600e8181548110611ea057611ea0615633565b9060005260206000200160009054906101000a90046001600160a01b0316828481518110611ed057611ed0615633565b6001600160a01b039092166020928302919091019091015282611ef281615686565b9350505b80611f0081615686565b915050611e39565b5092915050565b6000546001600160a01b03163314611f395760405162461bcd60e51b815260040161097d906155c3565b611f4360006141ac565b565b60026001541415611f685760405162461bcd60e51b815260040161097d906156be565b60026001556001600160a01b037f0000000000000000000000000000000000000000000000000000000000000000166000908152601160209081526040808320338452909152902054811115611fbd57600080fd5b604051632e1a7d4d60e01b8152600481018290527f00000000000000000000000000000000000000000000000000000000000000006001600160a01b031690632e1a7d4d90602401600060405180830381600087803b15801561201f57600080fd5b505af1158015612033573d6000803e3d6000fd5b5050506001600160a01b037f0000000000000000000000000000000000000000000000000000000000000000166000908152601160209081526040808320338452909152902054612085915082613a14565b7f00000000000000000000000000000000000000000000000000000000000000006001600160a01b03166000908152601160209081526040808320338085529252808320939093559151829084908381818185875af1925050503d806000811461210b576040519150601f19603f3d011682016040523d82523d6000602084013e612110565b606091505b50509050806121615760405162461bcd60e51b815260206004820152601e60248201527f72656365697665722072656a656374656420455448207472616e736665720000604482015260640161097d565b6001600160a01b037f0000000000000000000000000000000000000000000000000000000000000000166000908152601160209081526040808320338085529252918290205491517febff2602b3f468259e1e99f613fed6691f3a6526effe6ef3e768ba7ae7a36c4f926121f09273eeeeeeeeeeeeeeeeeeeeeeeeeeeeeeeeeeeeeeee929091889142906157c8565b60405180910390a150506001805550565b6001600160a01b0381166000908152600d602052604081205460ff166001141561222d57506001919050565b506000919050565b600080546001600160a01b031633146122605760405162461bcd60e51b815260040161097d906155c3565b8361226a57600080fd5b8261227457600080fd5b6122a060007f0000000000000000000000000000000000000000000000000000000000000000866134c9565b6001600160a01b037f000000000000000000000000000000000000000000000000000000000000000081166000908152601160209081526040808320938916835292905220546122f09085613cad565b6001600160a01b037f000000000000000000000000000000000000000000000000000000000000000081166000908152601160209081526040808320938a16835292905290812091909155612345908461359f565b61234e826138b5565b506001949350505050565b60006002600154141561237e5760405162461bcd60e51b815260040161097d906156be565b60026001556001600160a01b037f0000000000000000000000000000000000000000000000000000000000000000166123ba602084018461523e565b6001600160a01b031614156124115760405162461bcd60e51b815260206004820152601c60248201527f4d757374206e6f7420737761702066726f6d2042544320746f6b656e00000000604482015260640161097d565b6001600160a01b037f00000000000000000000000000000000000000000000000000000000000000001661244b604084016020850161523e565b6001600160a01b03161461249a5760405162461bcd60e51b815260206004820152601660248201527526bab9ba1039bbb0b8103a3790212a21903a37b5b2b760511b604482015260640161097d565b306124ad6101408401610120850161523e565b6001600160a01b03161461250d5760405162461bcd60e51b815260206004820152602160248201527f42656e6566696369617279206d757374206265207468697320636f6e747261636044820152601d60fa1b606482015260840161097d565b604082013560116000612523602086018661523e565b6001600160a01b031681526020808201929092526040908101600090812033825290925290205410156125685760405162461bcd60e51b815260040161097d9061570c565b600061257a604084016020850161523e565b6040516370a0823160e01b81523060048201526001600160a01b0391909116906370a082319060240160206040518083038186803b1580156125bb57600080fd5b505afa1580156125cf573d6000803e3d6000fd5b505050506040513d601f19601f820116820180604052508101906125f39190615743565b905061263b60408401356011600061260e602088018861523e565b6001600160a01b031681526020808201929092526040908101600090812033825290925290205490613a14565b6011600061264c602087018761523e565b6001600160a01b031681526020808201929092526040908101600090812033825290925290205561267c83614074565b6126be81612690604086016020870161523e565b6040516370a0823160e01b81523060048201526001600160a01b0391909116906370a0823190602401611371565b915082608001358210156126e45760405162461bcd60e51b815260040161097d9061575c565b6003548210156127065760405162461bcd60e51b815260040161097d906157f9565b6127118585846141fc565b50600180559392505050565b600080546001600160a01b031633146127485760405162461bcd60e51b815260040161097d906155c3565b8361275257600080fd5b8261275c57600080fd5b61278860007f0000000000000000000000000000000000000000000000000000000000000000866134c9565b61279360008461359f565b61279c826138b5565b60005b85518110156128ee576128698682815181106127bd576127bd615633565b602002602001015160a01c6bffffffffffffffffffffffff16601160007f00000000000000000000000000000000000000000000000000000000000000006001600160a01b03166001600160a01b03168152602001908152602001600020600089858151811061282f5761282f615633565b602002602001015160001c6001600160a01b03166001600160a01b0316815260200190815260200160002054613cad90919063ffffffff16565b6001600160a01b037f000000000000000000000000000000000000000000000000000000000000000016600090815260116020526040812088519091908990859081106128b8576128b8615633565b6020908102919091018101516001600160a01b0316825281019190915260400160002055806128e681615686565b91505061279f565b50600195945050505050565b600080546001600160a01b031633146129255760405162461bcd60e51b815260040161097d906155c3565b6000828152600c602052604090205460ff16156129845760405162461bcd60e51b815260206004820152601860248201527f546865207478696420697320616c726561647920757365640000000000000000604482015260640161097d565b604080518082019091526002815261189960f11b60208083019190915260008052600b9052600080516020615d2a833981519152546129c4918590614388565b60008052600b602052600080516020615d2a833981519152556129e6826143b4565b50600192915050565b60026001541415612a125760405162461bcd60e51b815260040161097d906156be565b600260015534612c3c576001600160a01b03821673eeeeeeeeeeeeeeeeeeeeeeeeeeeeeeeeeeeeeeee1415612a4657600080fd5b7f00000000000000000000000000000000000000000000000000000000000000006001600160a01b0316826001600160a01b03161415612a8557600080fd5b6040516370a0823160e01b81523060048201526000906001600160a01b038416906370a082319060240160206040518083038186803b158015612ac757600080fd5b505afa158015612adb573d6000803e3d6000fd5b505050506040513d601f19601f82011682018060405250810190612aff9190615743565b9050612b166001600160a01b0384163330856143cf565b6040516370a0823160e01b81523060048201526000906001600160a01b038516906370a082319060240160206040518083038186803b158015612b5857600080fd5b505afa158015612b6c573d6000803e3d6000fd5b505050506040513d601f19601f82011682018060405250810190612b909190615743565b90506000612b9e8284613a14565b6001600160a01b0386166000908152601160209081526040808320338452909152902054909150612bcf9082613cad565b6001600160a01b03861660009081526011602090815260408083203380855292529182902083905590517f4e2ca0515ed1aef1395f66b5303bb5d6f1bf9d61a353fa53f73f8ac9973fa9f692612c2c9289929091869142906157c8565b60405180910390a1505050612d9d565b60003411612c4957600080fd5b7f00000000000000000000000000000000000000000000000000000000000000006001600160a01b031663d0e30db0346040518263ffffffff1660e01b81526004016000604051808303818588803b158015612ca457600080fd5b505af1158015612cb8573d6000803e3d6000fd5b5050506001600160a01b037f0000000000000000000000000000000000000000000000000000000000000000166000908152601160209081526040808320338452909152902054612d0c9250905034613cad565b7f00000000000000000000000000000000000000000000000000000000000000006001600160a01b031660009081526011602090815260408083203380855292529182902083905590517f4e2ca0515ed1aef1395f66b5303bb5d6f1bf9d61a353fa53f73f8ac9973fa9f692611b3b9273eeeeeeeeeeeeeeeeeeeeeeeeeeeeeeeeeeeeeeee929091349142906157c8565b505060018055565b600080546001600160a01b03163314612dd05760405162461bcd60e51b815260040161097d906155c3565b6000612dda6118ce565b6001600160a01b03861660009081526007602052604090205490915060ff16612e2a5760405162461bcd60e51b8152602060048201526002602482015261189b60f11b604482015260640161097d565b612e3585858561443a565b612e3e57600080fd5b6001915080612e4b6118ce565b1015612e8d5760405162461bcd60e51b8152602060048201526011602482015270496e76616c6964204c505420707269636560781b604482015260640161097d565b509392505050565b600060026001541415612eba5760405162461bcd60e51b815260040161097d906156be565b6002600155600083838281612ed157612ed1615633565b9050602002016020810190612ee6919061523e565b905060008484612ef76001826156f5565b818110612f0657612f06615633565b9050602002016020810190612f1b919061523e565b6001600160a01b0383166000908152601160209081526040808320338452909152902054909150871115612f615760405162461bcd60e51b815260040161097d9061570c565b7f00000000000000000000000000000000000000000000000000000000000000006001600160a01b0316826001600160a01b03161415612fde5760405162461bcd60e51b815260206004820152601860248201527726bab9ba1039bbb0b810333937b690212a21903a37b5b2b760411b604482015260640161097d565b6001600160a01b03821673eeeeeeeeeeeeeeeeeeeeeeeeeeeeeeeeeeeeeeee14156130435760405162461bcd60e51b815260206004820152601560248201527455736520706174682077455448202d3e207742544360581b604482015260640161097d565b7f00000000000000000000000000000000000000000000000000000000000000006001600160a01b0316816001600160a01b0316146130bd5760405162461bcd60e51b815260206004820152601660248201527526bab9ba1039bbb0b8103a3790212a21903a37b5b2b760511b604482015260640161097d565b6040516370a0823160e01b81523060048201526000906001600160a01b038316906370a082319060240160206040518083038186803b1580156130ff57600080fd5b505afa158015613113573d6000803e3d6000fd5b505050506040513d601f19601f820116820180604052508101906131379190615743565b6001600160a01b03841660009081526011602090815260408083203384529091529020549091506131689089613a14565b6001600160a01b03841660009081526011602090815260408083203384529091529020558a156131a5576131a08a8a8a8a8a8a613a27565b6131b1565b6131b188888888613b6d565b6040516370a0823160e01b81523060048201526131e39082906001600160a01b038516906370a0823190602401611371565b9350868410156132055760405162461bcd60e51b815260040161097d9061575c565b6003548410156132275760405162461bcd60e51b815260040161097d906157f9565b6132328d8d866141fc565b505050600180559998505050505050505050565b600080546001600160a01b031633146132715760405162461bcd60e51b815260040161097d906155c3565b7f0000000000000000000000000000000000000000000000000000000000000000871561338a5760006132a8886113c18b8a613a14565b6040516349e031a560e01b81529091506001600160a01b037f000000000000000000000000000000000000000000000000000000000000000016906349e031a5906132fc906000908a908a9060040161584d565b602060405180830381600087803b15801561331657600080fd5b505af115801561332a573d6000803e3d6000fd5b505050506040513d601f19601f8201168201806040525081019061334e91906156a1565b506133847f0000000000000000000000000000000000000000000000000000000000000000600061337f848c613cad565b6134c9565b50613393565b87613393575060005b61339d818761359f565b82156110125761101260008052600b602052600080516020615d2a83398151915254600a55565b6001600160a01b039182166000908152600b60205260408082205492909316815291909120549091565b6000546001600160a01b031633146134185760405162461bcd60e51b815260040161097d906155c3565b6001600160a01b03811661347d5760405162461bcd60e51b815260206004820152602660248201527f4f776e61626c653a206e6577206f776e657220697320746865207a65726f206160448201526564647265737360d01b606482015260840161097d565b613486816141ac565b50565b6002819055604080518281524260208201527fa1cc12e33e9907b789fd3c10ea0afd9d3e563e2db44d84c7269534f1046d1ca1910160405180910390a150565b6040805180820182526002815261313160f01b6020808301919091526001600160a01b0385166000908152600b9091529190912054613509918390614388565b6001600160a01b038084166000908152600b602052604080822093909355908516815220546135389082613cad565b6001600160a01b038481166000818152600b60209081526040918290209490945580519182529185169281019290925281018290527fea368a40e9570069bb8e6511d668293ad2e1f03b0d982431fd223de9f3b70ca69060600160405180910390a1505050565b806135a8575050565b7f00000000000000000000000000000000000000000000000000000000000000006001600160a01b0316826001600160a01b031614156136f95760405163a9059cbb60e01b81526001600160a01b037f000000000000000000000000000000000000000000000000000000000000000081166004830152602482018390527f0000000000000000000000000000000000000000000000000000000000000000169063a9059cbb90604401602060405180830381600087803b15801561366c57600080fd5b505af1158015613680573d6000803e3d6000fd5b505050506040513d601f19601f820116820180604052508101906136a491906156a1565b50604080516001600160a01b0384168152600060208201819052818301849052606082015290517fe3debe835f6848edc082b32a1d729781d3bfcd7e14422d80bcaa6794d3816b2f9181900360800190a15050565b60006137036118ce565b6001600160a01b0384166000908152600b60205260409020549091506137299083613cad565b6001600160a01b0384166000908152600b6020526040812091909155600854613763906064906119d590869062010000900460ff1661405c565b90506000613795836119d5847f000000000000000000000000000000000000000000000000000000000000000061405c565b6040516340c10f1960e01b81526001600160a01b037f000000000000000000000000000000000000000000000000000000000000000081166004830152602482018390529192507f0000000000000000000000000000000000000000000000000000000000000000909116906340c10f1990604401602060405180830381600087803b15801561382457600080fd5b505af1158015613838573d6000803e3d6000fd5b505050506040513d601f19601f8201168201806040525081019061385c91906156a1565b50604080516001600160a01b038716815260208101869052908101829052606081018490527fe3debe835f6848edc082b32a1d729781d3bfcd7e14422d80bcaa6794d3816b2f9060800160405180910390a15050505050565b60005b8151811015613919576001600c60008484815181106138d9576138d9615633565b6020026020010151815260200190815260200160002060006101000a81548160ff021916908315150217905550808061391190615686565b9150506138b8565b5050565b7f00000000000000000000000000000000000000000000000000000000000000006001600160a01b0316836001600160a01b0316141561398457613981817f000000000000000000000000000000000000000000000000000000000000000061405c565b90505b60405163a9059cbb60e01b81526001600160a01b0383811660048301526024820183905284169063a9059cbb90604401602060405180830381600087803b1580156139ce57600080fd5b505af11580156139e2573d6000803e3d6000fd5b505050506040513d601f19601f82011682018060405250810190613a0691906156a1565b613a0f57600080fd5b505050565b6000613a2082846156f5565b9392505050565b600082826000818110613a3c57613a3c615633565b9050602002016020810190613a51919061523e565b9050600073def171fe48cf0115b1d80b88dc8eab59176fee576001600160a01b031663d2c4b5986040518163ffffffff1660e01b815260040160206040518083038186803b158015613aa257600080fd5b505afa158015613ab6573d6000803e3d6000fd5b505050506040513d601f19601f82011682018060405250810190613ada91906158a5565b9050613af06001600160a01b038316828861461a565b604051633d59840d60e21b815273def171fe48cf0115b1d80b88dc8eab59176fee579063f566103490613b31908b908b908b908b908b908b90600401615900565b600060405180830381600087803b158015613b4b57600080fd5b505af1158015613b5f573d6000803e3d6000fd5b505050505050505050505050565b600082826000818110613b8257613b82615633565b9050602002016020810190613b97919061523e565b9050600073def171fe48cf0115b1d80b88dc8eab59176fee576001600160a01b031663d2c4b5986040518163ffffffff1660e01b815260040160206040518083038186803b158015613be857600080fd5b505afa158015613bfc573d6000803e3d6000fd5b505050506040513d601f19601f82011682018060405250810190613c2091906158a5565b9050613c366001600160a01b038316828861461a565b604051632a42068d60e11b815273def171fe48cf0115b1d80b88dc8eab59176fee57906354840d1a90613c73908990899089908990600401615940565b600060405180830381600087803b158015613c8d57600080fd5b505af1158015613ca1573d6000803e3d6000fd5b50505050505050505050565b6000613a20828461596a565b6000818152600c602052604081205460ff1615613cfd5760405162461bcd60e51b8152602060048201526002602482015261181b60f11b604482015260640161097d565b83613d2f5760405162461bcd60e51b8152602060048201526002602482015261303760f01b604482015260640161097d565b8360a081901c6000613d3f6118ce565b90506000613d717f00000000000000000000000000000000000000000000000000000000000000006119d5858561405c565b600854909150600090613d9790612710906119d59085906301000000900460ff1661405c565b905087613da48383613a14565b1015613dd75760405162461bcd60e51b8152602060048201526002602482015261303960f01b604482015260640161097d565b6000613de7896113c18585613a14565b9050600080613e1760007f00000000000000000000000000000000000000000000000000000000000000006133c4565b90925090506001600160a01b038d16613e6d57613e348585613a14565b821015613e685760405162461bcd60e51b8152602060048201526002602482015261060760f31b604482015260640161097d565b613ee5565b7f00000000000000000000000000000000000000000000000000000000000000006001600160a01b03168d6001600160a01b03161415613ee557613eb18585613a14565b811015613ee55760405162461bcd60e51b8152602060048201526002602482015261189960f11b604482015260640161097d565b613eef8d8561359f565b613ef98d866146db565b613f028a6143b4565b7f00000000000000000000000000000000000000000000000000000000000000006001600160a01b03168d6001600160a01b03161415613f4757613f478d898561391d565b604051630852cd8d60e31b8152600481018890527f00000000000000000000000000000000000000000000000000000000000000006001600160a01b0316906342966c6890602401602060405180830381600087803b158015613fa957600080fd5b505af1158015613fbd573d6000803e3d6000fd5b505050506040513d601f19601f82011682018060405250810190613fe191906156a1565b613fea57600080fd5b604080516001600160a01b038a16815260208101899052908101869052606081018790526080810184905260a081018b90527fa9da34e5e4a956b744307ae7611795634e8365951073bf049d76b64b2ae7a0589060c00160405180910390a15060019c9b505050505050505050505050565b6000613a208284615982565b6000613a2082846159a1565b600073def171fe48cf0115b1d80b88dc8eab59176fee576001600160a01b031663d2c4b5986040518163ffffffff1660e01b815260040160206040518083038186803b1580156140c357600080fd5b505afa1580156140d7573d6000803e3d6000fd5b505050506040513d601f19601f820116820180604052508101906140fb91906158a5565b9050614123816040840135614113602086018661523e565b6001600160a01b0316919061461a565b6040516354e3f31b60e01b815273def171fe48cf0115b1d80b88dc8eab59176fee57906354e3f31b9061415a908590600401615ac7565b602060405180830381600087803b15801561417457600080fd5b505af1158015614188573d6000803e3d6000fd5b505050506040513d601f19601f82011682018060405250810190613a0f9190615743565b600080546001600160a01b038381166001600160a01b0319831681178455604051919092169283917f8be0079c531659141344cd1fd0a4f28419497f9722a3daafe3b4186f6b6457e09190a35050565b60007f00000000000000000000000000000000000000000000000000000000000000006005548585854260405160200161423b96959493929190615c7d565b6040516020818303038152906040528051906020012090506040518060a0016040528082815260200185858080601f0160208091040260200160405190810160405280939291908181526020018383808284376000920182905250938552505033602080850191909152604080850188905242606090950194909452600554835260048152929091208351815583830151805191936142e293506001850192910190614af0565b5060408201516002820180546001600160a01b0319166001600160a01b039092169190911790556060820151600382015560809091015160049091015561432761473b565b600554614335906001613cad565b600555614341826147f4565b7faaa4c278970337923c885845b00985ecf5082317e2f9abf72a27b4d35255d67281858533864260405161437a96959493929190615cb9565b60405180910390a150505050565b600081848411156143ac5760405162461bcd60e51b815260040161097d9190615cfa565b505050900390565b6000908152600c60205260409020805460ff19166001179055565b6040516001600160a01b03808516602483015283166044820152606481018290526117d69085906323b872dd60e01b906084015b60408051601f198184030181529190526020810180516001600160e01b03166001600160e01b031990931692909217909152614849565b6000818152600c602052604081205460ff161561447e5760405162461bcd60e51b8152602060048201526002602482015261181b60f11b604482015260640161097d565b826144b05760405162461bcd60e51b8152602060048201526002602482015261303760f01b604482015260640161097d565b8260a081901c60006144c06118ce565b905060006144f2826119d5857f000000000000000000000000000000000000000000000000000000000000000061405c565b6040516340c10f1960e01b81526001600160a01b038681166004830152602482018390529192507f0000000000000000000000000000000000000000000000000000000000000000909116906340c10f1990604401602060405180830381600087803b15801561456157600080fd5b505af1158015614575573d6000803e3d6000fd5b505050506040513d601f19601f8201168201806040525081019061459991906156a1565b506145a4888461491b565b6145ad866143b4565b604080516001600160a01b038616815260208101859052908101829052606081018390526000608082015260a081018790527fdfaf4e23f7030adafec91a682e05bf9fb30c721f9cec3d8bcfae0459c5362db19060c00160405180910390a1506001979650505050505050565b604051636eb1769f60e11b81523060048201526001600160a01b038381166024830152600091839186169063dd62ed3e9060440160206040518083038186803b15801561466657600080fd5b505afa15801561467a573d6000803e3d6000fd5b505050506040513d601f19601f8201168201806040525081019061469e9190615743565b6146a8919061596a565b6040516001600160a01b0385166024820152604481018290529091506117d690859063095ea7b360e01b90606401614403565b6040805180820182526002815261031360f41b6020808301919091526001600160a01b0385166000908152600b909152919091205461471b918390614388565b6001600160a01b039092166000908152600b602052604090209190915550565b60065460009061474c90600a613cad565b9050600554811061475c57506005545b60065442905b82811015613a0f5760025460008281526004602081905260409091200154839161478c9190613cad565b10156147e2576000818152600460205260408120818155906147b16001830182614ab6565b506002810180546001600160a01b03191690556000600382018190556004909101556147de816001613cad565b6006555b806147ec81615686565b915050614762565b600a5461481c5761481c60008052600b602052600080516020615d2a83398151915254600a55565b604080518082019091526002815261189960f11b6020820152600a54614843918390614388565b600a5550565b600061489e826040518060400160405280602081526020017f5361666545524332303a206c6f772d6c6576656c2063616c6c206661696c6564815250856001600160a01b031661493e9092919063ffffffff16565b805190915015613a0f57808060200190518101906148bc91906156a1565b613a0f5760405162461bcd60e51b815260206004820152602a60248201527f5361666545524332303a204552433230206f7065726174696f6e20646964206e6044820152691bdd081cdd58d8d9595960b21b606482015260840161097d565b6001600160a01b0382166000908152600b602052604090205461471b9082613cad565b606061494d8484600085614955565b949350505050565b6060824710156149b65760405162461bcd60e51b815260206004820152602660248201527f416464726573733a20696e73756666696369656e742062616c616e636520666f6044820152651c8818d85b1b60d21b606482015260840161097d565b843b614a045760405162461bcd60e51b815260206004820152601d60248201527f416464726573733a2063616c6c20746f206e6f6e2d636f6e7472616374000000604482015260640161097d565b600080866001600160a01b03168587604051614a209190615d0d565b60006040518083038185875af1925050503d8060008114614a5d576040519150601f19603f3d011682016040523d82523d6000602084013e614a62565b606091505b5091509150614a72828286614a7d565b979650505050505050565b60608315614a8c575081613a20565b825115614a9c5782518084602001fd5b8160405162461bcd60e51b815260040161097d9190615cfa565b508054614ac290615793565b6000825580601f10614ad2575050565b601f0160209004906000526020600020908101906134869190614b74565b828054614afc90615793565b90600052602060002090601f016020900481019282614b1e5760008555614b64565b82601f10614b3757805160ff1916838001178555614b64565b82800160010185558215614b64579182015b82811115614b64578251825591602001919060010190614b49565b50614b70929150614b74565b5090565b5b80821115614b705760008155600101614b75565b634e487b7160e01b600052600160045260246000fd5b6001600160a01b038116811461348657600080fd5b8035614bbf81614b9f565b919050565b634e487b7160e01b600052604160045260246000fd5b604051601f8201601f191681016001600160401b0381118282101715614c0257614c02614bc4565b604052919050565b60006001600160401b03821115614c2357614c23614bc4565b5060051b60200190565b600082601f830112614c3e57600080fd5b81356020614c53614c4e83614c0a565b614bda565b82815260059290921b84018101918181019086841115614c7257600080fd5b8286015b84811015614c96578035614c8981614b9f565b8352918301918301614c76565b509695505050505050565b801515811461348657600080fd5b8035614bbf81614ca1565b600082601f830112614ccb57600080fd5b81356020614cdb614c4e83614c0a565b82815260059290921b84018101918181019086841115614cfa57600080fd5b8286015b84811015614c96578035614d1181614ca1565b8352918301918301614cfe565b803560ff81168114614bbf57600080fd5b6000806000806000806000806000806101408b8d031215614d4f57600080fd5b614d588b614bb4565b995060208b01356001600160401b0380821115614d7457600080fd5b614d808e838f01614c2d565b9a5060408d0135915080821115614d9657600080fd5b50614da38d828e01614cba565b985050614db260608c01614d1e565b9650614dc060808c01614d1e565b9550614dce60a08c01614d1e565b9450614ddc60c08c01614d1e565b935060e08b013592506101008b013591506101208b013590509295989b9194979a5092959850565b600082601f830112614e1557600080fd5b81356020614e25614c4e83614c0a565b82815260059290921b84018101918181019086841115614e4457600080fd5b8286015b84811015614c965780358352918301918301614e48565b60008060008060008060c08789031215614e7857600080fd5b8635614e8381614b9f565b95506020870135614e9381614b9f565b945060408701359350606087013592506080870135915060a08701356001600160401b03811115614ec357600080fd5b614ecf89828a01614e04565b9150509295509295509295565b60008083601f840112614eee57600080fd5b5081356001600160401b03811115614f0557600080fd5b6020830191508360208260051b8501011115614f2057600080fd5b9250929050565b600080600080600080600060c0888a031215614f4257600080fd5b8735614f4d81614ca1565b96506020880135614f5d81614b9f565b955060408801359450606088013593506080880135925060a08801356001600160401b03811115614f8d57600080fd5b614f998a828b01614edc565b989b979a50959850939692959293505050565b600060208284031215614fbe57600080fd5b5035919050565b60005b83811015614fe0578181015183820152602001614fc8565b838111156117d65750506000910152565b60008151808452615009816020860160208601614fc5565b601f01601f19169290920160200192915050565b85815260a06020820152600061503660a0830187614ff1565b6001600160a01b0395909516604083015250606081019290925260809091015292915050565b60006020808301818452808551808352604092508286019150828160051b87010184880160005b838110156150ec57603f19898403018552815160a08151855288820151818a8701526150b182870182614ff1565b838a01516001600160a01b0316878b015260608085015190880152608093840151939096019290925250509386019390860190600101615083565b509098975050505050505050565b6000806000806080858703121561511057600080fd5b843561511b81614b9f565b966020860135965060408601359560600135945092505050565b6000806040838503121561514857600080fd5b823561515381614b9f565b946020939093013593505050565b6000806040838503121561517457600080fd5b823561517f81614b9f565b9150602083013561518f81614b9f565b809150509250929050565b60006101e082840312156151ad57600080fd5b50919050565b6000602082840312156151c557600080fd5b81356001600160401b038111156151db57600080fd5b61494d8482850161519a565b600081518084526020808501945080840160005b838110156152205781516001600160a01b0316875295820195908201906001016151fb565b509495945050505050565b602081526000613a2060208301846151e7565b60006020828403121561525057600080fd5b8135613a2081614b9f565b6000806000806080858703121561527157600080fd5b843561527c81614b9f565b9350602085013592506040850135915060608501356001600160401b038111156152a557600080fd5b6152b187828801614e04565b91505092959194509250565b60008083601f8401126152cf57600080fd5b5081356001600160401b038111156152e657600080fd5b602083019150836020828501011115614f2057600080fd5b60008060006040848603121561531357600080fd5b83356001600160401b038082111561532a57600080fd5b615336878388016152bd565b9095509350602086013591508082111561534f57600080fd5b5061535c8682870161519a565b9150509250925092565b6000806000806080858703121561537c57600080fd5b84356001600160401b038082111561539357600080fd5b61539f88838901614e04565b9550602087013594506040870135935060608701359150808211156153c357600080fd5b506152b187828801614e04565b600080604083850312156153e357600080fd5b50508035926020909101359150565b60008060006060848603121561540757600080fd5b833561541281614b9f565b95602085013595506040909401359392505050565b600080600080600080600080600060e08a8c03121561544557600080fd5b89356001600160401b038082111561545c57600080fd5b6154688d838e016152bd565b909b50995060208c0135915061547d82614ca1565b90975060408b01359061548f82614b9f565b90965060608b0135955060808b0135945060a08b0135935060c08b013590808211156154ba57600080fd5b506154c78c828d01614edc565b915080935050809150509295985092959850929598565b60008060008060008060c087890312156154f757600080fd5b8635955060208088013595506040880135945060608801356001600160401b038082111561552457600080fd5b6155308b838c01614c2d565b955060808a013591508082111561554657600080fd5b508801601f81018a1361555857600080fd5b8035615566614c4e82614c0a565b81815260059190911b8201830190838101908c83111561558557600080fd5b928401925b828410156155a35783358252928401929084019061558a565b80965050505050506155b760a08801614caf565b90509295509295509295565b6020808252818101527f4f776e61626c653a2063616c6c6572206973206e6f7420746865206f776e6572604082015260600190565b634e487b7160e01b600052601160045260246000fd5b600060ff821660ff84168060ff0382111561562b5761562b6155f8565b019392505050565b634e487b7160e01b600052603260045260246000fd5b600060ff821660ff811415615660576156606155f8565b60010192915050565b600060ff82168061567c5761567c6155f8565b6000190192915050565b600060001982141561569a5761569a6155f8565b5060010190565b6000602082840312156156b357600080fd5b8151613a2081614ca1565b6020808252601f908201527f5265656e7472616e637947756172643a207265656e7472616e742063616c6c00604082015260600190565b600082821015615707576157076155f8565b500390565b60208082526019908201527f42616c616e6365206973206e6f742073756666696369656e7400000000000000604082015260600190565b60006020828403121561575557600080fd5b5051919050565b6020808252601c908201527f526563656976656420616d6f756e7420696e73756666696369656e7400000000604082015260600190565b600181811c908216806157a757607f821691505b602082108114156151ad57634e487b7160e01b600052602260045260246000fd5b6001600160a01b03958616815293909416602084015260408301919091526060820152608081019190915260a00190565b60208082526034908201527f526563656976656420616d6f756e7420686173206e6f74206d657420746865206040820152736d696e20666f7220464c4f57203220737761707360601b606082015260800190565b6001600160a01b038416815260606020808301829052600091615872908401866151e7565b838103604085015284518082528286019183019060005b818110156150ec57835183529284019291840191600101615889565b6000602082840312156158b757600080fd5b8151613a2081614b9f565b8183526000602080850194508260005b858110156152205781356158e581614b9f565b6001600160a01b0316875295820195908201906001016158d2565b60018060a01b038716815285602082015284604082015283606082015260a06080820152600061593460a0830184866158c2565b98975050505050505050565b8481528360208201526060604082015260006159606060830184866158c2565b9695505050505050565b6000821982111561597d5761597d6155f8565b500190565b600081600019048311821515161561599c5761599c6155f8565b500290565b6000826159be57634e487b7160e01b600052601260045260246000fd5b500490565b6000808335601e198436030181126159da57600080fd5b83016020810192503590506001600160401b038111156159f957600080fd5b8060051b3603831315614f2057600080fd5b6000808335601e19843603018112615a2257600080fd5b83016020810192503590506001600160401b03811115615a4157600080fd5b803603831315614f2057600080fd5b81835281816020850137506000828201602090810191909152601f909101601f19169091010190565b81835260006001600160fb1b03831115615a9257600080fd5b8260051b8083602087013760009401602001938452509192915050565b80356001600160801b031981168114614bbf57600080fd5b60208152615ae860208201615adb84614bb4565b6001600160a01b03169052565b6000615af660208401614bb4565b6001600160a01b0381166040840152506040830135606083015260608301356080830152608083013560a0830152615b3160a08401846159c3565b6101e08060c0860152615b49610200860183856158c2565b9250615b5860c0870187615a0b565b9250601f19808786030160e0880152615b72858584615a50565b9450615b8160e08901896159c3565b94509150610100818887030181890152615b9c868685615a79565b9550615baa818a018a6159c3565b9550925050610120818887030181890152615bc6868685615a79565b9550615bd3818a01614bb4565b9450506101409150615bef828801856001600160a01b03169052565b615bfa828901614bb4565b93506101609150615c15828801856001600160a01b03169052565b61018093508188013584880152615c2e84890189615a0b565b945091506101a0818887030181890152615c49868685615a50565b95506101c094508089013585890152505050615c66828701615aaf565b6001600160801b0319169401939093529392505050565b6bffffffffffffffffffffffff198760601b16815285601482015283856034830137603493019283019190915260548201526074019392505050565b86815260a060208201526000615cd360a083018789615a50565b6001600160a01b039590951660408301525060608101929092526080909101529392505050565b602081526000613a206020830184614ff1565b60008251615d1f818460208701614fc5565b919091019291505056fedf7de25b7f1fd6d0b5205f0e18f1f35bd7b8d84cce336588d184533ce43a6f76a26469706673582212202d35e58e348f3e1b9a156b886717286c895ac5acdc6458ed97fb86c34ee264e164736f6c63430008090033",
  "linkReferences": {},
  "deployedLinkReferences": {}
}