{
  "_format": "hh-sol-artifact-1",
  "contractName": "SwapContract",
  "sourceName": "contracts/SwapContract.sol",
  "abi": [
    {
      "inputs": [
        {
          "internalType": "address",
          "name": "_lpToken",
          "type": "address"
        },
        {
          "internalType": "address",
          "name": "_btct",
          "type": "address"
        },
        {
          "internalType": "address",
          "name": "_wETH",
          "type": "address"
        },
        {
          "internalType": "address",
          "name": "_sbBTCPool",
          "type": "address"
        },
        {
          "internalType": "address",
          "name": "_params",
          "type": "address"
        },
        {
          "internalType": "address",
          "name": "_swapRewards",
          "type": "address"
        },
        {
          "internalType": "uint256",
          "name": "_existingBTCFloat",
          "type": "uint256"
        }
      ],
      "stateMutability": "nonpayable",
      "type": "constructor"
    },
    {
      "anonymous": false,
      "inputs": [
        {
          "indexed": false,
          "internalType": "address",
          "name": "token",
          "type": "address"
        },
        {
          "indexed": false,
          "internalType": "uint256",
          "name": "amountOfLP",
          "type": "uint256"
        },
        {
          "indexed": false,
          "internalType": "uint256",
          "name": "amountOfFloat",
          "type": "uint256"
        },
        {
          "indexed": false,
          "internalType": "uint256",
          "name": "currentPriceLP",
          "type": "uint256"
        },
        {
          "indexed": false,
          "internalType": "uint256",
          "name": "withdrawal",
          "type": "uint256"
        },
        {
          "indexed": false,
          "internalType": "bytes32",
          "name": "txid",
          "type": "bytes32"
        }
      ],
      "name": "BurnLPTokensForFloat",
      "type": "event"
    },
    {
      "anonymous": false,
      "inputs": [
        {
          "indexed": false,
          "internalType": "address",
          "name": "token",
          "type": "address"
        },
        {
          "indexed": false,
          "internalType": "address",
          "name": "user",
          "type": "address"
        },
        {
          "indexed": false,
          "internalType": "uint256",
          "name": "amount",
          "type": "uint256"
        },
        {
          "indexed": false,
          "internalType": "uint256",
          "name": "balance",
          "type": "uint256"
        },
        {
          "indexed": false,
          "internalType": "uint256",
          "name": "Timestamp",
          "type": "uint256"
        }
      ],
      "name": "Deposit",
      "type": "event"
    },
    {
      "anonymous": false,
      "inputs": [
        {
          "indexed": false,
          "internalType": "uint256",
          "name": "rewardLPTsForNodes",
          "type": "uint256"
        }
      ],
      "name": "DistributeNodeRewards",
      "type": "event"
    },
    {
      "anonymous": false,
      "inputs": [
        {
          "indexed": false,
          "internalType": "address",
          "name": "to",
          "type": "address"
        },
        {
          "indexed": false,
          "internalType": "uint256",
          "name": "amountOfFloat",
          "type": "uint256"
        },
        {
          "indexed": false,
          "internalType": "uint256",
          "name": "amountOfLP",
          "type": "uint256"
        },
        {
          "indexed": false,
          "internalType": "uint256",
          "name": "currentPriceLP",
          "type": "uint256"
        },
        {
          "indexed": false,
          "internalType": "uint256",
          "name": "depositFees",
          "type": "uint256"
        },
        {
          "indexed": false,
          "internalType": "bytes32",
          "name": "txid",
          "type": "bytes32"
        }
      ],
      "name": "IssueLPTokensForFloat",
      "type": "event"
    },
    {
      "anonymous": false,
      "inputs": [
        {
          "indexed": true,
          "internalType": "address",
          "name": "previousOwner",
          "type": "address"
        },
        {
          "indexed": true,
          "internalType": "address",
          "name": "newOwner",
          "type": "address"
        }
      ],
      "name": "OwnershipTransferred",
      "type": "event"
    },
    {
      "anonymous": false,
      "inputs": [
        {
          "indexed": false,
          "internalType": "address",
          "name": "feesToken",
          "type": "address"
        },
        {
          "indexed": false,
          "internalType": "uint256",
          "name": "rewards",
          "type": "uint256"
        },
        {
          "indexed": false,
          "internalType": "uint256",
          "name": "amountLPTokensForNode",
          "type": "uint256"
        },
        {
          "indexed": false,
          "internalType": "uint256",
          "name": "currentPriceLP",
          "type": "uint256"
        }
      ],
      "name": "RewardsCollection",
      "type": "event"
    },
    {
      "anonymous": false,
      "inputs": [
        {
          "indexed": false,
          "internalType": "address",
          "name": "from",
          "type": "address"
        },
        {
          "indexed": false,
          "internalType": "address",
          "name": "to",
          "type": "address"
        },
        {
          "indexed": false,
          "internalType": "uint256",
          "name": "amount",
          "type": "uint256"
        }
      ],
      "name": "Swap",
      "type": "event"
    },
    {
      "anonymous": false,
      "inputs": [
        {
          "indexed": false,
          "internalType": "bytes32",
          "name": "SwapID",
          "type": "bytes32"
        },
        {
          "indexed": false,
          "internalType": "string",
          "name": "DestAddr",
          "type": "string"
        },
        {
          "indexed": false,
          "internalType": "address",
          "name": "RefundAddr",
          "type": "address"
        },
        {
          "indexed": false,
          "internalType": "uint256",
          "name": "AmountWBTC",
          "type": "uint256"
        },
        {
          "indexed": false,
          "internalType": "uint256",
          "name": "Timestamp",
          "type": "uint256"
        }
      ],
      "name": "SwapTokensToBTC",
      "type": "event"
    },
    {
      "anonymous": false,
      "inputs": [
        {
          "indexed": false,
          "internalType": "address",
          "name": "token",
          "type": "address"
        },
        {
          "indexed": false,
          "internalType": "address",
          "name": "user",
          "type": "address"
        },
        {
          "indexed": false,
          "internalType": "uint256",
          "name": "amount",
          "type": "uint256"
        },
        {
          "indexed": false,
          "internalType": "uint256",
          "name": "balance",
          "type": "uint256"
        },
        {
          "indexed": false,
          "internalType": "uint256",
          "name": "Timestamp",
          "type": "uint256"
        }
      ],
      "name": "Withdraw",
      "type": "event"
    },
    {
      "stateMutability": "nonpayable",
      "type": "fallback"
    },
    {
      "inputs": [],
      "name": "BTCT_ADDR",
      "outputs": [
        {
          "internalType": "address",
          "name": "",
          "type": "address"
        }
      ],
      "stateMutability": "view",
      "type": "function"
    },
    {
      "inputs": [],
      "name": "activeNodeCount",
      "outputs": [
        {
          "internalType": "uint8",
          "name": "",
          "type": "uint8"
        }
      ],
      "stateMutability": "view",
      "type": "function"
    },
    {
      "inputs": [
        {
          "internalType": "address",
          "name": "_token",
          "type": "address"
        },
        {
          "internalType": "address",
          "name": "_user",
          "type": "address"
        }
      ],
      "name": "balanceOf",
      "outputs": [
        {
          "internalType": "uint256",
          "name": "",
          "type": "uint256"
        }
      ],
      "stateMutability": "view",
      "type": "function"
    },
    {
      "inputs": [
        {
          "internalType": "address",
          "name": "_newOwner",
          "type": "address"
        },
        {
          "internalType": "address[]",
          "name": "_nodes",
          "type": "address[]"
        },
        {
          "internalType": "bool[]",
          "name": "_isRemoved",
          "type": "bool[]"
        },
        {
          "internalType": "uint8",
          "name": "_churnedInCount",
          "type": "uint8"
        },
        {
          "internalType": "uint8",
          "name": "_tssThreshold",
          "type": "uint8"
        },
        {
          "internalType": "uint256",
          "name": "_totalStakedAmount",
          "type": "uint256"
        }
      ],
      "name": "churn",
      "outputs": [
        {
          "internalType": "bool",
          "name": "",
          "type": "bool"
        }
      ],
      "stateMutability": "nonpayable",
      "type": "function"
    },
    {
      "inputs": [],
      "name": "churnedInCount",
      "outputs": [
        {
          "internalType": "uint8",
          "name": "",
          "type": "uint8"
        }
      ],
      "stateMutability": "view",
      "type": "function"
    },
    {
      "inputs": [
        {
          "internalType": "uint256",
          "name": "_incomingAmount",
          "type": "uint256"
        },
        {
          "internalType": "uint256",
          "name": "_minerFee",
          "type": "uint256"
        },
        {
          "internalType": "uint256",
          "name": "_rewardsAmount",
          "type": "uint256"
        },
        {
          "internalType": "address[]",
          "name": "_spenders",
          "type": "address[]"
        },
        {
          "internalType": "uint256[]",
          "name": "_swapAmounts",
          "type": "uint256[]"
        },
        {
          "internalType": "bool",
          "name": "_isUpdatelimitBTCForSPFlow2",
          "type": "bool"
        }
      ],
      "name": "collectSwapFeesForBTC",
      "outputs": [
        {
          "internalType": "bool",
          "name": "",
          "type": "bool"
        }
      ],
      "stateMutability": "nonpayable",
      "type": "function"
    },
    {
      "inputs": [],
      "name": "getActiveNodes",
      "outputs": [
        {
          "internalType": "address[]",
          "name": "",
          "type": "address[]"
        }
      ],
      "stateMutability": "view",
      "type": "function"
    },
    {
      "inputs": [],
      "name": "getCurrentPriceLP",
      "outputs": [
        {
          "internalType": "uint256",
          "name": "nowPrice",
          "type": "uint256"
        }
      ],
      "stateMutability": "view",
      "type": "function"
    },
    {
      "inputs": [
        {
          "internalType": "address",
          "name": "_tokenA",
          "type": "address"
        },
        {
          "internalType": "address",
          "name": "_tokenB",
          "type": "address"
        }
      ],
      "name": "getFloatReserve",
      "outputs": [
        {
          "internalType": "uint256",
          "name": "reserveA",
          "type": "uint256"
        },
        {
          "internalType": "uint256",
          "name": "reserveB",
          "type": "uint256"
        }
      ],
      "stateMutability": "view",
      "type": "function"
    },
    {
      "inputs": [],
      "name": "initialExchangeRate",
      "outputs": [
        {
          "internalType": "uint256",
          "name": "",
          "type": "uint256"
        }
      ],
      "stateMutability": "view",
      "type": "function"
    },
    {
      "inputs": [],
      "name": "ip",
      "outputs": [
        {
          "internalType": "contract IParams",
          "name": "",
          "type": "address"
        }
      ],
      "stateMutability": "view",
      "type": "function"
    },
    {
      "inputs": [
        {
          "internalType": "address",
          "name": "_user",
          "type": "address"
        }
      ],
      "name": "isNodeStake",
      "outputs": [
        {
          "internalType": "bool",
          "name": "",
          "type": "bool"
        }
      ],
      "stateMutability": "view",
      "type": "function"
    },
    {
      "inputs": [
        {
          "internalType": "bytes32",
          "name": "_txid",
          "type": "bytes32"
        }
      ],
      "name": "isTxUsed",
      "outputs": [
        {
          "internalType": "bool",
          "name": "",
          "type": "bool"
        }
      ],
      "stateMutability": "view",
      "type": "function"
    },
    {
      "inputs": [],
      "name": "limitBTCForSPFlow2",
      "outputs": [
        {
          "internalType": "uint256",
          "name": "",
          "type": "uint256"
        }
      ],
      "stateMutability": "view",
      "type": "function"
    },
    {
      "inputs": [],
      "name": "lpToken",
      "outputs": [
        {
          "internalType": "address",
          "name": "",
          "type": "address"
        }
      ],
      "stateMutability": "view",
      "type": "function"
    },
    {
      "inputs": [
        {
          "internalType": "bytes32[]",
          "name": "_addressesAndAmounts",
          "type": "bytes32[]"
        },
        {
          "internalType": "uint256",
          "name": "_totalSwapped",
          "type": "uint256"
        },
        {
          "internalType": "uint256",
          "name": "_rewardsAmount",
          "type": "uint256"
        },
        {
          "internalType": "bytes32[]",
          "name": "_usedTxIds",
          "type": "bytes32[]"
        }
      ],
      "name": "multiRecordSkyPoolsTX",
      "outputs": [
        {
          "internalType": "bool",
          "name": "",
          "type": "bool"
        }
      ],
      "stateMutability": "nonpayable",
      "type": "function"
    },
    {
      "inputs": [],
      "name": "oldestActiveIndex",
      "outputs": [
        {
          "internalType": "uint256",
          "name": "",
          "type": "uint256"
        }
      ],
      "stateMutability": "view",
      "type": "function"
    },
    {
      "inputs": [],
      "name": "owner",
      "outputs": [
        {
          "internalType": "address",
          "name": "",
          "type": "address"
        }
      ],
      "stateMutability": "view",
      "type": "function"
    },
    {
      "inputs": [],
      "name": "params",
      "outputs": [
        {
          "internalType": "address",
          "name": "",
          "type": "address"
        }
      ],
      "stateMutability": "view",
      "type": "function"
    },
    {
      "inputs": [
        {
          "internalType": "address",
          "name": "_token",
          "type": "address"
        },
        {
          "internalType": "bytes32",
          "name": "_addressesAndAmountOfFloat",
          "type": "bytes32"
        },
        {
          "internalType": "bytes32",
          "name": "_txid",
          "type": "bytes32"
        }
      ],
      "name": "recordIncomingFloat",
      "outputs": [
        {
          "internalType": "bool",
          "name": "",
          "type": "bool"
        }
      ],
      "stateMutability": "nonpayable",
      "type": "function"
    },
    {
      "inputs": [
        {
          "internalType": "address",
          "name": "_token",
          "type": "address"
        },
        {
          "internalType": "bytes32",
          "name": "_addressesAndAmountOfLPtoken",
          "type": "bytes32"
        },
        {
          "internalType": "uint256",
          "name": "_minerFee",
          "type": "uint256"
        },
        {
          "internalType": "bytes32",
          "name": "_txid",
          "type": "bytes32"
        }
      ],
      "name": "recordOutcomingFloat",
      "outputs": [
        {
          "internalType": "bool",
          "name": "",
          "type": "bool"
        }
      ],
      "stateMutability": "nonpayable",
      "type": "function"
    },
    {
      "inputs": [
        {
          "internalType": "address",
          "name": "_to",
          "type": "address"
        },
        {
          "internalType": "uint256",
          "name": "_totalSwapped",
          "type": "uint256"
        },
        {
          "internalType": "uint256",
          "name": "_rewardsAmount",
          "type": "uint256"
        },
        {
          "internalType": "bytes32[]",
          "name": "_usedTxIds",
          "type": "bytes32[]"
        }
      ],
      "name": "recordSkyPoolsTX",
      "outputs": [
        {
          "internalType": "bool",
          "name": "",
          "type": "bool"
        }
      ],
      "stateMutability": "nonpayable",
      "type": "function"
    },
    {
      "inputs": [
        {
          "internalType": "uint256",
          "name": "_minerFee",
          "type": "uint256"
        },
        {
          "internalType": "bytes32",
          "name": "_txid",
          "type": "bytes32"
        }
      ],
      "name": "recordUTXOSweepMinerFee",
      "outputs": [
        {
          "internalType": "bool",
          "name": "",
          "type": "bool"
        }
      ],
      "stateMutability": "nonpayable",
      "type": "function"
    },
    {
      "inputs": [
        {
          "internalType": "address",
          "name": "_token",
          "type": "address"
        },
        {
          "internalType": "uint256",
          "name": "_amount",
          "type": "uint256"
        }
      ],
      "name": "redeemERC20Token",
      "outputs": [],
      "stateMutability": "nonpayable",
      "type": "function"
    },
    {
      "inputs": [
        {
          "internalType": "uint256",
          "name": "_amount",
          "type": "uint256"
        }
      ],
      "name": "redeemEther",
      "outputs": [],
      "stateMutability": "nonpayable",
      "type": "function"
    },
    {
      "inputs": [],
      "name": "renounceOwnership",
      "outputs": [],
      "stateMutability": "nonpayable",
      "type": "function"
    },
    {
      "inputs": [],
      "name": "sbBTCPool",
      "outputs": [
        {
          "internalType": "address",
          "name": "",
          "type": "address"
        }
      ],
      "stateMutability": "view",
      "type": "function"
    },
    {
      "inputs": [
        {
          "internalType": "address",
          "name": "_destToken",
          "type": "address"
        },
        {
          "internalType": "address",
          "name": "_to",
          "type": "address"
        },
        {
          "internalType": "uint256",
          "name": "_amount",
          "type": "uint256"
        },
        {
          "internalType": "uint256",
          "name": "_totalSwapped",
          "type": "uint256"
        },
        {
          "internalType": "uint256",
          "name": "_rewardsAmount",
          "type": "uint256"
        },
        {
          "internalType": "bytes32[]",
          "name": "_redeemedFloatTxIds",
          "type": "bytes32[]"
        }
      ],
      "name": "singleTransferERC20",
      "outputs": [
        {
          "internalType": "bool",
          "name": "",
          "type": "bool"
        }
      ],
      "stateMutability": "nonpayable",
      "type": "function"
    },
    {
      "inputs": [],
      "name": "spCleanUpOldTXs",
      "outputs": [],
      "stateMutability": "nonpayable",
      "type": "function"
    },
    {
      "inputs": [
        {
          "internalType": "address",
          "name": "_token",
          "type": "address"
        },
        {
          "internalType": "uint256",
          "name": "_amount",
          "type": "uint256"
        }
      ],
      "name": "spDeposit",
      "outputs": [],
      "stateMutability": "payable",
      "type": "function"
    },
    {
      "inputs": [
        {
          "components": [
            {
              "internalType": "address",
              "name": "fromToken",
              "type": "address"
            },
            {
              "internalType": "address",
              "name": "toToken",
              "type": "address"
            },
            {
              "internalType": "uint256",
              "name": "fromAmount",
              "type": "uint256"
            },
            {
              "internalType": "uint256",
              "name": "toAmount",
              "type": "uint256"
            },
            {
              "internalType": "uint256",
              "name": "expectedAmount",
              "type": "uint256"
            },
            {
              "internalType": "address[]",
              "name": "callees",
              "type": "address[]"
            },
            {
              "internalType": "bytes",
              "name": "exchangeData",
              "type": "bytes"
            },
            {
              "internalType": "uint256[]",
              "name": "startIndexes",
              "type": "uint256[]"
            },
            {
              "internalType": "uint256[]",
              "name": "values",
              "type": "uint256[]"
            },
            {
              "internalType": "address payable",
              "name": "beneficiary",
              "type": "address"
            },
            {
              "internalType": "address payable",
              "name": "partner",
              "type": "address"
            },
            {
              "internalType": "uint256",
              "name": "feePercent",
              "type": "uint256"
            },
            {
              "internalType": "bytes",
              "name": "permit",
              "type": "bytes"
            },
            {
              "internalType": "uint256",
              "name": "deadline",
              "type": "uint256"
            },
            {
              "internalType": "bytes16",
              "name": "uuid",
              "type": "bytes16"
            }
          ],
          "internalType": "struct Utils.SimpleData",
          "name": "_data",
          "type": "tuple"
        }
      ],
      "name": "spFlow1SimpleSwap",
      "outputs": [],
      "stateMutability": "nonpayable",
      "type": "function"
    },
    {
      "inputs": [
        {
          "internalType": "bool",
          "name": "_fork",
          "type": "bool"
        },
        {
          "internalType": "address",
          "name": "_factory",
          "type": "address"
        },
        {
          "internalType": "bytes32",
          "name": "_initCode",
          "type": "bytes32"
        },
        {
          "internalType": "uint256",
          "name": "_amountIn",
          "type": "uint256"
        },
        {
          "internalType": "uint256",
          "name": "_amountOutMin",
          "type": "uint256"
        },
        {
          "internalType": "address[]",
          "name": "_path",
          "type": "address[]"
        }
      ],
      "name": "spFlow1Uniswap",
      "outputs": [
        {
          "internalType": "uint256",
          "name": "receivedAmount",
          "type": "uint256"
        }
      ],
      "stateMutability": "nonpayable",
      "type": "function"
    },
    {
      "inputs": [
        {
          "internalType": "string",
          "name": "_destinationAddressForBTC",
          "type": "string"
        },
        {
          "components": [
            {
              "internalType": "address",
              "name": "fromToken",
              "type": "address"
            },
            {
              "internalType": "address",
              "name": "toToken",
              "type": "address"
            },
            {
              "internalType": "uint256",
              "name": "fromAmount",
              "type": "uint256"
            },
            {
              "internalType": "uint256",
              "name": "toAmount",
              "type": "uint256"
            },
            {
              "internalType": "uint256",
              "name": "expectedAmount",
              "type": "uint256"
            },
            {
              "internalType": "address[]",
              "name": "callees",
              "type": "address[]"
            },
            {
              "internalType": "bytes",
              "name": "exchangeData",
              "type": "bytes"
            },
            {
              "internalType": "uint256[]",
              "name": "startIndexes",
              "type": "uint256[]"
            },
            {
              "internalType": "uint256[]",
              "name": "values",
              "type": "uint256[]"
            },
            {
              "internalType": "address payable",
              "name": "beneficiary",
              "type": "address"
            },
            {
              "internalType": "address payable",
              "name": "partner",
              "type": "address"
            },
            {
              "internalType": "uint256",
              "name": "feePercent",
              "type": "uint256"
            },
            {
              "internalType": "bytes",
              "name": "permit",
              "type": "bytes"
            },
            {
              "internalType": "uint256",
              "name": "deadline",
              "type": "uint256"
            },
            {
              "internalType": "bytes16",
              "name": "uuid",
              "type": "bytes16"
            }
          ],
          "internalType": "struct Utils.SimpleData",
          "name": "_data",
          "type": "tuple"
        }
      ],
      "name": "spFlow2SimpleSwap",
      "outputs": [
        {
          "internalType": "uint256",
          "name": "receivedAmount",
          "type": "uint256"
        }
      ],
      "stateMutability": "nonpayable",
      "type": "function"
    },
    {
      "inputs": [
        {
          "internalType": "string",
          "name": "_destinationAddressForBTC",
          "type": "string"
        },
        {
          "internalType": "bool",
          "name": "_fork",
          "type": "bool"
        },
        {
          "internalType": "address",
          "name": "_factory",
          "type": "address"
        },
        {
          "internalType": "bytes32",
          "name": "_initCode",
          "type": "bytes32"
        },
        {
          "internalType": "uint256",
          "name": "_amountIn",
          "type": "uint256"
        },
        {
          "internalType": "uint256",
          "name": "_amountOutMin",
          "type": "uint256"
        },
        {
          "internalType": "address[]",
          "name": "_path",
          "type": "address[]"
        }
      ],
      "name": "spFlow2Uniswap",
      "outputs": [
        {
          "internalType": "uint256",
          "name": "receivedAmount",
          "type": "uint256"
        }
      ],
      "stateMutability": "nonpayable",
      "type": "function"
    },
    {
      "inputs": [],
      "name": "spGetPendingSwaps",
      "outputs": [
        {
          "components": [
            {
              "internalType": "bytes32",
              "name": "SwapID",
              "type": "bytes32"
            },
            {
              "internalType": "string",
              "name": "DestAddr",
              "type": "string"
            },
            {
              "internalType": "address",
              "name": "RefundAddr",
              "type": "address"
            },
            {
              "internalType": "uint256",
              "name": "AmountWBTC",
              "type": "uint256"
            },
            {
              "internalType": "uint256",
              "name": "Timestamp",
              "type": "uint256"
            }
          ],
          "internalType": "struct SwapContract.spPendingTx[]",
          "name": "data",
          "type": "tuple[]"
        }
      ],
      "stateMutability": "view",
      "type": "function"
    },
    {
      "inputs": [
        {
          "internalType": "uint256",
          "name": "",
          "type": "uint256"
        }
      ],
      "name": "spPendingTXs",
      "outputs": [
        {
          "internalType": "bytes32",
          "name": "SwapID",
          "type": "bytes32"
        },
        {
          "internalType": "string",
          "name": "DestAddr",
          "type": "string"
        },
        {
          "internalType": "address",
          "name": "RefundAddr",
          "type": "address"
        },
        {
          "internalType": "uint256",
          "name": "AmountWBTC",
          "type": "uint256"
        },
        {
          "internalType": "uint256",
          "name": "Timestamp",
          "type": "uint256"
        }
      ],
      "stateMutability": "view",
      "type": "function"
    },
    {
      "inputs": [],
      "name": "sw",
      "outputs": [
        {
          "internalType": "contract ISwapRewards",
          "name": "",
          "type": "address"
        }
      ],
      "stateMutability": "view",
      "type": "function"
    },
    {
      "inputs": [],
      "name": "swapCount",
      "outputs": [
        {
          "internalType": "uint256",
          "name": "",
          "type": "uint256"
        }
      ],
      "stateMutability": "view",
      "type": "function"
    },
    {
      "inputs": [],
      "name": "swapRewards",
      "outputs": [
        {
          "internalType": "address",
          "name": "",
          "type": "address"
        }
      ],
      "stateMutability": "view",
      "type": "function"
    },
    {
      "inputs": [
        {
          "internalType": "address",
          "name": "",
          "type": "address"
        },
        {
          "internalType": "address",
          "name": "",
          "type": "address"
        }
      ],
      "name": "tokens",
      "outputs": [
        {
          "internalType": "uint256",
          "name": "",
          "type": "uint256"
        }
      ],
      "stateMutability": "view",
      "type": "function"
    },
    {
      "inputs": [],
      "name": "totalStakedAmount",
      "outputs": [
        {
          "internalType": "uint256",
          "name": "",
          "type": "uint256"
        }
      ],
      "stateMutability": "view",
      "type": "function"
    },
    {
      "inputs": [
        {
          "internalType": "address",
          "name": "newOwner",
          "type": "address"
        }
      ],
      "name": "transferOwnership",
      "outputs": [],
      "stateMutability": "nonpayable",
      "type": "function"
    },
    {
      "inputs": [],
      "name": "tssThreshold",
      "outputs": [
        {
          "internalType": "uint8",
          "name": "",
          "type": "uint8"
        }
      ],
      "stateMutability": "view",
      "type": "function"
    },
    {
      "inputs": [],
      "name": "wETH",
      "outputs": [
        {
          "internalType": "address",
          "name": "",
          "type": "address"
        }
      ],
      "stateMutability": "view",
      "type": "function"
    },
    {
      "inputs": [
        {
          "internalType": "address",
          "name": "",
          "type": "address"
        }
      ],
      "name": "whitelist",
      "outputs": [
        {
          "internalType": "bool",
          "name": "",
          "type": "bool"
        }
      ],
      "stateMutability": "view",
      "type": "function"
    },
    {
      "stateMutability": "payable",
      "type": "receive"
    }
  ],
  "bytecode": "0x6101c06040523480156200001257600080fd5b50604051620064ce380380620064ce833981016040819052620000359162000339565b6200004033620002cc565b60018055600060048181556003919091556001600160a01b038087166101005285811661012052848116610160819052610180528381166101408190526101a052881660a08190526040805163313ce56760e01b81529051919263313ce567928282019260209290829003018186803b158015620000bd57600080fd5b505afa158015620000d2573d6000803e3d6000fd5b505050506040513d601f19601f82011682018060405250810190620000f89190620003c5565b6200010590600a62000506565b60e0526001600160a01b03861660808190526040805163313ce56760e01b815290516008929163313ce567916004808301926020929190829003018186803b1580156200015157600080fd5b505afa15801562000166573d6000803e3d6000fd5b505050506040513d601f19601f820116820180604052508101906200018c9190620003c5565b62000198919062000517565b620001a590600a62000506565b60c08181525050866001600160a01b031663313ce5676040518163ffffffff1660e01b815260040160206040518083038186803b158015620001e657600080fd5b505afa158015620001fb573d6000803e3d6000fd5b505050506040513d601f19601f82011682018060405250810190620002219190620003c5565b6200022e90600a62000506565b6007556001600160a01b0395861660009081526005602090815260408083208054600160ff1991821681179092559a9099168352822080548a16891790559080527f05b8ccbb9d4d8fb16ea74ce3c29a41f1b461fbdaff4714a0d9a8eb05499746bc80549098169096179096555050600990925250507fec8156718a8372b1db44bb411437d0870f3e3790d4a08526d024ce1b0b668f6b556200053d565b600080546001600160a01b038381166001600160a01b0319831681178455604051919092169283917f8be0079c531659141344cd1fd0a4f28419497f9722a3daafe3b4186f6b6457e09190a35050565b80516001600160a01b03811681146200033457600080fd5b919050565b600080600080600080600060e0888a0312156200035557600080fd5b62000360886200031c565b965062000370602089016200031c565b955062000380604089016200031c565b945062000390606089016200031c565b9350620003a0608089016200031c565b9250620003b060a089016200031c565b915060c0880151905092959891949750929550565b600060208284031215620003d857600080fd5b815160ff81168114620003ea57600080fd5b9392505050565b634e487b7160e01b600052601160045260246000fd5b600181815b80851115620004485781600019048211156200042c576200042c620003f1565b808516156200043a57918102915b93841c93908002906200040c565b509250929050565b600082620004615750600162000500565b81620004705750600062000500565b81600181146200048957600281146200049457620004b4565b600191505062000500565b60ff841115620004a857620004a8620003f1565b50506001821b62000500565b5060208310610133831016604e8410600b8410161715620004d9575081810a62000500565b620004e5838362000407565b8060001904821115620004fc57620004fc620003f1565b0290505b92915050565b6000620003ea60ff84168362000450565b600060ff821660ff841680821015620005345762000534620003f1565b90039392505050565b60805160a05160c05160e05161010051610120516101405161016051610180516101a051615da26200072c6000396000818161035301528181610a5f015261332b0152600081816107d50152818161250f015281816125db0152818161269a015281816131e20152818161378701528181613db3015261467a015260006107a1015260006108090152600081816102d6015281816136220152613869015260008181610283015281816108e201528181611d7a01528181611dd601528181611e4301528181611e8a01528181611f6e01528181612c8801528181612d020152612d4b01526000818161141d0152818161382e01528181613d7b015261457401526000613a1a01526000818161059a01528181610b3701528181610b720152818161137d015281816135d3015281816136510152818161389b0152818161401201526145c10152600081816103b701528181610ae301528181610b1501528181610c8c01528181611351015281816116e00152818161207e015281816120ad015281816120fd015281816121900152818161221e015281816127f40152818161286d0152818161290401528181612ad901528181613005015281816132dc015281816133bd015281816139dc01528181613ea801528181613f2401528181613fb901526142a00152615da26000f3fe6080604052600436106102735760003560e01c8063753408151161014f578063ca0707e7116100c1578063dcc5f0c81161007a578063dcc5f0c81461084b578063e6ca20841461086b578063ec4827291461089b578063f2428621146108d0578063f2fde38b14610904578063f7888aec14610924576102b2565b8063ca0707e71461075c578063cf10b16b1461076f578063cff0ab961461078f578063d023420d146107c3578063d0f9a085146107f7578063d38c7bb11461082b576102b2565b8063a827278b11610113578063a827278b146106b1578063b345a358146106c7578063b4014fe8146106e7578063b9ae0adc14610707578063bf62dcc81461071c578063c810a5391461073c576102b2565b806375340815146106095780638535490f146106235780638da5cb5b146106435780639b19251a14610661578063a742329d14610691576102b2565b80632eff0d9e116101e857806352dcd6b6116101ac57806352dcd6b614610552578063567e98f9146105725780635fcbd285146105885780636b51e919146105bc5780636d019f35146105de578063715018a6146105f4576102b2565b80632eff0d9e146104af57806345137e27146104c55780634db75485146104da578063508493bc146104fa578063511834c314610532576102b2565b806312d1441e1161023a57806312d1441e146103d9578063130b7a63146103f85780631ab7e937146104265780631bb069301461045757806320199e991461046d5780632586c5621461048f576102b2565b806285aea1146102c457806289356f14610315578062e5cee4146103415780630d63aca7146103755780630f909486146103a5576102b2565b366102b257336001600160a01b037f000000000000000000000000000000000000000000000000000000000000000016146102b0576102b0614c0c565b005b3480156102be57600080fd5b50600080fd5b3480156102d057600080fd5b506102f87f000000000000000000000000000000000000000000000000000000000000000081565b6040516001600160a01b0390911681526020015b60405180910390f35b34801561032157600080fd5b5060065461032f9060ff1681565b60405160ff909116815260200161030c565b34801561034d57600080fd5b506102f87f000000000000000000000000000000000000000000000000000000000000000081565b34801561038157600080fd5b50610395610390366004614d1b565b61096a565b604051901515815260200161030c565b3480156103b157600080fd5b506102f87f000000000000000000000000000000000000000000000000000000000000000081565b3480156103e557600080fd5b5060065461032f90610100900460ff1681565b34801561040457600080fd5b50610418610413366004614dfc565b610bbe565b60405190815260200161030c565b34801561043257600080fd5b50610446610441366004614e81565b610f8f565b60405161030c959493929190614ef2565b34801561046357600080fd5b5061041860045481565b34801561047957600080fd5b50610482611052565b60405161030c9190614f31565b34801561049b57600080fd5b506103956104aa366004614fcf565b611253565b3480156104bb57600080fd5b5061041860035481565b3480156104d157600080fd5b50610418611345565b3480156104e657600080fd5b506102b06104f536600461500a565b611463565b34801561050657600080fd5b50610418610515366004615036565b600f60209081526000928352604080842090915290825290205481565b34801561053e57600080fd5b506102b061054d366004615088565b6115c2565b34801561055e57600080fd5b5061039561056d36600461513a565b61182c565b34801561057e57600080fd5b50610418600e5481565b34801561059457600080fd5b506102f87f000000000000000000000000000000000000000000000000000000000000000081565b3480156105c857600080fd5b506105d1611be8565b60405161030c919061527c565b3480156105ea57600080fd5b5061041860075481565b34801561060057600080fd5b506102b0611d12565b34801561061557600080fd5b50600d5461032f9060ff1681565b34801561062f57600080fd5b506102b061063e366004614e81565b611d48565b34801561064f57600080fd5b506000546001600160a01b03166102f8565b34801561066d57600080fd5b5061039561067c36600461528f565b60056020526000908152604090205460ff1681565b34801561069d57600080fd5b506103956106ac36600461528f565b612004565b3480156106bd57600080fd5b5061041860085481565b3480156106d357600080fd5b506103956106e23660046152ac565b612038565b3480156106f357600080fd5b5061041861070236600461534f565b61215c565b34801561071357600080fd5b506102b06125d4565b34801561072857600080fd5b506103956107373660046153b7565b6127ae565b34801561074857600080fd5b50610395610757366004615421565b61298b565b6102b061076a36600461500a565b612a80565b34801561077b57600080fd5b5061039561078a366004615443565b612de2565b34801561079b57600080fd5b506102f87f000000000000000000000000000000000000000000000000000000000000000081565b3480156107cf57600080fd5b506102f87f000000000000000000000000000000000000000000000000000000000000000081565b34801561080357600080fd5b506102f87f000000000000000000000000000000000000000000000000000000000000000081565b34801561083757600080fd5b50610418610846366004615478565b612ed2565b34801561085757600080fd5b5061039561086636600461552f565b6132af565b34801561087757600080fd5b50610395610886366004614e81565b6000908152600a602052604090205460ff1690565b3480156108a757600080fd5b506108bb6108b6366004615036565b61342d565b6040805192835260208301919091520161030c565b3480156108dc57600080fd5b506102f87f000000000000000000000000000000000000000000000000000000000000000081565b34801561091057600080fd5b506102b061091f36600461528f565b613457565b34801561093057600080fd5b5061041861093f366004615036565b6001600160a01b039182166000908152600f6020908152604080832093909416825291909152205490565b600080546001600160a01b0316331461099e5760405162461bcd60e51b815260040161099590615614565b60405180910390fd5b6001600160a01b03871660009081526005602052604090205460ff166109eb5760405162461bcd60e51b81526020600482015260026024820152610c4d60f21b6044820152606401610995565b6001600160a01b038716610a265760405162461bcd60e51b8152602060048201526002602482015261313560f01b6044820152606401610995565b60008415610b0d5760405160016266faa960e11b031981526001600160a01b0389811660048301528881166024830152604482018790527f0000000000000000000000000000000000000000000000000000000000000000169063ff320aae90606401602060405180830381600087803b158015610aa357600080fd5b505af1158015610ab7573d6000803e3d6000fd5b505050506040513d601f19601f82011682018060405250810190610adb9190615649565b50610b0860007f0000000000000000000000000000000000000000000000000000000000000000876134f2565b610b35565b84610b3557507f00000000000000000000000000000000000000000000000000000000000000005b7f00000000000000000000000000000000000000000000000000000000000000006001600160a01b0316886001600160a01b03161415610b9257507f00000000000000000000000000000000000000000000000000000000000000005b610b9c81856135c8565b610ba583613972565b610bb08888886139da565b506001979650505050505050565b600060026001541415610be35760405162461bcd60e51b815260040161099590615666565b6002600155600083838281610bfa57610bfa61569d565b9050602002016020810190610c0f919061528f565b905060008484610c206001826156c9565b818110610c2f57610c2f61569d565b9050602002016020810190610c44919061528f565b6001600160a01b0383166000908152600f60209081526040808320338452909152902054909150871115610c8a5760405162461bcd60e51b8152600401610995906156e0565b7f00000000000000000000000000000000000000000000000000000000000000006001600160a01b0316826001600160a01b031614610d045760405162461bcd60e51b8152602060048201526016602482015275333937b6aa37b5b2b710109e90212a21aa2fa0a2222960511b6044820152606401610995565b6001600160a01b03811673eeeeeeeeeeeeeeeeeeeeeeeeeeeeeeeeeeeeeeee1415610d695760405162461bcd60e51b81526020600482015260156024820152740aae6ca40e0c2e8d040ee84a886405a7c40ee8aa89605b1b6044820152606401610995565b6040516370a0823160e01b81523060048201526000906001600160a01b038316906370a082319060240160206040518083038186803b158015610dab57600080fd5b505afa158015610dbf573d6000803e3d6000fd5b505050506040513d601f19601f82011682018060405250810190610de3919061570e565b6001600160a01b0384166000908152600f60209081526040808320338452909152902054909150610e149089613acc565b6001600160a01b0384166000908152600f602090815260408083203384529091529020558a15610e5157610e4c8a8a8a8a8a8a613adf565b610e5d565b610e5d88888888613c1b565b6040516370a0823160e01b8152306004820152610ee19082906001600160a01b038516906370a08231906024015b60206040518083038186803b158015610ea357600080fd5b505afa158015610eb7573d6000803e3d6000fd5b505050506040513d601f19601f82011682018060405250810190610edb919061570e565b90613acc565b935086841015610f285760405162461bcd60e51b81526020600482015260126024820152715265636569766564203c206d696e696d756d60701b6044820152606401610995565b6001600160a01b0382166000908152600f60209081526040808320338452909152902054610f569085613ce0565b6001600160a01b039092166000908152600f60209081526040808320338452909152902091909155505060018055979650505050505050565b60026020526000908152604090208054600182018054919291610fb190615727565b80601f0160208091040260200160405190810160405280929190818152602001828054610fdd90615727565b801561102a5780601f10610fff5761010080835404028352916020019161102a565b820191906000526020600020905b81548152906001019060200180831161100d57829003601f168201915b505050506002830154600384015460049094015492936001600160a01b039091169290915085565b6060600061106d600454600354613acc90919063ffffffff16565b6001600160401b0381111561108457611084614c47565b6040519080825280602002602001820160405280156110f357816020015b6110e06040518060a00160405280600080191681526020016060815260200160006001600160a01b0316815260200160008152602001600081525090565b8152602001906001900390816110a25790505b509150600061110e6001600454613ce090919063ffffffff16565b90505b600354811161124e576002600061113360045485613ce090919063ffffffff16565b81526020019081526020016000206040518060a00160405290816000820154815260200160018201805461116690615727565b80601f016020809104026020016040519081016040528092919081815260200182805461119290615727565b80156111df5780601f106111b4576101008083540402835291602001916111df565b820191906000526020600020905b8154815290600101906020018083116111c257829003601f168201915b505050918352505060028201546001600160a01b031660208201526003820154604082015260049091015460609091015283518490849081106112245761122461569d565b602090810291909101015261123a826001613ce0565b9150806112468161575c565b915050611111565b505090565b600080546001600160a01b0316331461127e5760405162461bcd60e51b815260040161099590615614565b6000611288611345565b6001600160a01b03871660009081526005602052604090205490915060ff166112d85760405162461bcd60e51b8152602060048201526002602482015261189b60f11b6044820152606401610995565b6112e486868686613cec565b6112ed57600080fd5b60019150806112fa611345565b101561133c5760405162461bcd60e51b8152602060048201526011602482015270496e76616c6964204c505420707269636560781b6044820152606401610995565b50949350505050565b600080600061137560007f000000000000000000000000000000000000000000000000000000000000000061342d565b9150915060007f00000000000000000000000000000000000000000000000000000000000000006001600160a01b03166318160ddd6040518163ffffffff1660e01b815260040160206040518083038186803b1580156113d457600080fd5b505afa1580156113e8573d6000803e3d6000fd5b505050506040513d601f19601f8201168201806040525081019061140c919061570e565b90508015611457576114528161144c7f00000000000000000000000000000000000000000000000000000000000000006114468787613ce0565b90614111565b9061411d565b61145b565b6007545b935050505090565b600260015414156114865760405162461bcd60e51b815260040161099590615666565b60026001556001600160a01b0382166000908152600f602090815260408083203384529091529020548111156114f55760405162461bcd60e51b8152602060048201526014602482015273496e73756666696369656e742042616c616e636560601b6044820152606401610995565b6001600160a01b0382166000908152600f602090815260408083203384529091529020546115239082613acc565b6001600160a01b0383166000908152600f6020908152604080832033808552925290912091909155611557908390836139da565b6001600160a01b0382166000908152600f60209081526040808320338085529252918290205491517febff2602b3f468259e1e99f613fed6691f3a6526effe6ef3e768ba7ae7a36c4f926115b2928692909186914290615777565b60405180910390a1505060018055565b600260015414156115e55760405162461bcd60e51b815260040161099590615666565b6002600155336115fd6101408301610120840161528f565b6001600160a01b0316146116535760405162461bcd60e51b815260206004820152601960248201527f62656e656669636961727920213d206d73672e73656e646572000000000000006044820152606401610995565b6040810135600f6000611669602085018561528f565b6001600160a01b0316815260208101919091526040016000908120906116976101408501610120860161528f565b6001600160a01b03166001600160a01b031681526020019081526020016000205410156116d65760405162461bcd60e51b8152600401610995906156e0565b6001600160a01b037f00000000000000000000000000000000000000000000000000000000000000001661170d602083018361528f565b6001600160a01b03161461175c5760405162461bcd60e51b8152602060048201526016602482015275333937b6aa37b5b2b710109e90212a21aa2fa0a2222960511b6044820152606401610995565b61176581614129565b6117cc6040820135600f600061177e602086018661528f565b6001600160a01b0316815260208101919091526040016000908120906117ac6101408601610120870161528f565b6001600160a01b0316815260208101919091526040016000205490613acc565b600f60006117dd602085018561528f565b6001600160a01b03168152602081019190915260400160009081209061180b6101408501610120860161528f565b6001600160a01b031681526020810191909152604001600020555060018055565b600080546001600160a01b031633146118575760405162461bcd60e51b815260040161099590615614565b60065460ff610100909104811690841610801590611879575060ff8360ff1611155b6118aa5760405162461bcd60e51b8152602060048201526002602482015261303160f01b6044820152606401610995565b6118b56001846157a8565b60ff168460ff1610156118ef5760405162461bcd60e51b8152602060048201526002602482015261181960f11b6044820152606401610995565b84518651146119255760405162461bcd60e51b8152602060048201526002602482015261303560f01b6044820152606401610995565b61192e87613457565b60005b8651811015611b585785818151811061194c5761194c61569d565b6020026020010151611ac157600060ff16600b60008984815181106119735761197361569d565b6020908102919091018101516001600160a01b031682528101919091526040016000205460ff1614156119f057600c8782815181106119b4576119b461569d565b60209081029190910181015182546001810184556000938452919092200180546001600160a01b0319166001600160a01b039092169190911790555b600160ff16600b6000898481518110611a0b57611a0b61569d565b6020908102919091018101516001600160a01b031682528101919091526040016000205460ff1614611a6457600d805460ff16906000611a4a836157cd565b91906101000a81548160ff021916908360ff160217905550505b6001600b6000898481518110611a7c57611a7c61569d565b60200260200101516001600160a01b03166001600160a01b0316815260200190815260200160002060006101000a81548160ff021916908360ff160217905550611b46565b600d805460ff16906000611ad4836157ed565b91906101000a81548160ff021916908360ff160217905550506002600b6000898481518110611b0557611b0561569d565b60200260200101516001600160a01b03166001600160a01b0316815260200190815260200160002060006101000a81548160ff021916908360ff1602179055505b80611b508161575c565b915050611931565b50600d54606460ff9091161115611bbb5760405162461bcd60e51b815260206004820152602160248201527f53746f726564206e6f64652073697a652073686f756c64206265203c3d2031306044820152600360fc1b6064820152608401610995565b506006805460ff8481166101000261ffff1990921690861617179055600e81905560019695505050505050565b600d54606090600090819060ff166001600160401b03811115611c0d57611c0d614c47565b604051908082528060200260200182016040528015611c36578160200160208202803683370190505b50905060005b600c54811015611d0b57600160ff16600b6000600c8481548110611c6257611c6261569d565b60009182526020808320909101546001600160a01b0316835282019290925260400190205460ff161415611cf957600c8181548110611ca357611ca361569d565b9060005260206000200160009054906101000a90046001600160a01b0316828481518110611cd357611cd361569d565b6001600160a01b039092166020928302919091019091015282611cf58161575c565b9350505b80611d038161575c565b915050611c3c565b5092915050565b6000546001600160a01b03163314611d3c5760405162461bcd60e51b815260040161099590615614565b611d46600061424c565b565b60026001541415611d6b5760405162461bcd60e51b815260040161099590615666565b60026001556001600160a01b037f0000000000000000000000000000000000000000000000000000000000000000166000908152600f60209081526040808320338452909152902054811115611dc057600080fd5b604051632e1a7d4d60e01b8152600481018290527f00000000000000000000000000000000000000000000000000000000000000006001600160a01b031690632e1a7d4d90602401600060405180830381600087803b158015611e2257600080fd5b505af1158015611e36573d6000803e3d6000fd5b5050506001600160a01b037f0000000000000000000000000000000000000000000000000000000000000000166000908152600f60209081526040808320338452909152902054611e88915082613acc565b7f00000000000000000000000000000000000000000000000000000000000000006001600160a01b03166000908152600f60209081526040808320338085529252808320939093559151829084908381818185875af1925050503d8060008114611f0e576040519150601f19603f3d011682016040523d82523d6000602084013e611f13565b606091505b5050905080611f645760405162461bcd60e51b815260206004820152601e60248201527f72656365697665722072656a656374656420455448207472616e7366657200006044820152606401610995565b6001600160a01b037f0000000000000000000000000000000000000000000000000000000000000000166000908152600f60209081526040808320338085529252918290205491517febff2602b3f468259e1e99f613fed6691f3a6526effe6ef3e768ba7ae7a36c4f92611ff39273eeeeeeeeeeeeeeeeeeeeeeeeeeeeeeeeeeeeeeee92909188914290615777565b60405180910390a150506001805550565b6001600160a01b0381166000908152600b602052604081205460ff166001141561203057506001919050565b506000919050565b600080546001600160a01b031633146120635760405162461bcd60e51b815260040161099590615614565b8361206d57600080fd5b8261207757600080fd5b6120a360007f0000000000000000000000000000000000000000000000000000000000000000866134f2565b6001600160a01b037f000000000000000000000000000000000000000000000000000000000000000081166000908152600f60209081526040808320938916835292905220546120f39085613ce0565b6001600160a01b037f000000000000000000000000000000000000000000000000000000000000000081166000908152600f60209081526040808320938a1683529290529081209190915561214890846135c8565b61215182613972565b506001949350505050565b6000600260015414156121815760405162461bcd60e51b815260040161099590615666565b60026001556001600160a01b037f0000000000000000000000000000000000000000000000000000000000000000166121bd602084018461528f565b6001600160a01b031614156122145760405162461bcd60e51b815260206004820152601c60248201527f4d757374206e6f7420737761702066726f6d2042544320746f6b656e000000006044820152606401610995565b6001600160a01b037f00000000000000000000000000000000000000000000000000000000000000001661224e604084016020850161528f565b6001600160a01b03161461229d5760405162461bcd60e51b815260206004820152601660248201527526bab9ba1039bbb0b8103a3790212a21903a37b5b2b760511b6044820152606401610995565b306122b06101408401610120850161528f565b6001600160a01b0316146123065760405162461bcd60e51b815260206004820152601c60248201527f62656e656669636961727920213d207377617020636f6e7472616374000000006044820152606401610995565b6040820135600f600061231c602086018661528f565b6001600160a01b031681526020808201929092526040908101600090812033825290925290205410156123615760405162461bcd60e51b8152600401610995906156e0565b6000612373604084016020850161528f565b6040516370a0823160e01b81523060048201526001600160a01b0391909116906370a082319060240160206040518083038186803b1580156123b457600080fd5b505afa1580156123c8573d6000803e3d6000fd5b505050506040513d601f19601f820116820180604052508101906123ec919061570e565b90506124346040840135600f6000612407602088018861528f565b6001600160a01b031681526020808201929092526040908101600090812033825290925290205490613acc565b600f6000612445602087018761528f565b6001600160a01b031681526020808201929092526040908101600090812033825290925290205561247583614129565b6124b781612489604086016020870161528f565b6040516370a0823160e01b81523060048201526001600160a01b0391909116906370a0823190602401610e8b565b9150826080013582101561250d5760405162461bcd60e51b815260206004820152601c60248201527f526563656976656420616d6f756e7420696e73756666696369656e74000000006044820152606401610995565b7f00000000000000000000000000000000000000000000000000000000000000006001600160a01b0316631411c5b76040518163ffffffff1660e01b815260040160206040518083038186803b15801561256657600080fd5b505afa15801561257a573d6000803e3d6000fd5b505050506040513d601f19601f8201168201806040525081019061259e919061570e565b8210156125bd5760405162461bcd60e51b81526004016109959061580a565b6125c885858461429c565b50600180559392505050565b60006126767f00000000000000000000000000000000000000000000000000000000000000006001600160a01b031663e91675b86040518163ffffffff1660e01b815260040160206040518083038186803b15801561263257600080fd5b505afa158015612646573d6000803e3d6000fd5b505050506040513d601f19601f8201168201806040525081019061266a9190615853565b6004549060ff16613ce0565b9050600354811061268657506003545b60045442905b828110156127a957816127417f00000000000000000000000000000000000000000000000000000000000000006001600160a01b031663da284dcc6040518163ffffffff1660e01b815260040160206040518083038186803b1580156126f157600080fd5b505afa158015612705573d6000803e3d6000fd5b505050506040513d601f19601f82011682018060405250810190612729919061570e565b60008481526002602052604090206004015490613ce0565b1015612797576000818152600260205260408120818155906127666001830182614b39565b506002810180546001600160a01b0319169055600060038201819055600490910155612793816001613ce0565b6004555b806127a18161575c565b91505061268c565b505050565b600080546001600160a01b031633146127d95760405162461bcd60e51b815260040161099590615614565b836127e357600080fd5b826127ed57600080fd5b61281960007f0000000000000000000000000000000000000000000000000000000000000000866134f2565b6128246000846135c8565b61282d82613972565b60005b855181101561297f576128fa86828151811061284e5761284e61569d565b602002602001015160a01c6bffffffffffffffffffffffff16600f60007f00000000000000000000000000000000000000000000000000000000000000006001600160a01b03166001600160a01b0316815260200190815260200160002060008985815181106128c0576128c061569d565b602002602001015160001c6001600160a01b03166001600160a01b0316815260200190815260200160002054613ce090919063ffffffff16565b6001600160a01b037f0000000000000000000000000000000000000000000000000000000000000000166000908152600f6020526040812088519091908990859081106129495761294961569d565b6020908102919091018101516001600160a01b0316825281019190915260400160002055806129778161575c565b915050612830565b50600195945050505050565b600080546001600160a01b031633146129b65760405162461bcd60e51b815260040161099590615614565b6000828152600a602052604090205460ff1615612a155760405162461bcd60e51b815260206004820152601860248201527f546865207478696420697320616c7265616479207573656400000000000000006044820152606401610995565b604080518082019091526002815261189960f11b6020808301919091526000805260099052600080516020615d4d83398151915254612a55918590614428565b600080526009602052600080516020615d4d83398151915255612a7782614454565b50600192915050565b60026001541415612aa35760405162461bcd60e51b815260040161099590615666565b600260015534612c79576001600160a01b03821673eeeeeeeeeeeeeeeeeeeeeeeeeeeeeeeeeeeeeeee1415612ad757600080fd5b7f00000000000000000000000000000000000000000000000000000000000000006001600160a01b0316826001600160a01b03161415612b1657600080fd5b6040516370a0823160e01b81523060048201526000906001600160a01b038416906370a082319060240160206040518083038186803b158015612b5857600080fd5b505afa158015612b6c573d6000803e3d6000fd5b505050506040513d601f19601f82011682018060405250810190612b90919061570e565b9050612ba76001600160a01b03841633308561446f565b6040516370a0823160e01b8152306004820152600090612bdc9083906001600160a01b038716906370a0823190602401610e8b565b6001600160a01b0385166000908152600f60209081526040808320338452909152902054909150612c0d9082613ce0565b6001600160a01b0385166000908152600f602090815260408083203380855292529182902083905590517f4e2ca0515ed1aef1395f66b5303bb5d6f1bf9d61a353fa53f73f8ac9973fa9f692612c6a928892909186914290615777565b60405180910390a15050612dda565b60003411612c8657600080fd5b7f00000000000000000000000000000000000000000000000000000000000000006001600160a01b031663d0e30db0346040518263ffffffff1660e01b81526004016000604051808303818588803b158015612ce157600080fd5b505af1158015612cf5573d6000803e3d6000fd5b5050506001600160a01b037f0000000000000000000000000000000000000000000000000000000000000000166000908152600f60209081526040808320338452909152902054612d499250905034613ce0565b7f00000000000000000000000000000000000000000000000000000000000000006001600160a01b03166000908152600f602090815260408083203380855292529182902083905590517f4e2ca0515ed1aef1395f66b5303bb5d6f1bf9d61a353fa53f73f8ac9973fa9f6926115b29273eeeeeeeeeeeeeeeeeeeeeeeeeeeeeeeeeeeeeeee92909134914290615777565b505060018055565b600080546001600160a01b03163314612e0d5760405162461bcd60e51b815260040161099590615614565b6000612e17611345565b6001600160a01b03861660009081526005602052604090205490915060ff16612e675760405162461bcd60e51b8152602060048201526002602482015261189b60f11b6044820152606401610995565b612e728585856144e0565b612e7b57600080fd5b6001915080612e88611345565b1015612eca5760405162461bcd60e51b8152602060048201526011602482015270496e76616c6964204c505420707269636560781b6044820152606401610995565b509392505050565b600060026001541415612ef75760405162461bcd60e51b815260040161099590615666565b6002600155600083838281612f0e57612f0e61569d565b9050602002016020810190612f23919061528f565b905060008484612f346001826156c9565b818110612f4357612f4361569d565b9050602002016020810190612f58919061528f565b6001600160a01b0383166000908152600f60209081526040808320338452909152902054909150871115612f9e5760405162461bcd60e51b8152600401610995906156e0565b6001600160a01b03821673eeeeeeeeeeeeeeeeeeeeeeeeeeeeeeeeeeeeeeee14156130035760405162461bcd60e51b815260206004820152601560248201527455736520706174682077455448202d3e207742544360581b6044820152606401610995565b7f00000000000000000000000000000000000000000000000000000000000000006001600160a01b0316816001600160a01b0316146130735760405162461bcd60e51b815260206004820152600c60248201526b1cddd85c080f4f88109510d560a21b6044820152606401610995565b6040516370a0823160e01b81523060048201526000906001600160a01b038316906370a082319060240160206040518083038186803b1580156130b557600080fd5b505afa1580156130c9573d6000803e3d6000fd5b505050506040513d601f19601f820116820180604052508101906130ed919061570e565b6001600160a01b0384166000908152600f6020908152604080832033845290915290205490915061311e9089613acc565b6001600160a01b0384166000908152600f602090815260408083203384529091529020558a1561315b576131568a8a8a8a8a8a613adf565b613167565b61316788888888613c1b565b6040516370a0823160e01b81523060048201526131999082906001600160a01b038516906370a0823190602401610e8b565b9350868410156131e05760405162461bcd60e51b81526020600482015260126024820152715265636569766564203c206d696e696d756d60701b6044820152606401610995565b7f00000000000000000000000000000000000000000000000000000000000000006001600160a01b0316631411c5b76040518163ffffffff1660e01b815260040160206040518083038186803b15801561323957600080fd5b505afa15801561324d573d6000803e3d6000fd5b505050506040513d601f19601f82011682018060405250810190613271919061570e565b8410156132905760405162461bcd60e51b81526004016109959061580a565b61329b8d8d8661429c565b505050600180559998505050505050505050565b600080546001600160a01b031633146132da5760405162461bcd60e51b815260040161099590615614565b7f000000000000000000000000000000000000000000000000000000000000000087156133f357600061331188610edb8b8a613acc565b6040516349e031a560e01b81529091506001600160a01b037f000000000000000000000000000000000000000000000000000000000000000016906349e031a590613365906000908a908a90600401615870565b602060405180830381600087803b15801561337f57600080fd5b505af1158015613393573d6000803e3d6000fd5b505050506040513d601f19601f820116820180604052508101906133b79190615649565b506133ed7f000000000000000000000000000000000000000000000000000000000000000060006133e8848c613ce0565b6134f2565b506133fc565b876133fc575060005b61340681876135c8565b8215610bb057610bb0600080526009602052600080516020615d4d83398151915254600855565b6001600160a01b039182166000908152600960205260408082205492909316815291909120549091565b6000546001600160a01b031633146134815760405162461bcd60e51b815260040161099590615614565b6001600160a01b0381166134e65760405162461bcd60e51b815260206004820152602660248201527f4f776e61626c653a206e6577206f776e657220697320746865207a65726f206160448201526564647265737360d01b6064820152608401610995565b6134ef8161424c565b50565b6040805180820182526002815261313160f01b6020808301919091526001600160a01b038516600090815260099091529190912054613532918390614428565b6001600160a01b0380841660009081526009602052604080822093909355908516815220546135619082613ce0565b6001600160a01b038481166000818152600960209081526040918290209490945580519182529185169281019290925281018290527fea368a40e9570069bb8e6511d668293ad2e1f03b0d982431fd223de9f3b70ca69060600160405180910390a1505050565b806135d1575050565b7f00000000000000000000000000000000000000000000000000000000000000006001600160a01b0316826001600160a01b031614156137225760405163a9059cbb60e01b81526001600160a01b037f000000000000000000000000000000000000000000000000000000000000000081166004830152602482018390527f0000000000000000000000000000000000000000000000000000000000000000169063a9059cbb90604401602060405180830381600087803b15801561369557600080fd5b505af11580156136a9573d6000803e3d6000fd5b505050506040513d601f19601f820116820180604052508101906136cd9190615649565b50604080516001600160a01b0384168152600060208201819052818301849052606082015290517fe3debe835f6848edc082b32a1d729781d3bfcd7e14422d80bcaa6794d3816b2f9181900360800190a15050565b600061372c611345565b6001600160a01b0384166000908152600960205260409020549091506137529083613ce0565b60096000856001600160a01b03166001600160a01b03168152602001908152602001600020819055506000613820606461144c7f00000000000000000000000000000000000000000000000000000000000000006001600160a01b0316630b68134d6040518163ffffffff1660e01b815260040160206040518083038186803b1580156137de57600080fd5b505afa1580156137f2573d6000803e3d6000fd5b505050506040513d601f19601f820116820180604052508101906138169190615853565b869060ff16614111565b905060006138528361144c847f0000000000000000000000000000000000000000000000000000000000000000614111565b6040516340c10f1960e01b81526001600160a01b037f000000000000000000000000000000000000000000000000000000000000000081166004830152602482018390529192507f0000000000000000000000000000000000000000000000000000000000000000909116906340c10f1990604401602060405180830381600087803b1580156138e157600080fd5b505af11580156138f5573d6000803e3d6000fd5b505050506040513d601f19601f820116820180604052508101906139199190615649565b50604080516001600160a01b038716815260208101869052908101829052606081018490527fe3debe835f6848edc082b32a1d729781d3bfcd7e14422d80bcaa6794d3816b2f9060800160405180910390a15050505050565b60005b81518110156139d6576001600a60008484815181106139965761399661569d565b6020026020010151815260200190815260200160002060006101000a81548160ff02191690831515021790555080806139ce9061575c565b915050613975565b5050565b7f00000000000000000000000000000000000000000000000000000000000000006001600160a01b0316836001600160a01b03161415613a4157613a3e817f0000000000000000000000000000000000000000000000000000000000000000614111565b90505b60405163a9059cbb60e01b81526001600160a01b0383811660048301526024820183905284169063a9059cbb90604401602060405180830381600087803b158015613a8b57600080fd5b505af1158015613a9f573d6000803e3d6000fd5b505050506040513d601f19601f82011682018060405250810190613ac39190615649565b6127a957600080fd5b6000613ad882846156c9565b9392505050565b613ba073def171fe48cf0115b1d80b88dc8eab59176fee576001600160a01b031663d2c4b5986040518163ffffffff1660e01b815260040160206040518083038186803b158015613b2f57600080fd5b505afa158015613b43573d6000803e3d6000fd5b505050506040513d601f19601f82011682018060405250810190613b6791906158c8565b8584846000818110613b7b57613b7b61569d565b9050602002016020810190613b90919061528f565b6001600160a01b03169190614756565b604051633d59840d60e21b815273def171fe48cf0115b1d80b88dc8eab59176fee579063f566103490613be190899089908990899089908990600401615923565b600060405180830381600087803b158015613bfb57600080fd5b505af1158015613c0f573d6000803e3d6000fd5b50505050505050505050565b613c6b73def171fe48cf0115b1d80b88dc8eab59176fee576001600160a01b031663d2c4b5986040518163ffffffff1660e01b815260040160206040518083038186803b158015613b2f57600080fd5b604051632a42068d60e11b815273def171fe48cf0115b1d80b88dc8eab59176fee57906354840d1a90613ca8908790879087908790600401615963565b600060405180830381600087803b158015613cc257600080fd5b505af1158015613cd6573d6000803e3d6000fd5b5050505050505050565b6000613ad8828461598d565b6000818152600a602052604081205460ff1615613d305760405162461bcd60e51b8152602060048201526002602482015261181b60f11b6044820152606401610995565b83613d625760405162461bcd60e51b8152602060048201526002602482015261303760f01b6044820152606401610995565b8360a081901c6000613d72611345565b90506000613da47f000000000000000000000000000000000000000000000000000000000000000061144c8585614111565b90506000613e4c61271061144c7f00000000000000000000000000000000000000000000000000000000000000006001600160a01b031663b6268e5d6040518163ffffffff1660e01b815260040160206040518083038186803b158015613e0a57600080fd5b505afa158015613e1e573d6000803e3d6000fd5b505050506040513d601f19601f82011682018060405250810190613e429190615853565b859060ff16614111565b905087613e598383613acc565b1015613e8c5760405162461bcd60e51b8152602060048201526002602482015261303960f01b6044820152606401610995565b6000613e9c89610edb8585613acc565b9050600080613ecc60007f000000000000000000000000000000000000000000000000000000000000000061342d565b90925090506001600160a01b038d16613f2257613ee98585613acc565b821015613f1d5760405162461bcd60e51b8152602060048201526002602482015261060760f31b6044820152606401610995565b613f9a565b7f00000000000000000000000000000000000000000000000000000000000000006001600160a01b03168d6001600160a01b03161415613f9a57613f668585613acc565b811015613f9a5760405162461bcd60e51b8152602060048201526002602482015261189960f11b6044820152606401610995565b613fa48d856135c8565b613fae8d86614817565b613fb78a614454565b7f00000000000000000000000000000000000000000000000000000000000000006001600160a01b03168d6001600160a01b03161415613ffc57613ffc8d89856139da565b604051630852cd8d60e31b8152600481018890527f00000000000000000000000000000000000000000000000000000000000000006001600160a01b0316906342966c6890602401602060405180830381600087803b15801561405e57600080fd5b505af1158015614072573d6000803e3d6000fd5b505050506040513d601f19601f820116820180604052508101906140969190615649565b61409f57600080fd5b604080516001600160a01b038a16815260208101899052908101869052606081018790526080810184905260a081018b90527fa9da34e5e4a956b744307ae7611795634e8365951073bf049d76b64b2ae7a0589060c00160405180910390a15060019c9b505050505050505050505050565b6000613ad882846159a5565b6000613ad882846159c4565b6141c373def171fe48cf0115b1d80b88dc8eab59176fee576001600160a01b031663d2c4b5986040518163ffffffff1660e01b815260040160206040518083038186803b15801561417957600080fd5b505afa15801561418d573d6000803e3d6000fd5b505050506040513d601f19601f820116820180604052508101906141b191906158c8565b6040830135613b90602085018561528f565b6040516354e3f31b60e01b815273def171fe48cf0115b1d80b88dc8eab59176fee57906354e3f31b906141fa908490600401615aea565b602060405180830381600087803b15801561421457600080fd5b505af1158015614228573d6000803e3d6000fd5b505050506040513d601f19601f820116820180604052508101906139d6919061570e565b600080546001600160a01b038381166001600160a01b0319831681178455604051919092169283917f8be0079c531659141344cd1fd0a4f28419497f9722a3daafe3b4186f6b6457e09190a35050565b60007f0000000000000000000000000000000000000000000000000000000000000000600354858585426040516020016142db96959493929190615ca0565b6040516020818303038152906040528051906020012090506040518060a0016040528082815260200185858080601f01602080910402602001604051908101604052809392919081815260200183838082843760009201829052509385525050336020808501919091526040808501889052426060909501949094526003548352600281529290912083518155838301518051919361438293506001850192910190614b73565b5060408201516002820180546001600160a01b0319166001600160a01b03909216919091179055606082015160038201556080909101516004909101556143c76125d4565b6003546143d5906001613ce0565b6003556143e182614877565b7faaa4c278970337923c885845b00985ecf5082317e2f9abf72a27b4d35255d67281858533864260405161441a96959493929190615cdc565b60405180910390a150505050565b6000818484111561444c5760405162461bcd60e51b81526004016109959190615d1d565b505050900390565b6000908152600a60205260409020805460ff19166001179055565b6040516001600160a01b03808516602483015283166044820152606481018290526144da9085906323b872dd60e01b906084015b60408051601f198184030181529190526020810180516001600160e01b03166001600160e01b0319909316929092179091526148cc565b50505050565b6000818152600a602052604081205460ff16156145245760405162461bcd60e51b8152602060048201526002602482015261181b60f11b6044820152606401610995565b826145565760405162461bcd60e51b8152602060048201526002602482015261303760f01b6044820152606401610995565b8260a081901c6000614566611345565b905060006145988261144c857f0000000000000000000000000000000000000000000000000000000000000000614111565b6040516340c10f1960e01b81526001600160a01b038681166004830152602482018390529192507f0000000000000000000000000000000000000000000000000000000000000000909116906340c10f1990604401602060405180830381600087803b15801561460757600080fd5b505af115801561461b573d6000803e3d6000fd5b505050506040513d601f19601f8201168201806040525081019061463f9190615649565b5061464a888461499e565b61465386614454565b7fdfaf4e23f7030adafec91a682e05bf9fb30c721f9cec3d8bcfae0459c5362db1848483857f00000000000000000000000000000000000000000000000000000000000000006001600160a01b031663424192556040518163ffffffff1660e01b815260040160206040518083038186803b1580156146d157600080fd5b505afa1580156146e5573d6000803e3d6000fd5b505050506040513d601f19601f820116820180604052508101906147099190615853565b604080516001600160a01b039096168652602086019490945292840191909152606083015260ff16608082015260a0810188905260c00160405180910390a1506001979650505050505050565b604051636eb1769f60e11b81523060048201526001600160a01b038381166024830152600091839186169063dd62ed3e9060440160206040518083038186803b1580156147a257600080fd5b505afa1580156147b6573d6000803e3d6000fd5b505050506040513d601f19601f820116820180604052508101906147da919061570e565b6147e4919061598d565b6040516001600160a01b0385166024820152604481018290529091506144da90859063095ea7b360e01b906064016144a3565b6040805180820182526002815261031360f41b6020808301919091526001600160a01b038516600090815260099091529190912054614857918390614428565b6001600160a01b0390921660009081526009602052604090209190915550565b60085461489f5761489f600080526009602052600080516020615d4d83398151915254600855565b604080518082019091526002815261189960f11b60208201526008546148c6918390614428565b60085550565b6000614921826040518060400160405280602081526020017f5361666545524332303a206c6f772d6c6576656c2063616c6c206661696c6564815250856001600160a01b03166149c19092919063ffffffff16565b8051909150156127a9578080602001905181019061493f9190615649565b6127a95760405162461bcd60e51b815260206004820152602a60248201527f5361666545524332303a204552433230206f7065726174696f6e20646964206e6044820152691bdd081cdd58d8d9595960b21b6064820152608401610995565b6001600160a01b0382166000908152600960205260409020546148579082613ce0565b60606149d084846000856149d8565b949350505050565b606082471015614a395760405162461bcd60e51b815260206004820152602660248201527f416464726573733a20696e73756666696369656e742062616c616e636520666f6044820152651c8818d85b1b60d21b6064820152608401610995565b843b614a875760405162461bcd60e51b815260206004820152601d60248201527f416464726573733a2063616c6c20746f206e6f6e2d636f6e74726163740000006044820152606401610995565b600080866001600160a01b03168587604051614aa39190615d30565b60006040518083038185875af1925050503d8060008114614ae0576040519150601f19603f3d011682016040523d82523d6000602084013e614ae5565b606091505b5091509150614af5828286614b00565b979650505050505050565b60608315614b0f575081613ad8565b825115614b1f5782518084602001fd5b8160405162461bcd60e51b81526004016109959190615d1d565b508054614b4590615727565b6000825580601f10614b55575050565b601f0160209004906000526020600020908101906134ef9190614bf7565b828054614b7f90615727565b90600052602060002090601f016020900481019282614ba15760008555614be7565b82601f10614bba57805160ff1916838001178555614be7565b82800160010185558215614be7579182015b82811115614be7578251825591602001919060010190614bcc565b50614bf3929150614bf7565b5090565b5b80821115614bf35760008155600101614bf8565b634e487b7160e01b600052600160045260246000fd5b6001600160a01b03811681146134ef57600080fd5b8035614c4281614c22565b919050565b634e487b7160e01b600052604160045260246000fd5b604051601f8201601f191681016001600160401b0381118282101715614c8557614c85614c47565b604052919050565b60006001600160401b03821115614ca657614ca6614c47565b5060051b60200190565b600082601f830112614cc157600080fd5b81356020614cd6614cd183614c8d565b614c5d565b82815260059290921b84018101918181019086841115614cf557600080fd5b8286015b84811015614d105780358352918301918301614cf9565b509695505050505050565b60008060008060008060c08789031215614d3457600080fd5b8635614d3f81614c22565b95506020870135614d4f81614c22565b945060408701359350606087013592506080870135915060a08701356001600160401b03811115614d7f57600080fd5b614d8b89828a01614cb0565b9150509295509295509295565b80151581146134ef57600080fd5b8035614c4281614d98565b60008083601f840112614dc357600080fd5b5081356001600160401b03811115614dda57600080fd5b6020830191508360208260051b8501011115614df557600080fd5b9250929050565b600080600080600080600060c0888a031215614e1757600080fd5b8735614e2281614d98565b96506020880135614e3281614c22565b955060408801359450606088013593506080880135925060a08801356001600160401b03811115614e6257600080fd5b614e6e8a828b01614db1565b989b979a50959850939692959293505050565b600060208284031215614e9357600080fd5b5035919050565b60005b83811015614eb5578181015183820152602001614e9d565b838111156144da5750506000910152565b60008151808452614ede816020860160208601614e9a565b601f01601f19169290920160200192915050565b85815260a060208201526000614f0b60a0830187614ec6565b6001600160a01b0395909516604083015250606081019290925260809091015292915050565b60006020808301818452808551808352604092508286019150828160051b87010184880160005b83811015614fc157603f19898403018552815160a08151855288820151818a870152614f8682870182614ec6565b838a01516001600160a01b0316878b015260608085015190880152608093840151939096019290925250509386019390860190600101614f58565b509098975050505050505050565b60008060008060808587031215614fe557600080fd5b8435614ff081614c22565b966020860135965060408601359560600135945092505050565b6000806040838503121561501d57600080fd5b823561502881614c22565b946020939093013593505050565b6000806040838503121561504957600080fd5b823561505481614c22565b9150602083013561506481614c22565b809150509250929050565b60006101e0828403121561508257600080fd5b50919050565b60006020828403121561509a57600080fd5b81356001600160401b038111156150b057600080fd5b6149d08482850161506f565b600082601f8301126150cd57600080fd5b813560206150dd614cd183614c8d565b82815260059290921b840181019181810190868411156150fc57600080fd5b8286015b84811015614d1057803561511381614c22565b8352918301918301615100565b60ff811681146134ef57600080fd5b8035614c4281615120565b60008060008060008060c0878903121561515357600080fd5b863561515e81614c22565b95506020878101356001600160401b038082111561517b57600080fd5b6151878b838c016150bc565b975060408a013591508082111561519d57600080fd5b508801601f81018a136151af57600080fd5b80356151bd614cd182614c8d565b81815260059190911b8201830190838101908c8311156151dc57600080fd5b928401925b828410156152035783356151f481614d98565b825292840192908401906151e1565b80985050505050506152176060880161512f565b92506152256080880161512f565b915060a087013590509295509295509295565b600081518084526020808501945080840160005b838110156152715781516001600160a01b03168752958201959082019060010161524c565b509495945050505050565b602081526000613ad86020830184615238565b6000602082840312156152a157600080fd5b8135613ad881614c22565b600080600080608085870312156152c257600080fd5b84356152cd81614c22565b9350602085013592506040850135915060608501356001600160401b038111156152f657600080fd5b61530287828801614cb0565b91505092959194509250565b60008083601f84011261532057600080fd5b5081356001600160401b0381111561533757600080fd5b602083019150836020828501011115614df557600080fd5b60008060006040848603121561536457600080fd5b83356001600160401b038082111561537b57600080fd5b6153878783880161530e565b909550935060208601359150808211156153a057600080fd5b506153ad8682870161506f565b9150509250925092565b600080600080608085870312156153cd57600080fd5b84356001600160401b03808211156153e457600080fd5b6153f088838901614cb0565b95506020870135945060408701359350606087013591508082111561541457600080fd5b5061530287828801614cb0565b6000806040838503121561543457600080fd5b50508035926020909101359150565b60008060006060848603121561545857600080fd5b833561546381614c22565b95602085013595506040909401359392505050565b600080600080600080600080600060e08a8c03121561549657600080fd5b89356001600160401b03808211156154ad57600080fd5b6154b98d838e0161530e565b909b50995060208c013591506154ce82614d98565b90975060408b0135906154e082614c22565b90965060608b0135955060808b0135945060a08b0135935060c08b0135908082111561550b57600080fd5b506155188c828d01614db1565b915080935050809150509295985092959850929598565b60008060008060008060c0878903121561554857600080fd5b8635955060208088013595506040880135945060608801356001600160401b038082111561557557600080fd5b6155818b838c016150bc565b955060808a013591508082111561559757600080fd5b508801601f81018a136155a957600080fd5b80356155b7614cd182614c8d565b81815260059190911b8201830190838101908c8311156155d657600080fd5b928401925b828410156155f4578335825292840192908401906155db565b809650505050505061560860a08801614da6565b90509295509295509295565b6020808252818101527f4f776e61626c653a2063616c6c6572206973206e6f7420746865206f776e6572604082015260600190565b60006020828403121561565b57600080fd5b8151613ad881614d98565b6020808252601f908201527f5265656e7472616e637947756172643a207265656e7472616e742063616c6c00604082015260600190565b634e487b7160e01b600052603260045260246000fd5b634e487b7160e01b600052601160045260246000fd5b6000828210156156db576156db6156b3565b500390565b60208082526014908201527310985b185b98d9481a5b9cdd59999a58da595b9d60621b604082015260600190565b60006020828403121561572057600080fd5b5051919050565b600181811c9082168061573b57607f821691505b6020821081141561508257634e487b7160e01b600052602260045260246000fd5b6000600019821415615770576157706156b3565b5060010190565b6001600160a01b03958616815293909416602084015260408301919091526060820152608081019190915260a00190565b600060ff821660ff84168060ff038211156157c5576157c56156b3565b019392505050565b600060ff821660ff8114156157e4576157e46156b3565b60010192915050565b600060ff821680615800576158006156b3565b6000190192915050565b60208082526029908201527f7265636569766564416d6f756e74203c206d696e696d756d53776170416d6f756040820152686e74466f725742544360b81b606082015260800190565b60006020828403121561586557600080fd5b8151613ad881615120565b6001600160a01b03841681526060602080830182905260009161589590840186615238565b838103604085015284518082528286019183019060005b81811015614fc1578351835292840192918401916001016158ac565b6000602082840312156158da57600080fd5b8151613ad881614c22565b8183526000602080850194508260005b8581101561527157813561590881614c22565b6001600160a01b0316875295820195908201906001016158f5565b60018060a01b038716815285602082015284604082015283606082015260a06080820152600061595760a0830184866158e5565b98975050505050505050565b8481528360208201526060604082015260006159836060830184866158e5565b9695505050505050565b600082198211156159a0576159a06156b3565b500190565b60008160001904831182151516156159bf576159bf6156b3565b500290565b6000826159e157634e487b7160e01b600052601260045260246000fd5b500490565b6000808335601e198436030181126159fd57600080fd5b83016020810192503590506001600160401b03811115615a1c57600080fd5b8060051b3603831315614df557600080fd5b6000808335601e19843603018112615a4557600080fd5b83016020810192503590506001600160401b03811115615a6457600080fd5b803603831315614df557600080fd5b81835281816020850137506000828201602090810191909152601f909101601f19169091010190565b81835260006001600160fb1b03831115615ab557600080fd5b8260051b8083602087013760009401602001938452509192915050565b80356001600160801b031981168114614c4257600080fd5b60208152615b0b60208201615afe84614c37565b6001600160a01b03169052565b6000615b1960208401614c37565b6001600160a01b0381166040840152506040830135606083015260608301356080830152608083013560a0830152615b5460a08401846159e6565b6101e08060c0860152615b6c610200860183856158e5565b9250615b7b60c0870187615a2e565b9250601f19808786030160e0880152615b95858584615a73565b9450615ba460e08901896159e6565b94509150610100818887030181890152615bbf868685615a9c565b9550615bcd818a018a6159e6565b9550925050610120818887030181890152615be9868685615a9c565b9550615bf6818a01614c37565b9450506101409150615c12828801856001600160a01b03169052565b615c1d828901614c37565b93506101609150615c38828801856001600160a01b03169052565b61018093508188013584880152615c5184890189615a2e565b945091506101a0818887030181890152615c6c868685615a73565b95506101c094508089013585890152505050615c89828701615ad2565b6001600160801b0319169401939093529392505050565b6bffffffffffffffffffffffff198760601b16815285601482015283856034830137603493019283019190915260548201526074019392505050565b86815260a060208201526000615cf660a083018789615a73565b6001600160a01b039590951660408301525060608101929092526080909101529392505050565b602081526000613ad86020830184614ec6565b60008251615d42818460208701614e9a565b919091019291505056feec8156718a8372b1db44bb411437d0870f3e3790d4a08526d024ce1b0b668f6ba26469706673582212203928b687f87ecf1a53f77fc17419d9eadfa60ee9ccc829a7feda689c3afcfa5f64736f6c63430008090033",
  "linkReferences": {},
  "deployedLinkReferences": {}
}