{
  "_format": "hh-sol-artifact-1",
  "contractName": "SwapContract",
  "sourceName": "contracts/SwapContract.sol",
  "abi": [
    {
      "inputs": [
        {
          "internalType": "address",
          "name": "_lpToken",
          "type": "address"
        },
        {
          "internalType": "address",
          "name": "_btct",
          "type": "address"
        },
        {
          "internalType": "address",
          "name": "_wETH",
          "type": "address"
        },
        {
          "internalType": "address",
          "name": "_sbBTCPool",
          "type": "address"
        },
        {
          "internalType": "uint256",
          "name": "_existingBTCFloat",
          "type": "uint256"
        }
      ],
      "stateMutability": "nonpayable",
      "type": "constructor"
    },
    {
      "anonymous": false,
      "inputs": [
        {
          "indexed": false,
          "internalType": "address",
          "name": "token",
          "type": "address"
        },
        {
          "indexed": false,
          "internalType": "uint256",
          "name": "amountOfLP",
          "type": "uint256"
        },
        {
          "indexed": false,
          "internalType": "uint256",
          "name": "amountOfFloat",
          "type": "uint256"
        },
        {
          "indexed": false,
          "internalType": "uint256",
          "name": "currentPriceLP",
          "type": "uint256"
        },
        {
          "indexed": false,
          "internalType": "uint256",
          "name": "withdrawal",
          "type": "uint256"
        },
        {
          "indexed": false,
          "internalType": "bytes32",
          "name": "txid",
          "type": "bytes32"
        }
      ],
      "name": "BurnLPTokensForFloat",
      "type": "event"
    },
    {
      "anonymous": false,
      "inputs": [
        {
          "indexed": false,
          "internalType": "address",
          "name": "token",
          "type": "address"
        },
        {
          "indexed": false,
          "internalType": "address",
          "name": "user",
          "type": "address"
        },
        {
          "indexed": false,
          "internalType": "uint256",
          "name": "amount",
          "type": "uint256"
        },
        {
          "indexed": false,
          "internalType": "uint256",
          "name": "balance",
          "type": "uint256"
        },
        {
          "indexed": false,
          "internalType": "uint256",
          "name": "Timestamp",
          "type": "uint256"
        }
      ],
      "name": "Deposit",
      "type": "event"
    },
    {
      "anonymous": false,
      "inputs": [
        {
          "indexed": false,
          "internalType": "uint256",
          "name": "rewardLPTsForNodes",
          "type": "uint256"
        }
      ],
      "name": "DistributeNodeRewards",
      "type": "event"
    },
    {
      "anonymous": false,
      "inputs": [
        {
          "indexed": false,
          "internalType": "address",
          "name": "to",
          "type": "address"
        },
        {
          "indexed": false,
          "internalType": "uint256",
          "name": "amountOfFloat",
          "type": "uint256"
        },
        {
          "indexed": false,
          "internalType": "uint256",
          "name": "amountOfLP",
          "type": "uint256"
        },
        {
          "indexed": false,
          "internalType": "uint256",
          "name": "currentPriceLP",
          "type": "uint256"
        },
        {
          "indexed": false,
          "internalType": "uint256",
          "name": "depositFees",
          "type": "uint256"
        },
        {
          "indexed": false,
          "internalType": "bytes32",
          "name": "txid",
          "type": "bytes32"
        }
      ],
      "name": "IssueLPTokensForFloat",
      "type": "event"
    },
    {
      "anonymous": false,
      "inputs": [
        {
          "indexed": true,
          "internalType": "address",
          "name": "previousOwner",
          "type": "address"
        },
        {
          "indexed": true,
          "internalType": "address",
          "name": "newOwner",
          "type": "address"
        }
      ],
      "name": "OwnershipTransferred",
      "type": "event"
    },
    {
      "anonymous": false,
      "inputs": [
        {
          "indexed": false,
          "internalType": "address",
          "name": "feesToken",
          "type": "address"
        },
        {
          "indexed": false,
          "internalType": "uint256",
          "name": "rewards",
          "type": "uint256"
        },
        {
          "indexed": false,
          "internalType": "uint256",
          "name": "amountLPTokensForNode",
          "type": "uint256"
        },
        {
          "indexed": false,
          "internalType": "uint256",
          "name": "currentPriceLP",
          "type": "uint256"
        }
      ],
      "name": "RewardsCollection",
      "type": "event"
    },
    {
      "anonymous": false,
      "inputs": [
        {
          "indexed": false,
          "internalType": "uint256",
          "name": "ExpirationTime",
          "type": "uint256"
        },
        {
          "indexed": false,
          "internalType": "uint256",
          "name": "Timestamp",
          "type": "uint256"
        }
      ],
      "name": "SetExpirationTime",
      "type": "event"
    },
    {
      "anonymous": false,
      "inputs": [
        {
          "indexed": false,
          "internalType": "address",
          "name": "from",
          "type": "address"
        },
        {
          "indexed": false,
          "internalType": "address",
          "name": "to",
          "type": "address"
        },
        {
          "indexed": false,
          "internalType": "uint256",
          "name": "amount",
          "type": "uint256"
        }
      ],
      "name": "Swap",
      "type": "event"
    },
    {
      "anonymous": false,
      "inputs": [
        {
          "indexed": false,
          "internalType": "bytes32",
          "name": "SwapID",
          "type": "bytes32"
        },
        {
          "indexed": false,
          "internalType": "string",
          "name": "DestAddr",
          "type": "string"
        },
        {
          "indexed": false,
          "internalType": "address",
          "name": "RefundAddr",
          "type": "address"
        },
        {
          "indexed": false,
          "internalType": "uint256",
          "name": "AmountWBTC",
          "type": "uint256"
        },
        {
          "indexed": false,
          "internalType": "uint256",
          "name": "Timestamp",
          "type": "uint256"
        }
      ],
      "name": "SwapTokensToBTC",
      "type": "event"
    },
    {
      "anonymous": false,
      "inputs": [
        {
          "indexed": false,
          "internalType": "address",
          "name": "token",
          "type": "address"
        },
        {
          "indexed": false,
          "internalType": "address",
          "name": "user",
          "type": "address"
        },
        {
          "indexed": false,
          "internalType": "uint256",
          "name": "amount",
          "type": "uint256"
        },
        {
          "indexed": false,
          "internalType": "uint256",
          "name": "balance",
          "type": "uint256"
        },
        {
          "indexed": false,
          "internalType": "uint256",
          "name": "Timestamp",
          "type": "uint256"
        }
      ],
      "name": "Withdraw",
      "type": "event"
    },
    {
      "stateMutability": "nonpayable",
      "type": "fallback"
    },
    {
      "inputs": [],
      "name": "BTCT_ADDR",
      "outputs": [
        {
          "internalType": "address",
          "name": "",
          "type": "address"
        }
      ],
      "stateMutability": "view",
      "type": "function"
    },
    {
      "inputs": [
        {
          "internalType": "address",
          "name": "_token",
          "type": "address"
        },
        {
          "internalType": "address",
          "name": "_user",
          "type": "address"
        }
      ],
      "name": "balanceOf",
      "outputs": [
        {
          "internalType": "uint256",
          "name": "",
          "type": "uint256"
        }
      ],
      "stateMutability": "view",
      "type": "function"
    },
    {
      "inputs": [
        {
          "internalType": "address",
          "name": "_newOwner",
          "type": "address"
        },
        {
          "internalType": "address[]",
          "name": "_nodes",
          "type": "address[]"
        },
        {
          "internalType": "bool[]",
          "name": "_isRemoved",
          "type": "bool[]"
        },
        {
          "internalType": "uint8",
          "name": "_churnedInCount",
          "type": "uint8"
        },
        {
          "internalType": "uint8",
          "name": "_tssThreshold",
          "type": "uint8"
        },
        {
          "internalType": "uint8",
          "name": "_nodeRewardsRatio",
          "type": "uint8"
        },
        {
          "internalType": "uint8",
          "name": "_withdrawalFeeBPS",
          "type": "uint8"
        },
        {
          "internalType": "uint256",
          "name": "_totalStakedAmount",
          "type": "uint256"
        },
        {
          "internalType": "uint256",
          "name": "_minimumSwapAmountForWBTC",
          "type": "uint256"
        },
        {
          "internalType": "uint256",
          "name": "_expirationTime",
          "type": "uint256"
        }
      ],
      "name": "churn",
      "outputs": [
        {
          "internalType": "bool",
          "name": "",
          "type": "bool"
        }
      ],
      "stateMutability": "nonpayable",
      "type": "function"
    },
    {
      "inputs": [],
      "name": "churnedInCount",
      "outputs": [
        {
          "internalType": "uint8",
          "name": "",
          "type": "uint8"
        }
      ],
      "stateMutability": "view",
      "type": "function"
    },
    {
      "inputs": [
        {
          "internalType": "address",
          "name": "_destToken",
          "type": "address"
        },
        {
          "internalType": "uint256",
          "name": "_incomingAmount",
          "type": "uint256"
        },
        {
          "internalType": "uint256",
          "name": "_minerFee",
          "type": "uint256"
        },
        {
          "internalType": "uint256",
          "name": "_rewardsAmount",
          "type": "uint256"
        },
        {
          "internalType": "bool",
          "name": "_isUpdatelimitBTCForSPFlow2",
          "type": "bool"
        }
      ],
      "name": "collectSwapFeesForBTC",
      "outputs": [
        {
          "internalType": "bool",
          "name": "",
          "type": "bool"
        }
      ],
      "stateMutability": "nonpayable",
      "type": "function"
    },
    {
      "inputs": [],
      "name": "depositFeesBPS",
      "outputs": [
        {
          "internalType": "uint8",
          "name": "",
          "type": "uint8"
        }
      ],
      "stateMutability": "view",
      "type": "function"
    },
    {
      "inputs": [],
      "name": "distributeNodeRewards",
      "outputs": [
        {
          "internalType": "bool",
          "name": "",
          "type": "bool"
        }
      ],
      "stateMutability": "nonpayable",
      "type": "function"
    },
    {
      "inputs": [],
      "name": "expirationTime",
      "outputs": [
        {
          "internalType": "uint256",
          "name": "",
          "type": "uint256"
        }
      ],
      "stateMutability": "view",
      "type": "function"
    },
    {
      "inputs": [],
      "name": "feesLPTokensForNode",
      "outputs": [
        {
          "internalType": "uint256",
          "name": "",
          "type": "uint256"
        }
      ],
      "stateMutability": "view",
      "type": "function"
    },
    {
      "inputs": [],
      "name": "getCurrentPriceLP",
      "outputs": [
        {
          "internalType": "uint256",
          "name": "nowPrice",
          "type": "uint256"
        }
      ],
      "stateMutability": "view",
      "type": "function"
    },
    {
      "inputs": [
        {
          "internalType": "address",
          "name": "_token",
          "type": "address"
        },
        {
          "internalType": "uint256",
          "name": "_amountOfFloat",
          "type": "uint256"
        }
      ],
      "name": "getDepositFeeRate",
      "outputs": [
        {
          "internalType": "uint256",
          "name": "depositFeeRate",
          "type": "uint256"
        }
      ],
      "stateMutability": "view",
      "type": "function"
    },
    {
      "inputs": [
        {
          "internalType": "address",
          "name": "_tokenA",
          "type": "address"
        },
        {
          "internalType": "address",
          "name": "_tokenB",
          "type": "address"
        }
      ],
      "name": "getFloatReserve",
      "outputs": [
        {
          "internalType": "uint256",
          "name": "reserveA",
          "type": "uint256"
        },
        {
          "internalType": "uint256",
          "name": "reserveB",
          "type": "uint256"
        }
      ],
      "stateMutability": "view",
      "type": "function"
    },
    {
      "inputs": [],
      "name": "initialExchangeRate",
      "outputs": [
        {
          "internalType": "uint256",
          "name": "",
          "type": "uint256"
        }
      ],
      "stateMutability": "view",
      "type": "function"
    },
    {
      "inputs": [
        {
          "internalType": "address",
          "name": "_user",
          "type": "address"
        }
      ],
      "name": "isNodeStake",
      "outputs": [
        {
          "internalType": "bool",
          "name": "",
          "type": "bool"
        }
      ],
      "stateMutability": "view",
      "type": "function"
    },
    {
      "inputs": [
        {
          "internalType": "bytes32",
          "name": "_txid",
          "type": "bytes32"
        }
      ],
      "name": "isTxUsed",
      "outputs": [
        {
          "internalType": "bool",
          "name": "",
          "type": "bool"
        }
      ],
      "stateMutability": "view",
      "type": "function"
    },
    {
      "inputs": [],
      "name": "limitBTCForSPFlow2",
      "outputs": [
        {
          "internalType": "uint256",
          "name": "",
          "type": "uint256"
        }
      ],
      "stateMutability": "view",
      "type": "function"
    },
    {
      "inputs": [],
      "name": "lockedLPTokensForNode",
      "outputs": [
        {
          "internalType": "uint256",
          "name": "",
          "type": "uint256"
        }
      ],
      "stateMutability": "view",
      "type": "function"
    },
    {
      "inputs": [],
      "name": "lpToken",
      "outputs": [
        {
          "internalType": "address",
          "name": "",
          "type": "address"
        }
      ],
      "stateMutability": "view",
      "type": "function"
    },
    {
      "inputs": [],
      "name": "minimumSwapAmountForWBTC",
      "outputs": [
        {
          "internalType": "uint256",
          "name": "",
          "type": "uint256"
        }
      ],
      "stateMutability": "view",
      "type": "function"
    },
    {
      "inputs": [
        {
          "internalType": "bytes32[]",
          "name": "_addressesAndAmounts",
          "type": "bytes32[]"
        },
        {
          "internalType": "uint256",
          "name": "_totalSwapped",
          "type": "uint256"
        },
        {
          "internalType": "uint256",
          "name": "_rewardsAmount",
          "type": "uint256"
        },
        {
          "internalType": "bytes32[]",
          "name": "_usedTxIds",
          "type": "bytes32[]"
        }
      ],
      "name": "multiRecordSkyPoolsTX",
      "outputs": [
        {
          "internalType": "bool",
          "name": "",
          "type": "bool"
        }
      ],
      "stateMutability": "nonpayable",
      "type": "function"
    },
    {
      "inputs": [
        {
          "internalType": "address",
          "name": "_destToken",
          "type": "address"
        },
        {
          "internalType": "bytes32[]",
          "name": "_addressesAndAmounts",
          "type": "bytes32[]"
        },
        {
          "internalType": "uint256",
          "name": "_totalSwapped",
          "type": "uint256"
        },
        {
          "internalType": "uint256",
          "name": "_rewardsAmount",
          "type": "uint256"
        },
        {
          "internalType": "bytes32[]",
          "name": "_redeemedFloatTxIds",
          "type": "bytes32[]"
        }
      ],
      "name": "multiTransferERC20TightlyPacked",
      "outputs": [
        {
          "internalType": "bool",
          "name": "",
          "type": "bool"
        }
      ],
      "stateMutability": "nonpayable",
      "type": "function"
    },
    {
      "inputs": [],
      "name": "nodeRewardsRatio",
      "outputs": [
        {
          "internalType": "uint8",
          "name": "",
          "type": "uint8"
        }
      ],
      "stateMutability": "view",
      "type": "function"
    },
    {
      "inputs": [],
      "name": "oldestActiveIndex",
      "outputs": [
        {
          "internalType": "uint256",
          "name": "",
          "type": "uint256"
        }
      ],
      "stateMutability": "view",
      "type": "function"
    },
    {
      "inputs": [],
      "name": "owner",
      "outputs": [
        {
          "internalType": "address",
          "name": "",
          "type": "address"
        }
      ],
      "stateMutability": "view",
      "type": "function"
    },
    {
      "inputs": [
        {
          "internalType": "address",
          "name": "_token",
          "type": "address"
        },
        {
          "internalType": "bytes32",
          "name": "_addressesAndAmountOfFloat",
          "type": "bytes32"
        },
        {
          "internalType": "bool",
          "name": "_zerofee",
          "type": "bool"
        },
        {
          "internalType": "bytes32",
          "name": "_txid",
          "type": "bytes32"
        }
      ],
      "name": "recordIncomingFloat",
      "outputs": [
        {
          "internalType": "bool",
          "name": "",
          "type": "bool"
        }
      ],
      "stateMutability": "nonpayable",
      "type": "function"
    },
    {
      "inputs": [
        {
          "internalType": "address",
          "name": "_token",
          "type": "address"
        },
        {
          "internalType": "bytes32",
          "name": "_addressesAndAmountOfLPtoken",
          "type": "bytes32"
        },
        {
          "internalType": "uint256",
          "name": "_minerFee",
          "type": "uint256"
        },
        {
          "internalType": "bytes32",
          "name": "_txid",
          "type": "bytes32"
        }
      ],
      "name": "recordOutcomingFloat",
      "outputs": [
        {
          "internalType": "bool",
          "name": "",
          "type": "bool"
        }
      ],
      "stateMutability": "nonpayable",
      "type": "function"
    },
    {
      "inputs": [
        {
          "internalType": "address",
          "name": "_to",
          "type": "address"
        },
        {
          "internalType": "uint256",
          "name": "_totalSwapped",
          "type": "uint256"
        },
        {
          "internalType": "uint256",
          "name": "_rewardsAmount",
          "type": "uint256"
        },
        {
          "internalType": "bytes32[]",
          "name": "_usedTxIds",
          "type": "bytes32[]"
        }
      ],
      "name": "recordSkyPoolsTX",
      "outputs": [
        {
          "internalType": "bool",
          "name": "",
          "type": "bool"
        }
      ],
      "stateMutability": "nonpayable",
      "type": "function"
    },
    {
      "inputs": [
        {
          "internalType": "uint256",
          "name": "_minerFee",
          "type": "uint256"
        },
        {
          "internalType": "bytes32",
          "name": "_txid",
          "type": "bytes32"
        }
      ],
      "name": "recordUTXOSweepMinerFee",
      "outputs": [
        {
          "internalType": "bool",
          "name": "",
          "type": "bool"
        }
      ],
      "stateMutability": "nonpayable",
      "type": "function"
    },
    {
      "inputs": [
        {
          "internalType": "address",
          "name": "_token",
          "type": "address"
        },
        {
          "internalType": "uint256",
          "name": "_amount",
          "type": "uint256"
        }
      ],
      "name": "redeemERC20Token",
      "outputs": [],
      "stateMutability": "nonpayable",
      "type": "function"
    },
    {
      "inputs": [
        {
          "internalType": "uint256",
          "name": "_amount",
          "type": "uint256"
        }
      ],
      "name": "redeemEther",
      "outputs": [],
      "stateMutability": "nonpayable",
      "type": "function"
    },
    {
      "inputs": [],
      "name": "renounceOwnership",
      "outputs": [],
      "stateMutability": "nonpayable",
      "type": "function"
    },
    {
      "inputs": [],
      "name": "sbBTCPool",
      "outputs": [
        {
          "internalType": "address",
          "name": "",
          "type": "address"
        }
      ],
      "stateMutability": "view",
      "type": "function"
    },
    {
      "inputs": [
        {
          "internalType": "address",
          "name": "_destToken",
          "type": "address"
        },
        {
          "internalType": "address",
          "name": "_to",
          "type": "address"
        },
        {
          "internalType": "uint256",
          "name": "_amount",
          "type": "uint256"
        },
        {
          "internalType": "uint256",
          "name": "_totalSwapped",
          "type": "uint256"
        },
        {
          "internalType": "uint256",
          "name": "_rewardsAmount",
          "type": "uint256"
        },
        {
          "internalType": "bytes32[]",
          "name": "_redeemedFloatTxIds",
          "type": "bytes32[]"
        }
      ],
      "name": "singleTransferERC20",
      "outputs": [
        {
          "internalType": "bool",
          "name": "",
          "type": "bool"
        }
      ],
      "stateMutability": "nonpayable",
      "type": "function"
    },
    {
      "inputs": [
        {
          "internalType": "uint256",
          "name": "_loopCount",
          "type": "uint256"
        }
      ],
      "name": "spCleanUpOldTXs",
      "outputs": [],
      "stateMutability": "nonpayable",
      "type": "function"
    },
    {
      "inputs": [
        {
          "internalType": "address",
          "name": "_token",
          "type": "address"
        },
        {
          "internalType": "uint256",
          "name": "_amount",
          "type": "uint256"
        }
      ],
      "name": "spDeposit",
      "outputs": [],
      "stateMutability": "payable",
      "type": "function"
    },
    {
      "inputs": [
        {
          "components": [
            {
              "internalType": "address",
              "name": "fromToken",
              "type": "address"
            },
            {
              "internalType": "address",
              "name": "toToken",
              "type": "address"
            },
            {
              "internalType": "uint256",
              "name": "fromAmount",
              "type": "uint256"
            },
            {
              "internalType": "uint256",
              "name": "toAmount",
              "type": "uint256"
            },
            {
              "internalType": "uint256",
              "name": "expectedAmount",
              "type": "uint256"
            },
            {
              "internalType": "address[]",
              "name": "callees",
              "type": "address[]"
            },
            {
              "internalType": "bytes",
              "name": "exchangeData",
              "type": "bytes"
            },
            {
              "internalType": "uint256[]",
              "name": "startIndexes",
              "type": "uint256[]"
            },
            {
              "internalType": "uint256[]",
              "name": "values",
              "type": "uint256[]"
            },
            {
              "internalType": "address payable",
              "name": "beneficiary",
              "type": "address"
            },
            {
              "internalType": "address payable",
              "name": "partner",
              "type": "address"
            },
            {
              "internalType": "uint256",
              "name": "feePercent",
              "type": "uint256"
            },
            {
              "internalType": "bytes",
              "name": "permit",
              "type": "bytes"
            },
            {
              "internalType": "uint256",
              "name": "deadline",
              "type": "uint256"
            },
            {
              "internalType": "bytes16",
              "name": "uuid",
              "type": "bytes16"
            }
          ],
          "internalType": "struct Utils.SimpleData",
          "name": "_data",
          "type": "tuple"
        }
      ],
      "name": "spFlow1SimpleSwap",
      "outputs": [],
      "stateMutability": "nonpayable",
      "type": "function"
    },
    {
      "inputs": [
        {
          "internalType": "bool",
          "name": "_fork",
          "type": "bool"
        },
        {
          "internalType": "address",
          "name": "_factory",
          "type": "address"
        },
        {
          "internalType": "bytes32",
          "name": "_initCode",
          "type": "bytes32"
        },
        {
          "internalType": "uint256",
          "name": "_amountIn",
          "type": "uint256"
        },
        {
          "internalType": "uint256",
          "name": "_amountOutMin",
          "type": "uint256"
        },
        {
          "internalType": "address[]",
          "name": "_path",
          "type": "address[]"
        }
      ],
      "name": "spFlow1Uniswap",
      "outputs": [
        {
          "internalType": "uint256",
          "name": "receivedAmount",
          "type": "uint256"
        }
      ],
      "stateMutability": "nonpayable",
      "type": "function"
    },
    {
      "inputs": [
        {
          "internalType": "string",
          "name": "_destinationAddressForBTC",
          "type": "string"
        },
        {
          "components": [
            {
              "internalType": "address",
              "name": "fromToken",
              "type": "address"
            },
            {
              "internalType": "address",
              "name": "toToken",
              "type": "address"
            },
            {
              "internalType": "uint256",
              "name": "fromAmount",
              "type": "uint256"
            },
            {
              "internalType": "uint256",
              "name": "toAmount",
              "type": "uint256"
            },
            {
              "internalType": "uint256",
              "name": "expectedAmount",
              "type": "uint256"
            },
            {
              "internalType": "address[]",
              "name": "callees",
              "type": "address[]"
            },
            {
              "internalType": "bytes",
              "name": "exchangeData",
              "type": "bytes"
            },
            {
              "internalType": "uint256[]",
              "name": "startIndexes",
              "type": "uint256[]"
            },
            {
              "internalType": "uint256[]",
              "name": "values",
              "type": "uint256[]"
            },
            {
              "internalType": "address payable",
              "name": "beneficiary",
              "type": "address"
            },
            {
              "internalType": "address payable",
              "name": "partner",
              "type": "address"
            },
            {
              "internalType": "uint256",
              "name": "feePercent",
              "type": "uint256"
            },
            {
              "internalType": "bytes",
              "name": "permit",
              "type": "bytes"
            },
            {
              "internalType": "uint256",
              "name": "deadline",
              "type": "uint256"
            },
            {
              "internalType": "bytes16",
              "name": "uuid",
              "type": "bytes16"
            }
          ],
          "internalType": "struct Utils.SimpleData",
          "name": "_data",
          "type": "tuple"
        }
      ],
      "name": "spFlow2SimpleSwap",
      "outputs": [
        {
          "internalType": "uint256",
          "name": "receivedAmount",
          "type": "uint256"
        }
      ],
      "stateMutability": "nonpayable",
      "type": "function"
    },
    {
      "inputs": [
        {
          "internalType": "string",
          "name": "_destinationAddressForBTC",
          "type": "string"
        },
        {
          "internalType": "bool",
          "name": "_fork",
          "type": "bool"
        },
        {
          "internalType": "address",
          "name": "_factory",
          "type": "address"
        },
        {
          "internalType": "bytes32",
          "name": "_initCode",
          "type": "bytes32"
        },
        {
          "internalType": "uint256",
          "name": "_amountIn",
          "type": "uint256"
        },
        {
          "internalType": "uint256",
          "name": "_amountOutMin",
          "type": "uint256"
        },
        {
          "internalType": "address[]",
          "name": "_path",
          "type": "address[]"
        }
      ],
      "name": "spFlow2Uniswap",
      "outputs": [
        {
          "internalType": "uint256",
          "name": "receivedAmount",
          "type": "uint256"
        }
      ],
      "stateMutability": "nonpayable",
      "type": "function"
    },
    {
      "inputs": [],
      "name": "spGetPendingSwaps",
      "outputs": [
        {
          "components": [
            {
              "internalType": "bytes32",
              "name": "SwapID",
              "type": "bytes32"
            },
            {
              "internalType": "string",
              "name": "DestAddr",
              "type": "string"
            },
            {
              "internalType": "address",
              "name": "RefundAddr",
              "type": "address"
            },
            {
              "internalType": "uint256",
              "name": "AmountWBTC",
              "type": "uint256"
            },
            {
              "internalType": "uint256",
              "name": "Timestamp",
              "type": "uint256"
            }
          ],
          "internalType": "struct SwapContract.spPendingTx[]",
          "name": "data",
          "type": "tuple[]"
        }
      ],
      "stateMutability": "view",
      "type": "function"
    },
    {
      "inputs": [
        {
          "internalType": "uint256",
          "name": "",
          "type": "uint256"
        }
      ],
      "name": "spPendingTXs",
      "outputs": [
        {
          "internalType": "bytes32",
          "name": "SwapID",
          "type": "bytes32"
        },
        {
          "internalType": "string",
          "name": "DestAddr",
          "type": "string"
        },
        {
          "internalType": "address",
          "name": "RefundAddr",
          "type": "address"
        },
        {
          "internalType": "uint256",
          "name": "AmountWBTC",
          "type": "uint256"
        },
        {
          "internalType": "uint256",
          "name": "Timestamp",
          "type": "uint256"
        }
      ],
      "stateMutability": "view",
      "type": "function"
    },
    {
      "inputs": [],
      "name": "swapCount",
      "outputs": [
        {
          "internalType": "uint256",
          "name": "",
          "type": "uint256"
        }
      ],
      "stateMutability": "view",
      "type": "function"
    },
    {
      "inputs": [
        {
          "internalType": "address",
          "name": "",
          "type": "address"
        },
        {
          "internalType": "address",
          "name": "",
          "type": "address"
        }
      ],
      "name": "tokens",
      "outputs": [
        {
          "internalType": "uint256",
          "name": "",
          "type": "uint256"
        }
      ],
      "stateMutability": "view",
      "type": "function"
    },
    {
      "inputs": [],
      "name": "totalStakedAmount",
      "outputs": [
        {
          "internalType": "uint256",
          "name": "",
          "type": "uint256"
        }
      ],
      "stateMutability": "view",
      "type": "function"
    },
    {
      "inputs": [
        {
          "internalType": "address",
          "name": "newOwner",
          "type": "address"
        }
      ],
      "name": "transferOwnership",
      "outputs": [],
      "stateMutability": "nonpayable",
      "type": "function"
    },
    {
      "inputs": [],
      "name": "tssThreshold",
      "outputs": [
        {
          "internalType": "uint8",
          "name": "",
          "type": "uint8"
        }
      ],
      "stateMutability": "view",
      "type": "function"
    },
    {
      "inputs": [],
      "name": "wETH",
      "outputs": [
        {
          "internalType": "address",
          "name": "",
          "type": "address"
        }
      ],
      "stateMutability": "view",
      "type": "function"
    },
    {
      "inputs": [
        {
          "internalType": "address",
          "name": "",
          "type": "address"
        }
      ],
      "name": "whitelist",
      "outputs": [
        {
          "internalType": "bool",
          "name": "",
          "type": "bool"
        }
      ],
      "stateMutability": "view",
      "type": "function"
    },
    {
      "inputs": [],
      "name": "withdrawalFeeBPS",
      "outputs": [
        {
          "internalType": "uint8",
          "name": "",
          "type": "uint8"
        }
      ],
      "stateMutability": "view",
      "type": "function"
    },
    {
      "stateMutability": "payable",
      "type": "receive"
    }
  ],
  "bytecode": "0x6101406040523480156200001257600080fd5b50604051620063ff380380620063ff833981016040819052620000359162000347565b6200004033620002da565b600180556202a300600255615dc0600355600060068190556005556001600160a01b038084166101005282811661012052851660a08190526040805163313ce56760e01b8152905163313ce56791600480820192602092909190829003018186803b158015620000af57600080fd5b505afa158015620000c4573d6000803e3d6000fd5b505050506040513d601f19601f82011682018060405250810190620000ea9190620003ae565b620000f790600a620004ef565b60e0526001600160a01b03841660808190526008805464ffffff000019166414324200001781556040805163313ce56760e01b8152905191929163313ce56791600480820192602092909190829003018186803b1580156200015857600080fd5b505afa1580156200016d573d6000803e3d6000fd5b505050506040513d601f19601f82011682018060405250810190620001939190620003ae565b6200019f919062000500565b620001ac90600a620004ef565b60c08181525050846001600160a01b031663313ce5676040518163ffffffff1660e01b815260040160206040518083038186803b158015620001ed57600080fd5b505afa15801562000202573d6000803e3d6000fd5b505050506040513d601f19601f82011682018060405250810190620002289190620003ae565b6200023590600a620004ef565b600b5560006009819055600a8190556001600160a01b039485168152600760209081526040808320805460ff199081166001908117909255989097168352822080548816871790559080527f6d5257204ebe7d88fd91ae87941cb2dd9d8062b64ae5a2bd2d28ec40b9fbf6df80549096169094179094555050600d90527f81955a0a11e65eac625c29e8882660bae4e165a75d72780094acae8ece9a29ee5562000526565b600080546001600160a01b038381166001600160a01b0319831681178455604051919092169283917f8be0079c531659141344cd1fd0a4f28419497f9722a3daafe3b4186f6b6457e09190a35050565b80516001600160a01b03811681146200034257600080fd5b919050565b600080600080600060a086880312156200036057600080fd5b6200036b866200032a565b94506200037b602087016200032a565b93506200038b604087016200032a565b92506200039b606087016200032a565b9150608086015190509295509295909350565b600060208284031215620003c157600080fd5b815160ff81168114620003d357600080fd5b9392505050565b634e487b7160e01b600052601160045260246000fd5b600181815b8085111562000431578160001904821115620004155762000415620003da565b808516156200042357918102915b93841c9390800290620003f5565b509250929050565b6000826200044a57506001620004e9565b816200045957506000620004e9565b81600181146200047257600281146200047d576200049d565b6001915050620004e9565b60ff841115620004915762000491620003da565b50506001821b620004e9565b5060208310610133831016604e8410600b8410161715620004c2575081810a620004e9565b620004ce8383620003f0565b8060001904821115620004e557620004e5620003da565b0290505b92915050565b6000620003d360ff84168362000439565b600060ff821660ff8416808210156200051d576200051d620003da565b90039392505050565b60805160a05160c05160e0516101005161012051615d1d620006e26000396000818161031301526133480152600081816102c00152818161093101528181611dae01528181611e0a01528181611e7701528181611ebe01528181611fa201528181612d3001528181612daa0152612df30152600081816118760152818161373201528181613c54015261423c0152600061386901526000818161065001528181610da501528181610de0015281816117c20152818161213901528181612174015281816132ac015281816133770152818161361e01528181613e6a01526142b001526000818161040001528181610d5101528181610d8301528181610efa01528181610f76015281816116f70152818161179601528181611b50015281816120e5015281816121170152818161225701528181612286015281816122d601528181612369015281816123f70152818161274d015281816127890152818161284c015281816128c00152818161295701528181612b2d01528181612f580152818161303a0152818161382b01528181613d0001528181613d7c01528181613e1101528181613f7501528181613fc201526144460152615d1d6000f3fe6080604052600436106102b05760003560e01c806363f289d911610175578063b81102de116100dc578063e6ca208411610095578063f24286211161006f578063f24286211461091f578063f2fde38b14610953578063f7824bc714610973578063f7888aec14610989576102ef565b8063e6ca2084146108a5578063e9e9bf6a146108d5578063ec482729146108ea576102ef565b8063b81102de146107fc578063bf62dcc81461081c578063c810a5391461083c578063ca0707e71461085c578063d38c7bb11461086f578063da284dcc1461088f576102ef565b8063a742329d1161012e578063a742329d1461072b578063a827278b14610764578063ad289e761461077a578063b345a3581461079a578063b4014fe8146107ba578063b6268e5d146107da576102ef565b806363f289d9146106725780636d019f3514610692578063715018a6146106a85780638535490f146106bd5780638da5cb5b146106dd5780639b19251a146106fb576102ef565b806321959d3c1161021957806345137e27116101d257806345137e271461059b5780634db75485146105b0578063508493bc146105d0578063511834c314610608578063567e98f9146106285780635fcbd2851461063e576102ef565b806321959d3c146104ee5780632586c5621461050e5780632d55282d1461052e5780632eff0d9e146105445780633b6fa1271461055a578063424192551461057a576102ef565b806312d1441e1161026b57806312d1441e14610422578063130b7a63146104415780631411c5b71461046f5780631ab7e937146104855780631bb06930146104b657806320199e99146104cc576102ef565b806285aea11461030157806289356f14610352578063045f888a1461037e5780630b68134d146103ae5780630d63aca7146103ce5780630f909486146103ee576102ef565b366102ef57336001600160a01b037f000000000000000000000000000000000000000000000000000000000000000016146102ed576102ed614bef565b005b3480156102fb57600080fd5b50600080fd5b34801561030d57600080fd5b506103357f000000000000000000000000000000000000000000000000000000000000000081565b6040516001600160a01b0390911681526020015b60405180910390f35b34801561035e57600080fd5b5060085461036c9060ff1681565b60405160ff9091168152602001610349565b34801561038a57600080fd5b5061039e610399366004614d8a565b6109cf565b6040519015158152602001610349565b3480156103ba57600080fd5b5060085461036c9062010000900460ff1681565b3480156103da57600080fd5b5061039e6103e9366004614eba565b610ca4565b3480156103fa57600080fd5b506103357f000000000000000000000000000000000000000000000000000000000000000081565b34801561042e57600080fd5b5060085461036c90610100900460ff1681565b34801561044d57600080fd5b5061046161045c366004614f82565b610e2c565b604051908152602001610349565b34801561047b57600080fd5b5061046160035481565b34801561049157600080fd5b506104a56104a0366004615007565b611266565b604051610349959493929190615078565b3480156104c257600080fd5b5061046160065481565b3480156104d857600080fd5b506104e1611329565b60405161034991906150b7565b3480156104fa57600080fd5b506102ed610509366004615007565b61152a565b34801561051a57600080fd5b5061039e610529366004615155565b6115e8565b34801561053a57600080fd5b5061046160095481565b34801561055057600080fd5b5061046160055481565b34801561056657600080fd5b50610461610575366004615190565b6116da565b34801561058657600080fd5b5060085461036c906301000000900460ff1681565b3480156105a757600080fd5b5061046161178a565b3480156105bc57600080fd5b506102ed6105cb366004615190565b6118bc565b3480156105dc57600080fd5b506104616105eb3660046151bc565b601160209081526000928352604080842090915290825290205481565b34801561061457600080fd5b506102ed61062336600461520e565b611a1b565b34801561063457600080fd5b5061046160105481565b34801561064a57600080fd5b506103357f000000000000000000000000000000000000000000000000000000000000000081565b34801561067e57600080fd5b5061039e61068d366004615242565b611cb5565b34801561069e57600080fd5b50610461600b5481565b3480156106b457600080fd5b506102ed611d46565b3480156106c957600080fd5b506102ed6106d8366004615007565b611d7c565b3480156106e957600080fd5b506000546001600160a01b0316610335565b34801561070757600080fd5b5061039e61071636600461528a565b60076020526000908152604090205460ff1681565b34801561073757600080fd5b5061039e61074636600461528a565b6001600160a01b03166000908152600f602052604090205460ff1690565b34801561077057600080fd5b50610461600c5481565b34801561078657600080fd5b5061039e6107953660046152a7565b612038565b3480156107a657600080fd5b5061039e6107b5366004615330565b612211565b3480156107c657600080fd5b506104616107d53660046153d3565b612335565b3480156107e657600080fd5b5060085461036c90640100000000900460ff1681565b34801561080857600080fd5b5061039e61081736600461543b565b6126f9565b34801561082857600080fd5b5061039e610837366004615491565b612806565b34801561084857600080fd5b5061039e6108573660046154fb565b6129de565b6102ed61086a366004615190565b612ad4565b34801561087b57600080fd5b5061046161088a36600461551d565b612e8a565b34801561089b57600080fd5b5061046160025481565b3480156108b157600080fd5b5061039e6108c0366004615007565b6000908152600e602052604090205460ff1690565b3480156108e157600080fd5b5061039e61323b565b3480156108f657600080fd5b5061090a6109053660046151bc565b613438565b60408051928352602083019190915201610349565b34801561092b57600080fd5b506103357f000000000000000000000000000000000000000000000000000000000000000081565b34801561095f57600080fd5b506102ed61096e36600461528a565b613462565b34801561097f57600080fd5b50610461600a5481565b34801561099557600080fd5b506104616109a43660046151bc565b6001600160a01b03918216600090815260116020908152604080832093909416825291909152205490565b600080546001600160a01b03163314610a035760405162461bcd60e51b81526004016109fa906155d4565b60405180910390fd5b60085460ff610100909104811690881610801590610a25575060ff8760ff1611155b610a565760405162461bcd60e51b8152602060048201526002602482015261303160f01b60448201526064016109fa565b610a6160018861561f565b60ff168860ff161015610a9b5760405162461bcd60e51b8152602060048201526002602482015261181960f11b60448201526064016109fa565b60648660ff161115610ad45760405162461bcd60e51b8152602060048201526002602482015261303360f01b60448201526064016109fa565b60648560ff161115610b0d5760405162461bcd60e51b81526020600482015260026024820152610c0d60f21b60448201526064016109fa565b88518a5114610b435760405162461bcd60e51b8152602060048201526002602482015261303560f01b60448201526064016109fa565b8215610b4f5760038390555b8115610b5e57610b5e826134fd565b610b678b613462565b60005b8a51811015610c4257898181518110610b8557610b85615644565b602002602001015115610bd857600f60008c8381518110610ba857610ba8615644565b6020908102919091018101516001600160a01b03168252810191909152604001600020805460ff19169055610c30565b6001600f60008d8481518110610bf057610bf0615644565b60200260200101516001600160a01b03166001600160a01b0316815260200190815260200160002060006101000a81548160ff0219169083151502179055505b80610c3a8161565a565b915050610b6a565b50506008805460ff8681166401000000000264ff000000001989831662010000021664ff00ff0000198b84166101000261ffff19909516938d1693909317939093179190911691909117179055601083905560019a9950505050505050505050565b600080546001600160a01b03163314610ccf5760405162461bcd60e51b81526004016109fa906155d4565b6001600160a01b03871660009081526007602052604090205460ff16610d1c5760405162461bcd60e51b81526020600482015260026024820152610c4d60f21b60448201526064016109fa565b6001600160a01b038716610d425760405162461bcd60e51b81526004016109fa90615675565b60008415610d7b57610d7660007f00000000000000000000000000000000000000000000000000000000000000008761353d565b610da3565b84610da357507f00000000000000000000000000000000000000000000000000000000000000005b7f00000000000000000000000000000000000000000000000000000000000000006001600160a01b0316886001600160a01b03161415610e0057507f00000000000000000000000000000000000000000000000000000000000000005b610e0a8185613613565b610e13836137c1565b610e1e888888613829565b506001979650505050505050565b600060026001541415610e515760405162461bcd60e51b81526004016109fa90615691565b6002600155600083838281610e6857610e68615644565b9050602002016020810190610e7d919061528a565b905060008484610e8e6001826156c8565b818110610e9d57610e9d615644565b9050602002016020810190610eb2919061528a565b6001600160a01b0383166000908152601160209081526040808320338452909152902054909150871115610ef85760405162461bcd60e51b81526004016109fa906156df565b7f00000000000000000000000000000000000000000000000000000000000000006001600160a01b0316826001600160a01b031614610f745760405162461bcd60e51b815260206004820152601860248201527726bab9ba1039bbb0b810333937b690212a21903a37b5b2b760411b60448201526064016109fa565b7f00000000000000000000000000000000000000000000000000000000000000006001600160a01b0316816001600160a01b03161415610ff65760405162461bcd60e51b815260206004820152601960248201527f456e64696e6720746f6b656e206d75737420626520774254430000000000000060448201526064016109fa565b6001600160a01b03811673eeeeeeeeeeeeeeeeeeeeeeeeeeeeeeeeeeeeeeee141561105b5760405162461bcd60e51b81526020600482015260156024820152740aae6ca40e0c2e8d040ee84a886405a7c40ee8aa89605b1b60448201526064016109fa565b6040516370a0823160e01b81523060048201526000906001600160a01b038316906370a082319060240160206040518083038186803b15801561109d57600080fd5b505afa1580156110b1573d6000803e3d6000fd5b505050506040513d601f19601f820116820180604052508101906110d59190615716565b6001600160a01b03841660009081526011602090815260408083203384529091529020549091506111069089613920565b6001600160a01b03841660009081526011602090815260408083203384529091529020558a156111435761113e8a8a8a8a8a8a613933565b61114f565b61114f88888888613a79565b6040516370a0823160e01b81523060048201526111d39082906001600160a01b038516906370a08231906024015b60206040518083038186803b15801561119557600080fd5b505afa1580156111a9573d6000803e3d6000fd5b505050506040513d601f19601f820116820180604052508101906111cd9190615716565b90613920565b9350868410156111f55760405162461bcd60e51b81526004016109fa9061572f565b836111ff57600080fd5b6001600160a01b038216600090815260116020908152604080832033845290915290205461122d9085613bb9565b6001600160a01b039092166000908152601160209081526040808320338452909152902091909155505060018055979650505050505050565b6004602052600090815260409020805460018201805491929161128890615766565b80601f01602080910402602001604051908101604052809291908181526020018280546112b490615766565b80156113015780601f106112d657610100808354040283529160200191611301565b820191906000526020600020905b8154815290600101906020018083116112e457829003601f168201915b505050506002830154600384015460049094015492936001600160a01b039091169290915085565b6060600061134460065460055461392090919063ffffffff16565b6001600160401b0381111561135b5761135b614c2a565b6040519080825280602002602001820160405280156113ca57816020015b6113b76040518060a00160405280600080191681526020016060815260200160006001600160a01b0316815260200160008152602001600081525090565b8152602001906001900390816113795790505b50915060006113e56001600654613bb990919063ffffffff16565b90505b6005548111611525576004600061140a60065485613bb990919063ffffffff16565b81526020019081526020016000206040518060a00160405290816000820154815260200160018201805461143d90615766565b80601f016020809104026020016040519081016040528092919081815260200182805461146990615766565b80156114b65780601f1061148b576101008083540402835291602001916114b6565b820191906000526020600020905b81548152906001019060200180831161149957829003601f168201915b505050918352505060028201546001600160a01b031660208201526003820154604082015260049091015460609091015283518490849081106114fb576114fb615644565b6020908102919091010152611511826001613bb9565b91508061151d8161565a565b9150506113e8565b505090565b60065460009061153a9083613bb9565b9050600554811061154a57506005545b60065442905b828110156115e25760025460008281526004602081905260409091200154839161157a9190613bb9565b10156115d05760008181526004602052604081208181559061159f6001830182614b1c565b506002810180546001600160a01b03191690556000600382018190556004909101556115cc816001613bb9565b6006555b806115da8161565a565b915050611550565b50505050565b600080546001600160a01b031633146116135760405162461bcd60e51b81526004016109fa906155d4565b600061161d61178a565b6001600160a01b03871660009081526007602052604090205490915060ff1661166d5760405162461bcd60e51b8152602060048201526002602482015261189b60f11b60448201526064016109fa565b61167986868686613bc5565b61168257600080fd5b600191508061168f61178a565b10156116d15760405162461bcd60e51b8152602060048201526011602482015270496e76616c6964204c505420707269636560781b60448201526064016109fa565b50949350505050565b6000806116e78484613f69565b90508060ff166001141561174d577f00000000000000000000000000000000000000000000000000000000000000006001600160a01b0316846001600160a01b031614611735576000611743565b6008546301000000900460ff165b60ff169150611783565b8060ff1660021415611783576001600160a01b0384161561176f57600061177d565b6008546301000000900460ff165b60ff1691505b5092915050565b60008060006117ba60007f0000000000000000000000000000000000000000000000000000000000000000613438565b9150915060007f00000000000000000000000000000000000000000000000000000000000000006001600160a01b03166318160ddd6040518163ffffffff1660e01b815260040160206040518083038186803b15801561181957600080fd5b505afa15801561182d573d6000803e3d6000fd5b505050506040513d601f19601f820116820180604052508101906118519190615716565b905080156118b0576118ab61187160095483613bb990919063ffffffff16565b6118a57f000000000000000000000000000000000000000000000000000000000000000061189f8787613bb9565b90614058565b90614064565b6118b4565b600b545b935050505090565b600260015414156118df5760405162461bcd60e51b81526004016109fa90615691565b60026001556001600160a01b038216600090815260116020908152604080832033845290915290205481111561194e5760405162461bcd60e51b8152602060048201526014602482015273496e73756666696369656e742042616c616e636560601b60448201526064016109fa565b6001600160a01b038216600090815260116020908152604080832033845290915290205461197c9082613920565b6001600160a01b0383166000908152601160209081526040808320338085529252909120919091556119b090839083613829565b6001600160a01b0382166000908152601160209081526040808320338085529252918290205491517febff2602b3f468259e1e99f613fed6691f3a6526effe6ef3e768ba7ae7a36c4f92611a0b92869290918691429061579b565b60405180910390a1505060018055565b60026001541415611a3e5760405162461bcd60e51b81526004016109fa90615691565b600260015533611a566101408301610120840161528a565b6001600160a01b031614611ac35760405162461bcd60e51b815260206004820152602e60248201527f596f752063616e206f6e6c79206578656375746520737761707320746f20796f60448201526d7572206f776e206164647265737360901b60648201526084016109fa565b604081013560116000611ad9602085018561528a565b6001600160a01b031681526020810191909152604001600090812090611b076101408501610120860161528a565b6001600160a01b03166001600160a01b03168152602001908152602001600020541015611b465760405162461bcd60e51b81526004016109fa906156df565b6001600160a01b037f000000000000000000000000000000000000000000000000000000000000000016611b7d602083018361528a565b6001600160a01b031614611be55760405162461bcd60e51b815260206004820152602960248201527f66726f6d546f6b656e206d7573742062652074686520726571756972656420426044820152682a21ba103a37b5b2b760b91b60648201526084016109fa565b611bee81614070565b611c55604082013560116000611c07602086018661528a565b6001600160a01b031681526020810191909152604001600090812090611c356101408601610120870161528a565b6001600160a01b0316815260208101919091526040016000205490613920565b60116000611c66602085018561528a565b6001600160a01b031681526020810191909152604001600090812090611c946101408501610120860161528a565b6001600160a01b031681526020810191909152604001600020555060018055565b600080546001600160a01b03163314611ce05760405162461bcd60e51b81526004016109fa906155d4565b6000611cea61178a565b6001600160a01b03871660009081526007602052604090205490915060ff16611d3a5760405162461bcd60e51b8152602060048201526002602482015261189b60f11b60448201526064016109fa565b611679868686866141a8565b6000546001600160a01b03163314611d705760405162461bcd60e51b81526004016109fa906155d4565b611d7a60006143f2565b565b60026001541415611d9f5760405162461bcd60e51b81526004016109fa90615691565b60026001556001600160a01b037f0000000000000000000000000000000000000000000000000000000000000000166000908152601160209081526040808320338452909152902054811115611df457600080fd5b604051632e1a7d4d60e01b8152600481018290527f00000000000000000000000000000000000000000000000000000000000000006001600160a01b031690632e1a7d4d90602401600060405180830381600087803b158015611e5657600080fd5b505af1158015611e6a573d6000803e3d6000fd5b5050506001600160a01b037f0000000000000000000000000000000000000000000000000000000000000000166000908152601160209081526040808320338452909152902054611ebc915082613920565b7f00000000000000000000000000000000000000000000000000000000000000006001600160a01b03166000908152601160209081526040808320338085529252808320939093559151829084908381818185875af1925050503d8060008114611f42576040519150601f19603f3d011682016040523d82523d6000602084013e611f47565b606091505b5050905080611f985760405162461bcd60e51b815260206004820152601e60248201527f72656365697665722072656a656374656420455448207472616e73666572000060448201526064016109fa565b6001600160a01b037f0000000000000000000000000000000000000000000000000000000000000000166000908152601160209081526040808320338085529252918290205491517febff2602b3f468259e1e99f613fed6691f3a6526effe6ef3e768ba7ae7a36c4f926120279273eeeeeeeeeeeeeeeeeeeeeeeeeeeeeeeeeeeeeeee9290918891429061579b565b60405180910390a150506001805550565b600080546001600160a01b031633146120635760405162461bcd60e51b81526004016109fa906155d4565b6001600160a01b03861660009081526007602052604090205460ff166120b05760405162461bcd60e51b81526020600482015260026024820152610c4d60f21b60448201526064016109fa565b6001600160a01b0386166120d65760405162461bcd60e51b81526004016109fa90615675565b6000841561210f5761210a60007f00000000000000000000000000000000000000000000000000000000000000008761353d565b612137565b8461213757507f00000000000000000000000000000000000000000000000000000000000000005b7f00000000000000000000000000000000000000000000000000000000000000006001600160a01b0316876001600160a01b0316141561219457507f00000000000000000000000000000000000000000000000000000000000000005b61219e8185613613565b6121a7836137c1565b60005b8651811015610e1e576121ff888883815181106121c9576121c9615644565b602002602001015160001c8984815181106121e6576121e6615644565b602002602001015160a01c6001600160601b0316613829565b806122098161565a565b9150506121aa565b600080546001600160a01b0316331461223c5760405162461bcd60e51b81526004016109fa906155d4565b8361224657600080fd5b8261225057600080fd5b61227c60007f00000000000000000000000000000000000000000000000000000000000000008661353d565b6001600160a01b037f000000000000000000000000000000000000000000000000000000000000000081166000908152601160209081526040808320938916835292905220546122cc9085613bb9565b6001600160a01b037f000000000000000000000000000000000000000000000000000000000000000081166000908152601160209081526040808320938a168352929052908120919091556123219084613613565b61232a826137c1565b506001949350505050565b60006002600154141561235a5760405162461bcd60e51b81526004016109fa90615691565b60026001556001600160a01b037f000000000000000000000000000000000000000000000000000000000000000016612396602084018461528a565b6001600160a01b031614156123ed5760405162461bcd60e51b815260206004820152601c60248201527f4d757374206e6f7420737761702066726f6d2042544320746f6b656e0000000060448201526064016109fa565b6001600160a01b037f000000000000000000000000000000000000000000000000000000000000000016612427604084016020850161528a565b6001600160a01b0316146124765760405162461bcd60e51b815260206004820152601660248201527526bab9ba1039bbb0b8103a3790212a21903a37b5b2b760511b60448201526064016109fa565b306124896101408401610120850161528a565b6001600160a01b0316146124e95760405162461bcd60e51b815260206004820152602160248201527f42656e6566696369617279206d757374206265207468697320636f6e747261636044820152601d60fa1b60648201526084016109fa565b6040820135601160006124ff602086018661528a565b6001600160a01b031681526020808201929092526040908101600090812033825290925290205410156125445760405162461bcd60e51b81526004016109fa906156df565b6000612556604084016020850161528a565b6040516370a0823160e01b81523060048201526001600160a01b0391909116906370a082319060240160206040518083038186803b15801561259757600080fd5b505afa1580156125ab573d6000803e3d6000fd5b505050506040513d601f19601f820116820180604052508101906125cf9190615716565b90506126176040840135601160006125ea602088018861528a565b6001600160a01b031681526020808201929092526040908101600090812033825290925290205490613920565b60116000612628602087018761528a565b6001600160a01b031681526020808201929092526040908101600090812033825290925290205561265883614070565b61269a8161266c604086016020870161528a565b6040516370a0823160e01b81523060048201526001600160a01b0391909116906370a082319060240161117d565b915082608001358210156126c05760405162461bcd60e51b81526004016109fa9061572f565b6003548210156126e25760405162461bcd60e51b81526004016109fa906157cc565b6126ed858584614442565b50600180559392505050565b600080546001600160a01b031633146127245760405162461bcd60e51b81526004016109fa906155d4565b6001600160a01b0386161561274b5760405162461bcd60e51b81526004016109fa90615675565b7f000000000000000000000000000000000000000000000000000000000000000085156127bf576000612782866111cd8988613920565b90506127b97f000000000000000000000000000000000000000000000000000000000000000060006127b4848a613bb9565b61353d565b506127c8565b856127c8575060005b6127d28185613613565b82156127f9576127f960008052600d602052600080516020615cc883398151915254600c55565b5060019695505050505050565b600080546001600160a01b031633146128315760405162461bcd60e51b81526004016109fa906155d4565b8361283b57600080fd5b8261284557600080fd5b61287160007f00000000000000000000000000000000000000000000000000000000000000008661353d565b61287c600084613613565b612885826137c1565b60005b85518110156129d25761294d8682815181106128a6576128a6615644565b602002602001015160a01c6001600160601b0316601160007f00000000000000000000000000000000000000000000000000000000000000006001600160a01b03166001600160a01b03168152602001908152602001600020600089858151811061291357612913615644565b602002602001015160001c6001600160a01b03166001600160a01b0316815260200190815260200160002054613bb990919063ffffffff16565b6001600160a01b037f0000000000000000000000000000000000000000000000000000000000000000166000908152601160205260408120885190919089908590811061299c5761299c615644565b6020908102919091018101516001600160a01b0316825281019190915260400160002055806129ca8161565a565b915050612888565b50600195945050505050565b600080546001600160a01b03163314612a095760405162461bcd60e51b81526004016109fa906155d4565b6000828152600e602052604090205460ff1615612a685760405162461bcd60e51b815260206004820152601860248201527f546865207478696420697320616c72656164792075736564000000000000000060448201526064016109fa565b604080518082019091526002815261189960f11b60208083019190915260008052600d9052600080516020615cc883398151915254612aa89185906145ce565b60008052600d602052600080516020615cc883398151915255612aca826145fa565b5060015b92915050565b60026001541415612af75760405162461bcd60e51b81526004016109fa90615691565b600260015534612d21576001600160a01b03821673eeeeeeeeeeeeeeeeeeeeeeeeeeeeeeeeeeeeeeee1415612b2b57600080fd5b7f00000000000000000000000000000000000000000000000000000000000000006001600160a01b0316826001600160a01b03161415612b6a57600080fd5b6040516370a0823160e01b81523060048201526000906001600160a01b038416906370a082319060240160206040518083038186803b158015612bac57600080fd5b505afa158015612bc0573d6000803e3d6000fd5b505050506040513d601f19601f82011682018060405250810190612be49190615716565b9050612bfb6001600160a01b038416333085614615565b6040516370a0823160e01b81523060048201526000906001600160a01b038516906370a082319060240160206040518083038186803b158015612c3d57600080fd5b505afa158015612c51573d6000803e3d6000fd5b505050506040513d601f19601f82011682018060405250810190612c759190615716565b90506000612c838284613920565b6001600160a01b0386166000908152601160209081526040808320338452909152902054909150612cb49082613bb9565b6001600160a01b03861660009081526011602090815260408083203380855292529182902083905590517f4e2ca0515ed1aef1395f66b5303bb5d6f1bf9d61a353fa53f73f8ac9973fa9f692612d1192899290918691429061579b565b60405180910390a1505050612e82565b60003411612d2e57600080fd5b7f00000000000000000000000000000000000000000000000000000000000000006001600160a01b031663d0e30db0346040518263ffffffff1660e01b81526004016000604051808303818588803b158015612d8957600080fd5b505af1158015612d9d573d6000803e3d6000fd5b5050506001600160a01b037f0000000000000000000000000000000000000000000000000000000000000000166000908152601160209081526040808320338452909152902054612df19250905034613bb9565b7f00000000000000000000000000000000000000000000000000000000000000006001600160a01b031660009081526011602090815260408083203380855292529182902083905590517f4e2ca0515ed1aef1395f66b5303bb5d6f1bf9d61a353fa53f73f8ac9973fa9f692611a0b9273eeeeeeeeeeeeeeeeeeeeeeeeeeeeeeeeeeeeeeee9290913491429061579b565b505060018055565b600060026001541415612eaf5760405162461bcd60e51b81526004016109fa90615691565b6002600155600083838281612ec657612ec6615644565b9050602002016020810190612edb919061528a565b905060008484612eec6001826156c8565b818110612efb57612efb615644565b9050602002016020810190612f10919061528a565b6001600160a01b0383166000908152601160209081526040808320338452909152902054909150871115612f565760405162461bcd60e51b81526004016109fa906156df565b7f00000000000000000000000000000000000000000000000000000000000000006001600160a01b0316826001600160a01b03161415612fd35760405162461bcd60e51b815260206004820152601860248201527726bab9ba1039bbb0b810333937b690212a21903a37b5b2b760411b60448201526064016109fa565b6001600160a01b03821673eeeeeeeeeeeeeeeeeeeeeeeeeeeeeeeeeeeeeeee14156130385760405162461bcd60e51b815260206004820152601560248201527455736520706174682077455448202d3e207742544360581b60448201526064016109fa565b7f00000000000000000000000000000000000000000000000000000000000000006001600160a01b0316816001600160a01b0316146130b25760405162461bcd60e51b815260206004820152601660248201527526bab9ba1039bbb0b8103a3790212a21903a37b5b2b760511b60448201526064016109fa565b6040516370a0823160e01b81523060048201526000906001600160a01b038316906370a082319060240160206040518083038186803b1580156130f457600080fd5b505afa158015613108573d6000803e3d6000fd5b505050506040513d601f19601f8201168201806040525081019061312c9190615716565b6001600160a01b038416600090815260116020908152604080832033845290915290205490915061315d9089613920565b6001600160a01b03841660009081526011602090815260408083203384529091529020558a1561319a576131958a8a8a8a8a8a613933565b6131a6565b6131a688888888613a79565b6040516370a0823160e01b81523060048201526131d89082906001600160a01b038516906370a082319060240161117d565b9350868410156131fa5760405162461bcd60e51b81526004016109fa9061572f565b60035484101561321c5760405162461bcd60e51b81526004016109fa906157cc565b6132278d8d86614442565b505050600180559998505050505050505050565b600080613255600a54600954613bb990919063ffffffff16565b90506000811161328c5760405162461bcd60e51b8152602060048201526002602482015261313760f01b60448201526064016109fa565b6009546040516340c10f1960e01b815230600482015260248101919091527f00000000000000000000000000000000000000000000000000000000000000006001600160a01b0316906340c10f1990604401602060405180830381600087803b1580156132f857600080fd5b505af115801561330c573d6000803e3d6000fd5b505050506040513d601f19601f820116820180604052508101906133309190615820565b5060405163a9059cbb60e01b81526001600160a01b037f000000000000000000000000000000000000000000000000000000000000000081166004830152602482018390527f0000000000000000000000000000000000000000000000000000000000000000169063a9059cbb90604401602060405180830381600087803b1580156133bb57600080fd5b505af11580156133cf573d6000803e3d6000fd5b505050506040513d601f19601f820116820180604052508101906133f39190615820565b506040518181527f86dd6ae252e62228b47b3c1a12762cbf634952b2d29319b04f4f72fb153bcbdd9060200160405180910390a1505060006009819055600a55600190565b6001600160a01b039182166000908152600d60205260408082205492909316815291909120549091565b6000546001600160a01b0316331461348c5760405162461bcd60e51b81526004016109fa906155d4565b6001600160a01b0381166134f15760405162461bcd60e51b815260206004820152602660248201527f4f776e61626c653a206e6577206f776e657220697320746865207a65726f206160448201526564647265737360d01b60648201526084016109fa565b6134fa816143f2565b50565b6002819055604080518281524260208201527fa1cc12e33e9907b789fd3c10ea0afd9d3e563e2db44d84c7269534f1046d1ca1910160405180910390a150565b6040805180820182526002815261313160f01b6020808301919091526001600160a01b0385166000908152600d909152919091205461357d9183906145ce565b6001600160a01b038084166000908152600d602052604080822093909355908516815220546135ac9082613bb9565b6001600160a01b038481166000818152600d60209081526040918290209490945580519182529185169281019290925281018290527fea368a40e9570069bb8e6511d668293ad2e1f03b0d982431fd223de9f3b70ca69060600160405180910390a1505050565b8061361c575050565b7f00000000000000000000000000000000000000000000000000000000000000006001600160a01b0316826001600160a01b031614156136ba57600a546136639082613bb9565b600a55604080516001600160a01b0384168152602081018390526000818301819052606082015290517fe3debe835f6848edc082b32a1d729781d3bfcd7e14422d80bcaa6794d3816b2f9181900360800190a15050565b60006136c461178a565b6001600160a01b0384166000908152600d60205260409020549091506136ea9083613bb9565b6001600160a01b0384166000908152600d6020526040812091909155600854613724906064906118a590869062010000900460ff16614058565b90506000613756836118a5847f0000000000000000000000000000000000000000000000000000000000000000614058565b6009549091506137669082613bb9565b600955604080516001600160a01b038716815260208101869052908101829052606081018490527fe3debe835f6848edc082b32a1d729781d3bfcd7e14422d80bcaa6794d3816b2f9060800160405180910390a15050505050565b60005b8151811015613825576001600e60008484815181106137e5576137e5615644565b6020026020010151815260200190815260200160002060006101000a81548160ff021916908315150217905550808061381d9061565a565b9150506137c4565b5050565b7f00000000000000000000000000000000000000000000000000000000000000006001600160a01b0316836001600160a01b031614156138905761388d817f0000000000000000000000000000000000000000000000000000000000000000614058565b90505b60405163a9059cbb60e01b81526001600160a01b0383811660048301526024820183905284169063a9059cbb90604401602060405180830381600087803b1580156138da57600080fd5b505af11580156138ee573d6000803e3d6000fd5b505050506040513d601f19601f820116820180604052508101906139129190615820565b61391b57600080fd5b505050565b600061392c82846156c8565b9392505050565b60008282600081811061394857613948615644565b905060200201602081019061395d919061528a565b9050600073def171fe48cf0115b1d80b88dc8eab59176fee576001600160a01b031663d2c4b5986040518163ffffffff1660e01b815260040160206040518083038186803b1580156139ae57600080fd5b505afa1580156139c2573d6000803e3d6000fd5b505050506040513d601f19601f820116820180604052508101906139e6919061583d565b90506139fc6001600160a01b0383168288614680565b604051633d59840d60e21b815273def171fe48cf0115b1d80b88dc8eab59176fee579063f566103490613a3d908b908b908b908b908b908b906004016158a3565b600060405180830381600087803b158015613a5757600080fd5b505af1158015613a6b573d6000803e3d6000fd5b505050505050505050505050565b600082826000818110613a8e57613a8e615644565b9050602002016020810190613aa3919061528a565b9050600073def171fe48cf0115b1d80b88dc8eab59176fee576001600160a01b031663d2c4b5986040518163ffffffff1660e01b815260040160206040518083038186803b158015613af457600080fd5b505afa158015613b08573d6000803e3d6000fd5b505050506040513d601f19601f82011682018060405250810190613b2c919061583d565b9050613b426001600160a01b0383168288614680565b604051632a42068d60e11b815273def171fe48cf0115b1d80b88dc8eab59176fee57906354840d1a90613b7f9089908990899089906004016158e3565b600060405180830381600087803b158015613b9957600080fd5b505af1158015613bad573d6000803e3d6000fd5b50505050505050505050565b600061392c828461590d565b6000818152600e602052604081205460ff1615613c095760405162461bcd60e51b8152602060048201526002602482015261181b60f11b60448201526064016109fa565b83613c3b5760405162461bcd60e51b8152602060048201526002602482015261303760f01b60448201526064016109fa565b8360a081901c6000613c4b61178a565b90506000613c7d7f00000000000000000000000000000000000000000000000000000000000000006118a58585614058565b600854909150600090613ca490612710906118a5908590640100000000900460ff16614058565b905087613cb18383613920565b1015613ce45760405162461bcd60e51b8152602060048201526002602482015261303960f01b60448201526064016109fa565b6000613cf4896111cd8585613920565b9050600080613d2460007f0000000000000000000000000000000000000000000000000000000000000000613438565b90925090506001600160a01b038d16613d7a57613d418585613920565b821015613d755760405162461bcd60e51b8152602060048201526002602482015261060760f31b60448201526064016109fa565b613df2565b7f00000000000000000000000000000000000000000000000000000000000000006001600160a01b03168d6001600160a01b03161415613df257613dbe8585613920565b811015613df25760405162461bcd60e51b8152602060048201526002602482015261189960f11b60448201526064016109fa565b613dfc8d85613613565b613e068d86614741565b613e0f8a6145fa565b7f00000000000000000000000000000000000000000000000000000000000000006001600160a01b03168d6001600160a01b03161415613e5457613e548d8985613829565b604051630852cd8d60e31b8152600481018890527f00000000000000000000000000000000000000000000000000000000000000006001600160a01b0316906342966c6890602401602060405180830381600087803b158015613eb657600080fd5b505af1158015613eca573d6000803e3d6000fd5b505050506040513d601f19601f82011682018060405250810190613eee9190615820565b613ef757600080fd5b604080516001600160a01b038a16815260208101899052908101869052606081018790526080810184905260a081018b90527fa9da34e5e4a956b744307ae7611795634e8365951073bf049d76b64b2ae7a0589060c00160405180910390a15060019c9b505050505050505050505050565b6000806000613f9960007f0000000000000000000000000000000000000000000000000000000000000000613438565b90925090506000613fbe60036118a5600261189f89613fb88989613bb9565b90613bb9565b90507f00000000000000000000000000000000000000000000000000000000000000006001600160a01b0316866001600160a01b031614801561400a5750806140078387613bb9565b10155b1561401b5760019350505050612ace565b6001600160a01b03861615801561403b5750806140388487613bb9565b10155b1561404c5760029350505050612ace565b50600095945050505050565b600061392c8284615925565b600061392c8284615944565b600073def171fe48cf0115b1d80b88dc8eab59176fee576001600160a01b031663d2c4b5986040518163ffffffff1660e01b815260040160206040518083038186803b1580156140bf57600080fd5b505afa1580156140d3573d6000803e3d6000fd5b505050506040513d601f19601f820116820180604052508101906140f7919061583d565b905061411f81604084013561410f602086018661528a565b6001600160a01b03169190614680565b6040516354e3f31b60e01b815273def171fe48cf0115b1d80b88dc8eab59176fee57906354e3f31b90614156908590600401615a6a565b602060405180830381600087803b15801561417057600080fd5b505af1158015614184573d6000803e3d6000fd5b505050506040513d601f19601f8201168201806040525081019061391b9190615716565b6000818152600e602052604081205460ff16156141ec5760405162461bcd60e51b8152602060048201526002602482015261181b60f11b60448201526064016109fa565b8361421e5760405162461bcd60e51b8152602060048201526002602482015261303760f01b60448201526064016109fa565b8360a081901c600061422e61178a565b90506000614260826118a5857f0000000000000000000000000000000000000000000000000000000000000000614058565b9050600061426e8a856116da565b905060008161427e57600061428e565b61428e6127106118a58585614058565b905088801561429c57508015155b156142a657600080fd5b6001600160a01b037f0000000000000000000000000000000000000000000000000000000000000000166340c10f19876142e08685613920565b6040516001600160e01b031960e085901b1681526001600160a01b0390921660048301526024820152604401602060405180830381600087803b15801561432657600080fd5b505af115801561433a573d6000803e3d6000fd5b505050506040513d601f19601f8201168201806040525081019061435e9190615820565b5060095461436c9082613bb9565b6009556143798b866147a1565b614382886145fa565b604080516001600160a01b038816815260208101879052908101849052606081018590526080810182905260a081018990527fdfaf4e23f7030adafec91a682e05bf9fb30c721f9cec3d8bcfae0459c5362db19060c00160405180910390a15060019a9950505050505050505050565b600080546001600160a01b038381166001600160a01b0319831681178455604051919092169283917f8be0079c531659141344cd1fd0a4f28419497f9722a3daafe3b4186f6b6457e09190a35050565b60007f00000000000000000000000000000000000000000000000000000000000000006005548585854260405160200161448196959493929190615c20565b6040516020818303038152906040528051906020012090506040518060a0016040528082815260200185858080601f01602080910402602001604051908101604052809392919081815260200183838082843760009201829052509385525050336020808501919091526040808501889052426060909501949094526005548352600481529290912083518155838301518051919361452893506001850192910190614b56565b5060408201516002820180546001600160a01b0319166001600160a01b039092169190911790556060820151600382015560809091015160049091015561456d6147c4565b60055461457b906001613bb9565b6005556145878261487d565b7faaa4c278970337923c885845b00985ecf5082317e2f9abf72a27b4d35255d6728185853386426040516145c096959493929190615c57565b60405180910390a150505050565b600081848411156145f25760405162461bcd60e51b81526004016109fa9190615c98565b505050900390565b6000908152600e60205260409020805460ff19166001179055565b6040516001600160a01b03808516602483015283166044820152606481018290526115e29085906323b872dd60e01b906084015b60408051601f198184030181529190526020810180516001600160e01b03166001600160e01b0319909316929092179091526148d2565b604051636eb1769f60e11b81523060048201526001600160a01b038381166024830152600091839186169063dd62ed3e9060440160206040518083038186803b1580156146cc57600080fd5b505afa1580156146e0573d6000803e3d6000fd5b505050506040513d601f19601f820116820180604052508101906147049190615716565b61470e919061590d565b6040516001600160a01b0385166024820152604481018290529091506115e290859063095ea7b360e01b90606401614649565b6040805180820182526002815261031360f41b6020808301919091526001600160a01b0385166000908152600d90915291909120546147819183906145ce565b6001600160a01b039092166000908152600d602052604090209190915550565b6001600160a01b0382166000908152600d60205260409020546147819082613bb9565b6006546000906147d590600a613bb9565b905060055481106147e557506005545b60065442905b8281101561391b576002546000828152600460208190526040909120015483916148159190613bb9565b101561486b5760008181526004602052604081208181559061483a6001830182614b1c565b506002810180546001600160a01b0319169055600060038201819055600490910155614867816001613bb9565b6006555b806148758161565a565b9150506147eb565b600c546148a5576148a560008052600d602052600080516020615cc883398151915254600c55565b604080518082019091526002815261189960f11b6020820152600c546148cc9183906145ce565b600c5550565b6000614927826040518060400160405280602081526020017f5361666545524332303a206c6f772d6c6576656c2063616c6c206661696c6564815250856001600160a01b03166149a49092919063ffffffff16565b80519091501561391b57808060200190518101906149459190615820565b61391b5760405162461bcd60e51b815260206004820152602a60248201527f5361666545524332303a204552433230206f7065726174696f6e20646964206e6044820152691bdd081cdd58d8d9595960b21b60648201526084016109fa565b60606149b384846000856149bb565b949350505050565b606082471015614a1c5760405162461bcd60e51b815260206004820152602660248201527f416464726573733a20696e73756666696369656e742062616c616e636520666f6044820152651c8818d85b1b60d21b60648201526084016109fa565b843b614a6a5760405162461bcd60e51b815260206004820152601d60248201527f416464726573733a2063616c6c20746f206e6f6e2d636f6e747261637400000060448201526064016109fa565b600080866001600160a01b03168587604051614a869190615cab565b60006040518083038185875af1925050503d8060008114614ac3576040519150601f19603f3d011682016040523d82523d6000602084013e614ac8565b606091505b5091509150614ad8828286614ae3565b979650505050505050565b60608315614af257508161392c565b825115614b025782518084602001fd5b8160405162461bcd60e51b81526004016109fa9190615c98565b508054614b2890615766565b6000825580601f10614b38575050565b601f0160209004906000526020600020908101906134fa9190614bda565b828054614b6290615766565b90600052602060002090601f016020900481019282614b845760008555614bca565b82601f10614b9d57805160ff1916838001178555614bca565b82800160010185558215614bca579182015b82811115614bca578251825591602001919060010190614baf565b50614bd6929150614bda565b5090565b5b80821115614bd65760008155600101614bdb565b634e487b7160e01b600052600160045260246000fd5b6001600160a01b03811681146134fa57600080fd5b8035614c2581614c05565b919050565b634e487b7160e01b600052604160045260246000fd5b604051601f8201601f191681016001600160401b0381118282101715614c6857614c68614c2a565b604052919050565b60006001600160401b03821115614c8957614c89614c2a565b5060051b60200190565b600082601f830112614ca457600080fd5b81356020614cb9614cb483614c70565b614c40565b82815260059290921b84018101918181019086841115614cd857600080fd5b8286015b84811015614cfc578035614cef81614c05565b8352918301918301614cdc565b509695505050505050565b80151581146134fa57600080fd5b600082601f830112614d2657600080fd5b81356020614d36614cb483614c70565b82815260059290921b84018101918181019086841115614d5557600080fd5b8286015b84811015614cfc578035614d6c81614d07565b8352918301918301614d59565b803560ff81168114614c2557600080fd5b6000806000806000806000806000806101408b8d031215614daa57600080fd5b614db38b614c1a565b995060208b01356001600160401b0380821115614dcf57600080fd5b614ddb8e838f01614c93565b9a5060408d0135915080821115614df157600080fd5b50614dfe8d828e01614d15565b985050614e0d60608c01614d79565b9650614e1b60808c01614d79565b9550614e2960a08c01614d79565b9450614e3760c08c01614d79565b935060e08b013592506101008b013591506101208b013590509295989b9194979a5092959850565b600082601f830112614e7057600080fd5b81356020614e80614cb483614c70565b82815260059290921b84018101918181019086841115614e9f57600080fd5b8286015b84811015614cfc5780358352918301918301614ea3565b60008060008060008060c08789031215614ed357600080fd5b8635614ede81614c05565b95506020870135614eee81614c05565b945060408701359350606087013592506080870135915060a08701356001600160401b03811115614f1e57600080fd5b614f2a89828a01614e5f565b9150509295509295509295565b60008083601f840112614f4957600080fd5b5081356001600160401b03811115614f6057600080fd5b6020830191508360208260051b8501011115614f7b57600080fd5b9250929050565b600080600080600080600060c0888a031215614f9d57600080fd5b8735614fa881614d07565b96506020880135614fb881614c05565b955060408801359450606088013593506080880135925060a08801356001600160401b03811115614fe857600080fd5b614ff48a828b01614f37565b989b979a50959850939692959293505050565b60006020828403121561501957600080fd5b5035919050565b60005b8381101561503b578181015183820152602001615023565b838111156115e25750506000910152565b60008151808452615064816020860160208601615020565b601f01601f19169290920160200192915050565b85815260a06020820152600061509160a083018761504c565b6001600160a01b0395909516604083015250606081019290925260809091015292915050565b60006020808301818452808551808352604092508286019150828160051b87010184880160005b8381101561514757603f19898403018552815160a08151855288820151818a87015261510c8287018261504c565b838a01516001600160a01b0316878b0152606080850151908801526080938401519390960192909252505093860193908601906001016150de565b509098975050505050505050565b6000806000806080858703121561516b57600080fd5b843561517681614c05565b966020860135965060408601359560600135945092505050565b600080604083850312156151a357600080fd5b82356151ae81614c05565b946020939093013593505050565b600080604083850312156151cf57600080fd5b82356151da81614c05565b915060208301356151ea81614c05565b809150509250929050565b60006101e0828403121561520857600080fd5b50919050565b60006020828403121561522057600080fd5b81356001600160401b0381111561523657600080fd5b6149b3848285016151f5565b6000806000806080858703121561525857600080fd5b843561526381614c05565b935060208501359250604085013561527a81614d07565b9396929550929360600135925050565b60006020828403121561529c57600080fd5b813561392c81614c05565b600080600080600060a086880312156152bf57600080fd5b85356152ca81614c05565b945060208601356001600160401b03808211156152e657600080fd5b6152f289838a01614e5f565b95506040880135945060608801359350608088013591508082111561531657600080fd5b5061532388828901614e5f565b9150509295509295909350565b6000806000806080858703121561534657600080fd5b843561535181614c05565b9350602085013592506040850135915060608501356001600160401b0381111561537a57600080fd5b61538687828801614e5f565b91505092959194509250565b60008083601f8401126153a457600080fd5b5081356001600160401b038111156153bb57600080fd5b602083019150836020828501011115614f7b57600080fd5b6000806000604084860312156153e857600080fd5b83356001600160401b03808211156153ff57600080fd5b61540b87838801615392565b9095509350602086013591508082111561542457600080fd5b50615431868287016151f5565b9150509250925092565b600080600080600060a0868803121561545357600080fd5b853561545e81614c05565b9450602086013593506040860135925060608601359150608086013561548381614d07565b809150509295509295909350565b600080600080608085870312156154a757600080fd5b84356001600160401b03808211156154be57600080fd5b6154ca88838901614e5f565b9550602087013594506040870135935060608701359150808211156154ee57600080fd5b5061538687828801614e5f565b6000806040838503121561550e57600080fd5b50508035926020909101359150565b600080600080600080600080600060e08a8c03121561553b57600080fd5b89356001600160401b038082111561555257600080fd5b61555e8d838e01615392565b909b50995060208c0135915061557382614d07565b90975060408b01359061558582614c05565b90965060608b0135955060808b0135945060a08b0135935060c08b013590808211156155b057600080fd5b506155bd8c828d01614f37565b915080935050809150509295985092959850929598565b6020808252818101527f4f776e61626c653a2063616c6c6572206973206e6f7420746865206f776e6572604082015260600190565b634e487b7160e01b600052601160045260246000fd5b600060ff821660ff84168060ff0382111561563c5761563c615609565b019392505050565b634e487b7160e01b600052603260045260246000fd5b600060001982141561566e5761566e615609565b5060010190565b602080825260029082015261313560f01b604082015260600190565b6020808252601f908201527f5265656e7472616e637947756172643a207265656e7472616e742063616c6c00604082015260600190565b6000828210156156da576156da615609565b500390565b60208082526019908201527f42616c616e6365206973206e6f742073756666696369656e7400000000000000604082015260600190565b60006020828403121561572857600080fd5b5051919050565b6020808252601c908201527f526563656976656420616d6f756e7420696e73756666696369656e7400000000604082015260600190565b600181811c9082168061577a57607f821691505b6020821081141561520857634e487b7160e01b600052602260045260246000fd5b6001600160a01b03958616815293909416602084015260408301919091526060820152608081019190915260a00190565b60208082526034908201527f526563656976656420616d6f756e7420686173206e6f74206d657420746865206040820152736d696e20666f7220464c4f57203220737761707360601b606082015260800190565b60006020828403121561583257600080fd5b815161392c81614d07565b60006020828403121561584f57600080fd5b815161392c81614c05565b8183526000602080850194508260005b8581101561589857813561587d81614c05565b6001600160a01b03168752958201959082019060010161586a565b509495945050505050565b60018060a01b038716815285602082015284604082015283606082015260a0608082015260006158d760a08301848661585a565b98975050505050505050565b84815283602082015260606040820152600061590360608301848661585a565b9695505050505050565b6000821982111561592057615920615609565b500190565b600081600019048311821515161561593f5761593f615609565b500290565b60008261596157634e487b7160e01b600052601260045260246000fd5b500490565b6000808335601e1984360301811261597d57600080fd5b83016020810192503590506001600160401b0381111561599c57600080fd5b8060051b3603831315614f7b57600080fd5b6000808335601e198436030181126159c557600080fd5b83016020810192503590506001600160401b038111156159e457600080fd5b803603831315614f7b57600080fd5b81835281816020850137506000828201602090810191909152601f909101601f19169091010190565b81835260006001600160fb1b03831115615a3557600080fd5b8260051b8083602087013760009401602001938452509192915050565b80356001600160801b031981168114614c2557600080fd5b60208152615a8b60208201615a7e84614c1a565b6001600160a01b03169052565b6000615a9960208401614c1a565b6001600160a01b0381166040840152506040830135606083015260608301356080830152608083013560a0830152615ad460a0840184615966565b6101e08060c0860152615aec6102008601838561585a565b9250615afb60c08701876159ae565b9250601f19808786030160e0880152615b158585846159f3565b9450615b2460e0890189615966565b94509150610100818887030181890152615b3f868685615a1c565b9550615b4d818a018a615966565b9550925050610120818887030181890152615b69868685615a1c565b9550615b76818a01614c1a565b9450506101409150615b92828801856001600160a01b03169052565b615b9d828901614c1a565b93506101609150615bb8828801856001600160a01b03169052565b61018093508188013584880152615bd1848901896159ae565b945091506101a0818887030181890152615bec8686856159f3565b95506101c094508089013585890152505050615c09828701615a52565b6001600160801b0319169401939093529392505050565b6001600160601b03198760601b16815285601482015283856034830137603493019283019190915260548201526074019392505050565b86815260a060208201526000615c7160a0830187896159f3565b6001600160a01b039590951660408301525060608101929092526080909101529392505050565b60208152600061392c602083018461504c565b60008251615cbd818460208701615020565b919091019291505056fe81955a0a11e65eac625c29e8882660bae4e165a75d72780094acae8ece9a29eea2646970667358221220145e3bd128593a36396a7fa0b7d7d4904c31585e0828ee56b11098863cd5d56264736f6c63430008090033",
  "linkReferences": {},
  "deployedLinkReferences": {}
}