{
  "_format": "hh-sol-artifact-1",
  "contractName": "SwapContract",
  "sourceName": "contracts/SwapContract.sol",
  "abi": [
    {
      "inputs": [
        {
          "internalType": "address",
          "name": "_lpToken",
          "type": "address"
        },
        {
          "internalType": "address",
          "name": "_btct",
          "type": "address"
        },
        {
          "internalType": "address",
          "name": "_wETH",
          "type": "address"
        },
        {
          "internalType": "address",
          "name": "_sbBTCPool",
          "type": "address"
        },
        {
          "internalType": "address",
          "name": "_params",
          "type": "address"
        },
        {
          "internalType": "address",
          "name": "_swapRewards",
          "type": "address"
        },
        {
          "internalType": "uint256",
          "name": "_existingBTCFloat",
          "type": "uint256"
        }
      ],
      "stateMutability": "nonpayable",
      "type": "constructor"
    },
    {
      "anonymous": false,
      "inputs": [
        {
          "indexed": false,
          "internalType": "address",
          "name": "token",
          "type": "address"
        },
        {
          "indexed": false,
          "internalType": "uint256",
          "name": "amountOfLP",
          "type": "uint256"
        },
        {
          "indexed": false,
          "internalType": "uint256",
          "name": "amountOfFloat",
          "type": "uint256"
        },
        {
          "indexed": false,
          "internalType": "uint256",
          "name": "currentPriceLP",
          "type": "uint256"
        },
        {
          "indexed": false,
          "internalType": "uint256",
          "name": "withdrawal",
          "type": "uint256"
        },
        {
          "indexed": false,
          "internalType": "bytes32",
          "name": "txid",
          "type": "bytes32"
        }
      ],
      "name": "BurnLPTokensForFloat",
      "type": "event"
    },
    {
      "anonymous": false,
      "inputs": [
        {
          "indexed": false,
          "internalType": "address",
          "name": "token",
          "type": "address"
        },
        {
          "indexed": false,
          "internalType": "address",
          "name": "user",
          "type": "address"
        },
        {
          "indexed": false,
          "internalType": "uint256",
          "name": "amount",
          "type": "uint256"
        },
        {
          "indexed": false,
          "internalType": "uint256",
          "name": "balance",
          "type": "uint256"
        },
        {
          "indexed": false,
          "internalType": "uint256",
          "name": "Timestamp",
          "type": "uint256"
        }
      ],
      "name": "Deposit",
      "type": "event"
    },
    {
      "anonymous": false,
      "inputs": [
        {
          "indexed": false,
          "internalType": "uint256",
          "name": "rewardLPTsForNodes",
          "type": "uint256"
        }
      ],
      "name": "DistributeNodeRewards",
      "type": "event"
    },
    {
      "anonymous": false,
      "inputs": [
        {
          "indexed": false,
          "internalType": "address",
          "name": "to",
          "type": "address"
        },
        {
          "indexed": false,
          "internalType": "uint256",
          "name": "amountOfFloat",
          "type": "uint256"
        },
        {
          "indexed": false,
          "internalType": "uint256",
          "name": "amountOfLP",
          "type": "uint256"
        },
        {
          "indexed": false,
          "internalType": "uint256",
          "name": "currentPriceLP",
          "type": "uint256"
        },
        {
          "indexed": false,
          "internalType": "uint256",
          "name": "depositFees",
          "type": "uint256"
        },
        {
          "indexed": false,
          "internalType": "bytes32",
          "name": "txid",
          "type": "bytes32"
        }
      ],
      "name": "IssueLPTokensForFloat",
      "type": "event"
    },
    {
      "anonymous": false,
      "inputs": [
        {
          "indexed": true,
          "internalType": "address",
          "name": "previousOwner",
          "type": "address"
        },
        {
          "indexed": true,
          "internalType": "address",
          "name": "newOwner",
          "type": "address"
        }
      ],
      "name": "OwnershipTransferred",
      "type": "event"
    },
    {
      "anonymous": false,
      "inputs": [
        {
          "indexed": false,
          "internalType": "address",
          "name": "feesToken",
          "type": "address"
        },
        {
          "indexed": false,
          "internalType": "uint256",
          "name": "rewards",
          "type": "uint256"
        },
        {
          "indexed": false,
          "internalType": "uint256",
          "name": "amountLPTokensForNode",
          "type": "uint256"
        },
        {
          "indexed": false,
          "internalType": "uint256",
          "name": "currentPriceLP",
          "type": "uint256"
        }
      ],
      "name": "RewardsCollection",
      "type": "event"
    },
    {
      "anonymous": false,
      "inputs": [
        {
          "indexed": false,
          "internalType": "address",
          "name": "from",
          "type": "address"
        },
        {
          "indexed": false,
          "internalType": "address",
          "name": "to",
          "type": "address"
        },
        {
          "indexed": false,
          "internalType": "uint256",
          "name": "amount",
          "type": "uint256"
        }
      ],
      "name": "Swap",
      "type": "event"
    },
    {
      "anonymous": false,
      "inputs": [
        {
          "indexed": false,
          "internalType": "bytes32",
          "name": "SwapID",
          "type": "bytes32"
        },
        {
          "indexed": false,
          "internalType": "string",
          "name": "DestAddr",
          "type": "string"
        },
        {
          "indexed": false,
          "internalType": "address",
          "name": "RefundAddr",
          "type": "address"
        },
        {
          "indexed": false,
          "internalType": "uint256",
          "name": "AmountWBTC",
          "type": "uint256"
        },
        {
          "indexed": false,
          "internalType": "uint256",
          "name": "Timestamp",
          "type": "uint256"
        }
      ],
      "name": "SwapTokensToBTC",
      "type": "event"
    },
    {
      "anonymous": false,
      "inputs": [
        {
          "indexed": false,
          "internalType": "address",
          "name": "token",
          "type": "address"
        },
        {
          "indexed": false,
          "internalType": "address",
          "name": "user",
          "type": "address"
        },
        {
          "indexed": false,
          "internalType": "uint256",
          "name": "amount",
          "type": "uint256"
        },
        {
          "indexed": false,
          "internalType": "uint256",
          "name": "balance",
          "type": "uint256"
        },
        {
          "indexed": false,
          "internalType": "uint256",
          "name": "Timestamp",
          "type": "uint256"
        }
      ],
      "name": "Withdraw",
      "type": "event"
    },
    {
      "stateMutability": "nonpayable",
      "type": "fallback"
    },
    {
      "inputs": [],
      "name": "BTCT_ADDR",
      "outputs": [
        {
          "internalType": "address",
          "name": "",
          "type": "address"
        }
      ],
      "stateMutability": "view",
      "type": "function"
    },
    {
      "inputs": [],
      "name": "activeNodeCount",
      "outputs": [
        {
          "internalType": "uint8",
          "name": "",
          "type": "uint8"
        }
      ],
      "stateMutability": "view",
      "type": "function"
    },
    {
      "inputs": [
        {
          "internalType": "address",
          "name": "_token",
          "type": "address"
        },
        {
          "internalType": "address",
          "name": "_user",
          "type": "address"
        }
      ],
      "name": "balanceOf",
      "outputs": [
        {
          "internalType": "uint256",
          "name": "",
          "type": "uint256"
        }
      ],
      "stateMutability": "view",
      "type": "function"
    },
    {
      "inputs": [
        {
          "internalType": "address",
          "name": "_newOwner",
          "type": "address"
        },
        {
          "internalType": "address[]",
          "name": "_nodes",
          "type": "address[]"
        },
        {
          "internalType": "bool[]",
          "name": "_isRemoved",
          "type": "bool[]"
        },
        {
          "internalType": "uint8",
          "name": "_churnedInCount",
          "type": "uint8"
        },
        {
          "internalType": "uint8",
          "name": "_tssThreshold",
          "type": "uint8"
        },
        {
          "internalType": "uint256",
          "name": "_totalStakedAmount",
          "type": "uint256"
        }
      ],
      "name": "churn",
      "outputs": [
        {
          "internalType": "bool",
          "name": "",
          "type": "bool"
        }
      ],
      "stateMutability": "nonpayable",
      "type": "function"
    },
    {
      "inputs": [],
      "name": "churnedInCount",
      "outputs": [
        {
          "internalType": "uint8",
          "name": "",
          "type": "uint8"
        }
      ],
      "stateMutability": "view",
      "type": "function"
    },
    {
      "inputs": [
        {
          "internalType": "uint256",
          "name": "_incomingAmount",
          "type": "uint256"
        },
        {
          "internalType": "uint256",
          "name": "_minerFee",
          "type": "uint256"
        },
        {
          "internalType": "uint256",
          "name": "_rewardsAmount",
          "type": "uint256"
        },
        {
          "internalType": "address[]",
          "name": "_spenders",
          "type": "address[]"
        },
        {
          "internalType": "uint256[]",
          "name": "_swapAmounts",
          "type": "uint256[]"
        },
        {
          "internalType": "bool",
          "name": "_isUpdatelimitBTCForSPFlow2",
          "type": "bool"
        }
      ],
      "name": "collectSwapFeesForBTC",
      "outputs": [
        {
          "internalType": "bool",
          "name": "",
          "type": "bool"
        }
      ],
      "stateMutability": "nonpayable",
      "type": "function"
    },
    {
      "inputs": [],
      "name": "getActiveNodes",
      "outputs": [
        {
          "internalType": "address[]",
          "name": "",
          "type": "address[]"
        }
      ],
      "stateMutability": "view",
      "type": "function"
    },
    {
      "inputs": [],
      "name": "getCurrentPriceLP",
      "outputs": [
        {
          "internalType": "uint256",
          "name": "nowPrice",
          "type": "uint256"
        }
      ],
      "stateMutability": "view",
      "type": "function"
    },
    {
      "inputs": [
        {
          "internalType": "address",
          "name": "_tokenA",
          "type": "address"
        },
        {
          "internalType": "address",
          "name": "_tokenB",
          "type": "address"
        }
      ],
      "name": "getFloatReserve",
      "outputs": [
        {
          "internalType": "uint256",
          "name": "reserveA",
          "type": "uint256"
        },
        {
          "internalType": "uint256",
          "name": "reserveB",
          "type": "uint256"
        }
      ],
      "stateMutability": "view",
      "type": "function"
    },
    {
      "inputs": [],
      "name": "initialExchangeRate",
      "outputs": [
        {
          "internalType": "uint256",
          "name": "",
          "type": "uint256"
        }
      ],
      "stateMutability": "view",
      "type": "function"
    },
    {
      "inputs": [],
      "name": "ip",
      "outputs": [
        {
          "internalType": "contract IParams",
          "name": "",
          "type": "address"
        }
      ],
      "stateMutability": "view",
      "type": "function"
    },
    {
      "inputs": [
        {
          "internalType": "address",
          "name": "_user",
          "type": "address"
        }
      ],
      "name": "isNodeStake",
      "outputs": [
        {
          "internalType": "bool",
          "name": "",
          "type": "bool"
        }
      ],
      "stateMutability": "view",
      "type": "function"
    },
    {
      "inputs": [
        {
          "internalType": "bytes32",
          "name": "_txid",
          "type": "bytes32"
        }
      ],
      "name": "isTxUsed",
      "outputs": [
        {
          "internalType": "bool",
          "name": "",
          "type": "bool"
        }
      ],
      "stateMutability": "view",
      "type": "function"
    },
    {
      "inputs": [],
      "name": "limitBTCForSPFlow2",
      "outputs": [
        {
          "internalType": "uint256",
          "name": "",
          "type": "uint256"
        }
      ],
      "stateMutability": "view",
      "type": "function"
    },
    {
      "inputs": [],
      "name": "lpToken",
      "outputs": [
        {
          "internalType": "address",
          "name": "",
          "type": "address"
        }
      ],
      "stateMutability": "view",
      "type": "function"
    },
    {
      "inputs": [
        {
          "internalType": "bytes32[]",
          "name": "_addressesAndAmounts",
          "type": "bytes32[]"
        },
        {
          "internalType": "uint256",
          "name": "_totalSwapped",
          "type": "uint256"
        },
        {
          "internalType": "uint256",
          "name": "_rewardsAmount",
          "type": "uint256"
        },
        {
          "internalType": "bytes32[]",
          "name": "_usedTxIds",
          "type": "bytes32[]"
        }
      ],
      "name": "multiRecordSkyPoolsTX",
      "outputs": [
        {
          "internalType": "bool",
          "name": "",
          "type": "bool"
        }
      ],
      "stateMutability": "nonpayable",
      "type": "function"
    },
    {
      "inputs": [
        {
          "internalType": "address",
          "name": "_destToken",
          "type": "address"
        },
        {
          "internalType": "bytes32[]",
          "name": "_addressesAndAmounts",
          "type": "bytes32[]"
        },
        {
          "internalType": "uint256",
          "name": "_totalSwapped",
          "type": "uint256"
        },
        {
          "internalType": "uint256",
          "name": "_rewardsAmount",
          "type": "uint256"
        },
        {
          "internalType": "bytes32[]",
          "name": "_redeemedFloatTxIds",
          "type": "bytes32[]"
        }
      ],
      "name": "multiTransferERC20TightlyPacked",
      "outputs": [
        {
          "internalType": "bool",
          "name": "",
          "type": "bool"
        }
      ],
      "stateMutability": "nonpayable",
      "type": "function"
    },
    {
      "inputs": [],
      "name": "oldestActiveIndex",
      "outputs": [
        {
          "internalType": "uint256",
          "name": "",
          "type": "uint256"
        }
      ],
      "stateMutability": "view",
      "type": "function"
    },
    {
      "inputs": [],
      "name": "owner",
      "outputs": [
        {
          "internalType": "address",
          "name": "",
          "type": "address"
        }
      ],
      "stateMutability": "view",
      "type": "function"
    },
    {
      "inputs": [],
      "name": "params",
      "outputs": [
        {
          "internalType": "address",
          "name": "",
          "type": "address"
        }
      ],
      "stateMutability": "view",
      "type": "function"
    },
    {
      "inputs": [
        {
          "internalType": "address",
          "name": "_token",
          "type": "address"
        },
        {
          "internalType": "bytes32",
          "name": "_addressesAndAmountOfFloat",
          "type": "bytes32"
        },
        {
          "internalType": "bytes32",
          "name": "_txid",
          "type": "bytes32"
        }
      ],
      "name": "recordIncomingFloat",
      "outputs": [
        {
          "internalType": "bool",
          "name": "",
          "type": "bool"
        }
      ],
      "stateMutability": "nonpayable",
      "type": "function"
    },
    {
      "inputs": [
        {
          "internalType": "address",
          "name": "_token",
          "type": "address"
        },
        {
          "internalType": "bytes32",
          "name": "_addressesAndAmountOfLPtoken",
          "type": "bytes32"
        },
        {
          "internalType": "uint256",
          "name": "_minerFee",
          "type": "uint256"
        },
        {
          "internalType": "bytes32",
          "name": "_txid",
          "type": "bytes32"
        }
      ],
      "name": "recordOutcomingFloat",
      "outputs": [
        {
          "internalType": "bool",
          "name": "",
          "type": "bool"
        }
      ],
      "stateMutability": "nonpayable",
      "type": "function"
    },
    {
      "inputs": [
        {
          "internalType": "address",
          "name": "_to",
          "type": "address"
        },
        {
          "internalType": "uint256",
          "name": "_totalSwapped",
          "type": "uint256"
        },
        {
          "internalType": "uint256",
          "name": "_rewardsAmount",
          "type": "uint256"
        },
        {
          "internalType": "bytes32[]",
          "name": "_usedTxIds",
          "type": "bytes32[]"
        }
      ],
      "name": "recordSkyPoolsTX",
      "outputs": [
        {
          "internalType": "bool",
          "name": "",
          "type": "bool"
        }
      ],
      "stateMutability": "nonpayable",
      "type": "function"
    },
    {
      "inputs": [
        {
          "internalType": "uint256",
          "name": "_minerFee",
          "type": "uint256"
        },
        {
          "internalType": "bytes32",
          "name": "_txid",
          "type": "bytes32"
        }
      ],
      "name": "recordUTXOSweepMinerFee",
      "outputs": [
        {
          "internalType": "bool",
          "name": "",
          "type": "bool"
        }
      ],
      "stateMutability": "nonpayable",
      "type": "function"
    },
    {
      "inputs": [
        {
          "internalType": "address",
          "name": "_token",
          "type": "address"
        },
        {
          "internalType": "uint256",
          "name": "_amount",
          "type": "uint256"
        }
      ],
      "name": "redeemERC20Token",
      "outputs": [],
      "stateMutability": "nonpayable",
      "type": "function"
    },
    {
      "inputs": [
        {
          "internalType": "uint256",
          "name": "_amount",
          "type": "uint256"
        }
      ],
      "name": "redeemEther",
      "outputs": [],
      "stateMutability": "nonpayable",
      "type": "function"
    },
    {
      "inputs": [],
      "name": "renounceOwnership",
      "outputs": [],
      "stateMutability": "nonpayable",
      "type": "function"
    },
    {
      "inputs": [],
      "name": "sbBTCPool",
      "outputs": [
        {
          "internalType": "address",
          "name": "",
          "type": "address"
        }
      ],
      "stateMutability": "view",
      "type": "function"
    },
    {
      "inputs": [
        {
          "internalType": "address",
          "name": "_destToken",
          "type": "address"
        },
        {
          "internalType": "address",
          "name": "_to",
          "type": "address"
        },
        {
          "internalType": "uint256",
          "name": "_amount",
          "type": "uint256"
        },
        {
          "internalType": "uint256",
          "name": "_totalSwapped",
          "type": "uint256"
        },
        {
          "internalType": "uint256",
          "name": "_rewardsAmount",
          "type": "uint256"
        },
        {
          "internalType": "bytes32[]",
          "name": "_redeemedFloatTxIds",
          "type": "bytes32[]"
        }
      ],
      "name": "singleTransferERC20",
      "outputs": [
        {
          "internalType": "bool",
          "name": "",
          "type": "bool"
        }
      ],
      "stateMutability": "nonpayable",
      "type": "function"
    },
    {
      "inputs": [],
      "name": "spCleanUpOldTXs",
      "outputs": [],
      "stateMutability": "nonpayable",
      "type": "function"
    },
    {
      "inputs": [
        {
          "internalType": "address",
          "name": "_token",
          "type": "address"
        },
        {
          "internalType": "uint256",
          "name": "_amount",
          "type": "uint256"
        }
      ],
      "name": "spDeposit",
      "outputs": [],
      "stateMutability": "payable",
      "type": "function"
    },
    {
      "inputs": [
        {
          "components": [
            {
              "internalType": "address",
              "name": "fromToken",
              "type": "address"
            },
            {
              "internalType": "address",
              "name": "toToken",
              "type": "address"
            },
            {
              "internalType": "uint256",
              "name": "fromAmount",
              "type": "uint256"
            },
            {
              "internalType": "uint256",
              "name": "toAmount",
              "type": "uint256"
            },
            {
              "internalType": "uint256",
              "name": "expectedAmount",
              "type": "uint256"
            },
            {
              "internalType": "address[]",
              "name": "callees",
              "type": "address[]"
            },
            {
              "internalType": "bytes",
              "name": "exchangeData",
              "type": "bytes"
            },
            {
              "internalType": "uint256[]",
              "name": "startIndexes",
              "type": "uint256[]"
            },
            {
              "internalType": "uint256[]",
              "name": "values",
              "type": "uint256[]"
            },
            {
              "internalType": "address payable",
              "name": "beneficiary",
              "type": "address"
            },
            {
              "internalType": "address payable",
              "name": "partner",
              "type": "address"
            },
            {
              "internalType": "uint256",
              "name": "feePercent",
              "type": "uint256"
            },
            {
              "internalType": "bytes",
              "name": "permit",
              "type": "bytes"
            },
            {
              "internalType": "uint256",
              "name": "deadline",
              "type": "uint256"
            },
            {
              "internalType": "bytes16",
              "name": "uuid",
              "type": "bytes16"
            }
          ],
          "internalType": "struct Utils.SimpleData",
          "name": "_data",
          "type": "tuple"
        }
      ],
      "name": "spFlow1SimpleSwap",
      "outputs": [],
      "stateMutability": "nonpayable",
      "type": "function"
    },
    {
      "inputs": [
        {
          "internalType": "bool",
          "name": "_fork",
          "type": "bool"
        },
        {
          "internalType": "address",
          "name": "_factory",
          "type": "address"
        },
        {
          "internalType": "bytes32",
          "name": "_initCode",
          "type": "bytes32"
        },
        {
          "internalType": "uint256",
          "name": "_amountIn",
          "type": "uint256"
        },
        {
          "internalType": "uint256",
          "name": "_amountOutMin",
          "type": "uint256"
        },
        {
          "internalType": "address[]",
          "name": "_path",
          "type": "address[]"
        }
      ],
      "name": "spFlow1Uniswap",
      "outputs": [
        {
          "internalType": "uint256",
          "name": "receivedAmount",
          "type": "uint256"
        }
      ],
      "stateMutability": "nonpayable",
      "type": "function"
    },
    {
      "inputs": [
        {
          "internalType": "string",
          "name": "_destinationAddressForBTC",
          "type": "string"
        },
        {
          "components": [
            {
              "internalType": "address",
              "name": "fromToken",
              "type": "address"
            },
            {
              "internalType": "address",
              "name": "toToken",
              "type": "address"
            },
            {
              "internalType": "uint256",
              "name": "fromAmount",
              "type": "uint256"
            },
            {
              "internalType": "uint256",
              "name": "toAmount",
              "type": "uint256"
            },
            {
              "internalType": "uint256",
              "name": "expectedAmount",
              "type": "uint256"
            },
            {
              "internalType": "address[]",
              "name": "callees",
              "type": "address[]"
            },
            {
              "internalType": "bytes",
              "name": "exchangeData",
              "type": "bytes"
            },
            {
              "internalType": "uint256[]",
              "name": "startIndexes",
              "type": "uint256[]"
            },
            {
              "internalType": "uint256[]",
              "name": "values",
              "type": "uint256[]"
            },
            {
              "internalType": "address payable",
              "name": "beneficiary",
              "type": "address"
            },
            {
              "internalType": "address payable",
              "name": "partner",
              "type": "address"
            },
            {
              "internalType": "uint256",
              "name": "feePercent",
              "type": "uint256"
            },
            {
              "internalType": "bytes",
              "name": "permit",
              "type": "bytes"
            },
            {
              "internalType": "uint256",
              "name": "deadline",
              "type": "uint256"
            },
            {
              "internalType": "bytes16",
              "name": "uuid",
              "type": "bytes16"
            }
          ],
          "internalType": "struct Utils.SimpleData",
          "name": "_data",
          "type": "tuple"
        }
      ],
      "name": "spFlow2SimpleSwap",
      "outputs": [
        {
          "internalType": "uint256",
          "name": "receivedAmount",
          "type": "uint256"
        }
      ],
      "stateMutability": "nonpayable",
      "type": "function"
    },
    {
      "inputs": [
        {
          "internalType": "string",
          "name": "_destinationAddressForBTC",
          "type": "string"
        },
        {
          "internalType": "bool",
          "name": "_fork",
          "type": "bool"
        },
        {
          "internalType": "address",
          "name": "_factory",
          "type": "address"
        },
        {
          "internalType": "bytes32",
          "name": "_initCode",
          "type": "bytes32"
        },
        {
          "internalType": "uint256",
          "name": "_amountIn",
          "type": "uint256"
        },
        {
          "internalType": "uint256",
          "name": "_amountOutMin",
          "type": "uint256"
        },
        {
          "internalType": "address[]",
          "name": "_path",
          "type": "address[]"
        }
      ],
      "name": "spFlow2Uniswap",
      "outputs": [
        {
          "internalType": "uint256",
          "name": "receivedAmount",
          "type": "uint256"
        }
      ],
      "stateMutability": "nonpayable",
      "type": "function"
    },
    {
      "inputs": [],
      "name": "spGetPendingSwaps",
      "outputs": [
        {
          "components": [
            {
              "internalType": "bytes32",
              "name": "SwapID",
              "type": "bytes32"
            },
            {
              "internalType": "string",
              "name": "DestAddr",
              "type": "string"
            },
            {
              "internalType": "address",
              "name": "RefundAddr",
              "type": "address"
            },
            {
              "internalType": "uint256",
              "name": "AmountWBTC",
              "type": "uint256"
            },
            {
              "internalType": "uint256",
              "name": "Timestamp",
              "type": "uint256"
            }
          ],
          "internalType": "struct SwapContract.spPendingTx[]",
          "name": "data",
          "type": "tuple[]"
        }
      ],
      "stateMutability": "view",
      "type": "function"
    },
    {
      "inputs": [
        {
          "internalType": "uint256",
          "name": "",
          "type": "uint256"
        }
      ],
      "name": "spPendingTXs",
      "outputs": [
        {
          "internalType": "bytes32",
          "name": "SwapID",
          "type": "bytes32"
        },
        {
          "internalType": "string",
          "name": "DestAddr",
          "type": "string"
        },
        {
          "internalType": "address",
          "name": "RefundAddr",
          "type": "address"
        },
        {
          "internalType": "uint256",
          "name": "AmountWBTC",
          "type": "uint256"
        },
        {
          "internalType": "uint256",
          "name": "Timestamp",
          "type": "uint256"
        }
      ],
      "stateMutability": "view",
      "type": "function"
    },
    {
      "inputs": [],
      "name": "sw",
      "outputs": [
        {
          "internalType": "contract ISwapRewards",
          "name": "",
          "type": "address"
        }
      ],
      "stateMutability": "view",
      "type": "function"
    },
    {
      "inputs": [],
      "name": "swapCount",
      "outputs": [
        {
          "internalType": "uint256",
          "name": "",
          "type": "uint256"
        }
      ],
      "stateMutability": "view",
      "type": "function"
    },
    {
      "inputs": [],
      "name": "swapRewards",
      "outputs": [
        {
          "internalType": "address",
          "name": "",
          "type": "address"
        }
      ],
      "stateMutability": "view",
      "type": "function"
    },
    {
      "inputs": [
        {
          "internalType": "address",
          "name": "",
          "type": "address"
        },
        {
          "internalType": "address",
          "name": "",
          "type": "address"
        }
      ],
      "name": "tokens",
      "outputs": [
        {
          "internalType": "uint256",
          "name": "",
          "type": "uint256"
        }
      ],
      "stateMutability": "view",
      "type": "function"
    },
    {
      "inputs": [],
      "name": "totalStakedAmount",
      "outputs": [
        {
          "internalType": "uint256",
          "name": "",
          "type": "uint256"
        }
      ],
      "stateMutability": "view",
      "type": "function"
    },
    {
      "inputs": [
        {
          "internalType": "address",
          "name": "newOwner",
          "type": "address"
        }
      ],
      "name": "transferOwnership",
      "outputs": [],
      "stateMutability": "nonpayable",
      "type": "function"
    },
    {
      "inputs": [],
      "name": "tssThreshold",
      "outputs": [
        {
          "internalType": "uint8",
          "name": "",
          "type": "uint8"
        }
      ],
      "stateMutability": "view",
      "type": "function"
    },
    {
      "inputs": [],
      "name": "wETH",
      "outputs": [
        {
          "internalType": "address",
          "name": "",
          "type": "address"
        }
      ],
      "stateMutability": "view",
      "type": "function"
    },
    {
      "inputs": [
        {
          "internalType": "address",
          "name": "",
          "type": "address"
        }
      ],
      "name": "whitelist",
      "outputs": [
        {
          "internalType": "bool",
          "name": "",
          "type": "bool"
        }
      ],
      "stateMutability": "view",
      "type": "function"
    },
    {
      "stateMutability": "payable",
      "type": "receive"
    }
  ],
  "bytecode": "0x6101c06040523480156200001257600080fd5b506040516200663538038062006635833981016040819052620000359162000339565b6200004033620002cc565b60018055600060048181556003919091556001600160a01b038087166101005285811661012052848116610160819052610180528381166101408190526101a052881660a08190526040805163313ce56760e01b81529051919263313ce567928282019260209290829003018186803b158015620000bd57600080fd5b505afa158015620000d2573d6000803e3d6000fd5b505050506040513d601f19601f82011682018060405250810190620000f89190620003c5565b6200010590600a62000506565b60e0526001600160a01b03861660808190526040805163313ce56760e01b815290516008929163313ce567916004808301926020929190829003018186803b1580156200015157600080fd5b505afa15801562000166573d6000803e3d6000fd5b505050506040513d601f19601f820116820180604052508101906200018c9190620003c5565b62000198919062000517565b620001a590600a62000506565b60c08181525050866001600160a01b031663313ce5676040518163ffffffff1660e01b815260040160206040518083038186803b158015620001e657600080fd5b505afa158015620001fb573d6000803e3d6000fd5b505050506040513d601f19601f82011682018060405250810190620002219190620003c5565b6200022e90600a62000506565b6007556001600160a01b0395861660009081526005602090815260408083208054600160ff1991821681179092559a9099168352822080548a16891790559080527f05b8ccbb9d4d8fb16ea74ce3c29a41f1b461fbdaff4714a0d9a8eb05499746bc80549098169096179096555050600990925250507fec8156718a8372b1db44bb411437d0870f3e3790d4a08526d024ce1b0b668f6b556200053d565b600080546001600160a01b038381166001600160a01b0319831681178455604051919092169283917f8be0079c531659141344cd1fd0a4f28419497f9722a3daafe3b4186f6b6457e09190a35050565b80516001600160a01b03811681146200033457600080fd5b919050565b600080600080600080600060e0888a0312156200035557600080fd5b62000360886200031c565b965062000370602089016200031c565b955062000380604089016200031c565b945062000390606089016200031c565b9350620003a0608089016200031c565b9250620003b060a089016200031c565b915060c0880151905092959891949750929550565b600060208284031215620003d857600080fd5b815160ff81168114620003ea57600080fd5b9392505050565b634e487b7160e01b600052601160045260246000fd5b600181815b80851115620004485781600019048211156200042c576200042c620003f1565b808516156200043a57918102915b93841c93908002906200040c565b509250929050565b600082620004615750600162000500565b81620004705750600062000500565b81600181146200048957600281146200049457620004b4565b600191505062000500565b60ff841115620004a857620004a8620003f1565b50506001821b62000500565b5060208310610133831016604e8410600b8410161715620004d9575081810a62000500565b620004e5838362000407565b8060001904821115620004fc57620004fc620003f1565b0290505b92915050565b6000620003ea60ff84168362000450565b600060ff821660ff841680821015620005345762000534620003f1565b90039392505050565b60805160a05160c05160e05161010051610120516101405161016051610180516101a051615eed620007486000396000818161035e01528181610a6501526134320152600081816108000152818161269f0152818161276b0152818161282a0152818161330a0152818161388301528181613eaf0152614776015260006107cc015260006108340152600081816102e10152818161371e015261396501526000818161028e0152818161090d01528181611d1c01528181611d7801528181611de501528181611e2c01528181611f1001528181612dd101528181612e4b0152612e940152600081816114020152818161392a01528181613e77015261467001526000613b160152600081816105a501528181610b3d01528181610b7801528181611362015281816121110152818161214c015281816136cf0152818161374d015281816139970152818161410e01526146bd0152600081816103c201528181610ae901528181610b1b01528181610c9201528181611336015281816116c5015281816120bd015281816120ef0152818161220e0152818161223d0152818161228d01528181612320015281816123ae01528181612963015281816129d701528181612a6e01528181612c220152818161312d015281816133e3015281816134c401528181613ad801528181613fa401528181614020015281816140b5015261439c0152615eed6000f3fe60806040526004361061027e5760003560e01c80638535490f1161014f578063ca0707e7116100c1578063dcc5f0c81161007a578063dcc5f0c814610876578063e6ca208414610896578063ec482729146108c6578063f2428621146108fb578063f2fde38b1461092f578063f7888aec1461094f576102bd565b8063ca0707e714610787578063cf10b16b1461079a578063cff0ab96146107ba578063d023420d146107ee578063d0f9a08514610822578063d38c7bb114610856576102bd565b8063ad289e7611610113578063ad289e76146106d2578063b345a358146106f2578063b4014fe814610712578063b9ae0adc14610732578063bf62dcc814610747578063c810a53914610767576102bd565b80638535490f1461062e5780638da5cb5b1461064e5780639b19251a1461066c578063a742329d1461069c578063a827278b146106bc576102bd565b80632eff0d9e116101f3578063567e98f9116101ac578063567e98f91461057d5780635fcbd285146105935780636b51e919146105c75780636d019f35146105e9578063715018a6146105ff5780637534081514610614576102bd565b80632eff0d9e146104ba57806345137e27146104d05780634db75485146104e5578063508493bc14610505578063511834c31461053d57806352dcd6b61461055d576102bd565b806312d1441e1161024557806312d1441e146103e4578063130b7a63146104035780631ab7e937146104315780631bb069301461046257806320199e99146104785780632586c5621461049a576102bd565b806285aea1146102cf57806289356f14610320578062e5cee41461034c5780630d63aca7146103805780630f909486146103b0576102bd565b366102bd57336001600160a01b037f000000000000000000000000000000000000000000000000000000000000000016146102bb576102bb614d08565b005b3480156102c957600080fd5b50600080fd5b3480156102db57600080fd5b506103037f000000000000000000000000000000000000000000000000000000000000000081565b6040516001600160a01b0390911681526020015b60405180910390f35b34801561032c57600080fd5b5060065461033a9060ff1681565b60405160ff9091168152602001610317565b34801561035857600080fd5b506103037f000000000000000000000000000000000000000000000000000000000000000081565b34801561038c57600080fd5b506103a061039b366004614e17565b610995565b6040519015158152602001610317565b3480156103bc57600080fd5b506103037f000000000000000000000000000000000000000000000000000000000000000081565b3480156103f057600080fd5b5060065461033a90610100900460ff1681565b34801561040f57600080fd5b5061042361041e366004614ef8565b610bc4565b604051908152602001610317565b34801561043d57600080fd5b5061045161044c366004614f7d565b610f95565b604051610317959493929190614fee565b34801561046e57600080fd5b5061042360045481565b34801561048457600080fd5b5061048d611058565b604051610317919061502d565b3480156104a657600080fd5b506103a06104b53660046150cb565b611259565b3480156104c657600080fd5b5061042360035481565b3480156104dc57600080fd5b5061042361132a565b3480156104f157600080fd5b506102bb610500366004615106565b611448565b34801561051157600080fd5b50610423610520366004615132565b600f60209081526000928352604080842090915290825290205481565b34801561054957600080fd5b506102bb610558366004615184565b6115a7565b34801561056957600080fd5b506103a0610578366004615236565b611811565b34801561058957600080fd5b50610423600e5481565b34801561059f57600080fd5b506103037f000000000000000000000000000000000000000000000000000000000000000081565b3480156105d357600080fd5b506105dc611bac565b6040516103179190615378565b3480156105f557600080fd5b5061042360075481565b34801561060b57600080fd5b506102bb611cd6565b34801561062057600080fd5b50600d5461033a9060ff1681565b34801561063a57600080fd5b506102bb610649366004614f7d565b611cea565b34801561065a57600080fd5b506000546001600160a01b0316610303565b34801561067857600080fd5b506103a061068736600461538b565b60056020526000908152604090205460ff1681565b3480156106a857600080fd5b506103a06106b736600461538b565b611fa6565b3480156106c857600080fd5b5061042360085481565b3480156106de57600080fd5b506103a06106ed3660046153a8565b611fda565b3480156106fe57600080fd5b506103a061070d366004615431565b6121e9565b34801561071e57600080fd5b5061042361072d3660046154d4565b6122ec565b34801561073e57600080fd5b506102bb612764565b34801561075357600080fd5b506103a061076236600461553c565b61293e565b34801561077357600080fd5b506103a06107823660046155a6565b612af5565b6102bb610795366004615106565b612bc9565b3480156107a657600080fd5b506103a06107b53660046155c8565b612f2b565b3480156107c657600080fd5b506103037f000000000000000000000000000000000000000000000000000000000000000081565b3480156107fa57600080fd5b506103037f000000000000000000000000000000000000000000000000000000000000000081565b34801561082e57600080fd5b506103037f000000000000000000000000000000000000000000000000000000000000000081565b34801561086257600080fd5b506104236108713660046155fd565b612ffa565b34801561088257600080fd5b506103a06108913660046156b4565b6133d7565b3480156108a257600080fd5b506103a06108b1366004614f7d565b6000908152600a602052604090205460ff1690565b3480156108d257600080fd5b506108e66108e1366004615132565b613534565b60408051928352602083019190915201610317565b34801561090757600080fd5b506103037f000000000000000000000000000000000000000000000000000000000000000081565b34801561093b57600080fd5b506102bb61094a36600461538b565b61355e565b34801561095b57600080fd5b5061042361096a366004615132565b6001600160a01b039182166000908152600f6020908152604080832093909416825291909152205490565b600061099f6135d7565b6001600160a01b03871660009081526005602052604090205460ff166109f15760405162461bcd60e51b81526020600482015260026024820152610c4d60f21b60448201526064015b60405180910390fd5b6001600160a01b038716610a2c5760405162461bcd60e51b8152602060048201526002602482015261313560f01b60448201526064016109e8565b60008415610b135760405160016266faa960e11b031981526001600160a01b0389811660048301528881166024830152604482018790527f0000000000000000000000000000000000000000000000000000000000000000169063ff320aae90606401602060405180830381600087803b158015610aa957600080fd5b505af1158015610abd573d6000803e3d6000fd5b505050506040513d601f19601f82011682018060405250810190610ae19190615799565b50610b0e60007f0000000000000000000000000000000000000000000000000000000000000000876135ee565b610b3b565b84610b3b57507f00000000000000000000000000000000000000000000000000000000000000005b7f00000000000000000000000000000000000000000000000000000000000000006001600160a01b0316886001600160a01b03161415610b9857507f00000000000000000000000000000000000000000000000000000000000000005b610ba281856136c4565b610bab83613a6e565b610bb6888888613ad6565b506001979650505050505050565b600060026001541415610be95760405162461bcd60e51b81526004016109e8906157b6565b6002600155600083838281610c0057610c006157ed565b9050602002016020810190610c15919061538b565b905060008484610c26600182615819565b818110610c3557610c356157ed565b9050602002016020810190610c4a919061538b565b6001600160a01b0383166000908152600f60209081526040808320338452909152902054909150871115610c905760405162461bcd60e51b81526004016109e890615830565b7f00000000000000000000000000000000000000000000000000000000000000006001600160a01b0316826001600160a01b031614610d0a5760405162461bcd60e51b8152602060048201526016602482015275333937b6aa37b5b2b710109e90212a21aa2fa0a2222960511b60448201526064016109e8565b6001600160a01b03811673eeeeeeeeeeeeeeeeeeeeeeeeeeeeeeeeeeeeeeee1415610d6f5760405162461bcd60e51b81526020600482015260156024820152740aae6ca40e0c2e8d040ee84a886405a7c40ee8aa89605b1b60448201526064016109e8565b6040516370a0823160e01b81523060048201526000906001600160a01b038316906370a082319060240160206040518083038186803b158015610db157600080fd5b505afa158015610dc5573d6000803e3d6000fd5b505050506040513d601f19601f82011682018060405250810190610de9919061585e565b6001600160a01b0384166000908152600f60209081526040808320338452909152902054909150610e1a9089613bc8565b6001600160a01b0384166000908152600f602090815260408083203384529091529020558a15610e5757610e528a8a8a8a8a8a613bdb565b610e63565b610e6388888888613d17565b6040516370a0823160e01b8152306004820152610ee79082906001600160a01b038516906370a08231906024015b60206040518083038186803b158015610ea957600080fd5b505afa158015610ebd573d6000803e3d6000fd5b505050506040513d601f19601f82011682018060405250810190610ee1919061585e565b90613bc8565b935086841015610f2e5760405162461bcd60e51b81526020600482015260126024820152715265636569766564203c206d696e696d756d60701b60448201526064016109e8565b6001600160a01b0382166000908152600f60209081526040808320338452909152902054610f5c9085613ddc565b6001600160a01b039092166000908152600f60209081526040808320338452909152902091909155505060018055979650505050505050565b60026020526000908152604090208054600182018054919291610fb790615877565b80601f0160208091040260200160405190810160405280929190818152602001828054610fe390615877565b80156110305780601f1061100557610100808354040283529160200191611030565b820191906000526020600020905b81548152906001019060200180831161101357829003601f168201915b505050506002830154600384015460049094015492936001600160a01b039091169290915085565b60606000611073600454600354613bc890919063ffffffff16565b6001600160401b0381111561108a5761108a614d43565b6040519080825280602002602001820160405280156110f957816020015b6110e66040518060a00160405280600080191681526020016060815260200160006001600160a01b0316815260200160008152602001600081525090565b8152602001906001900390816110a85790505b50915060006111146001600454613ddc90919063ffffffff16565b90505b6003548111611254576002600061113960045485613ddc90919063ffffffff16565b81526020019081526020016000206040518060a00160405290816000820154815260200160018201805461116c90615877565b80601f016020809104026020016040519081016040528092919081815260200182805461119890615877565b80156111e55780601f106111ba576101008083540402835291602001916111e5565b820191906000526020600020905b8154815290600101906020018083116111c857829003601f168201915b505050918352505060028201546001600160a01b0316602082015260038201546040820152600490910154606090910152835184908490811061122a5761122a6157ed565b6020908102919091010152611240826001613ddc565b91508061124c816158ac565b915050611117565b505090565b60006112636135d7565b600061126d61132a565b6001600160a01b03871660009081526005602052604090205490915060ff166112bd5760405162461bcd60e51b8152602060048201526002602482015261189b60f11b60448201526064016109e8565b6112c986868686613de8565b6112d257600080fd5b60019150806112df61132a565b10156113215760405162461bcd60e51b8152602060048201526011602482015270496e76616c6964204c505420707269636560781b60448201526064016109e8565b50949350505050565b600080600061135a60007f0000000000000000000000000000000000000000000000000000000000000000613534565b9150915060007f00000000000000000000000000000000000000000000000000000000000000006001600160a01b03166318160ddd6040518163ffffffff1660e01b815260040160206040518083038186803b1580156113b957600080fd5b505afa1580156113cd573d6000803e3d6000fd5b505050506040513d601f19601f820116820180604052508101906113f1919061585e565b9050801561143c57611437816114317f000000000000000000000000000000000000000000000000000000000000000061142b8787613ddc565b9061420d565b90614219565b611440565b6007545b935050505090565b6002600154141561146b5760405162461bcd60e51b81526004016109e8906157b6565b60026001556001600160a01b0382166000908152600f602090815260408083203384529091529020548111156114da5760405162461bcd60e51b8152602060048201526014602482015273496e73756666696369656e742042616c616e636560601b60448201526064016109e8565b6001600160a01b0382166000908152600f602090815260408083203384529091529020546115089082613bc8565b6001600160a01b0383166000908152600f602090815260408083203380855292529091209190915561153c90839083613ad6565b6001600160a01b0382166000908152600f60209081526040808320338085529252918290205491517febff2602b3f468259e1e99f613fed6691f3a6526effe6ef3e768ba7ae7a36c4f926115979286929091869142906158c7565b60405180910390a1505060018055565b600260015414156115ca5760405162461bcd60e51b81526004016109e8906157b6565b6002600155336115e26101408301610120840161538b565b6001600160a01b0316146116385760405162461bcd60e51b815260206004820152601960248201527f62656e656669636961727920213d206d73672e73656e6465720000000000000060448201526064016109e8565b6040810135600f600061164e602085018561538b565b6001600160a01b03168152602081019190915260400160009081209061167c6101408501610120860161538b565b6001600160a01b03166001600160a01b031681526020019081526020016000205410156116bb5760405162461bcd60e51b81526004016109e890615830565b6001600160a01b037f0000000000000000000000000000000000000000000000000000000000000000166116f2602083018361538b565b6001600160a01b0316146117415760405162461bcd60e51b8152602060048201526016602482015275333937b6aa37b5b2b710109e90212a21aa2fa0a2222960511b60448201526064016109e8565b61174a81614225565b6117b16040820135600f6000611763602086018661538b565b6001600160a01b0316815260208101919091526040016000908120906117916101408601610120870161538b565b6001600160a01b0316815260208101919091526040016000205490613bc8565b600f60006117c2602085018561538b565b6001600160a01b0316815260208101919091526040016000908120906117f06101408501610120860161538b565b6001600160a01b031681526020810191909152604001600020555060018055565b600061181b6135d7565b60065460ff61010090910481169084161080159061183d575060ff8360ff1611155b61186e5760405162461bcd60e51b8152602060048201526002602482015261303160f01b60448201526064016109e8565b6118796001846158f8565b60ff168460ff1610156118b35760405162461bcd60e51b8152602060048201526002602482015261181960f11b60448201526064016109e8565b84518651146118e95760405162461bcd60e51b8152602060048201526002602482015261303560f01b60448201526064016109e8565b6118f28761355e565b60005b8651811015611b1c57858181518110611910576119106157ed565b6020026020010151611a8557600060ff16600b6000898481518110611937576119376157ed565b6020908102919091018101516001600160a01b031682528101919091526040016000205460ff1614156119b457600c878281518110611978576119786157ed565b60209081029190910181015182546001810184556000938452919092200180546001600160a01b0319166001600160a01b039092169190911790555b600160ff16600b60008984815181106119cf576119cf6157ed565b6020908102919091018101516001600160a01b031682528101919091526040016000205460ff1614611a2857600d805460ff16906000611a0e8361591d565b91906101000a81548160ff021916908360ff160217905550505b6001600b6000898481518110611a4057611a406157ed565b60200260200101516001600160a01b03166001600160a01b0316815260200190815260200160002060006101000a81548160ff021916908360ff160217905550611b0a565b600d805460ff16906000611a988361593d565b91906101000a81548160ff021916908360ff160217905550506002600b6000898481518110611ac957611ac96157ed565b60200260200101516001600160a01b03166001600160a01b0316815260200190815260200160002060006101000a81548160ff021916908360ff1602179055505b80611b14816158ac565b9150506118f5565b50600d54606460ff9091161115611b7f5760405162461bcd60e51b815260206004820152602160248201527f53746f726564206e6f64652073697a652073686f756c64206265203c3d2031306044820152600360fc1b60648201526084016109e8565b506006805460ff8481166101000261ffff1990921690861617179055600e81905560019695505050505050565b600d54606090600090819060ff166001600160401b03811115611bd157611bd1614d43565b604051908082528060200260200182016040528015611bfa578160200160208202803683370190505b50905060005b600c54811015611ccf57600160ff16600b6000600c8481548110611c2657611c266157ed565b60009182526020808320909101546001600160a01b0316835282019290925260400190205460ff161415611cbd57600c8181548110611c6757611c676157ed565b9060005260206000200160009054906101000a90046001600160a01b0316828481518110611c9757611c976157ed565b6001600160a01b039092166020928302919091019091015282611cb9816158ac565b9350505b80611cc7816158ac565b915050611c00565b5092915050565b611cde6135d7565b611ce86000614348565b565b60026001541415611d0d5760405162461bcd60e51b81526004016109e8906157b6565b60026001556001600160a01b037f0000000000000000000000000000000000000000000000000000000000000000166000908152600f60209081526040808320338452909152902054811115611d6257600080fd5b604051632e1a7d4d60e01b8152600481018290527f00000000000000000000000000000000000000000000000000000000000000006001600160a01b031690632e1a7d4d90602401600060405180830381600087803b158015611dc457600080fd5b505af1158015611dd8573d6000803e3d6000fd5b5050506001600160a01b037f0000000000000000000000000000000000000000000000000000000000000000166000908152600f60209081526040808320338452909152902054611e2a915082613bc8565b7f00000000000000000000000000000000000000000000000000000000000000006001600160a01b03166000908152600f60209081526040808320338085529252808320939093559151829084908381818185875af1925050503d8060008114611eb0576040519150601f19603f3d011682016040523d82523d6000602084013e611eb5565b606091505b5050905080611f065760405162461bcd60e51b815260206004820152601e60248201527f72656365697665722072656a656374656420455448207472616e73666572000060448201526064016109e8565b6001600160a01b037f0000000000000000000000000000000000000000000000000000000000000000166000908152600f60209081526040808320338085529252918290205491517febff2602b3f468259e1e99f613fed6691f3a6526effe6ef3e768ba7ae7a36c4f92611f959273eeeeeeeeeeeeeeeeeeeeeeeeeeeeeeeeeeeeeeee929091889142906158c7565b60405180910390a150506001805550565b6001600160a01b0381166000908152600b602052604081205460ff1660011415611fd257506001919050565b506000919050565b6000611fe46135d7565b6001600160a01b03861660009081526005602052604090205460ff1661204c5760405162461bcd60e51b815260206004820152601d60248201527f5f64657374546f6b656e206973206e6f742077686974656c697374656400000060448201526064016109e8565b6001600160a01b0386166120ae5760405162461bcd60e51b815260206004820152602360248201527f5f64657374546f6b656e2073686f756c64206e6f74206265206164647265737360448201526228302960e81b60648201526084016109e8565b600084156120e7576120e260007f0000000000000000000000000000000000000000000000000000000000000000876135ee565b61210f565b8461210f57507f00000000000000000000000000000000000000000000000000000000000000005b7f00000000000000000000000000000000000000000000000000000000000000006001600160a01b0316876001600160a01b0316141561216c57507f00000000000000000000000000000000000000000000000000000000000000005b61217681856136c4565b61217f83613a6e565b60005b8651811015610bb6576121d7888883815181106121a1576121a16157ed565b602002602001015160001c8984815181106121be576121be6157ed565b602002602001015160a01c6001600160601b0316613ad6565b806121e1816158ac565b915050612182565b60006121f36135d7565b836121fd57600080fd5b8261220757600080fd5b61223360007f0000000000000000000000000000000000000000000000000000000000000000866135ee565b6001600160a01b037f000000000000000000000000000000000000000000000000000000000000000081166000908152600f60209081526040808320938916835292905220546122839085613ddc565b6001600160a01b037f000000000000000000000000000000000000000000000000000000000000000081166000908152600f60209081526040808320938a168352929052908120919091556122d890846136c4565b6122e182613a6e565b506001949350505050565b6000600260015414156123115760405162461bcd60e51b81526004016109e8906157b6565b60026001556001600160a01b037f00000000000000000000000000000000000000000000000000000000000000001661234d602084018461538b565b6001600160a01b031614156123a45760405162461bcd60e51b815260206004820152601c60248201527f4d757374206e6f7420737761702066726f6d2042544320746f6b656e0000000060448201526064016109e8565b6001600160a01b037f0000000000000000000000000000000000000000000000000000000000000000166123de604084016020850161538b565b6001600160a01b03161461242d5760405162461bcd60e51b815260206004820152601660248201527526bab9ba1039bbb0b8103a3790212a21903a37b5b2b760511b60448201526064016109e8565b306124406101408401610120850161538b565b6001600160a01b0316146124965760405162461bcd60e51b815260206004820152601c60248201527f62656e656669636961727920213d207377617020636f6e74726163740000000060448201526064016109e8565b6040820135600f60006124ac602086018661538b565b6001600160a01b031681526020808201929092526040908101600090812033825290925290205410156124f15760405162461bcd60e51b81526004016109e890615830565b6000612503604084016020850161538b565b6040516370a0823160e01b81523060048201526001600160a01b0391909116906370a082319060240160206040518083038186803b15801561254457600080fd5b505afa158015612558573d6000803e3d6000fd5b505050506040513d601f19601f8201168201806040525081019061257c919061585e565b90506125c46040840135600f6000612597602088018861538b565b6001600160a01b031681526020808201929092526040908101600090812033825290925290205490613bc8565b600f60006125d5602087018761538b565b6001600160a01b031681526020808201929092526040908101600090812033825290925290205561260583614225565b61264781612619604086016020870161538b565b6040516370a0823160e01b81523060048201526001600160a01b0391909116906370a0823190602401610e91565b9150826080013582101561269d5760405162461bcd60e51b815260206004820152601c60248201527f526563656976656420616d6f756e7420696e73756666696369656e740000000060448201526064016109e8565b7f00000000000000000000000000000000000000000000000000000000000000006001600160a01b0316631411c5b76040518163ffffffff1660e01b815260040160206040518083038186803b1580156126f657600080fd5b505afa15801561270a573d6000803e3d6000fd5b505050506040513d601f19601f8201168201806040525081019061272e919061585e565b82101561274d5760405162461bcd60e51b81526004016109e89061595a565b612758858584614398565b50600180559392505050565b60006128067f00000000000000000000000000000000000000000000000000000000000000006001600160a01b031663e91675b86040518163ffffffff1660e01b815260040160206040518083038186803b1580156127c257600080fd5b505afa1580156127d6573d6000803e3d6000fd5b505050506040513d601f19601f820116820180604052508101906127fa91906159a3565b6004549060ff16613ddc565b9050600354811061281657506003545b60045442905b8281101561293957816128d17f00000000000000000000000000000000000000000000000000000000000000006001600160a01b031663da284dcc6040518163ffffffff1660e01b815260040160206040518083038186803b15801561288157600080fd5b505afa158015612895573d6000803e3d6000fd5b505050506040513d601f19601f820116820180604052508101906128b9919061585e565b60008481526002602052604090206004015490613ddc565b1015612927576000818152600260205260408120818155906128f66001830182614c35565b506002810180546001600160a01b0319169055600060038201819055600490910155612923816001613ddc565b6004555b80612931816158ac565b91505061281c565b505050565b60006129486135d7565b8361295257600080fd5b8261295c57600080fd5b61298860007f0000000000000000000000000000000000000000000000000000000000000000866135ee565b6129936000846136c4565b61299c82613a6e565b60005b8551811015612ae957612a648682815181106129bd576129bd6157ed565b602002602001015160a01c6001600160601b0316600f60007f00000000000000000000000000000000000000000000000000000000000000006001600160a01b03166001600160a01b031681526020019081526020016000206000898581518110612a2a57612a2a6157ed565b602002602001015160001c6001600160a01b03166001600160a01b0316815260200190815260200160002054613ddc90919063ffffffff16565b6001600160a01b037f0000000000000000000000000000000000000000000000000000000000000000166000908152600f602052604081208851909190899085908110612ab357612ab36157ed565b6020908102919091018101516001600160a01b031682528101919091526040016000205580612ae1816158ac565b91505061299f565b50600195945050505050565b6000612aff6135d7565b6000828152600a602052604090205460ff1615612b5e5760405162461bcd60e51b815260206004820152601860248201527f546865207478696420697320616c72656164792075736564000000000000000060448201526064016109e8565b604080518082019091526002815261189960f11b6020808301919091526000805260099052600080516020615e9883398151915254612b9e918590614524565b600080526009602052600080516020615e9883398151915255612bc082614550565b50600192915050565b60026001541415612bec5760405162461bcd60e51b81526004016109e8906157b6565b600260015534612dc2576001600160a01b03821673eeeeeeeeeeeeeeeeeeeeeeeeeeeeeeeeeeeeeeee1415612c2057600080fd5b7f00000000000000000000000000000000000000000000000000000000000000006001600160a01b0316826001600160a01b03161415612c5f57600080fd5b6040516370a0823160e01b81523060048201526000906001600160a01b038416906370a082319060240160206040518083038186803b158015612ca157600080fd5b505afa158015612cb5573d6000803e3d6000fd5b505050506040513d601f19601f82011682018060405250810190612cd9919061585e565b9050612cf06001600160a01b03841633308561456b565b6040516370a0823160e01b8152306004820152600090612d259083906001600160a01b038716906370a0823190602401610e91565b6001600160a01b0385166000908152600f60209081526040808320338452909152902054909150612d569082613ddc565b6001600160a01b0385166000908152600f602090815260408083203380855292529182902083905590517f4e2ca0515ed1aef1395f66b5303bb5d6f1bf9d61a353fa53f73f8ac9973fa9f692612db39288929091869142906158c7565b60405180910390a15050612f23565b60003411612dcf57600080fd5b7f00000000000000000000000000000000000000000000000000000000000000006001600160a01b031663d0e30db0346040518263ffffffff1660e01b81526004016000604051808303818588803b158015612e2a57600080fd5b505af1158015612e3e573d6000803e3d6000fd5b5050506001600160a01b037f0000000000000000000000000000000000000000000000000000000000000000166000908152600f60209081526040808320338452909152902054612e929250905034613ddc565b7f00000000000000000000000000000000000000000000000000000000000000006001600160a01b03166000908152600f602090815260408083203380855292529182902083905590517f4e2ca0515ed1aef1395f66b5303bb5d6f1bf9d61a353fa53f73f8ac9973fa9f6926115979273eeeeeeeeeeeeeeeeeeeeeeeeeeeeeeeeeeeeeeee929091349142906158c7565b505060018055565b6000612f356135d7565b6000612f3f61132a565b6001600160a01b03861660009081526005602052604090205490915060ff16612f8f5760405162461bcd60e51b8152602060048201526002602482015261189b60f11b60448201526064016109e8565b612f9a8585856145dc565b612fa357600080fd5b6001915080612fb061132a565b1015612ff25760405162461bcd60e51b8152602060048201526011602482015270496e76616c6964204c505420707269636560781b60448201526064016109e8565b509392505050565b60006002600154141561301f5760405162461bcd60e51b81526004016109e8906157b6565b6002600155600083838281613036576130366157ed565b905060200201602081019061304b919061538b565b90506000848461305c600182615819565b81811061306b5761306b6157ed565b9050602002016020810190613080919061538b565b6001600160a01b0383166000908152600f602090815260408083203384529091529020549091508711156130c65760405162461bcd60e51b81526004016109e890615830565b6001600160a01b03821673eeeeeeeeeeeeeeeeeeeeeeeeeeeeeeeeeeeeeeee141561312b5760405162461bcd60e51b815260206004820152601560248201527455736520706174682077455448202d3e207742544360581b60448201526064016109e8565b7f00000000000000000000000000000000000000000000000000000000000000006001600160a01b0316816001600160a01b03161461319b5760405162461bcd60e51b815260206004820152600c60248201526b1cddd85c080f4f88109510d560a21b60448201526064016109e8565b6040516370a0823160e01b81523060048201526000906001600160a01b038316906370a082319060240160206040518083038186803b1580156131dd57600080fd5b505afa1580156131f1573d6000803e3d6000fd5b505050506040513d601f19601f82011682018060405250810190613215919061585e565b6001600160a01b0384166000908152600f602090815260408083203384529091529020549091506132469089613bc8565b6001600160a01b0384166000908152600f602090815260408083203384529091529020558a156132835761327e8a8a8a8a8a8a613bdb565b61328f565b61328f88888888613d17565b6040516370a0823160e01b81523060048201526132c19082906001600160a01b038516906370a0823190602401610e91565b9350868410156133085760405162461bcd60e51b81526020600482015260126024820152715265636569766564203c206d696e696d756d60701b60448201526064016109e8565b7f00000000000000000000000000000000000000000000000000000000000000006001600160a01b0316631411c5b76040518163ffffffff1660e01b815260040160206040518083038186803b15801561336157600080fd5b505afa158015613375573d6000803e3d6000fd5b505050506040513d601f19601f82011682018060405250810190613399919061585e565b8410156133b85760405162461bcd60e51b81526004016109e89061595a565b6133c38d8d86614398565b505050600180559998505050505050505050565b60006133e16135d7565b7f000000000000000000000000000000000000000000000000000000000000000087156134fa57600061341888610ee18b8a613bc8565b6040516349e031a560e01b81529091506001600160a01b037f000000000000000000000000000000000000000000000000000000000000000016906349e031a59061346c906000908a908a906004016159c0565b602060405180830381600087803b15801561348657600080fd5b505af115801561349a573d6000803e3d6000fd5b505050506040513d601f19601f820116820180604052508101906134be9190615799565b506134f47f000000000000000000000000000000000000000000000000000000000000000060006134ef848c613ddc565b6135ee565b50613503565b87613503575060005b61350d81876136c4565b8215610bb657610bb6600080526009602052600080516020615e9883398151915254600855565b6001600160a01b039182166000908152600960205260408082205492909316815291909120549091565b6135666135d7565b6001600160a01b0381166135cb5760405162461bcd60e51b815260206004820152602660248201527f4f776e61626c653a206e6577206f776e657220697320746865207a65726f206160448201526564647265737360d01b60648201526084016109e8565b6135d481614348565b50565b6000546001600160a01b03163314611ce857600080fd5b6040805180820182526002815261313160f01b6020808301919091526001600160a01b03851660009081526009909152919091205461362e918390614524565b6001600160a01b03808416600090815260096020526040808220939093559085168152205461365d9082613ddc565b6001600160a01b038481166000818152600960209081526040918290209490945580519182529185169281019290925281018290527fea368a40e9570069bb8e6511d668293ad2e1f03b0d982431fd223de9f3b70ca69060600160405180910390a1505050565b806136cd575050565b7f00000000000000000000000000000000000000000000000000000000000000006001600160a01b0316826001600160a01b0316141561381e5760405163a9059cbb60e01b81526001600160a01b037f000000000000000000000000000000000000000000000000000000000000000081166004830152602482018390527f0000000000000000000000000000000000000000000000000000000000000000169063a9059cbb90604401602060405180830381600087803b15801561379157600080fd5b505af11580156137a5573d6000803e3d6000fd5b505050506040513d601f19601f820116820180604052508101906137c99190615799565b50604080516001600160a01b0384168152600060208201819052818301849052606082015290517fe3debe835f6848edc082b32a1d729781d3bfcd7e14422d80bcaa6794d3816b2f9181900360800190a15050565b600061382861132a565b6001600160a01b03841660009081526009602052604090205490915061384e9083613ddc565b60096000856001600160a01b03166001600160a01b0316815260200190815260200160002081905550600061391c60646114317f00000000000000000000000000000000000000000000000000000000000000006001600160a01b0316630b68134d6040518163ffffffff1660e01b815260040160206040518083038186803b1580156138da57600080fd5b505afa1580156138ee573d6000803e3d6000fd5b505050506040513d601f19601f8201168201806040525081019061391291906159a3565b869060ff1661420d565b9050600061394e83611431847f000000000000000000000000000000000000000000000000000000000000000061420d565b6040516340c10f1960e01b81526001600160a01b037f000000000000000000000000000000000000000000000000000000000000000081166004830152602482018390529192507f0000000000000000000000000000000000000000000000000000000000000000909116906340c10f1990604401602060405180830381600087803b1580156139dd57600080fd5b505af11580156139f1573d6000803e3d6000fd5b505050506040513d601f19601f82011682018060405250810190613a159190615799565b50604080516001600160a01b038716815260208101869052908101829052606081018490527fe3debe835f6848edc082b32a1d729781d3bfcd7e14422d80bcaa6794d3816b2f9060800160405180910390a15050505050565b60005b8151811015613ad2576001600a6000848481518110613a9257613a926157ed565b6020026020010151815260200190815260200160002060006101000a81548160ff0219169083151502179055508080613aca906158ac565b915050613a71565b5050565b7f00000000000000000000000000000000000000000000000000000000000000006001600160a01b0316836001600160a01b03161415613b3d57613b3a817f000000000000000000000000000000000000000000000000000000000000000061420d565b90505b60405163a9059cbb60e01b81526001600160a01b0383811660048301526024820183905284169063a9059cbb90604401602060405180830381600087803b158015613b8757600080fd5b505af1158015613b9b573d6000803e3d6000fd5b505050506040513d601f19601f82011682018060405250810190613bbf9190615799565b61293957600080fd5b6000613bd48284615819565b9392505050565b613c9c73def171fe48cf0115b1d80b88dc8eab59176fee576001600160a01b031663d2c4b5986040518163ffffffff1660e01b815260040160206040518083038186803b158015613c2b57600080fd5b505afa158015613c3f573d6000803e3d6000fd5b505050506040513d601f19601f82011682018060405250810190613c639190615a18565b8584846000818110613c7757613c776157ed565b9050602002016020810190613c8c919061538b565b6001600160a01b03169190614852565b604051633d59840d60e21b815273def171fe48cf0115b1d80b88dc8eab59176fee579063f566103490613cdd90899089908990899089908990600401615a73565b600060405180830381600087803b158015613cf757600080fd5b505af1158015613d0b573d6000803e3d6000fd5b50505050505050505050565b613d6773def171fe48cf0115b1d80b88dc8eab59176fee576001600160a01b031663d2c4b5986040518163ffffffff1660e01b815260040160206040518083038186803b158015613c2b57600080fd5b604051632a42068d60e11b815273def171fe48cf0115b1d80b88dc8eab59176fee57906354840d1a90613da4908790879087908790600401615ab3565b600060405180830381600087803b158015613dbe57600080fd5b505af1158015613dd2573d6000803e3d6000fd5b5050505050505050565b6000613bd48284615add565b6000818152600a602052604081205460ff1615613e2c5760405162461bcd60e51b8152602060048201526002602482015261181b60f11b60448201526064016109e8565b83613e5e5760405162461bcd60e51b8152602060048201526002602482015261303760f01b60448201526064016109e8565b8360a081901c6000613e6e61132a565b90506000613ea07f0000000000000000000000000000000000000000000000000000000000000000611431858561420d565b90506000613f486127106114317f00000000000000000000000000000000000000000000000000000000000000006001600160a01b031663b6268e5d6040518163ffffffff1660e01b815260040160206040518083038186803b158015613f0657600080fd5b505afa158015613f1a573d6000803e3d6000fd5b505050506040513d601f19601f82011682018060405250810190613f3e91906159a3565b859060ff1661420d565b905087613f558383613bc8565b1015613f885760405162461bcd60e51b8152602060048201526002602482015261303960f01b60448201526064016109e8565b6000613f9889610ee18585613bc8565b9050600080613fc860007f0000000000000000000000000000000000000000000000000000000000000000613534565b90925090506001600160a01b038d1661401e57613fe58585613bc8565b8210156140195760405162461bcd60e51b8152602060048201526002602482015261060760f31b60448201526064016109e8565b614096565b7f00000000000000000000000000000000000000000000000000000000000000006001600160a01b03168d6001600160a01b03161415614096576140628585613bc8565b8110156140965760405162461bcd60e51b8152602060048201526002602482015261189960f11b60448201526064016109e8565b6140a08d856136c4565b6140aa8d86614913565b6140b38a614550565b7f00000000000000000000000000000000000000000000000000000000000000006001600160a01b03168d6001600160a01b031614156140f8576140f88d8985613ad6565b604051630852cd8d60e31b8152600481018890527f00000000000000000000000000000000000000000000000000000000000000006001600160a01b0316906342966c6890602401602060405180830381600087803b15801561415a57600080fd5b505af115801561416e573d6000803e3d6000fd5b505050506040513d601f19601f820116820180604052508101906141929190615799565b61419b57600080fd5b604080516001600160a01b038a16815260208101899052908101869052606081018790526080810184905260a081018b90527fa9da34e5e4a956b744307ae7611795634e8365951073bf049d76b64b2ae7a0589060c00160405180910390a15060019c9b505050505050505050505050565b6000613bd48284615af5565b6000613bd48284615b14565b6142bf73def171fe48cf0115b1d80b88dc8eab59176fee576001600160a01b031663d2c4b5986040518163ffffffff1660e01b815260040160206040518083038186803b15801561427557600080fd5b505afa158015614289573d6000803e3d6000fd5b505050506040513d601f19601f820116820180604052508101906142ad9190615a18565b6040830135613c8c602085018561538b565b6040516354e3f31b60e01b815273def171fe48cf0115b1d80b88dc8eab59176fee57906354e3f31b906142f6908490600401615c3a565b602060405180830381600087803b15801561431057600080fd5b505af1158015614324573d6000803e3d6000fd5b505050506040513d601f19601f82011682018060405250810190613ad2919061585e565b600080546001600160a01b038381166001600160a01b0319831681178455604051919092169283917f8be0079c531659141344cd1fd0a4f28419497f9722a3daafe3b4186f6b6457e09190a35050565b60007f0000000000000000000000000000000000000000000000000000000000000000600354858585426040516020016143d796959493929190615df0565b6040516020818303038152906040528051906020012090506040518060a0016040528082815260200185858080601f01602080910402602001604051908101604052809392919081815260200183838082843760009201829052509385525050336020808501919091526040808501889052426060909501949094526003548352600281529290912083518155838301518051919361447e93506001850192910190614c6f565b5060408201516002820180546001600160a01b0319166001600160a01b03909216919091179055606082015160038201556080909101516004909101556144c3612764565b6003546144d1906001613ddc565b6003556144dd82614973565b7faaa4c278970337923c885845b00985ecf5082317e2f9abf72a27b4d35255d67281858533864260405161451696959493929190615e27565b60405180910390a150505050565b600081848411156145485760405162461bcd60e51b81526004016109e89190615e68565b505050900390565b6000908152600a60205260409020805460ff19166001179055565b6040516001600160a01b03808516602483015283166044820152606481018290526145d69085906323b872dd60e01b906084015b60408051601f198184030181529190526020810180516001600160e01b03166001600160e01b0319909316929092179091526149c8565b50505050565b6000818152600a602052604081205460ff16156146205760405162461bcd60e51b8152602060048201526002602482015261181b60f11b60448201526064016109e8565b826146525760405162461bcd60e51b8152602060048201526002602482015261303760f01b60448201526064016109e8565b8260a081901c600061466261132a565b9050600061469482611431857f000000000000000000000000000000000000000000000000000000000000000061420d565b6040516340c10f1960e01b81526001600160a01b038681166004830152602482018390529192507f0000000000000000000000000000000000000000000000000000000000000000909116906340c10f1990604401602060405180830381600087803b15801561470357600080fd5b505af1158015614717573d6000803e3d6000fd5b505050506040513d601f19601f8201168201806040525081019061473b9190615799565b506147468884614a9a565b61474f86614550565b7fdfaf4e23f7030adafec91a682e05bf9fb30c721f9cec3d8bcfae0459c5362db1848483857f00000000000000000000000000000000000000000000000000000000000000006001600160a01b031663424192556040518163ffffffff1660e01b815260040160206040518083038186803b1580156147cd57600080fd5b505afa1580156147e1573d6000803e3d6000fd5b505050506040513d601f19601f8201168201806040525081019061480591906159a3565b604080516001600160a01b039096168652602086019490945292840191909152606083015260ff16608082015260a0810188905260c00160405180910390a1506001979650505050505050565b604051636eb1769f60e11b81523060048201526001600160a01b038381166024830152600091839186169063dd62ed3e9060440160206040518083038186803b15801561489e57600080fd5b505afa1580156148b2573d6000803e3d6000fd5b505050506040513d601f19601f820116820180604052508101906148d6919061585e565b6148e09190615add565b6040516001600160a01b0385166024820152604481018290529091506145d690859063095ea7b360e01b9060640161459f565b6040805180820182526002815261031360f41b6020808301919091526001600160a01b038516600090815260099091529190912054614953918390614524565b6001600160a01b0390921660009081526009602052604090209190915550565b60085461499b5761499b600080526009602052600080516020615e9883398151915254600855565b604080518082019091526002815261189960f11b60208201526008546149c2918390614524565b60085550565b6000614a1d826040518060400160405280602081526020017f5361666545524332303a206c6f772d6c6576656c2063616c6c206661696c6564815250856001600160a01b0316614abd9092919063ffffffff16565b8051909150156129395780806020019051810190614a3b9190615799565b6129395760405162461bcd60e51b815260206004820152602a60248201527f5361666545524332303a204552433230206f7065726174696f6e20646964206e6044820152691bdd081cdd58d8d9595960b21b60648201526084016109e8565b6001600160a01b0382166000908152600960205260409020546149539082613ddc565b6060614acc8484600085614ad4565b949350505050565b606082471015614b355760405162461bcd60e51b815260206004820152602660248201527f416464726573733a20696e73756666696369656e742062616c616e636520666f6044820152651c8818d85b1b60d21b60648201526084016109e8565b843b614b835760405162461bcd60e51b815260206004820152601d60248201527f416464726573733a2063616c6c20746f206e6f6e2d636f6e747261637400000060448201526064016109e8565b600080866001600160a01b03168587604051614b9f9190615e7b565b60006040518083038185875af1925050503d8060008114614bdc576040519150601f19603f3d011682016040523d82523d6000602084013e614be1565b606091505b5091509150614bf1828286614bfc565b979650505050505050565b60608315614c0b575081613bd4565b825115614c1b5782518084602001fd5b8160405162461bcd60e51b81526004016109e89190615e68565b508054614c4190615877565b6000825580601f10614c51575050565b601f0160209004906000526020600020908101906135d49190614cf3565b828054614c7b90615877565b90600052602060002090601f016020900481019282614c9d5760008555614ce3565b82601f10614cb657805160ff1916838001178555614ce3565b82800160010185558215614ce3579182015b82811115614ce3578251825591602001919060010190614cc8565b50614cef929150614cf3565b5090565b5b80821115614cef5760008155600101614cf4565b634e487b7160e01b600052600160045260246000fd5b6001600160a01b03811681146135d457600080fd5b8035614d3e81614d1e565b919050565b634e487b7160e01b600052604160045260246000fd5b604051601f8201601f191681016001600160401b0381118282101715614d8157614d81614d43565b604052919050565b60006001600160401b03821115614da257614da2614d43565b5060051b60200190565b600082601f830112614dbd57600080fd5b81356020614dd2614dcd83614d89565b614d59565b82815260059290921b84018101918181019086841115614df157600080fd5b8286015b84811015614e0c5780358352918301918301614df5565b509695505050505050565b60008060008060008060c08789031215614e3057600080fd5b8635614e3b81614d1e565b95506020870135614e4b81614d1e565b945060408701359350606087013592506080870135915060a08701356001600160401b03811115614e7b57600080fd5b614e8789828a01614dac565b9150509295509295509295565b80151581146135d457600080fd5b8035614d3e81614e94565b60008083601f840112614ebf57600080fd5b5081356001600160401b03811115614ed657600080fd5b6020830191508360208260051b8501011115614ef157600080fd5b9250929050565b600080600080600080600060c0888a031215614f1357600080fd5b8735614f1e81614e94565b96506020880135614f2e81614d1e565b955060408801359450606088013593506080880135925060a08801356001600160401b03811115614f5e57600080fd5b614f6a8a828b01614ead565b989b979a50959850939692959293505050565b600060208284031215614f8f57600080fd5b5035919050565b60005b83811015614fb1578181015183820152602001614f99565b838111156145d65750506000910152565b60008151808452614fda816020860160208601614f96565b601f01601f19169290920160200192915050565b85815260a06020820152600061500760a0830187614fc2565b6001600160a01b0395909516604083015250606081019290925260809091015292915050565b60006020808301818452808551808352604092508286019150828160051b87010184880160005b838110156150bd57603f19898403018552815160a08151855288820151818a87015261508282870182614fc2565b838a01516001600160a01b0316878b015260608085015190880152608093840151939096019290925250509386019390860190600101615054565b509098975050505050505050565b600080600080608085870312156150e157600080fd5b84356150ec81614d1e565b966020860135965060408601359560600135945092505050565b6000806040838503121561511957600080fd5b823561512481614d1e565b946020939093013593505050565b6000806040838503121561514557600080fd5b823561515081614d1e565b9150602083013561516081614d1e565b809150509250929050565b60006101e0828403121561517e57600080fd5b50919050565b60006020828403121561519657600080fd5b81356001600160401b038111156151ac57600080fd5b614acc8482850161516b565b600082601f8301126151c957600080fd5b813560206151d9614dcd83614d89565b82815260059290921b840181019181810190868411156151f857600080fd5b8286015b84811015614e0c57803561520f81614d1e565b83529183019183016151fc565b60ff811681146135d457600080fd5b8035614d3e8161521c565b60008060008060008060c0878903121561524f57600080fd5b863561525a81614d1e565b95506020878101356001600160401b038082111561527757600080fd5b6152838b838c016151b8565b975060408a013591508082111561529957600080fd5b508801601f81018a136152ab57600080fd5b80356152b9614dcd82614d89565b81815260059190911b8201830190838101908c8311156152d857600080fd5b928401925b828410156152ff5783356152f081614e94565b825292840192908401906152dd565b80985050505050506153136060880161522b565b92506153216080880161522b565b915060a087013590509295509295509295565b600081518084526020808501945080840160005b8381101561536d5781516001600160a01b031687529582019590820190600101615348565b509495945050505050565b602081526000613bd46020830184615334565b60006020828403121561539d57600080fd5b8135613bd481614d1e565b600080600080600060a086880312156153c057600080fd5b85356153cb81614d1e565b945060208601356001600160401b03808211156153e757600080fd5b6153f389838a01614dac565b95506040880135945060608801359350608088013591508082111561541757600080fd5b5061542488828901614dac565b9150509295509295909350565b6000806000806080858703121561544757600080fd5b843561545281614d1e565b9350602085013592506040850135915060608501356001600160401b0381111561547b57600080fd5b61548787828801614dac565b91505092959194509250565b60008083601f8401126154a557600080fd5b5081356001600160401b038111156154bc57600080fd5b602083019150836020828501011115614ef157600080fd5b6000806000604084860312156154e957600080fd5b83356001600160401b038082111561550057600080fd5b61550c87838801615493565b9095509350602086013591508082111561552557600080fd5b506155328682870161516b565b9150509250925092565b6000806000806080858703121561555257600080fd5b84356001600160401b038082111561556957600080fd5b61557588838901614dac565b95506020870135945060408701359350606087013591508082111561559957600080fd5b5061548787828801614dac565b600080604083850312156155b957600080fd5b50508035926020909101359150565b6000806000606084860312156155dd57600080fd5b83356155e881614d1e565b95602085013595506040909401359392505050565b600080600080600080600080600060e08a8c03121561561b57600080fd5b89356001600160401b038082111561563257600080fd5b61563e8d838e01615493565b909b50995060208c0135915061565382614e94565b90975060408b01359061566582614d1e565b90965060608b0135955060808b0135945060a08b0135935060c08b0135908082111561569057600080fd5b5061569d8c828d01614ead565b915080935050809150509295985092959850929598565b60008060008060008060c087890312156156cd57600080fd5b8635955060208088013595506040880135945060608801356001600160401b03808211156156fa57600080fd5b6157068b838c016151b8565b955060808a013591508082111561571c57600080fd5b508801601f81018a1361572e57600080fd5b803561573c614dcd82614d89565b81815260059190911b8201830190838101908c83111561575b57600080fd5b928401925b8284101561577957833582529284019290840190615760565b809650505050505061578d60a08801614ea2565b90509295509295509295565b6000602082840312156157ab57600080fd5b8151613bd481614e94565b6020808252601f908201527f5265656e7472616e637947756172643a207265656e7472616e742063616c6c00604082015260600190565b634e487b7160e01b600052603260045260246000fd5b634e487b7160e01b600052601160045260246000fd5b60008282101561582b5761582b615803565b500390565b60208082526014908201527310985b185b98d9481a5b9cdd59999a58da595b9d60621b604082015260600190565b60006020828403121561587057600080fd5b5051919050565b600181811c9082168061588b57607f821691505b6020821081141561517e57634e487b7160e01b600052602260045260246000fd5b60006000198214156158c0576158c0615803565b5060010190565b6001600160a01b03958616815293909416602084015260408301919091526060820152608081019190915260a00190565b600060ff821660ff84168060ff0382111561591557615915615803565b019392505050565b600060ff821660ff81141561593457615934615803565b60010192915050565b600060ff82168061595057615950615803565b6000190192915050565b60208082526029908201527f7265636569766564416d6f756e74203c206d696e696d756d53776170416d6f756040820152686e74466f725742544360b81b606082015260800190565b6000602082840312156159b557600080fd5b8151613bd48161521c565b6001600160a01b0384168152606060208083018290526000916159e590840186615334565b838103604085015284518082528286019183019060005b818110156150bd578351835292840192918401916001016159fc565b600060208284031215615a2a57600080fd5b8151613bd481614d1e565b8183526000602080850194508260005b8581101561536d578135615a5881614d1e565b6001600160a01b031687529582019590820190600101615a45565b60018060a01b038716815285602082015284604082015283606082015260a060808201526000615aa760a083018486615a35565b98975050505050505050565b848152836020820152606060408201526000615ad3606083018486615a35565b9695505050505050565b60008219821115615af057615af0615803565b500190565b6000816000190483118215151615615b0f57615b0f615803565b500290565b600082615b3157634e487b7160e01b600052601260045260246000fd5b500490565b6000808335601e19843603018112615b4d57600080fd5b83016020810192503590506001600160401b03811115615b6c57600080fd5b8060051b3603831315614ef157600080fd5b6000808335601e19843603018112615b9557600080fd5b83016020810192503590506001600160401b03811115615bb457600080fd5b803603831315614ef157600080fd5b81835281816020850137506000828201602090810191909152601f909101601f19169091010190565b81835260006001600160fb1b03831115615c0557600080fd5b8260051b8083602087013760009401602001938452509192915050565b80356001600160801b031981168114614d3e57600080fd5b60208152615c5b60208201615c4e84614d33565b6001600160a01b03169052565b6000615c6960208401614d33565b6001600160a01b0381166040840152506040830135606083015260608301356080830152608083013560a0830152615ca460a0840184615b36565b6101e08060c0860152615cbc61020086018385615a35565b9250615ccb60c0870187615b7e565b9250601f19808786030160e0880152615ce5858584615bc3565b9450615cf460e0890189615b36565b94509150610100818887030181890152615d0f868685615bec565b9550615d1d818a018a615b36565b9550925050610120818887030181890152615d39868685615bec565b9550615d46818a01614d33565b9450506101409150615d62828801856001600160a01b03169052565b615d6d828901614d33565b93506101609150615d88828801856001600160a01b03169052565b61018093508188013584880152615da184890189615b7e565b945091506101a0818887030181890152615dbc868685615bc3565b95506101c094508089013585890152505050615dd9828701615c22565b6001600160801b0319169401939093529392505050565b6001600160601b03198760601b16815285601482015283856034830137603493019283019190915260548201526074019392505050565b86815260a060208201526000615e4160a083018789615bc3565b6001600160a01b039590951660408301525060608101929092526080909101529392505050565b602081526000613bd46020830184614fc2565b60008251615e8d818460208701614f96565b919091019291505056feec8156718a8372b1db44bb411437d0870f3e3790d4a08526d024ce1b0b668f6ba264697066735822122050c5b471a18f34cba5681bf4f19fc50c8188ee435ded50b1977defdf83760fab64736f6c63430008090033",
  "linkReferences": {},
  "deployedLinkReferences": {}
}