{
  "_format": "hh-sol-artifact-1",
  "contractName": "SwapContract",
  "sourceName": "contracts/SwapContract.sol",
  "abi": [
    {
      "inputs": [
        {
          "internalType": "address",
          "name": "_lpToken",
          "type": "address"
        },
        {
          "internalType": "address",
          "name": "_btct",
          "type": "address"
        },
        {
          "internalType": "address",
          "name": "_wETH",
          "type": "address"
        },
        {
          "internalType": "uint256",
          "name": "_existingBTCFloat",
          "type": "uint256"
        }
      ],
      "stateMutability": "nonpayable",
      "type": "constructor"
    },
    {
      "anonymous": false,
      "inputs": [
        {
          "indexed": false,
          "internalType": "address",
          "name": "token",
          "type": "address"
        },
        {
          "indexed": false,
          "internalType": "uint256",
          "name": "amountOfLP",
          "type": "uint256"
        },
        {
          "indexed": false,
          "internalType": "uint256",
          "name": "amountOfFloat",
          "type": "uint256"
        },
        {
          "indexed": false,
          "internalType": "uint256",
          "name": "currentPriceLP",
          "type": "uint256"
        },
        {
          "indexed": false,
          "internalType": "uint256",
          "name": "withdrawal",
          "type": "uint256"
        },
        {
          "indexed": false,
          "internalType": "bytes32",
          "name": "txid",
          "type": "bytes32"
        }
      ],
      "name": "BurnLPTokensForFloat",
      "type": "event"
    },
    {
      "anonymous": false,
      "inputs": [
        {
          "indexed": false,
          "internalType": "address",
          "name": "token",
          "type": "address"
        },
        {
          "indexed": false,
          "internalType": "address",
          "name": "user",
          "type": "address"
        },
        {
          "indexed": false,
          "internalType": "uint256",
          "name": "amount",
          "type": "uint256"
        },
        {
          "indexed": false,
          "internalType": "uint256",
          "name": "balance",
          "type": "uint256"
        },
        {
          "indexed": false,
          "internalType": "uint256",
          "name": "Timestamp",
          "type": "uint256"
        }
      ],
      "name": "Deposit",
      "type": "event"
    },
    {
      "anonymous": false,
      "inputs": [
        {
          "indexed": false,
          "internalType": "uint256",
          "name": "rewardLPTsForNodes",
          "type": "uint256"
        }
      ],
      "name": "DistributeNodeRewards",
      "type": "event"
    },
    {
      "anonymous": false,
      "inputs": [
        {
          "indexed": false,
          "internalType": "address",
          "name": "to",
          "type": "address"
        },
        {
          "indexed": false,
          "internalType": "uint256",
          "name": "amountOfFloat",
          "type": "uint256"
        },
        {
          "indexed": false,
          "internalType": "uint256",
          "name": "amountOfLP",
          "type": "uint256"
        },
        {
          "indexed": false,
          "internalType": "uint256",
          "name": "currentPriceLP",
          "type": "uint256"
        },
        {
          "indexed": false,
          "internalType": "uint256",
          "name": "depositFees",
          "type": "uint256"
        },
        {
          "indexed": false,
          "internalType": "bytes32",
          "name": "txid",
          "type": "bytes32"
        }
      ],
      "name": "IssueLPTokensForFloat",
      "type": "event"
    },
    {
      "anonymous": false,
      "inputs": [
        {
          "indexed": true,
          "internalType": "address",
          "name": "previousOwner",
          "type": "address"
        },
        {
          "indexed": true,
          "internalType": "address",
          "name": "newOwner",
          "type": "address"
        }
      ],
      "name": "OwnershipTransferred",
      "type": "event"
    },
    {
      "anonymous": false,
      "inputs": [
        {
          "indexed": false,
          "internalType": "address",
          "name": "feesToken",
          "type": "address"
        },
        {
          "indexed": false,
          "internalType": "uint256",
          "name": "rewards",
          "type": "uint256"
        },
        {
          "indexed": false,
          "internalType": "uint256",
          "name": "amountLPTokensForNode",
          "type": "uint256"
        },
        {
          "indexed": false,
          "internalType": "uint256",
          "name": "currentPriceLP",
          "type": "uint256"
        }
      ],
      "name": "RewardsCollection",
      "type": "event"
    },
    {
      "anonymous": false,
      "inputs": [
        {
          "indexed": false,
          "internalType": "uint256",
          "name": "ExpirationTime",
          "type": "uint256"
        },
        {
          "indexed": false,
          "internalType": "uint256",
          "name": "Timestamp",
          "type": "uint256"
        }
      ],
      "name": "SetExpirationTime",
      "type": "event"
    },
    {
      "anonymous": false,
      "inputs": [
        {
          "indexed": false,
          "internalType": "address",
          "name": "from",
          "type": "address"
        },
        {
          "indexed": false,
          "internalType": "address",
          "name": "to",
          "type": "address"
        },
        {
          "indexed": false,
          "internalType": "uint256",
          "name": "amount",
          "type": "uint256"
        }
      ],
      "name": "Swap",
      "type": "event"
    },
    {
      "anonymous": false,
      "inputs": [
        {
          "indexed": false,
          "internalType": "bytes32",
          "name": "SwapID",
          "type": "bytes32"
        },
        {
          "indexed": false,
          "internalType": "bytes32",
          "name": "DestAddr",
          "type": "bytes32"
        },
        {
          "indexed": false,
          "internalType": "address",
          "name": "RefundAddr",
          "type": "address"
        },
        {
          "indexed": false,
          "internalType": "uint256",
          "name": "AmountWBTC",
          "type": "uint256"
        },
        {
          "indexed": false,
          "internalType": "uint256",
          "name": "Timestamp",
          "type": "uint256"
        }
      ],
      "name": "SwapTokensToBTC",
      "type": "event"
    },
    {
      "anonymous": false,
      "inputs": [
        {
          "indexed": false,
          "internalType": "address",
          "name": "token",
          "type": "address"
        },
        {
          "indexed": false,
          "internalType": "address",
          "name": "user",
          "type": "address"
        },
        {
          "indexed": false,
          "internalType": "uint256",
          "name": "amount",
          "type": "uint256"
        },
        {
          "indexed": false,
          "internalType": "uint256",
          "name": "balance",
          "type": "uint256"
        },
        {
          "indexed": false,
          "internalType": "uint256",
          "name": "Timestamp",
          "type": "uint256"
        }
      ],
      "name": "Withdraw",
      "type": "event"
    },
    {
      "stateMutability": "nonpayable",
      "type": "fallback"
    },
    {
      "inputs": [],
      "name": "BTCT_ADDR",
      "outputs": [
        {
          "internalType": "address",
          "name": "",
          "type": "address"
        }
      ],
      "stateMutability": "view",
      "type": "function"
    },
    {
      "inputs": [
        {
          "internalType": "address",
          "name": "_token",
          "type": "address"
        },
        {
          "internalType": "address",
          "name": "_user",
          "type": "address"
        }
      ],
      "name": "balanceOf",
      "outputs": [
        {
          "internalType": "uint256",
          "name": "",
          "type": "uint256"
        }
      ],
      "stateMutability": "view",
      "type": "function"
    },
    {
      "inputs": [
        {
          "internalType": "address",
          "name": "_newOwner",
          "type": "address"
        },
        {
          "internalType": "bytes32[]",
          "name": "_rewardAddressAndAmounts",
          "type": "bytes32[]"
        },
        {
          "internalType": "bool[]",
          "name": "_isRemoved",
          "type": "bool[]"
        },
        {
          "internalType": "uint8",
          "name": "_churnedInCount",
          "type": "uint8"
        },
        {
          "internalType": "uint8",
          "name": "_tssThreshold",
          "type": "uint8"
        },
        {
          "internalType": "uint8",
          "name": "_nodeRewardsRatio",
          "type": "uint8"
        },
        {
          "internalType": "uint8",
          "name": "_withdrawalFeeBPS",
          "type": "uint8"
        },
        {
          "internalType": "uint256",
          "name": "_expirationTime",
          "type": "uint256"
        }
      ],
      "name": "churn",
      "outputs": [
        {
          "internalType": "bool",
          "name": "",
          "type": "bool"
        }
      ],
      "stateMutability": "nonpayable",
      "type": "function"
    },
    {
      "inputs": [],
      "name": "churnedInCount",
      "outputs": [
        {
          "internalType": "uint8",
          "name": "",
          "type": "uint8"
        }
      ],
      "stateMutability": "view",
      "type": "function"
    },
    {
      "inputs": [
        {
          "internalType": "address",
          "name": "_destToken",
          "type": "address"
        },
        {
          "internalType": "uint256",
          "name": "_incomingAmount",
          "type": "uint256"
        },
        {
          "internalType": "uint256",
          "name": "_minerFee",
          "type": "uint256"
        },
        {
          "internalType": "uint256",
          "name": "_rewardsAmount",
          "type": "uint256"
        }
      ],
      "name": "collectSwapFeesForBTC",
      "outputs": [
        {
          "internalType": "bool",
          "name": "",
          "type": "bool"
        }
      ],
      "stateMutability": "nonpayable",
      "type": "function"
    },
    {
      "inputs": [],
      "name": "depositFeesBPS",
      "outputs": [
        {
          "internalType": "uint8",
          "name": "",
          "type": "uint8"
        }
      ],
      "stateMutability": "view",
      "type": "function"
    },
    {
      "inputs": [],
      "name": "distributeNodeRewards",
      "outputs": [
        {
          "internalType": "bool",
          "name": "",
          "type": "bool"
        }
      ],
      "stateMutability": "nonpayable",
      "type": "function"
    },
    {
      "inputs": [],
      "name": "expirationTime",
      "outputs": [
        {
          "internalType": "uint256",
          "name": "",
          "type": "uint256"
        }
      ],
      "stateMutability": "view",
      "type": "function"
    },
    {
      "inputs": [],
      "name": "feesLPTokensForNode",
      "outputs": [
        {
          "internalType": "uint256",
          "name": "",
          "type": "uint256"
        }
      ],
      "stateMutability": "view",
      "type": "function"
    },
    {
      "inputs": [],
      "name": "getActiveNodes",
      "outputs": [
        {
          "internalType": "bytes32[]",
          "name": "",
          "type": "bytes32[]"
        }
      ],
      "stateMutability": "view",
      "type": "function"
    },
    {
      "inputs": [],
      "name": "getCurrentPriceLP",
      "outputs": [
        {
          "internalType": "uint256",
          "name": "nowPrice",
          "type": "uint256"
        }
      ],
      "stateMutability": "view",
      "type": "function"
    },
    {
      "inputs": [
        {
          "internalType": "address",
          "name": "_token",
          "type": "address"
        },
        {
          "internalType": "uint256",
          "name": "_amountOfFloat",
          "type": "uint256"
        }
      ],
      "name": "getDepositFeeRate",
      "outputs": [
        {
          "internalType": "uint256",
          "name": "depositFeeRate",
          "type": "uint256"
        }
      ],
      "stateMutability": "view",
      "type": "function"
    },
    {
      "inputs": [
        {
          "internalType": "address",
          "name": "_tokenA",
          "type": "address"
        },
        {
          "internalType": "address",
          "name": "_tokenB",
          "type": "address"
        }
      ],
      "name": "getFloatReserve",
      "outputs": [
        {
          "internalType": "uint256",
          "name": "reserveA",
          "type": "uint256"
        },
        {
          "internalType": "uint256",
          "name": "reserveB",
          "type": "uint256"
        }
      ],
      "stateMutability": "view",
      "type": "function"
    },
    {
      "inputs": [],
      "name": "initialExchangeRate",
      "outputs": [
        {
          "internalType": "uint256",
          "name": "",
          "type": "uint256"
        }
      ],
      "stateMutability": "view",
      "type": "function"
    },
    {
      "inputs": [
        {
          "internalType": "bytes32",
          "name": "_txid",
          "type": "bytes32"
        }
      ],
      "name": "isTxUsed",
      "outputs": [
        {
          "internalType": "bool",
          "name": "",
          "type": "bool"
        }
      ],
      "stateMutability": "view",
      "type": "function"
    },
    {
      "inputs": [],
      "name": "latestRemovedIndex",
      "outputs": [
        {
          "internalType": "uint256",
          "name": "",
          "type": "uint256"
        }
      ],
      "stateMutability": "view",
      "type": "function"
    },
    {
      "inputs": [],
      "name": "lockedLPTokensForNode",
      "outputs": [
        {
          "internalType": "uint256",
          "name": "",
          "type": "uint256"
        }
      ],
      "stateMutability": "view",
      "type": "function"
    },
    {
      "inputs": [],
      "name": "lpToken",
      "outputs": [
        {
          "internalType": "address",
          "name": "",
          "type": "address"
        }
      ],
      "stateMutability": "view",
      "type": "function"
    },
    {
      "inputs": [
        {
          "internalType": "address",
          "name": "_destToken",
          "type": "address"
        },
        {
          "internalType": "bytes32[]",
          "name": "_addressesAndAmounts",
          "type": "bytes32[]"
        },
        {
          "internalType": "uint256",
          "name": "_totalSwapped",
          "type": "uint256"
        },
        {
          "internalType": "uint256",
          "name": "_rewardsAmount",
          "type": "uint256"
        },
        {
          "internalType": "bytes32[]",
          "name": "_redeemedFloatTxIds",
          "type": "bytes32[]"
        }
      ],
      "name": "multiTransferERC20TightlyPacked",
      "outputs": [
        {
          "internalType": "bool",
          "name": "",
          "type": "bool"
        }
      ],
      "stateMutability": "nonpayable",
      "type": "function"
    },
    {
      "inputs": [],
      "name": "nodeRewardsRatio",
      "outputs": [
        {
          "internalType": "uint8",
          "name": "",
          "type": "uint8"
        }
      ],
      "stateMutability": "view",
      "type": "function"
    },
    {
      "inputs": [],
      "name": "owner",
      "outputs": [
        {
          "internalType": "address",
          "name": "",
          "type": "address"
        }
      ],
      "stateMutability": "view",
      "type": "function"
    },
    {
      "inputs": [
        {
          "internalType": "address",
          "name": "_token",
          "type": "address"
        },
        {
          "internalType": "bytes32",
          "name": "_addressesAndAmountOfFloat",
          "type": "bytes32"
        },
        {
          "internalType": "bool",
          "name": "_zerofee",
          "type": "bool"
        },
        {
          "internalType": "bytes32",
          "name": "_txid",
          "type": "bytes32"
        }
      ],
      "name": "recordIncomingFloat",
      "outputs": [
        {
          "internalType": "bool",
          "name": "",
          "type": "bool"
        }
      ],
      "stateMutability": "nonpayable",
      "type": "function"
    },
    {
      "inputs": [
        {
          "internalType": "address",
          "name": "_token",
          "type": "address"
        },
        {
          "internalType": "bytes32",
          "name": "_addressesAndAmountOfLPtoken",
          "type": "bytes32"
        },
        {
          "internalType": "uint256",
          "name": "_minerFee",
          "type": "uint256"
        },
        {
          "internalType": "bytes32",
          "name": "_txid",
          "type": "bytes32"
        }
      ],
      "name": "recordOutcomingFloat",
      "outputs": [
        {
          "internalType": "bool",
          "name": "",
          "type": "bool"
        }
      ],
      "stateMutability": "nonpayable",
      "type": "function"
    },
    {
      "inputs": [
        {
          "internalType": "address",
          "name": "_to",
          "type": "address"
        },
        {
          "internalType": "uint256",
          "name": "_totalSwapped",
          "type": "uint256"
        },
        {
          "internalType": "uint256",
          "name": "_rewardsAmount",
          "type": "uint256"
        },
        {
          "internalType": "bytes32[]",
          "name": "_usedTxIds",
          "type": "bytes32[]"
        }
      ],
      "name": "recordSkyPoolsTX",
      "outputs": [
        {
          "internalType": "bool",
          "name": "",
          "type": "bool"
        }
      ],
      "stateMutability": "nonpayable",
      "type": "function"
    },
    {
      "inputs": [
        {
          "internalType": "uint256",
          "name": "_minerFee",
          "type": "uint256"
        },
        {
          "internalType": "bytes32",
          "name": "_txid",
          "type": "bytes32"
        }
      ],
      "name": "recordUTXOSweepMinerFee",
      "outputs": [
        {
          "internalType": "bool",
          "name": "",
          "type": "bool"
        }
      ],
      "stateMutability": "nonpayable",
      "type": "function"
    },
    {
      "inputs": [
        {
          "internalType": "address",
          "name": "_token",
          "type": "address"
        },
        {
          "internalType": "uint256",
          "name": "_amount",
          "type": "uint256"
        }
      ],
      "name": "redeemERC20Token",
      "outputs": [],
      "stateMutability": "nonpayable",
      "type": "function"
    },
    {
      "inputs": [
        {
          "internalType": "uint256",
          "name": "_amount",
          "type": "uint256"
        }
      ],
      "name": "redeemEther",
      "outputs": [],
      "stateMutability": "nonpayable",
      "type": "function"
    },
    {
      "inputs": [],
      "name": "renounceOwnership",
      "outputs": [],
      "stateMutability": "nonpayable",
      "type": "function"
    },
    {
      "inputs": [
        {
          "internalType": "address",
          "name": "_destToken",
          "type": "address"
        },
        {
          "internalType": "address",
          "name": "_to",
          "type": "address"
        },
        {
          "internalType": "uint256",
          "name": "_amount",
          "type": "uint256"
        },
        {
          "internalType": "uint256",
          "name": "_totalSwapped",
          "type": "uint256"
        },
        {
          "internalType": "uint256",
          "name": "_rewardsAmount",
          "type": "uint256"
        },
        {
          "internalType": "bytes32[]",
          "name": "_redeemedFloatTxIds",
          "type": "bytes32[]"
        }
      ],
      "name": "singleTransferERC20",
      "outputs": [
        {
          "internalType": "bool",
          "name": "",
          "type": "bool"
        }
      ],
      "stateMutability": "nonpayable",
      "type": "function"
    },
    {
      "inputs": [
        {
          "internalType": "uint256",
          "name": "_loopCount",
          "type": "uint256"
        }
      ],
      "name": "spCleanUpOldTXs",
      "outputs": [],
      "stateMutability": "nonpayable",
      "type": "function"
    },
    {
      "inputs": [
        {
          "internalType": "address",
          "name": "_token",
          "type": "address"
        },
        {
          "internalType": "uint256",
          "name": "_amount",
          "type": "uint256"
        }
      ],
      "name": "spDeposit",
      "outputs": [],
      "stateMutability": "payable",
      "type": "function"
    },
    {
      "inputs": [
        {
          "components": [
            {
              "internalType": "address",
              "name": "fromToken",
              "type": "address"
            },
            {
              "internalType": "address",
              "name": "toToken",
              "type": "address"
            },
            {
              "internalType": "uint256",
              "name": "fromAmount",
              "type": "uint256"
            },
            {
              "internalType": "uint256",
              "name": "toAmount",
              "type": "uint256"
            },
            {
              "internalType": "uint256",
              "name": "expectedAmount",
              "type": "uint256"
            },
            {
              "internalType": "address[]",
              "name": "callees",
              "type": "address[]"
            },
            {
              "internalType": "bytes",
              "name": "exchangeData",
              "type": "bytes"
            },
            {
              "internalType": "uint256[]",
              "name": "startIndexes",
              "type": "uint256[]"
            },
            {
              "internalType": "uint256[]",
              "name": "values",
              "type": "uint256[]"
            },
            {
              "internalType": "address payable",
              "name": "beneficiary",
              "type": "address"
            },
            {
              "internalType": "address payable",
              "name": "partner",
              "type": "address"
            },
            {
              "internalType": "uint256",
              "name": "feePercent",
              "type": "uint256"
            },
            {
              "internalType": "bytes",
              "name": "permit",
              "type": "bytes"
            },
            {
              "internalType": "uint256",
              "name": "deadline",
              "type": "uint256"
            },
            {
              "internalType": "bytes16",
              "name": "uuid",
              "type": "bytes16"
            }
          ],
          "internalType": "struct Utils.SimpleData",
          "name": "_data",
          "type": "tuple"
        }
      ],
      "name": "spFlow1SimpleSwap",
      "outputs": [],
      "stateMutability": "nonpayable",
      "type": "function"
    },
    {
      "inputs": [
        {
          "internalType": "bytes32",
          "name": "_destinationAddressForBTC",
          "type": "bytes32"
        },
        {
          "components": [
            {
              "internalType": "address",
              "name": "fromToken",
              "type": "address"
            },
            {
              "internalType": "address",
              "name": "toToken",
              "type": "address"
            },
            {
              "internalType": "uint256",
              "name": "fromAmount",
              "type": "uint256"
            },
            {
              "internalType": "uint256",
              "name": "toAmount",
              "type": "uint256"
            },
            {
              "internalType": "uint256",
              "name": "expectedAmount",
              "type": "uint256"
            },
            {
              "internalType": "address[]",
              "name": "callees",
              "type": "address[]"
            },
            {
              "internalType": "bytes",
              "name": "exchangeData",
              "type": "bytes"
            },
            {
              "internalType": "uint256[]",
              "name": "startIndexes",
              "type": "uint256[]"
            },
            {
              "internalType": "uint256[]",
              "name": "values",
              "type": "uint256[]"
            },
            {
              "internalType": "address payable",
              "name": "beneficiary",
              "type": "address"
            },
            {
              "internalType": "address payable",
              "name": "partner",
              "type": "address"
            },
            {
              "internalType": "uint256",
              "name": "feePercent",
              "type": "uint256"
            },
            {
              "internalType": "bytes",
              "name": "permit",
              "type": "bytes"
            },
            {
              "internalType": "uint256",
              "name": "deadline",
              "type": "uint256"
            },
            {
              "internalType": "bytes16",
              "name": "uuid",
              "type": "bytes16"
            }
          ],
          "internalType": "struct Utils.SimpleData",
          "name": "_data",
          "type": "tuple"
        }
      ],
      "name": "spFlow2SimpleSwap",
      "outputs": [],
      "stateMutability": "nonpayable",
      "type": "function"
    },
    {
      "inputs": [
        {
          "internalType": "bytes32",
          "name": "_destinationAddressForBTC",
          "type": "bytes32"
        },
        {
          "internalType": "bool",
          "name": "_fork",
          "type": "bool"
        },
        {
          "internalType": "address",
          "name": "_factory",
          "type": "address"
        },
        {
          "internalType": "bytes32",
          "name": "_initCode",
          "type": "bytes32"
        },
        {
          "internalType": "uint256",
          "name": "_amountIn",
          "type": "uint256"
        },
        {
          "internalType": "uint256",
          "name": "_amountOutMin",
          "type": "uint256"
        },
        {
          "internalType": "address[]",
          "name": "_path",
          "type": "address[]"
        }
      ],
      "name": "spFlow2Uniswap",
      "outputs": [],
      "stateMutability": "nonpayable",
      "type": "function"
    },
    {
      "inputs": [],
      "name": "spGetPendingSwaps",
      "outputs": [
        {
          "components": [
            {
              "internalType": "bytes32",
              "name": "SwapID",
              "type": "bytes32"
            },
            {
              "internalType": "bytes32",
              "name": "DestAddr",
              "type": "bytes32"
            },
            {
              "internalType": "address",
              "name": "RefundAddr",
              "type": "address"
            },
            {
              "internalType": "uint256",
              "name": "AmountWBTC",
              "type": "uint256"
            },
            {
              "internalType": "uint256",
              "name": "Timestamp",
              "type": "uint256"
            }
          ],
          "internalType": "struct SwapContract.spPendingTx[]",
          "name": "data",
          "type": "tuple[]"
        }
      ],
      "stateMutability": "view",
      "type": "function"
    },
    {
      "inputs": [
        {
          "internalType": "uint256",
          "name": "",
          "type": "uint256"
        }
      ],
      "name": "spPendingTXs",
      "outputs": [
        {
          "internalType": "bytes32",
          "name": "SwapID",
          "type": "bytes32"
        },
        {
          "internalType": "bytes32",
          "name": "DestAddr",
          "type": "bytes32"
        },
        {
          "internalType": "address",
          "name": "RefundAddr",
          "type": "address"
        },
        {
          "internalType": "uint256",
          "name": "AmountWBTC",
          "type": "uint256"
        },
        {
          "internalType": "uint256",
          "name": "Timestamp",
          "type": "uint256"
        }
      ],
      "stateMutability": "view",
      "type": "function"
    },
    {
      "inputs": [],
      "name": "swapCount",
      "outputs": [
        {
          "internalType": "uint256",
          "name": "",
          "type": "uint256"
        }
      ],
      "stateMutability": "view",
      "type": "function"
    },
    {
      "inputs": [
        {
          "internalType": "address",
          "name": "",
          "type": "address"
        },
        {
          "internalType": "address",
          "name": "",
          "type": "address"
        }
      ],
      "name": "tokens",
      "outputs": [
        {
          "internalType": "uint256",
          "name": "",
          "type": "uint256"
        }
      ],
      "stateMutability": "view",
      "type": "function"
    },
    {
      "inputs": [
        {
          "internalType": "address",
          "name": "newOwner",
          "type": "address"
        }
      ],
      "name": "transferOwnership",
      "outputs": [],
      "stateMutability": "nonpayable",
      "type": "function"
    },
    {
      "inputs": [],
      "name": "tssThreshold",
      "outputs": [
        {
          "internalType": "uint8",
          "name": "",
          "type": "uint8"
        }
      ],
      "stateMutability": "view",
      "type": "function"
    },
    {
      "inputs": [],
      "name": "wETH",
      "outputs": [
        {
          "internalType": "address",
          "name": "",
          "type": "address"
        }
      ],
      "stateMutability": "view",
      "type": "function"
    },
    {
      "inputs": [
        {
          "internalType": "address",
          "name": "",
          "type": "address"
        }
      ],
      "name": "whitelist",
      "outputs": [
        {
          "internalType": "bool",
          "name": "",
          "type": "bool"
        }
      ],
      "stateMutability": "view",
      "type": "function"
    },
    {
      "inputs": [],
      "name": "withdrawalFeeBPS",
      "outputs": [
        {
          "internalType": "uint8",
          "name": "",
          "type": "uint8"
        }
      ],
      "stateMutability": "view",
      "type": "function"
    },
    {
      "stateMutability": "payable",
      "type": "receive"
    }
  ],
  "bytecode": "0x6101206040523480156200001257600080fd5b5060405162005fb238038062005fb2833981016040819052620000359162000339565b6200004033620002cc565b600180556202a3006002556000600581905560049081556001600160a01b0380841661010052851660a08190526040805163313ce56760e01b81529051919263313ce567928282019260209290829003018186803b158015620000a257600080fd5b505afa158015620000b7573d6000803e3d6000fd5b505050506040513d601f19601f82011682018060405250810190620000dd91906200038b565b620000ea90600a620004cc565b60e0526001600160a01b03831660808190526007805464ffffff000019166414324200001790556040805163313ce56760e01b815290516008929163313ce567916004808301926020929190829003018186803b1580156200014b57600080fd5b505afa15801562000160573d6000803e3d6000fd5b505050506040513d601f19601f820116820180604052508101906200018691906200038b565b620001929190620004dd565b6200019f90600a620004cc565b60c08181525050836001600160a01b031663313ce5676040518163ffffffff1660e01b815260040160206040518083038186803b158015620001e057600080fd5b505afa158015620001f5573d6000803e3d6000fd5b505050506040513d601f19601f820116820180604052508101906200021b91906200038b565b6200022890600a620004cc565b600a556000600881905560098190556001600160a01b039384168152600660209081526040808320805460ff199081166001908117909255979096168352822080548716861790559080527f54cdd369e4e8a8515e52ca72ec816c2101831ad1f18bf44102ed171459c9b4f8805490951690931790935550600b90527fdf7de25b7f1fd6d0b5205f0e18f1f35bd7b8d84cce336588d184533ce43a6f765562000503565b600080546001600160a01b038381166001600160a01b0319831681178455604051919092169283917f8be0079c531659141344cd1fd0a4f28419497f9722a3daafe3b4186f6b6457e09190a35050565b80516001600160a01b03811681146200033457600080fd5b919050565b600080600080608085870312156200035057600080fd5b6200035b856200031c565b93506200036b602086016200031c565b92506200037b604086016200031c565b6060959095015193969295505050565b6000602082840312156200039e57600080fd5b815160ff81168114620003b057600080fd5b9392505050565b634e487b7160e01b600052601160045260246000fd5b600181815b808511156200040e578160001904821115620003f257620003f2620003b7565b808516156200040057918102915b93841c9390800290620003d2565b509250929050565b6000826200042757506001620004c6565b816200043657506000620004c6565b81600181146200044f57600281146200045a576200047a565b6001915050620004c6565b60ff8411156200046e576200046e620003b7565b50506001821b620004c6565b5060208310610133831016604e8410600b84101617156200049f575081810a620004c6565b620004ab8383620003cd565b8060001904821115620004c257620004c2620003b7565b0290505b92915050565b6000620003b060ff84168362000416565b600060ff821660ff841680821015620004fa57620004fa620003b7565b90039392505050565b60805160a05160c05160e0516101005161590c620006a66000396000818161026f0152818161086d0152818161202c01528181612088015281816120f50152818161213c0152818161221a01528181612d6901528181612de30152612e2c015260008181610ffc01528181613487015281816137290152613f9a015260006135be0152600081816105c301528181610a3001528181610a6b01528181610f48015281816123cd0152818161240801528181612fc30152818161305601528181613373015281816139ad015261400e015260008181610343015281816109dc01528181610a0e01528181610c8b01528181610cd001528181610e7d01528181610f1c01528181611074015281816110bf0152818161179d01528181611f6901528181611fa501528181612379015281816123ab01528181612571015281816125a0015281816125f0015281816128200152818161285f01528181612b66015281816135800152818161380d015281816138a40152818161395401528181613ab801528181613b0501528181613dbe015281816147d40152614819015261590c6000f3fe60806040526004361061025f5760003560e01c80636d019f3511610144578063c810a539116100b6578063e9e9bf6a1161007a578063e9e9bf6a14610811578063ec48272914610826578063f24286211461085b578063f2fde38b1461088f578063f7824bc7146108af578063f7888aec146108c55761029e565b8063c810a53914610778578063c929e2a214610798578063ca0707e7146107b8578063da284dcc146107cb578063e6ca2084146107e15761029e565b80638da5cb5b116101085780638da5cb5b146106b257806392542d6d146106d05780639b19251a146106e6578063ad289e7614610716578063b345a35814610736578063b6268e5d146107565761029e565b80636d019f3514610627578063715018a61461063d5780637c747cf9146106525780638006cc3e146106725780638535490f146106925761029e565b80632eff0d9e116101dd5780634db75485116101a15780634db7548514610539578063508493bc14610559578063511834c3146105915780635fcbd285146105b157806363f289d9146105e55780636b51e919146106055761029e565b80632eff0d9e146104ad5780633b6fa127146104c357806342419255146104e357806345137e2714610504578063459b9e6b146105195761029e565b80631ab7e937116102245780631ab7e9371461039c57806320199e991461042757806321959d3c146104495780632586c562146104695780632d55282d146104895761029e565b806289356f146102b05780630b68134d146102e15780630d63aca7146103015780630f9094861461033157806312d1441e1461037d5761029e565b3661029e57336001600160a01b037f0000000000000000000000000000000000000000000000000000000000000000161461029c5761029c614b0f565b005b3480156102aa57600080fd5b50600080fd5b3480156102bc57600080fd5b506007546102ca9060ff1681565b60405160ff90911681526020015b60405180910390f35b3480156102ed57600080fd5b506007546102ca9062010000900460ff1681565b34801561030d57600080fd5b5061032161031c366004614c1e565b61090b565b60405190151581526020016102d8565b34801561033d57600080fd5b506103657f000000000000000000000000000000000000000000000000000000000000000081565b6040516001600160a01b0390911681526020016102d8565b34801561038957600080fd5b506007546102ca90610100900460ff1681565b3480156103a857600080fd5b506103f16103b7366004614c9b565b600360208190526000918252604090912080546001820154600283015493830154600490930154919390926001600160a01b039091169185565b6040805195865260208601949094526001600160a01b03909216928401929092526060830191909152608082015260a0016102d8565b34801561043357600080fd5b5061043c610ab7565b6040516102d89190614cb4565b34801561045557600080fd5b5061029c610464366004614c9b565b610c18565b34801561047557600080fd5b50610321610484366004614d2b565b610d5f565b34801561049557600080fd5b5061049f60085481565b6040519081526020016102d8565b3480156104b957600080fd5b5061049f60045481565b3480156104cf57600080fd5b5061049f6104de366004614d66565b610e60565b3480156104ef57600080fd5b506007546102ca906301000000900460ff1681565b34801561051057600080fd5b5061049f610f10565b34801561052557600080fd5b5061029c610534366004614dab565b611042565b34801561054557600080fd5b5061029c610554366004614d66565b611509565b34801561056557600080fd5b5061049f610574366004614df1565b601060209081526000928352604080842090915290825290205481565b34801561059d57600080fd5b5061029c6105ac366004614e2a565b611668565b3480156105bd57600080fd5b506103657f000000000000000000000000000000000000000000000000000000000000000081565b3480156105f157600080fd5b50610321610600366004614e6c565b611902565b34801561061157600080fd5b5061061a6119a2565b6040516102d89190614eb4565b34801561063357600080fd5b5061049f600a5481565b34801561064957600080fd5b5061029c611b2d565b34801561065e57600080fd5b5061032161066d366004614f09565b611b63565b34801561067e57600080fd5b5061032161068d366004614d2b565b611ee5565b34801561069e57600080fd5b5061029c6106ad366004614c9b565b611ffa565b3480156106be57600080fd5b506000546001600160a01b0316610365565b3480156106dc57600080fd5b5061049f60055481565b3480156106f257600080fd5b5061032161070136600461502a565b60066020526000908152604090205460ff1681565b34801561072257600080fd5b50610321610731366004615047565b6122b1565b34801561074257600080fd5b506103216107513660046150d0565b6124a5565b34801561076257600080fd5b506007546102ca90640100000000900460ff1681565b34801561078457600080fd5b50610321610793366004615132565b61264f565b3480156107a457600080fd5b5061029c6107b3366004615154565b612754565b61029c6107c6366004614d66565b612b0d565b3480156107d757600080fd5b5061049f60025481565b3480156107ed57600080fd5b506103216107fc366004614c9b565b6000908152600c602052604090205460ff1690565b34801561081d57600080fd5b50610321612ec3565b34801561083257600080fd5b50610846610841366004614df1565b6131b5565b604080519283526020830191909152016102d8565b34801561086757600080fd5b506103657f000000000000000000000000000000000000000000000000000000000000000081565b34801561089b57600080fd5b5061029c6108aa36600461502a565b6131df565b3480156108bb57600080fd5b5061049f60095481565b3480156108d157600080fd5b5061049f6108e0366004614df1565b6001600160a01b03918216600090815260106020908152604080832093909416825291909152205490565b600080546001600160a01b0316331461093f5760405162461bcd60e51b815260040161093690615214565b60405180910390fd5b6001600160a01b03871660009081526006602052604090205460ff166109a75760405162461bcd60e51b815260206004820152601d60248201527f5f64657374546f6b656e206973206e6f742077686974656c69737465640000006044820152606401610936565b6001600160a01b0387166109cd5760405162461bcd60e51b815260040161093690615249565b60008415610a0657610a0160007f00000000000000000000000000000000000000000000000000000000000000008761327a565b610a2e565b84610a2e57507f00000000000000000000000000000000000000000000000000000000000000005b7f00000000000000000000000000000000000000000000000000000000000000006001600160a01b0316886001600160a01b03161415610a8b57507f00000000000000000000000000000000000000000000000000000000000000005b610a958185613368565b610a9e83613516565b610aa988888861357e565b506001979650505050505050565b60606000610ad260055460045461367590919063ffffffff16565b6001600160401b03811115610ae957610ae9614b4a565b604051908082528060200260200182016040528015610b4257816020015b6040805160a081018252600080825260208083018290529282018190526060820181905260808201528252600019909201910181610b075790505b5091506000610b5d600160055461368890919063ffffffff16565b90505b6004548111610c135760036000610b826005548561368890919063ffffffff16565b81526020808201929092526040908101600020815160a0810183528154815260018201549381019390935260028101546001600160a01b031691830191909152600381015460608301526004015460808201528351849084908110610be957610be961528c565b6020908102919091010152610bff826001613688565b915080610c0b816152b8565b915050610b60565b505090565b600554600090610c289083613688565b90506004548110610c3857506004545b60055442905b828111610d59576002546000828152600360205260409020600401548391610c669190613688565b1015610d47576000818152600360208181526040808420909201546001600160a01b037f000000000000000000000000000000000000000000000000000000000000000016845260108252828420308552909152912054610cc691613675565b6001600160a01b037f0000000000000000000000000000000000000000000000000000000000000000166000908152601060209081526040808320308452825280832093909355838252600390819052918120818155600181018290556002810180546001600160a01b031916905591820181905560049091015560058190555b80610d51816152b8565b915050610c3e565b50505050565b600080546001600160a01b03163314610d8a5760405162461bcd60e51b815260040161093690615214565b6000610d94610f10565b6001600160a01b03871660009081526006602052604090205490915060ff16610df35760405162461bcd60e51b815260206004820152601160248201527017dd1bdad95b881a5cc81a5b9d985b1a59607a1b6044820152606401610936565b610dff86868686613694565b610e0857600080fd5b6001915080610e15610f10565b1015610e575760405162461bcd60e51b8152602060048201526011602482015270496e76616c6964204c505420707269636560781b6044820152606401610936565b50949350505050565b600080610e6d8484613aac565b90508060ff1660011415610ed3577f00000000000000000000000000000000000000000000000000000000000000006001600160a01b0316846001600160a01b031614610ebb576000610ec9565b6007546301000000900460ff165b60ff169150610f09565b8060ff1660021415610f09576001600160a01b03841615610ef5576000610f03565b6007546301000000900460ff165b60ff1691505b5092915050565b6000806000610f4060007f00000000000000000000000000000000000000000000000000000000000000006131b5565b9150915060007f00000000000000000000000000000000000000000000000000000000000000006001600160a01b03166318160ddd6040518163ffffffff1660e01b815260040160206040518083038186803b158015610f9f57600080fd5b505afa158015610fb3573d6000803e3d6000fd5b505050506040513d601f19601f82011682018060405250810190610fd791906152d3565b9050801561103657611031610ff76008548361368890919063ffffffff16565b61102b7f00000000000000000000000000000000000000000000000000000000000000006110258787613688565b90613b9b565b90613ba7565b61103a565b600a545b935050505090565b600260015414156110655760405162461bcd60e51b8152600401610936906152ec565b60026001556001600160a01b037f0000000000000000000000000000000000000000000000000000000000000000166110a1602083018361502a565b6001600160a01b031614156110b557600080fd5b6001600160a01b037f0000000000000000000000000000000000000000000000000000000000000000166110ef604083016020840161502a565b6001600160a01b03161461113e5760405162461bcd60e51b815260206004820152601660248201527526bab9ba1039bbb0b8103a3790212a21903a37b5b2b760511b6044820152606401610936565b306111516101408301610120840161502a565b6001600160a01b0316146111cd5760405162461bcd60e51b815260206004820152603c60248201527f596f752063616e206f6e6c79206578656375746520666c6f772032207377617060448201527f7320746f207468697320636f6e747261637427732061646472657373000000006064820152608401610936565b6040810135601060006111e3602085018561502a565b6001600160a01b031681526020808201929092526040908101600090812033825290925290205410156112285760405162461bcd60e51b815260040161093690615323565b600061123a604083016020840161502a565b6040516370a0823160e01b81523060048201526001600160a01b0391909116906370a082319060240160206040518083038186803b15801561127b57600080fd5b505afa15801561128f573d6000803e3d6000fd5b505050506040513d601f19601f820116820180604052508101906112b391906152d3565b90506112fb6040830135601060006112ce602087018761502a565b6001600160a01b031681526020808201929092526040908101600090812033825290925290205490613675565b6010600061130c602086018661502a565b6001600160a01b031681526020808201929092526040908101600090812033825290925290205561133c82613bb3565b60006113d282611352604086016020870161502a565b6040516370a0823160e01b81523060048201526001600160a01b0391909116906370a08231906024015b60206040518083038186803b15801561139457600080fd5b505afa1580156113a8573d6000803e3d6000fd5b505050506040513d601f19601f820116820180604052508101906113cc91906152d3565b90613675565b905082608001358110156114285760405162461bcd60e51b815260206004820152601c60248201527f526563656976656420616d6f756e7420696e73756666696369656e74000000006044820152606401610936565b806114755760405162461bcd60e51b815260206004820152601c60248201527f526563656976656420616d6f756e742063616e206e6f742062652030000000006044820152606401610936565b6114ba816010600061148d604088016020890161502a565b6001600160a01b031681526020808201929092526040908101600090812030825290925290205490613688565b601060006114ce604087016020880161502a565b6001600160a01b03168152602080820192909252604090810160009081203082529092529020556114ff8482613da8565b5050600180555050565b6002600154141561152c5760405162461bcd60e51b8152600401610936906152ec565b60026001556001600160a01b038216600090815260106020908152604080832033845290915290205481111561159b5760405162461bcd60e51b8152602060048201526014602482015273496e73756666696369656e742042616c616e636560601b6044820152606401610936565b6001600160a01b03821660009081526010602090815260408083203384529091529020546115c99082613675565b6001600160a01b0383166000908152601060209081526040808320338085529252909120919091556115fd9083908361357e565b6001600160a01b0382166000908152601060209081526040808320338085529252918290205491517febff2602b3f468259e1e99f613fed6691f3a6526effe6ef3e768ba7ae7a36c4f9261165892869290918691429061535a565b60405180910390a1505060018055565b6002600154141561168b5760405162461bcd60e51b8152600401610936906152ec565b6002600155336116a36101408301610120840161502a565b6001600160a01b0316146117105760405162461bcd60e51b815260206004820152602e60248201527f596f752063616e206f6e6c79206578656375746520737761707320746f20796f60448201526d7572206f776e206164647265737360901b6064820152608401610936565b604081013560106000611726602085018561502a565b6001600160a01b0316815260208101919091526040016000908120906117546101408501610120860161502a565b6001600160a01b03166001600160a01b031681526020019081526020016000205410156117935760405162461bcd60e51b815260040161093690615323565b6001600160a01b037f0000000000000000000000000000000000000000000000000000000000000000166117ca602083018361502a565b6001600160a01b0316146118325760405162461bcd60e51b815260206004820152602960248201527f66726f6d546f6b656e206d7573742062652074686520726571756972656420426044820152682a21ba103a37b5b2b760b91b6064820152608401610936565b61183b81613bb3565b6118a2604082013560106000611854602086018661502a565b6001600160a01b0316815260208101919091526040016000908120906118826101408601610120870161502a565b6001600160a01b0316815260208101919091526040016000205490613675565b601060006118b3602085018561502a565b6001600160a01b0316815260208101919091526040016000908120906118e16101408501610120860161502a565b6001600160a01b031681526020810191909152604001600020555060018055565b600080546001600160a01b0316331461192d5760405162461bcd60e51b815260040161093690615214565b6000611937610f10565b6001600160a01b03871660009081526006602052604090205490915060ff166119965760405162461bcd60e51b815260206004820152601160248201527017dd1bdad95b881a5cc81a5b9d985b1a59607a1b6044820152606401610936565b610dff86868686613f00565b606060008060005b600f54811015611a1557600d6000600f83815481106119cb576119cb61528c565b60009182526020808320909101546001600160a01b0316835282019290925260400190205415611a0357611a00836001613688565b92505b80611a0d816152b8565b9150506119aa565b506000826001600160401b03811115611a3057611a30614b4a565b604051908082528060200260200182016040528015611a59578160200160208202803683370190505b50905060005b600f54811015611b2557600d6000600f8381548110611a8057611a8061528c565b60009182526020808320909101546001600160a01b0316835282019290925260400190205415611b1357600d6000600f8381548110611ac157611ac161528c565b60009182526020808320909101546001600160a01b031683528201929092526040019020548251839085908110611afa57611afa61528c565b6020908102919091010152611b10836001613688565b92505b80611b1d816152b8565b915050611a5f565b509392505050565b6000546001600160a01b03163314611b575760405162461bcd60e51b815260040161093690615214565b611b616000614150565b565b600080546001600160a01b03163314611b8e5760405162461bcd60e51b815260040161093690615214565b60075460ff610100909104811690861610801590611bb0575060ff8560ff1611155b611c0c5760405162461bcd60e51b815260206004820152602760248201527f5f7473735468726573686f6c642073686f756c64206265203e3d2074737354686044820152661c995cda1bdb1960ca1b6064820152608401610936565b611c1760018661538b565b60ff168660ff161015611c615760405162461bcd60e51b81526020600482015260126024820152716e2073686f756c64206265203e3d20742b3160701b6044820152606401610936565b60648460ff161115611cb55760405162461bcd60e51b815260206004820152601e60248201527f5f6e6f646552657761726473526174696f206973206e6f742076616c696400006044820152606401610936565b60648360ff161115611d095760405162461bcd60e51b815260206004820152601c60248201527f5f7769746864726177616c46656542505320697320696e76616c6964000000006044820152606401610936565b8651885114611d805760405162461bcd60e51b815260206004820152603b60248201527f5f72657761726441646472657373416e64416d6f756e747320616e64205f697360448201527f52656d6f766564206c656e677468206973206e6f74206d6174636800000000006064820152608401610936565b8115611d8f57611d8f826141a0565b611d98896131df565b60005b8851811015611e21576000611dcc8a8381518110611dbb57611dbb61528c565b60200260200101519060a082901c90565b509050611e0c818b8481518110611de557611de561528c565b60200260200101518b8581518110611dff57611dff61528c565b60200260200101516141e0565b50508080611e19906152b8565b915050611d9b565b506000611e2c6119a2565b9050606481511115611e8a5760405162461bcd60e51b815260206004820152602160248201527f53746f726564206e6f64652073697a652073686f756c64206265203c3d2031306044820152600360fc1b6064820152608401610936565b50506007805460ff8481166401000000000264ff000000001987831662010000021664ff00ff0000198984166101000261ffff19909516938b1693909317939093179190911691909117179055600198975050505050505050565b600080546001600160a01b03163314611f105760405162461bcd60e51b815260040161093690615214565b6001600160a01b03851615611f675760405162461bcd60e51b815260206004820152601f60248201527f5f64657374546f6b656e2073686f756c642062652061646472657373283029006044820152606401610936565b7f00000000000000000000000000000000000000000000000000000000000000008415611fdb576000611f9e856113cc8887613675565b9050611fd57f00000000000000000000000000000000000000000000000000000000000000006000611fd08489613688565b61327a565b50611fe4565b84611fe4575060005b611fee8184613368565b50600195945050505050565b6002600154141561201d5760405162461bcd60e51b8152600401610936906152ec565b60026001556001600160a01b037f000000000000000000000000000000000000000000000000000000000000000016600090815260106020908152604080832033845290915290205481111561207257600080fd5b604051632e1a7d4d60e01b8152600481018290527f00000000000000000000000000000000000000000000000000000000000000006001600160a01b031690632e1a7d4d90602401600060405180830381600087803b1580156120d457600080fd5b505af11580156120e8573d6000803e3d6000fd5b5050506001600160a01b037f000000000000000000000000000000000000000000000000000000000000000016600090815260106020908152604080832033845290915290205461213a915082613675565b7f00000000000000000000000000000000000000000000000000000000000000006001600160a01b031660009081526010602090815260408083203380855292528083209390935591518190839085908381818185875af1925050503d80600081146121c2576040519150601f19603f3d011682016040523d82523d6000602084013e6121c7565b606091505b5091509150816122105760405162461bcd60e51b81526020600482015260146024820152732330b4b632b2103a379039b2b7321022ba3432b960611b6044820152606401610936565b6001600160a01b037f0000000000000000000000000000000000000000000000000000000000000000166000908152601060209081526040808320338085529252918290205491517febff2602b3f468259e1e99f613fed6691f3a6526effe6ef3e768ba7ae7a36c4f9261229f9273eeeeeeeeeeeeeeeeeeeeeeeeeeeeeeeeeeeeeeee9290918991429061535a565b60405180910390a15050600180555050565b600080546001600160a01b031633146122dc5760405162461bcd60e51b815260040161093690615214565b6001600160a01b03861660009081526006602052604090205460ff166123445760405162461bcd60e51b815260206004820152601d60248201527f5f64657374546f6b656e206973206e6f742077686974656c69737465640000006044820152606401610936565b6001600160a01b03861661236a5760405162461bcd60e51b815260040161093690615249565b600084156123a35761239e60007f00000000000000000000000000000000000000000000000000000000000000008761327a565b6123cb565b846123cb57507f00000000000000000000000000000000000000000000000000000000000000005b7f00000000000000000000000000000000000000000000000000000000000000006001600160a01b0316876001600160a01b0316141561242857507f00000000000000000000000000000000000000000000000000000000000000005b6124328185613368565b61243b83613516565b60005b8651811015610aa9576124938888838151811061245d5761245d61528c565b602002602001015160001c89848151811061247a5761247a61528c565b602002602001015160a01c6001600160601b031661357e565b8061249d816152b8565b91505061243e565b600080546001600160a01b031633146124d05760405162461bcd60e51b815260040161093690615214565b8361251d5760405162461bcd60e51b815260206004820152601e60248201527f5f746f74616c53776170706564206d757374206265206e6f6e207a65726f00006044820152606401610936565b8261256a5760405162461bcd60e51b815260206004820152601f60248201527f5f72657761726473416d6f756e74206d757374206265206e6f6e207a65726f006044820152606401610936565b61259660007f00000000000000000000000000000000000000000000000000000000000000008661327a565b6001600160a01b037f000000000000000000000000000000000000000000000000000000000000000081166000908152601060209081526040808320938916835292905220546125e69085613688565b6001600160a01b037f000000000000000000000000000000000000000000000000000000000000000081166000908152601060209081526040808320938a1683529290529081209190915561263b9084613368565b61264482613516565b506001949350505050565b600080546001600160a01b0316331461267a5760405162461bcd60e51b815260040161093690615214565b6000828152600c602052604090205460ff16156126a95760405162461bcd60e51b8152600401610936906153b0565b60408051808201909152601d81527f42544320666c6f617420616d6f756e7420696e73756666696369656e7400000060208083019190915260008052600b90527fdf7de25b7f1fd6d0b5205f0e18f1f35bd7b8d84cce336588d184533ce43a6f76546127169185906142af565b60008052600b6020527fdf7de25b7f1fd6d0b5205f0e18f1f35bd7b8d84cce336588d184533ce43a6f765561274a826142db565b5060015b92915050565b600260015414156127775760405162461bcd60e51b8152600401610936906152ec565b600260015560008282828161278e5761278e61528c565b90506020020160208101906127a3919061502a565b9050600083836127b46001826153e7565b8181106127c3576127c361528c565b90506020020160208101906127d8919061502a565b6001600160a01b038316600090815260106020908152604080832033845290915290205490915086111561281e5760405162461bcd60e51b815260040161093690615323565b7f00000000000000000000000000000000000000000000000000000000000000006001600160a01b0316826001600160a01b0316141561285d57600080fd5b7f00000000000000000000000000000000000000000000000000000000000000006001600160a01b0316816001600160a01b0316146128d75760405162461bcd60e51b815260206004820152601660248201527526bab9ba1039bbb0b8103a3790212a21903a37b5b2b760511b6044820152606401610936565b6040516370a0823160e01b81523060048201526000906001600160a01b038316906370a082319060240160206040518083038186803b15801561291957600080fd5b505afa15801561292d573d6000803e3d6000fd5b505050506040513d601f19601f8201168201806040525081019061295191906152d3565b6001600160a01b03841660009081526010602090815260408083203384529091529020549091506129829088613675565b6001600160a01b038416600090815260106020908152604080832033845290915290205589156129bf576129ba8989898989896142f6565b6129cb565b6129cb87878787614479565b6040516370a0823160e01b8152306004820152600090612a009083906001600160a01b038616906370a082319060240161137c565b905086811015612a525760405162461bcd60e51b815260206004820152601c60248201527f526563656976656420616d6f756e7420696e73756666696369656e74000000006044820152606401610936565b80612a9f5760405162461bcd60e51b815260206004820152601c60248201527f526563656976656420616d6f756e742063616e206e6f742062652030000000006044820152606401610936565b6001600160a01b0383166000908152601060209081526040808320308452909152902054612acd9082613688565b6001600160a01b0384166000908152601060209081526040808320308452909152902055612afb8c82613da8565b50506001805550505050505050505050565b60026001541415612b305760405162461bcd60e51b8152600401610936906152ec565b600260015534612d5a576001600160a01b03821673eeeeeeeeeeeeeeeeeeeeeeeeeeeeeeeeeeeeeeee1415612b6457600080fd5b7f00000000000000000000000000000000000000000000000000000000000000006001600160a01b0316826001600160a01b03161415612ba357600080fd5b6040516370a0823160e01b81523060048201526000906001600160a01b038416906370a082319060240160206040518083038186803b158015612be557600080fd5b505afa158015612bf9573d6000803e3d6000fd5b505050506040513d601f19601f82011682018060405250810190612c1d91906152d3565b9050612c346001600160a01b0384163330856145f6565b6040516370a0823160e01b81523060048201526000906001600160a01b038516906370a082319060240160206040518083038186803b158015612c7657600080fd5b505afa158015612c8a573d6000803e3d6000fd5b505050506040513d601f19601f82011682018060405250810190612cae91906152d3565b90506000612cbc8284613675565b6001600160a01b0386166000908152601060209081526040808320338452909152902054909150612ced9082613688565b6001600160a01b03861660009081526010602090815260408083203380855292529182902083905590517f4e2ca0515ed1aef1395f66b5303bb5d6f1bf9d61a353fa53f73f8ac9973fa9f692612d4a92899290918691429061535a565b60405180910390a1505050612ebb565b60003411612d6757600080fd5b7f00000000000000000000000000000000000000000000000000000000000000006001600160a01b031663d0e30db0346040518263ffffffff1660e01b81526004016000604051808303818588803b158015612dc257600080fd5b505af1158015612dd6573d6000803e3d6000fd5b5050506001600160a01b037f0000000000000000000000000000000000000000000000000000000000000000166000908152601060209081526040808320338452909152902054612e2a9250905034613688565b7f00000000000000000000000000000000000000000000000000000000000000006001600160a01b031660009081526010602090815260408083203380855292529182902083905590517f4e2ca0515ed1aef1395f66b5303bb5d6f1bf9d61a353fa53f73f8ac9973fa9f6926116589273eeeeeeeeeeeeeeeeeeeeeeeeeeeeeeeeeeeeeeee9290913491429061535a565b505060018055565b600080612edd60095460085461368890919063ffffffff16565b905060008111612f3d5760405162461bcd60e51b815260206004820152602560248201527f746f74616c5265776172644c5073466f724e6f6465206973206e6f7420706f73604482015264697469766560d81b6064820152608401610936565b6000612f476119a2565b90506000805b8251811015612fa257612f8e838281518110612f6b57612f6b61528c565b602002602001015160a01c6001600160601b03168361368890919063ffffffff16565b915080612f9a816152b8565b915050612f4d565b506008546040516340c10f1960e01b815230600482015260248101919091527f00000000000000000000000000000000000000000000000000000000000000006001600160a01b0316906340c10f1990604401602060405180830381600087803b15801561300f57600080fd5b505af1158015613023573d6000803e3d6000fd5b505050506040513d601f19601f8201168201806040525081019061304791906153fe565b5060005b825181101561316d577f00000000000000000000000000000000000000000000000000000000000000006001600160a01b031663a9059cbb8483815181106130955761309561528c565b602002602001015160001c6130dc8561102b8887815181106130b9576130b961528c565b602002602001015160a01c6001600160601b03168a613b9b90919063ffffffff16565b6040516001600160e01b031960e085901b1681526001600160a01b0390921660048301526024820152604401602060405180830381600087803b15801561312257600080fd5b505af1158015613136573d6000803e3d6000fd5b505050506040513d601f19601f8201168201806040525081019061315a91906153fe565b5080613165816152b8565b91505061304b565b506040518381527f86dd6ae252e62228b47b3c1a12762cbf634952b2d29319b04f4f72fb153bcbdd9060200160405180910390a1505060006008819055600955506001919050565b6001600160a01b039182166000908152600b60205260408082205492909316815291909120549091565b6000546001600160a01b031633146132095760405162461bcd60e51b815260040161093690615214565b6001600160a01b03811661326e5760405162461bcd60e51b815260206004820152602660248201527f4f776e61626c653a206e6577206f776e657220697320746865207a65726f206160448201526564647265737360d01b6064820152608401610936565b61327781614150565b50565b60408051808201825260208082527f5f737761703a20666c6f617420616d6f756e7420696e73756666696369656e74818301526001600160a01b0385166000908152600b90915291909120546132d19183906142af565b6001600160a01b038084166000908152600b602052604080822093909355908516815220546133009082613688565b6001600160a01b038481166000818152600b60209081526040918290209490945580519182529185169281019290925281018290527fea368a40e9570069bb8e6511d668293ad2e1f03b0d982431fd223de9f3b70ca6906060015b60405180910390a1505050565b80613371575050565b7f00000000000000000000000000000000000000000000000000000000000000006001600160a01b0316826001600160a01b0316141561340f576009546133b89082613688565b600955604080516001600160a01b0384168152602081018390526000818301819052606082015290517fe3debe835f6848edc082b32a1d729781d3bfcd7e14422d80bcaa6794d3816b2f9181900360800190a15050565b6000613419610f10565b6001600160a01b0384166000908152600b602052604090205490915061343f9083613688565b6001600160a01b0384166000908152600b60205260408120919091556007546134799060649061102b90869062010000900460ff16613b9b565b905060006134ab8361102b847f0000000000000000000000000000000000000000000000000000000000000000613b9b565b6008549091506134bb9082613688565b600855604080516001600160a01b038716815260208101869052908101829052606081018490527fe3debe835f6848edc082b32a1d729781d3bfcd7e14422d80bcaa6794d3816b2f9060800160405180910390a15050505050565b60005b815181101561357a576001600c600084848151811061353a5761353a61528c565b6020026020010151815260200190815260200160002060006101000a81548160ff0219169083151502179055508080613572906152b8565b915050613519565b5050565b7f00000000000000000000000000000000000000000000000000000000000000006001600160a01b0316836001600160a01b031614156135e5576135e2817f0000000000000000000000000000000000000000000000000000000000000000613b9b565b90505b60405163a9059cbb60e01b81526001600160a01b0383811660048301526024820183905284169063a9059cbb90604401602060405180830381600087803b15801561362f57600080fd5b505af1158015613643573d6000803e3d6000fd5b505050506040513d601f19601f8201168201806040525081019061366791906153fe565b61367057600080fd5b505050565b600061368182846153e7565b9392505050565b6000613681828461541b565b6000818152600c602052604081205460ff16156136c35760405162461bcd60e51b8152600401610936906153b0565b836137105760405162461bcd60e51b815260206004820152601c60248201527f546865207472616e73616374696f6e206973206e6f742076616c6964000000006044820152606401610936565b8360a081901c6000613720610f10565b905060006137527f000000000000000000000000000000000000000000000000000000000000000061102b8585613b9b565b600754909150600090613779906127109061102b908590640100000000900460ff16613b9b565b9050876137868383613675565b10156137f15760405162461bcd60e51b815260206004820152603460248201527f4572726f723a20616d6f756e744f66466c6f61742e737562287769746864726160448201527377616c4665657329203c205f6d696e657246656560601b6064820152608401610936565b6000613801896113cc8585613675565b905060008061383160007f00000000000000000000000000000000000000000000000000000000000000006131b5565b90925090506001600160a01b038d166138a25761384e8585613675565b82101561389d5760405162461bcd60e51b815260206004820152601f60248201527f54686520666c6f61742062616c616e636520696e73756666696369656e742e006044820152606401610936565b613935565b7f00000000000000000000000000000000000000000000000000000000000000006001600160a01b03168d6001600160a01b03161415613935576138e68585613675565b8110156139355760405162461bcd60e51b815260206004820152601f60248201527f54686520666c6f61742062616c616e636520696e73756666696369656e742e006044820152606401610936565b61393f8d85613368565b6139498d86614661565b6139528a6142db565b7f00000000000000000000000000000000000000000000000000000000000000006001600160a01b03168d6001600160a01b03161415613997576139978d898561357e565b604051630852cd8d60e31b8152600481018890527f00000000000000000000000000000000000000000000000000000000000000006001600160a01b0316906342966c6890602401602060405180830381600087803b1580156139f957600080fd5b505af1158015613a0d573d6000803e3d6000fd5b505050506040513d601f19601f82011682018060405250810190613a3191906153fe565b613a3a57600080fd5b604080516001600160a01b038a16815260208101899052908101869052606081018790526080810184905260a081018b90527fa9da34e5e4a956b744307ae7611795634e8365951073bf049d76b64b2ae7a0589060c00160405180910390a15060019c9b505050505050505050505050565b6000806000613adc60007f00000000000000000000000000000000000000000000000000000000000000006131b5565b90925090506000613b01600361102b600261102589613afb8989613688565b90613688565b90507f00000000000000000000000000000000000000000000000000000000000000006001600160a01b0316866001600160a01b0316148015613b4d575080613b4a8387613688565b10155b15613b5e576001935050505061274e565b6001600160a01b038616158015613b7e575080613b7b8487613688565b10155b15613b8f576002935050505061274e565b50600095945050505050565b60006136818284615433565b60006136818284615452565b73eeeeeeeeeeeeeeeeeeeeeeeeeeeeeeeeeeeeeeee613bd5602083018361502a565b6001600160a01b03161415613bfc5760405162461bcd60e51b815260040161093690615474565b73eeeeeeeeeeeeeeeeeeeeeeeeeeeeeeeeeeeeeeee613c21604083016020840161502a565b6001600160a01b03161415613c705760405162461bcd60e51b81526020600482015260156024820152740aae6ca40e0c2e8d040ee84a886405a7c40ee8aa89605b1b6044820152606401610936565b600073def171fe48cf0115b1d80b88dc8eab59176fee576001600160a01b031663d2c4b5986040518163ffffffff1660e01b815260040160206040518083038186803b158015613cbf57600080fd5b505afa158015613cd3573d6000803e3d6000fd5b505050506040513d601f19601f82011682018060405250810190613cf791906154a3565b9050613d1f816040840135613d0f602086018661502a565b6001600160a01b031691906146be565b6040516354e3f31b60e01b815273def171fe48cf0115b1d80b88dc8eab59176fee57906354e3f31b90613d56908590600401615614565b602060405180830381600087803b158015613d7057600080fd5b505af1158015613d84573d6000803e3d6000fd5b505050506040513d601f19601f8201168201806040525081019061367091906152d3565b6004546040516bffffffffffffffffffffffff197f000000000000000000000000000000000000000000000000000000000000000060601b1660208201526034810191909152605481018390526074810182905242609482015260009060b40160408051808303601f19018152828252805160209182012060a0840183528084528184018781523385850190815260608601888152426080880190815260048054600090815260039788905297909720975188559251600188015590516002870180546001600160a01b0319166001600160a01b039092169190911790555192850192909255905192909101919091559050613ea261477f565b600454613eb0906001613688565b60045560408051828152602081018590523391810191909152606081018390524260808201527f058800492a0e9d1ce3d60aa19b5a711354aaf0d831a5fa20197617dc4c0a573e9060a00161335b565b6000818152600c602052604081205460ff1615613f2f5760405162461bcd60e51b8152600401610936906153b0565b83613f7c5760405162461bcd60e51b815260206004820152601c60248201527f546865207472616e73616374696f6e206973206e6f742076616c6964000000006044820152606401610936565b8360a081901c6000613f8c610f10565b90506000613fbe8261102b857f0000000000000000000000000000000000000000000000000000000000000000613b9b565b90506000613fcc8a85610e60565b9050600081613fdc576000613fec565b613fec61271061102b8585613b9b565b9050888015613ffa57508015155b1561400457600080fd5b6001600160a01b037f0000000000000000000000000000000000000000000000000000000000000000166340c10f198761403e8685613675565b6040516001600160e01b031960e085901b1681526001600160a01b0390921660048301526024820152604401602060405180830381600087803b15801561408457600080fd5b505af1158015614098573d6000803e3d6000fd5b505050506040513d601f19601f820116820180604052508101906140bc91906153fe565b506008546140ca9082613688565b6008556140d78b866148a2565b6140e0886142db565b604080516001600160a01b038816815260208101879052908101849052606081018590526080810182905260a081018990527fdfaf4e23f7030adafec91a682e05bf9fb30c721f9cec3d8bcfae0459c5362db19060c00160405180910390a15060019a9950505050505050505050565b600080546001600160a01b038381166001600160a01b0319831681178455604051919092169283917f8be0079c531659141344cd1fd0a4f28419497f9722a3daafe3b4186f6b6457e09190a35050565b6002819055604080518281524260208201527fa1cc12e33e9907b789fd3c10ea0afd9d3e563e2db44d84c7269534f1046d1ca1910160405180910390a150565b6000811561420957506001600160a01b0383166000908152600d60205260408120556001613681565b6001600160a01b0384166000908152600e602052604090205460ff1661428d57600f805460018082019092557f8d1108e10bcb7c27dddfc02ed9d693a074039d026cf4ea4240b40f7d581ac8020180546001600160a01b0319166001600160a01b0387169081179091556000908152600e60205260409020805460ff191690911790555b50506001600160a01b03919091166000908152600d6020526040902055600190565b600081848411156142d35760405162461bcd60e51b815260040161093691906157f6565b505050900390565b6000908152600c60205260409020805460ff19166001179055565b60008282600081811061430b5761430b61528c565b9050602002016020810190614320919061502a565b90506001600160a01b03811673eeeeeeeeeeeeeeeeeeeeeeeeeeeeeeeeeeeeeeee141561435f5760405162461bcd60e51b815260040161093690615474565b600073def171fe48cf0115b1d80b88dc8eab59176fee576001600160a01b031663d2c4b5986040518163ffffffff1660e01b815260040160206040518083038186803b1580156143ae57600080fd5b505afa1580156143c2573d6000803e3d6000fd5b505050506040513d601f19601f820116820180604052508101906143e691906154a3565b90506143fc6001600160a01b03831682886146be565b604051633d59840d60e21b815273def171fe48cf0115b1d80b88dc8eab59176fee579063f56610349061443d908b908b908b908b908b908b90600401615829565b600060405180830381600087803b15801561445757600080fd5b505af115801561446b573d6000803e3d6000fd5b505050505050505050505050565b60008282600081811061448e5761448e61528c565b90506020020160208101906144a3919061502a565b90506001600160a01b03811673eeeeeeeeeeeeeeeeeeeeeeeeeeeeeeeeeeeeeeee14156144e25760405162461bcd60e51b815260040161093690615474565b600073def171fe48cf0115b1d80b88dc8eab59176fee576001600160a01b031663d2c4b5986040518163ffffffff1660e01b815260040160206040518083038186803b15801561453157600080fd5b505afa158015614545573d6000803e3d6000fd5b505050506040513d601f19601f8201168201806040525081019061456991906154a3565b905061457f6001600160a01b03831682886146be565b604051632a42068d60e11b815273def171fe48cf0115b1d80b88dc8eab59176fee57906354840d1a906145bc908990899089908990600401615869565b600060405180830381600087803b1580156145d657600080fd5b505af11580156145ea573d6000803e3d6000fd5b50505050505050505050565b6040516001600160a01b0380851660248301528316604482015260648101829052610d599085906323b872dd60e01b906084015b60408051601f198184030181529190526020810180516001600160e01b03166001600160e01b0319909316929092179091526148c5565b61469e816040518060600160405280602781526020016158b0602791396001600160a01b0385166000908152600b602052604090205491906142af565b6001600160a01b039092166000908152600b602052604090209190915550565b604051636eb1769f60e11b81523060048201526001600160a01b038381166024830152600091839186169063dd62ed3e9060440160206040518083038186803b15801561470a57600080fd5b505afa15801561471e573d6000803e3d6000fd5b505050506040513d601f19601f8201168201806040525081019061474291906152d3565b61474c919061541b565b6040516001600160a01b038516602482015260448101829052909150610d5990859063095ea7b360e01b9060640161462a565b60055442905b600454811161357a5760025460008281526003602052604090206004015483916147af9190613688565b1015614890576000818152600360208181526040808420909201546001600160a01b037f00000000000000000000000000000000000000000000000000000000000000001684526010825282842030855290915291205461480f91613675565b6001600160a01b037f0000000000000000000000000000000000000000000000000000000000000000166000908152601060209081526040808320308452825280832093909355838252600390819052918120818155600181018290556002810180546001600160a01b031916905591820181905560049091015560058190555b8061489a816152b8565b915050614785565b6001600160a01b0382166000908152600b602052604090205461469e9082613688565b600061491a826040518060400160405280602081526020017f5361666545524332303a206c6f772d6c6576656c2063616c6c206661696c6564815250856001600160a01b03166149979092919063ffffffff16565b805190915015613670578080602001905181019061493891906153fe565b6136705760405162461bcd60e51b815260206004820152602a60248201527f5361666545524332303a204552433230206f7065726174696f6e20646964206e6044820152691bdd081cdd58d8d9595960b21b6064820152608401610936565b60606149a684846000856149ae565b949350505050565b606082471015614a0f5760405162461bcd60e51b815260206004820152602660248201527f416464726573733a20696e73756666696369656e742062616c616e636520666f6044820152651c8818d85b1b60d21b6064820152608401610936565b843b614a5d5760405162461bcd60e51b815260206004820152601d60248201527f416464726573733a2063616c6c20746f206e6f6e2d636f6e74726163740000006044820152606401610936565b600080866001600160a01b03168587604051614a799190615893565b60006040518083038185875af1925050503d8060008114614ab6576040519150601f19603f3d011682016040523d82523d6000602084013e614abb565b606091505b5091509150614acb828286614ad6565b979650505050505050565b60608315614ae5575081613681565b825115614af55782518084602001fd5b8160405162461bcd60e51b815260040161093691906157f6565b634e487b7160e01b600052600160045260246000fd5b6001600160a01b038116811461327757600080fd5b8035614b4581614b25565b919050565b634e487b7160e01b600052604160045260246000fd5b604051601f8201601f191681016001600160401b0381118282101715614b8857614b88614b4a565b604052919050565b60006001600160401b03821115614ba957614ba9614b4a565b5060051b60200190565b600082601f830112614bc457600080fd5b81356020614bd9614bd483614b90565b614b60565b82815260059290921b84018101918181019086841115614bf857600080fd5b8286015b84811015614c135780358352918301918301614bfc565b509695505050505050565b60008060008060008060c08789031215614c3757600080fd5b8635614c4281614b25565b95506020870135614c5281614b25565b945060408701359350606087013592506080870135915060a08701356001600160401b03811115614c8257600080fd5b614c8e89828a01614bb3565b9150509295509295509295565b600060208284031215614cad57600080fd5b5035919050565b602080825282518282018190526000919060409081850190868401855b82811015614d1e578151805185528681015187860152858101516001600160a01b031686860152606080820151908601526080908101519085015260a09093019290850190600101614cd1565b5091979650505050505050565b60008060008060808587031215614d4157600080fd5b8435614d4c81614b25565b966020860135965060408601359560600135945092505050565b60008060408385031215614d7957600080fd5b8235614d8481614b25565b946020939093013593505050565b60006101e08284031215614da557600080fd5b50919050565b60008060408385031215614dbe57600080fd5b8235915060208301356001600160401b03811115614ddb57600080fd5b614de785828601614d92565b9150509250929050565b60008060408385031215614e0457600080fd5b8235614e0f81614b25565b91506020830135614e1f81614b25565b809150509250929050565b600060208284031215614e3c57600080fd5b81356001600160401b03811115614e5257600080fd5b6149a684828501614d92565b801515811461327757600080fd5b60008060008060808587031215614e8257600080fd5b8435614e8d81614b25565b9350602085013592506040850135614ea481614e5e565b9396929550929360600135925050565b6020808252825182820181905260009190848201906040850190845b81811015614eec57835183529284019291840191600101614ed0565b50909695505050505050565b803560ff81168114614b4557600080fd5b600080600080600080600080610100898b031215614f2657600080fd5b8835614f3181614b25565b97506020898101356001600160401b0380821115614f4e57600080fd5b614f5a8d838e01614bb3565b995060408c0135915080821115614f7057600080fd5b508a01601f81018c13614f8257600080fd5b8035614f90614bd482614b90565b81815260059190911b8201830190838101908e831115614faf57600080fd5b928401925b82841015614fd6578335614fc781614e5e565b82529284019290840190614fb4565b809a505050505050614fea60608a01614ef8565b9450614ff860808a01614ef8565b935061500660a08a01614ef8565b925061501460c08a01614ef8565b915060e089013590509295985092959890939650565b60006020828403121561503c57600080fd5b813561368181614b25565b600080600080600060a0868803121561505f57600080fd5b853561506a81614b25565b945060208601356001600160401b038082111561508657600080fd5b61509289838a01614bb3565b9550604088013594506060880135935060808801359150808211156150b657600080fd5b506150c388828901614bb3565b9150509295509295909350565b600080600080608085870312156150e657600080fd5b84356150f181614b25565b9350602085013592506040850135915060608501356001600160401b0381111561511a57600080fd5b61512687828801614bb3565b91505092959194509250565b6000806040838503121561514557600080fd5b50508035926020909101359150565b60008060008060008060008060e0898b03121561517057600080fd5b88359750602089013561518281614e5e565b9650604089013561519281614b25565b9550606089013594506080890135935060a0890135925060c08901356001600160401b03808211156151c357600080fd5b818b0191508b601f8301126151d757600080fd5b8135818111156151e657600080fd5b8c60208260051b85010111156151fb57600080fd5b6020830194508093505050509295985092959890939650565b6020808252818101527f4f776e61626c653a2063616c6c6572206973206e6f7420746865206f776e6572604082015260600190565b60208082526023908201527f5f64657374546f6b656e2073686f756c64206e6f74206265206164647265737360408201526228302960e81b606082015260800190565b634e487b7160e01b600052603260045260246000fd5b634e487b7160e01b600052601160045260246000fd5b60006000198214156152cc576152cc6152a2565b5060010190565b6000602082840312156152e557600080fd5b5051919050565b6020808252601f908201527f5265656e7472616e637947756172643a207265656e7472616e742063616c6c00604082015260600190565b60208082526019908201527f42616c616e6365206973206e6f742073756666696369656e7400000000000000604082015260600190565b6001600160a01b03958616815293909416602084015260408301919091526060820152608081019190915260a00190565b600060ff821660ff84168060ff038211156153a8576153a86152a2565b019392505050565b60208082526018908201527f546865207478696420697320616c726561647920757365640000000000000000604082015260600190565b6000828210156153f9576153f96152a2565b500390565b60006020828403121561541057600080fd5b815161368181614e5e565b6000821982111561542e5761542e6152a2565b500190565b600081600019048311821515161561544d5761544d6152a2565b500290565b60008261546f57634e487b7160e01b600052601260045260246000fd5b500490565b60208082526015908201527455736520706174682077455448202d3e207742544360581b604082015260600190565b6000602082840312156154b557600080fd5b815161368181614b25565b6000808335601e198436030181126154d757600080fd5b83016020810192503590506001600160401b038111156154f657600080fd5b8060051b360383131561550857600080fd5b9250929050565b8183526000602080850194508260005b8581101561554d57813561553281614b25565b6001600160a01b03168752958201959082019060010161551f565b509495945050505050565b6000808335601e1984360301811261556f57600080fd5b83016020810192503590506001600160401b0381111561558e57600080fd5b80360383131561550857600080fd5b81835281816020850137506000828201602090810191909152601f909101601f19169091010190565b81835260006001600160fb1b038311156155df57600080fd5b8260051b8083602087013760009401602001938452509192915050565b80356001600160801b031981168114614b4557600080fd5b602081526156356020820161562884614b3a565b6001600160a01b03169052565b600061564360208401614b3a565b6001600160a01b0381166040840152506040830135606083015260608301356080830152608083013560a083015261567e60a08401846154c0565b6101e08060c08601526156966102008601838561550f565b92506156a560c0870187615558565b9250601f19808786030160e08801526156bf85858461559d565b94506156ce60e08901896154c0565b945091506101008188870301818901526156e98686856155c6565b95506156f7818a018a6154c0565b95509250506101208188870301818901526157138686856155c6565b9550615720818a01614b3a565b945050610140915061573c828801856001600160a01b03169052565b615747828901614b3a565b93506101609150615762828801856001600160a01b03169052565b6101809350818801358488015261577b84890189615558565b945091506101a081888703018189015261579686868561559d565b95506101c0945080890135858901525050506157b38287016155fc565b6001600160801b0319169401939093529392505050565b60005b838110156157e55781810151838201526020016157cd565b83811115610d595750506000910152565b60208152600082518060208401526158158160408501602087016157ca565b601f01601f19169190910160400192915050565b60018060a01b038716815285602082015284604082015283606082015260a06080820152600061585d60a08301848661550f565b98975050505050505050565b84815283602082015260606040820152600061588960608301848661550f565b9695505050505050565b600082516158a58184602087016157ca565b919091019291505056fe5f72656d6f7665466c6f61743a20666c6f617420616d6f756e7420696e73756666696369656e74a2646970667358221220ad439e60fea393a1083182c5d4c8082bb7c1366443aac29893fa5ba475cc911c64736f6c63430008090033",
  "linkReferences": {},
  "deployedLinkReferences": {}
}