{
  "_format": "hh-sol-artifact-1",
  "contractName": "SwapContract",
  "sourceName": "contracts/SwapContract.sol",
  "abi": [
    {
      "inputs": [
        {
          "internalType": "address",
          "name": "_lpToken",
          "type": "address"
        },
        {
          "internalType": "address",
          "name": "_btct",
          "type": "address"
        },
        {
          "internalType": "uint256",
          "name": "_existingBTCFloat",
          "type": "uint256"
        }
      ],
      "stateMutability": "nonpayable",
      "type": "constructor"
    },
    {
      "anonymous": false,
      "inputs": [
        {
          "indexed": false,
          "internalType": "address",
          "name": "token",
          "type": "address"
        },
        {
          "indexed": false,
          "internalType": "uint256",
          "name": "amountOfLP",
          "type": "uint256"
        },
        {
          "indexed": false,
          "internalType": "uint256",
          "name": "amountOfFloat",
          "type": "uint256"
        },
        {
          "indexed": false,
          "internalType": "uint256",
          "name": "currentPriceLP",
          "type": "uint256"
        },
        {
          "indexed": false,
          "internalType": "uint256",
          "name": "withdrawal",
          "type": "uint256"
        },
        {
          "indexed": false,
          "internalType": "bytes32",
          "name": "txid",
          "type": "bytes32"
        }
      ],
      "name": "BurnLPTokensForFloat",
      "type": "event"
    },
    {
      "anonymous": false,
      "inputs": [
        {
          "indexed": false,
          "internalType": "address",
          "name": "token",
          "type": "address"
        },
        {
          "indexed": false,
          "internalType": "address",
          "name": "user",
          "type": "address"
        },
        {
          "indexed": false,
          "internalType": "uint256",
          "name": "amount",
          "type": "uint256"
        },
        {
          "indexed": false,
          "internalType": "uint256",
          "name": "balance",
          "type": "uint256"
        },
        {
          "indexed": false,
          "internalType": "uint256",
          "name": "Timestamp",
          "type": "uint256"
        }
      ],
      "name": "Deposit",
      "type": "event"
    },
    {
      "anonymous": false,
      "inputs": [
        {
          "indexed": false,
          "internalType": "uint256",
          "name": "rewardLPTsForNodes",
          "type": "uint256"
        }
      ],
      "name": "DistributeNodeRewards",
      "type": "event"
    },
    {
      "anonymous": false,
      "inputs": [
        {
          "indexed": false,
          "internalType": "address",
          "name": "to",
          "type": "address"
        },
        {
          "indexed": false,
          "internalType": "uint256",
          "name": "amountOfFloat",
          "type": "uint256"
        },
        {
          "indexed": false,
          "internalType": "uint256",
          "name": "amountOfLP",
          "type": "uint256"
        },
        {
          "indexed": false,
          "internalType": "uint256",
          "name": "currentPriceLP",
          "type": "uint256"
        },
        {
          "indexed": false,
          "internalType": "uint256",
          "name": "depositFees",
          "type": "uint256"
        },
        {
          "indexed": false,
          "internalType": "bytes32",
          "name": "txid",
          "type": "bytes32"
        }
      ],
      "name": "IssueLPTokensForFloat",
      "type": "event"
    },
    {
      "anonymous": false,
      "inputs": [
        {
          "indexed": true,
          "internalType": "address",
          "name": "previousOwner",
          "type": "address"
        },
        {
          "indexed": true,
          "internalType": "address",
          "name": "newOwner",
          "type": "address"
        }
      ],
      "name": "OwnershipTransferred",
      "type": "event"
    },
    {
      "anonymous": false,
      "inputs": [
        {
          "indexed": false,
          "internalType": "address",
          "name": "feesToken",
          "type": "address"
        },
        {
          "indexed": false,
          "internalType": "uint256",
          "name": "rewards",
          "type": "uint256"
        },
        {
          "indexed": false,
          "internalType": "uint256",
          "name": "amountLPTokensForNode",
          "type": "uint256"
        },
        {
          "indexed": false,
          "internalType": "uint256",
          "name": "currentPriceLP",
          "type": "uint256"
        }
      ],
      "name": "RewardsCollection",
      "type": "event"
    },
    {
      "anonymous": false,
      "inputs": [
        {
          "indexed": false,
          "internalType": "address",
          "name": "from",
          "type": "address"
        },
        {
          "indexed": false,
          "internalType": "address",
          "name": "to",
          "type": "address"
        },
        {
          "indexed": false,
          "internalType": "uint256",
          "name": "amount",
          "type": "uint256"
        }
      ],
      "name": "Swap",
      "type": "event"
    },
    {
      "anonymous": false,
      "inputs": [
        {
          "indexed": false,
          "internalType": "uint256",
          "name": "swap_id",
          "type": "uint256"
        },
        {
          "indexed": false,
          "internalType": "uint256",
          "name": "input_amount",
          "type": "uint256"
        },
        {
          "indexed": false,
          "internalType": "uint256",
          "name": "output_amount",
          "type": "uint256"
        },
        {
          "indexed": false,
          "internalType": "string",
          "name": "dest_address_btc",
          "type": "string"
        },
        {
          "indexed": false,
          "internalType": "uint256",
          "name": "Timestamp",
          "type": "uint256"
        }
      ],
      "name": "SwapTokensToBTC",
      "type": "event"
    },
    {
      "anonymous": false,
      "inputs": [
        {
          "indexed": false,
          "internalType": "address",
          "name": "token",
          "type": "address"
        },
        {
          "indexed": false,
          "internalType": "address",
          "name": "user",
          "type": "address"
        },
        {
          "indexed": false,
          "internalType": "uint256",
          "name": "amount",
          "type": "uint256"
        },
        {
          "indexed": false,
          "internalType": "uint256",
          "name": "balance",
          "type": "uint256"
        }
      ],
      "name": "Withdraw",
      "type": "event"
    },
    {
      "stateMutability": "nonpayable",
      "type": "fallback"
    },
    {
      "inputs": [],
      "name": "BTCT_ADDR",
      "outputs": [
        {
          "internalType": "address",
          "name": "",
          "type": "address"
        }
      ],
      "stateMutability": "view",
      "type": "function"
    },
    {
      "inputs": [
        {
          "internalType": "address",
          "name": "_token",
          "type": "address"
        },
        {
          "internalType": "address",
          "name": "_user",
          "type": "address"
        }
      ],
      "name": "balanceOf",
      "outputs": [
        {
          "internalType": "uint256",
          "name": "",
          "type": "uint256"
        }
      ],
      "stateMutability": "view",
      "type": "function"
    },
    {
      "inputs": [
        {
          "internalType": "address",
          "name": "_newOwner",
          "type": "address"
        },
        {
          "internalType": "bytes32[]",
          "name": "_rewardAddressAndAmounts",
          "type": "bytes32[]"
        },
        {
          "internalType": "bool[]",
          "name": "_isRemoved",
          "type": "bool[]"
        },
        {
          "internalType": "uint8",
          "name": "_churnedInCount",
          "type": "uint8"
        },
        {
          "internalType": "uint8",
          "name": "_tssThreshold",
          "type": "uint8"
        },
        {
          "internalType": "uint8",
          "name": "_nodeRewardsRatio",
          "type": "uint8"
        },
        {
          "internalType": "uint8",
          "name": "_withdrawalFeeBPS",
          "type": "uint8"
        }
      ],
      "name": "churn",
      "outputs": [
        {
          "internalType": "bool",
          "name": "",
          "type": "bool"
        }
      ],
      "stateMutability": "nonpayable",
      "type": "function"
    },
    {
      "inputs": [],
      "name": "churnedInCount",
      "outputs": [
        {
          "internalType": "uint8",
          "name": "",
          "type": "uint8"
        }
      ],
      "stateMutability": "view",
      "type": "function"
    },
    {
      "inputs": [
        {
          "internalType": "address",
          "name": "_destToken",
          "type": "address"
        },
        {
          "internalType": "uint256",
          "name": "_incomingAmount",
          "type": "uint256"
        },
        {
          "internalType": "uint256",
          "name": "_minerFee",
          "type": "uint256"
        },
        {
          "internalType": "uint256",
          "name": "_rewardsAmount",
          "type": "uint256"
        }
      ],
      "name": "collectSwapFeesForBTC",
      "outputs": [
        {
          "internalType": "bool",
          "name": "",
          "type": "bool"
        }
      ],
      "stateMutability": "nonpayable",
      "type": "function"
    },
    {
      "inputs": [],
      "name": "depositFeesBPS",
      "outputs": [
        {
          "internalType": "uint8",
          "name": "",
          "type": "uint8"
        }
      ],
      "stateMutability": "view",
      "type": "function"
    },
    {
      "inputs": [],
      "name": "distributeNodeRewards",
      "outputs": [
        {
          "internalType": "bool",
          "name": "",
          "type": "bool"
        }
      ],
      "stateMutability": "nonpayable",
      "type": "function"
    },
    {
      "inputs": [
        {
          "components": [
            {
              "internalType": "address",
              "name": "fromToken",
              "type": "address"
            },
            {
              "internalType": "address",
              "name": "toToken",
              "type": "address"
            },
            {
              "internalType": "uint256",
              "name": "fromAmount",
              "type": "uint256"
            },
            {
              "internalType": "uint256",
              "name": "toAmount",
              "type": "uint256"
            },
            {
              "internalType": "uint256",
              "name": "expectedAmount",
              "type": "uint256"
            },
            {
              "internalType": "address[]",
              "name": "callees",
              "type": "address[]"
            },
            {
              "internalType": "bytes",
              "name": "exchangeData",
              "type": "bytes"
            },
            {
              "internalType": "uint256[]",
              "name": "startIndexes",
              "type": "uint256[]"
            },
            {
              "internalType": "uint256[]",
              "name": "values",
              "type": "uint256[]"
            },
            {
              "internalType": "address payable",
              "name": "beneficiary",
              "type": "address"
            },
            {
              "internalType": "address payable",
              "name": "partner",
              "type": "address"
            },
            {
              "internalType": "uint256",
              "name": "feePercent",
              "type": "uint256"
            },
            {
              "internalType": "bytes",
              "name": "permit",
              "type": "bytes"
            },
            {
              "internalType": "uint256",
              "name": "deadline",
              "type": "uint256"
            },
            {
              "internalType": "bytes16",
              "name": "uuid",
              "type": "bytes16"
            }
          ],
          "internalType": "struct Utils.SimpleData",
          "name": "data",
          "type": "tuple"
        }
      ],
      "name": "doParaSwap",
      "outputs": [],
      "stateMutability": "nonpayable",
      "type": "function"
    },
    {
      "inputs": [],
      "name": "feesLPTokensForNode",
      "outputs": [
        {
          "internalType": "uint256",
          "name": "",
          "type": "uint256"
        }
      ],
      "stateMutability": "view",
      "type": "function"
    },
    {
      "inputs": [],
      "name": "getActiveNodes",
      "outputs": [
        {
          "internalType": "bytes32[]",
          "name": "",
          "type": "bytes32[]"
        }
      ],
      "stateMutability": "view",
      "type": "function"
    },
    {
      "inputs": [],
      "name": "getCurrentPriceLP",
      "outputs": [
        {
          "internalType": "uint256",
          "name": "nowPrice",
          "type": "uint256"
        }
      ],
      "stateMutability": "view",
      "type": "function"
    },
    {
      "inputs": [
        {
          "internalType": "address",
          "name": "_token",
          "type": "address"
        },
        {
          "internalType": "uint256",
          "name": "_amountOfFloat",
          "type": "uint256"
        }
      ],
      "name": "getDepositFeeRate",
      "outputs": [
        {
          "internalType": "uint256",
          "name": "depositFeeRate",
          "type": "uint256"
        }
      ],
      "stateMutability": "view",
      "type": "function"
    },
    {
      "inputs": [
        {
          "internalType": "address",
          "name": "_tokenA",
          "type": "address"
        },
        {
          "internalType": "address",
          "name": "_tokenB",
          "type": "address"
        }
      ],
      "name": "getFloatReserve",
      "outputs": [
        {
          "internalType": "uint256",
          "name": "reserveA",
          "type": "uint256"
        },
        {
          "internalType": "uint256",
          "name": "reserveB",
          "type": "uint256"
        }
      ],
      "stateMutability": "view",
      "type": "function"
    },
    {
      "inputs": [],
      "name": "initialExchangeRate",
      "outputs": [
        {
          "internalType": "uint256",
          "name": "",
          "type": "uint256"
        }
      ],
      "stateMutability": "view",
      "type": "function"
    },
    {
      "inputs": [
        {
          "internalType": "bytes32",
          "name": "_txid",
          "type": "bytes32"
        }
      ],
      "name": "isTxUsed",
      "outputs": [
        {
          "internalType": "bool",
          "name": "",
          "type": "bool"
        }
      ],
      "stateMutability": "view",
      "type": "function"
    },
    {
      "inputs": [],
      "name": "lockedLPTokensForNode",
      "outputs": [
        {
          "internalType": "uint256",
          "name": "",
          "type": "uint256"
        }
      ],
      "stateMutability": "view",
      "type": "function"
    },
    {
      "inputs": [],
      "name": "lpToken",
      "outputs": [
        {
          "internalType": "address",
          "name": "",
          "type": "address"
        }
      ],
      "stateMutability": "view",
      "type": "function"
    },
    {
      "inputs": [
        {
          "internalType": "address",
          "name": "_destToken",
          "type": "address"
        },
        {
          "internalType": "bytes32[]",
          "name": "_addressesAndAmounts",
          "type": "bytes32[]"
        },
        {
          "internalType": "uint256",
          "name": "_totalSwapped",
          "type": "uint256"
        },
        {
          "internalType": "uint256",
          "name": "_rewardsAmount",
          "type": "uint256"
        },
        {
          "internalType": "bytes32[]",
          "name": "_redeemedFloatTxIds",
          "type": "bytes32[]"
        }
      ],
      "name": "multiTransferERC20TightlyPacked",
      "outputs": [
        {
          "internalType": "bool",
          "name": "",
          "type": "bool"
        }
      ],
      "stateMutability": "nonpayable",
      "type": "function"
    },
    {
      "inputs": [],
      "name": "nodeRewardsRatio",
      "outputs": [
        {
          "internalType": "uint8",
          "name": "",
          "type": "uint8"
        }
      ],
      "stateMutability": "view",
      "type": "function"
    },
    {
      "inputs": [],
      "name": "owner",
      "outputs": [
        {
          "internalType": "address",
          "name": "",
          "type": "address"
        }
      ],
      "stateMutability": "view",
      "type": "function"
    },
    {
      "inputs": [
        {
          "internalType": "address",
          "name": "_token",
          "type": "address"
        },
        {
          "internalType": "bytes32",
          "name": "_addressesAndAmountOfFloat",
          "type": "bytes32"
        },
        {
          "internalType": "bool",
          "name": "_zerofee",
          "type": "bool"
        },
        {
          "internalType": "bytes32",
          "name": "_txid",
          "type": "bytes32"
        }
      ],
      "name": "recordIncomingFloat",
      "outputs": [
        {
          "internalType": "bool",
          "name": "",
          "type": "bool"
        }
      ],
      "stateMutability": "nonpayable",
      "type": "function"
    },
    {
      "inputs": [
        {
          "internalType": "address",
          "name": "_token",
          "type": "address"
        },
        {
          "internalType": "bytes32",
          "name": "_addressesAndAmountOfLPtoken",
          "type": "bytes32"
        },
        {
          "internalType": "uint256",
          "name": "_minerFee",
          "type": "uint256"
        },
        {
          "internalType": "bytes32",
          "name": "_txid",
          "type": "bytes32"
        }
      ],
      "name": "recordOutcomingFloat",
      "outputs": [
        {
          "internalType": "bool",
          "name": "",
          "type": "bool"
        }
      ],
      "stateMutability": "nonpayable",
      "type": "function"
    },
    {
      "inputs": [
        {
          "internalType": "address",
          "name": "_destToken",
          "type": "address"
        },
        {
          "internalType": "address",
          "name": "_to",
          "type": "address"
        },
        {
          "internalType": "uint256",
          "name": "_amount",
          "type": "uint256"
        },
        {
          "internalType": "uint256",
          "name": "_totalSwapped",
          "type": "uint256"
        },
        {
          "internalType": "bytes32[]",
          "name": "_redeemedFloatTxIds",
          "type": "bytes32[]"
        }
      ],
      "name": "recordSkyPoolsTX",
      "outputs": [
        {
          "internalType": "bool",
          "name": "",
          "type": "bool"
        }
      ],
      "stateMutability": "nonpayable",
      "type": "function"
    },
    {
      "inputs": [
        {
          "internalType": "uint256",
          "name": "_minerFee",
          "type": "uint256"
        },
        {
          "internalType": "bytes32",
          "name": "_txid",
          "type": "bytes32"
        }
      ],
      "name": "recordUTXOSweepMinerFee",
      "outputs": [
        {
          "internalType": "bool",
          "name": "",
          "type": "bool"
        }
      ],
      "stateMutability": "nonpayable",
      "type": "function"
    },
    {
      "inputs": [
        {
          "internalType": "address",
          "name": "_token",
          "type": "address"
        },
        {
          "internalType": "uint256",
          "name": "_amount",
          "type": "uint256"
        }
      ],
      "name": "redeemERC20Token",
      "outputs": [
        {
          "internalType": "bool",
          "name": "",
          "type": "bool"
        }
      ],
      "stateMutability": "nonpayable",
      "type": "function"
    },
    {
      "inputs": [],
      "name": "renounceOwnership",
      "outputs": [],
      "stateMutability": "nonpayable",
      "type": "function"
    },
    {
      "inputs": [
        {
          "internalType": "address",
          "name": "_destToken",
          "type": "address"
        },
        {
          "internalType": "address",
          "name": "_to",
          "type": "address"
        },
        {
          "internalType": "uint256",
          "name": "_amount",
          "type": "uint256"
        },
        {
          "internalType": "uint256",
          "name": "_totalSwapped",
          "type": "uint256"
        },
        {
          "internalType": "uint256",
          "name": "_rewardsAmount",
          "type": "uint256"
        },
        {
          "internalType": "bytes32[]",
          "name": "_redeemedFloatTxIds",
          "type": "bytes32[]"
        }
      ],
      "name": "singleTransferERC20",
      "outputs": [
        {
          "internalType": "bool",
          "name": "",
          "type": "bool"
        }
      ],
      "stateMutability": "nonpayable",
      "type": "function"
    },
    {
      "inputs": [],
      "name": "spDepositEther",
      "outputs": [],
      "stateMutability": "payable",
      "type": "function"
    },
    {
      "inputs": [
        {
          "internalType": "address",
          "name": "_token",
          "type": "address"
        },
        {
          "internalType": "uint256",
          "name": "_amount",
          "type": "uint256"
        }
      ],
      "name": "spDepositToken",
      "outputs": [],
      "stateMutability": "nonpayable",
      "type": "function"
    },
    {
      "inputs": [
        {
          "internalType": "string",
          "name": "destinationAddressForBTC",
          "type": "string"
        },
        {
          "components": [
            {
              "internalType": "address",
              "name": "fromToken",
              "type": "address"
            },
            {
              "internalType": "address",
              "name": "toToken",
              "type": "address"
            },
            {
              "internalType": "uint256",
              "name": "fromAmount",
              "type": "uint256"
            },
            {
              "internalType": "uint256",
              "name": "toAmount",
              "type": "uint256"
            },
            {
              "internalType": "uint256",
              "name": "expectedAmount",
              "type": "uint256"
            },
            {
              "internalType": "address[]",
              "name": "callees",
              "type": "address[]"
            },
            {
              "internalType": "bytes",
              "name": "exchangeData",
              "type": "bytes"
            },
            {
              "internalType": "uint256[]",
              "name": "startIndexes",
              "type": "uint256[]"
            },
            {
              "internalType": "uint256[]",
              "name": "values",
              "type": "uint256[]"
            },
            {
              "internalType": "address payable",
              "name": "beneficiary",
              "type": "address"
            },
            {
              "internalType": "address payable",
              "name": "partner",
              "type": "address"
            },
            {
              "internalType": "uint256",
              "name": "feePercent",
              "type": "uint256"
            },
            {
              "internalType": "bytes",
              "name": "permit",
              "type": "bytes"
            },
            {
              "internalType": "uint256",
              "name": "deadline",
              "type": "uint256"
            },
            {
              "internalType": "bytes16",
              "name": "uuid",
              "type": "bytes16"
            }
          ],
          "internalType": "struct Utils.SimpleData",
          "name": "data",
          "type": "tuple"
        }
      ],
      "name": "spParaSwapSimpleSwapAndRecord",
      "outputs": [],
      "stateMutability": "nonpayable",
      "type": "function"
    },
    {
      "inputs": [
        {
          "internalType": "uint256",
          "name": "",
          "type": "uint256"
        }
      ],
      "name": "spPendingTXs",
      "outputs": [
        {
          "internalType": "uint256",
          "name": "SwapID",
          "type": "uint256"
        },
        {
          "internalType": "string",
          "name": "DestAddr",
          "type": "string"
        },
        {
          "internalType": "uint256",
          "name": "AmountWBTC",
          "type": "uint256"
        },
        {
          "internalType": "uint256",
          "name": "Timestamp",
          "type": "uint256"
        }
      ],
      "stateMutability": "view",
      "type": "function"
    },
    {
      "inputs": [
        {
          "internalType": "address",
          "name": "",
          "type": "address"
        },
        {
          "internalType": "address",
          "name": "",
          "type": "address"
        }
      ],
      "name": "tokens",
      "outputs": [
        {
          "internalType": "uint256",
          "name": "",
          "type": "uint256"
        }
      ],
      "stateMutability": "view",
      "type": "function"
    },
    {
      "inputs": [
        {
          "internalType": "address",
          "name": "newOwner",
          "type": "address"
        }
      ],
      "name": "transferOwnership",
      "outputs": [],
      "stateMutability": "nonpayable",
      "type": "function"
    },
    {
      "inputs": [],
      "name": "tssThreshold",
      "outputs": [
        {
          "internalType": "uint8",
          "name": "",
          "type": "uint8"
        }
      ],
      "stateMutability": "view",
      "type": "function"
    },
    {
      "inputs": [
        {
          "internalType": "address",
          "name": "",
          "type": "address"
        }
      ],
      "name": "whitelist",
      "outputs": [
        {
          "internalType": "bool",
          "name": "",
          "type": "bool"
        }
      ],
      "stateMutability": "view",
      "type": "function"
    },
    {
      "inputs": [],
      "name": "withdrawalFeeBPS",
      "outputs": [
        {
          "internalType": "uint8",
          "name": "",
          "type": "uint8"
        }
      ],
      "stateMutability": "view",
      "type": "function"
    }
  ],
  "bytecode": "0x60806040523480156200001157600080fd5b5060405162004819380380620048198339810160408190526200003491620002c1565b600062000040620002a0565b600080546001600160a01b0319166001600160a01b0383169081178255604051929350917f8be0079c531659141344cd1fd0a4f28419497f9722a3daafe3b4186f6b6457e0908290a35060018055600480546001600160a01b0319166001600160a01b03858116919091178083556040805163313ce56760e01b81529051919092169263313ce56792808201926020929091829003018186803b158015620000e757600080fd5b505afa158015620000fc573d6000803e3d6000fd5b505050506040513d601f19601f8201168201806040525081019062000122919062000301565b60ff16600a0a600955600380546001600160a01b0319166001600160a01b0384169081179091556004805460ff60b01b1916602160b11b1760ff60b81b1916601960b91b1760ff60c01b1916600560c21b1781556040805163313ce56760e01b815290516008939263313ce56792808201926020929091829003018186803b158015620001ae57600080fd5b505afa158015620001c3573d6000803e3d6000fd5b505050506040513d601f19601f82011682018060405250810190620001e9919062000301565b0360ff16600a90810a6008556009546007556000600581905560068190556003546001600160a01b039081168252600260209081526040808420805460ff199081166001908117909255600454909416855290842080548416821790559280527fac33ff75c19e70fe83507db0d683fd3465c996598dc972688b7ace676c89077b80549092169092179055527f13da86008ba1c6922daee3e07db95305ef49ebced9f5467a0b8613fcc6b343e355506200032b9050565b3390565b80516001600160a01b0381168114620002bc57600080fd5b919050565b600080600060608486031215620002d6578283fd5b620002e184620002a4565b9250620002f160208501620002a4565b9150604084015190509250925092565b60006020828403121562000313578081fd5b815160ff8116811462000324578182fd5b9392505050565b6144de806200033b6000396000f3fe60806040526004361061020e5760003560e01c8063715018a611610118578063c5f627ab116100a0578063e9e9bf6a1161006f578063e9e9bf6a146105d1578063ec482729146105e6578063f2fde38b14610614578063f7824bc714610634578063f7888aec146106495761020e565b8063c5f627ab14610569578063c810a53914610571578063d6b2779a14610591578063e6ca2084146105b15761020e565b8063954d7f3e116100e7578063954d7f3e146104d45780639b19251a146104f4578063ad289e7614610514578063b6268e5d14610534578063bc7751f3146105495761020e565b8063715018a6146104685780638006cc3e1461047f5780638da5cb5b1461049f5780638e483f9e146104b45761020e565b8063424192551161019b578063508493bc1161016a578063508493bc146103dc5780635fcbd285146103fc57806363f289d9146104115780636b51e919146104315780636d019f35146104535761020e565b8063424192551461037257806345137e27146103875780634db754851461039c5780634e54cee0146103bc5761020e565b806312d1441e116101e257806312d1441e146102cb5780631ab7e937146102e05780632586c562146103105780632d55282d146103305780633b6fa127146103525761020e565b806289356f1461023c5780630b68134d146102675780630d63aca71461027c5780630f909486146102a9575b34801561021a57600080fd5b5060405162461bcd60e51b815260040161023390613fb8565b60405180910390fd5b34801561024857600080fd5b50610251610669565b60405161025e91906142e6565b60405180910390f35b34801561027357600080fd5b50610251610679565b34801561028857600080fd5b5061029c6102973660046134a9565b610689565b60405161025e9190613afe565b3480156102b557600080fd5b506102be6107d4565b60405161025e91906139b6565b3480156102d757600080fd5b506102516107e3565b3480156102ec57600080fd5b506103006102fb36600461377d565b6107f3565b60405161025e9493929190614275565b34801561031c57600080fd5b5061029c61032b3660046136fc565b6108a6565b34801561033c57600080fd5b50610345610998565b60405161025e919061426c565b34801561035e57600080fd5b5061034561036d366004613736565b61099e565b34801561037e57600080fd5b50610251610a2a565b34801561039357600080fd5b50610345610a3a565b3480156103a857600080fd5b5061029c6103b7366004613736565b610b32565b3480156103c857600080fd5b5061029c6103d7366004613525565b610c42565b3480156103e857600080fd5b506103456103f73660046133fd565b610e7f565b34801561040857600080fd5b506102be610e9c565b34801561041d57600080fd5b5061029c61042c3660046136b5565b610eab565b34801561043d57600080fd5b50610446610f60565b60405161025e9190613aba565b34801561045f57600080fd5b506103456110bf565b34801561047457600080fd5b5061047d6110c5565b005b34801561048b57600080fd5b5061029c61049a3660046136fc565b611171565b3480156104ab57600080fd5b506102be61126d565b3480156104c057600080fd5b5061047d6104cf366004613736565b61127c565b3480156104e057600080fd5b5061047d6104ef366004613795565b6113e3565b34801561050057600080fd5b5061029c61050f3660046133c5565b61167c565b34801561052057600080fd5b5061029c61052f36600461363b565b611691565b34801561054057600080fd5b50610251611817565b34801561055557600080fd5b5061047d61056436600461383e565b611827565b61047d611a50565b34801561057d57600080fd5b5061029c61058c366004613889565b611b1b565b34801561059d57600080fd5b5061029c6105ac366004613435565b611c4f565b3480156105bd57600080fd5b5061029c6105cc36600461377d565b611db4565b3480156105dd57600080fd5b5061029c611dcc565b3480156105f257600080fd5b506106066106013660046133fd565b612019565b60405161025e9291906142a1565b34801561062057600080fd5b5061047d61062f3660046133c5565b612043565b34801561064057600080fd5b50610345612145565b34801561065557600080fd5b506103456106643660046133fd565b61214b565b600454600160a01b900460ff1681565b600454600160b01b900460ff1681565b6000610693612176565b6001600160a01b03166106a461126d565b6001600160a01b0316146106ed576040805162461bcd60e51b81526020600482018190526024820152600080516020614438833981519152604482015290519081900360640190fd5b6001600160a01b03871660009081526002602052604090205460ff166107255760405162461bcd60e51b815260040161023390613e37565b6001600160a01b03871661074b5760405162461bcd60e51b815260040161023390614031565b600084156107715760035461076c906000906001600160a01b03168761217a565b610784565b8461078457506003546001600160a01b03165b6004546001600160a01b03898116911614156107a857506004546001600160a01b03165b6107b2818561225d565b6107bb836123b2565b6107c6888888612401565b506001979650505050505050565b6003546001600160a01b031681565b600454600160a81b900460ff1681565b600c602090815260009182526040918290208054600180830180548651600293821615610100026000190190911692909204601f8101869004860283018601909652858252919492939092908301828280156108905780601f1061086557610100808354040283529160200191610890565b820191906000526020600020905b81548152906001019060200180831161087357829003601f168201915b5050505050908060020154908060030154905084565b60006108b0612176565b6001600160a01b03166108c161126d565b6001600160a01b03161461090a576040805162461bcd60e51b81526020600482018190526024820152600080516020614438833981519152604482015290519081900360640190fd5b6000610914610a3a565b6001600160a01b03871660009081526002602052604090205490915060ff1661094f5760405162461bcd60e51b815260040161023390613f8d565b61095b868686866124b6565b61096457600080fd5b6001915080610971610a3a565b101561098f5760405162461bcd60e51b8152600401610233906140a4565b50949350505050565b60055481565b6000806109ab848461274e565b90508060ff16600114156109ed576003546001600160a01b038581169116146109d55760006109e3565b600454600160b81b900460ff165b60ff169150610a23565b8060ff1660021415610a23576001600160a01b03841615610a0f576000610a1d565b600454600160b81b900460ff165b60ff1691505b5092915050565b600454600160b81b900460ff1681565b60035460009081908190610a589082906001600160a01b0316612019565b915091506000600460009054906101000a90046001600160a01b03166001600160a01b03166318160ddd6040518163ffffffff1660e01b815260040160206040518083038186803b158015610aac57600080fd5b505afa158015610ac0573d6000803e3d6000fd5b505050506040513d601f19601f82011682018060405250810190610ae49190613871565b90508015610b2657610b21610b046005548361280890919063ffffffff16565b600954610b1b90610b158787612808565b90612869565b906128c2565b610b2a565b6007545b935050505090565b6001600160a01b0382166000908152601160209081526040808320338452909152812054821115610b755760405162461bcd60e51b815260040161023390613f5f565b6001600160a01b0383166000908152601160209081526040808320338452909152902054610ba39083612929565b6001600160a01b038416600090815260116020908152604080832033808552925290912091909155610bd790849084612401565b6001600160a01b0383166000908152601160209081526040808320338085529252918290205491517ff341246adaac6f497bc2a656f546ab9e182111d630394f0c57c710a59a2cb56792610c3092879290918791613a07565b60405180910390a15060015b92915050565b6000610c4c612176565b6001600160a01b0316610c5d61126d565b6001600160a01b031614610ca6576040805162461bcd60e51b81526020600482018190526024820152600080516020614438833981519152604482015290519081900360640190fd5b60045460ff600160a81b909104811690851610801590610cca575060ff8460ff1611155b610ce65760405162461bcd60e51b815260040161023390613cde565b6001840160ff168560ff161015610d0f5760405162461bcd60e51b815260040161023390613d93565b60648360ff161115610d335760405162461bcd60e51b815260040161023390613b09565b60648260ff161115610d575760405162461bcd60e51b815260040161023390613d5c565b8551875114610d785760405162461bcd60e51b815260040161023390613f02565b610d8188612043565b60005b8751811015610de9576000610dab898381518110610d9e57fe5b6020026020010151612986565b509050610ddf818a8481518110610dbe57fe5b60200260200101518a8581518110610dd257fe5b602002602001015161298f565b5050600101610d84565b506060610df4610f60565b9050606481511115610e185760405162461bcd60e51b815260040161023390613df6565b50506004805460ff60a01b1916600160a01b60ff968716021760ff60a81b1916600160a81b948616949094029390931760ff60b01b1916600160b01b928516929092029190911760ff60c01b1916600160c01b919093160291909117905550600192915050565b601160209081526000928352604080842090915290825290205481565b6004546001600160a01b031681565b6000610eb5612176565b6001600160a01b0316610ec661126d565b6001600160a01b031614610f0f576040805162461bcd60e51b81526020600482018190526024820152600080516020614438833981519152604482015290519081900360640190fd5b6000610f19610a3a565b6001600160a01b03871660009081526002602052604090205490915060ff16610f545760405162461bcd60e51b815260040161023390613f8d565b61095b86868686612a5e565b606060008060005b601054811015610fc357600e600060108381548110610f8357fe5b60009182526020808320909101546001600160a01b0316835282019290925260400190205415610fbb57610fb8836001612808565b92505b600101610f68565b5060608267ffffffffffffffff81118015610fdd57600080fd5b50604051908082528060200260200182016040528015611007578160200160208202803683370190505b50905060005b6010548110156110b757600e60006010838154811061102857fe5b60009182526020808320909101546001600160a01b03168352820192909252604001902054156110af57600e60006010838154811061106357fe5b60009182526020808320909101546001600160a01b03168352820192909252604001902054825183908590811061109657fe5b60209081029190910101526110ac836001612808565b92505b60010161100d565b509250505090565b60075481565b6110cd612176565b6001600160a01b03166110de61126d565b6001600160a01b031614611127576040805162461bcd60e51b81526020600482018190526024820152600080516020614438833981519152604482015290519081900360640190fd5b600080546040516001600160a01b03909116907f8be0079c531659141344cd1fd0a4f28419497f9722a3daafe3b4186f6b6457e0908390a3600080546001600160a01b0319169055565b600061117b612176565b6001600160a01b031661118c61126d565b6001600160a01b0316146111d5576040805162461bcd60e51b81526020600482018190526024820152600080516020614438833981519152604482015290519081900360640190fd5b6001600160a01b038516156111fc5760405162461bcd60e51b815260040161023390613d25565b6003546001600160a01b0316841561124e5760006112248561121e8887612929565b90612929565b600354909150611248906001600160a01b031660006112438489612808565b61217a565b50611257565b84611257575060005b611261818461225d565b50600195945050505050565b6000546001600160a01b031690565b6001600160a01b03821673eeeeeeeeeeeeeeeeeeeeeeeeeeeeeeeeeeeeeeee14156112a657600080fd5b6003546001600160a01b03838116911614156112c157600080fd5b6040516323b872dd60e01b81526001600160a01b038316906323b872dd906112f1903390309086906004016139ca565b602060405180830381600087803b15801561130b57600080fd5b505af115801561131f573d6000803e3d6000fd5b505050506040513d601f19601f820116820180604052508101906113439190613761565b61134c57600080fd5b6001600160a01b038216600090815260116020908152604080832033845290915290205461137a9082612808565b6001600160a01b03831660009081526011602090815260408083203380855292529182902083905590517f4e2ca0515ed1aef1395f66b5303bb5d6f1bf9d61a353fa53f73f8ac9973fa9f6926113d7928692909186914290613a30565b60405180910390a15050565b6002600154141561143b576040805162461bcd60e51b815260206004820152601f60248201527f5265656e7472616e637947756172643a207265656e7472616e742063616c6c00604482015290519081900360640190fd5b60026001556003546001600160a01b031661145960208301836133c5565b6001600160a01b0316141561146d57600080fd5b6003546001600160a01b031661148960408301602084016133c5565b6001600160a01b0316146114af5760405162461bcd60e51b815260040161023390614074565b306114c2610140830161012084016133c5565b6001600160a01b0316146114e85760405162461bcd60e51b815260040161023390613ea5565b6040810135601160006114fe60208501856133c5565b6001600160a01b031681526020808201929092526040908101600090812033825290925290205410156115435760405162461bcd60e51b815260040161023390613c0a565b600061154e82612c21565b905061158881600a600061156860408701602088016133c5565b6001600160a01b0316815260208101919091526040016000205490612808565b600a600061159c60408601602087016133c5565b6001600160a01b03166001600160a01b031681526020019081526020016000208190555061160c8260400135601160008560000160208101906115df91906133c5565b6001600160a01b031681526020808201929092526040908101600090812033825290925290205490612929565b6011600061161d60208601866133c5565b6001600160a01b03166001600160a01b031681526020019081526020016000206000336001600160a01b03166001600160a01b031681526020019081526020016000208190555061167383828460400135612d5c565b50506001805550565b60026020526000908152604090205460ff1681565b600061169b612176565b6001600160a01b03166116ac61126d565b6001600160a01b0316146116f5576040805162461bcd60e51b81526020600482018190526024820152600080516020614438833981519152604482015290519081900360640190fd5b6001600160a01b03861660009081526002602052604090205460ff1661172d5760405162461bcd60e51b815260040161023390613e37565b6001600160a01b0386166117535760405162461bcd60e51b815260040161023390614031565b6000841561177957600354611774906000906001600160a01b03168761217a565b61178c565b8461178c57506003546001600160a01b03165b6004546001600160a01b03888116911614156117b057506004546001600160a01b03165b6117ba818561225d565b6117c3836123b2565b60005b86518110156107c65761180f888883815181106117df57fe5b602002602001015160001c8984815181106117f657fe5b602002602001015160a01c6001600160601b0316612401565b6001016117c6565b600454600160c01b900460ff1681565b6002600154141561187f576040805162461bcd60e51b815260206004820152601f60248201527f5265656e7472616e637947756172643a207265656e7472616e742063616c6c00604482015290519081900360640190fd5b600260015533611897610140830161012084016133c5565b6001600160a01b0316146118bd5760405162461bcd60e51b815260040161023390613b40565b6040810135601160006118d360208501856133c5565b6001600160a01b031681526020810191909152604001600090812090611901610140850161012086016133c5565b6001600160a01b03166001600160a01b031681526020019081526020016000205410156119405760405162461bcd60e51b815260040161023390613c0a565b6003546001600160a01b031661195960208301836133c5565b6001600160a01b03161461197f5760405162461bcd60e51b815260040161023390613c41565b61198881612c21565b506119f06040820135601160006119a260208601866133c5565b6001600160a01b0316815260208101919091526040016000908120906119d0610140860161012087016133c5565b6001600160a01b0316815260208101919091526040016000205490612929565b60116000611a0160208501856133c5565b6001600160a01b031681526020810191909152604001600090812090611a2f610140850161012086016133c5565b6001600160a01b031681526020810191909152604001600020555060018055565b60003411611a5d57600080fd5b3360009081527f5c51ad04df9dc6917fcdebed75fd53c14717a779a92e32c6badc0af1cea0b0666020526040902054611a969034612808565b3360008181527f5c51ad04df9dc6917fcdebed75fd53c14717a779a92e32c6badc0af1cea0b066602052604090819020839055517f4e2ca0515ed1aef1395f66b5303bb5d6f1bf9d61a353fa53f73f8ac9973fa9f692611b119273eeeeeeeeeeeeeeeeeeeeeeeeeeeeeeeeeeeeeeee92909134914290613a30565b60405180910390a1565b6000611b25612176565b6001600160a01b0316611b3661126d565b6001600160a01b031614611b7f576040805162461bcd60e51b81526020600482018190526024820152600080516020614438833981519152604482015290519081900360640190fd5b611b8882611db4565b15611ba55760405162461bcd60e51b815260040161023390613dbf565b60408051808201909152601d81527f42544320666c6f617420616d6f756e7420696e73756666696369656e7400000060208083019190915260008052600a90527f13da86008ba1c6922daee3e07db95305ef49ebced9f5467a0b8613fcc6b343e354611c12918590612e0a565b60008052600a6020527f13da86008ba1c6922daee3e07db95305ef49ebced9f5467a0b8613fcc6b343e355611c4682612ea1565b50600192915050565b6000611c59612176565b6001600160a01b0316611c6a61126d565b6001600160a01b031614611cb3576040805162461bcd60e51b81526020600482018190526024820152600080516020614438833981519152604482015290519081900360640190fd5b6001600160a01b03861660009081526002602052604090205460ff16611ceb5760405162461bcd60e51b815260040161023390613e37565b6001600160a01b038616611d115760405162461bcd60e51b815260040161023390614031565b60008315611d3757600354611d32906000906001600160a01b03168661217a565b611d4a565b83611d4a57506003546001600160a01b03165b6004546001600160a01b0388811691161415611d6e57506004546001600160a01b03165b611d788786612ebc565b611d81836123b2565b505050506001600160a01b0392831660009081526011602090815260408083209490951682529290925291902055600190565b6000818152600b602052604090205460ff165b919050565b600080611de660065460055461280890919063ffffffff16565b905060008111611e085760405162461bcd60e51b815260040161023390613bc5565b6060611e12610f60565b90506000805b8251811015611e5d57611e53838281518110611e3057fe5b602002602001015160a01c6001600160601b03168361280890919063ffffffff16565b9150600101611e18565b50600480546005546040516340c10f1960e01b81526001600160a01b03909216926340c10f1992611e929230929091016139ee565b602060405180830381600087803b158015611eac57600080fd5b505af1158015611ec0573d6000803e3d6000fd5b505050506040513d601f19601f82011682018060405250810190611ee49190613761565b5060005b8251811015611fcd5760045483516001600160a01b039091169063a9059cbb90859084908110611f1457fe5b602002602001015160001c611f5585610b1b888781518110611f3257fe5b602002602001015160a01c6001600160601b03168a61286990919063ffffffff16565b6040518363ffffffff1660e01b8152600401611f729291906139ee565b602060405180830381600087803b158015611f8c57600080fd5b505af1158015611fa0573d6000803e3d6000fd5b505050506040513d601f19601f82011682018060405250810190611fc49190613761565b50600101611ee8565b507f86dd6ae252e62228b47b3c1a12762cbf634952b2d29319b04f4f72fb153bcbdd83604051611ffd919061426c565b60405180910390a1505060006005819055600655506001905090565b6001600160a01b039182166000908152600a60205260408082205492909316815291909120549091565b61204b612176565b6001600160a01b031661205c61126d565b6001600160a01b0316146120a5576040805162461bcd60e51b81526020600482018190526024820152600080516020614438833981519152604482015290519081900360640190fd5b6001600160a01b0381166120ea5760405162461bcd60e51b81526004018080602001828103825260268152602001806143f16026913960400191505060405180910390fd5b600080546040516001600160a01b03808516939216917f8be0079c531659141344cd1fd0a4f28419497f9722a3daafe3b4186f6b6457e091a3600080546001600160a01b0319166001600160a01b0392909216919091179055565b60065481565b6001600160a01b03918216600090815260116020908152604080832093909416825291909152205490565b3390565b60408051808201825260208082527f5f737761703a20666c6f617420616d6f756e7420696e73756666696369656e74818301526001600160a01b0385166000908152600a90915291909120546121d1918390612e0a565b6001600160a01b038084166000908152600a602052604080822093909355908516815220546122009082612808565b6001600160a01b0384166000908152600a60205260409081902091909155517fea368a40e9570069bb8e6511d668293ad2e1f03b0d982431fd223de9f3b70ca690612250908590859085906139ca565b60405180910390a1505050565b80612267576123ae565b6004546001600160a01b03838116911614156122d15760065461228a9082612808565b6006556040517fe3debe835f6848edc082b32a1d729781d3bfcd7e14422d80bcaa6794d3816b2f906122c490849084906000908190613a61565b60405180910390a16123ae565b60006122db610a3a565b6001600160a01b0384166000908152600a60205260409020549091506123019083612808565b6001600160a01b0384166000908152600a602052604081209190915560045461233c90606490610b1b908690600160b01b900460ff16612869565b9050600061235983610b1b6009548561286990919063ffffffff16565b6005549091506123699082612808565b6005556040517fe3debe835f6848edc082b32a1d729781d3bfcd7e14422d80bcaa6794d3816b2f906123a2908790879085908890613a61565b60405180910390a15050505b5050565b60005b81518110156123ae576001600b60008484815181106123d057fe5b6020908102919091018101518252810191909152604001600020805460ff19169115159190911790556001016123b5565b6003546001600160a01b038481169116141561242857600854612425908290612869565b90505b60405163a9059cbb60e01b81526001600160a01b0384169063a9059cbb9061245690859085906004016139ee565b602060405180830381600087803b15801561247057600080fd5b505af1158015612484573d6000803e3d6000fd5b505050506040513d601f19601f820116820180604052508101906124a89190613761565b6124b157600080fd5b505050565b60006124c182611db4565b156124de5760405162461bcd60e51b815260040161023390613dbf565b836124fb5760405162461bcd60e51b815260040161023390613e6e565b60008061250786612986565b915091506000612515610a3a565b90506000612532600954610b1b848661286990919063ffffffff16565b6004549091506000906125589061271090610b1b908590600160c01b900460ff16612869565b9050876125658383612929565b10156125835760405162461bcd60e51b815260040161023390613c8a565b60006125938961121e8585612929565b60035490915060009081906125b29082906001600160a01b0316612019565b90925090506001600160a01b038d166125f3576125cf8585612929565b8210156125ee5760405162461bcd60e51b815260040161023390613b8e565b612632565b6003546001600160a01b038e811691161415612632576126138585612929565b8110156126325760405162461bcd60e51b815260040161023390613b8e565b61263c8d8561225d565b6126468d86612ebc565b61264f8a612ea1565b6003546001600160a01b038e811691161415612670576126708d8985612401565b60048054604051630852cd8d60e31b81526001600160a01b03909116916342966c689161269f918b910161426c565b602060405180830381600087803b1580156126b957600080fd5b505af11580156126cd573d6000803e3d6000fd5b505050506040513d601f19601f820116820180604052508101906126f19190613761565b6126fa57600080fd5b7fa9da34e5e4a956b744307ae7611795634e8365951073bf049d76b64b2ae7a05888888789878f60405161273396959493929190613a87565b60405180910390a15060019c9b505050505050505050505050565b6003546000908190819061276c9082906001600160a01b0316612019565b909250905060006127916003610b1b6002610b158961278b8989612808565b90612808565b6003549091506001600160a01b0387811691161480156127ba5750806127b78387612808565b10155b156127cb5760019350505050610c3c565b6001600160a01b0386161580156127eb5750806127e88487612808565b10155b156127fc5760029350505050610c3c565b50600095945050505050565b600082820183811015612862576040805162461bcd60e51b815260206004820152601b60248201527f536166654d6174683a206164646974696f6e206f766572666c6f770000000000604482015290519081900360640190fd5b9392505050565b60008261287857506000610c3c565b8282028284828161288557fe5b04146128625760405162461bcd60e51b81526004018080602001828103825260218152602001806144176021913960400191505060405180910390fd5b6000808211612918576040805162461bcd60e51b815260206004820152601a60248201527f536166654d6174683a206469766973696f6e206279207a65726f000000000000604482015290519081900360640190fd5b81838161292157fe5b049392505050565b600082821115612980576040805162461bcd60e51b815260206004820152601e60248201527f536166654d6174683a207375627472616374696f6e206f766572666c6f770000604482015290519081900360640190fd5b50900390565b9060a082901c90565b600081156129b857506001600160a01b0383166000908152600e60205260408120556001612862565b6001600160a01b0384166000908152600f602052604090205460ff16612a3c576010805460018082019092557f1b6847dc741a1b0cd08d278845f9d819d87b734759afb55fe2de5cb82a9ae6720180546001600160a01b0319166001600160a01b0387169081179091556000908152600f60205260409020805460ff191690911790555b50506001600160a01b03919091166000908152600e6020526040902055600190565b6000612a6982611db4565b15612a865760405162461bcd60e51b815260040161023390613dbf565b83612aa35760405162461bcd60e51b815260040161023390613e6e565b600080612aaf86612986565b915091506000612abd610a3a565b90506000612ada82610b1b6009548661286990919063ffffffff16565b90506000612ae88a8561099e565b9050600081612af8576000612b08565b612b08612710610b1b8585612869565b9050888015612b1657508015155b15612b2057600080fd5b6004546001600160a01b03166340c10f1987612b3c8685612929565b6040518363ffffffff1660e01b8152600401612b599291906139ee565b602060405180830381600087803b158015612b7357600080fd5b505af1158015612b87573d6000803e3d6000fd5b505050506040513d601f19601f82011682018060405250810190612bab9190613761565b50600554612bb99082612808565b600555612bc68b86612f19565b612bcf88612ea1565b7fdfaf4e23f7030adafec91a682e05bf9fb30c721f9cec3d8bcfae0459c5362db186868587858d604051612c0896959493929190613a87565b60405180910390a15060019a9950505050505050505050565b60008073def171fe48cf0115b1d80b88dc8eab59176fee5790506000816001600160a01b031663d2c4b5986040518163ffffffff1660e01b815260040160206040518083038186803b158015612c7657600080fd5b505afa158015612c8a573d6000803e3d6000fd5b505050506040513d601f19601f82011682018060405250810190612cae91906133e1565b9050612cd6816040860135612cc660208801886133c5565b6001600160a01b03169190612f3c565b6040516354e3f31b60e01b81526001600160a01b038316906354e3f31b90612d029087906004016140cf565b602060405180830381600087803b158015612d1c57600080fd5b505af1158015612d30573d6000803e3d6000fd5b505050506040513d601f19601f82011682018060405250810190612d549190613871565b949350505050565b600d54612d6a906001612808565b600d8190556040805160808101825282815260208082018781528284018790524260608401526000948552600c82529290932081518155915180519193612db99260018501929091019061326a565b5060408201518160020155606082015181600301559050507fb0a8b12ca8227fc5665d8e294a4290bd31c670e9f163c03e660f09d6692023a2600d54828486426040516122509594939291906142af565b60008184841115612e995760405162461bcd60e51b81526004018080602001828103825283818151815260200191508051906020019080838360005b83811015612e5e578181015183820152602001612e46565b50505050905090810190601f168015612e8b5780820380516001836020036101000a031916815260200191505b509250505060405180910390fd5b505050900390565b6000908152600b60205260409020805460ff19166001179055565b612ef981604051806060016040528060278152602001614458602791396001600160a01b0385166000908152600a60205260409020549190612e0a565b6001600160a01b039092166000908152600a602052604090209190915550565b6001600160a01b0382166000908152600a6020526040902054612ef99082612808565b600081846001600160a01b031663dd62ed3e30866040518363ffffffff1660e01b815260040180836001600160a01b03168152602001826001600160a01b031681526020019250505060206040518083038186803b158015612f9d57600080fd5b505afa158015612fb1573d6000803e3d6000fd5b505050506040513d6020811015612fc757600080fd5b5051604080516001600160a01b03871660248201529290910160448084018290528251808503909101815260649093019091526020820180516001600160e01b031663095ea7b360e01b1790529150613021908590613027565b50505050565b606061307c826040518060400160405280602081526020017f5361666545524332303a206c6f772d6c6576656c2063616c6c206661696c6564815250856001600160a01b03166130d89092919063ffffffff16565b8051909150156124b15780806020019051602081101561309b57600080fd5b50516124b15760405162461bcd60e51b815260040180806020018281038252602a81526020018061447f602a913960400191505060405180910390fd5b6060612d548484600085856130ec856131fe565b61313d576040805162461bcd60e51b815260206004820152601d60248201527f416464726573733a2063616c6c20746f206e6f6e2d636f6e7472616374000000604482015290519081900360640190fd5b60006060866001600160a01b031685876040518082805190602001908083835b6020831061317c5780518252601f19909201916020918201910161315d565b6001836020036101000a03801982511681845116808217855250505050505090500191505060006040518083038185875af1925050503d80600081146131de576040519150601f19603f3d011682016040523d82523d6000602084013e6131e3565b606091505b50915091506131f3828286613204565b979650505050505050565b3b151590565b60608315613213575081612862565b8251156132235782518084602001fd5b60405162461bcd60e51b8152602060048201818152845160248401528451859391928392604401919085019080838360008315612e5e578181015183820152602001612e46565b828054600181600116156101000203166002900490600052602060002090601f0160209004810192826132a057600085556132e6565b82601f106132b957805160ff19168380011785556132e6565b828001600101855582156132e6579182015b828111156132e65782518255916020019190600101906132cb565b506132f29291506132f6565b5090565b5b808211156132f257600081556001016132f7565b8035611dc7816143ca565b600082601f830112613326578081fd5b813561333961333482614318565b6142f4565b81815291506020808301908481018184028601820187101561335a57600080fd5b60005b848110156133795781358452928201929082019060010161335d565b505050505092915050565b80356001600160801b031981168114611dc757600080fd5b60006101e082840312156133ae578081fd5b50919050565b803560ff81168114611dc757600080fd5b6000602082840312156133d6578081fd5b8135612862816143ca565b6000602082840312156133f2578081fd5b8151612862816143ca565b6000806040838503121561340f578081fd5b823561341a816143ca565b9150602083013561342a816143ca565b809150509250929050565b600080600080600060a0868803121561344c578081fd5b8535613457816143ca565b94506020860135613467816143ca565b93506040860135925060608601359150608086013567ffffffffffffffff811115613490578182fd5b61349c88828901613316565b9150509295509295909350565b60008060008060008060c087890312156134c1578081fd5b86356134cc816143ca565b955060208701356134dc816143ca565b945060408701359350606087013592506080870135915060a087013567ffffffffffffffff81111561350c578182fd5b61351889828a01613316565b9150509295509295509295565b600080600080600080600060e0888a03121561353f578081fd5b873561354a816143ca565b965060208881013567ffffffffffffffff80821115613567578384fd5b6135738c838d01613316565b985060408b0135915080821115613588578384fd5b508901601f81018b13613599578283fd5b80356135a761333482614318565b81815283810190838501858402850186018f10156135c3578687fd5b8694505b838510156135ee5780356135da816143e2565b8352600194909401939185019185016135c7565b508099505050505050613603606089016133b4565b9350613611608089016133b4565b925061361f60a089016133b4565b915061362d60c089016133b4565b905092959891949750929550565b600080600080600060a08688031215613652578283fd5b853561365d816143ca565b9450602086013567ffffffffffffffff80821115613679578485fd5b61368589838a01613316565b9550604088013594506060880135935060808801359150808211156136a8578283fd5b5061349c88828901613316565b600080600080608085870312156136ca578182fd5b84356136d5816143ca565b93506020850135925060408501356136ec816143e2565b9396929550929360600135925050565b60008060008060808587031215613711578182fd5b843561371c816143ca565b966020860135965060408601359560600135945092505050565b60008060408385031215613748578182fd5b8235613753816143ca565b946020939093013593505050565b600060208284031215613772578081fd5b8151612862816143e2565b60006020828403121561378e578081fd5b5035919050565b600080604083850312156137a7578182fd5b823567ffffffffffffffff808211156137be578384fd5b818501915085601f8301126137d1578384fd5b8135818111156137dd57fe5b60206137f1601f8301601f191682016142f4565b8281528882848701011115613804578687fd5b828286018383013791820181019590955293850135915080821115613827578283fd5b506138348582860161339c565b9150509250929050565b60006020828403121561384f578081fd5b813567ffffffffffffffff811115613865578182fd5b612d548482850161339c565b600060208284031215613882578081fd5b5051919050565b6000806040838503121561389b578182fd5b50508035926020909101359150565b6001600160a01b03169052565b60008284526020808501945082825b858110156138f45781356138d9816143ca565b6001600160a01b0316875295820195908201906001016138c6565b509495945050505050565b81835260006001600160fb1b03831115613917578081fd5b6020830280836020870137939093016020019283525090919050565b6001600160801b0319169052565b60008284528282602086013780602084860101526020601f19601f85011685010190509392505050565b60008151808452815b8181101561399057602081850181015186830182015201613974565b818111156139a15782602083870101525b50601f01601f19169290920160200192915050565b6001600160a01b0391909116815260200190565b6001600160a01b039384168152919092166020820152604081019190915260600190565b6001600160a01b03929092168252602082015260400190565b6001600160a01b0394851681529290931660208301526040820152606081019190915260800190565b6001600160a01b03958616815293909416602084015260408301919091526060820152608081019190915260a00190565b6001600160a01b0394909416845260208401929092526040830152606082015260800190565b6001600160a01b03969096168652602086019490945260408501929092526060840152608083015260a082015260c00190565b6020808252825182820181905260009190848201906040850190845b81811015613af257835183529284019291840191600101613ad6565b50909695505050505050565b901515815260200190565b6020808252601e908201527f5f6e6f646552657761726473526174696f206973206e6f742076616c69640000604082015260600190565b6020808252602e908201527f596f752063616e206f6e6c79206578656375746520737761707320746f20796f60408201526d7572206f776e206164647265737360901b606082015260800190565b6020808252601f908201527f54686520666c6f61742062616c616e636520696e73756666696369656e742e00604082015260600190565b60208082526025908201527f746f74616c5265776172644c5073466f724e6f6465206973206e6f7420706f73604082015264697469766560d81b606082015260800190565b60208082526019908201527f42616c616e6365206973206e6f742073756666696369656e7400000000000000604082015260600190565b60208082526029908201527f66726f6d546f6b656e206d7573742062652074686520726571756972656420426040820152682a21ba103a37b5b2b760b91b606082015260800190565b60208082526034908201527f4572726f723a20616d6f756e744f66466c6f61742e737562287769746864726160408201527377616c4665657329203c205f6d696e657246656560601b606082015260800190565b60208082526027908201527f5f7473735468726573686f6c642073686f756c64206265203e3d2074737354686040820152661c995cda1bdb1960ca1b606082015260800190565b6020808252601f908201527f5f64657374546f6b656e2073686f756c64206265206164647265737328302900604082015260600190565b6020808252601c908201527f5f7769746864726177616c46656542505320697320696e76616c696400000000604082015260600190565b6020808252601290820152716e2073686f756c64206265203e3d20742b3160701b604082015260600190565b60208082526018908201527f546865207478696420697320616c726561647920757365640000000000000000604082015260600190565b60208082526021908201527f53746f726564206e6f64652073697a652073686f756c64206265203c3d2031306040820152600360fc1b606082015260800190565b6020808252601d908201527f5f64657374546f6b656e206973206e6f742077686974656c6973746564000000604082015260600190565b6020808252601c908201527f546865207472616e73616374696f6e206973206e6f742076616c696400000000604082015260600190565b6020808252603c908201527f596f752063616e206f6e6c79206578656375746520666c6f772032207377617060408201527f7320746f207468697320636f6e74726163742773206164647265737300000000606082015260800190565b6020808252603b908201527f5f72657761726441646472657373416e64416d6f756e747320616e64205f697360408201527f52656d6f766564206c656e677468206973206e6f74206d617463680000000000606082015260800190565b602080825260149082015273496e73756666696369656e742042616c616e636560601b604082015260600190565b60208082526011908201527017dd1bdad95b881a5cc81a5b9d985b1a59607a1b604082015260600190565b60208082526053908201527f5468697320636f6e747261637420646f65736e277420616c6c6f77207265636560408201527f6976696e67204574686572202d207573652073704465706f73697445746865726060820152721414903a37903232b837b9b4ba1032ba3432b960691b608082015260a00190565b60208082526023908201527f5f64657374546f6b656e2073686f756c64206e6f74206265206164647265737360408201526228302960e81b606082015260800190565b60208082526016908201527526bab9ba1039bbb0b8103a3790212a21903a37b5b2b760511b604082015260600190565b602080825260119082015270496e76616c6964204c505420707269636560781b604082015260600190565b6000602082526140ea602083016140e58561330b565b6138aa565b6140f66020840161330b565b61410360408401826138aa565b506040830135606083015260608301356080830152608083013560a083015261412f60a0840184614336565b6101e08060c0860152614147610200860183856138b7565b925061415660c0870187614385565b9250601f19808786030160e0880152614170858584613941565b945061417f60e0890189614336565b9450915061010081888703018189015261419a8686856138ff565b95506141a8818a018a614336565b95509250506101208188870301818901526141c48686856138ff565b95506141d1818a0161330b565b94505061014091506141e5828801856138aa565b6141f082890161330b565b93506101609150614203828801856138aa565b6101809350818801358488015261421c84890189614385565b945091506101a0818887030181890152614237868685613941565b95506101c094508089013585890152505050614254828701613384565b915061426281860183613933565b5090949350505050565b90815260200190565b60008582526080602083015261428e608083018661396b565b6040830194909452506060015292915050565b918252602082015260400190565b600086825285602083015284604083015260a060608301526142d460a083018561396b565b90508260808301529695505050505050565b60ff91909116815260200190565b60405181810167ffffffffffffffff8111828210171561431057fe5b604052919050565b600067ffffffffffffffff82111561432c57fe5b5060209081020190565b6000808335601e1984360301811261434c578283fd5b830160208101925035905067ffffffffffffffff81111561436c57600080fd5b60208102360383131561437e57600080fd5b9250929050565b6000808335601e1984360301811261439b578283fd5b830160208101925035905067ffffffffffffffff8111156143bb57600080fd5b80360383131561437e57600080fd5b6001600160a01b03811681146143df57600080fd5b50565b80151581146143df57600080fdfe4f776e61626c653a206e6577206f776e657220697320746865207a65726f2061646472657373536166654d6174683a206d756c7469706c69636174696f6e206f766572666c6f774f776e61626c653a2063616c6c6572206973206e6f7420746865206f776e65725f72656d6f7665466c6f61743a20666c6f617420616d6f756e7420696e73756666696369656e745361666545524332303a204552433230206f7065726174696f6e20646964206e6f742073756363656564a264697066735822122097659012a827a80d35f1ba1c8d30ee869f7f7c349a8fb5465d3df138da70a39f64736f6c63430007050033",
  "linkReferences": {},
  "deployedLinkReferences": {}
}