{
  "_format": "hh-sol-artifact-1",
  "contractName": "SwapContract",
  "sourceName": "contracts/SwapContract.sol",
  "abi": [
    {
      "inputs": [
        {
          "internalType": "address",
          "name": "_lpToken",
          "type": "address"
        },
        {
          "internalType": "address",
          "name": "_btct",
          "type": "address"
        },
        {
          "internalType": "address",
          "name": "_wETH",
          "type": "address"
        },
        {
          "internalType": "address",
          "name": "_sbBTCPool",
          "type": "address"
        },
        {
          "internalType": "address",
          "name": "_params",
          "type": "address"
        },
        {
          "internalType": "address",
          "name": "_swapRewards",
          "type": "address"
        },
        {
          "internalType": "uint256",
          "name": "_existingBTCFloat",
          "type": "uint256"
        }
      ],
      "stateMutability": "nonpayable",
      "type": "constructor"
    },
    {
      "anonymous": false,
      "inputs": [
        {
          "indexed": false,
          "internalType": "address",
          "name": "token",
          "type": "address"
        },
        {
          "indexed": false,
          "internalType": "uint256",
          "name": "amountOfLP",
          "type": "uint256"
        },
        {
          "indexed": false,
          "internalType": "uint256",
          "name": "amountOfFloat",
          "type": "uint256"
        },
        {
          "indexed": false,
          "internalType": "uint256",
          "name": "currentPriceLP",
          "type": "uint256"
        },
        {
          "indexed": false,
          "internalType": "uint256",
          "name": "withdrawal",
          "type": "uint256"
        },
        {
          "indexed": false,
          "internalType": "bytes32",
          "name": "txid",
          "type": "bytes32"
        }
      ],
      "name": "BurnLPTokensForFloat",
      "type": "event"
    },
    {
      "anonymous": false,
      "inputs": [
        {
          "indexed": false,
          "internalType": "address",
          "name": "token",
          "type": "address"
        },
        {
          "indexed": false,
          "internalType": "address",
          "name": "user",
          "type": "address"
        },
        {
          "indexed": false,
          "internalType": "uint256",
          "name": "amount",
          "type": "uint256"
        },
        {
          "indexed": false,
          "internalType": "uint256",
          "name": "balance",
          "type": "uint256"
        },
        {
          "indexed": false,
          "internalType": "uint256",
          "name": "Timestamp",
          "type": "uint256"
        }
      ],
      "name": "Deposit",
      "type": "event"
    },
    {
      "anonymous": false,
      "inputs": [
        {
          "indexed": false,
          "internalType": "uint256",
          "name": "rewardLPTsForNodes",
          "type": "uint256"
        }
      ],
      "name": "DistributeNodeRewards",
      "type": "event"
    },
    {
      "anonymous": false,
      "inputs": [
        {
          "indexed": false,
          "internalType": "address",
          "name": "to",
          "type": "address"
        },
        {
          "indexed": false,
          "internalType": "uint256",
          "name": "amountOfFloat",
          "type": "uint256"
        },
        {
          "indexed": false,
          "internalType": "uint256",
          "name": "amountOfLP",
          "type": "uint256"
        },
        {
          "indexed": false,
          "internalType": "uint256",
          "name": "currentPriceLP",
          "type": "uint256"
        },
        {
          "indexed": false,
          "internalType": "uint256",
          "name": "depositFees",
          "type": "uint256"
        },
        {
          "indexed": false,
          "internalType": "bytes32",
          "name": "txid",
          "type": "bytes32"
        }
      ],
      "name": "IssueLPTokensForFloat",
      "type": "event"
    },
    {
      "anonymous": false,
      "inputs": [
        {
          "indexed": true,
          "internalType": "address",
          "name": "previousOwner",
          "type": "address"
        },
        {
          "indexed": true,
          "internalType": "address",
          "name": "newOwner",
          "type": "address"
        }
      ],
      "name": "OwnershipTransferred",
      "type": "event"
    },
    {
      "anonymous": false,
      "inputs": [
        {
          "indexed": false,
          "internalType": "address",
          "name": "feesToken",
          "type": "address"
        },
        {
          "indexed": false,
          "internalType": "uint256",
          "name": "rewards",
          "type": "uint256"
        },
        {
          "indexed": false,
          "internalType": "uint256",
          "name": "amountLPTokensForNode",
          "type": "uint256"
        },
        {
          "indexed": false,
          "internalType": "uint256",
          "name": "currentPriceLP",
          "type": "uint256"
        }
      ],
      "name": "RewardsCollection",
      "type": "event"
    },
    {
      "anonymous": false,
      "inputs": [
        {
          "indexed": false,
          "internalType": "address",
          "name": "from",
          "type": "address"
        },
        {
          "indexed": false,
          "internalType": "address",
          "name": "to",
          "type": "address"
        },
        {
          "indexed": false,
          "internalType": "uint256",
          "name": "amount",
          "type": "uint256"
        }
      ],
      "name": "Swap",
      "type": "event"
    },
    {
      "anonymous": false,
      "inputs": [
        {
          "indexed": false,
          "internalType": "bytes32",
          "name": "SwapID",
          "type": "bytes32"
        },
        {
          "indexed": false,
          "internalType": "string",
          "name": "DestAddr",
          "type": "string"
        },
        {
          "indexed": false,
          "internalType": "address",
          "name": "RefundAddr",
          "type": "address"
        },
        {
          "indexed": false,
          "internalType": "uint256",
          "name": "AmountWBTC",
          "type": "uint256"
        },
        {
          "indexed": false,
          "internalType": "uint256",
          "name": "Timestamp",
          "type": "uint256"
        }
      ],
      "name": "SwapTokensToBTC",
      "type": "event"
    },
    {
      "anonymous": false,
      "inputs": [
        {
          "indexed": false,
          "internalType": "address",
          "name": "token",
          "type": "address"
        },
        {
          "indexed": false,
          "internalType": "address",
          "name": "user",
          "type": "address"
        },
        {
          "indexed": false,
          "internalType": "uint256",
          "name": "amount",
          "type": "uint256"
        },
        {
          "indexed": false,
          "internalType": "uint256",
          "name": "balance",
          "type": "uint256"
        },
        {
          "indexed": false,
          "internalType": "uint256",
          "name": "Timestamp",
          "type": "uint256"
        }
      ],
      "name": "Withdraw",
      "type": "event"
    },
    {
      "stateMutability": "nonpayable",
      "type": "fallback"
    },
    {
      "inputs": [],
      "name": "BTCT_ADDR",
      "outputs": [
        {
          "internalType": "address",
          "name": "",
          "type": "address"
        }
      ],
      "stateMutability": "view",
      "type": "function"
    },
    {
      "inputs": [],
      "name": "activeNodeCount",
      "outputs": [
        {
          "internalType": "uint8",
          "name": "",
          "type": "uint8"
        }
      ],
      "stateMutability": "view",
      "type": "function"
    },
    {
      "inputs": [
        {
          "internalType": "address",
          "name": "_token",
          "type": "address"
        },
        {
          "internalType": "address",
          "name": "_user",
          "type": "address"
        }
      ],
      "name": "balanceOf",
      "outputs": [
        {
          "internalType": "uint256",
          "name": "",
          "type": "uint256"
        }
      ],
      "stateMutability": "view",
      "type": "function"
    },
    {
      "inputs": [
        {
          "internalType": "address",
          "name": "_newOwner",
          "type": "address"
        },
        {
          "internalType": "address[]",
          "name": "_nodes",
          "type": "address[]"
        },
        {
          "internalType": "bool[]",
          "name": "_isRemoved",
          "type": "bool[]"
        },
        {
          "internalType": "uint8",
          "name": "_churnedInCount",
          "type": "uint8"
        },
        {
          "internalType": "uint8",
          "name": "_tssThreshold",
          "type": "uint8"
        },
        {
          "internalType": "uint256",
          "name": "_totalStakedAmount",
          "type": "uint256"
        }
      ],
      "name": "churn",
      "outputs": [
        {
          "internalType": "bool",
          "name": "",
          "type": "bool"
        }
      ],
      "stateMutability": "nonpayable",
      "type": "function"
    },
    {
      "inputs": [],
      "name": "churnedInCount",
      "outputs": [
        {
          "internalType": "uint8",
          "name": "",
          "type": "uint8"
        }
      ],
      "stateMutability": "view",
      "type": "function"
    },
    {
      "inputs": [
        {
          "internalType": "uint256",
          "name": "_incomingAmount",
          "type": "uint256"
        },
        {
          "internalType": "uint256",
          "name": "_minerFee",
          "type": "uint256"
        },
        {
          "internalType": "uint256",
          "name": "_rewardsAmount",
          "type": "uint256"
        },
        {
          "internalType": "address[]",
          "name": "_spenders",
          "type": "address[]"
        },
        {
          "internalType": "uint256[]",
          "name": "_swapAmounts",
          "type": "uint256[]"
        },
        {
          "internalType": "bool",
          "name": "_isUpdatelimitBTCForSPFlow2",
          "type": "bool"
        }
      ],
      "name": "collectSwapFeesForBTC",
      "outputs": [
        {
          "internalType": "bool",
          "name": "",
          "type": "bool"
        }
      ],
      "stateMutability": "nonpayable",
      "type": "function"
    },
    {
      "inputs": [],
      "name": "getActiveNodes",
      "outputs": [
        {
          "internalType": "address[]",
          "name": "",
          "type": "address[]"
        }
      ],
      "stateMutability": "view",
      "type": "function"
    },
    {
      "inputs": [],
      "name": "getCurrentPriceLP",
      "outputs": [
        {
          "internalType": "uint256",
          "name": "nowPrice",
          "type": "uint256"
        }
      ],
      "stateMutability": "view",
      "type": "function"
    },
    {
      "inputs": [
        {
          "internalType": "address",
          "name": "_tokenA",
          "type": "address"
        },
        {
          "internalType": "address",
          "name": "_tokenB",
          "type": "address"
        }
      ],
      "name": "getFloatReserve",
      "outputs": [
        {
          "internalType": "uint256",
          "name": "reserveA",
          "type": "uint256"
        },
        {
          "internalType": "uint256",
          "name": "reserveB",
          "type": "uint256"
        }
      ],
      "stateMutability": "view",
      "type": "function"
    },
    {
      "inputs": [],
      "name": "initialExchangeRate",
      "outputs": [
        {
          "internalType": "uint256",
          "name": "",
          "type": "uint256"
        }
      ],
      "stateMutability": "view",
      "type": "function"
    },
    {
      "inputs": [],
      "name": "ip",
      "outputs": [
        {
          "internalType": "contract IParams",
          "name": "",
          "type": "address"
        }
      ],
      "stateMutability": "view",
      "type": "function"
    },
    {
      "inputs": [
        {
          "internalType": "address",
          "name": "_user",
          "type": "address"
        }
      ],
      "name": "isNodeStake",
      "outputs": [
        {
          "internalType": "bool",
          "name": "",
          "type": "bool"
        }
      ],
      "stateMutability": "view",
      "type": "function"
    },
    {
      "inputs": [
        {
          "internalType": "bytes32",
          "name": "_txid",
          "type": "bytes32"
        }
      ],
      "name": "isTxUsed",
      "outputs": [
        {
          "internalType": "bool",
          "name": "",
          "type": "bool"
        }
      ],
      "stateMutability": "view",
      "type": "function"
    },
    {
      "inputs": [],
      "name": "limitBTCForSPFlow2",
      "outputs": [
        {
          "internalType": "uint256",
          "name": "",
          "type": "uint256"
        }
      ],
      "stateMutability": "view",
      "type": "function"
    },
    {
      "inputs": [],
      "name": "lpToken",
      "outputs": [
        {
          "internalType": "address",
          "name": "",
          "type": "address"
        }
      ],
      "stateMutability": "view",
      "type": "function"
    },
    {
      "inputs": [
        {
          "internalType": "bytes32[]",
          "name": "_addressesAndAmounts",
          "type": "bytes32[]"
        },
        {
          "internalType": "uint256",
          "name": "_totalSwapped",
          "type": "uint256"
        },
        {
          "internalType": "uint256",
          "name": "_rewardsAmount",
          "type": "uint256"
        },
        {
          "internalType": "bytes32[]",
          "name": "_usedTxIds",
          "type": "bytes32[]"
        }
      ],
      "name": "multiRecordSkyPoolsTX",
      "outputs": [
        {
          "internalType": "bool",
          "name": "",
          "type": "bool"
        }
      ],
      "stateMutability": "nonpayable",
      "type": "function"
    },
    {
      "inputs": [],
      "name": "oldestActiveIndex",
      "outputs": [
        {
          "internalType": "uint256",
          "name": "",
          "type": "uint256"
        }
      ],
      "stateMutability": "view",
      "type": "function"
    },
    {
      "inputs": [],
      "name": "owner",
      "outputs": [
        {
          "internalType": "address",
          "name": "",
          "type": "address"
        }
      ],
      "stateMutability": "view",
      "type": "function"
    },
    {
      "inputs": [],
      "name": "params",
      "outputs": [
        {
          "internalType": "address",
          "name": "",
          "type": "address"
        }
      ],
      "stateMutability": "view",
      "type": "function"
    },
    {
      "inputs": [
        {
          "internalType": "address",
          "name": "_token",
          "type": "address"
        },
        {
          "internalType": "bytes32",
          "name": "_addressesAndAmountOfFloat",
          "type": "bytes32"
        },
        {
          "internalType": "bytes32",
          "name": "_txid",
          "type": "bytes32"
        }
      ],
      "name": "recordIncomingFloat",
      "outputs": [
        {
          "internalType": "bool",
          "name": "",
          "type": "bool"
        }
      ],
      "stateMutability": "nonpayable",
      "type": "function"
    },
    {
      "inputs": [
        {
          "internalType": "address",
          "name": "_token",
          "type": "address"
        },
        {
          "internalType": "bytes32",
          "name": "_addressesAndAmountOfLPtoken",
          "type": "bytes32"
        },
        {
          "internalType": "uint256",
          "name": "_minerFee",
          "type": "uint256"
        },
        {
          "internalType": "bytes32",
          "name": "_txid",
          "type": "bytes32"
        }
      ],
      "name": "recordOutcomingFloat",
      "outputs": [
        {
          "internalType": "bool",
          "name": "",
          "type": "bool"
        }
      ],
      "stateMutability": "nonpayable",
      "type": "function"
    },
    {
      "inputs": [
        {
          "internalType": "address",
          "name": "_to",
          "type": "address"
        },
        {
          "internalType": "uint256",
          "name": "_totalSwapped",
          "type": "uint256"
        },
        {
          "internalType": "uint256",
          "name": "_rewardsAmount",
          "type": "uint256"
        },
        {
          "internalType": "bytes32[]",
          "name": "_usedTxIds",
          "type": "bytes32[]"
        }
      ],
      "name": "recordSkyPoolsTX",
      "outputs": [
        {
          "internalType": "bool",
          "name": "",
          "type": "bool"
        }
      ],
      "stateMutability": "nonpayable",
      "type": "function"
    },
    {
      "inputs": [
        {
          "internalType": "uint256",
          "name": "_minerFee",
          "type": "uint256"
        },
        {
          "internalType": "bytes32",
          "name": "_txid",
          "type": "bytes32"
        }
      ],
      "name": "recordUTXOSweepMinerFee",
      "outputs": [
        {
          "internalType": "bool",
          "name": "",
          "type": "bool"
        }
      ],
      "stateMutability": "nonpayable",
      "type": "function"
    },
    {
      "inputs": [
        {
          "internalType": "address",
          "name": "_token",
          "type": "address"
        },
        {
          "internalType": "uint256",
          "name": "_amount",
          "type": "uint256"
        }
      ],
      "name": "redeemERC20Token",
      "outputs": [],
      "stateMutability": "nonpayable",
      "type": "function"
    },
    {
      "inputs": [
        {
          "internalType": "uint256",
          "name": "_amount",
          "type": "uint256"
        }
      ],
      "name": "redeemEther",
      "outputs": [],
      "stateMutability": "nonpayable",
      "type": "function"
    },
    {
      "inputs": [],
      "name": "renounceOwnership",
      "outputs": [],
      "stateMutability": "nonpayable",
      "type": "function"
    },
    {
      "inputs": [],
      "name": "sbBTCPool",
      "outputs": [
        {
          "internalType": "address",
          "name": "",
          "type": "address"
        }
      ],
      "stateMutability": "view",
      "type": "function"
    },
    {
      "inputs": [
        {
          "internalType": "address",
          "name": "_destToken",
          "type": "address"
        },
        {
          "internalType": "address",
          "name": "_to",
          "type": "address"
        },
        {
          "internalType": "uint256",
          "name": "_amount",
          "type": "uint256"
        },
        {
          "internalType": "uint256",
          "name": "_totalSwapped",
          "type": "uint256"
        },
        {
          "internalType": "uint256",
          "name": "_rewardsAmount",
          "type": "uint256"
        },
        {
          "internalType": "bytes32[]",
          "name": "_redeemedFloatTxIds",
          "type": "bytes32[]"
        }
      ],
      "name": "singleTransferERC20",
      "outputs": [
        {
          "internalType": "bool",
          "name": "",
          "type": "bool"
        }
      ],
      "stateMutability": "nonpayable",
      "type": "function"
    },
    {
      "inputs": [
        {
          "internalType": "uint256",
          "name": "_loopCount",
          "type": "uint256"
        }
      ],
      "name": "spCleanUpOldTXs",
      "outputs": [],
      "stateMutability": "nonpayable",
      "type": "function"
    },
    {
      "inputs": [
        {
          "internalType": "address",
          "name": "_token",
          "type": "address"
        },
        {
          "internalType": "uint256",
          "name": "_amount",
          "type": "uint256"
        }
      ],
      "name": "spDeposit",
      "outputs": [],
      "stateMutability": "payable",
      "type": "function"
    },
    {
      "inputs": [
        {
          "components": [
            {
              "internalType": "address",
              "name": "fromToken",
              "type": "address"
            },
            {
              "internalType": "address",
              "name": "toToken",
              "type": "address"
            },
            {
              "internalType": "uint256",
              "name": "fromAmount",
              "type": "uint256"
            },
            {
              "internalType": "uint256",
              "name": "toAmount",
              "type": "uint256"
            },
            {
              "internalType": "uint256",
              "name": "expectedAmount",
              "type": "uint256"
            },
            {
              "internalType": "address[]",
              "name": "callees",
              "type": "address[]"
            },
            {
              "internalType": "bytes",
              "name": "exchangeData",
              "type": "bytes"
            },
            {
              "internalType": "uint256[]",
              "name": "startIndexes",
              "type": "uint256[]"
            },
            {
              "internalType": "uint256[]",
              "name": "values",
              "type": "uint256[]"
            },
            {
              "internalType": "address payable",
              "name": "beneficiary",
              "type": "address"
            },
            {
              "internalType": "address payable",
              "name": "partner",
              "type": "address"
            },
            {
              "internalType": "uint256",
              "name": "feePercent",
              "type": "uint256"
            },
            {
              "internalType": "bytes",
              "name": "permit",
              "type": "bytes"
            },
            {
              "internalType": "uint256",
              "name": "deadline",
              "type": "uint256"
            },
            {
              "internalType": "bytes16",
              "name": "uuid",
              "type": "bytes16"
            }
          ],
          "internalType": "struct Utils.SimpleData",
          "name": "_data",
          "type": "tuple"
        }
      ],
      "name": "spFlow1SimpleSwap",
      "outputs": [],
      "stateMutability": "nonpayable",
      "type": "function"
    },
    {
      "inputs": [
        {
          "internalType": "bool",
          "name": "_fork",
          "type": "bool"
        },
        {
          "internalType": "address",
          "name": "_factory",
          "type": "address"
        },
        {
          "internalType": "bytes32",
          "name": "_initCode",
          "type": "bytes32"
        },
        {
          "internalType": "uint256",
          "name": "_amountIn",
          "type": "uint256"
        },
        {
          "internalType": "uint256",
          "name": "_amountOutMin",
          "type": "uint256"
        },
        {
          "internalType": "address[]",
          "name": "_path",
          "type": "address[]"
        }
      ],
      "name": "spFlow1Uniswap",
      "outputs": [
        {
          "internalType": "uint256",
          "name": "receivedAmount",
          "type": "uint256"
        }
      ],
      "stateMutability": "nonpayable",
      "type": "function"
    },
    {
      "inputs": [
        {
          "internalType": "string",
          "name": "_destinationAddressForBTC",
          "type": "string"
        },
        {
          "components": [
            {
              "internalType": "address",
              "name": "fromToken",
              "type": "address"
            },
            {
              "internalType": "address",
              "name": "toToken",
              "type": "address"
            },
            {
              "internalType": "uint256",
              "name": "fromAmount",
              "type": "uint256"
            },
            {
              "internalType": "uint256",
              "name": "toAmount",
              "type": "uint256"
            },
            {
              "internalType": "uint256",
              "name": "expectedAmount",
              "type": "uint256"
            },
            {
              "internalType": "address[]",
              "name": "callees",
              "type": "address[]"
            },
            {
              "internalType": "bytes",
              "name": "exchangeData",
              "type": "bytes"
            },
            {
              "internalType": "uint256[]",
              "name": "startIndexes",
              "type": "uint256[]"
            },
            {
              "internalType": "uint256[]",
              "name": "values",
              "type": "uint256[]"
            },
            {
              "internalType": "address payable",
              "name": "beneficiary",
              "type": "address"
            },
            {
              "internalType": "address payable",
              "name": "partner",
              "type": "address"
            },
            {
              "internalType": "uint256",
              "name": "feePercent",
              "type": "uint256"
            },
            {
              "internalType": "bytes",
              "name": "permit",
              "type": "bytes"
            },
            {
              "internalType": "uint256",
              "name": "deadline",
              "type": "uint256"
            },
            {
              "internalType": "bytes16",
              "name": "uuid",
              "type": "bytes16"
            }
          ],
          "internalType": "struct Utils.SimpleData",
          "name": "_data",
          "type": "tuple"
        }
      ],
      "name": "spFlow2SimpleSwap",
      "outputs": [
        {
          "internalType": "uint256",
          "name": "receivedAmount",
          "type": "uint256"
        }
      ],
      "stateMutability": "nonpayable",
      "type": "function"
    },
    {
      "inputs": [
        {
          "internalType": "string",
          "name": "_destinationAddressForBTC",
          "type": "string"
        },
        {
          "internalType": "bool",
          "name": "_fork",
          "type": "bool"
        },
        {
          "internalType": "address",
          "name": "_factory",
          "type": "address"
        },
        {
          "internalType": "bytes32",
          "name": "_initCode",
          "type": "bytes32"
        },
        {
          "internalType": "uint256",
          "name": "_amountIn",
          "type": "uint256"
        },
        {
          "internalType": "uint256",
          "name": "_amountOutMin",
          "type": "uint256"
        },
        {
          "internalType": "address[]",
          "name": "_path",
          "type": "address[]"
        }
      ],
      "name": "spFlow2Uniswap",
      "outputs": [
        {
          "internalType": "uint256",
          "name": "receivedAmount",
          "type": "uint256"
        }
      ],
      "stateMutability": "nonpayable",
      "type": "function"
    },
    {
      "inputs": [],
      "name": "spGetPendingSwaps",
      "outputs": [
        {
          "components": [
            {
              "internalType": "bytes32",
              "name": "SwapID",
              "type": "bytes32"
            },
            {
              "internalType": "string",
              "name": "DestAddr",
              "type": "string"
            },
            {
              "internalType": "address",
              "name": "RefundAddr",
              "type": "address"
            },
            {
              "internalType": "uint256",
              "name": "AmountWBTC",
              "type": "uint256"
            },
            {
              "internalType": "uint256",
              "name": "Timestamp",
              "type": "uint256"
            }
          ],
          "internalType": "struct SwapContract.spPendingTx[]",
          "name": "data",
          "type": "tuple[]"
        }
      ],
      "stateMutability": "view",
      "type": "function"
    },
    {
      "inputs": [
        {
          "internalType": "uint256",
          "name": "",
          "type": "uint256"
        }
      ],
      "name": "spPendingTXs",
      "outputs": [
        {
          "internalType": "bytes32",
          "name": "SwapID",
          "type": "bytes32"
        },
        {
          "internalType": "string",
          "name": "DestAddr",
          "type": "string"
        },
        {
          "internalType": "address",
          "name": "RefundAddr",
          "type": "address"
        },
        {
          "internalType": "uint256",
          "name": "AmountWBTC",
          "type": "uint256"
        },
        {
          "internalType": "uint256",
          "name": "Timestamp",
          "type": "uint256"
        }
      ],
      "stateMutability": "view",
      "type": "function"
    },
    {
      "inputs": [],
      "name": "swapCount",
      "outputs": [
        {
          "internalType": "uint256",
          "name": "",
          "type": "uint256"
        }
      ],
      "stateMutability": "view",
      "type": "function"
    },
    {
      "inputs": [],
      "name": "swapRewards",
      "outputs": [
        {
          "internalType": "address",
          "name": "",
          "type": "address"
        }
      ],
      "stateMutability": "view",
      "type": "function"
    },
    {
      "inputs": [
        {
          "internalType": "address",
          "name": "",
          "type": "address"
        },
        {
          "internalType": "address",
          "name": "",
          "type": "address"
        }
      ],
      "name": "tokens",
      "outputs": [
        {
          "internalType": "uint256",
          "name": "",
          "type": "uint256"
        }
      ],
      "stateMutability": "view",
      "type": "function"
    },
    {
      "inputs": [],
      "name": "totalStakedAmount",
      "outputs": [
        {
          "internalType": "uint256",
          "name": "",
          "type": "uint256"
        }
      ],
      "stateMutability": "view",
      "type": "function"
    },
    {
      "inputs": [
        {
          "internalType": "address",
          "name": "newOwner",
          "type": "address"
        }
      ],
      "name": "transferOwnership",
      "outputs": [],
      "stateMutability": "nonpayable",
      "type": "function"
    },
    {
      "inputs": [],
      "name": "tssThreshold",
      "outputs": [
        {
          "internalType": "uint8",
          "name": "",
          "type": "uint8"
        }
      ],
      "stateMutability": "view",
      "type": "function"
    },
    {
      "inputs": [],
      "name": "wETH",
      "outputs": [
        {
          "internalType": "address",
          "name": "",
          "type": "address"
        }
      ],
      "stateMutability": "view",
      "type": "function"
    },
    {
      "inputs": [
        {
          "internalType": "address",
          "name": "",
          "type": "address"
        }
      ],
      "name": "whitelist",
      "outputs": [
        {
          "internalType": "bool",
          "name": "",
          "type": "bool"
        }
      ],
      "stateMutability": "view",
      "type": "function"
    },
    {
      "stateMutability": "payable",
      "type": "receive"
    }
  ],
  "bytecode": "0x6101a06040523480156200001257600080fd5b506040516200670838038062006708833981016040819052620000359162000333565b6200004033620002c6565b60018055600060048181556003919091556001600160a01b0380871661010052858116610120528481166101608190526101805283811661014052881660a08190526040805163313ce56760e01b81529051919263313ce567928282019260209290829003018186803b158015620000b757600080fd5b505afa158015620000cc573d6000803e3d6000fd5b505050506040513d601f19601f82011682018060405250810190620000f29190620003bf565b620000ff90600a62000500565b60e0526001600160a01b03861660808190526040805163313ce56760e01b815290516008929163313ce567916004808301926020929190829003018186803b1580156200014b57600080fd5b505afa15801562000160573d6000803e3d6000fd5b505050506040513d601f19601f82011682018060405250810190620001869190620003bf565b62000192919062000511565b6200019f90600a62000500565b60c08181525050866001600160a01b031663313ce5676040518163ffffffff1660e01b815260040160206040518083038186803b158015620001e057600080fd5b505afa158015620001f5573d6000803e3d6000fd5b505050506040513d601f19601f820116820180604052508101906200021b9190620003bf565b6200022890600a62000500565b6007556001600160a01b0395861660009081526005602090815260408083208054600160ff1991821681179092559a9099168352822080548a16891790559080527f05b8ccbb9d4d8fb16ea74ce3c29a41f1b461fbdaff4714a0d9a8eb05499746bc80549098169096179096555050600990925250507fec8156718a8372b1db44bb411437d0870f3e3790d4a08526d024ce1b0b668f6b5562000537565b600080546001600160a01b038381166001600160a01b0319831681178455604051919092169283917f8be0079c531659141344cd1fd0a4f28419497f9722a3daafe3b4186f6b6457e09190a35050565b80516001600160a01b03811681146200032e57600080fd5b919050565b600080600080600080600060e0888a0312156200034f57600080fd5b6200035a8862000316565b96506200036a6020890162000316565b95506200037a6040890162000316565b94506200038a6060890162000316565b93506200039a6080890162000316565b9250620003aa60a0890162000316565b915060c0880151905092959891949750929550565b600060208284031215620003d257600080fd5b815160ff81168114620003e457600080fd5b9392505050565b634e487b7160e01b600052601160045260246000fd5b600181815b8085111562000442578160001904821115620004265762000426620003eb565b808516156200043457918102915b93841c939080029062000406565b509250929050565b6000826200045b57506001620004fa565b816200046a57506000620004fa565b81600181146200048357600281146200048e57620004ae565b6001915050620004fa565b60ff841115620004a257620004a2620003eb565b50506001821b620004fa565b5060208310610133831016604e8410600b8410161715620004d3575081810a620004fa565b620004df838362000401565b8060001904821115620004f657620004f6620003eb565b0290505b92915050565b6000620003e460ff8416836200044a565b600060ff821660ff8416808210156200052e576200052e620003eb565b90039392505050565b60805160a05160c05160e0516101005161012051610140516101605161018051615fdf62000729600039600081816107a2015281816112bd0152818161269801528181613247015281816137ec01528181613ea20152818161477801526149aa0152600061076e0152600081816107d601528181610a2c01526133900152600081816102cc0152818161368701526138ce015260008181610279015281816108af01528181611f2901528181611f8501528181611ff2015281816120390152818161211d01528181612c8b01528181612d050152612d4e01526000818161159c0152818161389301528181613e6a015261467201526000613a7f01526000818161057c01528181610b0401528181610b3f015281816114fc01528181613638015281816136b6015281816139000152818161410101526146bf01526000818161037901528181610ab001528181610ae201528181610c5901528181610cd5015281816114d0015281816118760152818161222d0152818161225c015281816122ac0152818161233f015281816123cd015281816127a30152818161281c015281816128b301528181612a8801528181612fa301528181613085015281816133410152818161342201528181613a4101528181613f9701528181614013015281816140a801526143a40152615fdf6000f3fe6080604052600436106102695760003560e01c80637534081511610144578063cf10b16b116100b6578063dcc5f0c81161007a578063dcc5f0c814610818578063e6ca208414610838578063ec48272914610868578063f24286211461089d578063f2fde38b146108d1578063f7888aec146108f1576102a8565b8063cf10b16b1461073c578063cff0ab961461075c578063d023420d14610790578063d0f9a085146107c4578063d38c7bb1146107f8576102a8565b8063a827278b11610108578063a827278b14610693578063b345a358146106a9578063b4014fe8146106c9578063bf62dcc8146106e9578063c810a53914610709578063ca0707e714610729576102a8565b806375340815146105eb5780638535490f146106055780638da5cb5b146106255780639b19251a14610643578063a742329d14610673576102a8565b80632eff0d9e116101dd57806352dcd6b6116101a157806352dcd6b614610534578063567e98f9146105545780635fcbd2851461056a5780636b51e9191461059e5780636d019f35146105c0578063715018a6146105d6576102a8565b80632eff0d9e1461049157806345137e27146104a75780634db75485146104bc578063508493bc146104dc578063511834c314610514576102a8565b8063130b7a631161022f578063130b7a63146103ba5780631ab7e937146103e85780631bb069301461041957806320199e991461042f57806321959d3c146104515780632586c56214610471576102a8565b806285aea1146102ba57806289356f1461030b5780630d63aca7146103375780630f9094861461036757806312d1441e1461039b576102a8565b366102a857336001600160a01b037f000000000000000000000000000000000000000000000000000000000000000016146102a6576102a6614dfe565b005b3480156102b457600080fd5b50600080fd5b3480156102c657600080fd5b506102ee7f000000000000000000000000000000000000000000000000000000000000000081565b6040516001600160a01b0390911681526020015b60405180910390f35b34801561031757600080fd5b506006546103259060ff1681565b60405160ff9091168152602001610302565b34801561034357600080fd5b50610357610352366004614f0d565b610937565b6040519015158152602001610302565b34801561037357600080fd5b506102ee7f000000000000000000000000000000000000000000000000000000000000000081565b3480156103a757600080fd5b5060065461032590610100900460ff1681565b3480156103c657600080fd5b506103da6103d5366004614fee565b610b8b565b604051908152602001610302565b3480156103f457600080fd5b50610408610403366004615073565b610fc5565b6040516103029594939291906150e4565b34801561042557600080fd5b506103da60045481565b34801561043b57600080fd5b50610444611088565b6040516103029190615123565b34801561045d57600080fd5b506102a661046c366004615073565b611289565b34801561047d57600080fd5b5061035761048c3660046151c1565b6113d2565b34801561049d57600080fd5b506103da60035481565b3480156104b357600080fd5b506103da6114c4565b3480156104c857600080fd5b506102a66104d73660046151fc565b6115e2565b3480156104e857600080fd5b506103da6104f7366004615228565b600f60209081526000928352604080842090915290825290205481565b34801561052057600080fd5b506102a661052f36600461527a565b611741565b34801561054057600080fd5b5061035761054f36600461532c565b6119db565b34801561056057600080fd5b506103da600e5481565b34801561057657600080fd5b506102ee7f000000000000000000000000000000000000000000000000000000000000000081565b3480156105aa57600080fd5b506105b3611d97565b604051610302919061546e565b3480156105cc57600080fd5b506103da60075481565b3480156105e257600080fd5b506102a6611ec1565b3480156105f757600080fd5b50600d546103259060ff1681565b34801561061157600080fd5b506102a6610620366004615073565b611ef7565b34801561063157600080fd5b506000546001600160a01b03166102ee565b34801561064f57600080fd5b5061035761065e366004615481565b60056020526000908152604090205460ff1681565b34801561067f57600080fd5b5061035761068e366004615481565b6121b3565b34801561069f57600080fd5b506103da60085481565b3480156106b557600080fd5b506103576106c436600461549e565b6121e7565b3480156106d557600080fd5b506103da6106e4366004615541565b61230b565b3480156106f557600080fd5b506103576107043660046155a9565b61275d565b34801561071557600080fd5b50610357610724366004615613565b61293a565b6102a66107373660046151fc565b612a2f565b34801561074857600080fd5b50610357610757366004615635565b612de5565b34801561076857600080fd5b506102ee7f000000000000000000000000000000000000000000000000000000000000000081565b34801561079c57600080fd5b506102ee7f000000000000000000000000000000000000000000000000000000000000000081565b3480156107d057600080fd5b506102ee7f000000000000000000000000000000000000000000000000000000000000000081565b34801561080457600080fd5b506103da61081336600461566a565b612ed5565b34801561082457600080fd5b50610357610833366004615721565b613314565b34801561084457600080fd5b50610357610853366004615073565b6000908152600a602052604090205460ff1690565b34801561087457600080fd5b50610888610883366004615228565b613492565b60408051928352602083019190915201610302565b3480156108a957600080fd5b506102ee7f000000000000000000000000000000000000000000000000000000000000000081565b3480156108dd57600080fd5b506102a66108ec366004615481565b6134bc565b3480156108fd57600080fd5b506103da61090c366004615228565b6001600160a01b039182166000908152600f6020908152604080832093909416825291909152205490565b600080546001600160a01b0316331461096b5760405162461bcd60e51b815260040161096290615806565b60405180910390fd5b6001600160a01b03871660009081526005602052604090205460ff166109b85760405162461bcd60e51b81526020600482015260026024820152610c4d60f21b6044820152606401610962565b6001600160a01b0387166109f35760405162461bcd60e51b8152602060048201526002602482015261313560f01b6044820152606401610962565b60008415610ada5760405160016266faa960e11b031981526001600160a01b0389811660048301528881166024830152604482018790527f0000000000000000000000000000000000000000000000000000000000000000169063ff320aae90606401602060405180830381600087803b158015610a7057600080fd5b505af1158015610a84573d6000803e3d6000fd5b505050506040513d601f19601f82011682018060405250810190610aa8919061583b565b50610ad560007f000000000000000000000000000000000000000000000000000000000000000087613557565b610b02565b84610b0257507f00000000000000000000000000000000000000000000000000000000000000005b7f00000000000000000000000000000000000000000000000000000000000000006001600160a01b0316886001600160a01b03161415610b5f57507f00000000000000000000000000000000000000000000000000000000000000005b610b69818561362d565b610b72836139d7565b610b7d888888613a3f565b506001979650505050505050565b600060026001541415610bb05760405162461bcd60e51b815260040161096290615858565b6002600155600083838281610bc757610bc761588f565b9050602002016020810190610bdc9190615481565b905060008484610bed6001826158bb565b818110610bfc57610bfc61588f565b9050602002016020810190610c119190615481565b6001600160a01b0383166000908152600f60209081526040808320338452909152902054909150871115610c575760405162461bcd60e51b8152600401610962906158d2565b7f00000000000000000000000000000000000000000000000000000000000000006001600160a01b0316826001600160a01b031614610cd35760405162461bcd60e51b815260206004820152601860248201527726bab9ba1039bbb0b810333937b690212a21903a37b5b2b760411b6044820152606401610962565b7f00000000000000000000000000000000000000000000000000000000000000006001600160a01b0316816001600160a01b03161415610d555760405162461bcd60e51b815260206004820152601960248201527f456e64696e6720746f6b656e206d7573742062652077425443000000000000006044820152606401610962565b6001600160a01b03811673eeeeeeeeeeeeeeeeeeeeeeeeeeeeeeeeeeeeeeee1415610dba5760405162461bcd60e51b81526020600482015260156024820152740aae6ca40e0c2e8d040ee84a886405a7c40ee8aa89605b1b6044820152606401610962565b6040516370a0823160e01b81523060048201526000906001600160a01b038316906370a082319060240160206040518083038186803b158015610dfc57600080fd5b505afa158015610e10573d6000803e3d6000fd5b505050506040513d601f19601f82011682018060405250810190610e349190615909565b6001600160a01b0384166000908152600f60209081526040808320338452909152902054909150610e659089613b36565b6001600160a01b0384166000908152600f602090815260408083203384529091529020558a15610ea257610e9d8a8a8a8a8a8a613b49565b610eae565b610eae88888888613c8f565b6040516370a0823160e01b8152306004820152610f329082906001600160a01b038516906370a08231906024015b60206040518083038186803b158015610ef457600080fd5b505afa158015610f08573d6000803e3d6000fd5b505050506040513d601f19601f82011682018060405250810190610f2c9190615909565b90613b36565b935086841015610f545760405162461bcd60e51b815260040161096290615922565b83610f5e57600080fd5b6001600160a01b0382166000908152600f60209081526040808320338452909152902054610f8c9085613dcf565b6001600160a01b039092166000908152600f60209081526040808320338452909152902091909155505060018055979650505050505050565b60026020526000908152604090208054600182018054919291610fe790615959565b80601f016020809104026020016040519081016040528092919081815260200182805461101390615959565b80156110605780601f1061103557610100808354040283529160200191611060565b820191906000526020600020905b81548152906001019060200180831161104357829003601f168201915b505050506002830154600384015460049094015492936001600160a01b039091169290915085565b606060006110a3600454600354613b3690919063ffffffff16565b6001600160401b038111156110ba576110ba614e39565b60405190808252806020026020018201604052801561112957816020015b6111166040518060a00160405280600080191681526020016060815260200160006001600160a01b0316815260200160008152602001600081525090565b8152602001906001900390816110d85790505b50915060006111446001600454613dcf90919063ffffffff16565b90505b6003548111611284576002600061116960045485613dcf90919063ffffffff16565b81526020019081526020016000206040518060a00160405290816000820154815260200160018201805461119c90615959565b80601f01602080910402602001604051908101604052809291908181526020018280546111c890615959565b80156112155780601f106111ea57610100808354040283529160200191611215565b820191906000526020600020905b8154815290600101906020018083116111f857829003601f168201915b505050918352505060028201546001600160a01b0316602082015260038201546040820152600490910154606090910152835184908490811061125a5761125a61588f565b6020908102919091010152611270826001613dcf565b91508061127c8161598e565b915050611147565b505090565b6004546000906112999083613dcf565b905060035481106112a957506003545b60045442905b828110156113cc57816113647f00000000000000000000000000000000000000000000000000000000000000006001600160a01b031663da284dcc6040518163ffffffff1660e01b815260040160206040518083038186803b15801561131457600080fd5b505afa158015611328573d6000803e3d6000fd5b505050506040513d601f19601f8201168201806040525081019061134c9190615909565b60008481526002602052604090206004015490613dcf565b10156113ba576000818152600260205260408120818155906113896001830182614d2b565b506002810180546001600160a01b03191690556000600382018190556004909101556113b6816001613dcf565b6004555b806113c48161598e565b9150506112af565b50505050565b600080546001600160a01b031633146113fd5760405162461bcd60e51b815260040161096290615806565b60006114076114c4565b6001600160a01b03871660009081526005602052604090205490915060ff166114575760405162461bcd60e51b8152602060048201526002602482015261189b60f11b6044820152606401610962565b61146386868686613ddb565b61146c57600080fd5b60019150806114796114c4565b10156114bb5760405162461bcd60e51b8152602060048201526011602482015270496e76616c6964204c505420707269636560781b6044820152606401610962565b50949350505050565b60008060006114f460007f0000000000000000000000000000000000000000000000000000000000000000613492565b9150915060007f00000000000000000000000000000000000000000000000000000000000000006001600160a01b03166318160ddd6040518163ffffffff1660e01b815260040160206040518083038186803b15801561155357600080fd5b505afa158015611567573d6000803e3d6000fd5b505050506040513d601f19601f8201168201806040525081019061158b9190615909565b905080156115d6576115d1816115cb7f00000000000000000000000000000000000000000000000000000000000000006115c58787613dcf565b90614200565b9061420c565b6115da565b6007545b935050505090565b600260015414156116055760405162461bcd60e51b815260040161096290615858565b60026001556001600160a01b0382166000908152600f602090815260408083203384529091529020548111156116745760405162461bcd60e51b8152602060048201526014602482015273496e73756666696369656e742042616c616e636560601b6044820152606401610962565b6001600160a01b0382166000908152600f602090815260408083203384529091529020546116a29082613b36565b6001600160a01b0383166000908152600f60209081526040808320338085529252909120919091556116d690839083613a3f565b6001600160a01b0382166000908152600f60209081526040808320338085529252918290205491517febff2602b3f468259e1e99f613fed6691f3a6526effe6ef3e768ba7ae7a36c4f926117319286929091869142906159a9565b60405180910390a1505060018055565b600260015414156117645760405162461bcd60e51b815260040161096290615858565b60026001553361177c61014083016101208401615481565b6001600160a01b0316146117e95760405162461bcd60e51b815260206004820152602e60248201527f596f752063616e206f6e6c79206578656375746520737761707320746f20796f60448201526d7572206f776e206164647265737360901b6064820152608401610962565b6040810135600f60006117ff6020850185615481565b6001600160a01b03168152602081019190915260400160009081209061182d61014085016101208601615481565b6001600160a01b03166001600160a01b0316815260200190815260200160002054101561186c5760405162461bcd60e51b8152600401610962906158d2565b6001600160a01b037f0000000000000000000000000000000000000000000000000000000000000000166118a36020830183615481565b6001600160a01b03161461190b5760405162461bcd60e51b815260206004820152602960248201527f66726f6d546f6b656e206d7573742062652074686520726571756972656420426044820152682a21ba103a37b5b2b760b91b6064820152608401610962565b61191481614218565b61197b6040820135600f600061192d6020860186615481565b6001600160a01b03168152602081019190915260400160009081209061195b61014086016101208701615481565b6001600160a01b0316815260208101919091526040016000205490613b36565b600f600061198c6020850185615481565b6001600160a01b0316815260208101919091526040016000908120906119ba61014085016101208601615481565b6001600160a01b031681526020810191909152604001600020555060018055565b600080546001600160a01b03163314611a065760405162461bcd60e51b815260040161096290615806565b60065460ff610100909104811690841610801590611a28575060ff8360ff1611155b611a595760405162461bcd60e51b8152602060048201526002602482015261303160f01b6044820152606401610962565b611a646001846159da565b60ff168460ff161015611a9e5760405162461bcd60e51b8152602060048201526002602482015261181960f11b6044820152606401610962565b8451865114611ad45760405162461bcd60e51b8152602060048201526002602482015261303560f01b6044820152606401610962565b611add876134bc565b60005b8651811015611d0757858181518110611afb57611afb61588f565b6020026020010151611c7057600060ff16600b6000898481518110611b2257611b2261588f565b6020908102919091018101516001600160a01b031682528101919091526040016000205460ff161415611b9f57600c878281518110611b6357611b6361588f565b60209081029190910181015182546001810184556000938452919092200180546001600160a01b0319166001600160a01b039092169190911790555b600160ff16600b6000898481518110611bba57611bba61588f565b6020908102919091018101516001600160a01b031682528101919091526040016000205460ff1614611c1357600d805460ff16906000611bf9836159ff565b91906101000a81548160ff021916908360ff160217905550505b6001600b6000898481518110611c2b57611c2b61588f565b60200260200101516001600160a01b03166001600160a01b0316815260200190815260200160002060006101000a81548160ff021916908360ff160217905550611cf5565b600d805460ff16906000611c8383615a1f565b91906101000a81548160ff021916908360ff160217905550506002600b6000898481518110611cb457611cb461588f565b60200260200101516001600160a01b03166001600160a01b0316815260200190815260200160002060006101000a81548160ff021916908360ff1602179055505b80611cff8161598e565b915050611ae0565b50600d54606460ff9091161115611d6a5760405162461bcd60e51b815260206004820152602160248201527f53746f726564206e6f64652073697a652073686f756c64206265203c3d2031306044820152600360fc1b6064820152608401610962565b506006805460ff8481166101000261ffff1990921690861617179055600e81905560019695505050505050565b600d54606090600090819060ff166001600160401b03811115611dbc57611dbc614e39565b604051908082528060200260200182016040528015611de5578160200160208202803683370190505b50905060005b600c54811015611eba57600160ff16600b6000600c8481548110611e1157611e1161588f565b60009182526020808320909101546001600160a01b0316835282019290925260400190205460ff161415611ea857600c8181548110611e5257611e5261588f565b9060005260206000200160009054906101000a90046001600160a01b0316828481518110611e8257611e8261588f565b6001600160a01b039092166020928302919091019091015282611ea48161598e565b9350505b80611eb28161598e565b915050611deb565b5092915050565b6000546001600160a01b03163314611eeb5760405162461bcd60e51b815260040161096290615806565b611ef56000614350565b565b60026001541415611f1a5760405162461bcd60e51b815260040161096290615858565b60026001556001600160a01b037f0000000000000000000000000000000000000000000000000000000000000000166000908152600f60209081526040808320338452909152902054811115611f6f57600080fd5b604051632e1a7d4d60e01b8152600481018290527f00000000000000000000000000000000000000000000000000000000000000006001600160a01b031690632e1a7d4d90602401600060405180830381600087803b158015611fd157600080fd5b505af1158015611fe5573d6000803e3d6000fd5b5050506001600160a01b037f0000000000000000000000000000000000000000000000000000000000000000166000908152600f60209081526040808320338452909152902054612037915082613b36565b7f00000000000000000000000000000000000000000000000000000000000000006001600160a01b03166000908152600f60209081526040808320338085529252808320939093559151829084908381818185875af1925050503d80600081146120bd576040519150601f19603f3d011682016040523d82523d6000602084013e6120c2565b606091505b50509050806121135760405162461bcd60e51b815260206004820152601e60248201527f72656365697665722072656a656374656420455448207472616e7366657200006044820152606401610962565b6001600160a01b037f0000000000000000000000000000000000000000000000000000000000000000166000908152600f60209081526040808320338085529252918290205491517febff2602b3f468259e1e99f613fed6691f3a6526effe6ef3e768ba7ae7a36c4f926121a29273eeeeeeeeeeeeeeeeeeeeeeeeeeeeeeeeeeeeeeee929091889142906159a9565b60405180910390a150506001805550565b6001600160a01b0381166000908152600b602052604081205460ff16600114156121df57506001919050565b506000919050565b600080546001600160a01b031633146122125760405162461bcd60e51b815260040161096290615806565b8361221c57600080fd5b8261222657600080fd5b61225260007f000000000000000000000000000000000000000000000000000000000000000086613557565b6001600160a01b037f000000000000000000000000000000000000000000000000000000000000000081166000908152600f60209081526040808320938916835292905220546122a29085613dcf565b6001600160a01b037f000000000000000000000000000000000000000000000000000000000000000081166000908152600f60209081526040808320938a168352929052908120919091556122f7908461362d565b612300826139d7565b506001949350505050565b6000600260015414156123305760405162461bcd60e51b815260040161096290615858565b60026001556001600160a01b037f00000000000000000000000000000000000000000000000000000000000000001661236c6020840184615481565b6001600160a01b031614156123c35760405162461bcd60e51b815260206004820152601c60248201527f4d757374206e6f7420737761702066726f6d2042544320746f6b656e000000006044820152606401610962565b6001600160a01b037f0000000000000000000000000000000000000000000000000000000000000000166123fd6040840160208501615481565b6001600160a01b03161461244c5760405162461bcd60e51b815260206004820152601660248201527526bab9ba1039bbb0b8103a3790212a21903a37b5b2b760511b6044820152606401610962565b3061245f61014084016101208501615481565b6001600160a01b0316146124bf5760405162461bcd60e51b815260206004820152602160248201527f42656e6566696369617279206d757374206265207468697320636f6e747261636044820152601d60fa1b6064820152608401610962565b6040820135600f60006124d56020860186615481565b6001600160a01b0316815260208082019290925260409081016000908120338252909252902054101561251a5760405162461bcd60e51b8152600401610962906158d2565b600061252c6040840160208501615481565b6040516370a0823160e01b81523060048201526001600160a01b0391909116906370a082319060240160206040518083038186803b15801561256d57600080fd5b505afa158015612581573d6000803e3d6000fd5b505050506040513d601f19601f820116820180604052508101906125a59190615909565b90506125ed6040840135600f60006125c06020880188615481565b6001600160a01b031681526020808201929092526040908101600090812033825290925290205490613b36565b600f60006125fe6020870187615481565b6001600160a01b031681526020808201929092526040908101600090812033825290925290205561262e83614218565b612670816126426040860160208701615481565b6040516370a0823160e01b81523060048201526001600160a01b0391909116906370a0823190602401610edc565b915082608001358210156126965760405162461bcd60e51b815260040161096290615922565b7f00000000000000000000000000000000000000000000000000000000000000006001600160a01b0316631411c5b76040518163ffffffff1660e01b815260040160206040518083038186803b1580156126ef57600080fd5b505afa158015612703573d6000803e3d6000fd5b505050506040513d601f19601f820116820180604052508101906127279190615909565b8210156127465760405162461bcd60e51b815260040161096290615a3c565b6127518585846143a0565b50600180559392505050565b600080546001600160a01b031633146127885760405162461bcd60e51b815260040161096290615806565b8361279257600080fd5b8261279c57600080fd5b6127c860007f000000000000000000000000000000000000000000000000000000000000000086613557565b6127d360008461362d565b6127dc826139d7565b60005b855181101561292e576128a98682815181106127fd576127fd61588f565b602002602001015160a01c6bffffffffffffffffffffffff16600f60007f00000000000000000000000000000000000000000000000000000000000000006001600160a01b03166001600160a01b03168152602001908152602001600020600089858151811061286f5761286f61588f565b602002602001015160001c6001600160a01b03166001600160a01b0316815260200190815260200160002054613dcf90919063ffffffff16565b6001600160a01b037f0000000000000000000000000000000000000000000000000000000000000000166000908152600f6020526040812088519091908990859081106128f8576128f861588f565b6020908102919091018101516001600160a01b0316825281019190915260400160002055806129268161598e565b9150506127df565b50600195945050505050565b600080546001600160a01b031633146129655760405162461bcd60e51b815260040161096290615806565b6000828152600a602052604090205460ff16156129c45760405162461bcd60e51b815260206004820152601860248201527f546865207478696420697320616c7265616479207573656400000000000000006044820152606401610962565b604080518082019091526002815261189960f11b6020808301919091526000805260099052600080516020615f8a83398151915254612a0491859061452c565b600080526009602052600080516020615f8a83398151915255612a2682614558565b50600192915050565b60026001541415612a525760405162461bcd60e51b815260040161096290615858565b600260015534612c7c576001600160a01b03821673eeeeeeeeeeeeeeeeeeeeeeeeeeeeeeeeeeeeeeee1415612a8657600080fd5b7f00000000000000000000000000000000000000000000000000000000000000006001600160a01b0316826001600160a01b03161415612ac557600080fd5b6040516370a0823160e01b81523060048201526000906001600160a01b038416906370a082319060240160206040518083038186803b158015612b0757600080fd5b505afa158015612b1b573d6000803e3d6000fd5b505050506040513d601f19601f82011682018060405250810190612b3f9190615909565b9050612b566001600160a01b038416333085614573565b6040516370a0823160e01b81523060048201526000906001600160a01b038516906370a082319060240160206040518083038186803b158015612b9857600080fd5b505afa158015612bac573d6000803e3d6000fd5b505050506040513d601f19601f82011682018060405250810190612bd09190615909565b90506000612bde8284613b36565b6001600160a01b0386166000908152600f60209081526040808320338452909152902054909150612c0f9082613dcf565b6001600160a01b0386166000908152600f602090815260408083203380855292529182902083905590517f4e2ca0515ed1aef1395f66b5303bb5d6f1bf9d61a353fa53f73f8ac9973fa9f692612c6c9289929091869142906159a9565b60405180910390a1505050612ddd565b60003411612c8957600080fd5b7f00000000000000000000000000000000000000000000000000000000000000006001600160a01b031663d0e30db0346040518263ffffffff1660e01b81526004016000604051808303818588803b158015612ce457600080fd5b505af1158015612cf8573d6000803e3d6000fd5b5050506001600160a01b037f0000000000000000000000000000000000000000000000000000000000000000166000908152600f60209081526040808320338452909152902054612d4c9250905034613dcf565b7f00000000000000000000000000000000000000000000000000000000000000006001600160a01b03166000908152600f602090815260408083203380855292529182902083905590517f4e2ca0515ed1aef1395f66b5303bb5d6f1bf9d61a353fa53f73f8ac9973fa9f6926117319273eeeeeeeeeeeeeeeeeeeeeeeeeeeeeeeeeeeeeeee929091349142906159a9565b505060018055565b600080546001600160a01b03163314612e105760405162461bcd60e51b815260040161096290615806565b6000612e1a6114c4565b6001600160a01b03861660009081526005602052604090205490915060ff16612e6a5760405162461bcd60e51b8152602060048201526002602482015261189b60f11b6044820152606401610962565b612e758585856145de565b612e7e57600080fd5b6001915080612e8b6114c4565b1015612ecd5760405162461bcd60e51b8152602060048201526011602482015270496e76616c6964204c505420707269636560781b6044820152606401610962565b509392505050565b600060026001541415612efa5760405162461bcd60e51b815260040161096290615858565b6002600155600083838281612f1157612f1161588f565b9050602002016020810190612f269190615481565b905060008484612f376001826158bb565b818110612f4657612f4661588f565b9050602002016020810190612f5b9190615481565b6001600160a01b0383166000908152600f60209081526040808320338452909152902054909150871115612fa15760405162461bcd60e51b8152600401610962906158d2565b7f00000000000000000000000000000000000000000000000000000000000000006001600160a01b0316826001600160a01b0316141561301e5760405162461bcd60e51b815260206004820152601860248201527726bab9ba1039bbb0b810333937b690212a21903a37b5b2b760411b6044820152606401610962565b6001600160a01b03821673eeeeeeeeeeeeeeeeeeeeeeeeeeeeeeeeeeeeeeee14156130835760405162461bcd60e51b815260206004820152601560248201527455736520706174682077455448202d3e207742544360581b6044820152606401610962565b7f00000000000000000000000000000000000000000000000000000000000000006001600160a01b0316816001600160a01b0316146130fd5760405162461bcd60e51b815260206004820152601660248201527526bab9ba1039bbb0b8103a3790212a21903a37b5b2b760511b6044820152606401610962565b6040516370a0823160e01b81523060048201526000906001600160a01b038316906370a082319060240160206040518083038186803b15801561313f57600080fd5b505afa158015613153573d6000803e3d6000fd5b505050506040513d601f19601f820116820180604052508101906131779190615909565b6001600160a01b0384166000908152600f602090815260408083203384529091529020549091506131a89089613b36565b6001600160a01b0384166000908152600f602090815260408083203384529091529020558a156131e5576131e08a8a8a8a8a8a613b49565b6131f1565b6131f188888888613c8f565b6040516370a0823160e01b81523060048201526132239082906001600160a01b038516906370a0823190602401610edc565b9350868410156132455760405162461bcd60e51b815260040161096290615922565b7f00000000000000000000000000000000000000000000000000000000000000006001600160a01b0316631411c5b76040518163ffffffff1660e01b815260040160206040518083038186803b15801561329e57600080fd5b505afa1580156132b2573d6000803e3d6000fd5b505050506040513d601f19601f820116820180604052508101906132d69190615909565b8410156132f55760405162461bcd60e51b815260040161096290615a3c565b6133008d8d866143a0565b505050600180559998505050505050505050565b600080546001600160a01b0316331461333f5760405162461bcd60e51b815260040161096290615806565b7f0000000000000000000000000000000000000000000000000000000000000000871561345857600061337688610f2c8b8a613b36565b6040516349e031a560e01b81529091506001600160a01b037f000000000000000000000000000000000000000000000000000000000000000016906349e031a5906133ca906000908a908a90600401615a90565b602060405180830381600087803b1580156133e457600080fd5b505af11580156133f8573d6000803e3d6000fd5b505050506040513d601f19601f8201168201806040525081019061341c919061583b565b506134527f0000000000000000000000000000000000000000000000000000000000000000600061344d848c613dcf565b613557565b50613461565b87613461575060005b61346b818761362d565b8215610b7d57610b7d600080526009602052600080516020615f8a83398151915254600855565b6001600160a01b039182166000908152600960205260408082205492909316815291909120549091565b6000546001600160a01b031633146134e65760405162461bcd60e51b815260040161096290615806565b6001600160a01b03811661354b5760405162461bcd60e51b815260206004820152602660248201527f4f776e61626c653a206e6577206f776e657220697320746865207a65726f206160448201526564647265737360d01b6064820152608401610962565b61355481614350565b50565b6040805180820182526002815261313160f01b6020808301919091526001600160a01b03851660009081526009909152919091205461359791839061452c565b6001600160a01b0380841660009081526009602052604080822093909355908516815220546135c69082613dcf565b6001600160a01b038481166000818152600960209081526040918290209490945580519182529185169281019290925281018290527fea368a40e9570069bb8e6511d668293ad2e1f03b0d982431fd223de9f3b70ca69060600160405180910390a1505050565b80613636575050565b7f00000000000000000000000000000000000000000000000000000000000000006001600160a01b0316826001600160a01b031614156137875760405163a9059cbb60e01b81526001600160a01b037f000000000000000000000000000000000000000000000000000000000000000081166004830152602482018390527f0000000000000000000000000000000000000000000000000000000000000000169063a9059cbb90604401602060405180830381600087803b1580156136fa57600080fd5b505af115801561370e573d6000803e3d6000fd5b505050506040513d601f19601f82011682018060405250810190613732919061583b565b50604080516001600160a01b0384168152600060208201819052818301849052606082015290517fe3debe835f6848edc082b32a1d729781d3bfcd7e14422d80bcaa6794d3816b2f9181900360800190a15050565b60006137916114c4565b6001600160a01b0384166000908152600960205260409020549091506137b79083613dcf565b60096000856001600160a01b03166001600160a01b0316815260200190815260200160002081905550600061388560646115cb7f00000000000000000000000000000000000000000000000000000000000000006001600160a01b0316630b68134d6040518163ffffffff1660e01b815260040160206040518083038186803b15801561384357600080fd5b505afa158015613857573d6000803e3d6000fd5b505050506040513d601f19601f8201168201806040525081019061387b9190615ae8565b869060ff16614200565b905060006138b7836115cb847f0000000000000000000000000000000000000000000000000000000000000000614200565b6040516340c10f1960e01b81526001600160a01b037f000000000000000000000000000000000000000000000000000000000000000081166004830152602482018390529192507f0000000000000000000000000000000000000000000000000000000000000000909116906340c10f1990604401602060405180830381600087803b15801561394657600080fd5b505af115801561395a573d6000803e3d6000fd5b505050506040513d601f19601f8201168201806040525081019061397e919061583b565b50604080516001600160a01b038716815260208101869052908101829052606081018490527fe3debe835f6848edc082b32a1d729781d3bfcd7e14422d80bcaa6794d3816b2f9060800160405180910390a15050505050565b60005b8151811015613a3b576001600a60008484815181106139fb576139fb61588f565b6020026020010151815260200190815260200160002060006101000a81548160ff0219169083151502179055508080613a339061598e565b9150506139da565b5050565b7f00000000000000000000000000000000000000000000000000000000000000006001600160a01b0316836001600160a01b03161415613aa657613aa3817f0000000000000000000000000000000000000000000000000000000000000000614200565b90505b60405163a9059cbb60e01b81526001600160a01b0383811660048301526024820183905284169063a9059cbb90604401602060405180830381600087803b158015613af057600080fd5b505af1158015613b04573d6000803e3d6000fd5b505050506040513d601f19601f82011682018060405250810190613b28919061583b565b613b3157600080fd5b505050565b6000613b4282846158bb565b9392505050565b600082826000818110613b5e57613b5e61588f565b9050602002016020810190613b739190615481565b9050600073def171fe48cf0115b1d80b88dc8eab59176fee576001600160a01b031663d2c4b5986040518163ffffffff1660e01b815260040160206040518083038186803b158015613bc457600080fd5b505afa158015613bd8573d6000803e3d6000fd5b505050506040513d601f19601f82011682018060405250810190613bfc9190615b05565b9050613c126001600160a01b0383168288614854565b604051633d59840d60e21b815273def171fe48cf0115b1d80b88dc8eab59176fee579063f566103490613c53908b908b908b908b908b908b90600401615b60565b600060405180830381600087803b158015613c6d57600080fd5b505af1158015613c81573d6000803e3d6000fd5b505050505050505050505050565b600082826000818110613ca457613ca461588f565b9050602002016020810190613cb99190615481565b9050600073def171fe48cf0115b1d80b88dc8eab59176fee576001600160a01b031663d2c4b5986040518163ffffffff1660e01b815260040160206040518083038186803b158015613d0a57600080fd5b505afa158015613d1e573d6000803e3d6000fd5b505050506040513d601f19601f82011682018060405250810190613d429190615b05565b9050613d586001600160a01b0383168288614854565b604051632a42068d60e11b815273def171fe48cf0115b1d80b88dc8eab59176fee57906354840d1a90613d95908990899089908990600401615ba0565b600060405180830381600087803b158015613daf57600080fd5b505af1158015613dc3573d6000803e3d6000fd5b50505050505050505050565b6000613b428284615bca565b6000818152600a602052604081205460ff1615613e1f5760405162461bcd60e51b8152602060048201526002602482015261181b60f11b6044820152606401610962565b83613e515760405162461bcd60e51b8152602060048201526002602482015261303760f01b6044820152606401610962565b8360a081901c6000613e616114c4565b90506000613e937f00000000000000000000000000000000000000000000000000000000000000006115cb8585614200565b90506000613f3b6127106115cb7f00000000000000000000000000000000000000000000000000000000000000006001600160a01b031663b6268e5d6040518163ffffffff1660e01b815260040160206040518083038186803b158015613ef957600080fd5b505afa158015613f0d573d6000803e3d6000fd5b505050506040513d601f19601f82011682018060405250810190613f319190615ae8565b859060ff16614200565b905087613f488383613b36565b1015613f7b5760405162461bcd60e51b8152602060048201526002602482015261303960f01b6044820152606401610962565b6000613f8b89610f2c8585613b36565b9050600080613fbb60007f0000000000000000000000000000000000000000000000000000000000000000613492565b90925090506001600160a01b038d1661401157613fd88585613b36565b82101561400c5760405162461bcd60e51b8152602060048201526002602482015261060760f31b6044820152606401610962565b614089565b7f00000000000000000000000000000000000000000000000000000000000000006001600160a01b03168d6001600160a01b03161415614089576140558585613b36565b8110156140895760405162461bcd60e51b8152602060048201526002602482015261189960f11b6044820152606401610962565b6140938d8561362d565b61409d8d86614915565b6140a68a614558565b7f00000000000000000000000000000000000000000000000000000000000000006001600160a01b03168d6001600160a01b031614156140eb576140eb8d8985613a3f565b604051630852cd8d60e31b8152600481018890527f00000000000000000000000000000000000000000000000000000000000000006001600160a01b0316906342966c6890602401602060405180830381600087803b15801561414d57600080fd5b505af1158015614161573d6000803e3d6000fd5b505050506040513d601f19601f82011682018060405250810190614185919061583b565b61418e57600080fd5b604080516001600160a01b038a16815260208101899052908101869052606081018790526080810184905260a081018b90527fa9da34e5e4a956b744307ae7611795634e8365951073bf049d76b64b2ae7a0589060c00160405180910390a15060019c9b505050505050505050505050565b6000613b428284615be2565b6000613b428284615c01565b600073def171fe48cf0115b1d80b88dc8eab59176fee576001600160a01b031663d2c4b5986040518163ffffffff1660e01b815260040160206040518083038186803b15801561426757600080fd5b505afa15801561427b573d6000803e3d6000fd5b505050506040513d601f19601f8201168201806040525081019061429f9190615b05565b90506142c78160408401356142b76020860186615481565b6001600160a01b03169190614854565b6040516354e3f31b60e01b815273def171fe48cf0115b1d80b88dc8eab59176fee57906354e3f31b906142fe908590600401615d27565b602060405180830381600087803b15801561431857600080fd5b505af115801561432c573d6000803e3d6000fd5b505050506040513d601f19601f82011682018060405250810190613b319190615909565b600080546001600160a01b038381166001600160a01b0319831681178455604051919092169283917f8be0079c531659141344cd1fd0a4f28419497f9722a3daafe3b4186f6b6457e09190a35050565b60007f0000000000000000000000000000000000000000000000000000000000000000600354858585426040516020016143df96959493929190615edd565b6040516020818303038152906040528051906020012090506040518060a0016040528082815260200185858080601f01602080910402602001604051908101604052809392919081815260200183838082843760009201829052509385525050336020808501919091526040808501889052426060909501949094526003548352600281529290912083518155838301518051919361448693506001850192910190614d65565b5060408201516002820180546001600160a01b0319166001600160a01b03909216919091179055606082015160038201556080909101516004909101556144cb614975565b6003546144d9906001613dcf565b6003556144e582614a69565b7faaa4c278970337923c885845b00985ecf5082317e2f9abf72a27b4d35255d67281858533864260405161451e96959493929190615f19565b60405180910390a150505050565b600081848411156145505760405162461bcd60e51b81526004016109629190615f5a565b505050900390565b6000908152600a60205260409020805460ff19166001179055565b6040516001600160a01b03808516602483015283166044820152606481018290526113cc9085906323b872dd60e01b906084015b60408051601f198184030181529190526020810180516001600160e01b03166001600160e01b031990931692909217909152614abe565b6000818152600a602052604081205460ff16156146225760405162461bcd60e51b8152602060048201526002602482015261181b60f11b6044820152606401610962565b826146545760405162461bcd60e51b8152602060048201526002602482015261303760f01b6044820152606401610962565b8260a081901c60006146646114c4565b90506000614696826115cb857f0000000000000000000000000000000000000000000000000000000000000000614200565b6040516340c10f1960e01b81526001600160a01b038681166004830152602482018390529192507f0000000000000000000000000000000000000000000000000000000000000000909116906340c10f1990604401602060405180830381600087803b15801561470557600080fd5b505af1158015614719573d6000803e3d6000fd5b505050506040513d601f19601f8201168201806040525081019061473d919061583b565b506147488884614b90565b61475186614558565b7fdfaf4e23f7030adafec91a682e05bf9fb30c721f9cec3d8bcfae0459c5362db1848483857f00000000000000000000000000000000000000000000000000000000000000006001600160a01b031663424192556040518163ffffffff1660e01b815260040160206040518083038186803b1580156147cf57600080fd5b505afa1580156147e3573d6000803e3d6000fd5b505050506040513d601f19601f820116820180604052508101906148079190615ae8565b604080516001600160a01b039096168652602086019490945292840191909152606083015260ff16608082015260a0810188905260c00160405180910390a1506001979650505050505050565b604051636eb1769f60e11b81523060048201526001600160a01b038381166024830152600091839186169063dd62ed3e9060440160206040518083038186803b1580156148a057600080fd5b505afa1580156148b4573d6000803e3d6000fd5b505050506040513d601f19601f820116820180604052508101906148d89190615909565b6148e29190615bca565b6040516001600160a01b0385166024820152604481018290529091506113cc90859063095ea7b360e01b906064016145a7565b6040805180820182526002815261031360f41b6020808301919091526001600160a01b03851660009081526009909152919091205461495591839061452c565b6001600160a01b0390921660009081526009602052604090209190915550565b60045460009061498690600a613dcf565b9050600354811061499657506003545b60045442905b82811015613b315781614a017f00000000000000000000000000000000000000000000000000000000000000006001600160a01b031663da284dcc6040518163ffffffff1660e01b815260040160206040518083038186803b15801561131457600080fd5b1015614a5757600081815260026020526040812081815590614a266001830182614d2b565b506002810180546001600160a01b0319169055600060038201819055600490910155614a53816001613dcf565b6004555b80614a618161598e565b91505061499c565b600854614a9157614a91600080526009602052600080516020615f8a83398151915254600855565b604080518082019091526002815261189960f11b6020820152600854614ab891839061452c565b60085550565b6000614b13826040518060400160405280602081526020017f5361666545524332303a206c6f772d6c6576656c2063616c6c206661696c6564815250856001600160a01b0316614bb39092919063ffffffff16565b805190915015613b315780806020019051810190614b31919061583b565b613b315760405162461bcd60e51b815260206004820152602a60248201527f5361666545524332303a204552433230206f7065726174696f6e20646964206e6044820152691bdd081cdd58d8d9595960b21b6064820152608401610962565b6001600160a01b0382166000908152600960205260409020546149559082613dcf565b6060614bc28484600085614bca565b949350505050565b606082471015614c2b5760405162461bcd60e51b815260206004820152602660248201527f416464726573733a20696e73756666696369656e742062616c616e636520666f6044820152651c8818d85b1b60d21b6064820152608401610962565b843b614c795760405162461bcd60e51b815260206004820152601d60248201527f416464726573733a2063616c6c20746f206e6f6e2d636f6e74726163740000006044820152606401610962565b600080866001600160a01b03168587604051614c959190615f6d565b60006040518083038185875af1925050503d8060008114614cd2576040519150601f19603f3d011682016040523d82523d6000602084013e614cd7565b606091505b5091509150614ce7828286614cf2565b979650505050505050565b60608315614d01575081613b42565b825115614d115782518084602001fd5b8160405162461bcd60e51b81526004016109629190615f5a565b508054614d3790615959565b6000825580601f10614d47575050565b601f0160209004906000526020600020908101906135549190614de9565b828054614d7190615959565b90600052602060002090601f016020900481019282614d935760008555614dd9565b82601f10614dac57805160ff1916838001178555614dd9565b82800160010185558215614dd9579182015b82811115614dd9578251825591602001919060010190614dbe565b50614de5929150614de9565b5090565b5b80821115614de55760008155600101614dea565b634e487b7160e01b600052600160045260246000fd5b6001600160a01b038116811461355457600080fd5b8035614e3481614e14565b919050565b634e487b7160e01b600052604160045260246000fd5b604051601f8201601f191681016001600160401b0381118282101715614e7757614e77614e39565b604052919050565b60006001600160401b03821115614e9857614e98614e39565b5060051b60200190565b600082601f830112614eb357600080fd5b81356020614ec8614ec383614e7f565b614e4f565b82815260059290921b84018101918181019086841115614ee757600080fd5b8286015b84811015614f025780358352918301918301614eeb565b509695505050505050565b60008060008060008060c08789031215614f2657600080fd5b8635614f3181614e14565b95506020870135614f4181614e14565b945060408701359350606087013592506080870135915060a08701356001600160401b03811115614f7157600080fd5b614f7d89828a01614ea2565b9150509295509295509295565b801515811461355457600080fd5b8035614e3481614f8a565b60008083601f840112614fb557600080fd5b5081356001600160401b03811115614fcc57600080fd5b6020830191508360208260051b8501011115614fe757600080fd5b9250929050565b600080600080600080600060c0888a03121561500957600080fd5b873561501481614f8a565b9650602088013561502481614e14565b955060408801359450606088013593506080880135925060a08801356001600160401b0381111561505457600080fd5b6150608a828b01614fa3565b989b979a50959850939692959293505050565b60006020828403121561508557600080fd5b5035919050565b60005b838110156150a757818101518382015260200161508f565b838111156113cc5750506000910152565b600081518084526150d081602086016020860161508c565b601f01601f19169290920160200192915050565b85815260a0602082015260006150fd60a08301876150b8565b6001600160a01b0395909516604083015250606081019290925260809091015292915050565b60006020808301818452808551808352604092508286019150828160051b87010184880160005b838110156151b357603f19898403018552815160a08151855288820151818a870152615178828701826150b8565b838a01516001600160a01b0316878b01526060808501519088015260809384015193909601929092525050938601939086019060010161514a565b509098975050505050505050565b600080600080608085870312156151d757600080fd5b84356151e281614e14565b966020860135965060408601359560600135945092505050565b6000806040838503121561520f57600080fd5b823561521a81614e14565b946020939093013593505050565b6000806040838503121561523b57600080fd5b823561524681614e14565b9150602083013561525681614e14565b809150509250929050565b60006101e0828403121561527457600080fd5b50919050565b60006020828403121561528c57600080fd5b81356001600160401b038111156152a257600080fd5b614bc284828501615261565b600082601f8301126152bf57600080fd5b813560206152cf614ec383614e7f565b82815260059290921b840181019181810190868411156152ee57600080fd5b8286015b84811015614f0257803561530581614e14565b83529183019183016152f2565b60ff8116811461355457600080fd5b8035614e3481615312565b60008060008060008060c0878903121561534557600080fd5b863561535081614e14565b95506020878101356001600160401b038082111561536d57600080fd5b6153798b838c016152ae565b975060408a013591508082111561538f57600080fd5b508801601f81018a136153a157600080fd5b80356153af614ec382614e7f565b81815260059190911b8201830190838101908c8311156153ce57600080fd5b928401925b828410156153f55783356153e681614f8a565b825292840192908401906153d3565b809850505050505061540960608801615321565b925061541760808801615321565b915060a087013590509295509295509295565b600081518084526020808501945080840160005b838110156154635781516001600160a01b03168752958201959082019060010161543e565b509495945050505050565b602081526000613b42602083018461542a565b60006020828403121561549357600080fd5b8135613b4281614e14565b600080600080608085870312156154b457600080fd5b84356154bf81614e14565b9350602085013592506040850135915060608501356001600160401b038111156154e857600080fd5b6154f487828801614ea2565b91505092959194509250565b60008083601f84011261551257600080fd5b5081356001600160401b0381111561552957600080fd5b602083019150836020828501011115614fe757600080fd5b60008060006040848603121561555657600080fd5b83356001600160401b038082111561556d57600080fd5b61557987838801615500565b9095509350602086013591508082111561559257600080fd5b5061559f86828701615261565b9150509250925092565b600080600080608085870312156155bf57600080fd5b84356001600160401b03808211156155d657600080fd5b6155e288838901614ea2565b95506020870135945060408701359350606087013591508082111561560657600080fd5b506154f487828801614ea2565b6000806040838503121561562657600080fd5b50508035926020909101359150565b60008060006060848603121561564a57600080fd5b833561565581614e14565b95602085013595506040909401359392505050565b600080600080600080600080600060e08a8c03121561568857600080fd5b89356001600160401b038082111561569f57600080fd5b6156ab8d838e01615500565b909b50995060208c013591506156c082614f8a565b90975060408b0135906156d282614e14565b90965060608b0135955060808b0135945060a08b0135935060c08b013590808211156156fd57600080fd5b5061570a8c828d01614fa3565b915080935050809150509295985092959850929598565b60008060008060008060c0878903121561573a57600080fd5b8635955060208088013595506040880135945060608801356001600160401b038082111561576757600080fd5b6157738b838c016152ae565b955060808a013591508082111561578957600080fd5b508801601f81018a1361579b57600080fd5b80356157a9614ec382614e7f565b81815260059190911b8201830190838101908c8311156157c857600080fd5b928401925b828410156157e6578335825292840192908401906157cd565b80965050505050506157fa60a08801614f98565b90509295509295509295565b6020808252818101527f4f776e61626c653a2063616c6c6572206973206e6f7420746865206f776e6572604082015260600190565b60006020828403121561584d57600080fd5b8151613b4281614f8a565b6020808252601f908201527f5265656e7472616e637947756172643a207265656e7472616e742063616c6c00604082015260600190565b634e487b7160e01b600052603260045260246000fd5b634e487b7160e01b600052601160045260246000fd5b6000828210156158cd576158cd6158a5565b500390565b60208082526019908201527f42616c616e6365206973206e6f742073756666696369656e7400000000000000604082015260600190565b60006020828403121561591b57600080fd5b5051919050565b6020808252601c908201527f526563656976656420616d6f756e7420696e73756666696369656e7400000000604082015260600190565b600181811c9082168061596d57607f821691505b6020821081141561527457634e487b7160e01b600052602260045260246000fd5b60006000198214156159a2576159a26158a5565b5060010190565b6001600160a01b03958616815293909416602084015260408301919091526060820152608081019190915260a00190565b600060ff821660ff84168060ff038211156159f7576159f76158a5565b019392505050565b600060ff821660ff811415615a1657615a166158a5565b60010192915050565b600060ff821680615a3257615a326158a5565b6000190192915050565b60208082526034908201527f526563656976656420616d6f756e7420686173206e6f74206d657420746865206040820152736d696e20666f7220464c4f57203220737761707360601b606082015260800190565b6001600160a01b038416815260606020808301829052600091615ab59084018661542a565b838103604085015284518082528286019183019060005b818110156151b357835183529284019291840191600101615acc565b600060208284031215615afa57600080fd5b8151613b4281615312565b600060208284031215615b1757600080fd5b8151613b4281614e14565b8183526000602080850194508260005b85811015615463578135615b4581614e14565b6001600160a01b031687529582019590820190600101615b32565b60018060a01b038716815285602082015284604082015283606082015260a060808201526000615b9460a083018486615b22565b98975050505050505050565b848152836020820152606060408201526000615bc0606083018486615b22565b9695505050505050565b60008219821115615bdd57615bdd6158a5565b500190565b6000816000190483118215151615615bfc57615bfc6158a5565b500290565b600082615c1e57634e487b7160e01b600052601260045260246000fd5b500490565b6000808335601e19843603018112615c3a57600080fd5b83016020810192503590506001600160401b03811115615c5957600080fd5b8060051b3603831315614fe757600080fd5b6000808335601e19843603018112615c8257600080fd5b83016020810192503590506001600160401b03811115615ca157600080fd5b803603831315614fe757600080fd5b81835281816020850137506000828201602090810191909152601f909101601f19169091010190565b81835260006001600160fb1b03831115615cf257600080fd5b8260051b8083602087013760009401602001938452509192915050565b80356001600160801b031981168114614e3457600080fd5b60208152615d4860208201615d3b84614e29565b6001600160a01b03169052565b6000615d5660208401614e29565b6001600160a01b0381166040840152506040830135606083015260608301356080830152608083013560a0830152615d9160a0840184615c23565b6101e08060c0860152615da961020086018385615b22565b9250615db860c0870187615c6b565b9250601f19808786030160e0880152615dd2858584615cb0565b9450615de160e0890189615c23565b94509150610100818887030181890152615dfc868685615cd9565b9550615e0a818a018a615c23565b9550925050610120818887030181890152615e26868685615cd9565b9550615e33818a01614e29565b9450506101409150615e4f828801856001600160a01b03169052565b615e5a828901614e29565b93506101609150615e75828801856001600160a01b03169052565b61018093508188013584880152615e8e84890189615c6b565b945091506101a0818887030181890152615ea9868685615cb0565b95506101c094508089013585890152505050615ec6828701615d0f565b6001600160801b0319169401939093529392505050565b6bffffffffffffffffffffffff198760601b16815285601482015283856034830137603493019283019190915260548201526074019392505050565b86815260a060208201526000615f3360a083018789615cb0565b6001600160a01b039590951660408301525060608101929092526080909101529392505050565b602081526000613b4260208301846150b8565b60008251615f7f81846020870161508c565b919091019291505056feec8156718a8372b1db44bb411437d0870f3e3790d4a08526d024ce1b0b668f6ba26469706673582212205933bb77404b82806790121095fa4c8631af46446c9ed1badbe9563370de469664736f6c63430008090033",
  "linkReferences": {},
  "deployedLinkReferences": {}
}