{
  "_format": "hh-sol-artifact-1",
  "contractName": "SwapContract",
  "sourceName": "contracts/SwapContract.sol",
  "abi": [
    {
      "inputs": [
        {
          "internalType": "address",
          "name": "_lpToken",
          "type": "address"
        },
        {
          "internalType": "address",
          "name": "_btct",
          "type": "address"
        },
        {
          "internalType": "address",
          "name": "_wETH",
          "type": "address"
        },
        {
          "internalType": "uint256",
          "name": "_existingBTCFloat",
          "type": "uint256"
        }
      ],
      "stateMutability": "nonpayable",
      "type": "constructor"
    },
    {
      "anonymous": false,
      "inputs": [
        {
          "indexed": false,
          "internalType": "address",
          "name": "token",
          "type": "address"
        },
        {
          "indexed": false,
          "internalType": "uint256",
          "name": "amountOfLP",
          "type": "uint256"
        },
        {
          "indexed": false,
          "internalType": "uint256",
          "name": "amountOfFloat",
          "type": "uint256"
        },
        {
          "indexed": false,
          "internalType": "uint256",
          "name": "currentPriceLP",
          "type": "uint256"
        },
        {
          "indexed": false,
          "internalType": "uint256",
          "name": "withdrawal",
          "type": "uint256"
        },
        {
          "indexed": false,
          "internalType": "bytes32",
          "name": "txid",
          "type": "bytes32"
        }
      ],
      "name": "BurnLPTokensForFloat",
      "type": "event"
    },
    {
      "anonymous": false,
      "inputs": [
        {
          "indexed": false,
          "internalType": "address",
          "name": "token",
          "type": "address"
        },
        {
          "indexed": false,
          "internalType": "address",
          "name": "user",
          "type": "address"
        },
        {
          "indexed": false,
          "internalType": "uint256",
          "name": "amount",
          "type": "uint256"
        },
        {
          "indexed": false,
          "internalType": "uint256",
          "name": "balance",
          "type": "uint256"
        },
        {
          "indexed": false,
          "internalType": "uint256",
          "name": "Timestamp",
          "type": "uint256"
        }
      ],
      "name": "Deposit",
      "type": "event"
    },
    {
      "anonymous": false,
      "inputs": [
        {
          "indexed": false,
          "internalType": "uint256",
          "name": "rewardLPTsForNodes",
          "type": "uint256"
        }
      ],
      "name": "DistributeNodeRewards",
      "type": "event"
    },
    {
      "anonymous": false,
      "inputs": [
        {
          "indexed": false,
          "internalType": "address",
          "name": "to",
          "type": "address"
        },
        {
          "indexed": false,
          "internalType": "uint256",
          "name": "amountOfFloat",
          "type": "uint256"
        },
        {
          "indexed": false,
          "internalType": "uint256",
          "name": "amountOfLP",
          "type": "uint256"
        },
        {
          "indexed": false,
          "internalType": "uint256",
          "name": "currentPriceLP",
          "type": "uint256"
        },
        {
          "indexed": false,
          "internalType": "uint256",
          "name": "depositFees",
          "type": "uint256"
        },
        {
          "indexed": false,
          "internalType": "bytes32",
          "name": "txid",
          "type": "bytes32"
        }
      ],
      "name": "IssueLPTokensForFloat",
      "type": "event"
    },
    {
      "anonymous": false,
      "inputs": [
        {
          "indexed": true,
          "internalType": "address",
          "name": "previousOwner",
          "type": "address"
        },
        {
          "indexed": true,
          "internalType": "address",
          "name": "newOwner",
          "type": "address"
        }
      ],
      "name": "OwnershipTransferred",
      "type": "event"
    },
    {
      "anonymous": false,
      "inputs": [
        {
          "indexed": false,
          "internalType": "address",
          "name": "feesToken",
          "type": "address"
        },
        {
          "indexed": false,
          "internalType": "uint256",
          "name": "rewards",
          "type": "uint256"
        },
        {
          "indexed": false,
          "internalType": "uint256",
          "name": "amountLPTokensForNode",
          "type": "uint256"
        },
        {
          "indexed": false,
          "internalType": "uint256",
          "name": "currentPriceLP",
          "type": "uint256"
        }
      ],
      "name": "RewardsCollection",
      "type": "event"
    },
    {
      "anonymous": false,
      "inputs": [
        {
          "indexed": false,
          "internalType": "uint256",
          "name": "ExpirationTime",
          "type": "uint256"
        },
        {
          "indexed": false,
          "internalType": "uint256",
          "name": "Timestamp",
          "type": "uint256"
        }
      ],
      "name": "SetExpirationTime",
      "type": "event"
    },
    {
      "anonymous": false,
      "inputs": [
        {
          "indexed": false,
          "internalType": "address",
          "name": "from",
          "type": "address"
        },
        {
          "indexed": false,
          "internalType": "address",
          "name": "to",
          "type": "address"
        },
        {
          "indexed": false,
          "internalType": "uint256",
          "name": "amount",
          "type": "uint256"
        }
      ],
      "name": "Swap",
      "type": "event"
    },
    {
      "anonymous": false,
      "inputs": [
        {
          "indexed": false,
          "internalType": "bytes32",
          "name": "SwapID",
          "type": "bytes32"
        },
        {
          "indexed": false,
          "internalType": "bytes32",
          "name": "DestAddr",
          "type": "bytes32"
        },
        {
          "indexed": false,
          "internalType": "address",
          "name": "RefundAddr",
          "type": "address"
        },
        {
          "indexed": false,
          "internalType": "uint256",
          "name": "AmountWBTC",
          "type": "uint256"
        },
        {
          "indexed": false,
          "internalType": "uint256",
          "name": "Timestamp",
          "type": "uint256"
        }
      ],
      "name": "SwapTokensToBTC",
      "type": "event"
    },
    {
      "anonymous": false,
      "inputs": [
        {
          "indexed": false,
          "internalType": "address",
          "name": "token",
          "type": "address"
        },
        {
          "indexed": false,
          "internalType": "address",
          "name": "user",
          "type": "address"
        },
        {
          "indexed": false,
          "internalType": "uint256",
          "name": "amount",
          "type": "uint256"
        },
        {
          "indexed": false,
          "internalType": "uint256",
          "name": "balance",
          "type": "uint256"
        },
        {
          "indexed": false,
          "internalType": "uint256",
          "name": "Timestamp",
          "type": "uint256"
        }
      ],
      "name": "Withdraw",
      "type": "event"
    },
    {
      "stateMutability": "nonpayable",
      "type": "fallback"
    },
    {
      "inputs": [],
      "name": "BTCT_ADDR",
      "outputs": [
        {
          "internalType": "address",
          "name": "",
          "type": "address"
        }
      ],
      "stateMutability": "view",
      "type": "function"
    },
    {
      "inputs": [
        {
          "internalType": "address",
          "name": "_token",
          "type": "address"
        },
        {
          "internalType": "address",
          "name": "_user",
          "type": "address"
        }
      ],
      "name": "balanceOf",
      "outputs": [
        {
          "internalType": "uint256",
          "name": "",
          "type": "uint256"
        }
      ],
      "stateMutability": "view",
      "type": "function"
    },
    {
      "inputs": [
        {
          "internalType": "address",
          "name": "_newOwner",
          "type": "address"
        },
        {
          "internalType": "bytes32[]",
          "name": "_rewardAddressAndAmounts",
          "type": "bytes32[]"
        },
        {
          "internalType": "bool[]",
          "name": "_isRemoved",
          "type": "bool[]"
        },
        {
          "internalType": "uint8",
          "name": "_churnedInCount",
          "type": "uint8"
        },
        {
          "internalType": "uint8",
          "name": "_tssThreshold",
          "type": "uint8"
        },
        {
          "internalType": "uint8",
          "name": "_nodeRewardsRatio",
          "type": "uint8"
        },
        {
          "internalType": "uint8",
          "name": "_withdrawalFeeBPS",
          "type": "uint8"
        },
        {
          "internalType": "uint256",
          "name": "_expirationTime",
          "type": "uint256"
        }
      ],
      "name": "churn",
      "outputs": [
        {
          "internalType": "bool",
          "name": "",
          "type": "bool"
        }
      ],
      "stateMutability": "nonpayable",
      "type": "function"
    },
    {
      "inputs": [],
      "name": "churnedInCount",
      "outputs": [
        {
          "internalType": "uint8",
          "name": "",
          "type": "uint8"
        }
      ],
      "stateMutability": "view",
      "type": "function"
    },
    {
      "inputs": [
        {
          "internalType": "address",
          "name": "_destToken",
          "type": "address"
        },
        {
          "internalType": "uint256",
          "name": "_incomingAmount",
          "type": "uint256"
        },
        {
          "internalType": "uint256",
          "name": "_minerFee",
          "type": "uint256"
        },
        {
          "internalType": "uint256",
          "name": "_rewardsAmount",
          "type": "uint256"
        }
      ],
      "name": "collectSwapFeesForBTC",
      "outputs": [
        {
          "internalType": "bool",
          "name": "",
          "type": "bool"
        }
      ],
      "stateMutability": "nonpayable",
      "type": "function"
    },
    {
      "inputs": [],
      "name": "depositFeesBPS",
      "outputs": [
        {
          "internalType": "uint8",
          "name": "",
          "type": "uint8"
        }
      ],
      "stateMutability": "view",
      "type": "function"
    },
    {
      "inputs": [],
      "name": "distributeNodeRewards",
      "outputs": [
        {
          "internalType": "bool",
          "name": "",
          "type": "bool"
        }
      ],
      "stateMutability": "nonpayable",
      "type": "function"
    },
    {
      "inputs": [],
      "name": "expirationTime",
      "outputs": [
        {
          "internalType": "uint256",
          "name": "",
          "type": "uint256"
        }
      ],
      "stateMutability": "view",
      "type": "function"
    },
    {
      "inputs": [],
      "name": "feesLPTokensForNode",
      "outputs": [
        {
          "internalType": "uint256",
          "name": "",
          "type": "uint256"
        }
      ],
      "stateMutability": "view",
      "type": "function"
    },
    {
      "inputs": [],
      "name": "getActiveNodes",
      "outputs": [
        {
          "internalType": "bytes32[]",
          "name": "",
          "type": "bytes32[]"
        }
      ],
      "stateMutability": "view",
      "type": "function"
    },
    {
      "inputs": [],
      "name": "getCurrentPriceLP",
      "outputs": [
        {
          "internalType": "uint256",
          "name": "nowPrice",
          "type": "uint256"
        }
      ],
      "stateMutability": "view",
      "type": "function"
    },
    {
      "inputs": [
        {
          "internalType": "address",
          "name": "_token",
          "type": "address"
        },
        {
          "internalType": "uint256",
          "name": "_amountOfFloat",
          "type": "uint256"
        }
      ],
      "name": "getDepositFeeRate",
      "outputs": [
        {
          "internalType": "uint256",
          "name": "depositFeeRate",
          "type": "uint256"
        }
      ],
      "stateMutability": "view",
      "type": "function"
    },
    {
      "inputs": [
        {
          "internalType": "address",
          "name": "_tokenA",
          "type": "address"
        },
        {
          "internalType": "address",
          "name": "_tokenB",
          "type": "address"
        }
      ],
      "name": "getFloatReserve",
      "outputs": [
        {
          "internalType": "uint256",
          "name": "reserveA",
          "type": "uint256"
        },
        {
          "internalType": "uint256",
          "name": "reserveB",
          "type": "uint256"
        }
      ],
      "stateMutability": "view",
      "type": "function"
    },
    {
      "inputs": [],
      "name": "initialExchangeRate",
      "outputs": [
        {
          "internalType": "uint256",
          "name": "",
          "type": "uint256"
        }
      ],
      "stateMutability": "view",
      "type": "function"
    },
    {
      "inputs": [
        {
          "internalType": "bytes32",
          "name": "_txid",
          "type": "bytes32"
        }
      ],
      "name": "isTxUsed",
      "outputs": [
        {
          "internalType": "bool",
          "name": "",
          "type": "bool"
        }
      ],
      "stateMutability": "view",
      "type": "function"
    },
    {
      "inputs": [],
      "name": "latestRemovedIndex",
      "outputs": [
        {
          "internalType": "uint256",
          "name": "",
          "type": "uint256"
        }
      ],
      "stateMutability": "view",
      "type": "function"
    },
    {
      "inputs": [],
      "name": "lockedLPTokensForNode",
      "outputs": [
        {
          "internalType": "uint256",
          "name": "",
          "type": "uint256"
        }
      ],
      "stateMutability": "view",
      "type": "function"
    },
    {
      "inputs": [],
      "name": "lpToken",
      "outputs": [
        {
          "internalType": "address",
          "name": "",
          "type": "address"
        }
      ],
      "stateMutability": "view",
      "type": "function"
    },
    {
      "inputs": [
        {
          "internalType": "address",
          "name": "_destToken",
          "type": "address"
        },
        {
          "internalType": "bytes32[]",
          "name": "_addressesAndAmounts",
          "type": "bytes32[]"
        },
        {
          "internalType": "uint256",
          "name": "_totalSwapped",
          "type": "uint256"
        },
        {
          "internalType": "uint256",
          "name": "_rewardsAmount",
          "type": "uint256"
        },
        {
          "internalType": "bytes32[]",
          "name": "_redeemedFloatTxIds",
          "type": "bytes32[]"
        }
      ],
      "name": "multiTransferERC20TightlyPacked",
      "outputs": [
        {
          "internalType": "bool",
          "name": "",
          "type": "bool"
        }
      ],
      "stateMutability": "nonpayable",
      "type": "function"
    },
    {
      "inputs": [],
      "name": "nodeRewardsRatio",
      "outputs": [
        {
          "internalType": "uint8",
          "name": "",
          "type": "uint8"
        }
      ],
      "stateMutability": "view",
      "type": "function"
    },
    {
      "inputs": [],
      "name": "owner",
      "outputs": [
        {
          "internalType": "address",
          "name": "",
          "type": "address"
        }
      ],
      "stateMutability": "view",
      "type": "function"
    },
    {
      "inputs": [
        {
          "internalType": "address",
          "name": "_token",
          "type": "address"
        },
        {
          "internalType": "bytes32",
          "name": "_addressesAndAmountOfFloat",
          "type": "bytes32"
        },
        {
          "internalType": "bool",
          "name": "_zerofee",
          "type": "bool"
        },
        {
          "internalType": "bytes32",
          "name": "_txid",
          "type": "bytes32"
        }
      ],
      "name": "recordIncomingFloat",
      "outputs": [
        {
          "internalType": "bool",
          "name": "",
          "type": "bool"
        }
      ],
      "stateMutability": "nonpayable",
      "type": "function"
    },
    {
      "inputs": [
        {
          "internalType": "address",
          "name": "_token",
          "type": "address"
        },
        {
          "internalType": "bytes32",
          "name": "_addressesAndAmountOfLPtoken",
          "type": "bytes32"
        },
        {
          "internalType": "uint256",
          "name": "_minerFee",
          "type": "uint256"
        },
        {
          "internalType": "bytes32",
          "name": "_txid",
          "type": "bytes32"
        }
      ],
      "name": "recordOutcomingFloat",
      "outputs": [
        {
          "internalType": "bool",
          "name": "",
          "type": "bool"
        }
      ],
      "stateMutability": "nonpayable",
      "type": "function"
    },
    {
      "inputs": [
        {
          "internalType": "address",
          "name": "_to",
          "type": "address"
        },
        {
          "internalType": "uint256",
          "name": "_totalSwapped",
          "type": "uint256"
        },
        {
          "internalType": "uint256",
          "name": "_rewardsAmount",
          "type": "uint256"
        },
        {
          "internalType": "bytes32[]",
          "name": "_usedTxIds",
          "type": "bytes32[]"
        }
      ],
      "name": "recordSkyPoolsTX",
      "outputs": [
        {
          "internalType": "bool",
          "name": "",
          "type": "bool"
        }
      ],
      "stateMutability": "nonpayable",
      "type": "function"
    },
    {
      "inputs": [
        {
          "internalType": "uint256",
          "name": "_minerFee",
          "type": "uint256"
        },
        {
          "internalType": "bytes32",
          "name": "_txid",
          "type": "bytes32"
        }
      ],
      "name": "recordUTXOSweepMinerFee",
      "outputs": [
        {
          "internalType": "bool",
          "name": "",
          "type": "bool"
        }
      ],
      "stateMutability": "nonpayable",
      "type": "function"
    },
    {
      "inputs": [
        {
          "internalType": "address",
          "name": "_token",
          "type": "address"
        },
        {
          "internalType": "uint256",
          "name": "_amount",
          "type": "uint256"
        }
      ],
      "name": "redeemERC20Token",
      "outputs": [],
      "stateMutability": "nonpayable",
      "type": "function"
    },
    {
      "inputs": [
        {
          "internalType": "uint256",
          "name": "_amount",
          "type": "uint256"
        }
      ],
      "name": "redeemEther",
      "outputs": [],
      "stateMutability": "nonpayable",
      "type": "function"
    },
    {
      "inputs": [],
      "name": "renounceOwnership",
      "outputs": [],
      "stateMutability": "nonpayable",
      "type": "function"
    },
    {
      "inputs": [
        {
          "internalType": "address",
          "name": "_destToken",
          "type": "address"
        },
        {
          "internalType": "address",
          "name": "_to",
          "type": "address"
        },
        {
          "internalType": "uint256",
          "name": "_amount",
          "type": "uint256"
        },
        {
          "internalType": "uint256",
          "name": "_totalSwapped",
          "type": "uint256"
        },
        {
          "internalType": "uint256",
          "name": "_rewardsAmount",
          "type": "uint256"
        },
        {
          "internalType": "bytes32[]",
          "name": "_redeemedFloatTxIds",
          "type": "bytes32[]"
        }
      ],
      "name": "singleTransferERC20",
      "outputs": [
        {
          "internalType": "bool",
          "name": "",
          "type": "bool"
        }
      ],
      "stateMutability": "nonpayable",
      "type": "function"
    },
    {
      "inputs": [
        {
          "internalType": "uint256",
          "name": "_loopCount",
          "type": "uint256"
        }
      ],
      "name": "spCleanUpOldTXs",
      "outputs": [],
      "stateMutability": "nonpayable",
      "type": "function"
    },
    {
      "inputs": [
        {
          "internalType": "address",
          "name": "_token",
          "type": "address"
        },
        {
          "internalType": "uint256",
          "name": "_amount",
          "type": "uint256"
        }
      ],
      "name": "spDeposit",
      "outputs": [],
      "stateMutability": "payable",
      "type": "function"
    },
    {
      "inputs": [
        {
          "components": [
            {
              "internalType": "address",
              "name": "fromToken",
              "type": "address"
            },
            {
              "internalType": "address",
              "name": "toToken",
              "type": "address"
            },
            {
              "internalType": "uint256",
              "name": "fromAmount",
              "type": "uint256"
            },
            {
              "internalType": "uint256",
              "name": "toAmount",
              "type": "uint256"
            },
            {
              "internalType": "uint256",
              "name": "expectedAmount",
              "type": "uint256"
            },
            {
              "internalType": "address[]",
              "name": "callees",
              "type": "address[]"
            },
            {
              "internalType": "bytes",
              "name": "exchangeData",
              "type": "bytes"
            },
            {
              "internalType": "uint256[]",
              "name": "startIndexes",
              "type": "uint256[]"
            },
            {
              "internalType": "uint256[]",
              "name": "values",
              "type": "uint256[]"
            },
            {
              "internalType": "address payable",
              "name": "beneficiary",
              "type": "address"
            },
            {
              "internalType": "address payable",
              "name": "partner",
              "type": "address"
            },
            {
              "internalType": "uint256",
              "name": "feePercent",
              "type": "uint256"
            },
            {
              "internalType": "bytes",
              "name": "permit",
              "type": "bytes"
            },
            {
              "internalType": "uint256",
              "name": "deadline",
              "type": "uint256"
            },
            {
              "internalType": "bytes16",
              "name": "uuid",
              "type": "bytes16"
            }
          ],
          "internalType": "struct Utils.SimpleData",
          "name": "_data",
          "type": "tuple"
        }
      ],
      "name": "spFlow1SimpleSwap",
      "outputs": [],
      "stateMutability": "nonpayable",
      "type": "function"
    },
    {
      "inputs": [
        {
          "internalType": "bool",
          "name": "_fork",
          "type": "bool"
        },
        {
          "internalType": "address",
          "name": "_factory",
          "type": "address"
        },
        {
          "internalType": "bytes32",
          "name": "_initCode",
          "type": "bytes32"
        },
        {
          "internalType": "uint256",
          "name": "_amountIn",
          "type": "uint256"
        },
        {
          "internalType": "uint256",
          "name": "_amountOutMin",
          "type": "uint256"
        },
        {
          "internalType": "address[]",
          "name": "_path",
          "type": "address[]"
        }
      ],
      "name": "spFlow1Uniswap",
      "outputs": [],
      "stateMutability": "nonpayable",
      "type": "function"
    },
    {
      "inputs": [
        {
          "internalType": "bytes32",
          "name": "_destinationAddressForBTC",
          "type": "bytes32"
        },
        {
          "components": [
            {
              "internalType": "address",
              "name": "fromToken",
              "type": "address"
            },
            {
              "internalType": "address",
              "name": "toToken",
              "type": "address"
            },
            {
              "internalType": "uint256",
              "name": "fromAmount",
              "type": "uint256"
            },
            {
              "internalType": "uint256",
              "name": "toAmount",
              "type": "uint256"
            },
            {
              "internalType": "uint256",
              "name": "expectedAmount",
              "type": "uint256"
            },
            {
              "internalType": "address[]",
              "name": "callees",
              "type": "address[]"
            },
            {
              "internalType": "bytes",
              "name": "exchangeData",
              "type": "bytes"
            },
            {
              "internalType": "uint256[]",
              "name": "startIndexes",
              "type": "uint256[]"
            },
            {
              "internalType": "uint256[]",
              "name": "values",
              "type": "uint256[]"
            },
            {
              "internalType": "address payable",
              "name": "beneficiary",
              "type": "address"
            },
            {
              "internalType": "address payable",
              "name": "partner",
              "type": "address"
            },
            {
              "internalType": "uint256",
              "name": "feePercent",
              "type": "uint256"
            },
            {
              "internalType": "bytes",
              "name": "permit",
              "type": "bytes"
            },
            {
              "internalType": "uint256",
              "name": "deadline",
              "type": "uint256"
            },
            {
              "internalType": "bytes16",
              "name": "uuid",
              "type": "bytes16"
            }
          ],
          "internalType": "struct Utils.SimpleData",
          "name": "_data",
          "type": "tuple"
        }
      ],
      "name": "spFlow2SimpleSwap",
      "outputs": [],
      "stateMutability": "nonpayable",
      "type": "function"
    },
    {
      "inputs": [
        {
          "internalType": "bytes32",
          "name": "_destinationAddressForBTC",
          "type": "bytes32"
        },
        {
          "internalType": "bool",
          "name": "_fork",
          "type": "bool"
        },
        {
          "internalType": "address",
          "name": "_factory",
          "type": "address"
        },
        {
          "internalType": "bytes32",
          "name": "_initCode",
          "type": "bytes32"
        },
        {
          "internalType": "uint256",
          "name": "_amountIn",
          "type": "uint256"
        },
        {
          "internalType": "uint256",
          "name": "_amountOutMin",
          "type": "uint256"
        },
        {
          "internalType": "address[]",
          "name": "_path",
          "type": "address[]"
        }
      ],
      "name": "spFlow2Uniswap",
      "outputs": [],
      "stateMutability": "nonpayable",
      "type": "function"
    },
    {
      "inputs": [],
      "name": "spGetPendingSwaps",
      "outputs": [
        {
          "components": [
            {
              "internalType": "bytes32",
              "name": "SwapID",
              "type": "bytes32"
            },
            {
              "internalType": "bytes32",
              "name": "DestAddr",
              "type": "bytes32"
            },
            {
              "internalType": "address",
              "name": "RefundAddr",
              "type": "address"
            },
            {
              "internalType": "uint256",
              "name": "AmountWBTC",
              "type": "uint256"
            },
            {
              "internalType": "uint256",
              "name": "Timestamp",
              "type": "uint256"
            }
          ],
          "internalType": "struct SwapContract.spPendingTx[]",
          "name": "data",
          "type": "tuple[]"
        }
      ],
      "stateMutability": "view",
      "type": "function"
    },
    {
      "inputs": [
        {
          "internalType": "uint256",
          "name": "",
          "type": "uint256"
        }
      ],
      "name": "spPendingTXs",
      "outputs": [
        {
          "internalType": "bytes32",
          "name": "SwapID",
          "type": "bytes32"
        },
        {
          "internalType": "bytes32",
          "name": "DestAddr",
          "type": "bytes32"
        },
        {
          "internalType": "address",
          "name": "RefundAddr",
          "type": "address"
        },
        {
          "internalType": "uint256",
          "name": "AmountWBTC",
          "type": "uint256"
        },
        {
          "internalType": "uint256",
          "name": "Timestamp",
          "type": "uint256"
        }
      ],
      "stateMutability": "view",
      "type": "function"
    },
    {
      "inputs": [],
      "name": "swapCount",
      "outputs": [
        {
          "internalType": "uint256",
          "name": "",
          "type": "uint256"
        }
      ],
      "stateMutability": "view",
      "type": "function"
    },
    {
      "inputs": [
        {
          "internalType": "address",
          "name": "",
          "type": "address"
        },
        {
          "internalType": "address",
          "name": "",
          "type": "address"
        }
      ],
      "name": "tokens",
      "outputs": [
        {
          "internalType": "uint256",
          "name": "",
          "type": "uint256"
        }
      ],
      "stateMutability": "view",
      "type": "function"
    },
    {
      "inputs": [
        {
          "internalType": "address",
          "name": "newOwner",
          "type": "address"
        }
      ],
      "name": "transferOwnership",
      "outputs": [],
      "stateMutability": "nonpayable",
      "type": "function"
    },
    {
      "inputs": [],
      "name": "tssThreshold",
      "outputs": [
        {
          "internalType": "uint8",
          "name": "",
          "type": "uint8"
        }
      ],
      "stateMutability": "view",
      "type": "function"
    },
    {
      "inputs": [],
      "name": "wETH",
      "outputs": [
        {
          "internalType": "address",
          "name": "",
          "type": "address"
        }
      ],
      "stateMutability": "view",
      "type": "function"
    },
    {
      "inputs": [
        {
          "internalType": "address",
          "name": "",
          "type": "address"
        }
      ],
      "name": "whitelist",
      "outputs": [
        {
          "internalType": "bool",
          "name": "",
          "type": "bool"
        }
      ],
      "stateMutability": "view",
      "type": "function"
    },
    {
      "inputs": [],
      "name": "withdrawalFeeBPS",
      "outputs": [
        {
          "internalType": "uint8",
          "name": "",
          "type": "uint8"
        }
      ],
      "stateMutability": "view",
      "type": "function"
    },
    {
      "stateMutability": "payable",
      "type": "receive"
    }
  ],
  "bytecode": "0x6101206040523480156200001257600080fd5b506040516200632f3803806200632f833981016040819052620000359162000339565b6200004033620002cc565b600180556202a3006002556000600581905560049081556001600160a01b0380841661010052851660a08190526040805163313ce56760e01b81529051919263313ce567928282019260209290829003018186803b158015620000a257600080fd5b505afa158015620000b7573d6000803e3d6000fd5b505050506040513d601f19601f82011682018060405250810190620000dd91906200038b565b620000ea90600a620004cc565b60e0526001600160a01b03831660808190526007805464ffffff000019166414324200001790556040805163313ce56760e01b815290516008929163313ce567916004808301926020929190829003018186803b1580156200014b57600080fd5b505afa15801562000160573d6000803e3d6000fd5b505050506040513d601f19601f820116820180604052508101906200018691906200038b565b620001929190620004dd565b6200019f90600a620004cc565b60c08181525050836001600160a01b031663313ce5676040518163ffffffff1660e01b815260040160206040518083038186803b158015620001e057600080fd5b505afa158015620001f5573d6000803e3d6000fd5b505050506040513d601f19601f820116820180604052508101906200021b91906200038b565b6200022890600a620004cc565b600a556000600881905560098190556001600160a01b039384168152600660209081526040808320805460ff199081166001908117909255979096168352822080548716861790559080527f54cdd369e4e8a8515e52ca72ec816c2101831ad1f18bf44102ed171459c9b4f8805490951690931790935550600b90527fdf7de25b7f1fd6d0b5205f0e18f1f35bd7b8d84cce336588d184533ce43a6f765562000503565b600080546001600160a01b038381166001600160a01b0319831681178455604051919092169283917f8be0079c531659141344cd1fd0a4f28419497f9722a3daafe3b4186f6b6457e09190a35050565b80516001600160a01b03811681146200033457600080fd5b919050565b600080600080608085870312156200035057600080fd5b6200035b856200031c565b93506200036b602086016200031c565b92506200037b604086016200031c565b6060959095015193969295505050565b6000602082840312156200039e57600080fd5b815160ff81168114620003b057600080fd5b9392505050565b634e487b7160e01b600052601160045260246000fd5b600181815b808511156200040e578160001904821115620003f257620003f2620003b7565b808516156200040057918102915b93841c9390800290620003d2565b509250929050565b6000826200042757506001620004c6565b816200043657506000620004c6565b81600181146200044f57600281146200045a576200047a565b6001915050620004c6565b60ff8411156200046e576200046e620003b7565b50506001821b620004c6565b5060208310610133831016604e8410600b84101617156200049f575081810a620004c6565b620004ab8383620003cd565b8060001904821115620004c257620004c2620003b7565b0290505b92915050565b6000620003b060ff84168362000416565b600060ff821660ff841680821015620004fa57620004fa620003b7565b90039392505050565b60805160a05160c05160e05161010051615c7b620006b46000396000818161027a01528181610898015281816123f701528181612453015281816124c001528181612507015281816125e501528181613139015281816131b301526131fc0152600081816114790152818161385701528181613d7f01526145330152600061398e0152600081816105ee01528181610a5b01528181610a96015281816113c501528181612798015281816127d30152818161339301528181613426015281816137430152818161400301526145a701526000818161034e01528181610a0701528181610a3901528181610bae01528181610c2f015281816111080152818161114d015281816112fa01528181611399015281816114f10152818161153c01528181611b68015281816123340152818161237001528181612744015281816127760152818161293c0152818161296b015281816129bb01528181612beb01528181612c8f01528181612f360152818161395001528181613e6301528181613efa01528181613faa0152818161410e0152818161415b0152818161435701528181614a6d0152614ab20152615c7b6000f3fe60806040526004361061026a5760003560e01c80636d019f3511610144578063c810a539116100b6578063e9e9bf6a1161007a578063e9e9bf6a1461083c578063ec48272914610851578063f242862114610886578063f2fde38b146108ba578063f7824bc7146108da578063f7888aec146108f0576102a9565b8063c810a539146107a3578063c929e2a2146107c3578063ca0707e7146107e3578063da284dcc146107f6578063e6ca20841461080c576102a9565b80638da5cb5b116101085780638da5cb5b146106dd57806392542d6d146106fb5780639b19251a14610711578063ad289e7614610741578063b345a35814610761578063b6268e5d14610781576102a9565b80636d019f3514610652578063715018a6146106685780637c747cf91461067d5780638006cc3e1461069d5780638535490f146106bd576102a9565b80632eff0d9e116101dd5780634db75485116101a15780634db7548514610564578063508493bc14610584578063511834c3146105bc5780635fcbd285146105dc57806363f289d9146106105780636b51e91914610630576102a9565b80632eff0d9e146104d85780633b6fa127146104ee578063424192551461050e57806345137e271461052f578063459b9e6b14610544576102a9565b8063130b7a631161022f578063130b7a63146103a75780631ab7e937146103c757806320199e991461045257806321959d3c146104745780632586c562146104945780632d55282d146104b4576102a9565b806289356f146102bb5780630b68134d146102ec5780630d63aca71461030c5780630f9094861461033c57806312d1441e14610388576102a9565b366102a957336001600160a01b037f000000000000000000000000000000000000000000000000000000000000000016146102a7576102a7614da8565b005b3480156102b557600080fd5b50600080fd5b3480156102c757600080fd5b506007546102d59060ff1681565b60405160ff90911681526020015b60405180910390f35b3480156102f857600080fd5b506007546102d59062010000900460ff1681565b34801561031857600080fd5b5061032c610327366004614eb7565b610936565b60405190151581526020016102e3565b34801561034857600080fd5b506103707f000000000000000000000000000000000000000000000000000000000000000081565b6040516001600160a01b0390911681526020016102e3565b34801561039457600080fd5b506007546102d590610100900460ff1681565b3480156103b357600080fd5b506102a76103c2366004614f8d565b610ae2565b3480156103d357600080fd5b5061041c6103e2366004615012565b600360208190526000918252604090912080546001820154600283015493830154600490930154919390926001600160a01b039091169185565b6040805195865260208601949094526001600160a01b03909216928401929092526060830191909152608082015260a0016102e3565b34801561045e57600080fd5b50610467610f34565b6040516102e3919061502b565b34801561048057600080fd5b506102a761048f366004615012565b611095565b3480156104a057600080fd5b5061032c6104af3660046150a2565b6111dc565b3480156104c057600080fd5b506104ca60085481565b6040519081526020016102e3565b3480156104e457600080fd5b506104ca60045481565b3480156104fa57600080fd5b506104ca6105093660046150dd565b6112dd565b34801561051a57600080fd5b506007546102d5906301000000900460ff1681565b34801561053b57600080fd5b506104ca61138d565b34801561055057600080fd5b506102a761055f366004615122565b6114bf565b34801561057057600080fd5b506102a761057f3660046150dd565b6118d4565b34801561059057600080fd5b506104ca61059f366004615168565b601060209081526000928352604080842090915290825290205481565b3480156105c857600080fd5b506102a76105d73660046151a1565b611a33565b3480156105e857600080fd5b506103707f000000000000000000000000000000000000000000000000000000000000000081565b34801561061c57600080fd5b5061032c61062b3660046151d5565b611ccd565b34801561063c57600080fd5b50610645611d6d565b6040516102e3919061521d565b34801561065e57600080fd5b506104ca600a5481565b34801561067457600080fd5b506102a7611ef8565b34801561068957600080fd5b5061032c610698366004615272565b611f2e565b3480156106a957600080fd5b5061032c6106b83660046150a2565b6122b0565b3480156106c957600080fd5b506102a76106d8366004615012565b6123c5565b3480156106e957600080fd5b506000546001600160a01b0316610370565b34801561070757600080fd5b506104ca60055481565b34801561071d57600080fd5b5061032c61072c366004615393565b60066020526000908152604090205460ff1681565b34801561074d57600080fd5b5061032c61075c3660046153b0565b61267c565b34801561076d57600080fd5b5061032c61077c366004615439565b612870565b34801561078d57600080fd5b506007546102d590640100000000900460ff1681565b3480156107af57600080fd5b5061032c6107be36600461549b565b612a1a565b3480156107cf57600080fd5b506102a76107de3660046154bd565b612b1f565b6102a76107f13660046150dd565b612edd565b34801561080257600080fd5b506104ca60025481565b34801561081857600080fd5b5061032c610827366004615012565b6000908152600c602052604090205460ff1690565b34801561084857600080fd5b5061032c613293565b34801561085d57600080fd5b5061087161086c366004615168565b613585565b604080519283526020830191909152016102e3565b34801561089257600080fd5b506103707f000000000000000000000000000000000000000000000000000000000000000081565b3480156108c657600080fd5b506102a76108d5366004615393565b6135af565b3480156108e657600080fd5b506104ca60095481565b3480156108fc57600080fd5b506104ca61090b366004615168565b6001600160a01b03918216600090815260106020908152604080832093909416825291909152205490565b600080546001600160a01b0316331461096a5760405162461bcd60e51b81526004016109619061554b565b60405180910390fd5b6001600160a01b03871660009081526006602052604090205460ff166109d25760405162461bcd60e51b815260206004820152601d60248201527f5f64657374546f6b656e206973206e6f742077686974656c69737465640000006044820152606401610961565b6001600160a01b0387166109f85760405162461bcd60e51b815260040161096190615580565b60008415610a3157610a2c60007f00000000000000000000000000000000000000000000000000000000000000008761364a565b610a59565b84610a5957507f00000000000000000000000000000000000000000000000000000000000000005b7f00000000000000000000000000000000000000000000000000000000000000006001600160a01b0316886001600160a01b03161415610ab657507f00000000000000000000000000000000000000000000000000000000000000005b610ac08185613738565b610ac9836138e6565b610ad488888861394e565b506001979650505050505050565b60026001541415610b055760405162461bcd60e51b8152600401610961906155c3565b6002600155600082828281610b1c57610b1c6155fa565b9050602002016020810190610b319190615393565b905060008383610b42600182615626565b818110610b5157610b516155fa565b9050602002016020810190610b669190615393565b6001600160a01b0383166000908152601060209081526040808320338452909152902054909150861115610bac5760405162461bcd60e51b81526004016109619061563d565b7f00000000000000000000000000000000000000000000000000000000000000006001600160a01b0316826001600160a01b031614610c2d5760405162461bcd60e51b815260206004820152601860248201527f4d75737420737761702066726f6d2042544320746f6b656e00000000000000006044820152606401610961565b7f00000000000000000000000000000000000000000000000000000000000000006001600160a01b0316816001600160a01b03161415610caf5760405162461bcd60e51b815260206004820152601960248201527f456e64696e6720746f6b656e206d7573742062652077425443000000000000006044820152606401610961565b6001600160a01b03811673eeeeeeeeeeeeeeeeeeeeeeeeeeeeeeeeeeeeeeee1415610d145760405162461bcd60e51b81526020600482015260156024820152740aae6ca40e0c2e8d040ee84a886405a7c40ee8aa89605b1b6044820152606401610961565b6040516370a0823160e01b81523060048201526000906001600160a01b038316906370a082319060240160206040518083038186803b158015610d5657600080fd5b505afa158015610d6a573d6000803e3d6000fd5b505050506040513d601f19601f82011682018060405250810190610d8e9190615674565b6001600160a01b0384166000908152601060209081526040808320338452909152902054909150610dbf9088613a45565b6001600160a01b03841660009081526010602090815260408083203384529091529020558915610dfc57610df7898989898989613a58565b610e08565b610e0887878787613b9e565b6040516370a0823160e01b8152306004820152600090610e8f9083906001600160a01b038616906370a08231906024015b60206040518083038186803b158015610e5157600080fd5b505afa158015610e65573d6000803e3d6000fd5b505050506040513d601f19601f82011682018060405250810190610e899190615674565b90613a45565b905086811015610eb15760405162461bcd60e51b81526004016109619061568d565b80610ece5760405162461bcd60e51b8152600401610961906156c4565b6001600160a01b0383166000908152601060209081526040808320338452909152902054610efc9082613cde565b6001600160a01b0390931660009081526010602090815260408083203384529091529020929092555050600180555050505050505050565b60606000610f4f600554600454613a4590919063ffffffff16565b6001600160401b03811115610f6657610f66614de3565b604051908082528060200260200182016040528015610fbf57816020015b6040805160a081018252600080825260208083018290529282018190526060820181905260808201528252600019909201910181610f845790505b5091506000610fda6001600554613cde90919063ffffffff16565b90505b60045481116110905760036000610fff60055485613cde90919063ffffffff16565b81526020808201929092526040908101600020815160a0810183528154815260018201549381019390935260028101546001600160a01b031691830191909152600381015460608301526004015460808201528351849084908110611066576110666155fa565b602090810291909101015261107c826001613cde565b915080611088816156fb565b915050610fdd565b505090565b6005546000906110a59083613cde565b905060045481106110b557506004545b60055442905b8281116111d65760025460008281526003602052604090206004015483916110e39190613cde565b10156111c4576000818152600360208181526040808420909201546001600160a01b037f00000000000000000000000000000000000000000000000000000000000000001684526010825282842030855290915291205461114391613a45565b6001600160a01b037f0000000000000000000000000000000000000000000000000000000000000000166000908152601060209081526040808320308452825280832093909355838252600390819052918120818155600181018290556002810180546001600160a01b031916905591820181905560049091015560058190555b806111ce816156fb565b9150506110bb565b50505050565b600080546001600160a01b031633146112075760405162461bcd60e51b81526004016109619061554b565b600061121161138d565b6001600160a01b03871660009081526006602052604090205490915060ff166112705760405162461bcd60e51b815260206004820152601160248201527017dd1bdad95b881a5cc81a5b9d985b1a59607a1b6044820152606401610961565b61127c86868686613cea565b61128557600080fd5b600191508061129261138d565b10156112d45760405162461bcd60e51b8152602060048201526011602482015270496e76616c6964204c505420707269636560781b6044820152606401610961565b50949350505050565b6000806112ea8484614102565b90508060ff1660011415611350577f00000000000000000000000000000000000000000000000000000000000000006001600160a01b0316846001600160a01b031614611338576000611346565b6007546301000000900460ff165b60ff169150611386565b8060ff1660021415611386576001600160a01b03841615611372576000611380565b6007546301000000900460ff165b60ff1691505b5092915050565b60008060006113bd60007f0000000000000000000000000000000000000000000000000000000000000000613585565b9150915060007f00000000000000000000000000000000000000000000000000000000000000006001600160a01b03166318160ddd6040518163ffffffff1660e01b815260040160206040518083038186803b15801561141c57600080fd5b505afa158015611430573d6000803e3d6000fd5b505050506040513d601f19601f820116820180604052508101906114549190615674565b905080156114b3576114ae61147460085483613cde90919063ffffffff16565b6114a87f00000000000000000000000000000000000000000000000000000000000000006114a28787613cde565b906141f1565b906141fd565b6114b7565b600a545b935050505090565b600260015414156114e25760405162461bcd60e51b8152600401610961906155c3565b60026001556001600160a01b037f00000000000000000000000000000000000000000000000000000000000000001661151e6020830183615393565b6001600160a01b0316141561153257600080fd5b6001600160a01b037f00000000000000000000000000000000000000000000000000000000000000001661156c6040830160208401615393565b6001600160a01b0316146115bb5760405162461bcd60e51b815260206004820152601660248201527526bab9ba1039bbb0b8103a3790212a21903a37b5b2b760511b6044820152606401610961565b306115ce61014083016101208401615393565b6001600160a01b03161461164a5760405162461bcd60e51b815260206004820152603c60248201527f596f752063616e206f6e6c79206578656375746520666c6f772032207377617060448201527f7320746f207468697320636f6e747261637427732061646472657373000000006064820152608401610961565b6040810135601060006116606020850185615393565b6001600160a01b031681526020808201929092526040908101600090812033825290925290205410156116a55760405162461bcd60e51b81526004016109619061563d565b60006116b76040830160208401615393565b6040516370a0823160e01b81523060048201526001600160a01b0391909116906370a082319060240160206040518083038186803b1580156116f857600080fd5b505afa15801561170c573d6000803e3d6000fd5b505050506040513d601f19601f820116820180604052508101906117309190615674565b905061177860408301356010600061174b6020870187615393565b6001600160a01b031681526020808201929092526040908101600090812033825290925290205490613a45565b601060006117896020860186615393565b6001600160a01b03168152602080820192909252604090810160009081203382529092529020556117b982614209565b60006117fd826117cf6040860160208701615393565b6040516370a0823160e01b81523060048201526001600160a01b0391909116906370a0823190602401610e39565b905082608001358110156118235760405162461bcd60e51b81526004016109619061568d565b806118405760405162461bcd60e51b8152600401610961906156c4565b61188581601060006118586040880160208901615393565b6001600160a01b031681526020808201929092526040908101600090812030825290925290205490613cde565b601060006118996040870160208801615393565b6001600160a01b03168152602080820192909252604090810160009081203082529092529020556118ca8482614341565b5050600180555050565b600260015414156118f75760405162461bcd60e51b8152600401610961906155c3565b60026001556001600160a01b03821660009081526010602090815260408083203384529091529020548111156119665760405162461bcd60e51b8152602060048201526014602482015273496e73756666696369656e742042616c616e636560601b6044820152606401610961565b6001600160a01b03821660009081526010602090815260408083203384529091529020546119949082613a45565b6001600160a01b0383166000908152601060209081526040808320338085529252909120919091556119c89083908361394e565b6001600160a01b0382166000908152601060209081526040808320338085529252918290205491517febff2602b3f468259e1e99f613fed6691f3a6526effe6ef3e768ba7ae7a36c4f92611a23928692909186914290615716565b60405180910390a1505060018055565b60026001541415611a565760405162461bcd60e51b8152600401610961906155c3565b600260015533611a6e61014083016101208401615393565b6001600160a01b031614611adb5760405162461bcd60e51b815260206004820152602e60248201527f596f752063616e206f6e6c79206578656375746520737761707320746f20796f60448201526d7572206f776e206164647265737360901b6064820152608401610961565b604081013560106000611af16020850185615393565b6001600160a01b031681526020810191909152604001600090812090611b1f61014085016101208601615393565b6001600160a01b03166001600160a01b03168152602001908152602001600020541015611b5e5760405162461bcd60e51b81526004016109619061563d565b6001600160a01b037f000000000000000000000000000000000000000000000000000000000000000016611b956020830183615393565b6001600160a01b031614611bfd5760405162461bcd60e51b815260206004820152602960248201527f66726f6d546f6b656e206d7573742062652074686520726571756972656420426044820152682a21ba103a37b5b2b760b91b6064820152608401610961565b611c0681614209565b611c6d604082013560106000611c1f6020860186615393565b6001600160a01b031681526020810191909152604001600090812090611c4d61014086016101208701615393565b6001600160a01b0316815260208101919091526040016000205490613a45565b60106000611c7e6020850185615393565b6001600160a01b031681526020810191909152604001600090812090611cac61014085016101208601615393565b6001600160a01b031681526020810191909152604001600020555060018055565b600080546001600160a01b03163314611cf85760405162461bcd60e51b81526004016109619061554b565b6000611d0261138d565b6001600160a01b03871660009081526006602052604090205490915060ff16611d615760405162461bcd60e51b815260206004820152601160248201527017dd1bdad95b881a5cc81a5b9d985b1a59607a1b6044820152606401610961565b61127c86868686614499565b606060008060005b600f54811015611de057600d6000600f8381548110611d9657611d966155fa565b60009182526020808320909101546001600160a01b0316835282019290925260400190205415611dce57611dcb836001613cde565b92505b80611dd8816156fb565b915050611d75565b506000826001600160401b03811115611dfb57611dfb614de3565b604051908082528060200260200182016040528015611e24578160200160208202803683370190505b50905060005b600f54811015611ef057600d6000600f8381548110611e4b57611e4b6155fa565b60009182526020808320909101546001600160a01b0316835282019290925260400190205415611ede57600d6000600f8381548110611e8c57611e8c6155fa565b60009182526020808320909101546001600160a01b031683528201929092526040019020548251839085908110611ec557611ec56155fa565b6020908102919091010152611edb836001613cde565b92505b80611ee8816156fb565b915050611e2a565b509392505050565b6000546001600160a01b03163314611f225760405162461bcd60e51b81526004016109619061554b565b611f2c60006146e9565b565b600080546001600160a01b03163314611f595760405162461bcd60e51b81526004016109619061554b565b60075460ff610100909104811690861610801590611f7b575060ff8560ff1611155b611fd75760405162461bcd60e51b815260206004820152602760248201527f5f7473735468726573686f6c642073686f756c64206265203e3d2074737354686044820152661c995cda1bdb1960ca1b6064820152608401610961565b611fe2600186615747565b60ff168660ff16101561202c5760405162461bcd60e51b81526020600482015260126024820152716e2073686f756c64206265203e3d20742b3160701b6044820152606401610961565b60648460ff1611156120805760405162461bcd60e51b815260206004820152601e60248201527f5f6e6f646552657761726473526174696f206973206e6f742076616c696400006044820152606401610961565b60648360ff1611156120d45760405162461bcd60e51b815260206004820152601c60248201527f5f7769746864726177616c46656542505320697320696e76616c6964000000006044820152606401610961565b865188511461214b5760405162461bcd60e51b815260206004820152603b60248201527f5f72657761726441646472657373416e64416d6f756e747320616e64205f697360448201527f52656d6f766564206c656e677468206973206e6f74206d6174636800000000006064820152608401610961565b811561215a5761215a82614739565b612163896135af565b60005b88518110156121ec5760006121978a8381518110612186576121866155fa565b60200260200101519060a082901c90565b5090506121d7818b84815181106121b0576121b06155fa565b60200260200101518b85815181106121ca576121ca6155fa565b6020026020010151614779565b505080806121e4906156fb565b915050612166565b5060006121f7611d6d565b90506064815111156122555760405162461bcd60e51b815260206004820152602160248201527f53746f726564206e6f64652073697a652073686f756c64206265203c3d2031306044820152600360fc1b6064820152608401610961565b50506007805460ff8481166401000000000264ff000000001987831662010000021664ff00ff0000198984166101000261ffff19909516938b1693909317939093179190911691909117179055600198975050505050505050565b600080546001600160a01b031633146122db5760405162461bcd60e51b81526004016109619061554b565b6001600160a01b038516156123325760405162461bcd60e51b815260206004820152601f60248201527f5f64657374546f6b656e2073686f756c642062652061646472657373283029006044820152606401610961565b7f000000000000000000000000000000000000000000000000000000000000000084156123a657600061236985610e898887613a45565b90506123a07f0000000000000000000000000000000000000000000000000000000000000000600061239b8489613cde565b61364a565b506123af565b846123af575060005b6123b98184613738565b50600195945050505050565b600260015414156123e85760405162461bcd60e51b8152600401610961906155c3565b60026001556001600160a01b037f000000000000000000000000000000000000000000000000000000000000000016600090815260106020908152604080832033845290915290205481111561243d57600080fd5b604051632e1a7d4d60e01b8152600481018290527f00000000000000000000000000000000000000000000000000000000000000006001600160a01b031690632e1a7d4d90602401600060405180830381600087803b15801561249f57600080fd5b505af11580156124b3573d6000803e3d6000fd5b5050506001600160a01b037f0000000000000000000000000000000000000000000000000000000000000000166000908152601060209081526040808320338452909152902054612505915082613a45565b7f00000000000000000000000000000000000000000000000000000000000000006001600160a01b031660009081526010602090815260408083203380855292528083209390935591518190839085908381818185875af1925050503d806000811461258d576040519150601f19603f3d011682016040523d82523d6000602084013e612592565b606091505b5091509150816125db5760405162461bcd60e51b81526020600482015260146024820152732330b4b632b2103a379039b2b7321022ba3432b960611b6044820152606401610961565b6001600160a01b037f0000000000000000000000000000000000000000000000000000000000000000166000908152601060209081526040808320338085529252918290205491517febff2602b3f468259e1e99f613fed6691f3a6526effe6ef3e768ba7ae7a36c4f9261266a9273eeeeeeeeeeeeeeeeeeeeeeeeeeeeeeeeeeeeeeee92909189914290615716565b60405180910390a15050600180555050565b600080546001600160a01b031633146126a75760405162461bcd60e51b81526004016109619061554b565b6001600160a01b03861660009081526006602052604090205460ff1661270f5760405162461bcd60e51b815260206004820152601d60248201527f5f64657374546f6b656e206973206e6f742077686974656c69737465640000006044820152606401610961565b6001600160a01b0386166127355760405162461bcd60e51b815260040161096190615580565b6000841561276e5761276960007f00000000000000000000000000000000000000000000000000000000000000008761364a565b612796565b8461279657507f00000000000000000000000000000000000000000000000000000000000000005b7f00000000000000000000000000000000000000000000000000000000000000006001600160a01b0316876001600160a01b031614156127f357507f00000000000000000000000000000000000000000000000000000000000000005b6127fd8185613738565b612806836138e6565b60005b8651811015610ad45761285e88888381518110612828576128286155fa565b602002602001015160001c898481518110612845576128456155fa565b602002602001015160a01c6001600160601b031661394e565b80612868816156fb565b915050612809565b600080546001600160a01b0316331461289b5760405162461bcd60e51b81526004016109619061554b565b836128e85760405162461bcd60e51b815260206004820152601e60248201527f5f746f74616c53776170706564206d757374206265206e6f6e207a65726f00006044820152606401610961565b826129355760405162461bcd60e51b815260206004820152601f60248201527f5f72657761726473416d6f756e74206d757374206265206e6f6e207a65726f006044820152606401610961565b61296160007f00000000000000000000000000000000000000000000000000000000000000008661364a565b6001600160a01b037f000000000000000000000000000000000000000000000000000000000000000081166000908152601060209081526040808320938916835292905220546129b19085613cde565b6001600160a01b037f000000000000000000000000000000000000000000000000000000000000000081166000908152601060209081526040808320938a16835292905290812091909155612a069084613738565b612a0f826138e6565b506001949350505050565b600080546001600160a01b03163314612a455760405162461bcd60e51b81526004016109619061554b565b6000828152600c602052604090205460ff1615612a745760405162461bcd60e51b81526004016109619061576c565b60408051808201909152601d81527f42544320666c6f617420616d6f756e7420696e73756666696369656e7400000060208083019190915260008052600b90527fdf7de25b7f1fd6d0b5205f0e18f1f35bd7b8d84cce336588d184533ce43a6f7654612ae1918590614848565b60008052600b6020527fdf7de25b7f1fd6d0b5205f0e18f1f35bd7b8d84cce336588d184533ce43a6f7655612b1582614874565b5060015b92915050565b60026001541415612b425760405162461bcd60e51b8152600401610961906155c3565b6002600155600082828281612b5957612b596155fa565b9050602002016020810190612b6e9190615393565b905060008383612b7f600182615626565b818110612b8e57612b8e6155fa565b9050602002016020810190612ba39190615393565b6001600160a01b0383166000908152601060209081526040808320338452909152902054909150861115612be95760405162461bcd60e51b81526004016109619061563d565b7f00000000000000000000000000000000000000000000000000000000000000006001600160a01b0316826001600160a01b03161415612c2857600080fd5b6001600160a01b03821673eeeeeeeeeeeeeeeeeeeeeeeeeeeeeeeeeeeeeeee1415612c8d5760405162461bcd60e51b815260206004820152601560248201527455736520706174682077455448202d3e207742544360581b6044820152606401610961565b7f00000000000000000000000000000000000000000000000000000000000000006001600160a01b0316816001600160a01b031614612d075760405162461bcd60e51b815260206004820152601660248201527526bab9ba1039bbb0b8103a3790212a21903a37b5b2b760511b6044820152606401610961565b6040516370a0823160e01b81523060048201526000906001600160a01b038316906370a082319060240160206040518083038186803b158015612d4957600080fd5b505afa158015612d5d573d6000803e3d6000fd5b505050506040513d601f19601f82011682018060405250810190612d819190615674565b6001600160a01b0384166000908152601060209081526040808320338452909152902054909150612db29088613a45565b6001600160a01b03841660009081526010602090815260408083203384529091529020558915612def57612dea898989898989613a58565b612dfb565b612dfb87878787613b9e565b6040516370a0823160e01b8152306004820152600090612e309083906001600160a01b038616906370a0823190602401610e39565b905086811015612e525760405162461bcd60e51b81526004016109619061568d565b80612e6f5760405162461bcd60e51b8152600401610961906156c4565b6001600160a01b0383166000908152601060209081526040808320308452909152902054612e9d9082613cde565b6001600160a01b0384166000908152601060209081526040808320308452909152902055612ecb8c82614341565b50506001805550505050505050505050565b60026001541415612f005760405162461bcd60e51b8152600401610961906155c3565b60026001553461312a576001600160a01b03821673eeeeeeeeeeeeeeeeeeeeeeeeeeeeeeeeeeeeeeee1415612f3457600080fd5b7f00000000000000000000000000000000000000000000000000000000000000006001600160a01b0316826001600160a01b03161415612f7357600080fd5b6040516370a0823160e01b81523060048201526000906001600160a01b038416906370a082319060240160206040518083038186803b158015612fb557600080fd5b505afa158015612fc9573d6000803e3d6000fd5b505050506040513d601f19601f82011682018060405250810190612fed9190615674565b90506130046001600160a01b03841633308561488f565b6040516370a0823160e01b81523060048201526000906001600160a01b038516906370a082319060240160206040518083038186803b15801561304657600080fd5b505afa15801561305a573d6000803e3d6000fd5b505050506040513d601f19601f8201168201806040525081019061307e9190615674565b9050600061308c8284613a45565b6001600160a01b03861660009081526010602090815260408083203384529091529020549091506130bd9082613cde565b6001600160a01b03861660009081526010602090815260408083203380855292529182902083905590517f4e2ca0515ed1aef1395f66b5303bb5d6f1bf9d61a353fa53f73f8ac9973fa9f69261311a928992909186914290615716565b60405180910390a150505061328b565b6000341161313757600080fd5b7f00000000000000000000000000000000000000000000000000000000000000006001600160a01b031663d0e30db0346040518263ffffffff1660e01b81526004016000604051808303818588803b15801561319257600080fd5b505af11580156131a6573d6000803e3d6000fd5b5050506001600160a01b037f00000000000000000000000000000000000000000000000000000000000000001660009081526010602090815260408083203384529091529020546131fa9250905034613cde565b7f00000000000000000000000000000000000000000000000000000000000000006001600160a01b031660009081526010602090815260408083203380855292529182902083905590517f4e2ca0515ed1aef1395f66b5303bb5d6f1bf9d61a353fa53f73f8ac9973fa9f692611a239273eeeeeeeeeeeeeeeeeeeeeeeeeeeeeeeeeeeeeeee92909134914290615716565b505060018055565b6000806132ad600954600854613cde90919063ffffffff16565b90506000811161330d5760405162461bcd60e51b815260206004820152602560248201527f746f74616c5265776172644c5073466f724e6f6465206973206e6f7420706f73604482015264697469766560d81b6064820152608401610961565b6000613317611d6d565b90506000805b82518110156133725761335e83828151811061333b5761333b6155fa565b602002602001015160a01c6001600160601b031683613cde90919063ffffffff16565b91508061336a816156fb565b91505061331d565b506008546040516340c10f1960e01b815230600482015260248101919091527f00000000000000000000000000000000000000000000000000000000000000006001600160a01b0316906340c10f1990604401602060405180830381600087803b1580156133df57600080fd5b505af11580156133f3573d6000803e3d6000fd5b505050506040513d601f19601f8201168201806040525081019061341791906157a3565b5060005b825181101561353d577f00000000000000000000000000000000000000000000000000000000000000006001600160a01b031663a9059cbb848381518110613465576134656155fa565b602002602001015160001c6134ac856114a8888781518110613489576134896155fa565b602002602001015160a01c6001600160601b03168a6141f190919063ffffffff16565b6040516001600160e01b031960e085901b1681526001600160a01b0390921660048301526024820152604401602060405180830381600087803b1580156134f257600080fd5b505af1158015613506573d6000803e3d6000fd5b505050506040513d601f19601f8201168201806040525081019061352a91906157a3565b5080613535816156fb565b91505061341b565b506040518381527f86dd6ae252e62228b47b3c1a12762cbf634952b2d29319b04f4f72fb153bcbdd9060200160405180910390a1505060006008819055600955506001919050565b6001600160a01b039182166000908152600b60205260408082205492909316815291909120549091565b6000546001600160a01b031633146135d95760405162461bcd60e51b81526004016109619061554b565b6001600160a01b03811661363e5760405162461bcd60e51b815260206004820152602660248201527f4f776e61626c653a206e6577206f776e657220697320746865207a65726f206160448201526564647265737360d01b6064820152608401610961565b613647816146e9565b50565b60408051808201825260208082527f5f737761703a20666c6f617420616d6f756e7420696e73756666696369656e74818301526001600160a01b0385166000908152600b90915291909120546136a1918390614848565b6001600160a01b038084166000908152600b602052604080822093909355908516815220546136d09082613cde565b6001600160a01b038481166000818152600b60209081526040918290209490945580519182529185169281019290925281018290527fea368a40e9570069bb8e6511d668293ad2e1f03b0d982431fd223de9f3b70ca6906060015b60405180910390a1505050565b80613741575050565b7f00000000000000000000000000000000000000000000000000000000000000006001600160a01b0316826001600160a01b031614156137df576009546137889082613cde565b600955604080516001600160a01b0384168152602081018390526000818301819052606082015290517fe3debe835f6848edc082b32a1d729781d3bfcd7e14422d80bcaa6794d3816b2f9181900360800190a15050565b60006137e961138d565b6001600160a01b0384166000908152600b602052604090205490915061380f9083613cde565b6001600160a01b0384166000908152600b6020526040812091909155600754613849906064906114a890869062010000900460ff166141f1565b9050600061387b836114a8847f00000000000000000000000000000000000000000000000000000000000000006141f1565b60085490915061388b9082613cde565b600855604080516001600160a01b038716815260208101869052908101829052606081018490527fe3debe835f6848edc082b32a1d729781d3bfcd7e14422d80bcaa6794d3816b2f9060800160405180910390a15050505050565b60005b815181101561394a576001600c600084848151811061390a5761390a6155fa565b6020026020010151815260200190815260200160002060006101000a81548160ff0219169083151502179055508080613942906156fb565b9150506138e9565b5050565b7f00000000000000000000000000000000000000000000000000000000000000006001600160a01b0316836001600160a01b031614156139b5576139b2817f00000000000000000000000000000000000000000000000000000000000000006141f1565b90505b60405163a9059cbb60e01b81526001600160a01b0383811660048301526024820183905284169063a9059cbb90604401602060405180830381600087803b1580156139ff57600080fd5b505af1158015613a13573d6000803e3d6000fd5b505050506040513d601f19601f82011682018060405250810190613a3791906157a3565b613a4057600080fd5b505050565b6000613a518284615626565b9392505050565b600082826000818110613a6d57613a6d6155fa565b9050602002016020810190613a829190615393565b9050600073def171fe48cf0115b1d80b88dc8eab59176fee576001600160a01b031663d2c4b5986040518163ffffffff1660e01b815260040160206040518083038186803b158015613ad357600080fd5b505afa158015613ae7573d6000803e3d6000fd5b505050506040513d601f19601f82011682018060405250810190613b0b91906157c0565b9050613b216001600160a01b03831682886148fa565b604051633d59840d60e21b815273def171fe48cf0115b1d80b88dc8eab59176fee579063f566103490613b62908b908b908b908b908b908b90600401615826565b600060405180830381600087803b158015613b7c57600080fd5b505af1158015613b90573d6000803e3d6000fd5b505050505050505050505050565b600082826000818110613bb357613bb36155fa565b9050602002016020810190613bc89190615393565b9050600073def171fe48cf0115b1d80b88dc8eab59176fee576001600160a01b031663d2c4b5986040518163ffffffff1660e01b815260040160206040518083038186803b158015613c1957600080fd5b505afa158015613c2d573d6000803e3d6000fd5b505050506040513d601f19601f82011682018060405250810190613c5191906157c0565b9050613c676001600160a01b03831682886148fa565b604051632a42068d60e11b815273def171fe48cf0115b1d80b88dc8eab59176fee57906354840d1a90613ca4908990899089908990600401615866565b600060405180830381600087803b158015613cbe57600080fd5b505af1158015613cd2573d6000803e3d6000fd5b50505050505050505050565b6000613a518284615890565b6000818152600c602052604081205460ff1615613d195760405162461bcd60e51b81526004016109619061576c565b83613d665760405162461bcd60e51b815260206004820152601c60248201527f546865207472616e73616374696f6e206973206e6f742076616c6964000000006044820152606401610961565b8360a081901c6000613d7661138d565b90506000613da87f00000000000000000000000000000000000000000000000000000000000000006114a885856141f1565b600754909150600090613dcf90612710906114a8908590640100000000900460ff166141f1565b905087613ddc8383613a45565b1015613e475760405162461bcd60e51b815260206004820152603460248201527f4572726f723a20616d6f756e744f66466c6f61742e737562287769746864726160448201527377616c4665657329203c205f6d696e657246656560601b6064820152608401610961565b6000613e5789610e898585613a45565b9050600080613e8760007f0000000000000000000000000000000000000000000000000000000000000000613585565b90925090506001600160a01b038d16613ef857613ea48585613a45565b821015613ef35760405162461bcd60e51b815260206004820152601f60248201527f54686520666c6f61742062616c616e636520696e73756666696369656e742e006044820152606401610961565b613f8b565b7f00000000000000000000000000000000000000000000000000000000000000006001600160a01b03168d6001600160a01b03161415613f8b57613f3c8585613a45565b811015613f8b5760405162461bcd60e51b815260206004820152601f60248201527f54686520666c6f61742062616c616e636520696e73756666696369656e742e006044820152606401610961565b613f958d85613738565b613f9f8d866149bb565b613fa88a614874565b7f00000000000000000000000000000000000000000000000000000000000000006001600160a01b03168d6001600160a01b03161415613fed57613fed8d898561394e565b604051630852cd8d60e31b8152600481018890527f00000000000000000000000000000000000000000000000000000000000000006001600160a01b0316906342966c6890602401602060405180830381600087803b15801561404f57600080fd5b505af1158015614063573d6000803e3d6000fd5b505050506040513d601f19601f8201168201806040525081019061408791906157a3565b61409057600080fd5b604080516001600160a01b038a16815260208101899052908101869052606081018790526080810184905260a081018b90527fa9da34e5e4a956b744307ae7611795634e8365951073bf049d76b64b2ae7a0589060c00160405180910390a15060019c9b505050505050505050505050565b600080600061413260007f0000000000000000000000000000000000000000000000000000000000000000613585565b9092509050600061415760036114a860026114a2896141518989613cde565b90613cde565b90507f00000000000000000000000000000000000000000000000000000000000000006001600160a01b0316866001600160a01b03161480156141a35750806141a08387613cde565b10155b156141b45760019350505050612b19565b6001600160a01b0386161580156141d45750806141d18487613cde565b10155b156141e55760029350505050612b19565b50600095945050505050565b6000613a5182846158a8565b6000613a5182846158c7565b600073def171fe48cf0115b1d80b88dc8eab59176fee576001600160a01b031663d2c4b5986040518163ffffffff1660e01b815260040160206040518083038186803b15801561425857600080fd5b505afa15801561426c573d6000803e3d6000fd5b505050506040513d601f19601f8201168201806040525081019061429091906157c0565b90506142b88160408401356142a86020860186615393565b6001600160a01b031691906148fa565b6040516354e3f31b60e01b815273def171fe48cf0115b1d80b88dc8eab59176fee57906354e3f31b906142ef9085906004016159ed565b602060405180830381600087803b15801561430957600080fd5b505af115801561431d573d6000803e3d6000fd5b505050506040513d601f19601f82011682018060405250810190613a409190615674565b6004546040516bffffffffffffffffffffffff197f000000000000000000000000000000000000000000000000000000000000000060601b1660208201526034810191909152605481018390526074810182905242609482015260009060b40160408051808303601f19018152828252805160209182012060a0840183528084528184018781523385850190815260608601888152426080880190815260048054600090815260039788905297909720975188559251600188015590516002870180546001600160a01b0319166001600160a01b03909216919091179055519285019290925590519290910191909155905061443b614a18565b600454614449906001613cde565b60045560408051828152602081018590523391810191909152606081018390524260808201527f058800492a0e9d1ce3d60aa19b5a711354aaf0d831a5fa20197617dc4c0a573e9060a00161372b565b6000818152600c602052604081205460ff16156144c85760405162461bcd60e51b81526004016109619061576c565b836145155760405162461bcd60e51b815260206004820152601c60248201527f546865207472616e73616374696f6e206973206e6f742076616c6964000000006044820152606401610961565b8360a081901c600061452561138d565b90506000614557826114a8857f00000000000000000000000000000000000000000000000000000000000000006141f1565b905060006145658a856112dd565b9050600081614575576000614585565b6145856127106114a885856141f1565b905088801561459357508015155b1561459d57600080fd5b6001600160a01b037f0000000000000000000000000000000000000000000000000000000000000000166340c10f19876145d78685613a45565b6040516001600160e01b031960e085901b1681526001600160a01b0390921660048301526024820152604401602060405180830381600087803b15801561461d57600080fd5b505af1158015614631573d6000803e3d6000fd5b505050506040513d601f19601f8201168201806040525081019061465591906157a3565b506008546146639082613cde565b6008556146708b86614b3b565b61467988614874565b604080516001600160a01b038816815260208101879052908101849052606081018590526080810182905260a081018990527fdfaf4e23f7030adafec91a682e05bf9fb30c721f9cec3d8bcfae0459c5362db19060c00160405180910390a15060019a9950505050505050505050565b600080546001600160a01b038381166001600160a01b0319831681178455604051919092169283917f8be0079c531659141344cd1fd0a4f28419497f9722a3daafe3b4186f6b6457e09190a35050565b6002819055604080518281524260208201527fa1cc12e33e9907b789fd3c10ea0afd9d3e563e2db44d84c7269534f1046d1ca1910160405180910390a150565b600081156147a257506001600160a01b0383166000908152600d60205260408120556001613a51565b6001600160a01b0384166000908152600e602052604090205460ff1661482657600f805460018082019092557f8d1108e10bcb7c27dddfc02ed9d693a074039d026cf4ea4240b40f7d581ac8020180546001600160a01b0319166001600160a01b0387169081179091556000908152600e60205260409020805460ff191690911790555b50506001600160a01b03919091166000908152600d6020526040902055600190565b6000818484111561486c5760405162461bcd60e51b81526004016109619190615bcf565b505050900390565b6000908152600c60205260409020805460ff19166001179055565b6040516001600160a01b03808516602483015283166044820152606481018290526111d69085906323b872dd60e01b906084015b60408051601f198184030181529190526020810180516001600160e01b03166001600160e01b031990931692909217909152614b5e565b604051636eb1769f60e11b81523060048201526001600160a01b038381166024830152600091839186169063dd62ed3e9060440160206040518083038186803b15801561494657600080fd5b505afa15801561495a573d6000803e3d6000fd5b505050506040513d601f19601f8201168201806040525081019061497e9190615674565b6149889190615890565b6040516001600160a01b0385166024820152604481018290529091506111d690859063095ea7b360e01b906064016148c3565b6149f881604051806060016040528060278152602001615c1f602791396001600160a01b0385166000908152600b60205260409020549190614848565b6001600160a01b039092166000908152600b602052604090209190915550565b60055442905b600454811161394a576002546000828152600360205260409020600401548391614a489190613cde565b1015614b29576000818152600360208181526040808420909201546001600160a01b037f000000000000000000000000000000000000000000000000000000000000000016845260108252828420308552909152912054614aa891613a45565b6001600160a01b037f0000000000000000000000000000000000000000000000000000000000000000166000908152601060209081526040808320308452825280832093909355838252600390819052918120818155600181018290556002810180546001600160a01b031916905591820181905560049091015560058190555b80614b33816156fb565b915050614a1e565b6001600160a01b0382166000908152600b60205260409020546149f89082613cde565b6000614bb3826040518060400160405280602081526020017f5361666545524332303a206c6f772d6c6576656c2063616c6c206661696c6564815250856001600160a01b0316614c309092919063ffffffff16565b805190915015613a405780806020019051810190614bd191906157a3565b613a405760405162461bcd60e51b815260206004820152602a60248201527f5361666545524332303a204552433230206f7065726174696f6e20646964206e6044820152691bdd081cdd58d8d9595960b21b6064820152608401610961565b6060614c3f8484600085614c47565b949350505050565b606082471015614ca85760405162461bcd60e51b815260206004820152602660248201527f416464726573733a20696e73756666696369656e742062616c616e636520666f6044820152651c8818d85b1b60d21b6064820152608401610961565b843b614cf65760405162461bcd60e51b815260206004820152601d60248201527f416464726573733a2063616c6c20746f206e6f6e2d636f6e74726163740000006044820152606401610961565b600080866001600160a01b03168587604051614d129190615c02565b60006040518083038185875af1925050503d8060008114614d4f576040519150601f19603f3d011682016040523d82523d6000602084013e614d54565b606091505b5091509150614d64828286614d6f565b979650505050505050565b60608315614d7e575081613a51565b825115614d8e5782518084602001fd5b8160405162461bcd60e51b81526004016109619190615bcf565b634e487b7160e01b600052600160045260246000fd5b6001600160a01b038116811461364757600080fd5b8035614dde81614dbe565b919050565b634e487b7160e01b600052604160045260246000fd5b604051601f8201601f191681016001600160401b0381118282101715614e2157614e21614de3565b604052919050565b60006001600160401b03821115614e4257614e42614de3565b5060051b60200190565b600082601f830112614e5d57600080fd5b81356020614e72614e6d83614e29565b614df9565b82815260059290921b84018101918181019086841115614e9157600080fd5b8286015b84811015614eac5780358352918301918301614e95565b509695505050505050565b60008060008060008060c08789031215614ed057600080fd5b8635614edb81614dbe565b95506020870135614eeb81614dbe565b945060408701359350606087013592506080870135915060a08701356001600160401b03811115614f1b57600080fd5b614f2789828a01614e4c565b9150509295509295509295565b801515811461364757600080fd5b60008083601f840112614f5457600080fd5b5081356001600160401b03811115614f6b57600080fd5b6020830191508360208260051b8501011115614f8657600080fd5b9250929050565b600080600080600080600060c0888a031215614fa857600080fd5b8735614fb381614f34565b96506020880135614fc381614dbe565b955060408801359450606088013593506080880135925060a08801356001600160401b03811115614ff357600080fd5b614fff8a828b01614f42565b989b979a50959850939692959293505050565b60006020828403121561502457600080fd5b5035919050565b602080825282518282018190526000919060409081850190868401855b82811015615095578151805185528681015187860152858101516001600160a01b031686860152606080820151908601526080908101519085015260a09093019290850190600101615048565b5091979650505050505050565b600080600080608085870312156150b857600080fd5b84356150c381614dbe565b966020860135965060408601359560600135945092505050565b600080604083850312156150f057600080fd5b82356150fb81614dbe565b946020939093013593505050565b60006101e0828403121561511c57600080fd5b50919050565b6000806040838503121561513557600080fd5b8235915060208301356001600160401b0381111561515257600080fd5b61515e85828601615109565b9150509250929050565b6000806040838503121561517b57600080fd5b823561518681614dbe565b9150602083013561519681614dbe565b809150509250929050565b6000602082840312156151b357600080fd5b81356001600160401b038111156151c957600080fd5b614c3f84828501615109565b600080600080608085870312156151eb57600080fd5b84356151f681614dbe565b935060208501359250604085013561520d81614f34565b9396929550929360600135925050565b6020808252825182820181905260009190848201906040850190845b8181101561525557835183529284019291840191600101615239565b50909695505050505050565b803560ff81168114614dde57600080fd5b600080600080600080600080610100898b03121561528f57600080fd5b883561529a81614dbe565b97506020898101356001600160401b03808211156152b757600080fd5b6152c38d838e01614e4c565b995060408c01359150808211156152d957600080fd5b508a01601f81018c136152eb57600080fd5b80356152f9614e6d82614e29565b81815260059190911b8201830190838101908e83111561531857600080fd5b928401925b8284101561533f57833561533081614f34565b8252928401929084019061531d565b809a50505050505061535360608a01615261565b945061536160808a01615261565b935061536f60a08a01615261565b925061537d60c08a01615261565b915060e089013590509295985092959890939650565b6000602082840312156153a557600080fd5b8135613a5181614dbe565b600080600080600060a086880312156153c857600080fd5b85356153d381614dbe565b945060208601356001600160401b03808211156153ef57600080fd5b6153fb89838a01614e4c565b95506040880135945060608801359350608088013591508082111561541f57600080fd5b5061542c88828901614e4c565b9150509295509295909350565b6000806000806080858703121561544f57600080fd5b843561545a81614dbe565b9350602085013592506040850135915060608501356001600160401b0381111561548357600080fd5b61548f87828801614e4c565b91505092959194509250565b600080604083850312156154ae57600080fd5b50508035926020909101359150565b60008060008060008060008060e0898b0312156154d957600080fd5b8835975060208901356154eb81614f34565b965060408901356154fb81614dbe565b9550606089013594506080890135935060a0890135925060c08901356001600160401b0381111561552b57600080fd5b6155378b828c01614f42565b999c989b5096995094979396929594505050565b6020808252818101527f4f776e61626c653a2063616c6c6572206973206e6f7420746865206f776e6572604082015260600190565b60208082526023908201527f5f64657374546f6b656e2073686f756c64206e6f74206265206164647265737360408201526228302960e81b606082015260800190565b6020808252601f908201527f5265656e7472616e637947756172643a207265656e7472616e742063616c6c00604082015260600190565b634e487b7160e01b600052603260045260246000fd5b634e487b7160e01b600052601160045260246000fd5b60008282101561563857615638615610565b500390565b60208082526019908201527f42616c616e6365206973206e6f742073756666696369656e7400000000000000604082015260600190565b60006020828403121561568657600080fd5b5051919050565b6020808252601c908201527f526563656976656420616d6f756e7420696e73756666696369656e7400000000604082015260600190565b6020808252601c908201527f526563656976656420616d6f756e742063616e206e6f74206265203000000000604082015260600190565b600060001982141561570f5761570f615610565b5060010190565b6001600160a01b03958616815293909416602084015260408301919091526060820152608081019190915260a00190565b600060ff821660ff84168060ff0382111561576457615764615610565b019392505050565b60208082526018908201527f546865207478696420697320616c726561647920757365640000000000000000604082015260600190565b6000602082840312156157b557600080fd5b8151613a5181614f34565b6000602082840312156157d257600080fd5b8151613a5181614dbe565b8183526000602080850194508260005b8581101561581b57813561580081614dbe565b6001600160a01b0316875295820195908201906001016157ed565b509495945050505050565b60018060a01b038716815285602082015284604082015283606082015260a06080820152600061585a60a0830184866157dd565b98975050505050505050565b8481528360208201526060604082015260006158866060830184866157dd565b9695505050505050565b600082198211156158a3576158a3615610565b500190565b60008160001904831182151516156158c2576158c2615610565b500290565b6000826158e457634e487b7160e01b600052601260045260246000fd5b500490565b6000808335601e1984360301811261590057600080fd5b83016020810192503590506001600160401b0381111561591f57600080fd5b8060051b3603831315614f8657600080fd5b6000808335601e1984360301811261594857600080fd5b83016020810192503590506001600160401b0381111561596757600080fd5b803603831315614f8657600080fd5b81835281816020850137506000828201602090810191909152601f909101601f19169091010190565b81835260006001600160fb1b038311156159b857600080fd5b8260051b8083602087013760009401602001938452509192915050565b80356001600160801b031981168114614dde57600080fd5b60208152615a0e60208201615a0184614dd3565b6001600160a01b03169052565b6000615a1c60208401614dd3565b6001600160a01b0381166040840152506040830135606083015260608301356080830152608083013560a0830152615a5760a08401846158e9565b6101e08060c0860152615a6f610200860183856157dd565b9250615a7e60c0870187615931565b9250601f19808786030160e0880152615a98858584615976565b9450615aa760e08901896158e9565b94509150610100818887030181890152615ac286868561599f565b9550615ad0818a018a6158e9565b9550925050610120818887030181890152615aec86868561599f565b9550615af9818a01614dd3565b9450506101409150615b15828801856001600160a01b03169052565b615b20828901614dd3565b93506101609150615b3b828801856001600160a01b03169052565b61018093508188013584880152615b5484890189615931565b945091506101a0818887030181890152615b6f868685615976565b95506101c094508089013585890152505050615b8c8287016159d5565b6001600160801b0319169401939093529392505050565b60005b83811015615bbe578181015183820152602001615ba6565b838111156111d65750506000910152565b6020815260008251806020840152615bee816040850160208701615ba3565b601f01601f19169190910160400192915050565b60008251615c14818460208701615ba3565b919091019291505056fe5f72656d6f7665466c6f61743a20666c6f617420616d6f756e7420696e73756666696369656e74a264697066735822122025ba95f5b31da13c4ff5f59375320ca5a4a1b1c65a10ef256d60da03709d40fc64736f6c63430008090033",
  "linkReferences": {},
  "deployedLinkReferences": {}
}