{
  "_format": "hh-sol-artifact-1",
  "contractName": "SwapContract",
  "sourceName": "contracts/SwapContract.sol",
  "abi": [
    {
      "inputs": [
        {
          "internalType": "address",
          "name": "_lpToken",
          "type": "address"
        },
        {
          "internalType": "address",
          "name": "_btct",
          "type": "address"
        },
        {
          "internalType": "uint256",
          "name": "_existingBTCFloat",
          "type": "uint256"
        }
      ],
      "stateMutability": "nonpayable",
      "type": "constructor"
    },
    {
      "anonymous": false,
      "inputs": [
        {
          "indexed": false,
          "internalType": "address",
          "name": "token",
          "type": "address"
        },
        {
          "indexed": false,
          "internalType": "uint256",
          "name": "amountOfLP",
          "type": "uint256"
        },
        {
          "indexed": false,
          "internalType": "uint256",
          "name": "amountOfFloat",
          "type": "uint256"
        },
        {
          "indexed": false,
          "internalType": "uint256",
          "name": "currentPriceLP",
          "type": "uint256"
        },
        {
          "indexed": false,
          "internalType": "uint256",
          "name": "withdrawal",
          "type": "uint256"
        },
        {
          "indexed": false,
          "internalType": "bytes32",
          "name": "txid",
          "type": "bytes32"
        }
      ],
      "name": "BurnLPTokensForFloat",
      "type": "event"
    },
    {
      "anonymous": false,
      "inputs": [
        {
          "indexed": false,
          "internalType": "address",
          "name": "token",
          "type": "address"
        },
        {
          "indexed": false,
          "internalType": "address",
          "name": "user",
          "type": "address"
        },
        {
          "indexed": false,
          "internalType": "uint256",
          "name": "amount",
          "type": "uint256"
        },
        {
          "indexed": false,
          "internalType": "uint256",
          "name": "balance",
          "type": "uint256"
        },
        {
          "indexed": false,
          "internalType": "uint256",
          "name": "Timestamp",
          "type": "uint256"
        }
      ],
      "name": "Deposit",
      "type": "event"
    },
    {
      "anonymous": false,
      "inputs": [
        {
          "indexed": false,
          "internalType": "uint256",
          "name": "rewardLPTsForNodes",
          "type": "uint256"
        }
      ],
      "name": "DistributeNodeRewards",
      "type": "event"
    },
    {
      "anonymous": false,
      "inputs": [
        {
          "indexed": false,
          "internalType": "address",
          "name": "to",
          "type": "address"
        },
        {
          "indexed": false,
          "internalType": "uint256",
          "name": "amountOfFloat",
          "type": "uint256"
        },
        {
          "indexed": false,
          "internalType": "uint256",
          "name": "amountOfLP",
          "type": "uint256"
        },
        {
          "indexed": false,
          "internalType": "uint256",
          "name": "currentPriceLP",
          "type": "uint256"
        },
        {
          "indexed": false,
          "internalType": "uint256",
          "name": "depositFees",
          "type": "uint256"
        },
        {
          "indexed": false,
          "internalType": "bytes32",
          "name": "txid",
          "type": "bytes32"
        }
      ],
      "name": "IssueLPTokensForFloat",
      "type": "event"
    },
    {
      "anonymous": false,
      "inputs": [
        {
          "indexed": true,
          "internalType": "address",
          "name": "previousOwner",
          "type": "address"
        },
        {
          "indexed": true,
          "internalType": "address",
          "name": "newOwner",
          "type": "address"
        }
      ],
      "name": "OwnershipTransferred",
      "type": "event"
    },
    {
      "anonymous": false,
      "inputs": [
        {
          "indexed": false,
          "internalType": "address",
          "name": "feesToken",
          "type": "address"
        },
        {
          "indexed": false,
          "internalType": "uint256",
          "name": "rewards",
          "type": "uint256"
        },
        {
          "indexed": false,
          "internalType": "uint256",
          "name": "amountLPTokensForNode",
          "type": "uint256"
        },
        {
          "indexed": false,
          "internalType": "uint256",
          "name": "currentPriceLP",
          "type": "uint256"
        }
      ],
      "name": "RewardsCollection",
      "type": "event"
    },
    {
      "anonymous": false,
      "inputs": [
        {
          "indexed": false,
          "internalType": "address",
          "name": "from",
          "type": "address"
        },
        {
          "indexed": false,
          "internalType": "address",
          "name": "to",
          "type": "address"
        },
        {
          "indexed": false,
          "internalType": "uint256",
          "name": "amount",
          "type": "uint256"
        }
      ],
      "name": "Swap",
      "type": "event"
    },
    {
      "anonymous": false,
      "inputs": [
        {
          "indexed": false,
          "internalType": "bytes32",
          "name": "swap_id",
          "type": "bytes32"
        },
        {
          "indexed": false,
          "internalType": "uint256",
          "name": "input_amount",
          "type": "uint256"
        },
        {
          "indexed": false,
          "internalType": "uint256",
          "name": "output_amount",
          "type": "uint256"
        },
        {
          "indexed": false,
          "internalType": "string",
          "name": "dest_address_btc",
          "type": "string"
        },
        {
          "indexed": false,
          "internalType": "uint64",
          "name": "Timestamp",
          "type": "uint64"
        },
        {
          "indexed": false,
          "internalType": "uint64",
          "name": "ExpirationTime",
          "type": "uint64"
        }
      ],
      "name": "SwapTokensToBTC",
      "type": "event"
    },
    {
      "anonymous": false,
      "inputs": [
        {
          "indexed": false,
          "internalType": "address",
          "name": "token",
          "type": "address"
        },
        {
          "indexed": false,
          "internalType": "address",
          "name": "user",
          "type": "address"
        },
        {
          "indexed": false,
          "internalType": "uint256",
          "name": "amount",
          "type": "uint256"
        },
        {
          "indexed": false,
          "internalType": "uint256",
          "name": "balance",
          "type": "uint256"
        }
      ],
      "name": "Withdraw",
      "type": "event"
    },
    {
      "stateMutability": "nonpayable",
      "type": "fallback"
    },
    {
      "inputs": [],
      "name": "BTCT_ADDR",
      "outputs": [
        {
          "internalType": "address",
          "name": "",
          "type": "address"
        }
      ],
      "stateMutability": "view",
      "type": "function"
    },
    {
      "inputs": [
        {
          "internalType": "address",
          "name": "_token",
          "type": "address"
        },
        {
          "internalType": "address",
          "name": "_user",
          "type": "address"
        }
      ],
      "name": "balanceOf",
      "outputs": [
        {
          "internalType": "uint256",
          "name": "",
          "type": "uint256"
        }
      ],
      "stateMutability": "view",
      "type": "function"
    },
    {
      "inputs": [
        {
          "internalType": "address",
          "name": "_newOwner",
          "type": "address"
        },
        {
          "internalType": "bytes32[]",
          "name": "_rewardAddressAndAmounts",
          "type": "bytes32[]"
        },
        {
          "internalType": "bool[]",
          "name": "_isRemoved",
          "type": "bool[]"
        },
        {
          "internalType": "uint8",
          "name": "_churnedInCount",
          "type": "uint8"
        },
        {
          "internalType": "uint8",
          "name": "_tssThreshold",
          "type": "uint8"
        },
        {
          "internalType": "uint8",
          "name": "_nodeRewardsRatio",
          "type": "uint8"
        },
        {
          "internalType": "uint8",
          "name": "_withdrawalFeeBPS",
          "type": "uint8"
        }
      ],
      "name": "churn",
      "outputs": [
        {
          "internalType": "bool",
          "name": "",
          "type": "bool"
        }
      ],
      "stateMutability": "nonpayable",
      "type": "function"
    },
    {
      "inputs": [],
      "name": "churnedInCount",
      "outputs": [
        {
          "internalType": "uint8",
          "name": "",
          "type": "uint8"
        }
      ],
      "stateMutability": "view",
      "type": "function"
    },
    {
      "inputs": [
        {
          "internalType": "address",
          "name": "_destToken",
          "type": "address"
        },
        {
          "internalType": "uint256",
          "name": "_incomingAmount",
          "type": "uint256"
        },
        {
          "internalType": "uint256",
          "name": "_minerFee",
          "type": "uint256"
        },
        {
          "internalType": "uint256",
          "name": "_rewardsAmount",
          "type": "uint256"
        }
      ],
      "name": "collectSwapFeesForBTC",
      "outputs": [
        {
          "internalType": "bool",
          "name": "",
          "type": "bool"
        }
      ],
      "stateMutability": "nonpayable",
      "type": "function"
    },
    {
      "inputs": [],
      "name": "depositFeesBPS",
      "outputs": [
        {
          "internalType": "uint8",
          "name": "",
          "type": "uint8"
        }
      ],
      "stateMutability": "view",
      "type": "function"
    },
    {
      "inputs": [],
      "name": "distributeNodeRewards",
      "outputs": [
        {
          "internalType": "bool",
          "name": "",
          "type": "bool"
        }
      ],
      "stateMutability": "nonpayable",
      "type": "function"
    },
    {
      "inputs": [
        {
          "components": [
            {
              "internalType": "address",
              "name": "fromToken",
              "type": "address"
            },
            {
              "internalType": "address",
              "name": "toToken",
              "type": "address"
            },
            {
              "internalType": "uint256",
              "name": "fromAmount",
              "type": "uint256"
            },
            {
              "internalType": "uint256",
              "name": "toAmount",
              "type": "uint256"
            },
            {
              "internalType": "uint256",
              "name": "expectedAmount",
              "type": "uint256"
            },
            {
              "internalType": "address[]",
              "name": "callees",
              "type": "address[]"
            },
            {
              "internalType": "bytes",
              "name": "exchangeData",
              "type": "bytes"
            },
            {
              "internalType": "uint256[]",
              "name": "startIndexes",
              "type": "uint256[]"
            },
            {
              "internalType": "uint256[]",
              "name": "values",
              "type": "uint256[]"
            },
            {
              "internalType": "address payable",
              "name": "beneficiary",
              "type": "address"
            },
            {
              "internalType": "address payable",
              "name": "partner",
              "type": "address"
            },
            {
              "internalType": "uint256",
              "name": "feePercent",
              "type": "uint256"
            },
            {
              "internalType": "bytes",
              "name": "permit",
              "type": "bytes"
            },
            {
              "internalType": "uint256",
              "name": "deadline",
              "type": "uint256"
            },
            {
              "internalType": "bytes16",
              "name": "uuid",
              "type": "bytes16"
            }
          ],
          "internalType": "struct Utils.SimpleData",
          "name": "data",
          "type": "tuple"
        }
      ],
      "name": "doParaSwap",
      "outputs": [],
      "stateMutability": "nonpayable",
      "type": "function"
    },
    {
      "inputs": [],
      "name": "expirationTime",
      "outputs": [
        {
          "internalType": "uint64",
          "name": "",
          "type": "uint64"
        }
      ],
      "stateMutability": "view",
      "type": "function"
    },
    {
      "inputs": [],
      "name": "feesLPTokensForNode",
      "outputs": [
        {
          "internalType": "uint256",
          "name": "",
          "type": "uint256"
        }
      ],
      "stateMutability": "view",
      "type": "function"
    },
    {
      "inputs": [],
      "name": "getActiveNodes",
      "outputs": [
        {
          "internalType": "bytes32[]",
          "name": "",
          "type": "bytes32[]"
        }
      ],
      "stateMutability": "view",
      "type": "function"
    },
    {
      "inputs": [],
      "name": "getCurrentPriceLP",
      "outputs": [
        {
          "internalType": "uint256",
          "name": "nowPrice",
          "type": "uint256"
        }
      ],
      "stateMutability": "view",
      "type": "function"
    },
    {
      "inputs": [
        {
          "internalType": "address",
          "name": "_token",
          "type": "address"
        },
        {
          "internalType": "uint256",
          "name": "_amountOfFloat",
          "type": "uint256"
        }
      ],
      "name": "getDepositFeeRate",
      "outputs": [
        {
          "internalType": "uint256",
          "name": "depositFeeRate",
          "type": "uint256"
        }
      ],
      "stateMutability": "view",
      "type": "function"
    },
    {
      "inputs": [
        {
          "internalType": "address",
          "name": "_tokenA",
          "type": "address"
        },
        {
          "internalType": "address",
          "name": "_tokenB",
          "type": "address"
        }
      ],
      "name": "getFloatReserve",
      "outputs": [
        {
          "internalType": "uint256",
          "name": "reserveA",
          "type": "uint256"
        },
        {
          "internalType": "uint256",
          "name": "reserveB",
          "type": "uint256"
        }
      ],
      "stateMutability": "view",
      "type": "function"
    },
    {
      "inputs": [],
      "name": "initialExchangeRate",
      "outputs": [
        {
          "internalType": "uint256",
          "name": "",
          "type": "uint256"
        }
      ],
      "stateMutability": "view",
      "type": "function"
    },
    {
      "inputs": [
        {
          "internalType": "bytes32",
          "name": "_txid",
          "type": "bytes32"
        }
      ],
      "name": "isTxUsed",
      "outputs": [
        {
          "internalType": "bool",
          "name": "",
          "type": "bool"
        }
      ],
      "stateMutability": "view",
      "type": "function"
    },
    {
      "inputs": [],
      "name": "lockedLPTokensForNode",
      "outputs": [
        {
          "internalType": "uint256",
          "name": "",
          "type": "uint256"
        }
      ],
      "stateMutability": "view",
      "type": "function"
    },
    {
      "inputs": [],
      "name": "lpToken",
      "outputs": [
        {
          "internalType": "address",
          "name": "",
          "type": "address"
        }
      ],
      "stateMutability": "view",
      "type": "function"
    },
    {
      "inputs": [
        {
          "internalType": "address",
          "name": "_destToken",
          "type": "address"
        },
        {
          "internalType": "bytes32[]",
          "name": "_addressesAndAmounts",
          "type": "bytes32[]"
        },
        {
          "internalType": "uint256",
          "name": "_totalSwapped",
          "type": "uint256"
        },
        {
          "internalType": "uint256",
          "name": "_rewardsAmount",
          "type": "uint256"
        },
        {
          "internalType": "bytes32[]",
          "name": "_redeemedFloatTxIds",
          "type": "bytes32[]"
        }
      ],
      "name": "multiTransferERC20TightlyPacked",
      "outputs": [
        {
          "internalType": "bool",
          "name": "",
          "type": "bool"
        }
      ],
      "stateMutability": "nonpayable",
      "type": "function"
    },
    {
      "inputs": [],
      "name": "nodeRewardsRatio",
      "outputs": [
        {
          "internalType": "uint8",
          "name": "",
          "type": "uint8"
        }
      ],
      "stateMutability": "view",
      "type": "function"
    },
    {
      "inputs": [],
      "name": "owner",
      "outputs": [
        {
          "internalType": "address",
          "name": "",
          "type": "address"
        }
      ],
      "stateMutability": "view",
      "type": "function"
    },
    {
      "inputs": [
        {
          "internalType": "address",
          "name": "_token",
          "type": "address"
        },
        {
          "internalType": "bytes32",
          "name": "_addressesAndAmountOfFloat",
          "type": "bytes32"
        },
        {
          "internalType": "bool",
          "name": "_zerofee",
          "type": "bool"
        },
        {
          "internalType": "bytes32",
          "name": "_txid",
          "type": "bytes32"
        }
      ],
      "name": "recordIncomingFloat",
      "outputs": [
        {
          "internalType": "bool",
          "name": "",
          "type": "bool"
        }
      ],
      "stateMutability": "nonpayable",
      "type": "function"
    },
    {
      "inputs": [
        {
          "internalType": "address",
          "name": "_token",
          "type": "address"
        },
        {
          "internalType": "bytes32",
          "name": "_addressesAndAmountOfLPtoken",
          "type": "bytes32"
        },
        {
          "internalType": "uint256",
          "name": "_minerFee",
          "type": "uint256"
        },
        {
          "internalType": "bytes32",
          "name": "_txid",
          "type": "bytes32"
        }
      ],
      "name": "recordOutcomingFloat",
      "outputs": [
        {
          "internalType": "bool",
          "name": "",
          "type": "bool"
        }
      ],
      "stateMutability": "nonpayable",
      "type": "function"
    },
    {
      "inputs": [
        {
          "internalType": "address",
          "name": "_destToken",
          "type": "address"
        },
        {
          "internalType": "address",
          "name": "_to",
          "type": "address"
        },
        {
          "internalType": "uint256",
          "name": "_amount",
          "type": "uint256"
        },
        {
          "internalType": "uint256",
          "name": "_totalSwapped",
          "type": "uint256"
        },
        {
          "internalType": "bytes32[]",
          "name": "_redeemedFloatTxIds",
          "type": "bytes32[]"
        }
      ],
      "name": "recordSkyPoolsTX",
      "outputs": [
        {
          "internalType": "bool",
          "name": "",
          "type": "bool"
        }
      ],
      "stateMutability": "nonpayable",
      "type": "function"
    },
    {
      "inputs": [
        {
          "internalType": "uint256",
          "name": "_minerFee",
          "type": "uint256"
        },
        {
          "internalType": "bytes32",
          "name": "_txid",
          "type": "bytes32"
        }
      ],
      "name": "recordUTXOSweepMinerFee",
      "outputs": [
        {
          "internalType": "bool",
          "name": "",
          "type": "bool"
        }
      ],
      "stateMutability": "nonpayable",
      "type": "function"
    },
    {
      "inputs": [
        {
          "internalType": "address",
          "name": "_token",
          "type": "address"
        },
        {
          "internalType": "uint256",
          "name": "_amount",
          "type": "uint256"
        }
      ],
      "name": "redeemERC20Token",
      "outputs": [
        {
          "internalType": "bool",
          "name": "",
          "type": "bool"
        }
      ],
      "stateMutability": "nonpayable",
      "type": "function"
    },
    {
      "inputs": [],
      "name": "renounceOwnership",
      "outputs": [],
      "stateMutability": "nonpayable",
      "type": "function"
    },
    {
      "inputs": [
        {
          "internalType": "uint64",
          "name": "_expirationTime",
          "type": "uint64"
        }
      ],
      "name": "setExpirationTime",
      "outputs": [],
      "stateMutability": "nonpayable",
      "type": "function"
    },
    {
      "inputs": [
        {
          "internalType": "address",
          "name": "_destToken",
          "type": "address"
        },
        {
          "internalType": "address",
          "name": "_to",
          "type": "address"
        },
        {
          "internalType": "uint256",
          "name": "_amount",
          "type": "uint256"
        },
        {
          "internalType": "uint256",
          "name": "_totalSwapped",
          "type": "uint256"
        },
        {
          "internalType": "uint256",
          "name": "_rewardsAmount",
          "type": "uint256"
        },
        {
          "internalType": "bytes32[]",
          "name": "_redeemedFloatTxIds",
          "type": "bytes32[]"
        }
      ],
      "name": "singleTransferERC20",
      "outputs": [
        {
          "internalType": "bool",
          "name": "",
          "type": "bool"
        }
      ],
      "stateMutability": "nonpayable",
      "type": "function"
    },
    {
      "inputs": [],
      "name": "spDepositEther",
      "outputs": [],
      "stateMutability": "payable",
      "type": "function"
    },
    {
      "inputs": [
        {
          "internalType": "address",
          "name": "_token",
          "type": "address"
        },
        {
          "internalType": "uint256",
          "name": "_amount",
          "type": "uint256"
        }
      ],
      "name": "spDepositToken",
      "outputs": [],
      "stateMutability": "nonpayable",
      "type": "function"
    },
    {
      "inputs": [
        {
          "internalType": "uint256",
          "name": "_swapID",
          "type": "uint256"
        }
      ],
      "name": "spExecuteSwap",
      "outputs": [],
      "stateMutability": "nonpayable",
      "type": "function"
    },
    {
      "inputs": [],
      "name": "spGetPendingSwaps",
      "outputs": [
        {
          "components": [
            {
              "internalType": "bytes32",
              "name": "SwapID",
              "type": "bytes32"
            },
            {
              "internalType": "string",
              "name": "DestAddr",
              "type": "string"
            },
            {
              "internalType": "uint256",
              "name": "AmountWBTC",
              "type": "uint256"
            },
            {
              "internalType": "uint64",
              "name": "Timestamp",
              "type": "uint64"
            },
            {
              "internalType": "uint64",
              "name": "ExpirationTime",
              "type": "uint64"
            }
          ],
          "internalType": "struct SwapContract.spPendingTx[]",
          "name": "data",
          "type": "tuple[]"
        }
      ],
      "stateMutability": "view",
      "type": "function"
    },
    {
      "inputs": [
        {
          "internalType": "string",
          "name": "destinationAddressForBTC",
          "type": "string"
        },
        {
          "components": [
            {
              "internalType": "address",
              "name": "fromToken",
              "type": "address"
            },
            {
              "internalType": "address",
              "name": "toToken",
              "type": "address"
            },
            {
              "internalType": "uint256",
              "name": "fromAmount",
              "type": "uint256"
            },
            {
              "internalType": "uint256",
              "name": "toAmount",
              "type": "uint256"
            },
            {
              "internalType": "uint256",
              "name": "expectedAmount",
              "type": "uint256"
            },
            {
              "internalType": "address[]",
              "name": "callees",
              "type": "address[]"
            },
            {
              "internalType": "bytes",
              "name": "exchangeData",
              "type": "bytes"
            },
            {
              "internalType": "uint256[]",
              "name": "startIndexes",
              "type": "uint256[]"
            },
            {
              "internalType": "uint256[]",
              "name": "values",
              "type": "uint256[]"
            },
            {
              "internalType": "address payable",
              "name": "beneficiary",
              "type": "address"
            },
            {
              "internalType": "address payable",
              "name": "partner",
              "type": "address"
            },
            {
              "internalType": "uint256",
              "name": "feePercent",
              "type": "uint256"
            },
            {
              "internalType": "bytes",
              "name": "permit",
              "type": "bytes"
            },
            {
              "internalType": "uint256",
              "name": "deadline",
              "type": "uint256"
            },
            {
              "internalType": "bytes16",
              "name": "uuid",
              "type": "bytes16"
            }
          ],
          "internalType": "struct Utils.SimpleData",
          "name": "data",
          "type": "tuple"
        }
      ],
      "name": "spParaSwapSimpleSwapAndRecord",
      "outputs": [],
      "stateMutability": "nonpayable",
      "type": "function"
    },
    {
      "inputs": [
        {
          "internalType": "address",
          "name": "",
          "type": "address"
        },
        {
          "internalType": "address",
          "name": "",
          "type": "address"
        }
      ],
      "name": "tokens",
      "outputs": [
        {
          "internalType": "uint256",
          "name": "",
          "type": "uint256"
        }
      ],
      "stateMutability": "view",
      "type": "function"
    },
    {
      "inputs": [
        {
          "internalType": "address",
          "name": "newOwner",
          "type": "address"
        }
      ],
      "name": "transferOwnership",
      "outputs": [],
      "stateMutability": "nonpayable",
      "type": "function"
    },
    {
      "inputs": [],
      "name": "tssThreshold",
      "outputs": [
        {
          "internalType": "uint8",
          "name": "",
          "type": "uint8"
        }
      ],
      "stateMutability": "view",
      "type": "function"
    },
    {
      "inputs": [
        {
          "internalType": "address",
          "name": "",
          "type": "address"
        }
      ],
      "name": "whitelist",
      "outputs": [
        {
          "internalType": "bool",
          "name": "",
          "type": "bool"
        }
      ],
      "stateMutability": "view",
      "type": "function"
    },
    {
      "inputs": [],
      "name": "withdrawalFeeBPS",
      "outputs": [
        {
          "internalType": "uint8",
          "name": "",
          "type": "uint8"
        }
      ],
      "stateMutability": "view",
      "type": "function"
    }
  ],
  "bytecode": "0x6101006040523480156200001257600080fd5b506040516200542738038062005427833981016040819052620000359162000347565b60006200004162000326565b600080546001600160a01b0319166001600160a01b0383169081178255604051929350917f8be0079c531659141344cd1fd0a4f28419497f9722a3daafe3b4186f6b6457e0908290a35060018055600280546001600160401b03191662093a801790556001600160601b0319606084901b1660a0526040805163313ce56760e01b815290516001600160a01b0385169163313ce567916004808301926020929190829003018186803b158015620000f757600080fd5b505afa1580156200010c573d6000803e3d6000fd5b505050506040513d601f19601f8201168201806040525081019062000132919062000387565b60ff16600a0a60e052606082901b6001600160601b0319166080526006805462ff00001916624200001763ff000000191663320000001760ff60201b19166414000000001790556040805163313ce56760e01b815290516008916001600160a01b0385169163313ce56791600480820192602092909190829003018186803b158015620001be57600080fd5b505afa158015620001d3573d6000803e3d6000fd5b505050506040513d601f19601f82011682018060405250810190620001f9919062000387565b0360ff16600a0a60c08181525050826001600160a01b031663313ce5676040518163ffffffff1660e01b815260040160206040518083038186803b1580156200024157600080fd5b505afa15801562000256573d6000803e3d6000fd5b505050506040513d601f19601f820116820180604052508101906200027c919062000387565b60ff16600a90810a6009556000600781905560088190556001600160a01b039384168152600560209081526040808320805460ff199081166001908117909255979096168352822080548716861790559080527f05b8ccbb9d4d8fb16ea74ce3c29a41f1b461fbdaff4714a0d9a8eb05499746bc80549095169093179093559190527f13da86008ba1c6922daee3e07db95305ef49ebced9f5467a0b8613fcc6b343e355620003b1565b3390565b80516001600160a01b03811681146200034257600080fd5b919050565b6000806000606084860312156200035c578283fd5b62000367846200032a565b925062000377602085016200032a565b9150604084015190509250925092565b60006020828403121562000399578081fd5b815160ff81168114620003aa578182fd5b9392505050565b60805160601c60a05160601c60c05160e051614f8b6200049c60003980610eb652806129ac5280612bd55280613243525080612ab852508061081b52806108565280610e0252806112de5280611c6d5280611ca852806122ab52806122e6528061241f52806124b552806128a85280612dad52806132b75250806107c752806107f952806108a45280610d275280610dd652806116525280611694528061172452806118ea52806119355280611c195280611c4b5280611e63528061225752806122895280612a7a5280612c6c5280612cd35280612d535280612e9d5280612eea5250614f8b6000f3fe60806040526004361061022f5760003560e01c8063715018a61161012e578063c810a539116100ab578063ec4827291161006f578063ec4827291461063b578063f2fde38b14610669578063f7824bc714610689578063f7888aec1461069e578063fbd5d789146106be5761022f565b8063c810a539146105a4578063d6b2779a146105c4578063da284dcc146105e4578063e6ca208414610606578063e9e9bf6a146106265761022f565b80639b19251a116100f25780639b19251a14610527578063ad289e7614610547578063b6268e5d14610567578063bc7751f31461057c578063c5f627ab1461059c5761022f565b8063715018a61461049d5780638006cc3e146104b25780638da5cb5b146104d25780638e483f9e146104e7578063954d7f3e146105075761022f565b806342419255116101bc5780635fc2598c116101805780635fc2598c1461040f5780635fcbd2851461043157806363f289d9146104465780636b51e919146104665780636d019f35146104885761022f565b8063424192551461038557806345137e271461039a5780634db75485146103af5780634e54cee0146103cf578063508493bc146103ef5761022f565b806312d1441e1161020357806312d1441e146102ec57806320199e99146103015780632586c562146103235780632d55282d146103435780633b6fa127146103655761022f565b806289356f1461025d5780630b68134d146102885780630d63aca71461029d5780630f909486146102ca575b34801561023b57600080fd5b5060405162461bcd60e51b815260040161025490614a32565b60405180910390fd5b34801561026957600080fd5b506102726106de565b60405161027f9190614d48565b60405180910390f35b34801561029457600080fd5b506102726106e7565b3480156102a957600080fd5b506102bd6102b8366004613dc4565b6106f6565b60405161027f9190614530565b3480156102d657600080fd5b506102df6108a2565b60405161027f919061430e565b3480156102f857600080fd5b506102726108c6565b34801561030d57600080fd5b506103166108d4565b60405161027f919061448f565b34801561032f57600080fd5b506102bd61033e366004614014565b610c12565b34801561034f57600080fd5b50610358610d04565b60405161027f9190614d1d565b34801561037157600080fd5b5061035861038036600461404e565b610d0a565b34801561039157600080fd5b50610272610dba565b3480156103a657600080fd5b50610358610dca565b3480156103bb57600080fd5b506102bd6103ca36600461404e565b610efc565b3480156103db57600080fd5b506102bd6103ea366004613e3f565b61100c565b3480156103fb57600080fd5b5061035861040a366004613d19565b61123a565b34801561041b57600080fd5b5061042f61042a3660046141c0565b611257565b005b34801561043d57600080fd5b506102df6112dc565b34801561045257600080fd5b506102bd610461366004613fcd565b611300565b34801561047257600080fd5b5061047b6113b5565b60405161027f919061444b565b34801561049457600080fd5b50610358611513565b3480156104a957600080fd5b5061042f611519565b3480156104be57600080fd5b506102bd6104cd366004614014565b6115c5565b3480156104de57600080fd5b506102df6116e9565b3480156104f357600080fd5b5061042f61050236600461404e565b6116f8565b34801561051357600080fd5b5061042f6105223660046140ad565b611883565b34801561053357600080fd5b506102bd610542366004613ce1565b611b33565b34801561055357600080fd5b506102bd610562366004613f54565b611b48565b34801561057357600080fd5b50610272611d2f565b34801561058857600080fd5b5061042f610597366004614155565b611d40565b61042f611f87565b3480156105b057600080fd5b506102bd6105bf36600461419f565b612052565b3480156105d057600080fd5b506102bd6105df366004613d51565b612186565b3480156105f057600080fd5b506105f961234c565b60405161027f9190614d34565b34801561061257600080fd5b506102bd610621366004614095565b61235b565b34801561063257600080fd5b506102bd612373565b34801561064757600080fd5b5061065b610656366004613d19565b6125f3565b60405161027f929190614d26565b34801561067557600080fd5b5061042f610684366004613ce1565b61261d565b34801561069557600080fd5b5061035861271f565b3480156106aa57600080fd5b506103586106b9366004613d19565b612725565b3480156106ca57600080fd5b5061042f6106d9366004614095565b612750565b60065460ff1681565b60065462010000900460ff1681565b60006107006127b5565b6001600160a01b03166107116116e9565b6001600160a01b03161461075a576040805162461bcd60e51b81526020600482018190526024820152600080516020614ee5833981519152604482015290519081900360640190fd5b6001600160a01b03871660009081526005602052604090205460ff166107925760405162461bcd60e51b8152600401610254906148b1565b6001600160a01b0387166107b85760405162461bcd60e51b815260040161025490614ae2565b600084156107f1576107ec60007f0000000000000000000000000000000000000000000000000000000000000000876127b9565b610819565b8461081957507f00000000000000000000000000000000000000000000000000000000000000005b7f00000000000000000000000000000000000000000000000000000000000000006001600160a01b0316886001600160a01b0316141561087657507f00000000000000000000000000000000000000000000000000000000000000005b610880818561289c565b61088983612a29565b610894888888612a78565b506001979650505050505050565b7f000000000000000000000000000000000000000000000000000000000000000081565b600654610100900460ff1681565b60606108de613b5d565b60035442906001600160401b03811180156108f857600080fd5b5060405190808252806020026020018201604052801561093257816020015b61091f613b5d565b8152602001906001900390816109175790505b50925060005b600454811015610c0c576003818154811061094f57fe5b90600052602060002090600402016040518060a001604052908160008201548152602001600182018054600181600116156101000203166002900480601f016020809104026020016040519081016040528092919081815260200182805460018160011615610100020316600290048015610a0b5780601f106109e057610100808354040283529160200191610a0b565b820191906000526020600020905b8154815290600101906020018083116109ee57829003601f168201915b5050509183525050600282015460208201526003909101546001600160401b038082166040840152600160401b909104166060909101528451859083908110610a5057fe5b6020026020010181905250816001600160401b031660038281548110610a7257fe5b60009182526020909120600360049092020101546001600160401b0316108015610acf575060006001600160401b031660038281548110610aaf57fe5b60009182526020909120600360049092020101546001600160401b031614155b15610c045760038181548110610ae157fe5b90600052602060002090600402016040518060a001604052908160008201548152602001600182018054600181600116156101000203166002900480601f016020809104026020016040519081016040528092919081815260200182805460018160011615610100020316600290048015610b9d5780601f10610b7257610100808354040283529160200191610b9d565b820191906000526020600020905b815481529060010190602001808311610b8057829003601f168201915b5050509183525050600282015460208201526003918201546001600160401b038082166040840152600160401b9091041660609091015280549194509082908110610be457fe5b60009182526020909120600360049092020101546001600160401b031691505b600101610938565b50505090565b6000610c1c6127b5565b6001600160a01b0316610c2d6116e9565b6001600160a01b031614610c76576040805162461bcd60e51b81526020600482018190526024820152600080516020614ee5833981519152604482015290519081900360640190fd5b6000610c80610dca565b6001600160a01b03871660009081526005602052604090205490915060ff16610cbb5760405162461bcd60e51b815260040161025490614a07565b610cc786868686612b6d565b610cd057600080fd5b6001915080610cdd610dca565b1015610cfb5760405162461bcd60e51b815260040161025490614b55565b50949350505050565b60075481565b600080610d178484612e91565b90508060ff1660011415610d7d577f00000000000000000000000000000000000000000000000000000000000000006001600160a01b0316846001600160a01b031614610d65576000610d73565b6006546301000000900460ff165b60ff169150610db3565b8060ff1660021415610db3576001600160a01b03841615610d9f576000610dad565b6006546301000000900460ff165b60ff1691505b5092915050565b6006546301000000900460ff1681565b6000806000610dfa60007f00000000000000000000000000000000000000000000000000000000000000006125f3565b9150915060007f00000000000000000000000000000000000000000000000000000000000000006001600160a01b03166318160ddd6040518163ffffffff1660e01b815260040160206040518083038186803b158015610e5957600080fd5b505afa158015610e6d573d6000803e3d6000fd5b505050506040513d601f19601f82011682018060405250810190610e919190614187565b90508015610ef057610eeb610eb160075483612f8090919063ffffffff16565b610ee57f0000000000000000000000000000000000000000000000000000000000000000610edf8787612f80565b90612fe1565b9061303a565b610ef4565b6009545b935050505090565b6001600160a01b0382166000908152600f60209081526040808320338452909152812054821115610f3f5760405162461bcd60e51b8152600401610254906149d9565b6001600160a01b0383166000908152600f60209081526040808320338452909152902054610f6d90836130a1565b6001600160a01b0384166000908152600f6020908152604080832033808552925290912091909155610fa190849084612a78565b6001600160a01b0383166000908152600f60209081526040808320338085529252918290205491517ff341246adaac6f497bc2a656f546ab9e182111d630394f0c57c710a59a2cb56792610ffa9287929091879161435f565b60405180910390a15060015b92915050565b60006110166127b5565b6001600160a01b03166110276116e9565b6001600160a01b031614611070576040805162461bcd60e51b81526020600482018190526024820152600080516020614ee5833981519152604482015290519081900360640190fd5b60065460ff610100909104811690851610801590611092575060ff8460ff1611155b6110ae5760405162461bcd60e51b815260040161025490614758565b6001840160ff168560ff1610156110d75760405162461bcd60e51b81526004016102549061480d565b60648360ff1611156110fb5760405162461bcd60e51b815260040161025490614583565b60648260ff16111561111f5760405162461bcd60e51b8152600401610254906147d6565b85518751146111405760405162461bcd60e51b81526004016102549061497c565b6111498861261d565b60005b87518110156111b157600061117389838151811061116657fe5b60200260200101516130fe565b5090506111a7818a848151811061118657fe5b60200260200101518a858151811061119a57fe5b6020026020010151613107565b505060010161114c565b5060606111bc6113b5565b90506064815111156111e05760405162461bcd60e51b815260040161025490614870565b50506006805460ff191660ff9586161761ff001916610100948616949094029390931762ff0000191662010000928516929092029190911764ff000000001916640100000000919093160291909117905550600192915050565b600f60209081526000928352604080842090915290825290205481565b61125f6127b5565b6001600160a01b03166112706116e9565b6001600160a01b0316146112b9576040805162461bcd60e51b81526020600482018190526024820152600080516020614ee5833981519152604482015290519081900360640190fd5b6002805467ffffffffffffffff19166001600160401b0392909216919091179055565b7f000000000000000000000000000000000000000000000000000000000000000081565b600061130a6127b5565b6001600160a01b031661131b6116e9565b6001600160a01b031614611364576040805162461bcd60e51b81526020600482018190526024820152600080516020614ee5833981519152604482015290519081900360640190fd5b600061136e610dca565b6001600160a01b03871660009081526005602052604090205490915060ff166113a95760405162461bcd60e51b815260040161025490614a07565b610cc7868686866131d6565b606060008060005b600e5481101561141857600c6000600e83815481106113d857fe5b60009182526020808320909101546001600160a01b03168352820192909252604001902054156114105761140d836001612f80565b92505b6001016113bd565b506060826001600160401b038111801561143157600080fd5b5060405190808252806020026020018201604052801561145b578160200160208202803683370190505b50905060005b600e5481101561150b57600c6000600e838154811061147c57fe5b60009182526020808320909101546001600160a01b031683528201929092526040019020541561150357600c6000600e83815481106114b757fe5b60009182526020808320909101546001600160a01b0316835282019290925260400190205482518390859081106114ea57fe5b6020908102919091010152611500836001612f80565b92505b600101611461565b509250505090565b60095481565b6115216127b5565b6001600160a01b03166115326116e9565b6001600160a01b03161461157b576040805162461bcd60e51b81526020600482018190526024820152600080516020614ee5833981519152604482015290519081900360640190fd5b600080546040516001600160a01b03909116907f8be0079c531659141344cd1fd0a4f28419497f9722a3daafe3b4186f6b6457e0908390a3600080546001600160a01b0319169055565b60006115cf6127b5565b6001600160a01b03166115e06116e9565b6001600160a01b031614611629576040805162461bcd60e51b81526020600482018190526024820152600080516020614ee5833981519152604482015290519081900360640190fd5b6001600160a01b038516156116505760405162461bcd60e51b81526004016102549061479f565b7f000000000000000000000000000000000000000000000000000000000000000084156116ca57600061168d8561168788876130a1565b906130a1565b90506116c47f000000000000000000000000000000000000000000000000000000000000000060006116bf8489612f80565b6127b9565b506116d3565b846116d3575060005b6116dd818461289c565b50600195945050505050565b6000546001600160a01b031690565b6001600160a01b03821673eeeeeeeeeeeeeeeeeeeeeeeeeeeeeeeeeeeeeeee141561172257600080fd5b7f00000000000000000000000000000000000000000000000000000000000000006001600160a01b0316826001600160a01b0316141561176157600080fd5b6040516323b872dd60e01b81526001600160a01b038316906323b872dd9061179190339030908690600401614322565b602060405180830381600087803b1580156117ab57600080fd5b505af11580156117bf573d6000803e3d6000fd5b505050506040513d601f19601f820116820180604052508101906117e39190614079565b6117ec57600080fd5b6001600160a01b0382166000908152600f6020908152604080832033845290915290205461181a9082612f80565b6001600160a01b0383166000908152600f602090815260408083203380855292529182902083905590517f4e2ca0515ed1aef1395f66b5303bb5d6f1bf9d61a353fa53f73f8ac9973fa9f6926118779286929091869142906143b9565b60405180910390a15050565b600260015414156118db576040805162461bcd60e51b815260206004820152601f60248201527f5265656e7472616e637947756172643a207265656e7472616e742063616c6c00604482015290519081900360640190fd5b60026001556001600160a01b037f0000000000000000000000000000000000000000000000000000000000000000166119176020830183613ce1565b6001600160a01b0316141561192b57600080fd5b6001600160a01b037f0000000000000000000000000000000000000000000000000000000000000000166119656040830160208401613ce1565b6001600160a01b03161461198b5760405162461bcd60e51b815260040161025490614b25565b3061199e61014083016101208401613ce1565b6001600160a01b0316146119c45760405162461bcd60e51b81526004016102549061491f565b6040810135600f60006119da6020850185613ce1565b6001600160a01b03168152602080820192909252604090810160009081203382529092529020541015611a1f5760405162461bcd60e51b815260040161025490614684565b611a656040820135600f6000611a386020860186613ce1565b6001600160a01b0316815260208082019290925260409081016000908120338252909252902054906130a1565b600f6000611a766020850185613ce1565b6001600160a01b0316815260208082019290925260409081016000908120338252909252812091909155611aa9826133cc565b9050611ae381600a6000611ac36040870160208801613ce1565b6001600160a01b0316815260208101919091526040016000205490612f80565b600a6000611af76040860160208701613ce1565b6001600160a01b03166001600160a01b0316815260200190815260200160002081905550611b2a8382846040013561352a565b50506001805550565b60056020526000908152604090205460ff1681565b6000611b526127b5565b6001600160a01b0316611b636116e9565b6001600160a01b031614611bac576040805162461bcd60e51b81526020600482018190526024820152600080516020614ee5833981519152604482015290519081900360640190fd5b6001600160a01b03861660009081526005602052604090205460ff16611be45760405162461bcd60e51b8152600401610254906148b1565b6001600160a01b038616611c0a5760405162461bcd60e51b815260040161025490614ae2565b60008415611c4357611c3e60007f0000000000000000000000000000000000000000000000000000000000000000876127b9565b611c6b565b84611c6b57507f00000000000000000000000000000000000000000000000000000000000000005b7f00000000000000000000000000000000000000000000000000000000000000006001600160a01b0316876001600160a01b03161415611cc857507f00000000000000000000000000000000000000000000000000000000000000005b611cd2818561289c565b611cdb83612a29565b60005b865181101561089457611d2788888381518110611cf757fe5b602002602001015160001c898481518110611d0e57fe5b602002602001015160a01c6001600160601b0316612a78565b600101611cde565b600654640100000000900460ff1681565b60026001541415611d98576040805162461bcd60e51b815260206004820152601f60248201527f5265656e7472616e637947756172643a207265656e7472616e742063616c6c00604482015290519081900360640190fd5b600260015533611db061014083016101208401613ce1565b6001600160a01b031614611dd65760405162461bcd60e51b8152600401610254906145ba565b6040810135600f6000611dec6020850185613ce1565b6001600160a01b031681526020810191909152604001600090812090611e1a61014085016101208601613ce1565b6001600160a01b03166001600160a01b03168152602001908152602001600020541015611e595760405162461bcd60e51b815260040161025490614684565b6001600160a01b037f000000000000000000000000000000000000000000000000000000000000000016611e906020830183613ce1565b6001600160a01b031614611eb65760405162461bcd60e51b8152600401610254906146bb565b611ebf816133cc565b50611f276040820135600f6000611ed96020860186613ce1565b6001600160a01b031681526020810191909152604001600090812090611f0761014086016101208701613ce1565b6001600160a01b03168152602081019190915260400160002054906130a1565b600f6000611f386020850185613ce1565b6001600160a01b031681526020810191909152604001600090812090611f6661014085016101208601613ce1565b6001600160a01b031681526020810191909152604001600020555060018055565b60003411611f9457600080fd5b3360009081527fa781ca3e4bac15fa51ec762ef622d608ed239712ac63433a052bbf28d546961f6020526040902054611fcd9034612f80565b3360008181527fa781ca3e4bac15fa51ec762ef622d608ed239712ac63433a052bbf28d546961f602052604090819020839055517f4e2ca0515ed1aef1395f66b5303bb5d6f1bf9d61a353fa53f73f8ac9973fa9f6926120489273eeeeeeeeeeeeeeeeeeeeeeeeeeeeeeeeeeeeeeee92909134914290614388565b60405180910390a1565b600061205c6127b5565b6001600160a01b031661206d6116e9565b6001600160a01b0316146120b6576040805162461bcd60e51b81526020600482018190526024820152600080516020614ee5833981519152604482015290519081900360640190fd5b6120bf8261235b565b156120dc5760405162461bcd60e51b815260040161025490614839565b60408051808201909152601d81527f42544320666c6f617420616d6f756e7420696e73756666696369656e7400000060208083019190915260008052600a90527f13da86008ba1c6922daee3e07db95305ef49ebced9f5467a0b8613fcc6b343e3546121499185906136b0565b60008052600a6020527f13da86008ba1c6922daee3e07db95305ef49ebced9f5467a0b8613fcc6b343e35561217d82613747565b50600192915050565b60006121906127b5565b6001600160a01b03166121a16116e9565b6001600160a01b0316146121ea576040805162461bcd60e51b81526020600482018190526024820152600080516020614ee5833981519152604482015290519081900360640190fd5b6001600160a01b03861660009081526005602052604090205460ff166122225760405162461bcd60e51b8152600401610254906148b1565b6001600160a01b0386166122485760405162461bcd60e51b815260040161025490614ae2565b600083156122815761227c60007f0000000000000000000000000000000000000000000000000000000000000000866127b9565b6122a9565b836122a957507f00000000000000000000000000000000000000000000000000000000000000005b7f00000000000000000000000000000000000000000000000000000000000000006001600160a01b0316876001600160a01b0316141561230657507f00000000000000000000000000000000000000000000000000000000000000005b6123108786613762565b61231983612a29565b505050506001600160a01b039283166000908152600f602090815260408083209490951682529290925291902055600190565b6002546001600160401b031681565b6000818152600b602052604090205460ff165b919050565b60008061238d600854600754612f8090919063ffffffff16565b9050600081116123af5760405162461bcd60e51b81526004016102549061463f565b60606123b96113b5565b90506000805b8251811015612404576123fa8382815181106123d757fe5b602002602001015160a01c6001600160601b031683612f8090919063ffffffff16565b91506001016123bf565b506007546040516340c10f1960e01b81526001600160a01b037f000000000000000000000000000000000000000000000000000000000000000016916340c10f1991612454913091600401614346565b602060405180830381600087803b15801561246e57600080fd5b505af1158015612482573d6000803e3d6000fd5b505050506040513d601f19601f820116820180604052508101906124a69190614079565b5060005b82518110156125a7577f00000000000000000000000000000000000000000000000000000000000000006001600160a01b031663a9059cbb8483815181106124ee57fe5b602002602001015160001c61252f85610ee588878151811061250c57fe5b602002602001015160a01c6001600160601b03168a612fe190919063ffffffff16565b6040518363ffffffff1660e01b815260040161254c929190614346565b602060405180830381600087803b15801561256657600080fd5b505af115801561257a573d6000803e3d6000fd5b505050506040513d601f19601f8201168201806040525081019061259e9190614079565b506001016124aa565b507f86dd6ae252e62228b47b3c1a12762cbf634952b2d29319b04f4f72fb153bcbdd836040516125d79190614d1d565b60405180910390a1505060006007819055600855506001905090565b6001600160a01b039182166000908152600a60205260408082205492909316815291909120549091565b6126256127b5565b6001600160a01b03166126366116e9565b6001600160a01b03161461267f576040805162461bcd60e51b81526020600482018190526024820152600080516020614ee5833981519152604482015290519081900360640190fd5b6001600160a01b0381166126c45760405162461bcd60e51b8152600401808060200182810382526026815260200180614e786026913960400191505060405180910390fd5b600080546040516001600160a01b03808516939216917f8be0079c531659141344cd1fd0a4f28419497f9722a3daafe3b4186f6b6457e091a3600080546001600160a01b0319166001600160a01b0392909216919091179055565b60085481565b6001600160a01b039182166000908152600f6020908152604080832093909416825291909152205490565b6127586127b5565b6001600160a01b03166127696116e9565b6001600160a01b0316146127b2576040805162461bcd60e51b81526020600482018190526024820152600080516020614ee5833981519152604482015290519081900360640190fd5b50565b3390565b60408051808201825260208082527f5f737761703a20666c6f617420616d6f756e7420696e73756666696369656e74818301526001600160a01b0385166000908152600a90915291909120546128109183906136b0565b6001600160a01b038084166000908152600a6020526040808220939093559085168152205461283f9082612f80565b6001600160a01b0384166000908152600a60205260409081902091909155517fea368a40e9570069bb8e6511d668293ad2e1f03b0d982431fd223de9f3b70ca69061288f90859085908590614322565b60405180910390a1505050565b806128a657612a25565b7f00000000000000000000000000000000000000000000000000000000000000006001600160a01b0316826001600160a01b03161415612934576008546128ed9082612f80565b6008556040517fe3debe835f6848edc082b32a1d729781d3bfcd7e14422d80bcaa6794d3816b2f90612927908490849060009081906143f2565b60405180910390a1612a25565b600061293e610dca565b6001600160a01b0384166000908152600a60205260409020549091506129649083612f80565b6001600160a01b0384166000908152600a602052604081209190915560065461299e90606490610ee590869062010000900460ff16612fe1565b905060006129d083610ee5847f0000000000000000000000000000000000000000000000000000000000000000612fe1565b6007549091506129e09082612f80565b6007556040517fe3debe835f6848edc082b32a1d729781d3bfcd7e14422d80bcaa6794d3816b2f90612a199087908790859088906143f2565b60405180910390a15050505b5050565b60005b8151811015612a25576001600b6000848481518110612a4757fe5b6020908102919091018101518252810191909152604001600020805460ff1916911515919091179055600101612a2c565b7f00000000000000000000000000000000000000000000000000000000000000006001600160a01b0316836001600160a01b03161415612adf57612adc817f0000000000000000000000000000000000000000000000000000000000000000612fe1565b90505b60405163a9059cbb60e01b81526001600160a01b0384169063a9059cbb90612b0d9085908590600401614346565b602060405180830381600087803b158015612b2757600080fd5b505af1158015612b3b573d6000803e3d6000fd5b505050506040513d601f19601f82011682018060405250810190612b5f9190614079565b612b6857600080fd5b505050565b6000612b788261235b565b15612b955760405162461bcd60e51b815260040161025490614839565b83612bb25760405162461bcd60e51b8152600401610254906148e8565b600080612bbe866130fe565b915091506000612bcc610dca565b90506000612bfe7f0000000000000000000000000000000000000000000000000000000000000000610ee58585612fe1565b600654909150600090612c259061271090610ee5908590640100000000900460ff16612fe1565b905087612c3283836130a1565b1015612c505760405162461bcd60e51b815260040161025490614704565b6000612c608961168785856130a1565b9050600080612c9060007f00000000000000000000000000000000000000000000000000000000000000006125f3565b90925090506001600160a01b038d16612cd157612cad85856130a1565b821015612ccc5760405162461bcd60e51b815260040161025490614608565b612d34565b7f00000000000000000000000000000000000000000000000000000000000000006001600160a01b03168d6001600160a01b03161415612d3457612d1585856130a1565b811015612d345760405162461bcd60e51b815260040161025490614608565b612d3e8d8561289c565b612d488d86613762565b612d518a613747565b7f00000000000000000000000000000000000000000000000000000000000000006001600160a01b03168d6001600160a01b03161415612d9657612d968d8985612a78565b604051630852cd8d60e31b81526001600160a01b037f000000000000000000000000000000000000000000000000000000000000000016906342966c6890612de2908a90600401614d1d565b602060405180830381600087803b158015612dfc57600080fd5b505af1158015612e10573d6000803e3d6000fd5b505050506040513d601f19601f82011682018060405250810190612e349190614079565b612e3d57600080fd5b7fa9da34e5e4a956b744307ae7611795634e8365951073bf049d76b64b2ae7a05888888789878f604051612e7696959493929190614418565b60405180910390a15060019c9b505050505050505050505050565b6000806000612ec160007f00000000000000000000000000000000000000000000000000000000000000006125f3565b90925090506000612ee66003610ee56002610edf89612ee08989612f80565b90612f80565b90507f00000000000000000000000000000000000000000000000000000000000000006001600160a01b0316866001600160a01b0316148015612f32575080612f2f8387612f80565b10155b15612f435760019350505050611006565b6001600160a01b038616158015612f63575080612f608487612f80565b10155b15612f745760029350505050611006565b50600095945050505050565b600082820183811015612fda576040805162461bcd60e51b815260206004820152601b60248201527f536166654d6174683a206164646974696f6e206f766572666c6f770000000000604482015290519081900360640190fd5b9392505050565b600082612ff057506000611006565b82820282848281612ffd57fe5b0414612fda5760405162461bcd60e51b8152600401808060200182810382526021815260200180614ec46021913960400191505060405180910390fd5b6000808211613090576040805162461bcd60e51b815260206004820152601a60248201527f536166654d6174683a206469766973696f6e206279207a65726f000000000000604482015290519081900360640190fd5b81838161309957fe5b049392505050565b6000828211156130f8576040805162461bcd60e51b815260206004820152601e60248201527f536166654d6174683a207375627472616374696f6e206f766572666c6f770000604482015290519081900360640190fd5b50900390565b9060a082901c90565b6000811561313057506001600160a01b0383166000908152600c60205260408120556001612fda565b6001600160a01b0384166000908152600d602052604090205460ff166131b457600e805460018082019092557fbb7b4a454dc3493923482f07822329ed19e8244eff582cc204f8554c3620c3fd0180546001600160a01b0319166001600160a01b0387169081179091556000908152600d60205260409020805460ff191690911790555b50506001600160a01b03919091166000908152600c6020526040902055600190565b60006131e18261235b565b156131fe5760405162461bcd60e51b815260040161025490614839565b8361321b5760405162461bcd60e51b8152600401610254906148e8565b600080613227866130fe565b915091506000613235610dca565b9050600061326782610ee5857f0000000000000000000000000000000000000000000000000000000000000000612fe1565b905060006132758a85610d0a565b9050600081613285576000613295565b613295612710610ee58585612fe1565b90508880156132a357508015155b156132ad57600080fd5b6001600160a01b037f0000000000000000000000000000000000000000000000000000000000000000166340c10f19876132e786856130a1565b6040518363ffffffff1660e01b8152600401613304929190614346565b602060405180830381600087803b15801561331e57600080fd5b505af1158015613332573d6000803e3d6000fd5b505050506040513d601f19601f820116820180604052508101906133569190614079565b506007546133649082612f80565b6007556133718b866137bf565b61337a88613747565b7fdfaf4e23f7030adafec91a682e05bf9fb30c721f9cec3d8bcfae0459c5362db186868587858d6040516133b396959493929190614418565b60405180910390a15060019a9950505050505050505050565b60008073def171fe48cf0115b1d80b88dc8eab59176fee576001600160a01b031663d2c4b5986040518163ffffffff1660e01b815260040160206040518083038186803b15801561341c57600080fd5b505afa158015613430573d6000803e3d6000fd5b505050506040513d601f19601f820116820180604052508101906134549190613cfd565b905061347c81604085013561346c6020870187613ce1565b6001600160a01b031691906137e2565b6040516354e3f31b60e01b815273def171fe48cf0115b1d80b88dc8eab59176fee57906354e3f31b906134b3908690600401614b80565b602060405180830381600087803b1580156134cd57600080fd5b505af11580156134e1573d6000803e3d6000fd5b505050506040513d601f19601f820116820180604052508101906135059190614187565b9150816135245760405162461bcd60e51b815260040161025490614aab565b50919050565b6000600454848484426040516020016135479594939291906142d4565b60408051601f19818403018152828252805160209182012060a0840183528084529083018790529082018590526001600160401b0342818116606085015260025492945060039392608084019261359f929116612f80565b6001600160401b0316905281546001818101845560009384526020938490208351600490930201918255838301518051939492936135e593928501929190910190613b8c565b50604082015160028281019190915560608301516003909201805460809094015167ffffffffffffffff199094166001600160401b03938416176fffffffffffffffff00000000000000001916600160401b948416949094029390931790925590547f83338cce32e9e34beb409352823d58dca7a8c20826c335abf22a00e1cd871238918391859187918991429161367f91839116612f80565b6040516136919695949392919061453b565b60405180910390a16004546136a7906001612f80565b60045550505050565b6000818484111561373f5760405162461bcd60e51b81526004018080602001828103825283818151815260200191508051906020019080838360005b838110156137045781810151838201526020016136ec565b50505050905090810190601f1680156137315780820380516001836020036101000a031916815260200191505b509250505060405180910390fd5b505050900390565b6000908152600b60205260409020805460ff19166001179055565b61379f81604051806060016040528060278152602001614f05602791396001600160a01b0385166000908152600a602052604090205491906136b0565b6001600160a01b039092166000908152600a602052604090209190915550565b6001600160a01b0382166000908152600a602052604090205461379f9082612f80565b600081846001600160a01b031663dd62ed3e30866040518363ffffffff1660e01b815260040180836001600160a01b03168152602001826001600160a01b031681526020019250505060206040518083038186803b15801561384357600080fd5b505afa158015613857573d6000803e3d6000fd5b505050506040513d602081101561386d57600080fd5b5051604080516001600160a01b03871660248201529290910160448084018290528251808503909101815260649093019091526020820180516001600160e01b031663095ea7b360e01b17905291506138c79085906138cd565b50505050565b6060613922826040518060400160405280602081526020017f5361666545524332303a206c6f772d6c6576656c2063616c6c206661696c6564815250856001600160a01b031661397e9092919063ffffffff16565b805190915015612b685780806020019051602081101561394157600080fd5b5051612b685760405162461bcd60e51b815260040180806020018281038252602a815260200180614f2c602a913960400191505060405180910390fd5b606061398d8484600085613995565b949350505050565b6060824710156139d65760405162461bcd60e51b8152600401808060200182810382526026815260200180614e9e6026913960400191505060405180910390fd5b6139df85613af1565b613a30576040805162461bcd60e51b815260206004820152601d60248201527f416464726573733a2063616c6c20746f206e6f6e2d636f6e7472616374000000604482015290519081900360640190fd5b60006060866001600160a01b031685876040518082805190602001908083835b60208310613a6f5780518252601f199092019160209182019101613a50565b6001836020036101000a03801982511681845116808217855250505050505090500191505060006040518083038185875af1925050503d8060008114613ad1576040519150601f19603f3d011682016040523d82523d6000602084013e613ad6565b606091505b5091509150613ae6828286613af7565b979650505050505050565b3b151590565b60608315613b06575081612fda565b825115613b165782518084602001fd5b60405162461bcd60e51b81526020600482018181528451602484015284518593919283926044019190850190808383600083156137045781810151838201526020016136ec565b6040805160a0810182526000808252606060208301819052928201819052918101829052608081019190915290565b828054600181600116156101000203166002900490600052602060002090601f016020900481019282613bc25760008555613c08565b82601f10613bdb57805160ff1916838001178555613c08565b82800160010185558215613c08579182015b82811115613c08578251825591602001919060010190613bed565b50613c14929150613c18565b5090565b5b80821115613c145760008155600101613c19565b803561236e81614e54565b600082601f830112613c48578081fd5b8135613c5b613c5682614d79565b614d56565b818152915060208083019084810181840286018201871015613c7c57600080fd5b60005b84811015613c9b57813584529282019290820190600101613c7f565b505050505092915050565b80356001600160801b03198116811461236e57600080fd5b60006101e08284031215613524578081fd5b803560ff8116811461236e57600080fd5b600060208284031215613cf2578081fd5b8135612fda81614e54565b600060208284031215613d0e578081fd5b8151612fda81614e54565b60008060408385031215613d2b578081fd5b8235613d3681614e54565b91506020830135613d4681614e54565b809150509250929050565b600080600080600060a08688031215613d68578081fd5b8535613d7381614e54565b94506020860135613d8381614e54565b9350604086013592506060860135915060808601356001600160401b03811115613dab578182fd5b613db788828901613c38565b9150509295509295909350565b60008060008060008060c08789031215613ddc578081fd5b8635613de781614e54565b95506020870135613df781614e54565b945060408701359350606087013592506080870135915060a08701356001600160401b03811115613e26578182fd5b613e3289828a01613c38565b9150509295509295509295565b600080600080600080600060e0888a031215613e59578081fd5b8735613e6481614e54565b96506020888101356001600160401b0380821115613e80578384fd5b613e8c8c838d01613c38565b985060408b0135915080821115613ea1578384fd5b508901601f81018b13613eb2578283fd5b8035613ec0613c5682614d79565b81815283810190838501858402850186018f1015613edc578687fd5b8694505b83851015613f07578035613ef381614e69565b835260019490940193918501918501613ee0565b508099505050505050613f1c60608901613cd0565b9350613f2a60808901613cd0565b9250613f3860a08901613cd0565b9150613f4660c08901613cd0565b905092959891949750929550565b600080600080600060a08688031215613f6b578283fd5b8535613f7681614e54565b945060208601356001600160401b0380821115613f91578485fd5b613f9d89838a01613c38565b955060408801359450606088013593506080880135915080821115613fc0578283fd5b50613db788828901613c38565b60008060008060808587031215613fe2578182fd5b8435613fed81614e54565b935060208501359250604085013561400481614e69565b9396929550929360600135925050565b60008060008060808587031215614029578182fd5b843561403481614e54565b966020860135965060408601359560600135945092505050565b60008060408385031215614060578182fd5b823561406b81614e54565b946020939093013593505050565b60006020828403121561408a578081fd5b8151612fda81614e69565b6000602082840312156140a6578081fd5b5035919050565b600080604083850312156140bf578182fd5b82356001600160401b03808211156140d5578384fd5b818501915085601f8301126140e8578384fd5b8135818111156140f457fe5b6020614108601f8301601f19168201614d56565b828152888284870101111561411b578687fd5b82828601838301379182018101959095529385013591508082111561413e578283fd5b5061414b85828601613cbe565b9150509250929050565b600060208284031215614166578081fd5b81356001600160401b0381111561417b578182fd5b61398d84828501613cbe565b600060208284031215614198578081fd5b5051919050565b600080604083850312156141b1578182fd5b50508035926020909101359150565b6000602082840312156141d1578081fd5b81356001600160401b0381168114612fda578182fd5b6001600160a01b03169052565b60008284526020808501945082825b8581101561423157813561421681614e54565b6001600160a01b031687529582019590820190600101614203565b509495945050505050565b81835260006001600160fb1b03831115614254578081fd5b6020830280836020870137939093016020019283525090919050565b6001600160801b0319169052565b60008284528282602086013780602084860101526020601f19601f85011685010190509392505050565b600081518084526142c0816020860160208601614e28565b601f01601f19169290920160200192915050565b600086825285516142ec816020850160208a01614e28565b6020920191820194909452604081019290925260608201526080019392505050565b6001600160a01b0391909116815260200190565b6001600160a01b039384168152919092166020820152604081019190915260600190565b6001600160a01b03929092168252602082015260400190565b6001600160a01b0394851681529290931660208301526040820152606081019190915260800190565b6001600160a01b03958616815293909416602084015260408301919091526060820152608081019190915260a00190565b6001600160a01b039586168152939094166020840152604083019190915260608201526001600160401b03909116608082015260a00190565b6001600160a01b0394909416845260208401929092526040830152606082015260800190565b6001600160a01b03969096168652602086019490945260408501929092526060840152608083015260a082015260c00190565b6020808252825182820181905260009190848201906040850190845b8181101561448357835183529284019291840191600101614467565b50909695505050505050565b60208082528251828201819052600091906040908185019080840286018301878501865b8381101561452257603f19898403018552815160a08151855288820151818a8701526144e1828701826142a8565b838a0151878b01526060808501516001600160401b0390811691890191909152608094850151169390960192909252505093860193908601906001016144b3565b509098975050505050505050565b901515815260200190565b600087825286602083015285604083015260c0606083015261456060c08301866142a8565b6001600160401b0394851660808401529290931660a09091015295945050505050565b6020808252601e908201527f5f6e6f646552657761726473526174696f206973206e6f742076616c69640000604082015260600190565b6020808252602e908201527f596f752063616e206f6e6c79206578656375746520737761707320746f20796f60408201526d7572206f776e206164647265737360901b606082015260800190565b6020808252601f908201527f54686520666c6f61742062616c616e636520696e73756666696369656e742e00604082015260600190565b60208082526025908201527f746f74616c5265776172644c5073466f724e6f6465206973206e6f7420706f73604082015264697469766560d81b606082015260800190565b60208082526019908201527f42616c616e6365206973206e6f742073756666696369656e7400000000000000604082015260600190565b60208082526029908201527f66726f6d546f6b656e206d7573742062652074686520726571756972656420426040820152682a21ba103a37b5b2b760b91b606082015260800190565b60208082526034908201527f4572726f723a20616d6f756e744f66466c6f61742e737562287769746864726160408201527377616c4665657329203c205f6d696e657246656560601b606082015260800190565b60208082526027908201527f5f7473735468726573686f6c642073686f756c64206265203e3d2074737354686040820152661c995cda1bdb1960ca1b606082015260800190565b6020808252601f908201527f5f64657374546f6b656e2073686f756c64206265206164647265737328302900604082015260600190565b6020808252601c908201527f5f7769746864726177616c46656542505320697320696e76616c696400000000604082015260600190565b6020808252601290820152716e2073686f756c64206265203e3d20742b3160701b604082015260600190565b60208082526018908201527f546865207478696420697320616c726561647920757365640000000000000000604082015260600190565b60208082526021908201527f53746f726564206e6f64652073697a652073686f756c64206265203c3d2031306040820152600360fc1b606082015260800190565b6020808252601d908201527f5f64657374546f6b656e206973206e6f742077686974656c6973746564000000604082015260600190565b6020808252601c908201527f546865207472616e73616374696f6e206973206e6f742076616c696400000000604082015260600190565b6020808252603c908201527f596f752063616e206f6e6c79206578656375746520666c6f772032207377617060408201527f7320746f207468697320636f6e74726163742773206164647265737300000000606082015260800190565b6020808252603b908201527f5f72657761726441646472657373416e64416d6f756e747320616e64205f697360408201527f52656d6f766564206c656e677468206973206e6f74206d617463680000000000606082015260800190565b602080825260149082015273496e73756666696369656e742042616c616e636560601b604082015260600190565b60208082526011908201527017dd1bdad95b881a5cc81a5b9d985b1a59607a1b604082015260600190565b60208082526053908201527f5468697320636f6e747261637420646f65736e277420616c6c6f77207265636560408201527f6976696e67204574686572202d207573652073704465706f73697445746865726060820152721414903a37903232b837b9b4ba1032ba3432b960691b608082015260a00190565b6020808252601c908201527f526563656976656420616d6f756e742063616e206e6f74206265203000000000604082015260600190565b60208082526023908201527f5f64657374546f6b656e2073686f756c64206e6f74206265206164647265737360408201526228302960e81b606082015260800190565b60208082526016908201527526bab9ba1039bbb0b8103a3790212a21903a37b5b2b760511b604082015260600190565b602080825260119082015270496e76616c6964204c505420707269636560781b604082015260600190565b600060208252614b9b60208301614b9685613c2d565b6141e7565b614ba760208401613c2d565b614bb460408401826141e7565b506040830135606083015260608301356080830152608083013560a0830152614be060a0840184614d96565b6101e08060c0860152614bf8610200860183856141f4565b9250614c0760c0870187614de4565b9250601f19808786030160e0880152614c2185858461427e565b9450614c3060e0890189614d96565b94509150610100818887030181890152614c4b86868561423c565b9550614c59818a018a614d96565b9550925050610120818887030181890152614c7586868561423c565b9550614c82818a01613c2d565b9450506101409150614c96828801856141e7565b614ca1828901613c2d565b93506101609150614cb4828801856141e7565b61018093508188013584880152614ccd84890189614de4565b945091506101a0818887030181890152614ce886868561427e565b95506101c094508089013585890152505050614d05828701613ca6565b9150614d1381860183614270565b5090949350505050565b90815260200190565b918252602082015260400190565b6001600160401b0391909116815260200190565b60ff91909116815260200190565b6040518181016001600160401b0381118282101715614d7157fe5b604052919050565b60006001600160401b03821115614d8c57fe5b5060209081020190565b6000808335601e19843603018112614dac578283fd5b83016020810192503590506001600160401b03811115614dcb57600080fd5b602081023603831315614ddd57600080fd5b9250929050565b6000808335601e19843603018112614dfa578283fd5b83016020810192503590506001600160401b03811115614e1957600080fd5b803603831315614ddd57600080fd5b60005b83811015614e43578181015183820152602001614e2b565b838111156138c75750506000910152565b6001600160a01b03811681146127b257600080fd5b80151581146127b257600080fdfe4f776e61626c653a206e6577206f776e657220697320746865207a65726f2061646472657373416464726573733a20696e73756666696369656e742062616c616e636520666f722063616c6c536166654d6174683a206d756c7469706c69636174696f6e206f766572666c6f774f776e61626c653a2063616c6c6572206973206e6f7420746865206f776e65725f72656d6f7665466c6f61743a20666c6f617420616d6f756e7420696e73756666696369656e745361666545524332303a204552433230206f7065726174696f6e20646964206e6f742073756363656564a2646970667358221220676747b21998601e94e044b2b2f107ea85bdaca5671988422cc857488006382464736f6c63430007050033",
  "linkReferences": {},
  "deployedLinkReferences": {}
}