{
  "_format": "hh-sol-artifact-1",
  "contractName": "SwapContract",
  "sourceName": "contracts/SwapContract.sol",
  "abi": [
    {
      "inputs": [
        {
          "internalType": "address",
          "name": "_lpToken",
          "type": "address"
        },
        {
          "internalType": "address",
          "name": "_btct",
          "type": "address"
        },
        {
          "internalType": "address",
          "name": "_wETH",
          "type": "address"
        },
        {
          "internalType": "address",
          "name": "_sbBTCPool",
          "type": "address"
        },
        {
          "internalType": "address",
          "name": "_params",
          "type": "address"
        },
        {
          "internalType": "address",
          "name": "_swapRewards",
          "type": "address"
        },
        {
          "internalType": "uint256",
          "name": "_existingBTCFloat",
          "type": "uint256"
        }
      ],
      "stateMutability": "nonpayable",
      "type": "constructor"
    },
    {
      "anonymous": false,
      "inputs": [
        {
          "indexed": false,
          "internalType": "address",
          "name": "token",
          "type": "address"
        },
        {
          "indexed": false,
          "internalType": "uint256",
          "name": "amountOfLP",
          "type": "uint256"
        },
        {
          "indexed": false,
          "internalType": "uint256",
          "name": "amountOfFloat",
          "type": "uint256"
        },
        {
          "indexed": false,
          "internalType": "uint256",
          "name": "currentPriceLP",
          "type": "uint256"
        },
        {
          "indexed": false,
          "internalType": "uint256",
          "name": "withdrawal",
          "type": "uint256"
        },
        {
          "indexed": false,
          "internalType": "bytes32",
          "name": "txid",
          "type": "bytes32"
        }
      ],
      "name": "BurnLPTokensForFloat",
      "type": "event"
    },
    {
      "anonymous": false,
      "inputs": [
        {
          "indexed": false,
          "internalType": "address",
          "name": "token",
          "type": "address"
        },
        {
          "indexed": false,
          "internalType": "address",
          "name": "user",
          "type": "address"
        },
        {
          "indexed": false,
          "internalType": "uint256",
          "name": "amount",
          "type": "uint256"
        },
        {
          "indexed": false,
          "internalType": "uint256",
          "name": "balance",
          "type": "uint256"
        },
        {
          "indexed": false,
          "internalType": "uint256",
          "name": "Timestamp",
          "type": "uint256"
        }
      ],
      "name": "Deposit",
      "type": "event"
    },
    {
      "anonymous": false,
      "inputs": [
        {
          "indexed": false,
          "internalType": "uint256",
          "name": "rewardLPTsForNodes",
          "type": "uint256"
        }
      ],
      "name": "DistributeNodeRewards",
      "type": "event"
    },
    {
      "anonymous": false,
      "inputs": [
        {
          "indexed": false,
          "internalType": "address",
          "name": "to",
          "type": "address"
        },
        {
          "indexed": false,
          "internalType": "uint256",
          "name": "amountOfFloat",
          "type": "uint256"
        },
        {
          "indexed": false,
          "internalType": "uint256",
          "name": "amountOfLP",
          "type": "uint256"
        },
        {
          "indexed": false,
          "internalType": "uint256",
          "name": "currentPriceLP",
          "type": "uint256"
        },
        {
          "indexed": false,
          "internalType": "uint256",
          "name": "depositFees",
          "type": "uint256"
        },
        {
          "indexed": false,
          "internalType": "bytes32",
          "name": "txid",
          "type": "bytes32"
        }
      ],
      "name": "IssueLPTokensForFloat",
      "type": "event"
    },
    {
      "anonymous": false,
      "inputs": [
        {
          "indexed": true,
          "internalType": "address",
          "name": "previousOwner",
          "type": "address"
        },
        {
          "indexed": true,
          "internalType": "address",
          "name": "newOwner",
          "type": "address"
        }
      ],
      "name": "OwnershipTransferred",
      "type": "event"
    },
    {
      "anonymous": false,
      "inputs": [
        {
          "indexed": false,
          "internalType": "address",
          "name": "feesToken",
          "type": "address"
        },
        {
          "indexed": false,
          "internalType": "uint256",
          "name": "rewards",
          "type": "uint256"
        },
        {
          "indexed": false,
          "internalType": "uint256",
          "name": "amountLPTokensForNode",
          "type": "uint256"
        },
        {
          "indexed": false,
          "internalType": "uint256",
          "name": "currentPriceLP",
          "type": "uint256"
        }
      ],
      "name": "RewardsCollection",
      "type": "event"
    },
    {
      "anonymous": false,
      "inputs": [
        {
          "indexed": false,
          "internalType": "uint256",
          "name": "ExpirationTime",
          "type": "uint256"
        },
        {
          "indexed": false,
          "internalType": "uint256",
          "name": "Timestamp",
          "type": "uint256"
        }
      ],
      "name": "SetExpirationTime",
      "type": "event"
    },
    {
      "anonymous": false,
      "inputs": [
        {
          "indexed": false,
          "internalType": "address",
          "name": "from",
          "type": "address"
        },
        {
          "indexed": false,
          "internalType": "address",
          "name": "to",
          "type": "address"
        },
        {
          "indexed": false,
          "internalType": "uint256",
          "name": "amount",
          "type": "uint256"
        }
      ],
      "name": "Swap",
      "type": "event"
    },
    {
      "anonymous": false,
      "inputs": [
        {
          "indexed": false,
          "internalType": "bytes32",
          "name": "SwapID",
          "type": "bytes32"
        },
        {
          "indexed": false,
          "internalType": "string",
          "name": "DestAddr",
          "type": "string"
        },
        {
          "indexed": false,
          "internalType": "address",
          "name": "RefundAddr",
          "type": "address"
        },
        {
          "indexed": false,
          "internalType": "uint256",
          "name": "AmountWBTC",
          "type": "uint256"
        },
        {
          "indexed": false,
          "internalType": "uint256",
          "name": "Timestamp",
          "type": "uint256"
        }
      ],
      "name": "SwapTokensToBTC",
      "type": "event"
    },
    {
      "anonymous": false,
      "inputs": [
        {
          "indexed": false,
          "internalType": "address",
          "name": "token",
          "type": "address"
        },
        {
          "indexed": false,
          "internalType": "address",
          "name": "user",
          "type": "address"
        },
        {
          "indexed": false,
          "internalType": "uint256",
          "name": "amount",
          "type": "uint256"
        },
        {
          "indexed": false,
          "internalType": "uint256",
          "name": "balance",
          "type": "uint256"
        },
        {
          "indexed": false,
          "internalType": "uint256",
          "name": "Timestamp",
          "type": "uint256"
        }
      ],
      "name": "Withdraw",
      "type": "event"
    },
    {
      "stateMutability": "nonpayable",
      "type": "fallback"
    },
    {
      "inputs": [],
      "name": "BTCT_ADDR",
      "outputs": [
        {
          "internalType": "address",
          "name": "",
          "type": "address"
        }
      ],
      "stateMutability": "view",
      "type": "function"
    },
    {
      "inputs": [],
      "name": "activeNodeCount",
      "outputs": [
        {
          "internalType": "uint8",
          "name": "",
          "type": "uint8"
        }
      ],
      "stateMutability": "view",
      "type": "function"
    },
    {
      "inputs": [
        {
          "internalType": "address",
          "name": "_token",
          "type": "address"
        },
        {
          "internalType": "address",
          "name": "_user",
          "type": "address"
        }
      ],
      "name": "balanceOf",
      "outputs": [
        {
          "internalType": "uint256",
          "name": "",
          "type": "uint256"
        }
      ],
      "stateMutability": "view",
      "type": "function"
    },
    {
      "inputs": [
        {
          "internalType": "address",
          "name": "_newOwner",
          "type": "address"
        },
        {
          "internalType": "address[]",
          "name": "_nodes",
          "type": "address[]"
        },
        {
          "internalType": "bool[]",
          "name": "_isRemoved",
          "type": "bool[]"
        },
        {
          "internalType": "uint8",
          "name": "_churnedInCount",
          "type": "uint8"
        },
        {
          "internalType": "uint8",
          "name": "_tssThreshold",
          "type": "uint8"
        },
        {
          "internalType": "uint8",
          "name": "_nodeRewardsRatio",
          "type": "uint8"
        },
        {
          "internalType": "uint8",
          "name": "_withdrawalFeeBPS",
          "type": "uint8"
        },
        {
          "internalType": "uint256",
          "name": "_totalStakedAmount",
          "type": "uint256"
        },
        {
          "internalType": "uint256",
          "name": "_minimumSwapAmountForWBTC",
          "type": "uint256"
        },
        {
          "internalType": "uint256",
          "name": "_expirationTime",
          "type": "uint256"
        }
      ],
      "name": "churn",
      "outputs": [
        {
          "internalType": "bool",
          "name": "",
          "type": "bool"
        }
      ],
      "stateMutability": "nonpayable",
      "type": "function"
    },
    {
      "inputs": [],
      "name": "churnedInCount",
      "outputs": [
        {
          "internalType": "uint8",
          "name": "",
          "type": "uint8"
        }
      ],
      "stateMutability": "view",
      "type": "function"
    },
    {
      "inputs": [
        {
          "internalType": "uint256",
          "name": "_incomingAmount",
          "type": "uint256"
        },
        {
          "internalType": "uint256",
          "name": "_minerFee",
          "type": "uint256"
        },
        {
          "internalType": "uint256",
          "name": "_rewardsAmount",
          "type": "uint256"
        },
        {
          "internalType": "address[]",
          "name": "_spenders",
          "type": "address[]"
        },
        {
          "internalType": "uint256[]",
          "name": "_swapAmounts",
          "type": "uint256[]"
        },
        {
          "internalType": "bool",
          "name": "_isUpdatelimitBTCForSPFlow2",
          "type": "bool"
        }
      ],
      "name": "collectSwapFeesForBTC",
      "outputs": [
        {
          "internalType": "bool",
          "name": "",
          "type": "bool"
        }
      ],
      "stateMutability": "nonpayable",
      "type": "function"
    },
    {
      "inputs": [],
      "name": "depositFeesBPS",
      "outputs": [
        {
          "internalType": "uint8",
          "name": "",
          "type": "uint8"
        }
      ],
      "stateMutability": "view",
      "type": "function"
    },
    {
      "inputs": [],
      "name": "expirationTime",
      "outputs": [
        {
          "internalType": "uint256",
          "name": "",
          "type": "uint256"
        }
      ],
      "stateMutability": "view",
      "type": "function"
    },
    {
      "inputs": [],
      "name": "getActiveNodes",
      "outputs": [
        {
          "internalType": "address[]",
          "name": "",
          "type": "address[]"
        }
      ],
      "stateMutability": "view",
      "type": "function"
    },
    {
      "inputs": [],
      "name": "getCurrentPriceLP",
      "outputs": [
        {
          "internalType": "uint256",
          "name": "nowPrice",
          "type": "uint256"
        }
      ],
      "stateMutability": "view",
      "type": "function"
    },
    {
      "inputs": [
        {
          "internalType": "address",
          "name": "_tokenA",
          "type": "address"
        },
        {
          "internalType": "address",
          "name": "_tokenB",
          "type": "address"
        }
      ],
      "name": "getFloatReserve",
      "outputs": [
        {
          "internalType": "uint256",
          "name": "reserveA",
          "type": "uint256"
        },
        {
          "internalType": "uint256",
          "name": "reserveB",
          "type": "uint256"
        }
      ],
      "stateMutability": "view",
      "type": "function"
    },
    {
      "inputs": [],
      "name": "initialExchangeRate",
      "outputs": [
        {
          "internalType": "uint256",
          "name": "",
          "type": "uint256"
        }
      ],
      "stateMutability": "view",
      "type": "function"
    },
    {
      "inputs": [
        {
          "internalType": "address",
          "name": "_user",
          "type": "address"
        }
      ],
      "name": "isNodeStake",
      "outputs": [
        {
          "internalType": "bool",
          "name": "",
          "type": "bool"
        }
      ],
      "stateMutability": "view",
      "type": "function"
    },
    {
      "inputs": [
        {
          "internalType": "bytes32",
          "name": "_txid",
          "type": "bytes32"
        }
      ],
      "name": "isTxUsed",
      "outputs": [
        {
          "internalType": "bool",
          "name": "",
          "type": "bool"
        }
      ],
      "stateMutability": "view",
      "type": "function"
    },
    {
      "inputs": [],
      "name": "limitBTCForSPFlow2",
      "outputs": [
        {
          "internalType": "uint256",
          "name": "",
          "type": "uint256"
        }
      ],
      "stateMutability": "view",
      "type": "function"
    },
    {
      "inputs": [],
      "name": "lpToken",
      "outputs": [
        {
          "internalType": "address",
          "name": "",
          "type": "address"
        }
      ],
      "stateMutability": "view",
      "type": "function"
    },
    {
      "inputs": [],
      "name": "minimumSwapAmountForWBTC",
      "outputs": [
        {
          "internalType": "uint256",
          "name": "",
          "type": "uint256"
        }
      ],
      "stateMutability": "view",
      "type": "function"
    },
    {
      "inputs": [
        {
          "internalType": "bytes32[]",
          "name": "_addressesAndAmounts",
          "type": "bytes32[]"
        },
        {
          "internalType": "uint256",
          "name": "_totalSwapped",
          "type": "uint256"
        },
        {
          "internalType": "uint256",
          "name": "_rewardsAmount",
          "type": "uint256"
        },
        {
          "internalType": "bytes32[]",
          "name": "_usedTxIds",
          "type": "bytes32[]"
        }
      ],
      "name": "multiRecordSkyPoolsTX",
      "outputs": [
        {
          "internalType": "bool",
          "name": "",
          "type": "bool"
        }
      ],
      "stateMutability": "nonpayable",
      "type": "function"
    },
    {
      "inputs": [],
      "name": "nodeRewardsRatio",
      "outputs": [
        {
          "internalType": "uint8",
          "name": "",
          "type": "uint8"
        }
      ],
      "stateMutability": "view",
      "type": "function"
    },
    {
      "inputs": [],
      "name": "oldestActiveIndex",
      "outputs": [
        {
          "internalType": "uint256",
          "name": "",
          "type": "uint256"
        }
      ],
      "stateMutability": "view",
      "type": "function"
    },
    {
      "inputs": [],
      "name": "owner",
      "outputs": [
        {
          "internalType": "address",
          "name": "",
          "type": "address"
        }
      ],
      "stateMutability": "view",
      "type": "function"
    },
    {
      "inputs": [],
      "name": "params",
      "outputs": [
        {
          "internalType": "address",
          "name": "",
          "type": "address"
        }
      ],
      "stateMutability": "view",
      "type": "function"
    },
    {
      "inputs": [
        {
          "internalType": "address",
          "name": "_token",
          "type": "address"
        },
        {
          "internalType": "bytes32",
          "name": "_addressesAndAmountOfFloat",
          "type": "bytes32"
        },
        {
          "internalType": "bytes32",
          "name": "_txid",
          "type": "bytes32"
        }
      ],
      "name": "recordIncomingFloat",
      "outputs": [
        {
          "internalType": "bool",
          "name": "",
          "type": "bool"
        }
      ],
      "stateMutability": "nonpayable",
      "type": "function"
    },
    {
      "inputs": [
        {
          "internalType": "address",
          "name": "_token",
          "type": "address"
        },
        {
          "internalType": "bytes32",
          "name": "_addressesAndAmountOfLPtoken",
          "type": "bytes32"
        },
        {
          "internalType": "uint256",
          "name": "_minerFee",
          "type": "uint256"
        },
        {
          "internalType": "bytes32",
          "name": "_txid",
          "type": "bytes32"
        }
      ],
      "name": "recordOutcomingFloat",
      "outputs": [
        {
          "internalType": "bool",
          "name": "",
          "type": "bool"
        }
      ],
      "stateMutability": "nonpayable",
      "type": "function"
    },
    {
      "inputs": [
        {
          "internalType": "address",
          "name": "_to",
          "type": "address"
        },
        {
          "internalType": "uint256",
          "name": "_totalSwapped",
          "type": "uint256"
        },
        {
          "internalType": "uint256",
          "name": "_rewardsAmount",
          "type": "uint256"
        },
        {
          "internalType": "bytes32[]",
          "name": "_usedTxIds",
          "type": "bytes32[]"
        }
      ],
      "name": "recordSkyPoolsTX",
      "outputs": [
        {
          "internalType": "bool",
          "name": "",
          "type": "bool"
        }
      ],
      "stateMutability": "nonpayable",
      "type": "function"
    },
    {
      "inputs": [
        {
          "internalType": "uint256",
          "name": "_minerFee",
          "type": "uint256"
        },
        {
          "internalType": "bytes32",
          "name": "_txid",
          "type": "bytes32"
        }
      ],
      "name": "recordUTXOSweepMinerFee",
      "outputs": [
        {
          "internalType": "bool",
          "name": "",
          "type": "bool"
        }
      ],
      "stateMutability": "nonpayable",
      "type": "function"
    },
    {
      "inputs": [
        {
          "internalType": "address",
          "name": "_token",
          "type": "address"
        },
        {
          "internalType": "uint256",
          "name": "_amount",
          "type": "uint256"
        }
      ],
      "name": "redeemERC20Token",
      "outputs": [],
      "stateMutability": "nonpayable",
      "type": "function"
    },
    {
      "inputs": [
        {
          "internalType": "uint256",
          "name": "_amount",
          "type": "uint256"
        }
      ],
      "name": "redeemEther",
      "outputs": [],
      "stateMutability": "nonpayable",
      "type": "function"
    },
    {
      "inputs": [],
      "name": "renounceOwnership",
      "outputs": [],
      "stateMutability": "nonpayable",
      "type": "function"
    },
    {
      "inputs": [],
      "name": "sbBTCPool",
      "outputs": [
        {
          "internalType": "address",
          "name": "",
          "type": "address"
        }
      ],
      "stateMutability": "view",
      "type": "function"
    },
    {
      "inputs": [
        {
          "internalType": "address",
          "name": "_destToken",
          "type": "address"
        },
        {
          "internalType": "address",
          "name": "_to",
          "type": "address"
        },
        {
          "internalType": "uint256",
          "name": "_amount",
          "type": "uint256"
        },
        {
          "internalType": "uint256",
          "name": "_totalSwapped",
          "type": "uint256"
        },
        {
          "internalType": "uint256",
          "name": "_rewardsAmount",
          "type": "uint256"
        },
        {
          "internalType": "bytes32[]",
          "name": "_redeemedFloatTxIds",
          "type": "bytes32[]"
        }
      ],
      "name": "singleTransferERC20",
      "outputs": [
        {
          "internalType": "bool",
          "name": "",
          "type": "bool"
        }
      ],
      "stateMutability": "nonpayable",
      "type": "function"
    },
    {
      "inputs": [
        {
          "internalType": "uint256",
          "name": "_loopCount",
          "type": "uint256"
        }
      ],
      "name": "spCleanUpOldTXs",
      "outputs": [],
      "stateMutability": "nonpayable",
      "type": "function"
    },
    {
      "inputs": [
        {
          "internalType": "address",
          "name": "_token",
          "type": "address"
        },
        {
          "internalType": "uint256",
          "name": "_amount",
          "type": "uint256"
        }
      ],
      "name": "spDeposit",
      "outputs": [],
      "stateMutability": "payable",
      "type": "function"
    },
    {
      "inputs": [
        {
          "components": [
            {
              "internalType": "address",
              "name": "fromToken",
              "type": "address"
            },
            {
              "internalType": "address",
              "name": "toToken",
              "type": "address"
            },
            {
              "internalType": "uint256",
              "name": "fromAmount",
              "type": "uint256"
            },
            {
              "internalType": "uint256",
              "name": "toAmount",
              "type": "uint256"
            },
            {
              "internalType": "uint256",
              "name": "expectedAmount",
              "type": "uint256"
            },
            {
              "internalType": "address[]",
              "name": "callees",
              "type": "address[]"
            },
            {
              "internalType": "bytes",
              "name": "exchangeData",
              "type": "bytes"
            },
            {
              "internalType": "uint256[]",
              "name": "startIndexes",
              "type": "uint256[]"
            },
            {
              "internalType": "uint256[]",
              "name": "values",
              "type": "uint256[]"
            },
            {
              "internalType": "address payable",
              "name": "beneficiary",
              "type": "address"
            },
            {
              "internalType": "address payable",
              "name": "partner",
              "type": "address"
            },
            {
              "internalType": "uint256",
              "name": "feePercent",
              "type": "uint256"
            },
            {
              "internalType": "bytes",
              "name": "permit",
              "type": "bytes"
            },
            {
              "internalType": "uint256",
              "name": "deadline",
              "type": "uint256"
            },
            {
              "internalType": "bytes16",
              "name": "uuid",
              "type": "bytes16"
            }
          ],
          "internalType": "struct Utils.SimpleData",
          "name": "_data",
          "type": "tuple"
        }
      ],
      "name": "spFlow1SimpleSwap",
      "outputs": [],
      "stateMutability": "nonpayable",
      "type": "function"
    },
    {
      "inputs": [
        {
          "internalType": "bool",
          "name": "_fork",
          "type": "bool"
        },
        {
          "internalType": "address",
          "name": "_factory",
          "type": "address"
        },
        {
          "internalType": "bytes32",
          "name": "_initCode",
          "type": "bytes32"
        },
        {
          "internalType": "uint256",
          "name": "_amountIn",
          "type": "uint256"
        },
        {
          "internalType": "uint256",
          "name": "_amountOutMin",
          "type": "uint256"
        },
        {
          "internalType": "address[]",
          "name": "_path",
          "type": "address[]"
        }
      ],
      "name": "spFlow1Uniswap",
      "outputs": [
        {
          "internalType": "uint256",
          "name": "receivedAmount",
          "type": "uint256"
        }
      ],
      "stateMutability": "nonpayable",
      "type": "function"
    },
    {
      "inputs": [
        {
          "internalType": "string",
          "name": "_destinationAddressForBTC",
          "type": "string"
        },
        {
          "components": [
            {
              "internalType": "address",
              "name": "fromToken",
              "type": "address"
            },
            {
              "internalType": "address",
              "name": "toToken",
              "type": "address"
            },
            {
              "internalType": "uint256",
              "name": "fromAmount",
              "type": "uint256"
            },
            {
              "internalType": "uint256",
              "name": "toAmount",
              "type": "uint256"
            },
            {
              "internalType": "uint256",
              "name": "expectedAmount",
              "type": "uint256"
            },
            {
              "internalType": "address[]",
              "name": "callees",
              "type": "address[]"
            },
            {
              "internalType": "bytes",
              "name": "exchangeData",
              "type": "bytes"
            },
            {
              "internalType": "uint256[]",
              "name": "startIndexes",
              "type": "uint256[]"
            },
            {
              "internalType": "uint256[]",
              "name": "values",
              "type": "uint256[]"
            },
            {
              "internalType": "address payable",
              "name": "beneficiary",
              "type": "address"
            },
            {
              "internalType": "address payable",
              "name": "partner",
              "type": "address"
            },
            {
              "internalType": "uint256",
              "name": "feePercent",
              "type": "uint256"
            },
            {
              "internalType": "bytes",
              "name": "permit",
              "type": "bytes"
            },
            {
              "internalType": "uint256",
              "name": "deadline",
              "type": "uint256"
            },
            {
              "internalType": "bytes16",
              "name": "uuid",
              "type": "bytes16"
            }
          ],
          "internalType": "struct Utils.SimpleData",
          "name": "_data",
          "type": "tuple"
        }
      ],
      "name": "spFlow2SimpleSwap",
      "outputs": [
        {
          "internalType": "uint256",
          "name": "receivedAmount",
          "type": "uint256"
        }
      ],
      "stateMutability": "nonpayable",
      "type": "function"
    },
    {
      "inputs": [
        {
          "internalType": "string",
          "name": "_destinationAddressForBTC",
          "type": "string"
        },
        {
          "internalType": "bool",
          "name": "_fork",
          "type": "bool"
        },
        {
          "internalType": "address",
          "name": "_factory",
          "type": "address"
        },
        {
          "internalType": "bytes32",
          "name": "_initCode",
          "type": "bytes32"
        },
        {
          "internalType": "uint256",
          "name": "_amountIn",
          "type": "uint256"
        },
        {
          "internalType": "uint256",
          "name": "_amountOutMin",
          "type": "uint256"
        },
        {
          "internalType": "address[]",
          "name": "_path",
          "type": "address[]"
        }
      ],
      "name": "spFlow2Uniswap",
      "outputs": [
        {
          "internalType": "uint256",
          "name": "receivedAmount",
          "type": "uint256"
        }
      ],
      "stateMutability": "nonpayable",
      "type": "function"
    },
    {
      "inputs": [],
      "name": "spGetPendingSwaps",
      "outputs": [
        {
          "components": [
            {
              "internalType": "bytes32",
              "name": "SwapID",
              "type": "bytes32"
            },
            {
              "internalType": "string",
              "name": "DestAddr",
              "type": "string"
            },
            {
              "internalType": "address",
              "name": "RefundAddr",
              "type": "address"
            },
            {
              "internalType": "uint256",
              "name": "AmountWBTC",
              "type": "uint256"
            },
            {
              "internalType": "uint256",
              "name": "Timestamp",
              "type": "uint256"
            }
          ],
          "internalType": "struct SwapContract.spPendingTx[]",
          "name": "data",
          "type": "tuple[]"
        }
      ],
      "stateMutability": "view",
      "type": "function"
    },
    {
      "inputs": [
        {
          "internalType": "uint256",
          "name": "",
          "type": "uint256"
        }
      ],
      "name": "spPendingTXs",
      "outputs": [
        {
          "internalType": "bytes32",
          "name": "SwapID",
          "type": "bytes32"
        },
        {
          "internalType": "string",
          "name": "DestAddr",
          "type": "string"
        },
        {
          "internalType": "address",
          "name": "RefundAddr",
          "type": "address"
        },
        {
          "internalType": "uint256",
          "name": "AmountWBTC",
          "type": "uint256"
        },
        {
          "internalType": "uint256",
          "name": "Timestamp",
          "type": "uint256"
        }
      ],
      "stateMutability": "view",
      "type": "function"
    },
    {
      "inputs": [],
      "name": "swapCount",
      "outputs": [
        {
          "internalType": "uint256",
          "name": "",
          "type": "uint256"
        }
      ],
      "stateMutability": "view",
      "type": "function"
    },
    {
      "inputs": [],
      "name": "swapRewards",
      "outputs": [
        {
          "internalType": "address",
          "name": "",
          "type": "address"
        }
      ],
      "stateMutability": "view",
      "type": "function"
    },
    {
      "inputs": [
        {
          "internalType": "address",
          "name": "",
          "type": "address"
        },
        {
          "internalType": "address",
          "name": "",
          "type": "address"
        }
      ],
      "name": "tokens",
      "outputs": [
        {
          "internalType": "uint256",
          "name": "",
          "type": "uint256"
        }
      ],
      "stateMutability": "view",
      "type": "function"
    },
    {
      "inputs": [],
      "name": "totalStakedAmount",
      "outputs": [
        {
          "internalType": "uint256",
          "name": "",
          "type": "uint256"
        }
      ],
      "stateMutability": "view",
      "type": "function"
    },
    {
      "inputs": [
        {
          "internalType": "address",
          "name": "newOwner",
          "type": "address"
        }
      ],
      "name": "transferOwnership",
      "outputs": [],
      "stateMutability": "nonpayable",
      "type": "function"
    },
    {
      "inputs": [],
      "name": "tssThreshold",
      "outputs": [
        {
          "internalType": "uint8",
          "name": "",
          "type": "uint8"
        }
      ],
      "stateMutability": "view",
      "type": "function"
    },
    {
      "inputs": [],
      "name": "wETH",
      "outputs": [
        {
          "internalType": "address",
          "name": "",
          "type": "address"
        }
      ],
      "stateMutability": "view",
      "type": "function"
    },
    {
      "inputs": [
        {
          "internalType": "address",
          "name": "",
          "type": "address"
        }
      ],
      "name": "whitelist",
      "outputs": [
        {
          "internalType": "bool",
          "name": "",
          "type": "bool"
        }
      ],
      "stateMutability": "view",
      "type": "function"
    },
    {
      "inputs": [],
      "name": "withdrawalFeeBPS",
      "outputs": [
        {
          "internalType": "uint8",
          "name": "",
          "type": "uint8"
        }
      ],
      "stateMutability": "view",
      "type": "function"
    },
    {
      "stateMutability": "payable",
      "type": "receive"
    }
  ],
  "bytecode": "0x6101806040523480156200001257600080fd5b50604051620066a6380380620066a68339810160408190526200003591620004f4565b620000403362000487565b600180556202a300600255615dc0600355600060068190556005556001600160a01b0380861661010052848116610120528381166101605282811661014052871660a08190526040805163313ce56760e01b8152905163313ce56791600480820192602092909190829003018186803b158015620000bd57600080fd5b505afa158015620000d2573d6000803e3d6000fd5b505050506040513d601f19601f82011682018060405250810190620000f8919062000580565b6200010590600a620006c1565b60e0526001600160a01b038087166080526101605160408051630b68134d60e01b815290519190921691630b68134d9160048083019260209291908290030181600087803b1580156200015757600080fd5b505af11580156200016c573d6000803e3d6000fd5b505050506040513d601f19601f8201168201806040525081019062000192919062000580565b600860026101000a81548160ff021916908360ff160217905550610160516001600160a01b031663424192556040518163ffffffff1660e01b815260040160206040518083038186803b158015620001e957600080fd5b505afa158015620001fe573d6000803e3d6000fd5b505050506040513d601f19601f8201168201806040525081019062000224919062000580565b600860046101000a81548160ff021916908360ff160217905550610160516001600160a01b031663b6268e5d6040518163ffffffff1660e01b815260040160206040518083038186803b1580156200027b57600080fd5b505afa15801562000290573d6000803e3d6000fd5b505050506040513d601f19601f82011682018060405250810190620002b6919062000580565b600860036101000a81548160ff021916908360ff1602179055506008866001600160a01b031663313ce5676040518163ffffffff1660e01b815260040160206040518083038186803b1580156200030c57600080fd5b505afa15801562000321573d6000803e3d6000fd5b505050506040513d601f19601f8201168201806040525081019062000347919062000580565b620003539190620006d2565b6200036090600a620006c1565b60c08181525050866001600160a01b031663313ce5676040518163ffffffff1660e01b815260040160206040518083038186803b158015620003a157600080fd5b505afa158015620003b6573d6000803e3d6000fd5b505050506040513d601f19601f82011682018060405250810190620003dc919062000580565b620003e990600a620006c1565b6009556001600160a01b0395861660009081526007602090815260408083208054600160ff1991821681179092559a9099168352822080548a16891790559080527f6d5257204ebe7d88fd91ae87941cb2dd9d8062b64ae5a2bd2d28ec40b9fbf6df80549098169096179096555050600b90925250507fdf7de25b7f1fd6d0b5205f0e18f1f35bd7b8d84cce336588d184533ce43a6f7655620006f8565b600080546001600160a01b038381166001600160a01b0319831681178455604051919092169283917f8be0079c531659141344cd1fd0a4f28419497f9722a3daafe3b4186f6b6457e09190a35050565b80516001600160a01b0381168114620004ef57600080fd5b919050565b600080600080600080600060e0888a0312156200051057600080fd5b6200051b88620004d7565b96506200052b60208901620004d7565b95506200053b60408901620004d7565b94506200054b60608901620004d7565b93506200055b60808901620004d7565b92506200056b60a08901620004d7565b915060c0880151905092959891949750929550565b6000602082840312156200059357600080fd5b815160ff81168114620005a557600080fd5b9392505050565b634e487b7160e01b600052601160045260246000fd5b600181815b8085111562000603578160001904821115620005e757620005e7620005ac565b80851615620005f557918102915b93841c9390800290620005c7565b509250929050565b6000826200061c57506001620006bb565b816200062b57506000620006bb565b81600181146200064457600281146200064f576200066f565b6001915050620006bb565b60ff841115620006635762000663620005ac565b50506001821b620006bb565b5060208310610133831016604e8410600b841016171562000694575081810a620006bb565b620006a08383620005c2565b8060001904821115620006b757620006b7620005ac565b0290505b92915050565b6000620005a560ff8416836200060b565b600060ff821660ff841680821015620006ef57620006ef620005ac565b90039392505050565b60805160a05160c05160e05161010051610120516101405161016051615df8620008ae600039600061081301526000818161084701528181610f2d015261332e0152600081816102f80152818161366501526138180152600081816102a50152818161093601528181611fe30152818161203f015281816120ac015281816120f3015281816121d701528181612cb701528181612d310152612d7a015260008181611a12015281816137dd01528181613db4015261453a015260006139c901526000818161060001528181611005015281816110400152818161197201528181613616015281816136940152818161384a01528181613fc901526145870152600081816103e501528181610fb101528181610fe30152818161115a015281816111d60152818161194601528181611cec015281816122e70152818161231601528181612366015281816123f901528181612487015281816127cf01528181612848015281816128df01528181612ab401528181612fcf015281816130b1015281816132df015281816133c00152818161398b01528181613e5f01528181613edb01528181613f70015261426c0152615df86000f3fe6080604052600436106102955760003560e01c8063715018a61161015a578063ca0707e7116100c1578063dcc5f0c81161007a578063dcc5f0c81461089f578063e6ca2084146108bf578063ec482729146108ef578063f242862114610924578063f2fde38b14610958578063f7888aec14610978576102d4565b8063ca0707e7146107ce578063cf10b16b146107e1578063cff0ab9614610801578063d0f9a08514610835578063d38c7bb114610869578063da284dcc14610889576102d4565b8063a827278b11610113578063a827278b14610717578063b345a3581461072d578063b4014fe81461074d578063b6268e5d1461076d578063bf62dcc81461078e578063c810a539146107ae576102d4565b8063715018a61461065a578063753408151461066f5780638535490f146106895780638da5cb5b146106a95780639b19251a146106c7578063a742329d146106f7576102d4565b806321959d3c116101fe578063508493bc116101b7578063508493bc14610580578063511834c3146105b8578063567e98f9146105d85780635fcbd285146105ee5780636b51e919146106225780636d019f3514610644576102d4565b806321959d3c146104d35780632586c562146104f35780632eff0d9e14610513578063424192551461052957806345137e271461054b5780634db7548514610560576102d4565b806312d1441e1161025057806312d1441e14610407578063130b7a63146104265780631411c5b7146104545780631ab7e9371461046a5780631bb069301461049b57806320199e99146104b1576102d4565b806285aea1146102e657806289356f14610337578063045f888a146103635780630b68134d146103935780630d63aca7146103b35780630f909486146103d3576102d4565b366102d457336001600160a01b037f000000000000000000000000000000000000000000000000000000000000000016146102d2576102d2614c02565b005b3480156102e057600080fd5b50600080fd5b3480156102f257600080fd5b5061031a7f000000000000000000000000000000000000000000000000000000000000000081565b6040516001600160a01b0390911681526020015b60405180910390f35b34801561034357600080fd5b506008546103519060ff1681565b60405160ff909116815260200161032e565b34801561036f57600080fd5b5061038361037e366004614da8565b6109be565b604051901515815260200161032e565b34801561039f57600080fd5b506008546103519062010000900460ff1681565b3480156103bf57600080fd5b506103836103ce366004614ed8565b610e41565b3480156103df57600080fd5b5061031a7f000000000000000000000000000000000000000000000000000000000000000081565b34801561041357600080fd5b5060085461035190610100900460ff1681565b34801561043257600080fd5b50610446610441366004614fa0565b61108c565b60405190815260200161032e565b34801561046057600080fd5b5061044660035481565b34801561047657600080fd5b5061048a610485366004615025565b6114c6565b60405161032e959493929190615096565b3480156104a757600080fd5b5061044660065481565b3480156104bd57600080fd5b506104c6611589565b60405161032e91906150d5565b3480156104df57600080fd5b506102d26104ee366004615025565b61178a565b3480156104ff57600080fd5b5061038361050e366004615173565b611848565b34801561051f57600080fd5b5061044660055481565b34801561053557600080fd5b5060085461035190640100000000900460ff1681565b34801561055757600080fd5b5061044661193a565b34801561056c57600080fd5b506102d261057b3660046151ae565b611a58565b34801561058c57600080fd5b5061044661059b3660046151da565b601160209081526000928352604080842090915290825290205481565b3480156105c457600080fd5b506102d26105d336600461522c565b611bb7565b3480156105e457600080fd5b5061044660105481565b3480156105fa57600080fd5b5061031a7f000000000000000000000000000000000000000000000000000000000000000081565b34801561062e57600080fd5b50610637611e51565b60405161032e91906152a4565b34801561065057600080fd5b5061044660095481565b34801561066657600080fd5b506102d2611f7b565b34801561067b57600080fd5b50600f546103519060ff1681565b34801561069557600080fd5b506102d26106a4366004615025565b611fb1565b3480156106b557600080fd5b506000546001600160a01b031661031a565b3480156106d357600080fd5b506103836106e23660046152b7565b60076020526000908152604090205460ff1681565b34801561070357600080fd5b506103836107123660046152b7565b61226d565b34801561072357600080fd5b50610446600a5481565b34801561073957600080fd5b506103836107483660046152d4565b6122a1565b34801561075957600080fd5b50610446610768366004615377565b6123c5565b34801561077957600080fd5b50600854610351906301000000900460ff1681565b34801561079a57600080fd5b506103836107a93660046153df565b612789565b3480156107ba57600080fd5b506103836107c9366004615449565b612966565b6102d26107dc3660046151ae565b612a5b565b3480156107ed57600080fd5b506103836107fc36600461546b565b612e11565b34801561080d57600080fd5b5061031a7f000000000000000000000000000000000000000000000000000000000000000081565b34801561084157600080fd5b5061031a7f000000000000000000000000000000000000000000000000000000000000000081565b34801561087557600080fd5b506104466108843660046154a0565b612f01565b34801561089557600080fd5b5061044660025481565b3480156108ab57600080fd5b506103836108ba366004615557565b6132b2565b3480156108cb57600080fd5b506103836108da366004615025565b6000908152600c602052604090205460ff1690565b3480156108fb57600080fd5b5061090f61090a3660046151da565b613430565b6040805192835260208301919091520161032e565b34801561093057600080fd5b5061031a7f000000000000000000000000000000000000000000000000000000000000000081565b34801561096457600080fd5b506102d26109733660046152b7565b61345a565b34801561098457600080fd5b506104466109933660046151da565b6001600160a01b03918216600090815260116020908152604080832093909416825291909152205490565b600080546001600160a01b031633146109f25760405162461bcd60e51b81526004016109e99061563c565b60405180910390fd5b60085460ff610100909104811690881610801590610a14575060ff8760ff1611155b610a455760405162461bcd60e51b8152602060048201526002602482015261303160f01b60448201526064016109e9565b610a50600188615687565b60ff168860ff161015610a8a5760405162461bcd60e51b8152602060048201526002602482015261181960f11b60448201526064016109e9565b60648660ff161115610ac35760405162461bcd60e51b8152602060048201526002602482015261303360f01b60448201526064016109e9565b60648560ff161115610afc5760405162461bcd60e51b81526020600482015260026024820152610c0d60f21b60448201526064016109e9565b88518a5114610b325760405162461bcd60e51b8152602060048201526002602482015261303560f01b60448201526064016109e9565b8215610b3e5760038390555b8115610b4d57610b4d826134f5565b610b568b61345a565b60005b8a51811015610d8057898181518110610b7457610b746156ac565b6020026020010151610ce957600060ff16600d60008d8481518110610b9b57610b9b6156ac565b6020908102919091018101516001600160a01b031682528101919091526040016000205460ff161415610c1857600e8b8281518110610bdc57610bdc6156ac565b60209081029190910181015182546001810184556000938452919092200180546001600160a01b0319166001600160a01b039092169190911790555b600160ff16600d60008d8481518110610c3357610c336156ac565b6020908102919091018101516001600160a01b031682528101919091526040016000205460ff1614610c8c57600f805460ff16906000610c72836156c2565b91906101000a81548160ff021916908360ff160217905550505b6001600d60008d8481518110610ca457610ca46156ac565b60200260200101516001600160a01b03166001600160a01b0316815260200190815260200160002060006101000a81548160ff021916908360ff160217905550610d6e565b600f805460ff16906000610cfc836156e2565b91906101000a81548160ff021916908360ff160217905550506002600d60008d8481518110610d2d57610d2d6156ac565b60200260200101516001600160a01b03166001600160a01b0316815260200190815260200160002060006101000a81548160ff021916908360ff1602179055505b80610d78816156ff565b915050610b59565b50600f54606460ff9091161115610de35760405162461bcd60e51b815260206004820152602160248201527f53746f726564206e6f64652073697a652073686f756c64206265203c3d2031306044820152600360fc1b60648201526084016109e9565b506008805460ff86811663010000000263ff0000001989831662010000021663ffff0000198b84166101000261ffff19909516938d1693909317939093179190911691909117179055601083905560019a9950505050505050505050565b600080546001600160a01b03163314610e6c5760405162461bcd60e51b81526004016109e99061563c565b6001600160a01b03871660009081526007602052604090205460ff16610eb95760405162461bcd60e51b81526020600482015260026024820152610c4d60f21b60448201526064016109e9565b6001600160a01b038716610ef45760405162461bcd60e51b8152602060048201526002602482015261313560f01b60448201526064016109e9565b60008415610fdb5760405160016266faa960e11b031981526001600160a01b0389811660048301528881166024830152604482018790527f0000000000000000000000000000000000000000000000000000000000000000169063ff320aae90606401602060405180830381600087803b158015610f7157600080fd5b505af1158015610f85573d6000803e3d6000fd5b505050506040513d601f19601f82011682018060405250810190610fa9919061571a565b50610fd660007f000000000000000000000000000000000000000000000000000000000000000087613535565b611003565b8461100357507f00000000000000000000000000000000000000000000000000000000000000005b7f00000000000000000000000000000000000000000000000000000000000000006001600160a01b0316886001600160a01b0316141561106057507f00000000000000000000000000000000000000000000000000000000000000005b61106a818561360b565b61107383613921565b61107e888888613989565b506001979650505050505050565b6000600260015414156110b15760405162461bcd60e51b81526004016109e990615737565b60026001556000838382816110c8576110c86156ac565b90506020020160208101906110dd91906152b7565b9050600084846110ee60018261576e565b8181106110fd576110fd6156ac565b905060200201602081019061111291906152b7565b6001600160a01b03831660009081526011602090815260408083203384529091529020549091508711156111585760405162461bcd60e51b81526004016109e990615785565b7f00000000000000000000000000000000000000000000000000000000000000006001600160a01b0316826001600160a01b0316146111d45760405162461bcd60e51b815260206004820152601860248201527726bab9ba1039bbb0b810333937b690212a21903a37b5b2b760411b60448201526064016109e9565b7f00000000000000000000000000000000000000000000000000000000000000006001600160a01b0316816001600160a01b031614156112565760405162461bcd60e51b815260206004820152601960248201527f456e64696e6720746f6b656e206d75737420626520774254430000000000000060448201526064016109e9565b6001600160a01b03811673eeeeeeeeeeeeeeeeeeeeeeeeeeeeeeeeeeeeeeee14156112bb5760405162461bcd60e51b81526020600482015260156024820152740aae6ca40e0c2e8d040ee84a886405a7c40ee8aa89605b1b60448201526064016109e9565b6040516370a0823160e01b81523060048201526000906001600160a01b038316906370a082319060240160206040518083038186803b1580156112fd57600080fd5b505afa158015611311573d6000803e3d6000fd5b505050506040513d601f19601f8201168201806040525081019061133591906157bc565b6001600160a01b03841660009081526011602090815260408083203384529091529020549091506113669089613a80565b6001600160a01b03841660009081526011602090815260408083203384529091529020558a156113a35761139e8a8a8a8a8a8a613a93565b6113af565b6113af88888888613bd9565b6040516370a0823160e01b81523060048201526114339082906001600160a01b038516906370a08231906024015b60206040518083038186803b1580156113f557600080fd5b505afa158015611409573d6000803e3d6000fd5b505050506040513d601f19601f8201168201806040525081019061142d91906157bc565b90613a80565b9350868410156114555760405162461bcd60e51b81526004016109e9906157d5565b8361145f57600080fd5b6001600160a01b038216600090815260116020908152604080832033845290915290205461148d9085613d19565b6001600160a01b039092166000908152601160209081526040808320338452909152902091909155505060018055979650505050505050565b600460205260009081526040902080546001820180549192916114e89061580c565b80601f01602080910402602001604051908101604052809291908181526020018280546115149061580c565b80156115615780601f1061153657610100808354040283529160200191611561565b820191906000526020600020905b81548152906001019060200180831161154457829003601f168201915b505050506002830154600384015460049094015492936001600160a01b039091169290915085565b606060006115a4600654600554613a8090919063ffffffff16565b6001600160401b038111156115bb576115bb614c3d565b60405190808252806020026020018201604052801561162a57816020015b6116176040518060a00160405280600080191681526020016060815260200160006001600160a01b0316815260200160008152602001600081525090565b8152602001906001900390816115d95790505b50915060006116456001600654613d1990919063ffffffff16565b90505b6005548111611785576004600061166a60065485613d1990919063ffffffff16565b81526020019081526020016000206040518060a00160405290816000820154815260200160018201805461169d9061580c565b80601f01602080910402602001604051908101604052809291908181526020018280546116c99061580c565b80156117165780601f106116eb57610100808354040283529160200191611716565b820191906000526020600020905b8154815290600101906020018083116116f957829003601f168201915b505050918352505060028201546001600160a01b0316602082015260038201546040820152600490910154606090910152835184908490811061175b5761175b6156ac565b6020908102919091010152611771826001613d19565b91508061177d816156ff565b915050611648565b505090565b60065460009061179a9083613d19565b905060055481106117aa57506005545b60065442905b82811015611842576002546000828152600460208190526040909120015483916117da9190613d19565b1015611830576000818152600460205260408120818155906117ff6001830182614b2f565b506002810180546001600160a01b031916905560006003820181905560049091015561182c816001613d19565b6006555b8061183a816156ff565b9150506117b0565b50505050565b600080546001600160a01b031633146118735760405162461bcd60e51b81526004016109e99061563c565b600061187d61193a565b6001600160a01b03871660009081526007602052604090205490915060ff166118cd5760405162461bcd60e51b8152602060048201526002602482015261189b60f11b60448201526064016109e9565b6118d986868686613d25565b6118e257600080fd5b60019150806118ef61193a565b10156119315760405162461bcd60e51b8152602060048201526011602482015270496e76616c6964204c505420707269636560781b60448201526064016109e9565b50949350505050565b600080600061196a60007f0000000000000000000000000000000000000000000000000000000000000000613430565b9150915060007f00000000000000000000000000000000000000000000000000000000000000006001600160a01b03166318160ddd6040518163ffffffff1660e01b815260040160206040518083038186803b1580156119c957600080fd5b505afa1580156119dd573d6000803e3d6000fd5b505050506040513d601f19601f82011682018060405250810190611a0191906157bc565b90508015611a4c57611a4781611a417f0000000000000000000000000000000000000000000000000000000000000000611a3b8787613d19565b906140c8565b906140d4565b611a50565b6009545b935050505090565b60026001541415611a7b5760405162461bcd60e51b81526004016109e990615737565b60026001556001600160a01b0382166000908152601160209081526040808320338452909152902054811115611aea5760405162461bcd60e51b8152602060048201526014602482015273496e73756666696369656e742042616c616e636560601b60448201526064016109e9565b6001600160a01b0382166000908152601160209081526040808320338452909152902054611b189082613a80565b6001600160a01b038316600090815260116020908152604080832033808552925290912091909155611b4c90839083613989565b6001600160a01b0382166000908152601160209081526040808320338085529252918290205491517febff2602b3f468259e1e99f613fed6691f3a6526effe6ef3e768ba7ae7a36c4f92611ba7928692909186914290615841565b60405180910390a1505060018055565b60026001541415611bda5760405162461bcd60e51b81526004016109e990615737565b600260015533611bf2610140830161012084016152b7565b6001600160a01b031614611c5f5760405162461bcd60e51b815260206004820152602e60248201527f596f752063616e206f6e6c79206578656375746520737761707320746f20796f60448201526d7572206f776e206164647265737360901b60648201526084016109e9565b604081013560116000611c7560208501856152b7565b6001600160a01b031681526020810191909152604001600090812090611ca3610140850161012086016152b7565b6001600160a01b03166001600160a01b03168152602001908152602001600020541015611ce25760405162461bcd60e51b81526004016109e990615785565b6001600160a01b037f000000000000000000000000000000000000000000000000000000000000000016611d1960208301836152b7565b6001600160a01b031614611d815760405162461bcd60e51b815260206004820152602960248201527f66726f6d546f6b656e206d7573742062652074686520726571756972656420426044820152682a21ba103a37b5b2b760b91b60648201526084016109e9565b611d8a816140e0565b611df1604082013560116000611da360208601866152b7565b6001600160a01b031681526020810191909152604001600090812090611dd1610140860161012087016152b7565b6001600160a01b0316815260208101919091526040016000205490613a80565b60116000611e0260208501856152b7565b6001600160a01b031681526020810191909152604001600090812090611e30610140850161012086016152b7565b6001600160a01b031681526020810191909152604001600020555060018055565b600f54606090600090819060ff166001600160401b03811115611e7657611e76614c3d565b604051908082528060200260200182016040528015611e9f578160200160208202803683370190505b50905060005b600e54811015611f7457600160ff16600d6000600e8481548110611ecb57611ecb6156ac565b60009182526020808320909101546001600160a01b0316835282019290925260400190205460ff161415611f6257600e8181548110611f0c57611f0c6156ac565b9060005260206000200160009054906101000a90046001600160a01b0316828481518110611f3c57611f3c6156ac565b6001600160a01b039092166020928302919091019091015282611f5e816156ff565b9350505b80611f6c816156ff565b915050611ea5565b5092915050565b6000546001600160a01b03163314611fa55760405162461bcd60e51b81526004016109e99061563c565b611faf6000614218565b565b60026001541415611fd45760405162461bcd60e51b81526004016109e990615737565b60026001556001600160a01b037f000000000000000000000000000000000000000000000000000000000000000016600090815260116020908152604080832033845290915290205481111561202957600080fd5b604051632e1a7d4d60e01b8152600481018290527f00000000000000000000000000000000000000000000000000000000000000006001600160a01b031690632e1a7d4d90602401600060405180830381600087803b15801561208b57600080fd5b505af115801561209f573d6000803e3d6000fd5b5050506001600160a01b037f00000000000000000000000000000000000000000000000000000000000000001660009081526011602090815260408083203384529091529020546120f1915082613a80565b7f00000000000000000000000000000000000000000000000000000000000000006001600160a01b03166000908152601160209081526040808320338085529252808320939093559151829084908381818185875af1925050503d8060008114612177576040519150601f19603f3d011682016040523d82523d6000602084013e61217c565b606091505b50509050806121cd5760405162461bcd60e51b815260206004820152601e60248201527f72656365697665722072656a656374656420455448207472616e73666572000060448201526064016109e9565b6001600160a01b037f0000000000000000000000000000000000000000000000000000000000000000166000908152601160209081526040808320338085529252918290205491517febff2602b3f468259e1e99f613fed6691f3a6526effe6ef3e768ba7ae7a36c4f9261225c9273eeeeeeeeeeeeeeeeeeeeeeeeeeeeeeeeeeeeeeee92909188914290615841565b60405180910390a150506001805550565b6001600160a01b0381166000908152600d602052604081205460ff166001141561229957506001919050565b506000919050565b600080546001600160a01b031633146122cc5760405162461bcd60e51b81526004016109e99061563c565b836122d657600080fd5b826122e057600080fd5b61230c60007f000000000000000000000000000000000000000000000000000000000000000086613535565b6001600160a01b037f0000000000000000000000000000000000000000000000000000000000000000811660009081526011602090815260408083209389168352929052205461235c9085613d19565b6001600160a01b037f000000000000000000000000000000000000000000000000000000000000000081166000908152601160209081526040808320938a168352929052908120919091556123b1908461360b565b6123ba82613921565b506001949350505050565b6000600260015414156123ea5760405162461bcd60e51b81526004016109e990615737565b60026001556001600160a01b037f00000000000000000000000000000000000000000000000000000000000000001661242660208401846152b7565b6001600160a01b0316141561247d5760405162461bcd60e51b815260206004820152601c60248201527f4d757374206e6f7420737761702066726f6d2042544320746f6b656e0000000060448201526064016109e9565b6001600160a01b037f0000000000000000000000000000000000000000000000000000000000000000166124b760408401602085016152b7565b6001600160a01b0316146125065760405162461bcd60e51b815260206004820152601660248201527526bab9ba1039bbb0b8103a3790212a21903a37b5b2b760511b60448201526064016109e9565b30612519610140840161012085016152b7565b6001600160a01b0316146125795760405162461bcd60e51b815260206004820152602160248201527f42656e6566696369617279206d757374206265207468697320636f6e747261636044820152601d60fa1b60648201526084016109e9565b60408201356011600061258f60208601866152b7565b6001600160a01b031681526020808201929092526040908101600090812033825290925290205410156125d45760405162461bcd60e51b81526004016109e990615785565b60006125e660408401602085016152b7565b6040516370a0823160e01b81523060048201526001600160a01b0391909116906370a082319060240160206040518083038186803b15801561262757600080fd5b505afa15801561263b573d6000803e3d6000fd5b505050506040513d601f19601f8201168201806040525081019061265f91906157bc565b90506126a760408401356011600061267a60208801886152b7565b6001600160a01b031681526020808201929092526040908101600090812033825290925290205490613a80565b601160006126b860208701876152b7565b6001600160a01b03168152602080820192909252604090810160009081203382529092529020556126e8836140e0565b61272a816126fc60408601602087016152b7565b6040516370a0823160e01b81523060048201526001600160a01b0391909116906370a08231906024016113dd565b915082608001358210156127505760405162461bcd60e51b81526004016109e9906157d5565b6003548210156127725760405162461bcd60e51b81526004016109e990615872565b61277d858584614268565b50600180559392505050565b600080546001600160a01b031633146127b45760405162461bcd60e51b81526004016109e99061563c565b836127be57600080fd5b826127c857600080fd5b6127f460007f000000000000000000000000000000000000000000000000000000000000000086613535565b6127ff60008461360b565b61280882613921565b60005b855181101561295a576128d5868281518110612829576128296156ac565b602002602001015160a01c6bffffffffffffffffffffffff16601160007f00000000000000000000000000000000000000000000000000000000000000006001600160a01b03166001600160a01b03168152602001908152602001600020600089858151811061289b5761289b6156ac565b602002602001015160001c6001600160a01b03166001600160a01b0316815260200190815260200160002054613d1990919063ffffffff16565b6001600160a01b037f00000000000000000000000000000000000000000000000000000000000000001660009081526011602052604081208851909190899085908110612924576129246156ac565b6020908102919091018101516001600160a01b031682528101919091526040016000205580612952816156ff565b91505061280b565b50600195945050505050565b600080546001600160a01b031633146129915760405162461bcd60e51b81526004016109e99061563c565b6000828152600c602052604090205460ff16156129f05760405162461bcd60e51b815260206004820152601860248201527f546865207478696420697320616c72656164792075736564000000000000000060448201526064016109e9565b604080518082019091526002815261189960f11b60208083019190915260008052600b9052600080516020615da383398151915254612a309185906143f4565b60008052600b602052600080516020615da383398151915255612a5282614420565b50600192915050565b60026001541415612a7e5760405162461bcd60e51b81526004016109e990615737565b600260015534612ca8576001600160a01b03821673eeeeeeeeeeeeeeeeeeeeeeeeeeeeeeeeeeeeeeee1415612ab257600080fd5b7f00000000000000000000000000000000000000000000000000000000000000006001600160a01b0316826001600160a01b03161415612af157600080fd5b6040516370a0823160e01b81523060048201526000906001600160a01b038416906370a082319060240160206040518083038186803b158015612b3357600080fd5b505afa158015612b47573d6000803e3d6000fd5b505050506040513d601f19601f82011682018060405250810190612b6b91906157bc565b9050612b826001600160a01b03841633308561443b565b6040516370a0823160e01b81523060048201526000906001600160a01b038516906370a082319060240160206040518083038186803b158015612bc457600080fd5b505afa158015612bd8573d6000803e3d6000fd5b505050506040513d601f19601f82011682018060405250810190612bfc91906157bc565b90506000612c0a8284613a80565b6001600160a01b0386166000908152601160209081526040808320338452909152902054909150612c3b9082613d19565b6001600160a01b03861660009081526011602090815260408083203380855292529182902083905590517f4e2ca0515ed1aef1395f66b5303bb5d6f1bf9d61a353fa53f73f8ac9973fa9f692612c98928992909186914290615841565b60405180910390a1505050612e09565b60003411612cb557600080fd5b7f00000000000000000000000000000000000000000000000000000000000000006001600160a01b031663d0e30db0346040518263ffffffff1660e01b81526004016000604051808303818588803b158015612d1057600080fd5b505af1158015612d24573d6000803e3d6000fd5b5050506001600160a01b037f0000000000000000000000000000000000000000000000000000000000000000166000908152601160209081526040808320338452909152902054612d789250905034613d19565b7f00000000000000000000000000000000000000000000000000000000000000006001600160a01b031660009081526011602090815260408083203380855292529182902083905590517f4e2ca0515ed1aef1395f66b5303bb5d6f1bf9d61a353fa53f73f8ac9973fa9f692611ba79273eeeeeeeeeeeeeeeeeeeeeeeeeeeeeeeeeeeeeeee92909134914290615841565b505060018055565b600080546001600160a01b03163314612e3c5760405162461bcd60e51b81526004016109e99061563c565b6000612e4661193a565b6001600160a01b03861660009081526007602052604090205490915060ff16612e965760405162461bcd60e51b8152602060048201526002602482015261189b60f11b60448201526064016109e9565b612ea18585856144a6565b612eaa57600080fd5b6001915080612eb761193a565b1015612ef95760405162461bcd60e51b8152602060048201526011602482015270496e76616c6964204c505420707269636560781b60448201526064016109e9565b509392505050565b600060026001541415612f265760405162461bcd60e51b81526004016109e990615737565b6002600155600083838281612f3d57612f3d6156ac565b9050602002016020810190612f5291906152b7565b905060008484612f6360018261576e565b818110612f7257612f726156ac565b9050602002016020810190612f8791906152b7565b6001600160a01b0383166000908152601160209081526040808320338452909152902054909150871115612fcd5760405162461bcd60e51b81526004016109e990615785565b7f00000000000000000000000000000000000000000000000000000000000000006001600160a01b0316826001600160a01b0316141561304a5760405162461bcd60e51b815260206004820152601860248201527726bab9ba1039bbb0b810333937b690212a21903a37b5b2b760411b60448201526064016109e9565b6001600160a01b03821673eeeeeeeeeeeeeeeeeeeeeeeeeeeeeeeeeeeeeeee14156130af5760405162461bcd60e51b815260206004820152601560248201527455736520706174682077455448202d3e207742544360581b60448201526064016109e9565b7f00000000000000000000000000000000000000000000000000000000000000006001600160a01b0316816001600160a01b0316146131295760405162461bcd60e51b815260206004820152601660248201527526bab9ba1039bbb0b8103a3790212a21903a37b5b2b760511b60448201526064016109e9565b6040516370a0823160e01b81523060048201526000906001600160a01b038316906370a082319060240160206040518083038186803b15801561316b57600080fd5b505afa15801561317f573d6000803e3d6000fd5b505050506040513d601f19601f820116820180604052508101906131a391906157bc565b6001600160a01b03841660009081526011602090815260408083203384529091529020549091506131d49089613a80565b6001600160a01b03841660009081526011602090815260408083203384529091529020558a156132115761320c8a8a8a8a8a8a613a93565b61321d565b61321d88888888613bd9565b6040516370a0823160e01b815230600482015261324f9082906001600160a01b038516906370a08231906024016113dd565b9350868410156132715760405162461bcd60e51b81526004016109e9906157d5565b6003548410156132935760405162461bcd60e51b81526004016109e990615872565b61329e8d8d86614268565b505050600180559998505050505050505050565b600080546001600160a01b031633146132dd5760405162461bcd60e51b81526004016109e99061563c565b7f000000000000000000000000000000000000000000000000000000000000000087156133f65760006133148861142d8b8a613a80565b6040516349e031a560e01b81529091506001600160a01b037f000000000000000000000000000000000000000000000000000000000000000016906349e031a590613368906000908a908a906004016158c6565b602060405180830381600087803b15801561338257600080fd5b505af1158015613396573d6000803e3d6000fd5b505050506040513d601f19601f820116820180604052508101906133ba919061571a565b506133f07f000000000000000000000000000000000000000000000000000000000000000060006133eb848c613d19565b613535565b506133ff565b876133ff575060005b613409818761360b565b821561107e5761107e60008052600b602052600080516020615da383398151915254600a55565b6001600160a01b039182166000908152600b60205260408082205492909316815291909120549091565b6000546001600160a01b031633146134845760405162461bcd60e51b81526004016109e99061563c565b6001600160a01b0381166134e95760405162461bcd60e51b815260206004820152602660248201527f4f776e61626c653a206e6577206f776e657220697320746865207a65726f206160448201526564647265737360d01b60648201526084016109e9565b6134f281614218565b50565b6002819055604080518281524260208201527fa1cc12e33e9907b789fd3c10ea0afd9d3e563e2db44d84c7269534f1046d1ca1910160405180910390a150565b6040805180820182526002815261313160f01b6020808301919091526001600160a01b0385166000908152600b90915291909120546135759183906143f4565b6001600160a01b038084166000908152600b602052604080822093909355908516815220546135a49082613d19565b6001600160a01b038481166000818152600b60209081526040918290209490945580519182529185169281019290925281018290527fea368a40e9570069bb8e6511d668293ad2e1f03b0d982431fd223de9f3b70ca69060600160405180910390a1505050565b80613614575050565b7f00000000000000000000000000000000000000000000000000000000000000006001600160a01b0316826001600160a01b031614156137655760405163a9059cbb60e01b81526001600160a01b037f000000000000000000000000000000000000000000000000000000000000000081166004830152602482018390527f0000000000000000000000000000000000000000000000000000000000000000169063a9059cbb90604401602060405180830381600087803b1580156136d857600080fd5b505af11580156136ec573d6000803e3d6000fd5b505050506040513d601f19601f82011682018060405250810190613710919061571a565b50604080516001600160a01b0384168152600060208201819052818301849052606082015290517fe3debe835f6848edc082b32a1d729781d3bfcd7e14422d80bcaa6794d3816b2f9181900360800190a15050565b600061376f61193a565b6001600160a01b0384166000908152600b60205260409020549091506137959083613d19565b6001600160a01b0384166000908152600b60205260408120919091556008546137cf90606490611a4190869062010000900460ff166140c8565b9050600061380183611a41847f00000000000000000000000000000000000000000000000000000000000000006140c8565b6040516340c10f1960e01b81526001600160a01b037f000000000000000000000000000000000000000000000000000000000000000081166004830152602482018390529192507f0000000000000000000000000000000000000000000000000000000000000000909116906340c10f1990604401602060405180830381600087803b15801561389057600080fd5b505af11580156138a4573d6000803e3d6000fd5b505050506040513d601f19601f820116820180604052508101906138c8919061571a565b50604080516001600160a01b038716815260208101869052908101829052606081018490527fe3debe835f6848edc082b32a1d729781d3bfcd7e14422d80bcaa6794d3816b2f9060800160405180910390a15050505050565b60005b8151811015613985576001600c6000848481518110613945576139456156ac565b6020026020010151815260200190815260200160002060006101000a81548160ff021916908315150217905550808061397d906156ff565b915050613924565b5050565b7f00000000000000000000000000000000000000000000000000000000000000006001600160a01b0316836001600160a01b031614156139f0576139ed817f00000000000000000000000000000000000000000000000000000000000000006140c8565b90505b60405163a9059cbb60e01b81526001600160a01b0383811660048301526024820183905284169063a9059cbb90604401602060405180830381600087803b158015613a3a57600080fd5b505af1158015613a4e573d6000803e3d6000fd5b505050506040513d601f19601f82011682018060405250810190613a72919061571a565b613a7b57600080fd5b505050565b6000613a8c828461576e565b9392505050565b600082826000818110613aa857613aa86156ac565b9050602002016020810190613abd91906152b7565b9050600073def171fe48cf0115b1d80b88dc8eab59176fee576001600160a01b031663d2c4b5986040518163ffffffff1660e01b815260040160206040518083038186803b158015613b0e57600080fd5b505afa158015613b22573d6000803e3d6000fd5b505050506040513d601f19601f82011682018060405250810190613b46919061591e565b9050613b5c6001600160a01b0383168288614693565b604051633d59840d60e21b815273def171fe48cf0115b1d80b88dc8eab59176fee579063f566103490613b9d908b908b908b908b908b908b90600401615979565b600060405180830381600087803b158015613bb757600080fd5b505af1158015613bcb573d6000803e3d6000fd5b505050505050505050505050565b600082826000818110613bee57613bee6156ac565b9050602002016020810190613c0391906152b7565b9050600073def171fe48cf0115b1d80b88dc8eab59176fee576001600160a01b031663d2c4b5986040518163ffffffff1660e01b815260040160206040518083038186803b158015613c5457600080fd5b505afa158015613c68573d6000803e3d6000fd5b505050506040513d601f19601f82011682018060405250810190613c8c919061591e565b9050613ca26001600160a01b0383168288614693565b604051632a42068d60e11b815273def171fe48cf0115b1d80b88dc8eab59176fee57906354840d1a90613cdf9089908990899089906004016159b9565b600060405180830381600087803b158015613cf957600080fd5b505af1158015613d0d573d6000803e3d6000fd5b50505050505050505050565b6000613a8c82846159e3565b6000818152600c602052604081205460ff1615613d695760405162461bcd60e51b8152602060048201526002602482015261181b60f11b60448201526064016109e9565b83613d9b5760405162461bcd60e51b8152602060048201526002602482015261303760f01b60448201526064016109e9565b8360a081901c6000613dab61193a565b90506000613ddd7f0000000000000000000000000000000000000000000000000000000000000000611a4185856140c8565b600854909150600090613e039061271090611a419085906301000000900460ff166140c8565b905087613e108383613a80565b1015613e435760405162461bcd60e51b8152602060048201526002602482015261303960f01b60448201526064016109e9565b6000613e538961142d8585613a80565b9050600080613e8360007f0000000000000000000000000000000000000000000000000000000000000000613430565b90925090506001600160a01b038d16613ed957613ea08585613a80565b821015613ed45760405162461bcd60e51b8152602060048201526002602482015261060760f31b60448201526064016109e9565b613f51565b7f00000000000000000000000000000000000000000000000000000000000000006001600160a01b03168d6001600160a01b03161415613f5157613f1d8585613a80565b811015613f515760405162461bcd60e51b8152602060048201526002602482015261189960f11b60448201526064016109e9565b613f5b8d8561360b565b613f658d86614754565b613f6e8a614420565b7f00000000000000000000000000000000000000000000000000000000000000006001600160a01b03168d6001600160a01b03161415613fb357613fb38d8985613989565b604051630852cd8d60e31b8152600481018890527f00000000000000000000000000000000000000000000000000000000000000006001600160a01b0316906342966c6890602401602060405180830381600087803b15801561401557600080fd5b505af1158015614029573d6000803e3d6000fd5b505050506040513d601f19601f8201168201806040525081019061404d919061571a565b61405657600080fd5b604080516001600160a01b038a16815260208101899052908101869052606081018790526080810184905260a081018b90527fa9da34e5e4a956b744307ae7611795634e8365951073bf049d76b64b2ae7a0589060c00160405180910390a15060019c9b505050505050505050505050565b6000613a8c82846159fb565b6000613a8c8284615a1a565b600073def171fe48cf0115b1d80b88dc8eab59176fee576001600160a01b031663d2c4b5986040518163ffffffff1660e01b815260040160206040518083038186803b15801561412f57600080fd5b505afa158015614143573d6000803e3d6000fd5b505050506040513d601f19601f82011682018060405250810190614167919061591e565b905061418f81604084013561417f60208601866152b7565b6001600160a01b03169190614693565b6040516354e3f31b60e01b815273def171fe48cf0115b1d80b88dc8eab59176fee57906354e3f31b906141c6908590600401615b40565b602060405180830381600087803b1580156141e057600080fd5b505af11580156141f4573d6000803e3d6000fd5b505050506040513d601f19601f82011682018060405250810190613a7b91906157bc565b600080546001600160a01b038381166001600160a01b0319831681178455604051919092169283917f8be0079c531659141344cd1fd0a4f28419497f9722a3daafe3b4186f6b6457e09190a35050565b60007f0000000000000000000000000000000000000000000000000000000000000000600554858585426040516020016142a796959493929190615cf6565b6040516020818303038152906040528051906020012090506040518060a0016040528082815260200185858080601f01602080910402602001604051908101604052809392919081815260200183838082843760009201829052509385525050336020808501919091526040808501889052426060909501949094526005548352600481529290912083518155838301518051919361434e93506001850192910190614b69565b5060408201516002820180546001600160a01b0319166001600160a01b03909216919091179055606082015160038201556080909101516004909101556143936147b4565b6005546143a1906001613d19565b6005556143ad8261486d565b7faaa4c278970337923c885845b00985ecf5082317e2f9abf72a27b4d35255d6728185853386426040516143e696959493929190615d32565b60405180910390a150505050565b600081848411156144185760405162461bcd60e51b81526004016109e99190615d73565b505050900390565b6000908152600c60205260409020805460ff19166001179055565b6040516001600160a01b03808516602483015283166044820152606481018290526118429085906323b872dd60e01b906084015b60408051601f198184030181529190526020810180516001600160e01b03166001600160e01b0319909316929092179091526148c2565b6000818152600c602052604081205460ff16156144ea5760405162461bcd60e51b8152602060048201526002602482015261181b60f11b60448201526064016109e9565b8261451c5760405162461bcd60e51b8152602060048201526002602482015261303760f01b60448201526064016109e9565b8260a081901c600061452c61193a565b9050600061455e82611a41857f00000000000000000000000000000000000000000000000000000000000000006140c8565b6040516340c10f1960e01b81526001600160a01b038681166004830152602482018390529192507f0000000000000000000000000000000000000000000000000000000000000000909116906340c10f1990604401602060405180830381600087803b1580156145cd57600080fd5b505af11580156145e1573d6000803e3d6000fd5b505050506040513d601f19601f82011682018060405250810190614605919061571a565b506146108884614994565b61461986614420565b600854604080516001600160a01b0387168152602081018690529081018390526060810184905264010000000090910460ff16608082015260a081018790527fdfaf4e23f7030adafec91a682e05bf9fb30c721f9cec3d8bcfae0459c5362db19060c00160405180910390a1506001979650505050505050565b604051636eb1769f60e11b81523060048201526001600160a01b038381166024830152600091839186169063dd62ed3e9060440160206040518083038186803b1580156146df57600080fd5b505afa1580156146f3573d6000803e3d6000fd5b505050506040513d601f19601f8201168201806040525081019061471791906157bc565b61472191906159e3565b6040516001600160a01b03851660248201526044810182905290915061184290859063095ea7b360e01b9060640161446f565b6040805180820182526002815261031360f41b6020808301919091526001600160a01b0385166000908152600b90915291909120546147949183906143f4565b6001600160a01b039092166000908152600b602052604090209190915550565b6006546000906147c590600a613d19565b905060055481106147d557506005545b60065442905b82811015613a7b576002546000828152600460208190526040909120015483916148059190613d19565b101561485b5760008181526004602052604081208181559061482a6001830182614b2f565b506002810180546001600160a01b0319169055600060038201819055600490910155614857816001613d19565b6006555b80614865816156ff565b9150506147db565b600a546148955761489560008052600b602052600080516020615da383398151915254600a55565b604080518082019091526002815261189960f11b6020820152600a546148bc9183906143f4565b600a5550565b6000614917826040518060400160405280602081526020017f5361666545524332303a206c6f772d6c6576656c2063616c6c206661696c6564815250856001600160a01b03166149b79092919063ffffffff16565b805190915015613a7b5780806020019051810190614935919061571a565b613a7b5760405162461bcd60e51b815260206004820152602a60248201527f5361666545524332303a204552433230206f7065726174696f6e20646964206e6044820152691bdd081cdd58d8d9595960b21b60648201526084016109e9565b6001600160a01b0382166000908152600b60205260409020546147949082613d19565b60606149c684846000856149ce565b949350505050565b606082471015614a2f5760405162461bcd60e51b815260206004820152602660248201527f416464726573733a20696e73756666696369656e742062616c616e636520666f6044820152651c8818d85b1b60d21b60648201526084016109e9565b843b614a7d5760405162461bcd60e51b815260206004820152601d60248201527f416464726573733a2063616c6c20746f206e6f6e2d636f6e747261637400000060448201526064016109e9565b600080866001600160a01b03168587604051614a999190615d86565b60006040518083038185875af1925050503d8060008114614ad6576040519150601f19603f3d011682016040523d82523d6000602084013e614adb565b606091505b5091509150614aeb828286614af6565b979650505050505050565b60608315614b05575081613a8c565b825115614b155782518084602001fd5b8160405162461bcd60e51b81526004016109e99190615d73565b508054614b3b9061580c565b6000825580601f10614b4b575050565b601f0160209004906000526020600020908101906134f29190614bed565b828054614b759061580c565b90600052602060002090601f016020900481019282614b975760008555614bdd565b82601f10614bb057805160ff1916838001178555614bdd565b82800160010185558215614bdd579182015b82811115614bdd578251825591602001919060010190614bc2565b50614be9929150614bed565b5090565b5b80821115614be95760008155600101614bee565b634e487b7160e01b600052600160045260246000fd5b6001600160a01b03811681146134f257600080fd5b8035614c3881614c18565b919050565b634e487b7160e01b600052604160045260246000fd5b604051601f8201601f191681016001600160401b0381118282101715614c7b57614c7b614c3d565b604052919050565b60006001600160401b03821115614c9c57614c9c614c3d565b5060051b60200190565b600082601f830112614cb757600080fd5b81356020614ccc614cc783614c83565b614c53565b82815260059290921b84018101918181019086841115614ceb57600080fd5b8286015b84811015614d0f578035614d0281614c18565b8352918301918301614cef565b509695505050505050565b80151581146134f257600080fd5b8035614c3881614d1a565b600082601f830112614d4457600080fd5b81356020614d54614cc783614c83565b82815260059290921b84018101918181019086841115614d7357600080fd5b8286015b84811015614d0f578035614d8a81614d1a565b8352918301918301614d77565b803560ff81168114614c3857600080fd5b6000806000806000806000806000806101408b8d031215614dc857600080fd5b614dd18b614c2d565b995060208b01356001600160401b0380821115614ded57600080fd5b614df98e838f01614ca6565b9a5060408d0135915080821115614e0f57600080fd5b50614e1c8d828e01614d33565b985050614e2b60608c01614d97565b9650614e3960808c01614d97565b9550614e4760a08c01614d97565b9450614e5560c08c01614d97565b935060e08b013592506101008b013591506101208b013590509295989b9194979a5092959850565b600082601f830112614e8e57600080fd5b81356020614e9e614cc783614c83565b82815260059290921b84018101918181019086841115614ebd57600080fd5b8286015b84811015614d0f5780358352918301918301614ec1565b60008060008060008060c08789031215614ef157600080fd5b8635614efc81614c18565b95506020870135614f0c81614c18565b945060408701359350606087013592506080870135915060a08701356001600160401b03811115614f3c57600080fd5b614f4889828a01614e7d565b9150509295509295509295565b60008083601f840112614f6757600080fd5b5081356001600160401b03811115614f7e57600080fd5b6020830191508360208260051b8501011115614f9957600080fd5b9250929050565b600080600080600080600060c0888a031215614fbb57600080fd5b8735614fc681614d1a565b96506020880135614fd681614c18565b955060408801359450606088013593506080880135925060a08801356001600160401b0381111561500657600080fd5b6150128a828b01614f55565b989b979a50959850939692959293505050565b60006020828403121561503757600080fd5b5035919050565b60005b83811015615059578181015183820152602001615041565b838111156118425750506000910152565b6000815180845261508281602086016020860161503e565b601f01601f19169290920160200192915050565b85815260a0602082015260006150af60a083018761506a565b6001600160a01b0395909516604083015250606081019290925260809091015292915050565b60006020808301818452808551808352604092508286019150828160051b87010184880160005b8381101561516557603f19898403018552815160a08151855288820151818a87015261512a8287018261506a565b838a01516001600160a01b0316878b0152606080850151908801526080938401519390960192909252505093860193908601906001016150fc565b509098975050505050505050565b6000806000806080858703121561518957600080fd5b843561519481614c18565b966020860135965060408601359560600135945092505050565b600080604083850312156151c157600080fd5b82356151cc81614c18565b946020939093013593505050565b600080604083850312156151ed57600080fd5b82356151f881614c18565b9150602083013561520881614c18565b809150509250929050565b60006101e0828403121561522657600080fd5b50919050565b60006020828403121561523e57600080fd5b81356001600160401b0381111561525457600080fd5b6149c684828501615213565b600081518084526020808501945080840160005b838110156152995781516001600160a01b031687529582019590820190600101615274565b509495945050505050565b602081526000613a8c6020830184615260565b6000602082840312156152c957600080fd5b8135613a8c81614c18565b600080600080608085870312156152ea57600080fd5b84356152f581614c18565b9350602085013592506040850135915060608501356001600160401b0381111561531e57600080fd5b61532a87828801614e7d565b91505092959194509250565b60008083601f84011261534857600080fd5b5081356001600160401b0381111561535f57600080fd5b602083019150836020828501011115614f9957600080fd5b60008060006040848603121561538c57600080fd5b83356001600160401b03808211156153a357600080fd5b6153af87838801615336565b909550935060208601359150808211156153c857600080fd5b506153d586828701615213565b9150509250925092565b600080600080608085870312156153f557600080fd5b84356001600160401b038082111561540c57600080fd5b61541888838901614e7d565b95506020870135945060408701359350606087013591508082111561543c57600080fd5b5061532a87828801614e7d565b6000806040838503121561545c57600080fd5b50508035926020909101359150565b60008060006060848603121561548057600080fd5b833561548b81614c18565b95602085013595506040909401359392505050565b600080600080600080600080600060e08a8c0312156154be57600080fd5b89356001600160401b03808211156154d557600080fd5b6154e18d838e01615336565b909b50995060208c013591506154f682614d1a565b90975060408b01359061550882614c18565b90965060608b0135955060808b0135945060a08b0135935060c08b0135908082111561553357600080fd5b506155408c828d01614f55565b915080935050809150509295985092959850929598565b60008060008060008060c0878903121561557057600080fd5b8635955060208088013595506040880135945060608801356001600160401b038082111561559d57600080fd5b6155a98b838c01614ca6565b955060808a01359150808211156155bf57600080fd5b508801601f81018a136155d157600080fd5b80356155df614cc782614c83565b81815260059190911b8201830190838101908c8311156155fe57600080fd5b928401925b8284101561561c57833582529284019290840190615603565b809650505050505061563060a08801614d28565b90509295509295509295565b6020808252818101527f4f776e61626c653a2063616c6c6572206973206e6f7420746865206f776e6572604082015260600190565b634e487b7160e01b600052601160045260246000fd5b600060ff821660ff84168060ff038211156156a4576156a4615671565b019392505050565b634e487b7160e01b600052603260045260246000fd5b600060ff821660ff8114156156d9576156d9615671565b60010192915050565b600060ff8216806156f5576156f5615671565b6000190192915050565b600060001982141561571357615713615671565b5060010190565b60006020828403121561572c57600080fd5b8151613a8c81614d1a565b6020808252601f908201527f5265656e7472616e637947756172643a207265656e7472616e742063616c6c00604082015260600190565b60008282101561578057615780615671565b500390565b60208082526019908201527f42616c616e6365206973206e6f742073756666696369656e7400000000000000604082015260600190565b6000602082840312156157ce57600080fd5b5051919050565b6020808252601c908201527f526563656976656420616d6f756e7420696e73756666696369656e7400000000604082015260600190565b600181811c9082168061582057607f821691505b6020821081141561522657634e487b7160e01b600052602260045260246000fd5b6001600160a01b03958616815293909416602084015260408301919091526060820152608081019190915260a00190565b60208082526034908201527f526563656976656420616d6f756e7420686173206e6f74206d657420746865206040820152736d696e20666f7220464c4f57203220737761707360601b606082015260800190565b6001600160a01b0384168152606060208083018290526000916158eb90840186615260565b838103604085015284518082528286019183019060005b8181101561516557835183529284019291840191600101615902565b60006020828403121561593057600080fd5b8151613a8c81614c18565b8183526000602080850194508260005b8581101561529957813561595e81614c18565b6001600160a01b03168752958201959082019060010161594b565b60018060a01b038716815285602082015284604082015283606082015260a0608082015260006159ad60a08301848661593b565b98975050505050505050565b8481528360208201526060604082015260006159d960608301848661593b565b9695505050505050565b600082198211156159f6576159f6615671565b500190565b6000816000190483118215151615615a1557615a15615671565b500290565b600082615a3757634e487b7160e01b600052601260045260246000fd5b500490565b6000808335601e19843603018112615a5357600080fd5b83016020810192503590506001600160401b03811115615a7257600080fd5b8060051b3603831315614f9957600080fd5b6000808335601e19843603018112615a9b57600080fd5b83016020810192503590506001600160401b03811115615aba57600080fd5b803603831315614f9957600080fd5b81835281816020850137506000828201602090810191909152601f909101601f19169091010190565b81835260006001600160fb1b03831115615b0b57600080fd5b8260051b8083602087013760009401602001938452509192915050565b80356001600160801b031981168114614c3857600080fd5b60208152615b6160208201615b5484614c2d565b6001600160a01b03169052565b6000615b6f60208401614c2d565b6001600160a01b0381166040840152506040830135606083015260608301356080830152608083013560a0830152615baa60a0840184615a3c565b6101e08060c0860152615bc26102008601838561593b565b9250615bd160c0870187615a84565b9250601f19808786030160e0880152615beb858584615ac9565b9450615bfa60e0890189615a3c565b94509150610100818887030181890152615c15868685615af2565b9550615c23818a018a615a3c565b9550925050610120818887030181890152615c3f868685615af2565b9550615c4c818a01614c2d565b9450506101409150615c68828801856001600160a01b03169052565b615c73828901614c2d565b93506101609150615c8e828801856001600160a01b03169052565b61018093508188013584880152615ca784890189615a84565b945091506101a0818887030181890152615cc2868685615ac9565b95506101c094508089013585890152505050615cdf828701615b28565b6001600160801b0319169401939093529392505050565b6bffffffffffffffffffffffff198760601b16815285601482015283856034830137603493019283019190915260548201526074019392505050565b86815260a060208201526000615d4c60a083018789615ac9565b6001600160a01b039590951660408301525060608101929092526080909101529392505050565b602081526000613a8c602083018461506a565b60008251615d9881846020870161503e565b919091019291505056fedf7de25b7f1fd6d0b5205f0e18f1f35bd7b8d84cce336588d184533ce43a6f76a2646970667358221220885604ca25898e96a0f65f2896fa2fe65a7f172b68494efa1c9463cb9cae9d6f64736f6c63430008090033",
  "linkReferences": {},
  "deployedLinkReferences": {}
}