{
  "_format": "hh-sol-artifact-1",
  "contractName": "SwapContract",
  "sourceName": "contracts/SwapContract.sol",
  "abi": [
    {
      "inputs": [
        {
          "internalType": "address",
          "name": "_lpToken",
          "type": "address"
        },
        {
          "internalType": "address",
          "name": "_btct",
          "type": "address"
        },
        {
          "internalType": "uint256",
          "name": "_existingBTCFloat",
          "type": "uint256"
        }
      ],
      "stateMutability": "nonpayable",
      "type": "constructor"
    },
    {
      "anonymous": false,
      "inputs": [
        {
          "indexed": false,
          "internalType": "address",
          "name": "token",
          "type": "address"
        },
        {
          "indexed": false,
          "internalType": "uint256",
          "name": "amountOfLP",
          "type": "uint256"
        },
        {
          "indexed": false,
          "internalType": "uint256",
          "name": "amountOfFloat",
          "type": "uint256"
        },
        {
          "indexed": false,
          "internalType": "uint256",
          "name": "currentPriceLP",
          "type": "uint256"
        },
        {
          "indexed": false,
          "internalType": "uint256",
          "name": "withdrawal",
          "type": "uint256"
        },
        {
          "indexed": false,
          "internalType": "bytes32",
          "name": "txid",
          "type": "bytes32"
        }
      ],
      "name": "BurnLPTokensForFloat",
      "type": "event"
    },
    {
      "anonymous": false,
      "inputs": [
        {
          "indexed": false,
          "internalType": "uint256",
          "name": "rewardLPTsForNodes",
          "type": "uint256"
        }
      ],
      "name": "DistributeNodeRewards",
      "type": "event"
    },
    {
      "anonymous": false,
      "inputs": [
        {
          "indexed": false,
          "internalType": "address",
          "name": "to",
          "type": "address"
        },
        {
          "indexed": false,
          "internalType": "uint256",
          "name": "amountOfFloat",
          "type": "uint256"
        },
        {
          "indexed": false,
          "internalType": "uint256",
          "name": "amountOfLP",
          "type": "uint256"
        },
        {
          "indexed": false,
          "internalType": "uint256",
          "name": "currentPriceLP",
          "type": "uint256"
        },
        {
          "indexed": false,
          "internalType": "uint256",
          "name": "depositFees",
          "type": "uint256"
        },
        {
          "indexed": false,
          "internalType": "bytes32",
          "name": "txid",
          "type": "bytes32"
        }
      ],
      "name": "IssueLPTokensForFloat",
      "type": "event"
    },
    {
      "anonymous": false,
      "inputs": [
        {
          "indexed": true,
          "internalType": "address",
          "name": "previousOwner",
          "type": "address"
        },
        {
          "indexed": true,
          "internalType": "address",
          "name": "newOwner",
          "type": "address"
        }
      ],
      "name": "OwnershipTransferred",
      "type": "event"
    },
    {
      "anonymous": false,
      "inputs": [
        {
          "indexed": false,
          "internalType": "address",
          "name": "feesToken",
          "type": "address"
        },
        {
          "indexed": false,
          "internalType": "uint256",
          "name": "rewards",
          "type": "uint256"
        },
        {
          "indexed": false,
          "internalType": "uint256",
          "name": "amountLPTokensForNode",
          "type": "uint256"
        },
        {
          "indexed": false,
          "internalType": "uint256",
          "name": "currentPriceLP",
          "type": "uint256"
        }
      ],
      "name": "RewardsCollection",
      "type": "event"
    },
    {
      "anonymous": false,
      "inputs": [
        {
          "indexed": false,
          "internalType": "address",
          "name": "from",
          "type": "address"
        },
        {
          "indexed": false,
          "internalType": "address",
          "name": "to",
          "type": "address"
        },
        {
          "indexed": false,
          "internalType": "uint256",
          "name": "amount",
          "type": "uint256"
        }
      ],
      "name": "Swap",
      "type": "event"
    },
    {
      "anonymous": false,
      "inputs": [
        {
          "indexed": false,
          "internalType": "address",
          "name": "token",
          "type": "address"
        },
        {
          "indexed": false,
          "internalType": "address",
          "name": "user",
          "type": "address"
        },
        {
          "indexed": false,
          "internalType": "uint256",
          "name": "amount",
          "type": "uint256"
        },
        {
          "indexed": false,
          "internalType": "uint256",
          "name": "balance",
          "type": "uint256"
        }
      ],
      "name": "Withdraw",
      "type": "event"
    },
    {
      "stateMutability": "nonpayable",
      "type": "fallback"
    },
    {
      "inputs": [],
      "name": "BTCT_ADDR",
      "outputs": [
        {
          "internalType": "address",
          "name": "",
          "type": "address"
        }
      ],
      "stateMutability": "view",
      "type": "function"
    },
    {
      "inputs": [
        {
          "internalType": "address",
          "name": "_token",
          "type": "address"
        }
      ],
      "name": "balanceOf",
      "outputs": [
        {
          "internalType": "uint256",
          "name": "",
          "type": "uint256"
        }
      ],
      "stateMutability": "view",
      "type": "function"
    },
    {
      "inputs": [
        {
          "internalType": "address",
          "name": "_newOwner",
          "type": "address"
        },
        {
          "internalType": "bytes32[]",
          "name": "_rewardAddressAndAmounts",
          "type": "bytes32[]"
        },
        {
          "internalType": "bool[]",
          "name": "_isRemoved",
          "type": "bool[]"
        },
        {
          "internalType": "uint8",
          "name": "_churnedInCount",
          "type": "uint8"
        },
        {
          "internalType": "uint8",
          "name": "_tssThreshold",
          "type": "uint8"
        },
        {
          "internalType": "uint8",
          "name": "_nodeRewardsRatio",
          "type": "uint8"
        },
        {
          "internalType": "uint8",
          "name": "_withdrawalFeeBPS",
          "type": "uint8"
        }
      ],
      "name": "churn",
      "outputs": [
        {
          "internalType": "bool",
          "name": "",
          "type": "bool"
        }
      ],
      "stateMutability": "nonpayable",
      "type": "function"
    },
    {
      "inputs": [],
      "name": "churnedInCount",
      "outputs": [
        {
          "internalType": "uint8",
          "name": "",
          "type": "uint8"
        }
      ],
      "stateMutability": "view",
      "type": "function"
    },
    {
      "inputs": [
        {
          "internalType": "address",
          "name": "_destToken",
          "type": "address"
        },
        {
          "internalType": "uint256",
          "name": "_incomingAmount",
          "type": "uint256"
        },
        {
          "internalType": "uint256",
          "name": "_minerFee",
          "type": "uint256"
        },
        {
          "internalType": "uint256",
          "name": "_rewardsAmount",
          "type": "uint256"
        }
      ],
      "name": "collectSwapFeesForBTC",
      "outputs": [
        {
          "internalType": "bool",
          "name": "",
          "type": "bool"
        }
      ],
      "stateMutability": "nonpayable",
      "type": "function"
    },
    {
      "inputs": [],
      "name": "depositFeesBPS",
      "outputs": [
        {
          "internalType": "uint8",
          "name": "",
          "type": "uint8"
        }
      ],
      "stateMutability": "view",
      "type": "function"
    },
    {
      "inputs": [],
      "name": "distributeNodeRewards",
      "outputs": [
        {
          "internalType": "bool",
          "name": "",
          "type": "bool"
        }
      ],
      "stateMutability": "nonpayable",
      "type": "function"
    },
    {
      "inputs": [
        {
          "components": [
            {
              "internalType": "address",
              "name": "fromToken",
              "type": "address"
            },
            {
              "internalType": "uint256",
              "name": "fromAmount",
              "type": "uint256"
            },
            {
              "internalType": "uint256",
              "name": "toAmount",
              "type": "uint256"
            },
            {
              "internalType": "uint256",
              "name": "expectedAmount",
              "type": "uint256"
            },
            {
              "internalType": "address payable",
              "name": "beneficiary",
              "type": "address"
            },
            {
              "components": [
                {
                  "internalType": "address",
                  "name": "to",
                  "type": "address"
                },
                {
                  "internalType": "uint256",
                  "name": "totalNetworkFee",
                  "type": "uint256"
                },
                {
                  "components": [
                    {
                      "internalType": "address payable",
                      "name": "adapter",
                      "type": "address"
                    },
                    {
                      "internalType": "uint256",
                      "name": "percent",
                      "type": "uint256"
                    },
                    {
                      "internalType": "uint256",
                      "name": "networkFee",
                      "type": "uint256"
                    },
                    {
                      "components": [
                        {
                          "internalType": "uint256",
                          "name": "index",
                          "type": "uint256"
                        },
                        {
                          "internalType": "address",
                          "name": "targetExchange",
                          "type": "address"
                        },
                        {
                          "internalType": "uint256",
                          "name": "percent",
                          "type": "uint256"
                        },
                        {
                          "internalType": "bytes",
                          "name": "payload",
                          "type": "bytes"
                        },
                        {
                          "internalType": "uint256",
                          "name": "networkFee",
                          "type": "uint256"
                        }
                      ],
                      "internalType": "struct Utils.Route[]",
                      "name": "route",
                      "type": "tuple[]"
                    }
                  ],
                  "internalType": "struct Utils.Adapter[]",
                  "name": "adapters",
                  "type": "tuple[]"
                }
              ],
              "internalType": "struct Utils.Path[]",
              "name": "path",
              "type": "tuple[]"
            },
            {
              "internalType": "address payable",
              "name": "partner",
              "type": "address"
            },
            {
              "internalType": "uint256",
              "name": "feePercent",
              "type": "uint256"
            },
            {
              "internalType": "bytes",
              "name": "permit",
              "type": "bytes"
            },
            {
              "internalType": "uint256",
              "name": "deadline",
              "type": "uint256"
            },
            {
              "internalType": "bytes16",
              "name": "uuid",
              "type": "bytes16"
            }
          ],
          "internalType": "struct Utils.SellData",
          "name": "data",
          "type": "tuple"
        }
      ],
      "name": "doParaSwapMultiSwap",
      "outputs": [],
      "stateMutability": "nonpayable",
      "type": "function"
    },
    {
      "inputs": [
        {
          "internalType": "address",
          "name": "paraSwapAddress",
          "type": "address"
        },
        {
          "internalType": "uint256",
          "name": "amountIn",
          "type": "uint256"
        },
        {
          "internalType": "uint256",
          "name": "amountOutMin",
          "type": "uint256"
        },
        {
          "internalType": "address[]",
          "name": "path",
          "type": "address[]"
        }
      ],
      "name": "doParaSwapOnUniswap",
      "outputs": [],
      "stateMutability": "nonpayable",
      "type": "function"
    },
    {
      "inputs": [
        {
          "internalType": "address",
          "name": "paraSwapAddress",
          "type": "address"
        },
        {
          "internalType": "address",
          "name": "factory",
          "type": "address"
        },
        {
          "internalType": "bytes32",
          "name": "initCode",
          "type": "bytes32"
        },
        {
          "internalType": "uint256",
          "name": "amountIn",
          "type": "uint256"
        },
        {
          "internalType": "uint256",
          "name": "amountOutMin",
          "type": "uint256"
        },
        {
          "internalType": "address[]",
          "name": "path",
          "type": "address[]"
        }
      ],
      "name": "doParaSwapOnUniswapFork",
      "outputs": [],
      "stateMutability": "nonpayable",
      "type": "function"
    },
    {
      "inputs": [
        {
          "internalType": "address",
          "name": "paraSwapAddress",
          "type": "address"
        },
        {
          "internalType": "contract IERC20",
          "name": "fromToken",
          "type": "address"
        },
        {
          "internalType": "contract IERC20",
          "name": "toToken",
          "type": "address"
        },
        {
          "internalType": "uint256",
          "name": "fromAmount",
          "type": "uint256"
        },
        {
          "internalType": "uint256",
          "name": "amountOutMin",
          "type": "uint256"
        },
        {
          "internalType": "address",
          "name": "exchange",
          "type": "address"
        },
        {
          "internalType": "bytes",
          "name": "payload",
          "type": "bytes"
        }
      ],
      "name": "doParaSwapOnZeroXv4",
      "outputs": [],
      "stateMutability": "nonpayable",
      "type": "function"
    },
    {
      "inputs": [
        {
          "internalType": "address",
          "name": "paraSwapAddress",
          "type": "address"
        },
        {
          "components": [
            {
              "internalType": "address",
              "name": "fromToken",
              "type": "address"
            },
            {
              "internalType": "address",
              "name": "toToken",
              "type": "address"
            },
            {
              "internalType": "uint256",
              "name": "fromAmount",
              "type": "uint256"
            },
            {
              "internalType": "uint256",
              "name": "toAmount",
              "type": "uint256"
            },
            {
              "internalType": "uint256",
              "name": "expectedAmount",
              "type": "uint256"
            },
            {
              "internalType": "address[]",
              "name": "callees",
              "type": "address[]"
            },
            {
              "internalType": "bytes",
              "name": "exchangeData",
              "type": "bytes"
            },
            {
              "internalType": "uint256[]",
              "name": "startIndexes",
              "type": "uint256[]"
            },
            {
              "internalType": "uint256[]",
              "name": "values",
              "type": "uint256[]"
            },
            {
              "internalType": "address payable",
              "name": "beneficiary",
              "type": "address"
            },
            {
              "internalType": "address payable",
              "name": "partner",
              "type": "address"
            },
            {
              "internalType": "uint256",
              "name": "feePercent",
              "type": "uint256"
            },
            {
              "internalType": "bytes",
              "name": "permit",
              "type": "bytes"
            },
            {
              "internalType": "uint256",
              "name": "deadline",
              "type": "uint256"
            },
            {
              "internalType": "bytes16",
              "name": "uuid",
              "type": "bytes16"
            }
          ],
          "internalType": "struct Utils.SimpleData",
          "name": "data",
          "type": "tuple"
        }
      ],
      "name": "doParaSwapSimpleSwap",
      "outputs": [],
      "stateMutability": "nonpayable",
      "type": "function"
    },
    {
      "inputs": [],
      "name": "feesLPTokensForNode",
      "outputs": [
        {
          "internalType": "uint256",
          "name": "",
          "type": "uint256"
        }
      ],
      "stateMutability": "view",
      "type": "function"
    },
    {
      "inputs": [],
      "name": "getActiveNodes",
      "outputs": [
        {
          "internalType": "bytes32[]",
          "name": "",
          "type": "bytes32[]"
        }
      ],
      "stateMutability": "view",
      "type": "function"
    },
    {
      "inputs": [],
      "name": "getCurrentPriceLP",
      "outputs": [
        {
          "internalType": "uint256",
          "name": "nowPrice",
          "type": "uint256"
        }
      ],
      "stateMutability": "view",
      "type": "function"
    },
    {
      "inputs": [
        {
          "internalType": "address",
          "name": "_token",
          "type": "address"
        },
        {
          "internalType": "uint256",
          "name": "_amountOfFloat",
          "type": "uint256"
        }
      ],
      "name": "getDepositFeeRate",
      "outputs": [
        {
          "internalType": "uint256",
          "name": "depositFeeRate",
          "type": "uint256"
        }
      ],
      "stateMutability": "view",
      "type": "function"
    },
    {
      "inputs": [
        {
          "internalType": "address",
          "name": "_tokenA",
          "type": "address"
        },
        {
          "internalType": "address",
          "name": "_tokenB",
          "type": "address"
        }
      ],
      "name": "getFloatReserve",
      "outputs": [
        {
          "internalType": "uint256",
          "name": "reserveA",
          "type": "uint256"
        },
        {
          "internalType": "uint256",
          "name": "reserveB",
          "type": "uint256"
        }
      ],
      "stateMutability": "view",
      "type": "function"
    },
    {
      "inputs": [],
      "name": "initialExchangeRate",
      "outputs": [
        {
          "internalType": "uint256",
          "name": "",
          "type": "uint256"
        }
      ],
      "stateMutability": "view",
      "type": "function"
    },
    {
      "inputs": [
        {
          "internalType": "bytes32",
          "name": "_txid",
          "type": "bytes32"
        }
      ],
      "name": "isTxUsed",
      "outputs": [
        {
          "internalType": "bool",
          "name": "",
          "type": "bool"
        }
      ],
      "stateMutability": "view",
      "type": "function"
    },
    {
      "inputs": [],
      "name": "lockedLPTokensForNode",
      "outputs": [
        {
          "internalType": "uint256",
          "name": "",
          "type": "uint256"
        }
      ],
      "stateMutability": "view",
      "type": "function"
    },
    {
      "inputs": [],
      "name": "lpToken",
      "outputs": [
        {
          "internalType": "address",
          "name": "",
          "type": "address"
        }
      ],
      "stateMutability": "view",
      "type": "function"
    },
    {
      "inputs": [
        {
          "internalType": "address",
          "name": "_destToken",
          "type": "address"
        },
        {
          "internalType": "bytes32[]",
          "name": "_addressesAndAmounts",
          "type": "bytes32[]"
        },
        {
          "internalType": "uint256",
          "name": "_totalSwapped",
          "type": "uint256"
        },
        {
          "internalType": "uint256",
          "name": "_rewardsAmount",
          "type": "uint256"
        },
        {
          "internalType": "bytes32[]",
          "name": "_redeemedFloatTxIds",
          "type": "bytes32[]"
        }
      ],
      "name": "multiTransferERC20TightlyPacked",
      "outputs": [
        {
          "internalType": "bool",
          "name": "",
          "type": "bool"
        }
      ],
      "stateMutability": "nonpayable",
      "type": "function"
    },
    {
      "inputs": [],
      "name": "nodeRewardsRatio",
      "outputs": [
        {
          "internalType": "uint8",
          "name": "",
          "type": "uint8"
        }
      ],
      "stateMutability": "view",
      "type": "function"
    },
    {
      "inputs": [],
      "name": "owner",
      "outputs": [
        {
          "internalType": "address",
          "name": "",
          "type": "address"
        }
      ],
      "stateMutability": "view",
      "type": "function"
    },
    {
      "inputs": [
        {
          "internalType": "address",
          "name": "_token",
          "type": "address"
        },
        {
          "internalType": "bytes32",
          "name": "_addressesAndAmountOfFloat",
          "type": "bytes32"
        },
        {
          "internalType": "bool",
          "name": "_zerofee",
          "type": "bool"
        },
        {
          "internalType": "bytes32",
          "name": "_txid",
          "type": "bytes32"
        }
      ],
      "name": "recordIncomingFloat",
      "outputs": [
        {
          "internalType": "bool",
          "name": "",
          "type": "bool"
        }
      ],
      "stateMutability": "nonpayable",
      "type": "function"
    },
    {
      "inputs": [
        {
          "internalType": "address",
          "name": "_token",
          "type": "address"
        },
        {
          "internalType": "bytes32",
          "name": "_addressesAndAmountOfLPtoken",
          "type": "bytes32"
        },
        {
          "internalType": "uint256",
          "name": "_minerFee",
          "type": "uint256"
        },
        {
          "internalType": "bytes32",
          "name": "_txid",
          "type": "bytes32"
        }
      ],
      "name": "recordOutcomingFloat",
      "outputs": [
        {
          "internalType": "bool",
          "name": "",
          "type": "bool"
        }
      ],
      "stateMutability": "nonpayable",
      "type": "function"
    },
    {
      "inputs": [
        {
          "internalType": "address",
          "name": "_destToken",
          "type": "address"
        },
        {
          "internalType": "address",
          "name": "_to",
          "type": "address"
        },
        {
          "internalType": "uint256",
          "name": "_amount",
          "type": "uint256"
        },
        {
          "internalType": "uint256",
          "name": "_totalSwapped",
          "type": "uint256"
        },
        {
          "internalType": "bytes32[]",
          "name": "_redeemedFloatTxIds",
          "type": "bytes32[]"
        }
      ],
      "name": "recordSkyPoolsTX",
      "outputs": [
        {
          "internalType": "bool",
          "name": "",
          "type": "bool"
        }
      ],
      "stateMutability": "nonpayable",
      "type": "function"
    },
    {
      "inputs": [
        {
          "internalType": "uint256",
          "name": "_minerFee",
          "type": "uint256"
        },
        {
          "internalType": "bytes32",
          "name": "_txid",
          "type": "bytes32"
        }
      ],
      "name": "recordUTXOSweepMinerFee",
      "outputs": [
        {
          "internalType": "bool",
          "name": "",
          "type": "bool"
        }
      ],
      "stateMutability": "nonpayable",
      "type": "function"
    },
    {
      "inputs": [
        {
          "internalType": "address",
          "name": "_token",
          "type": "address"
        },
        {
          "internalType": "uint256",
          "name": "_amount",
          "type": "uint256"
        }
      ],
      "name": "redeemERC20Token",
      "outputs": [
        {
          "internalType": "bool",
          "name": "",
          "type": "bool"
        }
      ],
      "stateMutability": "nonpayable",
      "type": "function"
    },
    {
      "inputs": [],
      "name": "renounceOwnership",
      "outputs": [],
      "stateMutability": "nonpayable",
      "type": "function"
    },
    {
      "inputs": [
        {
          "internalType": "address",
          "name": "_destToken",
          "type": "address"
        },
        {
          "internalType": "address",
          "name": "_to",
          "type": "address"
        },
        {
          "internalType": "uint256",
          "name": "_amount",
          "type": "uint256"
        },
        {
          "internalType": "uint256",
          "name": "_totalSwapped",
          "type": "uint256"
        },
        {
          "internalType": "uint256",
          "name": "_rewardsAmount",
          "type": "uint256"
        },
        {
          "internalType": "bytes32[]",
          "name": "_redeemedFloatTxIds",
          "type": "bytes32[]"
        }
      ],
      "name": "singleTransferERC20",
      "outputs": [
        {
          "internalType": "bool",
          "name": "",
          "type": "bool"
        }
      ],
      "stateMutability": "nonpayable",
      "type": "function"
    },
    {
      "inputs": [
        {
          "internalType": "address",
          "name": "",
          "type": "address"
        },
        {
          "internalType": "address",
          "name": "",
          "type": "address"
        }
      ],
      "name": "tokens",
      "outputs": [
        {
          "internalType": "uint256",
          "name": "",
          "type": "uint256"
        }
      ],
      "stateMutability": "view",
      "type": "function"
    },
    {
      "inputs": [
        {
          "internalType": "address",
          "name": "newOwner",
          "type": "address"
        }
      ],
      "name": "transferOwnership",
      "outputs": [],
      "stateMutability": "nonpayable",
      "type": "function"
    },
    {
      "inputs": [],
      "name": "tssThreshold",
      "outputs": [
        {
          "internalType": "uint8",
          "name": "",
          "type": "uint8"
        }
      ],
      "stateMutability": "view",
      "type": "function"
    },
    {
      "inputs": [
        {
          "internalType": "address",
          "name": "",
          "type": "address"
        }
      ],
      "name": "whitelist",
      "outputs": [
        {
          "internalType": "bool",
          "name": "",
          "type": "bool"
        }
      ],
      "stateMutability": "view",
      "type": "function"
    },
    {
      "inputs": [],
      "name": "withdrawalFeeBPS",
      "outputs": [
        {
          "internalType": "uint8",
          "name": "",
          "type": "uint8"
        }
      ],
      "stateMutability": "view",
      "type": "function"
    }
  ],
  "bytecode": "0x60806040523480156200001157600080fd5b50604051620039c4380380620039c48339810160408190526200003491620002bd565b6000620000406200029c565b600080546001600160a01b0319166001600160a01b0383169081178255604051929350917f8be0079c531659141344cd1fd0a4f28419497f9722a3daafe3b4186f6b6457e0908290a350600280546001600160a01b0319166001600160a01b0385811691909117918290556040805163313ce56760e01b81529051929091169163313ce56791600480820192602092909190829003018186803b158015620000e757600080fd5b505afa158015620000fc573d6000803e3d6000fd5b505050506040513d601f19601f82011682018060405250810190620001229190620002fd565b60ff16600a0a600955600180546001600160a01b0319166001600160a01b0384169081179091556004805462ff00001916624200001763ff000000191663320000001760ff60201b19166414000000001781556040805163313ce56760e01b815290516008939263313ce56792808201926020929091829003018186803b158015620001ad57600080fd5b505afa158015620001c2573d6000803e3d6000fd5b505050506040513d601f19601f82011682018060405250810190620001e89190620002fd565b0360ff16600a90810a600855600954600755600060058190556006819055600180546001600160a01b039081168352600360209081526040808520805460ff1990811686179091556002549093168552842080548316841790559280527f3617319a054d772f909f7c479a2cebe5066e836a939412e32403c99029b92eff80549091169091179055527f13da86008ba1c6922daee3e07db95305ef49ebced9f5467a0b8613fcc6b343e35550620003279050565b3390565b80516001600160a01b0381168114620002b857600080fd5b919050565b600080600060608486031215620002d2578283fd5b620002dd84620002a0565b9250620002ed60208501620002a0565b9150604084015190509250925092565b6000602082840312156200030f578081fd5b815160ff8116811462000320578182fd5b9392505050565b61368d80620003376000396000f3fe608060405234801561001057600080fd5b506004361061021b5760003560e01c80636b51e91911610125578063ad289e76116100ad578063e6ca20841161007c578063e6ca20841461042a578063e9e9bf6a1461043d578063ec48272914610445578063f2fde38b14610466578063f7824bc7146104795761021b565b8063ad289e76146103e9578063b6268e5d146103fc578063c810a53914610404578063d6b2779a146104175761021b565b80638006cc3e116100f45780638006cc3e14610395578063874d060f146103a85780638da5cb5b146103bb5780639281fd1d146103c35780639b19251a146103d65761021b565b80636b51e9191461035d5780636d019f351461037257806370a082311461037a578063715018a61461038d5761021b565b806342419255116101a8578063508493bc11610177578063508493bc146103095780635de257cd1461031c5780635fcbd2851461032f57806361b856841461033757806363f289d91461034a5761021b565b806342419255146102d357806345137e27146102db5780634db75485146102e35780634e54cee0146102f65761021b565b80630f909486116101ef5780630f9094861461027b57806312d1441e146102905780632586c562146102985780632d55282d146102ab5780633b6fa127146102c05761021b565b806289356f1461022057806303d4b1431461023e5780630b68134d146102535780630d63aca71461025b575b600080fd5b610228610481565b60405161023591906134cd565b60405180910390f35b61025161024c366004612c19565b61048a565b005b61022861048d565b61026e6102693660046127b6565b61049c565b6040516102359190612ea2565b6102836105f0565b6040516102359190612d4b565b6102286105ff565b61026e6102a6366004612a06565b61060d565b6102b36106ff565b604051610235919061348c565b6102b36102ce366004612b53565b610705565b610228610791565b6102b36107a1565b61026e6102f1366004612b53565b610899565b61026e610304366004612831565b6109a9565b6102b3610317366004612688565b610bd7565b61025161032a366004612b0a565b610bf4565b610283610c77565b610251610345366004612a40565b610c86565b61026e6103583660046129bf565b610cfa565b610365610daf565b6040516102359190612e5e565b6102b3610f0d565b6102b361038836600461266c565b610f13565b610251610f3d565b61026e6103a3366004612a06565b610fe9565b6102516103b6366004612b7e565b6110e5565b610283611150565b6102516103d13660046126c0565b61115f565b61026e6103e436600461266c565b6111d0565b61026e6103f7366004612946565b6111e5565b61022861136b565b61026e610412366004612c69565b61137c565b61026e610425366004612743565b6114b0565b61026e610438366004612c01565b611615565b61026e61162a565b610458610453366004612688565b611877565b604051610235929190613495565b61025161047436600461266c565b6118a1565b6102b36119a3565b60045460ff1681565b50565b60045462010000900460ff1681565b60006104a66119a9565b6001600160a01b03166104b7611150565b6001600160a01b031614610500576040805162461bcd60e51b81526020600482018190526024820152600080516020613611833981519152604482015290519081900360640190fd5b6001600160a01b03871660009081526003602052604090205460ff166105415760405162461bcd60e51b81526004016105389061315d565b60405180910390fd5b6001600160a01b0387166105675760405162461bcd60e51b815260040161053890613281565b6000841561058d57600154610588906000906001600160a01b0316876119ad565b6105a0565b846105a057506001546001600160a01b03165b6002546001600160a01b03898116911614156105c457506002546001600160a01b03165b6105ce8185611a90565b6105d783611be4565b6105e2888888611c33565b506001979650505050505050565b6001546001600160a01b031681565b600454610100900460ff1681565b60006106176119a9565b6001600160a01b0316610628611150565b6001600160a01b031614610671576040805162461bcd60e51b81526020600482018190526024820152600080516020613611833981519152604482015290519081900360640190fd5b600061067b6107a1565b6001600160a01b03871660009081526003602052604090205490915060ff166106b65760405162461bcd60e51b815260040161053890613256565b6106c286868686611ce3565b6106cb57600080fd5b60019150806106d86107a1565b10156106f65760405162461bcd60e51b8152600401610538906132c4565b50949350505050565b60055481565b6000806107128484611f7d565b90508060ff1660011415610754576001546001600160a01b0385811691161461073c57600061074a565b6004546301000000900460ff165b60ff16915061078a565b8060ff166002141561078a576001600160a01b03841615610776576000610784565b6004546301000000900460ff165b60ff1691505b5092915050565b6004546301000000900460ff1681565b600154600090819081906107bf9082906001600160a01b0316611877565b915091506000600260009054906101000a90046001600160a01b03166001600160a01b03166318160ddd6040518163ffffffff1660e01b815260040160206040518083038186803b15801561081357600080fd5b505afa158015610827573d6000803e3d6000fd5b505050506040513d601f19601f8201168201806040525081019061084b9190612c51565b9050801561088d5761088861086b6005548361203790919063ffffffff16565b6009546108829061087c8787612037565b90612098565b906120f1565b610891565b6007545b935050505090565b6001600160a01b0382166000908152600f602090815260408083203384529091528120548211156108dc5760405162461bcd60e51b815260040161053890613228565b6001600160a01b0383166000908152600f6020908152604080832033845290915290205461090a9083612158565b6001600160a01b0384166000908152600f602090815260408083203380855292529091209190915561093e90849084611c33565b6001600160a01b0383166000908152600f60209081526040808320338085529252918290205491517ff341246adaac6f497bc2a656f546ab9e182111d630394f0c57c710a59a2cb5679261099792879290918791612d78565b60405180910390a15060015b92915050565b60006109b36119a9565b6001600160a01b03166109c4611150565b6001600160a01b031614610a0d576040805162461bcd60e51b81526020600482018190526024820152600080516020613611833981519152604482015290519081900360640190fd5b60045460ff610100909104811690851610801590610a2f575060ff8460ff1611155b610a4b5760405162461bcd60e51b815260040161053890613004565b6001840160ff168560ff161015610a745760405162461bcd60e51b8152600401610538906130b9565b60648360ff161115610a985760405162461bcd60e51b815260040161053890612efd565b60648260ff161115610abc5760405162461bcd60e51b815260040161053890613082565b8551875114610add5760405162461bcd60e51b8152600401610538906131cb565b610ae6886118a1565b60005b8751811015610b4e576000610b10898381518110610b0357fe5b60200260200101516121b5565b509050610b44818a8481518110610b2357fe5b60200260200101518a8581518110610b3757fe5b60200260200101516121be565b5050600101610ae9565b506060610b59610daf565b9050606481511115610b7d5760405162461bcd60e51b81526004016105389061311c565b50506004805460ff191660ff9586161761ff001916610100948616949094029390931762ff0000191662010000928516929092029190911764ff000000001916640100000000919093160291909117905550600192915050565b600f60209081526000928352604080842090915290825290205481565b6040516354e3f31b60e01b81526001600160a01b038316906354e3f31b90610c209084906004016132ef565b602060405180830381600087803b158015610c3a57600080fd5b505af1158015610c4e573d6000803e3d6000fd5b505050506040513d601f19601f82011682018060405250810190610c729190612c51565b505050565b6002546001600160a01b031681565b604051636446680560e01b81526001600160a01b03891690636446680590610cbe908a908a908a908a908a908a908a90600401612ead565b600060405180830381600087803b158015610cd857600080fd5b505af1158015610cec573d6000803e3d6000fd5b505050505050505050505050565b6000610d046119a9565b6001600160a01b0316610d15611150565b6001600160a01b031614610d5e576040805162461bcd60e51b81526020600482018190526024820152600080516020613611833981519152604482015290519081900360640190fd5b6000610d686107a1565b6001600160a01b03871660009081526003602052604090205490915060ff16610da35760405162461bcd60e51b815260040161053890613256565b6106c28686868661228d565b606060008060005b600e54811015610e1257600c6000600e8381548110610dd257fe5b60009182526020808320909101546001600160a01b0316835282019290925260400190205415610e0a57610e07836001612037565b92505b600101610db7565b506060826001600160401b0381118015610e2b57600080fd5b50604051908082528060200260200182016040528015610e55578160200160208202803683370190505b50905060005b600e54811015610f0557600c6000600e8381548110610e7657fe5b60009182526020808320909101546001600160a01b0316835282019290925260400190205415610efd57600c6000600e8381548110610eb157fe5b60009182526020808320909101546001600160a01b031683528201929092526040019020548251839085908110610ee457fe5b6020908102919091010152610efa836001612037565b92505b600101610e5b565b509250505090565b60075481565b6001600160a01b0381166000908152600f602090815260408083203384529091529020545b919050565b610f456119a9565b6001600160a01b0316610f56611150565b6001600160a01b031614610f9f576040805162461bcd60e51b81526020600482018190526024820152600080516020613611833981519152604482015290519081900360640190fd5b600080546040516001600160a01b03909116907f8be0079c531659141344cd1fd0a4f28419497f9722a3daafe3b4186f6b6457e0908390a3600080546001600160a01b0319169055565b6000610ff36119a9565b6001600160a01b0316611004611150565b6001600160a01b03161461104d576040805162461bcd60e51b81526020600482018190526024820152600080516020613611833981519152604482015290519081900360640190fd5b6001600160a01b038516156110745760405162461bcd60e51b81526004016105389061304b565b6001546001600160a01b031684156110c657600061109c856110968887612158565b90612158565b6001549091506110c0906001600160a01b031660006110bb8489612037565b6119ad565b506110cf565b846110cf575060005b6110d98184611a90565b50600195945050505050565b604051632a42068d60e11b81526001600160a01b038616906354840d1a906111179087908790879087906004016134a3565b600060405180830381600087803b15801561113157600080fd5b505af1158015611145573d6000803e3d6000fd5b505050505050505050565b6000546001600160a01b031690565b604051633d59840d60e21b81526001600160a01b0388169063f56610349061119590899089908990899089908990600401612dc5565b600060405180830381600087803b1580156111af57600080fd5b505af11580156111c3573d6000803e3d6000fd5b5050505050505050505050565b60036020526000908152604090205460ff1681565b60006111ef6119a9565b6001600160a01b0316611200611150565b6001600160a01b031614611249576040805162461bcd60e51b81526020600482018190526024820152600080516020613611833981519152604482015290519081900360640190fd5b6001600160a01b03861660009081526003602052604090205460ff166112815760405162461bcd60e51b81526004016105389061315d565b6001600160a01b0386166112a75760405162461bcd60e51b815260040161053890613281565b600084156112cd576001546112c8906000906001600160a01b0316876119ad565b6112e0565b846112e057506001546001600160a01b03165b6002546001600160a01b038881169116141561130457506002546001600160a01b03165b61130e8185611a90565b61131783611be4565b60005b86518110156105e2576113638888838151811061133357fe5b602002602001015160001c89848151811061134a57fe5b602002602001015160a01c6001600160601b0316611c33565b60010161131a565b600454640100000000900460ff1681565b60006113866119a9565b6001600160a01b0316611397611150565b6001600160a01b0316146113e0576040805162461bcd60e51b81526020600482018190526024820152600080516020613611833981519152604482015290519081900360640190fd5b6113e982611615565b156114065760405162461bcd60e51b8152600401610538906130e5565b60408051808201909152601d81527f42544320666c6f617420616d6f756e7420696e73756666696369656e7400000060208083019190915260008052600a90527f13da86008ba1c6922daee3e07db95305ef49ebced9f5467a0b8613fcc6b343e354611473918590612450565b60008052600a6020527f13da86008ba1c6922daee3e07db95305ef49ebced9f5467a0b8613fcc6b343e3556114a7826124e7565b50600192915050565b60006114ba6119a9565b6001600160a01b03166114cb611150565b6001600160a01b031614611514576040805162461bcd60e51b81526020600482018190526024820152600080516020613611833981519152604482015290519081900360640190fd5b6001600160a01b03861660009081526003602052604090205460ff1661154c5760405162461bcd60e51b81526004016105389061315d565b6001600160a01b0386166115725760405162461bcd60e51b815260040161053890613281565b6000831561159857600154611593906000906001600160a01b0316866119ad565b6115ab565b836115ab57506001546001600160a01b03165b6002546001600160a01b03888116911614156115cf57506002546001600160a01b03165b6115d98786612502565b6115e283611be4565b505050506001600160a01b039283166000908152600f602090815260408083209490951682529290925291902055600190565b6000908152600b602052604090205460ff1690565b60008061164460065460055461203790919063ffffffff16565b9050600081116116665760405162461bcd60e51b815260040161053890612f6b565b6060611670610daf565b90506000805b82518110156116bb576116b183828151811061168e57fe5b602002602001015160a01c6001600160601b03168361203790919063ffffffff16565b9150600101611676565b506002546005546040516340c10f1960e01b81526001600160a01b03909216916340c10f19916116f091309190600401612d5f565b602060405180830381600087803b15801561170a57600080fd5b505af115801561171e573d6000803e3d6000fd5b505050506040513d601f19601f820116820180604052508101906117429190612be5565b5060005b825181101561182b5760025483516001600160a01b039091169063a9059cbb9085908490811061177257fe5b602002602001015160001c6117b38561088288878151811061179057fe5b602002602001015160a01c6001600160601b03168a61209890919063ffffffff16565b6040518363ffffffff1660e01b81526004016117d0929190612d5f565b602060405180830381600087803b1580156117ea57600080fd5b505af11580156117fe573d6000803e3d6000fd5b505050506040513d601f19601f820116820180604052508101906118229190612be5565b50600101611746565b507f86dd6ae252e62228b47b3c1a12762cbf634952b2d29319b04f4f72fb153bcbdd8360405161185b919061348c565b60405180910390a1505060006005819055600655506001905090565b6001600160a01b039182166000908152600a60205260408082205492909316815291909120549091565b6118a96119a9565b6001600160a01b03166118ba611150565b6001600160a01b031614611903576040805162461bcd60e51b81526020600482018190526024820152600080516020613611833981519152604482015290519081900360640190fd5b6001600160a01b0381166119485760405162461bcd60e51b81526004018080602001828103825260268152602001806135ca6026913960400191505060405180910390fd5b600080546040516001600160a01b03808516939216917f8be0079c531659141344cd1fd0a4f28419497f9722a3daafe3b4186f6b6457e091a3600080546001600160a01b0319166001600160a01b0392909216919091179055565b60065481565b3390565b60408051808201825260208082527f5f737761703a20666c6f617420616d6f756e7420696e73756666696369656e74818301526001600160a01b0385166000908152600a9091529190912054611a04918390612450565b6001600160a01b038084166000908152600a60205260408082209390935590851681522054611a339082612037565b6001600160a01b0384166000908152600a60205260409081902091909155517fea368a40e9570069bb8e6511d668293ad2e1f03b0d982431fd223de9f3b70ca690611a8390859085908590612da1565b60405180910390a1505050565b80611a9a57611be0565b6002546001600160a01b0383811691161415611b0457600654611abd9082612037565b6006556040517fe3debe835f6848edc082b32a1d729781d3bfcd7e14422d80bcaa6794d3816b2f90611af790849084906000908190612e05565b60405180910390a1611be0565b6000611b0e6107a1565b6001600160a01b0384166000908152600a6020526040902054909150611b349083612037565b6001600160a01b0384166000908152600a6020526040812091909155600454611b6e9060649061088290869062010000900460ff16612098565b90506000611b8b836108826009548561209890919063ffffffff16565b600554909150611b9b9082612037565b6005556040517fe3debe835f6848edc082b32a1d729781d3bfcd7e14422d80bcaa6794d3816b2f90611bd4908790879085908890612e05565b60405180910390a15050505b5050565b60005b8151811015611be0576001600b6000848481518110611c0257fe5b6020908102919091018101518252810191909152604001600020805460ff1916911515919091179055600101611be7565b6001546001600160a01b0384811691161415611c5a57600854611c57908290612098565b90505b60405163a9059cbb60e01b81526001600160a01b0384169063a9059cbb90611c889085908590600401612d5f565b602060405180830381600087803b158015611ca257600080fd5b505af1158015611cb6573d6000803e3d6000fd5b505050506040513d601f19601f82011682018060405250810190611cda9190612be5565b610c7257600080fd5b6000611cee82611615565b15611d0b5760405162461bcd60e51b8152600401610538906130e5565b83611d285760405162461bcd60e51b815260040161053890613194565b600080611d34866121b5565b915091506000611d426107a1565b90506000611d5f600954610882848661209890919063ffffffff16565b600454909150600090611d869061271090610882908590640100000000900460ff16612098565b905087611d938383612158565b1015611db15760405162461bcd60e51b815260040161053890612fb0565b6000611dc1896110968585612158565b6001549091506000908190611de09082906001600160a01b0316611877565b90925090506001600160a01b038d16611e2157611dfd8585612158565b821015611e1c5760405162461bcd60e51b815260040161053890612f34565b611e60565b6001546001600160a01b038e811691161415611e6057611e418585612158565b811015611e605760405162461bcd60e51b815260040161053890612f34565b611e6a8d85611a90565b611e748d86612502565b611e7d8a6124e7565b6001546001600160a01b038e811691161415611e9e57611e9e8d8985611c33565b600254604051630852cd8d60e31b81526001600160a01b03909116906342966c6890611ece908a9060040161348c565b602060405180830381600087803b158015611ee857600080fd5b505af1158015611efc573d6000803e3d6000fd5b505050506040513d601f19601f82011682018060405250810190611f209190612be5565b611f2957600080fd5b7fa9da34e5e4a956b744307ae7611795634e8365951073bf049d76b64b2ae7a05888888789878f604051611f6296959493929190612e2b565b60405180910390a15060019c9b505050505050505050505050565b60015460009081908190611f9b9082906001600160a01b0316611877565b90925090506000611fc06003610882600261087c89611fba8989612037565b90612037565b6001549091506001600160a01b038781169116148015611fe9575080611fe68387612037565b10155b15611ffa57600193505050506109a3565b6001600160a01b03861615801561201a5750806120178487612037565b10155b1561202b57600293505050506109a3565b50600095945050505050565b600082820183811015612091576040805162461bcd60e51b815260206004820152601b60248201527f536166654d6174683a206164646974696f6e206f766572666c6f770000000000604482015290519081900360640190fd5b9392505050565b6000826120a7575060006109a3565b828202828482816120b457fe5b04146120915760405162461bcd60e51b81526004018080602001828103825260218152602001806135f06021913960400191505060405180910390fd5b6000808211612147576040805162461bcd60e51b815260206004820152601a60248201527f536166654d6174683a206469766973696f6e206279207a65726f000000000000604482015290519081900360640190fd5b81838161215057fe5b049392505050565b6000828211156121af576040805162461bcd60e51b815260206004820152601e60248201527f536166654d6174683a207375627472616374696f6e206f766572666c6f770000604482015290519081900360640190fd5b50900390565b9060a082901c90565b600081156121e757506001600160a01b0383166000908152600c60205260408120556001612091565b6001600160a01b0384166000908152600d602052604090205460ff1661226b57600e805460018082019092557fbb7b4a454dc3493923482f07822329ed19e8244eff582cc204f8554c3620c3fd0180546001600160a01b0319166001600160a01b0387169081179091556000908152600d60205260409020805460ff191690911790555b50506001600160a01b03919091166000908152600c6020526040902055600190565b600061229882611615565b156122b55760405162461bcd60e51b8152600401610538906130e5565b836122d25760405162461bcd60e51b815260040161053890613194565b6000806122de866121b5565b9150915060006122ec6107a1565b90506000612309826108826009548661209890919063ffffffff16565b905060006123178a85610705565b9050600081612327576000612337565b6123376127106108828585612098565b905088801561234557508015155b1561234f57600080fd5b6002546001600160a01b03166340c10f198761236b8685612158565b6040518363ffffffff1660e01b8152600401612388929190612d5f565b602060405180830381600087803b1580156123a257600080fd5b505af11580156123b6573d6000803e3d6000fd5b505050506040513d601f19601f820116820180604052508101906123da9190612be5565b506005546123e89082612037565b6005556123f58b8661255f565b6123fe886124e7565b7fdfaf4e23f7030adafec91a682e05bf9fb30c721f9cec3d8bcfae0459c5362db186868587858d60405161243796959493929190612e2b565b60405180910390a15060019a9950505050505050505050565b600081848411156124df5760405162461bcd60e51b81526004018080602001828103825283818151815260200191508051906020019080838360005b838110156124a457818101518382015260200161248c565b50505050905090810190601f1680156124d15780820380516001836020036101000a031916815260200191505b509250505060405180910390fd5b505050900390565b6000908152600b60205260409020805460ff19166001179055565b61253f81604051806060016040528060278152602001613631602791396001600160a01b0385166000908152600a60205260409020549190612450565b6001600160a01b039092166000908152600a602052604090209190915550565b6001600160a01b0382166000908152600a602052604090205461253f9082612037565b8035610f38816135a6565b60008083601f84011261259e578182fd5b5081356001600160401b038111156125b4578182fd5b60208301915083602080830285010111156125ce57600080fd5b9250929050565b600082601f8301126125e5578081fd5b81356125f86125f3826134fe565b6134db565b81815291506020808301908481018184028601820187101561261957600080fd5b60005b848110156126385781358452928201929082019060010161261c565b505050505092915050565b80356001600160801b031981168114610f3857600080fd5b803560ff81168114610f3857600080fd5b60006020828403121561267d578081fd5b8135612091816135a6565b6000806040838503121561269a578081fd5b82356126a5816135a6565b915060208301356126b5816135a6565b809150509250929050565b600080600080600080600060c0888a0312156126da578283fd5b87356126e5816135a6565b965060208801356126f5816135a6565b955060408801359450606088013593506080880135925060a08801356001600160401b03811115612724578283fd5b6127308a828b0161258d565b989b979a50959850939692959293505050565b600080600080600060a0868803121561275a578081fd5b8535612765816135a6565b94506020860135612775816135a6565b9350604086013592506060860135915060808601356001600160401b0381111561279d578182fd5b6127a9888289016125d5565b9150509295509295909350565b60008060008060008060c087890312156127ce578182fd5b86356127d9816135a6565b955060208701356127e9816135a6565b945060408701359350606087013592506080870135915060a08701356001600160401b03811115612818578182fd5b61282489828a016125d5565b9150509295509295509295565b600080600080600080600060e0888a03121561284b578081fd5b8735612856816135a6565b96506020888101356001600160401b0380821115612872578384fd5b61287e8c838d016125d5565b985060408b0135915080821115612893578384fd5b508901601f81018b136128a4578283fd5b80356128b26125f3826134fe565b81815283810190838501858402850186018f10156128ce578687fd5b8694505b838510156128f95780356128e5816135bb565b8352600194909401939185019185016128d2565b50809950505050505061290e6060890161265b565b935061291c6080890161265b565b925061292a60a0890161265b565b915061293860c0890161265b565b905092959891949750929550565b600080600080600060a0868803121561295d578283fd5b8535612968816135a6565b945060208601356001600160401b0380821115612983578485fd5b61298f89838a016125d5565b9550604088013594506060880135935060808801359150808211156129b2578283fd5b506127a9888289016125d5565b600080600080608085870312156129d4578182fd5b84356129df816135a6565b93506020850135925060408501356129f6816135bb565b9396929550929360600135925050565b60008060008060808587031215612a1b578182fd5b8435612a26816135a6565b966020860135965060408601359560600135945092505050565b60008060008060008060008060e0898b031215612a5b578182fd5b8835612a66816135a6565b97506020890135612a76816135a6565b96506040890135612a86816135a6565b9550606089013594506080890135935060a0890135612aa4816135a6565b925060c08901356001600160401b0380821115612abf578384fd5b818b0191508b601f830112612ad2578384fd5b813581811115612ae0578485fd5b8c6020828501011115612af1578485fd5b6020830194508093505050509295985092959890939650565b60008060408385031215612b1c578182fd5b8235612b27816135a6565b915060208301356001600160401b03811115612b41578182fd5b83016101e081860312156126b5578182fd5b60008060408385031215612b65578182fd5b8235612b70816135a6565b946020939093013593505050565b600080600080600060808688031215612b95578283fd5b8535612ba0816135a6565b9450602086013593506040860135925060608601356001600160401b03811115612bc8578182fd5b612bd48882890161258d565b969995985093965092949392505050565b600060208284031215612bf6578081fd5b8151612091816135bb565b600060208284031215612c12578081fd5b5035919050565b600060208284031215612c2a578081fd5b81356001600160401b03811115612c3f578182fd5b82016101608185031215612091578182fd5b600060208284031215612c62578081fd5b5051919050565b60008060408385031215612c7b578182fd5b50508035926020909101359150565b6001600160a01b03169052565b60008284526020808501945082825b85811015612cd4578135612cb9816135a6565b6001600160a01b031687529582019590820190600101612ca6565b509495945050505050565b81835260006001600160fb1b03831115612cf7578081fd5b6020830280836020870137939093016020019283525090919050565b6001600160801b0319169052565b60008284528282602086013780602084860101526020601f19601f85011685010190509392505050565b6001600160a01b0391909116815260200190565b6001600160a01b03929092168252602082015260400190565b6001600160a01b0394851681529290931660208301526040820152606081019190915260800190565b6001600160a01b039384168152919092166020820152604081019190915260600190565b600060018060a01b038816825286602083015285604083015284606083015260a06080830152612df960a083018486612c97565b98975050505050505050565b6001600160a01b0394909416845260208401929092526040830152606082015260800190565b6001600160a01b03969096168652602086019490945260408501929092526060840152608083015260a082015260c00190565b6020808252825182820181905260009190848201906040850190845b81811015612e9657835183529284019291840191600101612e7a565b50909695505050505050565b901515815260200190565b6001600160a01b038881168252878116602083015260408201879052606082018690528416608082015260c060a08201819052600090612ef09083018486612d21565b9998505050505050505050565b6020808252601e908201527f5f6e6f646552657761726473526174696f206973206e6f742076616c69640000604082015260600190565b6020808252601f908201527f54686520666c6f61742062616c616e636520696e73756666696369656e742e00604082015260600190565b60208082526025908201527f746f74616c5265776172644c5073466f724e6f6465206973206e6f7420706f73604082015264697469766560d81b606082015260800190565b60208082526034908201527f4572726f723a20616d6f756e744f66466c6f61742e737562287769746864726160408201527377616c4665657329203c205f6d696e657246656560601b606082015260800190565b60208082526027908201527f5f7473735468726573686f6c642073686f756c64206265203e3d2074737354686040820152661c995cda1bdb1960ca1b606082015260800190565b6020808252601f908201527f5f64657374546f6b656e2073686f756c64206265206164647265737328302900604082015260600190565b6020808252601c908201527f5f7769746864726177616c46656542505320697320696e76616c696400000000604082015260600190565b6020808252601290820152716e2073686f756c64206265203e3d20742b3160701b604082015260600190565b60208082526018908201527f546865207478696420697320616c726561647920757365640000000000000000604082015260600190565b60208082526021908201527f53746f726564206e6f64652073697a652073686f756c64206265203c3d2031306040820152600360fc1b606082015260800190565b6020808252601d908201527f5f64657374546f6b656e206973206e6f742077686974656c6973746564000000604082015260600190565b6020808252601c908201527f546865207472616e73616374696f6e206973206e6f742076616c696400000000604082015260600190565b6020808252603b908201527f5f72657761726441646472657373416e64416d6f756e747320616e64205f697360408201527f52656d6f766564206c656e677468206973206e6f74206d617463680000000000606082015260800190565b602080825260149082015273496e73756666696369656e742042616c616e636560601b604082015260600190565b60208082526011908201527017dd1bdad95b881a5cc81a5b9d985b1a59607a1b604082015260600190565b60208082526023908201527f5f64657374546f6b656e2073686f756c64206e6f74206265206164647265737360408201526228302960e81b606082015260800190565b602080825260119082015270496e76616c6964204c505420707269636560781b604082015260600190565b60006020825261330a6020830161330585612582565b612c8a565b61331660208401612582565b6133236040840182612c8a565b506040830135606083015260608301356080830152608083013560a083015261334f60a084018461351b565b6101e08060c086015261336761020086018385612c97565b925061337660c0870187613562565b9250601f19808786030160e0880152613390858584612d21565b945061339f60e089018961351b565b945091506101008188870301818901526133ba868685612cdf565b95506133c8818a018a61351b565b95509250506101208188870301818901526133e4868685612cdf565b95506133f1818a01612582565b945050610140915061340582880185612c8a565b613410828901612582565b9350610160915061342382880185612c8a565b6101809350818801358488015261343c84890189613562565b945091506101a0818887030181890152613457868685612d21565b95506101c094508089013585890152505050613474828701612643565b915061348281860183612d13565b5090949350505050565b90815260200190565b918252602082015260400190565b6000858252846020830152606060408301526134c3606083018486612c97565b9695505050505050565b60ff91909116815260200190565b6040518181016001600160401b03811182821017156134f657fe5b604052919050565b60006001600160401b0382111561351157fe5b5060209081020190565b6000808335601e19843603018112613531578283fd5b83016020810192503590506001600160401b0381111561355057600080fd5b6020810236038313156125ce57600080fd5b6000808335601e19843603018112613578578283fd5b83016020810192503590506001600160401b0381111561359757600080fd5b8036038313156125ce57600080fd5b6001600160a01b038116811461048a57600080fd5b801515811461048a57600080fdfe4f776e61626c653a206e6577206f776e657220697320746865207a65726f2061646472657373536166654d6174683a206d756c7469706c69636174696f6e206f766572666c6f774f776e61626c653a2063616c6c6572206973206e6f7420746865206f776e65725f72656d6f7665466c6f61743a20666c6f617420616d6f756e7420696e73756666696369656e74a2646970667358221220b74ecbbc535fb13f607acfe029335383e85bef48509a90c468bb5a426a14692f64736f6c63430007050033",
  "linkReferences": {},
  "deployedLinkReferences": {}
}