{
  "_format": "hh-sol-artifact-1",
  "contractName": "SwapContract",
  "sourceName": "contracts/SwapContract.sol",
  "abi": [
    {
      "inputs": [
        {
          "internalType": "address",
          "name": "_lpToken",
          "type": "address"
        },
        {
          "internalType": "address",
          "name": "_btct",
          "type": "address"
        },
        {
          "internalType": "uint256",
          "name": "_existingBTCFloat",
          "type": "uint256"
        }
      ],
      "stateMutability": "nonpayable",
      "type": "constructor"
    },
    {
      "anonymous": false,
      "inputs": [
        {
          "indexed": false,
          "internalType": "address",
          "name": "token",
          "type": "address"
        },
        {
          "indexed": false,
          "internalType": "uint256",
          "name": "amountOfLP",
          "type": "uint256"
        },
        {
          "indexed": false,
          "internalType": "uint256",
          "name": "amountOfFloat",
          "type": "uint256"
        },
        {
          "indexed": false,
          "internalType": "uint256",
          "name": "currentPriceLP",
          "type": "uint256"
        },
        {
          "indexed": false,
          "internalType": "uint256",
          "name": "withdrawal",
          "type": "uint256"
        },
        {
          "indexed": false,
          "internalType": "bytes32",
          "name": "txid",
          "type": "bytes32"
        }
      ],
      "name": "BurnLPTokensForFloat",
      "type": "event"
    },
    {
      "anonymous": false,
      "inputs": [
        {
          "indexed": false,
          "internalType": "uint256",
          "name": "rewardLPTsForNodes",
          "type": "uint256"
        }
      ],
      "name": "DistributeNodeRewards",
      "type": "event"
    },
    {
      "anonymous": false,
      "inputs": [
        {
          "indexed": false,
          "internalType": "address",
          "name": "to",
          "type": "address"
        },
        {
          "indexed": false,
          "internalType": "uint256",
          "name": "amountOfFloat",
          "type": "uint256"
        },
        {
          "indexed": false,
          "internalType": "uint256",
          "name": "amountOfLP",
          "type": "uint256"
        },
        {
          "indexed": false,
          "internalType": "uint256",
          "name": "currentPriceLP",
          "type": "uint256"
        },
        {
          "indexed": false,
          "internalType": "uint256",
          "name": "depositFees",
          "type": "uint256"
        },
        {
          "indexed": false,
          "internalType": "bytes32",
          "name": "txid",
          "type": "bytes32"
        }
      ],
      "name": "IssueLPTokensForFloat",
      "type": "event"
    },
    {
      "anonymous": false,
      "inputs": [
        {
          "indexed": true,
          "internalType": "address",
          "name": "previousOwner",
          "type": "address"
        },
        {
          "indexed": true,
          "internalType": "address",
          "name": "newOwner",
          "type": "address"
        }
      ],
      "name": "OwnershipTransferred",
      "type": "event"
    },
    {
      "anonymous": false,
      "inputs": [
        {
          "indexed": false,
          "internalType": "address",
          "name": "feesToken",
          "type": "address"
        },
        {
          "indexed": false,
          "internalType": "uint256",
          "name": "rewards",
          "type": "uint256"
        },
        {
          "indexed": false,
          "internalType": "uint256",
          "name": "amountLPTokensForNode",
          "type": "uint256"
        },
        {
          "indexed": false,
          "internalType": "uint256",
          "name": "currentPriceLP",
          "type": "uint256"
        }
      ],
      "name": "RewardsCollection",
      "type": "event"
    },
    {
      "anonymous": false,
      "inputs": [
        {
          "indexed": false,
          "internalType": "address",
          "name": "from",
          "type": "address"
        },
        {
          "indexed": false,
          "internalType": "address",
          "name": "to",
          "type": "address"
        },
        {
          "indexed": false,
          "internalType": "uint256",
          "name": "amount",
          "type": "uint256"
        }
      ],
      "name": "Swap",
      "type": "event"
    },
    {
      "stateMutability": "nonpayable",
      "type": "fallback"
    },
    {
      "inputs": [],
      "name": "BTCT_ADDR",
      "outputs": [
        {
          "internalType": "address",
          "name": "",
          "type": "address"
        }
      ],
      "stateMutability": "view",
      "type": "function"
    },
    {
      "inputs": [
        {
          "internalType": "address",
          "name": "_newOwner",
          "type": "address"
        },
        {
          "internalType": "bytes32[]",
          "name": "_rewardAddressAndAmounts",
          "type": "bytes32[]"
        },
        {
          "internalType": "bool[]",
          "name": "_isRemoved",
          "type": "bool[]"
        },
        {
          "internalType": "uint8",
          "name": "_churnedInCount",
          "type": "uint8"
        },
        {
          "internalType": "uint8",
          "name": "_tssThreshold",
          "type": "uint8"
        },
        {
          "internalType": "uint8",
          "name": "_nodeRewardsRatio",
          "type": "uint8"
        },
        {
          "internalType": "uint8",
          "name": "_withdrawalFeeBPS",
          "type": "uint8"
        }
      ],
      "name": "churn",
      "outputs": [
        {
          "internalType": "bool",
          "name": "",
          "type": "bool"
        }
      ],
      "stateMutability": "nonpayable",
      "type": "function"
    },
    {
      "inputs": [],
      "name": "churnedInCount",
      "outputs": [
        {
          "internalType": "uint8",
          "name": "",
          "type": "uint8"
        }
      ],
      "stateMutability": "view",
      "type": "function"
    },
    {
      "inputs": [
        {
          "internalType": "address",
          "name": "_destToken",
          "type": "address"
        },
        {
          "internalType": "uint256",
          "name": "_incomingAmount",
          "type": "uint256"
        },
        {
          "internalType": "uint256",
          "name": "_minerFee",
          "type": "uint256"
        },
        {
          "internalType": "uint256",
          "name": "_rewardsAmount",
          "type": "uint256"
        }
      ],
      "name": "collectSwapFeesForBTC",
      "outputs": [
        {
          "internalType": "bool",
          "name": "",
          "type": "bool"
        }
      ],
      "stateMutability": "nonpayable",
      "type": "function"
    },
    {
      "inputs": [],
      "name": "depositFeesBPS",
      "outputs": [
        {
          "internalType": "uint8",
          "name": "",
          "type": "uint8"
        }
      ],
      "stateMutability": "view",
      "type": "function"
    },
    {
      "inputs": [],
      "name": "distributeNodeRewards",
      "outputs": [
        {
          "internalType": "bool",
          "name": "",
          "type": "bool"
        }
      ],
      "stateMutability": "nonpayable",
      "type": "function"
    },
    {
      "inputs": [],
      "name": "feesLPTokensForNode",
      "outputs": [
        {
          "internalType": "uint256",
          "name": "",
          "type": "uint256"
        }
      ],
      "stateMutability": "view",
      "type": "function"
    },
    {
      "inputs": [],
      "name": "getActiveNodes",
      "outputs": [
        {
          "internalType": "bytes32[]",
          "name": "",
          "type": "bytes32[]"
        }
      ],
      "stateMutability": "view",
      "type": "function"
    },
    {
      "inputs": [],
      "name": "getCurrentPriceLP",
      "outputs": [
        {
          "internalType": "uint256",
          "name": "nowPrice",
          "type": "uint256"
        }
      ],
      "stateMutability": "view",
      "type": "function"
    },
    {
      "inputs": [
        {
          "internalType": "address",
          "name": "_token",
          "type": "address"
        },
        {
          "internalType": "uint256",
          "name": "_amountOfFloat",
          "type": "uint256"
        }
      ],
      "name": "getDepositFeeRate",
      "outputs": [
        {
          "internalType": "uint256",
          "name": "depositFeeRate",
          "type": "uint256"
        }
      ],
      "stateMutability": "view",
      "type": "function"
    },
    {
      "inputs": [
        {
          "internalType": "address",
          "name": "_tokenA",
          "type": "address"
        },
        {
          "internalType": "address",
          "name": "_tokenB",
          "type": "address"
        }
      ],
      "name": "getFloatReserve",
      "outputs": [
        {
          "internalType": "uint256",
          "name": "reserveA",
          "type": "uint256"
        },
        {
          "internalType": "uint256",
          "name": "reserveB",
          "type": "uint256"
        }
      ],
      "stateMutability": "view",
      "type": "function"
    },
    {
      "inputs": [],
      "name": "initialExchangeRate",
      "outputs": [
        {
          "internalType": "uint256",
          "name": "",
          "type": "uint256"
        }
      ],
      "stateMutability": "view",
      "type": "function"
    },
    {
      "inputs": [
        {
          "internalType": "bytes32",
          "name": "_txid",
          "type": "bytes32"
        }
      ],
      "name": "isTxUsed",
      "outputs": [
        {
          "internalType": "bool",
          "name": "",
          "type": "bool"
        }
      ],
      "stateMutability": "view",
      "type": "function"
    },
    {
      "inputs": [],
      "name": "lockedLPTokensForNode",
      "outputs": [
        {
          "internalType": "uint256",
          "name": "",
          "type": "uint256"
        }
      ],
      "stateMutability": "view",
      "type": "function"
    },
    {
      "inputs": [],
      "name": "lpToken",
      "outputs": [
        {
          "internalType": "address",
          "name": "",
          "type": "address"
        }
      ],
      "stateMutability": "view",
      "type": "function"
    },
    {
      "inputs": [
        {
          "internalType": "address",
          "name": "_destToken",
          "type": "address"
        },
        {
          "internalType": "bytes32[]",
          "name": "_addressesAndAmounts",
          "type": "bytes32[]"
        },
        {
          "internalType": "uint256",
          "name": "_totalSwapped",
          "type": "uint256"
        },
        {
          "internalType": "uint256",
          "name": "_rewardsAmount",
          "type": "uint256"
        },
        {
          "internalType": "bytes32[]",
          "name": "_redeemedFloatTxIds",
          "type": "bytes32[]"
        }
      ],
      "name": "multiTransferERC20TightlyPacked",
      "outputs": [
        {
          "internalType": "bool",
          "name": "",
          "type": "bool"
        }
      ],
      "stateMutability": "nonpayable",
      "type": "function"
    },
    {
      "inputs": [],
      "name": "nodeRewardsRatio",
      "outputs": [
        {
          "internalType": "uint8",
          "name": "",
          "type": "uint8"
        }
      ],
      "stateMutability": "view",
      "type": "function"
    },
    {
      "inputs": [],
      "name": "owner",
      "outputs": [
        {
          "internalType": "address",
          "name": "",
          "type": "address"
        }
      ],
      "stateMutability": "view",
      "type": "function"
    },
    {
      "inputs": [
        {
          "internalType": "address",
          "name": "_token",
          "type": "address"
        },
        {
          "internalType": "bytes32",
          "name": "_addressesAndAmountOfFloat",
          "type": "bytes32"
        },
        {
          "internalType": "bool",
          "name": "_zerofee",
          "type": "bool"
        },
        {
          "internalType": "bytes32",
          "name": "_txid",
          "type": "bytes32"
        }
      ],
      "name": "recordIncomingFloat",
      "outputs": [
        {
          "internalType": "bool",
          "name": "",
          "type": "bool"
        }
      ],
      "stateMutability": "nonpayable",
      "type": "function"
    },
    {
      "inputs": [
        {
          "internalType": "address",
          "name": "_token",
          "type": "address"
        },
        {
          "internalType": "bytes32",
          "name": "_addressesAndAmountOfLPtoken",
          "type": "bytes32"
        },
        {
          "internalType": "uint256",
          "name": "_minerFee",
          "type": "uint256"
        },
        {
          "internalType": "bytes32",
          "name": "_txid",
          "type": "bytes32"
        }
      ],
      "name": "recordOutcomingFloat",
      "outputs": [
        {
          "internalType": "bool",
          "name": "",
          "type": "bool"
        }
      ],
      "stateMutability": "nonpayable",
      "type": "function"
    },
    {
      "inputs": [
        {
          "internalType": "uint256",
          "name": "_minerFee",
          "type": "uint256"
        },
        {
          "internalType": "bytes32",
          "name": "_txid",
          "type": "bytes32"
        }
      ],
      "name": "recordUTXOSweepMinerFee",
      "outputs": [
        {
          "internalType": "bool",
          "name": "",
          "type": "bool"
        }
      ],
      "stateMutability": "nonpayable",
      "type": "function"
    },
    {
      "inputs": [],
      "name": "renounceOwnership",
      "outputs": [],
      "stateMutability": "nonpayable",
      "type": "function"
    },
    {
      "inputs": [
        {
          "internalType": "address",
          "name": "_destToken",
          "type": "address"
        },
        {
          "internalType": "address",
          "name": "_to",
          "type": "address"
        },
        {
          "internalType": "uint256",
          "name": "_amount",
          "type": "uint256"
        },
        {
          "internalType": "uint256",
          "name": "_totalSwapped",
          "type": "uint256"
        },
        {
          "internalType": "uint256",
          "name": "_rewardsAmount",
          "type": "uint256"
        },
        {
          "internalType": "bytes32[]",
          "name": "_redeemedFloatTxIds",
          "type": "bytes32[]"
        }
      ],
      "name": "singleTransferERC20",
      "outputs": [
        {
          "internalType": "bool",
          "name": "",
          "type": "bool"
        }
      ],
      "stateMutability": "nonpayable",
      "type": "function"
    },
    {
      "inputs": [
        {
          "internalType": "address",
          "name": "newOwner",
          "type": "address"
        }
      ],
      "name": "transferOwnership",
      "outputs": [],
      "stateMutability": "nonpayable",
      "type": "function"
    },
    {
      "inputs": [],
      "name": "tssThreshold",
      "outputs": [
        {
          "internalType": "uint8",
          "name": "",
          "type": "uint8"
        }
      ],
      "stateMutability": "view",
      "type": "function"
    },
    {
      "inputs": [
        {
          "internalType": "address",
          "name": "",
          "type": "address"
        }
      ],
      "name": "whitelist",
      "outputs": [
        {
          "internalType": "bool",
          "name": "",
          "type": "bool"
        }
      ],
      "stateMutability": "view",
      "type": "function"
    },
    {
      "inputs": [],
      "name": "withdrawalFeeBPS",
      "outputs": [
        {
          "internalType": "uint8",
          "name": "",
          "type": "uint8"
        }
      ],
      "stateMutability": "view",
      "type": "function"
    }
  ],
  "bytecode": "0x60806040523480156200001157600080fd5b5060405162002d0738038062002d07833981810160405260608110156200003757600080fd5b508051602082015160409092015190919060006200005462000296565b600080546001600160a01b0319166001600160a01b0383169081178255604051929350917f8be0079c531659141344cd1fd0a4f28419497f9722a3daafe3b4186f6b6457e0908290a350600280546001600160a01b0319166001600160a01b0385811691909117918290556040805163313ce56760e01b81529051929091169163313ce56791600480820192602092909190829003018186803b158015620000fb57600080fd5b505afa15801562000110573d6000803e3d6000fd5b505050506040513d60208110156200012757600080fd5b505160ff16600a0a600955600180546001600160a01b0319166001600160a01b0384169081179091556004805462ff00001916624200001763ff000000191663320000001760ff60201b19166414000000001781556040805163313ce56760e01b815290516008939263313ce56792808201926020929091829003018186803b158015620001b457600080fd5b505afa158015620001c9573d6000803e3d6000fd5b505050506040513d6020811015620001e057600080fd5b50510360ff16600a90810a600855600954600755600060058190556006819055600180546001600160a01b039081168352600360209081526040808520805460ff1990811686179091556002549093168552842080548316841790559280527f3617319a054d772f909f7c479a2cebe5066e836a939412e32403c99029b92eff80549091169091179055527f13da86008ba1c6922daee3e07db95305ef49ebced9f5467a0b8613fcc6b343e355506200029a9050565b3390565b612a5d80620002aa6000396000f3fe608060405234801561001057600080fd5b50600436106101a85760003560e01c80636b51e919116100f9578063b6268e5d11610097578063e9e9bf6a11610071578063e9e9bf6a14610755578063ec4827291461075d578063f2fde38b146107a4578063f7824bc7146107ca576101a8565b8063b6268e5d1461070d578063c810a53914610715578063e6ca208414610738576101a8565b80638006cc3e116100d35780638006cc3e146105685780638da5cb5b146105a05780639b19251a146105a8578063ad289e76146105ce576101a8565b80636b51e919146104fe5780636d019f3514610556578063715018a61461055e576101a8565b80632d55282d1161016657806345137e271161014057806345137e27146103665780634e54cee01461036e5780635fcbd285146104bc57806363f289d9146104c4576101a8565b80632d55282d146103185780633b6fa12714610332578063424192551461035e576101a8565b806289356f146101ad5780630b68134d146101cb5780630d63aca7146101d35780630f909486146102b457806312d1441e146102d85780632586c562146102e0575b600080fd5b6101b56107d2565b6040805160ff9092168252519081900360200190f35b6101b56107db565b6102a0600480360360c08110156101e957600080fd5b6001600160a01b0382358116926020810135909116916040820135916060810135916080820135919081019060c0810160a0820135600160201b81111561022f57600080fd5b82018360208201111561024157600080fd5b803590602001918460208302840111600160201b8311171561026257600080fd5b9190808060200260200160405190810160405280939291908181526020018383602002808284376000920191909152509295506107ea945050505050565b604080519115158252519081900360200190f35b6102bc610989565b604080516001600160a01b039092168252519081900360200190f35b6101b5610998565b6102a0600480360360808110156102f657600080fd5b506001600160a01b0381351690602081013590604081013590606001356109a6565b610320610aea565b60408051918252519081900360200190f35b6103206004803603604081101561034857600080fd5b506001600160a01b038135169060200135610af0565b6101b5610b7c565b610320610b8c565b6102a0600480360360e081101561038457600080fd5b6001600160a01b038235169190810190604081016020820135600160201b8111156103ae57600080fd5b8201836020820111156103c057600080fd5b803590602001918460208302840111600160201b831117156103e157600080fd5b9190808060200260200160405190810160405280939291908181526020018383602002808284376000920191909152509295949360208101935035915050600160201b81111561043057600080fd5b82018360208201111561044257600080fd5b803590602001918460208302840111600160201b8311171561046357600080fd5b9190808060200260200160405190810160405280939291908181526020018383602002808284376000920191909152509295505060ff833581169450602084013581169360408101358216935060600135169050610c78565b6102bc610f96565b6102a0600480360360808110156104da57600080fd5b506001600160a01b0381351690602081013590604081013515159060600135610fa5565b610506611083565b60408051602080825283518183015283519192839290830191858101910280838360005b8381101561054257818101518382015260200161052a565b505050509050019250505060405180910390f35b6103206111e2565b6105666111e8565b005b6102a06004803603608081101561057e57600080fd5b506001600160a01b038135169060208101359060408101359060600135611294565b6102bc6113c5565b6102a0600480360360208110156105be57600080fd5b50356001600160a01b03166113d4565b6102a0600480360360a08110156105e457600080fd5b6001600160a01b038235169190810190604081016020820135600160201b81111561060e57600080fd5b82018360208201111561062057600080fd5b803590602001918460208302840111600160201b8311171561064157600080fd5b9190808060200260200160405190810160405280939291908181526020018383602002808284376000920191909152509295843595602086013595919450925060608101915060400135600160201b81111561069c57600080fd5b8201836020820111156106ae57600080fd5b803590602001918460208302840111600160201b831117156106cf57600080fd5b9190808060200260200160405190810160405280939291908181526020018383602002808284376000920191909152509295506113e9945050505050565b6101b56115c3565b6102a06004803603604081101561072b57600080fd5b50803590602001356115d3565b6102a06004803603602081101561074e57600080fd5b5035611738565b6102a061174d565b61078b6004803603604081101561077357600080fd5b506001600160a01b03813581169160200135166119b4565b6040805192835260208301919091528051918290030190f35b610566600480360360208110156107ba57600080fd5b50356001600160a01b03166119de565b610320611ae0565b60045460ff1681565b60045462010000900460ff1681565b60006107f4611ae6565b6001600160a01b03166108056113c5565b6001600160a01b03161461084e576040805162461bcd60e51b81526020600482018190526024820152600080516020612983833981519152604482015290519081900360640190fd5b6001600160a01b03871660009081526003602052604090205460ff166108bb576040805162461bcd60e51b815260206004820152601d60248201527f5f64657374546f6b656e206973206e6f742077686974656c6973746564000000604482015290519081900360640190fd5b6001600160a01b0387166109005760405162461bcd60e51b8152600401808060200182810382526023815260200180612a056023913960400191505060405180910390fd5b6000841561092657600154610921906000906001600160a01b031687611aea565b610939565b8461093957506001546001600160a01b03165b6002546001600160a01b038981169116141561095d57506002546001600160a01b03165b6109678185611bd6565b61097083611d4d565b61097b888888611d9c565b506001979650505050505050565b6001546001600160a01b031681565b600454610100900460ff1681565b60006109b0611ae6565b6001600160a01b03166109c16113c5565b6001600160a01b031614610a0a576040805162461bcd60e51b81526020600482018190526024820152600080516020612983833981519152604482015290519081900360640190fd5b6000610a14610b8c565b6001600160a01b03871660009081526003602052604090205490915060ff16610a78576040805162461bcd60e51b815260206004820152601160248201527017dd1bdad95b881a5cc81a5b9d985b1a59607a1b604482015290519081900360640190fd5b610a8486868686611e54565b610a8d57600080fd5b6001915080610a9a610b8c565b1015610ae1576040805162461bcd60e51b8152602060048201526011602482015270496e76616c6964204c505420707269636560781b604482015290519081900360640190fd5b50949350505050565b60055481565b600080610afd84846121f0565b90508060ff1660011415610b3f576001546001600160a01b03858116911614610b27576000610b35565b6004546301000000900460ff165b60ff169150610b75565b8060ff1660021415610b75576001600160a01b03841615610b61576000610b6f565b6004546301000000900460ff165b60ff1691505b5092915050565b6004546301000000900460ff1681565b60015460009081908190610baa9082906001600160a01b03166119b4565b915091506000600260009054906101000a90046001600160a01b03166001600160a01b03166318160ddd6040518163ffffffff1660e01b815260040160206040518083038186803b158015610bfe57600080fd5b505afa158015610c12573d6000803e3d6000fd5b505050506040513d6020811015610c2857600080fd5b505190508015610c6c57610c67610c4a600554836122aa90919063ffffffff16565b600954610c6190610c5b87876122aa565b9061230b565b90612364565b610c70565b6007545b935050505090565b6000610c82611ae6565b6001600160a01b0316610c936113c5565b6001600160a01b031614610cdc576040805162461bcd60e51b81526020600482018190526024820152600080516020612983833981519152604482015290519081900360640190fd5b60045460ff610100909104811690851610801590610cfe575060ff8460ff1611155b610d395760405162461bcd60e51b815260040180806020018281038252602781526020018061291a6027913960400191505060405180910390fd5b6001840160ff168560ff161015610d8c576040805162461bcd60e51b81526020600482015260126024820152716e2073686f756c64206265203e3d20742b3160701b604482015290519081900360640190fd5b60648360ff161115610de5576040805162461bcd60e51b815260206004820152601e60248201527f5f6e6f646552657761726473526174696f206973206e6f742076616c69640000604482015290519081900360640190fd5b60648260ff161115610e3e576040805162461bcd60e51b815260206004820152601c60248201527f5f7769746864726177616c46656542505320697320696e76616c696400000000604482015290519081900360640190fd5b8551875114610e7e5760405162461bcd60e51b815260040180806020018281038252603b8152602001806129ca603b913960400191505060405180910390fd5b610e87886119de565b60005b8751811015610eef576000610eb1898381518110610ea457fe5b60200260200101516123cb565b509050610ee5818a8481518110610ec457fe5b60200260200101518a8581518110610ed857fe5b60200260200101516123d4565b5050600101610e8a565b506060610efa611083565b9050606481511115610f3d5760405162461bcd60e51b81526004018080602001828103825260218152602001806129626021913960400191505060405180910390fd5b50506004805460ff191660ff9586161761ff001916610100948616949094029390931762ff0000191662010000928516929092029190911764ff000000001916600160201b919093160291909117905550600192915050565b6002546001600160a01b031681565b6000610faf611ae6565b6001600160a01b0316610fc06113c5565b6001600160a01b031614611009576040805162461bcd60e51b81526020600482018190526024820152600080516020612983833981519152604482015290519081900360640190fd5b6000611013610b8c565b6001600160a01b03871660009081526003602052604090205490915060ff16611077576040805162461bcd60e51b815260206004820152601160248201527017dd1bdad95b881a5cc81a5b9d985b1a59607a1b604482015290519081900360640190fd5b610a84868686866124c4565b606060008060005b600e548110156110e657600c6000600e83815481106110a657fe5b60009182526020808320909101546001600160a01b03168352820192909252604001902054156110de576110db8360016122aa565b92505b60010161108b565b5060608267ffffffffffffffff8111801561110057600080fd5b5060405190808252806020026020018201604052801561112a578160200160208202803683370190505b50905060005b600e548110156111da57600c6000600e838154811061114b57fe5b60009182526020808320909101546001600160a01b03168352820192909252604001902054156111d257600c6000600e838154811061118657fe5b60009182526020808320909101546001600160a01b0316835282019290925260400190205482518390859081106111b957fe5b60209081029190910101526111cf8360016122aa565b92505b600101611130565b509250505090565b60075481565b6111f0611ae6565b6001600160a01b03166112016113c5565b6001600160a01b03161461124a576040805162461bcd60e51b81526020600482018190526024820152600080516020612983833981519152604482015290519081900360640190fd5b600080546040516001600160a01b03909116907f8be0079c531659141344cd1fd0a4f28419497f9722a3daafe3b4186f6b6457e0908390a3600080546001600160a01b0319169055565b600061129e611ae6565b6001600160a01b03166112af6113c5565b6001600160a01b0316146112f8576040805162461bcd60e51b81526020600482018190526024820152600080516020612983833981519152604482015290519081900360640190fd5b6001600160a01b03851615611354576040805162461bcd60e51b815260206004820152601f60248201527f5f64657374546f6b656e2073686f756c64206265206164647265737328302900604482015290519081900360640190fd5b6001546001600160a01b031684156113a657600061137c85611376888761270b565b9061270b565b6001549091506113a0906001600160a01b0316600061139b84896122aa565b611aea565b506113af565b846113af575060005b6113b98184611bd6565b50600195945050505050565b6000546001600160a01b031690565b60036020526000908152604090205460ff1681565b60006113f3611ae6565b6001600160a01b03166114046113c5565b6001600160a01b03161461144d576040805162461bcd60e51b81526020600482018190526024820152600080516020612983833981519152604482015290519081900360640190fd5b6001600160a01b03861660009081526003602052604090205460ff166114ba576040805162461bcd60e51b815260206004820152601d60248201527f5f64657374546f6b656e206973206e6f742077686974656c6973746564000000604482015290519081900360640190fd5b6001600160a01b0386166114ff5760405162461bcd60e51b8152600401808060200182810382526023815260200180612a056023913960400191505060405180910390fd5b6000841561152557600154611520906000906001600160a01b031687611aea565b611538565b8461153857506001546001600160a01b03165b6002546001600160a01b038881169116141561155c57506002546001600160a01b03165b6115668185611bd6565b61156f83611d4d565b60005b865181101561097b576115bb8888838151811061158b57fe5b602002602001015160001c8984815181106115a257fe5b602002602001015160a01c6001600160601b0316611d9c565b600101611572565b600454600160201b900460ff1681565b60006115dd611ae6565b6001600160a01b03166115ee6113c5565b6001600160a01b031614611637576040805162461bcd60e51b81526020600482018190526024820152600080516020612983833981519152604482015290519081900360640190fd5b61164082611738565b1561168d576040805162461bcd60e51b8152602060048201526018602482015277151a19481d1e1a59081a5cc8185b1c9958591e481d5cd95960421b604482015290519081900360640190fd5b60408051808201909152601d81527f42544320666c6f617420616d6f756e7420696e73756666696369656e7400000060208083019190915260008052600a90527f13da86008ba1c6922daee3e07db95305ef49ebced9f5467a0b8613fcc6b343e3546116fa918590612768565b60008052600a6020527f13da86008ba1c6922daee3e07db95305ef49ebced9f5467a0b8613fcc6b343e35561172e826127ff565b5060015b92915050565b6000908152600b602052604090205460ff1690565b6000806117676006546005546122aa90919063ffffffff16565b9050600081116117a85760405162461bcd60e51b815260040180806020018281038252602581526020018061289b6025913960400191505060405180910390fd5b60606117b2611083565b90506000805b82518110156117fd576117f38382815181106117d057fe5b602002602001015160a01c6001600160601b0316836122aa90919063ffffffff16565b91506001016117b8565b50600254600554604080516340c10f1960e01b81523060048201526024810192909252516001600160a01b03909216916340c10f19916044808201926020929091908290030181600087803b15801561185557600080fd5b505af1158015611869573d6000803e3d6000fd5b505050506040513d602081101561187f57600080fd5b50600090505b825181101561196c5760025483516001600160a01b039091169063a9059cbb908590849081106118b157fe5b602002602001015160001c6118f285610c618887815181106118cf57fe5b602002602001015160a01c6001600160601b03168a61230b90919063ffffffff16565b6040518363ffffffff1660e01b815260040180836001600160a01b0316815260200182815260200192505050602060405180830381600087803b15801561193857600080fd5b505af115801561194c573d6000803e3d6000fd5b505050506040513d602081101561196257600080fd5b5050600101611885565b506040805184815290517f86dd6ae252e62228b47b3c1a12762cbf634952b2d29319b04f4f72fb153bcbdd9181900360200190a1505060006005819055600655506001905090565b6001600160a01b039182166000908152600a60205260408082205492909316815291909120549091565b6119e6611ae6565b6001600160a01b03166119f76113c5565b6001600160a01b031614611a40576040805162461bcd60e51b81526020600482018190526024820152600080516020612983833981519152604482015290519081900360640190fd5b6001600160a01b038116611a855760405162461bcd60e51b81526004018080602001828103825260268152602001806128f46026913960400191505060405180910390fd5b600080546040516001600160a01b03808516939216917f8be0079c531659141344cd1fd0a4f28419497f9722a3daafe3b4186f6b6457e091a3600080546001600160a01b0319166001600160a01b0392909216919091179055565b60065481565b3390565b60408051808201825260208082527f5f737761703a20666c6f617420616d6f756e7420696e73756666696369656e74818301526001600160a01b0385166000908152600a9091529190912054611b41918390612768565b6001600160a01b038084166000908152600a60205260408082209390935590851681522054611b7090826122aa565b6001600160a01b038085166000818152600a602090815260409182902094909455805191825291851692810192909252818101839052517fea368a40e9570069bb8e6511d668293ad2e1f03b0d982431fd223de9f3b70ca69181900360600190a1505050565b80611be057611d49565b6002546001600160a01b0383811691161415611c5b57600654611c0390826122aa565b600655604080516001600160a01b0384168152602081018390526000818301819052606082015290517fe3debe835f6848edc082b32a1d729781d3bfcd7e14422d80bcaa6794d3816b2f9181900360800190a1611d49565b6000611c65610b8c565b6001600160a01b0384166000908152600a6020526040902054909150611c8b90836122aa565b6001600160a01b0384166000908152600a6020526040812091909155600454611cc590606490610c6190869062010000900460ff1661230b565b90506000611ce283610c616009548561230b90919063ffffffff16565b600554909150611cf290826122aa565b600555604080516001600160a01b0387168152602081018690528082018390526060810185905290517fe3debe835f6848edc082b32a1d729781d3bfcd7e14422d80bcaa6794d3816b2f9181900360800190a15050505b5050565b60005b8151811015611d49576001600b6000848481518110611d6b57fe5b6020908102919091018101518252810191909152604001600020805460ff1916911515919091179055600101611d50565b6001546001600160a01b0384811691161415611dc357600854611dc090829061230b565b90505b826001600160a01b031663a9059cbb83836040518363ffffffff1660e01b815260040180836001600160a01b0316815260200182815260200192505050602060405180830381600087803b158015611e1a57600080fd5b505af1158015611e2e573d6000803e3d6000fd5b505050506040513d6020811015611e4457600080fd5b5051611e4f57600080fd5b505050565b6000611e5f82611738565b15611eac576040805162461bcd60e51b8152602060048201526018602482015277151a19481d1e1a59081a5cc8185b1c9958591e481d5cd95960421b604482015290519081900360640190fd5b83611efe576040805162461bcd60e51b815260206004820152601c60248201527f546865207472616e73616374696f6e206973206e6f742076616c696400000000604482015290519081900360640190fd5b600080611f0a866123cb565b915091506000611f18610b8c565b90506000611f35600954610c61848661230b90919063ffffffff16565b600454909150600090611f5b9061271090610c61908590600160201b900460ff1661230b565b905087611f68838361270b565b1015611fa55760405162461bcd60e51b81526004018080602001828103825260348152602001806128c06034913960400191505060405180910390fd5b6000611fb589611376858561270b565b6001549091506000908190611fd49082906001600160a01b03166119b4565b90925090506001600160a01b038d1661204a57611ff1858561270b565b821015612045576040805162461bcd60e51b815260206004820152601f60248201527f54686520666c6f61742062616c616e636520696e73756666696369656e742e00604482015290519081900360640190fd5b6120be565b6001546001600160a01b038e8116911614156120be5761206a858561270b565b8110156120be576040805162461bcd60e51b815260206004820152601f60248201527f54686520666c6f61742062616c616e636520696e73756666696369656e742e00604482015290519081900360640190fd5b6120c88d85611bd6565b6120d28d8661281a565b6120db8a6127ff565b6001546001600160a01b038e8116911614156120fc576120fc8d8985611d9c565b60025460408051630852cd8d60e31b8152600481018a905290516001600160a01b03909216916342966c68916024808201926020929091908290030181600087803b15801561214a57600080fd5b505af115801561215e573d6000803e3d6000fd5b505050506040513d602081101561217457600080fd5b505161217f57600080fd5b604080516001600160a01b038a16815260208101899052808201879052606081018890526080810185905260a081018c905290517fa9da34e5e4a956b744307ae7611795634e8365951073bf049d76b64b2ae7a0589181900360c00190a15060019c9b505050505050505050505050565b6001546000908190819061220e9082906001600160a01b03166119b4565b909250905060006122336003610c616002610c5b8961222d89896122aa565b906122aa565b6001549091506001600160a01b03878116911614801561225c57508061225983876122aa565b10155b1561226d5760019350505050611732565b6001600160a01b03861615801561228d57508061228a84876122aa565b10155b1561229e5760029350505050611732565b50600095945050505050565b600082820183811015612304576040805162461bcd60e51b815260206004820152601b60248201527f536166654d6174683a206164646974696f6e206f766572666c6f770000000000604482015290519081900360640190fd5b9392505050565b60008261231a57506000611732565b8282028284828161232757fe5b04146123045760405162461bcd60e51b81526004018080602001828103825260218152602001806129416021913960400191505060405180910390fd5b60008082116123ba576040805162461bcd60e51b815260206004820152601a60248201527f536166654d6174683a206469766973696f6e206279207a65726f000000000000604482015290519081900360640190fd5b8183816123c357fe5b049392505050565b9060a082901c90565b600081156123fd57506001600160a01b0383166000908152600c60205260408120556001612304565b6001600160a01b0384166000908152600d602052604090205460ff1661248157600e805460018082019092557fbb7b4a454dc3493923482f07822329ed19e8244eff582cc204f8554c3620c3fd0180546001600160a01b0319166001600160a01b0387169081179091556000908152600d60205260409020805460ff191690911790555b6001600160a01b0384166000908152600c60205260409020546124ba576001600160a01b0384166000908152600c602052604090208390555b5060019392505050565b60006124cf82611738565b1561251c576040805162461bcd60e51b8152602060048201526018602482015277151a19481d1e1a59081a5cc8185b1c9958591e481d5cd95960421b604482015290519081900360640190fd5b8361256e576040805162461bcd60e51b815260206004820152601c60248201527f546865207472616e73616374696f6e206973206e6f742076616c696400000000604482015290519081900360640190fd5b60008061257a866123cb565b915091506000612588610b8c565b905060006125a582610c616009548661230b90919063ffffffff16565b905060006125b38a85610af0565b90506000816125c35760006125d3565b6125d3612710610c61858561230b565b90508880156125e157508015155b156125eb57600080fd5b6002546001600160a01b03166340c10f1987612607868561270b565b6040518363ffffffff1660e01b815260040180836001600160a01b0316815260200182815260200192505050602060405180830381600087803b15801561264d57600080fd5b505af1158015612661573d6000803e3d6000fd5b505050506040513d602081101561267757600080fd5b505060055461268690826122aa565b6005556126938b86612877565b61269c886127ff565b604080516001600160a01b038816815260208101879052808201859052606081018690526080810183905260a081018a905290517fdfaf4e23f7030adafec91a682e05bf9fb30c721f9cec3d8bcfae0459c5362db19181900360c00190a15060019a9950505050505050505050565b600082821115612762576040805162461bcd60e51b815260206004820152601e60248201527f536166654d6174683a207375627472616374696f6e206f766572666c6f770000604482015290519081900360640190fd5b50900390565b600081848411156127f75760405162461bcd60e51b81526004018080602001828103825283818151815260200191508051906020019080838360005b838110156127bc5781810151838201526020016127a4565b50505050905090810190601f1680156127e95780820380516001836020036101000a031916815260200191505b509250505060405180910390fd5b505050900390565b6000908152600b60205260409020805460ff19166001179055565b612857816040518060600160405280602781526020016129a3602791396001600160a01b0385166000908152600a60205260409020549190612768565b6001600160a01b039092166000908152600a602052604090209190915550565b6001600160a01b0382166000908152600a602052604090205461285790826122aa56fe746f74616c5265776172644c5073466f724e6f6465206973206e6f7420706f7369746976654572726f723a20616d6f756e744f66466c6f61742e737562287769746864726177616c4665657329203c205f6d696e65724665654f776e61626c653a206e6577206f776e657220697320746865207a65726f20616464726573735f7473735468726573686f6c642073686f756c64206265203e3d207473735468726573686f6c64536166654d6174683a206d756c7469706c69636174696f6e206f766572666c6f7753746f726564206e6f64652073697a652073686f756c64206265203c3d203130304f776e61626c653a2063616c6c6572206973206e6f7420746865206f776e65725f72656d6f7665466c6f61743a20666c6f617420616d6f756e7420696e73756666696369656e745f72657761726441646472657373416e64416d6f756e747320616e64205f697352656d6f766564206c656e677468206973206e6f74206d617463685f64657374546f6b656e2073686f756c64206e6f742062652061646472657373283029a2646970667358221220b2c9b43a6000b347a31866cf166fd884f5de5240f6f305857a837f784275074f64736f6c63430007030033",
  "linkReferences": {},
  "deployedLinkReferences": {}
}