{
  "_format": "hh-sol-artifact-1",
  "contractName": "SwapContract",
  "sourceName": "contracts/SwapContract.sol",
  "abi": [
    {
      "inputs": [
        {
          "internalType": "address",
          "name": "_lpToken",
          "type": "address"
        },
        {
          "internalType": "address",
          "name": "_btct",
          "type": "address"
        },
        {
          "internalType": "address",
          "name": "_wETH",
          "type": "address"
        },
        {
          "internalType": "uint256",
          "name": "_existingBTCFloat",
          "type": "uint256"
        }
      ],
      "stateMutability": "nonpayable",
      "type": "constructor"
    },
    {
      "anonymous": false,
      "inputs": [
        {
          "indexed": false,
          "internalType": "address",
          "name": "token",
          "type": "address"
        },
        {
          "indexed": false,
          "internalType": "uint256",
          "name": "amountOfLP",
          "type": "uint256"
        },
        {
          "indexed": false,
          "internalType": "uint256",
          "name": "amountOfFloat",
          "type": "uint256"
        },
        {
          "indexed": false,
          "internalType": "uint256",
          "name": "currentPriceLP",
          "type": "uint256"
        },
        {
          "indexed": false,
          "internalType": "uint256",
          "name": "withdrawal",
          "type": "uint256"
        },
        {
          "indexed": false,
          "internalType": "bytes32",
          "name": "txid",
          "type": "bytes32"
        }
      ],
      "name": "BurnLPTokensForFloat",
      "type": "event"
    },
    {
      "anonymous": false,
      "inputs": [
        {
          "indexed": false,
          "internalType": "address",
          "name": "token",
          "type": "address"
        },
        {
          "indexed": false,
          "internalType": "address",
          "name": "user",
          "type": "address"
        },
        {
          "indexed": false,
          "internalType": "uint256",
          "name": "amount",
          "type": "uint256"
        },
        {
          "indexed": false,
          "internalType": "uint256",
          "name": "balance",
          "type": "uint256"
        },
        {
          "indexed": false,
          "internalType": "uint256",
          "name": "Timestamp",
          "type": "uint256"
        }
      ],
      "name": "Deposit",
      "type": "event"
    },
    {
      "anonymous": false,
      "inputs": [
        {
          "indexed": false,
          "internalType": "uint256",
          "name": "rewardLPTsForNodes",
          "type": "uint256"
        }
      ],
      "name": "DistributeNodeRewards",
      "type": "event"
    },
    {
      "anonymous": false,
      "inputs": [
        {
          "indexed": false,
          "internalType": "address",
          "name": "to",
          "type": "address"
        },
        {
          "indexed": false,
          "internalType": "uint256",
          "name": "amountOfFloat",
          "type": "uint256"
        },
        {
          "indexed": false,
          "internalType": "uint256",
          "name": "amountOfLP",
          "type": "uint256"
        },
        {
          "indexed": false,
          "internalType": "uint256",
          "name": "currentPriceLP",
          "type": "uint256"
        },
        {
          "indexed": false,
          "internalType": "uint256",
          "name": "depositFees",
          "type": "uint256"
        },
        {
          "indexed": false,
          "internalType": "bytes32",
          "name": "txid",
          "type": "bytes32"
        }
      ],
      "name": "IssueLPTokensForFloat",
      "type": "event"
    },
    {
      "anonymous": false,
      "inputs": [
        {
          "indexed": true,
          "internalType": "address",
          "name": "previousOwner",
          "type": "address"
        },
        {
          "indexed": true,
          "internalType": "address",
          "name": "newOwner",
          "type": "address"
        }
      ],
      "name": "OwnershipTransferred",
      "type": "event"
    },
    {
      "anonymous": false,
      "inputs": [
        {
          "indexed": false,
          "internalType": "address",
          "name": "feesToken",
          "type": "address"
        },
        {
          "indexed": false,
          "internalType": "uint256",
          "name": "rewards",
          "type": "uint256"
        },
        {
          "indexed": false,
          "internalType": "uint256",
          "name": "amountLPTokensForNode",
          "type": "uint256"
        },
        {
          "indexed": false,
          "internalType": "uint256",
          "name": "currentPriceLP",
          "type": "uint256"
        }
      ],
      "name": "RewardsCollection",
      "type": "event"
    },
    {
      "anonymous": false,
      "inputs": [
        {
          "indexed": false,
          "internalType": "uint256",
          "name": "ExpirationTime",
          "type": "uint256"
        },
        {
          "indexed": false,
          "internalType": "uint256",
          "name": "Timestamp",
          "type": "uint256"
        }
      ],
      "name": "SetExpirationTime",
      "type": "event"
    },
    {
      "anonymous": false,
      "inputs": [
        {
          "indexed": false,
          "internalType": "address",
          "name": "from",
          "type": "address"
        },
        {
          "indexed": false,
          "internalType": "address",
          "name": "to",
          "type": "address"
        },
        {
          "indexed": false,
          "internalType": "uint256",
          "name": "amount",
          "type": "uint256"
        }
      ],
      "name": "Swap",
      "type": "event"
    },
    {
      "anonymous": false,
      "inputs": [
        {
          "indexed": false,
          "internalType": "bytes32",
          "name": "SwapID",
          "type": "bytes32"
        },
        {
          "indexed": false,
          "internalType": "bytes32",
          "name": "DestAddr",
          "type": "bytes32"
        },
        {
          "indexed": false,
          "internalType": "address",
          "name": "RefundAddr",
          "type": "address"
        },
        {
          "indexed": false,
          "internalType": "uint256",
          "name": "AmountWBTC",
          "type": "uint256"
        },
        {
          "indexed": false,
          "internalType": "uint256",
          "name": "Timestamp",
          "type": "uint256"
        }
      ],
      "name": "SwapTokensToBTC",
      "type": "event"
    },
    {
      "anonymous": false,
      "inputs": [
        {
          "indexed": false,
          "internalType": "address",
          "name": "token",
          "type": "address"
        },
        {
          "indexed": false,
          "internalType": "address",
          "name": "user",
          "type": "address"
        },
        {
          "indexed": false,
          "internalType": "uint256",
          "name": "amount",
          "type": "uint256"
        },
        {
          "indexed": false,
          "internalType": "uint256",
          "name": "balance",
          "type": "uint256"
        },
        {
          "indexed": false,
          "internalType": "uint256",
          "name": "Timestamp",
          "type": "uint256"
        }
      ],
      "name": "Withdraw",
      "type": "event"
    },
    {
      "stateMutability": "nonpayable",
      "type": "fallback"
    },
    {
      "inputs": [],
      "name": "BTCT_ADDR",
      "outputs": [
        {
          "internalType": "address",
          "name": "",
          "type": "address"
        }
      ],
      "stateMutability": "view",
      "type": "function"
    },
    {
      "inputs": [
        {
          "internalType": "address",
          "name": "_token",
          "type": "address"
        },
        {
          "internalType": "address",
          "name": "_user",
          "type": "address"
        }
      ],
      "name": "balanceOf",
      "outputs": [
        {
          "internalType": "uint256",
          "name": "",
          "type": "uint256"
        }
      ],
      "stateMutability": "view",
      "type": "function"
    },
    {
      "inputs": [
        {
          "internalType": "address",
          "name": "_newOwner",
          "type": "address"
        },
        {
          "internalType": "bytes32[]",
          "name": "_rewardAddressAndAmounts",
          "type": "bytes32[]"
        },
        {
          "internalType": "bool[]",
          "name": "_isRemoved",
          "type": "bool[]"
        },
        {
          "internalType": "uint8",
          "name": "_churnedInCount",
          "type": "uint8"
        },
        {
          "internalType": "uint8",
          "name": "_tssThreshold",
          "type": "uint8"
        },
        {
          "internalType": "uint8",
          "name": "_nodeRewardsRatio",
          "type": "uint8"
        },
        {
          "internalType": "uint8",
          "name": "_withdrawalFeeBPS",
          "type": "uint8"
        },
        {
          "internalType": "uint256",
          "name": "_expirationTime",
          "type": "uint256"
        }
      ],
      "name": "churn",
      "outputs": [
        {
          "internalType": "bool",
          "name": "",
          "type": "bool"
        }
      ],
      "stateMutability": "nonpayable",
      "type": "function"
    },
    {
      "inputs": [],
      "name": "churnedInCount",
      "outputs": [
        {
          "internalType": "uint8",
          "name": "",
          "type": "uint8"
        }
      ],
      "stateMutability": "view",
      "type": "function"
    },
    {
      "inputs": [
        {
          "internalType": "address",
          "name": "_destToken",
          "type": "address"
        },
        {
          "internalType": "uint256",
          "name": "_incomingAmount",
          "type": "uint256"
        },
        {
          "internalType": "uint256",
          "name": "_minerFee",
          "type": "uint256"
        },
        {
          "internalType": "uint256",
          "name": "_rewardsAmount",
          "type": "uint256"
        }
      ],
      "name": "collectSwapFeesForBTC",
      "outputs": [
        {
          "internalType": "bool",
          "name": "",
          "type": "bool"
        }
      ],
      "stateMutability": "nonpayable",
      "type": "function"
    },
    {
      "inputs": [],
      "name": "depositFeesBPS",
      "outputs": [
        {
          "internalType": "uint8",
          "name": "",
          "type": "uint8"
        }
      ],
      "stateMutability": "view",
      "type": "function"
    },
    {
      "inputs": [],
      "name": "distributeNodeRewards",
      "outputs": [
        {
          "internalType": "bool",
          "name": "",
          "type": "bool"
        }
      ],
      "stateMutability": "nonpayable",
      "type": "function"
    },
    {
      "inputs": [],
      "name": "expirationTime",
      "outputs": [
        {
          "internalType": "uint256",
          "name": "",
          "type": "uint256"
        }
      ],
      "stateMutability": "view",
      "type": "function"
    },
    {
      "inputs": [],
      "name": "feesLPTokensForNode",
      "outputs": [
        {
          "internalType": "uint256",
          "name": "",
          "type": "uint256"
        }
      ],
      "stateMutability": "view",
      "type": "function"
    },
    {
      "inputs": [],
      "name": "getActiveNodes",
      "outputs": [
        {
          "internalType": "bytes32[]",
          "name": "",
          "type": "bytes32[]"
        }
      ],
      "stateMutability": "view",
      "type": "function"
    },
    {
      "inputs": [],
      "name": "getCurrentPriceLP",
      "outputs": [
        {
          "internalType": "uint256",
          "name": "nowPrice",
          "type": "uint256"
        }
      ],
      "stateMutability": "view",
      "type": "function"
    },
    {
      "inputs": [
        {
          "internalType": "address",
          "name": "_token",
          "type": "address"
        },
        {
          "internalType": "uint256",
          "name": "_amountOfFloat",
          "type": "uint256"
        }
      ],
      "name": "getDepositFeeRate",
      "outputs": [
        {
          "internalType": "uint256",
          "name": "depositFeeRate",
          "type": "uint256"
        }
      ],
      "stateMutability": "view",
      "type": "function"
    },
    {
      "inputs": [
        {
          "internalType": "address",
          "name": "_tokenA",
          "type": "address"
        },
        {
          "internalType": "address",
          "name": "_tokenB",
          "type": "address"
        }
      ],
      "name": "getFloatReserve",
      "outputs": [
        {
          "internalType": "uint256",
          "name": "reserveA",
          "type": "uint256"
        },
        {
          "internalType": "uint256",
          "name": "reserveB",
          "type": "uint256"
        }
      ],
      "stateMutability": "view",
      "type": "function"
    },
    {
      "inputs": [],
      "name": "initialExchangeRate",
      "outputs": [
        {
          "internalType": "uint256",
          "name": "",
          "type": "uint256"
        }
      ],
      "stateMutability": "view",
      "type": "function"
    },
    {
      "inputs": [
        {
          "internalType": "bytes32",
          "name": "_txid",
          "type": "bytes32"
        }
      ],
      "name": "isTxUsed",
      "outputs": [
        {
          "internalType": "bool",
          "name": "",
          "type": "bool"
        }
      ],
      "stateMutability": "view",
      "type": "function"
    },
    {
      "inputs": [],
      "name": "lockedLPTokensForNode",
      "outputs": [
        {
          "internalType": "uint256",
          "name": "",
          "type": "uint256"
        }
      ],
      "stateMutability": "view",
      "type": "function"
    },
    {
      "inputs": [],
      "name": "lpToken",
      "outputs": [
        {
          "internalType": "address",
          "name": "",
          "type": "address"
        }
      ],
      "stateMutability": "view",
      "type": "function"
    },
    {
      "inputs": [
        {
          "internalType": "address",
          "name": "_destToken",
          "type": "address"
        },
        {
          "internalType": "bytes32[]",
          "name": "_addressesAndAmounts",
          "type": "bytes32[]"
        },
        {
          "internalType": "uint256",
          "name": "_totalSwapped",
          "type": "uint256"
        },
        {
          "internalType": "uint256",
          "name": "_rewardsAmount",
          "type": "uint256"
        },
        {
          "internalType": "bytes32[]",
          "name": "_redeemedFloatTxIds",
          "type": "bytes32[]"
        }
      ],
      "name": "multiTransferERC20TightlyPacked",
      "outputs": [
        {
          "internalType": "bool",
          "name": "",
          "type": "bool"
        }
      ],
      "stateMutability": "nonpayable",
      "type": "function"
    },
    {
      "inputs": [],
      "name": "nodeRewardsRatio",
      "outputs": [
        {
          "internalType": "uint8",
          "name": "",
          "type": "uint8"
        }
      ],
      "stateMutability": "view",
      "type": "function"
    },
    {
      "inputs": [],
      "name": "owner",
      "outputs": [
        {
          "internalType": "address",
          "name": "",
          "type": "address"
        }
      ],
      "stateMutability": "view",
      "type": "function"
    },
    {
      "inputs": [
        {
          "internalType": "address",
          "name": "_token",
          "type": "address"
        },
        {
          "internalType": "bytes32",
          "name": "_addressesAndAmountOfFloat",
          "type": "bytes32"
        },
        {
          "internalType": "bool",
          "name": "_zerofee",
          "type": "bool"
        },
        {
          "internalType": "bytes32",
          "name": "_txid",
          "type": "bytes32"
        }
      ],
      "name": "recordIncomingFloat",
      "outputs": [
        {
          "internalType": "bool",
          "name": "",
          "type": "bool"
        }
      ],
      "stateMutability": "nonpayable",
      "type": "function"
    },
    {
      "inputs": [
        {
          "internalType": "address",
          "name": "_token",
          "type": "address"
        },
        {
          "internalType": "bytes32",
          "name": "_addressesAndAmountOfLPtoken",
          "type": "bytes32"
        },
        {
          "internalType": "uint256",
          "name": "_minerFee",
          "type": "uint256"
        },
        {
          "internalType": "bytes32",
          "name": "_txid",
          "type": "bytes32"
        }
      ],
      "name": "recordOutcomingFloat",
      "outputs": [
        {
          "internalType": "bool",
          "name": "",
          "type": "bool"
        }
      ],
      "stateMutability": "nonpayable",
      "type": "function"
    },
    {
      "inputs": [
        {
          "internalType": "address",
          "name": "_destToken",
          "type": "address"
        },
        {
          "internalType": "address",
          "name": "_to",
          "type": "address"
        },
        {
          "internalType": "uint256",
          "name": "_amount",
          "type": "uint256"
        },
        {
          "internalType": "uint256",
          "name": "_totalSwapped",
          "type": "uint256"
        },
        {
          "internalType": "bytes32[]",
          "name": "_redeemedFloatTxIds",
          "type": "bytes32[]"
        }
      ],
      "name": "recordSkyPoolsTX",
      "outputs": [
        {
          "internalType": "bool",
          "name": "",
          "type": "bool"
        }
      ],
      "stateMutability": "nonpayable",
      "type": "function"
    },
    {
      "inputs": [
        {
          "internalType": "uint256",
          "name": "_minerFee",
          "type": "uint256"
        },
        {
          "internalType": "bytes32",
          "name": "_txid",
          "type": "bytes32"
        }
      ],
      "name": "recordUTXOSweepMinerFee",
      "outputs": [
        {
          "internalType": "bool",
          "name": "",
          "type": "bool"
        }
      ],
      "stateMutability": "nonpayable",
      "type": "function"
    },
    {
      "inputs": [
        {
          "internalType": "address",
          "name": "_token",
          "type": "address"
        },
        {
          "internalType": "uint256",
          "name": "_amount",
          "type": "uint256"
        }
      ],
      "name": "redeemERC20Token",
      "outputs": [],
      "stateMutability": "nonpayable",
      "type": "function"
    },
    {
      "inputs": [
        {
          "internalType": "uint256",
          "name": "_amount",
          "type": "uint256"
        }
      ],
      "name": "redeemEther",
      "outputs": [],
      "stateMutability": "payable",
      "type": "function"
    },
    {
      "inputs": [],
      "name": "renounceOwnership",
      "outputs": [],
      "stateMutability": "nonpayable",
      "type": "function"
    },
    {
      "inputs": [
        {
          "internalType": "address",
          "name": "_destToken",
          "type": "address"
        },
        {
          "internalType": "address",
          "name": "_to",
          "type": "address"
        },
        {
          "internalType": "uint256",
          "name": "_amount",
          "type": "uint256"
        },
        {
          "internalType": "uint256",
          "name": "_totalSwapped",
          "type": "uint256"
        },
        {
          "internalType": "uint256",
          "name": "_rewardsAmount",
          "type": "uint256"
        },
        {
          "internalType": "bytes32[]",
          "name": "_redeemedFloatTxIds",
          "type": "bytes32[]"
        }
      ],
      "name": "singleTransferERC20",
      "outputs": [
        {
          "internalType": "bool",
          "name": "",
          "type": "bool"
        }
      ],
      "stateMutability": "nonpayable",
      "type": "function"
    },
    {
      "inputs": [
        {
          "internalType": "address",
          "name": "_token",
          "type": "address"
        },
        {
          "internalType": "uint256",
          "name": "_amount",
          "type": "uint256"
        }
      ],
      "name": "spDeposit",
      "outputs": [],
      "stateMutability": "payable",
      "type": "function"
    },
    {
      "inputs": [],
      "name": "spGetPendingSwaps",
      "outputs": [
        {
          "components": [
            {
              "internalType": "bytes32",
              "name": "SwapID",
              "type": "bytes32"
            },
            {
              "internalType": "bytes32",
              "name": "DestAddr",
              "type": "bytes32"
            },
            {
              "internalType": "address",
              "name": "RefundAddr",
              "type": "address"
            },
            {
              "internalType": "uint256",
              "name": "AmountWBTC",
              "type": "uint256"
            },
            {
              "internalType": "uint256",
              "name": "Timestamp",
              "type": "uint256"
            }
          ],
          "internalType": "struct SwapContract.spPendingTx[]",
          "name": "data",
          "type": "tuple[]"
        }
      ],
      "stateMutability": "view",
      "type": "function"
    },
    {
      "inputs": [
        {
          "components": [
            {
              "internalType": "address",
              "name": "fromToken",
              "type": "address"
            },
            {
              "internalType": "address",
              "name": "toToken",
              "type": "address"
            },
            {
              "internalType": "uint256",
              "name": "fromAmount",
              "type": "uint256"
            },
            {
              "internalType": "uint256",
              "name": "toAmount",
              "type": "uint256"
            },
            {
              "internalType": "uint256",
              "name": "expectedAmount",
              "type": "uint256"
            },
            {
              "internalType": "address[]",
              "name": "callees",
              "type": "address[]"
            },
            {
              "internalType": "bytes",
              "name": "exchangeData",
              "type": "bytes"
            },
            {
              "internalType": "uint256[]",
              "name": "startIndexes",
              "type": "uint256[]"
            },
            {
              "internalType": "uint256[]",
              "name": "values",
              "type": "uint256[]"
            },
            {
              "internalType": "address payable",
              "name": "beneficiary",
              "type": "address"
            },
            {
              "internalType": "address payable",
              "name": "partner",
              "type": "address"
            },
            {
              "internalType": "uint256",
              "name": "feePercent",
              "type": "uint256"
            },
            {
              "internalType": "bytes",
              "name": "permit",
              "type": "bytes"
            },
            {
              "internalType": "uint256",
              "name": "deadline",
              "type": "uint256"
            },
            {
              "internalType": "bytes16",
              "name": "uuid",
              "type": "bytes16"
            }
          ],
          "internalType": "struct Utils.SimpleData",
          "name": "_data",
          "type": "tuple"
        }
      ],
      "name": "spParaSwapBTC2Token",
      "outputs": [],
      "stateMutability": "payable",
      "type": "function"
    },
    {
      "inputs": [
        {
          "internalType": "bytes32",
          "name": "_destinationAddressForBTC",
          "type": "bytes32"
        },
        {
          "components": [
            {
              "internalType": "address",
              "name": "fromToken",
              "type": "address"
            },
            {
              "internalType": "address",
              "name": "toToken",
              "type": "address"
            },
            {
              "internalType": "uint256",
              "name": "fromAmount",
              "type": "uint256"
            },
            {
              "internalType": "uint256",
              "name": "toAmount",
              "type": "uint256"
            },
            {
              "internalType": "uint256",
              "name": "expectedAmount",
              "type": "uint256"
            },
            {
              "internalType": "address[]",
              "name": "callees",
              "type": "address[]"
            },
            {
              "internalType": "bytes",
              "name": "exchangeData",
              "type": "bytes"
            },
            {
              "internalType": "uint256[]",
              "name": "startIndexes",
              "type": "uint256[]"
            },
            {
              "internalType": "uint256[]",
              "name": "values",
              "type": "uint256[]"
            },
            {
              "internalType": "address payable",
              "name": "beneficiary",
              "type": "address"
            },
            {
              "internalType": "address payable",
              "name": "partner",
              "type": "address"
            },
            {
              "internalType": "uint256",
              "name": "feePercent",
              "type": "uint256"
            },
            {
              "internalType": "bytes",
              "name": "permit",
              "type": "bytes"
            },
            {
              "internalType": "uint256",
              "name": "deadline",
              "type": "uint256"
            },
            {
              "internalType": "bytes16",
              "name": "uuid",
              "type": "bytes16"
            }
          ],
          "internalType": "struct Utils.SimpleData",
          "name": "_data",
          "type": "tuple"
        }
      ],
      "name": "spParaSwapToken2BTC",
      "outputs": [],
      "stateMutability": "nonpayable",
      "type": "function"
    },
    {
      "inputs": [
        {
          "internalType": "uint256",
          "name": "",
          "type": "uint256"
        }
      ],
      "name": "spPendingTXs",
      "outputs": [
        {
          "internalType": "bytes32",
          "name": "SwapID",
          "type": "bytes32"
        },
        {
          "internalType": "bytes32",
          "name": "DestAddr",
          "type": "bytes32"
        },
        {
          "internalType": "address",
          "name": "RefundAddr",
          "type": "address"
        },
        {
          "internalType": "uint256",
          "name": "AmountWBTC",
          "type": "uint256"
        },
        {
          "internalType": "uint256",
          "name": "Timestamp",
          "type": "uint256"
        }
      ],
      "stateMutability": "view",
      "type": "function"
    },
    {
      "inputs": [
        {
          "internalType": "address",
          "name": "",
          "type": "address"
        },
        {
          "internalType": "address",
          "name": "",
          "type": "address"
        }
      ],
      "name": "tokens",
      "outputs": [
        {
          "internalType": "uint256",
          "name": "",
          "type": "uint256"
        }
      ],
      "stateMutability": "view",
      "type": "function"
    },
    {
      "inputs": [
        {
          "internalType": "address",
          "name": "newOwner",
          "type": "address"
        }
      ],
      "name": "transferOwnership",
      "outputs": [],
      "stateMutability": "nonpayable",
      "type": "function"
    },
    {
      "inputs": [],
      "name": "tssThreshold",
      "outputs": [
        {
          "internalType": "uint8",
          "name": "",
          "type": "uint8"
        }
      ],
      "stateMutability": "view",
      "type": "function"
    },
    {
      "inputs": [],
      "name": "wETH",
      "outputs": [
        {
          "internalType": "address",
          "name": "",
          "type": "address"
        }
      ],
      "stateMutability": "view",
      "type": "function"
    },
    {
      "inputs": [
        {
          "internalType": "address",
          "name": "",
          "type": "address"
        }
      ],
      "name": "whitelist",
      "outputs": [
        {
          "internalType": "bool",
          "name": "",
          "type": "bool"
        }
      ],
      "stateMutability": "view",
      "type": "function"
    },
    {
      "inputs": [],
      "name": "withdrawalFeeBPS",
      "outputs": [
        {
          "internalType": "uint8",
          "name": "",
          "type": "uint8"
        }
      ],
      "stateMutability": "view",
      "type": "function"
    },
    {
      "stateMutability": "payable",
      "type": "receive"
    }
  ],
  "bytecode": "0x6101206040523480156200001257600080fd5b506040516200556238038062005562833981016040819052620000359162000339565b6200004033620002cc565b600180556202a3006002556000600581905560049081556001600160a01b0380841661010052851660a08190526040805163313ce56760e01b81529051919263313ce567928282019260209290829003018186803b158015620000a257600080fd5b505afa158015620000b7573d6000803e3d6000fd5b505050506040513d601f19601f82011682018060405250810190620000dd91906200038b565b620000ea90600a620004cc565b60e0526001600160a01b03831660808190526007805464ffffff000019166414324200001790556040805163313ce56760e01b815290516008929163313ce567916004808301926020929190829003018186803b1580156200014b57600080fd5b505afa15801562000160573d6000803e3d6000fd5b505050506040513d601f19601f820116820180604052508101906200018691906200038b565b620001929190620004dd565b6200019f90600a620004cc565b60c08181525050836001600160a01b031663313ce5676040518163ffffffff1660e01b815260040160206040518083038186803b158015620001e057600080fd5b505afa158015620001f5573d6000803e3d6000fd5b505050506040513d601f19601f820116820180604052508101906200021b91906200038b565b6200022890600a620004cc565b600a556000600881905560098190556001600160a01b039384168152600660209081526040808320805460ff199081166001908117909255979096168352822080548716861790559080527f54cdd369e4e8a8515e52ca72ec816c2101831ad1f18bf44102ed171459c9b4f8805490951690931790935550600b90527fdf7de25b7f1fd6d0b5205f0e18f1f35bd7b8d84cce336588d184533ce43a6f765562000503565b600080546001600160a01b038381166001600160a01b0319831681178455604051919092169283917f8be0079c531659141344cd1fd0a4f28419497f9722a3daafe3b4186f6b6457e09190a35050565b80516001600160a01b03811681146200033457600080fd5b919050565b600080600080608085870312156200035057600080fd5b6200035b856200031c565b93506200036b602086016200031c565b92506200037b604086016200031c565b6060959095015193969295505050565b6000602082840312156200039e57600080fd5b815160ff81168114620003b057600080fd5b9392505050565b634e487b7160e01b600052601160045260246000fd5b600181815b808511156200040e578160001904821115620003f257620003f2620003b7565b808516156200040057918102915b93841c9390800290620003d2565b509250929050565b6000826200042757506001620004c6565b816200043657506000620004c6565b81600181146200044f57600281146200045a576200047a565b6001915050620004c6565b60ff8411156200046e576200046e620003b7565b50506001821b620004c6565b5060208310610133831016604e8410600b84101617156200049f575081810a620004c6565b620004ab8383620003cd565b8060001904821115620004c257620004c2620003b7565b0290505b92915050565b6000620003b060ff84168362000416565b600060ff821660ff841680821015620004fa57620004fa620003b7565b90039392505050565b60805160a05160c05160e05161010051614ed86200068a60003960008181610243015281816107bb01528181611b9601528181611bf201528181611c5f01528181611ca601528181611d84015281816126060152818161268001526126c90152600081816112c6015281816132070152818161348501526139a90152600061333e01526000818161054101528181610e4001528181610e7b0152818161121201528181611f0701528181611f420152818161284701528181612882015281816129e801528181612a7b015281816130f3015281816137090152613a1d01526000818161033701528181610894015281816108df01528181610dec01528181610e1e01528181611147015281816111e601528181611ad301528181611b0f01528181611eb301528181611ee50152818161214001528181612403015281816127f801528181612825015281816133000152818161356901528181613600015281816136b0015281816138140152818161386101528181613ee90152613f2e0152614ed86000f3fe6080604052600436106102335760003560e01c8063715018a61161012e578063ca0707e7116100ab578063ec4827291161006f578063ec48272914610774578063f2428621146107a9578063f2fde38b146107dd578063f7824bc7146107fd578063f7888aec1461081357610272565b8063ca0707e7146106e6578063d6b2779a146106f9578063da284dcc14610719578063e6ca20841461072f578063e9e9bf6a1461075f57610272565b80639b19251a116100f25780639b19251a14610641578063ad289e7614610671578063b59b54c314610691578063b6268e5d146106a4578063c810a539146106c657610272565b8063715018a6146105bb5780637c747cf9146105d05780638006cc3e146105f05780638535490f146106105780638da5cb5b1461062357610272565b80632d55282d116101bc578063508493bc11610180578063508493bc146104f75780635fcbd2851461052f57806363f289d9146105635780636b51e919146105835780636d019f35146105a557610272565b80632d55282d1461045d5780633b6fa1271461048157806342419255146104a157806345137e27146104c25780634db75485146104d757610272565b80630f909486116102035780630f9094861461032557806312d1441e146103715780631ab7e9371461039057806320199e991461041b5780632586c5621461043d57610272565b806289356f1461028457806308f6263b146102b55780630b68134d146102d55780630d63aca7146102f557610272565b3661027257336001600160a01b037f0000000000000000000000000000000000000000000000000000000000000000161461027057610270614224565b005b34801561027e57600080fd5b50600080fd5b34801561029057600080fd5b5060075461029e9060ff1681565b60405160ff90911681526020015b60405180910390f35b3480156102c157600080fd5b506102706102d0366004614253565b610859565b3480156102e157600080fd5b5060075461029e9062010000900460ff1681565b34801561030157600080fd5b50610315610310366004614395565b610d54565b60405190151581526020016102ac565b34801561033157600080fd5b506103597f000000000000000000000000000000000000000000000000000000000000000081565b6040516001600160a01b0390911681526020016102ac565b34801561037d57600080fd5b5060075461029e90610100900460ff1681565b34801561039c57600080fd5b506103e56103ab366004614413565b600360208190526000918252604090912080546001820154600283015493830154600490930154919390926001600160a01b039091169185565b6040805195865260208601949094526001600160a01b03909216928401929092526060830191909152608082015260a0016102ac565b34801561042757600080fd5b50610430610ec7565b6040516102ac919061442c565b34801561044957600080fd5b506103156104583660046144a3565b611029565b34801561046957600080fd5b5061047360085481565b6040519081526020016102ac565b34801561048d57600080fd5b5061047361049c3660046144de565b61112a565b3480156104ad57600080fd5b5060075461029e906301000000900460ff1681565b3480156104ce57600080fd5b506104736111da565b3480156104e357600080fd5b506102706104f23660046144de565b61130c565b34801561050357600080fd5b5061047361051236600461450a565b601060209081526000928352604080842090915290825290205481565b34801561053b57600080fd5b506103597f000000000000000000000000000000000000000000000000000000000000000081565b34801561056f57600080fd5b5061031561057e366004614551565b61146b565b34801561058f57600080fd5b5061059861150b565b6040516102ac9190614599565b3480156105b157600080fd5b50610473600a5481565b3480156105c757600080fd5b50610270611697565b3480156105dc57600080fd5b506103156105eb3660046145ee565b6116cd565b3480156105fc57600080fd5b5061031561060b3660046144a3565b611a4f565b61027061061e366004614413565b611b64565b34801561062f57600080fd5b506000546001600160a01b0316610359565b34801561064d57600080fd5b5061031561065c366004614710565b60066020526000908152604090205460ff1681565b34801561067d57600080fd5b5061031561068c36600461472d565b611e1b565b61027061069f3660046147b7565b611fdf565b3480156106b057600080fd5b5060075461029e90640100000000900460ff1681565b3480156106d257600080fd5b506103156106e13660046147ec565b6122a5565b6102706106f43660046144de565b6123aa565b34801561070557600080fd5b5061031561071436600461480e565b612760565b34801561072557600080fd5b5061047360025481565b34801561073b57600080fd5b5061031561074a366004614413565b6000908152600c602052604090205460ff1690565b34801561076b57600080fd5b506103156128e8565b34801561078057600080fd5b5061079461078f36600461450a565b612bda565b604080519283526020830191909152016102ac565b3480156107b557600080fd5b506103597f000000000000000000000000000000000000000000000000000000000000000081565b3480156107e957600080fd5b506102706107f8366004614710565b612c04565b34801561080957600080fd5b5061047360095481565b34801561081f57600080fd5b5061047361082e36600461450a565b6001600160a01b03918216600090815260106020908152604080832093909416825291909152205490565b600260015414156108855760405162461bcd60e51b815260040161087c90614877565b60405180910390fd5b60026001556001600160a01b037f0000000000000000000000000000000000000000000000000000000000000000166108c16020830183614710565b6001600160a01b031614156108d557600080fd5b6001600160a01b037f00000000000000000000000000000000000000000000000000000000000000001661090f6040830160208401614710565b6001600160a01b03161461095e5760405162461bcd60e51b815260206004820152601660248201527526bab9ba1039bbb0b8103a3790212a21903a37b5b2b760511b604482015260640161087c565b3061097161014083016101208401614710565b6001600160a01b0316146109ed5760405162461bcd60e51b815260206004820152603c60248201527f596f752063616e206f6e6c79206578656375746520666c6f772032207377617060448201527f7320746f207468697320636f6e74726163742773206164647265737300000000606482015260840161087c565b604081013560106000610a036020850185614710565b6001600160a01b03168152602080820192909252604090810160009081203382529092529020541015610a745760405162461bcd60e51b815260206004820152601960248201527810985b185b98d9481a5cc81b9bdd081cdd59999a58da595b9d603a1b604482015260640161087c565b6000610a866040830160208401614710565b6040516370a0823160e01b81523060048201526001600160a01b0391909116906370a082319060240160206040518083038186803b158015610ac757600080fd5b505afa158015610adb573d6000803e3d6000fd5b505050506040513d601f19601f82011682018060405250810190610aff91906148ae565b9050610b47604083013560106000610b1a6020870187614710565b6001600160a01b031681526020808201929092526040908101600090812033825290925290205490612c9f565b60106000610b586020860186614710565b6001600160a01b0316815260208082019290925260409081016000908120338252909252902055610b8882612cb2565b6000610c1d82610b9e6040860160208701614710565b6040516370a0823160e01b81523060048201526001600160a01b0391909116906370a082319060240160206040518083038186803b158015610bdf57600080fd5b505afa158015610bf3573d6000803e3d6000fd5b505050506040513d601f19601f82011682018060405250810190610c1791906148ae565b90612c9f565b90508260800135811015610c735760405162461bcd60e51b815260206004820152601c60248201527f526563656976656420616d6f756e7420696e73756666696369656e7400000000604482015260640161087c565b80610cc05760405162461bcd60e51b815260206004820152601c60248201527f526563656976656420616d6f756e742063616e206e6f74206265203000000000604482015260640161087c565b610d058160106000610cd86040880160208901614710565b6001600160a01b031681526020808201929092526040908101600090812030825290925290205490612ed4565b60106000610d196040870160208801614710565b6001600160a01b0316815260208082019290925260409081016000908120308252909252902055610d4a8482612ee0565b5050600180555050565b600080546001600160a01b03163314610d7f5760405162461bcd60e51b815260040161087c906148c7565b6001600160a01b03871660009081526006602052604090205460ff16610db75760405162461bcd60e51b815260040161087c906148fc565b6001600160a01b038716610ddd5760405162461bcd60e51b815260040161087c90614933565b60008415610e1657610e1160007f000000000000000000000000000000000000000000000000000000000000000087613003565b610e3e565b84610e3e57507f00000000000000000000000000000000000000000000000000000000000000005b7f00000000000000000000000000000000000000000000000000000000000000006001600160a01b0316886001600160a01b03161415610e9b57507f00000000000000000000000000000000000000000000000000000000000000005b610ea581856130e8565b610eae83613296565b610eb98888886132fe565b506001979650505050505050565b60606000610ee2600554600454612c9f90919063ffffffff16565b67ffffffffffffffff811115610efa57610efa6142bf565b604051908082528060200260200182016040528015610f5357816020015b6040805160a081018252600080825260208083018290529282018190526060820181905260808201528252600019909201910181610f185790505b5091506000610f6e6001600554612ed490919063ffffffff16565b90505b60045481116110245760036000610f9360055485612ed490919063ffffffff16565b81526020808201929092526040908101600020815160a0810183528154815260018201549381019390935260028101546001600160a01b031691830191909152600381015460608301526004015460808201528351849084908110610ffa57610ffa614976565b6020908102919091010152611010826001612ed4565b91508061101c816149a2565b915050610f71565b505090565b600080546001600160a01b031633146110545760405162461bcd60e51b815260040161087c906148c7565b600061105e6111da565b6001600160a01b03871660009081526006602052604090205490915060ff166110bd5760405162461bcd60e51b815260206004820152601160248201527017dd1bdad95b881a5cc81a5b9d985b1a59607a1b604482015260640161087c565b6110c9868686866133f0565b6110d257600080fd5b60019150806110df6111da565b10156111215760405162461bcd60e51b8152602060048201526011602482015270496e76616c6964204c505420707269636560781b604482015260640161087c565b50949350505050565b6000806111378484613808565b90508060ff166001141561119d577f00000000000000000000000000000000000000000000000000000000000000006001600160a01b0316846001600160a01b031614611185576000611193565b6007546301000000900460ff165b60ff1691506111d3565b8060ff16600214156111d3576001600160a01b038416156111bf5760006111cd565b6007546301000000900460ff165b60ff1691505b5092915050565b600080600061120a60007f0000000000000000000000000000000000000000000000000000000000000000612bda565b9150915060007f00000000000000000000000000000000000000000000000000000000000000006001600160a01b03166318160ddd6040518163ffffffff1660e01b815260040160206040518083038186803b15801561126957600080fd5b505afa15801561127d573d6000803e3d6000fd5b505050506040513d601f19601f820116820180604052508101906112a191906148ae565b90508015611300576112fb6112c160085483612ed490919063ffffffff16565b6112f57f00000000000000000000000000000000000000000000000000000000000000006112ef8787612ed4565b906138f7565b90613903565b611304565b600a545b935050505090565b6002600154141561132f5760405162461bcd60e51b815260040161087c90614877565b60026001556001600160a01b038216600090815260106020908152604080832033845290915290205481111561139e5760405162461bcd60e51b8152602060048201526014602482015273496e73756666696369656e742042616c616e636560601b604482015260640161087c565b6001600160a01b03821660009081526010602090815260408083203384529091529020546113cc9082612c9f565b6001600160a01b038316600090815260106020908152604080832033808552925290912091909155611400908390836132fe565b6001600160a01b0382166000908152601060209081526040808320338085529252918290205491517febff2602b3f468259e1e99f613fed6691f3a6526effe6ef3e768ba7ae7a36c4f9261145b9286929091869142906149bd565b60405180910390a1505060018055565b600080546001600160a01b031633146114965760405162461bcd60e51b815260040161087c906148c7565b60006114a06111da565b6001600160a01b03871660009081526006602052604090205490915060ff166114ff5760405162461bcd60e51b815260206004820152601160248201527017dd1bdad95b881a5cc81a5b9d985b1a59607a1b604482015260640161087c565b6110c98686868661390f565b606060008060005b600f5481101561157e57600d6000600f838154811061153457611534614976565b60009182526020808320909101546001600160a01b031683528201929092526040019020541561156c57611569836001612ed4565b92505b80611576816149a2565b915050611513565b5060008267ffffffffffffffff81111561159a5761159a6142bf565b6040519080825280602002602001820160405280156115c3578160200160208202803683370190505b50905060005b600f5481101561168f57600d6000600f83815481106115ea576115ea614976565b60009182526020808320909101546001600160a01b031683528201929092526040019020541561167d57600d6000600f838154811061162b5761162b614976565b60009182526020808320909101546001600160a01b03168352820192909252604001902054825183908590811061166457611664614976565b602090810291909101015261167a836001612ed4565b92505b80611687816149a2565b9150506115c9565b509392505050565b6000546001600160a01b031633146116c15760405162461bcd60e51b815260040161087c906148c7565b6116cb6000613b5f565b565b600080546001600160a01b031633146116f85760405162461bcd60e51b815260040161087c906148c7565b60075460ff61010090910481169086161080159061171a575060ff8560ff1611155b6117765760405162461bcd60e51b815260206004820152602760248201527f5f7473735468726573686f6c642073686f756c64206265203e3d2074737354686044820152661c995cda1bdb1960ca1b606482015260840161087c565b6117816001866149ee565b60ff168660ff1610156117cb5760405162461bcd60e51b81526020600482015260126024820152716e2073686f756c64206265203e3d20742b3160701b604482015260640161087c565b60648460ff16111561181f5760405162461bcd60e51b815260206004820152601e60248201527f5f6e6f646552657761726473526174696f206973206e6f742076616c69640000604482015260640161087c565b60648360ff1611156118735760405162461bcd60e51b815260206004820152601c60248201527f5f7769746864726177616c46656542505320697320696e76616c696400000000604482015260640161087c565b86518851146118ea5760405162461bcd60e51b815260206004820152603b60248201527f5f72657761726441646472657373416e64416d6f756e747320616e64205f697360448201527f52656d6f766564206c656e677468206973206e6f74206d617463680000000000606482015260840161087c565b81156118f9576118f982613baf565b61190289612c04565b60005b885181101561198b5760006119368a838151811061192557611925614976565b60200260200101519060a082901c90565b509050611976818b848151811061194f5761194f614976565b60200260200101518b858151811061196957611969614976565b6020026020010151613bef565b50508080611983906149a2565b915050611905565b50600061199661150b565b90506064815111156119f45760405162461bcd60e51b815260206004820152602160248201527f53746f726564206e6f64652073697a652073686f756c64206265203c3d2031306044820152600360fc1b606482015260840161087c565b50506007805460ff8481166401000000000264ff000000001987831662010000021664ff00ff0000198984166101000261ffff19909516938b1693909317939093179190911691909117179055600198975050505050505050565b600080546001600160a01b03163314611a7a5760405162461bcd60e51b815260040161087c906148c7565b6001600160a01b03851615611ad15760405162461bcd60e51b815260206004820152601f60248201527f5f64657374546f6b656e2073686f756c64206265206164647265737328302900604482015260640161087c565b7f00000000000000000000000000000000000000000000000000000000000000008415611b45576000611b0885610c178887612c9f565b9050611b3f7f00000000000000000000000000000000000000000000000000000000000000006000611b3a8489612ed4565b613003565b50611b4e565b84611b4e575060005b611b5881846130e8565b50600195945050505050565b60026001541415611b875760405162461bcd60e51b815260040161087c90614877565b60026001556001600160a01b037f0000000000000000000000000000000000000000000000000000000000000000166000908152601060209081526040808320338452909152902054811115611bdc57600080fd5b604051632e1a7d4d60e01b8152600481018290527f00000000000000000000000000000000000000000000000000000000000000006001600160a01b031690632e1a7d4d90602401600060405180830381600087803b158015611c3e57600080fd5b505af1158015611c52573d6000803e3d6000fd5b5050506001600160a01b037f0000000000000000000000000000000000000000000000000000000000000000166000908152601060209081526040808320338452909152902054611ca4915082612c9f565b7f00000000000000000000000000000000000000000000000000000000000000006001600160a01b031660009081526010602090815260408083203380855292528083209390935591518190839085908381818185875af1925050503d8060008114611d2c576040519150601f19603f3d011682016040523d82523d6000602084013e611d31565b606091505b509150915081611d7a5760405162461bcd60e51b81526020600482015260146024820152732330b4b632b2103a379039b2b7321022ba3432b960611b604482015260640161087c565b6001600160a01b037f0000000000000000000000000000000000000000000000000000000000000000166000908152601060209081526040808320338085529252918290205491517febff2602b3f468259e1e99f613fed6691f3a6526effe6ef3e768ba7ae7a36c4f92611e099273eeeeeeeeeeeeeeeeeeeeeeeeeeeeeeeeeeeeeeee929091899142906149bd565b60405180910390a15050600180555050565b600080546001600160a01b03163314611e465760405162461bcd60e51b815260040161087c906148c7565b6001600160a01b03861660009081526006602052604090205460ff16611e7e5760405162461bcd60e51b815260040161087c906148fc565b6001600160a01b038616611ea45760405162461bcd60e51b815260040161087c90614933565b60008415611edd57611ed860007f000000000000000000000000000000000000000000000000000000000000000087613003565b611f05565b84611f0557507f00000000000000000000000000000000000000000000000000000000000000005b7f00000000000000000000000000000000000000000000000000000000000000006001600160a01b0316876001600160a01b03161415611f6257507f00000000000000000000000000000000000000000000000000000000000000005b611f6c81856130e8565b611f7583613296565b60005b8651811015610eb957611fcd88888381518110611f9757611f97614976565b602002602001015160001c898481518110611fb457611fb4614976565b602002602001015160a01c6001600160601b03166132fe565b80611fd7816149a2565b915050611f78565b600260015414156120025760405162461bcd60e51b815260040161087c90614877565b60026001553361201a61014083016101208401614710565b6001600160a01b0316146120875760405162461bcd60e51b815260206004820152602e60248201527f596f752063616e206f6e6c79206578656375746520737761707320746f20796f60448201526d7572206f776e206164647265737360901b606482015260840161087c565b60408101356010600061209d6020850185614710565b6001600160a01b0316815260208101919091526040016000908120906120cb61014085016101208601614710565b6001600160a01b03166001600160a01b031681526020019081526020016000205410156121365760405162461bcd60e51b815260206004820152601960248201527810985b185b98d9481a5cc81b9bdd081cdd59999a58da595b9d603a1b604482015260640161087c565b6001600160a01b037f00000000000000000000000000000000000000000000000000000000000000001661216d6020830183614710565b6001600160a01b0316146121d55760405162461bcd60e51b815260206004820152602960248201527f66726f6d546f6b656e206d7573742062652074686520726571756972656420426044820152682a21ba103a37b5b2b760b91b606482015260840161087c565b6121de81612cb2565b6122456040820135601060006121f76020860186614710565b6001600160a01b03168152602081019190915260400160009081209061222561014086016101208701614710565b6001600160a01b0316815260208101919091526040016000205490612c9f565b601060006122566020850185614710565b6001600160a01b03168152602081019190915260400160009081209061228461014085016101208601614710565b6001600160a01b031681526020810191909152604001600020555060018055565b600080546001600160a01b031633146122d05760405162461bcd60e51b815260040161087c906148c7565b6000828152600c602052604090205460ff16156122ff5760405162461bcd60e51b815260040161087c90614a13565b60408051808201909152601d81527f42544320666c6f617420616d6f756e7420696e73756666696369656e7400000060208083019190915260008052600b90527fdf7de25b7f1fd6d0b5205f0e18f1f35bd7b8d84cce336588d184533ce43a6f765461236c918590613cbe565b60008052600b6020527fdf7de25b7f1fd6d0b5205f0e18f1f35bd7b8d84cce336588d184533ce43a6f76556123a082613cea565b5060015b92915050565b600260015414156123cd5760405162461bcd60e51b815260040161087c90614877565b6002600155346125f7576001600160a01b03821673eeeeeeeeeeeeeeeeeeeeeeeeeeeeeeeeeeeeeeee141561240157600080fd5b7f00000000000000000000000000000000000000000000000000000000000000006001600160a01b0316826001600160a01b0316141561244057600080fd5b6040516370a0823160e01b81523060048201526000906001600160a01b038416906370a082319060240160206040518083038186803b15801561248257600080fd5b505afa158015612496573d6000803e3d6000fd5b505050506040513d601f19601f820116820180604052508101906124ba91906148ae565b90506124d16001600160a01b038416333085613d05565b6040516370a0823160e01b81523060048201526000906001600160a01b038516906370a082319060240160206040518083038186803b15801561251357600080fd5b505afa158015612527573d6000803e3d6000fd5b505050506040513d601f19601f8201168201806040525081019061254b91906148ae565b905060006125598284612c9f565b6001600160a01b038616600090815260106020908152604080832033845290915290205490915061258a9082612ed4565b6001600160a01b03861660009081526010602090815260408083203380855292529182902083905590517f4e2ca0515ed1aef1395f66b5303bb5d6f1bf9d61a353fa53f73f8ac9973fa9f6926125e79289929091869142906149bd565b60405180910390a1505050612758565b6000341161260457600080fd5b7f00000000000000000000000000000000000000000000000000000000000000006001600160a01b031663d0e30db0346040518263ffffffff1660e01b81526004016000604051808303818588803b15801561265f57600080fd5b505af1158015612673573d6000803e3d6000fd5b5050506001600160a01b037f00000000000000000000000000000000000000000000000000000000000000001660009081526010602090815260408083203384529091529020546126c79250905034612ed4565b7f00000000000000000000000000000000000000000000000000000000000000006001600160a01b031660009081526010602090815260408083203380855292529182902083905590517f4e2ca0515ed1aef1395f66b5303bb5d6f1bf9d61a353fa53f73f8ac9973fa9f69261145b9273eeeeeeeeeeeeeeeeeeeeeeeeeeeeeeeeeeeeeeee929091349142906149bd565b505060018055565b600080546001600160a01b0316331461278b5760405162461bcd60e51b815260040161087c906148c7565b6001600160a01b03861660009081526006602052604090205460ff166127c35760405162461bcd60e51b815260040161087c906148fc565b6001600160a01b0386166127e95760405162461bcd60e51b815260040161087c90614933565b600083156128225761281d60007f000000000000000000000000000000000000000000000000000000000000000086613003565b612845565b507f00000000000000000000000000000000000000000000000000000000000000005b7f00000000000000000000000000000000000000000000000000000000000000006001600160a01b0316876001600160a01b031614156128a257507f00000000000000000000000000000000000000000000000000000000000000005b6128ac8786613d76565b6128b583613296565b505050506001600160a01b0392831660009081526010602090815260408083209490951682529290925291902055600190565b600080612902600954600854612ed490919063ffffffff16565b9050600081116129625760405162461bcd60e51b815260206004820152602560248201527f746f74616c5265776172644c5073466f724e6f6465206973206e6f7420706f73604482015264697469766560d81b606482015260840161087c565b600061296c61150b565b90506000805b82518110156129c7576129b383828151811061299057612990614976565b602002602001015160a01c6001600160601b031683612ed490919063ffffffff16565b9150806129bf816149a2565b915050612972565b506008546040516340c10f1960e01b815230600482015260248101919091527f00000000000000000000000000000000000000000000000000000000000000006001600160a01b0316906340c10f1990604401602060405180830381600087803b158015612a3457600080fd5b505af1158015612a48573d6000803e3d6000fd5b505050506040513d601f19601f82011682018060405250810190612a6c9190614a4a565b5060005b8251811015612b92577f00000000000000000000000000000000000000000000000000000000000000006001600160a01b031663a9059cbb848381518110612aba57612aba614976565b602002602001015160001c612b01856112f5888781518110612ade57612ade614976565b602002602001015160a01c6001600160601b03168a6138f790919063ffffffff16565b6040516001600160e01b031960e085901b1681526001600160a01b0390921660048301526024820152604401602060405180830381600087803b158015612b4757600080fd5b505af1158015612b5b573d6000803e3d6000fd5b505050506040513d601f19601f82011682018060405250810190612b7f9190614a4a565b5080612b8a816149a2565b915050612a70565b506040518381527f86dd6ae252e62228b47b3c1a12762cbf634952b2d29319b04f4f72fb153bcbdd9060200160405180910390a1505060006008819055600955506001919050565b6001600160a01b039182166000908152600b60205260408082205492909316815291909120549091565b6000546001600160a01b03163314612c2e5760405162461bcd60e51b815260040161087c906148c7565b6001600160a01b038116612c935760405162461bcd60e51b815260206004820152602660248201527f4f776e61626c653a206e6577206f776e657220697320746865207a65726f206160448201526564647265737360d01b606482015260840161087c565b612c9c81613b5f565b50565b6000612cab8284614a67565b9392505050565b73eeeeeeeeeeeeeeeeeeeeeeeeeeeeeeeeeeeeeeee612cd46020830183614710565b6001600160a01b03161415612d235760405162461bcd60e51b815260206004820152601560248201527455736520706174682077455448202d3e207742544360581b604482015260640161087c565b73eeeeeeeeeeeeeeeeeeeeeeeeeeeeeeeeeeeeeeee612d486040830160208401614710565b6001600160a01b03161415612d975760405162461bcd60e51b81526020600482015260156024820152740aae6ca40e0c2e8d040ee84a886405a7c40ee8aa89605b1b604482015260640161087c565b600073def171fe48cf0115b1d80b88dc8eab59176fee576001600160a01b031663d2c4b5986040518163ffffffff1660e01b815260040160206040518083038186803b158015612de657600080fd5b505afa158015612dfa573d6000803e3d6000fd5b505050506040513d601f19601f82011682018060405250810190612e1e9190614a7e565b9050612e46816040840135612e366020860186614710565b6001600160a01b03169190613dd3565b6040516354e3f31b60e01b815273def171fe48cf0115b1d80b88dc8eab59176fee57906354e3f31b90612e7d908590600401614bf1565b602060405180830381600087803b158015612e9757600080fd5b505af1158015612eab573d6000803e3d6000fd5b505050506040513d601f19601f82011682018060405250810190612ecf91906148ae565b505050565b6000612cab8284614da7565b60048054604080516020808201849052818301879052606082018690524260808084018290528451808503909101815260a084018086528151918401919091206101408501865280825260c085018a81523360e0870190815261010087018b8152610120909701948552600098895260039586905296909720915182559551600182015593516002850180546001600160a01b0319166001600160a01b0390921691909117905591519083015551920191909155612f9c613e94565b600454612faa906001612ed4565b60045560408051828152602081018590523391810191909152606081018390524260808201527f058800492a0e9d1ce3d60aa19b5a711354aaf0d831a5fa20197617dc4c0a573e9060a0015b60405180910390a1505050565b60408051808201825260208082527f5f737761703a20666c6f617420616d6f756e7420696e73756666696369656e74818301526001600160a01b0385166000908152600b909152919091205461305a918390613cbe565b6001600160a01b038084166000908152600b602052604080822093909355908516815220546130899082612ed4565b6001600160a01b038481166000818152600b60209081526040918290209490945580519182529185169281019290925281018290527fea368a40e9570069bb8e6511d668293ad2e1f03b0d982431fd223de9f3b70ca690606001612ff6565b806130f1575050565b7f00000000000000000000000000000000000000000000000000000000000000006001600160a01b0316826001600160a01b0316141561318f576009546131389082612ed4565b600955604080516001600160a01b0384168152602081018390526000818301819052606082015290517fe3debe835f6848edc082b32a1d729781d3bfcd7e14422d80bcaa6794d3816b2f9181900360800190a15050565b60006131996111da565b6001600160a01b0384166000908152600b60205260409020549091506131bf9083612ed4565b6001600160a01b0384166000908152600b60205260408120919091556007546131f9906064906112f590869062010000900460ff166138f7565b9050600061322b836112f5847f00000000000000000000000000000000000000000000000000000000000000006138f7565b60085490915061323b9082612ed4565b600855604080516001600160a01b038716815260208101869052908101829052606081018490527fe3debe835f6848edc082b32a1d729781d3bfcd7e14422d80bcaa6794d3816b2f9060800160405180910390a15050505050565b60005b81518110156132fa576001600c60008484815181106132ba576132ba614976565b6020026020010151815260200190815260200160002060006101000a81548160ff02191690831515021790555080806132f2906149a2565b915050613299565b5050565b7f00000000000000000000000000000000000000000000000000000000000000006001600160a01b0316836001600160a01b0316141561336557613362817f00000000000000000000000000000000000000000000000000000000000000006138f7565b90505b60405163a9059cbb60e01b81526001600160a01b0383811660048301526024820183905284169063a9059cbb90604401602060405180830381600087803b1580156133af57600080fd5b505af11580156133c3573d6000803e3d6000fd5b505050506040513d601f19601f820116820180604052508101906133e79190614a4a565b612ecf57600080fd5b6000818152600c602052604081205460ff161561341f5760405162461bcd60e51b815260040161087c90614a13565b8361346c5760405162461bcd60e51b815260206004820152601c60248201527f546865207472616e73616374696f6e206973206e6f742076616c696400000000604482015260640161087c565b8360a081901c600061347c6111da565b905060006134ae7f00000000000000000000000000000000000000000000000000000000000000006112f585856138f7565b6007549091506000906134d590612710906112f5908590640100000000900460ff166138f7565b9050876134e28383612c9f565b101561354d5760405162461bcd60e51b815260206004820152603460248201527f4572726f723a20616d6f756e744f66466c6f61742e737562287769746864726160448201527377616c4665657329203c205f6d696e657246656560601b606482015260840161087c565b600061355d89610c178585612c9f565b905060008061358d60007f0000000000000000000000000000000000000000000000000000000000000000612bda565b90925090506001600160a01b038d166135fe576135aa8585612c9f565b8210156135f95760405162461bcd60e51b815260206004820152601f60248201527f54686520666c6f61742062616c616e636520696e73756666696369656e742e00604482015260640161087c565b613691565b7f00000000000000000000000000000000000000000000000000000000000000006001600160a01b03168d6001600160a01b03161415613691576136428585612c9f565b8110156136915760405162461bcd60e51b815260206004820152601f60248201527f54686520666c6f61742062616c616e636520696e73756666696369656e742e00604482015260640161087c565b61369b8d856130e8565b6136a58d86613d76565b6136ae8a613cea565b7f00000000000000000000000000000000000000000000000000000000000000006001600160a01b03168d6001600160a01b031614156136f3576136f38d89856132fe565b604051630852cd8d60e31b8152600481018890527f00000000000000000000000000000000000000000000000000000000000000006001600160a01b0316906342966c6890602401602060405180830381600087803b15801561375557600080fd5b505af1158015613769573d6000803e3d6000fd5b505050506040513d601f19601f8201168201806040525081019061378d9190614a4a565b61379657600080fd5b604080516001600160a01b038a16815260208101899052908101869052606081018790526080810184905260a081018b90527fa9da34e5e4a956b744307ae7611795634e8365951073bf049d76b64b2ae7a0589060c00160405180910390a15060019c9b505050505050505050505050565b600080600061383860007f0000000000000000000000000000000000000000000000000000000000000000612bda565b9092509050600061385d60036112f560026112ef896138578989612ed4565b90612ed4565b90507f00000000000000000000000000000000000000000000000000000000000000006001600160a01b0316866001600160a01b03161480156138a95750806138a68387612ed4565b10155b156138ba57600193505050506123a4565b6001600160a01b0386161580156138da5750806138d78487612ed4565b10155b156138eb57600293505050506123a4565b50600095945050505050565b6000612cab8284614dbf565b6000612cab8284614dde565b6000818152600c602052604081205460ff161561393e5760405162461bcd60e51b815260040161087c90614a13565b8361398b5760405162461bcd60e51b815260206004820152601c60248201527f546865207472616e73616374696f6e206973206e6f742076616c696400000000604482015260640161087c565b8360a081901c600061399b6111da565b905060006139cd826112f5857f00000000000000000000000000000000000000000000000000000000000000006138f7565b905060006139db8a8561112a565b90506000816139eb5760006139fb565b6139fb6127106112f585856138f7565b9050888015613a0957508015155b15613a1357600080fd5b6001600160a01b037f0000000000000000000000000000000000000000000000000000000000000000166340c10f1987613a4d8685612c9f565b6040516001600160e01b031960e085901b1681526001600160a01b0390921660048301526024820152604401602060405180830381600087803b158015613a9357600080fd5b505af1158015613aa7573d6000803e3d6000fd5b505050506040513d601f19601f82011682018060405250810190613acb9190614a4a565b50600854613ad99082612ed4565b600855613ae68b86613fb7565b613aef88613cea565b604080516001600160a01b038816815260208101879052908101849052606081018590526080810182905260a081018990527fdfaf4e23f7030adafec91a682e05bf9fb30c721f9cec3d8bcfae0459c5362db19060c00160405180910390a15060019a9950505050505050505050565b600080546001600160a01b038381166001600160a01b0319831681178455604051919092169283917f8be0079c531659141344cd1fd0a4f28419497f9722a3daafe3b4186f6b6457e09190a35050565b6002819055604080518281524260208201527fa1cc12e33e9907b789fd3c10ea0afd9d3e563e2db44d84c7269534f1046d1ca1910160405180910390a150565b60008115613c1857506001600160a01b0383166000908152600d60205260408120556001612cab565b6001600160a01b0384166000908152600e602052604090205460ff16613c9c57600f805460018082019092557f8d1108e10bcb7c27dddfc02ed9d693a074039d026cf4ea4240b40f7d581ac8020180546001600160a01b0319166001600160a01b0387169081179091556000908152600e60205260409020805460ff191690911790555b50506001600160a01b03919091166000908152600d6020526040902055600190565b60008184841115613ce25760405162461bcd60e51b815260040161087c9190614e2c565b505050900390565b6000908152600c60205260409020805460ff19166001179055565b6040516001600160a01b0380851660248301528316604482015260648101829052613d709085906323b872dd60e01b906084015b60408051601f198184030181529190526020810180516001600160e01b03166001600160e01b031990931692909217909152613fda565b50505050565b613db381604051806060016040528060278152602001614e7c602791396001600160a01b0385166000908152600b60205260409020549190613cbe565b6001600160a01b039092166000908152600b602052604090209190915550565b604051636eb1769f60e11b81523060048201526001600160a01b038381166024830152600091839186169063dd62ed3e9060440160206040518083038186803b158015613e1f57600080fd5b505afa158015613e33573d6000803e3d6000fd5b505050506040513d601f19601f82011682018060405250810190613e5791906148ae565b613e619190614da7565b6040516001600160a01b038516602482015260448101829052909150613d7090859063095ea7b360e01b90606401613d39565b60055442905b60045481116132fa576002546000828152600360205260409020600401548391613ec49190612ed4565b1015613fa5576000818152600360208181526040808420909201546001600160a01b037f000000000000000000000000000000000000000000000000000000000000000016845260108252828420308552909152912054613f2491612c9f565b6001600160a01b037f0000000000000000000000000000000000000000000000000000000000000000166000908152601060209081526040808320308452825280832093909355838252600390819052918120818155600181018290556002810180546001600160a01b031916905591820181905560049091015560058190555b80613faf816149a2565b915050613e9a565b6001600160a01b0382166000908152600b6020526040902054613db39082612ed4565b600061402f826040518060400160405280602081526020017f5361666545524332303a206c6f772d6c6576656c2063616c6c206661696c6564815250856001600160a01b03166140ac9092919063ffffffff16565b805190915015612ecf578080602001905181019061404d9190614a4a565b612ecf5760405162461bcd60e51b815260206004820152602a60248201527f5361666545524332303a204552433230206f7065726174696f6e20646964206e6044820152691bdd081cdd58d8d9595960b21b606482015260840161087c565b60606140bb84846000856140c3565b949350505050565b6060824710156141245760405162461bcd60e51b815260206004820152602660248201527f416464726573733a20696e73756666696369656e742062616c616e636520666f6044820152651c8818d85b1b60d21b606482015260840161087c565b843b6141725760405162461bcd60e51b815260206004820152601d60248201527f416464726573733a2063616c6c20746f206e6f6e2d636f6e7472616374000000604482015260640161087c565b600080866001600160a01b0316858760405161418e9190614e5f565b60006040518083038185875af1925050503d80600081146141cb576040519150601f19603f3d011682016040523d82523d6000602084013e6141d0565b606091505b50915091506141e08282866141eb565b979650505050505050565b606083156141fa575081612cab565b82511561420a5782518084602001fd5b8160405162461bcd60e51b815260040161087c9190614e2c565b634e487b7160e01b600052600160045260246000fd5b60006101e0828403121561424d57600080fd5b50919050565b6000806040838503121561426657600080fd5b82359150602083013567ffffffffffffffff81111561428457600080fd5b6142908582860161423a565b9150509250929050565b6001600160a01b0381168114612c9c57600080fd5b80356142ba8161429a565b919050565b634e487b7160e01b600052604160045260246000fd5b604051601f8201601f1916810167ffffffffffffffff811182821017156142fe576142fe6142bf565b604052919050565b600067ffffffffffffffff821115614320576143206142bf565b5060051b60200190565b600082601f83011261433b57600080fd5b8135602061435061434b83614306565b6142d5565b82815260059290921b8401810191818101908684111561436f57600080fd5b8286015b8481101561438a5780358352918301918301614373565b509695505050505050565b60008060008060008060c087890312156143ae57600080fd5b86356143b98161429a565b955060208701356143c98161429a565b945060408701359350606087013592506080870135915060a087013567ffffffffffffffff8111156143fa57600080fd5b61440689828a0161432a565b9150509295509295509295565b60006020828403121561442557600080fd5b5035919050565b602080825282518282018190526000919060409081850190868401855b82811015614496578151805185528681015187860152858101516001600160a01b031686860152606080820151908601526080908101519085015260a09093019290850190600101614449565b5091979650505050505050565b600080600080608085870312156144b957600080fd5b84356144c48161429a565b966020860135965060408601359560600135945092505050565b600080604083850312156144f157600080fd5b82356144fc8161429a565b946020939093013593505050565b6000806040838503121561451d57600080fd5b82356145288161429a565b915060208301356145388161429a565b809150509250929050565b8015158114612c9c57600080fd5b6000806000806080858703121561456757600080fd5b84356145728161429a565b935060208501359250604085013561458981614543565b9396929550929360600135925050565b6020808252825182820181905260009190848201906040850190845b818110156145d1578351835292840192918401916001016145b5565b50909695505050505050565b803560ff811681146142ba57600080fd5b600080600080600080600080610100898b03121561460b57600080fd5b88356146168161429a565b975060208981013567ffffffffffffffff8082111561463457600080fd5b6146408d838e0161432a565b995060408c013591508082111561465657600080fd5b508a01601f81018c1361466857600080fd5b803561467661434b82614306565b81815260059190911b8201830190838101908e83111561469557600080fd5b928401925b828410156146bc5783356146ad81614543565b8252928401929084019061469a565b809a5050505050506146d060608a016145dd565b94506146de60808a016145dd565b93506146ec60a08a016145dd565b92506146fa60c08a016145dd565b915060e089013590509295985092959890939650565b60006020828403121561472257600080fd5b8135612cab8161429a565b600080600080600060a0868803121561474557600080fd5b85356147508161429a565b9450602086013567ffffffffffffffff8082111561476d57600080fd5b61477989838a0161432a565b95506040880135945060608801359350608088013591508082111561479d57600080fd5b506147aa8882890161432a565b9150509295509295909350565b6000602082840312156147c957600080fd5b813567ffffffffffffffff8111156147e057600080fd5b6140bb8482850161423a565b600080604083850312156147ff57600080fd5b50508035926020909101359150565b600080600080600060a0868803121561482657600080fd5b85356148318161429a565b945060208601356148418161429a565b93506040860135925060608601359150608086013567ffffffffffffffff81111561486b57600080fd5b6147aa8882890161432a565b6020808252601f908201527f5265656e7472616e637947756172643a207265656e7472616e742063616c6c00604082015260600190565b6000602082840312156148c057600080fd5b5051919050565b6020808252818101527f4f776e61626c653a2063616c6c6572206973206e6f7420746865206f776e6572604082015260600190565b6020808252601d908201527f5f64657374546f6b656e206973206e6f742077686974656c6973746564000000604082015260600190565b60208082526023908201527f5f64657374546f6b656e2073686f756c64206e6f74206265206164647265737360408201526228302960e81b606082015260800190565b634e487b7160e01b600052603260045260246000fd5b634e487b7160e01b600052601160045260246000fd5b60006000198214156149b6576149b661498c565b5060010190565b6001600160a01b03958616815293909416602084015260408301919091526060820152608081019190915260a00190565b600060ff821660ff84168060ff03821115614a0b57614a0b61498c565b019392505050565b60208082526018908201527f546865207478696420697320616c726561647920757365640000000000000000604082015260600190565b600060208284031215614a5c57600080fd5b8151612cab81614543565b600082821015614a7957614a7961498c565b500390565b600060208284031215614a9057600080fd5b8151612cab8161429a565b6000808335601e19843603018112614ab257600080fd5b830160208101925035905067ffffffffffffffff811115614ad257600080fd5b8060051b3603831315614ae457600080fd5b9250929050565b8183526000602080850194508260005b85811015614b29578135614b0e8161429a565b6001600160a01b031687529582019590820190600101614afb565b509495945050505050565b6000808335601e19843603018112614b4b57600080fd5b830160208101925035905067ffffffffffffffff811115614b6b57600080fd5b803603831315614ae457600080fd5b81835281816020850137506000828201602090810191909152601f909101601f19169091010190565b81835260006001600160fb1b03831115614bbc57600080fd5b8260051b8083602087013760009401602001938452509192915050565b80356001600160801b0319811681146142ba57600080fd5b60208152614c1260208201614c05846142af565b6001600160a01b03169052565b6000614c20602084016142af565b6001600160a01b0381166040840152506040830135606083015260608301356080830152608083013560a0830152614c5b60a0840184614a9b565b6101e08060c0860152614c7361020086018385614aeb565b9250614c8260c0870187614b34565b9250601f19808786030160e0880152614c9c858584614b7a565b9450614cab60e0890189614a9b565b94509150610100818887030181890152614cc6868685614ba3565b9550614cd4818a018a614a9b565b9550925050610120818887030181890152614cf0868685614ba3565b9550614cfd818a016142af565b9450506101409150614d19828801856001600160a01b03169052565b614d248289016142af565b93506101609150614d3f828801856001600160a01b03169052565b61018093508188013584880152614d5884890189614b34565b945091506101a0818887030181890152614d73868685614b7a565b95506101c094508089013585890152505050614d90828701614bd9565b6001600160801b0319169401939093529392505050565b60008219821115614dba57614dba61498c565b500190565b6000816000190483118215151615614dd957614dd961498c565b500290565b600082614dfb57634e487b7160e01b600052601260045260246000fd5b500490565b60005b83811015614e1b578181015183820152602001614e03565b83811115613d705750506000910152565b6020815260008251806020840152614e4b816040850160208701614e00565b601f01601f19169190910160400192915050565b60008251614e71818460208701614e00565b919091019291505056fe5f72656d6f7665466c6f61743a20666c6f617420616d6f756e7420696e73756666696369656e74a264697066735822122006b98af843f315c92d8405ba53b7c86c8338958fa6909dba95c8638768f1dbbf64736f6c63430008090033",
  "linkReferences": {},
  "deployedLinkReferences": {}
}