{
  "_format": "hh-sol-artifact-1",
  "contractName": "SwapContract",
  "sourceName": "contracts/SwapContract.sol",
  "abi": [
    {
      "inputs": [
        {
          "internalType": "address",
          "name": "_lpToken",
          "type": "address"
        },
        {
          "internalType": "address",
          "name": "_btct",
          "type": "address"
        },
        {
          "internalType": "address",
          "name": "_wETH",
          "type": "address"
        },
        {
          "internalType": "uint256",
          "name": "_existingBTCFloat",
          "type": "uint256"
        }
      ],
      "stateMutability": "nonpayable",
      "type": "constructor"
    },
    {
      "anonymous": false,
      "inputs": [
        {
          "indexed": false,
          "internalType": "address",
          "name": "token",
          "type": "address"
        },
        {
          "indexed": false,
          "internalType": "uint256",
          "name": "amountOfLP",
          "type": "uint256"
        },
        {
          "indexed": false,
          "internalType": "uint256",
          "name": "amountOfFloat",
          "type": "uint256"
        },
        {
          "indexed": false,
          "internalType": "uint256",
          "name": "currentPriceLP",
          "type": "uint256"
        },
        {
          "indexed": false,
          "internalType": "uint256",
          "name": "withdrawal",
          "type": "uint256"
        },
        {
          "indexed": false,
          "internalType": "bytes32",
          "name": "txid",
          "type": "bytes32"
        }
      ],
      "name": "BurnLPTokensForFloat",
      "type": "event"
    },
    {
      "anonymous": false,
      "inputs": [
        {
          "indexed": false,
          "internalType": "address",
          "name": "token",
          "type": "address"
        },
        {
          "indexed": false,
          "internalType": "address",
          "name": "user",
          "type": "address"
        },
        {
          "indexed": false,
          "internalType": "uint256",
          "name": "amount",
          "type": "uint256"
        },
        {
          "indexed": false,
          "internalType": "uint256",
          "name": "balance",
          "type": "uint256"
        },
        {
          "indexed": false,
          "internalType": "uint64",
          "name": "Timestamp",
          "type": "uint64"
        }
      ],
      "name": "Deposit",
      "type": "event"
    },
    {
      "anonymous": false,
      "inputs": [
        {
          "indexed": false,
          "internalType": "uint256",
          "name": "rewardLPTsForNodes",
          "type": "uint256"
        }
      ],
      "name": "DistributeNodeRewards",
      "type": "event"
    },
    {
      "anonymous": false,
      "inputs": [
        {
          "indexed": false,
          "internalType": "address",
          "name": "to",
          "type": "address"
        },
        {
          "indexed": false,
          "internalType": "uint256",
          "name": "amountOfFloat",
          "type": "uint256"
        },
        {
          "indexed": false,
          "internalType": "uint256",
          "name": "amountOfLP",
          "type": "uint256"
        },
        {
          "indexed": false,
          "internalType": "uint256",
          "name": "currentPriceLP",
          "type": "uint256"
        },
        {
          "indexed": false,
          "internalType": "uint256",
          "name": "depositFees",
          "type": "uint256"
        },
        {
          "indexed": false,
          "internalType": "bytes32",
          "name": "txid",
          "type": "bytes32"
        }
      ],
      "name": "IssueLPTokensForFloat",
      "type": "event"
    },
    {
      "anonymous": false,
      "inputs": [
        {
          "indexed": true,
          "internalType": "address",
          "name": "previousOwner",
          "type": "address"
        },
        {
          "indexed": true,
          "internalType": "address",
          "name": "newOwner",
          "type": "address"
        }
      ],
      "name": "OwnershipTransferred",
      "type": "event"
    },
    {
      "anonymous": false,
      "inputs": [
        {
          "indexed": false,
          "internalType": "address",
          "name": "feesToken",
          "type": "address"
        },
        {
          "indexed": false,
          "internalType": "uint256",
          "name": "rewards",
          "type": "uint256"
        },
        {
          "indexed": false,
          "internalType": "uint256",
          "name": "amountLPTokensForNode",
          "type": "uint256"
        },
        {
          "indexed": false,
          "internalType": "uint256",
          "name": "currentPriceLP",
          "type": "uint256"
        }
      ],
      "name": "RewardsCollection",
      "type": "event"
    },
    {
      "anonymous": false,
      "inputs": [
        {
          "indexed": false,
          "internalType": "address",
          "name": "from",
          "type": "address"
        },
        {
          "indexed": false,
          "internalType": "address",
          "name": "to",
          "type": "address"
        },
        {
          "indexed": false,
          "internalType": "uint256",
          "name": "amount",
          "type": "uint256"
        }
      ],
      "name": "Swap",
      "type": "event"
    },
    {
      "anonymous": false,
      "inputs": [
        {
          "indexed": false,
          "internalType": "bytes32",
          "name": "swap_id",
          "type": "bytes32"
        },
        {
          "indexed": false,
          "internalType": "uint256",
          "name": "input_amount",
          "type": "uint256"
        },
        {
          "indexed": false,
          "internalType": "uint256",
          "name": "output_amount",
          "type": "uint256"
        },
        {
          "indexed": false,
          "internalType": "string",
          "name": "dest_address_btc",
          "type": "string"
        },
        {
          "indexed": false,
          "internalType": "uint64",
          "name": "Timestamp",
          "type": "uint64"
        },
        {
          "indexed": false,
          "internalType": "uint64",
          "name": "ExpirationTime",
          "type": "uint64"
        }
      ],
      "name": "SwapTokensToBTC",
      "type": "event"
    },
    {
      "anonymous": false,
      "inputs": [
        {
          "indexed": false,
          "internalType": "address",
          "name": "token",
          "type": "address"
        },
        {
          "indexed": false,
          "internalType": "address",
          "name": "user",
          "type": "address"
        },
        {
          "indexed": false,
          "internalType": "uint256",
          "name": "amount",
          "type": "uint256"
        },
        {
          "indexed": false,
          "internalType": "uint256",
          "name": "balance",
          "type": "uint256"
        },
        {
          "indexed": false,
          "internalType": "uint64",
          "name": "Timestamp",
          "type": "uint64"
        }
      ],
      "name": "Withdraw",
      "type": "event"
    },
    {
      "stateMutability": "nonpayable",
      "type": "fallback"
    },
    {
      "inputs": [],
      "name": "BTCT_ADDR",
      "outputs": [
        {
          "internalType": "address",
          "name": "",
          "type": "address"
        }
      ],
      "stateMutability": "view",
      "type": "function"
    },
    {
      "inputs": [
        {
          "internalType": "address",
          "name": "_token",
          "type": "address"
        },
        {
          "internalType": "address",
          "name": "_user",
          "type": "address"
        }
      ],
      "name": "balanceOf",
      "outputs": [
        {
          "internalType": "uint256",
          "name": "",
          "type": "uint256"
        }
      ],
      "stateMutability": "view",
      "type": "function"
    },
    {
      "inputs": [
        {
          "internalType": "address",
          "name": "_newOwner",
          "type": "address"
        },
        {
          "internalType": "bytes32[]",
          "name": "_rewardAddressAndAmounts",
          "type": "bytes32[]"
        },
        {
          "internalType": "bool[]",
          "name": "_isRemoved",
          "type": "bool[]"
        },
        {
          "internalType": "uint8",
          "name": "_churnedInCount",
          "type": "uint8"
        },
        {
          "internalType": "uint8",
          "name": "_tssThreshold",
          "type": "uint8"
        },
        {
          "internalType": "uint8",
          "name": "_nodeRewardsRatio",
          "type": "uint8"
        },
        {
          "internalType": "uint8",
          "name": "_withdrawalFeeBPS",
          "type": "uint8"
        }
      ],
      "name": "churn",
      "outputs": [
        {
          "internalType": "bool",
          "name": "",
          "type": "bool"
        }
      ],
      "stateMutability": "nonpayable",
      "type": "function"
    },
    {
      "inputs": [],
      "name": "churnedInCount",
      "outputs": [
        {
          "internalType": "uint8",
          "name": "",
          "type": "uint8"
        }
      ],
      "stateMutability": "view",
      "type": "function"
    },
    {
      "inputs": [
        {
          "internalType": "address",
          "name": "_destToken",
          "type": "address"
        },
        {
          "internalType": "uint256",
          "name": "_incomingAmount",
          "type": "uint256"
        },
        {
          "internalType": "uint256",
          "name": "_minerFee",
          "type": "uint256"
        },
        {
          "internalType": "uint256",
          "name": "_rewardsAmount",
          "type": "uint256"
        }
      ],
      "name": "collectSwapFeesForBTC",
      "outputs": [
        {
          "internalType": "bool",
          "name": "",
          "type": "bool"
        }
      ],
      "stateMutability": "nonpayable",
      "type": "function"
    },
    {
      "inputs": [],
      "name": "depositFeesBPS",
      "outputs": [
        {
          "internalType": "uint8",
          "name": "",
          "type": "uint8"
        }
      ],
      "stateMutability": "view",
      "type": "function"
    },
    {
      "inputs": [],
      "name": "distributeNodeRewards",
      "outputs": [
        {
          "internalType": "bool",
          "name": "",
          "type": "bool"
        }
      ],
      "stateMutability": "nonpayable",
      "type": "function"
    },
    {
      "inputs": [],
      "name": "expirationTime",
      "outputs": [
        {
          "internalType": "uint64",
          "name": "",
          "type": "uint64"
        }
      ],
      "stateMutability": "view",
      "type": "function"
    },
    {
      "inputs": [],
      "name": "feesLPTokensForNode",
      "outputs": [
        {
          "internalType": "uint256",
          "name": "",
          "type": "uint256"
        }
      ],
      "stateMutability": "view",
      "type": "function"
    },
    {
      "inputs": [],
      "name": "getActiveNodes",
      "outputs": [
        {
          "internalType": "bytes32[]",
          "name": "",
          "type": "bytes32[]"
        }
      ],
      "stateMutability": "view",
      "type": "function"
    },
    {
      "inputs": [],
      "name": "getCurrentPriceLP",
      "outputs": [
        {
          "internalType": "uint256",
          "name": "nowPrice",
          "type": "uint256"
        }
      ],
      "stateMutability": "view",
      "type": "function"
    },
    {
      "inputs": [
        {
          "internalType": "address",
          "name": "_token",
          "type": "address"
        },
        {
          "internalType": "uint256",
          "name": "_amountOfFloat",
          "type": "uint256"
        }
      ],
      "name": "getDepositFeeRate",
      "outputs": [
        {
          "internalType": "uint256",
          "name": "depositFeeRate",
          "type": "uint256"
        }
      ],
      "stateMutability": "view",
      "type": "function"
    },
    {
      "inputs": [
        {
          "internalType": "address",
          "name": "_tokenA",
          "type": "address"
        },
        {
          "internalType": "address",
          "name": "_tokenB",
          "type": "address"
        }
      ],
      "name": "getFloatReserve",
      "outputs": [
        {
          "internalType": "uint256",
          "name": "reserveA",
          "type": "uint256"
        },
        {
          "internalType": "uint256",
          "name": "reserveB",
          "type": "uint256"
        }
      ],
      "stateMutability": "view",
      "type": "function"
    },
    {
      "inputs": [],
      "name": "initialExchangeRate",
      "outputs": [
        {
          "internalType": "uint256",
          "name": "",
          "type": "uint256"
        }
      ],
      "stateMutability": "view",
      "type": "function"
    },
    {
      "inputs": [
        {
          "internalType": "bytes32",
          "name": "_txid",
          "type": "bytes32"
        }
      ],
      "name": "isTxUsed",
      "outputs": [
        {
          "internalType": "bool",
          "name": "",
          "type": "bool"
        }
      ],
      "stateMutability": "view",
      "type": "function"
    },
    {
      "inputs": [],
      "name": "lockedLPTokensForNode",
      "outputs": [
        {
          "internalType": "uint256",
          "name": "",
          "type": "uint256"
        }
      ],
      "stateMutability": "view",
      "type": "function"
    },
    {
      "inputs": [],
      "name": "lpToken",
      "outputs": [
        {
          "internalType": "address",
          "name": "",
          "type": "address"
        }
      ],
      "stateMutability": "view",
      "type": "function"
    },
    {
      "inputs": [
        {
          "internalType": "address",
          "name": "_destToken",
          "type": "address"
        },
        {
          "internalType": "bytes32[]",
          "name": "_addressesAndAmounts",
          "type": "bytes32[]"
        },
        {
          "internalType": "uint256",
          "name": "_totalSwapped",
          "type": "uint256"
        },
        {
          "internalType": "uint256",
          "name": "_rewardsAmount",
          "type": "uint256"
        },
        {
          "internalType": "bytes32[]",
          "name": "_redeemedFloatTxIds",
          "type": "bytes32[]"
        }
      ],
      "name": "multiTransferERC20TightlyPacked",
      "outputs": [
        {
          "internalType": "bool",
          "name": "",
          "type": "bool"
        }
      ],
      "stateMutability": "nonpayable",
      "type": "function"
    },
    {
      "inputs": [],
      "name": "nodeRewardsRatio",
      "outputs": [
        {
          "internalType": "uint8",
          "name": "",
          "type": "uint8"
        }
      ],
      "stateMutability": "view",
      "type": "function"
    },
    {
      "inputs": [],
      "name": "owner",
      "outputs": [
        {
          "internalType": "address",
          "name": "",
          "type": "address"
        }
      ],
      "stateMutability": "view",
      "type": "function"
    },
    {
      "inputs": [
        {
          "internalType": "address",
          "name": "_token",
          "type": "address"
        },
        {
          "internalType": "bytes32",
          "name": "_addressesAndAmountOfFloat",
          "type": "bytes32"
        },
        {
          "internalType": "bool",
          "name": "_zerofee",
          "type": "bool"
        },
        {
          "internalType": "bytes32",
          "name": "_txid",
          "type": "bytes32"
        }
      ],
      "name": "recordIncomingFloat",
      "outputs": [
        {
          "internalType": "bool",
          "name": "",
          "type": "bool"
        }
      ],
      "stateMutability": "nonpayable",
      "type": "function"
    },
    {
      "inputs": [
        {
          "internalType": "address",
          "name": "_token",
          "type": "address"
        },
        {
          "internalType": "bytes32",
          "name": "_addressesAndAmountOfLPtoken",
          "type": "bytes32"
        },
        {
          "internalType": "uint256",
          "name": "_minerFee",
          "type": "uint256"
        },
        {
          "internalType": "bytes32",
          "name": "_txid",
          "type": "bytes32"
        }
      ],
      "name": "recordOutcomingFloat",
      "outputs": [
        {
          "internalType": "bool",
          "name": "",
          "type": "bool"
        }
      ],
      "stateMutability": "nonpayable",
      "type": "function"
    },
    {
      "inputs": [
        {
          "internalType": "address",
          "name": "_destToken",
          "type": "address"
        },
        {
          "internalType": "address",
          "name": "_to",
          "type": "address"
        },
        {
          "internalType": "uint256",
          "name": "_amount",
          "type": "uint256"
        },
        {
          "internalType": "uint256",
          "name": "_totalSwapped",
          "type": "uint256"
        },
        {
          "internalType": "bytes32[]",
          "name": "_redeemedFloatTxIds",
          "type": "bytes32[]"
        }
      ],
      "name": "recordSkyPoolsTX",
      "outputs": [
        {
          "internalType": "bool",
          "name": "",
          "type": "bool"
        }
      ],
      "stateMutability": "nonpayable",
      "type": "function"
    },
    {
      "inputs": [
        {
          "internalType": "uint256",
          "name": "_minerFee",
          "type": "uint256"
        },
        {
          "internalType": "bytes32",
          "name": "_txid",
          "type": "bytes32"
        }
      ],
      "name": "recordUTXOSweepMinerFee",
      "outputs": [
        {
          "internalType": "bool",
          "name": "",
          "type": "bool"
        }
      ],
      "stateMutability": "nonpayable",
      "type": "function"
    },
    {
      "inputs": [
        {
          "internalType": "address",
          "name": "_token",
          "type": "address"
        },
        {
          "internalType": "uint256",
          "name": "_amount",
          "type": "uint256"
        }
      ],
      "name": "redeemERC20Token",
      "outputs": [
        {
          "internalType": "bool",
          "name": "",
          "type": "bool"
        }
      ],
      "stateMutability": "nonpayable",
      "type": "function"
    },
    {
      "inputs": [
        {
          "internalType": "uint256",
          "name": "_amount",
          "type": "uint256"
        }
      ],
      "name": "redeemEther",
      "outputs": [],
      "stateMutability": "payable",
      "type": "function"
    },
    {
      "inputs": [],
      "name": "renounceOwnership",
      "outputs": [],
      "stateMutability": "nonpayable",
      "type": "function"
    },
    {
      "inputs": [
        {
          "internalType": "uint64",
          "name": "_expirationTime",
          "type": "uint64"
        }
      ],
      "name": "setExpirationTime",
      "outputs": [],
      "stateMutability": "nonpayable",
      "type": "function"
    },
    {
      "inputs": [
        {
          "internalType": "address",
          "name": "_destToken",
          "type": "address"
        },
        {
          "internalType": "address",
          "name": "_to",
          "type": "address"
        },
        {
          "internalType": "uint256",
          "name": "_amount",
          "type": "uint256"
        },
        {
          "internalType": "uint256",
          "name": "_totalSwapped",
          "type": "uint256"
        },
        {
          "internalType": "uint256",
          "name": "_rewardsAmount",
          "type": "uint256"
        },
        {
          "internalType": "bytes32[]",
          "name": "_redeemedFloatTxIds",
          "type": "bytes32[]"
        }
      ],
      "name": "singleTransferERC20",
      "outputs": [
        {
          "internalType": "bool",
          "name": "",
          "type": "bool"
        }
      ],
      "stateMutability": "nonpayable",
      "type": "function"
    },
    {
      "inputs": [
        {
          "internalType": "bool",
          "name": "_fullCheck",
          "type": "bool"
        }
      ],
      "name": "spCleanUpOldSPTXs",
      "outputs": [],
      "stateMutability": "nonpayable",
      "type": "function"
    },
    {
      "inputs": [
        {
          "internalType": "address",
          "name": "_token",
          "type": "address"
        },
        {
          "internalType": "uint256",
          "name": "_amount",
          "type": "uint256"
        }
      ],
      "name": "spDeposit",
      "outputs": [],
      "stateMutability": "payable",
      "type": "function"
    },
    {
      "inputs": [],
      "name": "spGetPendingSwaps",
      "outputs": [
        {
          "components": [
            {
              "internalType": "bytes32",
              "name": "SwapID",
              "type": "bytes32"
            },
            {
              "internalType": "string",
              "name": "DestAddr",
              "type": "string"
            },
            {
              "internalType": "uint256",
              "name": "AmountWBTC",
              "type": "uint256"
            },
            {
              "internalType": "uint64",
              "name": "Timestamp",
              "type": "uint64"
            },
            {
              "internalType": "uint64",
              "name": "ExpirationTime",
              "type": "uint64"
            }
          ],
          "internalType": "struct SwapContract.spPendingTx[]",
          "name": "data",
          "type": "tuple[]"
        }
      ],
      "stateMutability": "view",
      "type": "function"
    },
    {
      "inputs": [
        {
          "components": [
            {
              "internalType": "address",
              "name": "fromToken",
              "type": "address"
            },
            {
              "internalType": "address",
              "name": "toToken",
              "type": "address"
            },
            {
              "internalType": "uint256",
              "name": "fromAmount",
              "type": "uint256"
            },
            {
              "internalType": "uint256",
              "name": "toAmount",
              "type": "uint256"
            },
            {
              "internalType": "uint256",
              "name": "expectedAmount",
              "type": "uint256"
            },
            {
              "internalType": "address[]",
              "name": "callees",
              "type": "address[]"
            },
            {
              "internalType": "bytes",
              "name": "exchangeData",
              "type": "bytes"
            },
            {
              "internalType": "uint256[]",
              "name": "startIndexes",
              "type": "uint256[]"
            },
            {
              "internalType": "uint256[]",
              "name": "values",
              "type": "uint256[]"
            },
            {
              "internalType": "address payable",
              "name": "beneficiary",
              "type": "address"
            },
            {
              "internalType": "address payable",
              "name": "partner",
              "type": "address"
            },
            {
              "internalType": "uint256",
              "name": "feePercent",
              "type": "uint256"
            },
            {
              "internalType": "bytes",
              "name": "permit",
              "type": "bytes"
            },
            {
              "internalType": "uint256",
              "name": "deadline",
              "type": "uint256"
            },
            {
              "internalType": "bytes16",
              "name": "uuid",
              "type": "bytes16"
            }
          ],
          "internalType": "struct Utils.SimpleData",
          "name": "_data",
          "type": "tuple"
        }
      ],
      "name": "spParaSwapBTC2Token",
      "outputs": [],
      "stateMutability": "payable",
      "type": "function"
    },
    {
      "inputs": [
        {
          "internalType": "string",
          "name": "_destinationAddressForBTC",
          "type": "string"
        },
        {
          "components": [
            {
              "internalType": "address",
              "name": "fromToken",
              "type": "address"
            },
            {
              "internalType": "address",
              "name": "toToken",
              "type": "address"
            },
            {
              "internalType": "uint256",
              "name": "fromAmount",
              "type": "uint256"
            },
            {
              "internalType": "uint256",
              "name": "toAmount",
              "type": "uint256"
            },
            {
              "internalType": "uint256",
              "name": "expectedAmount",
              "type": "uint256"
            },
            {
              "internalType": "address[]",
              "name": "callees",
              "type": "address[]"
            },
            {
              "internalType": "bytes",
              "name": "exchangeData",
              "type": "bytes"
            },
            {
              "internalType": "uint256[]",
              "name": "startIndexes",
              "type": "uint256[]"
            },
            {
              "internalType": "uint256[]",
              "name": "values",
              "type": "uint256[]"
            },
            {
              "internalType": "address payable",
              "name": "beneficiary",
              "type": "address"
            },
            {
              "internalType": "address payable",
              "name": "partner",
              "type": "address"
            },
            {
              "internalType": "uint256",
              "name": "feePercent",
              "type": "uint256"
            },
            {
              "internalType": "bytes",
              "name": "permit",
              "type": "bytes"
            },
            {
              "internalType": "uint256",
              "name": "deadline",
              "type": "uint256"
            },
            {
              "internalType": "bytes16",
              "name": "uuid",
              "type": "bytes16"
            }
          ],
          "internalType": "struct Utils.SimpleData",
          "name": "_data",
          "type": "tuple"
        }
      ],
      "name": "spParaSwapToken2BTC",
      "outputs": [],
      "stateMutability": "payable",
      "type": "function"
    },
    {
      "inputs": [
        {
          "internalType": "uint256",
          "name": "",
          "type": "uint256"
        }
      ],
      "name": "spPendingTXs",
      "outputs": [
        {
          "internalType": "bytes32",
          "name": "SwapID",
          "type": "bytes32"
        },
        {
          "internalType": "string",
          "name": "DestAddr",
          "type": "string"
        },
        {
          "internalType": "uint256",
          "name": "AmountWBTC",
          "type": "uint256"
        },
        {
          "internalType": "uint64",
          "name": "Timestamp",
          "type": "uint64"
        },
        {
          "internalType": "uint64",
          "name": "ExpirationTime",
          "type": "uint64"
        }
      ],
      "stateMutability": "view",
      "type": "function"
    },
    {
      "inputs": [
        {
          "internalType": "address",
          "name": "",
          "type": "address"
        },
        {
          "internalType": "address",
          "name": "",
          "type": "address"
        }
      ],
      "name": "tokens",
      "outputs": [
        {
          "internalType": "uint256",
          "name": "",
          "type": "uint256"
        }
      ],
      "stateMutability": "view",
      "type": "function"
    },
    {
      "inputs": [
        {
          "internalType": "address",
          "name": "newOwner",
          "type": "address"
        }
      ],
      "name": "transferOwnership",
      "outputs": [],
      "stateMutability": "nonpayable",
      "type": "function"
    },
    {
      "inputs": [],
      "name": "tssThreshold",
      "outputs": [
        {
          "internalType": "uint8",
          "name": "",
          "type": "uint8"
        }
      ],
      "stateMutability": "view",
      "type": "function"
    },
    {
      "inputs": [],
      "name": "wETH",
      "outputs": [
        {
          "internalType": "address",
          "name": "",
          "type": "address"
        }
      ],
      "stateMutability": "view",
      "type": "function"
    },
    {
      "inputs": [
        {
          "internalType": "address",
          "name": "",
          "type": "address"
        }
      ],
      "name": "whitelist",
      "outputs": [
        {
          "internalType": "bool",
          "name": "",
          "type": "bool"
        }
      ],
      "stateMutability": "view",
      "type": "function"
    },
    {
      "inputs": [],
      "name": "withdrawalFeeBPS",
      "outputs": [
        {
          "internalType": "uint8",
          "name": "",
          "type": "uint8"
        }
      ],
      "stateMutability": "view",
      "type": "function"
    },
    {
      "stateMutability": "payable",
      "type": "receive"
    }
  ],
  "bytecode": "0x6101206040523480156200001257600080fd5b506040516200584a3803806200584a833981016040819052620000359162000347565b6200004033620002da565b60018055600280546001600160401b03191662093a801790556000600581905560049081556001600160a01b0380841661010052851660a08190526040805163313ce56760e01b81529051919263313ce567928282019260209290829003018186803b158015620000b057600080fd5b505afa158015620000c5573d6000803e3d6000fd5b505050506040513d601f19601f82011682018060405250810190620000eb919062000399565b620000f890600a620004da565b60e0526001600160a01b03831660808190526007805464ffffff000019166414324200001790556040805163313ce56760e01b815290516008929163313ce567916004808301926020929190829003018186803b1580156200015957600080fd5b505afa1580156200016e573d6000803e3d6000fd5b505050506040513d601f19601f8201168201806040525081019062000194919062000399565b620001a09190620004eb565b620001ad90600a620004da565b60c08181525050836001600160a01b031663313ce5676040518163ffffffff1660e01b815260040160206040518083038186803b158015620001ee57600080fd5b505afa15801562000203573d6000803e3d6000fd5b505050506040513d601f19601f8201168201806040525081019062000229919062000399565b6200023690600a620004da565b600a556000600881905560098190556001600160a01b039384168152600660209081526040808320805460ff199081166001908117909255979096168352822080548716861790559080527f54cdd369e4e8a8515e52ca72ec816c2101831ad1f18bf44102ed171459c9b4f8805490951690931790935550600b90527fdf7de25b7f1fd6d0b5205f0e18f1f35bd7b8d84cce336588d184533ce43a6f765562000511565b600080546001600160a01b038381166001600160a01b0319831681178455604051919092169283917f8be0079c531659141344cd1fd0a4f28419497f9722a3daafe3b4186f6b6457e09190a35050565b80516001600160a01b03811681146200034257600080fd5b919050565b600080600080608085870312156200035e57600080fd5b62000369856200032a565b935062000379602086016200032a565b925062000389604086016200032a565b6060959095015193969295505050565b600060208284031215620003ac57600080fd5b815160ff81168114620003be57600080fd5b9392505050565b634e487b7160e01b600052601160045260246000fd5b600181815b808511156200041c578160001904821115620004005762000400620003c5565b808516156200040e57918102915b93841c9390800290620003e0565b509250929050565b6000826200043557506001620004d4565b816200044457506000620004d4565b81600181146200045d5760028114620004685762000488565b6001915050620004d4565b60ff8411156200047c576200047c620003c5565b50506001821b620004d4565b5060208310610133831016604e8410600b8410161715620004ad575081810a620004d4565b620004b98383620003db565b8060001904821115620004d057620004d0620003c5565b0290505b92915050565b6000620003be60ff84168362000424565b600060ff821660ff841680821015620005085762000508620003c5565b90039392505050565b60805160a05160c05160e051610100516151a4620006a660003960008181610258015281816107cb01528181611b7f01528181611bdb01528181611c4801528181611c9701528181611d0a015281816124f00152818161256a01526125b30152600081816112bb015281816134120152818161368c0152613c7f0152600061354501526000818161052f01528181610ce001528181610d1b0152818161120701528181611e8701528181611ec2015281816127310152818161276c015281816128d20152818161296501528181613301015281816139100152613cf301526000818161033f015281816108d00152818161091b01528181610c8c01528181610cbe0152818161113c015281816111db01528181611ade01528181611b2001528181611e3301528181611e65015281816120f00152818161238b015281816126dd0152818161270f01528181612b7801528181612bbe01528181612ca501528181612ceb015281816135070152818161377001528181613807015281816138b701528181613a1b0152613a6801526151a46000f3fe6080604052600436106102485760003560e01c80636d019f3511610139578063ca0707e7116100b6578063ec4827291161007a578063ec48272914610764578063f1d3237214610799578063f2428621146107b9578063f2fde38b146107ed578063f7824bc71461080d578063f7888aec1461082357610287565b8063ca0707e7146106b4578063d6b2779a146106c7578063da284dcc146106e7578063e6ca20841461071f578063e9e9bf6a1461074f57610287565b80639b19251a116100fd5780639b19251a1461060f578063ad289e761461063f578063b59b54c31461065f578063b6268e5d14610672578063c810a5391461069457610287565b80636d019f3514610593578063715018a6146105a95780638006cc3e146105be5780638535490f146105de5780638da5cb5b146105f157610287565b80633b6fa127116101c7578063508493bc1161018b578063508493bc146104c55780635fc2598c146104fd5780635fcbd2851461051d57806363f289d9146105515780636b51e9191461057157610287565b80633b6fa1271461042f578063424192551461044f57806345137e27146104705780634db75485146104855780634e54cee0146104a557610287565b806312d1441e1161020e57806312d1441e146103795780631ab7e9371461039857806320199e99146103c95780632586c562146103eb5780632d55282d1461040b57610287565b806289356f14610299578062ba84f4146102ca5780630b68134d146102dd5780630d63aca7146102fd5780630f9094861461032d57610287565b3661028757336001600160a01b037f0000000000000000000000000000000000000000000000000000000000000000161461028557610285614352565b005b34801561029357600080fd5b50600080fd5b3480156102a557600080fd5b506007546102b39060ff1681565b60405160ff90911681526020015b60405180910390f35b6102856102d83660046143c1565b610869565b3480156102e957600080fd5b506007546102b39062010000900460ff1681565b34801561030957600080fd5b5061031d61031836600461452b565b610bf4565b60405190151581526020016102c1565b34801561033957600080fd5b506103617f000000000000000000000000000000000000000000000000000000000000000081565b6040516001600160a01b0390911681526020016102c1565b34801561038557600080fd5b506007546102b390610100900460ff1681565b3480156103a457600080fd5b506103b86103b33660046145a8565b610d67565b6040516102c1959493929190614619565b3480156103d557600080fd5b506103de610e2d565b6040516102c19190614659565b3480156103f757600080fd5b5061031d6104063660046146fd565b61101e565b34801561041757600080fd5b5061042160085481565b6040519081526020016102c1565b34801561043b57600080fd5b5061042161044a366004614738565b61111f565b34801561045b57600080fd5b506007546102b3906301000000900460ff1681565b34801561047c57600080fd5b506104216111cf565b34801561049157600080fd5b5061031d6104a0366004614738565b611301565b3480156104b157600080fd5b5061031d6104c0366004614783565b61143a565b3480156104d157600080fd5b506104216104e036600461489a565b601060209081526000928352604080842090915290825290205481565b34801561050957600080fd5b506102856105183660046148d3565b6117ac565b34801561052957600080fd5b506103617f000000000000000000000000000000000000000000000000000000000000000081565b34801561055d57600080fd5b5061031d61056c3660046148fc565b6117f9565b34801561057d57600080fd5b50610586611899565b6040516102c19190614944565b34801561059f57600080fd5b50610421600a5481565b3480156105b557600080fd5b50610285611a24565b3480156105ca57600080fd5b5061031d6105d93660046146fd565b611a5a565b6102856105ec3660046145a8565b611b75565b3480156105fd57600080fd5b506000546001600160a01b0316610361565b34801561061b57600080fd5b5061031d61062a366004614988565b60066020526000908152604090205460ff1681565b34801561064b57600080fd5b5061031d61065a3660046149a5565b611d9b565b61028561066d366004614a2e565b611f5f565b34801561067e57600080fd5b506007546102b390640100000000900460ff1681565b3480156106a057600080fd5b5061031d6106af366004614a62565b612256565b6102856106c2366004614738565b61235a565b3480156106d357600080fd5b5061031d6106e2366004614a84565b612645565b3480156106f357600080fd5b50600254610707906001600160401b031681565b6040516001600160401b0390911681526020016102c1565b34801561072b57600080fd5b5061031d61073a3660046145a8565b6000908152600c602052604090205460ff1690565b34801561075b57600080fd5b5061031d6127d2565b34801561077057600080fd5b5061078461077f36600461489a565b612ac4565b604080519283526020830191909152016102c1565b3480156107a557600080fd5b506102856107b4366004614aec565b612aee565b3480156107c557600080fd5b506103617f000000000000000000000000000000000000000000000000000000000000000081565b3480156107f957600080fd5b50610285610808366004614988565b612d74565b34801561081957600080fd5b5061042160095481565b34801561082f57600080fd5b5061042161083e36600461489a565b6001600160a01b03918216600090815260106020908152604080832093909416825291909152205490565b600260015414156108c15760405162461bcd60e51b815260206004820152601f60248201527f5265656e7472616e637947756172643a207265656e7472616e742063616c6c0060448201526064015b60405180910390fd5b60026001556001600160a01b037f0000000000000000000000000000000000000000000000000000000000000000166108fd6020830183614988565b6001600160a01b0316141561091157600080fd5b6001600160a01b037f00000000000000000000000000000000000000000000000000000000000000001661094b6040830160208401614988565b6001600160a01b03161461099a5760405162461bcd60e51b815260206004820152601660248201527526bab9ba1039bbb0b8103a3790212a21903a37b5b2b760511b60448201526064016108b8565b306109ad61014083016101208401614988565b6001600160a01b031614610a295760405162461bcd60e51b815260206004820152603c60248201527f596f752063616e206f6e6c79206578656375746520666c6f772032207377617060448201527f7320746f207468697320636f6e7472616374277320616464726573730000000060648201526084016108b8565b604081013560106000610a3f6020850185614988565b6001600160a01b03168152602080820192909252604090810160009081203382529092529020541015610ab05760405162461bcd60e51b815260206004820152601960248201527810985b185b98d9481a5cc81b9bdd081cdd59999a58da595b9d603a1b60448201526064016108b8565b610af6604082013560106000610ac96020860186614988565b6001600160a01b031681526020808201929092526040908101600090812033825290925290205490612e0f565b60106000610b076020850185614988565b6001600160a01b0316815260208082019290925260409081016000908120338252909252812091909155610b3a82612e22565b9050610b818160106000610b546040870160208801614988565b6001600160a01b031681526020808201929092526040908101600090812030825290925290205490613096565b60106000610b956040860160208701614988565b6001600160a01b03166001600160a01b031681526020019081526020016000206000306001600160a01b03166001600160a01b0316815260200190815260200160002081905550610beb838284604001356130a2565b50506001805550565b600080546001600160a01b03163314610c1f5760405162461bcd60e51b81526004016108b890614b09565b6001600160a01b03871660009081526006602052604090205460ff16610c575760405162461bcd60e51b81526004016108b890614b3e565b6001600160a01b038716610c7d5760405162461bcd60e51b81526004016108b890614b75565b60008415610cb657610cb160007f000000000000000000000000000000000000000000000000000000000000000087613209565b610cde565b84610cde57507f00000000000000000000000000000000000000000000000000000000000000005b7f00000000000000000000000000000000000000000000000000000000000000006001600160a01b0316886001600160a01b03161415610d3b57507f00000000000000000000000000000000000000000000000000000000000000005b610d4581856132f6565b610d4e836134a1565b610d59888888613505565b506001979650505050505050565b60036020526000908152604090208054600182018054919291610d8990614bb8565b80601f0160208091040260200160405190810160405280929190818152602001828054610db590614bb8565b8015610e025780601f10610dd757610100808354040283529160200191610e02565b820191906000526020600020905b815481529060010190602001808311610de557829003601f168201915b5050505060028301546003909301549192916001600160401b038082169250600160401b9091041685565b60606000610e48600554600454612e0f90919063ffffffff16565b6001600160401b03811115610e5f57610e5f614368565b604051908082528060200260200182016040528015610eb857816020015b6040805160a081018252600080825260606020808401829052938301829052820181905260808201528252600019909201910181610e7d5790505b5091506000610ed3600160055461309690919063ffffffff16565b90505b60045481116110195760036000610ef86005548561309690919063ffffffff16565b81526020019081526020016000206040518060a001604052908160008201548152602001600182018054610f2b90614bb8565b80601f0160208091040260200160405190810160405280929190818152602001828054610f5790614bb8565b8015610fa45780601f10610f7957610100808354040283529160200191610fa4565b820191906000526020600020905b815481529060010190602001808311610f8757829003601f168201915b5050509183525050600282015460208201526003909101546001600160401b038082166040840152600160401b909104166060909101528351849084908110610fef57610fef614bed565b6020908102919091010152611005826001613096565b91508061101181614c19565b915050610ed6565b505090565b600080546001600160a01b031633146110495760405162461bcd60e51b81526004016108b890614b09565b60006110536111cf565b6001600160a01b03871660009081526006602052604090205490915060ff166110b25760405162461bcd60e51b815260206004820152601160248201527017dd1bdad95b881a5cc81a5b9d985b1a59607a1b60448201526064016108b8565b6110be868686866135f7565b6110c757600080fd5b60019150806110d46111cf565b10156111165760405162461bcd60e51b8152602060048201526011602482015270496e76616c6964204c505420707269636560781b60448201526064016108b8565b50949350505050565b60008061112c8484613a0f565b90508060ff1660011415611192577f00000000000000000000000000000000000000000000000000000000000000006001600160a01b0316846001600160a01b03161461117a576000611188565b6007546301000000900460ff165b60ff1691506111c8565b8060ff16600214156111c8576001600160a01b038416156111b45760006111c2565b6007546301000000900460ff165b60ff1691505b5092915050565b60008060006111ff60007f0000000000000000000000000000000000000000000000000000000000000000612ac4565b9150915060007f00000000000000000000000000000000000000000000000000000000000000006001600160a01b03166318160ddd6040518163ffffffff1660e01b815260040160206040518083038186803b15801561125e57600080fd5b505afa158015611272573d6000803e3d6000fd5b505050506040513d601f19601f820116820180604052508101906112969190614c34565b905080156112f5576112f06112b66008548361309690919063ffffffff16565b6112ea7f00000000000000000000000000000000000000000000000000000000000000006112e48787613096565b90613afe565b90613b0a565b6112f9565b600a545b935050505090565b6001600160a01b038216600090815260106020908152604080832033845290915281205482111561136b5760405162461bcd60e51b8152602060048201526014602482015273496e73756666696369656e742042616c616e636560601b60448201526064016108b8565b6001600160a01b03831660009081526010602090815260408083203384529091529020546113999083612e0f565b6001600160a01b0384166000908152601060209081526040808320338085529252909120919091556113cd90849084613505565b6001600160a01b0383166000908152601060209081526040808320338085529252918290205491517fa18aad4f3df1c25f586d15219e8ad9041bcad37190737f03e392dfca0d57202092611428928792909187914290614c4d565b60405180910390a15060015b92915050565b600080546001600160a01b031633146114655760405162461bcd60e51b81526004016108b890614b09565b60075460ff610100909104811690851610801590611487575060ff8460ff1611155b6114e35760405162461bcd60e51b815260206004820152602760248201527f5f7473735468726573686f6c642073686f756c64206265203e3d2074737354686044820152661c995cda1bdb1960ca1b60648201526084016108b8565b6114ee600185614c86565b60ff168560ff1610156115385760405162461bcd60e51b81526020600482015260126024820152716e2073686f756c64206265203e3d20742b3160701b60448201526064016108b8565b60648360ff16111561158c5760405162461bcd60e51b815260206004820152601e60248201527f5f6e6f646552657761726473526174696f206973206e6f742076616c6964000060448201526064016108b8565b60648260ff1611156115e05760405162461bcd60e51b815260206004820152601c60248201527f5f7769746864726177616c46656542505320697320696e76616c69640000000060448201526064016108b8565b85518751146116575760405162461bcd60e51b815260206004820152603b60248201527f5f72657761726441646472657373416e64416d6f756e747320616e64205f697360448201527f52656d6f766564206c656e677468206973206e6f74206d61746368000000000060648201526084016108b8565b61166088612d74565b60005b87518110156116e957600061169489838151811061168357611683614bed565b60200260200101519060a082901c90565b5090506116d4818a84815181106116ad576116ad614bed565b60200260200101518a85815181106116c7576116c7614bed565b6020026020010151613b16565b505080806116e190614c19565b915050611663565b5060006116f4611899565b90506064815111156117525760405162461bcd60e51b815260206004820152602160248201527f53746f726564206e6f64652073697a652073686f756c64206265203c3d2031306044820152600360fc1b60648201526084016108b8565b50506007805460ff8381166401000000000264ff000000001986831662010000021664ff00ff0000198884166101000261ffff19909516938a16939093179390931791909116919091171790556001979650505050505050565b6000546001600160a01b031633146117d65760405162461bcd60e51b81526004016108b890614b09565b6002805467ffffffffffffffff19166001600160401b0392909216919091179055565b600080546001600160a01b031633146118245760405162461bcd60e51b81526004016108b890614b09565b600061182e6111cf565b6001600160a01b03871660009081526006602052604090205490915060ff1661188d5760405162461bcd60e51b815260206004820152601160248201527017dd1bdad95b881a5cc81a5b9d985b1a59607a1b60448201526064016108b8565b6110be86868686613be5565b606060008060005b600f5481101561190c57600d6000600f83815481106118c2576118c2614bed565b60009182526020808320909101546001600160a01b03168352820192909252604001902054156118fa576118f7836001613096565b92505b8061190481614c19565b9150506118a1565b506000826001600160401b0381111561192757611927614368565b604051908082528060200260200182016040528015611950578160200160208202803683370190505b50905060005b600f54811015611a1c57600d6000600f838154811061197757611977614bed565b60009182526020808320909101546001600160a01b0316835282019290925260400190205415611a0a57600d6000600f83815481106119b8576119b8614bed565b60009182526020808320909101546001600160a01b0316835282019290925260400190205482518390859081106119f1576119f1614bed565b6020908102919091010152611a07836001613096565b92505b80611a1481614c19565b915050611956565b509392505050565b6000546001600160a01b03163314611a4e5760405162461bcd60e51b81526004016108b890614b09565b611a586000613e35565b565b600080546001600160a01b03163314611a855760405162461bcd60e51b81526004016108b890614b09565b6001600160a01b03851615611adc5760405162461bcd60e51b815260206004820152601f60248201527f5f64657374546f6b656e2073686f756c6420626520616464726573732830290060448201526064016108b8565b7f00000000000000000000000000000000000000000000000000000000000000008415611b56576000611b1985611b138887612e0f565b90612e0f565b9050611b507f00000000000000000000000000000000000000000000000000000000000000006000611b4b8489613096565b613209565b50611b5f565b84611b5f575060005b611b6981846132f6565b50600195945050505050565b6001600160a01b037f0000000000000000000000000000000000000000000000000000000000000000166000908152601060209081526040808320338452909152902054811115611bc557600080fd5b604051632e1a7d4d60e01b8152600481018290527f00000000000000000000000000000000000000000000000000000000000000006001600160a01b031690632e1a7d4d90602401600060405180830381600087803b158015611c2757600080fd5b505af1158015611c3b573d6000803e3d6000fd5b5050506001600160a01b037f0000000000000000000000000000000000000000000000000000000000000000166000908152601060209081526040808320338452909152902054611c8d915082612e0f565b6001600160a01b037f0000000000000000000000000000000000000000000000000000000000000000166000908152601060209081526040808320338085529252808320939093559151829184156108fc02918591818181858888f19350505050158015611cff573d6000803e3d6000fd5b506001600160a01b037f0000000000000000000000000000000000000000000000000000000000000000166000908152601060209081526040808320338085529252918290205491517fa18aad4f3df1c25f586d15219e8ad9041bcad37190737f03e392dfca0d57202092611d8f9273eeeeeeeeeeeeeeeeeeeeeeeeeeeeeeeeeeeeeeee92909187914290614c4d565b60405180910390a15050565b600080546001600160a01b03163314611dc65760405162461bcd60e51b81526004016108b890614b09565b6001600160a01b03861660009081526006602052604090205460ff16611dfe5760405162461bcd60e51b81526004016108b890614b3e565b6001600160a01b038616611e245760405162461bcd60e51b81526004016108b890614b75565b60008415611e5d57611e5860007f000000000000000000000000000000000000000000000000000000000000000087613209565b611e85565b84611e8557507f00000000000000000000000000000000000000000000000000000000000000005b7f00000000000000000000000000000000000000000000000000000000000000006001600160a01b0316876001600160a01b03161415611ee257507f00000000000000000000000000000000000000000000000000000000000000005b611eec81856132f6565b611ef5836134a1565b60005b8651811015610d5957611f4d88888381518110611f1757611f17614bed565b602002602001015160001c898481518110611f3457611f34614bed565b602002602001015160a01c6001600160601b0316613505565b80611f5781614c19565b915050611ef8565b60026001541415611fb25760405162461bcd60e51b815260206004820152601f60248201527f5265656e7472616e637947756172643a207265656e7472616e742063616c6c0060448201526064016108b8565b600260015533611fca61014083016101208401614988565b6001600160a01b0316146120375760405162461bcd60e51b815260206004820152602e60248201527f596f752063616e206f6e6c79206578656375746520737761707320746f20796f60448201526d7572206f776e206164647265737360901b60648201526084016108b8565b60408101356010600061204d6020850185614988565b6001600160a01b03168152602081019190915260400160009081209061207b61014085016101208601614988565b6001600160a01b03166001600160a01b031681526020019081526020016000205410156120e65760405162461bcd60e51b815260206004820152601960248201527810985b185b98d9481a5cc81b9bdd081cdd59999a58da595b9d603a1b60448201526064016108b8565b6001600160a01b037f00000000000000000000000000000000000000000000000000000000000000001661211d6020830183614988565b6001600160a01b0316146121855760405162461bcd60e51b815260206004820152602960248201527f66726f6d546f6b656e206d7573742062652074686520726571756972656420426044820152682a21ba103a37b5b2b760b91b60648201526084016108b8565b61218e81612e22565b506121f66040820135601060006121a86020860186614988565b6001600160a01b0316815260208101919091526040016000908120906121d661014086016101208701614988565b6001600160a01b0316815260208101919091526040016000205490612e0f565b601060006122076020850185614988565b6001600160a01b03168152602081019190915260400160009081209061223561014085016101208601614988565b6001600160a01b031681526020810191909152604001600020555060018055565b600080546001600160a01b031633146122815760405162461bcd60e51b81526004016108b890614b09565b6000828152600c602052604090205460ff16156122b05760405162461bcd60e51b81526004016108b890614cab565b60408051808201909152601d81527f42544320666c6f617420616d6f756e7420696e73756666696369656e7400000060208083019190915260008052600b90527fdf7de25b7f1fd6d0b5205f0e18f1f35bd7b8d84cce336588d184533ce43a6f765461231d918590613e85565b60008052600b6020527fdf7de25b7f1fd6d0b5205f0e18f1f35bd7b8d84cce336588d184533ce43a6f765561235182613eb1565b50600192915050565b346124e1576001600160a01b03821673eeeeeeeeeeeeeeeeeeeeeeeeeeeeeeeeeeeeeeee141561238957600080fd5b7f00000000000000000000000000000000000000000000000000000000000000006001600160a01b0316826001600160a01b031614156123c857600080fd5b6040516323b872dd60e01b8152336004820152306024820152604481018290526001600160a01b038316906323b872dd90606401602060405180830381600087803b15801561241657600080fd5b505af115801561242a573d6000803e3d6000fd5b505050506040513d601f19601f8201168201806040525081019061244e9190614ce2565b61245757600080fd5b6001600160a01b03821660009081526010602090815260408083203384529091529020546124859082613096565b6001600160a01b03831660009081526010602090815260408083203380855292529182902083905590517e49aea40334a6f2a95ad85659f2ca28a1c97bc8e4dd014df3c493eb6f59bb7e92611d8f928692909186914290614c4d565b600034116124ee57600080fd5b7f00000000000000000000000000000000000000000000000000000000000000006001600160a01b031663d0e30db0346040518263ffffffff1660e01b81526004016000604051808303818588803b15801561254957600080fd5b505af115801561255d573d6000803e3d6000fd5b5050506001600160a01b037f00000000000000000000000000000000000000000000000000000000000000001660009081526010602090815260408083203384529091529020546125b19250905034613096565b7f00000000000000000000000000000000000000000000000000000000000000006001600160a01b031660009081526010602090815260408083203380855292529182902083905590517e49aea40334a6f2a95ad85659f2ca28a1c97bc8e4dd014df3c493eb6f59bb7e92611d8f9273eeeeeeeeeeeeeeeeeeeeeeeeeeeeeeeeeeeeeeee92909134914290614c4d565b5050565b600080546001600160a01b031633146126705760405162461bcd60e51b81526004016108b890614b09565b6001600160a01b03861660009081526006602052604090205460ff166126a85760405162461bcd60e51b81526004016108b890614b3e565b6001600160a01b0386166126ce5760405162461bcd60e51b81526004016108b890614b75565b600083156127075761270260007f000000000000000000000000000000000000000000000000000000000000000086613209565b61272f565b8361272f57507f00000000000000000000000000000000000000000000000000000000000000005b7f00000000000000000000000000000000000000000000000000000000000000006001600160a01b0316876001600160a01b0316141561278c57507f00000000000000000000000000000000000000000000000000000000000000005b6127968786613ecc565b61279f836134a1565b505050506001600160a01b0392831660009081526010602090815260408083209490951682529290925291902055600190565b6000806127ec60095460085461309690919063ffffffff16565b90506000811161284c5760405162461bcd60e51b815260206004820152602560248201527f746f74616c5265776172644c5073466f724e6f6465206973206e6f7420706f73604482015264697469766560d81b60648201526084016108b8565b6000612856611899565b90506000805b82518110156128b15761289d83828151811061287a5761287a614bed565b602002602001015160a01c6001600160601b03168361309690919063ffffffff16565b9150806128a981614c19565b91505061285c565b506008546040516340c10f1960e01b815230600482015260248101919091527f00000000000000000000000000000000000000000000000000000000000000006001600160a01b0316906340c10f1990604401602060405180830381600087803b15801561291e57600080fd5b505af1158015612932573d6000803e3d6000fd5b505050506040513d601f19601f820116820180604052508101906129569190614ce2565b5060005b8251811015612a7c577f00000000000000000000000000000000000000000000000000000000000000006001600160a01b031663a9059cbb8483815181106129a4576129a4614bed565b602002602001015160001c6129eb856112ea8887815181106129c8576129c8614bed565b602002602001015160a01c6001600160601b03168a613afe90919063ffffffff16565b6040516001600160e01b031960e085901b1681526001600160a01b0390921660048301526024820152604401602060405180830381600087803b158015612a3157600080fd5b505af1158015612a45573d6000803e3d6000fd5b505050506040513d601f19601f82011682018060405250810190612a699190614ce2565b5080612a7481614c19565b91505061295a565b506040518381527f86dd6ae252e62228b47b3c1a12762cbf634952b2d29319b04f4f72fb153bcbdd9060200160405180910390a1505060006008819055600955506001919050565b6001600160a01b039182166000908152600b60205260408082205492909316815291909120549091565b6000546001600160a01b03163314612b185760405162461bcd60e51b81526004016108b890614b09565b428115612c4c5760005b600454811015612c4757600081815260036020819052604090912001546001600160401b03808416600160401b909204161015612c35576000818152600360209081526040808320600201546001600160a01b037f00000000000000000000000000000000000000000000000000000000000000001684526010835281842030855290925290912054612bb491612e0f565b6001600160a01b037f00000000000000000000000000000000000000000000000000000000000000001660009081526010602090815260408083203084528252808320939093558382526003905290812081815590612c16600183018261427f565b506000600282015560030180546001600160801b031916905560058190555b80612c3f81614c19565b915050612b22565b505050565b6005545b6004548111612c4757600081815260036020819052604090912001546001600160401b03808416600160401b909204161015612d62576000818152600360209081526040808320600201546001600160a01b037f00000000000000000000000000000000000000000000000000000000000000001684526010835281842030855290925290912054612ce191612e0f565b6001600160a01b037f00000000000000000000000000000000000000000000000000000000000000001660009081526010602090815260408083203084528252808320939093558382526003905290812081815590612d43600183018261427f565b506000600282015560030180546001600160801b031916905560058190555b80612d6c81614c19565b915050612c50565b6000546001600160a01b03163314612d9e5760405162461bcd60e51b81526004016108b890614b09565b6001600160a01b038116612e035760405162461bcd60e51b815260206004820152602660248201527f4f776e61626c653a206e6577206f776e657220697320746865207a65726f206160448201526564647265737360d01b60648201526084016108b8565b612e0c81613e35565b50565b6000612e1b8284614cff565b9392505050565b600073eeeeeeeeeeeeeeeeeeeeeeeeeeeeeeeeeeeeeeee612e466020840184614988565b6001600160a01b03161415612e955760405162461bcd60e51b815260206004820152601560248201527455736520706174682077455448202d3e207742544360581b60448201526064016108b8565b73eeeeeeeeeeeeeeeeeeeeeeeeeeeeeeeeeeeeeeee612eba6040840160208501614988565b6001600160a01b03161415612f095760405162461bcd60e51b81526020600482015260156024820152740aae6ca40e0c2e8d040ee84a886405a7c40ee8aa89605b1b60448201526064016108b8565b600073def171fe48cf0115b1d80b88dc8eab59176fee576001600160a01b031663d2c4b5986040518163ffffffff1660e01b815260040160206040518083038186803b158015612f5857600080fd5b505afa158015612f6c573d6000803e3d6000fd5b505050506040513d601f19601f82011682018060405250810190612f909190614d16565b9050612fb8816040850135612fa86020870187614988565b6001600160a01b03169190613f29565b6040516354e3f31b60e01b815273def171fe48cf0115b1d80b88dc8eab59176fee57906354e3f31b90612fef908690600401614e87565b602060405180830381600087803b15801561300957600080fd5b505af115801561301d573d6000803e3d6000fd5b505050506040513d601f19601f820116820180604052508101906130419190614c34565b9150816130905760405162461bcd60e51b815260206004820152601c60248201527f526563656976656420616d6f756e742063616e206e6f7420626520300000000060448201526064016108b8565b50919050565b6000612e1b828461503d565b6000600454848484426040516020016130bf959493929190615055565b60408051601f19818403018152828252805160209182012060a0840183528084529083018790529082018590526001600160401b0342818116606085015260025492945060808401926131129216613096565b6001600160401b03169052600454600090815260036020908152604090912082518155828201518051919261314f926001850192909101906142b9565b50604082015160028201556060820151600390910180546080909301516001600160401b03908116600160401b026001600160801b03199094169216919091179190911790556004546131a3906001613096565b6004556002547f83338cce32e9e34beb409352823d58dca7a8c20826c335abf22a00e1cd87123890829084908690889042906131e99082906001600160401b0316613096565b6040516131fb9695949392919061508f565b60405180910390a150505050565b60408051808201825260208082527f5f737761703a20666c6f617420616d6f756e7420696e73756666696369656e74818301526001600160a01b0385166000908152600b9091529190912054613260918390613e85565b6001600160a01b038084166000908152600b6020526040808220939093559085168152205461328f9082613096565b6001600160a01b038481166000818152600b60209081526040918290209490945580519182529185169281019290925281018290527fea368a40e9570069bb8e6511d668293ad2e1f03b0d982431fd223de9f3b70ca69060600160405180910390a1505050565b806132ff575050565b7f00000000000000000000000000000000000000000000000000000000000000006001600160a01b0316826001600160a01b0316141561339a576009546133469082613096565b600955604080516001600160a01b038416815260208101839052600091810182905260608101919091527fe3debe835f6848edc082b32a1d729781d3bfcd7e14422d80bcaa6794d3816b2f90608001611d8f565b60006133a46111cf565b6001600160a01b0384166000908152600b60205260409020549091506133ca9083613096565b6001600160a01b0384166000908152600b6020526040812091909155600754613404906064906112ea90869062010000900460ff16613afe565b90506000613436836112ea847f0000000000000000000000000000000000000000000000000000000000000000613afe565b6008549091506134469082613096565b600855604080516001600160a01b038716815260208101869052908101829052606081018490527fe3debe835f6848edc082b32a1d729781d3bfcd7e14422d80bcaa6794d3816b2f9060800160405180910390a15050505050565b60005b8151811015612641576001600c60008484815181106134c5576134c5614bed565b6020026020010151815260200190815260200160002060006101000a81548160ff02191690831515021790555080806134fd90614c19565b9150506134a4565b7f00000000000000000000000000000000000000000000000000000000000000006001600160a01b0316836001600160a01b0316141561356c57613569817f0000000000000000000000000000000000000000000000000000000000000000613afe565b90505b60405163a9059cbb60e01b81526001600160a01b0383811660048301526024820183905284169063a9059cbb90604401602060405180830381600087803b1580156135b657600080fd5b505af11580156135ca573d6000803e3d6000fd5b505050506040513d601f19601f820116820180604052508101906135ee9190614ce2565b612c4757600080fd5b6000818152600c602052604081205460ff16156136265760405162461bcd60e51b81526004016108b890614cab565b836136735760405162461bcd60e51b815260206004820152601c60248201527f546865207472616e73616374696f6e206973206e6f742076616c69640000000060448201526064016108b8565b8360a081901c60006136836111cf565b905060006136b57f00000000000000000000000000000000000000000000000000000000000000006112ea8585613afe565b6007549091506000906136dc90612710906112ea908590640100000000900460ff16613afe565b9050876136e98383612e0f565b10156137545760405162461bcd60e51b815260206004820152603460248201527f4572726f723a20616d6f756e744f66466c6f61742e737562287769746864726160448201527377616c4665657329203c205f6d696e657246656560601b60648201526084016108b8565b600061376489611b138585612e0f565b905060008061379460007f0000000000000000000000000000000000000000000000000000000000000000612ac4565b90925090506001600160a01b038d16613805576137b18585612e0f565b8210156138005760405162461bcd60e51b815260206004820152601f60248201527f54686520666c6f61742062616c616e636520696e73756666696369656e742e0060448201526064016108b8565b613898565b7f00000000000000000000000000000000000000000000000000000000000000006001600160a01b03168d6001600160a01b03161415613898576138498585612e0f565b8110156138985760405162461bcd60e51b815260206004820152601f60248201527f54686520666c6f61742062616c616e636520696e73756666696369656e742e0060448201526064016108b8565b6138a28d856132f6565b6138ac8d86613ecc565b6138b58a613eb1565b7f00000000000000000000000000000000000000000000000000000000000000006001600160a01b03168d6001600160a01b031614156138fa576138fa8d8985613505565b604051630852cd8d60e31b8152600481018890527f00000000000000000000000000000000000000000000000000000000000000006001600160a01b0316906342966c6890602401602060405180830381600087803b15801561395c57600080fd5b505af1158015613970573d6000803e3d6000fd5b505050506040513d601f19601f820116820180604052508101906139949190614ce2565b61399d57600080fd5b604080516001600160a01b038a16815260208101899052908101869052606081018790526080810184905260a081018b90527fa9da34e5e4a956b744307ae7611795634e8365951073bf049d76b64b2ae7a0589060c00160405180910390a15060019c9b505050505050505050505050565b6000806000613a3f60007f0000000000000000000000000000000000000000000000000000000000000000612ac4565b90925090506000613a6460036112ea60026112e489613a5e8989613096565b90613096565b90507f00000000000000000000000000000000000000000000000000000000000000006001600160a01b0316866001600160a01b0316148015613ab0575080613aad8387613096565b10155b15613ac15760019350505050611434565b6001600160a01b038616158015613ae1575080613ade8487613096565b10155b15613af25760029350505050611434565b50600095945050505050565b6000612e1b82846150d7565b6000612e1b82846150f6565b60008115613b3f57506001600160a01b0383166000908152600d60205260408120556001612e1b565b6001600160a01b0384166000908152600e602052604090205460ff16613bc357600f805460018082019092557f8d1108e10bcb7c27dddfc02ed9d693a074039d026cf4ea4240b40f7d581ac8020180546001600160a01b0319166001600160a01b0387169081179091556000908152600e60205260409020805460ff191690911790555b50506001600160a01b03919091166000908152600d6020526040902055600190565b6000818152600c602052604081205460ff1615613c145760405162461bcd60e51b81526004016108b890614cab565b83613c615760405162461bcd60e51b815260206004820152601c60248201527f546865207472616e73616374696f6e206973206e6f742076616c69640000000060448201526064016108b8565b8360a081901c6000613c716111cf565b90506000613ca3826112ea857f0000000000000000000000000000000000000000000000000000000000000000613afe565b90506000613cb18a8561111f565b9050600081613cc1576000613cd1565b613cd16127106112ea8585613afe565b9050888015613cdf57508015155b15613ce957600080fd5b6001600160a01b037f0000000000000000000000000000000000000000000000000000000000000000166340c10f1987613d238685612e0f565b6040516001600160e01b031960e085901b1681526001600160a01b0390921660048301526024820152604401602060405180830381600087803b158015613d6957600080fd5b505af1158015613d7d573d6000803e3d6000fd5b505050506040513d601f19601f82011682018060405250810190613da19190614ce2565b50600854613daf9082613096565b600855613dbc8b86614012565b613dc588613eb1565b604080516001600160a01b038816815260208101879052908101849052606081018590526080810182905260a081018990527fdfaf4e23f7030adafec91a682e05bf9fb30c721f9cec3d8bcfae0459c5362db19060c00160405180910390a15060019a9950505050505050505050565b600080546001600160a01b038381166001600160a01b0319831681178455604051919092169283917f8be0079c531659141344cd1fd0a4f28419497f9722a3daafe3b4186f6b6457e09190a35050565b60008184841115613ea95760405162461bcd60e51b81526004016108b89190615118565b505050900390565b6000908152600c60205260409020805460ff19166001179055565b613f0981604051806060016040528060278152602001615148602791396001600160a01b0385166000908152600b60205260409020549190613e85565b6001600160a01b039092166000908152600b602052604090209190915550565b604051636eb1769f60e11b81523060048201526001600160a01b038381166024830152600091839186169063dd62ed3e9060440160206040518083038186803b158015613f7557600080fd5b505afa158015613f89573d6000803e3d6000fd5b505050506040513d601f19601f82011682018060405250810190613fad9190614c34565b613fb7919061503d565b604080516001600160a01b038616602482015260448082018490528251808303909101815260649091019091526020810180516001600160e01b031663095ea7b360e01b17905290915061400c908590614035565b50505050565b6001600160a01b0382166000908152600b6020526040902054613f099082613096565b600061408a826040518060400160405280602081526020017f5361666545524332303a206c6f772d6c6576656c2063616c6c206661696c6564815250856001600160a01b03166141079092919063ffffffff16565b805190915015612c4757808060200190518101906140a89190614ce2565b612c475760405162461bcd60e51b815260206004820152602a60248201527f5361666545524332303a204552433230206f7065726174696f6e20646964206e6044820152691bdd081cdd58d8d9595960b21b60648201526084016108b8565b6060614116848460008561411e565b949350505050565b60608247101561417f5760405162461bcd60e51b815260206004820152602660248201527f416464726573733a20696e73756666696369656e742062616c616e636520666f6044820152651c8818d85b1b60d21b60648201526084016108b8565b843b6141cd5760405162461bcd60e51b815260206004820152601d60248201527f416464726573733a2063616c6c20746f206e6f6e2d636f6e747261637400000060448201526064016108b8565b600080866001600160a01b031685876040516141e9919061512b565b60006040518083038185875af1925050503d8060008114614226576040519150601f19603f3d011682016040523d82523d6000602084013e61422b565b606091505b509150915061423b828286614246565b979650505050505050565b60608315614255575081612e1b565b8251156142655782518084602001fd5b8160405162461bcd60e51b81526004016108b89190615118565b50805461428b90614bb8565b6000825580601f1061429b575050565b601f016020900490600052602060002090810190612e0c919061433d565b8280546142c590614bb8565b90600052602060002090601f0160209004810192826142e7576000855561432d565b82601f1061430057805160ff191683800117855561432d565b8280016001018555821561432d579182015b8281111561432d578251825591602001919060010190614312565b5061433992915061433d565b5090565b5b80821115614339576000815560010161433e565b634e487b7160e01b600052600160045260246000fd5b634e487b7160e01b600052604160045260246000fd5b604051601f8201601f191681016001600160401b03811182821017156143a6576143a6614368565b604052919050565b60006101e0828403121561309057600080fd5b600080604083850312156143d457600080fd5b82356001600160401b03808211156143eb57600080fd5b818501915085601f8301126143ff57600080fd5b813560208282111561441357614413614368565b614425601f8301601f1916820161437e565b828152888284870101111561443957600080fd5b8282860183830137600092810182019290925290945085013591508082111561446157600080fd5b5061446e858286016143ae565b9150509250929050565b6001600160a01b0381168114612e0c57600080fd5b803561449881614478565b919050565b60006001600160401b038211156144b6576144b6614368565b5060051b60200190565b600082601f8301126144d157600080fd5b813560206144e66144e18361449d565b61437e565b82815260059290921b8401810191818101908684111561450557600080fd5b8286015b848110156145205780358352918301918301614509565b509695505050505050565b60008060008060008060c0878903121561454457600080fd5b863561454f81614478565b9550602087013561455f81614478565b945060408701359350606087013592506080870135915060a08701356001600160401b0381111561458f57600080fd5b61459b89828a016144c0565b9150509295509295509295565b6000602082840312156145ba57600080fd5b5035919050565b60005b838110156145dc5781810151838201526020016145c4565b8381111561400c5750506000910152565b600081518084526146058160208601602086016145c1565b601f01601f19169290920160200192915050565b85815260a06020820152600061463260a08301876145ed565b6040830195909552506001600160401b039283166060820152911660809091015292915050565b60006020808301818452808551808352604092508286019150828160051b87010184880160005b838110156146ef57603f19898403018552815160a08151855288820151818a8701526146ae828701826145ed565b838a0151878b01526060808501516001600160401b039081169189019190915260809485015116939096019290925250509386019390860190600101614680565b509098975050505050505050565b6000806000806080858703121561471357600080fd5b843561471e81614478565b966020860135965060408601359560600135945092505050565b6000806040838503121561474b57600080fd5b823561475681614478565b946020939093013593505050565b8015158114612e0c57600080fd5b803560ff8116811461449857600080fd5b600080600080600080600060e0888a03121561479e57600080fd5b87356147a981614478565b96506020888101356001600160401b03808211156147c657600080fd5b6147d28c838d016144c0565b985060408b01359150808211156147e857600080fd5b508901601f81018b136147fa57600080fd5b80356148086144e18261449d565b81815260059190911b8201830190838101908d83111561482757600080fd5b928401925b8284101561484e57833561483f81614764565b8252928401929084019061482c565b809950505050505061486260608901614772565b935061487060808901614772565b925061487e60a08901614772565b915061488c60c08901614772565b905092959891949750929550565b600080604083850312156148ad57600080fd5b82356148b881614478565b915060208301356148c881614478565b809150509250929050565b6000602082840312156148e557600080fd5b81356001600160401b0381168114612e1b57600080fd5b6000806000806080858703121561491257600080fd5b843561491d81614478565b935060208501359250604085013561493481614764565b9396929550929360600135925050565b6020808252825182820181905260009190848201906040850190845b8181101561497c57835183529284019291840191600101614960565b50909695505050505050565b60006020828403121561499a57600080fd5b8135612e1b81614478565b600080600080600060a086880312156149bd57600080fd5b85356149c881614478565b945060208601356001600160401b03808211156149e457600080fd5b6149f089838a016144c0565b955060408801359450606088013593506080880135915080821115614a1457600080fd5b50614a21888289016144c0565b9150509295509295909350565b600060208284031215614a4057600080fd5b81356001600160401b03811115614a5657600080fd5b614116848285016143ae565b60008060408385031215614a7557600080fd5b50508035926020909101359150565b600080600080600060a08688031215614a9c57600080fd5b8535614aa781614478565b94506020860135614ab781614478565b9350604086013592506060860135915060808601356001600160401b03811115614ae057600080fd5b614a21888289016144c0565b600060208284031215614afe57600080fd5b8135612e1b81614764565b6020808252818101527f4f776e61626c653a2063616c6c6572206973206e6f7420746865206f776e6572604082015260600190565b6020808252601d908201527f5f64657374546f6b656e206973206e6f742077686974656c6973746564000000604082015260600190565b60208082526023908201527f5f64657374546f6b656e2073686f756c64206e6f74206265206164647265737360408201526228302960e81b606082015260800190565b600181811c90821680614bcc57607f821691505b6020821081141561309057634e487b7160e01b600052602260045260246000fd5b634e487b7160e01b600052603260045260246000fd5b634e487b7160e01b600052601160045260246000fd5b6000600019821415614c2d57614c2d614c03565b5060010190565b600060208284031215614c4657600080fd5b5051919050565b6001600160a01b039586168152939094166020840152604083019190915260608201526001600160401b03909116608082015260a00190565b600060ff821660ff84168060ff03821115614ca357614ca3614c03565b019392505050565b60208082526018908201527f546865207478696420697320616c726561647920757365640000000000000000604082015260600190565b600060208284031215614cf457600080fd5b8151612e1b81614764565b600082821015614d1157614d11614c03565b500390565b600060208284031215614d2857600080fd5b8151612e1b81614478565b6000808335601e19843603018112614d4a57600080fd5b83016020810192503590506001600160401b03811115614d6957600080fd5b8060051b3603831315614d7b57600080fd5b9250929050565b8183526000602080850194508260005b85811015614dc0578135614da581614478565b6001600160a01b031687529582019590820190600101614d92565b509495945050505050565b6000808335601e19843603018112614de257600080fd5b83016020810192503590506001600160401b03811115614e0157600080fd5b803603831315614d7b57600080fd5b81835281816020850137506000828201602090810191909152601f909101601f19169091010190565b81835260006001600160fb1b03831115614e5257600080fd5b8260051b8083602087013760009401602001938452509192915050565b80356001600160801b03198116811461449857600080fd5b60208152614ea860208201614e9b8461448d565b6001600160a01b03169052565b6000614eb66020840161448d565b6001600160a01b0381166040840152506040830135606083015260608301356080830152608083013560a0830152614ef160a0840184614d33565b6101e08060c0860152614f0961020086018385614d82565b9250614f1860c0870187614dcb565b9250601f19808786030160e0880152614f32858584614e10565b9450614f4160e0890189614d33565b94509150610100818887030181890152614f5c868685614e39565b9550614f6a818a018a614d33565b9550925050610120818887030181890152614f86868685614e39565b9550614f93818a0161448d565b9450506101409150614faf828801856001600160a01b03169052565b614fba82890161448d565b93506101609150614fd5828801856001600160a01b03169052565b61018093508188013584880152614fee84890189614dcb565b945091506101a0818887030181890152615009868685614e10565b95506101c094508089013585890152505050615026828701614e6f565b6001600160801b0319169401939093529392505050565b6000821982111561505057615050614c03565b500190565b8581526000855161506d816020850160208a016145c1565b6020920191820194909452604081019290925260608201526080019392505050565b86815285602082015284604082015260c0606082015260006150b460c08301866145ed565b6001600160401b0394851660808401529290931660a09091015295945050505050565b60008160001904831182151516156150f1576150f1614c03565b500290565b60008261511357634e487b7160e01b600052601260045260246000fd5b500490565b602081526000612e1b60208301846145ed565b6000825161513d8184602087016145c1565b919091019291505056fe5f72656d6f7665466c6f61743a20666c6f617420616d6f756e7420696e73756666696369656e74a26469706673582212202f5f76b8e7f589a8869a5e10eec4c392cc934ca595693a1cd8e8c62fefbf499164736f6c63430008090033",
  "linkReferences": {},
  "deployedLinkReferences": {}
}