{
  "_format": "hh-sol-artifact-1",
  "contractName": "SwapContract",
  "sourceName": "contracts/SwapContract.sol",
  "abi": [
    {
      "inputs": [
        {
          "internalType": "address",
          "name": "_lpToken",
          "type": "address"
        },
        {
          "internalType": "address",
          "name": "_btct",
          "type": "address"
        },
        {
          "internalType": "address",
          "name": "_wETH",
          "type": "address"
        },
        {
          "internalType": "uint256",
          "name": "_existingBTCFloat",
          "type": "uint256"
        }
      ],
      "stateMutability": "nonpayable",
      "type": "constructor"
    },
    {
      "anonymous": false,
      "inputs": [
        {
          "indexed": false,
          "internalType": "address",
          "name": "token",
          "type": "address"
        },
        {
          "indexed": false,
          "internalType": "uint256",
          "name": "amountOfLP",
          "type": "uint256"
        },
        {
          "indexed": false,
          "internalType": "uint256",
          "name": "amountOfFloat",
          "type": "uint256"
        },
        {
          "indexed": false,
          "internalType": "uint256",
          "name": "currentPriceLP",
          "type": "uint256"
        },
        {
          "indexed": false,
          "internalType": "uint256",
          "name": "withdrawal",
          "type": "uint256"
        },
        {
          "indexed": false,
          "internalType": "bytes32",
          "name": "txid",
          "type": "bytes32"
        }
      ],
      "name": "BurnLPTokensForFloat",
      "type": "event"
    },
    {
      "anonymous": false,
      "inputs": [
        {
          "indexed": false,
          "internalType": "address",
          "name": "token",
          "type": "address"
        },
        {
          "indexed": false,
          "internalType": "address",
          "name": "user",
          "type": "address"
        },
        {
          "indexed": false,
          "internalType": "uint256",
          "name": "amount",
          "type": "uint256"
        },
        {
          "indexed": false,
          "internalType": "uint256",
          "name": "balance",
          "type": "uint256"
        },
        {
          "indexed": false,
          "internalType": "uint256",
          "name": "Timestamp",
          "type": "uint256"
        }
      ],
      "name": "Deposit",
      "type": "event"
    },
    {
      "anonymous": false,
      "inputs": [
        {
          "indexed": false,
          "internalType": "uint256",
          "name": "rewardLPTsForNodes",
          "type": "uint256"
        }
      ],
      "name": "DistributeNodeRewards",
      "type": "event"
    },
    {
      "anonymous": false,
      "inputs": [
        {
          "indexed": false,
          "internalType": "address",
          "name": "to",
          "type": "address"
        },
        {
          "indexed": false,
          "internalType": "uint256",
          "name": "amountOfFloat",
          "type": "uint256"
        },
        {
          "indexed": false,
          "internalType": "uint256",
          "name": "amountOfLP",
          "type": "uint256"
        },
        {
          "indexed": false,
          "internalType": "uint256",
          "name": "currentPriceLP",
          "type": "uint256"
        },
        {
          "indexed": false,
          "internalType": "uint256",
          "name": "depositFees",
          "type": "uint256"
        },
        {
          "indexed": false,
          "internalType": "bytes32",
          "name": "txid",
          "type": "bytes32"
        }
      ],
      "name": "IssueLPTokensForFloat",
      "type": "event"
    },
    {
      "anonymous": false,
      "inputs": [
        {
          "indexed": true,
          "internalType": "address",
          "name": "previousOwner",
          "type": "address"
        },
        {
          "indexed": true,
          "internalType": "address",
          "name": "newOwner",
          "type": "address"
        }
      ],
      "name": "OwnershipTransferred",
      "type": "event"
    },
    {
      "anonymous": false,
      "inputs": [
        {
          "indexed": false,
          "internalType": "address",
          "name": "feesToken",
          "type": "address"
        },
        {
          "indexed": false,
          "internalType": "uint256",
          "name": "rewards",
          "type": "uint256"
        },
        {
          "indexed": false,
          "internalType": "uint256",
          "name": "amountLPTokensForNode",
          "type": "uint256"
        },
        {
          "indexed": false,
          "internalType": "uint256",
          "name": "currentPriceLP",
          "type": "uint256"
        }
      ],
      "name": "RewardsCollection",
      "type": "event"
    },
    {
      "anonymous": false,
      "inputs": [
        {
          "indexed": false,
          "internalType": "address",
          "name": "from",
          "type": "address"
        },
        {
          "indexed": false,
          "internalType": "address",
          "name": "to",
          "type": "address"
        },
        {
          "indexed": false,
          "internalType": "uint256",
          "name": "amount",
          "type": "uint256"
        }
      ],
      "name": "Swap",
      "type": "event"
    },
    {
      "anonymous": false,
      "inputs": [
        {
          "indexed": false,
          "internalType": "bytes32",
          "name": "SwapID",
          "type": "bytes32"
        },
        {
          "indexed": false,
          "internalType": "bytes32",
          "name": "DestAddr",
          "type": "bytes32"
        },
        {
          "indexed": false,
          "internalType": "address",
          "name": "RefundAddr",
          "type": "address"
        },
        {
          "indexed": false,
          "internalType": "uint256",
          "name": "AmountWBTC",
          "type": "uint256"
        },
        {
          "indexed": false,
          "internalType": "uint256",
          "name": "Timestamp",
          "type": "uint256"
        }
      ],
      "name": "SwapTokensToBTC",
      "type": "event"
    },
    {
      "anonymous": false,
      "inputs": [
        {
          "indexed": false,
          "internalType": "address",
          "name": "token",
          "type": "address"
        },
        {
          "indexed": false,
          "internalType": "address",
          "name": "user",
          "type": "address"
        },
        {
          "indexed": false,
          "internalType": "uint256",
          "name": "amount",
          "type": "uint256"
        },
        {
          "indexed": false,
          "internalType": "uint256",
          "name": "balance",
          "type": "uint256"
        },
        {
          "indexed": false,
          "internalType": "uint256",
          "name": "Timestamp",
          "type": "uint256"
        }
      ],
      "name": "Withdraw",
      "type": "event"
    },
    {
      "stateMutability": "nonpayable",
      "type": "fallback"
    },
    {
      "inputs": [],
      "name": "BTCT_ADDR",
      "outputs": [
        {
          "internalType": "address",
          "name": "",
          "type": "address"
        }
      ],
      "stateMutability": "view",
      "type": "function"
    },
    {
      "inputs": [
        {
          "internalType": "address",
          "name": "_token",
          "type": "address"
        },
        {
          "internalType": "address",
          "name": "_user",
          "type": "address"
        }
      ],
      "name": "balanceOf",
      "outputs": [
        {
          "internalType": "uint256",
          "name": "",
          "type": "uint256"
        }
      ],
      "stateMutability": "view",
      "type": "function"
    },
    {
      "inputs": [
        {
          "internalType": "address",
          "name": "_newOwner",
          "type": "address"
        },
        {
          "internalType": "bytes32[]",
          "name": "_rewardAddressAndAmounts",
          "type": "bytes32[]"
        },
        {
          "internalType": "bool[]",
          "name": "_isRemoved",
          "type": "bool[]"
        },
        {
          "internalType": "uint8",
          "name": "_churnedInCount",
          "type": "uint8"
        },
        {
          "internalType": "uint8",
          "name": "_tssThreshold",
          "type": "uint8"
        },
        {
          "internalType": "uint8",
          "name": "_nodeRewardsRatio",
          "type": "uint8"
        },
        {
          "internalType": "uint8",
          "name": "_withdrawalFeeBPS",
          "type": "uint8"
        },
        {
          "internalType": "uint256",
          "name": "_expirationTime",
          "type": "uint256"
        }
      ],
      "name": "churn",
      "outputs": [
        {
          "internalType": "bool",
          "name": "",
          "type": "bool"
        }
      ],
      "stateMutability": "nonpayable",
      "type": "function"
    },
    {
      "inputs": [],
      "name": "churnedInCount",
      "outputs": [
        {
          "internalType": "uint8",
          "name": "",
          "type": "uint8"
        }
      ],
      "stateMutability": "view",
      "type": "function"
    },
    {
      "inputs": [
        {
          "internalType": "address",
          "name": "_destToken",
          "type": "address"
        },
        {
          "internalType": "uint256",
          "name": "_incomingAmount",
          "type": "uint256"
        },
        {
          "internalType": "uint256",
          "name": "_minerFee",
          "type": "uint256"
        },
        {
          "internalType": "uint256",
          "name": "_rewardsAmount",
          "type": "uint256"
        }
      ],
      "name": "collectSwapFeesForBTC",
      "outputs": [
        {
          "internalType": "bool",
          "name": "",
          "type": "bool"
        }
      ],
      "stateMutability": "nonpayable",
      "type": "function"
    },
    {
      "inputs": [],
      "name": "depositFeesBPS",
      "outputs": [
        {
          "internalType": "uint8",
          "name": "",
          "type": "uint8"
        }
      ],
      "stateMutability": "view",
      "type": "function"
    },
    {
      "inputs": [],
      "name": "distributeNodeRewards",
      "outputs": [
        {
          "internalType": "bool",
          "name": "",
          "type": "bool"
        }
      ],
      "stateMutability": "nonpayable",
      "type": "function"
    },
    {
      "inputs": [],
      "name": "expirationTime",
      "outputs": [
        {
          "internalType": "uint256",
          "name": "",
          "type": "uint256"
        }
      ],
      "stateMutability": "view",
      "type": "function"
    },
    {
      "inputs": [],
      "name": "feesLPTokensForNode",
      "outputs": [
        {
          "internalType": "uint256",
          "name": "",
          "type": "uint256"
        }
      ],
      "stateMutability": "view",
      "type": "function"
    },
    {
      "inputs": [],
      "name": "getActiveNodes",
      "outputs": [
        {
          "internalType": "bytes32[]",
          "name": "",
          "type": "bytes32[]"
        }
      ],
      "stateMutability": "view",
      "type": "function"
    },
    {
      "inputs": [],
      "name": "getCurrentPriceLP",
      "outputs": [
        {
          "internalType": "uint256",
          "name": "nowPrice",
          "type": "uint256"
        }
      ],
      "stateMutability": "view",
      "type": "function"
    },
    {
      "inputs": [
        {
          "internalType": "address",
          "name": "_token",
          "type": "address"
        },
        {
          "internalType": "uint256",
          "name": "_amountOfFloat",
          "type": "uint256"
        }
      ],
      "name": "getDepositFeeRate",
      "outputs": [
        {
          "internalType": "uint256",
          "name": "depositFeeRate",
          "type": "uint256"
        }
      ],
      "stateMutability": "view",
      "type": "function"
    },
    {
      "inputs": [
        {
          "internalType": "address",
          "name": "_tokenA",
          "type": "address"
        },
        {
          "internalType": "address",
          "name": "_tokenB",
          "type": "address"
        }
      ],
      "name": "getFloatReserve",
      "outputs": [
        {
          "internalType": "uint256",
          "name": "reserveA",
          "type": "uint256"
        },
        {
          "internalType": "uint256",
          "name": "reserveB",
          "type": "uint256"
        }
      ],
      "stateMutability": "view",
      "type": "function"
    },
    {
      "inputs": [],
      "name": "initialExchangeRate",
      "outputs": [
        {
          "internalType": "uint256",
          "name": "",
          "type": "uint256"
        }
      ],
      "stateMutability": "view",
      "type": "function"
    },
    {
      "inputs": [
        {
          "internalType": "bytes32",
          "name": "_txid",
          "type": "bytes32"
        }
      ],
      "name": "isTxUsed",
      "outputs": [
        {
          "internalType": "bool",
          "name": "",
          "type": "bool"
        }
      ],
      "stateMutability": "view",
      "type": "function"
    },
    {
      "inputs": [],
      "name": "lockedLPTokensForNode",
      "outputs": [
        {
          "internalType": "uint256",
          "name": "",
          "type": "uint256"
        }
      ],
      "stateMutability": "view",
      "type": "function"
    },
    {
      "inputs": [],
      "name": "lpToken",
      "outputs": [
        {
          "internalType": "address",
          "name": "",
          "type": "address"
        }
      ],
      "stateMutability": "view",
      "type": "function"
    },
    {
      "inputs": [
        {
          "internalType": "address",
          "name": "_destToken",
          "type": "address"
        },
        {
          "internalType": "bytes32[]",
          "name": "_addressesAndAmounts",
          "type": "bytes32[]"
        },
        {
          "internalType": "uint256",
          "name": "_totalSwapped",
          "type": "uint256"
        },
        {
          "internalType": "uint256",
          "name": "_rewardsAmount",
          "type": "uint256"
        },
        {
          "internalType": "bytes32[]",
          "name": "_redeemedFloatTxIds",
          "type": "bytes32[]"
        }
      ],
      "name": "multiTransferERC20TightlyPacked",
      "outputs": [
        {
          "internalType": "bool",
          "name": "",
          "type": "bool"
        }
      ],
      "stateMutability": "nonpayable",
      "type": "function"
    },
    {
      "inputs": [],
      "name": "nodeRewardsRatio",
      "outputs": [
        {
          "internalType": "uint8",
          "name": "",
          "type": "uint8"
        }
      ],
      "stateMutability": "view",
      "type": "function"
    },
    {
      "inputs": [],
      "name": "owner",
      "outputs": [
        {
          "internalType": "address",
          "name": "",
          "type": "address"
        }
      ],
      "stateMutability": "view",
      "type": "function"
    },
    {
      "inputs": [
        {
          "internalType": "address",
          "name": "_token",
          "type": "address"
        },
        {
          "internalType": "bytes32",
          "name": "_addressesAndAmountOfFloat",
          "type": "bytes32"
        },
        {
          "internalType": "bool",
          "name": "_zerofee",
          "type": "bool"
        },
        {
          "internalType": "bytes32",
          "name": "_txid",
          "type": "bytes32"
        }
      ],
      "name": "recordIncomingFloat",
      "outputs": [
        {
          "internalType": "bool",
          "name": "",
          "type": "bool"
        }
      ],
      "stateMutability": "nonpayable",
      "type": "function"
    },
    {
      "inputs": [
        {
          "internalType": "address",
          "name": "_token",
          "type": "address"
        },
        {
          "internalType": "bytes32",
          "name": "_addressesAndAmountOfLPtoken",
          "type": "bytes32"
        },
        {
          "internalType": "uint256",
          "name": "_minerFee",
          "type": "uint256"
        },
        {
          "internalType": "bytes32",
          "name": "_txid",
          "type": "bytes32"
        }
      ],
      "name": "recordOutcomingFloat",
      "outputs": [
        {
          "internalType": "bool",
          "name": "",
          "type": "bool"
        }
      ],
      "stateMutability": "nonpayable",
      "type": "function"
    },
    {
      "inputs": [
        {
          "internalType": "address",
          "name": "_destToken",
          "type": "address"
        },
        {
          "internalType": "address",
          "name": "_to",
          "type": "address"
        },
        {
          "internalType": "uint256",
          "name": "_amount",
          "type": "uint256"
        },
        {
          "internalType": "uint256",
          "name": "_totalSwapped",
          "type": "uint256"
        },
        {
          "internalType": "bytes32[]",
          "name": "_redeemedFloatTxIds",
          "type": "bytes32[]"
        }
      ],
      "name": "recordSkyPoolsTX",
      "outputs": [
        {
          "internalType": "bool",
          "name": "",
          "type": "bool"
        }
      ],
      "stateMutability": "nonpayable",
      "type": "function"
    },
    {
      "inputs": [
        {
          "internalType": "uint256",
          "name": "_minerFee",
          "type": "uint256"
        },
        {
          "internalType": "bytes32",
          "name": "_txid",
          "type": "bytes32"
        }
      ],
      "name": "recordUTXOSweepMinerFee",
      "outputs": [
        {
          "internalType": "bool",
          "name": "",
          "type": "bool"
        }
      ],
      "stateMutability": "nonpayable",
      "type": "function"
    },
    {
      "inputs": [
        {
          "internalType": "address",
          "name": "_token",
          "type": "address"
        },
        {
          "internalType": "uint256",
          "name": "_amount",
          "type": "uint256"
        }
      ],
      "name": "redeemERC20Token",
      "outputs": [
        {
          "internalType": "bool",
          "name": "",
          "type": "bool"
        }
      ],
      "stateMutability": "nonpayable",
      "type": "function"
    },
    {
      "inputs": [
        {
          "internalType": "uint256",
          "name": "_amount",
          "type": "uint256"
        }
      ],
      "name": "redeemEther",
      "outputs": [],
      "stateMutability": "payable",
      "type": "function"
    },
    {
      "inputs": [],
      "name": "renounceOwnership",
      "outputs": [],
      "stateMutability": "nonpayable",
      "type": "function"
    },
    {
      "inputs": [
        {
          "internalType": "address",
          "name": "_destToken",
          "type": "address"
        },
        {
          "internalType": "address",
          "name": "_to",
          "type": "address"
        },
        {
          "internalType": "uint256",
          "name": "_amount",
          "type": "uint256"
        },
        {
          "internalType": "uint256",
          "name": "_totalSwapped",
          "type": "uint256"
        },
        {
          "internalType": "uint256",
          "name": "_rewardsAmount",
          "type": "uint256"
        },
        {
          "internalType": "bytes32[]",
          "name": "_redeemedFloatTxIds",
          "type": "bytes32[]"
        }
      ],
      "name": "singleTransferERC20",
      "outputs": [
        {
          "internalType": "bool",
          "name": "",
          "type": "bool"
        }
      ],
      "stateMutability": "nonpayable",
      "type": "function"
    },
    {
      "inputs": [
        {
          "internalType": "address",
          "name": "_token",
          "type": "address"
        },
        {
          "internalType": "uint256",
          "name": "_amount",
          "type": "uint256"
        }
      ],
      "name": "spDeposit",
      "outputs": [],
      "stateMutability": "payable",
      "type": "function"
    },
    {
      "inputs": [],
      "name": "spGetPendingSwaps",
      "outputs": [
        {
          "components": [
            {
              "internalType": "bytes32",
              "name": "SwapID",
              "type": "bytes32"
            },
            {
              "internalType": "bytes32",
              "name": "DestAddr",
              "type": "bytes32"
            },
            {
              "internalType": "address",
              "name": "RefundAddr",
              "type": "address"
            },
            {
              "internalType": "uint256",
              "name": "AmountWBTC",
              "type": "uint256"
            },
            {
              "internalType": "uint256",
              "name": "Timestamp",
              "type": "uint256"
            }
          ],
          "internalType": "struct SwapContract.spPendingTx[]",
          "name": "data",
          "type": "tuple[]"
        }
      ],
      "stateMutability": "view",
      "type": "function"
    },
    {
      "inputs": [
        {
          "components": [
            {
              "internalType": "address",
              "name": "fromToken",
              "type": "address"
            },
            {
              "internalType": "address",
              "name": "toToken",
              "type": "address"
            },
            {
              "internalType": "uint256",
              "name": "fromAmount",
              "type": "uint256"
            },
            {
              "internalType": "uint256",
              "name": "toAmount",
              "type": "uint256"
            },
            {
              "internalType": "uint256",
              "name": "expectedAmount",
              "type": "uint256"
            },
            {
              "internalType": "address[]",
              "name": "callees",
              "type": "address[]"
            },
            {
              "internalType": "bytes",
              "name": "exchangeData",
              "type": "bytes"
            },
            {
              "internalType": "uint256[]",
              "name": "startIndexes",
              "type": "uint256[]"
            },
            {
              "internalType": "uint256[]",
              "name": "values",
              "type": "uint256[]"
            },
            {
              "internalType": "address payable",
              "name": "beneficiary",
              "type": "address"
            },
            {
              "internalType": "address payable",
              "name": "partner",
              "type": "address"
            },
            {
              "internalType": "uint256",
              "name": "feePercent",
              "type": "uint256"
            },
            {
              "internalType": "bytes",
              "name": "permit",
              "type": "bytes"
            },
            {
              "internalType": "uint256",
              "name": "deadline",
              "type": "uint256"
            },
            {
              "internalType": "bytes16",
              "name": "uuid",
              "type": "bytes16"
            }
          ],
          "internalType": "struct Utils.SimpleData",
          "name": "_data",
          "type": "tuple"
        }
      ],
      "name": "spParaSwapBTC2Token",
      "outputs": [],
      "stateMutability": "payable",
      "type": "function"
    },
    {
      "inputs": [
        {
          "internalType": "bytes32",
          "name": "_destinationAddressForBTC",
          "type": "bytes32"
        },
        {
          "components": [
            {
              "internalType": "address",
              "name": "fromToken",
              "type": "address"
            },
            {
              "internalType": "address",
              "name": "toToken",
              "type": "address"
            },
            {
              "internalType": "uint256",
              "name": "fromAmount",
              "type": "uint256"
            },
            {
              "internalType": "uint256",
              "name": "toAmount",
              "type": "uint256"
            },
            {
              "internalType": "uint256",
              "name": "expectedAmount",
              "type": "uint256"
            },
            {
              "internalType": "address[]",
              "name": "callees",
              "type": "address[]"
            },
            {
              "internalType": "bytes",
              "name": "exchangeData",
              "type": "bytes"
            },
            {
              "internalType": "uint256[]",
              "name": "startIndexes",
              "type": "uint256[]"
            },
            {
              "internalType": "uint256[]",
              "name": "values",
              "type": "uint256[]"
            },
            {
              "internalType": "address payable",
              "name": "beneficiary",
              "type": "address"
            },
            {
              "internalType": "address payable",
              "name": "partner",
              "type": "address"
            },
            {
              "internalType": "uint256",
              "name": "feePercent",
              "type": "uint256"
            },
            {
              "internalType": "bytes",
              "name": "permit",
              "type": "bytes"
            },
            {
              "internalType": "uint256",
              "name": "deadline",
              "type": "uint256"
            },
            {
              "internalType": "bytes16",
              "name": "uuid",
              "type": "bytes16"
            }
          ],
          "internalType": "struct Utils.SimpleData",
          "name": "_data",
          "type": "tuple"
        }
      ],
      "name": "spParaSwapToken2BTC",
      "outputs": [],
      "stateMutability": "nonpayable",
      "type": "function"
    },
    {
      "inputs": [
        {
          "internalType": "uint256",
          "name": "",
          "type": "uint256"
        }
      ],
      "name": "spPendingTXs",
      "outputs": [
        {
          "internalType": "bytes32",
          "name": "SwapID",
          "type": "bytes32"
        },
        {
          "internalType": "bytes32",
          "name": "DestAddr",
          "type": "bytes32"
        },
        {
          "internalType": "address",
          "name": "RefundAddr",
          "type": "address"
        },
        {
          "internalType": "uint256",
          "name": "AmountWBTC",
          "type": "uint256"
        },
        {
          "internalType": "uint256",
          "name": "Timestamp",
          "type": "uint256"
        }
      ],
      "stateMutability": "view",
      "type": "function"
    },
    {
      "inputs": [
        {
          "internalType": "address",
          "name": "",
          "type": "address"
        },
        {
          "internalType": "address",
          "name": "",
          "type": "address"
        }
      ],
      "name": "tokens",
      "outputs": [
        {
          "internalType": "uint256",
          "name": "",
          "type": "uint256"
        }
      ],
      "stateMutability": "view",
      "type": "function"
    },
    {
      "inputs": [
        {
          "internalType": "address",
          "name": "newOwner",
          "type": "address"
        }
      ],
      "name": "transferOwnership",
      "outputs": [],
      "stateMutability": "nonpayable",
      "type": "function"
    },
    {
      "inputs": [],
      "name": "tssThreshold",
      "outputs": [
        {
          "internalType": "uint8",
          "name": "",
          "type": "uint8"
        }
      ],
      "stateMutability": "view",
      "type": "function"
    },
    {
      "inputs": [],
      "name": "wETH",
      "outputs": [
        {
          "internalType": "address",
          "name": "",
          "type": "address"
        }
      ],
      "stateMutability": "view",
      "type": "function"
    },
    {
      "inputs": [
        {
          "internalType": "address",
          "name": "",
          "type": "address"
        }
      ],
      "name": "whitelist",
      "outputs": [
        {
          "internalType": "bool",
          "name": "",
          "type": "bool"
        }
      ],
      "stateMutability": "view",
      "type": "function"
    },
    {
      "inputs": [],
      "name": "withdrawalFeeBPS",
      "outputs": [
        {
          "internalType": "uint8",
          "name": "",
          "type": "uint8"
        }
      ],
      "stateMutability": "view",
      "type": "function"
    },
    {
      "stateMutability": "payable",
      "type": "receive"
    }
  ],
  "bytecode": "0x6101206040523480156200001257600080fd5b506040516200537e3803806200537e833981016040819052620000359162000339565b6200004033620002cc565b600180556202a3006002556000600581905560049081556001600160a01b0380841661010052851660a08190526040805163313ce56760e01b81529051919263313ce567928282019260209290829003018186803b158015620000a257600080fd5b505afa158015620000b7573d6000803e3d6000fd5b505050506040513d601f19601f82011682018060405250810190620000dd91906200038b565b620000ea90600a620004cc565b60e0526001600160a01b03831660808190526007805464ffffff000019166414324200001790556040805163313ce56760e01b815290516008929163313ce567916004808301926020929190829003018186803b1580156200014b57600080fd5b505afa15801562000160573d6000803e3d6000fd5b505050506040513d601f19601f820116820180604052508101906200018691906200038b565b620001929190620004dd565b6200019f90600a620004cc565b60c08181525050836001600160a01b031663313ce5676040518163ffffffff1660e01b815260040160206040518083038186803b158015620001e057600080fd5b505afa158015620001f5573d6000803e3d6000fd5b505050506040513d601f19601f820116820180604052508101906200021b91906200038b565b6200022890600a620004cc565b600a556000600881905560098190556001600160a01b039384168152600660209081526040808320805460ff199081166001908117909255979096168352822080548716861790559080527f54cdd369e4e8a8515e52ca72ec816c2101831ad1f18bf44102ed171459c9b4f8805490951690931790935550600b90527fdf7de25b7f1fd6d0b5205f0e18f1f35bd7b8d84cce336588d184533ce43a6f765562000503565b600080546001600160a01b038381166001600160a01b0319831681178455604051919092169283917f8be0079c531659141344cd1fd0a4f28419497f9722a3daafe3b4186f6b6457e09190a35050565b80516001600160a01b03811681146200033457600080fd5b919050565b600080600080608085870312156200035057600080fd5b6200035b856200031c565b93506200036b602086016200031c565b92506200037b604086016200031c565b6060959095015193969295505050565b6000602082840312156200039e57600080fd5b815160ff81168114620003b057600080fd5b9392505050565b634e487b7160e01b600052601160045260246000fd5b600181815b808511156200040e578160001904821115620003f257620003f2620003b7565b808516156200040057918102915b93841c9390800290620003d2565b509250929050565b6000826200042757506001620004c6565b816200043657506000620004c6565b81600181146200044f57600281146200045a576200047a565b6001915050620004c6565b60ff8411156200046e576200046e620003b7565b50506001821b620004c6565b5060208310610133831016604e8410600b84101617156200049f575081810a620004c6565b620004ab8383620003cd565b8060001904821115620004c257620004c2620003b7565b0290505b92915050565b6000620003b060ff84168362000416565b600060ff821660ff841680821015620004fa57620004fa620003b7565b90039392505050565b60805160a05160c05160e05161010051614cf46200068a60003960008181610243015281816107bb01528181611b7401528181611bd001528181611c3d01528181611c8c01528181611cff015281816124e60152818161256001526125a90152600081816112f2015281816130e20152818161336101526138850152600061321501526000818161054101528181610e6c01528181610ea70152818161123e01528181611e7c01528181611eb70152818161272801528181612763015281816128c90152818161295c01528181612fd1015281816135e501526138f9015260008181610337015281816108c00152818161090b01528181610e1801528181610e4a015281816111730152818161121201528181611ad901528181611b1501528181611e2801528181611e5a015281816120e501528181612380015281816126d401528181612706015281816131d701528181613445015281816134dc0152818161358c015281816136f00152818161373d01528181613d3c0152613d810152614cf46000f3fe6080604052600436106102335760003560e01c8063715018a61161012e578063ca0707e7116100ab578063ec4827291161006f578063ec48272914610774578063f2428621146107a9578063f2fde38b146107dd578063f7824bc7146107fd578063f7888aec1461081357610272565b8063ca0707e7146106e6578063d6b2779a146106f9578063da284dcc14610719578063e6ca20841461072f578063e9e9bf6a1461075f57610272565b80639b19251a116100f25780639b19251a14610641578063ad289e7614610671578063b59b54c314610691578063b6268e5d146106a4578063c810a539146106c657610272565b8063715018a6146105bb5780637c747cf9146105d05780638006cc3e146105f05780638535490f146106105780638da5cb5b1461062357610272565b80632d55282d116101bc578063508493bc11610180578063508493bc146104f75780635fcbd2851461052f57806363f289d9146105635780636b51e919146105835780636d019f35146105a557610272565b80632d55282d1461045d5780633b6fa1271461048157806342419255146104a157806345137e27146104c25780634db75485146104d757610272565b80630f909486116102035780630f9094861461032557806312d1441e146103715780631ab7e9371461039057806320199e991461041b5780632586c5621461043d57610272565b806289356f1461028457806308f6263b146102b55780630b68134d146102d55780630d63aca7146102f557610272565b3661027257336001600160a01b037f0000000000000000000000000000000000000000000000000000000000000000161461027057610270614077565b005b34801561027e57600080fd5b50600080fd5b34801561029057600080fd5b5060075461029e9060ff1681565b60405160ff90911681526020015b60405180910390f35b3480156102c157600080fd5b506102706102d03660046140a6565b610859565b3480156102e157600080fd5b5060075461029e9062010000900460ff1681565b34801561030157600080fd5b506103156103103660046141e8565b610d80565b60405190151581526020016102ac565b34801561033157600080fd5b506103597f000000000000000000000000000000000000000000000000000000000000000081565b6040516001600160a01b0390911681526020016102ac565b34801561037d57600080fd5b5060075461029e90610100900460ff1681565b34801561039c57600080fd5b506103e56103ab366004614266565b600360208190526000918252604090912080546001820154600283015493830154600490930154919390926001600160a01b039091169185565b6040805195865260208601949094526001600160a01b03909216928401929092526060830191909152608082015260a0016102ac565b34801561042757600080fd5b50610430610ef3565b6040516102ac919061427f565b34801561044957600080fd5b506103156104583660046142f6565b611055565b34801561046957600080fd5b5061047360085481565b6040519081526020016102ac565b34801561048d57600080fd5b5061047361049c366004614331565b611156565b3480156104ad57600080fd5b5060075461029e906301000000900460ff1681565b3480156104ce57600080fd5b50610473611206565b3480156104e357600080fd5b506103156104f2366004614331565b611338565b34801561050357600080fd5b5061047361051236600461435d565b601060209081526000928352604080842090915290825290205481565b34801561053b57600080fd5b506103597f000000000000000000000000000000000000000000000000000000000000000081565b34801561056f57600080fd5b5061031561057e3660046143a4565b611471565b34801561058f57600080fd5b50610598611511565b6040516102ac91906143ec565b3480156105b157600080fd5b50610473600a5481565b3480156105c757600080fd5b5061027061169d565b3480156105dc57600080fd5b506103156105eb366004614441565b6116d3565b3480156105fc57600080fd5b5061031561060b3660046142f6565b611a55565b61027061061e366004614266565b611b6a565b34801561062f57600080fd5b506000546001600160a01b0316610359565b34801561064d57600080fd5b5061031561065c366004614563565b60066020526000908152604090205460ff1681565b34801561067d57600080fd5b5061031561068c366004614580565b611d90565b61027061069f36600461460a565b611f54565b3480156106b057600080fd5b5060075461029e90640100000000900460ff1681565b3480156106d257600080fd5b506103156106e136600461463f565b61224b565b6102706106f4366004614331565b61234f565b34801561070557600080fd5b50610315610714366004614661565b61263c565b34801561072557600080fd5b5061047360025481565b34801561073b57600080fd5b5061031561074a366004614266565b6000908152600c602052604090205460ff1690565b34801561076b57600080fd5b506103156127c9565b34801561078057600080fd5b5061079461078f36600461435d565b612abb565b604080519283526020830191909152016102ac565b3480156107b557600080fd5b506103597f000000000000000000000000000000000000000000000000000000000000000081565b3480156107e957600080fd5b506102706107f8366004614563565b612ae5565b34801561080957600080fd5b5061047360095481565b34801561081f57600080fd5b5061047361082e36600461435d565b6001600160a01b03918216600090815260106020908152604080832093909416825291909152205490565b600260015414156108b15760405162461bcd60e51b815260206004820152601f60248201527f5265656e7472616e637947756172643a207265656e7472616e742063616c6c0060448201526064015b60405180910390fd5b60026001556001600160a01b037f0000000000000000000000000000000000000000000000000000000000000000166108ed6020830183614563565b6001600160a01b0316141561090157600080fd5b6001600160a01b037f00000000000000000000000000000000000000000000000000000000000000001661093b6040830160208401614563565b6001600160a01b03161461098a5760405162461bcd60e51b815260206004820152601660248201527526bab9ba1039bbb0b8103a3790212a21903a37b5b2b760511b60448201526064016108a8565b3061099d61014083016101208401614563565b6001600160a01b031614610a195760405162461bcd60e51b815260206004820152603c60248201527f596f752063616e206f6e6c79206578656375746520666c6f772032207377617060448201527f7320746f207468697320636f6e7472616374277320616464726573730000000060648201526084016108a8565b604081013560106000610a2f6020850185614563565b6001600160a01b03168152602080820192909252604090810160009081203382529092529020541015610aa05760405162461bcd60e51b815260206004820152601960248201527810985b185b98d9481a5cc81b9bdd081cdd59999a58da595b9d603a1b60448201526064016108a8565b6000610ab26040830160208401614563565b6040516370a0823160e01b81523060048201526001600160a01b0391909116906370a082319060240160206040518083038186803b158015610af357600080fd5b505afa158015610b07573d6000803e3d6000fd5b505050506040513d601f19601f82011682018060405250810190610b2b91906146ca565b9050610b73604083013560106000610b466020870187614563565b6001600160a01b031681526020808201929092526040908101600090812033825290925290205490612b80565b60106000610b846020860186614563565b6001600160a01b0316815260208082019290925260409081016000908120338252909252902055610bb482612b93565b506000610c4a82610bcb6040860160208701614563565b6040516370a0823160e01b81523060048201526001600160a01b0391909116906370a082319060240160206040518083038186803b158015610c0c57600080fd5b505afa158015610c20573d6000803e3d6000fd5b505050506040513d601f19601f82011682018060405250810190610c4491906146ca565b90612b80565b905082608001358111610c9f5760405162461bcd60e51b815260206004820152601c60248201527f526563656976656420616d6f756e7420696e73756666696369656e740000000060448201526064016108a8565b80610cec5760405162461bcd60e51b815260206004820152601c60248201527f526563656976656420616d6f756e742063616e206e6f7420626520300000000060448201526064016108a8565b610d318160106000610d046040880160208901614563565b6001600160a01b031681526020808201929092526040908101600090812030825290925290205490612db2565b60106000610d456040870160208801614563565b6001600160a01b0316815260208082019290925260409081016000908120308252909252902055610d768482612dbe565b5050600180555050565b600080546001600160a01b03163314610dab5760405162461bcd60e51b81526004016108a8906146e3565b6001600160a01b03871660009081526006602052604090205460ff16610de35760405162461bcd60e51b81526004016108a890614718565b6001600160a01b038716610e095760405162461bcd60e51b81526004016108a89061474f565b60008415610e4257610e3d60007f000000000000000000000000000000000000000000000000000000000000000087612ee1565b610e6a565b84610e6a57507f00000000000000000000000000000000000000000000000000000000000000005b7f00000000000000000000000000000000000000000000000000000000000000006001600160a01b0316886001600160a01b03161415610ec757507f00000000000000000000000000000000000000000000000000000000000000005b610ed18185612fc6565b610eda83613171565b610ee58888886131d5565b506001979650505050505050565b60606000610f0e600554600454612b8090919063ffffffff16565b67ffffffffffffffff811115610f2657610f26614112565b604051908082528060200260200182016040528015610f7f57816020015b6040805160a081018252600080825260208083018290529282018190526060820181905260808201528252600019909201910181610f445790505b5091506000610f9a6001600554612db290919063ffffffff16565b90505b60045481116110505760036000610fbf60055485612db290919063ffffffff16565b81526020808201929092526040908101600020815160a0810183528154815260018201549381019390935260028101546001600160a01b03169183019190915260038101546060830152600401546080820152835184908490811061102657611026614792565b602090810291909101015261103c826001612db2565b915080611048816147be565b915050610f9d565b505090565b600080546001600160a01b031633146110805760405162461bcd60e51b81526004016108a8906146e3565b600061108a611206565b6001600160a01b03871660009081526006602052604090205490915060ff166110e95760405162461bcd60e51b815260206004820152601160248201527017dd1bdad95b881a5cc81a5b9d985b1a59607a1b60448201526064016108a8565b6110f5868686866132cc565b6110fe57600080fd5b600191508061110b611206565b101561114d5760405162461bcd60e51b8152602060048201526011602482015270496e76616c6964204c505420707269636560781b60448201526064016108a8565b50949350505050565b60008061116384846136e4565b90508060ff16600114156111c9577f00000000000000000000000000000000000000000000000000000000000000006001600160a01b0316846001600160a01b0316146111b15760006111bf565b6007546301000000900460ff165b60ff1691506111ff565b8060ff16600214156111ff576001600160a01b038416156111eb5760006111f9565b6007546301000000900460ff165b60ff1691505b5092915050565b600080600061123660007f0000000000000000000000000000000000000000000000000000000000000000612abb565b9150915060007f00000000000000000000000000000000000000000000000000000000000000006001600160a01b03166318160ddd6040518163ffffffff1660e01b815260040160206040518083038186803b15801561129557600080fd5b505afa1580156112a9573d6000803e3d6000fd5b505050506040513d601f19601f820116820180604052508101906112cd91906146ca565b9050801561132c576113276112ed60085483612db290919063ffffffff16565b6113217f000000000000000000000000000000000000000000000000000000000000000061131b8787612db2565b906137d3565b906137df565b611330565b600a545b935050505090565b6001600160a01b03821660009081526010602090815260408083203384529091528120548211156113a25760405162461bcd60e51b8152602060048201526014602482015273496e73756666696369656e742042616c616e636560601b60448201526064016108a8565b6001600160a01b03831660009081526010602090815260408083203384529091529020546113d09083612b80565b6001600160a01b038416600090815260106020908152604080832033808552925290912091909155611404908490846131d5565b6001600160a01b0383166000908152601060209081526040808320338085529252918290205491517febff2602b3f468259e1e99f613fed6691f3a6526effe6ef3e768ba7ae7a36c4f9261145f9287929091879142906147d9565b60405180910390a15060015b92915050565b600080546001600160a01b0316331461149c5760405162461bcd60e51b81526004016108a8906146e3565b60006114a6611206565b6001600160a01b03871660009081526006602052604090205490915060ff166115055760405162461bcd60e51b815260206004820152601160248201527017dd1bdad95b881a5cc81a5b9d985b1a59607a1b60448201526064016108a8565b6110f5868686866137eb565b606060008060005b600f5481101561158457600d6000600f838154811061153a5761153a614792565b60009182526020808320909101546001600160a01b03168352820192909252604001902054156115725761156f836001612db2565b92505b8061157c816147be565b915050611519565b5060008267ffffffffffffffff8111156115a0576115a0614112565b6040519080825280602002602001820160405280156115c9578160200160208202803683370190505b50905060005b600f5481101561169557600d6000600f83815481106115f0576115f0614792565b60009182526020808320909101546001600160a01b031683528201929092526040019020541561168357600d6000600f838154811061163157611631614792565b60009182526020808320909101546001600160a01b03168352820192909252604001902054825183908590811061166a5761166a614792565b6020908102919091010152611680836001612db2565b92505b8061168d816147be565b9150506115cf565b509392505050565b6000546001600160a01b031633146116c75760405162461bcd60e51b81526004016108a8906146e3565b6116d16000613a3b565b565b600080546001600160a01b031633146116fe5760405162461bcd60e51b81526004016108a8906146e3565b60075460ff610100909104811690861610801590611720575060ff8560ff1611155b61177c5760405162461bcd60e51b815260206004820152602760248201527f5f7473735468726573686f6c642073686f756c64206265203e3d2074737354686044820152661c995cda1bdb1960ca1b60648201526084016108a8565b61178760018661480a565b60ff168660ff1610156117d15760405162461bcd60e51b81526020600482015260126024820152716e2073686f756c64206265203e3d20742b3160701b60448201526064016108a8565b60648460ff1611156118255760405162461bcd60e51b815260206004820152601e60248201527f5f6e6f646552657761726473526174696f206973206e6f742076616c6964000060448201526064016108a8565b60648360ff1611156118795760405162461bcd60e51b815260206004820152601c60248201527f5f7769746864726177616c46656542505320697320696e76616c69640000000060448201526064016108a8565b86518851146118f05760405162461bcd60e51b815260206004820152603b60248201527f5f72657761726441646472657373416e64416d6f756e747320616e64205f697360448201527f52656d6f766564206c656e677468206973206e6f74206d61746368000000000060648201526084016108a8565b81156118ff576118ff82600255565b61190889612ae5565b60005b885181101561199157600061193c8a838151811061192b5761192b614792565b60200260200101519060a082901c90565b50905061197c818b848151811061195557611955614792565b60200260200101518b858151811061196f5761196f614792565b6020026020010151613a8b565b50508080611989906147be565b91505061190b565b50600061199c611511565b90506064815111156119fa5760405162461bcd60e51b815260206004820152602160248201527f53746f726564206e6f64652073697a652073686f756c64206265203c3d2031306044820152600360fc1b60648201526084016108a8565b50506007805460ff8481166401000000000264ff000000001987831662010000021664ff00ff0000198984166101000261ffff19909516938b1693909317939093179190911691909117179055600198975050505050505050565b600080546001600160a01b03163314611a805760405162461bcd60e51b81526004016108a8906146e3565b6001600160a01b03851615611ad75760405162461bcd60e51b815260206004820152601f60248201527f5f64657374546f6b656e2073686f756c6420626520616464726573732830290060448201526064016108a8565b7f00000000000000000000000000000000000000000000000000000000000000008415611b4b576000611b0e85610c448887612b80565b9050611b457f00000000000000000000000000000000000000000000000000000000000000006000611b408489612db2565b612ee1565b50611b54565b84611b54575060005b611b5e8184612fc6565b50600195945050505050565b6001600160a01b037f0000000000000000000000000000000000000000000000000000000000000000166000908152601060209081526040808320338452909152902054811115611bba57600080fd5b604051632e1a7d4d60e01b8152600481018290527f00000000000000000000000000000000000000000000000000000000000000006001600160a01b031690632e1a7d4d90602401600060405180830381600087803b158015611c1c57600080fd5b505af1158015611c30573d6000803e3d6000fd5b5050506001600160a01b037f0000000000000000000000000000000000000000000000000000000000000000166000908152601060209081526040808320338452909152902054611c82915082612b80565b6001600160a01b037f0000000000000000000000000000000000000000000000000000000000000000166000908152601060209081526040808320338085529252808320939093559151829184156108fc02918591818181858888f19350505050158015611cf4573d6000803e3d6000fd5b506001600160a01b037f0000000000000000000000000000000000000000000000000000000000000000166000908152601060209081526040808320338085529252918290205491517febff2602b3f468259e1e99f613fed6691f3a6526effe6ef3e768ba7ae7a36c4f92611d849273eeeeeeeeeeeeeeeeeeeeeeeeeeeeeeeeeeeeeeee929091879142906147d9565b60405180910390a15050565b600080546001600160a01b03163314611dbb5760405162461bcd60e51b81526004016108a8906146e3565b6001600160a01b03861660009081526006602052604090205460ff16611df35760405162461bcd60e51b81526004016108a890614718565b6001600160a01b038616611e195760405162461bcd60e51b81526004016108a89061474f565b60008415611e5257611e4d60007f000000000000000000000000000000000000000000000000000000000000000087612ee1565b611e7a565b84611e7a57507f00000000000000000000000000000000000000000000000000000000000000005b7f00000000000000000000000000000000000000000000000000000000000000006001600160a01b0316876001600160a01b03161415611ed757507f00000000000000000000000000000000000000000000000000000000000000005b611ee18185612fc6565b611eea83613171565b60005b8651811015610ee557611f4288888381518110611f0c57611f0c614792565b602002602001015160001c898481518110611f2957611f29614792565b602002602001015160a01c6001600160601b03166131d5565b80611f4c816147be565b915050611eed565b60026001541415611fa75760405162461bcd60e51b815260206004820152601f60248201527f5265656e7472616e637947756172643a207265656e7472616e742063616c6c0060448201526064016108a8565b600260015533611fbf61014083016101208401614563565b6001600160a01b03161461202c5760405162461bcd60e51b815260206004820152602e60248201527f596f752063616e206f6e6c79206578656375746520737761707320746f20796f60448201526d7572206f776e206164647265737360901b60648201526084016108a8565b6040810135601060006120426020850185614563565b6001600160a01b03168152602081019190915260400160009081209061207061014085016101208601614563565b6001600160a01b03166001600160a01b031681526020019081526020016000205410156120db5760405162461bcd60e51b815260206004820152601960248201527810985b185b98d9481a5cc81b9bdd081cdd59999a58da595b9d603a1b60448201526064016108a8565b6001600160a01b037f0000000000000000000000000000000000000000000000000000000000000000166121126020830183614563565b6001600160a01b03161461217a5760405162461bcd60e51b815260206004820152602960248201527f66726f6d546f6b656e206d7573742062652074686520726571756972656420426044820152682a21ba103a37b5b2b760b91b60648201526084016108a8565b61218381612b93565b506121eb60408201356010600061219d6020860186614563565b6001600160a01b0316815260208101919091526040016000908120906121cb61014086016101208701614563565b6001600160a01b0316815260208101919091526040016000205490612b80565b601060006121fc6020850185614563565b6001600160a01b03168152602081019190915260400160009081209061222a61014085016101208601614563565b6001600160a01b031681526020810191909152604001600020555060018055565b600080546001600160a01b031633146122765760405162461bcd60e51b81526004016108a8906146e3565b6000828152600c602052604090205460ff16156122a55760405162461bcd60e51b81526004016108a89061482f565b60408051808201909152601d81527f42544320666c6f617420616d6f756e7420696e73756666696369656e7400000060208083019190915260008052600b90527fdf7de25b7f1fd6d0b5205f0e18f1f35bd7b8d84cce336588d184533ce43a6f7654612312918590613b5a565b60008052600b6020527fdf7de25b7f1fd6d0b5205f0e18f1f35bd7b8d84cce336588d184533ce43a6f765561234682613b86565b50600192915050565b346124d7576001600160a01b03821673eeeeeeeeeeeeeeeeeeeeeeeeeeeeeeeeeeeeeeee141561237e57600080fd5b7f00000000000000000000000000000000000000000000000000000000000000006001600160a01b0316826001600160a01b031614156123bd57600080fd5b6040516323b872dd60e01b8152336004820152306024820152604481018290526001600160a01b038316906323b872dd90606401602060405180830381600087803b15801561240b57600080fd5b505af115801561241f573d6000803e3d6000fd5b505050506040513d601f19601f820116820180604052508101906124439190614866565b61244c57600080fd5b6001600160a01b038216600090815260106020908152604080832033845290915290205461247a9082612db2565b6001600160a01b03831660009081526010602090815260408083203380855292529182902083905590517f4e2ca0515ed1aef1395f66b5303bb5d6f1bf9d61a353fa53f73f8ac9973fa9f692611d849286929091869142906147d9565b600034116124e457600080fd5b7f00000000000000000000000000000000000000000000000000000000000000006001600160a01b031663d0e30db0346040518263ffffffff1660e01b81526004016000604051808303818588803b15801561253f57600080fd5b505af1158015612553573d6000803e3d6000fd5b5050506001600160a01b037f00000000000000000000000000000000000000000000000000000000000000001660009081526010602090815260408083203384529091529020546125a79250905034612db2565b7f00000000000000000000000000000000000000000000000000000000000000006001600160a01b031660009081526010602090815260408083203380855292529182902083905590517f4e2ca0515ed1aef1395f66b5303bb5d6f1bf9d61a353fa53f73f8ac9973fa9f692611d849273eeeeeeeeeeeeeeeeeeeeeeeeeeeeeeeeeeeeeeee929091349142906147d9565b5050565b600080546001600160a01b031633146126675760405162461bcd60e51b81526004016108a8906146e3565b6001600160a01b03861660009081526006602052604090205460ff1661269f5760405162461bcd60e51b81526004016108a890614718565b6001600160a01b0386166126c55760405162461bcd60e51b81526004016108a89061474f565b600083156126fe576126f960007f000000000000000000000000000000000000000000000000000000000000000086612ee1565b612726565b8361272657507f00000000000000000000000000000000000000000000000000000000000000005b7f00000000000000000000000000000000000000000000000000000000000000006001600160a01b0316876001600160a01b0316141561278357507f00000000000000000000000000000000000000000000000000000000000000005b61278d8786613ba1565b61279683613171565b505050506001600160a01b0392831660009081526010602090815260408083209490951682529290925291902055600190565b6000806127e3600954600854612db290919063ffffffff16565b9050600081116128435760405162461bcd60e51b815260206004820152602560248201527f746f74616c5265776172644c5073466f724e6f6465206973206e6f7420706f73604482015264697469766560d81b60648201526084016108a8565b600061284d611511565b90506000805b82518110156128a85761289483828151811061287157612871614792565b602002602001015160a01c6001600160601b031683612db290919063ffffffff16565b9150806128a0816147be565b915050612853565b506008546040516340c10f1960e01b815230600482015260248101919091527f00000000000000000000000000000000000000000000000000000000000000006001600160a01b0316906340c10f1990604401602060405180830381600087803b15801561291557600080fd5b505af1158015612929573d6000803e3d6000fd5b505050506040513d601f19601f8201168201806040525081019061294d9190614866565b5060005b8251811015612a73577f00000000000000000000000000000000000000000000000000000000000000006001600160a01b031663a9059cbb84838151811061299b5761299b614792565b602002602001015160001c6129e2856113218887815181106129bf576129bf614792565b602002602001015160a01c6001600160601b03168a6137d390919063ffffffff16565b6040516001600160e01b031960e085901b1681526001600160a01b0390921660048301526024820152604401602060405180830381600087803b158015612a2857600080fd5b505af1158015612a3c573d6000803e3d6000fd5b505050506040513d601f19601f82011682018060405250810190612a609190614866565b5080612a6b816147be565b915050612951565b506040518381527f86dd6ae252e62228b47b3c1a12762cbf634952b2d29319b04f4f72fb153bcbdd9060200160405180910390a1505060006008819055600955506001919050565b6001600160a01b039182166000908152600b60205260408082205492909316815291909120549091565b6000546001600160a01b03163314612b0f5760405162461bcd60e51b81526004016108a8906146e3565b6001600160a01b038116612b745760405162461bcd60e51b815260206004820152602660248201527f4f776e61626c653a206e6577206f776e657220697320746865207a65726f206160448201526564647265737360d01b60648201526084016108a8565b612b7d81613a3b565b50565b6000612b8c8284614883565b9392505050565b600073eeeeeeeeeeeeeeeeeeeeeeeeeeeeeeeeeeeeeeee612bb76020840184614563565b6001600160a01b03161415612c065760405162461bcd60e51b815260206004820152601560248201527455736520706174682077455448202d3e207742544360581b60448201526064016108a8565b73eeeeeeeeeeeeeeeeeeeeeeeeeeeeeeeeeeeeeeee612c2b6040840160208501614563565b6001600160a01b03161415612c7a5760405162461bcd60e51b81526020600482015260156024820152740aae6ca40e0c2e8d040ee84a886405a7c40ee8aa89605b1b60448201526064016108a8565b600073def171fe48cf0115b1d80b88dc8eab59176fee576001600160a01b031663d2c4b5986040518163ffffffff1660e01b815260040160206040518083038186803b158015612cc957600080fd5b505afa158015612cdd573d6000803e3d6000fd5b505050506040513d601f19601f82011682018060405250810190612d01919061489a565b9050612d29816040850135612d196020870187614563565b6001600160a01b03169190613bfe565b6040516354e3f31b60e01b815273def171fe48cf0115b1d80b88dc8eab59176fee57906354e3f31b90612d60908690600401614a0d565b602060405180830381600087803b158015612d7a57600080fd5b505af1158015612d8e573d6000803e3d6000fd5b505050506040513d601f19601f82011682018060405250810190612b8c91906146ca565b6000612b8c8284614bc3565b60048054604080516020808201849052818301879052606082018690524260808084018290528451808503909101815260a084018086528151918401919091206101408501865280825260c085018a81523360e0870190815261010087018b8152610120909701948552600098895260039586905296909720915182559551600182015593516002850180546001600160a01b0319166001600160a01b0390921691909117905591519083015551920191909155612e7a613ce7565b600454612e88906001612db2565b60045560408051828152602081018590523391810191909152606081018390524260808201527f058800492a0e9d1ce3d60aa19b5a711354aaf0d831a5fa20197617dc4c0a573e9060a0015b60405180910390a1505050565b60408051808201825260208082527f5f737761703a20666c6f617420616d6f756e7420696e73756666696369656e74818301526001600160a01b0385166000908152600b9091529190912054612f38918390613b5a565b6001600160a01b038084166000908152600b60205260408082209390935590851681522054612f679082612db2565b6001600160a01b038481166000818152600b60209081526040918290209490945580519182529185169281019290925281018290527fea368a40e9570069bb8e6511d668293ad2e1f03b0d982431fd223de9f3b70ca690606001612ed4565b80612fcf575050565b7f00000000000000000000000000000000000000000000000000000000000000006001600160a01b0316826001600160a01b0316141561306a576009546130169082612db2565b600955604080516001600160a01b038416815260208101839052600091810182905260608101919091527fe3debe835f6848edc082b32a1d729781d3bfcd7e14422d80bcaa6794d3816b2f90608001611d84565b6000613074611206565b6001600160a01b0384166000908152600b602052604090205490915061309a9083612db2565b6001600160a01b0384166000908152600b60205260408120919091556007546130d49060649061132190869062010000900460ff166137d3565b9050600061310683611321847f00000000000000000000000000000000000000000000000000000000000000006137d3565b6008549091506131169082612db2565b600855604080516001600160a01b038716815260208101869052908101829052606081018490527fe3debe835f6848edc082b32a1d729781d3bfcd7e14422d80bcaa6794d3816b2f9060800160405180910390a15050505050565b60005b8151811015612638576001600c600084848151811061319557613195614792565b6020026020010151815260200190815260200160002060006101000a81548160ff02191690831515021790555080806131cd906147be565b915050613174565b7f00000000000000000000000000000000000000000000000000000000000000006001600160a01b0316836001600160a01b0316141561323c57613239817f00000000000000000000000000000000000000000000000000000000000000006137d3565b90505b60405163a9059cbb60e01b81526001600160a01b0383811660048301526024820183905284169063a9059cbb90604401602060405180830381600087803b15801561328657600080fd5b505af115801561329a573d6000803e3d6000fd5b505050506040513d601f19601f820116820180604052508101906132be9190614866565b6132c757600080fd5b505050565b6000818152600c602052604081205460ff16156132fb5760405162461bcd60e51b81526004016108a89061482f565b836133485760405162461bcd60e51b815260206004820152601c60248201527f546865207472616e73616374696f6e206973206e6f742076616c69640000000060448201526064016108a8565b8360a081901c6000613358611206565b9050600061338a7f000000000000000000000000000000000000000000000000000000000000000061132185856137d3565b6007549091506000906133b19061271090611321908590640100000000900460ff166137d3565b9050876133be8383612b80565b10156134295760405162461bcd60e51b815260206004820152603460248201527f4572726f723a20616d6f756e744f66466c6f61742e737562287769746864726160448201527377616c4665657329203c205f6d696e657246656560601b60648201526084016108a8565b600061343989610c448585612b80565b905060008061346960007f0000000000000000000000000000000000000000000000000000000000000000612abb565b90925090506001600160a01b038d166134da576134868585612b80565b8210156134d55760405162461bcd60e51b815260206004820152601f60248201527f54686520666c6f61742062616c616e636520696e73756666696369656e742e0060448201526064016108a8565b61356d565b7f00000000000000000000000000000000000000000000000000000000000000006001600160a01b03168d6001600160a01b0316141561356d5761351e8585612b80565b81101561356d5760405162461bcd60e51b815260206004820152601f60248201527f54686520666c6f61742062616c616e636520696e73756666696369656e742e0060448201526064016108a8565b6135778d85612fc6565b6135818d86613ba1565b61358a8a613b86565b7f00000000000000000000000000000000000000000000000000000000000000006001600160a01b03168d6001600160a01b031614156135cf576135cf8d89856131d5565b604051630852cd8d60e31b8152600481018890527f00000000000000000000000000000000000000000000000000000000000000006001600160a01b0316906342966c6890602401602060405180830381600087803b15801561363157600080fd5b505af1158015613645573d6000803e3d6000fd5b505050506040513d601f19601f820116820180604052508101906136699190614866565b61367257600080fd5b604080516001600160a01b038a16815260208101899052908101869052606081018790526080810184905260a081018b90527fa9da34e5e4a956b744307ae7611795634e8365951073bf049d76b64b2ae7a0589060c00160405180910390a15060019c9b505050505050505050505050565b600080600061371460007f0000000000000000000000000000000000000000000000000000000000000000612abb565b909250905060006137396003611321600261131b896137338989612db2565b90612db2565b90507f00000000000000000000000000000000000000000000000000000000000000006001600160a01b0316866001600160a01b03161480156137855750806137828387612db2565b10155b15613796576001935050505061146b565b6001600160a01b0386161580156137b65750806137b38487612db2565b10155b156137c7576002935050505061146b565b50600095945050505050565b6000612b8c8284614bdb565b6000612b8c8284614bfa565b6000818152600c602052604081205460ff161561381a5760405162461bcd60e51b81526004016108a89061482f565b836138675760405162461bcd60e51b815260206004820152601c60248201527f546865207472616e73616374696f6e206973206e6f742076616c69640000000060448201526064016108a8565b8360a081901c6000613877611206565b905060006138a982611321857f00000000000000000000000000000000000000000000000000000000000000006137d3565b905060006138b78a85611156565b90506000816138c75760006138d7565b6138d761271061132185856137d3565b90508880156138e557508015155b156138ef57600080fd5b6001600160a01b037f0000000000000000000000000000000000000000000000000000000000000000166340c10f19876139298685612b80565b6040516001600160e01b031960e085901b1681526001600160a01b0390921660048301526024820152604401602060405180830381600087803b15801561396f57600080fd5b505af1158015613983573d6000803e3d6000fd5b505050506040513d601f19601f820116820180604052508101906139a79190614866565b506008546139b59082612db2565b6008556139c28b86613e0a565b6139cb88613b86565b604080516001600160a01b038816815260208101879052908101849052606081018590526080810182905260a081018990527fdfaf4e23f7030adafec91a682e05bf9fb30c721f9cec3d8bcfae0459c5362db19060c00160405180910390a15060019a9950505050505050505050565b600080546001600160a01b038381166001600160a01b0319831681178455604051919092169283917f8be0079c531659141344cd1fd0a4f28419497f9722a3daafe3b4186f6b6457e09190a35050565b60008115613ab457506001600160a01b0383166000908152600d60205260408120556001612b8c565b6001600160a01b0384166000908152600e602052604090205460ff16613b3857600f805460018082019092557f8d1108e10bcb7c27dddfc02ed9d693a074039d026cf4ea4240b40f7d581ac8020180546001600160a01b0319166001600160a01b0387169081179091556000908152600e60205260409020805460ff191690911790555b50506001600160a01b03919091166000908152600d6020526040902055600190565b60008184841115613b7e5760405162461bcd60e51b81526004016108a89190614c48565b505050900390565b6000908152600c60205260409020805460ff19166001179055565b613bde81604051806060016040528060278152602001614c98602791396001600160a01b0385166000908152600b60205260409020549190613b5a565b6001600160a01b039092166000908152600b602052604090209190915550565b604051636eb1769f60e11b81523060048201526001600160a01b038381166024830152600091839186169063dd62ed3e9060440160206040518083038186803b158015613c4a57600080fd5b505afa158015613c5e573d6000803e3d6000fd5b505050506040513d601f19601f82011682018060405250810190613c8291906146ca565b613c8c9190614bc3565b604080516001600160a01b038616602482015260448082018490528251808303909101815260649091019091526020810180516001600160e01b031663095ea7b360e01b179052909150613ce1908590613e2d565b50505050565b60055442905b6004548111612638576002546000828152600360205260409020600401548391613d179190612db2565b1015613df8576000818152600360208181526040808420909201546001600160a01b037f000000000000000000000000000000000000000000000000000000000000000016845260108252828420308552909152912054613d7791612b80565b6001600160a01b037f0000000000000000000000000000000000000000000000000000000000000000166000908152601060209081526040808320308452825280832093909355838252600390819052918120818155600181018290556002810180546001600160a01b031916905591820181905560049091015560058190555b80613e02816147be565b915050613ced565b6001600160a01b0382166000908152600b6020526040902054613bde9082612db2565b6000613e82826040518060400160405280602081526020017f5361666545524332303a206c6f772d6c6576656c2063616c6c206661696c6564815250856001600160a01b0316613eff9092919063ffffffff16565b8051909150156132c75780806020019051810190613ea09190614866565b6132c75760405162461bcd60e51b815260206004820152602a60248201527f5361666545524332303a204552433230206f7065726174696f6e20646964206e6044820152691bdd081cdd58d8d9595960b21b60648201526084016108a8565b6060613f0e8484600085613f16565b949350505050565b606082471015613f775760405162461bcd60e51b815260206004820152602660248201527f416464726573733a20696e73756666696369656e742062616c616e636520666f6044820152651c8818d85b1b60d21b60648201526084016108a8565b843b613fc55760405162461bcd60e51b815260206004820152601d60248201527f416464726573733a2063616c6c20746f206e6f6e2d636f6e747261637400000060448201526064016108a8565b600080866001600160a01b03168587604051613fe19190614c7b565b60006040518083038185875af1925050503d806000811461401e576040519150601f19603f3d011682016040523d82523d6000602084013e614023565b606091505b509150915061403382828661403e565b979650505050505050565b6060831561404d575081612b8c565b82511561405d5782518084602001fd5b8160405162461bcd60e51b81526004016108a89190614c48565b634e487b7160e01b600052600160045260246000fd5b60006101e082840312156140a057600080fd5b50919050565b600080604083850312156140b957600080fd5b82359150602083013567ffffffffffffffff8111156140d757600080fd5b6140e38582860161408d565b9150509250929050565b6001600160a01b0381168114612b7d57600080fd5b803561410d816140ed565b919050565b634e487b7160e01b600052604160045260246000fd5b604051601f8201601f1916810167ffffffffffffffff8111828210171561415157614151614112565b604052919050565b600067ffffffffffffffff82111561417357614173614112565b5060051b60200190565b600082601f83011261418e57600080fd5b813560206141a361419e83614159565b614128565b82815260059290921b840181019181810190868411156141c257600080fd5b8286015b848110156141dd57803583529183019183016141c6565b509695505050505050565b60008060008060008060c0878903121561420157600080fd5b863561420c816140ed565b9550602087013561421c816140ed565b945060408701359350606087013592506080870135915060a087013567ffffffffffffffff81111561424d57600080fd5b61425989828a0161417d565b9150509295509295509295565b60006020828403121561427857600080fd5b5035919050565b602080825282518282018190526000919060409081850190868401855b828110156142e9578151805185528681015187860152858101516001600160a01b031686860152606080820151908601526080908101519085015260a0909301929085019060010161429c565b5091979650505050505050565b6000806000806080858703121561430c57600080fd5b8435614317816140ed565b966020860135965060408601359560600135945092505050565b6000806040838503121561434457600080fd5b823561434f816140ed565b946020939093013593505050565b6000806040838503121561437057600080fd5b823561437b816140ed565b9150602083013561438b816140ed565b809150509250929050565b8015158114612b7d57600080fd5b600080600080608085870312156143ba57600080fd5b84356143c5816140ed565b93506020850135925060408501356143dc81614396565b9396929550929360600135925050565b6020808252825182820181905260009190848201906040850190845b8181101561442457835183529284019291840191600101614408565b50909695505050505050565b803560ff8116811461410d57600080fd5b600080600080600080600080610100898b03121561445e57600080fd5b8835614469816140ed565b975060208981013567ffffffffffffffff8082111561448757600080fd5b6144938d838e0161417d565b995060408c01359150808211156144a957600080fd5b508a01601f81018c136144bb57600080fd5b80356144c961419e82614159565b81815260059190911b8201830190838101908e8311156144e857600080fd5b928401925b8284101561450f57833561450081614396565b825292840192908401906144ed565b809a50505050505061452360608a01614430565b945061453160808a01614430565b935061453f60a08a01614430565b925061454d60c08a01614430565b915060e089013590509295985092959890939650565b60006020828403121561457557600080fd5b8135612b8c816140ed565b600080600080600060a0868803121561459857600080fd5b85356145a3816140ed565b9450602086013567ffffffffffffffff808211156145c057600080fd5b6145cc89838a0161417d565b9550604088013594506060880135935060808801359150808211156145f057600080fd5b506145fd8882890161417d565b9150509295509295909350565b60006020828403121561461c57600080fd5b813567ffffffffffffffff81111561463357600080fd5b613f0e8482850161408d565b6000806040838503121561465257600080fd5b50508035926020909101359150565b600080600080600060a0868803121561467957600080fd5b8535614684816140ed565b94506020860135614694816140ed565b93506040860135925060608601359150608086013567ffffffffffffffff8111156146be57600080fd5b6145fd8882890161417d565b6000602082840312156146dc57600080fd5b5051919050565b6020808252818101527f4f776e61626c653a2063616c6c6572206973206e6f7420746865206f776e6572604082015260600190565b6020808252601d908201527f5f64657374546f6b656e206973206e6f742077686974656c6973746564000000604082015260600190565b60208082526023908201527f5f64657374546f6b656e2073686f756c64206e6f74206265206164647265737360408201526228302960e81b606082015260800190565b634e487b7160e01b600052603260045260246000fd5b634e487b7160e01b600052601160045260246000fd5b60006000198214156147d2576147d26147a8565b5060010190565b6001600160a01b03958616815293909416602084015260408301919091526060820152608081019190915260a00190565b600060ff821660ff84168060ff03821115614827576148276147a8565b019392505050565b60208082526018908201527f546865207478696420697320616c726561647920757365640000000000000000604082015260600190565b60006020828403121561487857600080fd5b8151612b8c81614396565b600082821015614895576148956147a8565b500390565b6000602082840312156148ac57600080fd5b8151612b8c816140ed565b6000808335601e198436030181126148ce57600080fd5b830160208101925035905067ffffffffffffffff8111156148ee57600080fd5b8060051b360383131561490057600080fd5b9250929050565b8183526000602080850194508260005b8581101561494557813561492a816140ed565b6001600160a01b031687529582019590820190600101614917565b509495945050505050565b6000808335601e1984360301811261496757600080fd5b830160208101925035905067ffffffffffffffff81111561498757600080fd5b80360383131561490057600080fd5b81835281816020850137506000828201602090810191909152601f909101601f19169091010190565b81835260006001600160fb1b038311156149d857600080fd5b8260051b8083602087013760009401602001938452509192915050565b80356001600160801b03198116811461410d57600080fd5b60208152614a2e60208201614a2184614102565b6001600160a01b03169052565b6000614a3c60208401614102565b6001600160a01b0381166040840152506040830135606083015260608301356080830152608083013560a0830152614a7760a08401846148b7565b6101e08060c0860152614a8f61020086018385614907565b9250614a9e60c0870187614950565b9250601f19808786030160e0880152614ab8858584614996565b9450614ac760e08901896148b7565b94509150610100818887030181890152614ae28686856149bf565b9550614af0818a018a6148b7565b9550925050610120818887030181890152614b0c8686856149bf565b9550614b19818a01614102565b9450506101409150614b35828801856001600160a01b03169052565b614b40828901614102565b93506101609150614b5b828801856001600160a01b03169052565b61018093508188013584880152614b7484890189614950565b945091506101a0818887030181890152614b8f868685614996565b95506101c094508089013585890152505050614bac8287016149f5565b6001600160801b0319169401939093529392505050565b60008219821115614bd657614bd66147a8565b500190565b6000816000190483118215151615614bf557614bf56147a8565b500290565b600082614c1757634e487b7160e01b600052601260045260246000fd5b500490565b60005b83811015614c37578181015183820152602001614c1f565b83811115613ce15750506000910152565b6020815260008251806020840152614c67816040850160208701614c1c565b601f01601f19169190910160400192915050565b60008251614c8d818460208701614c1c565b919091019291505056fe5f72656d6f7665466c6f61743a20666c6f617420616d6f756e7420696e73756666696369656e74a2646970667358221220dd548d1e3dd4ab71aa1aef749775f9274f80eed071fbe33f25e404cb734637e964736f6c63430008090033",
  "linkReferences": {},
  "deployedLinkReferences": {}
}