{
  "_format": "hh-sol-artifact-1",
  "contractName": "SwapContract",
  "sourceName": "contracts/SwapContract.sol",
  "abi": [
    {
      "inputs": [
        {
          "internalType": "address",
          "name": "_lpToken",
          "type": "address"
        },
        {
          "internalType": "address",
          "name": "_btct",
          "type": "address"
        },
        {
          "internalType": "uint256",
          "name": "_existingBTCFloat",
          "type": "uint256"
        }
      ],
      "stateMutability": "nonpayable",
      "type": "constructor"
    },
    {
      "anonymous": false,
      "inputs": [
        {
          "indexed": false,
          "internalType": "address",
          "name": "token",
          "type": "address"
        },
        {
          "indexed": false,
          "internalType": "uint256",
          "name": "amountOfLP",
          "type": "uint256"
        },
        {
          "indexed": false,
          "internalType": "uint256",
          "name": "amountOfFloat",
          "type": "uint256"
        },
        {
          "indexed": false,
          "internalType": "uint256",
          "name": "currentPriceLP",
          "type": "uint256"
        },
        {
          "indexed": false,
          "internalType": "uint256",
          "name": "withdrawal",
          "type": "uint256"
        },
        {
          "indexed": false,
          "internalType": "bytes32",
          "name": "txid",
          "type": "bytes32"
        }
      ],
      "name": "BurnLPTokensForFloat",
      "type": "event"
    },
    {
      "anonymous": false,
      "inputs": [
        {
          "indexed": false,
          "internalType": "uint256",
          "name": "rewardLPTsForNodes",
          "type": "uint256"
        }
      ],
      "name": "DistributeNodeRewards",
      "type": "event"
    },
    {
      "anonymous": false,
      "inputs": [
        {
          "indexed": false,
          "internalType": "address",
          "name": "to",
          "type": "address"
        },
        {
          "indexed": false,
          "internalType": "uint256",
          "name": "amountOfFloat",
          "type": "uint256"
        },
        {
          "indexed": false,
          "internalType": "uint256",
          "name": "amountOfLP",
          "type": "uint256"
        },
        {
          "indexed": false,
          "internalType": "uint256",
          "name": "currentPriceLP",
          "type": "uint256"
        },
        {
          "indexed": false,
          "internalType": "uint256",
          "name": "depositFees",
          "type": "uint256"
        },
        {
          "indexed": false,
          "internalType": "bytes32",
          "name": "txid",
          "type": "bytes32"
        }
      ],
      "name": "IssueLPTokensForFloat",
      "type": "event"
    },
    {
      "anonymous": false,
      "inputs": [
        {
          "indexed": true,
          "internalType": "address",
          "name": "previousOwner",
          "type": "address"
        },
        {
          "indexed": true,
          "internalType": "address",
          "name": "newOwner",
          "type": "address"
        }
      ],
      "name": "OwnershipTransferred",
      "type": "event"
    },
    {
      "anonymous": false,
      "inputs": [
        {
          "indexed": false,
          "internalType": "address",
          "name": "feesToken",
          "type": "address"
        },
        {
          "indexed": false,
          "internalType": "uint256",
          "name": "rewards",
          "type": "uint256"
        },
        {
          "indexed": false,
          "internalType": "uint256",
          "name": "amountLPTokensForNode",
          "type": "uint256"
        },
        {
          "indexed": false,
          "internalType": "uint256",
          "name": "currentPriceLP",
          "type": "uint256"
        }
      ],
      "name": "RewardsCollection",
      "type": "event"
    },
    {
      "anonymous": false,
      "inputs": [
        {
          "indexed": false,
          "internalType": "address",
          "name": "from",
          "type": "address"
        },
        {
          "indexed": false,
          "internalType": "address",
          "name": "to",
          "type": "address"
        },
        {
          "indexed": false,
          "internalType": "uint256",
          "name": "amount",
          "type": "uint256"
        }
      ],
      "name": "Swap",
      "type": "event"
    },
    {
      "stateMutability": "nonpayable",
      "type": "fallback"
    },
    {
      "inputs": [],
      "name": "BTCT_ADDR",
      "outputs": [
        {
          "internalType": "address",
          "name": "",
          "type": "address"
        }
      ],
      "stateMutability": "view",
      "type": "function"
    },
    {
      "inputs": [
        {
          "internalType": "address",
          "name": "_token",
          "type": "address"
        },
        {
          "internalType": "address",
          "name": "_user",
          "type": "address"
        }
      ],
      "name": "balanceOf",
      "outputs": [
        {
          "internalType": "uint256",
          "name": "",
          "type": "uint256"
        }
      ],
      "stateMutability": "view",
      "type": "function"
    },
    {
      "inputs": [
        {
          "internalType": "address",
          "name": "_newOwner",
          "type": "address"
        },
        {
          "internalType": "bytes32[]",
          "name": "_rewardAddressAndAmounts",
          "type": "bytes32[]"
        },
        {
          "internalType": "bool[]",
          "name": "_isRemoved",
          "type": "bool[]"
        },
        {
          "internalType": "uint8",
          "name": "_churnedInCount",
          "type": "uint8"
        },
        {
          "internalType": "uint8",
          "name": "_tssThreshold",
          "type": "uint8"
        },
        {
          "internalType": "uint8",
          "name": "_nodeRewardsRatio",
          "type": "uint8"
        },
        {
          "internalType": "uint8",
          "name": "_withdrawalFeeBPS",
          "type": "uint8"
        }
      ],
      "name": "churn",
      "outputs": [
        {
          "internalType": "bool",
          "name": "",
          "type": "bool"
        }
      ],
      "stateMutability": "nonpayable",
      "type": "function"
    },
    {
      "inputs": [],
      "name": "churnedInCount",
      "outputs": [
        {
          "internalType": "uint8",
          "name": "",
          "type": "uint8"
        }
      ],
      "stateMutability": "view",
      "type": "function"
    },
    {
      "inputs": [
        {
          "internalType": "address",
          "name": "_destToken",
          "type": "address"
        },
        {
          "internalType": "uint256",
          "name": "_incomingAmount",
          "type": "uint256"
        },
        {
          "internalType": "uint256",
          "name": "_minerFee",
          "type": "uint256"
        },
        {
          "internalType": "uint256",
          "name": "_rewardsAmount",
          "type": "uint256"
        }
      ],
      "name": "collectSwapFeesForBTC",
      "outputs": [
        {
          "internalType": "bool",
          "name": "",
          "type": "bool"
        }
      ],
      "stateMutability": "nonpayable",
      "type": "function"
    },
    {
      "inputs": [],
      "name": "depositFeesBPS",
      "outputs": [
        {
          "internalType": "uint8",
          "name": "",
          "type": "uint8"
        }
      ],
      "stateMutability": "view",
      "type": "function"
    },
    {
      "inputs": [],
      "name": "distributeNodeRewards",
      "outputs": [
        {
          "internalType": "bool",
          "name": "",
          "type": "bool"
        }
      ],
      "stateMutability": "nonpayable",
      "type": "function"
    },
    {
      "inputs": [],
      "name": "do1InchTrade",
      "outputs": [
        {
          "internalType": "bool",
          "name": "",
          "type": "bool"
        }
      ],
      "stateMutability": "nonpayable",
      "type": "function"
    },
    {
      "inputs": [],
      "name": "doParaSwap",
      "outputs": [
        {
          "internalType": "bool",
          "name": "",
          "type": "bool"
        }
      ],
      "stateMutability": "nonpayable",
      "type": "function"
    },
    {
      "inputs": [],
      "name": "feesLPTokensForNode",
      "outputs": [
        {
          "internalType": "uint256",
          "name": "",
          "type": "uint256"
        }
      ],
      "stateMutability": "view",
      "type": "function"
    },
    {
      "inputs": [],
      "name": "getActiveNodes",
      "outputs": [
        {
          "internalType": "bytes32[]",
          "name": "",
          "type": "bytes32[]"
        }
      ],
      "stateMutability": "view",
      "type": "function"
    },
    {
      "inputs": [],
      "name": "getCurrentPriceLP",
      "outputs": [
        {
          "internalType": "uint256",
          "name": "nowPrice",
          "type": "uint256"
        }
      ],
      "stateMutability": "view",
      "type": "function"
    },
    {
      "inputs": [
        {
          "internalType": "address",
          "name": "_token",
          "type": "address"
        },
        {
          "internalType": "uint256",
          "name": "_amountOfFloat",
          "type": "uint256"
        }
      ],
      "name": "getDepositFeeRate",
      "outputs": [
        {
          "internalType": "uint256",
          "name": "depositFeeRate",
          "type": "uint256"
        }
      ],
      "stateMutability": "view",
      "type": "function"
    },
    {
      "inputs": [
        {
          "internalType": "address",
          "name": "_tokenA",
          "type": "address"
        },
        {
          "internalType": "address",
          "name": "_tokenB",
          "type": "address"
        }
      ],
      "name": "getFloatReserve",
      "outputs": [
        {
          "internalType": "uint256",
          "name": "reserveA",
          "type": "uint256"
        },
        {
          "internalType": "uint256",
          "name": "reserveB",
          "type": "uint256"
        }
      ],
      "stateMutability": "view",
      "type": "function"
    },
    {
      "inputs": [],
      "name": "initialExchangeRate",
      "outputs": [
        {
          "internalType": "uint256",
          "name": "",
          "type": "uint256"
        }
      ],
      "stateMutability": "view",
      "type": "function"
    },
    {
      "inputs": [
        {
          "internalType": "bytes32",
          "name": "_txid",
          "type": "bytes32"
        }
      ],
      "name": "isTxUsed",
      "outputs": [
        {
          "internalType": "bool",
          "name": "",
          "type": "bool"
        }
      ],
      "stateMutability": "view",
      "type": "function"
    },
    {
      "inputs": [],
      "name": "lockedLPTokensForNode",
      "outputs": [
        {
          "internalType": "uint256",
          "name": "",
          "type": "uint256"
        }
      ],
      "stateMutability": "view",
      "type": "function"
    },
    {
      "inputs": [],
      "name": "lpToken",
      "outputs": [
        {
          "internalType": "address",
          "name": "",
          "type": "address"
        }
      ],
      "stateMutability": "view",
      "type": "function"
    },
    {
      "inputs": [
        {
          "internalType": "address",
          "name": "_destToken",
          "type": "address"
        },
        {
          "internalType": "bytes32[]",
          "name": "_addressesAndAmounts",
          "type": "bytes32[]"
        },
        {
          "internalType": "uint256",
          "name": "_totalSwapped",
          "type": "uint256"
        },
        {
          "internalType": "uint256",
          "name": "_rewardsAmount",
          "type": "uint256"
        },
        {
          "internalType": "bytes32[]",
          "name": "_redeemedFloatTxIds",
          "type": "bytes32[]"
        }
      ],
      "name": "multiTransferERC20TightlyPacked",
      "outputs": [
        {
          "internalType": "bool",
          "name": "",
          "type": "bool"
        }
      ],
      "stateMutability": "nonpayable",
      "type": "function"
    },
    {
      "inputs": [],
      "name": "nodeRewardsRatio",
      "outputs": [
        {
          "internalType": "uint8",
          "name": "",
          "type": "uint8"
        }
      ],
      "stateMutability": "view",
      "type": "function"
    },
    {
      "inputs": [],
      "name": "owner",
      "outputs": [
        {
          "internalType": "address",
          "name": "",
          "type": "address"
        }
      ],
      "stateMutability": "view",
      "type": "function"
    },
    {
      "inputs": [
        {
          "internalType": "address",
          "name": "_token",
          "type": "address"
        },
        {
          "internalType": "bytes32",
          "name": "_addressesAndAmountOfFloat",
          "type": "bytes32"
        },
        {
          "internalType": "bool",
          "name": "_zerofee",
          "type": "bool"
        },
        {
          "internalType": "bytes32",
          "name": "_txid",
          "type": "bytes32"
        }
      ],
      "name": "recordIncomingFloat",
      "outputs": [
        {
          "internalType": "bool",
          "name": "",
          "type": "bool"
        }
      ],
      "stateMutability": "nonpayable",
      "type": "function"
    },
    {
      "inputs": [
        {
          "internalType": "address",
          "name": "_token",
          "type": "address"
        },
        {
          "internalType": "bytes32",
          "name": "_addressesAndAmountOfLPtoken",
          "type": "bytes32"
        },
        {
          "internalType": "uint256",
          "name": "_minerFee",
          "type": "uint256"
        },
        {
          "internalType": "bytes32",
          "name": "_txid",
          "type": "bytes32"
        }
      ],
      "name": "recordOutcomingFloat",
      "outputs": [
        {
          "internalType": "bool",
          "name": "",
          "type": "bool"
        }
      ],
      "stateMutability": "nonpayable",
      "type": "function"
    },
    {
      "inputs": [
        {
          "internalType": "uint256",
          "name": "_minerFee",
          "type": "uint256"
        },
        {
          "internalType": "bytes32",
          "name": "_txid",
          "type": "bytes32"
        }
      ],
      "name": "recordSkyPoolsTX",
      "outputs": [
        {
          "internalType": "bool",
          "name": "",
          "type": "bool"
        }
      ],
      "stateMutability": "nonpayable",
      "type": "function"
    },
    {
      "inputs": [
        {
          "internalType": "uint256",
          "name": "_minerFee",
          "type": "uint256"
        },
        {
          "internalType": "bytes32",
          "name": "_txid",
          "type": "bytes32"
        }
      ],
      "name": "recordUTXOSweepMinerFee",
      "outputs": [
        {
          "internalType": "bool",
          "name": "",
          "type": "bool"
        }
      ],
      "stateMutability": "nonpayable",
      "type": "function"
    },
    {
      "inputs": [
        {
          "internalType": "uint256",
          "name": "_amount",
          "type": "uint256"
        }
      ],
      "name": "redeemwBTC",
      "outputs": [
        {
          "internalType": "bool",
          "name": "",
          "type": "bool"
        }
      ],
      "stateMutability": "nonpayable",
      "type": "function"
    },
    {
      "inputs": [],
      "name": "renounceOwnership",
      "outputs": [],
      "stateMutability": "nonpayable",
      "type": "function"
    },
    {
      "inputs": [
        {
          "internalType": "address",
          "name": "_destToken",
          "type": "address"
        },
        {
          "internalType": "address",
          "name": "_to",
          "type": "address"
        },
        {
          "internalType": "uint256",
          "name": "_amount",
          "type": "uint256"
        },
        {
          "internalType": "uint256",
          "name": "_totalSwapped",
          "type": "uint256"
        },
        {
          "internalType": "uint256",
          "name": "_rewardsAmount",
          "type": "uint256"
        },
        {
          "internalType": "bytes32[]",
          "name": "_redeemedFloatTxIds",
          "type": "bytes32[]"
        }
      ],
      "name": "singleTransferERC20",
      "outputs": [
        {
          "internalType": "bool",
          "name": "",
          "type": "bool"
        }
      ],
      "stateMutability": "nonpayable",
      "type": "function"
    },
    {
      "inputs": [
        {
          "internalType": "address",
          "name": "",
          "type": "address"
        },
        {
          "internalType": "address",
          "name": "",
          "type": "address"
        }
      ],
      "name": "tokens",
      "outputs": [
        {
          "internalType": "uint256",
          "name": "",
          "type": "uint256"
        }
      ],
      "stateMutability": "view",
      "type": "function"
    },
    {
      "inputs": [
        {
          "internalType": "address",
          "name": "newOwner",
          "type": "address"
        }
      ],
      "name": "transferOwnership",
      "outputs": [],
      "stateMutability": "nonpayable",
      "type": "function"
    },
    {
      "inputs": [],
      "name": "tssThreshold",
      "outputs": [
        {
          "internalType": "uint8",
          "name": "",
          "type": "uint8"
        }
      ],
      "stateMutability": "view",
      "type": "function"
    },
    {
      "inputs": [
        {
          "internalType": "address",
          "name": "",
          "type": "address"
        }
      ],
      "name": "whitelist",
      "outputs": [
        {
          "internalType": "bool",
          "name": "",
          "type": "bool"
        }
      ],
      "stateMutability": "view",
      "type": "function"
    },
    {
      "inputs": [],
      "name": "withdrawalFeeBPS",
      "outputs": [
        {
          "internalType": "uint8",
          "name": "",
          "type": "uint8"
        }
      ],
      "stateMutability": "view",
      "type": "function"
    }
  ],
  "bytecode": "0x60806040523480156200001157600080fd5b506040516200301938038062003019833981810160405260608110156200003757600080fd5b508051602082015160409092015190919060006200005462000296565b600080546001600160a01b0319166001600160a01b0383169081178255604051929350917f8be0079c531659141344cd1fd0a4f28419497f9722a3daafe3b4186f6b6457e0908290a350600280546001600160a01b0319166001600160a01b0385811691909117918290556040805163313ce56760e01b81529051929091169163313ce56791600480820192602092909190829003018186803b158015620000fb57600080fd5b505afa15801562000110573d6000803e3d6000fd5b505050506040513d60208110156200012757600080fd5b505160ff16600a0a600955600180546001600160a01b0319166001600160a01b0384169081179091556004805462ff00001916624200001763ff000000191663320000001760ff60201b19166414000000001781556040805163313ce56760e01b815290516008939263313ce56792808201926020929091829003018186803b158015620001b457600080fd5b505afa158015620001c9573d6000803e3d6000fd5b505050506040513d6020811015620001e057600080fd5b50510360ff16600a90810a600855600954600755600060058190556006819055600180546001600160a01b039081168352600360209081526040808520805460ff1990811686179091556002549093168552842080548316841790559280527f3617319a054d772f909f7c479a2cebe5066e836a939412e32403c99029b92eff80549091169091179055527f13da86008ba1c6922daee3e07db95305ef49ebced9f5467a0b8613fcc6b343e355506200029a9050565b3390565b612d6f80620002aa6000396000f3fe608060405234801561001057600080fd5b50600436106101fa5760003560e01c806363f289d91161011a578063ad289e76116100ad578063e9e9bf6a1161007c578063e9e9bf6a1461081d578063ec48272914610825578063f2fde38b1461086c578063f7824bc714610892578063f7888aec1461089a576101fa565b8063ad289e7614610696578063b6268e5d146107d5578063c810a539146107dd578063e6ca208414610800576101fa565b80638006cc3e116100e95780638006cc3e1461060d5780638da5cb5b146106455780639b19251a1461064d578063a144084614610673576101fa565b806363f289d9146105695780636b51e919146105a35780636d019f35146105fb578063715018a614610603576101fa565b80633b6fa1271161019257806345468b661161016157806345468b661461032a5780634e54cee0146103e5578063508493bc146105335780635fcbd28514610561576101fa565b80633b6fa1271461038c57806342419255146103b8578063429dec96146103c057806345137e27146103dd576101fa565b80630fd3d41c116101ce5780630fd3d41c1461032a57806312d1441e146103325780632586c5621461033a5780632d55282d14610372576101fa565b806289356f146101ff5780630b68134d1461021d5780630d63aca7146102255780630f90948614610306575b600080fd5b6102076108c8565b6040805160ff9092168252519081900360200190f35b6102076108d1565b6102f2600480360360c081101561023b57600080fd5b6001600160a01b0382358116926020810135909116916040820135916060810135916080820135919081019060c0810160a0820135600160201b81111561028157600080fd5b82018360208201111561029357600080fd5b803590602001918460208302840111600160201b831117156102b457600080fd5b9190808060200260200160405190810160405280939291908181526020018383602002808284376000920191909152509295506108e0945050505050565b604080519115158252519081900360200190f35b61030e610a7f565b604080516001600160a01b039092168252519081900360200190f35b6102f2610a8e565b610207610a93565b6102f26004803603608081101561035057600080fd5b506001600160a01b038135169060208101359060408101359060600135610aa1565b61037a610be5565b60408051918252519081900360200190f35b61037a600480360360408110156103a257600080fd5b506001600160a01b038135169060200135610beb565b610207610c77565b6102f2600480360360208110156103d657600080fd5b5035610c87565b61037a610d09565b6102f2600480360360e08110156103fb57600080fd5b6001600160a01b038235169190810190604081016020820135600160201b81111561042557600080fd5b82018360208201111561043757600080fd5b803590602001918460208302840111600160201b8311171561045857600080fd5b9190808060200260200160405190810160405280939291908181526020018383602002808284376000920191909152509295949360208101935035915050600160201b8111156104a757600080fd5b8201836020820111156104b957600080fd5b803590602001918460208302840111600160201b831117156104da57600080fd5b9190808060200260200160405190810160405280939291908181526020018383602002808284376000920191909152509295505060ff833581169450602084013581169360408101358216935060600135169050610df5565b61037a6004803603604081101561054957600080fd5b506001600160a01b0381358116916020013516611113565b61030e611130565b6102f26004803603608081101561057f57600080fd5b506001600160a01b038135169060208101359060408101351515906060013561113f565b6105ab61121d565b60408051602080825283518183015283519192839290830191858101910280838360005b838110156105e75781810151838201526020016105cf565b505050509050019250505060405180910390f35b61037a61137c565b61060b611382565b005b6102f26004803603608081101561062357600080fd5b506001600160a01b03813516906020810135906040810135906060013561142e565b61030e61155f565b6102f26004803603602081101561066357600080fd5b50356001600160a01b031661156e565b6102f26004803603604081101561068957600080fd5b5080359060200135611583565b6102f2600480360360a08110156106ac57600080fd5b6001600160a01b038235169190810190604081016020820135600160201b8111156106d657600080fd5b8201836020820111156106e857600080fd5b803590602001918460208302840111600160201b8311171561070957600080fd5b9190808060200260200160405190810160405280939291908181526020018383602002808284376000920191909152509295843595602086013595919450925060608101915060400135600160201b81111561076457600080fd5b82018360208201111561077657600080fd5b803590602001918460208302840111600160201b8311171561079757600080fd5b9190808060200260200160405190810160405280939291908181526020018383602002808284376000920191909152509295506116d5945050505050565b6102076118af565b6102f2600480360360408110156107f357600080fd5b50803590602001356118bf565b6102f26004803603602081101561081657600080fd5b50356119ff565b6102f2611a14565b6108536004803603604081101561083b57600080fd5b506001600160a01b0381358116916020013516611c7b565b6040805192835260208301919091528051918290030190f35b61060b6004803603602081101561088257600080fd5b50356001600160a01b0316611ca5565b61037a611da7565b61037a600480360360408110156108b057600080fd5b506001600160a01b0381358116916020013516611dad565b60045460ff1681565b60045462010000900460ff1681565b60006108ea611dd8565b6001600160a01b03166108fb61155f565b6001600160a01b031614610944576040805162461bcd60e51b81526020600482018190526024820152600080516020612c75833981519152604482015290519081900360640190fd5b6001600160a01b03871660009081526003602052604090205460ff166109b1576040805162461bcd60e51b815260206004820152601d60248201527f5f64657374546f6b656e206973206e6f742077686974656c6973746564000000604482015290519081900360640190fd5b6001600160a01b0387166109f65760405162461bcd60e51b8152600401808060200182810382526023815260200180612cf76023913960400191505060405180910390fd5b60008415610a1c57600154610a17906000906001600160a01b031687611ddc565b610a2f565b84610a2f57506001546001600160a01b03165b6002546001600160a01b0389811691161415610a5357506002546001600160a01b03165b610a5d8185611ec8565b610a668361203f565b610a7188888861208e565b506001979650505050505050565b6001546001600160a01b031681565b600090565b600454610100900460ff1681565b6000610aab611dd8565b6001600160a01b0316610abc61155f565b6001600160a01b031614610b05576040805162461bcd60e51b81526020600482018190526024820152600080516020612c75833981519152604482015290519081900360640190fd5b6000610b0f610d09565b6001600160a01b03871660009081526003602052604090205490915060ff16610b73576040805162461bcd60e51b815260206004820152601160248201527017dd1bdad95b881a5cc81a5b9d985b1a59607a1b604482015290519081900360640190fd5b610b7f86868686612146565b610b8857600080fd5b6001915080610b95610d09565b1015610bdc576040805162461bcd60e51b8152602060048201526011602482015270496e76616c6964204c505420707269636560781b604482015290519081900360640190fd5b50949350505050565b60055481565b600080610bf884846124e2565b90508060ff1660011415610c3a576001546001600160a01b03858116911614610c22576000610c30565b6004546301000000900460ff165b60ff169150610c70565b8060ff1660021415610c70576001600160a01b03841615610c5c576000610c6a565b6004546301000000900460ff165b60ff1691505b5092915050565b6004546301000000900460ff1681565b6001546001600160a01b03166000908152601060209081526040808320338452909152812054821115610cb957600080fd5b6001546001600160a01b03166000908152601060209081526040808320338452909152902054610ce9908361259c565b50600154610d01906001600160a01b0316338461208e565b506001919050565b60015460009081908190610d279082906001600160a01b0316611c7b565b915091506000600260009054906101000a90046001600160a01b03166001600160a01b03166318160ddd6040518163ffffffff1660e01b815260040160206040518083038186803b158015610d7b57600080fd5b505afa158015610d8f573d6000803e3d6000fd5b505050506040513d6020811015610da557600080fd5b505190508015610de957610de4610dc7600554836125f990919063ffffffff16565b600954610dde90610dd887876125f9565b9061265a565b906126b3565b610ded565b6007545b935050505090565b6000610dff611dd8565b6001600160a01b0316610e1061155f565b6001600160a01b031614610e59576040805162461bcd60e51b81526020600482018190526024820152600080516020612c75833981519152604482015290519081900360640190fd5b60045460ff610100909104811690851610801590610e7b575060ff8460ff1611155b610eb65760405162461bcd60e51b8152600401808060200182810382526027815260200180612c0c6027913960400191505060405180910390fd5b6001840160ff168560ff161015610f09576040805162461bcd60e51b81526020600482015260126024820152716e2073686f756c64206265203e3d20742b3160701b604482015290519081900360640190fd5b60648360ff161115610f62576040805162461bcd60e51b815260206004820152601e60248201527f5f6e6f646552657761726473526174696f206973206e6f742076616c69640000604482015290519081900360640190fd5b60648260ff161115610fbb576040805162461bcd60e51b815260206004820152601c60248201527f5f7769746864726177616c46656542505320697320696e76616c696400000000604482015290519081900360640190fd5b8551875114610ffb5760405162461bcd60e51b815260040180806020018281038252603b815260200180612cbc603b913960400191505060405180910390fd5b61100488611ca5565b60005b875181101561106c57600061102e89838151811061102157fe5b602002602001015161271a565b509050611062818a848151811061104157fe5b60200260200101518a858151811061105557fe5b6020026020010151612723565b5050600101611007565b50606061107761121d565b90506064815111156110ba5760405162461bcd60e51b8152600401808060200182810382526021815260200180612c546021913960400191505060405180910390fd5b50506004805460ff191660ff9586161761ff001916610100948616949094029390931762ff0000191662010000928516929092029190911764ff000000001916600160201b919093160291909117905550600192915050565b601060209081526000928352604080842090915290825290205481565b6002546001600160a01b031681565b6000611149611dd8565b6001600160a01b031661115a61155f565b6001600160a01b0316146111a3576040805162461bcd60e51b81526020600482018190526024820152600080516020612c75833981519152604482015290519081900360640190fd5b60006111ad610d09565b6001600160a01b03871660009081526003602052604090205490915060ff16611211576040805162461bcd60e51b815260206004820152601160248201527017dd1bdad95b881a5cc81a5b9d985b1a59607a1b604482015290519081900360640190fd5b610b7f86868686612813565b606060008060005b600f5481101561128057600d6000600f838154811061124057fe5b60009182526020808320909101546001600160a01b0316835282019290925260400190205415611278576112758360016125f9565b92505b600101611225565b5060608267ffffffffffffffff8111801561129a57600080fd5b506040519080825280602002602001820160405280156112c4578160200160208202803683370190505b50905060005b600f5481101561137457600d6000600f83815481106112e557fe5b60009182526020808320909101546001600160a01b031683528201929092526040019020541561136c57600d6000600f838154811061132057fe5b60009182526020808320909101546001600160a01b03168352820192909252604001902054825183908590811061135357fe5b60209081029190910101526113698360016125f9565b92505b6001016112ca565b509250505090565b60075481565b61138a611dd8565b6001600160a01b031661139b61155f565b6001600160a01b0316146113e4576040805162461bcd60e51b81526020600482018190526024820152600080516020612c75833981519152604482015290519081900360640190fd5b600080546040516001600160a01b03909116907f8be0079c531659141344cd1fd0a4f28419497f9722a3daafe3b4186f6b6457e0908390a3600080546001600160a01b0319169055565b6000611438611dd8565b6001600160a01b031661144961155f565b6001600160a01b031614611492576040805162461bcd60e51b81526020600482018190526024820152600080516020612c75833981519152604482015290519081900360640190fd5b6001600160a01b038516156114ee576040805162461bcd60e51b815260206004820152601f60248201527f5f64657374546f6b656e2073686f756c64206265206164647265737328302900604482015290519081900360640190fd5b6001546001600160a01b0316841561154057600061151685611510888761259c565b9061259c565b60015490915061153a906001600160a01b0316600061153584896125f9565b611ddc565b50611549565b84611549575060005b6115538184611ec8565b50600195945050505050565b6000546001600160a01b031690565b60036020526000908152604090205460ff1681565b600061158d611dd8565b6001600160a01b031661159e61155f565b6001600160a01b0316146115e7576040805162461bcd60e51b81526020600482018190526024820152600080516020612c75833981519152604482015290519081900360640190fd5b6000828152600c602052604090205460ff1615611646576040805162461bcd60e51b8152602060048201526018602482015277151a19481d1e1a59081a5cc8185b1c9958591e481d5cd95960421b604482015290519081900360640190fd5b60408051808201909152601d81527f42544320666c6f617420616d6f756e7420696e73756666696369656e7400000060208083019190915260008052600a9052600080516020612d1a833981519152546116a1918590612a5a565b600080516020612d1a83398151915255506000818152600c60205260409020805460ff191660019081179091555b92915050565b60006116df611dd8565b6001600160a01b03166116f061155f565b6001600160a01b031614611739576040805162461bcd60e51b81526020600482018190526024820152600080516020612c75833981519152604482015290519081900360640190fd5b6001600160a01b03861660009081526003602052604090205460ff166117a6576040805162461bcd60e51b815260206004820152601d60248201527f5f64657374546f6b656e206973206e6f742077686974656c6973746564000000604482015290519081900360640190fd5b6001600160a01b0386166117eb5760405162461bcd60e51b8152600401808060200182810382526023815260200180612cf76023913960400191505060405180910390fd5b600084156118115760015461180c906000906001600160a01b031687611ddc565b611824565b8461182457506001546001600160a01b03165b6002546001600160a01b038881169116141561184857506002546001600160a01b03165b6118528185611ec8565b61185b8361203f565b60005b8651811015610a71576118a78888838151811061187757fe5b602002602001015160001c89848151811061188e57fe5b602002602001015160a01c6001600160601b031661208e565b60010161185e565b600454600160201b900460ff1681565b60006118c9611dd8565b6001600160a01b03166118da61155f565b6001600160a01b031614611923576040805162461bcd60e51b81526020600482018190526024820152600080516020612c75833981519152604482015290519081900360640190fd5b61192c826119ff565b15611979576040805162461bcd60e51b8152602060048201526018602482015277151a19481d1e1a59081a5cc8185b1c9958591e481d5cd95960421b604482015290519081900360640190fd5b60408051808201909152601d81527f42544320666c6f617420616d6f756e7420696e73756666696369656e7400000060208083019190915260008052600a9052600080516020612d1a833981519152546119d4918590612a5a565b60008052600a602052600080516020612d1a833981519152556119f682612af1565b50600192915050565b6000908152600b602052604090205460ff1690565b600080611a2e6006546005546125f990919063ffffffff16565b905060008111611a6f5760405162461bcd60e51b8152600401808060200182810382526025815260200180612b8d6025913960400191505060405180910390fd5b6060611a7961121d565b90506000805b8251811015611ac457611aba838281518110611a9757fe5b602002602001015160a01c6001600160601b0316836125f990919063ffffffff16565b9150600101611a7f565b50600254600554604080516340c10f1960e01b81523060048201526024810192909252516001600160a01b03909216916340c10f19916044808201926020929091908290030181600087803b158015611b1c57600080fd5b505af1158015611b30573d6000803e3d6000fd5b505050506040513d6020811015611b4657600080fd5b50600090505b8251811015611c335760025483516001600160a01b039091169063a9059cbb90859084908110611b7857fe5b602002602001015160001c611bb985610dde888781518110611b9657fe5b602002602001015160a01c6001600160601b03168a61265a90919063ffffffff16565b6040518363ffffffff1660e01b815260040180836001600160a01b0316815260200182815260200192505050602060405180830381600087803b158015611bff57600080fd5b505af1158015611c13573d6000803e3d6000fd5b505050506040513d6020811015611c2957600080fd5b5050600101611b4c565b506040805184815290517f86dd6ae252e62228b47b3c1a12762cbf634952b2d29319b04f4f72fb153bcbdd9181900360200190a1505060006005819055600655506001905090565b6001600160a01b039182166000908152600a60205260408082205492909316815291909120549091565b611cad611dd8565b6001600160a01b0316611cbe61155f565b6001600160a01b031614611d07576040805162461bcd60e51b81526020600482018190526024820152600080516020612c75833981519152604482015290519081900360640190fd5b6001600160a01b038116611d4c5760405162461bcd60e51b8152600401808060200182810382526026815260200180612be66026913960400191505060405180910390fd5b600080546040516001600160a01b03808516939216917f8be0079c531659141344cd1fd0a4f28419497f9722a3daafe3b4186f6b6457e091a3600080546001600160a01b0319166001600160a01b0392909216919091179055565b60065481565b6001600160a01b03918216600090815260106020908152604080832093909416825291909152205490565b3390565b60408051808201825260208082527f5f737761703a20666c6f617420616d6f756e7420696e73756666696369656e74818301526001600160a01b0385166000908152600a9091529190912054611e33918390612a5a565b6001600160a01b038084166000908152600a60205260408082209390935590851681522054611e6290826125f9565b6001600160a01b038085166000818152600a602090815260409182902094909455805191825291851692810192909252818101839052517fea368a40e9570069bb8e6511d668293ad2e1f03b0d982431fd223de9f3b70ca69181900360600190a1505050565b80611ed25761203b565b6002546001600160a01b0383811691161415611f4d57600654611ef590826125f9565b600655604080516001600160a01b0384168152602081018390526000818301819052606082015290517fe3debe835f6848edc082b32a1d729781d3bfcd7e14422d80bcaa6794d3816b2f9181900360800190a161203b565b6000611f57610d09565b6001600160a01b0384166000908152600a6020526040902054909150611f7d90836125f9565b6001600160a01b0384166000908152600a6020526040812091909155600454611fb790606490610dde90869062010000900460ff1661265a565b90506000611fd483610dde6009548561265a90919063ffffffff16565b600554909150611fe490826125f9565b600555604080516001600160a01b0387168152602081018690528082018390526060810185905290517fe3debe835f6848edc082b32a1d729781d3bfcd7e14422d80bcaa6794d3816b2f9181900360800190a15050505b5050565b60005b815181101561203b576001600b600084848151811061205d57fe5b6020908102919091018101518252810191909152604001600020805460ff1916911515919091179055600101612042565b6001546001600160a01b03848116911614156120b5576008546120b290829061265a565b90505b826001600160a01b031663a9059cbb83836040518363ffffffff1660e01b815260040180836001600160a01b0316815260200182815260200192505050602060405180830381600087803b15801561210c57600080fd5b505af1158015612120573d6000803e3d6000fd5b505050506040513d602081101561213657600080fd5b505161214157600080fd5b505050565b6000612151826119ff565b1561219e576040805162461bcd60e51b8152602060048201526018602482015277151a19481d1e1a59081a5cc8185b1c9958591e481d5cd95960421b604482015290519081900360640190fd5b836121f0576040805162461bcd60e51b815260206004820152601c60248201527f546865207472616e73616374696f6e206973206e6f742076616c696400000000604482015290519081900360640190fd5b6000806121fc8661271a565b91509150600061220a610d09565b90506000612227600954610dde848661265a90919063ffffffff16565b60045490915060009061224d9061271090610dde908590600160201b900460ff1661265a565b90508761225a838361259c565b10156122975760405162461bcd60e51b8152600401808060200182810382526034815260200180612bb26034913960400191505060405180910390fd5b60006122a789611510858561259c565b60015490915060009081906122c69082906001600160a01b0316611c7b565b90925090506001600160a01b038d1661233c576122e3858561259c565b821015612337576040805162461bcd60e51b815260206004820152601f60248201527f54686520666c6f61742062616c616e636520696e73756666696369656e742e00604482015290519081900360640190fd5b6123b0565b6001546001600160a01b038e8116911614156123b05761235c858561259c565b8110156123b0576040805162461bcd60e51b815260206004820152601f60248201527f54686520666c6f61742062616c616e636520696e73756666696369656e742e00604482015290519081900360640190fd5b6123ba8d85611ec8565b6123c48d86612b0c565b6123cd8a612af1565b6001546001600160a01b038e8116911614156123ee576123ee8d898561208e565b60025460408051630852cd8d60e31b8152600481018a905290516001600160a01b03909216916342966c68916024808201926020929091908290030181600087803b15801561243c57600080fd5b505af1158015612450573d6000803e3d6000fd5b505050506040513d602081101561246657600080fd5b505161247157600080fd5b604080516001600160a01b038a16815260208101899052808201879052606081018890526080810185905260a081018c905290517fa9da34e5e4a956b744307ae7611795634e8365951073bf049d76b64b2ae7a0589181900360c00190a15060019c9b505050505050505050505050565b600154600090819081906125009082906001600160a01b0316611c7b565b909250905060006125256003610dde6002610dd88961251f89896125f9565b906125f9565b6001549091506001600160a01b03878116911614801561254e57508061254b83876125f9565b10155b1561255f57600193505050506116cf565b6001600160a01b03861615801561257f57508061257c84876125f9565b10155b1561259057600293505050506116cf565b50600095945050505050565b6000828211156125f3576040805162461bcd60e51b815260206004820152601e60248201527f536166654d6174683a207375627472616374696f6e206f766572666c6f770000604482015290519081900360640190fd5b50900390565b600082820183811015612653576040805162461bcd60e51b815260206004820152601b60248201527f536166654d6174683a206164646974696f6e206f766572666c6f770000000000604482015290519081900360640190fd5b9392505050565b600082612669575060006116cf565b8282028284828161267657fe5b04146126535760405162461bcd60e51b8152600401808060200182810382526021815260200180612c336021913960400191505060405180910390fd5b6000808211612709576040805162461bcd60e51b815260206004820152601a60248201527f536166654d6174683a206469766973696f6e206279207a65726f000000000000604482015290519081900360640190fd5b81838161271257fe5b049392505050565b9060a082901c90565b6000811561274c57506001600160a01b0383166000908152600d60205260408120556001612653565b6001600160a01b0384166000908152600e602052604090205460ff166127d057600f805460018082019092557f8d1108e10bcb7c27dddfc02ed9d693a074039d026cf4ea4240b40f7d581ac8020180546001600160a01b0319166001600160a01b0387169081179091556000908152600e60205260409020805460ff191690911790555b6001600160a01b0384166000908152600d6020526040902054612809576001600160a01b0384166000908152600d602052604090208390555b5060019392505050565b600061281e826119ff565b1561286b576040805162461bcd60e51b8152602060048201526018602482015277151a19481d1e1a59081a5cc8185b1c9958591e481d5cd95960421b604482015290519081900360640190fd5b836128bd576040805162461bcd60e51b815260206004820152601c60248201527f546865207472616e73616374696f6e206973206e6f742076616c696400000000604482015290519081900360640190fd5b6000806128c98661271a565b9150915060006128d7610d09565b905060006128f482610dde6009548661265a90919063ffffffff16565b905060006129028a85610beb565b9050600081612912576000612922565b612922612710610dde858561265a565b905088801561293057508015155b1561293a57600080fd5b6002546001600160a01b03166340c10f1987612956868561259c565b6040518363ffffffff1660e01b815260040180836001600160a01b0316815260200182815260200192505050602060405180830381600087803b15801561299c57600080fd5b505af11580156129b0573d6000803e3d6000fd5b505050506040513d60208110156129c657600080fd5b50506005546129d590826125f9565b6005556129e28b86612b69565b6129eb88612af1565b604080516001600160a01b038816815260208101879052808201859052606081018690526080810183905260a081018a905290517fdfaf4e23f7030adafec91a682e05bf9fb30c721f9cec3d8bcfae0459c5362db19181900360c00190a15060019a9950505050505050505050565b60008184841115612ae95760405162461bcd60e51b81526004018080602001828103825283818151815260200191508051906020019080838360005b83811015612aae578181015183820152602001612a96565b50505050905090810190601f168015612adb5780820380516001836020036101000a031916815260200191505b509250505060405180910390fd5b505050900390565b6000908152600b60205260409020805460ff19166001179055565b612b4981604051806060016040528060278152602001612c95602791396001600160a01b0385166000908152600a60205260409020549190612a5a565b6001600160a01b039092166000908152600a602052604090209190915550565b6001600160a01b0382166000908152600a6020526040902054612b4990826125f956fe746f74616c5265776172644c5073466f724e6f6465206973206e6f7420706f7369746976654572726f723a20616d6f756e744f66466c6f61742e737562287769746864726177616c4665657329203c205f6d696e65724665654f776e61626c653a206e6577206f776e657220697320746865207a65726f20616464726573735f7473735468726573686f6c642073686f756c64206265203e3d207473735468726573686f6c64536166654d6174683a206d756c7469706c69636174696f6e206f766572666c6f7753746f726564206e6f64652073697a652073686f756c64206265203c3d203130304f776e61626c653a2063616c6c6572206973206e6f7420746865206f776e65725f72656d6f7665466c6f61743a20666c6f617420616d6f756e7420696e73756666696369656e745f72657761726441646472657373416e64416d6f756e747320616e64205f697352656d6f766564206c656e677468206973206e6f74206d617463685f64657374546f6b656e2073686f756c64206e6f74206265206164647265737328302913da86008ba1c6922daee3e07db95305ef49ebced9f5467a0b8613fcc6b343e3a26469706673582212202fb4bc119006907a67cec7ec27268be7ec30a496da0fe67789bb7e117ec596a664736f6c63430007030033",
  "linkReferences": {},
  "deployedLinkReferences": {}
}