{
  "_format": "hh-sol-artifact-1",
  "contractName": "SwapContract",
  "sourceName": "contracts/SwapContract.sol",
  "abi": [
    {
      "inputs": [
        {
          "internalType": "address",
          "name": "_lpToken",
          "type": "address"
        },
        {
          "internalType": "address",
          "name": "_btct",
          "type": "address"
        },
        {
          "internalType": "address",
          "name": "_wETH",
          "type": "address"
        },
        {
          "internalType": "address",
          "name": "_sbBTCPool",
          "type": "address"
        },
        {
          "internalType": "address",
          "name": "_params",
          "type": "address"
        },
        {
          "internalType": "address",
          "name": "_swapRewards",
          "type": "address"
        },
        {
          "internalType": "uint256",
          "name": "_existingBTCFloat",
          "type": "uint256"
        }
      ],
      "stateMutability": "nonpayable",
      "type": "constructor"
    },
    {
      "anonymous": false,
      "inputs": [
        {
          "indexed": false,
          "internalType": "address",
          "name": "token",
          "type": "address"
        },
        {
          "indexed": false,
          "internalType": "uint256",
          "name": "amountOfLP",
          "type": "uint256"
        },
        {
          "indexed": false,
          "internalType": "uint256",
          "name": "amountOfFloat",
          "type": "uint256"
        },
        {
          "indexed": false,
          "internalType": "uint256",
          "name": "currentPriceLP",
          "type": "uint256"
        },
        {
          "indexed": false,
          "internalType": "uint256",
          "name": "withdrawal",
          "type": "uint256"
        },
        {
          "indexed": false,
          "internalType": "bytes32",
          "name": "txid",
          "type": "bytes32"
        }
      ],
      "name": "BurnLPTokensForFloat",
      "type": "event"
    },
    {
      "anonymous": false,
      "inputs": [
        {
          "indexed": false,
          "internalType": "address",
          "name": "token",
          "type": "address"
        },
        {
          "indexed": false,
          "internalType": "address",
          "name": "user",
          "type": "address"
        },
        {
          "indexed": false,
          "internalType": "uint256",
          "name": "amount",
          "type": "uint256"
        },
        {
          "indexed": false,
          "internalType": "uint256",
          "name": "balance",
          "type": "uint256"
        },
        {
          "indexed": false,
          "internalType": "uint256",
          "name": "Timestamp",
          "type": "uint256"
        }
      ],
      "name": "Deposit",
      "type": "event"
    },
    {
      "anonymous": false,
      "inputs": [
        {
          "indexed": false,
          "internalType": "uint256",
          "name": "rewardLPTsForNodes",
          "type": "uint256"
        }
      ],
      "name": "DistributeNodeRewards",
      "type": "event"
    },
    {
      "anonymous": false,
      "inputs": [
        {
          "indexed": false,
          "internalType": "address",
          "name": "to",
          "type": "address"
        },
        {
          "indexed": false,
          "internalType": "uint256",
          "name": "amountOfFloat",
          "type": "uint256"
        },
        {
          "indexed": false,
          "internalType": "uint256",
          "name": "amountOfLP",
          "type": "uint256"
        },
        {
          "indexed": false,
          "internalType": "uint256",
          "name": "currentPriceLP",
          "type": "uint256"
        },
        {
          "indexed": false,
          "internalType": "uint256",
          "name": "depositFees",
          "type": "uint256"
        },
        {
          "indexed": false,
          "internalType": "bytes32",
          "name": "txid",
          "type": "bytes32"
        }
      ],
      "name": "IssueLPTokensForFloat",
      "type": "event"
    },
    {
      "anonymous": false,
      "inputs": [
        {
          "indexed": true,
          "internalType": "address",
          "name": "previousOwner",
          "type": "address"
        },
        {
          "indexed": true,
          "internalType": "address",
          "name": "newOwner",
          "type": "address"
        }
      ],
      "name": "OwnershipTransferred",
      "type": "event"
    },
    {
      "anonymous": false,
      "inputs": [
        {
          "indexed": false,
          "internalType": "address",
          "name": "feesToken",
          "type": "address"
        },
        {
          "indexed": false,
          "internalType": "uint256",
          "name": "rewards",
          "type": "uint256"
        },
        {
          "indexed": false,
          "internalType": "uint256",
          "name": "amountLPTokensForNode",
          "type": "uint256"
        },
        {
          "indexed": false,
          "internalType": "uint256",
          "name": "currentPriceLP",
          "type": "uint256"
        }
      ],
      "name": "RewardsCollection",
      "type": "event"
    },
    {
      "anonymous": false,
      "inputs": [
        {
          "indexed": false,
          "internalType": "address",
          "name": "from",
          "type": "address"
        },
        {
          "indexed": false,
          "internalType": "address",
          "name": "to",
          "type": "address"
        },
        {
          "indexed": false,
          "internalType": "uint256",
          "name": "amount",
          "type": "uint256"
        }
      ],
      "name": "Swap",
      "type": "event"
    },
    {
      "anonymous": false,
      "inputs": [
        {
          "indexed": false,
          "internalType": "bytes32",
          "name": "SwapID",
          "type": "bytes32"
        },
        {
          "indexed": false,
          "internalType": "string",
          "name": "DestAddr",
          "type": "string"
        },
        {
          "indexed": false,
          "internalType": "address",
          "name": "RefundAddr",
          "type": "address"
        },
        {
          "indexed": false,
          "internalType": "uint256",
          "name": "AmountWBTC",
          "type": "uint256"
        },
        {
          "indexed": false,
          "internalType": "uint256",
          "name": "Timestamp",
          "type": "uint256"
        }
      ],
      "name": "SwapTokensToBTC",
      "type": "event"
    },
    {
      "anonymous": false,
      "inputs": [
        {
          "indexed": false,
          "internalType": "address",
          "name": "token",
          "type": "address"
        },
        {
          "indexed": false,
          "internalType": "address",
          "name": "user",
          "type": "address"
        },
        {
          "indexed": false,
          "internalType": "uint256",
          "name": "amount",
          "type": "uint256"
        },
        {
          "indexed": false,
          "internalType": "uint256",
          "name": "balance",
          "type": "uint256"
        },
        {
          "indexed": false,
          "internalType": "uint256",
          "name": "Timestamp",
          "type": "uint256"
        }
      ],
      "name": "Withdraw",
      "type": "event"
    },
    {
      "stateMutability": "nonpayable",
      "type": "fallback"
    },
    {
      "inputs": [],
      "name": "BTCT_ADDR",
      "outputs": [
        {
          "internalType": "address",
          "name": "",
          "type": "address"
        }
      ],
      "stateMutability": "view",
      "type": "function"
    },
    {
      "inputs": [],
      "name": "activeNodeCount",
      "outputs": [
        {
          "internalType": "uint8",
          "name": "",
          "type": "uint8"
        }
      ],
      "stateMutability": "view",
      "type": "function"
    },
    {
      "inputs": [
        {
          "internalType": "address",
          "name": "_token",
          "type": "address"
        },
        {
          "internalType": "address",
          "name": "_user",
          "type": "address"
        }
      ],
      "name": "balanceOf",
      "outputs": [
        {
          "internalType": "uint256",
          "name": "",
          "type": "uint256"
        }
      ],
      "stateMutability": "view",
      "type": "function"
    },
    {
      "inputs": [
        {
          "internalType": "address",
          "name": "_newOwner",
          "type": "address"
        },
        {
          "internalType": "address[]",
          "name": "_nodes",
          "type": "address[]"
        },
        {
          "internalType": "bool[]",
          "name": "_isRemoved",
          "type": "bool[]"
        },
        {
          "internalType": "uint8",
          "name": "_churnedInCount",
          "type": "uint8"
        },
        {
          "internalType": "uint8",
          "name": "_tssThreshold",
          "type": "uint8"
        },
        {
          "internalType": "uint256",
          "name": "_totalStakedAmount",
          "type": "uint256"
        }
      ],
      "name": "churn",
      "outputs": [
        {
          "internalType": "bool",
          "name": "",
          "type": "bool"
        }
      ],
      "stateMutability": "nonpayable",
      "type": "function"
    },
    {
      "inputs": [],
      "name": "churnedInCount",
      "outputs": [
        {
          "internalType": "uint8",
          "name": "",
          "type": "uint8"
        }
      ],
      "stateMutability": "view",
      "type": "function"
    },
    {
      "inputs": [
        {
          "internalType": "uint256",
          "name": "_incomingAmount",
          "type": "uint256"
        },
        {
          "internalType": "uint256",
          "name": "_minerFee",
          "type": "uint256"
        },
        {
          "internalType": "uint256",
          "name": "_rewardsAmount",
          "type": "uint256"
        },
        {
          "internalType": "address[]",
          "name": "_spenders",
          "type": "address[]"
        },
        {
          "internalType": "uint256[]",
          "name": "_swapAmounts",
          "type": "uint256[]"
        },
        {
          "internalType": "bool",
          "name": "_isUpdatelimitBTCForSPFlow2",
          "type": "bool"
        }
      ],
      "name": "collectSwapFeesForBTC",
      "outputs": [
        {
          "internalType": "bool",
          "name": "",
          "type": "bool"
        }
      ],
      "stateMutability": "nonpayable",
      "type": "function"
    },
    {
      "inputs": [],
      "name": "getActiveNodes",
      "outputs": [
        {
          "internalType": "address[]",
          "name": "",
          "type": "address[]"
        }
      ],
      "stateMutability": "view",
      "type": "function"
    },
    {
      "inputs": [],
      "name": "getCurrentPriceLP",
      "outputs": [
        {
          "internalType": "uint256",
          "name": "nowPrice",
          "type": "uint256"
        }
      ],
      "stateMutability": "view",
      "type": "function"
    },
    {
      "inputs": [
        {
          "internalType": "address",
          "name": "_tokenA",
          "type": "address"
        },
        {
          "internalType": "address",
          "name": "_tokenB",
          "type": "address"
        }
      ],
      "name": "getFloatReserve",
      "outputs": [
        {
          "internalType": "uint256",
          "name": "reserveA",
          "type": "uint256"
        },
        {
          "internalType": "uint256",
          "name": "reserveB",
          "type": "uint256"
        }
      ],
      "stateMutability": "view",
      "type": "function"
    },
    {
      "inputs": [],
      "name": "initialExchangeRate",
      "outputs": [
        {
          "internalType": "uint256",
          "name": "",
          "type": "uint256"
        }
      ],
      "stateMutability": "view",
      "type": "function"
    },
    {
      "inputs": [],
      "name": "ip",
      "outputs": [
        {
          "internalType": "contract IParams",
          "name": "",
          "type": "address"
        }
      ],
      "stateMutability": "view",
      "type": "function"
    },
    {
      "inputs": [
        {
          "internalType": "address",
          "name": "_user",
          "type": "address"
        }
      ],
      "name": "isNodeStake",
      "outputs": [
        {
          "internalType": "bool",
          "name": "",
          "type": "bool"
        }
      ],
      "stateMutability": "view",
      "type": "function"
    },
    {
      "inputs": [
        {
          "internalType": "bytes32",
          "name": "_txid",
          "type": "bytes32"
        }
      ],
      "name": "isTxUsed",
      "outputs": [
        {
          "internalType": "bool",
          "name": "",
          "type": "bool"
        }
      ],
      "stateMutability": "view",
      "type": "function"
    },
    {
      "inputs": [],
      "name": "limitBTCForSPFlow2",
      "outputs": [
        {
          "internalType": "uint256",
          "name": "",
          "type": "uint256"
        }
      ],
      "stateMutability": "view",
      "type": "function"
    },
    {
      "inputs": [],
      "name": "lpToken",
      "outputs": [
        {
          "internalType": "address",
          "name": "",
          "type": "address"
        }
      ],
      "stateMutability": "view",
      "type": "function"
    },
    {
      "inputs": [
        {
          "internalType": "bytes32[]",
          "name": "_addressesAndAmounts",
          "type": "bytes32[]"
        },
        {
          "internalType": "uint256",
          "name": "_totalSwapped",
          "type": "uint256"
        },
        {
          "internalType": "uint256",
          "name": "_rewardsAmount",
          "type": "uint256"
        },
        {
          "internalType": "bytes32[]",
          "name": "_usedTxIds",
          "type": "bytes32[]"
        }
      ],
      "name": "multiRecordSkyPoolsTX",
      "outputs": [
        {
          "internalType": "bool",
          "name": "",
          "type": "bool"
        }
      ],
      "stateMutability": "nonpayable",
      "type": "function"
    },
    {
      "inputs": [],
      "name": "oldestActiveIndex",
      "outputs": [
        {
          "internalType": "uint256",
          "name": "",
          "type": "uint256"
        }
      ],
      "stateMutability": "view",
      "type": "function"
    },
    {
      "inputs": [],
      "name": "owner",
      "outputs": [
        {
          "internalType": "address",
          "name": "",
          "type": "address"
        }
      ],
      "stateMutability": "view",
      "type": "function"
    },
    {
      "inputs": [],
      "name": "params",
      "outputs": [
        {
          "internalType": "address",
          "name": "",
          "type": "address"
        }
      ],
      "stateMutability": "view",
      "type": "function"
    },
    {
      "inputs": [
        {
          "internalType": "address",
          "name": "_token",
          "type": "address"
        },
        {
          "internalType": "bytes32",
          "name": "_addressesAndAmountOfFloat",
          "type": "bytes32"
        },
        {
          "internalType": "bytes32",
          "name": "_txid",
          "type": "bytes32"
        }
      ],
      "name": "recordIncomingFloat",
      "outputs": [
        {
          "internalType": "bool",
          "name": "",
          "type": "bool"
        }
      ],
      "stateMutability": "nonpayable",
      "type": "function"
    },
    {
      "inputs": [
        {
          "internalType": "address",
          "name": "_token",
          "type": "address"
        },
        {
          "internalType": "bytes32",
          "name": "_addressesAndAmountOfLPtoken",
          "type": "bytes32"
        },
        {
          "internalType": "uint256",
          "name": "_minerFee",
          "type": "uint256"
        },
        {
          "internalType": "bytes32",
          "name": "_txid",
          "type": "bytes32"
        }
      ],
      "name": "recordOutcomingFloat",
      "outputs": [
        {
          "internalType": "bool",
          "name": "",
          "type": "bool"
        }
      ],
      "stateMutability": "nonpayable",
      "type": "function"
    },
    {
      "inputs": [
        {
          "internalType": "address",
          "name": "_to",
          "type": "address"
        },
        {
          "internalType": "uint256",
          "name": "_totalSwapped",
          "type": "uint256"
        },
        {
          "internalType": "uint256",
          "name": "_rewardsAmount",
          "type": "uint256"
        },
        {
          "internalType": "bytes32[]",
          "name": "_usedTxIds",
          "type": "bytes32[]"
        }
      ],
      "name": "recordSkyPoolsTX",
      "outputs": [
        {
          "internalType": "bool",
          "name": "",
          "type": "bool"
        }
      ],
      "stateMutability": "nonpayable",
      "type": "function"
    },
    {
      "inputs": [
        {
          "internalType": "uint256",
          "name": "_minerFee",
          "type": "uint256"
        },
        {
          "internalType": "bytes32",
          "name": "_txid",
          "type": "bytes32"
        }
      ],
      "name": "recordUTXOSweepMinerFee",
      "outputs": [
        {
          "internalType": "bool",
          "name": "",
          "type": "bool"
        }
      ],
      "stateMutability": "nonpayable",
      "type": "function"
    },
    {
      "inputs": [
        {
          "internalType": "address",
          "name": "_token",
          "type": "address"
        },
        {
          "internalType": "uint256",
          "name": "_amount",
          "type": "uint256"
        }
      ],
      "name": "redeemERC20Token",
      "outputs": [],
      "stateMutability": "nonpayable",
      "type": "function"
    },
    {
      "inputs": [
        {
          "internalType": "uint256",
          "name": "_amount",
          "type": "uint256"
        }
      ],
      "name": "redeemEther",
      "outputs": [],
      "stateMutability": "nonpayable",
      "type": "function"
    },
    {
      "inputs": [],
      "name": "renounceOwnership",
      "outputs": [],
      "stateMutability": "nonpayable",
      "type": "function"
    },
    {
      "inputs": [],
      "name": "sbBTCPool",
      "outputs": [
        {
          "internalType": "address",
          "name": "",
          "type": "address"
        }
      ],
      "stateMutability": "view",
      "type": "function"
    },
    {
      "inputs": [
        {
          "internalType": "address",
          "name": "_destToken",
          "type": "address"
        },
        {
          "internalType": "address",
          "name": "_to",
          "type": "address"
        },
        {
          "internalType": "uint256",
          "name": "_amount",
          "type": "uint256"
        },
        {
          "internalType": "uint256",
          "name": "_totalSwapped",
          "type": "uint256"
        },
        {
          "internalType": "uint256",
          "name": "_rewardsAmount",
          "type": "uint256"
        },
        {
          "internalType": "bytes32[]",
          "name": "_redeemedFloatTxIds",
          "type": "bytes32[]"
        }
      ],
      "name": "singleTransferERC20",
      "outputs": [
        {
          "internalType": "bool",
          "name": "",
          "type": "bool"
        }
      ],
      "stateMutability": "nonpayable",
      "type": "function"
    },
    {
      "inputs": [
        {
          "internalType": "uint256",
          "name": "_loopCount",
          "type": "uint256"
        }
      ],
      "name": "spCleanUpOldTXs",
      "outputs": [],
      "stateMutability": "nonpayable",
      "type": "function"
    },
    {
      "inputs": [
        {
          "internalType": "address",
          "name": "_token",
          "type": "address"
        },
        {
          "internalType": "uint256",
          "name": "_amount",
          "type": "uint256"
        }
      ],
      "name": "spDeposit",
      "outputs": [],
      "stateMutability": "payable",
      "type": "function"
    },
    {
      "inputs": [
        {
          "components": [
            {
              "internalType": "address",
              "name": "fromToken",
              "type": "address"
            },
            {
              "internalType": "address",
              "name": "toToken",
              "type": "address"
            },
            {
              "internalType": "uint256",
              "name": "fromAmount",
              "type": "uint256"
            },
            {
              "internalType": "uint256",
              "name": "toAmount",
              "type": "uint256"
            },
            {
              "internalType": "uint256",
              "name": "expectedAmount",
              "type": "uint256"
            },
            {
              "internalType": "address[]",
              "name": "callees",
              "type": "address[]"
            },
            {
              "internalType": "bytes",
              "name": "exchangeData",
              "type": "bytes"
            },
            {
              "internalType": "uint256[]",
              "name": "startIndexes",
              "type": "uint256[]"
            },
            {
              "internalType": "uint256[]",
              "name": "values",
              "type": "uint256[]"
            },
            {
              "internalType": "address payable",
              "name": "beneficiary",
              "type": "address"
            },
            {
              "internalType": "address payable",
              "name": "partner",
              "type": "address"
            },
            {
              "internalType": "uint256",
              "name": "feePercent",
              "type": "uint256"
            },
            {
              "internalType": "bytes",
              "name": "permit",
              "type": "bytes"
            },
            {
              "internalType": "uint256",
              "name": "deadline",
              "type": "uint256"
            },
            {
              "internalType": "bytes16",
              "name": "uuid",
              "type": "bytes16"
            }
          ],
          "internalType": "struct Utils.SimpleData",
          "name": "_data",
          "type": "tuple"
        }
      ],
      "name": "spFlow1SimpleSwap",
      "outputs": [],
      "stateMutability": "nonpayable",
      "type": "function"
    },
    {
      "inputs": [
        {
          "internalType": "bool",
          "name": "_fork",
          "type": "bool"
        },
        {
          "internalType": "address",
          "name": "_factory",
          "type": "address"
        },
        {
          "internalType": "bytes32",
          "name": "_initCode",
          "type": "bytes32"
        },
        {
          "internalType": "uint256",
          "name": "_amountIn",
          "type": "uint256"
        },
        {
          "internalType": "uint256",
          "name": "_amountOutMin",
          "type": "uint256"
        },
        {
          "internalType": "address[]",
          "name": "_path",
          "type": "address[]"
        }
      ],
      "name": "spFlow1Uniswap",
      "outputs": [
        {
          "internalType": "uint256",
          "name": "receivedAmount",
          "type": "uint256"
        }
      ],
      "stateMutability": "nonpayable",
      "type": "function"
    },
    {
      "inputs": [
        {
          "internalType": "string",
          "name": "_destinationAddressForBTC",
          "type": "string"
        },
        {
          "components": [
            {
              "internalType": "address",
              "name": "fromToken",
              "type": "address"
            },
            {
              "internalType": "address",
              "name": "toToken",
              "type": "address"
            },
            {
              "internalType": "uint256",
              "name": "fromAmount",
              "type": "uint256"
            },
            {
              "internalType": "uint256",
              "name": "toAmount",
              "type": "uint256"
            },
            {
              "internalType": "uint256",
              "name": "expectedAmount",
              "type": "uint256"
            },
            {
              "internalType": "address[]",
              "name": "callees",
              "type": "address[]"
            },
            {
              "internalType": "bytes",
              "name": "exchangeData",
              "type": "bytes"
            },
            {
              "internalType": "uint256[]",
              "name": "startIndexes",
              "type": "uint256[]"
            },
            {
              "internalType": "uint256[]",
              "name": "values",
              "type": "uint256[]"
            },
            {
              "internalType": "address payable",
              "name": "beneficiary",
              "type": "address"
            },
            {
              "internalType": "address payable",
              "name": "partner",
              "type": "address"
            },
            {
              "internalType": "uint256",
              "name": "feePercent",
              "type": "uint256"
            },
            {
              "internalType": "bytes",
              "name": "permit",
              "type": "bytes"
            },
            {
              "internalType": "uint256",
              "name": "deadline",
              "type": "uint256"
            },
            {
              "internalType": "bytes16",
              "name": "uuid",
              "type": "bytes16"
            }
          ],
          "internalType": "struct Utils.SimpleData",
          "name": "_data",
          "type": "tuple"
        }
      ],
      "name": "spFlow2SimpleSwap",
      "outputs": [
        {
          "internalType": "uint256",
          "name": "receivedAmount",
          "type": "uint256"
        }
      ],
      "stateMutability": "nonpayable",
      "type": "function"
    },
    {
      "inputs": [
        {
          "internalType": "string",
          "name": "_destinationAddressForBTC",
          "type": "string"
        },
        {
          "internalType": "bool",
          "name": "_fork",
          "type": "bool"
        },
        {
          "internalType": "address",
          "name": "_factory",
          "type": "address"
        },
        {
          "internalType": "bytes32",
          "name": "_initCode",
          "type": "bytes32"
        },
        {
          "internalType": "uint256",
          "name": "_amountIn",
          "type": "uint256"
        },
        {
          "internalType": "uint256",
          "name": "_amountOutMin",
          "type": "uint256"
        },
        {
          "internalType": "address[]",
          "name": "_path",
          "type": "address[]"
        }
      ],
      "name": "spFlow2Uniswap",
      "outputs": [
        {
          "internalType": "uint256",
          "name": "receivedAmount",
          "type": "uint256"
        }
      ],
      "stateMutability": "nonpayable",
      "type": "function"
    },
    {
      "inputs": [],
      "name": "spGetPendingSwaps",
      "outputs": [
        {
          "components": [
            {
              "internalType": "bytes32",
              "name": "SwapID",
              "type": "bytes32"
            },
            {
              "internalType": "string",
              "name": "DestAddr",
              "type": "string"
            },
            {
              "internalType": "address",
              "name": "RefundAddr",
              "type": "address"
            },
            {
              "internalType": "uint256",
              "name": "AmountWBTC",
              "type": "uint256"
            },
            {
              "internalType": "uint256",
              "name": "Timestamp",
              "type": "uint256"
            }
          ],
          "internalType": "struct SwapContract.spPendingTx[]",
          "name": "data",
          "type": "tuple[]"
        }
      ],
      "stateMutability": "view",
      "type": "function"
    },
    {
      "inputs": [
        {
          "internalType": "uint256",
          "name": "",
          "type": "uint256"
        }
      ],
      "name": "spPendingTXs",
      "outputs": [
        {
          "internalType": "bytes32",
          "name": "SwapID",
          "type": "bytes32"
        },
        {
          "internalType": "string",
          "name": "DestAddr",
          "type": "string"
        },
        {
          "internalType": "address",
          "name": "RefundAddr",
          "type": "address"
        },
        {
          "internalType": "uint256",
          "name": "AmountWBTC",
          "type": "uint256"
        },
        {
          "internalType": "uint256",
          "name": "Timestamp",
          "type": "uint256"
        }
      ],
      "stateMutability": "view",
      "type": "function"
    },
    {
      "inputs": [],
      "name": "sw",
      "outputs": [
        {
          "internalType": "contract ISwapRewards",
          "name": "",
          "type": "address"
        }
      ],
      "stateMutability": "view",
      "type": "function"
    },
    {
      "inputs": [],
      "name": "swapCount",
      "outputs": [
        {
          "internalType": "uint256",
          "name": "",
          "type": "uint256"
        }
      ],
      "stateMutability": "view",
      "type": "function"
    },
    {
      "inputs": [],
      "name": "swapRewards",
      "outputs": [
        {
          "internalType": "address",
          "name": "",
          "type": "address"
        }
      ],
      "stateMutability": "view",
      "type": "function"
    },
    {
      "inputs": [
        {
          "internalType": "address",
          "name": "",
          "type": "address"
        },
        {
          "internalType": "address",
          "name": "",
          "type": "address"
        }
      ],
      "name": "tokens",
      "outputs": [
        {
          "internalType": "uint256",
          "name": "",
          "type": "uint256"
        }
      ],
      "stateMutability": "view",
      "type": "function"
    },
    {
      "inputs": [],
      "name": "totalStakedAmount",
      "outputs": [
        {
          "internalType": "uint256",
          "name": "",
          "type": "uint256"
        }
      ],
      "stateMutability": "view",
      "type": "function"
    },
    {
      "inputs": [
        {
          "internalType": "address",
          "name": "newOwner",
          "type": "address"
        }
      ],
      "name": "transferOwnership",
      "outputs": [],
      "stateMutability": "nonpayable",
      "type": "function"
    },
    {
      "inputs": [],
      "name": "tssThreshold",
      "outputs": [
        {
          "internalType": "uint8",
          "name": "",
          "type": "uint8"
        }
      ],
      "stateMutability": "view",
      "type": "function"
    },
    {
      "inputs": [],
      "name": "wETH",
      "outputs": [
        {
          "internalType": "address",
          "name": "",
          "type": "address"
        }
      ],
      "stateMutability": "view",
      "type": "function"
    },
    {
      "inputs": [
        {
          "internalType": "address",
          "name": "",
          "type": "address"
        }
      ],
      "name": "whitelist",
      "outputs": [
        {
          "internalType": "bool",
          "name": "",
          "type": "bool"
        }
      ],
      "stateMutability": "view",
      "type": "function"
    },
    {
      "stateMutability": "payable",
      "type": "receive"
    }
  ],
  "bytecode": "0x6101c06040523480156200001257600080fd5b506040516200673638038062006736833981016040819052620000359162000339565b6200004033620002cc565b60018055600060048181556003919091556001600160a01b038087166101005285811661012052848116610160819052610180528381166101408190526101a052881660a08190526040805163313ce56760e01b81529051919263313ce567928282019260209290829003018186803b158015620000bd57600080fd5b505afa158015620000d2573d6000803e3d6000fd5b505050506040513d601f19601f82011682018060405250810190620000f89190620003c5565b6200010590600a62000506565b60e0526001600160a01b03861660808190526040805163313ce56760e01b815290516008929163313ce567916004808301926020929190829003018186803b1580156200015157600080fd5b505afa15801562000166573d6000803e3d6000fd5b505050506040513d601f19601f820116820180604052508101906200018c9190620003c5565b62000198919062000517565b620001a590600a62000506565b60c08181525050866001600160a01b031663313ce5676040518163ffffffff1660e01b815260040160206040518083038186803b158015620001e657600080fd5b505afa158015620001fb573d6000803e3d6000fd5b505050506040513d601f19601f82011682018060405250810190620002219190620003c5565b6200022e90600a62000506565b6007556001600160a01b0395861660009081526005602090815260408083208054600160ff1991821681179092559a9099168352822080548a16891790559080527f05b8ccbb9d4d8fb16ea74ce3c29a41f1b461fbdaff4714a0d9a8eb05499746bc80549098169096179096555050600990925250507fec8156718a8372b1db44bb411437d0870f3e3790d4a08526d024ce1b0b668f6b556200053d565b600080546001600160a01b038381166001600160a01b0319831681178455604051919092169283917f8be0079c531659141344cd1fd0a4f28419497f9722a3daafe3b4186f6b6457e09190a35050565b80516001600160a01b03811681146200033457600080fd5b919050565b600080600080600080600060e0888a0312156200035557600080fd5b62000360886200031c565b965062000370602089016200031c565b955062000380604089016200031c565b945062000390606089016200031c565b9350620003a0608089016200031c565b9250620003b060a089016200031c565b915060c0880151905092959891949750929550565b600060208284031215620003d857600080fd5b815160ff81168114620003ea57600080fd5b9392505050565b634e487b7160e01b600052601160045260246000fd5b600181815b80851115620004485781600019048211156200042c576200042c620003f1565b808516156200043a57918102915b93841c93908002906200040c565b509250929050565b600082620004615750600162000500565b81620004705750600062000500565b81600181146200048957600281146200049457620004b4565b600191505062000500565b60ff841115620004a857620004a8620003f1565b50506001821b62000500565b5060208310610133831016604e8410600b8410161715620004d9575081810a62000500565b620004e5838362000407565b8060001904821115620004fc57620004fc620003f1565b0290505b92915050565b6000620003ea60ff84168362000450565b600060ff821660ff841680821015620005345762000534620003f1565b90039392505050565b60805160a05160c05160e05161010051610120516101405161016051610180516101a051615ffc6200073a6000396000818161035301528181610a6a01526133ad0152600081816107e0015281816112fb015281816126b5015281816132640152818161380901528181613ebf0152818161479501526149c7015260006107ac015260006108140152600081816102d6015281816136a401526138eb015260008181610283015281816108ed01528181611f5001528181611fac01528181612019015281816120600152818161214401528181612ca801528181612d220152612d6b0152600081816115da015281816138b001528181613e87015261468f01526000613a9c0152600081816105ba01528181610b4201528181610b7d0152818161153a01528181613655015281816136d30152818161391d0152818161411e01526146dc0152600081816103b701528181610aee01528181610b2001528181610c9701528181610d130152818161150e0152818161189d0152818161225401528181612283015281816122d301528181612366015281816123f4015281816127c001528181612839015281816128d001528181612aa501528181612fc0015281816130a20152818161335e0152818161343f01528181613a5e01528181613fb401528181614030015281816140c501526143c10152615ffc6000f3fe6080604052600436106102735760003560e01c8063715018a61161014f578063ca0707e7116100c1578063dcc5f0c81161007a578063dcc5f0c814610856578063e6ca208414610876578063ec482729146108a6578063f2428621146108db578063f2fde38b1461090f578063f7888aec1461092f576102b2565b8063ca0707e714610767578063cf10b16b1461077a578063cff0ab961461079a578063d023420d146107ce578063d0f9a08514610802578063d38c7bb114610836576102b2565b8063a742329d11610113578063a742329d146106b1578063a827278b146106d1578063b345a358146106e7578063b4014fe814610707578063bf62dcc814610727578063c810a53914610747576102b2565b8063715018a61461061457806375340815146106295780638535490f146106435780638da5cb5b146106635780639b19251a14610681576102b2565b80632586c562116101e8578063511834c3116101ac578063511834c31461055257806352dcd6b614610572578063567e98f9146105925780635fcbd285146105a85780636b51e919146105dc5780636d019f35146105fe576102b2565b80632586c562146104af5780632eff0d9e146104cf57806345137e27146104e55780634db75485146104fa578063508493bc1461051a576102b2565b806312d1441e1161023a57806312d1441e146103d9578063130b7a63146103f85780631ab7e937146104265780631bb069301461045757806320199e991461046d57806321959d3c1461048f576102b2565b806285aea1146102c457806289356f14610315578062e5cee4146103415780630d63aca7146103755780630f909486146103a5576102b2565b366102b257336001600160a01b037f000000000000000000000000000000000000000000000000000000000000000016146102b0576102b0614e1b565b005b3480156102be57600080fd5b50600080fd5b3480156102d057600080fd5b506102f87f000000000000000000000000000000000000000000000000000000000000000081565b6040516001600160a01b0390911681526020015b60405180910390f35b34801561032157600080fd5b5060065461032f9060ff1681565b60405160ff909116815260200161030c565b34801561034d57600080fd5b506102f87f000000000000000000000000000000000000000000000000000000000000000081565b34801561038157600080fd5b50610395610390366004614f2a565b610975565b604051901515815260200161030c565b3480156103b157600080fd5b506102f87f000000000000000000000000000000000000000000000000000000000000000081565b3480156103e557600080fd5b5060065461032f90610100900460ff1681565b34801561040457600080fd5b5061041861041336600461500b565b610bc9565b60405190815260200161030c565b34801561043257600080fd5b50610446610441366004615090565b611003565b60405161030c959493929190615101565b34801561046357600080fd5b5061041860045481565b34801561047957600080fd5b506104826110c6565b60405161030c9190615140565b34801561049b57600080fd5b506102b06104aa366004615090565b6112c7565b3480156104bb57600080fd5b506103956104ca3660046151de565b611410565b3480156104db57600080fd5b5061041860035481565b3480156104f157600080fd5b50610418611502565b34801561050657600080fd5b506102b0610515366004615219565b611620565b34801561052657600080fd5b50610418610535366004615245565b600f60209081526000928352604080842090915290825290205481565b34801561055e57600080fd5b506102b061056d366004615297565b61177f565b34801561057e57600080fd5b5061039561058d366004615349565b611a02565b34801561059e57600080fd5b50610418600e5481565b3480156105b457600080fd5b506102f87f000000000000000000000000000000000000000000000000000000000000000081565b3480156105e857600080fd5b506105f1611dbe565b60405161030c919061548b565b34801561060a57600080fd5b5061041860075481565b34801561062057600080fd5b506102b0611ee8565b34801561063557600080fd5b50600d5461032f9060ff1681565b34801561064f57600080fd5b506102b061065e366004615090565b611f1e565b34801561066f57600080fd5b506000546001600160a01b03166102f8565b34801561068d57600080fd5b5061039561069c36600461549e565b60056020526000908152604090205460ff1681565b3480156106bd57600080fd5b506103956106cc36600461549e565b6121da565b3480156106dd57600080fd5b5061041860085481565b3480156106f357600080fd5b506103956107023660046154bb565b61220e565b34801561071357600080fd5b5061041861072236600461555e565b612332565b34801561073357600080fd5b506103956107423660046155c6565b61277a565b34801561075357600080fd5b50610395610762366004615630565b612957565b6102b0610775366004615219565b612a4c565b34801561078657600080fd5b50610395610795366004615652565b612e02565b3480156107a657600080fd5b506102f87f000000000000000000000000000000000000000000000000000000000000000081565b3480156107da57600080fd5b506102f87f000000000000000000000000000000000000000000000000000000000000000081565b34801561080e57600080fd5b506102f87f000000000000000000000000000000000000000000000000000000000000000081565b34801561084257600080fd5b50610418610851366004615687565b612ef2565b34801561086257600080fd5b5061039561087136600461573e565b613331565b34801561088257600080fd5b50610395610891366004615090565b6000908152600a602052604090205460ff1690565b3480156108b257600080fd5b506108c66108c1366004615245565b6134af565b6040805192835260208301919091520161030c565b3480156108e757600080fd5b506102f87f000000000000000000000000000000000000000000000000000000000000000081565b34801561091b57600080fd5b506102b061092a36600461549e565b6134d9565b34801561093b57600080fd5b5061041861094a366004615245565b6001600160a01b039182166000908152600f6020908152604080832093909416825291909152205490565b600080546001600160a01b031633146109a95760405162461bcd60e51b81526004016109a090615823565b60405180910390fd5b6001600160a01b03871660009081526005602052604090205460ff166109f65760405162461bcd60e51b81526020600482015260026024820152610c4d60f21b60448201526064016109a0565b6001600160a01b038716610a315760405162461bcd60e51b8152602060048201526002602482015261313560f01b60448201526064016109a0565b60008415610b185760405160016266faa960e11b031981526001600160a01b0389811660048301528881166024830152604482018790527f0000000000000000000000000000000000000000000000000000000000000000169063ff320aae90606401602060405180830381600087803b158015610aae57600080fd5b505af1158015610ac2573d6000803e3d6000fd5b505050506040513d601f19601f82011682018060405250810190610ae69190615858565b50610b1360007f000000000000000000000000000000000000000000000000000000000000000087613574565b610b40565b84610b4057507f00000000000000000000000000000000000000000000000000000000000000005b7f00000000000000000000000000000000000000000000000000000000000000006001600160a01b0316886001600160a01b03161415610b9d57507f00000000000000000000000000000000000000000000000000000000000000005b610ba7818561364a565b610bb0836139f4565b610bbb888888613a5c565b506001979650505050505050565b600060026001541415610bee5760405162461bcd60e51b81526004016109a090615875565b6002600155600083838281610c0557610c056158ac565b9050602002016020810190610c1a919061549e565b905060008484610c2b6001826158d8565b818110610c3a57610c3a6158ac565b9050602002016020810190610c4f919061549e565b6001600160a01b0383166000908152600f60209081526040808320338452909152902054909150871115610c955760405162461bcd60e51b81526004016109a0906158ef565b7f00000000000000000000000000000000000000000000000000000000000000006001600160a01b0316826001600160a01b031614610d115760405162461bcd60e51b815260206004820152601860248201527726bab9ba1039bbb0b810333937b690212a21903a37b5b2b760411b60448201526064016109a0565b7f00000000000000000000000000000000000000000000000000000000000000006001600160a01b0316816001600160a01b03161415610d935760405162461bcd60e51b815260206004820152601960248201527f456e64696e6720746f6b656e206d75737420626520774254430000000000000060448201526064016109a0565b6001600160a01b03811673eeeeeeeeeeeeeeeeeeeeeeeeeeeeeeeeeeeeeeee1415610df85760405162461bcd60e51b81526020600482015260156024820152740aae6ca40e0c2e8d040ee84a886405a7c40ee8aa89605b1b60448201526064016109a0565b6040516370a0823160e01b81523060048201526000906001600160a01b038316906370a082319060240160206040518083038186803b158015610e3a57600080fd5b505afa158015610e4e573d6000803e3d6000fd5b505050506040513d601f19601f82011682018060405250810190610e729190615926565b6001600160a01b0384166000908152600f60209081526040808320338452909152902054909150610ea39089613b53565b6001600160a01b0384166000908152600f602090815260408083203384529091529020558a15610ee057610edb8a8a8a8a8a8a613b66565b610eec565b610eec88888888613cac565b6040516370a0823160e01b8152306004820152610f709082906001600160a01b038516906370a08231906024015b60206040518083038186803b158015610f3257600080fd5b505afa158015610f46573d6000803e3d6000fd5b505050506040513d601f19601f82011682018060405250810190610f6a9190615926565b90613b53565b935086841015610f925760405162461bcd60e51b81526004016109a09061593f565b83610f9c57600080fd5b6001600160a01b0382166000908152600f60209081526040808320338452909152902054610fca9085613dec565b6001600160a01b039092166000908152600f60209081526040808320338452909152902091909155505060018055979650505050505050565b6002602052600090815260409020805460018201805491929161102590615976565b80601f016020809104026020016040519081016040528092919081815260200182805461105190615976565b801561109e5780601f106110735761010080835404028352916020019161109e565b820191906000526020600020905b81548152906001019060200180831161108157829003601f168201915b505050506002830154600384015460049094015492936001600160a01b039091169290915085565b606060006110e1600454600354613b5390919063ffffffff16565b6001600160401b038111156110f8576110f8614e56565b60405190808252806020026020018201604052801561116757816020015b6111546040518060a00160405280600080191681526020016060815260200160006001600160a01b0316815260200160008152602001600081525090565b8152602001906001900390816111165790505b50915060006111826001600454613dec90919063ffffffff16565b90505b60035481116112c257600260006111a760045485613dec90919063ffffffff16565b81526020019081526020016000206040518060a0016040529081600082015481526020016001820180546111da90615976565b80601f016020809104026020016040519081016040528092919081815260200182805461120690615976565b80156112535780601f1061122857610100808354040283529160200191611253565b820191906000526020600020905b81548152906001019060200180831161123657829003601f168201915b505050918352505060028201546001600160a01b03166020820152600382015460408201526004909101546060909101528351849084908110611298576112986158ac565b60209081029190910101526112ae826001613dec565b9150806112ba816159ab565b915050611185565b505090565b6004546000906112d79083613dec565b905060035481106112e757506003545b60045442905b8281101561140a57816113a27f00000000000000000000000000000000000000000000000000000000000000006001600160a01b031663da284dcc6040518163ffffffff1660e01b815260040160206040518083038186803b15801561135257600080fd5b505afa158015611366573d6000803e3d6000fd5b505050506040513d601f19601f8201168201806040525081019061138a9190615926565b60008481526002602052604090206004015490613dec565b10156113f8576000818152600260205260408120818155906113c76001830182614d48565b506002810180546001600160a01b03191690556000600382018190556004909101556113f4816001613dec565b6004555b80611402816159ab565b9150506112ed565b50505050565b600080546001600160a01b0316331461143b5760405162461bcd60e51b81526004016109a090615823565b6000611445611502565b6001600160a01b03871660009081526005602052604090205490915060ff166114955760405162461bcd60e51b8152602060048201526002602482015261189b60f11b60448201526064016109a0565b6114a186868686613df8565b6114aa57600080fd5b60019150806114b7611502565b10156114f95760405162461bcd60e51b8152602060048201526011602482015270496e76616c6964204c505420707269636560781b60448201526064016109a0565b50949350505050565b600080600061153260007f00000000000000000000000000000000000000000000000000000000000000006134af565b9150915060007f00000000000000000000000000000000000000000000000000000000000000006001600160a01b03166318160ddd6040518163ffffffff1660e01b815260040160206040518083038186803b15801561159157600080fd5b505afa1580156115a5573d6000803e3d6000fd5b505050506040513d601f19601f820116820180604052508101906115c99190615926565b905080156116145761160f816116097f00000000000000000000000000000000000000000000000000000000000000006116038787613dec565b9061421d565b90614229565b611618565b6007545b935050505090565b600260015414156116435760405162461bcd60e51b81526004016109a090615875565b60026001556001600160a01b0382166000908152600f602090815260408083203384529091529020548111156116b25760405162461bcd60e51b8152602060048201526014602482015273496e73756666696369656e742042616c616e636560601b60448201526064016109a0565b6001600160a01b0382166000908152600f602090815260408083203384529091529020546116e09082613b53565b6001600160a01b0383166000908152600f602090815260408083203380855292529091209190915561171490839083613a5c565b6001600160a01b0382166000908152600f60209081526040808320338085529252918290205491517febff2602b3f468259e1e99f613fed6691f3a6526effe6ef3e768ba7ae7a36c4f9261176f9286929091869142906159c6565b60405180910390a1505060018055565b600260015414156117a25760405162461bcd60e51b81526004016109a090615875565b6002600155336117ba6101408301610120840161549e565b6001600160a01b0316146118105760405162461bcd60e51b815260206004820152601960248201527f62656e656669636961727920213d206d73672e73656e6465720000000000000060448201526064016109a0565b6040810135600f6000611826602085018561549e565b6001600160a01b0316815260208101919091526040016000908120906118546101408501610120860161549e565b6001600160a01b03166001600160a01b031681526020019081526020016000205410156118935760405162461bcd60e51b81526004016109a0906158ef565b6001600160a01b037f0000000000000000000000000000000000000000000000000000000000000000166118ca602083018361549e565b6001600160a01b0316146119325760405162461bcd60e51b815260206004820152602960248201527f66726f6d546f6b656e206d7573742062652074686520726571756972656420426044820152682a21ba103a37b5b2b760b91b60648201526084016109a0565b61193b81614235565b6119a26040820135600f6000611954602086018661549e565b6001600160a01b0316815260208101919091526040016000908120906119826101408601610120870161549e565b6001600160a01b0316815260208101919091526040016000205490613b53565b600f60006119b3602085018561549e565b6001600160a01b0316815260208101919091526040016000908120906119e16101408501610120860161549e565b6001600160a01b031681526020810191909152604001600020555060018055565b600080546001600160a01b03163314611a2d5760405162461bcd60e51b81526004016109a090615823565b60065460ff610100909104811690841610801590611a4f575060ff8360ff1611155b611a805760405162461bcd60e51b8152602060048201526002602482015261303160f01b60448201526064016109a0565b611a8b6001846159f7565b60ff168460ff161015611ac55760405162461bcd60e51b8152602060048201526002602482015261181960f11b60448201526064016109a0565b8451865114611afb5760405162461bcd60e51b8152602060048201526002602482015261303560f01b60448201526064016109a0565b611b04876134d9565b60005b8651811015611d2e57858181518110611b2257611b226158ac565b6020026020010151611c9757600060ff16600b6000898481518110611b4957611b496158ac565b6020908102919091018101516001600160a01b031682528101919091526040016000205460ff161415611bc657600c878281518110611b8a57611b8a6158ac565b60209081029190910181015182546001810184556000938452919092200180546001600160a01b0319166001600160a01b039092169190911790555b600160ff16600b6000898481518110611be157611be16158ac565b6020908102919091018101516001600160a01b031682528101919091526040016000205460ff1614611c3a57600d805460ff16906000611c2083615a1c565b91906101000a81548160ff021916908360ff160217905550505b6001600b6000898481518110611c5257611c526158ac565b60200260200101516001600160a01b03166001600160a01b0316815260200190815260200160002060006101000a81548160ff021916908360ff160217905550611d1c565b600d805460ff16906000611caa83615a3c565b91906101000a81548160ff021916908360ff160217905550506002600b6000898481518110611cdb57611cdb6158ac565b60200260200101516001600160a01b03166001600160a01b0316815260200190815260200160002060006101000a81548160ff021916908360ff1602179055505b80611d26816159ab565b915050611b07565b50600d54606460ff9091161115611d915760405162461bcd60e51b815260206004820152602160248201527f53746f726564206e6f64652073697a652073686f756c64206265203c3d2031306044820152600360fc1b60648201526084016109a0565b506006805460ff8481166101000261ffff1990921690861617179055600e81905560019695505050505050565b600d54606090600090819060ff166001600160401b03811115611de357611de3614e56565b604051908082528060200260200182016040528015611e0c578160200160208202803683370190505b50905060005b600c54811015611ee157600160ff16600b6000600c8481548110611e3857611e386158ac565b60009182526020808320909101546001600160a01b0316835282019290925260400190205460ff161415611ecf57600c8181548110611e7957611e796158ac565b9060005260206000200160009054906101000a90046001600160a01b0316828481518110611ea957611ea96158ac565b6001600160a01b039092166020928302919091019091015282611ecb816159ab565b9350505b80611ed9816159ab565b915050611e12565b5092915050565b6000546001600160a01b03163314611f125760405162461bcd60e51b81526004016109a090615823565b611f1c600061436d565b565b60026001541415611f415760405162461bcd60e51b81526004016109a090615875565b60026001556001600160a01b037f0000000000000000000000000000000000000000000000000000000000000000166000908152600f60209081526040808320338452909152902054811115611f9657600080fd5b604051632e1a7d4d60e01b8152600481018290527f00000000000000000000000000000000000000000000000000000000000000006001600160a01b031690632e1a7d4d90602401600060405180830381600087803b158015611ff857600080fd5b505af115801561200c573d6000803e3d6000fd5b5050506001600160a01b037f0000000000000000000000000000000000000000000000000000000000000000166000908152600f6020908152604080832033845290915290205461205e915082613b53565b7f00000000000000000000000000000000000000000000000000000000000000006001600160a01b03166000908152600f60209081526040808320338085529252808320939093559151829084908381818185875af1925050503d80600081146120e4576040519150601f19603f3d011682016040523d82523d6000602084013e6120e9565b606091505b505090508061213a5760405162461bcd60e51b815260206004820152601e60248201527f72656365697665722072656a656374656420455448207472616e73666572000060448201526064016109a0565b6001600160a01b037f0000000000000000000000000000000000000000000000000000000000000000166000908152600f60209081526040808320338085529252918290205491517febff2602b3f468259e1e99f613fed6691f3a6526effe6ef3e768ba7ae7a36c4f926121c99273eeeeeeeeeeeeeeeeeeeeeeeeeeeeeeeeeeeeeeee929091889142906159c6565b60405180910390a150506001805550565b6001600160a01b0381166000908152600b602052604081205460ff166001141561220657506001919050565b506000919050565b600080546001600160a01b031633146122395760405162461bcd60e51b81526004016109a090615823565b8361224357600080fd5b8261224d57600080fd5b61227960007f000000000000000000000000000000000000000000000000000000000000000086613574565b6001600160a01b037f000000000000000000000000000000000000000000000000000000000000000081166000908152600f60209081526040808320938916835292905220546122c99085613dec565b6001600160a01b037f000000000000000000000000000000000000000000000000000000000000000081166000908152600f60209081526040808320938a1683529290529081209190915561231e908461364a565b612327826139f4565b506001949350505050565b6000600260015414156123575760405162461bcd60e51b81526004016109a090615875565b60026001556001600160a01b037f000000000000000000000000000000000000000000000000000000000000000016612393602084018461549e565b6001600160a01b031614156123ea5760405162461bcd60e51b815260206004820152601c60248201527f4d757374206e6f7420737761702066726f6d2042544320746f6b656e0000000060448201526064016109a0565b6001600160a01b037f000000000000000000000000000000000000000000000000000000000000000016612424604084016020850161549e565b6001600160a01b0316146124735760405162461bcd60e51b815260206004820152601660248201527526bab9ba1039bbb0b8103a3790212a21903a37b5b2b760511b60448201526064016109a0565b306124866101408401610120850161549e565b6001600160a01b0316146124dc5760405162461bcd60e51b815260206004820152601c60248201527f62656e656669636961727920213d207377617020636f6e74726163740000000060448201526064016109a0565b6040820135600f60006124f2602086018661549e565b6001600160a01b031681526020808201929092526040908101600090812033825290925290205410156125375760405162461bcd60e51b81526004016109a0906158ef565b6000612549604084016020850161549e565b6040516370a0823160e01b81523060048201526001600160a01b0391909116906370a082319060240160206040518083038186803b15801561258a57600080fd5b505afa15801561259e573d6000803e3d6000fd5b505050506040513d601f19601f820116820180604052508101906125c29190615926565b905061260a6040840135600f60006125dd602088018861549e565b6001600160a01b031681526020808201929092526040908101600090812033825290925290205490613b53565b600f600061261b602087018761549e565b6001600160a01b031681526020808201929092526040908101600090812033825290925290205561264b83614235565b61268d8161265f604086016020870161549e565b6040516370a0823160e01b81523060048201526001600160a01b0391909116906370a0823190602401610f1a565b915082608001358210156126b35760405162461bcd60e51b81526004016109a09061593f565b7f00000000000000000000000000000000000000000000000000000000000000006001600160a01b0316631411c5b76040518163ffffffff1660e01b815260040160206040518083038186803b15801561270c57600080fd5b505afa158015612720573d6000803e3d6000fd5b505050506040513d601f19601f820116820180604052508101906127449190615926565b8210156127635760405162461bcd60e51b81526004016109a090615a59565b61276e8585846143bd565b50600180559392505050565b600080546001600160a01b031633146127a55760405162461bcd60e51b81526004016109a090615823565b836127af57600080fd5b826127b957600080fd5b6127e560007f000000000000000000000000000000000000000000000000000000000000000086613574565b6127f060008461364a565b6127f9826139f4565b60005b855181101561294b576128c686828151811061281a5761281a6158ac565b602002602001015160a01c6bffffffffffffffffffffffff16600f60007f00000000000000000000000000000000000000000000000000000000000000006001600160a01b03166001600160a01b03168152602001908152602001600020600089858151811061288c5761288c6158ac565b602002602001015160001c6001600160a01b03166001600160a01b0316815260200190815260200160002054613dec90919063ffffffff16565b6001600160a01b037f0000000000000000000000000000000000000000000000000000000000000000166000908152600f602052604081208851909190899085908110612915576129156158ac565b6020908102919091018101516001600160a01b031682528101919091526040016000205580612943816159ab565b9150506127fc565b50600195945050505050565b600080546001600160a01b031633146129825760405162461bcd60e51b81526004016109a090615823565b6000828152600a602052604090205460ff16156129e15760405162461bcd60e51b815260206004820152601860248201527f546865207478696420697320616c72656164792075736564000000000000000060448201526064016109a0565b604080518082019091526002815261189960f11b6020808301919091526000805260099052600080516020615fa783398151915254612a21918590614549565b600080526009602052600080516020615fa783398151915255612a4382614575565b50600192915050565b60026001541415612a6f5760405162461bcd60e51b81526004016109a090615875565b600260015534612c99576001600160a01b03821673eeeeeeeeeeeeeeeeeeeeeeeeeeeeeeeeeeeeeeee1415612aa357600080fd5b7f00000000000000000000000000000000000000000000000000000000000000006001600160a01b0316826001600160a01b03161415612ae257600080fd5b6040516370a0823160e01b81523060048201526000906001600160a01b038416906370a082319060240160206040518083038186803b158015612b2457600080fd5b505afa158015612b38573d6000803e3d6000fd5b505050506040513d601f19601f82011682018060405250810190612b5c9190615926565b9050612b736001600160a01b038416333085614590565b6040516370a0823160e01b81523060048201526000906001600160a01b038516906370a082319060240160206040518083038186803b158015612bb557600080fd5b505afa158015612bc9573d6000803e3d6000fd5b505050506040513d601f19601f82011682018060405250810190612bed9190615926565b90506000612bfb8284613b53565b6001600160a01b0386166000908152600f60209081526040808320338452909152902054909150612c2c9082613dec565b6001600160a01b0386166000908152600f602090815260408083203380855292529182902083905590517f4e2ca0515ed1aef1395f66b5303bb5d6f1bf9d61a353fa53f73f8ac9973fa9f692612c899289929091869142906159c6565b60405180910390a1505050612dfa565b60003411612ca657600080fd5b7f00000000000000000000000000000000000000000000000000000000000000006001600160a01b031663d0e30db0346040518263ffffffff1660e01b81526004016000604051808303818588803b158015612d0157600080fd5b505af1158015612d15573d6000803e3d6000fd5b5050506001600160a01b037f0000000000000000000000000000000000000000000000000000000000000000166000908152600f60209081526040808320338452909152902054612d699250905034613dec565b7f00000000000000000000000000000000000000000000000000000000000000006001600160a01b03166000908152600f602090815260408083203380855292529182902083905590517f4e2ca0515ed1aef1395f66b5303bb5d6f1bf9d61a353fa53f73f8ac9973fa9f69261176f9273eeeeeeeeeeeeeeeeeeeeeeeeeeeeeeeeeeeeeeee929091349142906159c6565b505060018055565b600080546001600160a01b03163314612e2d5760405162461bcd60e51b81526004016109a090615823565b6000612e37611502565b6001600160a01b03861660009081526005602052604090205490915060ff16612e875760405162461bcd60e51b8152602060048201526002602482015261189b60f11b60448201526064016109a0565b612e928585856145fb565b612e9b57600080fd5b6001915080612ea8611502565b1015612eea5760405162461bcd60e51b8152602060048201526011602482015270496e76616c6964204c505420707269636560781b60448201526064016109a0565b509392505050565b600060026001541415612f175760405162461bcd60e51b81526004016109a090615875565b6002600155600083838281612f2e57612f2e6158ac565b9050602002016020810190612f43919061549e565b905060008484612f546001826158d8565b818110612f6357612f636158ac565b9050602002016020810190612f78919061549e565b6001600160a01b0383166000908152600f60209081526040808320338452909152902054909150871115612fbe5760405162461bcd60e51b81526004016109a0906158ef565b7f00000000000000000000000000000000000000000000000000000000000000006001600160a01b0316826001600160a01b0316141561303b5760405162461bcd60e51b815260206004820152601860248201527726bab9ba1039bbb0b810333937b690212a21903a37b5b2b760411b60448201526064016109a0565b6001600160a01b03821673eeeeeeeeeeeeeeeeeeeeeeeeeeeeeeeeeeeeeeee14156130a05760405162461bcd60e51b815260206004820152601560248201527455736520706174682077455448202d3e207742544360581b60448201526064016109a0565b7f00000000000000000000000000000000000000000000000000000000000000006001600160a01b0316816001600160a01b03161461311a5760405162461bcd60e51b815260206004820152601660248201527526bab9ba1039bbb0b8103a3790212a21903a37b5b2b760511b60448201526064016109a0565b6040516370a0823160e01b81523060048201526000906001600160a01b038316906370a082319060240160206040518083038186803b15801561315c57600080fd5b505afa158015613170573d6000803e3d6000fd5b505050506040513d601f19601f820116820180604052508101906131949190615926565b6001600160a01b0384166000908152600f602090815260408083203384529091529020549091506131c59089613b53565b6001600160a01b0384166000908152600f602090815260408083203384529091529020558a15613202576131fd8a8a8a8a8a8a613b66565b61320e565b61320e88888888613cac565b6040516370a0823160e01b81523060048201526132409082906001600160a01b038516906370a0823190602401610f1a565b9350868410156132625760405162461bcd60e51b81526004016109a09061593f565b7f00000000000000000000000000000000000000000000000000000000000000006001600160a01b0316631411c5b76040518163ffffffff1660e01b815260040160206040518083038186803b1580156132bb57600080fd5b505afa1580156132cf573d6000803e3d6000fd5b505050506040513d601f19601f820116820180604052508101906132f39190615926565b8410156133125760405162461bcd60e51b81526004016109a090615a59565b61331d8d8d866143bd565b505050600180559998505050505050505050565b600080546001600160a01b0316331461335c5760405162461bcd60e51b81526004016109a090615823565b7f0000000000000000000000000000000000000000000000000000000000000000871561347557600061339388610f6a8b8a613b53565b6040516349e031a560e01b81529091506001600160a01b037f000000000000000000000000000000000000000000000000000000000000000016906349e031a5906133e7906000908a908a90600401615aad565b602060405180830381600087803b15801561340157600080fd5b505af1158015613415573d6000803e3d6000fd5b505050506040513d601f19601f820116820180604052508101906134399190615858565b5061346f7f0000000000000000000000000000000000000000000000000000000000000000600061346a848c613dec565b613574565b5061347e565b8761347e575060005b613488818761364a565b8215610bbb57610bbb600080526009602052600080516020615fa783398151915254600855565b6001600160a01b039182166000908152600960205260408082205492909316815291909120549091565b6000546001600160a01b031633146135035760405162461bcd60e51b81526004016109a090615823565b6001600160a01b0381166135685760405162461bcd60e51b815260206004820152602660248201527f4f776e61626c653a206e6577206f776e657220697320746865207a65726f206160448201526564647265737360d01b60648201526084016109a0565b6135718161436d565b50565b6040805180820182526002815261313160f01b6020808301919091526001600160a01b0385166000908152600990915291909120546135b4918390614549565b6001600160a01b0380841660009081526009602052604080822093909355908516815220546135e39082613dec565b6001600160a01b038481166000818152600960209081526040918290209490945580519182529185169281019290925281018290527fea368a40e9570069bb8e6511d668293ad2e1f03b0d982431fd223de9f3b70ca69060600160405180910390a1505050565b80613653575050565b7f00000000000000000000000000000000000000000000000000000000000000006001600160a01b0316826001600160a01b031614156137a45760405163a9059cbb60e01b81526001600160a01b037f000000000000000000000000000000000000000000000000000000000000000081166004830152602482018390527f0000000000000000000000000000000000000000000000000000000000000000169063a9059cbb90604401602060405180830381600087803b15801561371757600080fd5b505af115801561372b573d6000803e3d6000fd5b505050506040513d601f19601f8201168201806040525081019061374f9190615858565b50604080516001600160a01b0384168152600060208201819052818301849052606082015290517fe3debe835f6848edc082b32a1d729781d3bfcd7e14422d80bcaa6794d3816b2f9181900360800190a15050565b60006137ae611502565b6001600160a01b0384166000908152600960205260409020549091506137d49083613dec565b60096000856001600160a01b03166001600160a01b031681526020019081526020016000208190555060006138a260646116097f00000000000000000000000000000000000000000000000000000000000000006001600160a01b0316630b68134d6040518163ffffffff1660e01b815260040160206040518083038186803b15801561386057600080fd5b505afa158015613874573d6000803e3d6000fd5b505050506040513d601f19601f820116820180604052508101906138989190615b05565b869060ff1661421d565b905060006138d483611609847f000000000000000000000000000000000000000000000000000000000000000061421d565b6040516340c10f1960e01b81526001600160a01b037f000000000000000000000000000000000000000000000000000000000000000081166004830152602482018390529192507f0000000000000000000000000000000000000000000000000000000000000000909116906340c10f1990604401602060405180830381600087803b15801561396357600080fd5b505af1158015613977573d6000803e3d6000fd5b505050506040513d601f19601f8201168201806040525081019061399b9190615858565b50604080516001600160a01b038716815260208101869052908101829052606081018490527fe3debe835f6848edc082b32a1d729781d3bfcd7e14422d80bcaa6794d3816b2f9060800160405180910390a15050505050565b60005b8151811015613a58576001600a6000848481518110613a1857613a186158ac565b6020026020010151815260200190815260200160002060006101000a81548160ff0219169083151502179055508080613a50906159ab565b9150506139f7565b5050565b7f00000000000000000000000000000000000000000000000000000000000000006001600160a01b0316836001600160a01b03161415613ac357613ac0817f000000000000000000000000000000000000000000000000000000000000000061421d565b90505b60405163a9059cbb60e01b81526001600160a01b0383811660048301526024820183905284169063a9059cbb90604401602060405180830381600087803b158015613b0d57600080fd5b505af1158015613b21573d6000803e3d6000fd5b505050506040513d601f19601f82011682018060405250810190613b459190615858565b613b4e57600080fd5b505050565b6000613b5f82846158d8565b9392505050565b600082826000818110613b7b57613b7b6158ac565b9050602002016020810190613b90919061549e565b9050600073def171fe48cf0115b1d80b88dc8eab59176fee576001600160a01b031663d2c4b5986040518163ffffffff1660e01b815260040160206040518083038186803b158015613be157600080fd5b505afa158015613bf5573d6000803e3d6000fd5b505050506040513d601f19601f82011682018060405250810190613c199190615b22565b9050613c2f6001600160a01b0383168288614871565b604051633d59840d60e21b815273def171fe48cf0115b1d80b88dc8eab59176fee579063f566103490613c70908b908b908b908b908b908b90600401615b7d565b600060405180830381600087803b158015613c8a57600080fd5b505af1158015613c9e573d6000803e3d6000fd5b505050505050505050505050565b600082826000818110613cc157613cc16158ac565b9050602002016020810190613cd6919061549e565b9050600073def171fe48cf0115b1d80b88dc8eab59176fee576001600160a01b031663d2c4b5986040518163ffffffff1660e01b815260040160206040518083038186803b158015613d2757600080fd5b505afa158015613d3b573d6000803e3d6000fd5b505050506040513d601f19601f82011682018060405250810190613d5f9190615b22565b9050613d756001600160a01b0383168288614871565b604051632a42068d60e11b815273def171fe48cf0115b1d80b88dc8eab59176fee57906354840d1a90613db2908990899089908990600401615bbd565b600060405180830381600087803b158015613dcc57600080fd5b505af1158015613de0573d6000803e3d6000fd5b50505050505050505050565b6000613b5f8284615be7565b6000818152600a602052604081205460ff1615613e3c5760405162461bcd60e51b8152602060048201526002602482015261181b60f11b60448201526064016109a0565b83613e6e5760405162461bcd60e51b8152602060048201526002602482015261303760f01b60448201526064016109a0565b8360a081901c6000613e7e611502565b90506000613eb07f0000000000000000000000000000000000000000000000000000000000000000611609858561421d565b90506000613f586127106116097f00000000000000000000000000000000000000000000000000000000000000006001600160a01b031663b6268e5d6040518163ffffffff1660e01b815260040160206040518083038186803b158015613f1657600080fd5b505afa158015613f2a573d6000803e3d6000fd5b505050506040513d601f19601f82011682018060405250810190613f4e9190615b05565b859060ff1661421d565b905087613f658383613b53565b1015613f985760405162461bcd60e51b8152602060048201526002602482015261303960f01b60448201526064016109a0565b6000613fa889610f6a8585613b53565b9050600080613fd860007f00000000000000000000000000000000000000000000000000000000000000006134af565b90925090506001600160a01b038d1661402e57613ff58585613b53565b8210156140295760405162461bcd60e51b8152602060048201526002602482015261060760f31b60448201526064016109a0565b6140a6565b7f00000000000000000000000000000000000000000000000000000000000000006001600160a01b03168d6001600160a01b031614156140a6576140728585613b53565b8110156140a65760405162461bcd60e51b8152602060048201526002602482015261189960f11b60448201526064016109a0565b6140b08d8561364a565b6140ba8d86614932565b6140c38a614575565b7f00000000000000000000000000000000000000000000000000000000000000006001600160a01b03168d6001600160a01b03161415614108576141088d8985613a5c565b604051630852cd8d60e31b8152600481018890527f00000000000000000000000000000000000000000000000000000000000000006001600160a01b0316906342966c6890602401602060405180830381600087803b15801561416a57600080fd5b505af115801561417e573d6000803e3d6000fd5b505050506040513d601f19601f820116820180604052508101906141a29190615858565b6141ab57600080fd5b604080516001600160a01b038a16815260208101899052908101869052606081018790526080810184905260a081018b90527fa9da34e5e4a956b744307ae7611795634e8365951073bf049d76b64b2ae7a0589060c00160405180910390a15060019c9b505050505050505050505050565b6000613b5f8284615bff565b6000613b5f8284615c1e565b600073def171fe48cf0115b1d80b88dc8eab59176fee576001600160a01b031663d2c4b5986040518163ffffffff1660e01b815260040160206040518083038186803b15801561428457600080fd5b505afa158015614298573d6000803e3d6000fd5b505050506040513d601f19601f820116820180604052508101906142bc9190615b22565b90506142e48160408401356142d4602086018661549e565b6001600160a01b03169190614871565b6040516354e3f31b60e01b815273def171fe48cf0115b1d80b88dc8eab59176fee57906354e3f31b9061431b908590600401615d44565b602060405180830381600087803b15801561433557600080fd5b505af1158015614349573d6000803e3d6000fd5b505050506040513d601f19601f82011682018060405250810190613b4e9190615926565b600080546001600160a01b038381166001600160a01b0319831681178455604051919092169283917f8be0079c531659141344cd1fd0a4f28419497f9722a3daafe3b4186f6b6457e09190a35050565b60007f0000000000000000000000000000000000000000000000000000000000000000600354858585426040516020016143fc96959493929190615efa565b6040516020818303038152906040528051906020012090506040518060a0016040528082815260200185858080601f0160208091040260200160405190810160405280939291908181526020018383808284376000920182905250938552505033602080850191909152604080850188905242606090950194909452600354835260028152929091208351815583830151805191936144a393506001850192910190614d82565b5060408201516002820180546001600160a01b0319166001600160a01b03909216919091179055606082015160038201556080909101516004909101556144e8614992565b6003546144f6906001613dec565b60035561450282614a86565b7faaa4c278970337923c885845b00985ecf5082317e2f9abf72a27b4d35255d67281858533864260405161453b96959493929190615f36565b60405180910390a150505050565b6000818484111561456d5760405162461bcd60e51b81526004016109a09190615f77565b505050900390565b6000908152600a60205260409020805460ff19166001179055565b6040516001600160a01b038085166024830152831660448201526064810182905261140a9085906323b872dd60e01b906084015b60408051601f198184030181529190526020810180516001600160e01b03166001600160e01b031990931692909217909152614adb565b6000818152600a602052604081205460ff161561463f5760405162461bcd60e51b8152602060048201526002602482015261181b60f11b60448201526064016109a0565b826146715760405162461bcd60e51b8152602060048201526002602482015261303760f01b60448201526064016109a0565b8260a081901c6000614681611502565b905060006146b382611609857f000000000000000000000000000000000000000000000000000000000000000061421d565b6040516340c10f1960e01b81526001600160a01b038681166004830152602482018390529192507f0000000000000000000000000000000000000000000000000000000000000000909116906340c10f1990604401602060405180830381600087803b15801561472257600080fd5b505af1158015614736573d6000803e3d6000fd5b505050506040513d601f19601f8201168201806040525081019061475a9190615858565b506147658884614bad565b61476e86614575565b7fdfaf4e23f7030adafec91a682e05bf9fb30c721f9cec3d8bcfae0459c5362db1848483857f00000000000000000000000000000000000000000000000000000000000000006001600160a01b031663424192556040518163ffffffff1660e01b815260040160206040518083038186803b1580156147ec57600080fd5b505afa158015614800573d6000803e3d6000fd5b505050506040513d601f19601f820116820180604052508101906148249190615b05565b604080516001600160a01b039096168652602086019490945292840191909152606083015260ff16608082015260a0810188905260c00160405180910390a1506001979650505050505050565b604051636eb1769f60e11b81523060048201526001600160a01b038381166024830152600091839186169063dd62ed3e9060440160206040518083038186803b1580156148bd57600080fd5b505afa1580156148d1573d6000803e3d6000fd5b505050506040513d601f19601f820116820180604052508101906148f59190615926565b6148ff9190615be7565b6040516001600160a01b03851660248201526044810182905290915061140a90859063095ea7b360e01b906064016145c4565b6040805180820182526002815261031360f41b6020808301919091526001600160a01b038516600090815260099091529190912054614972918390614549565b6001600160a01b0390921660009081526009602052604090209190915550565b6004546000906149a390600a613dec565b905060035481106149b357506003545b60045442905b82811015613b4e5781614a1e7f00000000000000000000000000000000000000000000000000000000000000006001600160a01b031663da284dcc6040518163ffffffff1660e01b815260040160206040518083038186803b15801561135257600080fd5b1015614a7457600081815260026020526040812081815590614a436001830182614d48565b506002810180546001600160a01b0319169055600060038201819055600490910155614a70816001613dec565b6004555b80614a7e816159ab565b9150506149b9565b600854614aae57614aae600080526009602052600080516020615fa783398151915254600855565b604080518082019091526002815261189960f11b6020820152600854614ad5918390614549565b60085550565b6000614b30826040518060400160405280602081526020017f5361666545524332303a206c6f772d6c6576656c2063616c6c206661696c6564815250856001600160a01b0316614bd09092919063ffffffff16565b805190915015613b4e5780806020019051810190614b4e9190615858565b613b4e5760405162461bcd60e51b815260206004820152602a60248201527f5361666545524332303a204552433230206f7065726174696f6e20646964206e6044820152691bdd081cdd58d8d9595960b21b60648201526084016109a0565b6001600160a01b0382166000908152600960205260409020546149729082613dec565b6060614bdf8484600085614be7565b949350505050565b606082471015614c485760405162461bcd60e51b815260206004820152602660248201527f416464726573733a20696e73756666696369656e742062616c616e636520666f6044820152651c8818d85b1b60d21b60648201526084016109a0565b843b614c965760405162461bcd60e51b815260206004820152601d60248201527f416464726573733a2063616c6c20746f206e6f6e2d636f6e747261637400000060448201526064016109a0565b600080866001600160a01b03168587604051614cb29190615f8a565b60006040518083038185875af1925050503d8060008114614cef576040519150601f19603f3d011682016040523d82523d6000602084013e614cf4565b606091505b5091509150614d04828286614d0f565b979650505050505050565b60608315614d1e575081613b5f565b825115614d2e5782518084602001fd5b8160405162461bcd60e51b81526004016109a09190615f77565b508054614d5490615976565b6000825580601f10614d64575050565b601f0160209004906000526020600020908101906135719190614e06565b828054614d8e90615976565b90600052602060002090601f016020900481019282614db05760008555614df6565b82601f10614dc957805160ff1916838001178555614df6565b82800160010185558215614df6579182015b82811115614df6578251825591602001919060010190614ddb565b50614e02929150614e06565b5090565b5b80821115614e025760008155600101614e07565b634e487b7160e01b600052600160045260246000fd5b6001600160a01b038116811461357157600080fd5b8035614e5181614e31565b919050565b634e487b7160e01b600052604160045260246000fd5b604051601f8201601f191681016001600160401b0381118282101715614e9457614e94614e56565b604052919050565b60006001600160401b03821115614eb557614eb5614e56565b5060051b60200190565b600082601f830112614ed057600080fd5b81356020614ee5614ee083614e9c565b614e6c565b82815260059290921b84018101918181019086841115614f0457600080fd5b8286015b84811015614f1f5780358352918301918301614f08565b509695505050505050565b60008060008060008060c08789031215614f4357600080fd5b8635614f4e81614e31565b95506020870135614f5e81614e31565b945060408701359350606087013592506080870135915060a08701356001600160401b03811115614f8e57600080fd5b614f9a89828a01614ebf565b9150509295509295509295565b801515811461357157600080fd5b8035614e5181614fa7565b60008083601f840112614fd257600080fd5b5081356001600160401b03811115614fe957600080fd5b6020830191508360208260051b850101111561500457600080fd5b9250929050565b600080600080600080600060c0888a03121561502657600080fd5b873561503181614fa7565b9650602088013561504181614e31565b955060408801359450606088013593506080880135925060a08801356001600160401b0381111561507157600080fd5b61507d8a828b01614fc0565b989b979a50959850939692959293505050565b6000602082840312156150a257600080fd5b5035919050565b60005b838110156150c45781810151838201526020016150ac565b8381111561140a5750506000910152565b600081518084526150ed8160208601602086016150a9565b601f01601f19169290920160200192915050565b85815260a06020820152600061511a60a08301876150d5565b6001600160a01b0395909516604083015250606081019290925260809091015292915050565b60006020808301818452808551808352604092508286019150828160051b87010184880160005b838110156151d057603f19898403018552815160a08151855288820151818a870152615195828701826150d5565b838a01516001600160a01b0316878b015260608085015190880152608093840151939096019290925250509386019390860190600101615167565b509098975050505050505050565b600080600080608085870312156151f457600080fd5b84356151ff81614e31565b966020860135965060408601359560600135945092505050565b6000806040838503121561522c57600080fd5b823561523781614e31565b946020939093013593505050565b6000806040838503121561525857600080fd5b823561526381614e31565b9150602083013561527381614e31565b809150509250929050565b60006101e0828403121561529157600080fd5b50919050565b6000602082840312156152a957600080fd5b81356001600160401b038111156152bf57600080fd5b614bdf8482850161527e565b600082601f8301126152dc57600080fd5b813560206152ec614ee083614e9c565b82815260059290921b8401810191818101908684111561530b57600080fd5b8286015b84811015614f1f57803561532281614e31565b835291830191830161530f565b60ff8116811461357157600080fd5b8035614e518161532f565b60008060008060008060c0878903121561536257600080fd5b863561536d81614e31565b95506020878101356001600160401b038082111561538a57600080fd5b6153968b838c016152cb565b975060408a01359150808211156153ac57600080fd5b508801601f81018a136153be57600080fd5b80356153cc614ee082614e9c565b81815260059190911b8201830190838101908c8311156153eb57600080fd5b928401925b8284101561541257833561540381614fa7565b825292840192908401906153f0565b80985050505050506154266060880161533e565b92506154346080880161533e565b915060a087013590509295509295509295565b600081518084526020808501945080840160005b838110156154805781516001600160a01b03168752958201959082019060010161545b565b509495945050505050565b602081526000613b5f6020830184615447565b6000602082840312156154b057600080fd5b8135613b5f81614e31565b600080600080608085870312156154d157600080fd5b84356154dc81614e31565b9350602085013592506040850135915060608501356001600160401b0381111561550557600080fd5b61551187828801614ebf565b91505092959194509250565b60008083601f84011261552f57600080fd5b5081356001600160401b0381111561554657600080fd5b60208301915083602082850101111561500457600080fd5b60008060006040848603121561557357600080fd5b83356001600160401b038082111561558a57600080fd5b6155968783880161551d565b909550935060208601359150808211156155af57600080fd5b506155bc8682870161527e565b9150509250925092565b600080600080608085870312156155dc57600080fd5b84356001600160401b03808211156155f357600080fd5b6155ff88838901614ebf565b95506020870135945060408701359350606087013591508082111561562357600080fd5b5061551187828801614ebf565b6000806040838503121561564357600080fd5b50508035926020909101359150565b60008060006060848603121561566757600080fd5b833561567281614e31565b95602085013595506040909401359392505050565b600080600080600080600080600060e08a8c0312156156a557600080fd5b89356001600160401b03808211156156bc57600080fd5b6156c88d838e0161551d565b909b50995060208c013591506156dd82614fa7565b90975060408b0135906156ef82614e31565b90965060608b0135955060808b0135945060a08b0135935060c08b0135908082111561571a57600080fd5b506157278c828d01614fc0565b915080935050809150509295985092959850929598565b60008060008060008060c0878903121561575757600080fd5b8635955060208088013595506040880135945060608801356001600160401b038082111561578457600080fd5b6157908b838c016152cb565b955060808a01359150808211156157a657600080fd5b508801601f81018a136157b857600080fd5b80356157c6614ee082614e9c565b81815260059190911b8201830190838101908c8311156157e557600080fd5b928401925b82841015615803578335825292840192908401906157ea565b809650505050505061581760a08801614fb5565b90509295509295509295565b6020808252818101527f4f776e61626c653a2063616c6c6572206973206e6f7420746865206f776e6572604082015260600190565b60006020828403121561586a57600080fd5b8151613b5f81614fa7565b6020808252601f908201527f5265656e7472616e637947756172643a207265656e7472616e742063616c6c00604082015260600190565b634e487b7160e01b600052603260045260246000fd5b634e487b7160e01b600052601160045260246000fd5b6000828210156158ea576158ea6158c2565b500390565b60208082526019908201527f42616c616e6365206973206e6f742073756666696369656e7400000000000000604082015260600190565b60006020828403121561593857600080fd5b5051919050565b6020808252601c908201527f526563656976656420616d6f756e7420696e73756666696369656e7400000000604082015260600190565b600181811c9082168061598a57607f821691505b6020821081141561529157634e487b7160e01b600052602260045260246000fd5b60006000198214156159bf576159bf6158c2565b5060010190565b6001600160a01b03958616815293909416602084015260408301919091526060820152608081019190915260a00190565b600060ff821660ff84168060ff03821115615a1457615a146158c2565b019392505050565b600060ff821660ff811415615a3357615a336158c2565b60010192915050565b600060ff821680615a4f57615a4f6158c2565b6000190192915050565b60208082526034908201527f526563656976656420616d6f756e7420686173206e6f74206d657420746865206040820152736d696e20666f7220464c4f57203220737761707360601b606082015260800190565b6001600160a01b038416815260606020808301829052600091615ad290840186615447565b838103604085015284518082528286019183019060005b818110156151d057835183529284019291840191600101615ae9565b600060208284031215615b1757600080fd5b8151613b5f8161532f565b600060208284031215615b3457600080fd5b8151613b5f81614e31565b8183526000602080850194508260005b85811015615480578135615b6281614e31565b6001600160a01b031687529582019590820190600101615b4f565b60018060a01b038716815285602082015284604082015283606082015260a060808201526000615bb160a083018486615b3f565b98975050505050505050565b848152836020820152606060408201526000615bdd606083018486615b3f565b9695505050505050565b60008219821115615bfa57615bfa6158c2565b500190565b6000816000190483118215151615615c1957615c196158c2565b500290565b600082615c3b57634e487b7160e01b600052601260045260246000fd5b500490565b6000808335601e19843603018112615c5757600080fd5b83016020810192503590506001600160401b03811115615c7657600080fd5b8060051b360383131561500457600080fd5b6000808335601e19843603018112615c9f57600080fd5b83016020810192503590506001600160401b03811115615cbe57600080fd5b80360383131561500457600080fd5b81835281816020850137506000828201602090810191909152601f909101601f19169091010190565b81835260006001600160fb1b03831115615d0f57600080fd5b8260051b8083602087013760009401602001938452509192915050565b80356001600160801b031981168114614e5157600080fd5b60208152615d6560208201615d5884614e46565b6001600160a01b03169052565b6000615d7360208401614e46565b6001600160a01b0381166040840152506040830135606083015260608301356080830152608083013560a0830152615dae60a0840184615c40565b6101e08060c0860152615dc661020086018385615b3f565b9250615dd560c0870187615c88565b9250601f19808786030160e0880152615def858584615ccd565b9450615dfe60e0890189615c40565b94509150610100818887030181890152615e19868685615cf6565b9550615e27818a018a615c40565b9550925050610120818887030181890152615e43868685615cf6565b9550615e50818a01614e46565b9450506101409150615e6c828801856001600160a01b03169052565b615e77828901614e46565b93506101609150615e92828801856001600160a01b03169052565b61018093508188013584880152615eab84890189615c88565b945091506101a0818887030181890152615ec6868685615ccd565b95506101c094508089013585890152505050615ee3828701615d2c565b6001600160801b0319169401939093529392505050565b6bffffffffffffffffffffffff198760601b16815285601482015283856034830137603493019283019190915260548201526074019392505050565b86815260a060208201526000615f5060a083018789615ccd565b6001600160a01b039590951660408301525060608101929092526080909101529392505050565b602081526000613b5f60208301846150d5565b60008251615f9c8184602087016150a9565b919091019291505056feec8156718a8372b1db44bb411437d0870f3e3790d4a08526d024ce1b0b668f6ba2646970667358221220d93ba48ea16f1de0519fa44007879d255a02ee8fb3c722c142bdd7413ba59bf264736f6c63430008090033",
  "linkReferences": {},
  "deployedLinkReferences": {}
}