{
  "_format": "hh-sol-artifact-1",
  "contractName": "SwapContract",
  "sourceName": "contracts/SwapContract.sol",
  "abi": [
    {
      "inputs": [
        {
          "internalType": "address",
          "name": "_lpToken",
          "type": "address"
        },
        {
          "internalType": "address",
          "name": "_btct",
          "type": "address"
        },
        {
          "internalType": "uint256",
          "name": "_existingBTCFloat",
          "type": "uint256"
        }
      ],
      "stateMutability": "nonpayable",
      "type": "constructor"
    },
    {
      "anonymous": false,
      "inputs": [
        {
          "indexed": false,
          "internalType": "address",
          "name": "token",
          "type": "address"
        },
        {
          "indexed": false,
          "internalType": "uint256",
          "name": "amountOfLP",
          "type": "uint256"
        },
        {
          "indexed": false,
          "internalType": "uint256",
          "name": "amountOfFloat",
          "type": "uint256"
        },
        {
          "indexed": false,
          "internalType": "uint256",
          "name": "currentPriceLP",
          "type": "uint256"
        },
        {
          "indexed": false,
          "internalType": "uint256",
          "name": "withdrawal",
          "type": "uint256"
        },
        {
          "indexed": false,
          "internalType": "bytes32",
          "name": "txid",
          "type": "bytes32"
        }
      ],
      "name": "BurnLPTokensForFloat",
      "type": "event"
    },
    {
      "anonymous": false,
      "inputs": [
        {
          "indexed": false,
          "internalType": "uint256",
          "name": "rewardLPTsForNodes",
          "type": "uint256"
        }
      ],
      "name": "DistributeNodeRewards",
      "type": "event"
    },
    {
      "anonymous": false,
      "inputs": [
        {
          "indexed": false,
          "internalType": "address",
          "name": "to",
          "type": "address"
        },
        {
          "indexed": false,
          "internalType": "uint256",
          "name": "amountOfFloat",
          "type": "uint256"
        },
        {
          "indexed": false,
          "internalType": "uint256",
          "name": "amountOfLP",
          "type": "uint256"
        },
        {
          "indexed": false,
          "internalType": "uint256",
          "name": "currentPriceLP",
          "type": "uint256"
        },
        {
          "indexed": false,
          "internalType": "uint256",
          "name": "depositFees",
          "type": "uint256"
        },
        {
          "indexed": false,
          "internalType": "bytes32",
          "name": "txid",
          "type": "bytes32"
        }
      ],
      "name": "IssueLPTokensForFloat",
      "type": "event"
    },
    {
      "anonymous": false,
      "inputs": [
        {
          "indexed": true,
          "internalType": "address",
          "name": "previousOwner",
          "type": "address"
        },
        {
          "indexed": true,
          "internalType": "address",
          "name": "newOwner",
          "type": "address"
        }
      ],
      "name": "OwnershipTransferred",
      "type": "event"
    },
    {
      "anonymous": false,
      "inputs": [
        {
          "indexed": false,
          "internalType": "address",
          "name": "feesToken",
          "type": "address"
        },
        {
          "indexed": false,
          "internalType": "uint256",
          "name": "rewards",
          "type": "uint256"
        },
        {
          "indexed": false,
          "internalType": "uint256",
          "name": "amountLPTokensForNode",
          "type": "uint256"
        },
        {
          "indexed": false,
          "internalType": "uint256",
          "name": "currentPriceLP",
          "type": "uint256"
        }
      ],
      "name": "RewardsCollection",
      "type": "event"
    },
    {
      "anonymous": false,
      "inputs": [
        {
          "indexed": false,
          "internalType": "address",
          "name": "from",
          "type": "address"
        },
        {
          "indexed": false,
          "internalType": "address",
          "name": "to",
          "type": "address"
        },
        {
          "indexed": false,
          "internalType": "uint256",
          "name": "amount",
          "type": "uint256"
        }
      ],
      "name": "Swap",
      "type": "event"
    },
    {
      "stateMutability": "nonpayable",
      "type": "fallback"
    },
    {
      "inputs": [],
      "name": "BTCT_ADDR",
      "outputs": [
        {
          "internalType": "address",
          "name": "",
          "type": "address"
        }
      ],
      "stateMutability": "view",
      "type": "function"
    },
    {
      "inputs": [
        {
          "internalType": "address",
          "name": "_token",
          "type": "address"
        },
        {
          "internalType": "address",
          "name": "_user",
          "type": "address"
        }
      ],
      "name": "balanceOf",
      "outputs": [
        {
          "internalType": "uint256",
          "name": "",
          "type": "uint256"
        }
      ],
      "stateMutability": "view",
      "type": "function"
    },
    {
      "inputs": [
        {
          "internalType": "address",
          "name": "_newOwner",
          "type": "address"
        },
        {
          "internalType": "bytes32[]",
          "name": "_rewardAddressAndAmounts",
          "type": "bytes32[]"
        },
        {
          "internalType": "bool[]",
          "name": "_isRemoved",
          "type": "bool[]"
        },
        {
          "internalType": "uint8",
          "name": "_churnedInCount",
          "type": "uint8"
        },
        {
          "internalType": "uint8",
          "name": "_tssThreshold",
          "type": "uint8"
        },
        {
          "internalType": "uint8",
          "name": "_nodeRewardsRatio",
          "type": "uint8"
        },
        {
          "internalType": "uint8",
          "name": "_withdrawalFeeBPS",
          "type": "uint8"
        }
      ],
      "name": "churn",
      "outputs": [
        {
          "internalType": "bool",
          "name": "",
          "type": "bool"
        }
      ],
      "stateMutability": "nonpayable",
      "type": "function"
    },
    {
      "inputs": [],
      "name": "churnedInCount",
      "outputs": [
        {
          "internalType": "uint8",
          "name": "",
          "type": "uint8"
        }
      ],
      "stateMutability": "view",
      "type": "function"
    },
    {
      "inputs": [
        {
          "internalType": "address",
          "name": "_destToken",
          "type": "address"
        },
        {
          "internalType": "uint256",
          "name": "_incomingAmount",
          "type": "uint256"
        },
        {
          "internalType": "uint256",
          "name": "_minerFee",
          "type": "uint256"
        },
        {
          "internalType": "uint256",
          "name": "_rewardsAmount",
          "type": "uint256"
        }
      ],
      "name": "collectSwapFeesForBTC",
      "outputs": [
        {
          "internalType": "bool",
          "name": "",
          "type": "bool"
        }
      ],
      "stateMutability": "nonpayable",
      "type": "function"
    },
    {
      "inputs": [],
      "name": "depositFeesBPS",
      "outputs": [
        {
          "internalType": "uint8",
          "name": "",
          "type": "uint8"
        }
      ],
      "stateMutability": "view",
      "type": "function"
    },
    {
      "inputs": [],
      "name": "distributeNodeRewards",
      "outputs": [
        {
          "internalType": "bool",
          "name": "",
          "type": "bool"
        }
      ],
      "stateMutability": "nonpayable",
      "type": "function"
    },
    {
      "inputs": [],
      "name": "do1InchTrade",
      "outputs": [
        {
          "internalType": "bool",
          "name": "",
          "type": "bool"
        }
      ],
      "stateMutability": "nonpayable",
      "type": "function"
    },
    {
      "inputs": [],
      "name": "doParaSwap",
      "outputs": [
        {
          "internalType": "bool",
          "name": "",
          "type": "bool"
        }
      ],
      "stateMutability": "nonpayable",
      "type": "function"
    },
    {
      "inputs": [],
      "name": "feesLPTokensForNode",
      "outputs": [
        {
          "internalType": "uint256",
          "name": "",
          "type": "uint256"
        }
      ],
      "stateMutability": "view",
      "type": "function"
    },
    {
      "inputs": [],
      "name": "getActiveNodes",
      "outputs": [
        {
          "internalType": "bytes32[]",
          "name": "",
          "type": "bytes32[]"
        }
      ],
      "stateMutability": "view",
      "type": "function"
    },
    {
      "inputs": [],
      "name": "getCurrentPriceLP",
      "outputs": [
        {
          "internalType": "uint256",
          "name": "nowPrice",
          "type": "uint256"
        }
      ],
      "stateMutability": "view",
      "type": "function"
    },
    {
      "inputs": [
        {
          "internalType": "address",
          "name": "_token",
          "type": "address"
        },
        {
          "internalType": "uint256",
          "name": "_amountOfFloat",
          "type": "uint256"
        }
      ],
      "name": "getDepositFeeRate",
      "outputs": [
        {
          "internalType": "uint256",
          "name": "depositFeeRate",
          "type": "uint256"
        }
      ],
      "stateMutability": "view",
      "type": "function"
    },
    {
      "inputs": [
        {
          "internalType": "address",
          "name": "_tokenA",
          "type": "address"
        },
        {
          "internalType": "address",
          "name": "_tokenB",
          "type": "address"
        }
      ],
      "name": "getFloatReserve",
      "outputs": [
        {
          "internalType": "uint256",
          "name": "reserveA",
          "type": "uint256"
        },
        {
          "internalType": "uint256",
          "name": "reserveB",
          "type": "uint256"
        }
      ],
      "stateMutability": "view",
      "type": "function"
    },
    {
      "inputs": [],
      "name": "initialExchangeRate",
      "outputs": [
        {
          "internalType": "uint256",
          "name": "",
          "type": "uint256"
        }
      ],
      "stateMutability": "view",
      "type": "function"
    },
    {
      "inputs": [
        {
          "internalType": "bytes32",
          "name": "_txid",
          "type": "bytes32"
        }
      ],
      "name": "isTxUsed",
      "outputs": [
        {
          "internalType": "bool",
          "name": "",
          "type": "bool"
        }
      ],
      "stateMutability": "view",
      "type": "function"
    },
    {
      "inputs": [],
      "name": "lockedLPTokensForNode",
      "outputs": [
        {
          "internalType": "uint256",
          "name": "",
          "type": "uint256"
        }
      ],
      "stateMutability": "view",
      "type": "function"
    },
    {
      "inputs": [],
      "name": "lpToken",
      "outputs": [
        {
          "internalType": "address",
          "name": "",
          "type": "address"
        }
      ],
      "stateMutability": "view",
      "type": "function"
    },
    {
      "inputs": [
        {
          "internalType": "address",
          "name": "_destToken",
          "type": "address"
        },
        {
          "internalType": "bytes32[]",
          "name": "_addressesAndAmounts",
          "type": "bytes32[]"
        },
        {
          "internalType": "uint256",
          "name": "_totalSwapped",
          "type": "uint256"
        },
        {
          "internalType": "uint256",
          "name": "_rewardsAmount",
          "type": "uint256"
        },
        {
          "internalType": "bytes32[]",
          "name": "_redeemedFloatTxIds",
          "type": "bytes32[]"
        }
      ],
      "name": "multiTransferERC20TightlyPacked",
      "outputs": [
        {
          "internalType": "bool",
          "name": "",
          "type": "bool"
        }
      ],
      "stateMutability": "nonpayable",
      "type": "function"
    },
    {
      "inputs": [],
      "name": "nodeRewardsRatio",
      "outputs": [
        {
          "internalType": "uint8",
          "name": "",
          "type": "uint8"
        }
      ],
      "stateMutability": "view",
      "type": "function"
    },
    {
      "inputs": [],
      "name": "owner",
      "outputs": [
        {
          "internalType": "address",
          "name": "",
          "type": "address"
        }
      ],
      "stateMutability": "view",
      "type": "function"
    },
    {
      "inputs": [
        {
          "internalType": "address",
          "name": "_token",
          "type": "address"
        },
        {
          "internalType": "bytes32",
          "name": "_addressesAndAmountOfFloat",
          "type": "bytes32"
        },
        {
          "internalType": "bool",
          "name": "_zerofee",
          "type": "bool"
        },
        {
          "internalType": "bytes32",
          "name": "_txid",
          "type": "bytes32"
        }
      ],
      "name": "recordIncomingFloat",
      "outputs": [
        {
          "internalType": "bool",
          "name": "",
          "type": "bool"
        }
      ],
      "stateMutability": "nonpayable",
      "type": "function"
    },
    {
      "inputs": [
        {
          "internalType": "address",
          "name": "_token",
          "type": "address"
        },
        {
          "internalType": "bytes32",
          "name": "_addressesAndAmountOfLPtoken",
          "type": "bytes32"
        },
        {
          "internalType": "uint256",
          "name": "_minerFee",
          "type": "uint256"
        },
        {
          "internalType": "bytes32",
          "name": "_txid",
          "type": "bytes32"
        }
      ],
      "name": "recordOutcomingFloat",
      "outputs": [
        {
          "internalType": "bool",
          "name": "",
          "type": "bool"
        }
      ],
      "stateMutability": "nonpayable",
      "type": "function"
    },
    {
      "inputs": [
        {
          "internalType": "address",
          "name": "_destToken",
          "type": "address"
        },
        {
          "internalType": "address",
          "name": "_to",
          "type": "address"
        },
        {
          "internalType": "uint256",
          "name": "_amount",
          "type": "uint256"
        },
        {
          "internalType": "uint256",
          "name": "_totalSwapped",
          "type": "uint256"
        },
        {
          "internalType": "uint256",
          "name": "_rewardsAmount",
          "type": "uint256"
        },
        {
          "internalType": "bytes32[]",
          "name": "_redeemedFloatTxIds",
          "type": "bytes32[]"
        }
      ],
      "name": "recordSkyPoolsTX",
      "outputs": [
        {
          "internalType": "bool",
          "name": "",
          "type": "bool"
        }
      ],
      "stateMutability": "nonpayable",
      "type": "function"
    },
    {
      "inputs": [
        {
          "internalType": "uint256",
          "name": "_minerFee",
          "type": "uint256"
        },
        {
          "internalType": "bytes32",
          "name": "_txid",
          "type": "bytes32"
        }
      ],
      "name": "recordUTXOSweepMinerFee",
      "outputs": [
        {
          "internalType": "bool",
          "name": "",
          "type": "bool"
        }
      ],
      "stateMutability": "nonpayable",
      "type": "function"
    },
    {
      "inputs": [
        {
          "internalType": "address",
          "name": "_token",
          "type": "address"
        },
        {
          "internalType": "uint256",
          "name": "_amount",
          "type": "uint256"
        }
      ],
      "name": "redeemERC20Token",
      "outputs": [
        {
          "internalType": "bool",
          "name": "",
          "type": "bool"
        }
      ],
      "stateMutability": "nonpayable",
      "type": "function"
    },
    {
      "inputs": [],
      "name": "renounceOwnership",
      "outputs": [],
      "stateMutability": "nonpayable",
      "type": "function"
    },
    {
      "inputs": [
        {
          "internalType": "address",
          "name": "_destToken",
          "type": "address"
        },
        {
          "internalType": "address",
          "name": "_to",
          "type": "address"
        },
        {
          "internalType": "uint256",
          "name": "_amount",
          "type": "uint256"
        },
        {
          "internalType": "uint256",
          "name": "_totalSwapped",
          "type": "uint256"
        },
        {
          "internalType": "uint256",
          "name": "_rewardsAmount",
          "type": "uint256"
        },
        {
          "internalType": "bytes32[]",
          "name": "_redeemedFloatTxIds",
          "type": "bytes32[]"
        }
      ],
      "name": "singleTransferERC20",
      "outputs": [
        {
          "internalType": "bool",
          "name": "",
          "type": "bool"
        }
      ],
      "stateMutability": "nonpayable",
      "type": "function"
    },
    {
      "inputs": [
        {
          "internalType": "address",
          "name": "",
          "type": "address"
        },
        {
          "internalType": "address",
          "name": "",
          "type": "address"
        }
      ],
      "name": "tokens",
      "outputs": [
        {
          "internalType": "uint256",
          "name": "",
          "type": "uint256"
        }
      ],
      "stateMutability": "view",
      "type": "function"
    },
    {
      "inputs": [
        {
          "internalType": "address",
          "name": "newOwner",
          "type": "address"
        }
      ],
      "name": "transferOwnership",
      "outputs": [],
      "stateMutability": "nonpayable",
      "type": "function"
    },
    {
      "inputs": [],
      "name": "tssThreshold",
      "outputs": [
        {
          "internalType": "uint8",
          "name": "",
          "type": "uint8"
        }
      ],
      "stateMutability": "view",
      "type": "function"
    },
    {
      "inputs": [
        {
          "internalType": "address",
          "name": "",
          "type": "address"
        }
      ],
      "name": "whitelist",
      "outputs": [
        {
          "internalType": "bool",
          "name": "",
          "type": "bool"
        }
      ],
      "stateMutability": "view",
      "type": "function"
    },
    {
      "inputs": [],
      "name": "withdrawalFeeBPS",
      "outputs": [
        {
          "internalType": "uint8",
          "name": "",
          "type": "uint8"
        }
      ],
      "stateMutability": "view",
      "type": "function"
    }
  ],
  "bytecode": "0x60806040523480156200001157600080fd5b506040516200312738038062003127833981810160405260608110156200003757600080fd5b508051602082015160409092015190919060006200005462000296565b600080546001600160a01b0319166001600160a01b0383169081178255604051929350917f8be0079c531659141344cd1fd0a4f28419497f9722a3daafe3b4186f6b6457e0908290a350600280546001600160a01b0319166001600160a01b0385811691909117918290556040805163313ce56760e01b81529051929091169163313ce56791600480820192602092909190829003018186803b158015620000fb57600080fd5b505afa15801562000110573d6000803e3d6000fd5b505050506040513d60208110156200012757600080fd5b505160ff16600a0a600955600180546001600160a01b0319166001600160a01b0384169081179091556004805462ff00001916624200001763ff000000191663320000001760ff60201b19166414000000001781556040805163313ce56760e01b815290516008939263313ce56792808201926020929091829003018186803b158015620001b457600080fd5b505afa158015620001c9573d6000803e3d6000fd5b505050506040513d6020811015620001e057600080fd5b50510360ff16600a90810a600855600954600755600060058190556006819055600180546001600160a01b039081168352600360209081526040808520805460ff1990811686179091556002549093168552842080548316841790559280527f3617319a054d772f909f7c479a2cebe5066e836a939412e32403c99029b92eff80549091169091179055527f13da86008ba1c6922daee3e07db95305ef49ebced9f5467a0b8613fcc6b343e355506200029a9050565b3390565b612e7d80620002aa6000396000f3fe608060405234801561001057600080fd5b50600436106101fa5760003560e01c806363f289d91161011a578063b6268e5d116100ad578063e9e9bf6a1161007c578063e9e9bf6a146108d6578063ec482729146108de578063f2fde38b14610925578063f7824bc71461094b578063f7888aec14610953576101fa565b8063b6268e5d146107c1578063bbd7fc0d146107c9578063c810a53914610896578063e6ca2084146108b9576101fa565b80638006cc3e116100e95780638006cc3e1461061c5780638da5cb5b146106545780639b19251a1461065c578063ad289e7614610682576101fa565b806363f289d9146105785780636b51e919146105b25780636d019f351461060a578063715018a614610612576101fa565b80633b6fa127116101925780634db75485116101615780634db75485146103c85780634e54cee0146103f4578063508493bc146105425780635fcbd28514610570576101fa565b80633b6fa1271461038c57806342419255146103b857806345137e27146103c057806345468b661461032a576101fa565b80630fd3d41c116101ce5780630fd3d41c1461032a57806312d1441e146103325780632586c5621461033a5780632d55282d14610372576101fa565b806289356f146101ff5780630b68134d1461021d5780630d63aca7146102255780630f90948614610306575b600080fd5b610207610981565b6040805160ff9092168252519081900360200190f35b61020761098a565b6102f2600480360360c081101561023b57600080fd5b6001600160a01b0382358116926020810135909116916040820135916060810135916080820135919081019060c0810160a0820135600160201b81111561028157600080fd5b82018360208201111561029357600080fd5b803590602001918460208302840111600160201b831117156102b457600080fd5b919080806020026020016040519081016040528093929190818152602001838360200280828437600092019190915250929550610999945050505050565b604080519115158252519081900360200190f35b61030e610b38565b604080516001600160a01b039092168252519081900360200190f35b6102f2610b47565b610207610b4c565b6102f26004803603608081101561035057600080fd5b506001600160a01b038135169060208101359060408101359060600135610b5a565b61037a610c9e565b60408051918252519081900360200190f35b61037a600480360360408110156103a257600080fd5b506001600160a01b038135169060200135610ca4565b610207610d30565b61037a610d40565b6102f2600480360360408110156103de57600080fd5b506001600160a01b038135169060200135610e2c565b6102f2600480360360e081101561040a57600080fd5b6001600160a01b038235169190810190604081016020820135600160201b81111561043457600080fd5b82018360208201111561044657600080fd5b803590602001918460208302840111600160201b8311171561046757600080fd5b9190808060200260200160405190810160405280939291908181526020018383602002808284376000920191909152509295949360208101935035915050600160201b8111156104b657600080fd5b8201836020820111156104c857600080fd5b803590602001918460208302840111600160201b831117156104e957600080fd5b9190808060200260200160405190810160405280939291908181526020018383602002808284376000920191909152509295505060ff833581169450602084013581169360408101358216935060600135169050610ea0565b61037a6004803603604081101561055857600080fd5b506001600160a01b03813581169160200135166111be565b61030e6111db565b6102f26004803603608081101561058e57600080fd5b506001600160a01b03813516906020810135906040810135151590606001356111ea565b6105ba6112c8565b60408051602080825283518183015283519192839290830191858101910280838360005b838110156105f65781810151838201526020016105de565b505050509050019250505060405180910390f35b61037a611427565b61061a61142d565b005b6102f26004803603608081101561063257600080fd5b506001600160a01b0381351690602081013590604081013590606001356114d9565b61030e61160a565b6102f26004803603602081101561067257600080fd5b50356001600160a01b0316611619565b6102f2600480360360a081101561069857600080fd5b6001600160a01b038235169190810190604081016020820135600160201b8111156106c257600080fd5b8201836020820111156106d457600080fd5b803590602001918460208302840111600160201b831117156106f557600080fd5b9190808060200260200160405190810160405280939291908181526020018383602002808284376000920191909152509295843595602086013595919450925060608101915060400135600160201b81111561075057600080fd5b82018360208201111561076257600080fd5b803590602001918460208302840111600160201b8311171561078357600080fd5b91908080602002602001604051908101604052809392919081815260200183836020028082843760009201919091525092955061162e945050505050565b610207611808565b6102f2600480360360c08110156107df57600080fd5b6001600160a01b0382358116926020810135909116916040820135916060810135916080820135919081019060c0810160a0820135600160201b81111561082557600080fd5b82018360208201111561083757600080fd5b803590602001918460208302840111600160201b8311171561085857600080fd5b919080806020026020016040519081016040528093929190818152602001838360200280828437600092019190915250929550611818945050505050565b6102f2600480360360408110156108ac57600080fd5b50803590602001356119d2565b6102f2600480360360208110156108cf57600080fd5b5035611b2d565b6102f2611b42565b61090c600480360360408110156108f457600080fd5b506001600160a01b0381358116916020013516611da9565b6040805192835260208301919091528051918290030190f35b61061a6004803603602081101561093b57600080fd5b50356001600160a01b0316611dd3565b61037a611ed5565b61037a6004803603604081101561096957600080fd5b506001600160a01b0381358116916020013516611edb565b60045460ff1681565b60045462010000900460ff1681565b60006109a3611f06565b6001600160a01b03166109b461160a565b6001600160a01b0316146109fd576040805162461bcd60e51b81526020600482018190526024820152600080516020612da3833981519152604482015290519081900360640190fd5b6001600160a01b03871660009081526003602052604090205460ff16610a6a576040805162461bcd60e51b815260206004820152601d60248201527f5f64657374546f6b656e206973206e6f742077686974656c6973746564000000604482015290519081900360640190fd5b6001600160a01b038716610aaf5760405162461bcd60e51b8152600401808060200182810382526023815260200180612e256023913960400191505060405180910390fd5b60008415610ad557600154610ad0906000906001600160a01b031687611f0a565b610ae8565b84610ae857506001546001600160a01b03165b6002546001600160a01b0389811691161415610b0c57506002546001600160a01b03165b610b168185611ff6565b610b1f8361216d565b610b2a8888886121bc565b506001979650505050505050565b6001546001600160a01b031681565b600090565b600454610100900460ff1681565b6000610b64611f06565b6001600160a01b0316610b7561160a565b6001600160a01b031614610bbe576040805162461bcd60e51b81526020600482018190526024820152600080516020612da3833981519152604482015290519081900360640190fd5b6000610bc8610d40565b6001600160a01b03871660009081526003602052604090205490915060ff16610c2c576040805162461bcd60e51b815260206004820152601160248201527017dd1bdad95b881a5cc81a5b9d985b1a59607a1b604482015290519081900360640190fd5b610c3886868686612274565b610c4157600080fd5b6001915080610c4e610d40565b1015610c95576040805162461bcd60e51b8152602060048201526011602482015270496e76616c6964204c505420707269636560781b604482015290519081900360640190fd5b50949350505050565b60055481565b600080610cb18484612610565b90508060ff1660011415610cf3576001546001600160a01b03858116911614610cdb576000610ce9565b6004546301000000900460ff165b60ff169150610d29565b8060ff1660021415610d29576001600160a01b03841615610d15576000610d23565b6004546301000000900460ff165b60ff1691505b5092915050565b6004546301000000900460ff1681565b60015460009081908190610d5e9082906001600160a01b0316611da9565b915091506000600260009054906101000a90046001600160a01b03166001600160a01b03166318160ddd6040518163ffffffff1660e01b815260040160206040518083038186803b158015610db257600080fd5b505afa158015610dc6573d6000803e3d6000fd5b505050506040513d6020811015610ddc57600080fd5b505190508015610e2057610e1b610dfe600554836126ca90919063ffffffff16565b600954610e1590610e0f87876126ca565b9061272b565b90612784565b610e24565b6007545b935050505090565b6001600160a01b0382166000908152600f60209081526040808320338452909152812054821115610e5c57600080fd5b6001600160a01b0383166000908152600f60209081526040808320338452909152902054610e8a90836127eb565b50610e968333846121bc565b5060015b92915050565b6000610eaa611f06565b6001600160a01b0316610ebb61160a565b6001600160a01b031614610f04576040805162461bcd60e51b81526020600482018190526024820152600080516020612da3833981519152604482015290519081900360640190fd5b60045460ff610100909104811690851610801590610f26575060ff8460ff1611155b610f615760405162461bcd60e51b8152600401808060200182810382526027815260200180612d3a6027913960400191505060405180910390fd5b6001840160ff168560ff161015610fb4576040805162461bcd60e51b81526020600482015260126024820152716e2073686f756c64206265203e3d20742b3160701b604482015290519081900360640190fd5b60648360ff16111561100d576040805162461bcd60e51b815260206004820152601e60248201527f5f6e6f646552657761726473526174696f206973206e6f742076616c69640000604482015290519081900360640190fd5b60648260ff161115611066576040805162461bcd60e51b815260206004820152601c60248201527f5f7769746864726177616c46656542505320697320696e76616c696400000000604482015290519081900360640190fd5b85518751146110a65760405162461bcd60e51b815260040180806020018281038252603b815260200180612dea603b913960400191505060405180910390fd5b6110af88611dd3565b60005b87518110156111175760006110d98983815181106110cc57fe5b6020026020010151612848565b50905061110d818a84815181106110ec57fe5b60200260200101518a858151811061110057fe5b6020026020010151612851565b50506001016110b2565b5060606111226112c8565b90506064815111156111655760405162461bcd60e51b8152600401808060200182810382526021815260200180612d826021913960400191505060405180910390fd5b50506004805460ff191660ff9586161761ff001916610100948616949094029390931762ff0000191662010000928516929092029190911764ff000000001916600160201b919093160291909117905550600192915050565b600f60209081526000928352604080842090915290825290205481565b6002546001600160a01b031681565b60006111f4611f06565b6001600160a01b031661120561160a565b6001600160a01b03161461124e576040805162461bcd60e51b81526020600482018190526024820152600080516020612da3833981519152604482015290519081900360640190fd5b6000611258610d40565b6001600160a01b03871660009081526003602052604090205490915060ff166112bc576040805162461bcd60e51b815260206004820152601160248201527017dd1bdad95b881a5cc81a5b9d985b1a59607a1b604482015290519081900360640190fd5b610c3886868686612941565b606060008060005b600e5481101561132b57600c6000600e83815481106112eb57fe5b60009182526020808320909101546001600160a01b0316835282019290925260400190205415611323576113208360016126ca565b92505b6001016112d0565b5060608267ffffffffffffffff8111801561134557600080fd5b5060405190808252806020026020018201604052801561136f578160200160208202803683370190505b50905060005b600e5481101561141f57600c6000600e838154811061139057fe5b60009182526020808320909101546001600160a01b031683528201929092526040019020541561141757600c6000600e83815481106113cb57fe5b60009182526020808320909101546001600160a01b0316835282019290925260400190205482518390859081106113fe57fe5b60209081029190910101526114148360016126ca565b92505b600101611375565b509250505090565b60075481565b611435611f06565b6001600160a01b031661144661160a565b6001600160a01b03161461148f576040805162461bcd60e51b81526020600482018190526024820152600080516020612da3833981519152604482015290519081900360640190fd5b600080546040516001600160a01b03909116907f8be0079c531659141344cd1fd0a4f28419497f9722a3daafe3b4186f6b6457e0908390a3600080546001600160a01b0319169055565b60006114e3611f06565b6001600160a01b03166114f461160a565b6001600160a01b03161461153d576040805162461bcd60e51b81526020600482018190526024820152600080516020612da3833981519152604482015290519081900360640190fd5b6001600160a01b03851615611599576040805162461bcd60e51b815260206004820152601f60248201527f5f64657374546f6b656e2073686f756c64206265206164647265737328302900604482015290519081900360640190fd5b6001546001600160a01b031684156115eb5760006115c1856115bb88876127eb565b906127eb565b6001549091506115e5906001600160a01b031660006115e084896126ca565b611f0a565b506115f4565b846115f4575060005b6115fe8184611ff6565b50600195945050505050565b6000546001600160a01b031690565b60036020526000908152604090205460ff1681565b6000611638611f06565b6001600160a01b031661164961160a565b6001600160a01b031614611692576040805162461bcd60e51b81526020600482018190526024820152600080516020612da3833981519152604482015290519081900360640190fd5b6001600160a01b03861660009081526003602052604090205460ff166116ff576040805162461bcd60e51b815260206004820152601d60248201527f5f64657374546f6b656e206973206e6f742077686974656c6973746564000000604482015290519081900360640190fd5b6001600160a01b0386166117445760405162461bcd60e51b8152600401808060200182810382526023815260200180612e256023913960400191505060405180910390fd5b6000841561176a57600154611765906000906001600160a01b031687611f0a565b61177d565b8461177d57506001546001600160a01b03165b6002546001600160a01b03888116911614156117a157506002546001600160a01b03165b6117ab8185611ff6565b6117b48361216d565b60005b8651811015610b2a57611800888883815181106117d057fe5b602002602001015160001c8984815181106117e757fe5b602002602001015160a01c6001600160601b03166121bc565b6001016117b7565b600454600160201b900460ff1681565b6000611822611f06565b6001600160a01b031661183361160a565b6001600160a01b03161461187c576040805162461bcd60e51b81526020600482018190526024820152600080516020612da3833981519152604482015290519081900360640190fd5b6001600160a01b03871660009081526003602052604090205460ff166118e9576040805162461bcd60e51b815260206004820152601d60248201527f5f64657374546f6b656e206973206e6f742077686974656c6973746564000000604482015290519081900360640190fd5b6001600160a01b03871661192e5760405162461bcd60e51b8152600401808060200182810382526023815260200180612e256023913960400191505060405180910390fd5b600084156119545760015461194f906000906001600160a01b031687611f0a565b611967565b8461196757506001546001600160a01b03165b6002546001600160a01b038981169116141561198b57506002546001600160a01b03165b6119958185611ff6565b61199e8361216d565b505050506001600160a01b039384166000908152600f60209081526040808320959096168252939093525091902055600190565b60006119dc611f06565b6001600160a01b03166119ed61160a565b6001600160a01b031614611a36576040805162461bcd60e51b81526020600482018190526024820152600080516020612da3833981519152604482015290519081900360640190fd5b611a3f82611b2d565b15611a8c576040805162461bcd60e51b8152602060048201526018602482015277151a19481d1e1a59081a5cc8185b1c9958591e481d5cd95960421b604482015290519081900360640190fd5b60408051808201909152601d81527f42544320666c6f617420616d6f756e7420696e73756666696369656e7400000060208083019190915260008052600a90527f13da86008ba1c6922daee3e07db95305ef49ebced9f5467a0b8613fcc6b343e354611af9918590612b88565b60008052600a6020527f13da86008ba1c6922daee3e07db95305ef49ebced9f5467a0b8613fcc6b343e355610e9682612c1f565b6000908152600b602052604090205460ff1690565b600080611b5c6006546005546126ca90919063ffffffff16565b905060008111611b9d5760405162461bcd60e51b8152600401808060200182810382526025815260200180612cbb6025913960400191505060405180910390fd5b6060611ba76112c8565b90506000805b8251811015611bf257611be8838281518110611bc557fe5b602002602001015160a01c6001600160601b0316836126ca90919063ffffffff16565b9150600101611bad565b50600254600554604080516340c10f1960e01b81523060048201526024810192909252516001600160a01b03909216916340c10f19916044808201926020929091908290030181600087803b158015611c4a57600080fd5b505af1158015611c5e573d6000803e3d6000fd5b505050506040513d6020811015611c7457600080fd5b50600090505b8251811015611d615760025483516001600160a01b039091169063a9059cbb90859084908110611ca657fe5b602002602001015160001c611ce785610e15888781518110611cc457fe5b602002602001015160a01c6001600160601b03168a61272b90919063ffffffff16565b6040518363ffffffff1660e01b815260040180836001600160a01b0316815260200182815260200192505050602060405180830381600087803b158015611d2d57600080fd5b505af1158015611d41573d6000803e3d6000fd5b505050506040513d6020811015611d5757600080fd5b5050600101611c7a565b506040805184815290517f86dd6ae252e62228b47b3c1a12762cbf634952b2d29319b04f4f72fb153bcbdd9181900360200190a1505060006005819055600655506001905090565b6001600160a01b039182166000908152600a60205260408082205492909316815291909120549091565b611ddb611f06565b6001600160a01b0316611dec61160a565b6001600160a01b031614611e35576040805162461bcd60e51b81526020600482018190526024820152600080516020612da3833981519152604482015290519081900360640190fd5b6001600160a01b038116611e7a5760405162461bcd60e51b8152600401808060200182810382526026815260200180612d146026913960400191505060405180910390fd5b600080546040516001600160a01b03808516939216917f8be0079c531659141344cd1fd0a4f28419497f9722a3daafe3b4186f6b6457e091a3600080546001600160a01b0319166001600160a01b0392909216919091179055565b60065481565b6001600160a01b039182166000908152600f6020908152604080832093909416825291909152205490565b3390565b60408051808201825260208082527f5f737761703a20666c6f617420616d6f756e7420696e73756666696369656e74818301526001600160a01b0385166000908152600a9091529190912054611f61918390612b88565b6001600160a01b038084166000908152600a60205260408082209390935590851681522054611f9090826126ca565b6001600160a01b038085166000818152600a602090815260409182902094909455805191825291851692810192909252818101839052517fea368a40e9570069bb8e6511d668293ad2e1f03b0d982431fd223de9f3b70ca69181900360600190a1505050565b8061200057612169565b6002546001600160a01b038381169116141561207b5760065461202390826126ca565b600655604080516001600160a01b0384168152602081018390526000818301819052606082015290517fe3debe835f6848edc082b32a1d729781d3bfcd7e14422d80bcaa6794d3816b2f9181900360800190a1612169565b6000612085610d40565b6001600160a01b0384166000908152600a60205260409020549091506120ab90836126ca565b6001600160a01b0384166000908152600a60205260408120919091556004546120e590606490610e1590869062010000900460ff1661272b565b9050600061210283610e156009548561272b90919063ffffffff16565b60055490915061211290826126ca565b600555604080516001600160a01b0387168152602081018690528082018390526060810185905290517fe3debe835f6848edc082b32a1d729781d3bfcd7e14422d80bcaa6794d3816b2f9181900360800190a15050505b5050565b60005b8151811015612169576001600b600084848151811061218b57fe5b6020908102919091018101518252810191909152604001600020805460ff1916911515919091179055600101612170565b6001546001600160a01b03848116911614156121e3576008546121e090829061272b565b90505b826001600160a01b031663a9059cbb83836040518363ffffffff1660e01b815260040180836001600160a01b0316815260200182815260200192505050602060405180830381600087803b15801561223a57600080fd5b505af115801561224e573d6000803e3d6000fd5b505050506040513d602081101561226457600080fd5b505161226f57600080fd5b505050565b600061227f82611b2d565b156122cc576040805162461bcd60e51b8152602060048201526018602482015277151a19481d1e1a59081a5cc8185b1c9958591e481d5cd95960421b604482015290519081900360640190fd5b8361231e576040805162461bcd60e51b815260206004820152601c60248201527f546865207472616e73616374696f6e206973206e6f742076616c696400000000604482015290519081900360640190fd5b60008061232a86612848565b915091506000612338610d40565b90506000612355600954610e15848661272b90919063ffffffff16565b60045490915060009061237b9061271090610e15908590600160201b900460ff1661272b565b90508761238883836127eb565b10156123c55760405162461bcd60e51b8152600401808060200182810382526034815260200180612ce06034913960400191505060405180910390fd5b60006123d5896115bb85856127eb565b60015490915060009081906123f49082906001600160a01b0316611da9565b90925090506001600160a01b038d1661246a5761241185856127eb565b821015612465576040805162461bcd60e51b815260206004820152601f60248201527f54686520666c6f61742062616c616e636520696e73756666696369656e742e00604482015290519081900360640190fd5b6124de565b6001546001600160a01b038e8116911614156124de5761248a85856127eb565b8110156124de576040805162461bcd60e51b815260206004820152601f60248201527f54686520666c6f61742062616c616e636520696e73756666696369656e742e00604482015290519081900360640190fd5b6124e88d85611ff6565b6124f28d86612c3a565b6124fb8a612c1f565b6001546001600160a01b038e81169116141561251c5761251c8d89856121bc565b60025460408051630852cd8d60e31b8152600481018a905290516001600160a01b03909216916342966c68916024808201926020929091908290030181600087803b15801561256a57600080fd5b505af115801561257e573d6000803e3d6000fd5b505050506040513d602081101561259457600080fd5b505161259f57600080fd5b604080516001600160a01b038a16815260208101899052808201879052606081018890526080810185905260a081018c905290517fa9da34e5e4a956b744307ae7611795634e8365951073bf049d76b64b2ae7a0589181900360c00190a15060019c9b505050505050505050505050565b6001546000908190819061262e9082906001600160a01b0316611da9565b909250905060006126536003610e156002610e0f8961264d89896126ca565b906126ca565b6001549091506001600160a01b03878116911614801561267c57508061267983876126ca565b10155b1561268d5760019350505050610e9a565b6001600160a01b0386161580156126ad5750806126aa84876126ca565b10155b156126be5760029350505050610e9a565b50600095945050505050565b600082820183811015612724576040805162461bcd60e51b815260206004820152601b60248201527f536166654d6174683a206164646974696f6e206f766572666c6f770000000000604482015290519081900360640190fd5b9392505050565b60008261273a57506000610e9a565b8282028284828161274757fe5b04146127245760405162461bcd60e51b8152600401808060200182810382526021815260200180612d616021913960400191505060405180910390fd5b60008082116127da576040805162461bcd60e51b815260206004820152601a60248201527f536166654d6174683a206469766973696f6e206279207a65726f000000000000604482015290519081900360640190fd5b8183816127e357fe5b049392505050565b600082821115612842576040805162461bcd60e51b815260206004820152601e60248201527f536166654d6174683a207375627472616374696f6e206f766572666c6f770000604482015290519081900360640190fd5b50900390565b9060a082901c90565b6000811561287a57506001600160a01b0383166000908152600c60205260408120556001612724565b6001600160a01b0384166000908152600d602052604090205460ff166128fe57600e805460018082019092557fbb7b4a454dc3493923482f07822329ed19e8244eff582cc204f8554c3620c3fd0180546001600160a01b0319166001600160a01b0387169081179091556000908152600d60205260409020805460ff191690911790555b6001600160a01b0384166000908152600c6020526040902054612937576001600160a01b0384166000908152600c602052604090208390555b5060019392505050565b600061294c82611b2d565b15612999576040805162461bcd60e51b8152602060048201526018602482015277151a19481d1e1a59081a5cc8185b1c9958591e481d5cd95960421b604482015290519081900360640190fd5b836129eb576040805162461bcd60e51b815260206004820152601c60248201527f546865207472616e73616374696f6e206973206e6f742076616c696400000000604482015290519081900360640190fd5b6000806129f786612848565b915091506000612a05610d40565b90506000612a2282610e156009548661272b90919063ffffffff16565b90506000612a308a85610ca4565b9050600081612a40576000612a50565b612a50612710610e15858561272b565b9050888015612a5e57508015155b15612a6857600080fd5b6002546001600160a01b03166340c10f1987612a8486856127eb565b6040518363ffffffff1660e01b815260040180836001600160a01b0316815260200182815260200192505050602060405180830381600087803b158015612aca57600080fd5b505af1158015612ade573d6000803e3d6000fd5b505050506040513d6020811015612af457600080fd5b5050600554612b0390826126ca565b600555612b108b86612c97565b612b1988612c1f565b604080516001600160a01b038816815260208101879052808201859052606081018690526080810183905260a081018a905290517fdfaf4e23f7030adafec91a682e05bf9fb30c721f9cec3d8bcfae0459c5362db19181900360c00190a15060019a9950505050505050505050565b60008184841115612c175760405162461bcd60e51b81526004018080602001828103825283818151815260200191508051906020019080838360005b83811015612bdc578181015183820152602001612bc4565b50505050905090810190601f168015612c095780820380516001836020036101000a031916815260200191505b509250505060405180910390fd5b505050900390565b6000908152600b60205260409020805460ff19166001179055565b612c7781604051806060016040528060278152602001612dc3602791396001600160a01b0385166000908152600a60205260409020549190612b88565b6001600160a01b039092166000908152600a602052604090209190915550565b6001600160a01b0382166000908152600a6020526040902054612c7790826126ca56fe746f74616c5265776172644c5073466f724e6f6465206973206e6f7420706f7369746976654572726f723a20616d6f756e744f66466c6f61742e737562287769746864726177616c4665657329203c205f6d696e65724665654f776e61626c653a206e6577206f776e657220697320746865207a65726f20616464726573735f7473735468726573686f6c642073686f756c64206265203e3d207473735468726573686f6c64536166654d6174683a206d756c7469706c69636174696f6e206f766572666c6f7753746f726564206e6f64652073697a652073686f756c64206265203c3d203130304f776e61626c653a2063616c6c6572206973206e6f7420746865206f776e65725f72656d6f7665466c6f61743a20666c6f617420616d6f756e7420696e73756666696369656e745f72657761726441646472657373416e64416d6f756e747320616e64205f697352656d6f766564206c656e677468206973206e6f74206d617463685f64657374546f6b656e2073686f756c64206e6f742062652061646472657373283029a2646970667358221220deaa78e44ba7018aa6e6407324988b25f7b945b45106a3d515a02f8ee258e59f64736f6c63430007030033",
  "linkReferences": {},
  "deployedLinkReferences": {}
}