{
  "_format": "hh-sol-artifact-1",
  "contractName": "SwapContract",
  "sourceName": "contracts/SwapContract.sol",
  "abi": [
    {
      "inputs": [
        {
          "internalType": "address",
          "name": "_lpToken",
          "type": "address"
        },
        {
          "internalType": "address",
          "name": "_btct",
          "type": "address"
        },
        {
          "internalType": "address",
          "name": "_wETH",
          "type": "address"
        },
        {
          "internalType": "uint256",
          "name": "_existingBTCFloat",
          "type": "uint256"
        }
      ],
      "stateMutability": "nonpayable",
      "type": "constructor"
    },
    {
      "anonymous": false,
      "inputs": [
        {
          "indexed": false,
          "internalType": "address",
          "name": "token",
          "type": "address"
        },
        {
          "indexed": false,
          "internalType": "uint256",
          "name": "amountOfLP",
          "type": "uint256"
        },
        {
          "indexed": false,
          "internalType": "uint256",
          "name": "amountOfFloat",
          "type": "uint256"
        },
        {
          "indexed": false,
          "internalType": "uint256",
          "name": "currentPriceLP",
          "type": "uint256"
        },
        {
          "indexed": false,
          "internalType": "uint256",
          "name": "withdrawal",
          "type": "uint256"
        },
        {
          "indexed": false,
          "internalType": "bytes32",
          "name": "txid",
          "type": "bytes32"
        }
      ],
      "name": "BurnLPTokensForFloat",
      "type": "event"
    },
    {
      "anonymous": false,
      "inputs": [
        {
          "indexed": false,
          "internalType": "address",
          "name": "token",
          "type": "address"
        },
        {
          "indexed": false,
          "internalType": "address",
          "name": "user",
          "type": "address"
        },
        {
          "indexed": false,
          "internalType": "uint256",
          "name": "amount",
          "type": "uint256"
        },
        {
          "indexed": false,
          "internalType": "uint256",
          "name": "balance",
          "type": "uint256"
        },
        {
          "indexed": false,
          "internalType": "uint256",
          "name": "Timestamp",
          "type": "uint256"
        }
      ],
      "name": "Deposit",
      "type": "event"
    },
    {
      "anonymous": false,
      "inputs": [
        {
          "indexed": false,
          "internalType": "uint256",
          "name": "rewardLPTsForNodes",
          "type": "uint256"
        }
      ],
      "name": "DistributeNodeRewards",
      "type": "event"
    },
    {
      "anonymous": false,
      "inputs": [
        {
          "indexed": false,
          "internalType": "address",
          "name": "to",
          "type": "address"
        },
        {
          "indexed": false,
          "internalType": "uint256",
          "name": "amountOfFloat",
          "type": "uint256"
        },
        {
          "indexed": false,
          "internalType": "uint256",
          "name": "amountOfLP",
          "type": "uint256"
        },
        {
          "indexed": false,
          "internalType": "uint256",
          "name": "currentPriceLP",
          "type": "uint256"
        },
        {
          "indexed": false,
          "internalType": "uint256",
          "name": "depositFees",
          "type": "uint256"
        },
        {
          "indexed": false,
          "internalType": "bytes32",
          "name": "txid",
          "type": "bytes32"
        }
      ],
      "name": "IssueLPTokensForFloat",
      "type": "event"
    },
    {
      "anonymous": false,
      "inputs": [
        {
          "indexed": true,
          "internalType": "address",
          "name": "previousOwner",
          "type": "address"
        },
        {
          "indexed": true,
          "internalType": "address",
          "name": "newOwner",
          "type": "address"
        }
      ],
      "name": "OwnershipTransferred",
      "type": "event"
    },
    {
      "anonymous": false,
      "inputs": [
        {
          "indexed": false,
          "internalType": "address",
          "name": "feesToken",
          "type": "address"
        },
        {
          "indexed": false,
          "internalType": "uint256",
          "name": "rewards",
          "type": "uint256"
        },
        {
          "indexed": false,
          "internalType": "uint256",
          "name": "amountLPTokensForNode",
          "type": "uint256"
        },
        {
          "indexed": false,
          "internalType": "uint256",
          "name": "currentPriceLP",
          "type": "uint256"
        }
      ],
      "name": "RewardsCollection",
      "type": "event"
    },
    {
      "anonymous": false,
      "inputs": [
        {
          "indexed": false,
          "internalType": "uint256",
          "name": "ExpirationTime",
          "type": "uint256"
        },
        {
          "indexed": false,
          "internalType": "uint256",
          "name": "Timestamp",
          "type": "uint256"
        }
      ],
      "name": "SetExpirationTime",
      "type": "event"
    },
    {
      "anonymous": false,
      "inputs": [
        {
          "indexed": false,
          "internalType": "address",
          "name": "from",
          "type": "address"
        },
        {
          "indexed": false,
          "internalType": "address",
          "name": "to",
          "type": "address"
        },
        {
          "indexed": false,
          "internalType": "uint256",
          "name": "amount",
          "type": "uint256"
        }
      ],
      "name": "Swap",
      "type": "event"
    },
    {
      "anonymous": false,
      "inputs": [
        {
          "indexed": false,
          "internalType": "bytes32",
          "name": "SwapID",
          "type": "bytes32"
        },
        {
          "indexed": false,
          "internalType": "string",
          "name": "DestAddr",
          "type": "string"
        },
        {
          "indexed": false,
          "internalType": "address",
          "name": "RefundAddr",
          "type": "address"
        },
        {
          "indexed": false,
          "internalType": "uint256",
          "name": "AmountWBTC",
          "type": "uint256"
        },
        {
          "indexed": false,
          "internalType": "uint256",
          "name": "Timestamp",
          "type": "uint256"
        }
      ],
      "name": "SwapTokensToBTC",
      "type": "event"
    },
    {
      "anonymous": false,
      "inputs": [
        {
          "indexed": false,
          "internalType": "address",
          "name": "token",
          "type": "address"
        },
        {
          "indexed": false,
          "internalType": "address",
          "name": "user",
          "type": "address"
        },
        {
          "indexed": false,
          "internalType": "uint256",
          "name": "amount",
          "type": "uint256"
        },
        {
          "indexed": false,
          "internalType": "uint256",
          "name": "balance",
          "type": "uint256"
        },
        {
          "indexed": false,
          "internalType": "uint256",
          "name": "Timestamp",
          "type": "uint256"
        }
      ],
      "name": "Withdraw",
      "type": "event"
    },
    {
      "stateMutability": "nonpayable",
      "type": "fallback"
    },
    {
      "inputs": [],
      "name": "BTCT_ADDR",
      "outputs": [
        {
          "internalType": "address",
          "name": "",
          "type": "address"
        }
      ],
      "stateMutability": "view",
      "type": "function"
    },
    {
      "inputs": [
        {
          "internalType": "address",
          "name": "_token",
          "type": "address"
        },
        {
          "internalType": "address",
          "name": "_user",
          "type": "address"
        }
      ],
      "name": "balanceOf",
      "outputs": [
        {
          "internalType": "uint256",
          "name": "",
          "type": "uint256"
        }
      ],
      "stateMutability": "view",
      "type": "function"
    },
    {
      "inputs": [
        {
          "internalType": "address",
          "name": "_newOwner",
          "type": "address"
        },
        {
          "internalType": "bytes32[]",
          "name": "_rewardAddressAndAmounts",
          "type": "bytes32[]"
        },
        {
          "internalType": "bool[]",
          "name": "_isRemoved",
          "type": "bool[]"
        },
        {
          "internalType": "uint8",
          "name": "_churnedInCount",
          "type": "uint8"
        },
        {
          "internalType": "uint8",
          "name": "_tssThreshold",
          "type": "uint8"
        },
        {
          "internalType": "uint8",
          "name": "_nodeRewardsRatio",
          "type": "uint8"
        },
        {
          "internalType": "uint8",
          "name": "_withdrawalFeeBPS",
          "type": "uint8"
        },
        {
          "internalType": "uint256",
          "name": "_expirationTime",
          "type": "uint256"
        }
      ],
      "name": "churn",
      "outputs": [
        {
          "internalType": "bool",
          "name": "",
          "type": "bool"
        }
      ],
      "stateMutability": "nonpayable",
      "type": "function"
    },
    {
      "inputs": [],
      "name": "churnedInCount",
      "outputs": [
        {
          "internalType": "uint8",
          "name": "",
          "type": "uint8"
        }
      ],
      "stateMutability": "view",
      "type": "function"
    },
    {
      "inputs": [
        {
          "internalType": "address",
          "name": "_destToken",
          "type": "address"
        },
        {
          "internalType": "uint256",
          "name": "_incomingAmount",
          "type": "uint256"
        },
        {
          "internalType": "uint256",
          "name": "_minerFee",
          "type": "uint256"
        },
        {
          "internalType": "uint256",
          "name": "_rewardsAmount",
          "type": "uint256"
        }
      ],
      "name": "collectSwapFeesForBTC",
      "outputs": [
        {
          "internalType": "bool",
          "name": "",
          "type": "bool"
        }
      ],
      "stateMutability": "nonpayable",
      "type": "function"
    },
    {
      "inputs": [],
      "name": "depositFeesBPS",
      "outputs": [
        {
          "internalType": "uint8",
          "name": "",
          "type": "uint8"
        }
      ],
      "stateMutability": "view",
      "type": "function"
    },
    {
      "inputs": [],
      "name": "distributeNodeRewards",
      "outputs": [
        {
          "internalType": "bool",
          "name": "",
          "type": "bool"
        }
      ],
      "stateMutability": "nonpayable",
      "type": "function"
    },
    {
      "inputs": [],
      "name": "expirationTime",
      "outputs": [
        {
          "internalType": "uint256",
          "name": "",
          "type": "uint256"
        }
      ],
      "stateMutability": "view",
      "type": "function"
    },
    {
      "inputs": [],
      "name": "feesLPTokensForNode",
      "outputs": [
        {
          "internalType": "uint256",
          "name": "",
          "type": "uint256"
        }
      ],
      "stateMutability": "view",
      "type": "function"
    },
    {
      "inputs": [],
      "name": "getActiveNodes",
      "outputs": [
        {
          "internalType": "bytes32[]",
          "name": "",
          "type": "bytes32[]"
        }
      ],
      "stateMutability": "view",
      "type": "function"
    },
    {
      "inputs": [],
      "name": "getCurrentPriceLP",
      "outputs": [
        {
          "internalType": "uint256",
          "name": "nowPrice",
          "type": "uint256"
        }
      ],
      "stateMutability": "view",
      "type": "function"
    },
    {
      "inputs": [
        {
          "internalType": "address",
          "name": "_token",
          "type": "address"
        },
        {
          "internalType": "uint256",
          "name": "_amountOfFloat",
          "type": "uint256"
        }
      ],
      "name": "getDepositFeeRate",
      "outputs": [
        {
          "internalType": "uint256",
          "name": "depositFeeRate",
          "type": "uint256"
        }
      ],
      "stateMutability": "view",
      "type": "function"
    },
    {
      "inputs": [
        {
          "internalType": "address",
          "name": "_tokenA",
          "type": "address"
        },
        {
          "internalType": "address",
          "name": "_tokenB",
          "type": "address"
        }
      ],
      "name": "getFloatReserve",
      "outputs": [
        {
          "internalType": "uint256",
          "name": "reserveA",
          "type": "uint256"
        },
        {
          "internalType": "uint256",
          "name": "reserveB",
          "type": "uint256"
        }
      ],
      "stateMutability": "view",
      "type": "function"
    },
    {
      "inputs": [],
      "name": "initialExchangeRate",
      "outputs": [
        {
          "internalType": "uint256",
          "name": "",
          "type": "uint256"
        }
      ],
      "stateMutability": "view",
      "type": "function"
    },
    {
      "inputs": [
        {
          "internalType": "bytes32",
          "name": "_txid",
          "type": "bytes32"
        }
      ],
      "name": "isTxUsed",
      "outputs": [
        {
          "internalType": "bool",
          "name": "",
          "type": "bool"
        }
      ],
      "stateMutability": "view",
      "type": "function"
    },
    {
      "inputs": [],
      "name": "lockedLPTokensForNode",
      "outputs": [
        {
          "internalType": "uint256",
          "name": "",
          "type": "uint256"
        }
      ],
      "stateMutability": "view",
      "type": "function"
    },
    {
      "inputs": [],
      "name": "lpToken",
      "outputs": [
        {
          "internalType": "address",
          "name": "",
          "type": "address"
        }
      ],
      "stateMutability": "view",
      "type": "function"
    },
    {
      "inputs": [
        {
          "internalType": "address",
          "name": "_destToken",
          "type": "address"
        },
        {
          "internalType": "bytes32[]",
          "name": "_addressesAndAmounts",
          "type": "bytes32[]"
        },
        {
          "internalType": "uint256",
          "name": "_totalSwapped",
          "type": "uint256"
        },
        {
          "internalType": "uint256",
          "name": "_rewardsAmount",
          "type": "uint256"
        },
        {
          "internalType": "bytes32[]",
          "name": "_redeemedFloatTxIds",
          "type": "bytes32[]"
        }
      ],
      "name": "multiTransferERC20TightlyPacked",
      "outputs": [
        {
          "internalType": "bool",
          "name": "",
          "type": "bool"
        }
      ],
      "stateMutability": "nonpayable",
      "type": "function"
    },
    {
      "inputs": [],
      "name": "nodeRewardsRatio",
      "outputs": [
        {
          "internalType": "uint8",
          "name": "",
          "type": "uint8"
        }
      ],
      "stateMutability": "view",
      "type": "function"
    },
    {
      "inputs": [],
      "name": "oldestActiveIndex",
      "outputs": [
        {
          "internalType": "uint256",
          "name": "",
          "type": "uint256"
        }
      ],
      "stateMutability": "view",
      "type": "function"
    },
    {
      "inputs": [],
      "name": "owner",
      "outputs": [
        {
          "internalType": "address",
          "name": "",
          "type": "address"
        }
      ],
      "stateMutability": "view",
      "type": "function"
    },
    {
      "inputs": [
        {
          "internalType": "address",
          "name": "_token",
          "type": "address"
        },
        {
          "internalType": "bytes32",
          "name": "_addressesAndAmountOfFloat",
          "type": "bytes32"
        },
        {
          "internalType": "bool",
          "name": "_zerofee",
          "type": "bool"
        },
        {
          "internalType": "bytes32",
          "name": "_txid",
          "type": "bytes32"
        }
      ],
      "name": "recordIncomingFloat",
      "outputs": [
        {
          "internalType": "bool",
          "name": "",
          "type": "bool"
        }
      ],
      "stateMutability": "nonpayable",
      "type": "function"
    },
    {
      "inputs": [
        {
          "internalType": "address",
          "name": "_token",
          "type": "address"
        },
        {
          "internalType": "bytes32",
          "name": "_addressesAndAmountOfLPtoken",
          "type": "bytes32"
        },
        {
          "internalType": "uint256",
          "name": "_minerFee",
          "type": "uint256"
        },
        {
          "internalType": "bytes32",
          "name": "_txid",
          "type": "bytes32"
        }
      ],
      "name": "recordOutcomingFloat",
      "outputs": [
        {
          "internalType": "bool",
          "name": "",
          "type": "bool"
        }
      ],
      "stateMutability": "nonpayable",
      "type": "function"
    },
    {
      "inputs": [
        {
          "internalType": "address",
          "name": "_to",
          "type": "address"
        },
        {
          "internalType": "uint256",
          "name": "_totalSwapped",
          "type": "uint256"
        },
        {
          "internalType": "uint256",
          "name": "_rewardsAmount",
          "type": "uint256"
        },
        {
          "internalType": "bytes32[]",
          "name": "_usedTxIds",
          "type": "bytes32[]"
        }
      ],
      "name": "recordSkyPoolsTX",
      "outputs": [
        {
          "internalType": "bool",
          "name": "",
          "type": "bool"
        }
      ],
      "stateMutability": "nonpayable",
      "type": "function"
    },
    {
      "inputs": [
        {
          "internalType": "uint256",
          "name": "_minerFee",
          "type": "uint256"
        },
        {
          "internalType": "bytes32",
          "name": "_txid",
          "type": "bytes32"
        }
      ],
      "name": "recordUTXOSweepMinerFee",
      "outputs": [
        {
          "internalType": "bool",
          "name": "",
          "type": "bool"
        }
      ],
      "stateMutability": "nonpayable",
      "type": "function"
    },
    {
      "inputs": [
        {
          "internalType": "address",
          "name": "_token",
          "type": "address"
        },
        {
          "internalType": "uint256",
          "name": "_amount",
          "type": "uint256"
        }
      ],
      "name": "redeemERC20Token",
      "outputs": [],
      "stateMutability": "nonpayable",
      "type": "function"
    },
    {
      "inputs": [
        {
          "internalType": "uint256",
          "name": "_amount",
          "type": "uint256"
        }
      ],
      "name": "redeemEther",
      "outputs": [],
      "stateMutability": "nonpayable",
      "type": "function"
    },
    {
      "inputs": [],
      "name": "renounceOwnership",
      "outputs": [],
      "stateMutability": "nonpayable",
      "type": "function"
    },
    {
      "inputs": [
        {
          "internalType": "address",
          "name": "_destToken",
          "type": "address"
        },
        {
          "internalType": "address",
          "name": "_to",
          "type": "address"
        },
        {
          "internalType": "uint256",
          "name": "_amount",
          "type": "uint256"
        },
        {
          "internalType": "uint256",
          "name": "_totalSwapped",
          "type": "uint256"
        },
        {
          "internalType": "uint256",
          "name": "_rewardsAmount",
          "type": "uint256"
        },
        {
          "internalType": "bytes32[]",
          "name": "_redeemedFloatTxIds",
          "type": "bytes32[]"
        }
      ],
      "name": "singleTransferERC20",
      "outputs": [
        {
          "internalType": "bool",
          "name": "",
          "type": "bool"
        }
      ],
      "stateMutability": "nonpayable",
      "type": "function"
    },
    {
      "inputs": [
        {
          "internalType": "uint256",
          "name": "_loopCount",
          "type": "uint256"
        }
      ],
      "name": "spCleanUpOldTXs",
      "outputs": [],
      "stateMutability": "nonpayable",
      "type": "function"
    },
    {
      "inputs": [
        {
          "internalType": "address",
          "name": "_token",
          "type": "address"
        },
        {
          "internalType": "uint256",
          "name": "_amount",
          "type": "uint256"
        }
      ],
      "name": "spDeposit",
      "outputs": [],
      "stateMutability": "payable",
      "type": "function"
    },
    {
      "inputs": [
        {
          "components": [
            {
              "internalType": "address",
              "name": "fromToken",
              "type": "address"
            },
            {
              "internalType": "address",
              "name": "toToken",
              "type": "address"
            },
            {
              "internalType": "uint256",
              "name": "fromAmount",
              "type": "uint256"
            },
            {
              "internalType": "uint256",
              "name": "toAmount",
              "type": "uint256"
            },
            {
              "internalType": "uint256",
              "name": "expectedAmount",
              "type": "uint256"
            },
            {
              "internalType": "address[]",
              "name": "callees",
              "type": "address[]"
            },
            {
              "internalType": "bytes",
              "name": "exchangeData",
              "type": "bytes"
            },
            {
              "internalType": "uint256[]",
              "name": "startIndexes",
              "type": "uint256[]"
            },
            {
              "internalType": "uint256[]",
              "name": "values",
              "type": "uint256[]"
            },
            {
              "internalType": "address payable",
              "name": "beneficiary",
              "type": "address"
            },
            {
              "internalType": "address payable",
              "name": "partner",
              "type": "address"
            },
            {
              "internalType": "uint256",
              "name": "feePercent",
              "type": "uint256"
            },
            {
              "internalType": "bytes",
              "name": "permit",
              "type": "bytes"
            },
            {
              "internalType": "uint256",
              "name": "deadline",
              "type": "uint256"
            },
            {
              "internalType": "bytes16",
              "name": "uuid",
              "type": "bytes16"
            }
          ],
          "internalType": "struct Utils.SimpleData",
          "name": "_data",
          "type": "tuple"
        }
      ],
      "name": "spFlow1SimpleSwap",
      "outputs": [],
      "stateMutability": "nonpayable",
      "type": "function"
    },
    {
      "inputs": [
        {
          "internalType": "bool",
          "name": "_fork",
          "type": "bool"
        },
        {
          "internalType": "address",
          "name": "_factory",
          "type": "address"
        },
        {
          "internalType": "bytes32",
          "name": "_initCode",
          "type": "bytes32"
        },
        {
          "internalType": "uint256",
          "name": "_amountIn",
          "type": "uint256"
        },
        {
          "internalType": "uint256",
          "name": "_amountOutMin",
          "type": "uint256"
        },
        {
          "internalType": "address[]",
          "name": "_path",
          "type": "address[]"
        }
      ],
      "name": "spFlow1Uniswap",
      "outputs": [
        {
          "internalType": "uint256",
          "name": "receivedAmount",
          "type": "uint256"
        }
      ],
      "stateMutability": "nonpayable",
      "type": "function"
    },
    {
      "inputs": [
        {
          "internalType": "string",
          "name": "_destinationAddressForBTC",
          "type": "string"
        },
        {
          "components": [
            {
              "internalType": "address",
              "name": "fromToken",
              "type": "address"
            },
            {
              "internalType": "address",
              "name": "toToken",
              "type": "address"
            },
            {
              "internalType": "uint256",
              "name": "fromAmount",
              "type": "uint256"
            },
            {
              "internalType": "uint256",
              "name": "toAmount",
              "type": "uint256"
            },
            {
              "internalType": "uint256",
              "name": "expectedAmount",
              "type": "uint256"
            },
            {
              "internalType": "address[]",
              "name": "callees",
              "type": "address[]"
            },
            {
              "internalType": "bytes",
              "name": "exchangeData",
              "type": "bytes"
            },
            {
              "internalType": "uint256[]",
              "name": "startIndexes",
              "type": "uint256[]"
            },
            {
              "internalType": "uint256[]",
              "name": "values",
              "type": "uint256[]"
            },
            {
              "internalType": "address payable",
              "name": "beneficiary",
              "type": "address"
            },
            {
              "internalType": "address payable",
              "name": "partner",
              "type": "address"
            },
            {
              "internalType": "uint256",
              "name": "feePercent",
              "type": "uint256"
            },
            {
              "internalType": "bytes",
              "name": "permit",
              "type": "bytes"
            },
            {
              "internalType": "uint256",
              "name": "deadline",
              "type": "uint256"
            },
            {
              "internalType": "bytes16",
              "name": "uuid",
              "type": "bytes16"
            }
          ],
          "internalType": "struct Utils.SimpleData",
          "name": "_data",
          "type": "tuple"
        }
      ],
      "name": "spFlow2SimpleSwap",
      "outputs": [
        {
          "internalType": "uint256",
          "name": "receivedAmount",
          "type": "uint256"
        }
      ],
      "stateMutability": "nonpayable",
      "type": "function"
    },
    {
      "inputs": [
        {
          "internalType": "string",
          "name": "_destinationAddressForBTC",
          "type": "string"
        },
        {
          "internalType": "bool",
          "name": "_fork",
          "type": "bool"
        },
        {
          "internalType": "address",
          "name": "_factory",
          "type": "address"
        },
        {
          "internalType": "bytes32",
          "name": "_initCode",
          "type": "bytes32"
        },
        {
          "internalType": "uint256",
          "name": "_amountIn",
          "type": "uint256"
        },
        {
          "internalType": "uint256",
          "name": "_amountOutMin",
          "type": "uint256"
        },
        {
          "internalType": "address[]",
          "name": "_path",
          "type": "address[]"
        }
      ],
      "name": "spFlow2Uniswap",
      "outputs": [
        {
          "internalType": "uint256",
          "name": "receivedAmount",
          "type": "uint256"
        }
      ],
      "stateMutability": "nonpayable",
      "type": "function"
    },
    {
      "inputs": [],
      "name": "spGetPendingSwaps",
      "outputs": [
        {
          "components": [
            {
              "internalType": "bytes32",
              "name": "SwapID",
              "type": "bytes32"
            },
            {
              "internalType": "string",
              "name": "DestAddr",
              "type": "string"
            },
            {
              "internalType": "address",
              "name": "RefundAddr",
              "type": "address"
            },
            {
              "internalType": "uint256",
              "name": "AmountWBTC",
              "type": "uint256"
            },
            {
              "internalType": "uint256",
              "name": "Timestamp",
              "type": "uint256"
            }
          ],
          "internalType": "struct SwapContract.spPendingTx[]",
          "name": "data",
          "type": "tuple[]"
        }
      ],
      "stateMutability": "view",
      "type": "function"
    },
    {
      "inputs": [
        {
          "internalType": "uint256",
          "name": "",
          "type": "uint256"
        }
      ],
      "name": "spPendingTXs",
      "outputs": [
        {
          "internalType": "bytes32",
          "name": "SwapID",
          "type": "bytes32"
        },
        {
          "internalType": "string",
          "name": "DestAddr",
          "type": "string"
        },
        {
          "internalType": "address",
          "name": "RefundAddr",
          "type": "address"
        },
        {
          "internalType": "uint256",
          "name": "AmountWBTC",
          "type": "uint256"
        },
        {
          "internalType": "uint256",
          "name": "Timestamp",
          "type": "uint256"
        }
      ],
      "stateMutability": "view",
      "type": "function"
    },
    {
      "inputs": [],
      "name": "swapCount",
      "outputs": [
        {
          "internalType": "uint256",
          "name": "",
          "type": "uint256"
        }
      ],
      "stateMutability": "view",
      "type": "function"
    },
    {
      "inputs": [
        {
          "internalType": "address",
          "name": "",
          "type": "address"
        },
        {
          "internalType": "address",
          "name": "",
          "type": "address"
        }
      ],
      "name": "tokens",
      "outputs": [
        {
          "internalType": "uint256",
          "name": "",
          "type": "uint256"
        }
      ],
      "stateMutability": "view",
      "type": "function"
    },
    {
      "inputs": [
        {
          "internalType": "address",
          "name": "newOwner",
          "type": "address"
        }
      ],
      "name": "transferOwnership",
      "outputs": [],
      "stateMutability": "nonpayable",
      "type": "function"
    },
    {
      "inputs": [],
      "name": "tssThreshold",
      "outputs": [
        {
          "internalType": "uint8",
          "name": "",
          "type": "uint8"
        }
      ],
      "stateMutability": "view",
      "type": "function"
    },
    {
      "inputs": [],
      "name": "wETH",
      "outputs": [
        {
          "internalType": "address",
          "name": "",
          "type": "address"
        }
      ],
      "stateMutability": "view",
      "type": "function"
    },
    {
      "inputs": [
        {
          "internalType": "address",
          "name": "",
          "type": "address"
        }
      ],
      "name": "whitelist",
      "outputs": [
        {
          "internalType": "bool",
          "name": "",
          "type": "bool"
        }
      ],
      "stateMutability": "view",
      "type": "function"
    },
    {
      "inputs": [],
      "name": "withdrawalFeeBPS",
      "outputs": [
        {
          "internalType": "uint8",
          "name": "",
          "type": "uint8"
        }
      ],
      "stateMutability": "view",
      "type": "function"
    },
    {
      "stateMutability": "payable",
      "type": "receive"
    }
  ],
  "bytecode": "0x6101206040523480156200001257600080fd5b506040516200667838038062006678833981016040819052620000359162000339565b6200004033620002cc565b600180556202a3006002556000600581905560049081556001600160a01b0380841661010052851660a08190526040805163313ce56760e01b81529051919263313ce567928282019260209290829003018186803b158015620000a257600080fd5b505afa158015620000b7573d6000803e3d6000fd5b505050506040513d601f19601f82011682018060405250810190620000dd91906200038b565b620000ea90600a620004cc565b60e0526001600160a01b03831660808190526007805464ffffff000019166414324200001790556040805163313ce56760e01b815290516008929163313ce567916004808301926020929190829003018186803b1580156200014b57600080fd5b505afa15801562000160573d6000803e3d6000fd5b505050506040513d601f19601f820116820180604052508101906200018691906200038b565b620001929190620004dd565b6200019f90600a620004cc565b60c08181525050836001600160a01b031663313ce5676040518163ffffffff1660e01b815260040160206040518083038186803b158015620001e057600080fd5b505afa158015620001f5573d6000803e3d6000fd5b505050506040513d601f19601f820116820180604052508101906200021b91906200038b565b6200022890600a620004cc565b600a556000600881905560098190556001600160a01b039384168152600660209081526040808320805460ff199081166001908117909255979096168352822080548716861790559080527f54cdd369e4e8a8515e52ca72ec816c2101831ad1f18bf44102ed171459c9b4f8805490951690931790935550600b90527fdf7de25b7f1fd6d0b5205f0e18f1f35bd7b8d84cce336588d184533ce43a6f765562000503565b600080546001600160a01b038381166001600160a01b0319831681178455604051919092169283917f8be0079c531659141344cd1fd0a4f28419497f9722a3daafe3b4186f6b6457e09190a35050565b80516001600160a01b03811681146200033457600080fd5b919050565b600080600080608085870312156200035057600080fd5b6200035b856200031c565b93506200036b602086016200031c565b92506200037b604086016200031c565b6060959095015193969295505050565b6000602082840312156200039e57600080fd5b815160ff81168114620003b057600080fd5b9392505050565b634e487b7160e01b600052601160045260246000fd5b600181815b808511156200040e578160001904821115620003f257620003f2620003b7565b808516156200040057918102915b93841c9390800290620003d2565b509250929050565b6000826200042757506001620004c6565b816200043657506000620004c6565b81600181146200044f57600281146200045a576200047a565b6001915050620004c6565b60ff8411156200046e576200046e620003b7565b50506001821b620004c6565b5060208310610133831016604e8410600b84101617156200049f575081810a620004c6565b620004ab8383620003cd565b8060001904821115620004c257620004c2620003b7565b0290505b92915050565b6000620003b060ff84168362000416565b600060ff821660ff841680821015620004fa57620004fa620003b7565b90039392505050565b60805160a05160c05160e05161010051615fc4620006b46000396000818161027a0152818161083e015281816120ba0152818161211601528181612183015281816121ca0152818161226e01528181612e0301528181612e7d0152612ec6015260008181611551015281816138e401528181613e0c015261446801526000613a1b01526000818161058a01528181610a0101528181610a3c0152818161149d015281816124210152818161245c01528181613421015281816134b4015281816137d00152818161409001526144dc01526000818161034e015281816109ad015281816109df01528181610b5601528181610ba7015281816111ce01528181611213015281816113d2015281816114710152818161182b01528181611ff701528181612033015281816123cd015281816123ff015281816125c5015281816125f401528181612644015281816126d70152818161273501528181612c000152818161302b015281816130e2015281816139dd01528181613ef001528181613f87015281816140370152818161419b015281816141e80152818161478101528181614b490152614b8e0152615fc46000f3fe60806040526004361061026a5760003560e01c80636d019f3511610144578063c810a539116100b6578063e9e9bf6a1161007a578063e9e9bf6a146107e2578063ec482729146107f7578063f24286211461082c578063f2fde38b14610860578063f7824bc714610880578063f7888aec14610896576102a9565b8063c810a53914610749578063ca0707e714610769578063d38c7bb11461077c578063da284dcc1461079c578063e6ca2084146107b2576102a9565b80638da5cb5b116101085780638da5cb5b146106795780639b19251a14610697578063ad289e76146106c7578063b345a358146106e7578063b4014fe814610707578063b6268e5d14610727576102a9565b80636d019f35146105ee578063715018a6146106045780637c747cf9146106195780638006cc3e146106395780638535490f14610659576102a9565b80632d55282d116101dd5780634db75485116101a15780634db7548514610500578063508493bc14610520578063511834c3146105585780635fcbd2851461057857806363f289d9146105ac5780636b51e919146105cc576102a9565b80632d55282d1461047e5780632eff0d9e146104945780633b6fa127146104aa57806342419255146104ca57806345137e27146104eb576102a9565b8063130b7a631161022f578063130b7a63146103a75780631ab7e937146103d55780631bb069301461040657806320199e991461041c57806321959d3c1461043e5780632586c5621461045e576102a9565b806289356f146102bb5780630b68134d146102ec5780630d63aca71461030c5780630f9094861461033c57806312d1441e14610388576102a9565b366102a957336001600160a01b037f000000000000000000000000000000000000000000000000000000000000000016146102a7576102a7614f46565b005b3480156102b557600080fd5b50600080fd5b3480156102c757600080fd5b506007546102d59060ff1681565b60405160ff90911681526020015b60405180910390f35b3480156102f857600080fd5b506007546102d59062010000900460ff1681565b34801561031857600080fd5b5061032c610327366004615055565b6108dc565b60405190151581526020016102e3565b34801561034857600080fd5b506103707f000000000000000000000000000000000000000000000000000000000000000081565b6040516001600160a01b0390911681526020016102e3565b34801561039457600080fd5b506007546102d590610100900460ff1681565b3480156103b357600080fd5b506103c76103c236600461512b565b610a88565b6040519081526020016102e3565b3480156103e157600080fd5b506103f56103f03660046151b0565b610e97565b6040516102e3959493929190615221565b34801561041257600080fd5b506103c760055481565b34801561042857600080fd5b50610431610f5a565b6040516102e39190615260565b34801561044a57600080fd5b506102a76104593660046151b0565b61115b565b34801561046a57600080fd5b5061032c6104793660046152fe565b6112b4565b34801561048a57600080fd5b506103c760085481565b3480156104a057600080fd5b506103c760045481565b3480156104b657600080fd5b506103c76104c5366004615339565b6113b5565b3480156104d657600080fd5b506007546102d5906301000000900460ff1681565b3480156104f757600080fd5b506103c7611465565b34801561050c57600080fd5b506102a761051b366004615339565b611597565b34801561052c57600080fd5b506103c761053b366004615365565b601060209081526000928352604080842090915290825290205481565b34801561056457600080fd5b506102a76105733660046153b7565b6116f6565b34801561058457600080fd5b506103707f000000000000000000000000000000000000000000000000000000000000000081565b3480156105b857600080fd5b5061032c6105c73660046153eb565b611990565b3480156105d857600080fd5b506105e1611a30565b6040516102e39190615433565b3480156105fa57600080fd5b506103c7600a5481565b34801561061057600080fd5b506102a7611bbb565b34801561062557600080fd5b5061032c610634366004615488565b611bf1565b34801561064557600080fd5b5061032c6106543660046152fe565b611f73565b34801561066557600080fd5b506102a76106743660046151b0565b612088565b34801561068557600080fd5b506000546001600160a01b0316610370565b3480156106a357600080fd5b5061032c6106b23660046155a9565b60066020526000908152604090205460ff1681565b3480156106d357600080fd5b5061032c6106e23660046155c6565b612305565b3480156106f357600080fd5b5061032c61070236600461564f565b6124f9565b34801561071357600080fd5b506103c76107223660046156f2565b6126a3565b34801561073357600080fd5b506007546102d590640100000000900460ff1681565b34801561075557600080fd5b5061032c61076436600461575a565b612aa2565b6102a7610777366004615339565b612ba7565b34801561078857600080fd5b506103c761079736600461577c565b612f5d565b3480156107a857600080fd5b506103c760025481565b3480156107be57600080fd5b5061032c6107cd3660046151b0565b6000908152600c602052604090205460ff1690565b3480156107ee57600080fd5b5061032c613321565b34801561080357600080fd5b50610817610812366004615365565b613613565b604080519283526020830191909152016102e3565b34801561083857600080fd5b506103707f000000000000000000000000000000000000000000000000000000000000000081565b34801561086c57600080fd5b506102a761087b3660046155a9565b61363d565b34801561088c57600080fd5b506103c760095481565b3480156108a257600080fd5b506103c76108b1366004615365565b6001600160a01b03918216600090815260106020908152604080832093909416825291909152205490565b600080546001600160a01b031633146109105760405162461bcd60e51b815260040161090790615833565b60405180910390fd5b6001600160a01b03871660009081526006602052604090205460ff166109785760405162461bcd60e51b815260206004820152601d60248201527f5f64657374546f6b656e206973206e6f742077686974656c69737465640000006044820152606401610907565b6001600160a01b03871661099e5760405162461bcd60e51b815260040161090790615868565b600084156109d7576109d260007f0000000000000000000000000000000000000000000000000000000000000000876136d8565b6109ff565b846109ff57507f00000000000000000000000000000000000000000000000000000000000000005b7f00000000000000000000000000000000000000000000000000000000000000006001600160a01b0316886001600160a01b03161415610a5c57507f00000000000000000000000000000000000000000000000000000000000000005b610a6681856137c5565b610a6f83613973565b610a7a8888886139db565b506001979650505050505050565b600060026001541415610aad5760405162461bcd60e51b8152600401610907906158ab565b6002600155600083838281610ac457610ac46158e2565b9050602002016020810190610ad991906155a9565b905060008484610aea60018261590e565b818110610af957610af96158e2565b9050602002016020810190610b0e91906155a9565b6001600160a01b0383166000908152601060209081526040808320338452909152902054909150871115610b545760405162461bcd60e51b815260040161090790615925565b7f00000000000000000000000000000000000000000000000000000000000000006001600160a01b0316826001600160a01b031614610ba55760405162461bcd60e51b81526004016109079061595c565b7f00000000000000000000000000000000000000000000000000000000000000006001600160a01b0316816001600160a01b03161415610c275760405162461bcd60e51b815260206004820152601960248201527f456e64696e6720746f6b656e206d7573742062652077425443000000000000006044820152606401610907565b6001600160a01b03811673eeeeeeeeeeeeeeeeeeeeeeeeeeeeeeeeeeeeeeee1415610c8c5760405162461bcd60e51b81526020600482015260156024820152740aae6ca40e0c2e8d040ee84a886405a7c40ee8aa89605b1b6044820152606401610907565b6040516370a0823160e01b81523060048201526000906001600160a01b038316906370a082319060240160206040518083038186803b158015610cce57600080fd5b505afa158015610ce2573d6000803e3d6000fd5b505050506040513d601f19601f82011682018060405250810190610d069190615993565b6001600160a01b0384166000908152601060209081526040808320338452909152902054909150610d379089613ad2565b6001600160a01b03841660009081526010602090815260408083203384529091529020558a15610d7457610d6f8a8a8a8a8a8a613ae5565b610d80565b610d8088888888613c2b565b6040516370a0823160e01b8152306004820152610e049082906001600160a01b038516906370a08231906024015b60206040518083038186803b158015610dc657600080fd5b505afa158015610dda573d6000803e3d6000fd5b505050506040513d601f19601f82011682018060405250810190610dfe9190615993565b90613ad2565b935086841015610e265760405162461bcd60e51b8152600401610907906159ac565b83610e3057600080fd5b6001600160a01b0382166000908152601060209081526040808320338452909152902054610e5e9085613d6b565b6001600160a01b039092166000908152601060209081526040808320338452909152902091909155505060018055979650505050505050565b60036020526000908152604090208054600182018054919291610eb9906159e3565b80601f0160208091040260200160405190810160405280929190818152602001828054610ee5906159e3565b8015610f325780601f10610f0757610100808354040283529160200191610f32565b820191906000526020600020905b815481529060010190602001808311610f1557829003601f168201915b505050506002830154600384015460049094015492936001600160a01b039091169290915085565b60606000610f75600554600454613ad290919063ffffffff16565b6001600160401b03811115610f8c57610f8c614f81565b604051908082528060200260200182016040528015610ffb57816020015b610fe86040518060a00160405280600080191681526020016060815260200160006001600160a01b0316815260200160008152602001600081525090565b815260200190600190039081610faa5790505b50915060006110166001600554613d6b90919063ffffffff16565b90505b6004548111611156576003600061103b60055485613d6b90919063ffffffff16565b81526020019081526020016000206040518060a00160405290816000820154815260200160018201805461106e906159e3565b80601f016020809104026020016040519081016040528092919081815260200182805461109a906159e3565b80156110e75780601f106110bc576101008083540402835291602001916110e7565b820191906000526020600020905b8154815290600101906020018083116110ca57829003601f168201915b505050918352505060028201546001600160a01b0316602082015260038201546040820152600490910154606090910152835184908490811061112c5761112c6158e2565b6020908102919091010152611142826001613d6b565b91508061114e81615a18565b915050611019565b505090565b60055460009061116b9083613d6b565b9050600454811061117b57506004545b60055442905b8281116112ae5760025460008281526003602052604090206004015483916111a99190613d6b565b101561129c576000818152600360208181526040808420909201546001600160a01b037f00000000000000000000000000000000000000000000000000000000000000001684526010825282842030855290915291205461120991613ad2565b6001600160a01b037f0000000000000000000000000000000000000000000000000000000000000000166000908152601060209081526040808320308452825280832093909355838252600390529081208181559061126b6001830182614e73565b506002810180546001600160a01b0319169055600060038201819055600490910155611298816001613d6b565b6005555b806112a681615a18565b915050611181565b50505050565b600080546001600160a01b031633146112df5760405162461bcd60e51b815260040161090790615833565b60006112e9611465565b6001600160a01b03871660009081526006602052604090205490915060ff166113485760405162461bcd60e51b815260206004820152601160248201527017dd1bdad95b881a5cc81a5b9d985b1a59607a1b6044820152606401610907565b61135486868686613d77565b61135d57600080fd5b600191508061136a611465565b10156113ac5760405162461bcd60e51b8152602060048201526011602482015270496e76616c6964204c505420707269636560781b6044820152606401610907565b50949350505050565b6000806113c2848461418f565b90508060ff1660011415611428577f00000000000000000000000000000000000000000000000000000000000000006001600160a01b0316846001600160a01b03161461141057600061141e565b6007546301000000900460ff165b60ff16915061145e565b8060ff166002141561145e576001600160a01b0384161561144a576000611458565b6007546301000000900460ff165b60ff1691505b5092915050565b600080600061149560007f0000000000000000000000000000000000000000000000000000000000000000613613565b9150915060007f00000000000000000000000000000000000000000000000000000000000000006001600160a01b03166318160ddd6040518163ffffffff1660e01b815260040160206040518083038186803b1580156114f457600080fd5b505afa158015611508573d6000803e3d6000fd5b505050506040513d601f19601f8201168201806040525081019061152c9190615993565b9050801561158b5761158661154c60085483613d6b90919063ffffffff16565b6115807f000000000000000000000000000000000000000000000000000000000000000061157a8787613d6b565b9061427e565b9061428a565b61158f565b600a545b935050505090565b600260015414156115ba5760405162461bcd60e51b8152600401610907906158ab565b60026001556001600160a01b03821660009081526010602090815260408083203384529091529020548111156116295760405162461bcd60e51b8152602060048201526014602482015273496e73756666696369656e742042616c616e636560601b6044820152606401610907565b6001600160a01b03821660009081526010602090815260408083203384529091529020546116579082613ad2565b6001600160a01b03831660009081526010602090815260408083203380855292529091209190915561168b908390836139db565b6001600160a01b0382166000908152601060209081526040808320338085529252918290205491517febff2602b3f468259e1e99f613fed6691f3a6526effe6ef3e768ba7ae7a36c4f926116e6928692909186914290615a33565b60405180910390a1505060018055565b600260015414156117195760405162461bcd60e51b8152600401610907906158ab565b600260015533611731610140830161012084016155a9565b6001600160a01b03161461179e5760405162461bcd60e51b815260206004820152602e60248201527f596f752063616e206f6e6c79206578656375746520737761707320746f20796f60448201526d7572206f776e206164647265737360901b6064820152608401610907565b6040810135601060006117b460208501856155a9565b6001600160a01b0316815260208101919091526040016000908120906117e2610140850161012086016155a9565b6001600160a01b03166001600160a01b031681526020019081526020016000205410156118215760405162461bcd60e51b815260040161090790615925565b6001600160a01b037f00000000000000000000000000000000000000000000000000000000000000001661185860208301836155a9565b6001600160a01b0316146118c05760405162461bcd60e51b815260206004820152602960248201527f66726f6d546f6b656e206d7573742062652074686520726571756972656420426044820152682a21ba103a37b5b2b760b91b6064820152608401610907565b6118c981614296565b6119306040820135601060006118e260208601866155a9565b6001600160a01b031681526020810191909152604001600090812090611910610140860161012087016155a9565b6001600160a01b0316815260208101919091526040016000205490613ad2565b6010600061194160208501856155a9565b6001600160a01b03168152602081019190915260400160009081209061196f610140850161012086016155a9565b6001600160a01b031681526020810191909152604001600020555060018055565b600080546001600160a01b031633146119bb5760405162461bcd60e51b815260040161090790615833565b60006119c5611465565b6001600160a01b03871660009081526006602052604090205490915060ff16611a245760405162461bcd60e51b815260206004820152601160248201527017dd1bdad95b881a5cc81a5b9d985b1a59607a1b6044820152606401610907565b611354868686866143ce565b606060008060005b600f54811015611aa357600d6000600f8381548110611a5957611a596158e2565b60009182526020808320909101546001600160a01b0316835282019290925260400190205415611a9157611a8e836001613d6b565b92505b80611a9b81615a18565b915050611a38565b506000826001600160401b03811115611abe57611abe614f81565b604051908082528060200260200182016040528015611ae7578160200160208202803683370190505b50905060005b600f54811015611bb357600d6000600f8381548110611b0e57611b0e6158e2565b60009182526020808320909101546001600160a01b0316835282019290925260400190205415611ba157600d6000600f8381548110611b4f57611b4f6158e2565b60009182526020808320909101546001600160a01b031683528201929092526040019020548251839085908110611b8857611b886158e2565b6020908102919091010152611b9e836001613d6b565b92505b80611bab81615a18565b915050611aed565b509392505050565b6000546001600160a01b03163314611be55760405162461bcd60e51b815260040161090790615833565b611bef600061461e565b565b600080546001600160a01b03163314611c1c5760405162461bcd60e51b815260040161090790615833565b60075460ff610100909104811690861610801590611c3e575060ff8560ff1611155b611c9a5760405162461bcd60e51b815260206004820152602760248201527f5f7473735468726573686f6c642073686f756c64206265203e3d2074737354686044820152661c995cda1bdb1960ca1b6064820152608401610907565b611ca5600186615a64565b60ff168660ff161015611cef5760405162461bcd60e51b81526020600482015260126024820152716e2073686f756c64206265203e3d20742b3160701b6044820152606401610907565b60648460ff161115611d435760405162461bcd60e51b815260206004820152601e60248201527f5f6e6f646552657761726473526174696f206973206e6f742076616c696400006044820152606401610907565b60648360ff161115611d975760405162461bcd60e51b815260206004820152601c60248201527f5f7769746864726177616c46656542505320697320696e76616c6964000000006044820152606401610907565b8651885114611e0e5760405162461bcd60e51b815260206004820152603b60248201527f5f72657761726441646472657373416e64416d6f756e747320616e64205f697360448201527f52656d6f766564206c656e67746820646f206e6f74206d6174636800000000006064820152608401610907565b8115611e1d57611e1d8261466e565b611e268961363d565b60005b8851811015611eaf576000611e5a8a8381518110611e4957611e496158e2565b60200260200101519060a082901c90565b509050611e9a818b8481518110611e7357611e736158e2565b60200260200101518b8581518110611e8d57611e8d6158e2565b60200260200101516146ae565b50508080611ea790615a18565b915050611e29565b506000611eba611a30565b9050606481511115611f185760405162461bcd60e51b815260206004820152602160248201527f53746f726564206e6f64652073697a652073686f756c64206265203c3d2031306044820152600360fc1b6064820152608401610907565b50506007805460ff8481166401000000000264ff000000001987831662010000021664ff00ff0000198984166101000261ffff19909516938b1693909317939093179190911691909117179055600198975050505050505050565b600080546001600160a01b03163314611f9e5760405162461bcd60e51b815260040161090790615833565b6001600160a01b03851615611ff55760405162461bcd60e51b815260206004820152601f60248201527f5f64657374546f6b656e2073686f756c642062652061646472657373283029006044820152606401610907565b7f0000000000000000000000000000000000000000000000000000000000000000841561206957600061202c85610dfe8887613ad2565b90506120637f0000000000000000000000000000000000000000000000000000000000000000600061205e8489613d6b565b6136d8565b50612072565b84612072575060005b61207c81846137c5565b50600195945050505050565b600260015414156120ab5760405162461bcd60e51b8152600401610907906158ab565b60026001556001600160a01b037f000000000000000000000000000000000000000000000000000000000000000016600090815260106020908152604080832033845290915290205481111561210057600080fd5b604051632e1a7d4d60e01b8152600481018290527f00000000000000000000000000000000000000000000000000000000000000006001600160a01b031690632e1a7d4d90602401600060405180830381600087803b15801561216257600080fd5b505af1158015612176573d6000803e3d6000fd5b5050506001600160a01b037f00000000000000000000000000000000000000000000000000000000000000001660009081526010602090815260408083203384529091529020546121c8915082613ad2565b7f00000000000000000000000000000000000000000000000000000000000000006001600160a01b031660009081526010602090815260408083203380855292528083209390935591518190839085908381818185875af1925050503d8060008114612250576040519150601f19603f3d011682016040523d82523d6000602084013e612255565b606091505b50915091508161226457600080fd5b6001600160a01b037f0000000000000000000000000000000000000000000000000000000000000000166000908152601060209081526040808320338085529252918290205491517febff2602b3f468259e1e99f613fed6691f3a6526effe6ef3e768ba7ae7a36c4f926122f39273eeeeeeeeeeeeeeeeeeeeeeeeeeeeeeeeeeeeeeee92909189914290615a33565b60405180910390a15050600180555050565b600080546001600160a01b031633146123305760405162461bcd60e51b815260040161090790615833565b6001600160a01b03861660009081526006602052604090205460ff166123985760405162461bcd60e51b815260206004820152601d60248201527f5f64657374546f6b656e206973206e6f742077686974656c69737465640000006044820152606401610907565b6001600160a01b0386166123be5760405162461bcd60e51b815260040161090790615868565b600084156123f7576123f260007f0000000000000000000000000000000000000000000000000000000000000000876136d8565b61241f565b8461241f57507f00000000000000000000000000000000000000000000000000000000000000005b7f00000000000000000000000000000000000000000000000000000000000000006001600160a01b0316876001600160a01b0316141561247c57507f00000000000000000000000000000000000000000000000000000000000000005b61248681856137c5565b61248f83613973565b60005b8651811015610a7a576124e7888883815181106124b1576124b16158e2565b602002602001015160001c8984815181106124ce576124ce6158e2565b602002602001015160a01c6001600160601b03166139db565b806124f181615a18565b915050612492565b600080546001600160a01b031633146125245760405162461bcd60e51b815260040161090790615833565b836125715760405162461bcd60e51b815260206004820152601e60248201527f5f746f74616c53776170706564206d757374206265206e6f6e207a65726f00006044820152606401610907565b826125be5760405162461bcd60e51b815260206004820152601f60248201527f5f72657761726473416d6f756e74206d757374206265206e6f6e207a65726f006044820152606401610907565b6125ea60007f0000000000000000000000000000000000000000000000000000000000000000866136d8565b6001600160a01b037f0000000000000000000000000000000000000000000000000000000000000000811660009081526010602090815260408083209389168352929052205461263a9085613d6b565b6001600160a01b037f000000000000000000000000000000000000000000000000000000000000000081166000908152601060209081526040808320938a1683529290529081209190915561268f90846137c5565b61269882613973565b506001949350505050565b6000600260015414156126c85760405162461bcd60e51b8152600401610907906158ab565b60026001556001600160a01b037f00000000000000000000000000000000000000000000000000000000000000001661270460208401846155a9565b6001600160a01b0316141561272b5760405162461bcd60e51b81526004016109079061595c565b6001600160a01b037f00000000000000000000000000000000000000000000000000000000000000001661276560408401602085016155a9565b6001600160a01b0316146127b45760405162461bcd60e51b815260206004820152601660248201527526bab9ba1039bbb0b8103a3790212a21903a37b5b2b760511b6044820152606401610907565b306127c7610140840161012085016155a9565b6001600160a01b0316146128275760405162461bcd60e51b815260206004820152602160248201527f42656e6566696369617279206d757374206265207468697320636f6e747261636044820152601d60fa1b6064820152608401610907565b60408201356010600061283d60208601866155a9565b6001600160a01b031681526020808201929092526040908101600090812033825290925290205410156128825760405162461bcd60e51b815260040161090790615925565b600061289460408401602085016155a9565b6040516370a0823160e01b81523060048201526001600160a01b0391909116906370a082319060240160206040518083038186803b1580156128d557600080fd5b505afa1580156128e9573d6000803e3d6000fd5b505050506040513d601f19601f8201168201806040525081019061290d9190615993565b905061295560408401356010600061292860208801886155a9565b6001600160a01b031681526020808201929092526040908101600090812033825290925290205490613ad2565b6010600061296660208701876155a9565b6001600160a01b031681526020808201929092526040908101600090812033825290925290205561299683614296565b60006129da826129ac60408701602088016155a9565b6040516370a0823160e01b81523060048201526001600160a01b0391909116906370a0823190602401610dae565b90508360800135811015612a005760405162461bcd60e51b8152600401610907906159ac565b80612a0a57600080fd5b612a4f8160106000612a226040890160208a016155a9565b6001600160a01b031681526020808201929092526040908101600090812030825290925290205490613d6b565b60106000612a6360408801602089016155a9565b6001600160a01b0316815260208082019290925260409081016000908120308252909252902055612a9586868361477d565b6001805595945050505050565b600080546001600160a01b03163314612acd5760405162461bcd60e51b815260040161090790615833565b6000828152600c602052604090205460ff1615612afc5760405162461bcd60e51b815260040161090790615a89565b60408051808201909152601d81527f42544320666c6f617420616d6f756e7420696e73756666696369656e7400000060208083019190915260008052600b90527fdf7de25b7f1fd6d0b5205f0e18f1f35bd7b8d84cce336588d184533ce43a6f7654612b69918590614901565b60008052600b6020527fdf7de25b7f1fd6d0b5205f0e18f1f35bd7b8d84cce336588d184533ce43a6f7655612b9d8261492d565b5060015b92915050565b60026001541415612bca5760405162461bcd60e51b8152600401610907906158ab565b600260015534612df4576001600160a01b03821673eeeeeeeeeeeeeeeeeeeeeeeeeeeeeeeeeeeeeeee1415612bfe57600080fd5b7f00000000000000000000000000000000000000000000000000000000000000006001600160a01b0316826001600160a01b03161415612c3d57600080fd5b6040516370a0823160e01b81523060048201526000906001600160a01b038416906370a082319060240160206040518083038186803b158015612c7f57600080fd5b505afa158015612c93573d6000803e3d6000fd5b505050506040513d601f19601f82011682018060405250810190612cb79190615993565b9050612cce6001600160a01b038416333085614948565b6040516370a0823160e01b81523060048201526000906001600160a01b038516906370a082319060240160206040518083038186803b158015612d1057600080fd5b505afa158015612d24573d6000803e3d6000fd5b505050506040513d601f19601f82011682018060405250810190612d489190615993565b90506000612d568284613ad2565b6001600160a01b0386166000908152601060209081526040808320338452909152902054909150612d879082613d6b565b6001600160a01b03861660009081526010602090815260408083203380855292529182902083905590517f4e2ca0515ed1aef1395f66b5303bb5d6f1bf9d61a353fa53f73f8ac9973fa9f692612de4928992909186914290615a33565b60405180910390a1505050612f55565b60003411612e0157600080fd5b7f00000000000000000000000000000000000000000000000000000000000000006001600160a01b031663d0e30db0346040518263ffffffff1660e01b81526004016000604051808303818588803b158015612e5c57600080fd5b505af1158015612e70573d6000803e3d6000fd5b5050506001600160a01b037f0000000000000000000000000000000000000000000000000000000000000000166000908152601060209081526040808320338452909152902054612ec49250905034613d6b565b7f00000000000000000000000000000000000000000000000000000000000000006001600160a01b031660009081526010602090815260408083203380855292529182902083905590517f4e2ca0515ed1aef1395f66b5303bb5d6f1bf9d61a353fa53f73f8ac9973fa9f6926116e69273eeeeeeeeeeeeeeeeeeeeeeeeeeeeeeeeeeeeeeee92909134914290615a33565b505060018055565b600060026001541415612f825760405162461bcd60e51b8152600401610907906158ab565b6002600155600083838281612f9957612f996158e2565b9050602002016020810190612fae91906155a9565b905060008484612fbf60018261590e565b818110612fce57612fce6158e2565b9050602002016020810190612fe391906155a9565b6001600160a01b03831660009081526010602090815260408083203384529091529020549091508711156130295760405162461bcd60e51b815260040161090790615925565b7f00000000000000000000000000000000000000000000000000000000000000006001600160a01b0316826001600160a01b0316141561307b5760405162461bcd60e51b81526004016109079061595c565b6001600160a01b03821673eeeeeeeeeeeeeeeeeeeeeeeeeeeeeeeeeeeeeeee14156130e05760405162461bcd60e51b815260206004820152601560248201527455736520706174682077455448202d3e207742544360581b6044820152606401610907565b7f00000000000000000000000000000000000000000000000000000000000000006001600160a01b0316816001600160a01b03161461315a5760405162461bcd60e51b815260206004820152601660248201527526bab9ba1039bbb0b8103a3790212a21903a37b5b2b760511b6044820152606401610907565b6040516370a0823160e01b81523060048201526000906001600160a01b038316906370a082319060240160206040518083038186803b15801561319c57600080fd5b505afa1580156131b0573d6000803e3d6000fd5b505050506040513d601f19601f820116820180604052508101906131d49190615993565b6001600160a01b03841660009081526010602090815260408083203384529091529020549091506132059089613ad2565b6001600160a01b03841660009081526010602090815260408083203384529091529020558a156132425761323d8a8a8a8a8a8a613ae5565b61324e565b61324e88888888613c2b565b6040516370a0823160e01b81523060048201526000906132839083906001600160a01b038616906370a0823190602401610dae565b9050878110156132a55760405162461bcd60e51b8152600401610907906159ac565b806132af57600080fd5b6001600160a01b03831660009081526010602090815260408083203084529091529020546132dd9082613d6b565b6001600160a01b038416600090815260106020908152604080832030845290915290205561330c8e8e8361477d565b600180559d9c50505050505050505050505050565b60008061333b600954600854613d6b90919063ffffffff16565b90506000811161339b5760405162461bcd60e51b815260206004820152602560248201527f746f74616c5265776172644c5073466f724e6f6465206973206e6f7420706f73604482015264697469766560d81b6064820152608401610907565b60006133a5611a30565b90506000805b8251811015613400576133ec8382815181106133c9576133c96158e2565b602002602001015160a01c6001600160601b031683613d6b90919063ffffffff16565b9150806133f881615a18565b9150506133ab565b506008546040516340c10f1960e01b815230600482015260248101919091527f00000000000000000000000000000000000000000000000000000000000000006001600160a01b0316906340c10f1990604401602060405180830381600087803b15801561346d57600080fd5b505af1158015613481573d6000803e3d6000fd5b505050506040513d601f19601f820116820180604052508101906134a59190615ac0565b5060005b82518110156135cb577f00000000000000000000000000000000000000000000000000000000000000006001600160a01b031663a9059cbb8483815181106134f3576134f36158e2565b602002602001015160001c61353a85611580888781518110613517576135176158e2565b602002602001015160a01c6001600160601b03168a61427e90919063ffffffff16565b6040516001600160e01b031960e085901b1681526001600160a01b0390921660048301526024820152604401602060405180830381600087803b15801561358057600080fd5b505af1158015613594573d6000803e3d6000fd5b505050506040513d601f19601f820116820180604052508101906135b89190615ac0565b50806135c381615a18565b9150506134a9565b506040518381527f86dd6ae252e62228b47b3c1a12762cbf634952b2d29319b04f4f72fb153bcbdd9060200160405180910390a1505060006008819055600955506001919050565b6001600160a01b039182166000908152600b60205260408082205492909316815291909120549091565b6000546001600160a01b031633146136675760405162461bcd60e51b815260040161090790615833565b6001600160a01b0381166136cc5760405162461bcd60e51b815260206004820152602660248201527f4f776e61626c653a206e6577206f776e657220697320746865207a65726f206160448201526564647265737360d01b6064820152608401610907565b6136d58161461e565b50565b60408051808201825260208082527f5f737761703a20666c6f617420616d6f756e7420696e73756666696369656e74818301526001600160a01b0385166000908152600b909152919091205461372f918390614901565b6001600160a01b038084166000908152600b6020526040808220939093559085168152205461375e9082613d6b565b6001600160a01b038481166000818152600b60209081526040918290209490945580519182529185169281019290925281018290527fea368a40e9570069bb8e6511d668293ad2e1f03b0d982431fd223de9f3b70ca69060600160405180910390a1505050565b806137ce575050565b7f00000000000000000000000000000000000000000000000000000000000000006001600160a01b0316826001600160a01b0316141561386c576009546138159082613d6b565b600955604080516001600160a01b0384168152602081018390526000818301819052606082015290517fe3debe835f6848edc082b32a1d729781d3bfcd7e14422d80bcaa6794d3816b2f9181900360800190a15050565b6000613876611465565b6001600160a01b0384166000908152600b602052604090205490915061389c9083613d6b565b6001600160a01b0384166000908152600b60205260408120919091556007546138d69060649061158090869062010000900460ff1661427e565b9050600061390883611580847f000000000000000000000000000000000000000000000000000000000000000061427e565b6008549091506139189082613d6b565b600855604080516001600160a01b038716815260208101869052908101829052606081018490527fe3debe835f6848edc082b32a1d729781d3bfcd7e14422d80bcaa6794d3816b2f9060800160405180910390a15050505050565b60005b81518110156139d7576001600c6000848481518110613997576139976158e2565b6020026020010151815260200190815260200160002060006101000a81548160ff02191690831515021790555080806139cf90615a18565b915050613976565b5050565b7f00000000000000000000000000000000000000000000000000000000000000006001600160a01b0316836001600160a01b03161415613a4257613a3f817f000000000000000000000000000000000000000000000000000000000000000061427e565b90505b60405163a9059cbb60e01b81526001600160a01b0383811660048301526024820183905284169063a9059cbb90604401602060405180830381600087803b158015613a8c57600080fd5b505af1158015613aa0573d6000803e3d6000fd5b505050506040513d601f19601f82011682018060405250810190613ac49190615ac0565b613acd57600080fd5b505050565b6000613ade828461590e565b9392505050565b600082826000818110613afa57613afa6158e2565b9050602002016020810190613b0f91906155a9565b9050600073def171fe48cf0115b1d80b88dc8eab59176fee576001600160a01b031663d2c4b5986040518163ffffffff1660e01b815260040160206040518083038186803b158015613b6057600080fd5b505afa158015613b74573d6000803e3d6000fd5b505050506040513d601f19601f82011682018060405250810190613b989190615add565b9050613bae6001600160a01b03831682886149b3565b604051633d59840d60e21b815273def171fe48cf0115b1d80b88dc8eab59176fee579063f566103490613bef908b908b908b908b908b908b90600401615b43565b600060405180830381600087803b158015613c0957600080fd5b505af1158015613c1d573d6000803e3d6000fd5b505050505050505050505050565b600082826000818110613c4057613c406158e2565b9050602002016020810190613c5591906155a9565b9050600073def171fe48cf0115b1d80b88dc8eab59176fee576001600160a01b031663d2c4b5986040518163ffffffff1660e01b815260040160206040518083038186803b158015613ca657600080fd5b505afa158015613cba573d6000803e3d6000fd5b505050506040513d601f19601f82011682018060405250810190613cde9190615add565b9050613cf46001600160a01b03831682886149b3565b604051632a42068d60e11b815273def171fe48cf0115b1d80b88dc8eab59176fee57906354840d1a90613d31908990899089908990600401615b83565b600060405180830381600087803b158015613d4b57600080fd5b505af1158015613d5f573d6000803e3d6000fd5b50505050505050505050565b6000613ade8284615bad565b6000818152600c602052604081205460ff1615613da65760405162461bcd60e51b815260040161090790615a89565b83613df35760405162461bcd60e51b815260206004820152601c60248201527f546865207472616e73616374696f6e206973206e6f742076616c6964000000006044820152606401610907565b8360a081901c6000613e03611465565b90506000613e357f0000000000000000000000000000000000000000000000000000000000000000611580858561427e565b600754909150600090613e5c9061271090611580908590640100000000900460ff1661427e565b905087613e698383613ad2565b1015613ed45760405162461bcd60e51b815260206004820152603460248201527f4572726f723a20616d6f756e744f66466c6f61742e737562287769746864726160448201527377616c4665657329203c205f6d696e657246656560601b6064820152608401610907565b6000613ee489610dfe8585613ad2565b9050600080613f1460007f0000000000000000000000000000000000000000000000000000000000000000613613565b90925090506001600160a01b038d16613f8557613f318585613ad2565b821015613f805760405162461bcd60e51b815260206004820152601f60248201527f54686520666c6f61742062616c616e636520696e73756666696369656e742e006044820152606401610907565b614018565b7f00000000000000000000000000000000000000000000000000000000000000006001600160a01b03168d6001600160a01b0316141561401857613fc98585613ad2565b8110156140185760405162461bcd60e51b815260206004820152601f60248201527f54686520666c6f61742062616c616e636520696e73756666696369656e742e006044820152606401610907565b6140228d856137c5565b61402c8d86614a74565b6140358a61492d565b7f00000000000000000000000000000000000000000000000000000000000000006001600160a01b03168d6001600160a01b0316141561407a5761407a8d89856139db565b604051630852cd8d60e31b8152600481018890527f00000000000000000000000000000000000000000000000000000000000000006001600160a01b0316906342966c6890602401602060405180830381600087803b1580156140dc57600080fd5b505af11580156140f0573d6000803e3d6000fd5b505050506040513d601f19601f820116820180604052508101906141149190615ac0565b61411d57600080fd5b604080516001600160a01b038a16815260208101899052908101869052606081018790526080810184905260a081018b90527fa9da34e5e4a956b744307ae7611795634e8365951073bf049d76b64b2ae7a0589060c00160405180910390a15060019c9b505050505050505050505050565b60008060006141bf60007f0000000000000000000000000000000000000000000000000000000000000000613613565b909250905060006141e46003611580600261157a896141de8989613d6b565b90613d6b565b90507f00000000000000000000000000000000000000000000000000000000000000006001600160a01b0316866001600160a01b031614801561423057508061422d8387613d6b565b10155b156142415760019350505050612ba1565b6001600160a01b03861615801561426157508061425e8487613d6b565b10155b156142725760029350505050612ba1565b50600095945050505050565b6000613ade8284615bc5565b6000613ade8284615be4565b600073def171fe48cf0115b1d80b88dc8eab59176fee576001600160a01b031663d2c4b5986040518163ffffffff1660e01b815260040160206040518083038186803b1580156142e557600080fd5b505afa1580156142f9573d6000803e3d6000fd5b505050506040513d601f19601f8201168201806040525081019061431d9190615add565b905061434581604084013561433560208601866155a9565b6001600160a01b031691906149b3565b6040516354e3f31b60e01b815273def171fe48cf0115b1d80b88dc8eab59176fee57906354e3f31b9061437c908590600401615d0a565b602060405180830381600087803b15801561439657600080fd5b505af11580156143aa573d6000803e3d6000fd5b505050506040513d601f19601f82011682018060405250810190613acd9190615993565b6000818152600c602052604081205460ff16156143fd5760405162461bcd60e51b815260040161090790615a89565b8361444a5760405162461bcd60e51b815260206004820152601c60248201527f546865207472616e73616374696f6e206973206e6f742076616c6964000000006044820152606401610907565b8360a081901c600061445a611465565b9050600061448c82611580857f000000000000000000000000000000000000000000000000000000000000000061427e565b9050600061449a8a856113b5565b90506000816144aa5760006144ba565b6144ba612710611580858561427e565b90508880156144c857508015155b156144d257600080fd5b6001600160a01b037f0000000000000000000000000000000000000000000000000000000000000000166340c10f198761450c8685613ad2565b6040516001600160e01b031960e085901b1681526001600160a01b0390921660048301526024820152604401602060405180830381600087803b15801561455257600080fd5b505af1158015614566573d6000803e3d6000fd5b505050506040513d601f19601f8201168201806040525081019061458a9190615ac0565b506008546145989082613d6b565b6008556145a58b86614ad1565b6145ae8861492d565b604080516001600160a01b038816815260208101879052908101849052606081018590526080810182905260a081018990527fdfaf4e23f7030adafec91a682e05bf9fb30c721f9cec3d8bcfae0459c5362db19060c00160405180910390a15060019a9950505050505050505050565b600080546001600160a01b038381166001600160a01b0319831681178455604051919092169283917f8be0079c531659141344cd1fd0a4f28419497f9722a3daafe3b4186f6b6457e09190a35050565b6002819055604080518281524260208201527fa1cc12e33e9907b789fd3c10ea0afd9d3e563e2db44d84c7269534f1046d1ca1910160405180910390a150565b600081156146d757506001600160a01b0383166000908152600d60205260408120556001613ade565b6001600160a01b0384166000908152600e602052604090205460ff1661475b57600f805460018082019092557f8d1108e10bcb7c27dddfc02ed9d693a074039d026cf4ea4240b40f7d581ac8020180546001600160a01b0319166001600160a01b0387169081179091556000908152600e60205260409020805460ff191690911790555b50506001600160a01b03919091166000908152600d6020526040902055600190565b60007f0000000000000000000000000000000000000000000000000000000000000000600454858585426040516020016147bc96959493929190615ec0565b6040516020818303038152906040528051906020012090506040518060a0016040528082815260200185858080601f01602080910402602001604051908101604052809392919081815260200183838082843760009201829052509385525050336020808501919091526040808501889052426060909501949094526004548352600381529290912083518155838301518051919361486393506001850192910190614ead565b5060408201516002820180546001600160a01b0319166001600160a01b03909216919091179055606082015160038201556080909101516004909101556148a8614af4565b6004546148b6906001613d6b565b6004556040517faaa4c278970337923c885845b00985ecf5082317e2f9abf72a27b4d35255d672906148f390839087908790339088904290615ef7565b60405180910390a150505050565b600081848411156149255760405162461bcd60e51b81526004016109079190615f38565b505050900390565b6000908152600c60205260409020805460ff19166001179055565b6040516001600160a01b03808516602483015283166044820152606481018290526112ae9085906323b872dd60e01b906084015b60408051601f198184030181529190526020810180516001600160e01b03166001600160e01b031990931692909217909152614c29565b604051636eb1769f60e11b81523060048201526001600160a01b038381166024830152600091839186169063dd62ed3e9060440160206040518083038186803b1580156149ff57600080fd5b505afa158015614a13573d6000803e3d6000fd5b505050506040513d601f19601f82011682018060405250810190614a379190615993565b614a419190615bad565b6040516001600160a01b0385166024820152604481018290529091506112ae90859063095ea7b360e01b9060640161497c565b614ab181604051806060016040528060278152602001615f68602791396001600160a01b0385166000908152600b60205260409020549190614901565b6001600160a01b039092166000908152600b602052604090209190915550565b6001600160a01b0382166000908152600b6020526040902054614ab19082613d6b565b60055442905b60045481116139d7576002546000828152600360205260409020600401548391614b249190613d6b565b1015614c17576000818152600360208181526040808420909201546001600160a01b037f000000000000000000000000000000000000000000000000000000000000000016845260108252828420308552909152912054614b8491613ad2565b6001600160a01b037f00000000000000000000000000000000000000000000000000000000000000001660009081526010602090815260408083203084528252808320939093558382526003905290812081815590614be66001830182614e73565b506002810180546001600160a01b0319169055600060038201819055600490910155614c13816001613d6b565b6005555b80614c2181615a18565b915050614afa565b6000614c7e826040518060400160405280602081526020017f5361666545524332303a206c6f772d6c6576656c2063616c6c206661696c6564815250856001600160a01b0316614cfb9092919063ffffffff16565b805190915015613acd5780806020019051810190614c9c9190615ac0565b613acd5760405162461bcd60e51b815260206004820152602a60248201527f5361666545524332303a204552433230206f7065726174696f6e20646964206e6044820152691bdd081cdd58d8d9595960b21b6064820152608401610907565b6060614d0a8484600085614d12565b949350505050565b606082471015614d735760405162461bcd60e51b815260206004820152602660248201527f416464726573733a20696e73756666696369656e742062616c616e636520666f6044820152651c8818d85b1b60d21b6064820152608401610907565b843b614dc15760405162461bcd60e51b815260206004820152601d60248201527f416464726573733a2063616c6c20746f206e6f6e2d636f6e74726163740000006044820152606401610907565b600080866001600160a01b03168587604051614ddd9190615f4b565b60006040518083038185875af1925050503d8060008114614e1a576040519150601f19603f3d011682016040523d82523d6000602084013e614e1f565b606091505b5091509150614e2f828286614e3a565b979650505050505050565b60608315614e49575081613ade565b825115614e595782518084602001fd5b8160405162461bcd60e51b81526004016109079190615f38565b508054614e7f906159e3565b6000825580601f10614e8f575050565b601f0160209004906000526020600020908101906136d59190614f31565b828054614eb9906159e3565b90600052602060002090601f016020900481019282614edb5760008555614f21565b82601f10614ef457805160ff1916838001178555614f21565b82800160010185558215614f21579182015b82811115614f21578251825591602001919060010190614f06565b50614f2d929150614f31565b5090565b5b80821115614f2d5760008155600101614f32565b634e487b7160e01b600052600160045260246000fd5b6001600160a01b03811681146136d557600080fd5b8035614f7c81614f5c565b919050565b634e487b7160e01b600052604160045260246000fd5b604051601f8201601f191681016001600160401b0381118282101715614fbf57614fbf614f81565b604052919050565b60006001600160401b03821115614fe057614fe0614f81565b5060051b60200190565b600082601f830112614ffb57600080fd5b8135602061501061500b83614fc7565b614f97565b82815260059290921b8401810191818101908684111561502f57600080fd5b8286015b8481101561504a5780358352918301918301615033565b509695505050505050565b60008060008060008060c0878903121561506e57600080fd5b863561507981614f5c565b9550602087013561508981614f5c565b945060408701359350606087013592506080870135915060a08701356001600160401b038111156150b957600080fd5b6150c589828a01614fea565b9150509295509295509295565b80151581146136d557600080fd5b60008083601f8401126150f257600080fd5b5081356001600160401b0381111561510957600080fd5b6020830191508360208260051b850101111561512457600080fd5b9250929050565b600080600080600080600060c0888a03121561514657600080fd5b8735615151816150d2565b9650602088013561516181614f5c565b955060408801359450606088013593506080880135925060a08801356001600160401b0381111561519157600080fd5b61519d8a828b016150e0565b989b979a50959850939692959293505050565b6000602082840312156151c257600080fd5b5035919050565b60005b838110156151e45781810151838201526020016151cc565b838111156112ae5750506000910152565b6000815180845261520d8160208601602086016151c9565b601f01601f19169290920160200192915050565b85815260a06020820152600061523a60a08301876151f5565b6001600160a01b0395909516604083015250606081019290925260809091015292915050565b60006020808301818452808551808352604092508286019150828160051b87010184880160005b838110156152f057603f19898403018552815160a08151855288820151818a8701526152b5828701826151f5565b838a01516001600160a01b0316878b015260608085015190880152608093840151939096019290925250509386019390860190600101615287565b509098975050505050505050565b6000806000806080858703121561531457600080fd5b843561531f81614f5c565b966020860135965060408601359560600135945092505050565b6000806040838503121561534c57600080fd5b823561535781614f5c565b946020939093013593505050565b6000806040838503121561537857600080fd5b823561538381614f5c565b9150602083013561539381614f5c565b809150509250929050565b60006101e082840312156153b157600080fd5b50919050565b6000602082840312156153c957600080fd5b81356001600160401b038111156153df57600080fd5b614d0a8482850161539e565b6000806000806080858703121561540157600080fd5b843561540c81614f5c565b9350602085013592506040850135615423816150d2565b9396929550929360600135925050565b6020808252825182820181905260009190848201906040850190845b8181101561546b5783518352928401929184019160010161544f565b50909695505050505050565b803560ff81168114614f7c57600080fd5b600080600080600080600080610100898b0312156154a557600080fd5b88356154b081614f5c565b97506020898101356001600160401b03808211156154cd57600080fd5b6154d98d838e01614fea565b995060408c01359150808211156154ef57600080fd5b508a01601f81018c1361550157600080fd5b803561550f61500b82614fc7565b81815260059190911b8201830190838101908e83111561552e57600080fd5b928401925b82841015615555578335615546816150d2565b82529284019290840190615533565b809a50505050505061556960608a01615477565b945061557760808a01615477565b935061558560a08a01615477565b925061559360c08a01615477565b915060e089013590509295985092959890939650565b6000602082840312156155bb57600080fd5b8135613ade81614f5c565b600080600080600060a086880312156155de57600080fd5b85356155e981614f5c565b945060208601356001600160401b038082111561560557600080fd5b61561189838a01614fea565b95506040880135945060608801359350608088013591508082111561563557600080fd5b5061564288828901614fea565b9150509295509295909350565b6000806000806080858703121561566557600080fd5b843561567081614f5c565b9350602085013592506040850135915060608501356001600160401b0381111561569957600080fd5b6156a587828801614fea565b91505092959194509250565b60008083601f8401126156c357600080fd5b5081356001600160401b038111156156da57600080fd5b60208301915083602082850101111561512457600080fd5b60008060006040848603121561570757600080fd5b83356001600160401b038082111561571e57600080fd5b61572a878388016156b1565b9095509350602086013591508082111561574357600080fd5b506157508682870161539e565b9150509250925092565b6000806040838503121561576d57600080fd5b50508035926020909101359150565b600080600080600080600080600060e08a8c03121561579a57600080fd5b89356001600160401b03808211156157b157600080fd5b6157bd8d838e016156b1565b909b50995060208c013591506157d2826150d2565b90975060408b0135906157e482614f5c565b90965060608b0135955060808b0135945060a08b0135935060c08b0135908082111561580f57600080fd5b5061581c8c828d016150e0565b915080935050809150509295985092959850929598565b6020808252818101527f4f776e61626c653a2063616c6c6572206973206e6f7420746865206f776e6572604082015260600190565b60208082526023908201527f5f64657374546f6b656e2073686f756c64206e6f74206265206164647265737360408201526228302960e81b606082015260800190565b6020808252601f908201527f5265656e7472616e637947756172643a207265656e7472616e742063616c6c00604082015260600190565b634e487b7160e01b600052603260045260246000fd5b634e487b7160e01b600052601160045260246000fd5b600082821015615920576159206158f8565b500390565b60208082526019908201527f42616c616e6365206973206e6f742073756666696369656e7400000000000000604082015260600190565b60208082526018908201527f4d75737420737761702066726f6d2042544320746f6b656e0000000000000000604082015260600190565b6000602082840312156159a557600080fd5b5051919050565b6020808252601c908201527f526563656976656420616d6f756e7420696e73756666696369656e7400000000604082015260600190565b600181811c908216806159f757607f821691505b602082108114156153b157634e487b7160e01b600052602260045260246000fd5b6000600019821415615a2c57615a2c6158f8565b5060010190565b6001600160a01b03958616815293909416602084015260408301919091526060820152608081019190915260a00190565b600060ff821660ff84168060ff03821115615a8157615a816158f8565b019392505050565b60208082526018908201527f546865207478696420697320616c726561647920757365640000000000000000604082015260600190565b600060208284031215615ad257600080fd5b8151613ade816150d2565b600060208284031215615aef57600080fd5b8151613ade81614f5c565b8183526000602080850194508260005b85811015615b38578135615b1d81614f5c565b6001600160a01b031687529582019590820190600101615b0a565b509495945050505050565b60018060a01b038716815285602082015284604082015283606082015260a060808201526000615b7760a083018486615afa565b98975050505050505050565b848152836020820152606060408201526000615ba3606083018486615afa565b9695505050505050565b60008219821115615bc057615bc06158f8565b500190565b6000816000190483118215151615615bdf57615bdf6158f8565b500290565b600082615c0157634e487b7160e01b600052601260045260246000fd5b500490565b6000808335601e19843603018112615c1d57600080fd5b83016020810192503590506001600160401b03811115615c3c57600080fd5b8060051b360383131561512457600080fd5b6000808335601e19843603018112615c6557600080fd5b83016020810192503590506001600160401b03811115615c8457600080fd5b80360383131561512457600080fd5b81835281816020850137506000828201602090810191909152601f909101601f19169091010190565b81835260006001600160fb1b03831115615cd557600080fd5b8260051b8083602087013760009401602001938452509192915050565b80356001600160801b031981168114614f7c57600080fd5b60208152615d2b60208201615d1e84614f71565b6001600160a01b03169052565b6000615d3960208401614f71565b6001600160a01b0381166040840152506040830135606083015260608301356080830152608083013560a0830152615d7460a0840184615c06565b6101e08060c0860152615d8c61020086018385615afa565b9250615d9b60c0870187615c4e565b9250601f19808786030160e0880152615db5858584615c93565b9450615dc460e0890189615c06565b94509150610100818887030181890152615ddf868685615cbc565b9550615ded818a018a615c06565b9550925050610120818887030181890152615e09868685615cbc565b9550615e16818a01614f71565b9450506101409150615e32828801856001600160a01b03169052565b615e3d828901614f71565b93506101609150615e58828801856001600160a01b03169052565b61018093508188013584880152615e7184890189615c4e565b945091506101a0818887030181890152615e8c868685615c93565b95506101c094508089013585890152505050615ea9828701615cf2565b6001600160801b0319169401939093529392505050565b6001600160601b03198760601b16815285601482015283856034830137603493019283019190915260548201526074019392505050565b86815260a060208201526000615f1160a083018789615c93565b6001600160a01b039590951660408301525060608101929092526080909101529392505050565b602081526000613ade60208301846151f5565b60008251615f5d8184602087016151c9565b919091019291505056fe5f72656d6f7665466c6f61743a20666c6f617420616d6f756e7420696e73756666696369656e74a26469706673582212208b7fe577c8092d6b63bd1b90f33cff2cd8652cbc3f3e1ee9ab8578baa750e4bc64736f6c63430008090033",
  "linkReferences": {},
  "deployedLinkReferences": {}
}