{
  "_format": "hh-sol-artifact-1",
  "contractName": "SwapContract",
  "sourceName": "contracts/SwapContract.sol",
  "abi": [
    {
      "inputs": [
        {
          "internalType": "address",
          "name": "_lpToken",
          "type": "address"
        },
        {
          "internalType": "address",
          "name": "_btct",
          "type": "address"
        },
        {
          "internalType": "address",
          "name": "_wETH",
          "type": "address"
        },
        {
          "internalType": "address",
          "name": "_sbBTCPool",
          "type": "address"
        },
        {
          "internalType": "address",
          "name": "_params",
          "type": "address"
        },
        {
          "internalType": "address",
          "name": "_swapRewards",
          "type": "address"
        },
        {
          "internalType": "uint256",
          "name": "_existingBTCFloat",
          "type": "uint256"
        }
      ],
      "stateMutability": "nonpayable",
      "type": "constructor"
    },
    {
      "anonymous": false,
      "inputs": [
        {
          "indexed": false,
          "internalType": "address",
          "name": "token",
          "type": "address"
        },
        {
          "indexed": false,
          "internalType": "uint256",
          "name": "amountOfLP",
          "type": "uint256"
        },
        {
          "indexed": false,
          "internalType": "uint256",
          "name": "amountOfFloat",
          "type": "uint256"
        },
        {
          "indexed": false,
          "internalType": "uint256",
          "name": "currentPriceLP",
          "type": "uint256"
        },
        {
          "indexed": false,
          "internalType": "uint256",
          "name": "withdrawal",
          "type": "uint256"
        },
        {
          "indexed": false,
          "internalType": "bytes32",
          "name": "txid",
          "type": "bytes32"
        }
      ],
      "name": "BurnLPTokensForFloat",
      "type": "event"
    },
    {
      "anonymous": false,
      "inputs": [
        {
          "indexed": false,
          "internalType": "address",
          "name": "token",
          "type": "address"
        },
        {
          "indexed": false,
          "internalType": "address",
          "name": "user",
          "type": "address"
        },
        {
          "indexed": false,
          "internalType": "uint256",
          "name": "amount",
          "type": "uint256"
        },
        {
          "indexed": false,
          "internalType": "uint256",
          "name": "balance",
          "type": "uint256"
        },
        {
          "indexed": false,
          "internalType": "uint256",
          "name": "Timestamp",
          "type": "uint256"
        }
      ],
      "name": "Deposit",
      "type": "event"
    },
    {
      "anonymous": false,
      "inputs": [
        {
          "indexed": false,
          "internalType": "uint256",
          "name": "rewardLPTsForNodes",
          "type": "uint256"
        }
      ],
      "name": "DistributeNodeRewards",
      "type": "event"
    },
    {
      "anonymous": false,
      "inputs": [
        {
          "indexed": false,
          "internalType": "address",
          "name": "to",
          "type": "address"
        },
        {
          "indexed": false,
          "internalType": "uint256",
          "name": "amountOfFloat",
          "type": "uint256"
        },
        {
          "indexed": false,
          "internalType": "uint256",
          "name": "amountOfLP",
          "type": "uint256"
        },
        {
          "indexed": false,
          "internalType": "uint256",
          "name": "currentPriceLP",
          "type": "uint256"
        },
        {
          "indexed": false,
          "internalType": "uint256",
          "name": "depositFees",
          "type": "uint256"
        },
        {
          "indexed": false,
          "internalType": "bytes32",
          "name": "txid",
          "type": "bytes32"
        }
      ],
      "name": "IssueLPTokensForFloat",
      "type": "event"
    },
    {
      "anonymous": false,
      "inputs": [
        {
          "indexed": true,
          "internalType": "address",
          "name": "previousOwner",
          "type": "address"
        },
        {
          "indexed": true,
          "internalType": "address",
          "name": "newOwner",
          "type": "address"
        }
      ],
      "name": "OwnershipTransferred",
      "type": "event"
    },
    {
      "anonymous": false,
      "inputs": [
        {
          "indexed": false,
          "internalType": "address",
          "name": "feesToken",
          "type": "address"
        },
        {
          "indexed": false,
          "internalType": "uint256",
          "name": "rewards",
          "type": "uint256"
        },
        {
          "indexed": false,
          "internalType": "uint256",
          "name": "amountLPTokensForNode",
          "type": "uint256"
        },
        {
          "indexed": false,
          "internalType": "uint256",
          "name": "currentPriceLP",
          "type": "uint256"
        }
      ],
      "name": "RewardsCollection",
      "type": "event"
    },
    {
      "anonymous": false,
      "inputs": [
        {
          "indexed": false,
          "internalType": "address",
          "name": "from",
          "type": "address"
        },
        {
          "indexed": false,
          "internalType": "address",
          "name": "to",
          "type": "address"
        },
        {
          "indexed": false,
          "internalType": "uint256",
          "name": "amount",
          "type": "uint256"
        }
      ],
      "name": "Swap",
      "type": "event"
    },
    {
      "anonymous": false,
      "inputs": [
        {
          "indexed": false,
          "internalType": "bytes32",
          "name": "SwapID",
          "type": "bytes32"
        },
        {
          "indexed": false,
          "internalType": "string",
          "name": "DestAddr",
          "type": "string"
        },
        {
          "indexed": false,
          "internalType": "address",
          "name": "RefundAddr",
          "type": "address"
        },
        {
          "indexed": false,
          "internalType": "uint256",
          "name": "AmountWBTC",
          "type": "uint256"
        },
        {
          "indexed": false,
          "internalType": "uint256",
          "name": "Timestamp",
          "type": "uint256"
        }
      ],
      "name": "SwapTokensToBTC",
      "type": "event"
    },
    {
      "anonymous": false,
      "inputs": [
        {
          "indexed": false,
          "internalType": "address",
          "name": "token",
          "type": "address"
        },
        {
          "indexed": false,
          "internalType": "address",
          "name": "user",
          "type": "address"
        },
        {
          "indexed": false,
          "internalType": "uint256",
          "name": "amount",
          "type": "uint256"
        },
        {
          "indexed": false,
          "internalType": "uint256",
          "name": "balance",
          "type": "uint256"
        },
        {
          "indexed": false,
          "internalType": "uint256",
          "name": "Timestamp",
          "type": "uint256"
        }
      ],
      "name": "Withdraw",
      "type": "event"
    },
    {
      "stateMutability": "nonpayable",
      "type": "fallback"
    },
    {
      "inputs": [],
      "name": "BTCT_ADDR",
      "outputs": [
        {
          "internalType": "address",
          "name": "",
          "type": "address"
        }
      ],
      "stateMutability": "view",
      "type": "function"
    },
    {
      "inputs": [],
      "name": "activeNodeCount",
      "outputs": [
        {
          "internalType": "uint8",
          "name": "",
          "type": "uint8"
        }
      ],
      "stateMutability": "view",
      "type": "function"
    },
    {
      "inputs": [
        {
          "internalType": "address",
          "name": "_token",
          "type": "address"
        },
        {
          "internalType": "address",
          "name": "_user",
          "type": "address"
        }
      ],
      "name": "balanceOf",
      "outputs": [
        {
          "internalType": "uint256",
          "name": "",
          "type": "uint256"
        }
      ],
      "stateMutability": "view",
      "type": "function"
    },
    {
      "inputs": [
        {
          "internalType": "address",
          "name": "_newOwner",
          "type": "address"
        },
        {
          "internalType": "address[]",
          "name": "_nodes",
          "type": "address[]"
        },
        {
          "internalType": "bool[]",
          "name": "_isRemoved",
          "type": "bool[]"
        },
        {
          "internalType": "uint8",
          "name": "_churnedInCount",
          "type": "uint8"
        },
        {
          "internalType": "uint8",
          "name": "_tssThreshold",
          "type": "uint8"
        },
        {
          "internalType": "uint256",
          "name": "_totalStakedAmount",
          "type": "uint256"
        }
      ],
      "name": "churn",
      "outputs": [
        {
          "internalType": "bool",
          "name": "",
          "type": "bool"
        }
      ],
      "stateMutability": "nonpayable",
      "type": "function"
    },
    {
      "inputs": [],
      "name": "churnedInCount",
      "outputs": [
        {
          "internalType": "uint8",
          "name": "",
          "type": "uint8"
        }
      ],
      "stateMutability": "view",
      "type": "function"
    },
    {
      "inputs": [
        {
          "internalType": "uint256",
          "name": "_incomingAmount",
          "type": "uint256"
        },
        {
          "internalType": "uint256",
          "name": "_minerFee",
          "type": "uint256"
        },
        {
          "internalType": "uint256",
          "name": "_rewardsAmount",
          "type": "uint256"
        },
        {
          "internalType": "address[]",
          "name": "_spenders",
          "type": "address[]"
        },
        {
          "internalType": "uint256[]",
          "name": "_swapAmounts",
          "type": "uint256[]"
        },
        {
          "internalType": "bool",
          "name": "_isUpdatelimitBTCForSPFlow2",
          "type": "bool"
        }
      ],
      "name": "collectSwapFeesForBTC",
      "outputs": [
        {
          "internalType": "bool",
          "name": "",
          "type": "bool"
        }
      ],
      "stateMutability": "nonpayable",
      "type": "function"
    },
    {
      "inputs": [],
      "name": "getActiveNodes",
      "outputs": [
        {
          "internalType": "address[]",
          "name": "",
          "type": "address[]"
        }
      ],
      "stateMutability": "view",
      "type": "function"
    },
    {
      "inputs": [],
      "name": "getCurrentPriceLP",
      "outputs": [
        {
          "internalType": "uint256",
          "name": "nowPrice",
          "type": "uint256"
        }
      ],
      "stateMutability": "view",
      "type": "function"
    },
    {
      "inputs": [
        {
          "internalType": "address",
          "name": "_tokenA",
          "type": "address"
        },
        {
          "internalType": "address",
          "name": "_tokenB",
          "type": "address"
        }
      ],
      "name": "getFloatReserve",
      "outputs": [
        {
          "internalType": "uint256",
          "name": "reserveA",
          "type": "uint256"
        },
        {
          "internalType": "uint256",
          "name": "reserveB",
          "type": "uint256"
        }
      ],
      "stateMutability": "view",
      "type": "function"
    },
    {
      "inputs": [],
      "name": "initialExchangeRate",
      "outputs": [
        {
          "internalType": "uint256",
          "name": "",
          "type": "uint256"
        }
      ],
      "stateMutability": "view",
      "type": "function"
    },
    {
      "inputs": [],
      "name": "ip",
      "outputs": [
        {
          "internalType": "contract IParams",
          "name": "",
          "type": "address"
        }
      ],
      "stateMutability": "view",
      "type": "function"
    },
    {
      "inputs": [
        {
          "internalType": "address",
          "name": "_user",
          "type": "address"
        }
      ],
      "name": "isNodeStake",
      "outputs": [
        {
          "internalType": "bool",
          "name": "",
          "type": "bool"
        }
      ],
      "stateMutability": "view",
      "type": "function"
    },
    {
      "inputs": [
        {
          "internalType": "bytes32",
          "name": "_txid",
          "type": "bytes32"
        }
      ],
      "name": "isTxUsed",
      "outputs": [
        {
          "internalType": "bool",
          "name": "",
          "type": "bool"
        }
      ],
      "stateMutability": "view",
      "type": "function"
    },
    {
      "inputs": [],
      "name": "limitBTCForSPFlow2",
      "outputs": [
        {
          "internalType": "uint256",
          "name": "",
          "type": "uint256"
        }
      ],
      "stateMutability": "view",
      "type": "function"
    },
    {
      "inputs": [],
      "name": "lpToken",
      "outputs": [
        {
          "internalType": "address",
          "name": "",
          "type": "address"
        }
      ],
      "stateMutability": "view",
      "type": "function"
    },
    {
      "inputs": [
        {
          "internalType": "bytes32[]",
          "name": "_addressesAndAmounts",
          "type": "bytes32[]"
        },
        {
          "internalType": "uint256",
          "name": "_totalSwapped",
          "type": "uint256"
        },
        {
          "internalType": "uint256",
          "name": "_rewardsAmount",
          "type": "uint256"
        },
        {
          "internalType": "bytes32[]",
          "name": "_usedTxIds",
          "type": "bytes32[]"
        }
      ],
      "name": "multiRecordSkyPoolsTX",
      "outputs": [
        {
          "internalType": "bool",
          "name": "",
          "type": "bool"
        }
      ],
      "stateMutability": "nonpayable",
      "type": "function"
    },
    {
      "inputs": [],
      "name": "oldestActiveIndex",
      "outputs": [
        {
          "internalType": "uint256",
          "name": "",
          "type": "uint256"
        }
      ],
      "stateMutability": "view",
      "type": "function"
    },
    {
      "inputs": [],
      "name": "owner",
      "outputs": [
        {
          "internalType": "address",
          "name": "",
          "type": "address"
        }
      ],
      "stateMutability": "view",
      "type": "function"
    },
    {
      "inputs": [],
      "name": "params",
      "outputs": [
        {
          "internalType": "address",
          "name": "",
          "type": "address"
        }
      ],
      "stateMutability": "view",
      "type": "function"
    },
    {
      "inputs": [
        {
          "internalType": "address",
          "name": "_token",
          "type": "address"
        },
        {
          "internalType": "bytes32",
          "name": "_addressesAndAmountOfFloat",
          "type": "bytes32"
        },
        {
          "internalType": "bytes32",
          "name": "_txid",
          "type": "bytes32"
        }
      ],
      "name": "recordIncomingFloat",
      "outputs": [
        {
          "internalType": "bool",
          "name": "",
          "type": "bool"
        }
      ],
      "stateMutability": "nonpayable",
      "type": "function"
    },
    {
      "inputs": [
        {
          "internalType": "address",
          "name": "_token",
          "type": "address"
        },
        {
          "internalType": "bytes32",
          "name": "_addressesAndAmountOfLPtoken",
          "type": "bytes32"
        },
        {
          "internalType": "uint256",
          "name": "_minerFee",
          "type": "uint256"
        },
        {
          "internalType": "bytes32",
          "name": "_txid",
          "type": "bytes32"
        }
      ],
      "name": "recordOutcomingFloat",
      "outputs": [
        {
          "internalType": "bool",
          "name": "",
          "type": "bool"
        }
      ],
      "stateMutability": "nonpayable",
      "type": "function"
    },
    {
      "inputs": [
        {
          "internalType": "address",
          "name": "_to",
          "type": "address"
        },
        {
          "internalType": "uint256",
          "name": "_totalSwapped",
          "type": "uint256"
        },
        {
          "internalType": "uint256",
          "name": "_rewardsAmount",
          "type": "uint256"
        },
        {
          "internalType": "bytes32[]",
          "name": "_usedTxIds",
          "type": "bytes32[]"
        }
      ],
      "name": "recordSkyPoolsTX",
      "outputs": [
        {
          "internalType": "bool",
          "name": "",
          "type": "bool"
        }
      ],
      "stateMutability": "nonpayable",
      "type": "function"
    },
    {
      "inputs": [
        {
          "internalType": "uint256",
          "name": "_minerFee",
          "type": "uint256"
        },
        {
          "internalType": "bytes32",
          "name": "_txid",
          "type": "bytes32"
        }
      ],
      "name": "recordUTXOSweepMinerFee",
      "outputs": [
        {
          "internalType": "bool",
          "name": "",
          "type": "bool"
        }
      ],
      "stateMutability": "nonpayable",
      "type": "function"
    },
    {
      "inputs": [
        {
          "internalType": "address",
          "name": "_token",
          "type": "address"
        },
        {
          "internalType": "uint256",
          "name": "_amount",
          "type": "uint256"
        }
      ],
      "name": "redeemERC20Token",
      "outputs": [],
      "stateMutability": "nonpayable",
      "type": "function"
    },
    {
      "inputs": [
        {
          "internalType": "uint256",
          "name": "_amount",
          "type": "uint256"
        }
      ],
      "name": "redeemEther",
      "outputs": [],
      "stateMutability": "nonpayable",
      "type": "function"
    },
    {
      "inputs": [],
      "name": "renounceOwnership",
      "outputs": [],
      "stateMutability": "nonpayable",
      "type": "function"
    },
    {
      "inputs": [],
      "name": "sbBTCPool",
      "outputs": [
        {
          "internalType": "address",
          "name": "",
          "type": "address"
        }
      ],
      "stateMutability": "view",
      "type": "function"
    },
    {
      "inputs": [
        {
          "internalType": "address",
          "name": "_destToken",
          "type": "address"
        },
        {
          "internalType": "address",
          "name": "_to",
          "type": "address"
        },
        {
          "internalType": "uint256",
          "name": "_amount",
          "type": "uint256"
        },
        {
          "internalType": "uint256",
          "name": "_totalSwapped",
          "type": "uint256"
        },
        {
          "internalType": "uint256",
          "name": "_rewardsAmount",
          "type": "uint256"
        },
        {
          "internalType": "bytes32[]",
          "name": "_redeemedFloatTxIds",
          "type": "bytes32[]"
        }
      ],
      "name": "singleTransferERC20",
      "outputs": [
        {
          "internalType": "bool",
          "name": "",
          "type": "bool"
        }
      ],
      "stateMutability": "nonpayable",
      "type": "function"
    },
    {
      "inputs": [],
      "name": "spCleanUpOldTXs",
      "outputs": [],
      "stateMutability": "nonpayable",
      "type": "function"
    },
    {
      "inputs": [
        {
          "internalType": "address",
          "name": "_token",
          "type": "address"
        },
        {
          "internalType": "uint256",
          "name": "_amount",
          "type": "uint256"
        }
      ],
      "name": "spDeposit",
      "outputs": [],
      "stateMutability": "payable",
      "type": "function"
    },
    {
      "inputs": [
        {
          "components": [
            {
              "internalType": "address",
              "name": "fromToken",
              "type": "address"
            },
            {
              "internalType": "address",
              "name": "toToken",
              "type": "address"
            },
            {
              "internalType": "uint256",
              "name": "fromAmount",
              "type": "uint256"
            },
            {
              "internalType": "uint256",
              "name": "toAmount",
              "type": "uint256"
            },
            {
              "internalType": "uint256",
              "name": "expectedAmount",
              "type": "uint256"
            },
            {
              "internalType": "address[]",
              "name": "callees",
              "type": "address[]"
            },
            {
              "internalType": "bytes",
              "name": "exchangeData",
              "type": "bytes"
            },
            {
              "internalType": "uint256[]",
              "name": "startIndexes",
              "type": "uint256[]"
            },
            {
              "internalType": "uint256[]",
              "name": "values",
              "type": "uint256[]"
            },
            {
              "internalType": "address payable",
              "name": "beneficiary",
              "type": "address"
            },
            {
              "internalType": "address payable",
              "name": "partner",
              "type": "address"
            },
            {
              "internalType": "uint256",
              "name": "feePercent",
              "type": "uint256"
            },
            {
              "internalType": "bytes",
              "name": "permit",
              "type": "bytes"
            },
            {
              "internalType": "uint256",
              "name": "deadline",
              "type": "uint256"
            },
            {
              "internalType": "bytes16",
              "name": "uuid",
              "type": "bytes16"
            }
          ],
          "internalType": "struct Utils.SimpleData",
          "name": "_data",
          "type": "tuple"
        }
      ],
      "name": "spFlow1SimpleSwap",
      "outputs": [],
      "stateMutability": "nonpayable",
      "type": "function"
    },
    {
      "inputs": [
        {
          "internalType": "bool",
          "name": "_fork",
          "type": "bool"
        },
        {
          "internalType": "address",
          "name": "_factory",
          "type": "address"
        },
        {
          "internalType": "bytes32",
          "name": "_initCode",
          "type": "bytes32"
        },
        {
          "internalType": "uint256",
          "name": "_amountIn",
          "type": "uint256"
        },
        {
          "internalType": "uint256",
          "name": "_amountOutMin",
          "type": "uint256"
        },
        {
          "internalType": "address[]",
          "name": "_path",
          "type": "address[]"
        }
      ],
      "name": "spFlow1Uniswap",
      "outputs": [
        {
          "internalType": "uint256",
          "name": "receivedAmount",
          "type": "uint256"
        }
      ],
      "stateMutability": "nonpayable",
      "type": "function"
    },
    {
      "inputs": [
        {
          "internalType": "string",
          "name": "_destinationAddressForBTC",
          "type": "string"
        },
        {
          "components": [
            {
              "internalType": "address",
              "name": "fromToken",
              "type": "address"
            },
            {
              "internalType": "address",
              "name": "toToken",
              "type": "address"
            },
            {
              "internalType": "uint256",
              "name": "fromAmount",
              "type": "uint256"
            },
            {
              "internalType": "uint256",
              "name": "toAmount",
              "type": "uint256"
            },
            {
              "internalType": "uint256",
              "name": "expectedAmount",
              "type": "uint256"
            },
            {
              "internalType": "address[]",
              "name": "callees",
              "type": "address[]"
            },
            {
              "internalType": "bytes",
              "name": "exchangeData",
              "type": "bytes"
            },
            {
              "internalType": "uint256[]",
              "name": "startIndexes",
              "type": "uint256[]"
            },
            {
              "internalType": "uint256[]",
              "name": "values",
              "type": "uint256[]"
            },
            {
              "internalType": "address payable",
              "name": "beneficiary",
              "type": "address"
            },
            {
              "internalType": "address payable",
              "name": "partner",
              "type": "address"
            },
            {
              "internalType": "uint256",
              "name": "feePercent",
              "type": "uint256"
            },
            {
              "internalType": "bytes",
              "name": "permit",
              "type": "bytes"
            },
            {
              "internalType": "uint256",
              "name": "deadline",
              "type": "uint256"
            },
            {
              "internalType": "bytes16",
              "name": "uuid",
              "type": "bytes16"
            }
          ],
          "internalType": "struct Utils.SimpleData",
          "name": "_data",
          "type": "tuple"
        }
      ],
      "name": "spFlow2SimpleSwap",
      "outputs": [
        {
          "internalType": "uint256",
          "name": "receivedAmount",
          "type": "uint256"
        }
      ],
      "stateMutability": "nonpayable",
      "type": "function"
    },
    {
      "inputs": [
        {
          "internalType": "string",
          "name": "_destinationAddressForBTC",
          "type": "string"
        },
        {
          "internalType": "bool",
          "name": "_fork",
          "type": "bool"
        },
        {
          "internalType": "address",
          "name": "_factory",
          "type": "address"
        },
        {
          "internalType": "bytes32",
          "name": "_initCode",
          "type": "bytes32"
        },
        {
          "internalType": "uint256",
          "name": "_amountIn",
          "type": "uint256"
        },
        {
          "internalType": "uint256",
          "name": "_amountOutMin",
          "type": "uint256"
        },
        {
          "internalType": "address[]",
          "name": "_path",
          "type": "address[]"
        }
      ],
      "name": "spFlow2Uniswap",
      "outputs": [
        {
          "internalType": "uint256",
          "name": "receivedAmount",
          "type": "uint256"
        }
      ],
      "stateMutability": "nonpayable",
      "type": "function"
    },
    {
      "inputs": [],
      "name": "spGetPendingSwaps",
      "outputs": [
        {
          "components": [
            {
              "internalType": "bytes32",
              "name": "SwapID",
              "type": "bytes32"
            },
            {
              "internalType": "string",
              "name": "DestAddr",
              "type": "string"
            },
            {
              "internalType": "address",
              "name": "RefundAddr",
              "type": "address"
            },
            {
              "internalType": "uint256",
              "name": "AmountWBTC",
              "type": "uint256"
            },
            {
              "internalType": "uint256",
              "name": "Timestamp",
              "type": "uint256"
            }
          ],
          "internalType": "struct SwapContract.spPendingTx[]",
          "name": "data",
          "type": "tuple[]"
        }
      ],
      "stateMutability": "view",
      "type": "function"
    },
    {
      "inputs": [
        {
          "internalType": "uint256",
          "name": "",
          "type": "uint256"
        }
      ],
      "name": "spPendingTXs",
      "outputs": [
        {
          "internalType": "bytes32",
          "name": "SwapID",
          "type": "bytes32"
        },
        {
          "internalType": "string",
          "name": "DestAddr",
          "type": "string"
        },
        {
          "internalType": "address",
          "name": "RefundAddr",
          "type": "address"
        },
        {
          "internalType": "uint256",
          "name": "AmountWBTC",
          "type": "uint256"
        },
        {
          "internalType": "uint256",
          "name": "Timestamp",
          "type": "uint256"
        }
      ],
      "stateMutability": "view",
      "type": "function"
    },
    {
      "inputs": [],
      "name": "sw",
      "outputs": [
        {
          "internalType": "contract ISwapRewards",
          "name": "",
          "type": "address"
        }
      ],
      "stateMutability": "view",
      "type": "function"
    },
    {
      "inputs": [],
      "name": "swapCount",
      "outputs": [
        {
          "internalType": "uint256",
          "name": "",
          "type": "uint256"
        }
      ],
      "stateMutability": "view",
      "type": "function"
    },
    {
      "inputs": [],
      "name": "swapRewards",
      "outputs": [
        {
          "internalType": "address",
          "name": "",
          "type": "address"
        }
      ],
      "stateMutability": "view",
      "type": "function"
    },
    {
      "inputs": [
        {
          "internalType": "address",
          "name": "",
          "type": "address"
        },
        {
          "internalType": "address",
          "name": "",
          "type": "address"
        }
      ],
      "name": "tokens",
      "outputs": [
        {
          "internalType": "uint256",
          "name": "",
          "type": "uint256"
        }
      ],
      "stateMutability": "view",
      "type": "function"
    },
    {
      "inputs": [],
      "name": "totalStakedAmount",
      "outputs": [
        {
          "internalType": "uint256",
          "name": "",
          "type": "uint256"
        }
      ],
      "stateMutability": "view",
      "type": "function"
    },
    {
      "inputs": [
        {
          "internalType": "address",
          "name": "newOwner",
          "type": "address"
        }
      ],
      "name": "transferOwnership",
      "outputs": [],
      "stateMutability": "nonpayable",
      "type": "function"
    },
    {
      "inputs": [],
      "name": "tssThreshold",
      "outputs": [
        {
          "internalType": "uint8",
          "name": "",
          "type": "uint8"
        }
      ],
      "stateMutability": "view",
      "type": "function"
    },
    {
      "inputs": [],
      "name": "wETH",
      "outputs": [
        {
          "internalType": "address",
          "name": "",
          "type": "address"
        }
      ],
      "stateMutability": "view",
      "type": "function"
    },
    {
      "inputs": [
        {
          "internalType": "address",
          "name": "",
          "type": "address"
        }
      ],
      "name": "whitelist",
      "outputs": [
        {
          "internalType": "bool",
          "name": "",
          "type": "bool"
        }
      ],
      "stateMutability": "view",
      "type": "function"
    },
    {
      "stateMutability": "payable",
      "type": "receive"
    }
  ],
  "bytecode": "0x6101c06040523480156200001257600080fd5b506040516200662f3803806200662f833981016040819052620000359162000339565b6200004033620002cc565b60018055600060048181556003919091556001600160a01b038087166101005285811661012052848116610160819052610180528381166101408190526101a052881660a08190526040805163313ce56760e01b81529051919263313ce567928282019260209290829003018186803b158015620000bd57600080fd5b505afa158015620000d2573d6000803e3d6000fd5b505050506040513d601f19601f82011682018060405250810190620000f89190620003c5565b6200010590600a62000506565b60e0526001600160a01b03861660808190526040805163313ce56760e01b815290516008929163313ce567916004808301926020929190829003018186803b1580156200015157600080fd5b505afa15801562000166573d6000803e3d6000fd5b505050506040513d601f19601f820116820180604052508101906200018c9190620003c5565b62000198919062000517565b620001a590600a62000506565b60c08181525050866001600160a01b031663313ce5676040518163ffffffff1660e01b815260040160206040518083038186803b158015620001e657600080fd5b505afa158015620001fb573d6000803e3d6000fd5b505050506040513d601f19601f82011682018060405250810190620002219190620003c5565b6200022e90600a62000506565b6007556001600160a01b0395861660009081526005602090815260408083208054600160ff1991821681179092559a9099168352822080548a16891790559080527f05b8ccbb9d4d8fb16ea74ce3c29a41f1b461fbdaff4714a0d9a8eb05499746bc80549098169096179096555050600990925250507fec8156718a8372b1db44bb411437d0870f3e3790d4a08526d024ce1b0b668f6b556200053d565b600080546001600160a01b038381166001600160a01b0319831681178455604051919092169283917f8be0079c531659141344cd1fd0a4f28419497f9722a3daafe3b4186f6b6457e09190a35050565b80516001600160a01b03811681146200033457600080fd5b919050565b600080600080600080600060e0888a0312156200035557600080fd5b62000360886200031c565b965062000370602089016200031c565b955062000380604089016200031c565b945062000390606089016200031c565b9350620003a0608089016200031c565b9250620003b060a089016200031c565b915060c0880151905092959891949750929550565b600060208284031215620003d857600080fd5b815160ff81168114620003ea57600080fd5b9392505050565b634e487b7160e01b600052601160045260246000fd5b600181815b80851115620004485781600019048211156200042c576200042c620003f1565b808516156200043a57918102915b93841c93908002906200040c565b509250929050565b600082620004615750600162000500565b81620004705750600062000500565b81600181146200048957600281146200049457620004b4565b600191505062000500565b60ff841115620004a857620004a8620003f1565b50506001821b62000500565b5060208310610133831016604e8410600b8410161715620004d9575081810a62000500565b620004e5838362000407565b8060001904821115620004fc57620004fc620003f1565b0290505b92915050565b6000620003ea60ff84168362000450565b600060ff821660ff841680821015620005345762000534620003f1565b90039392505050565b60805160a05160c05160e05161010051610120516101405161016051610180516101a051615ef56200073a6000396000818161035301528181610a5f01526134330152600081816107d5015281816125610152818161262d015281816126ec015281816132ea0152818161388f01528181613ebb0152614782015260006107a1015260006108090152600081816102d60152818161372a0152613971015260008181610283015281816108e201528181611dfc01528181611e5801528181611ec501528181611f0c01528181611ff001528181612d2e01528181612da80152612df10152600081816114860152818161393601528181613e83015261467c01526000613b2201526000818161059a01528181610b3701528181610b72015281816113e6015281816136db01528181613759015281816139a30152818161411a01526146c90152600081816103b701528181610ae301528181610b1501528181610c8c01528181610d08015281816113ba01528181611749015281816121000152818161212f0152818161217f01528181612212015281816122a001528181612846015281816128bf0152818161295601528181612b2b0152818161304601528181613128015281816133e4015281816134c501528181613ae401528181613fb00152818161402c015281816140c101526143a80152615ef56000f3fe6080604052600436106102735760003560e01c8063753408151161014f578063ca0707e7116100c1578063dcc5f0c81161007a578063dcc5f0c81461084b578063e6ca20841461086b578063ec4827291461089b578063f2428621146108d0578063f2fde38b14610904578063f7888aec14610924576102b2565b8063ca0707e71461075c578063cf10b16b1461076f578063cff0ab961461078f578063d023420d146107c3578063d0f9a085146107f7578063d38c7bb11461082b576102b2565b8063a827278b11610113578063a827278b146106b1578063b345a358146106c7578063b4014fe8146106e7578063b9ae0adc14610707578063bf62dcc81461071c578063c810a5391461073c576102b2565b806375340815146106095780638535490f146106235780638da5cb5b146106435780639b19251a14610661578063a742329d14610691576102b2565b80632eff0d9e116101e857806352dcd6b6116101ac57806352dcd6b614610552578063567e98f9146105725780635fcbd285146105885780636b51e919146105bc5780636d019f35146105de578063715018a6146105f4576102b2565b80632eff0d9e146104af57806345137e27146104c55780634db75485146104da578063508493bc146104fa578063511834c314610532576102b2565b806312d1441e1161023a57806312d1441e146103d9578063130b7a63146103f85780631ab7e937146104265780631bb069301461045757806320199e991461046d5780632586c5621461048f576102b2565b806285aea1146102c457806289356f14610315578062e5cee4146103415780630d63aca7146103755780630f909486146103a5576102b2565b366102b257336001600160a01b037f000000000000000000000000000000000000000000000000000000000000000016146102b0576102b0614d14565b005b3480156102be57600080fd5b50600080fd5b3480156102d057600080fd5b506102f87f000000000000000000000000000000000000000000000000000000000000000081565b6040516001600160a01b0390911681526020015b60405180910390f35b34801561032157600080fd5b5060065461032f9060ff1681565b60405160ff909116815260200161030c565b34801561034d57600080fd5b506102f87f000000000000000000000000000000000000000000000000000000000000000081565b34801561038157600080fd5b50610395610390366004614e23565b61096a565b604051901515815260200161030c565b3480156103b157600080fd5b506102f87f000000000000000000000000000000000000000000000000000000000000000081565b3480156103e557600080fd5b5060065461032f90610100900460ff1681565b34801561040457600080fd5b50610418610413366004614f04565b610bbe565b60405190815260200161030c565b34801561043257600080fd5b50610446610441366004614f89565b610ff8565b60405161030c959493929190614ffa565b34801561046357600080fd5b5061041860045481565b34801561047957600080fd5b506104826110bb565b60405161030c9190615039565b34801561049b57600080fd5b506103956104aa3660046150d7565b6112bc565b3480156104bb57600080fd5b5061041860035481565b3480156104d157600080fd5b506104186113ae565b3480156104e657600080fd5b506102b06104f5366004615112565b6114cc565b34801561050657600080fd5b5061041861051536600461513e565b600f60209081526000928352604080842090915290825290205481565b34801561053e57600080fd5b506102b061054d366004615190565b61162b565b34801561055e57600080fd5b5061039561056d366004615242565b6118ae565b34801561057e57600080fd5b50610418600e5481565b34801561059457600080fd5b506102f87f000000000000000000000000000000000000000000000000000000000000000081565b3480156105c857600080fd5b506105d1611c6a565b60405161030c9190615384565b3480156105ea57600080fd5b5061041860075481565b34801561060057600080fd5b506102b0611d94565b34801561061557600080fd5b50600d5461032f9060ff1681565b34801561062f57600080fd5b506102b061063e366004614f89565b611dca565b34801561064f57600080fd5b506000546001600160a01b03166102f8565b34801561066d57600080fd5b5061039561067c366004615397565b60056020526000908152604090205460ff1681565b34801561069d57600080fd5b506103956106ac366004615397565b612086565b3480156106bd57600080fd5b5061041860085481565b3480156106d357600080fd5b506103956106e23660046153b4565b6120ba565b3480156106f357600080fd5b50610418610702366004615457565b6121de565b34801561071357600080fd5b506102b0612626565b34801561072857600080fd5b506103956107373660046154bf565b612800565b34801561074857600080fd5b50610395610757366004615529565b6129dd565b6102b061076a366004615112565b612ad2565b34801561077b57600080fd5b5061039561078a36600461554b565b612e88565b34801561079b57600080fd5b506102f87f000000000000000000000000000000000000000000000000000000000000000081565b3480156107cf57600080fd5b506102f87f000000000000000000000000000000000000000000000000000000000000000081565b34801561080357600080fd5b506102f87f000000000000000000000000000000000000000000000000000000000000000081565b34801561083757600080fd5b50610418610846366004615580565b612f78565b34801561085757600080fd5b50610395610866366004615637565b6133b7565b34801561087757600080fd5b50610395610886366004614f89565b6000908152600a602052604090205460ff1690565b3480156108a757600080fd5b506108bb6108b636600461513e565b613535565b6040805192835260208301919091520161030c565b3480156108dc57600080fd5b506102f87f000000000000000000000000000000000000000000000000000000000000000081565b34801561091057600080fd5b506102b061091f366004615397565b61355f565b34801561093057600080fd5b5061041861093f36600461513e565b6001600160a01b039182166000908152600f6020908152604080832093909416825291909152205490565b600080546001600160a01b0316331461099e5760405162461bcd60e51b81526004016109959061571c565b60405180910390fd5b6001600160a01b03871660009081526005602052604090205460ff166109eb5760405162461bcd60e51b81526020600482015260026024820152610c4d60f21b6044820152606401610995565b6001600160a01b038716610a265760405162461bcd60e51b8152602060048201526002602482015261313560f01b6044820152606401610995565b60008415610b0d5760405160016266faa960e11b031981526001600160a01b0389811660048301528881166024830152604482018790527f0000000000000000000000000000000000000000000000000000000000000000169063ff320aae90606401602060405180830381600087803b158015610aa357600080fd5b505af1158015610ab7573d6000803e3d6000fd5b505050506040513d601f19601f82011682018060405250810190610adb9190615751565b50610b0860007f0000000000000000000000000000000000000000000000000000000000000000876135fa565b610b35565b84610b3557507f00000000000000000000000000000000000000000000000000000000000000005b7f00000000000000000000000000000000000000000000000000000000000000006001600160a01b0316886001600160a01b03161415610b9257507f00000000000000000000000000000000000000000000000000000000000000005b610b9c81856136d0565b610ba583613a7a565b610bb0888888613ae2565b506001979650505050505050565b600060026001541415610be35760405162461bcd60e51b81526004016109959061576e565b6002600155600083838281610bfa57610bfa6157a5565b9050602002016020810190610c0f9190615397565b905060008484610c206001826157d1565b818110610c2f57610c2f6157a5565b9050602002016020810190610c449190615397565b6001600160a01b0383166000908152600f60209081526040808320338452909152902054909150871115610c8a5760405162461bcd60e51b8152600401610995906157e8565b7f00000000000000000000000000000000000000000000000000000000000000006001600160a01b0316826001600160a01b031614610d065760405162461bcd60e51b815260206004820152601860248201527726bab9ba1039bbb0b810333937b690212a21903a37b5b2b760411b6044820152606401610995565b7f00000000000000000000000000000000000000000000000000000000000000006001600160a01b0316816001600160a01b03161415610d885760405162461bcd60e51b815260206004820152601960248201527f456e64696e6720746f6b656e206d7573742062652077425443000000000000006044820152606401610995565b6001600160a01b03811673eeeeeeeeeeeeeeeeeeeeeeeeeeeeeeeeeeeeeeee1415610ded5760405162461bcd60e51b81526020600482015260156024820152740aae6ca40e0c2e8d040ee84a886405a7c40ee8aa89605b1b6044820152606401610995565b6040516370a0823160e01b81523060048201526000906001600160a01b038316906370a082319060240160206040518083038186803b158015610e2f57600080fd5b505afa158015610e43573d6000803e3d6000fd5b505050506040513d601f19601f82011682018060405250810190610e67919061581f565b6001600160a01b0384166000908152600f60209081526040808320338452909152902054909150610e989089613bd4565b6001600160a01b0384166000908152600f602090815260408083203384529091529020558a15610ed557610ed08a8a8a8a8a8a613be7565b610ee1565b610ee188888888613d23565b6040516370a0823160e01b8152306004820152610f659082906001600160a01b038516906370a08231906024015b60206040518083038186803b158015610f2757600080fd5b505afa158015610f3b573d6000803e3d6000fd5b505050506040513d601f19601f82011682018060405250810190610f5f919061581f565b90613bd4565b935086841015610f875760405162461bcd60e51b815260040161099590615838565b83610f9157600080fd5b6001600160a01b0382166000908152600f60209081526040808320338452909152902054610fbf9085613de8565b6001600160a01b039092166000908152600f60209081526040808320338452909152902091909155505060018055979650505050505050565b6002602052600090815260409020805460018201805491929161101a9061586f565b80601f01602080910402602001604051908101604052809291908181526020018280546110469061586f565b80156110935780601f1061106857610100808354040283529160200191611093565b820191906000526020600020905b81548152906001019060200180831161107657829003601f168201915b505050506002830154600384015460049094015492936001600160a01b039091169290915085565b606060006110d6600454600354613bd490919063ffffffff16565b6001600160401b038111156110ed576110ed614d4f565b60405190808252806020026020018201604052801561115c57816020015b6111496040518060a00160405280600080191681526020016060815260200160006001600160a01b0316815260200160008152602001600081525090565b81526020019060019003908161110b5790505b50915060006111776001600454613de890919063ffffffff16565b90505b60035481116112b7576002600061119c60045485613de890919063ffffffff16565b81526020019081526020016000206040518060a0016040529081600082015481526020016001820180546111cf9061586f565b80601f01602080910402602001604051908101604052809291908181526020018280546111fb9061586f565b80156112485780601f1061121d57610100808354040283529160200191611248565b820191906000526020600020905b81548152906001019060200180831161122b57829003601f168201915b505050918352505060028201546001600160a01b0316602082015260038201546040820152600490910154606090910152835184908490811061128d5761128d6157a5565b60209081029190910101526112a3826001613de8565b9150806112af816158a4565b91505061117a565b505090565b600080546001600160a01b031633146112e75760405162461bcd60e51b81526004016109959061571c565b60006112f16113ae565b6001600160a01b03871660009081526005602052604090205490915060ff166113415760405162461bcd60e51b8152602060048201526002602482015261189b60f11b6044820152606401610995565b61134d86868686613df4565b61135657600080fd5b60019150806113636113ae565b10156113a55760405162461bcd60e51b8152602060048201526011602482015270496e76616c6964204c505420707269636560781b6044820152606401610995565b50949350505050565b60008060006113de60007f0000000000000000000000000000000000000000000000000000000000000000613535565b9150915060007f00000000000000000000000000000000000000000000000000000000000000006001600160a01b03166318160ddd6040518163ffffffff1660e01b815260040160206040518083038186803b15801561143d57600080fd5b505afa158015611451573d6000803e3d6000fd5b505050506040513d601f19601f82011682018060405250810190611475919061581f565b905080156114c0576114bb816114b57f00000000000000000000000000000000000000000000000000000000000000006114af8787613de8565b90614219565b90614225565b6114c4565b6007545b935050505090565b600260015414156114ef5760405162461bcd60e51b81526004016109959061576e565b60026001556001600160a01b0382166000908152600f6020908152604080832033845290915290205481111561155e5760405162461bcd60e51b8152602060048201526014602482015273496e73756666696369656e742042616c616e636560601b6044820152606401610995565b6001600160a01b0382166000908152600f6020908152604080832033845290915290205461158c9082613bd4565b6001600160a01b0383166000908152600f60209081526040808320338085529252909120919091556115c090839083613ae2565b6001600160a01b0382166000908152600f60209081526040808320338085529252918290205491517febff2602b3f468259e1e99f613fed6691f3a6526effe6ef3e768ba7ae7a36c4f9261161b9286929091869142906158bf565b60405180910390a1505060018055565b6002600154141561164e5760405162461bcd60e51b81526004016109959061576e565b60026001553361166661014083016101208401615397565b6001600160a01b0316146116bc5760405162461bcd60e51b815260206004820152601960248201527f62656e656669636961727920213d206d73672e73656e646572000000000000006044820152606401610995565b6040810135600f60006116d26020850185615397565b6001600160a01b03168152602081019190915260400160009081209061170061014085016101208601615397565b6001600160a01b03166001600160a01b0316815260200190815260200160002054101561173f5760405162461bcd60e51b8152600401610995906157e8565b6001600160a01b037f0000000000000000000000000000000000000000000000000000000000000000166117766020830183615397565b6001600160a01b0316146117de5760405162461bcd60e51b815260206004820152602960248201527f66726f6d546f6b656e206d7573742062652074686520726571756972656420426044820152682a21ba103a37b5b2b760b91b6064820152608401610995565b6117e781614231565b61184e6040820135600f60006118006020860186615397565b6001600160a01b03168152602081019190915260400160009081209061182e61014086016101208701615397565b6001600160a01b0316815260208101919091526040016000205490613bd4565b600f600061185f6020850185615397565b6001600160a01b03168152602081019190915260400160009081209061188d61014085016101208601615397565b6001600160a01b031681526020810191909152604001600020555060018055565b600080546001600160a01b031633146118d95760405162461bcd60e51b81526004016109959061571c565b60065460ff6101009091048116908416108015906118fb575060ff8360ff1611155b61192c5760405162461bcd60e51b8152602060048201526002602482015261303160f01b6044820152606401610995565b6119376001846158f0565b60ff168460ff1610156119715760405162461bcd60e51b8152602060048201526002602482015261181960f11b6044820152606401610995565b84518651146119a75760405162461bcd60e51b8152602060048201526002602482015261303560f01b6044820152606401610995565b6119b08761355f565b60005b8651811015611bda578581815181106119ce576119ce6157a5565b6020026020010151611b4357600060ff16600b60008984815181106119f5576119f56157a5565b6020908102919091018101516001600160a01b031682528101919091526040016000205460ff161415611a7257600c878281518110611a3657611a366157a5565b60209081029190910181015182546001810184556000938452919092200180546001600160a01b0319166001600160a01b039092169190911790555b600160ff16600b6000898481518110611a8d57611a8d6157a5565b6020908102919091018101516001600160a01b031682528101919091526040016000205460ff1614611ae657600d805460ff16906000611acc83615915565b91906101000a81548160ff021916908360ff160217905550505b6001600b6000898481518110611afe57611afe6157a5565b60200260200101516001600160a01b03166001600160a01b0316815260200190815260200160002060006101000a81548160ff021916908360ff160217905550611bc8565b600d805460ff16906000611b5683615935565b91906101000a81548160ff021916908360ff160217905550506002600b6000898481518110611b8757611b876157a5565b60200260200101516001600160a01b03166001600160a01b0316815260200190815260200160002060006101000a81548160ff021916908360ff1602179055505b80611bd2816158a4565b9150506119b3565b50600d54606460ff9091161115611c3d5760405162461bcd60e51b815260206004820152602160248201527f53746f726564206e6f64652073697a652073686f756c64206265203c3d2031306044820152600360fc1b6064820152608401610995565b506006805460ff8481166101000261ffff1990921690861617179055600e81905560019695505050505050565b600d54606090600090819060ff166001600160401b03811115611c8f57611c8f614d4f565b604051908082528060200260200182016040528015611cb8578160200160208202803683370190505b50905060005b600c54811015611d8d57600160ff16600b6000600c8481548110611ce457611ce46157a5565b60009182526020808320909101546001600160a01b0316835282019290925260400190205460ff161415611d7b57600c8181548110611d2557611d256157a5565b9060005260206000200160009054906101000a90046001600160a01b0316828481518110611d5557611d556157a5565b6001600160a01b039092166020928302919091019091015282611d77816158a4565b9350505b80611d85816158a4565b915050611cbe565b5092915050565b6000546001600160a01b03163314611dbe5760405162461bcd60e51b81526004016109959061571c565b611dc86000614354565b565b60026001541415611ded5760405162461bcd60e51b81526004016109959061576e565b60026001556001600160a01b037f0000000000000000000000000000000000000000000000000000000000000000166000908152600f60209081526040808320338452909152902054811115611e4257600080fd5b604051632e1a7d4d60e01b8152600481018290527f00000000000000000000000000000000000000000000000000000000000000006001600160a01b031690632e1a7d4d90602401600060405180830381600087803b158015611ea457600080fd5b505af1158015611eb8573d6000803e3d6000fd5b5050506001600160a01b037f0000000000000000000000000000000000000000000000000000000000000000166000908152600f60209081526040808320338452909152902054611f0a915082613bd4565b7f00000000000000000000000000000000000000000000000000000000000000006001600160a01b03166000908152600f60209081526040808320338085529252808320939093559151829084908381818185875af1925050503d8060008114611f90576040519150601f19603f3d011682016040523d82523d6000602084013e611f95565b606091505b5050905080611fe65760405162461bcd60e51b815260206004820152601e60248201527f72656365697665722072656a656374656420455448207472616e7366657200006044820152606401610995565b6001600160a01b037f0000000000000000000000000000000000000000000000000000000000000000166000908152600f60209081526040808320338085529252918290205491517febff2602b3f468259e1e99f613fed6691f3a6526effe6ef3e768ba7ae7a36c4f926120759273eeeeeeeeeeeeeeeeeeeeeeeeeeeeeeeeeeeeeeee929091889142906158bf565b60405180910390a150506001805550565b6001600160a01b0381166000908152600b602052604081205460ff16600114156120b257506001919050565b506000919050565b600080546001600160a01b031633146120e55760405162461bcd60e51b81526004016109959061571c565b836120ef57600080fd5b826120f957600080fd5b61212560007f0000000000000000000000000000000000000000000000000000000000000000866135fa565b6001600160a01b037f000000000000000000000000000000000000000000000000000000000000000081166000908152600f60209081526040808320938916835292905220546121759085613de8565b6001600160a01b037f000000000000000000000000000000000000000000000000000000000000000081166000908152600f60209081526040808320938a168352929052908120919091556121ca90846136d0565b6121d382613a7a565b506001949350505050565b6000600260015414156122035760405162461bcd60e51b81526004016109959061576e565b60026001556001600160a01b037f00000000000000000000000000000000000000000000000000000000000000001661223f6020840184615397565b6001600160a01b031614156122965760405162461bcd60e51b815260206004820152601c60248201527f4d757374206e6f7420737761702066726f6d2042544320746f6b656e000000006044820152606401610995565b6001600160a01b037f0000000000000000000000000000000000000000000000000000000000000000166122d06040840160208501615397565b6001600160a01b03161461231f5760405162461bcd60e51b815260206004820152601660248201527526bab9ba1039bbb0b8103a3790212a21903a37b5b2b760511b6044820152606401610995565b3061233261014084016101208501615397565b6001600160a01b0316146123885760405162461bcd60e51b815260206004820152601c60248201527f62656e656669636961727920213d207377617020636f6e7472616374000000006044820152606401610995565b6040820135600f600061239e6020860186615397565b6001600160a01b031681526020808201929092526040908101600090812033825290925290205410156123e35760405162461bcd60e51b8152600401610995906157e8565b60006123f56040840160208501615397565b6040516370a0823160e01b81523060048201526001600160a01b0391909116906370a082319060240160206040518083038186803b15801561243657600080fd5b505afa15801561244a573d6000803e3d6000fd5b505050506040513d601f19601f8201168201806040525081019061246e919061581f565b90506124b66040840135600f60006124896020880188615397565b6001600160a01b031681526020808201929092526040908101600090812033825290925290205490613bd4565b600f60006124c76020870187615397565b6001600160a01b03168152602080820192909252604090810160009081203382529092529020556124f783614231565b6125398161250b6040860160208701615397565b6040516370a0823160e01b81523060048201526001600160a01b0391909116906370a0823190602401610f0f565b9150826080013582101561255f5760405162461bcd60e51b815260040161099590615838565b7f00000000000000000000000000000000000000000000000000000000000000006001600160a01b0316631411c5b76040518163ffffffff1660e01b815260040160206040518083038186803b1580156125b857600080fd5b505afa1580156125cc573d6000803e3d6000fd5b505050506040513d601f19601f820116820180604052508101906125f0919061581f565b82101561260f5760405162461bcd60e51b815260040161099590615952565b61261a8585846143a4565b50600180559392505050565b60006126c87f00000000000000000000000000000000000000000000000000000000000000006001600160a01b031663e91675b86040518163ffffffff1660e01b815260040160206040518083038186803b15801561268457600080fd5b505afa158015612698573d6000803e3d6000fd5b505050506040513d601f19601f820116820180604052508101906126bc91906159a6565b6004549060ff16613de8565b905060035481106126d857506003545b60045442905b828110156127fb57816127937f00000000000000000000000000000000000000000000000000000000000000006001600160a01b031663da284dcc6040518163ffffffff1660e01b815260040160206040518083038186803b15801561274357600080fd5b505afa158015612757573d6000803e3d6000fd5b505050506040513d601f19601f8201168201806040525081019061277b919061581f565b60008481526002602052604090206004015490613de8565b10156127e9576000818152600260205260408120818155906127b86001830182614c41565b506002810180546001600160a01b03191690556000600382018190556004909101556127e5816001613de8565b6004555b806127f3816158a4565b9150506126de565b505050565b600080546001600160a01b0316331461282b5760405162461bcd60e51b81526004016109959061571c565b8361283557600080fd5b8261283f57600080fd5b61286b60007f0000000000000000000000000000000000000000000000000000000000000000866135fa565b6128766000846136d0565b61287f82613a7a565b60005b85518110156129d15761294c8682815181106128a0576128a06157a5565b602002602001015160a01c6bffffffffffffffffffffffff16600f60007f00000000000000000000000000000000000000000000000000000000000000006001600160a01b03166001600160a01b031681526020019081526020016000206000898581518110612912576129126157a5565b602002602001015160001c6001600160a01b03166001600160a01b0316815260200190815260200160002054613de890919063ffffffff16565b6001600160a01b037f0000000000000000000000000000000000000000000000000000000000000000166000908152600f60205260408120885190919089908590811061299b5761299b6157a5565b6020908102919091018101516001600160a01b0316825281019190915260400160002055806129c9816158a4565b915050612882565b50600195945050505050565b600080546001600160a01b03163314612a085760405162461bcd60e51b81526004016109959061571c565b6000828152600a602052604090205460ff1615612a675760405162461bcd60e51b815260206004820152601860248201527f546865207478696420697320616c7265616479207573656400000000000000006044820152606401610995565b604080518082019091526002815261189960f11b6020808301919091526000805260099052600080516020615ea083398151915254612aa7918590614530565b600080526009602052600080516020615ea083398151915255612ac98261455c565b50600192915050565b60026001541415612af55760405162461bcd60e51b81526004016109959061576e565b600260015534612d1f576001600160a01b03821673eeeeeeeeeeeeeeeeeeeeeeeeeeeeeeeeeeeeeeee1415612b2957600080fd5b7f00000000000000000000000000000000000000000000000000000000000000006001600160a01b0316826001600160a01b03161415612b6857600080fd5b6040516370a0823160e01b81523060048201526000906001600160a01b038416906370a082319060240160206040518083038186803b158015612baa57600080fd5b505afa158015612bbe573d6000803e3d6000fd5b505050506040513d601f19601f82011682018060405250810190612be2919061581f565b9050612bf96001600160a01b038416333085614577565b6040516370a0823160e01b81523060048201526000906001600160a01b038516906370a082319060240160206040518083038186803b158015612c3b57600080fd5b505afa158015612c4f573d6000803e3d6000fd5b505050506040513d601f19601f82011682018060405250810190612c73919061581f565b90506000612c818284613bd4565b6001600160a01b0386166000908152600f60209081526040808320338452909152902054909150612cb29082613de8565b6001600160a01b0386166000908152600f602090815260408083203380855292529182902083905590517f4e2ca0515ed1aef1395f66b5303bb5d6f1bf9d61a353fa53f73f8ac9973fa9f692612d0f9289929091869142906158bf565b60405180910390a1505050612e80565b60003411612d2c57600080fd5b7f00000000000000000000000000000000000000000000000000000000000000006001600160a01b031663d0e30db0346040518263ffffffff1660e01b81526004016000604051808303818588803b158015612d8757600080fd5b505af1158015612d9b573d6000803e3d6000fd5b5050506001600160a01b037f0000000000000000000000000000000000000000000000000000000000000000166000908152600f60209081526040808320338452909152902054612def9250905034613de8565b7f00000000000000000000000000000000000000000000000000000000000000006001600160a01b03166000908152600f602090815260408083203380855292529182902083905590517f4e2ca0515ed1aef1395f66b5303bb5d6f1bf9d61a353fa53f73f8ac9973fa9f69261161b9273eeeeeeeeeeeeeeeeeeeeeeeeeeeeeeeeeeeeeeee929091349142906158bf565b505060018055565b600080546001600160a01b03163314612eb35760405162461bcd60e51b81526004016109959061571c565b6000612ebd6113ae565b6001600160a01b03861660009081526005602052604090205490915060ff16612f0d5760405162461bcd60e51b8152602060048201526002602482015261189b60f11b6044820152606401610995565b612f188585856145e8565b612f2157600080fd5b6001915080612f2e6113ae565b1015612f705760405162461bcd60e51b8152602060048201526011602482015270496e76616c6964204c505420707269636560781b6044820152606401610995565b509392505050565b600060026001541415612f9d5760405162461bcd60e51b81526004016109959061576e565b6002600155600083838281612fb457612fb46157a5565b9050602002016020810190612fc99190615397565b905060008484612fda6001826157d1565b818110612fe957612fe96157a5565b9050602002016020810190612ffe9190615397565b6001600160a01b0383166000908152600f602090815260408083203384529091529020549091508711156130445760405162461bcd60e51b8152600401610995906157e8565b7f00000000000000000000000000000000000000000000000000000000000000006001600160a01b0316826001600160a01b031614156130c15760405162461bcd60e51b815260206004820152601860248201527726bab9ba1039bbb0b810333937b690212a21903a37b5b2b760411b6044820152606401610995565b6001600160a01b03821673eeeeeeeeeeeeeeeeeeeeeeeeeeeeeeeeeeeeeeee14156131265760405162461bcd60e51b815260206004820152601560248201527455736520706174682077455448202d3e207742544360581b6044820152606401610995565b7f00000000000000000000000000000000000000000000000000000000000000006001600160a01b0316816001600160a01b0316146131a05760405162461bcd60e51b815260206004820152601660248201527526bab9ba1039bbb0b8103a3790212a21903a37b5b2b760511b6044820152606401610995565b6040516370a0823160e01b81523060048201526000906001600160a01b038316906370a082319060240160206040518083038186803b1580156131e257600080fd5b505afa1580156131f6573d6000803e3d6000fd5b505050506040513d601f19601f8201168201806040525081019061321a919061581f565b6001600160a01b0384166000908152600f6020908152604080832033845290915290205490915061324b9089613bd4565b6001600160a01b0384166000908152600f602090815260408083203384529091529020558a15613288576132838a8a8a8a8a8a613be7565b613294565b61329488888888613d23565b6040516370a0823160e01b81523060048201526132c69082906001600160a01b038516906370a0823190602401610f0f565b9350868410156132e85760405162461bcd60e51b815260040161099590615838565b7f00000000000000000000000000000000000000000000000000000000000000006001600160a01b0316631411c5b76040518163ffffffff1660e01b815260040160206040518083038186803b15801561334157600080fd5b505afa158015613355573d6000803e3d6000fd5b505050506040513d601f19601f82011682018060405250810190613379919061581f565b8410156133985760405162461bcd60e51b815260040161099590615952565b6133a38d8d866143a4565b505050600180559998505050505050505050565b600080546001600160a01b031633146133e25760405162461bcd60e51b81526004016109959061571c565b7f000000000000000000000000000000000000000000000000000000000000000087156134fb57600061341988610f5f8b8a613bd4565b6040516349e031a560e01b81529091506001600160a01b037f000000000000000000000000000000000000000000000000000000000000000016906349e031a59061346d906000908a908a906004016159c3565b602060405180830381600087803b15801561348757600080fd5b505af115801561349b573d6000803e3d6000fd5b505050506040513d601f19601f820116820180604052508101906134bf9190615751565b506134f57f000000000000000000000000000000000000000000000000000000000000000060006134f0848c613de8565b6135fa565b50613504565b87613504575060005b61350e81876136d0565b8215610bb057610bb0600080526009602052600080516020615ea083398151915254600855565b6001600160a01b039182166000908152600960205260408082205492909316815291909120549091565b6000546001600160a01b031633146135895760405162461bcd60e51b81526004016109959061571c565b6001600160a01b0381166135ee5760405162461bcd60e51b815260206004820152602660248201527f4f776e61626c653a206e6577206f776e657220697320746865207a65726f206160448201526564647265737360d01b6064820152608401610995565b6135f781614354565b50565b6040805180820182526002815261313160f01b6020808301919091526001600160a01b03851660009081526009909152919091205461363a918390614530565b6001600160a01b0380841660009081526009602052604080822093909355908516815220546136699082613de8565b6001600160a01b038481166000818152600960209081526040918290209490945580519182529185169281019290925281018290527fea368a40e9570069bb8e6511d668293ad2e1f03b0d982431fd223de9f3b70ca69060600160405180910390a1505050565b806136d9575050565b7f00000000000000000000000000000000000000000000000000000000000000006001600160a01b0316826001600160a01b0316141561382a5760405163a9059cbb60e01b81526001600160a01b037f000000000000000000000000000000000000000000000000000000000000000081166004830152602482018390527f0000000000000000000000000000000000000000000000000000000000000000169063a9059cbb90604401602060405180830381600087803b15801561379d57600080fd5b505af11580156137b1573d6000803e3d6000fd5b505050506040513d601f19601f820116820180604052508101906137d59190615751565b50604080516001600160a01b0384168152600060208201819052818301849052606082015290517fe3debe835f6848edc082b32a1d729781d3bfcd7e14422d80bcaa6794d3816b2f9181900360800190a15050565b60006138346113ae565b6001600160a01b03841660009081526009602052604090205490915061385a9083613de8565b60096000856001600160a01b03166001600160a01b0316815260200190815260200160002081905550600061392860646114b57f00000000000000000000000000000000000000000000000000000000000000006001600160a01b0316630b68134d6040518163ffffffff1660e01b815260040160206040518083038186803b1580156138e657600080fd5b505afa1580156138fa573d6000803e3d6000fd5b505050506040513d601f19601f8201168201806040525081019061391e91906159a6565b869060ff16614219565b9050600061395a836114b5847f0000000000000000000000000000000000000000000000000000000000000000614219565b6040516340c10f1960e01b81526001600160a01b037f000000000000000000000000000000000000000000000000000000000000000081166004830152602482018390529192507f0000000000000000000000000000000000000000000000000000000000000000909116906340c10f1990604401602060405180830381600087803b1580156139e957600080fd5b505af11580156139fd573d6000803e3d6000fd5b505050506040513d601f19601f82011682018060405250810190613a219190615751565b50604080516001600160a01b038716815260208101869052908101829052606081018490527fe3debe835f6848edc082b32a1d729781d3bfcd7e14422d80bcaa6794d3816b2f9060800160405180910390a15050505050565b60005b8151811015613ade576001600a6000848481518110613a9e57613a9e6157a5565b6020026020010151815260200190815260200160002060006101000a81548160ff0219169083151502179055508080613ad6906158a4565b915050613a7d565b5050565b7f00000000000000000000000000000000000000000000000000000000000000006001600160a01b0316836001600160a01b03161415613b4957613b46817f0000000000000000000000000000000000000000000000000000000000000000614219565b90505b60405163a9059cbb60e01b81526001600160a01b0383811660048301526024820183905284169063a9059cbb90604401602060405180830381600087803b158015613b9357600080fd5b505af1158015613ba7573d6000803e3d6000fd5b505050506040513d601f19601f82011682018060405250810190613bcb9190615751565b6127fb57600080fd5b6000613be082846157d1565b9392505050565b613ca873def171fe48cf0115b1d80b88dc8eab59176fee576001600160a01b031663d2c4b5986040518163ffffffff1660e01b815260040160206040518083038186803b158015613c3757600080fd5b505afa158015613c4b573d6000803e3d6000fd5b505050506040513d601f19601f82011682018060405250810190613c6f9190615a1b565b8584846000818110613c8357613c836157a5565b9050602002016020810190613c989190615397565b6001600160a01b0316919061485e565b604051633d59840d60e21b815273def171fe48cf0115b1d80b88dc8eab59176fee579063f566103490613ce990899089908990899089908990600401615a76565b600060405180830381600087803b158015613d0357600080fd5b505af1158015613d17573d6000803e3d6000fd5b50505050505050505050565b613d7373def171fe48cf0115b1d80b88dc8eab59176fee576001600160a01b031663d2c4b5986040518163ffffffff1660e01b815260040160206040518083038186803b158015613c3757600080fd5b604051632a42068d60e11b815273def171fe48cf0115b1d80b88dc8eab59176fee57906354840d1a90613db0908790879087908790600401615ab6565b600060405180830381600087803b158015613dca57600080fd5b505af1158015613dde573d6000803e3d6000fd5b5050505050505050565b6000613be08284615ae0565b6000818152600a602052604081205460ff1615613e385760405162461bcd60e51b8152602060048201526002602482015261181b60f11b6044820152606401610995565b83613e6a5760405162461bcd60e51b8152602060048201526002602482015261303760f01b6044820152606401610995565b8360a081901c6000613e7a6113ae565b90506000613eac7f00000000000000000000000000000000000000000000000000000000000000006114b58585614219565b90506000613f546127106114b57f00000000000000000000000000000000000000000000000000000000000000006001600160a01b031663b6268e5d6040518163ffffffff1660e01b815260040160206040518083038186803b158015613f1257600080fd5b505afa158015613f26573d6000803e3d6000fd5b505050506040513d601f19601f82011682018060405250810190613f4a91906159a6565b859060ff16614219565b905087613f618383613bd4565b1015613f945760405162461bcd60e51b8152602060048201526002602482015261303960f01b6044820152606401610995565b6000613fa489610f5f8585613bd4565b9050600080613fd460007f0000000000000000000000000000000000000000000000000000000000000000613535565b90925090506001600160a01b038d1661402a57613ff18585613bd4565b8210156140255760405162461bcd60e51b8152602060048201526002602482015261060760f31b6044820152606401610995565b6140a2565b7f00000000000000000000000000000000000000000000000000000000000000006001600160a01b03168d6001600160a01b031614156140a25761406e8585613bd4565b8110156140a25760405162461bcd60e51b8152602060048201526002602482015261189960f11b6044820152606401610995565b6140ac8d856136d0565b6140b68d8661491f565b6140bf8a61455c565b7f00000000000000000000000000000000000000000000000000000000000000006001600160a01b03168d6001600160a01b03161415614104576141048d8985613ae2565b604051630852cd8d60e31b8152600481018890527f00000000000000000000000000000000000000000000000000000000000000006001600160a01b0316906342966c6890602401602060405180830381600087803b15801561416657600080fd5b505af115801561417a573d6000803e3d6000fd5b505050506040513d601f19601f8201168201806040525081019061419e9190615751565b6141a757600080fd5b604080516001600160a01b038a16815260208101899052908101869052606081018790526080810184905260a081018b90527fa9da34e5e4a956b744307ae7611795634e8365951073bf049d76b64b2ae7a0589060c00160405180910390a15060019c9b505050505050505050505050565b6000613be08284615af8565b6000613be08284615b17565b6142cb73def171fe48cf0115b1d80b88dc8eab59176fee576001600160a01b031663d2c4b5986040518163ffffffff1660e01b815260040160206040518083038186803b15801561428157600080fd5b505afa158015614295573d6000803e3d6000fd5b505050506040513d601f19601f820116820180604052508101906142b99190615a1b565b6040830135613c986020850185615397565b6040516354e3f31b60e01b815273def171fe48cf0115b1d80b88dc8eab59176fee57906354e3f31b90614302908490600401615c3d565b602060405180830381600087803b15801561431c57600080fd5b505af1158015614330573d6000803e3d6000fd5b505050506040513d601f19601f82011682018060405250810190613ade919061581f565b600080546001600160a01b038381166001600160a01b0319831681178455604051919092169283917f8be0079c531659141344cd1fd0a4f28419497f9722a3daafe3b4186f6b6457e09190a35050565b60007f0000000000000000000000000000000000000000000000000000000000000000600354858585426040516020016143e396959493929190615df3565b6040516020818303038152906040528051906020012090506040518060a0016040528082815260200185858080601f01602080910402602001604051908101604052809392919081815260200183838082843760009201829052509385525050336020808501919091526040808501889052426060909501949094526003548352600281529290912083518155838301518051919361448a93506001850192910190614c7b565b5060408201516002820180546001600160a01b0319166001600160a01b03909216919091179055606082015160038201556080909101516004909101556144cf612626565b6003546144dd906001613de8565b6003556144e98261497f565b7faaa4c278970337923c885845b00985ecf5082317e2f9abf72a27b4d35255d67281858533864260405161452296959493929190615e2f565b60405180910390a150505050565b600081848411156145545760405162461bcd60e51b81526004016109959190615e70565b505050900390565b6000908152600a60205260409020805460ff19166001179055565b6040516001600160a01b03808516602483015283166044820152606481018290526145e29085906323b872dd60e01b906084015b60408051601f198184030181529190526020810180516001600160e01b03166001600160e01b0319909316929092179091526149d4565b50505050565b6000818152600a602052604081205460ff161561462c5760405162461bcd60e51b8152602060048201526002602482015261181b60f11b6044820152606401610995565b8261465e5760405162461bcd60e51b8152602060048201526002602482015261303760f01b6044820152606401610995565b8260a081901c600061466e6113ae565b905060006146a0826114b5857f0000000000000000000000000000000000000000000000000000000000000000614219565b6040516340c10f1960e01b81526001600160a01b038681166004830152602482018390529192507f0000000000000000000000000000000000000000000000000000000000000000909116906340c10f1990604401602060405180830381600087803b15801561470f57600080fd5b505af1158015614723573d6000803e3d6000fd5b505050506040513d601f19601f820116820180604052508101906147479190615751565b506147528884614aa6565b61475b8661455c565b7fdfaf4e23f7030adafec91a682e05bf9fb30c721f9cec3d8bcfae0459c5362db1848483857f00000000000000000000000000000000000000000000000000000000000000006001600160a01b031663424192556040518163ffffffff1660e01b815260040160206040518083038186803b1580156147d957600080fd5b505afa1580156147ed573d6000803e3d6000fd5b505050506040513d601f19601f8201168201806040525081019061481191906159a6565b604080516001600160a01b039096168652602086019490945292840191909152606083015260ff16608082015260a0810188905260c00160405180910390a1506001979650505050505050565b604051636eb1769f60e11b81523060048201526001600160a01b038381166024830152600091839186169063dd62ed3e9060440160206040518083038186803b1580156148aa57600080fd5b505afa1580156148be573d6000803e3d6000fd5b505050506040513d601f19601f820116820180604052508101906148e2919061581f565b6148ec9190615ae0565b6040516001600160a01b0385166024820152604481018290529091506145e290859063095ea7b360e01b906064016145ab565b6040805180820182526002815261031360f41b6020808301919091526001600160a01b03851660009081526009909152919091205461495f918390614530565b6001600160a01b0390921660009081526009602052604090209190915550565b6008546149a7576149a7600080526009602052600080516020615ea083398151915254600855565b604080518082019091526002815261189960f11b60208201526008546149ce918390614530565b60085550565b6000614a29826040518060400160405280602081526020017f5361666545524332303a206c6f772d6c6576656c2063616c6c206661696c6564815250856001600160a01b0316614ac99092919063ffffffff16565b8051909150156127fb5780806020019051810190614a479190615751565b6127fb5760405162461bcd60e51b815260206004820152602a60248201527f5361666545524332303a204552433230206f7065726174696f6e20646964206e6044820152691bdd081cdd58d8d9595960b21b6064820152608401610995565b6001600160a01b03821660009081526009602052604090205461495f9082613de8565b6060614ad88484600085614ae0565b949350505050565b606082471015614b415760405162461bcd60e51b815260206004820152602660248201527f416464726573733a20696e73756666696369656e742062616c616e636520666f6044820152651c8818d85b1b60d21b6064820152608401610995565b843b614b8f5760405162461bcd60e51b815260206004820152601d60248201527f416464726573733a2063616c6c20746f206e6f6e2d636f6e74726163740000006044820152606401610995565b600080866001600160a01b03168587604051614bab9190615e83565b60006040518083038185875af1925050503d8060008114614be8576040519150601f19603f3d011682016040523d82523d6000602084013e614bed565b606091505b5091509150614bfd828286614c08565b979650505050505050565b60608315614c17575081613be0565b825115614c275782518084602001fd5b8160405162461bcd60e51b81526004016109959190615e70565b508054614c4d9061586f565b6000825580601f10614c5d575050565b601f0160209004906000526020600020908101906135f79190614cff565b828054614c879061586f565b90600052602060002090601f016020900481019282614ca95760008555614cef565b82601f10614cc257805160ff1916838001178555614cef565b82800160010185558215614cef579182015b82811115614cef578251825591602001919060010190614cd4565b50614cfb929150614cff565b5090565b5b80821115614cfb5760008155600101614d00565b634e487b7160e01b600052600160045260246000fd5b6001600160a01b03811681146135f757600080fd5b8035614d4a81614d2a565b919050565b634e487b7160e01b600052604160045260246000fd5b604051601f8201601f191681016001600160401b0381118282101715614d8d57614d8d614d4f565b604052919050565b60006001600160401b03821115614dae57614dae614d4f565b5060051b60200190565b600082601f830112614dc957600080fd5b81356020614dde614dd983614d95565b614d65565b82815260059290921b84018101918181019086841115614dfd57600080fd5b8286015b84811015614e185780358352918301918301614e01565b509695505050505050565b60008060008060008060c08789031215614e3c57600080fd5b8635614e4781614d2a565b95506020870135614e5781614d2a565b945060408701359350606087013592506080870135915060a08701356001600160401b03811115614e8757600080fd5b614e9389828a01614db8565b9150509295509295509295565b80151581146135f757600080fd5b8035614d4a81614ea0565b60008083601f840112614ecb57600080fd5b5081356001600160401b03811115614ee257600080fd5b6020830191508360208260051b8501011115614efd57600080fd5b9250929050565b600080600080600080600060c0888a031215614f1f57600080fd5b8735614f2a81614ea0565b96506020880135614f3a81614d2a565b955060408801359450606088013593506080880135925060a08801356001600160401b03811115614f6a57600080fd5b614f768a828b01614eb9565b989b979a50959850939692959293505050565b600060208284031215614f9b57600080fd5b5035919050565b60005b83811015614fbd578181015183820152602001614fa5565b838111156145e25750506000910152565b60008151808452614fe6816020860160208601614fa2565b601f01601f19169290920160200192915050565b85815260a06020820152600061501360a0830187614fce565b6001600160a01b0395909516604083015250606081019290925260809091015292915050565b60006020808301818452808551808352604092508286019150828160051b87010184880160005b838110156150c957603f19898403018552815160a08151855288820151818a87015261508e82870182614fce565b838a01516001600160a01b0316878b015260608085015190880152608093840151939096019290925250509386019390860190600101615060565b509098975050505050505050565b600080600080608085870312156150ed57600080fd5b84356150f881614d2a565b966020860135965060408601359560600135945092505050565b6000806040838503121561512557600080fd5b823561513081614d2a565b946020939093013593505050565b6000806040838503121561515157600080fd5b823561515c81614d2a565b9150602083013561516c81614d2a565b809150509250929050565b60006101e0828403121561518a57600080fd5b50919050565b6000602082840312156151a257600080fd5b81356001600160401b038111156151b857600080fd5b614ad884828501615177565b600082601f8301126151d557600080fd5b813560206151e5614dd983614d95565b82815260059290921b8401810191818101908684111561520457600080fd5b8286015b84811015614e1857803561521b81614d2a565b8352918301918301615208565b60ff811681146135f757600080fd5b8035614d4a81615228565b60008060008060008060c0878903121561525b57600080fd5b863561526681614d2a565b95506020878101356001600160401b038082111561528357600080fd5b61528f8b838c016151c4565b975060408a01359150808211156152a557600080fd5b508801601f81018a136152b757600080fd5b80356152c5614dd982614d95565b81815260059190911b8201830190838101908c8311156152e457600080fd5b928401925b8284101561530b5783356152fc81614ea0565b825292840192908401906152e9565b809850505050505061531f60608801615237565b925061532d60808801615237565b915060a087013590509295509295509295565b600081518084526020808501945080840160005b838110156153795781516001600160a01b031687529582019590820190600101615354565b509495945050505050565b602081526000613be06020830184615340565b6000602082840312156153a957600080fd5b8135613be081614d2a565b600080600080608085870312156153ca57600080fd5b84356153d581614d2a565b9350602085013592506040850135915060608501356001600160401b038111156153fe57600080fd5b61540a87828801614db8565b91505092959194509250565b60008083601f84011261542857600080fd5b5081356001600160401b0381111561543f57600080fd5b602083019150836020828501011115614efd57600080fd5b60008060006040848603121561546c57600080fd5b83356001600160401b038082111561548357600080fd5b61548f87838801615416565b909550935060208601359150808211156154a857600080fd5b506154b586828701615177565b9150509250925092565b600080600080608085870312156154d557600080fd5b84356001600160401b03808211156154ec57600080fd5b6154f888838901614db8565b95506020870135945060408701359350606087013591508082111561551c57600080fd5b5061540a87828801614db8565b6000806040838503121561553c57600080fd5b50508035926020909101359150565b60008060006060848603121561556057600080fd5b833561556b81614d2a565b95602085013595506040909401359392505050565b600080600080600080600080600060e08a8c03121561559e57600080fd5b89356001600160401b03808211156155b557600080fd5b6155c18d838e01615416565b909b50995060208c013591506155d682614ea0565b90975060408b0135906155e882614d2a565b90965060608b0135955060808b0135945060a08b0135935060c08b0135908082111561561357600080fd5b506156208c828d01614eb9565b915080935050809150509295985092959850929598565b60008060008060008060c0878903121561565057600080fd5b8635955060208088013595506040880135945060608801356001600160401b038082111561567d57600080fd5b6156898b838c016151c4565b955060808a013591508082111561569f57600080fd5b508801601f81018a136156b157600080fd5b80356156bf614dd982614d95565b81815260059190911b8201830190838101908c8311156156de57600080fd5b928401925b828410156156fc578335825292840192908401906156e3565b809650505050505061571060a08801614eae565b90509295509295509295565b6020808252818101527f4f776e61626c653a2063616c6c6572206973206e6f7420746865206f776e6572604082015260600190565b60006020828403121561576357600080fd5b8151613be081614ea0565b6020808252601f908201527f5265656e7472616e637947756172643a207265656e7472616e742063616c6c00604082015260600190565b634e487b7160e01b600052603260045260246000fd5b634e487b7160e01b600052601160045260246000fd5b6000828210156157e3576157e36157bb565b500390565b60208082526019908201527f42616c616e6365206973206e6f742073756666696369656e7400000000000000604082015260600190565b60006020828403121561583157600080fd5b5051919050565b6020808252601c908201527f526563656976656420616d6f756e7420696e73756666696369656e7400000000604082015260600190565b600181811c9082168061588357607f821691505b6020821081141561518a57634e487b7160e01b600052602260045260246000fd5b60006000198214156158b8576158b86157bb565b5060010190565b6001600160a01b03958616815293909416602084015260408301919091526060820152608081019190915260a00190565b600060ff821660ff84168060ff0382111561590d5761590d6157bb565b019392505050565b600060ff821660ff81141561592c5761592c6157bb565b60010192915050565b600060ff821680615948576159486157bb565b6000190192915050565b60208082526034908201527f526563656976656420616d6f756e7420686173206e6f74206d657420746865206040820152736d696e20666f7220464c4f57203220737761707360601b606082015260800190565b6000602082840312156159b857600080fd5b8151613be081615228565b6001600160a01b0384168152606060208083018290526000916159e890840186615340565b838103604085015284518082528286019183019060005b818110156150c9578351835292840192918401916001016159ff565b600060208284031215615a2d57600080fd5b8151613be081614d2a565b8183526000602080850194508260005b85811015615379578135615a5b81614d2a565b6001600160a01b031687529582019590820190600101615a48565b60018060a01b038716815285602082015284604082015283606082015260a060808201526000615aaa60a083018486615a38565b98975050505050505050565b848152836020820152606060408201526000615ad6606083018486615a38565b9695505050505050565b60008219821115615af357615af36157bb565b500190565b6000816000190483118215151615615b1257615b126157bb565b500290565b600082615b3457634e487b7160e01b600052601260045260246000fd5b500490565b6000808335601e19843603018112615b5057600080fd5b83016020810192503590506001600160401b03811115615b6f57600080fd5b8060051b3603831315614efd57600080fd5b6000808335601e19843603018112615b9857600080fd5b83016020810192503590506001600160401b03811115615bb757600080fd5b803603831315614efd57600080fd5b81835281816020850137506000828201602090810191909152601f909101601f19169091010190565b81835260006001600160fb1b03831115615c0857600080fd5b8260051b8083602087013760009401602001938452509192915050565b80356001600160801b031981168114614d4a57600080fd5b60208152615c5e60208201615c5184614d3f565b6001600160a01b03169052565b6000615c6c60208401614d3f565b6001600160a01b0381166040840152506040830135606083015260608301356080830152608083013560a0830152615ca760a0840184615b39565b6101e08060c0860152615cbf61020086018385615a38565b9250615cce60c0870187615b81565b9250601f19808786030160e0880152615ce8858584615bc6565b9450615cf760e0890189615b39565b94509150610100818887030181890152615d12868685615bef565b9550615d20818a018a615b39565b9550925050610120818887030181890152615d3c868685615bef565b9550615d49818a01614d3f565b9450506101409150615d65828801856001600160a01b03169052565b615d70828901614d3f565b93506101609150615d8b828801856001600160a01b03169052565b61018093508188013584880152615da484890189615b81565b945091506101a0818887030181890152615dbf868685615bc6565b95506101c094508089013585890152505050615ddc828701615c25565b6001600160801b0319169401939093529392505050565b6bffffffffffffffffffffffff198760601b16815285601482015283856034830137603493019283019190915260548201526074019392505050565b86815260a060208201526000615e4960a083018789615bc6565b6001600160a01b039590951660408301525060608101929092526080909101529392505050565b602081526000613be06020830184614fce565b60008251615e95818460208701614fa2565b919091019291505056feec8156718a8372b1db44bb411437d0870f3e3790d4a08526d024ce1b0b668f6ba2646970667358221220b272f33dce402899a189db0c1829bcbd54dec75f4614e94263f19e49d1d18c6964736f6c63430008090033",
  "linkReferences": {},
  "deployedLinkReferences": {}
}