{
  "_format": "hh-sol-artifact-1",
  "contractName": "SwapContract",
  "sourceName": "contracts/SwapContract.sol",
  "abi": [
    {
      "inputs": [
        {
          "internalType": "address",
          "name": "_lpToken",
          "type": "address"
        },
        {
          "internalType": "address",
          "name": "_btct",
          "type": "address"
        },
        {
          "internalType": "address",
          "name": "_wETH",
          "type": "address"
        },
        {
          "internalType": "uint256",
          "name": "_existingBTCFloat",
          "type": "uint256"
        }
      ],
      "stateMutability": "nonpayable",
      "type": "constructor"
    },
    {
      "anonymous": false,
      "inputs": [
        {
          "indexed": false,
          "internalType": "address",
          "name": "token",
          "type": "address"
        },
        {
          "indexed": false,
          "internalType": "uint256",
          "name": "amountOfLP",
          "type": "uint256"
        },
        {
          "indexed": false,
          "internalType": "uint256",
          "name": "amountOfFloat",
          "type": "uint256"
        },
        {
          "indexed": false,
          "internalType": "uint256",
          "name": "currentPriceLP",
          "type": "uint256"
        },
        {
          "indexed": false,
          "internalType": "uint256",
          "name": "withdrawal",
          "type": "uint256"
        },
        {
          "indexed": false,
          "internalType": "bytes32",
          "name": "txid",
          "type": "bytes32"
        }
      ],
      "name": "BurnLPTokensForFloat",
      "type": "event"
    },
    {
      "anonymous": false,
      "inputs": [
        {
          "indexed": false,
          "internalType": "address",
          "name": "token",
          "type": "address"
        },
        {
          "indexed": false,
          "internalType": "address",
          "name": "user",
          "type": "address"
        },
        {
          "indexed": false,
          "internalType": "uint256",
          "name": "amount",
          "type": "uint256"
        },
        {
          "indexed": false,
          "internalType": "uint256",
          "name": "balance",
          "type": "uint256"
        },
        {
          "indexed": false,
          "internalType": "uint64",
          "name": "Timestamp",
          "type": "uint64"
        }
      ],
      "name": "Deposit",
      "type": "event"
    },
    {
      "anonymous": false,
      "inputs": [
        {
          "indexed": false,
          "internalType": "uint256",
          "name": "rewardLPTsForNodes",
          "type": "uint256"
        }
      ],
      "name": "DistributeNodeRewards",
      "type": "event"
    },
    {
      "anonymous": false,
      "inputs": [
        {
          "indexed": false,
          "internalType": "address",
          "name": "to",
          "type": "address"
        },
        {
          "indexed": false,
          "internalType": "uint256",
          "name": "amountOfFloat",
          "type": "uint256"
        },
        {
          "indexed": false,
          "internalType": "uint256",
          "name": "amountOfLP",
          "type": "uint256"
        },
        {
          "indexed": false,
          "internalType": "uint256",
          "name": "currentPriceLP",
          "type": "uint256"
        },
        {
          "indexed": false,
          "internalType": "uint256",
          "name": "depositFees",
          "type": "uint256"
        },
        {
          "indexed": false,
          "internalType": "bytes32",
          "name": "txid",
          "type": "bytes32"
        }
      ],
      "name": "IssueLPTokensForFloat",
      "type": "event"
    },
    {
      "anonymous": false,
      "inputs": [
        {
          "indexed": true,
          "internalType": "address",
          "name": "previousOwner",
          "type": "address"
        },
        {
          "indexed": true,
          "internalType": "address",
          "name": "newOwner",
          "type": "address"
        }
      ],
      "name": "OwnershipTransferred",
      "type": "event"
    },
    {
      "anonymous": false,
      "inputs": [
        {
          "indexed": false,
          "internalType": "address",
          "name": "feesToken",
          "type": "address"
        },
        {
          "indexed": false,
          "internalType": "uint256",
          "name": "rewards",
          "type": "uint256"
        },
        {
          "indexed": false,
          "internalType": "uint256",
          "name": "amountLPTokensForNode",
          "type": "uint256"
        },
        {
          "indexed": false,
          "internalType": "uint256",
          "name": "currentPriceLP",
          "type": "uint256"
        }
      ],
      "name": "RewardsCollection",
      "type": "event"
    },
    {
      "anonymous": false,
      "inputs": [
        {
          "indexed": false,
          "internalType": "address",
          "name": "from",
          "type": "address"
        },
        {
          "indexed": false,
          "internalType": "address",
          "name": "to",
          "type": "address"
        },
        {
          "indexed": false,
          "internalType": "uint256",
          "name": "amount",
          "type": "uint256"
        }
      ],
      "name": "Swap",
      "type": "event"
    },
    {
      "anonymous": false,
      "inputs": [
        {
          "indexed": false,
          "internalType": "bytes32",
          "name": "swap_id",
          "type": "bytes32"
        },
        {
          "indexed": false,
          "internalType": "uint256",
          "name": "input_amount",
          "type": "uint256"
        },
        {
          "indexed": false,
          "internalType": "uint256",
          "name": "output_amount",
          "type": "uint256"
        },
        {
          "indexed": false,
          "internalType": "bytes32",
          "name": "dest_address_btc",
          "type": "bytes32"
        },
        {
          "indexed": false,
          "internalType": "uint64",
          "name": "Timestamp",
          "type": "uint64"
        },
        {
          "indexed": false,
          "internalType": "uint64",
          "name": "ExpirationTime",
          "type": "uint64"
        }
      ],
      "name": "SwapTokensToBTC",
      "type": "event"
    },
    {
      "anonymous": false,
      "inputs": [
        {
          "indexed": false,
          "internalType": "address",
          "name": "token",
          "type": "address"
        },
        {
          "indexed": false,
          "internalType": "address",
          "name": "user",
          "type": "address"
        },
        {
          "indexed": false,
          "internalType": "uint256",
          "name": "amount",
          "type": "uint256"
        },
        {
          "indexed": false,
          "internalType": "uint256",
          "name": "balance",
          "type": "uint256"
        },
        {
          "indexed": false,
          "internalType": "uint64",
          "name": "Timestamp",
          "type": "uint64"
        }
      ],
      "name": "Withdraw",
      "type": "event"
    },
    {
      "stateMutability": "nonpayable",
      "type": "fallback"
    },
    {
      "inputs": [],
      "name": "BTCT_ADDR",
      "outputs": [
        {
          "internalType": "address",
          "name": "",
          "type": "address"
        }
      ],
      "stateMutability": "view",
      "type": "function"
    },
    {
      "inputs": [
        {
          "internalType": "address",
          "name": "_token",
          "type": "address"
        },
        {
          "internalType": "address",
          "name": "_user",
          "type": "address"
        }
      ],
      "name": "balanceOf",
      "outputs": [
        {
          "internalType": "uint256",
          "name": "",
          "type": "uint256"
        }
      ],
      "stateMutability": "view",
      "type": "function"
    },
    {
      "inputs": [
        {
          "internalType": "address",
          "name": "_newOwner",
          "type": "address"
        },
        {
          "internalType": "bytes32[]",
          "name": "_rewardAddressAndAmounts",
          "type": "bytes32[]"
        },
        {
          "internalType": "bool[]",
          "name": "_isRemoved",
          "type": "bool[]"
        },
        {
          "internalType": "uint8",
          "name": "_churnedInCount",
          "type": "uint8"
        },
        {
          "internalType": "uint8",
          "name": "_tssThreshold",
          "type": "uint8"
        },
        {
          "internalType": "uint8",
          "name": "_nodeRewardsRatio",
          "type": "uint8"
        },
        {
          "internalType": "uint8",
          "name": "_withdrawalFeeBPS",
          "type": "uint8"
        }
      ],
      "name": "churn",
      "outputs": [
        {
          "internalType": "bool",
          "name": "",
          "type": "bool"
        }
      ],
      "stateMutability": "nonpayable",
      "type": "function"
    },
    {
      "inputs": [],
      "name": "churnedInCount",
      "outputs": [
        {
          "internalType": "uint8",
          "name": "",
          "type": "uint8"
        }
      ],
      "stateMutability": "view",
      "type": "function"
    },
    {
      "inputs": [
        {
          "internalType": "address",
          "name": "_destToken",
          "type": "address"
        },
        {
          "internalType": "uint256",
          "name": "_incomingAmount",
          "type": "uint256"
        },
        {
          "internalType": "uint256",
          "name": "_minerFee",
          "type": "uint256"
        },
        {
          "internalType": "uint256",
          "name": "_rewardsAmount",
          "type": "uint256"
        }
      ],
      "name": "collectSwapFeesForBTC",
      "outputs": [
        {
          "internalType": "bool",
          "name": "",
          "type": "bool"
        }
      ],
      "stateMutability": "nonpayable",
      "type": "function"
    },
    {
      "inputs": [],
      "name": "depositFeesBPS",
      "outputs": [
        {
          "internalType": "uint8",
          "name": "",
          "type": "uint8"
        }
      ],
      "stateMutability": "view",
      "type": "function"
    },
    {
      "inputs": [],
      "name": "distributeNodeRewards",
      "outputs": [
        {
          "internalType": "bool",
          "name": "",
          "type": "bool"
        }
      ],
      "stateMutability": "nonpayable",
      "type": "function"
    },
    {
      "inputs": [],
      "name": "expirationTime",
      "outputs": [
        {
          "internalType": "uint64",
          "name": "",
          "type": "uint64"
        }
      ],
      "stateMutability": "view",
      "type": "function"
    },
    {
      "inputs": [],
      "name": "feesLPTokensForNode",
      "outputs": [
        {
          "internalType": "uint256",
          "name": "",
          "type": "uint256"
        }
      ],
      "stateMutability": "view",
      "type": "function"
    },
    {
      "inputs": [],
      "name": "getActiveNodes",
      "outputs": [
        {
          "internalType": "bytes32[]",
          "name": "",
          "type": "bytes32[]"
        }
      ],
      "stateMutability": "view",
      "type": "function"
    },
    {
      "inputs": [],
      "name": "getCurrentPriceLP",
      "outputs": [
        {
          "internalType": "uint256",
          "name": "nowPrice",
          "type": "uint256"
        }
      ],
      "stateMutability": "view",
      "type": "function"
    },
    {
      "inputs": [
        {
          "internalType": "address",
          "name": "_token",
          "type": "address"
        },
        {
          "internalType": "uint256",
          "name": "_amountOfFloat",
          "type": "uint256"
        }
      ],
      "name": "getDepositFeeRate",
      "outputs": [
        {
          "internalType": "uint256",
          "name": "depositFeeRate",
          "type": "uint256"
        }
      ],
      "stateMutability": "view",
      "type": "function"
    },
    {
      "inputs": [
        {
          "internalType": "address",
          "name": "_tokenA",
          "type": "address"
        },
        {
          "internalType": "address",
          "name": "_tokenB",
          "type": "address"
        }
      ],
      "name": "getFloatReserve",
      "outputs": [
        {
          "internalType": "uint256",
          "name": "reserveA",
          "type": "uint256"
        },
        {
          "internalType": "uint256",
          "name": "reserveB",
          "type": "uint256"
        }
      ],
      "stateMutability": "view",
      "type": "function"
    },
    {
      "inputs": [],
      "name": "initialExchangeRate",
      "outputs": [
        {
          "internalType": "uint256",
          "name": "",
          "type": "uint256"
        }
      ],
      "stateMutability": "view",
      "type": "function"
    },
    {
      "inputs": [
        {
          "internalType": "bytes32",
          "name": "_txid",
          "type": "bytes32"
        }
      ],
      "name": "isTxUsed",
      "outputs": [
        {
          "internalType": "bool",
          "name": "",
          "type": "bool"
        }
      ],
      "stateMutability": "view",
      "type": "function"
    },
    {
      "inputs": [],
      "name": "lockedLPTokensForNode",
      "outputs": [
        {
          "internalType": "uint256",
          "name": "",
          "type": "uint256"
        }
      ],
      "stateMutability": "view",
      "type": "function"
    },
    {
      "inputs": [],
      "name": "lpToken",
      "outputs": [
        {
          "internalType": "address",
          "name": "",
          "type": "address"
        }
      ],
      "stateMutability": "view",
      "type": "function"
    },
    {
      "inputs": [
        {
          "internalType": "address",
          "name": "_destToken",
          "type": "address"
        },
        {
          "internalType": "bytes32[]",
          "name": "_addressesAndAmounts",
          "type": "bytes32[]"
        },
        {
          "internalType": "uint256",
          "name": "_totalSwapped",
          "type": "uint256"
        },
        {
          "internalType": "uint256",
          "name": "_rewardsAmount",
          "type": "uint256"
        },
        {
          "internalType": "bytes32[]",
          "name": "_redeemedFloatTxIds",
          "type": "bytes32[]"
        }
      ],
      "name": "multiTransferERC20TightlyPacked",
      "outputs": [
        {
          "internalType": "bool",
          "name": "",
          "type": "bool"
        }
      ],
      "stateMutability": "nonpayable",
      "type": "function"
    },
    {
      "inputs": [],
      "name": "nodeRewardsRatio",
      "outputs": [
        {
          "internalType": "uint8",
          "name": "",
          "type": "uint8"
        }
      ],
      "stateMutability": "view",
      "type": "function"
    },
    {
      "inputs": [],
      "name": "owner",
      "outputs": [
        {
          "internalType": "address",
          "name": "",
          "type": "address"
        }
      ],
      "stateMutability": "view",
      "type": "function"
    },
    {
      "inputs": [
        {
          "internalType": "address",
          "name": "_token",
          "type": "address"
        },
        {
          "internalType": "bytes32",
          "name": "_addressesAndAmountOfFloat",
          "type": "bytes32"
        },
        {
          "internalType": "bool",
          "name": "_zerofee",
          "type": "bool"
        },
        {
          "internalType": "bytes32",
          "name": "_txid",
          "type": "bytes32"
        }
      ],
      "name": "recordIncomingFloat",
      "outputs": [
        {
          "internalType": "bool",
          "name": "",
          "type": "bool"
        }
      ],
      "stateMutability": "nonpayable",
      "type": "function"
    },
    {
      "inputs": [
        {
          "internalType": "address",
          "name": "_token",
          "type": "address"
        },
        {
          "internalType": "bytes32",
          "name": "_addressesAndAmountOfLPtoken",
          "type": "bytes32"
        },
        {
          "internalType": "uint256",
          "name": "_minerFee",
          "type": "uint256"
        },
        {
          "internalType": "bytes32",
          "name": "_txid",
          "type": "bytes32"
        }
      ],
      "name": "recordOutcomingFloat",
      "outputs": [
        {
          "internalType": "bool",
          "name": "",
          "type": "bool"
        }
      ],
      "stateMutability": "nonpayable",
      "type": "function"
    },
    {
      "inputs": [
        {
          "internalType": "address",
          "name": "_destToken",
          "type": "address"
        },
        {
          "internalType": "address",
          "name": "_to",
          "type": "address"
        },
        {
          "internalType": "uint256",
          "name": "_amount",
          "type": "uint256"
        },
        {
          "internalType": "uint256",
          "name": "_totalSwapped",
          "type": "uint256"
        },
        {
          "internalType": "bytes32[]",
          "name": "_redeemedFloatTxIds",
          "type": "bytes32[]"
        }
      ],
      "name": "recordSkyPoolsTX",
      "outputs": [
        {
          "internalType": "bool",
          "name": "",
          "type": "bool"
        }
      ],
      "stateMutability": "nonpayable",
      "type": "function"
    },
    {
      "inputs": [
        {
          "internalType": "uint256",
          "name": "_minerFee",
          "type": "uint256"
        },
        {
          "internalType": "bytes32",
          "name": "_txid",
          "type": "bytes32"
        }
      ],
      "name": "recordUTXOSweepMinerFee",
      "outputs": [
        {
          "internalType": "bool",
          "name": "",
          "type": "bool"
        }
      ],
      "stateMutability": "nonpayable",
      "type": "function"
    },
    {
      "inputs": [
        {
          "internalType": "address",
          "name": "_token",
          "type": "address"
        },
        {
          "internalType": "uint256",
          "name": "_amount",
          "type": "uint256"
        }
      ],
      "name": "redeemERC20Token",
      "outputs": [
        {
          "internalType": "bool",
          "name": "",
          "type": "bool"
        }
      ],
      "stateMutability": "nonpayable",
      "type": "function"
    },
    {
      "inputs": [
        {
          "internalType": "uint256",
          "name": "_amount",
          "type": "uint256"
        }
      ],
      "name": "redeemEther",
      "outputs": [],
      "stateMutability": "payable",
      "type": "function"
    },
    {
      "inputs": [],
      "name": "renounceOwnership",
      "outputs": [],
      "stateMutability": "nonpayable",
      "type": "function"
    },
    {
      "inputs": [
        {
          "internalType": "uint64",
          "name": "_expirationTime",
          "type": "uint64"
        }
      ],
      "name": "setExpirationTime",
      "outputs": [],
      "stateMutability": "nonpayable",
      "type": "function"
    },
    {
      "inputs": [
        {
          "internalType": "address",
          "name": "_destToken",
          "type": "address"
        },
        {
          "internalType": "address",
          "name": "_to",
          "type": "address"
        },
        {
          "internalType": "uint256",
          "name": "_amount",
          "type": "uint256"
        },
        {
          "internalType": "uint256",
          "name": "_totalSwapped",
          "type": "uint256"
        },
        {
          "internalType": "uint256",
          "name": "_rewardsAmount",
          "type": "uint256"
        },
        {
          "internalType": "bytes32[]",
          "name": "_redeemedFloatTxIds",
          "type": "bytes32[]"
        }
      ],
      "name": "singleTransferERC20",
      "outputs": [
        {
          "internalType": "bool",
          "name": "",
          "type": "bool"
        }
      ],
      "stateMutability": "nonpayable",
      "type": "function"
    },
    {
      "inputs": [
        {
          "internalType": "bool",
          "name": "_fullCheck",
          "type": "bool"
        }
      ],
      "name": "spCleanUpOldSPTXs",
      "outputs": [],
      "stateMutability": "nonpayable",
      "type": "function"
    },
    {
      "inputs": [
        {
          "internalType": "address",
          "name": "_token",
          "type": "address"
        },
        {
          "internalType": "uint256",
          "name": "_amount",
          "type": "uint256"
        }
      ],
      "name": "spDeposit",
      "outputs": [],
      "stateMutability": "payable",
      "type": "function"
    },
    {
      "inputs": [],
      "name": "spGetPendingSwaps",
      "outputs": [
        {
          "components": [
            {
              "internalType": "bytes32",
              "name": "SwapID",
              "type": "bytes32"
            },
            {
              "internalType": "bytes32",
              "name": "DestAddr",
              "type": "bytes32"
            },
            {
              "internalType": "uint256",
              "name": "AmountWBTC",
              "type": "uint256"
            },
            {
              "internalType": "uint64",
              "name": "Timestamp",
              "type": "uint64"
            },
            {
              "internalType": "uint64",
              "name": "ExpirationTime",
              "type": "uint64"
            }
          ],
          "internalType": "struct SwapContract.spPendingTx[]",
          "name": "data",
          "type": "tuple[]"
        }
      ],
      "stateMutability": "view",
      "type": "function"
    },
    {
      "inputs": [
        {
          "components": [
            {
              "internalType": "address",
              "name": "fromToken",
              "type": "address"
            },
            {
              "internalType": "address",
              "name": "toToken",
              "type": "address"
            },
            {
              "internalType": "uint256",
              "name": "fromAmount",
              "type": "uint256"
            },
            {
              "internalType": "uint256",
              "name": "toAmount",
              "type": "uint256"
            },
            {
              "internalType": "uint256",
              "name": "expectedAmount",
              "type": "uint256"
            },
            {
              "internalType": "address[]",
              "name": "callees",
              "type": "address[]"
            },
            {
              "internalType": "bytes",
              "name": "exchangeData",
              "type": "bytes"
            },
            {
              "internalType": "uint256[]",
              "name": "startIndexes",
              "type": "uint256[]"
            },
            {
              "internalType": "uint256[]",
              "name": "values",
              "type": "uint256[]"
            },
            {
              "internalType": "address payable",
              "name": "beneficiary",
              "type": "address"
            },
            {
              "internalType": "address payable",
              "name": "partner",
              "type": "address"
            },
            {
              "internalType": "uint256",
              "name": "feePercent",
              "type": "uint256"
            },
            {
              "internalType": "bytes",
              "name": "permit",
              "type": "bytes"
            },
            {
              "internalType": "uint256",
              "name": "deadline",
              "type": "uint256"
            },
            {
              "internalType": "bytes16",
              "name": "uuid",
              "type": "bytes16"
            }
          ],
          "internalType": "struct Utils.SimpleData",
          "name": "_data",
          "type": "tuple"
        }
      ],
      "name": "spParaSwapBTC2Token",
      "outputs": [],
      "stateMutability": "payable",
      "type": "function"
    },
    {
      "inputs": [
        {
          "internalType": "bytes32",
          "name": "_destinationAddressForBTC",
          "type": "bytes32"
        },
        {
          "components": [
            {
              "internalType": "address",
              "name": "fromToken",
              "type": "address"
            },
            {
              "internalType": "address",
              "name": "toToken",
              "type": "address"
            },
            {
              "internalType": "uint256",
              "name": "fromAmount",
              "type": "uint256"
            },
            {
              "internalType": "uint256",
              "name": "toAmount",
              "type": "uint256"
            },
            {
              "internalType": "uint256",
              "name": "expectedAmount",
              "type": "uint256"
            },
            {
              "internalType": "address[]",
              "name": "callees",
              "type": "address[]"
            },
            {
              "internalType": "bytes",
              "name": "exchangeData",
              "type": "bytes"
            },
            {
              "internalType": "uint256[]",
              "name": "startIndexes",
              "type": "uint256[]"
            },
            {
              "internalType": "uint256[]",
              "name": "values",
              "type": "uint256[]"
            },
            {
              "internalType": "address payable",
              "name": "beneficiary",
              "type": "address"
            },
            {
              "internalType": "address payable",
              "name": "partner",
              "type": "address"
            },
            {
              "internalType": "uint256",
              "name": "feePercent",
              "type": "uint256"
            },
            {
              "internalType": "bytes",
              "name": "permit",
              "type": "bytes"
            },
            {
              "internalType": "uint256",
              "name": "deadline",
              "type": "uint256"
            },
            {
              "internalType": "bytes16",
              "name": "uuid",
              "type": "bytes16"
            }
          ],
          "internalType": "struct Utils.SimpleData",
          "name": "_data",
          "type": "tuple"
        }
      ],
      "name": "spParaSwapToken2BTC",
      "outputs": [],
      "stateMutability": "payable",
      "type": "function"
    },
    {
      "inputs": [
        {
          "internalType": "uint256",
          "name": "",
          "type": "uint256"
        }
      ],
      "name": "spPendingTXs",
      "outputs": [
        {
          "internalType": "bytes32",
          "name": "SwapID",
          "type": "bytes32"
        },
        {
          "internalType": "bytes32",
          "name": "DestAddr",
          "type": "bytes32"
        },
        {
          "internalType": "uint256",
          "name": "AmountWBTC",
          "type": "uint256"
        },
        {
          "internalType": "uint64",
          "name": "Timestamp",
          "type": "uint64"
        },
        {
          "internalType": "uint64",
          "name": "ExpirationTime",
          "type": "uint64"
        }
      ],
      "stateMutability": "view",
      "type": "function"
    },
    {
      "inputs": [
        {
          "internalType": "address",
          "name": "",
          "type": "address"
        },
        {
          "internalType": "address",
          "name": "",
          "type": "address"
        }
      ],
      "name": "tokens",
      "outputs": [
        {
          "internalType": "uint256",
          "name": "",
          "type": "uint256"
        }
      ],
      "stateMutability": "view",
      "type": "function"
    },
    {
      "inputs": [
        {
          "internalType": "address",
          "name": "newOwner",
          "type": "address"
        }
      ],
      "name": "transferOwnership",
      "outputs": [],
      "stateMutability": "nonpayable",
      "type": "function"
    },
    {
      "inputs": [],
      "name": "tssThreshold",
      "outputs": [
        {
          "internalType": "uint8",
          "name": "",
          "type": "uint8"
        }
      ],
      "stateMutability": "view",
      "type": "function"
    },
    {
      "inputs": [],
      "name": "wETH",
      "outputs": [
        {
          "internalType": "address",
          "name": "",
          "type": "address"
        }
      ],
      "stateMutability": "view",
      "type": "function"
    },
    {
      "inputs": [
        {
          "internalType": "address",
          "name": "",
          "type": "address"
        }
      ],
      "name": "whitelist",
      "outputs": [
        {
          "internalType": "bool",
          "name": "",
          "type": "bool"
        }
      ],
      "stateMutability": "view",
      "type": "function"
    },
    {
      "inputs": [],
      "name": "withdrawalFeeBPS",
      "outputs": [
        {
          "internalType": "uint8",
          "name": "",
          "type": "uint8"
        }
      ],
      "stateMutability": "view",
      "type": "function"
    },
    {
      "stateMutability": "payable",
      "type": "receive"
    }
  ],
  "bytecode": "0x6101206040523480156200001257600080fd5b50604051620054f3380380620054f3833981016040819052620000359162000347565b6200004033620002da565b60018055600280546001600160401b03191662093a801790556000600581905560049081556001600160a01b0380841661010052851660a08190526040805163313ce56760e01b81529051919263313ce567928282019260209290829003018186803b158015620000b057600080fd5b505afa158015620000c5573d6000803e3d6000fd5b505050506040513d601f19601f82011682018060405250810190620000eb919062000399565b620000f890600a620004da565b60e0526001600160a01b03831660808190526007805464ffffff000019166414324200001790556040805163313ce56760e01b815290516008929163313ce567916004808301926020929190829003018186803b1580156200015957600080fd5b505afa1580156200016e573d6000803e3d6000fd5b505050506040513d601f19601f8201168201806040525081019062000194919062000399565b620001a09190620004eb565b620001ad90600a620004da565b60c08181525050836001600160a01b031663313ce5676040518163ffffffff1660e01b815260040160206040518083038186803b158015620001ee57600080fd5b505afa15801562000203573d6000803e3d6000fd5b505050506040513d601f19601f8201168201806040525081019062000229919062000399565b6200023690600a620004da565b600a556000600881905560098190556001600160a01b039384168152600660209081526040808320805460ff199081166001908117909255979096168352822080548716861790559080527f54cdd369e4e8a8515e52ca72ec816c2101831ad1f18bf44102ed171459c9b4f8805490951690931790935550600b90527fdf7de25b7f1fd6d0b5205f0e18f1f35bd7b8d84cce336588d184533ce43a6f765562000511565b600080546001600160a01b038381166001600160a01b0319831681178455604051919092169283917f8be0079c531659141344cd1fd0a4f28419497f9722a3daafe3b4186f6b6457e09190a35050565b80516001600160a01b03811681146200034257600080fd5b919050565b600080600080608085870312156200035e57600080fd5b62000369856200032a565b935062000379602086016200032a565b925062000389604086016200032a565b6060959095015193969295505050565b600060208284031215620003ac57600080fd5b815160ff81168114620003be57600080fd5b9392505050565b634e487b7160e01b600052601160045260246000fd5b600181815b808511156200041c578160001904821115620004005762000400620003c5565b808516156200040e57918102915b93841c9390800290620003e0565b509250929050565b6000826200043557506001620004d4565b816200044457506000620004d4565b81600181146200045d5760028114620004685762000488565b6001915050620004d4565b60ff8411156200047c576200047c620003c5565b50506001821b620004d4565b5060208310610133831016604e8410600b8410161715620004ad575081810a620004d4565b620004b98383620003db565b8060001904821115620004d057620004d0620003c5565b0290505b92915050565b6000620003be60ff84168362000424565b600060ff821660ff841680821015620005085762000508620003c5565b90039392505050565b60805160a05160c05160e05161010051614e4d620006a6600039600081816102590152818161082701528181611a8b01528181611ae701528181611b5401528181611ba301528181611c16015281816123fc0152818161247601526124bf0152600081816111c701528181613329015281816135a30152613b960152600061345c01526000818161058b01528181610d3c01528181610d770152818161111301528181611d9301528181611dce0152818161263d01528181612678015281816127de0152818161287101528181613218015281816138270152613c0a0152600081816103400152818161092c0152818161097701528181610ce801528181610d1a01528181611048015281816110e7015281816119ea01528181611a2c01528181611d3f01528181611d7101528181611ffc01528181612297015281816125e90152818161261b01528181612a8401528181612aca01528181612baa01528181612bf00152818161341e015281816136870152818161371e015281816137ce01528181613932015261397f0152614e4d6000f3fe6080604052600436106102495760003560e01c80636d019f3511610139578063ca0707e7116100b6578063ec4827291161007a578063ec482729146107c0578063f1d32372146107f5578063f242862114610815578063f2fde38b14610849578063f7824bc714610869578063f7888aec1461087f57610288565b8063ca0707e714610710578063d6b2779a14610723578063da284dcc14610743578063e6ca20841461077b578063e9e9bf6a146107ab57610288565b80639b19251a116100fd5780639b19251a1461066b578063ad289e761461069b578063b59b54c3146106bb578063b6268e5d146106ce578063c810a539146106f057610288565b80636d019f35146105ef578063715018a6146106055780638006cc3e1461061a5780638535490f1461063a5780638da5cb5b1461064d57610288565b80633b6fa127116101c7578063508493bc1161018b578063508493bc146105215780635fc2598c146105595780635fcbd2851461057957806363f289d9146105ad5780636b51e919146105cd57610288565b80633b6fa1271461048b57806342419255146104ab57806345137e27146104cc5780634db75485146104e15780634e54cee01461050157610288565b806312d1441e1161020e57806312d1441e1461037a5780631ab7e9371461039957806320199e99146104255780632586c562146104475780632d55282d1461046757610288565b806289356f1461029a57806308f6263b146102cb5780630b68134d146102de5780630d63aca7146102fe5780630f9094861461032e57610288565b3661028857336001600160a01b037f0000000000000000000000000000000000000000000000000000000000000000161461028657610286614196565b005b34801561029457600080fd5b50600080fd5b3480156102a657600080fd5b506007546102b49060ff1681565b60405160ff90911681526020015b60405180910390f35b6102866102d93660046141bf565b6108c5565b3480156102ea57600080fd5b506007546102b49062010000900460ff1681565b34801561030a57600080fd5b5061031e6103193660046142fe565b610c50565b60405190151581526020016102c2565b34801561033a57600080fd5b506103627f000000000000000000000000000000000000000000000000000000000000000081565b6040516001600160a01b0390911681526020016102c2565b34801561038657600080fd5b506007546102b490610100900460ff1681565b3480156103a557600080fd5b506103f16103b436600461437b565b60036020819052600091825260409091208054600182015460028301549290930154909291906001600160401b0380821691600160401b90041685565b604080519586526020860194909452928401919091526001600160401b03908116606084015216608082015260a0016102c2565b34801561043157600080fd5b5061043a610dc3565b6040516102c29190614394565b34801561045357600080fd5b5061031e610462366004614411565b610f2a565b34801561047357600080fd5b5061047d60085481565b6040519081526020016102c2565b34801561049757600080fd5b5061047d6104a636600461444c565b61102b565b3480156104b757600080fd5b506007546102b4906301000000900460ff1681565b3480156104d857600080fd5b5061047d6110db565b3480156104ed57600080fd5b5061031e6104fc36600461444c565b61120d565b34801561050d57600080fd5b5061031e61051c366004614497565b611346565b34801561052d57600080fd5b5061047d61053c3660046145ae565b601060209081526000928352604080842090915290825290205481565b34801561056557600080fd5b506102866105743660046145e7565b6116b8565b34801561058557600080fd5b506103627f000000000000000000000000000000000000000000000000000000000000000081565b3480156105b957600080fd5b5061031e6105c8366004614610565b611705565b3480156105d957600080fd5b506105e26117a5565b6040516102c29190614658565b3480156105fb57600080fd5b5061047d600a5481565b34801561061157600080fd5b50610286611930565b34801561062657600080fd5b5061031e610635366004614411565b611966565b61028661064836600461437b565b611a81565b34801561065957600080fd5b506000546001600160a01b0316610362565b34801561067757600080fd5b5061031e61068636600461469c565b60066020526000908152604090205460ff1681565b3480156106a757600080fd5b5061031e6106b63660046146b9565b611ca7565b6102866106c9366004614742565b611e6b565b3480156106da57600080fd5b506007546102b490640100000000900460ff1681565b3480156106fc57600080fd5b5061031e61070b366004614776565b612162565b61028661071e36600461444c565b612266565b34801561072f57600080fd5b5061031e61073e366004614798565b612551565b34801561074f57600080fd5b50600254610763906001600160401b031681565b6040516001600160401b0390911681526020016102c2565b34801561078757600080fd5b5061031e61079636600461437b565b6000908152600c602052604090205460ff1690565b3480156107b757600080fd5b5061031e6126de565b3480156107cc57600080fd5b506107e06107db3660046145ae565b6129d0565b604080519283526020830191909152016102c2565b34801561080157600080fd5b50610286610810366004614800565b6129fa565b34801561082157600080fd5b506103627f000000000000000000000000000000000000000000000000000000000000000081565b34801561085557600080fd5b5061028661086436600461469c565b612c72565b34801561087557600080fd5b5061047d60095481565b34801561088b57600080fd5b5061047d61089a3660046145ae565b6001600160a01b03918216600090815260106020908152604080832093909416825291909152205490565b6002600154141561091d5760405162461bcd60e51b815260206004820152601f60248201527f5265656e7472616e637947756172643a207265656e7472616e742063616c6c0060448201526064015b60405180910390fd5b60026001556001600160a01b037f000000000000000000000000000000000000000000000000000000000000000016610959602083018361469c565b6001600160a01b0316141561096d57600080fd5b6001600160a01b037f0000000000000000000000000000000000000000000000000000000000000000166109a7604083016020840161469c565b6001600160a01b0316146109f65760405162461bcd60e51b815260206004820152601660248201527526bab9ba1039bbb0b8103a3790212a21903a37b5b2b760511b6044820152606401610914565b30610a096101408301610120840161469c565b6001600160a01b031614610a855760405162461bcd60e51b815260206004820152603c60248201527f596f752063616e206f6e6c79206578656375746520666c6f772032207377617060448201527f7320746f207468697320636f6e747261637427732061646472657373000000006064820152608401610914565b604081013560106000610a9b602085018561469c565b6001600160a01b03168152602080820192909252604090810160009081203382529092529020541015610b0c5760405162461bcd60e51b815260206004820152601960248201527810985b185b98d9481a5cc81b9bdd081cdd59999a58da595b9d603a1b6044820152606401610914565b610b52604082013560106000610b25602086018661469c565b6001600160a01b031681526020808201929092526040908101600090812033825290925290205490612d0d565b60106000610b63602085018561469c565b6001600160a01b0316815260208082019290925260409081016000908120338252909252812091909155610b9682612d20565b9050610bdd8160106000610bb0604087016020880161469c565b6001600160a01b031681526020808201929092526040908101600090812030825290925290205490612f94565b60106000610bf1604086016020870161469c565b6001600160a01b03166001600160a01b031681526020019081526020016000206000306001600160a01b03166001600160a01b0316815260200190815260200160002081905550610c4783828460400135612fa0565b50506001805550565b600080546001600160a01b03163314610c7b5760405162461bcd60e51b81526004016109149061481d565b6001600160a01b03871660009081526006602052604090205460ff16610cb35760405162461bcd60e51b815260040161091490614852565b6001600160a01b038716610cd95760405162461bcd60e51b815260040161091490614889565b60008415610d1257610d0d60007f000000000000000000000000000000000000000000000000000000000000000087613120565b610d3a565b84610d3a57507f00000000000000000000000000000000000000000000000000000000000000005b7f00000000000000000000000000000000000000000000000000000000000000006001600160a01b0316886001600160a01b03161415610d9757507f00000000000000000000000000000000000000000000000000000000000000005b610da1818561320d565b610daa836133b8565b610db588888861341c565b506001979650505050505050565b60606000610dde600554600454612d0d90919063ffffffff16565b6001600160401b03811115610df557610df561422a565b604051908082528060200260200182016040528015610e4e57816020015b6040805160a081018252600080825260208083018290529282018190526060820181905260808201528252600019909201910181610e135790505b5091506000610e696001600554612f9490919063ffffffff16565b90505b6004548111610f255760036000610e8e60055485612f9490919063ffffffff16565b81526020808201929092526040908101600020815160a08101835281548152600182015493810193909352600281015491830191909152600301546001600160401b038082166060840152600160401b9091041660808201528351849084908110610efb57610efb6148cc565b6020908102919091010152610f11826001612f94565b915080610f1d816148f8565b915050610e6c565b505090565b600080546001600160a01b03163314610f555760405162461bcd60e51b81526004016109149061481d565b6000610f5f6110db565b6001600160a01b03871660009081526006602052604090205490915060ff16610fbe5760405162461bcd60e51b815260206004820152601160248201527017dd1bdad95b881a5cc81a5b9d985b1a59607a1b6044820152606401610914565b610fca8686868661350e565b610fd357600080fd5b6001915080610fe06110db565b10156110225760405162461bcd60e51b8152602060048201526011602482015270496e76616c6964204c505420707269636560781b6044820152606401610914565b50949350505050565b6000806110388484613926565b90508060ff166001141561109e577f00000000000000000000000000000000000000000000000000000000000000006001600160a01b0316846001600160a01b031614611086576000611094565b6007546301000000900460ff165b60ff1691506110d4565b8060ff16600214156110d4576001600160a01b038416156110c05760006110ce565b6007546301000000900460ff165b60ff1691505b5092915050565b600080600061110b60007f00000000000000000000000000000000000000000000000000000000000000006129d0565b9150915060007f00000000000000000000000000000000000000000000000000000000000000006001600160a01b03166318160ddd6040518163ffffffff1660e01b815260040160206040518083038186803b15801561116a57600080fd5b505afa15801561117e573d6000803e3d6000fd5b505050506040513d601f19601f820116820180604052508101906111a29190614913565b90508015611201576111fc6111c260085483612f9490919063ffffffff16565b6111f67f00000000000000000000000000000000000000000000000000000000000000006111f08787612f94565b90613a15565b90613a21565b611205565b600a545b935050505090565b6001600160a01b03821660009081526010602090815260408083203384529091528120548211156112775760405162461bcd60e51b8152602060048201526014602482015273496e73756666696369656e742042616c616e636560601b6044820152606401610914565b6001600160a01b03831660009081526010602090815260408083203384529091529020546112a59083612d0d565b6001600160a01b0384166000908152601060209081526040808320338085529252909120919091556112d99084908461341c565b6001600160a01b0383166000908152601060209081526040808320338085529252918290205491517fa18aad4f3df1c25f586d15219e8ad9041bcad37190737f03e392dfca0d5720209261133492879290918791429061492c565b60405180910390a15060015b92915050565b600080546001600160a01b031633146113715760405162461bcd60e51b81526004016109149061481d565b60075460ff610100909104811690851610801590611393575060ff8460ff1611155b6113ef5760405162461bcd60e51b815260206004820152602760248201527f5f7473735468726573686f6c642073686f756c64206265203e3d2074737354686044820152661c995cda1bdb1960ca1b6064820152608401610914565b6113fa600185614965565b60ff168560ff1610156114445760405162461bcd60e51b81526020600482015260126024820152716e2073686f756c64206265203e3d20742b3160701b6044820152606401610914565b60648360ff1611156114985760405162461bcd60e51b815260206004820152601e60248201527f5f6e6f646552657761726473526174696f206973206e6f742076616c696400006044820152606401610914565b60648260ff1611156114ec5760405162461bcd60e51b815260206004820152601c60248201527f5f7769746864726177616c46656542505320697320696e76616c6964000000006044820152606401610914565b85518751146115635760405162461bcd60e51b815260206004820152603b60248201527f5f72657761726441646472657373416e64416d6f756e747320616e64205f697360448201527f52656d6f766564206c656e677468206973206e6f74206d6174636800000000006064820152608401610914565b61156c88612c72565b60005b87518110156115f55760006115a089838151811061158f5761158f6148cc565b60200260200101519060a082901c90565b5090506115e0818a84815181106115b9576115b96148cc565b60200260200101518a85815181106115d3576115d36148cc565b6020026020010151613a2d565b505080806115ed906148f8565b91505061156f565b5060006116006117a5565b905060648151111561165e5760405162461bcd60e51b815260206004820152602160248201527f53746f726564206e6f64652073697a652073686f756c64206265203c3d2031306044820152600360fc1b6064820152608401610914565b50506007805460ff8381166401000000000264ff000000001986831662010000021664ff00ff0000198884166101000261ffff19909516938a16939093179390931791909116919091171790556001979650505050505050565b6000546001600160a01b031633146116e25760405162461bcd60e51b81526004016109149061481d565b6002805467ffffffffffffffff19166001600160401b0392909216919091179055565b600080546001600160a01b031633146117305760405162461bcd60e51b81526004016109149061481d565b600061173a6110db565b6001600160a01b03871660009081526006602052604090205490915060ff166117995760405162461bcd60e51b815260206004820152601160248201527017dd1bdad95b881a5cc81a5b9d985b1a59607a1b6044820152606401610914565b610fca86868686613afc565b606060008060005b600f5481101561181857600d6000600f83815481106117ce576117ce6148cc565b60009182526020808320909101546001600160a01b031683528201929092526040019020541561180657611803836001612f94565b92505b80611810816148f8565b9150506117ad565b506000826001600160401b038111156118335761183361422a565b60405190808252806020026020018201604052801561185c578160200160208202803683370190505b50905060005b600f5481101561192857600d6000600f8381548110611883576118836148cc565b60009182526020808320909101546001600160a01b031683528201929092526040019020541561191657600d6000600f83815481106118c4576118c46148cc565b60009182526020808320909101546001600160a01b0316835282019290925260400190205482518390859081106118fd576118fd6148cc565b6020908102919091010152611913836001612f94565b92505b80611920816148f8565b915050611862565b509392505050565b6000546001600160a01b0316331461195a5760405162461bcd60e51b81526004016109149061481d565b6119646000613d4c565b565b600080546001600160a01b031633146119915760405162461bcd60e51b81526004016109149061481d565b6001600160a01b038516156119e85760405162461bcd60e51b815260206004820152601f60248201527f5f64657374546f6b656e2073686f756c642062652061646472657373283029006044820152606401610914565b7f00000000000000000000000000000000000000000000000000000000000000008415611a62576000611a2585611a1f8887612d0d565b90612d0d565b9050611a5c7f00000000000000000000000000000000000000000000000000000000000000006000611a578489612f94565b613120565b50611a6b565b84611a6b575060005b611a75818461320d565b50600195945050505050565b6001600160a01b037f0000000000000000000000000000000000000000000000000000000000000000166000908152601060209081526040808320338452909152902054811115611ad157600080fd5b604051632e1a7d4d60e01b8152600481018290527f00000000000000000000000000000000000000000000000000000000000000006001600160a01b031690632e1a7d4d90602401600060405180830381600087803b158015611b3357600080fd5b505af1158015611b47573d6000803e3d6000fd5b5050506001600160a01b037f0000000000000000000000000000000000000000000000000000000000000000166000908152601060209081526040808320338452909152902054611b99915082612d0d565b6001600160a01b037f0000000000000000000000000000000000000000000000000000000000000000166000908152601060209081526040808320338085529252808320939093559151829184156108fc02918591818181858888f19350505050158015611c0b573d6000803e3d6000fd5b506001600160a01b037f0000000000000000000000000000000000000000000000000000000000000000166000908152601060209081526040808320338085529252918290205491517fa18aad4f3df1c25f586d15219e8ad9041bcad37190737f03e392dfca0d57202092611c9b9273eeeeeeeeeeeeeeeeeeeeeeeeeeeeeeeeeeeeeeee9290918791429061492c565b60405180910390a15050565b600080546001600160a01b03163314611cd25760405162461bcd60e51b81526004016109149061481d565b6001600160a01b03861660009081526006602052604090205460ff16611d0a5760405162461bcd60e51b815260040161091490614852565b6001600160a01b038616611d305760405162461bcd60e51b815260040161091490614889565b60008415611d6957611d6460007f000000000000000000000000000000000000000000000000000000000000000087613120565b611d91565b84611d9157507f00000000000000000000000000000000000000000000000000000000000000005b7f00000000000000000000000000000000000000000000000000000000000000006001600160a01b0316876001600160a01b03161415611dee57507f00000000000000000000000000000000000000000000000000000000000000005b611df8818561320d565b611e01836133b8565b60005b8651811015610db557611e5988888381518110611e2357611e236148cc565b602002602001015160001c898481518110611e4057611e406148cc565b602002602001015160a01c6001600160601b031661341c565b80611e63816148f8565b915050611e04565b60026001541415611ebe5760405162461bcd60e51b815260206004820152601f60248201527f5265656e7472616e637947756172643a207265656e7472616e742063616c6c006044820152606401610914565b600260015533611ed66101408301610120840161469c565b6001600160a01b031614611f435760405162461bcd60e51b815260206004820152602e60248201527f596f752063616e206f6e6c79206578656375746520737761707320746f20796f60448201526d7572206f776e206164647265737360901b6064820152608401610914565b604081013560106000611f59602085018561469c565b6001600160a01b031681526020810191909152604001600090812090611f876101408501610120860161469c565b6001600160a01b03166001600160a01b03168152602001908152602001600020541015611ff25760405162461bcd60e51b815260206004820152601960248201527810985b185b98d9481a5cc81b9bdd081cdd59999a58da595b9d603a1b6044820152606401610914565b6001600160a01b037f000000000000000000000000000000000000000000000000000000000000000016612029602083018361469c565b6001600160a01b0316146120915760405162461bcd60e51b815260206004820152602960248201527f66726f6d546f6b656e206d7573742062652074686520726571756972656420426044820152682a21ba103a37b5b2b760b91b6064820152608401610914565b61209a81612d20565b506121026040820135601060006120b4602086018661469c565b6001600160a01b0316815260208101919091526040016000908120906120e26101408601610120870161469c565b6001600160a01b0316815260208101919091526040016000205490612d0d565b60106000612113602085018561469c565b6001600160a01b0316815260208101919091526040016000908120906121416101408501610120860161469c565b6001600160a01b031681526020810191909152604001600020555060018055565b600080546001600160a01b0316331461218d5760405162461bcd60e51b81526004016109149061481d565b6000828152600c602052604090205460ff16156121bc5760405162461bcd60e51b81526004016109149061498a565b60408051808201909152601d81527f42544320666c6f617420616d6f756e7420696e73756666696369656e7400000060208083019190915260008052600b90527fdf7de25b7f1fd6d0b5205f0e18f1f35bd7b8d84cce336588d184533ce43a6f7654612229918590613d9c565b60008052600b6020527fdf7de25b7f1fd6d0b5205f0e18f1f35bd7b8d84cce336588d184533ce43a6f765561225d82613dc8565b50600192915050565b346123ed576001600160a01b03821673eeeeeeeeeeeeeeeeeeeeeeeeeeeeeeeeeeeeeeee141561229557600080fd5b7f00000000000000000000000000000000000000000000000000000000000000006001600160a01b0316826001600160a01b031614156122d457600080fd5b6040516323b872dd60e01b8152336004820152306024820152604481018290526001600160a01b038316906323b872dd90606401602060405180830381600087803b15801561232257600080fd5b505af1158015612336573d6000803e3d6000fd5b505050506040513d601f19601f8201168201806040525081019061235a91906149c1565b61236357600080fd5b6001600160a01b03821660009081526010602090815260408083203384529091529020546123919082612f94565b6001600160a01b03831660009081526010602090815260408083203380855292529182902083905590517e49aea40334a6f2a95ad85659f2ca28a1c97bc8e4dd014df3c493eb6f59bb7e92611c9b92869290918691429061492c565b600034116123fa57600080fd5b7f00000000000000000000000000000000000000000000000000000000000000006001600160a01b031663d0e30db0346040518263ffffffff1660e01b81526004016000604051808303818588803b15801561245557600080fd5b505af1158015612469573d6000803e3d6000fd5b5050506001600160a01b037f00000000000000000000000000000000000000000000000000000000000000001660009081526010602090815260408083203384529091529020546124bd9250905034612f94565b7f00000000000000000000000000000000000000000000000000000000000000006001600160a01b031660009081526010602090815260408083203380855292529182902083905590517e49aea40334a6f2a95ad85659f2ca28a1c97bc8e4dd014df3c493eb6f59bb7e92611c9b9273eeeeeeeeeeeeeeeeeeeeeeeeeeeeeeeeeeeeeeee9290913491429061492c565b5050565b600080546001600160a01b0316331461257c5760405162461bcd60e51b81526004016109149061481d565b6001600160a01b03861660009081526006602052604090205460ff166125b45760405162461bcd60e51b815260040161091490614852565b6001600160a01b0386166125da5760405162461bcd60e51b815260040161091490614889565b600083156126135761260e60007f000000000000000000000000000000000000000000000000000000000000000086613120565b61263b565b8361263b57507f00000000000000000000000000000000000000000000000000000000000000005b7f00000000000000000000000000000000000000000000000000000000000000006001600160a01b0316876001600160a01b0316141561269857507f00000000000000000000000000000000000000000000000000000000000000005b6126a28786613de3565b6126ab836133b8565b505050506001600160a01b0392831660009081526010602090815260408083209490951682529290925291902055600190565b6000806126f8600954600854612f9490919063ffffffff16565b9050600081116127585760405162461bcd60e51b815260206004820152602560248201527f746f74616c5265776172644c5073466f724e6f6465206973206e6f7420706f73604482015264697469766560d81b6064820152608401610914565b60006127626117a5565b90506000805b82518110156127bd576127a9838281518110612786576127866148cc565b602002602001015160a01c6001600160601b031683612f9490919063ffffffff16565b9150806127b5816148f8565b915050612768565b506008546040516340c10f1960e01b815230600482015260248101919091527f00000000000000000000000000000000000000000000000000000000000000006001600160a01b0316906340c10f1990604401602060405180830381600087803b15801561282a57600080fd5b505af115801561283e573d6000803e3d6000fd5b505050506040513d601f19601f8201168201806040525081019061286291906149c1565b5060005b8251811015612988577f00000000000000000000000000000000000000000000000000000000000000006001600160a01b031663a9059cbb8483815181106128b0576128b06148cc565b602002602001015160001c6128f7856111f68887815181106128d4576128d46148cc565b602002602001015160a01c6001600160601b03168a613a1590919063ffffffff16565b6040516001600160e01b031960e085901b1681526001600160a01b0390921660048301526024820152604401602060405180830381600087803b15801561293d57600080fd5b505af1158015612951573d6000803e3d6000fd5b505050506040513d601f19601f8201168201806040525081019061297591906149c1565b5080612980816148f8565b915050612866565b506040518381527f86dd6ae252e62228b47b3c1a12762cbf634952b2d29319b04f4f72fb153bcbdd9060200160405180910390a1505060006008819055600955506001919050565b6001600160a01b039182166000908152600b60205260408082205492909316815291909120549091565b6000546001600160a01b03163314612a245760405162461bcd60e51b81526004016109149061481d565b428115612b515760005b600454811015612b4c57600081815260036020819052604090912001546001600160401b03808416600160401b909204161015612b3a576000818152600360209081526040808320600201546001600160a01b037f00000000000000000000000000000000000000000000000000000000000000001684526010835281842030855290925290912054612ac091612d0d565b6001600160a01b037f00000000000000000000000000000000000000000000000000000000000000001660009081526010602090815260408083203084528252808320939093558382526003908190529181208181556001810182905560028101919091550180546001600160801b031916905560058190555b80612b44816148f8565b915050612a2e565b505050565b6005545b6004548111612b4c57600081815260036020819052604090912001546001600160401b03808416600160401b909204161015612c60576000818152600360209081526040808320600201546001600160a01b037f00000000000000000000000000000000000000000000000000000000000000001684526010835281842030855290925290912054612be691612d0d565b6001600160a01b037f00000000000000000000000000000000000000000000000000000000000000001660009081526010602090815260408083203084528252808320939093558382526003908190529181208181556001810182905560028101919091550180546001600160801b031916905560058190555b80612c6a816148f8565b915050612b55565b6000546001600160a01b03163314612c9c5760405162461bcd60e51b81526004016109149061481d565b6001600160a01b038116612d015760405162461bcd60e51b815260206004820152602660248201527f4f776e61626c653a206e6577206f776e657220697320746865207a65726f206160448201526564647265737360d01b6064820152608401610914565b612d0a81613d4c565b50565b6000612d1982846149de565b9392505050565b600073eeeeeeeeeeeeeeeeeeeeeeeeeeeeeeeeeeeeeeee612d44602084018461469c565b6001600160a01b03161415612d935760405162461bcd60e51b815260206004820152601560248201527455736520706174682077455448202d3e207742544360581b6044820152606401610914565b73eeeeeeeeeeeeeeeeeeeeeeeeeeeeeeeeeeeeeeee612db8604084016020850161469c565b6001600160a01b03161415612e075760405162461bcd60e51b81526020600482015260156024820152740aae6ca40e0c2e8d040ee84a886405a7c40ee8aa89605b1b6044820152606401610914565b600073def171fe48cf0115b1d80b88dc8eab59176fee576001600160a01b031663d2c4b5986040518163ffffffff1660e01b815260040160206040518083038186803b158015612e5657600080fd5b505afa158015612e6a573d6000803e3d6000fd5b505050506040513d601f19601f82011682018060405250810190612e8e91906149f5565b9050612eb6816040850135612ea6602087018761469c565b6001600160a01b03169190613e40565b6040516354e3f31b60e01b815273def171fe48cf0115b1d80b88dc8eab59176fee57906354e3f31b90612eed908690600401614b66565b602060405180830381600087803b158015612f0757600080fd5b505af1158015612f1b573d6000803e3d6000fd5b505050506040513d601f19601f82011682018060405250810190612f3f9190614913565b915081612f8e5760405162461bcd60e51b815260206004820152601c60248201527f526563656976656420616d6f756e742063616e206e6f742062652030000000006044820152606401610914565b50919050565b6000612d198284614d1c565b600454604080516020810192909252810184905260608101839052608081018290524260a082015260009060c00160408051601f19818403018152828252805160209182012060a0840183528084529083018790529082018590526001600160401b0342818116606085015260025492945060808401926130219216612f94565b6001600160401b039081169091526004805460009081526003602081815260409283902086518155908601516001808301919091559286015160028201556060860151910180546080909601518516600160401b026001600160801b03199096169190941617939093179091555461309891612f94565b6004556002547fbe446e20bd9077bc07149c6f265413421e008c69812d44956a9731723101b43d90829084908690889042906130de9082906001600160401b0316612f94565b6040805196875260208701959095529385019290925260608401526001600160401b0390811660808401521660a082015260c00160405180910390a150505050565b60408051808201825260208082527f5f737761703a20666c6f617420616d6f756e7420696e73756666696369656e74818301526001600160a01b0385166000908152600b9091529190912054613177918390613d9c565b6001600160a01b038084166000908152600b602052604080822093909355908516815220546131a69082612f94565b6001600160a01b038481166000818152600b60209081526040918290209490945580519182529185169281019290925281018290527fea368a40e9570069bb8e6511d668293ad2e1f03b0d982431fd223de9f3b70ca69060600160405180910390a1505050565b80613216575050565b7f00000000000000000000000000000000000000000000000000000000000000006001600160a01b0316826001600160a01b031614156132b15760095461325d9082612f94565b600955604080516001600160a01b038416815260208101839052600091810182905260608101919091527fe3debe835f6848edc082b32a1d729781d3bfcd7e14422d80bcaa6794d3816b2f90608001611c9b565b60006132bb6110db565b6001600160a01b0384166000908152600b60205260409020549091506132e19083612f94565b6001600160a01b0384166000908152600b602052604081209190915560075461331b906064906111f690869062010000900460ff16613a15565b9050600061334d836111f6847f0000000000000000000000000000000000000000000000000000000000000000613a15565b60085490915061335d9082612f94565b600855604080516001600160a01b038716815260208101869052908101829052606081018490527fe3debe835f6848edc082b32a1d729781d3bfcd7e14422d80bcaa6794d3816b2f9060800160405180910390a15050505050565b60005b815181101561254d576001600c60008484815181106133dc576133dc6148cc565b6020026020010151815260200190815260200160002060006101000a81548160ff0219169083151502179055508080613414906148f8565b9150506133bb565b7f00000000000000000000000000000000000000000000000000000000000000006001600160a01b0316836001600160a01b0316141561348357613480817f0000000000000000000000000000000000000000000000000000000000000000613a15565b90505b60405163a9059cbb60e01b81526001600160a01b0383811660048301526024820183905284169063a9059cbb90604401602060405180830381600087803b1580156134cd57600080fd5b505af11580156134e1573d6000803e3d6000fd5b505050506040513d601f19601f8201168201806040525081019061350591906149c1565b612b4c57600080fd5b6000818152600c602052604081205460ff161561353d5760405162461bcd60e51b81526004016109149061498a565b8361358a5760405162461bcd60e51b815260206004820152601c60248201527f546865207472616e73616374696f6e206973206e6f742076616c6964000000006044820152606401610914565b8360a081901c600061359a6110db565b905060006135cc7f00000000000000000000000000000000000000000000000000000000000000006111f68585613a15565b6007549091506000906135f390612710906111f6908590640100000000900460ff16613a15565b9050876136008383612d0d565b101561366b5760405162461bcd60e51b815260206004820152603460248201527f4572726f723a20616d6f756e744f66466c6f61742e737562287769746864726160448201527377616c4665657329203c205f6d696e657246656560601b6064820152608401610914565b600061367b89611a1f8585612d0d565b90506000806136ab60007f00000000000000000000000000000000000000000000000000000000000000006129d0565b90925090506001600160a01b038d1661371c576136c88585612d0d565b8210156137175760405162461bcd60e51b815260206004820152601f60248201527f54686520666c6f61742062616c616e636520696e73756666696369656e742e006044820152606401610914565b6137af565b7f00000000000000000000000000000000000000000000000000000000000000006001600160a01b03168d6001600160a01b031614156137af576137608585612d0d565b8110156137af5760405162461bcd60e51b815260206004820152601f60248201527f54686520666c6f61742062616c616e636520696e73756666696369656e742e006044820152606401610914565b6137b98d8561320d565b6137c38d86613de3565b6137cc8a613dc8565b7f00000000000000000000000000000000000000000000000000000000000000006001600160a01b03168d6001600160a01b03161415613811576138118d898561341c565b604051630852cd8d60e31b8152600481018890527f00000000000000000000000000000000000000000000000000000000000000006001600160a01b0316906342966c6890602401602060405180830381600087803b15801561387357600080fd5b505af1158015613887573d6000803e3d6000fd5b505050506040513d601f19601f820116820180604052508101906138ab91906149c1565b6138b457600080fd5b604080516001600160a01b038a16815260208101899052908101869052606081018790526080810184905260a081018b90527fa9da34e5e4a956b744307ae7611795634e8365951073bf049d76b64b2ae7a0589060c00160405180910390a15060019c9b505050505050505050505050565b600080600061395660007f00000000000000000000000000000000000000000000000000000000000000006129d0565b9092509050600061397b60036111f660026111f0896139758989612f94565b90612f94565b90507f00000000000000000000000000000000000000000000000000000000000000006001600160a01b0316866001600160a01b03161480156139c75750806139c48387612f94565b10155b156139d85760019350505050611340565b6001600160a01b0386161580156139f85750806139f58487612f94565b10155b15613a095760029350505050611340565b50600095945050505050565b6000612d198284614d34565b6000612d198284614d53565b60008115613a5657506001600160a01b0383166000908152600d60205260408120556001612d19565b6001600160a01b0384166000908152600e602052604090205460ff16613ada57600f805460018082019092557f8d1108e10bcb7c27dddfc02ed9d693a074039d026cf4ea4240b40f7d581ac8020180546001600160a01b0319166001600160a01b0387169081179091556000908152600e60205260409020805460ff191690911790555b50506001600160a01b03919091166000908152600d6020526040902055600190565b6000818152600c602052604081205460ff1615613b2b5760405162461bcd60e51b81526004016109149061498a565b83613b785760405162461bcd60e51b815260206004820152601c60248201527f546865207472616e73616374696f6e206973206e6f742076616c6964000000006044820152606401610914565b8360a081901c6000613b886110db565b90506000613bba826111f6857f0000000000000000000000000000000000000000000000000000000000000000613a15565b90506000613bc88a8561102b565b9050600081613bd8576000613be8565b613be86127106111f68585613a15565b9050888015613bf657508015155b15613c0057600080fd5b6001600160a01b037f0000000000000000000000000000000000000000000000000000000000000000166340c10f1987613c3a8685612d0d565b6040516001600160e01b031960e085901b1681526001600160a01b0390921660048301526024820152604401602060405180830381600087803b158015613c8057600080fd5b505af1158015613c94573d6000803e3d6000fd5b505050506040513d601f19601f82011682018060405250810190613cb891906149c1565b50600854613cc69082612f94565b600855613cd38b86613f29565b613cdc88613dc8565b604080516001600160a01b038816815260208101879052908101849052606081018590526080810182905260a081018990527fdfaf4e23f7030adafec91a682e05bf9fb30c721f9cec3d8bcfae0459c5362db19060c00160405180910390a15060019a9950505050505050505050565b600080546001600160a01b038381166001600160a01b0319831681178455604051919092169283917f8be0079c531659141344cd1fd0a4f28419497f9722a3daafe3b4186f6b6457e09190a35050565b60008184841115613dc05760405162461bcd60e51b81526004016109149190614da1565b505050900390565b6000908152600c60205260409020805460ff19166001179055565b613e2081604051806060016040528060278152602001614df1602791396001600160a01b0385166000908152600b60205260409020549190613d9c565b6001600160a01b039092166000908152600b602052604090209190915550565b604051636eb1769f60e11b81523060048201526001600160a01b038381166024830152600091839186169063dd62ed3e9060440160206040518083038186803b158015613e8c57600080fd5b505afa158015613ea0573d6000803e3d6000fd5b505050506040513d601f19601f82011682018060405250810190613ec49190614913565b613ece9190614d1c565b604080516001600160a01b038616602482015260448082018490528251808303909101815260649091019091526020810180516001600160e01b031663095ea7b360e01b179052909150613f23908590613f4c565b50505050565b6001600160a01b0382166000908152600b6020526040902054613e209082612f94565b6000613fa1826040518060400160405280602081526020017f5361666545524332303a206c6f772d6c6576656c2063616c6c206661696c6564815250856001600160a01b031661401e9092919063ffffffff16565b805190915015612b4c5780806020019051810190613fbf91906149c1565b612b4c5760405162461bcd60e51b815260206004820152602a60248201527f5361666545524332303a204552433230206f7065726174696f6e20646964206e6044820152691bdd081cdd58d8d9595960b21b6064820152608401610914565b606061402d8484600085614035565b949350505050565b6060824710156140965760405162461bcd60e51b815260206004820152602660248201527f416464726573733a20696e73756666696369656e742062616c616e636520666f6044820152651c8818d85b1b60d21b6064820152608401610914565b843b6140e45760405162461bcd60e51b815260206004820152601d60248201527f416464726573733a2063616c6c20746f206e6f6e2d636f6e74726163740000006044820152606401610914565b600080866001600160a01b031685876040516141009190614dd4565b60006040518083038185875af1925050503d806000811461413d576040519150601f19603f3d011682016040523d82523d6000602084013e614142565b606091505b509150915061415282828661415d565b979650505050505050565b6060831561416c575081612d19565b82511561417c5782518084602001fd5b8160405162461bcd60e51b81526004016109149190614da1565b634e487b7160e01b600052600160045260246000fd5b60006101e08284031215612f8e57600080fd5b600080604083850312156141d257600080fd5b8235915060208301356001600160401b038111156141ef57600080fd5b6141fb858286016141ac565b9150509250929050565b6001600160a01b0381168114612d0a57600080fd5b803561422581614205565b919050565b634e487b7160e01b600052604160045260246000fd5b604051601f8201601f191681016001600160401b03811182821017156142685761426861422a565b604052919050565b60006001600160401b038211156142895761428961422a565b5060051b60200190565b600082601f8301126142a457600080fd5b813560206142b96142b483614270565b614240565b82815260059290921b840181019181810190868411156142d857600080fd5b8286015b848110156142f357803583529183019183016142dc565b509695505050505050565b60008060008060008060c0878903121561431757600080fd5b863561432281614205565b9550602087013561433281614205565b945060408701359350606087013592506080870135915060a08701356001600160401b0381111561436257600080fd5b61436e89828a01614293565b9150509295509295509295565b60006020828403121561438d57600080fd5b5035919050565b602080825282518282018190526000919060409081850190868401855b8281101561440457815180518552868101518786015285810151868601526060808201516001600160401b0390811691870191909152608091820151169085015260a090930192908501906001016143b1565b5091979650505050505050565b6000806000806080858703121561442757600080fd5b843561443281614205565b966020860135965060408601359560600135945092505050565b6000806040838503121561445f57600080fd5b823561446a81614205565b946020939093013593505050565b8015158114612d0a57600080fd5b803560ff8116811461422557600080fd5b600080600080600080600060e0888a0312156144b257600080fd5b87356144bd81614205565b96506020888101356001600160401b03808211156144da57600080fd5b6144e68c838d01614293565b985060408b01359150808211156144fc57600080fd5b508901601f81018b1361450e57600080fd5b803561451c6142b482614270565b81815260059190911b8201830190838101908d83111561453b57600080fd5b928401925b8284101561456257833561455381614478565b82529284019290840190614540565b809950505050505061457660608901614486565b935061458460808901614486565b925061459260a08901614486565b91506145a060c08901614486565b905092959891949750929550565b600080604083850312156145c157600080fd5b82356145cc81614205565b915060208301356145dc81614205565b809150509250929050565b6000602082840312156145f957600080fd5b81356001600160401b0381168114612d1957600080fd5b6000806000806080858703121561462657600080fd5b843561463181614205565b935060208501359250604085013561464881614478565b9396929550929360600135925050565b6020808252825182820181905260009190848201906040850190845b8181101561469057835183529284019291840191600101614674565b50909695505050505050565b6000602082840312156146ae57600080fd5b8135612d1981614205565b600080600080600060a086880312156146d157600080fd5b85356146dc81614205565b945060208601356001600160401b03808211156146f857600080fd5b61470489838a01614293565b95506040880135945060608801359350608088013591508082111561472857600080fd5b5061473588828901614293565b9150509295509295909350565b60006020828403121561475457600080fd5b81356001600160401b0381111561476a57600080fd5b61402d848285016141ac565b6000806040838503121561478957600080fd5b50508035926020909101359150565b600080600080600060a086880312156147b057600080fd5b85356147bb81614205565b945060208601356147cb81614205565b9350604086013592506060860135915060808601356001600160401b038111156147f457600080fd5b61473588828901614293565b60006020828403121561481257600080fd5b8135612d1981614478565b6020808252818101527f4f776e61626c653a2063616c6c6572206973206e6f7420746865206f776e6572604082015260600190565b6020808252601d908201527f5f64657374546f6b656e206973206e6f742077686974656c6973746564000000604082015260600190565b60208082526023908201527f5f64657374546f6b656e2073686f756c64206e6f74206265206164647265737360408201526228302960e81b606082015260800190565b634e487b7160e01b600052603260045260246000fd5b634e487b7160e01b600052601160045260246000fd5b600060001982141561490c5761490c6148e2565b5060010190565b60006020828403121561492557600080fd5b5051919050565b6001600160a01b039586168152939094166020840152604083019190915260608201526001600160401b03909116608082015260a00190565b600060ff821660ff84168060ff03821115614982576149826148e2565b019392505050565b60208082526018908201527f546865207478696420697320616c726561647920757365640000000000000000604082015260600190565b6000602082840312156149d357600080fd5b8151612d1981614478565b6000828210156149f0576149f06148e2565b500390565b600060208284031215614a0757600080fd5b8151612d1981614205565b6000808335601e19843603018112614a2957600080fd5b83016020810192503590506001600160401b03811115614a4857600080fd5b8060051b3603831315614a5a57600080fd5b9250929050565b8183526000602080850194508260005b85811015614a9f578135614a8481614205565b6001600160a01b031687529582019590820190600101614a71565b509495945050505050565b6000808335601e19843603018112614ac157600080fd5b83016020810192503590506001600160401b03811115614ae057600080fd5b803603831315614a5a57600080fd5b81835281816020850137506000828201602090810191909152601f909101601f19169091010190565b81835260006001600160fb1b03831115614b3157600080fd5b8260051b8083602087013760009401602001938452509192915050565b80356001600160801b03198116811461422557600080fd5b60208152614b8760208201614b7a8461421a565b6001600160a01b03169052565b6000614b956020840161421a565b6001600160a01b0381166040840152506040830135606083015260608301356080830152608083013560a0830152614bd060a0840184614a12565b6101e08060c0860152614be861020086018385614a61565b9250614bf760c0870187614aaa565b9250601f19808786030160e0880152614c11858584614aef565b9450614c2060e0890189614a12565b94509150610100818887030181890152614c3b868685614b18565b9550614c49818a018a614a12565b9550925050610120818887030181890152614c65868685614b18565b9550614c72818a0161421a565b9450506101409150614c8e828801856001600160a01b03169052565b614c9982890161421a565b93506101609150614cb4828801856001600160a01b03169052565b61018093508188013584880152614ccd84890189614aaa565b945091506101a0818887030181890152614ce8868685614aef565b95506101c094508089013585890152505050614d05828701614b4e565b6001600160801b0319169401939093529392505050565b60008219821115614d2f57614d2f6148e2565b500190565b6000816000190483118215151615614d4e57614d4e6148e2565b500290565b600082614d7057634e487b7160e01b600052601260045260246000fd5b500490565b60005b83811015614d90578181015183820152602001614d78565b83811115613f235750506000910152565b6020815260008251806020840152614dc0816040850160208701614d75565b601f01601f19169190910160400192915050565b60008251614de6818460208701614d75565b919091019291505056fe5f72656d6f7665466c6f61743a20666c6f617420616d6f756e7420696e73756666696369656e74a2646970667358221220d9a39e1925c75ca8b5d169e2c1ed994dcde1e32de121ca9e377e758e3da3e21f64736f6c63430008090033",
  "linkReferences": {},
  "deployedLinkReferences": {}
}