{
  "_format": "hh-sol-artifact-1",
  "contractName": "SwapContract",
  "sourceName": "contracts/SwapContract.sol",
  "abi": [
    {
      "inputs": [
        {
          "internalType": "address",
          "name": "_lpToken",
          "type": "address"
        },
        {
          "internalType": "address",
          "name": "_btct",
          "type": "address"
        },
        {
          "internalType": "address",
          "name": "_wETH",
          "type": "address"
        },
        {
          "internalType": "address",
          "name": "_sbBTCPool",
          "type": "address"
        },
        {
          "internalType": "address",
          "name": "_params",
          "type": "address"
        },
        {
          "internalType": "address",
          "name": "_swapRewards",
          "type": "address"
        },
        {
          "internalType": "uint256",
          "name": "_existingBTCFloat",
          "type": "uint256"
        }
      ],
      "stateMutability": "nonpayable",
      "type": "constructor"
    },
    {
      "anonymous": false,
      "inputs": [
        {
          "indexed": false,
          "internalType": "address",
          "name": "token",
          "type": "address"
        },
        {
          "indexed": false,
          "internalType": "uint256",
          "name": "amountOfLP",
          "type": "uint256"
        },
        {
          "indexed": false,
          "internalType": "uint256",
          "name": "amountOfFloat",
          "type": "uint256"
        },
        {
          "indexed": false,
          "internalType": "uint256",
          "name": "currentPriceLP",
          "type": "uint256"
        },
        {
          "indexed": false,
          "internalType": "uint256",
          "name": "withdrawal",
          "type": "uint256"
        },
        {
          "indexed": false,
          "internalType": "bytes32",
          "name": "txid",
          "type": "bytes32"
        }
      ],
      "name": "BurnLPTokensForFloat",
      "type": "event"
    },
    {
      "anonymous": false,
      "inputs": [
        {
          "indexed": false,
          "internalType": "address",
          "name": "token",
          "type": "address"
        },
        {
          "indexed": false,
          "internalType": "address",
          "name": "user",
          "type": "address"
        },
        {
          "indexed": false,
          "internalType": "uint256",
          "name": "amount",
          "type": "uint256"
        },
        {
          "indexed": false,
          "internalType": "uint256",
          "name": "balance",
          "type": "uint256"
        },
        {
          "indexed": false,
          "internalType": "uint256",
          "name": "Timestamp",
          "type": "uint256"
        }
      ],
      "name": "Deposit",
      "type": "event"
    },
    {
      "anonymous": false,
      "inputs": [
        {
          "indexed": false,
          "internalType": "uint256",
          "name": "rewardLPTsForNodes",
          "type": "uint256"
        }
      ],
      "name": "DistributeNodeRewards",
      "type": "event"
    },
    {
      "anonymous": false,
      "inputs": [
        {
          "indexed": false,
          "internalType": "address",
          "name": "to",
          "type": "address"
        },
        {
          "indexed": false,
          "internalType": "uint256",
          "name": "amountOfFloat",
          "type": "uint256"
        },
        {
          "indexed": false,
          "internalType": "uint256",
          "name": "amountOfLP",
          "type": "uint256"
        },
        {
          "indexed": false,
          "internalType": "uint256",
          "name": "currentPriceLP",
          "type": "uint256"
        },
        {
          "indexed": false,
          "internalType": "uint256",
          "name": "depositFees",
          "type": "uint256"
        },
        {
          "indexed": false,
          "internalType": "bytes32",
          "name": "txid",
          "type": "bytes32"
        }
      ],
      "name": "IssueLPTokensForFloat",
      "type": "event"
    },
    {
      "anonymous": false,
      "inputs": [
        {
          "indexed": true,
          "internalType": "address",
          "name": "previousOwner",
          "type": "address"
        },
        {
          "indexed": true,
          "internalType": "address",
          "name": "newOwner",
          "type": "address"
        }
      ],
      "name": "OwnershipTransferred",
      "type": "event"
    },
    {
      "anonymous": false,
      "inputs": [
        {
          "indexed": false,
          "internalType": "address",
          "name": "feesToken",
          "type": "address"
        },
        {
          "indexed": false,
          "internalType": "uint256",
          "name": "rewards",
          "type": "uint256"
        },
        {
          "indexed": false,
          "internalType": "uint256",
          "name": "amountLPTokensForNode",
          "type": "uint256"
        },
        {
          "indexed": false,
          "internalType": "uint256",
          "name": "currentPriceLP",
          "type": "uint256"
        }
      ],
      "name": "RewardsCollection",
      "type": "event"
    },
    {
      "anonymous": false,
      "inputs": [
        {
          "indexed": false,
          "internalType": "uint256",
          "name": "ExpirationTime",
          "type": "uint256"
        },
        {
          "indexed": false,
          "internalType": "uint256",
          "name": "Timestamp",
          "type": "uint256"
        }
      ],
      "name": "SetExpirationTime",
      "type": "event"
    },
    {
      "anonymous": false,
      "inputs": [
        {
          "indexed": false,
          "internalType": "address",
          "name": "from",
          "type": "address"
        },
        {
          "indexed": false,
          "internalType": "address",
          "name": "to",
          "type": "address"
        },
        {
          "indexed": false,
          "internalType": "uint256",
          "name": "amount",
          "type": "uint256"
        }
      ],
      "name": "Swap",
      "type": "event"
    },
    {
      "anonymous": false,
      "inputs": [
        {
          "indexed": false,
          "internalType": "bytes32",
          "name": "SwapID",
          "type": "bytes32"
        },
        {
          "indexed": false,
          "internalType": "string",
          "name": "DestAddr",
          "type": "string"
        },
        {
          "indexed": false,
          "internalType": "address",
          "name": "RefundAddr",
          "type": "address"
        },
        {
          "indexed": false,
          "internalType": "uint256",
          "name": "AmountWBTC",
          "type": "uint256"
        },
        {
          "indexed": false,
          "internalType": "uint256",
          "name": "Timestamp",
          "type": "uint256"
        }
      ],
      "name": "SwapTokensToBTC",
      "type": "event"
    },
    {
      "anonymous": false,
      "inputs": [
        {
          "indexed": false,
          "internalType": "address",
          "name": "token",
          "type": "address"
        },
        {
          "indexed": false,
          "internalType": "address",
          "name": "user",
          "type": "address"
        },
        {
          "indexed": false,
          "internalType": "uint256",
          "name": "amount",
          "type": "uint256"
        },
        {
          "indexed": false,
          "internalType": "uint256",
          "name": "balance",
          "type": "uint256"
        },
        {
          "indexed": false,
          "internalType": "uint256",
          "name": "Timestamp",
          "type": "uint256"
        }
      ],
      "name": "Withdraw",
      "type": "event"
    },
    {
      "stateMutability": "nonpayable",
      "type": "fallback"
    },
    {
      "inputs": [],
      "name": "BTCT_ADDR",
      "outputs": [
        {
          "internalType": "address",
          "name": "",
          "type": "address"
        }
      ],
      "stateMutability": "view",
      "type": "function"
    },
    {
      "inputs": [],
      "name": "activeNodeCount",
      "outputs": [
        {
          "internalType": "uint8",
          "name": "",
          "type": "uint8"
        }
      ],
      "stateMutability": "view",
      "type": "function"
    },
    {
      "inputs": [
        {
          "internalType": "address",
          "name": "_token",
          "type": "address"
        },
        {
          "internalType": "address",
          "name": "_user",
          "type": "address"
        }
      ],
      "name": "balanceOf",
      "outputs": [
        {
          "internalType": "uint256",
          "name": "",
          "type": "uint256"
        }
      ],
      "stateMutability": "view",
      "type": "function"
    },
    {
      "inputs": [
        {
          "internalType": "address",
          "name": "_newOwner",
          "type": "address"
        },
        {
          "internalType": "address[]",
          "name": "_nodes",
          "type": "address[]"
        },
        {
          "internalType": "bool[]",
          "name": "_isRemoved",
          "type": "bool[]"
        },
        {
          "internalType": "uint8",
          "name": "_churnedInCount",
          "type": "uint8"
        },
        {
          "internalType": "uint8",
          "name": "_tssThreshold",
          "type": "uint8"
        },
        {
          "internalType": "uint256",
          "name": "_totalStakedAmount",
          "type": "uint256"
        }
      ],
      "name": "churn",
      "outputs": [
        {
          "internalType": "bool",
          "name": "",
          "type": "bool"
        }
      ],
      "stateMutability": "nonpayable",
      "type": "function"
    },
    {
      "inputs": [],
      "name": "churnedInCount",
      "outputs": [
        {
          "internalType": "uint8",
          "name": "",
          "type": "uint8"
        }
      ],
      "stateMutability": "view",
      "type": "function"
    },
    {
      "inputs": [
        {
          "internalType": "uint256",
          "name": "_incomingAmount",
          "type": "uint256"
        },
        {
          "internalType": "uint256",
          "name": "_minerFee",
          "type": "uint256"
        },
        {
          "internalType": "uint256",
          "name": "_rewardsAmount",
          "type": "uint256"
        },
        {
          "internalType": "address[]",
          "name": "_spenders",
          "type": "address[]"
        },
        {
          "internalType": "uint256[]",
          "name": "_swapAmounts",
          "type": "uint256[]"
        },
        {
          "internalType": "bool",
          "name": "_isUpdatelimitBTCForSPFlow2",
          "type": "bool"
        }
      ],
      "name": "collectSwapFeesForBTC",
      "outputs": [
        {
          "internalType": "bool",
          "name": "",
          "type": "bool"
        }
      ],
      "stateMutability": "nonpayable",
      "type": "function"
    },
    {
      "inputs": [],
      "name": "getActiveNodes",
      "outputs": [
        {
          "internalType": "address[]",
          "name": "",
          "type": "address[]"
        }
      ],
      "stateMutability": "view",
      "type": "function"
    },
    {
      "inputs": [],
      "name": "getCurrentPriceLP",
      "outputs": [
        {
          "internalType": "uint256",
          "name": "nowPrice",
          "type": "uint256"
        }
      ],
      "stateMutability": "view",
      "type": "function"
    },
    {
      "inputs": [
        {
          "internalType": "address",
          "name": "_tokenA",
          "type": "address"
        },
        {
          "internalType": "address",
          "name": "_tokenB",
          "type": "address"
        }
      ],
      "name": "getFloatReserve",
      "outputs": [
        {
          "internalType": "uint256",
          "name": "reserveA",
          "type": "uint256"
        },
        {
          "internalType": "uint256",
          "name": "reserveB",
          "type": "uint256"
        }
      ],
      "stateMutability": "view",
      "type": "function"
    },
    {
      "inputs": [],
      "name": "initialExchangeRate",
      "outputs": [
        {
          "internalType": "uint256",
          "name": "",
          "type": "uint256"
        }
      ],
      "stateMutability": "view",
      "type": "function"
    },
    {
      "inputs": [
        {
          "internalType": "address",
          "name": "_user",
          "type": "address"
        }
      ],
      "name": "isNodeStake",
      "outputs": [
        {
          "internalType": "bool",
          "name": "",
          "type": "bool"
        }
      ],
      "stateMutability": "view",
      "type": "function"
    },
    {
      "inputs": [
        {
          "internalType": "bytes32",
          "name": "_txid",
          "type": "bytes32"
        }
      ],
      "name": "isTxUsed",
      "outputs": [
        {
          "internalType": "bool",
          "name": "",
          "type": "bool"
        }
      ],
      "stateMutability": "view",
      "type": "function"
    },
    {
      "inputs": [],
      "name": "limitBTCForSPFlow2",
      "outputs": [
        {
          "internalType": "uint256",
          "name": "",
          "type": "uint256"
        }
      ],
      "stateMutability": "view",
      "type": "function"
    },
    {
      "inputs": [],
      "name": "lpToken",
      "outputs": [
        {
          "internalType": "address",
          "name": "",
          "type": "address"
        }
      ],
      "stateMutability": "view",
      "type": "function"
    },
    {
      "inputs": [
        {
          "internalType": "bytes32[]",
          "name": "_addressesAndAmounts",
          "type": "bytes32[]"
        },
        {
          "internalType": "uint256",
          "name": "_totalSwapped",
          "type": "uint256"
        },
        {
          "internalType": "uint256",
          "name": "_rewardsAmount",
          "type": "uint256"
        },
        {
          "internalType": "bytes32[]",
          "name": "_usedTxIds",
          "type": "bytes32[]"
        }
      ],
      "name": "multiRecordSkyPoolsTX",
      "outputs": [
        {
          "internalType": "bool",
          "name": "",
          "type": "bool"
        }
      ],
      "stateMutability": "nonpayable",
      "type": "function"
    },
    {
      "inputs": [],
      "name": "oldestActiveIndex",
      "outputs": [
        {
          "internalType": "uint256",
          "name": "",
          "type": "uint256"
        }
      ],
      "stateMutability": "view",
      "type": "function"
    },
    {
      "inputs": [],
      "name": "owner",
      "outputs": [
        {
          "internalType": "address",
          "name": "",
          "type": "address"
        }
      ],
      "stateMutability": "view",
      "type": "function"
    },
    {
      "inputs": [],
      "name": "params",
      "outputs": [
        {
          "internalType": "address",
          "name": "",
          "type": "address"
        }
      ],
      "stateMutability": "view",
      "type": "function"
    },
    {
      "inputs": [
        {
          "internalType": "address",
          "name": "_token",
          "type": "address"
        },
        {
          "internalType": "bytes32",
          "name": "_addressesAndAmountOfFloat",
          "type": "bytes32"
        },
        {
          "internalType": "bytes32",
          "name": "_txid",
          "type": "bytes32"
        }
      ],
      "name": "recordIncomingFloat",
      "outputs": [
        {
          "internalType": "bool",
          "name": "",
          "type": "bool"
        }
      ],
      "stateMutability": "nonpayable",
      "type": "function"
    },
    {
      "inputs": [
        {
          "internalType": "address",
          "name": "_token",
          "type": "address"
        },
        {
          "internalType": "bytes32",
          "name": "_addressesAndAmountOfLPtoken",
          "type": "bytes32"
        },
        {
          "internalType": "uint256",
          "name": "_minerFee",
          "type": "uint256"
        },
        {
          "internalType": "bytes32",
          "name": "_txid",
          "type": "bytes32"
        }
      ],
      "name": "recordOutcomingFloat",
      "outputs": [
        {
          "internalType": "bool",
          "name": "",
          "type": "bool"
        }
      ],
      "stateMutability": "nonpayable",
      "type": "function"
    },
    {
      "inputs": [
        {
          "internalType": "address",
          "name": "_to",
          "type": "address"
        },
        {
          "internalType": "uint256",
          "name": "_totalSwapped",
          "type": "uint256"
        },
        {
          "internalType": "uint256",
          "name": "_rewardsAmount",
          "type": "uint256"
        },
        {
          "internalType": "bytes32[]",
          "name": "_usedTxIds",
          "type": "bytes32[]"
        }
      ],
      "name": "recordSkyPoolsTX",
      "outputs": [
        {
          "internalType": "bool",
          "name": "",
          "type": "bool"
        }
      ],
      "stateMutability": "nonpayable",
      "type": "function"
    },
    {
      "inputs": [
        {
          "internalType": "uint256",
          "name": "_minerFee",
          "type": "uint256"
        },
        {
          "internalType": "bytes32",
          "name": "_txid",
          "type": "bytes32"
        }
      ],
      "name": "recordUTXOSweepMinerFee",
      "outputs": [
        {
          "internalType": "bool",
          "name": "",
          "type": "bool"
        }
      ],
      "stateMutability": "nonpayable",
      "type": "function"
    },
    {
      "inputs": [
        {
          "internalType": "address",
          "name": "_token",
          "type": "address"
        },
        {
          "internalType": "uint256",
          "name": "_amount",
          "type": "uint256"
        }
      ],
      "name": "redeemERC20Token",
      "outputs": [],
      "stateMutability": "nonpayable",
      "type": "function"
    },
    {
      "inputs": [
        {
          "internalType": "uint256",
          "name": "_amount",
          "type": "uint256"
        }
      ],
      "name": "redeemEther",
      "outputs": [],
      "stateMutability": "nonpayable",
      "type": "function"
    },
    {
      "inputs": [],
      "name": "renounceOwnership",
      "outputs": [],
      "stateMutability": "nonpayable",
      "type": "function"
    },
    {
      "inputs": [],
      "name": "sbBTCPool",
      "outputs": [
        {
          "internalType": "address",
          "name": "",
          "type": "address"
        }
      ],
      "stateMutability": "view",
      "type": "function"
    },
    {
      "inputs": [
        {
          "internalType": "address",
          "name": "_destToken",
          "type": "address"
        },
        {
          "internalType": "address",
          "name": "_to",
          "type": "address"
        },
        {
          "internalType": "uint256",
          "name": "_amount",
          "type": "uint256"
        },
        {
          "internalType": "uint256",
          "name": "_totalSwapped",
          "type": "uint256"
        },
        {
          "internalType": "uint256",
          "name": "_rewardsAmount",
          "type": "uint256"
        },
        {
          "internalType": "bytes32[]",
          "name": "_redeemedFloatTxIds",
          "type": "bytes32[]"
        }
      ],
      "name": "singleTransferERC20",
      "outputs": [
        {
          "internalType": "bool",
          "name": "",
          "type": "bool"
        }
      ],
      "stateMutability": "nonpayable",
      "type": "function"
    },
    {
      "inputs": [
        {
          "internalType": "uint256",
          "name": "_loopCount",
          "type": "uint256"
        }
      ],
      "name": "spCleanUpOldTXs",
      "outputs": [],
      "stateMutability": "nonpayable",
      "type": "function"
    },
    {
      "inputs": [
        {
          "internalType": "address",
          "name": "_token",
          "type": "address"
        },
        {
          "internalType": "uint256",
          "name": "_amount",
          "type": "uint256"
        }
      ],
      "name": "spDeposit",
      "outputs": [],
      "stateMutability": "payable",
      "type": "function"
    },
    {
      "inputs": [
        {
          "components": [
            {
              "internalType": "address",
              "name": "fromToken",
              "type": "address"
            },
            {
              "internalType": "address",
              "name": "toToken",
              "type": "address"
            },
            {
              "internalType": "uint256",
              "name": "fromAmount",
              "type": "uint256"
            },
            {
              "internalType": "uint256",
              "name": "toAmount",
              "type": "uint256"
            },
            {
              "internalType": "uint256",
              "name": "expectedAmount",
              "type": "uint256"
            },
            {
              "internalType": "address[]",
              "name": "callees",
              "type": "address[]"
            },
            {
              "internalType": "bytes",
              "name": "exchangeData",
              "type": "bytes"
            },
            {
              "internalType": "uint256[]",
              "name": "startIndexes",
              "type": "uint256[]"
            },
            {
              "internalType": "uint256[]",
              "name": "values",
              "type": "uint256[]"
            },
            {
              "internalType": "address payable",
              "name": "beneficiary",
              "type": "address"
            },
            {
              "internalType": "address payable",
              "name": "partner",
              "type": "address"
            },
            {
              "internalType": "uint256",
              "name": "feePercent",
              "type": "uint256"
            },
            {
              "internalType": "bytes",
              "name": "permit",
              "type": "bytes"
            },
            {
              "internalType": "uint256",
              "name": "deadline",
              "type": "uint256"
            },
            {
              "internalType": "bytes16",
              "name": "uuid",
              "type": "bytes16"
            }
          ],
          "internalType": "struct Utils.SimpleData",
          "name": "_data",
          "type": "tuple"
        }
      ],
      "name": "spFlow1SimpleSwap",
      "outputs": [],
      "stateMutability": "nonpayable",
      "type": "function"
    },
    {
      "inputs": [
        {
          "internalType": "bool",
          "name": "_fork",
          "type": "bool"
        },
        {
          "internalType": "address",
          "name": "_factory",
          "type": "address"
        },
        {
          "internalType": "bytes32",
          "name": "_initCode",
          "type": "bytes32"
        },
        {
          "internalType": "uint256",
          "name": "_amountIn",
          "type": "uint256"
        },
        {
          "internalType": "uint256",
          "name": "_amountOutMin",
          "type": "uint256"
        },
        {
          "internalType": "address[]",
          "name": "_path",
          "type": "address[]"
        }
      ],
      "name": "spFlow1Uniswap",
      "outputs": [
        {
          "internalType": "uint256",
          "name": "receivedAmount",
          "type": "uint256"
        }
      ],
      "stateMutability": "nonpayable",
      "type": "function"
    },
    {
      "inputs": [
        {
          "internalType": "string",
          "name": "_destinationAddressForBTC",
          "type": "string"
        },
        {
          "components": [
            {
              "internalType": "address",
              "name": "fromToken",
              "type": "address"
            },
            {
              "internalType": "address",
              "name": "toToken",
              "type": "address"
            },
            {
              "internalType": "uint256",
              "name": "fromAmount",
              "type": "uint256"
            },
            {
              "internalType": "uint256",
              "name": "toAmount",
              "type": "uint256"
            },
            {
              "internalType": "uint256",
              "name": "expectedAmount",
              "type": "uint256"
            },
            {
              "internalType": "address[]",
              "name": "callees",
              "type": "address[]"
            },
            {
              "internalType": "bytes",
              "name": "exchangeData",
              "type": "bytes"
            },
            {
              "internalType": "uint256[]",
              "name": "startIndexes",
              "type": "uint256[]"
            },
            {
              "internalType": "uint256[]",
              "name": "values",
              "type": "uint256[]"
            },
            {
              "internalType": "address payable",
              "name": "beneficiary",
              "type": "address"
            },
            {
              "internalType": "address payable",
              "name": "partner",
              "type": "address"
            },
            {
              "internalType": "uint256",
              "name": "feePercent",
              "type": "uint256"
            },
            {
              "internalType": "bytes",
              "name": "permit",
              "type": "bytes"
            },
            {
              "internalType": "uint256",
              "name": "deadline",
              "type": "uint256"
            },
            {
              "internalType": "bytes16",
              "name": "uuid",
              "type": "bytes16"
            }
          ],
          "internalType": "struct Utils.SimpleData",
          "name": "_data",
          "type": "tuple"
        }
      ],
      "name": "spFlow2SimpleSwap",
      "outputs": [
        {
          "internalType": "uint256",
          "name": "receivedAmount",
          "type": "uint256"
        }
      ],
      "stateMutability": "nonpayable",
      "type": "function"
    },
    {
      "inputs": [
        {
          "internalType": "string",
          "name": "_destinationAddressForBTC",
          "type": "string"
        },
        {
          "internalType": "bool",
          "name": "_fork",
          "type": "bool"
        },
        {
          "internalType": "address",
          "name": "_factory",
          "type": "address"
        },
        {
          "internalType": "bytes32",
          "name": "_initCode",
          "type": "bytes32"
        },
        {
          "internalType": "uint256",
          "name": "_amountIn",
          "type": "uint256"
        },
        {
          "internalType": "uint256",
          "name": "_amountOutMin",
          "type": "uint256"
        },
        {
          "internalType": "address[]",
          "name": "_path",
          "type": "address[]"
        }
      ],
      "name": "spFlow2Uniswap",
      "outputs": [
        {
          "internalType": "uint256",
          "name": "receivedAmount",
          "type": "uint256"
        }
      ],
      "stateMutability": "nonpayable",
      "type": "function"
    },
    {
      "inputs": [],
      "name": "spGetPendingSwaps",
      "outputs": [
        {
          "components": [
            {
              "internalType": "bytes32",
              "name": "SwapID",
              "type": "bytes32"
            },
            {
              "internalType": "string",
              "name": "DestAddr",
              "type": "string"
            },
            {
              "internalType": "address",
              "name": "RefundAddr",
              "type": "address"
            },
            {
              "internalType": "uint256",
              "name": "AmountWBTC",
              "type": "uint256"
            },
            {
              "internalType": "uint256",
              "name": "Timestamp",
              "type": "uint256"
            }
          ],
          "internalType": "struct SwapContract.spPendingTx[]",
          "name": "data",
          "type": "tuple[]"
        }
      ],
      "stateMutability": "view",
      "type": "function"
    },
    {
      "inputs": [
        {
          "internalType": "uint256",
          "name": "",
          "type": "uint256"
        }
      ],
      "name": "spPendingTXs",
      "outputs": [
        {
          "internalType": "bytes32",
          "name": "SwapID",
          "type": "bytes32"
        },
        {
          "internalType": "string",
          "name": "DestAddr",
          "type": "string"
        },
        {
          "internalType": "address",
          "name": "RefundAddr",
          "type": "address"
        },
        {
          "internalType": "uint256",
          "name": "AmountWBTC",
          "type": "uint256"
        },
        {
          "internalType": "uint256",
          "name": "Timestamp",
          "type": "uint256"
        }
      ],
      "stateMutability": "view",
      "type": "function"
    },
    {
      "inputs": [],
      "name": "swapCount",
      "outputs": [
        {
          "internalType": "uint256",
          "name": "",
          "type": "uint256"
        }
      ],
      "stateMutability": "view",
      "type": "function"
    },
    {
      "inputs": [],
      "name": "swapRewards",
      "outputs": [
        {
          "internalType": "address",
          "name": "",
          "type": "address"
        }
      ],
      "stateMutability": "view",
      "type": "function"
    },
    {
      "inputs": [
        {
          "internalType": "address",
          "name": "",
          "type": "address"
        },
        {
          "internalType": "address",
          "name": "",
          "type": "address"
        }
      ],
      "name": "tokens",
      "outputs": [
        {
          "internalType": "uint256",
          "name": "",
          "type": "uint256"
        }
      ],
      "stateMutability": "view",
      "type": "function"
    },
    {
      "inputs": [],
      "name": "totalStakedAmount",
      "outputs": [
        {
          "internalType": "uint256",
          "name": "",
          "type": "uint256"
        }
      ],
      "stateMutability": "view",
      "type": "function"
    },
    {
      "inputs": [
        {
          "internalType": "address",
          "name": "newOwner",
          "type": "address"
        }
      ],
      "name": "transferOwnership",
      "outputs": [],
      "stateMutability": "nonpayable",
      "type": "function"
    },
    {
      "inputs": [],
      "name": "tssThreshold",
      "outputs": [
        {
          "internalType": "uint8",
          "name": "",
          "type": "uint8"
        }
      ],
      "stateMutability": "view",
      "type": "function"
    },
    {
      "inputs": [],
      "name": "wETH",
      "outputs": [
        {
          "internalType": "address",
          "name": "",
          "type": "address"
        }
      ],
      "stateMutability": "view",
      "type": "function"
    },
    {
      "inputs": [
        {
          "internalType": "address",
          "name": "",
          "type": "address"
        }
      ],
      "name": "whitelist",
      "outputs": [
        {
          "internalType": "bool",
          "name": "",
          "type": "bool"
        }
      ],
      "stateMutability": "view",
      "type": "function"
    },
    {
      "stateMutability": "payable",
      "type": "receive"
    }
  ],
  "bytecode": "0x6101806040523480156200001257600080fd5b50604051620066b8380380620066b883398101604081905262000035916200032d565b6200004033620002c0565b60018055600060048181556003919091556001600160a01b0380871661010052858116610120528481166101605283811661014052881660a08190526040805163313ce56760e01b81529051919263313ce567928282019260209290829003018186803b158015620000b157600080fd5b505afa158015620000c6573d6000803e3d6000fd5b505050506040513d601f19601f82011682018060405250810190620000ec9190620003b9565b620000f990600a620004fa565b60e0526001600160a01b03861660808190526040805163313ce56760e01b815290516008929163313ce567916004808301926020929190829003018186803b1580156200014557600080fd5b505afa1580156200015a573d6000803e3d6000fd5b505050506040513d601f19601f82011682018060405250810190620001809190620003b9565b6200018c91906200050b565b6200019990600a620004fa565b60c08181525050866001600160a01b031663313ce5676040518163ffffffff1660e01b815260040160206040518083038186803b158015620001da57600080fd5b505afa158015620001ef573d6000803e3d6000fd5b505050506040513d601f19601f82011682018060405250810190620002159190620003b9565b6200022290600a620004fa565b6007556001600160a01b0395861660009081526005602090815260408083208054600160ff1991821681179092559a9099168352822080548a16891790559080527f05b8ccbb9d4d8fb16ea74ce3c29a41f1b461fbdaff4714a0d9a8eb05499746bc80549098169096179096555050600990925250507fec8156718a8372b1db44bb411437d0870f3e3790d4a08526d024ce1b0b668f6b5562000531565b600080546001600160a01b038381166001600160a01b0319831681178455604051919092169283917f8be0079c531659141344cd1fd0a4f28419497f9722a3daafe3b4186f6b6457e09190a35050565b80516001600160a01b03811681146200032857600080fd5b919050565b600080600080600080600060e0888a0312156200034957600080fd5b620003548862000310565b9650620003646020890162000310565b9550620003746040890162000310565b9450620003846060890162000310565b9350620003946080890162000310565b9250620003a460a0890162000310565b915060c0880151905092959891949750929550565b600060208284031215620003cc57600080fd5b815160ff81168114620003de57600080fd5b9392505050565b634e487b7160e01b600052601160045260246000fd5b600181815b808511156200043c578160001904821115620004205762000420620003e5565b808516156200042e57918102915b93841c939080029062000400565b509250929050565b6000826200045557506001620004f4565b816200046457506000620004f4565b81600181146200047d57600281146200048857620004a8565b6001915050620004f4565b60ff8411156200049c576200049c620003e5565b50506001821b620004f4565b5060208310610133831016604e8410600b8410161715620004cd575081810a620004f4565b620004d98383620003fb565b8060001904821115620004f057620004f0620003e5565b0290505b92915050565b6000620003de60ff84168362000444565b600060ff821660ff841680821015620005285762000528620003e5565b90039392505050565b60805160a05160c05160e05161010051610120516101405161016051615fa062000718600039600081816107630152818161127e0152818161265901528181613208015281816137ad01528181613e6301528181614739015261496b015260008181610797015281816109ed01526133510152600081816102c101528181613648015261388f01526000818161026e0152818161087001528181611eea01528181611f4601528181611fb301528181611ffa015281816120de01528181612c4c01528181612cc60152612d0f01526000818161155d0152818161385401528181613e2b015261463301526000613a4001526000818161057101528181610ac501528181610b00015281816114bd015281816135f901528181613677015281816138c1015281816140c2015261468001526000818161036e01528181610a7101528181610aa301528181610c1a01528181610c960152818161149101528181611837015281816121ee0152818161221d0152818161226d015281816123000152818161238e01528181612764015281816127dd0152818161287401528181612a4901528181612f640152818161304601528181613302015281816133e301528181613a0201528181613f5801528181613fd40152818161406901526143650152615fa06000f3fe60806040526004361061025e5760003560e01c8063715018a611610144578063ca0707e7116100b6578063dcc5f0c81161007a578063dcc5f0c8146107d9578063e6ca2084146107f9578063ec48272914610829578063f24286211461085e578063f2fde38b14610892578063f7888aec146108b25761029d565b8063ca0707e71461071e578063cf10b16b14610731578063cff0ab9614610751578063d0f9a08514610785578063d38c7bb1146107b95761029d565b8063a742329d11610108578063a742329d14610668578063a827278b14610688578063b345a3581461069e578063b4014fe8146106be578063bf62dcc8146106de578063c810a539146106fe5761029d565b8063715018a6146105cb57806375340815146105e05780638535490f146105fa5780638da5cb5b1461061a5780639b19251a146106385761029d565b80632586c562116101dd578063511834c3116101a1578063511834c31461050957806352dcd6b614610529578063567e98f9146105495780635fcbd2851461055f5780636b51e919146105935780636d019f35146105b55761029d565b80632586c562146104665780632eff0d9e1461048657806345137e271461049c5780634db75485146104b1578063508493bc146104d15761029d565b8063130b7a6311610224578063130b7a63146103af5780631ab7e937146103dd5780631bb069301461040e57806320199e991461042457806321959d3c146104465761029d565b806285aea1146102af57806289356f146103005780630d63aca71461032c5780630f9094861461035c57806312d1441e146103905761029d565b3661029d57336001600160a01b037f0000000000000000000000000000000000000000000000000000000000000000161461029b5761029b614dbf565b005b3480156102a957600080fd5b50600080fd5b3480156102bb57600080fd5b506102e37f000000000000000000000000000000000000000000000000000000000000000081565b6040516001600160a01b0390911681526020015b60405180910390f35b34801561030c57600080fd5b5060065461031a9060ff1681565b60405160ff90911681526020016102f7565b34801561033857600080fd5b5061034c610347366004614ece565b6108f8565b60405190151581526020016102f7565b34801561036857600080fd5b506102e37f000000000000000000000000000000000000000000000000000000000000000081565b34801561039c57600080fd5b5060065461031a90610100900460ff1681565b3480156103bb57600080fd5b506103cf6103ca366004614faf565b610b4c565b6040519081526020016102f7565b3480156103e957600080fd5b506103fd6103f8366004615034565b610f86565b6040516102f79594939291906150a5565b34801561041a57600080fd5b506103cf60045481565b34801561043057600080fd5b50610439611049565b6040516102f791906150e4565b34801561045257600080fd5b5061029b610461366004615034565b61124a565b34801561047257600080fd5b5061034c610481366004615182565b611393565b34801561049257600080fd5b506103cf60035481565b3480156104a857600080fd5b506103cf611485565b3480156104bd57600080fd5b5061029b6104cc3660046151bd565b6115a3565b3480156104dd57600080fd5b506103cf6104ec3660046151e9565b600f60209081526000928352604080842090915290825290205481565b34801561051557600080fd5b5061029b61052436600461523b565b611702565b34801561053557600080fd5b5061034c6105443660046152ed565b61199c565b34801561055557600080fd5b506103cf600e5481565b34801561056b57600080fd5b506102e37f000000000000000000000000000000000000000000000000000000000000000081565b34801561059f57600080fd5b506105a8611d58565b6040516102f7919061542f565b3480156105c157600080fd5b506103cf60075481565b3480156105d757600080fd5b5061029b611e82565b3480156105ec57600080fd5b50600d5461031a9060ff1681565b34801561060657600080fd5b5061029b610615366004615034565b611eb8565b34801561062657600080fd5b506000546001600160a01b03166102e3565b34801561064457600080fd5b5061034c610653366004615442565b60056020526000908152604090205460ff1681565b34801561067457600080fd5b5061034c610683366004615442565b612174565b34801561069457600080fd5b506103cf60085481565b3480156106aa57600080fd5b5061034c6106b936600461545f565b6121a8565b3480156106ca57600080fd5b506103cf6106d9366004615502565b6122cc565b3480156106ea57600080fd5b5061034c6106f936600461556a565b61271e565b34801561070a57600080fd5b5061034c6107193660046155d4565b6128fb565b61029b61072c3660046151bd565b6129f0565b34801561073d57600080fd5b5061034c61074c3660046155f6565b612da6565b34801561075d57600080fd5b506102e37f000000000000000000000000000000000000000000000000000000000000000081565b34801561079157600080fd5b506102e37f000000000000000000000000000000000000000000000000000000000000000081565b3480156107c557600080fd5b506103cf6107d436600461562b565b612e96565b3480156107e557600080fd5b5061034c6107f43660046156e2565b6132d5565b34801561080557600080fd5b5061034c610814366004615034565b6000908152600a602052604090205460ff1690565b34801561083557600080fd5b506108496108443660046151e9565b613453565b604080519283526020830191909152016102f7565b34801561086a57600080fd5b506102e37f000000000000000000000000000000000000000000000000000000000000000081565b34801561089e57600080fd5b5061029b6108ad366004615442565b61347d565b3480156108be57600080fd5b506103cf6108cd3660046151e9565b6001600160a01b039182166000908152600f6020908152604080832093909416825291909152205490565b600080546001600160a01b0316331461092c5760405162461bcd60e51b8152600401610923906157c7565b60405180910390fd5b6001600160a01b03871660009081526005602052604090205460ff166109795760405162461bcd60e51b81526020600482015260026024820152610c4d60f21b6044820152606401610923565b6001600160a01b0387166109b45760405162461bcd60e51b8152602060048201526002602482015261313560f01b6044820152606401610923565b60008415610a9b5760405160016266faa960e11b031981526001600160a01b0389811660048301528881166024830152604482018790527f0000000000000000000000000000000000000000000000000000000000000000169063ff320aae90606401602060405180830381600087803b158015610a3157600080fd5b505af1158015610a45573d6000803e3d6000fd5b505050506040513d601f19601f82011682018060405250810190610a6991906157fc565b50610a9660007f000000000000000000000000000000000000000000000000000000000000000087613518565b610ac3565b84610ac357507f00000000000000000000000000000000000000000000000000000000000000005b7f00000000000000000000000000000000000000000000000000000000000000006001600160a01b0316886001600160a01b03161415610b2057507f00000000000000000000000000000000000000000000000000000000000000005b610b2a81856135ee565b610b3383613998565b610b3e888888613a00565b506001979650505050505050565b600060026001541415610b715760405162461bcd60e51b815260040161092390615819565b6002600155600083838281610b8857610b88615850565b9050602002016020810190610b9d9190615442565b905060008484610bae60018261587c565b818110610bbd57610bbd615850565b9050602002016020810190610bd29190615442565b6001600160a01b0383166000908152600f60209081526040808320338452909152902054909150871115610c185760405162461bcd60e51b815260040161092390615893565b7f00000000000000000000000000000000000000000000000000000000000000006001600160a01b0316826001600160a01b031614610c945760405162461bcd60e51b815260206004820152601860248201527726bab9ba1039bbb0b810333937b690212a21903a37b5b2b760411b6044820152606401610923565b7f00000000000000000000000000000000000000000000000000000000000000006001600160a01b0316816001600160a01b03161415610d165760405162461bcd60e51b815260206004820152601960248201527f456e64696e6720746f6b656e206d7573742062652077425443000000000000006044820152606401610923565b6001600160a01b03811673eeeeeeeeeeeeeeeeeeeeeeeeeeeeeeeeeeeeeeee1415610d7b5760405162461bcd60e51b81526020600482015260156024820152740aae6ca40e0c2e8d040ee84a886405a7c40ee8aa89605b1b6044820152606401610923565b6040516370a0823160e01b81523060048201526000906001600160a01b038316906370a082319060240160206040518083038186803b158015610dbd57600080fd5b505afa158015610dd1573d6000803e3d6000fd5b505050506040513d601f19601f82011682018060405250810190610df591906158ca565b6001600160a01b0384166000908152600f60209081526040808320338452909152902054909150610e269089613af7565b6001600160a01b0384166000908152600f602090815260408083203384529091529020558a15610e6357610e5e8a8a8a8a8a8a613b0a565b610e6f565b610e6f88888888613c50565b6040516370a0823160e01b8152306004820152610ef39082906001600160a01b038516906370a08231906024015b60206040518083038186803b158015610eb557600080fd5b505afa158015610ec9573d6000803e3d6000fd5b505050506040513d601f19601f82011682018060405250810190610eed91906158ca565b90613af7565b935086841015610f155760405162461bcd60e51b8152600401610923906158e3565b83610f1f57600080fd5b6001600160a01b0382166000908152600f60209081526040808320338452909152902054610f4d9085613d90565b6001600160a01b039092166000908152600f60209081526040808320338452909152902091909155505060018055979650505050505050565b60026020526000908152604090208054600182018054919291610fa89061591a565b80601f0160208091040260200160405190810160405280929190818152602001828054610fd49061591a565b80156110215780601f10610ff657610100808354040283529160200191611021565b820191906000526020600020905b81548152906001019060200180831161100457829003601f168201915b505050506002830154600384015460049094015492936001600160a01b039091169290915085565b60606000611064600454600354613af790919063ffffffff16565b6001600160401b0381111561107b5761107b614dfa565b6040519080825280602002602001820160405280156110ea57816020015b6110d76040518060a00160405280600080191681526020016060815260200160006001600160a01b0316815260200160008152602001600081525090565b8152602001906001900390816110995790505b50915060006111056001600454613d9090919063ffffffff16565b90505b6003548111611245576002600061112a60045485613d9090919063ffffffff16565b81526020019081526020016000206040518060a00160405290816000820154815260200160018201805461115d9061591a565b80601f01602080910402602001604051908101604052809291908181526020018280546111899061591a565b80156111d65780601f106111ab576101008083540402835291602001916111d6565b820191906000526020600020905b8154815290600101906020018083116111b957829003601f168201915b505050918352505060028201546001600160a01b0316602082015260038201546040820152600490910154606090910152835184908490811061121b5761121b615850565b6020908102919091010152611231826001613d90565b91508061123d8161594f565b915050611108565b505090565b60045460009061125a9083613d90565b9050600354811061126a57506003545b60045442905b8281101561138d57816113257f00000000000000000000000000000000000000000000000000000000000000006001600160a01b031663da284dcc6040518163ffffffff1660e01b815260040160206040518083038186803b1580156112d557600080fd5b505afa1580156112e9573d6000803e3d6000fd5b505050506040513d601f19601f8201168201806040525081019061130d91906158ca565b60008481526002602052604090206004015490613d90565b101561137b5760008181526002602052604081208181559061134a6001830182614cec565b506002810180546001600160a01b0319169055600060038201819055600490910155611377816001613d90565b6004555b806113858161594f565b915050611270565b50505050565b600080546001600160a01b031633146113be5760405162461bcd60e51b8152600401610923906157c7565b60006113c8611485565b6001600160a01b03871660009081526005602052604090205490915060ff166114185760405162461bcd60e51b8152602060048201526002602482015261189b60f11b6044820152606401610923565b61142486868686613d9c565b61142d57600080fd5b600191508061143a611485565b101561147c5760405162461bcd60e51b8152602060048201526011602482015270496e76616c6964204c505420707269636560781b6044820152606401610923565b50949350505050565b60008060006114b560007f0000000000000000000000000000000000000000000000000000000000000000613453565b9150915060007f00000000000000000000000000000000000000000000000000000000000000006001600160a01b03166318160ddd6040518163ffffffff1660e01b815260040160206040518083038186803b15801561151457600080fd5b505afa158015611528573d6000803e3d6000fd5b505050506040513d601f19601f8201168201806040525081019061154c91906158ca565b90508015611597576115928161158c7f00000000000000000000000000000000000000000000000000000000000000006115868787613d90565b906141c1565b906141cd565b61159b565b6007545b935050505090565b600260015414156115c65760405162461bcd60e51b815260040161092390615819565b60026001556001600160a01b0382166000908152600f602090815260408083203384529091529020548111156116355760405162461bcd60e51b8152602060048201526014602482015273496e73756666696369656e742042616c616e636560601b6044820152606401610923565b6001600160a01b0382166000908152600f602090815260408083203384529091529020546116639082613af7565b6001600160a01b0383166000908152600f602090815260408083203380855292529091209190915561169790839083613a00565b6001600160a01b0382166000908152600f60209081526040808320338085529252918290205491517febff2602b3f468259e1e99f613fed6691f3a6526effe6ef3e768ba7ae7a36c4f926116f292869290918691429061596a565b60405180910390a1505060018055565b600260015414156117255760405162461bcd60e51b815260040161092390615819565b60026001553361173d61014083016101208401615442565b6001600160a01b0316146117aa5760405162461bcd60e51b815260206004820152602e60248201527f596f752063616e206f6e6c79206578656375746520737761707320746f20796f60448201526d7572206f776e206164647265737360901b6064820152608401610923565b6040810135600f60006117c06020850185615442565b6001600160a01b0316815260208101919091526040016000908120906117ee61014085016101208601615442565b6001600160a01b03166001600160a01b0316815260200190815260200160002054101561182d5760405162461bcd60e51b815260040161092390615893565b6001600160a01b037f0000000000000000000000000000000000000000000000000000000000000000166118646020830183615442565b6001600160a01b0316146118cc5760405162461bcd60e51b815260206004820152602960248201527f66726f6d546f6b656e206d7573742062652074686520726571756972656420426044820152682a21ba103a37b5b2b760b91b6064820152608401610923565b6118d5816141d9565b61193c6040820135600f60006118ee6020860186615442565b6001600160a01b03168152602081019190915260400160009081209061191c61014086016101208701615442565b6001600160a01b0316815260208101919091526040016000205490613af7565b600f600061194d6020850185615442565b6001600160a01b03168152602081019190915260400160009081209061197b61014085016101208601615442565b6001600160a01b031681526020810191909152604001600020555060018055565b600080546001600160a01b031633146119c75760405162461bcd60e51b8152600401610923906157c7565b60065460ff6101009091048116908416108015906119e9575060ff8360ff1611155b611a1a5760405162461bcd60e51b8152602060048201526002602482015261303160f01b6044820152606401610923565b611a2560018461599b565b60ff168460ff161015611a5f5760405162461bcd60e51b8152602060048201526002602482015261181960f11b6044820152606401610923565b8451865114611a955760405162461bcd60e51b8152602060048201526002602482015261303560f01b6044820152606401610923565b611a9e8761347d565b60005b8651811015611cc857858181518110611abc57611abc615850565b6020026020010151611c3157600060ff16600b6000898481518110611ae357611ae3615850565b6020908102919091018101516001600160a01b031682528101919091526040016000205460ff161415611b6057600c878281518110611b2457611b24615850565b60209081029190910181015182546001810184556000938452919092200180546001600160a01b0319166001600160a01b039092169190911790555b600160ff16600b6000898481518110611b7b57611b7b615850565b6020908102919091018101516001600160a01b031682528101919091526040016000205460ff1614611bd457600d805460ff16906000611bba836159c0565b91906101000a81548160ff021916908360ff160217905550505b6001600b6000898481518110611bec57611bec615850565b60200260200101516001600160a01b03166001600160a01b0316815260200190815260200160002060006101000a81548160ff021916908360ff160217905550611cb6565b600d805460ff16906000611c44836159e0565b91906101000a81548160ff021916908360ff160217905550506002600b6000898481518110611c7557611c75615850565b60200260200101516001600160a01b03166001600160a01b0316815260200190815260200160002060006101000a81548160ff021916908360ff1602179055505b80611cc08161594f565b915050611aa1565b50600d54606460ff9091161115611d2b5760405162461bcd60e51b815260206004820152602160248201527f53746f726564206e6f64652073697a652073686f756c64206265203c3d2031306044820152600360fc1b6064820152608401610923565b506006805460ff8481166101000261ffff1990921690861617179055600e81905560019695505050505050565b600d54606090600090819060ff166001600160401b03811115611d7d57611d7d614dfa565b604051908082528060200260200182016040528015611da6578160200160208202803683370190505b50905060005b600c54811015611e7b57600160ff16600b6000600c8481548110611dd257611dd2615850565b60009182526020808320909101546001600160a01b0316835282019290925260400190205460ff161415611e6957600c8181548110611e1357611e13615850565b9060005260206000200160009054906101000a90046001600160a01b0316828481518110611e4357611e43615850565b6001600160a01b039092166020928302919091019091015282611e658161594f565b9350505b80611e738161594f565b915050611dac565b5092915050565b6000546001600160a01b03163314611eac5760405162461bcd60e51b8152600401610923906157c7565b611eb66000614311565b565b60026001541415611edb5760405162461bcd60e51b815260040161092390615819565b60026001556001600160a01b037f0000000000000000000000000000000000000000000000000000000000000000166000908152600f60209081526040808320338452909152902054811115611f3057600080fd5b604051632e1a7d4d60e01b8152600481018290527f00000000000000000000000000000000000000000000000000000000000000006001600160a01b031690632e1a7d4d90602401600060405180830381600087803b158015611f9257600080fd5b505af1158015611fa6573d6000803e3d6000fd5b5050506001600160a01b037f0000000000000000000000000000000000000000000000000000000000000000166000908152600f60209081526040808320338452909152902054611ff8915082613af7565b7f00000000000000000000000000000000000000000000000000000000000000006001600160a01b03166000908152600f60209081526040808320338085529252808320939093559151829084908381818185875af1925050503d806000811461207e576040519150601f19603f3d011682016040523d82523d6000602084013e612083565b606091505b50509050806120d45760405162461bcd60e51b815260206004820152601e60248201527f72656365697665722072656a656374656420455448207472616e7366657200006044820152606401610923565b6001600160a01b037f0000000000000000000000000000000000000000000000000000000000000000166000908152600f60209081526040808320338085529252918290205491517febff2602b3f468259e1e99f613fed6691f3a6526effe6ef3e768ba7ae7a36c4f926121639273eeeeeeeeeeeeeeeeeeeeeeeeeeeeeeeeeeeeeeee9290918891429061596a565b60405180910390a150506001805550565b6001600160a01b0381166000908152600b602052604081205460ff16600114156121a057506001919050565b506000919050565b600080546001600160a01b031633146121d35760405162461bcd60e51b8152600401610923906157c7565b836121dd57600080fd5b826121e757600080fd5b61221360007f000000000000000000000000000000000000000000000000000000000000000086613518565b6001600160a01b037f000000000000000000000000000000000000000000000000000000000000000081166000908152600f60209081526040808320938916835292905220546122639085613d90565b6001600160a01b037f000000000000000000000000000000000000000000000000000000000000000081166000908152600f60209081526040808320938a168352929052908120919091556122b890846135ee565b6122c182613998565b506001949350505050565b6000600260015414156122f15760405162461bcd60e51b815260040161092390615819565b60026001556001600160a01b037f00000000000000000000000000000000000000000000000000000000000000001661232d6020840184615442565b6001600160a01b031614156123845760405162461bcd60e51b815260206004820152601c60248201527f4d757374206e6f7420737761702066726f6d2042544320746f6b656e000000006044820152606401610923565b6001600160a01b037f0000000000000000000000000000000000000000000000000000000000000000166123be6040840160208501615442565b6001600160a01b03161461240d5760405162461bcd60e51b815260206004820152601660248201527526bab9ba1039bbb0b8103a3790212a21903a37b5b2b760511b6044820152606401610923565b3061242061014084016101208501615442565b6001600160a01b0316146124805760405162461bcd60e51b815260206004820152602160248201527f42656e6566696369617279206d757374206265207468697320636f6e747261636044820152601d60fa1b6064820152608401610923565b6040820135600f60006124966020860186615442565b6001600160a01b031681526020808201929092526040908101600090812033825290925290205410156124db5760405162461bcd60e51b815260040161092390615893565b60006124ed6040840160208501615442565b6040516370a0823160e01b81523060048201526001600160a01b0391909116906370a082319060240160206040518083038186803b15801561252e57600080fd5b505afa158015612542573d6000803e3d6000fd5b505050506040513d601f19601f8201168201806040525081019061256691906158ca565b90506125ae6040840135600f60006125816020880188615442565b6001600160a01b031681526020808201929092526040908101600090812033825290925290205490613af7565b600f60006125bf6020870187615442565b6001600160a01b03168152602080820192909252604090810160009081203382529092529020556125ef836141d9565b612631816126036040860160208701615442565b6040516370a0823160e01b81523060048201526001600160a01b0391909116906370a0823190602401610e9d565b915082608001358210156126575760405162461bcd60e51b8152600401610923906158e3565b7f00000000000000000000000000000000000000000000000000000000000000006001600160a01b0316631411c5b76040518163ffffffff1660e01b815260040160206040518083038186803b1580156126b057600080fd5b505afa1580156126c4573d6000803e3d6000fd5b505050506040513d601f19601f820116820180604052508101906126e891906158ca565b8210156127075760405162461bcd60e51b8152600401610923906159fd565b612712858584614361565b50600180559392505050565b600080546001600160a01b031633146127495760405162461bcd60e51b8152600401610923906157c7565b8361275357600080fd5b8261275d57600080fd5b61278960007f000000000000000000000000000000000000000000000000000000000000000086613518565b6127946000846135ee565b61279d82613998565b60005b85518110156128ef5761286a8682815181106127be576127be615850565b602002602001015160a01c6bffffffffffffffffffffffff16600f60007f00000000000000000000000000000000000000000000000000000000000000006001600160a01b03166001600160a01b03168152602001908152602001600020600089858151811061283057612830615850565b602002602001015160001c6001600160a01b03166001600160a01b0316815260200190815260200160002054613d9090919063ffffffff16565b6001600160a01b037f0000000000000000000000000000000000000000000000000000000000000000166000908152600f6020526040812088519091908990859081106128b9576128b9615850565b6020908102919091018101516001600160a01b0316825281019190915260400160002055806128e78161594f565b9150506127a0565b50600195945050505050565b600080546001600160a01b031633146129265760405162461bcd60e51b8152600401610923906157c7565b6000828152600a602052604090205460ff16156129855760405162461bcd60e51b815260206004820152601860248201527f546865207478696420697320616c7265616479207573656400000000000000006044820152606401610923565b604080518082019091526002815261189960f11b6020808301919091526000805260099052600080516020615f4b833981519152546129c59185906144ed565b600080526009602052600080516020615f4b833981519152556129e782614519565b50600192915050565b60026001541415612a135760405162461bcd60e51b815260040161092390615819565b600260015534612c3d576001600160a01b03821673eeeeeeeeeeeeeeeeeeeeeeeeeeeeeeeeeeeeeeee1415612a4757600080fd5b7f00000000000000000000000000000000000000000000000000000000000000006001600160a01b0316826001600160a01b03161415612a8657600080fd5b6040516370a0823160e01b81523060048201526000906001600160a01b038416906370a082319060240160206040518083038186803b158015612ac857600080fd5b505afa158015612adc573d6000803e3d6000fd5b505050506040513d601f19601f82011682018060405250810190612b0091906158ca565b9050612b176001600160a01b038416333085614534565b6040516370a0823160e01b81523060048201526000906001600160a01b038516906370a082319060240160206040518083038186803b158015612b5957600080fd5b505afa158015612b6d573d6000803e3d6000fd5b505050506040513d601f19601f82011682018060405250810190612b9191906158ca565b90506000612b9f8284613af7565b6001600160a01b0386166000908152600f60209081526040808320338452909152902054909150612bd09082613d90565b6001600160a01b0386166000908152600f602090815260408083203380855292529182902083905590517f4e2ca0515ed1aef1395f66b5303bb5d6f1bf9d61a353fa53f73f8ac9973fa9f692612c2d92899290918691429061596a565b60405180910390a1505050612d9e565b60003411612c4a57600080fd5b7f00000000000000000000000000000000000000000000000000000000000000006001600160a01b031663d0e30db0346040518263ffffffff1660e01b81526004016000604051808303818588803b158015612ca557600080fd5b505af1158015612cb9573d6000803e3d6000fd5b5050506001600160a01b037f0000000000000000000000000000000000000000000000000000000000000000166000908152600f60209081526040808320338452909152902054612d0d9250905034613d90565b7f00000000000000000000000000000000000000000000000000000000000000006001600160a01b03166000908152600f602090815260408083203380855292529182902083905590517f4e2ca0515ed1aef1395f66b5303bb5d6f1bf9d61a353fa53f73f8ac9973fa9f6926116f29273eeeeeeeeeeeeeeeeeeeeeeeeeeeeeeeeeeeeeeee9290913491429061596a565b505060018055565b600080546001600160a01b03163314612dd15760405162461bcd60e51b8152600401610923906157c7565b6000612ddb611485565b6001600160a01b03861660009081526005602052604090205490915060ff16612e2b5760405162461bcd60e51b8152602060048201526002602482015261189b60f11b6044820152606401610923565b612e3685858561459f565b612e3f57600080fd5b6001915080612e4c611485565b1015612e8e5760405162461bcd60e51b8152602060048201526011602482015270496e76616c6964204c505420707269636560781b6044820152606401610923565b509392505050565b600060026001541415612ebb5760405162461bcd60e51b815260040161092390615819565b6002600155600083838281612ed257612ed2615850565b9050602002016020810190612ee79190615442565b905060008484612ef860018261587c565b818110612f0757612f07615850565b9050602002016020810190612f1c9190615442565b6001600160a01b0383166000908152600f60209081526040808320338452909152902054909150871115612f625760405162461bcd60e51b815260040161092390615893565b7f00000000000000000000000000000000000000000000000000000000000000006001600160a01b0316826001600160a01b03161415612fdf5760405162461bcd60e51b815260206004820152601860248201527726bab9ba1039bbb0b810333937b690212a21903a37b5b2b760411b6044820152606401610923565b6001600160a01b03821673eeeeeeeeeeeeeeeeeeeeeeeeeeeeeeeeeeeeeeee14156130445760405162461bcd60e51b815260206004820152601560248201527455736520706174682077455448202d3e207742544360581b6044820152606401610923565b7f00000000000000000000000000000000000000000000000000000000000000006001600160a01b0316816001600160a01b0316146130be5760405162461bcd60e51b815260206004820152601660248201527526bab9ba1039bbb0b8103a3790212a21903a37b5b2b760511b6044820152606401610923565b6040516370a0823160e01b81523060048201526000906001600160a01b038316906370a082319060240160206040518083038186803b15801561310057600080fd5b505afa158015613114573d6000803e3d6000fd5b505050506040513d601f19601f8201168201806040525081019061313891906158ca565b6001600160a01b0384166000908152600f602090815260408083203384529091529020549091506131699089613af7565b6001600160a01b0384166000908152600f602090815260408083203384529091529020558a156131a6576131a18a8a8a8a8a8a613b0a565b6131b2565b6131b288888888613c50565b6040516370a0823160e01b81523060048201526131e49082906001600160a01b038516906370a0823190602401610e9d565b9350868410156132065760405162461bcd60e51b8152600401610923906158e3565b7f00000000000000000000000000000000000000000000000000000000000000006001600160a01b0316631411c5b76040518163ffffffff1660e01b815260040160206040518083038186803b15801561325f57600080fd5b505afa158015613273573d6000803e3d6000fd5b505050506040513d601f19601f8201168201806040525081019061329791906158ca565b8410156132b65760405162461bcd60e51b8152600401610923906159fd565b6132c18d8d86614361565b505050600180559998505050505050505050565b600080546001600160a01b031633146133005760405162461bcd60e51b8152600401610923906157c7565b7f0000000000000000000000000000000000000000000000000000000000000000871561341957600061333788610eed8b8a613af7565b6040516349e031a560e01b81529091506001600160a01b037f000000000000000000000000000000000000000000000000000000000000000016906349e031a59061338b906000908a908a90600401615a51565b602060405180830381600087803b1580156133a557600080fd5b505af11580156133b9573d6000803e3d6000fd5b505050506040513d601f19601f820116820180604052508101906133dd91906157fc565b506134137f0000000000000000000000000000000000000000000000000000000000000000600061340e848c613d90565b613518565b50613422565b87613422575060005b61342c81876135ee565b8215610b3e57610b3e600080526009602052600080516020615f4b83398151915254600855565b6001600160a01b039182166000908152600960205260408082205492909316815291909120549091565b6000546001600160a01b031633146134a75760405162461bcd60e51b8152600401610923906157c7565b6001600160a01b03811661350c5760405162461bcd60e51b815260206004820152602660248201527f4f776e61626c653a206e6577206f776e657220697320746865207a65726f206160448201526564647265737360d01b6064820152608401610923565b61351581614311565b50565b6040805180820182526002815261313160f01b6020808301919091526001600160a01b0385166000908152600990915291909120546135589183906144ed565b6001600160a01b0380841660009081526009602052604080822093909355908516815220546135879082613d90565b6001600160a01b038481166000818152600960209081526040918290209490945580519182529185169281019290925281018290527fea368a40e9570069bb8e6511d668293ad2e1f03b0d982431fd223de9f3b70ca69060600160405180910390a1505050565b806135f7575050565b7f00000000000000000000000000000000000000000000000000000000000000006001600160a01b0316826001600160a01b031614156137485760405163a9059cbb60e01b81526001600160a01b037f000000000000000000000000000000000000000000000000000000000000000081166004830152602482018390527f0000000000000000000000000000000000000000000000000000000000000000169063a9059cbb90604401602060405180830381600087803b1580156136bb57600080fd5b505af11580156136cf573d6000803e3d6000fd5b505050506040513d601f19601f820116820180604052508101906136f391906157fc565b50604080516001600160a01b0384168152600060208201819052818301849052606082015290517fe3debe835f6848edc082b32a1d729781d3bfcd7e14422d80bcaa6794d3816b2f9181900360800190a15050565b6000613752611485565b6001600160a01b0384166000908152600960205260409020549091506137789083613d90565b60096000856001600160a01b03166001600160a01b03168152602001908152602001600020819055506000613846606461158c7f00000000000000000000000000000000000000000000000000000000000000006001600160a01b0316630b68134d6040518163ffffffff1660e01b815260040160206040518083038186803b15801561380457600080fd5b505afa158015613818573d6000803e3d6000fd5b505050506040513d601f19601f8201168201806040525081019061383c9190615aa9565b869060ff166141c1565b905060006138788361158c847f00000000000000000000000000000000000000000000000000000000000000006141c1565b6040516340c10f1960e01b81526001600160a01b037f000000000000000000000000000000000000000000000000000000000000000081166004830152602482018390529192507f0000000000000000000000000000000000000000000000000000000000000000909116906340c10f1990604401602060405180830381600087803b15801561390757600080fd5b505af115801561391b573d6000803e3d6000fd5b505050506040513d601f19601f8201168201806040525081019061393f91906157fc565b50604080516001600160a01b038716815260208101869052908101829052606081018490527fe3debe835f6848edc082b32a1d729781d3bfcd7e14422d80bcaa6794d3816b2f9060800160405180910390a15050505050565b60005b81518110156139fc576001600a60008484815181106139bc576139bc615850565b6020026020010151815260200190815260200160002060006101000a81548160ff02191690831515021790555080806139f49061594f565b91505061399b565b5050565b7f00000000000000000000000000000000000000000000000000000000000000006001600160a01b0316836001600160a01b03161415613a6757613a64817f00000000000000000000000000000000000000000000000000000000000000006141c1565b90505b60405163a9059cbb60e01b81526001600160a01b0383811660048301526024820183905284169063a9059cbb90604401602060405180830381600087803b158015613ab157600080fd5b505af1158015613ac5573d6000803e3d6000fd5b505050506040513d601f19601f82011682018060405250810190613ae991906157fc565b613af257600080fd5b505050565b6000613b03828461587c565b9392505050565b600082826000818110613b1f57613b1f615850565b9050602002016020810190613b349190615442565b9050600073def171fe48cf0115b1d80b88dc8eab59176fee576001600160a01b031663d2c4b5986040518163ffffffff1660e01b815260040160206040518083038186803b158015613b8557600080fd5b505afa158015613b99573d6000803e3d6000fd5b505050506040513d601f19601f82011682018060405250810190613bbd9190615ac6565b9050613bd36001600160a01b0383168288614815565b604051633d59840d60e21b815273def171fe48cf0115b1d80b88dc8eab59176fee579063f566103490613c14908b908b908b908b908b908b90600401615b21565b600060405180830381600087803b158015613c2e57600080fd5b505af1158015613c42573d6000803e3d6000fd5b505050505050505050505050565b600082826000818110613c6557613c65615850565b9050602002016020810190613c7a9190615442565b9050600073def171fe48cf0115b1d80b88dc8eab59176fee576001600160a01b031663d2c4b5986040518163ffffffff1660e01b815260040160206040518083038186803b158015613ccb57600080fd5b505afa158015613cdf573d6000803e3d6000fd5b505050506040513d601f19601f82011682018060405250810190613d039190615ac6565b9050613d196001600160a01b0383168288614815565b604051632a42068d60e11b815273def171fe48cf0115b1d80b88dc8eab59176fee57906354840d1a90613d56908990899089908990600401615b61565b600060405180830381600087803b158015613d7057600080fd5b505af1158015613d84573d6000803e3d6000fd5b50505050505050505050565b6000613b038284615b8b565b6000818152600a602052604081205460ff1615613de05760405162461bcd60e51b8152602060048201526002602482015261181b60f11b6044820152606401610923565b83613e125760405162461bcd60e51b8152602060048201526002602482015261303760f01b6044820152606401610923565b8360a081901c6000613e22611485565b90506000613e547f000000000000000000000000000000000000000000000000000000000000000061158c85856141c1565b90506000613efc61271061158c7f00000000000000000000000000000000000000000000000000000000000000006001600160a01b031663b6268e5d6040518163ffffffff1660e01b815260040160206040518083038186803b158015613eba57600080fd5b505afa158015613ece573d6000803e3d6000fd5b505050506040513d601f19601f82011682018060405250810190613ef29190615aa9565b859060ff166141c1565b905087613f098383613af7565b1015613f3c5760405162461bcd60e51b8152602060048201526002602482015261303960f01b6044820152606401610923565b6000613f4c89610eed8585613af7565b9050600080613f7c60007f0000000000000000000000000000000000000000000000000000000000000000613453565b90925090506001600160a01b038d16613fd257613f998585613af7565b821015613fcd5760405162461bcd60e51b8152602060048201526002602482015261060760f31b6044820152606401610923565b61404a565b7f00000000000000000000000000000000000000000000000000000000000000006001600160a01b03168d6001600160a01b0316141561404a576140168585613af7565b81101561404a5760405162461bcd60e51b8152602060048201526002602482015261189960f11b6044820152606401610923565b6140548d856135ee565b61405e8d866148d6565b6140678a614519565b7f00000000000000000000000000000000000000000000000000000000000000006001600160a01b03168d6001600160a01b031614156140ac576140ac8d8985613a00565b604051630852cd8d60e31b8152600481018890527f00000000000000000000000000000000000000000000000000000000000000006001600160a01b0316906342966c6890602401602060405180830381600087803b15801561410e57600080fd5b505af1158015614122573d6000803e3d6000fd5b505050506040513d601f19601f8201168201806040525081019061414691906157fc565b61414f57600080fd5b604080516001600160a01b038a16815260208101899052908101869052606081018790526080810184905260a081018b90527fa9da34e5e4a956b744307ae7611795634e8365951073bf049d76b64b2ae7a0589060c00160405180910390a15060019c9b505050505050505050505050565b6000613b038284615ba3565b6000613b038284615bc2565b600073def171fe48cf0115b1d80b88dc8eab59176fee576001600160a01b031663d2c4b5986040518163ffffffff1660e01b815260040160206040518083038186803b15801561422857600080fd5b505afa15801561423c573d6000803e3d6000fd5b505050506040513d601f19601f820116820180604052508101906142609190615ac6565b90506142888160408401356142786020860186615442565b6001600160a01b03169190614815565b6040516354e3f31b60e01b815273def171fe48cf0115b1d80b88dc8eab59176fee57906354e3f31b906142bf908590600401615ce8565b602060405180830381600087803b1580156142d957600080fd5b505af11580156142ed573d6000803e3d6000fd5b505050506040513d601f19601f82011682018060405250810190613af291906158ca565b600080546001600160a01b038381166001600160a01b0319831681178455604051919092169283917f8be0079c531659141344cd1fd0a4f28419497f9722a3daafe3b4186f6b6457e09190a35050565b60007f0000000000000000000000000000000000000000000000000000000000000000600354858585426040516020016143a096959493929190615e9e565b6040516020818303038152906040528051906020012090506040518060a0016040528082815260200185858080601f01602080910402602001604051908101604052809392919081815260200183838082843760009201829052509385525050336020808501919091526040808501889052426060909501949094526003548352600281529290912083518155838301518051919361444793506001850192910190614d26565b5060408201516002820180546001600160a01b0319166001600160a01b039092169190911790556060820151600382015560809091015160049091015561448c614936565b60035461449a906001613d90565b6003556144a682614a2a565b7faaa4c278970337923c885845b00985ecf5082317e2f9abf72a27b4d35255d6728185853386426040516144df96959493929190615eda565b60405180910390a150505050565b600081848411156145115760405162461bcd60e51b81526004016109239190615f1b565b505050900390565b6000908152600a60205260409020805460ff19166001179055565b6040516001600160a01b038085166024830152831660448201526064810182905261138d9085906323b872dd60e01b906084015b60408051601f198184030181529190526020810180516001600160e01b03166001600160e01b031990931692909217909152614a7f565b6000818152600a602052604081205460ff16156145e35760405162461bcd60e51b8152602060048201526002602482015261181b60f11b6044820152606401610923565b826146155760405162461bcd60e51b8152602060048201526002602482015261303760f01b6044820152606401610923565b8260a081901c6000614625611485565b905060006146578261158c857f00000000000000000000000000000000000000000000000000000000000000006141c1565b6040516340c10f1960e01b81526001600160a01b038681166004830152602482018390529192507f0000000000000000000000000000000000000000000000000000000000000000909116906340c10f1990604401602060405180830381600087803b1580156146c657600080fd5b505af11580156146da573d6000803e3d6000fd5b505050506040513d601f19601f820116820180604052508101906146fe91906157fc565b506147098884614b51565b61471286614519565b7fdfaf4e23f7030adafec91a682e05bf9fb30c721f9cec3d8bcfae0459c5362db1848483857f00000000000000000000000000000000000000000000000000000000000000006001600160a01b031663424192556040518163ffffffff1660e01b815260040160206040518083038186803b15801561479057600080fd5b505afa1580156147a4573d6000803e3d6000fd5b505050506040513d601f19601f820116820180604052508101906147c89190615aa9565b604080516001600160a01b039096168652602086019490945292840191909152606083015260ff16608082015260a0810188905260c00160405180910390a1506001979650505050505050565b604051636eb1769f60e11b81523060048201526001600160a01b038381166024830152600091839186169063dd62ed3e9060440160206040518083038186803b15801561486157600080fd5b505afa158015614875573d6000803e3d6000fd5b505050506040513d601f19601f8201168201806040525081019061489991906158ca565b6148a39190615b8b565b6040516001600160a01b03851660248201526044810182905290915061138d90859063095ea7b360e01b90606401614568565b6040805180820182526002815261031360f41b6020808301919091526001600160a01b0385166000908152600990915291909120546149169183906144ed565b6001600160a01b0390921660009081526009602052604090209190915550565b60045460009061494790600a613d90565b9050600354811061495757506003545b60045442905b82811015613af257816149c27f00000000000000000000000000000000000000000000000000000000000000006001600160a01b031663da284dcc6040518163ffffffff1660e01b815260040160206040518083038186803b1580156112d557600080fd5b1015614a18576000818152600260205260408120818155906149e76001830182614cec565b506002810180546001600160a01b0319169055600060038201819055600490910155614a14816001613d90565b6004555b80614a228161594f565b91505061495d565b600854614a5257614a52600080526009602052600080516020615f4b83398151915254600855565b604080518082019091526002815261189960f11b6020820152600854614a799183906144ed565b60085550565b6000614ad4826040518060400160405280602081526020017f5361666545524332303a206c6f772d6c6576656c2063616c6c206661696c6564815250856001600160a01b0316614b749092919063ffffffff16565b805190915015613af25780806020019051810190614af291906157fc565b613af25760405162461bcd60e51b815260206004820152602a60248201527f5361666545524332303a204552433230206f7065726174696f6e20646964206e6044820152691bdd081cdd58d8d9595960b21b6064820152608401610923565b6001600160a01b0382166000908152600960205260409020546149169082613d90565b6060614b838484600085614b8b565b949350505050565b606082471015614bec5760405162461bcd60e51b815260206004820152602660248201527f416464726573733a20696e73756666696369656e742062616c616e636520666f6044820152651c8818d85b1b60d21b6064820152608401610923565b843b614c3a5760405162461bcd60e51b815260206004820152601d60248201527f416464726573733a2063616c6c20746f206e6f6e2d636f6e74726163740000006044820152606401610923565b600080866001600160a01b03168587604051614c569190615f2e565b60006040518083038185875af1925050503d8060008114614c93576040519150601f19603f3d011682016040523d82523d6000602084013e614c98565b606091505b5091509150614ca8828286614cb3565b979650505050505050565b60608315614cc2575081613b03565b825115614cd25782518084602001fd5b8160405162461bcd60e51b81526004016109239190615f1b565b508054614cf89061591a565b6000825580601f10614d08575050565b601f0160209004906000526020600020908101906135159190614daa565b828054614d329061591a565b90600052602060002090601f016020900481019282614d545760008555614d9a565b82601f10614d6d57805160ff1916838001178555614d9a565b82800160010185558215614d9a579182015b82811115614d9a578251825591602001919060010190614d7f565b50614da6929150614daa565b5090565b5b80821115614da65760008155600101614dab565b634e487b7160e01b600052600160045260246000fd5b6001600160a01b038116811461351557600080fd5b8035614df581614dd5565b919050565b634e487b7160e01b600052604160045260246000fd5b604051601f8201601f191681016001600160401b0381118282101715614e3857614e38614dfa565b604052919050565b60006001600160401b03821115614e5957614e59614dfa565b5060051b60200190565b600082601f830112614e7457600080fd5b81356020614e89614e8483614e40565b614e10565b82815260059290921b84018101918181019086841115614ea857600080fd5b8286015b84811015614ec35780358352918301918301614eac565b509695505050505050565b60008060008060008060c08789031215614ee757600080fd5b8635614ef281614dd5565b95506020870135614f0281614dd5565b945060408701359350606087013592506080870135915060a08701356001600160401b03811115614f3257600080fd5b614f3e89828a01614e63565b9150509295509295509295565b801515811461351557600080fd5b8035614df581614f4b565b60008083601f840112614f7657600080fd5b5081356001600160401b03811115614f8d57600080fd5b6020830191508360208260051b8501011115614fa857600080fd5b9250929050565b600080600080600080600060c0888a031215614fca57600080fd5b8735614fd581614f4b565b96506020880135614fe581614dd5565b955060408801359450606088013593506080880135925060a08801356001600160401b0381111561501557600080fd5b6150218a828b01614f64565b989b979a50959850939692959293505050565b60006020828403121561504657600080fd5b5035919050565b60005b83811015615068578181015183820152602001615050565b8381111561138d5750506000910152565b6000815180845261509181602086016020860161504d565b601f01601f19169290920160200192915050565b85815260a0602082015260006150be60a0830187615079565b6001600160a01b0395909516604083015250606081019290925260809091015292915050565b60006020808301818452808551808352604092508286019150828160051b87010184880160005b8381101561517457603f19898403018552815160a08151855288820151818a87015261513982870182615079565b838a01516001600160a01b0316878b01526060808501519088015260809384015193909601929092525050938601939086019060010161510b565b509098975050505050505050565b6000806000806080858703121561519857600080fd5b84356151a381614dd5565b966020860135965060408601359560600135945092505050565b600080604083850312156151d057600080fd5b82356151db81614dd5565b946020939093013593505050565b600080604083850312156151fc57600080fd5b823561520781614dd5565b9150602083013561521781614dd5565b809150509250929050565b60006101e0828403121561523557600080fd5b50919050565b60006020828403121561524d57600080fd5b81356001600160401b0381111561526357600080fd5b614b8384828501615222565b600082601f83011261528057600080fd5b81356020615290614e8483614e40565b82815260059290921b840181019181810190868411156152af57600080fd5b8286015b84811015614ec35780356152c681614dd5565b83529183019183016152b3565b60ff8116811461351557600080fd5b8035614df5816152d3565b60008060008060008060c0878903121561530657600080fd5b863561531181614dd5565b95506020878101356001600160401b038082111561532e57600080fd5b61533a8b838c0161526f565b975060408a013591508082111561535057600080fd5b508801601f81018a1361536257600080fd5b8035615370614e8482614e40565b81815260059190911b8201830190838101908c83111561538f57600080fd5b928401925b828410156153b65783356153a781614f4b565b82529284019290840190615394565b80985050505050506153ca606088016152e2565b92506153d8608088016152e2565b915060a087013590509295509295509295565b600081518084526020808501945080840160005b838110156154245781516001600160a01b0316875295820195908201906001016153ff565b509495945050505050565b602081526000613b0360208301846153eb565b60006020828403121561545457600080fd5b8135613b0381614dd5565b6000806000806080858703121561547557600080fd5b843561548081614dd5565b9350602085013592506040850135915060608501356001600160401b038111156154a957600080fd5b6154b587828801614e63565b91505092959194509250565b60008083601f8401126154d357600080fd5b5081356001600160401b038111156154ea57600080fd5b602083019150836020828501011115614fa857600080fd5b60008060006040848603121561551757600080fd5b83356001600160401b038082111561552e57600080fd5b61553a878388016154c1565b9095509350602086013591508082111561555357600080fd5b5061556086828701615222565b9150509250925092565b6000806000806080858703121561558057600080fd5b84356001600160401b038082111561559757600080fd5b6155a388838901614e63565b9550602087013594506040870135935060608701359150808211156155c757600080fd5b506154b587828801614e63565b600080604083850312156155e757600080fd5b50508035926020909101359150565b60008060006060848603121561560b57600080fd5b833561561681614dd5565b95602085013595506040909401359392505050565b600080600080600080600080600060e08a8c03121561564957600080fd5b89356001600160401b038082111561566057600080fd5b61566c8d838e016154c1565b909b50995060208c0135915061568182614f4b565b90975060408b01359061569382614dd5565b90965060608b0135955060808b0135945060a08b0135935060c08b013590808211156156be57600080fd5b506156cb8c828d01614f64565b915080935050809150509295985092959850929598565b60008060008060008060c087890312156156fb57600080fd5b8635955060208088013595506040880135945060608801356001600160401b038082111561572857600080fd5b6157348b838c0161526f565b955060808a013591508082111561574a57600080fd5b508801601f81018a1361575c57600080fd5b803561576a614e8482614e40565b81815260059190911b8201830190838101908c83111561578957600080fd5b928401925b828410156157a75783358252928401929084019061578e565b80965050505050506157bb60a08801614f59565b90509295509295509295565b6020808252818101527f4f776e61626c653a2063616c6c6572206973206e6f7420746865206f776e6572604082015260600190565b60006020828403121561580e57600080fd5b8151613b0381614f4b565b6020808252601f908201527f5265656e7472616e637947756172643a207265656e7472616e742063616c6c00604082015260600190565b634e487b7160e01b600052603260045260246000fd5b634e487b7160e01b600052601160045260246000fd5b60008282101561588e5761588e615866565b500390565b60208082526019908201527f42616c616e6365206973206e6f742073756666696369656e7400000000000000604082015260600190565b6000602082840312156158dc57600080fd5b5051919050565b6020808252601c908201527f526563656976656420616d6f756e7420696e73756666696369656e7400000000604082015260600190565b600181811c9082168061592e57607f821691505b6020821081141561523557634e487b7160e01b600052602260045260246000fd5b600060001982141561596357615963615866565b5060010190565b6001600160a01b03958616815293909416602084015260408301919091526060820152608081019190915260a00190565b600060ff821660ff84168060ff038211156159b8576159b8615866565b019392505050565b600060ff821660ff8114156159d7576159d7615866565b60010192915050565b600060ff8216806159f3576159f3615866565b6000190192915050565b60208082526034908201527f526563656976656420616d6f756e7420686173206e6f74206d657420746865206040820152736d696e20666f7220464c4f57203220737761707360601b606082015260800190565b6001600160a01b038416815260606020808301829052600091615a76908401866153eb565b838103604085015284518082528286019183019060005b8181101561517457835183529284019291840191600101615a8d565b600060208284031215615abb57600080fd5b8151613b03816152d3565b600060208284031215615ad857600080fd5b8151613b0381614dd5565b8183526000602080850194508260005b85811015615424578135615b0681614dd5565b6001600160a01b031687529582019590820190600101615af3565b60018060a01b038716815285602082015284604082015283606082015260a060808201526000615b5560a083018486615ae3565b98975050505050505050565b848152836020820152606060408201526000615b81606083018486615ae3565b9695505050505050565b60008219821115615b9e57615b9e615866565b500190565b6000816000190483118215151615615bbd57615bbd615866565b500290565b600082615bdf57634e487b7160e01b600052601260045260246000fd5b500490565b6000808335601e19843603018112615bfb57600080fd5b83016020810192503590506001600160401b03811115615c1a57600080fd5b8060051b3603831315614fa857600080fd5b6000808335601e19843603018112615c4357600080fd5b83016020810192503590506001600160401b03811115615c6257600080fd5b803603831315614fa857600080fd5b81835281816020850137506000828201602090810191909152601f909101601f19169091010190565b81835260006001600160fb1b03831115615cb357600080fd5b8260051b8083602087013760009401602001938452509192915050565b80356001600160801b031981168114614df557600080fd5b60208152615d0960208201615cfc84614dea565b6001600160a01b03169052565b6000615d1760208401614dea565b6001600160a01b0381166040840152506040830135606083015260608301356080830152608083013560a0830152615d5260a0840184615be4565b6101e08060c0860152615d6a61020086018385615ae3565b9250615d7960c0870187615c2c565b9250601f19808786030160e0880152615d93858584615c71565b9450615da260e0890189615be4565b94509150610100818887030181890152615dbd868685615c9a565b9550615dcb818a018a615be4565b9550925050610120818887030181890152615de7868685615c9a565b9550615df4818a01614dea565b9450506101409150615e10828801856001600160a01b03169052565b615e1b828901614dea565b93506101609150615e36828801856001600160a01b03169052565b61018093508188013584880152615e4f84890189615c2c565b945091506101a0818887030181890152615e6a868685615c71565b95506101c094508089013585890152505050615e87828701615cd0565b6001600160801b0319169401939093529392505050565b6bffffffffffffffffffffffff198760601b16815285601482015283856034830137603493019283019190915260548201526074019392505050565b86815260a060208201526000615ef460a083018789615c71565b6001600160a01b039590951660408301525060608101929092526080909101529392505050565b602081526000613b036020830184615079565b60008251615f4081846020870161504d565b919091019291505056feec8156718a8372b1db44bb411437d0870f3e3790d4a08526d024ce1b0b668f6ba2646970667358221220f0ac81188206680043d73acebb14601f9004670779b62086b95018106d19363764736f6c63430008090033",
  "linkReferences": {},
  "deployedLinkReferences": {}
}