{
  "_format": "hh-sol-artifact-1",
  "contractName": "SwapContract",
  "sourceName": "contracts/SwapContract.sol",
  "abi": [
    {
      "inputs": [
        {
          "internalType": "address",
          "name": "_lpToken",
          "type": "address"
        },
        {
          "internalType": "address",
          "name": "_btct",
          "type": "address"
        },
        {
          "internalType": "address",
          "name": "_wETH",
          "type": "address"
        },
        {
          "internalType": "uint256",
          "name": "_existingBTCFloat",
          "type": "uint256"
        }
      ],
      "stateMutability": "nonpayable",
      "type": "constructor"
    },
    {
      "anonymous": false,
      "inputs": [
        {
          "indexed": false,
          "internalType": "address",
          "name": "token",
          "type": "address"
        },
        {
          "indexed": false,
          "internalType": "uint256",
          "name": "amountOfLP",
          "type": "uint256"
        },
        {
          "indexed": false,
          "internalType": "uint256",
          "name": "amountOfFloat",
          "type": "uint256"
        },
        {
          "indexed": false,
          "internalType": "uint256",
          "name": "currentPriceLP",
          "type": "uint256"
        },
        {
          "indexed": false,
          "internalType": "uint256",
          "name": "withdrawal",
          "type": "uint256"
        },
        {
          "indexed": false,
          "internalType": "bytes32",
          "name": "txid",
          "type": "bytes32"
        }
      ],
      "name": "BurnLPTokensForFloat",
      "type": "event"
    },
    {
      "anonymous": false,
      "inputs": [
        {
          "indexed": false,
          "internalType": "address",
          "name": "token",
          "type": "address"
        },
        {
          "indexed": false,
          "internalType": "address",
          "name": "user",
          "type": "address"
        },
        {
          "indexed": false,
          "internalType": "uint256",
          "name": "amount",
          "type": "uint256"
        },
        {
          "indexed": false,
          "internalType": "uint256",
          "name": "balance",
          "type": "uint256"
        },
        {
          "indexed": false,
          "internalType": "uint256",
          "name": "Timestamp",
          "type": "uint256"
        }
      ],
      "name": "Deposit",
      "type": "event"
    },
    {
      "anonymous": false,
      "inputs": [
        {
          "indexed": false,
          "internalType": "uint256",
          "name": "rewardLPTsForNodes",
          "type": "uint256"
        }
      ],
      "name": "DistributeNodeRewards",
      "type": "event"
    },
    {
      "anonymous": false,
      "inputs": [
        {
          "indexed": false,
          "internalType": "address",
          "name": "to",
          "type": "address"
        },
        {
          "indexed": false,
          "internalType": "uint256",
          "name": "amountOfFloat",
          "type": "uint256"
        },
        {
          "indexed": false,
          "internalType": "uint256",
          "name": "amountOfLP",
          "type": "uint256"
        },
        {
          "indexed": false,
          "internalType": "uint256",
          "name": "currentPriceLP",
          "type": "uint256"
        },
        {
          "indexed": false,
          "internalType": "uint256",
          "name": "depositFees",
          "type": "uint256"
        },
        {
          "indexed": false,
          "internalType": "bytes32",
          "name": "txid",
          "type": "bytes32"
        }
      ],
      "name": "IssueLPTokensForFloat",
      "type": "event"
    },
    {
      "anonymous": false,
      "inputs": [
        {
          "indexed": true,
          "internalType": "address",
          "name": "previousOwner",
          "type": "address"
        },
        {
          "indexed": true,
          "internalType": "address",
          "name": "newOwner",
          "type": "address"
        }
      ],
      "name": "OwnershipTransferred",
      "type": "event"
    },
    {
      "anonymous": false,
      "inputs": [
        {
          "indexed": false,
          "internalType": "address",
          "name": "feesToken",
          "type": "address"
        },
        {
          "indexed": false,
          "internalType": "uint256",
          "name": "rewards",
          "type": "uint256"
        },
        {
          "indexed": false,
          "internalType": "uint256",
          "name": "amountLPTokensForNode",
          "type": "uint256"
        },
        {
          "indexed": false,
          "internalType": "uint256",
          "name": "currentPriceLP",
          "type": "uint256"
        }
      ],
      "name": "RewardsCollection",
      "type": "event"
    },
    {
      "anonymous": false,
      "inputs": [
        {
          "indexed": false,
          "internalType": "uint256",
          "name": "ExpirationTime",
          "type": "uint256"
        },
        {
          "indexed": false,
          "internalType": "uint256",
          "name": "Timestamp",
          "type": "uint256"
        }
      ],
      "name": "SetExpirationTime",
      "type": "event"
    },
    {
      "anonymous": false,
      "inputs": [
        {
          "indexed": false,
          "internalType": "address",
          "name": "from",
          "type": "address"
        },
        {
          "indexed": false,
          "internalType": "address",
          "name": "to",
          "type": "address"
        },
        {
          "indexed": false,
          "internalType": "uint256",
          "name": "amount",
          "type": "uint256"
        }
      ],
      "name": "Swap",
      "type": "event"
    },
    {
      "anonymous": false,
      "inputs": [
        {
          "indexed": false,
          "internalType": "bytes32",
          "name": "SwapID",
          "type": "bytes32"
        },
        {
          "indexed": false,
          "internalType": "string",
          "name": "DestAddr",
          "type": "string"
        },
        {
          "indexed": false,
          "internalType": "address",
          "name": "RefundAddr",
          "type": "address"
        },
        {
          "indexed": false,
          "internalType": "uint256",
          "name": "AmountWBTC",
          "type": "uint256"
        },
        {
          "indexed": false,
          "internalType": "uint256",
          "name": "Timestamp",
          "type": "uint256"
        }
      ],
      "name": "SwapTokensToBTC",
      "type": "event"
    },
    {
      "anonymous": false,
      "inputs": [
        {
          "indexed": false,
          "internalType": "address",
          "name": "token",
          "type": "address"
        },
        {
          "indexed": false,
          "internalType": "address",
          "name": "user",
          "type": "address"
        },
        {
          "indexed": false,
          "internalType": "uint256",
          "name": "amount",
          "type": "uint256"
        },
        {
          "indexed": false,
          "internalType": "uint256",
          "name": "balance",
          "type": "uint256"
        },
        {
          "indexed": false,
          "internalType": "uint256",
          "name": "Timestamp",
          "type": "uint256"
        }
      ],
      "name": "Withdraw",
      "type": "event"
    },
    {
      "stateMutability": "nonpayable",
      "type": "fallback"
    },
    {
      "inputs": [],
      "name": "BTCT_ADDR",
      "outputs": [
        {
          "internalType": "address",
          "name": "",
          "type": "address"
        }
      ],
      "stateMutability": "view",
      "type": "function"
    },
    {
      "inputs": [
        {
          "internalType": "address",
          "name": "_token",
          "type": "address"
        },
        {
          "internalType": "address",
          "name": "_user",
          "type": "address"
        }
      ],
      "name": "balanceOf",
      "outputs": [
        {
          "internalType": "uint256",
          "name": "",
          "type": "uint256"
        }
      ],
      "stateMutability": "view",
      "type": "function"
    },
    {
      "inputs": [
        {
          "internalType": "address",
          "name": "_newOwner",
          "type": "address"
        },
        {
          "internalType": "bytes32[]",
          "name": "_rewardAddressAndAmounts",
          "type": "bytes32[]"
        },
        {
          "internalType": "bool[]",
          "name": "_isRemoved",
          "type": "bool[]"
        },
        {
          "internalType": "uint8",
          "name": "_churnedInCount",
          "type": "uint8"
        },
        {
          "internalType": "uint8",
          "name": "_tssThreshold",
          "type": "uint8"
        },
        {
          "internalType": "uint8",
          "name": "_nodeRewardsRatio",
          "type": "uint8"
        },
        {
          "internalType": "uint8",
          "name": "_withdrawalFeeBPS",
          "type": "uint8"
        },
        {
          "internalType": "uint256",
          "name": "_minimumSwapAmountForWBTC",
          "type": "uint256"
        },
        {
          "internalType": "uint256",
          "name": "_expirationTime",
          "type": "uint256"
        }
      ],
      "name": "churn",
      "outputs": [
        {
          "internalType": "bool",
          "name": "",
          "type": "bool"
        }
      ],
      "stateMutability": "nonpayable",
      "type": "function"
    },
    {
      "inputs": [],
      "name": "churnedInCount",
      "outputs": [
        {
          "internalType": "uint8",
          "name": "",
          "type": "uint8"
        }
      ],
      "stateMutability": "view",
      "type": "function"
    },
    {
      "inputs": [
        {
          "internalType": "address",
          "name": "_destToken",
          "type": "address"
        },
        {
          "internalType": "uint256",
          "name": "_incomingAmount",
          "type": "uint256"
        },
        {
          "internalType": "uint256",
          "name": "_minerFee",
          "type": "uint256"
        },
        {
          "internalType": "uint256",
          "name": "_rewardsAmount",
          "type": "uint256"
        },
        {
          "internalType": "bool",
          "name": "_isUpdatelimitBTCForSPFlow2",
          "type": "bool"
        }
      ],
      "name": "collectSwapFeesForBTC",
      "outputs": [
        {
          "internalType": "bool",
          "name": "",
          "type": "bool"
        }
      ],
      "stateMutability": "nonpayable",
      "type": "function"
    },
    {
      "inputs": [],
      "name": "depositFeesBPS",
      "outputs": [
        {
          "internalType": "uint8",
          "name": "",
          "type": "uint8"
        }
      ],
      "stateMutability": "view",
      "type": "function"
    },
    {
      "inputs": [],
      "name": "distributeNodeRewards",
      "outputs": [
        {
          "internalType": "bool",
          "name": "",
          "type": "bool"
        }
      ],
      "stateMutability": "nonpayable",
      "type": "function"
    },
    {
      "inputs": [],
      "name": "expirationTime",
      "outputs": [
        {
          "internalType": "uint256",
          "name": "",
          "type": "uint256"
        }
      ],
      "stateMutability": "view",
      "type": "function"
    },
    {
      "inputs": [],
      "name": "feesLPTokensForNode",
      "outputs": [
        {
          "internalType": "uint256",
          "name": "",
          "type": "uint256"
        }
      ],
      "stateMutability": "view",
      "type": "function"
    },
    {
      "inputs": [],
      "name": "getActiveNodes",
      "outputs": [
        {
          "internalType": "bytes32[]",
          "name": "",
          "type": "bytes32[]"
        }
      ],
      "stateMutability": "view",
      "type": "function"
    },
    {
      "inputs": [],
      "name": "getCurrentPriceLP",
      "outputs": [
        {
          "internalType": "uint256",
          "name": "nowPrice",
          "type": "uint256"
        }
      ],
      "stateMutability": "view",
      "type": "function"
    },
    {
      "inputs": [
        {
          "internalType": "address",
          "name": "_token",
          "type": "address"
        },
        {
          "internalType": "uint256",
          "name": "_amountOfFloat",
          "type": "uint256"
        }
      ],
      "name": "getDepositFeeRate",
      "outputs": [
        {
          "internalType": "uint256",
          "name": "depositFeeRate",
          "type": "uint256"
        }
      ],
      "stateMutability": "view",
      "type": "function"
    },
    {
      "inputs": [
        {
          "internalType": "address",
          "name": "_tokenA",
          "type": "address"
        },
        {
          "internalType": "address",
          "name": "_tokenB",
          "type": "address"
        }
      ],
      "name": "getFloatReserve",
      "outputs": [
        {
          "internalType": "uint256",
          "name": "reserveA",
          "type": "uint256"
        },
        {
          "internalType": "uint256",
          "name": "reserveB",
          "type": "uint256"
        }
      ],
      "stateMutability": "view",
      "type": "function"
    },
    {
      "inputs": [
        {
          "internalType": "address",
          "name": "_user",
          "type": "address"
        }
      ],
      "name": "getNodeStake",
      "outputs": [
        {
          "internalType": "uint256",
          "name": "staked",
          "type": "uint256"
        }
      ],
      "stateMutability": "view",
      "type": "function"
    },
    {
      "inputs": [],
      "name": "initialExchangeRate",
      "outputs": [
        {
          "internalType": "uint256",
          "name": "",
          "type": "uint256"
        }
      ],
      "stateMutability": "view",
      "type": "function"
    },
    {
      "inputs": [
        {
          "internalType": "bytes32",
          "name": "_txid",
          "type": "bytes32"
        }
      ],
      "name": "isTxUsed",
      "outputs": [
        {
          "internalType": "bool",
          "name": "",
          "type": "bool"
        }
      ],
      "stateMutability": "view",
      "type": "function"
    },
    {
      "inputs": [],
      "name": "limitBTCForSPFlow2",
      "outputs": [
        {
          "internalType": "uint256",
          "name": "",
          "type": "uint256"
        }
      ],
      "stateMutability": "view",
      "type": "function"
    },
    {
      "inputs": [],
      "name": "lockedLPTokensForNode",
      "outputs": [
        {
          "internalType": "uint256",
          "name": "",
          "type": "uint256"
        }
      ],
      "stateMutability": "view",
      "type": "function"
    },
    {
      "inputs": [],
      "name": "lpToken",
      "outputs": [
        {
          "internalType": "address",
          "name": "",
          "type": "address"
        }
      ],
      "stateMutability": "view",
      "type": "function"
    },
    {
      "inputs": [],
      "name": "minimumSwapAmountForWBTC",
      "outputs": [
        {
          "internalType": "uint256",
          "name": "",
          "type": "uint256"
        }
      ],
      "stateMutability": "view",
      "type": "function"
    },
    {
      "inputs": [
        {
          "internalType": "bytes32[]",
          "name": "_addressesAndAmounts",
          "type": "bytes32[]"
        },
        {
          "internalType": "uint256",
          "name": "_totalSwapped",
          "type": "uint256"
        },
        {
          "internalType": "uint256",
          "name": "_rewardsAmount",
          "type": "uint256"
        },
        {
          "internalType": "bytes32[]",
          "name": "_usedTxIds",
          "type": "bytes32[]"
        }
      ],
      "name": "multiRecordSkyPoolsTX",
      "outputs": [
        {
          "internalType": "bool",
          "name": "",
          "type": "bool"
        }
      ],
      "stateMutability": "nonpayable",
      "type": "function"
    },
    {
      "inputs": [
        {
          "internalType": "address",
          "name": "_destToken",
          "type": "address"
        },
        {
          "internalType": "bytes32[]",
          "name": "_addressesAndAmounts",
          "type": "bytes32[]"
        },
        {
          "internalType": "uint256",
          "name": "_totalSwapped",
          "type": "uint256"
        },
        {
          "internalType": "uint256",
          "name": "_rewardsAmount",
          "type": "uint256"
        },
        {
          "internalType": "bytes32[]",
          "name": "_redeemedFloatTxIds",
          "type": "bytes32[]"
        }
      ],
      "name": "multiTransferERC20TightlyPacked",
      "outputs": [
        {
          "internalType": "bool",
          "name": "",
          "type": "bool"
        }
      ],
      "stateMutability": "nonpayable",
      "type": "function"
    },
    {
      "inputs": [],
      "name": "nodeRewardsRatio",
      "outputs": [
        {
          "internalType": "uint8",
          "name": "",
          "type": "uint8"
        }
      ],
      "stateMutability": "view",
      "type": "function"
    },
    {
      "inputs": [],
      "name": "oldestActiveIndex",
      "outputs": [
        {
          "internalType": "uint256",
          "name": "",
          "type": "uint256"
        }
      ],
      "stateMutability": "view",
      "type": "function"
    },
    {
      "inputs": [],
      "name": "owner",
      "outputs": [
        {
          "internalType": "address",
          "name": "",
          "type": "address"
        }
      ],
      "stateMutability": "view",
      "type": "function"
    },
    {
      "inputs": [
        {
          "internalType": "address",
          "name": "_token",
          "type": "address"
        },
        {
          "internalType": "bytes32",
          "name": "_addressesAndAmountOfFloat",
          "type": "bytes32"
        },
        {
          "internalType": "bool",
          "name": "_zerofee",
          "type": "bool"
        },
        {
          "internalType": "bytes32",
          "name": "_txid",
          "type": "bytes32"
        }
      ],
      "name": "recordIncomingFloat",
      "outputs": [
        {
          "internalType": "bool",
          "name": "",
          "type": "bool"
        }
      ],
      "stateMutability": "nonpayable",
      "type": "function"
    },
    {
      "inputs": [
        {
          "internalType": "address",
          "name": "_token",
          "type": "address"
        },
        {
          "internalType": "bytes32",
          "name": "_addressesAndAmountOfLPtoken",
          "type": "bytes32"
        },
        {
          "internalType": "uint256",
          "name": "_minerFee",
          "type": "uint256"
        },
        {
          "internalType": "bytes32",
          "name": "_txid",
          "type": "bytes32"
        }
      ],
      "name": "recordOutcomingFloat",
      "outputs": [
        {
          "internalType": "bool",
          "name": "",
          "type": "bool"
        }
      ],
      "stateMutability": "nonpayable",
      "type": "function"
    },
    {
      "inputs": [
        {
          "internalType": "address",
          "name": "_to",
          "type": "address"
        },
        {
          "internalType": "uint256",
          "name": "_totalSwapped",
          "type": "uint256"
        },
        {
          "internalType": "uint256",
          "name": "_rewardsAmount",
          "type": "uint256"
        },
        {
          "internalType": "bytes32[]",
          "name": "_usedTxIds",
          "type": "bytes32[]"
        }
      ],
      "name": "recordSkyPoolsTX",
      "outputs": [
        {
          "internalType": "bool",
          "name": "",
          "type": "bool"
        }
      ],
      "stateMutability": "nonpayable",
      "type": "function"
    },
    {
      "inputs": [
        {
          "internalType": "uint256",
          "name": "_minerFee",
          "type": "uint256"
        },
        {
          "internalType": "bytes32",
          "name": "_txid",
          "type": "bytes32"
        }
      ],
      "name": "recordUTXOSweepMinerFee",
      "outputs": [
        {
          "internalType": "bool",
          "name": "",
          "type": "bool"
        }
      ],
      "stateMutability": "nonpayable",
      "type": "function"
    },
    {
      "inputs": [
        {
          "internalType": "address",
          "name": "_token",
          "type": "address"
        },
        {
          "internalType": "uint256",
          "name": "_amount",
          "type": "uint256"
        }
      ],
      "name": "redeemERC20Token",
      "outputs": [],
      "stateMutability": "nonpayable",
      "type": "function"
    },
    {
      "inputs": [
        {
          "internalType": "uint256",
          "name": "_amount",
          "type": "uint256"
        }
      ],
      "name": "redeemEther",
      "outputs": [],
      "stateMutability": "nonpayable",
      "type": "function"
    },
    {
      "inputs": [],
      "name": "renounceOwnership",
      "outputs": [],
      "stateMutability": "nonpayable",
      "type": "function"
    },
    {
      "inputs": [
        {
          "internalType": "address",
          "name": "_destToken",
          "type": "address"
        },
        {
          "internalType": "address",
          "name": "_to",
          "type": "address"
        },
        {
          "internalType": "uint256",
          "name": "_amount",
          "type": "uint256"
        },
        {
          "internalType": "uint256",
          "name": "_totalSwapped",
          "type": "uint256"
        },
        {
          "internalType": "uint256",
          "name": "_rewardsAmount",
          "type": "uint256"
        },
        {
          "internalType": "bytes32[]",
          "name": "_redeemedFloatTxIds",
          "type": "bytes32[]"
        }
      ],
      "name": "singleTransferERC20",
      "outputs": [
        {
          "internalType": "bool",
          "name": "",
          "type": "bool"
        }
      ],
      "stateMutability": "nonpayable",
      "type": "function"
    },
    {
      "inputs": [
        {
          "internalType": "uint256",
          "name": "_loopCount",
          "type": "uint256"
        }
      ],
      "name": "spCleanUpOldTXs",
      "outputs": [],
      "stateMutability": "nonpayable",
      "type": "function"
    },
    {
      "inputs": [
        {
          "internalType": "address",
          "name": "_token",
          "type": "address"
        },
        {
          "internalType": "uint256",
          "name": "_amount",
          "type": "uint256"
        }
      ],
      "name": "spDeposit",
      "outputs": [],
      "stateMutability": "payable",
      "type": "function"
    },
    {
      "inputs": [
        {
          "components": [
            {
              "internalType": "address",
              "name": "fromToken",
              "type": "address"
            },
            {
              "internalType": "address",
              "name": "toToken",
              "type": "address"
            },
            {
              "internalType": "uint256",
              "name": "fromAmount",
              "type": "uint256"
            },
            {
              "internalType": "uint256",
              "name": "toAmount",
              "type": "uint256"
            },
            {
              "internalType": "uint256",
              "name": "expectedAmount",
              "type": "uint256"
            },
            {
              "internalType": "address[]",
              "name": "callees",
              "type": "address[]"
            },
            {
              "internalType": "bytes",
              "name": "exchangeData",
              "type": "bytes"
            },
            {
              "internalType": "uint256[]",
              "name": "startIndexes",
              "type": "uint256[]"
            },
            {
              "internalType": "uint256[]",
              "name": "values",
              "type": "uint256[]"
            },
            {
              "internalType": "address payable",
              "name": "beneficiary",
              "type": "address"
            },
            {
              "internalType": "address payable",
              "name": "partner",
              "type": "address"
            },
            {
              "internalType": "uint256",
              "name": "feePercent",
              "type": "uint256"
            },
            {
              "internalType": "bytes",
              "name": "permit",
              "type": "bytes"
            },
            {
              "internalType": "uint256",
              "name": "deadline",
              "type": "uint256"
            },
            {
              "internalType": "bytes16",
              "name": "uuid",
              "type": "bytes16"
            }
          ],
          "internalType": "struct Utils.SimpleData",
          "name": "_data",
          "type": "tuple"
        }
      ],
      "name": "spFlow1SimpleSwap",
      "outputs": [],
      "stateMutability": "nonpayable",
      "type": "function"
    },
    {
      "inputs": [
        {
          "internalType": "bool",
          "name": "_fork",
          "type": "bool"
        },
        {
          "internalType": "address",
          "name": "_factory",
          "type": "address"
        },
        {
          "internalType": "bytes32",
          "name": "_initCode",
          "type": "bytes32"
        },
        {
          "internalType": "uint256",
          "name": "_amountIn",
          "type": "uint256"
        },
        {
          "internalType": "uint256",
          "name": "_amountOutMin",
          "type": "uint256"
        },
        {
          "internalType": "address[]",
          "name": "_path",
          "type": "address[]"
        }
      ],
      "name": "spFlow1Uniswap",
      "outputs": [
        {
          "internalType": "uint256",
          "name": "receivedAmount",
          "type": "uint256"
        }
      ],
      "stateMutability": "nonpayable",
      "type": "function"
    },
    {
      "inputs": [
        {
          "internalType": "string",
          "name": "_destinationAddressForBTC",
          "type": "string"
        },
        {
          "components": [
            {
              "internalType": "address",
              "name": "fromToken",
              "type": "address"
            },
            {
              "internalType": "address",
              "name": "toToken",
              "type": "address"
            },
            {
              "internalType": "uint256",
              "name": "fromAmount",
              "type": "uint256"
            },
            {
              "internalType": "uint256",
              "name": "toAmount",
              "type": "uint256"
            },
            {
              "internalType": "uint256",
              "name": "expectedAmount",
              "type": "uint256"
            },
            {
              "internalType": "address[]",
              "name": "callees",
              "type": "address[]"
            },
            {
              "internalType": "bytes",
              "name": "exchangeData",
              "type": "bytes"
            },
            {
              "internalType": "uint256[]",
              "name": "startIndexes",
              "type": "uint256[]"
            },
            {
              "internalType": "uint256[]",
              "name": "values",
              "type": "uint256[]"
            },
            {
              "internalType": "address payable",
              "name": "beneficiary",
              "type": "address"
            },
            {
              "internalType": "address payable",
              "name": "partner",
              "type": "address"
            },
            {
              "internalType": "uint256",
              "name": "feePercent",
              "type": "uint256"
            },
            {
              "internalType": "bytes",
              "name": "permit",
              "type": "bytes"
            },
            {
              "internalType": "uint256",
              "name": "deadline",
              "type": "uint256"
            },
            {
              "internalType": "bytes16",
              "name": "uuid",
              "type": "bytes16"
            }
          ],
          "internalType": "struct Utils.SimpleData",
          "name": "_data",
          "type": "tuple"
        }
      ],
      "name": "spFlow2SimpleSwap",
      "outputs": [
        {
          "internalType": "uint256",
          "name": "receivedAmount",
          "type": "uint256"
        }
      ],
      "stateMutability": "nonpayable",
      "type": "function"
    },
    {
      "inputs": [
        {
          "internalType": "string",
          "name": "_destinationAddressForBTC",
          "type": "string"
        },
        {
          "internalType": "bool",
          "name": "_fork",
          "type": "bool"
        },
        {
          "internalType": "address",
          "name": "_factory",
          "type": "address"
        },
        {
          "internalType": "bytes32",
          "name": "_initCode",
          "type": "bytes32"
        },
        {
          "internalType": "uint256",
          "name": "_amountIn",
          "type": "uint256"
        },
        {
          "internalType": "uint256",
          "name": "_amountOutMin",
          "type": "uint256"
        },
        {
          "internalType": "address[]",
          "name": "_path",
          "type": "address[]"
        }
      ],
      "name": "spFlow2Uniswap",
      "outputs": [
        {
          "internalType": "uint256",
          "name": "receivedAmount",
          "type": "uint256"
        }
      ],
      "stateMutability": "nonpayable",
      "type": "function"
    },
    {
      "inputs": [],
      "name": "spGetPendingSwaps",
      "outputs": [
        {
          "components": [
            {
              "internalType": "bytes32",
              "name": "SwapID",
              "type": "bytes32"
            },
            {
              "internalType": "string",
              "name": "DestAddr",
              "type": "string"
            },
            {
              "internalType": "address",
              "name": "RefundAddr",
              "type": "address"
            },
            {
              "internalType": "uint256",
              "name": "AmountWBTC",
              "type": "uint256"
            },
            {
              "internalType": "uint256",
              "name": "Timestamp",
              "type": "uint256"
            }
          ],
          "internalType": "struct SwapContract.spPendingTx[]",
          "name": "data",
          "type": "tuple[]"
        }
      ],
      "stateMutability": "view",
      "type": "function"
    },
    {
      "inputs": [
        {
          "internalType": "uint256",
          "name": "",
          "type": "uint256"
        }
      ],
      "name": "spPendingTXs",
      "outputs": [
        {
          "internalType": "bytes32",
          "name": "SwapID",
          "type": "bytes32"
        },
        {
          "internalType": "string",
          "name": "DestAddr",
          "type": "string"
        },
        {
          "internalType": "address",
          "name": "RefundAddr",
          "type": "address"
        },
        {
          "internalType": "uint256",
          "name": "AmountWBTC",
          "type": "uint256"
        },
        {
          "internalType": "uint256",
          "name": "Timestamp",
          "type": "uint256"
        }
      ],
      "stateMutability": "view",
      "type": "function"
    },
    {
      "inputs": [],
      "name": "swapCount",
      "outputs": [
        {
          "internalType": "uint256",
          "name": "",
          "type": "uint256"
        }
      ],
      "stateMutability": "view",
      "type": "function"
    },
    {
      "inputs": [
        {
          "internalType": "address",
          "name": "",
          "type": "address"
        },
        {
          "internalType": "address",
          "name": "",
          "type": "address"
        }
      ],
      "name": "tokens",
      "outputs": [
        {
          "internalType": "uint256",
          "name": "",
          "type": "uint256"
        }
      ],
      "stateMutability": "view",
      "type": "function"
    },
    {
      "inputs": [
        {
          "internalType": "address",
          "name": "newOwner",
          "type": "address"
        }
      ],
      "name": "transferOwnership",
      "outputs": [],
      "stateMutability": "nonpayable",
      "type": "function"
    },
    {
      "inputs": [],
      "name": "tssThreshold",
      "outputs": [
        {
          "internalType": "uint8",
          "name": "",
          "type": "uint8"
        }
      ],
      "stateMutability": "view",
      "type": "function"
    },
    {
      "inputs": [],
      "name": "wETH",
      "outputs": [
        {
          "internalType": "address",
          "name": "",
          "type": "address"
        }
      ],
      "stateMutability": "view",
      "type": "function"
    },
    {
      "inputs": [
        {
          "internalType": "address",
          "name": "",
          "type": "address"
        }
      ],
      "name": "whitelist",
      "outputs": [
        {
          "internalType": "bool",
          "name": "",
          "type": "bool"
        }
      ],
      "stateMutability": "view",
      "type": "function"
    },
    {
      "inputs": [],
      "name": "withdrawalFeeBPS",
      "outputs": [
        {
          "internalType": "uint8",
          "name": "",
          "type": "uint8"
        }
      ],
      "stateMutability": "view",
      "type": "function"
    },
    {
      "stateMutability": "payable",
      "type": "receive"
    }
  ],
  "bytecode": "0x6101206040523480156200001257600080fd5b50604051620066773803806200667783398101604081905262000035916200033f565b6200004033620002d2565b600180556202a300600255615dc0600355600060068190556005556001600160a01b0380831661010052841660a08190526040805163313ce56760e01b8152905163313ce56791600480820192602092909190829003018186803b158015620000a857600080fd5b505afa158015620000bd573d6000803e3d6000fd5b505050506040513d601f19601f82011682018060405250810190620000e3919062000391565b620000f090600a620004d2565b60e0526001600160a01b03831660808190526008805464ffffff000019166414324200001781556040805163313ce56760e01b8152905191929163313ce56791600480820192602092909190829003018186803b1580156200015157600080fd5b505afa15801562000166573d6000803e3d6000fd5b505050506040513d601f19601f820116820180604052508101906200018c919062000391565b620001989190620004e3565b620001a590600a620004d2565b60c08181525050836001600160a01b031663313ce5676040518163ffffffff1660e01b815260040160206040518083038186803b158015620001e657600080fd5b505afa158015620001fb573d6000803e3d6000fd5b505050506040513d601f19601f8201168201806040525081019062000221919062000391565b6200022e90600a620004d2565b600b5560006009819055600a8190556001600160a01b039384168152600760209081526040808320805460ff199081166001908117909255979096168352822080548716861790559080527f6d5257204ebe7d88fd91ae87941cb2dd9d8062b64ae5a2bd2d28ec40b9fbf6df805490951690931790935550600d90527f81955a0a11e65eac625c29e8882660bae4e165a75d72780094acae8ece9a29ee5562000509565b600080546001600160a01b038381166001600160a01b0319831681178455604051919092169283917f8be0079c531659141344cd1fd0a4f28419497f9722a3daafe3b4186f6b6457e09190a35050565b80516001600160a01b03811681146200033a57600080fd5b919050565b600080600080608085870312156200035657600080fd5b620003618562000322565b9350620003716020860162000322565b9250620003816040860162000322565b6060959095015193969295505050565b600060208284031215620003a457600080fd5b815160ff81168114620003b657600080fd5b9392505050565b634e487b7160e01b600052601160045260246000fd5b600181815b8085111562000414578160001904821115620003f857620003f8620003bd565b808516156200040657918102915b93841c9390800290620003d8565b509250929050565b6000826200042d57506001620004cc565b816200043c57506000620004cc565b8160018114620004555760028114620004605762000480565b6001915050620004cc565b60ff841115620004745762000474620003bd565b50506001821b620004cc565b5060208310610133831016604e8410600b8410161715620004a5575081810a620004cc565b620004b18383620003d3565b8060001904821115620004c857620004c8620003bd565b0290505b92915050565b6000620003b660ff8416836200041c565b600060ff821660ff841680821015620005005762000500620003bd565b90039392505050565b60805160a05160c05160e05161010051615fc4620006b3600039600081816102a6015281816108d601528181611eca01528181611f2601528181611f9301528181611fda015281816120be01528181612e4b01528181612ec50152612f0e01526000818161180701528181613a0e01528181613f29015261451101526000613b450152600081816105ec01528181610d3601528181610d7101528181611753015281816122550152818161229001528181613453015281816134e6015281816138fa0152818161413f015261458501526000818161039a01528181610ce201528181610d1401528181610e8b01528181610f07015281816116880152818161172701528181611ae1015281816122010152818161223301528181612373015281816123a2015281816123f2015281816124850152818161251301528181612868015281816128a401528181612967015281816129db01528181612a7201528181612c48015281816130990152818161317b01528181613b0701528181613fd501528181614051015281816140e60152818161424a01528181614297015261471b0152615fc46000f3fe6080604052600436106102965760003560e01c80636d019f351161015a578063c810a539116100c1578063e9e9bf6a1161007a578063e9e9bf6a1461087a578063ec4827291461088f578063f2428621146108c4578063f2fde38b146108f8578063f7824bc714610918578063f7888aec1461092e576102d5565b8063c810a539146107c1578063ca0707e7146107e1578063cfbf92a9146107f4578063d38c7bb114610814578063da284dcc14610834578063e6ca20841461084a576102d5565b8063ad289e7611610113578063ad289e76146106ff578063b345a3581461071f578063b4014fe81461073f578063b6268e5d1461075f578063b81102de14610781578063bf62dcc8146107a1576102d5565b80636d019f3514610650578063715018a6146106665780638535490f1461067b5780638da5cb5b1461069b5780639b19251a146106b9578063a827278b146106e9576102d5565b80632586c562116101fe5780634db75485116101b75780634db7548514610562578063508493bc14610582578063511834c3146105ba5780635fcbd285146105da57806363f289d91461060e5780636b51e9191461062e576102d5565b80632586c562146104c05780632d55282d146104e05780632eff0d9e146104f65780633b6fa1271461050c578063424192551461052c57806345137e271461054d576102d5565b8063130b7a6311610250578063130b7a63146103f35780631411c5b7146104215780631ab7e937146104375780631bb069301461046857806320199e991461047e57806321959d3c146104a0576102d5565b806289356f146102e757806308493505146103185780630b68134d146103485780630d63aca7146103685780630f9094861461038857806312d1441e146103d4576102d5565b366102d557336001600160a01b037f000000000000000000000000000000000000000000000000000000000000000016146102d3576102d3614ec4565b005b3480156102e157600080fd5b50600080fd5b3480156102f357600080fd5b506008546103019060ff1681565b60405160ff90911681526020015b60405180910390f35b34801561032457600080fd5b50610338610333366004614ff2565b610974565b604051901515815260200161030f565b34801561035457600080fd5b506008546103019062010000900460ff1681565b34801561037457600080fd5b5061033861038336600461511d565b610c35565b34801561039457600080fd5b506103bc7f000000000000000000000000000000000000000000000000000000000000000081565b6040516001600160a01b03909116815260200161030f565b3480156103e057600080fd5b5060085461030190610100900460ff1681565b3480156103ff57600080fd5b5061041361040e3660046151e5565b610dbd565b60405190815260200161030f565b34801561042d57600080fd5b5061041360035481565b34801561044357600080fd5b5061045761045236600461526a565b6111f7565b60405161030f9594939291906152db565b34801561047457600080fd5b5061041360065481565b34801561048a57600080fd5b506104936112ba565b60405161030f919061531a565b3480156104ac57600080fd5b506102d36104bb36600461526a565b6114bb565b3480156104cc57600080fd5b506103386104db3660046153b8565b611579565b3480156104ec57600080fd5b5061041360095481565b34801561050257600080fd5b5061041360055481565b34801561051857600080fd5b506104136105273660046153f3565b61166b565b34801561053857600080fd5b50600854610301906301000000900460ff1681565b34801561055957600080fd5b5061041361171b565b34801561056e57600080fd5b506102d361057d3660046153f3565b61184d565b34801561058e57600080fd5b5061041361059d36600461541f565b601260209081526000928352604080842090915290825290205481565b3480156105c657600080fd5b506102d36105d5366004615471565b6119ac565b3480156105e657600080fd5b506103bc7f000000000000000000000000000000000000000000000000000000000000000081565b34801561061a57600080fd5b506103386106293660046154a5565b611c46565b34801561063a57600080fd5b50610643611cd7565b60405161030f91906154ed565b34801561065c57600080fd5b50610413600b5481565b34801561067257600080fd5b506102d3611e62565b34801561068757600080fd5b506102d361069636600461526a565b611e98565b3480156106a757600080fd5b506000546001600160a01b03166103bc565b3480156106c557600080fd5b506103386106d4366004615531565b60076020526000908152604090205460ff1681565b3480156106f557600080fd5b50610413600c5481565b34801561070b57600080fd5b5061033861071a36600461554e565b612154565b34801561072b57600080fd5b5061033861073a3660046155d7565b61232d565b34801561074b57600080fd5b5061041361075a36600461567a565b612451565b34801561076b57600080fd5b5060085461030190640100000000900460ff1681565b34801561078d57600080fd5b5061033861079c3660046156e2565b612815565b3480156107ad57600080fd5b506103386107bc366004615738565b612921565b3480156107cd57600080fd5b506103386107dc3660046157a2565b612af9565b6102d36107ef3660046153f3565b612bef565b34801561080057600080fd5b5061041361080f366004615531565b612fa5565b34801561082057600080fd5b5061041361082f3660046157c4565b612fcb565b34801561084057600080fd5b5061041360025481565b34801561085657600080fd5b5061033861086536600461526a565b6000908152600e602052604090205460ff1690565b34801561088657600080fd5b5061033861337c565b34801561089b57600080fd5b506108af6108aa36600461541f565b613645565b6040805192835260208301919091520161030f565b3480156108d057600080fd5b506103bc7f000000000000000000000000000000000000000000000000000000000000000081565b34801561090457600080fd5b506102d3610913366004615531565b61366f565b34801561092457600080fd5b50610413600a5481565b34801561093a57600080fd5b5061041361094936600461541f565b6001600160a01b03918216600090815260126020908152604080832093909416825291909152205490565b600080546001600160a01b031633146109a85760405162461bcd60e51b815260040161099f9061587b565b60405180910390fd5b60085460ff6101009091048116908716108015906109ca575060ff8660ff1611155b6109fb5760405162461bcd60e51b8152602060048201526002602482015261303160f01b604482015260640161099f565b610a066001876158c6565b60ff168760ff161015610a405760405162461bcd60e51b8152602060048201526002602482015261181960f11b604482015260640161099f565b60648560ff161115610a795760405162461bcd60e51b8152602060048201526002602482015261303360f01b604482015260640161099f565b60648460ff161115610ab25760405162461bcd60e51b81526020600482015260026024820152610c0d60f21b604482015260640161099f565b8751895114610ae85760405162461bcd60e51b8152602060048201526002602482015261303560f01b604482015260640161099f565b8215610af45760038390555b8115610b0357610b038261370a565b610b0c8a61366f565b60005b8951811015610b95576000610b408b8381518110610b2f57610b2f6158eb565b60200260200101519060a082901c90565b509050610b80818c8481518110610b5957610b596158eb565b60200260200101518c8581518110610b7357610b736158eb565b602002602001015161374a565b50508080610b8d90615901565b915050610b0f565b506000610ba0611cd7565b9050606481511115610bd95760405162461bcd60e51b8152602060048201526002602482015261313360f01b604482015260640161099f565b50506008805460ff8581166401000000000264ff000000001988831662010000021664ff00ff0000198a84166101000261ffff19909516938c169390931793909317919091169190911717905560019998505050505050505050565b600080546001600160a01b03163314610c605760405162461bcd60e51b815260040161099f9061587b565b6001600160a01b03871660009081526007602052604090205460ff16610cad5760405162461bcd60e51b81526020600482015260026024820152610c4d60f21b604482015260640161099f565b6001600160a01b038716610cd35760405162461bcd60e51b815260040161099f9061591c565b60008415610d0c57610d0760007f000000000000000000000000000000000000000000000000000000000000000087613819565b610d34565b84610d3457507f00000000000000000000000000000000000000000000000000000000000000005b7f00000000000000000000000000000000000000000000000000000000000000006001600160a01b0316886001600160a01b03161415610d9157507f00000000000000000000000000000000000000000000000000000000000000005b610d9b81856138ef565b610da483613a9d565b610daf888888613b05565b506001979650505050505050565b600060026001541415610de25760405162461bcd60e51b815260040161099f90615938565b6002600155600083838281610df957610df96158eb565b9050602002016020810190610e0e9190615531565b905060008484610e1f60018261596f565b818110610e2e57610e2e6158eb565b9050602002016020810190610e439190615531565b6001600160a01b0383166000908152601260209081526040808320338452909152902054909150871115610e895760405162461bcd60e51b815260040161099f90615986565b7f00000000000000000000000000000000000000000000000000000000000000006001600160a01b0316826001600160a01b031614610f055760405162461bcd60e51b815260206004820152601860248201527726bab9ba1039bbb0b810333937b690212a21903a37b5b2b760411b604482015260640161099f565b7f00000000000000000000000000000000000000000000000000000000000000006001600160a01b0316816001600160a01b03161415610f875760405162461bcd60e51b815260206004820152601960248201527f456e64696e6720746f6b656e206d757374206265207742544300000000000000604482015260640161099f565b6001600160a01b03811673eeeeeeeeeeeeeeeeeeeeeeeeeeeeeeeeeeeeeeee1415610fec5760405162461bcd60e51b81526020600482015260156024820152740aae6ca40e0c2e8d040ee84a886405a7c40ee8aa89605b1b604482015260640161099f565b6040516370a0823160e01b81523060048201526000906001600160a01b038316906370a082319060240160206040518083038186803b15801561102e57600080fd5b505afa158015611042573d6000803e3d6000fd5b505050506040513d601f19601f8201168201806040525081019061106691906159bd565b6001600160a01b03841660009081526012602090815260408083203384529091529020549091506110979089613bfc565b6001600160a01b03841660009081526012602090815260408083203384529091529020558a156110d4576110cf8a8a8a8a8a8a613c08565b6110e0565b6110e088888888613d4e565b6040516370a0823160e01b81523060048201526111649082906001600160a01b038516906370a08231906024015b60206040518083038186803b15801561112657600080fd5b505afa15801561113a573d6000803e3d6000fd5b505050506040513d601f19601f8201168201806040525081019061115e91906159bd565b90613bfc565b9350868410156111865760405162461bcd60e51b815260040161099f906159d6565b8361119057600080fd5b6001600160a01b03821660009081526012602090815260408083203384529091529020546111be9085613e8e565b6001600160a01b039092166000908152601260209081526040808320338452909152902091909155505060018055979650505050505050565b6004602052600090815260409020805460018201805491929161121990615a0d565b80601f016020809104026020016040519081016040528092919081815260200182805461124590615a0d565b80156112925780601f1061126757610100808354040283529160200191611292565b820191906000526020600020905b81548152906001019060200180831161127557829003601f168201915b505050506002830154600384015460049094015492936001600160a01b039091169290915085565b606060006112d5600654600554613bfc90919063ffffffff16565b6001600160401b038111156112ec576112ec614eff565b60405190808252806020026020018201604052801561135b57816020015b6113486040518060a00160405280600080191681526020016060815260200160006001600160a01b0316815260200160008152602001600081525090565b81526020019060019003908161130a5790505b50915060006113766001600654613e8e90919063ffffffff16565b90505b60055481116114b6576004600061139b60065485613e8e90919063ffffffff16565b81526020019081526020016000206040518060a0016040529081600082015481526020016001820180546113ce90615a0d565b80601f01602080910402602001604051908101604052809291908181526020018280546113fa90615a0d565b80156114475780601f1061141c57610100808354040283529160200191611447565b820191906000526020600020905b81548152906001019060200180831161142a57829003601f168201915b505050918352505060028201546001600160a01b0316602082015260038201546040820152600490910154606090910152835184908490811061148c5761148c6158eb565b60209081029190910101526114a2826001613e8e565b9150806114ae81615901565b915050611379565b505090565b6006546000906114cb9083613e8e565b905060055481106114db57506005545b60065442905b828110156115735760025460008281526004602081905260409091200154839161150b9190613e8e565b1015611561576000818152600460205260408120818155906115306001830182614df1565b506002810180546001600160a01b031916905560006003820181905560049091015561155d816001613e8e565b6006555b8061156b81615901565b9150506114e1565b50505050565b600080546001600160a01b031633146115a45760405162461bcd60e51b815260040161099f9061587b565b60006115ae61171b565b6001600160a01b03871660009081526007602052604090205490915060ff166115fe5760405162461bcd60e51b8152602060048201526002602482015261189b60f11b604482015260640161099f565b61160a86868686613e9a565b61161357600080fd5b600191508061162061171b565b10156116625760405162461bcd60e51b8152602060048201526011602482015270496e76616c6964204c505420707269636560781b604482015260640161099f565b50949350505050565b600080611678848461423e565b90508060ff16600114156116de577f00000000000000000000000000000000000000000000000000000000000000006001600160a01b0316846001600160a01b0316146116c65760006116d4565b6008546301000000900460ff165b60ff169150611714565b8060ff1660021415611714576001600160a01b0384161561170057600061170e565b6008546301000000900460ff165b60ff1691505b5092915050565b600080600061174b60007f0000000000000000000000000000000000000000000000000000000000000000613645565b9150915060007f00000000000000000000000000000000000000000000000000000000000000006001600160a01b03166318160ddd6040518163ffffffff1660e01b815260040160206040518083038186803b1580156117aa57600080fd5b505afa1580156117be573d6000803e3d6000fd5b505050506040513d601f19601f820116820180604052508101906117e291906159bd565b905080156118415761183c61180260095483613e8e90919063ffffffff16565b6118367f00000000000000000000000000000000000000000000000000000000000000006118308787613e8e565b9061432d565b90614339565b611845565b600b545b935050505090565b600260015414156118705760405162461bcd60e51b815260040161099f90615938565b60026001556001600160a01b03821660009081526012602090815260408083203384529091529020548111156118df5760405162461bcd60e51b8152602060048201526014602482015273496e73756666696369656e742042616c616e636560601b604482015260640161099f565b6001600160a01b038216600090815260126020908152604080832033845290915290205461190d9082613bfc565b6001600160a01b03831660009081526012602090815260408083203380855292529091209190915561194190839083613b05565b6001600160a01b0382166000908152601260209081526040808320338085529252918290205491517febff2602b3f468259e1e99f613fed6691f3a6526effe6ef3e768ba7ae7a36c4f9261199c928692909186914290615a42565b60405180910390a1505060018055565b600260015414156119cf5760405162461bcd60e51b815260040161099f90615938565b6002600155336119e761014083016101208401615531565b6001600160a01b031614611a545760405162461bcd60e51b815260206004820152602e60248201527f596f752063616e206f6e6c79206578656375746520737761707320746f20796f60448201526d7572206f776e206164647265737360901b606482015260840161099f565b604081013560126000611a6a6020850185615531565b6001600160a01b031681526020810191909152604001600090812090611a9861014085016101208601615531565b6001600160a01b03166001600160a01b03168152602001908152602001600020541015611ad75760405162461bcd60e51b815260040161099f90615986565b6001600160a01b037f000000000000000000000000000000000000000000000000000000000000000016611b0e6020830183615531565b6001600160a01b031614611b765760405162461bcd60e51b815260206004820152602960248201527f66726f6d546f6b656e206d7573742062652074686520726571756972656420426044820152682a21ba103a37b5b2b760b91b606482015260840161099f565b611b7f81614345565b611be6604082013560126000611b986020860186615531565b6001600160a01b031681526020810191909152604001600090812090611bc661014086016101208701615531565b6001600160a01b0316815260208101919091526040016000205490613bfc565b60126000611bf76020850185615531565b6001600160a01b031681526020810191909152604001600090812090611c2561014085016101208601615531565b6001600160a01b031681526020810191909152604001600020555060018055565b600080546001600160a01b03163314611c715760405162461bcd60e51b815260040161099f9061587b565b6000611c7b61171b565b6001600160a01b03871660009081526007602052604090205490915060ff16611ccb5760405162461bcd60e51b8152602060048201526002602482015261189b60f11b604482015260640161099f565b61160a8686868661447d565b606060008060005b601154811015611d4a57600f600060118381548110611d0057611d006158eb565b60009182526020808320909101546001600160a01b0316835282019290925260400190205415611d3857611d35836001613e8e565b92505b80611d4281615901565b915050611cdf565b506000826001600160401b03811115611d6557611d65614eff565b604051908082528060200260200182016040528015611d8e578160200160208202803683370190505b50905060005b601154811015611e5a57600f600060118381548110611db557611db56158eb565b60009182526020808320909101546001600160a01b0316835282019290925260400190205415611e4857600f600060118381548110611df657611df66158eb565b60009182526020808320909101546001600160a01b031683528201929092526040019020548251839085908110611e2f57611e2f6158eb565b6020908102919091010152611e45836001613e8e565b92505b80611e5281615901565b915050611d94565b509392505050565b6000546001600160a01b03163314611e8c5760405162461bcd60e51b815260040161099f9061587b565b611e9660006146c7565b565b60026001541415611ebb5760405162461bcd60e51b815260040161099f90615938565b60026001556001600160a01b037f0000000000000000000000000000000000000000000000000000000000000000166000908152601260209081526040808320338452909152902054811115611f1057600080fd5b604051632e1a7d4d60e01b8152600481018290527f00000000000000000000000000000000000000000000000000000000000000006001600160a01b031690632e1a7d4d90602401600060405180830381600087803b158015611f7257600080fd5b505af1158015611f86573d6000803e3d6000fd5b5050506001600160a01b037f0000000000000000000000000000000000000000000000000000000000000000166000908152601260209081526040808320338452909152902054611fd8915082613bfc565b7f00000000000000000000000000000000000000000000000000000000000000006001600160a01b03166000908152601260209081526040808320338085529252808320939093559151829084908381818185875af1925050503d806000811461205e576040519150601f19603f3d011682016040523d82523d6000602084013e612063565b606091505b50509050806120b45760405162461bcd60e51b815260206004820152601e60248201527f72656365697665722072656a656374656420455448207472616e736665720000604482015260640161099f565b6001600160a01b037f0000000000000000000000000000000000000000000000000000000000000000166000908152601260209081526040808320338085529252918290205491517febff2602b3f468259e1e99f613fed6691f3a6526effe6ef3e768ba7ae7a36c4f926121439273eeeeeeeeeeeeeeeeeeeeeeeeeeeeeeeeeeeeeeee92909188914290615a42565b60405180910390a150506001805550565b600080546001600160a01b0316331461217f5760405162461bcd60e51b815260040161099f9061587b565b6001600160a01b03861660009081526007602052604090205460ff166121cc5760405162461bcd60e51b81526020600482015260026024820152610c4d60f21b604482015260640161099f565b6001600160a01b0386166121f25760405162461bcd60e51b815260040161099f9061591c565b6000841561222b5761222660007f000000000000000000000000000000000000000000000000000000000000000087613819565b612253565b8461225357507f00000000000000000000000000000000000000000000000000000000000000005b7f00000000000000000000000000000000000000000000000000000000000000006001600160a01b0316876001600160a01b031614156122b057507f00000000000000000000000000000000000000000000000000000000000000005b6122ba81856138ef565b6122c383613a9d565b60005b8651811015610daf5761231b888883815181106122e5576122e56158eb565b602002602001015160001c898481518110612302576123026158eb565b602002602001015160a01c6001600160601b0316613b05565b8061232581615901565b9150506122c6565b600080546001600160a01b031633146123585760405162461bcd60e51b815260040161099f9061587b565b8361236257600080fd5b8261236c57600080fd5b61239860007f000000000000000000000000000000000000000000000000000000000000000086613819565b6001600160a01b037f000000000000000000000000000000000000000000000000000000000000000081166000908152601260209081526040808320938916835292905220546123e89085613e8e565b6001600160a01b037f000000000000000000000000000000000000000000000000000000000000000081166000908152601260209081526040808320938a1683529290529081209190915561243d90846138ef565b61244682613a9d565b506001949350505050565b6000600260015414156124765760405162461bcd60e51b815260040161099f90615938565b60026001556001600160a01b037f0000000000000000000000000000000000000000000000000000000000000000166124b26020840184615531565b6001600160a01b031614156125095760405162461bcd60e51b815260206004820152601c60248201527f4d757374206e6f7420737761702066726f6d2042544320746f6b656e00000000604482015260640161099f565b6001600160a01b037f0000000000000000000000000000000000000000000000000000000000000000166125436040840160208501615531565b6001600160a01b0316146125925760405162461bcd60e51b815260206004820152601660248201527526bab9ba1039bbb0b8103a3790212a21903a37b5b2b760511b604482015260640161099f565b306125a561014084016101208501615531565b6001600160a01b0316146126055760405162461bcd60e51b815260206004820152602160248201527f42656e6566696369617279206d757374206265207468697320636f6e747261636044820152601d60fa1b606482015260840161099f565b60408201356012600061261b6020860186615531565b6001600160a01b031681526020808201929092526040908101600090812033825290925290205410156126605760405162461bcd60e51b815260040161099f90615986565b60006126726040840160208501615531565b6040516370a0823160e01b81523060048201526001600160a01b0391909116906370a082319060240160206040518083038186803b1580156126b357600080fd5b505afa1580156126c7573d6000803e3d6000fd5b505050506040513d601f19601f820116820180604052508101906126eb91906159bd565b90506127336040840135601260006127066020880188615531565b6001600160a01b031681526020808201929092526040908101600090812033825290925290205490613bfc565b601260006127446020870187615531565b6001600160a01b031681526020808201929092526040908101600090812033825290925290205561277483614345565b6127b6816127886040860160208701615531565b6040516370a0823160e01b81523060048201526001600160a01b0391909116906370a082319060240161110e565b915082608001358210156127dc5760405162461bcd60e51b815260040161099f906159d6565b6003548210156127fe5760405162461bcd60e51b815260040161099f90615a73565b612809858584614717565b50600180559392505050565b600080546001600160a01b031633146128405760405162461bcd60e51b815260040161099f9061587b565b6001600160a01b0386166128665760405162461bcd60e51b815260040161099f9061591c565b7f000000000000000000000000000000000000000000000000000000000000000085156128da57600061289d8661115e8988613bfc565b90506128d47f000000000000000000000000000000000000000000000000000000000000000060006128cf848a613e8e565b613819565b506128e3565b856128e3575060005b6128ed81856138ef565b82156129145761291460008052600d602052600080516020615f6f83398151915254600c55565b5060019695505050505050565b600080546001600160a01b0316331461294c5760405162461bcd60e51b815260040161099f9061587b565b8361295657600080fd5b8261296057600080fd5b61298c60007f000000000000000000000000000000000000000000000000000000000000000086613819565b6129976000846138ef565b6129a082613a9d565b60005b8551811015612aed57612a688682815181106129c1576129c16158eb565b602002602001015160a01c6001600160601b0316601260007f00000000000000000000000000000000000000000000000000000000000000006001600160a01b03166001600160a01b031681526020019081526020016000206000898581518110612a2e57612a2e6158eb565b602002602001015160001c6001600160a01b03166001600160a01b0316815260200190815260200160002054613e8e90919063ffffffff16565b6001600160a01b037f00000000000000000000000000000000000000000000000000000000000000001660009081526012602052604081208851909190899085908110612ab757612ab76158eb565b6020908102919091018101516001600160a01b031682528101919091526040016000205580612ae581615901565b9150506129a3565b50600195945050505050565b600080546001600160a01b03163314612b245760405162461bcd60e51b815260040161099f9061587b565b6000828152600e602052604090205460ff1615612b835760405162461bcd60e51b815260206004820152601860248201527f546865207478696420697320616c726561647920757365640000000000000000604482015260640161099f565b604080518082019091526002815261189960f11b60208083019190915260008052600d9052600080516020615f6f83398151915254612bc39185906148a3565b60008052600d602052600080516020615f6f83398151915255612be5826148cf565b5060015b92915050565b60026001541415612c125760405162461bcd60e51b815260040161099f90615938565b600260015534612e3c576001600160a01b03821673eeeeeeeeeeeeeeeeeeeeeeeeeeeeeeeeeeeeeeee1415612c4657600080fd5b7f00000000000000000000000000000000000000000000000000000000000000006001600160a01b0316826001600160a01b03161415612c8557600080fd5b6040516370a0823160e01b81523060048201526000906001600160a01b038416906370a082319060240160206040518083038186803b158015612cc757600080fd5b505afa158015612cdb573d6000803e3d6000fd5b505050506040513d601f19601f82011682018060405250810190612cff91906159bd565b9050612d166001600160a01b0384163330856148ea565b6040516370a0823160e01b81523060048201526000906001600160a01b038516906370a082319060240160206040518083038186803b158015612d5857600080fd5b505afa158015612d6c573d6000803e3d6000fd5b505050506040513d601f19601f82011682018060405250810190612d9091906159bd565b90506000612d9e8284613bfc565b6001600160a01b0386166000908152601260209081526040808320338452909152902054909150612dcf9082613e8e565b6001600160a01b03861660009081526012602090815260408083203380855292529182902083905590517f4e2ca0515ed1aef1395f66b5303bb5d6f1bf9d61a353fa53f73f8ac9973fa9f692612e2c928992909186914290615a42565b60405180910390a1505050612f9d565b60003411612e4957600080fd5b7f00000000000000000000000000000000000000000000000000000000000000006001600160a01b031663d0e30db0346040518263ffffffff1660e01b81526004016000604051808303818588803b158015612ea457600080fd5b505af1158015612eb8573d6000803e3d6000fd5b5050506001600160a01b037f0000000000000000000000000000000000000000000000000000000000000000166000908152601260209081526040808320338452909152902054612f0c9250905034613e8e565b7f00000000000000000000000000000000000000000000000000000000000000006001600160a01b031660009081526012602090815260408083203380855292529182902083905590517f4e2ca0515ed1aef1395f66b5303bb5d6f1bf9d61a353fa53f73f8ac9973fa9f69261199c9273eeeeeeeeeeeeeeeeeeeeeeeeeeeeeeeeeeeeeeee92909134914290615a42565b505060018055565b6001600160a01b0381166000908152600f602052604081205460a081901c5b9392505050565b600060026001541415612ff05760405162461bcd60e51b815260040161099f90615938565b6002600155600083838281613007576130076158eb565b905060200201602081019061301c9190615531565b90506000848461302d60018261596f565b81811061303c5761303c6158eb565b90506020020160208101906130519190615531565b6001600160a01b03831660009081526012602090815260408083203384529091529020549091508711156130975760405162461bcd60e51b815260040161099f90615986565b7f00000000000000000000000000000000000000000000000000000000000000006001600160a01b0316826001600160a01b031614156131145760405162461bcd60e51b815260206004820152601860248201527726bab9ba1039bbb0b810333937b690212a21903a37b5b2b760411b604482015260640161099f565b6001600160a01b03821673eeeeeeeeeeeeeeeeeeeeeeeeeeeeeeeeeeeeeeee14156131795760405162461bcd60e51b815260206004820152601560248201527455736520706174682077455448202d3e207742544360581b604482015260640161099f565b7f00000000000000000000000000000000000000000000000000000000000000006001600160a01b0316816001600160a01b0316146131f35760405162461bcd60e51b815260206004820152601660248201527526bab9ba1039bbb0b8103a3790212a21903a37b5b2b760511b604482015260640161099f565b6040516370a0823160e01b81523060048201526000906001600160a01b038316906370a082319060240160206040518083038186803b15801561323557600080fd5b505afa158015613249573d6000803e3d6000fd5b505050506040513d601f19601f8201168201806040525081019061326d91906159bd565b6001600160a01b038416600090815260126020908152604080832033845290915290205490915061329e9089613bfc565b6001600160a01b03841660009081526012602090815260408083203384529091529020558a156132db576132d68a8a8a8a8a8a613c08565b6132e7565b6132e788888888613d4e565b6040516370a0823160e01b81523060048201526133199082906001600160a01b038516906370a082319060240161110e565b93508684101561333b5760405162461bcd60e51b815260040161099f906159d6565b60035484101561335d5760405162461bcd60e51b815260040161099f90615a73565b6133688d8d86614717565b505050600180559998505050505050505050565b600080613396600a54600954613e8e90919063ffffffff16565b9050600081116133cd5760405162461bcd60e51b8152602060048201526002602482015261313760f01b604482015260640161099f565b60006133d7611cd7565b90506000805b82518110156134325761341e8382815181106133fb576133fb6158eb565b602002602001015160a01c6001600160601b031683613e8e90919063ffffffff16565b91508061342a81615901565b9150506133dd565b506009546040516340c10f1960e01b815230600482015260248101919091527f00000000000000000000000000000000000000000000000000000000000000006001600160a01b0316906340c10f1990604401602060405180830381600087803b15801561349f57600080fd5b505af11580156134b3573d6000803e3d6000fd5b505050506040513d601f19601f820116820180604052508101906134d79190615ac7565b5060005b82518110156135fd577f00000000000000000000000000000000000000000000000000000000000000006001600160a01b031663a9059cbb848381518110613525576135256158eb565b602002602001015160001c61356c85611836888781518110613549576135496158eb565b602002602001015160a01c6001600160601b03168a61432d90919063ffffffff16565b6040516001600160e01b031960e085901b1681526001600160a01b0390921660048301526024820152604401602060405180830381600087803b1580156135b257600080fd5b505af11580156135c6573d6000803e3d6000fd5b505050506040513d601f19601f820116820180604052508101906135ea9190615ac7565b50806135f581615901565b9150506134db565b506040518381527f86dd6ae252e62228b47b3c1a12762cbf634952b2d29319b04f4f72fb153bcbdd9060200160405180910390a1505060006009819055600a55506001919050565b6001600160a01b039182166000908152600d60205260408082205492909316815291909120549091565b6000546001600160a01b031633146136995760405162461bcd60e51b815260040161099f9061587b565b6001600160a01b0381166136fe5760405162461bcd60e51b815260206004820152602660248201527f4f776e61626c653a206e6577206f776e657220697320746865207a65726f206160448201526564647265737360d01b606482015260840161099f565b613707816146c7565b50565b6002819055604080518281524260208201527fa1cc12e33e9907b789fd3c10ea0afd9d3e563e2db44d84c7269534f1046d1ca1910160405180910390a150565b6000811561377357506001600160a01b0383166000908152600f60205260408120556001612fc4565b6001600160a01b03841660009081526010602052604090205460ff166137f7576011805460018082019092557f31ecc21a745e3968a04e9570e4425bc18fa8019c68028196b546d1669c200c680180546001600160a01b0319166001600160a01b0387169081179091556000908152601060205260409020805460ff191690911790555b50506001600160a01b03919091166000908152600f6020526040902055600190565b6040805180820182526002815261313160f01b6020808301919091526001600160a01b0385166000908152600d90915291909120546138599183906148a3565b6001600160a01b038084166000908152600d602052604080822093909355908516815220546138889082613e8e565b6001600160a01b038481166000818152600d60209081526040918290209490945580519182529185169281019290925281018290527fea368a40e9570069bb8e6511d668293ad2e1f03b0d982431fd223de9f3b70ca69060600160405180910390a1505050565b806138f8575050565b7f00000000000000000000000000000000000000000000000000000000000000006001600160a01b0316826001600160a01b0316141561399657600a5461393f9082613e8e565b600a55604080516001600160a01b0384168152602081018390526000818301819052606082015290517fe3debe835f6848edc082b32a1d729781d3bfcd7e14422d80bcaa6794d3816b2f9181900360800190a15050565b60006139a061171b565b6001600160a01b0384166000908152600d60205260409020549091506139c69083613e8e565b6001600160a01b0384166000908152600d6020526040812091909155600854613a009060649061183690869062010000900460ff1661432d565b90506000613a3283611836847f000000000000000000000000000000000000000000000000000000000000000061432d565b600954909150613a429082613e8e565b600955604080516001600160a01b038716815260208101869052908101829052606081018490527fe3debe835f6848edc082b32a1d729781d3bfcd7e14422d80bcaa6794d3816b2f9060800160405180910390a15050505050565b60005b8151811015613b01576001600e6000848481518110613ac157613ac16158eb565b6020026020010151815260200190815260200160002060006101000a81548160ff0219169083151502179055508080613af990615901565b915050613aa0565b5050565b7f00000000000000000000000000000000000000000000000000000000000000006001600160a01b0316836001600160a01b03161415613b6c57613b69817f000000000000000000000000000000000000000000000000000000000000000061432d565b90505b60405163a9059cbb60e01b81526001600160a01b0383811660048301526024820183905284169063a9059cbb90604401602060405180830381600087803b158015613bb657600080fd5b505af1158015613bca573d6000803e3d6000fd5b505050506040513d601f19601f82011682018060405250810190613bee9190615ac7565b613bf757600080fd5b505050565b6000612fc4828461596f565b600082826000818110613c1d57613c1d6158eb565b9050602002016020810190613c329190615531565b9050600073def171fe48cf0115b1d80b88dc8eab59176fee576001600160a01b031663d2c4b5986040518163ffffffff1660e01b815260040160206040518083038186803b158015613c8357600080fd5b505afa158015613c97573d6000803e3d6000fd5b505050506040513d601f19601f82011682018060405250810190613cbb9190615ae4565b9050613cd16001600160a01b0383168288614955565b604051633d59840d60e21b815273def171fe48cf0115b1d80b88dc8eab59176fee579063f566103490613d12908b908b908b908b908b908b90600401615b4a565b600060405180830381600087803b158015613d2c57600080fd5b505af1158015613d40573d6000803e3d6000fd5b505050505050505050505050565b600082826000818110613d6357613d636158eb565b9050602002016020810190613d789190615531565b9050600073def171fe48cf0115b1d80b88dc8eab59176fee576001600160a01b031663d2c4b5986040518163ffffffff1660e01b815260040160206040518083038186803b158015613dc957600080fd5b505afa158015613ddd573d6000803e3d6000fd5b505050506040513d601f19601f82011682018060405250810190613e019190615ae4565b9050613e176001600160a01b0383168288614955565b604051632a42068d60e11b815273def171fe48cf0115b1d80b88dc8eab59176fee57906354840d1a90613e54908990899089908990600401615b8a565b600060405180830381600087803b158015613e6e57600080fd5b505af1158015613e82573d6000803e3d6000fd5b50505050505050505050565b6000612fc48284615bb4565b6000818152600e602052604081205460ff1615613ede5760405162461bcd60e51b8152602060048201526002602482015261181b60f11b604482015260640161099f565b83613f105760405162461bcd60e51b8152602060048201526002602482015261303760f01b604482015260640161099f565b8360a081901c6000613f2061171b565b90506000613f527f0000000000000000000000000000000000000000000000000000000000000000611836858561432d565b600854909150600090613f799061271090611836908590640100000000900460ff1661432d565b905087613f868383613bfc565b1015613fb95760405162461bcd60e51b8152602060048201526002602482015261303960f01b604482015260640161099f565b6000613fc98961115e8585613bfc565b9050600080613ff960007f0000000000000000000000000000000000000000000000000000000000000000613645565b90925090506001600160a01b038d1661404f576140168585613bfc565b82101561404a5760405162461bcd60e51b8152602060048201526002602482015261060760f31b604482015260640161099f565b6140c7565b7f00000000000000000000000000000000000000000000000000000000000000006001600160a01b03168d6001600160a01b031614156140c7576140938585613bfc565b8110156140c75760405162461bcd60e51b8152602060048201526002602482015261189960f11b604482015260640161099f565b6140d18d856138ef565b6140db8d86614a16565b6140e48a6148cf565b7f00000000000000000000000000000000000000000000000000000000000000006001600160a01b03168d6001600160a01b03161415614129576141298d8985613b05565b604051630852cd8d60e31b8152600481018890527f00000000000000000000000000000000000000000000000000000000000000006001600160a01b0316906342966c6890602401602060405180830381600087803b15801561418b57600080fd5b505af115801561419f573d6000803e3d6000fd5b505050506040513d601f19601f820116820180604052508101906141c39190615ac7565b6141cc57600080fd5b604080516001600160a01b038a16815260208101899052908101869052606081018790526080810184905260a081018b90527fa9da34e5e4a956b744307ae7611795634e8365951073bf049d76b64b2ae7a0589060c00160405180910390a15060019c9b505050505050505050505050565b600080600061426e60007f0000000000000000000000000000000000000000000000000000000000000000613645565b90925090506000614293600361183660026118308961428d8989613e8e565b90613e8e565b90507f00000000000000000000000000000000000000000000000000000000000000006001600160a01b0316866001600160a01b03161480156142df5750806142dc8387613e8e565b10155b156142f05760019350505050612be9565b6001600160a01b03861615801561431057508061430d8487613e8e565b10155b156143215760029350505050612be9565b50600095945050505050565b6000612fc48284615bcc565b6000612fc48284615beb565b600073def171fe48cf0115b1d80b88dc8eab59176fee576001600160a01b031663d2c4b5986040518163ffffffff1660e01b815260040160206040518083038186803b15801561439457600080fd5b505afa1580156143a8573d6000803e3d6000fd5b505050506040513d601f19601f820116820180604052508101906143cc9190615ae4565b90506143f48160408401356143e46020860186615531565b6001600160a01b03169190614955565b6040516354e3f31b60e01b815273def171fe48cf0115b1d80b88dc8eab59176fee57906354e3f31b9061442b908590600401615d11565b602060405180830381600087803b15801561444557600080fd5b505af1158015614459573d6000803e3d6000fd5b505050506040513d601f19601f82011682018060405250810190613bf791906159bd565b6000818152600e602052604081205460ff16156144c15760405162461bcd60e51b8152602060048201526002602482015261181b60f11b604482015260640161099f565b836144f35760405162461bcd60e51b8152602060048201526002602482015261303760f01b604482015260640161099f565b8360a081901c600061450361171b565b9050600061453582611836857f000000000000000000000000000000000000000000000000000000000000000061432d565b905060006145438a8561166b565b9050600081614553576000614563565b614563612710611836858561432d565b905088801561457157508015155b1561457b57600080fd5b6001600160a01b037f0000000000000000000000000000000000000000000000000000000000000000166340c10f19876145b58685613bfc565b6040516001600160e01b031960e085901b1681526001600160a01b0390921660048301526024820152604401602060405180830381600087803b1580156145fb57600080fd5b505af115801561460f573d6000803e3d6000fd5b505050506040513d601f19601f820116820180604052508101906146339190615ac7565b506009546146419082613e8e565b60095561464e8b86614a76565b614657886148cf565b604080516001600160a01b038816815260208101879052908101849052606081018590526080810182905260a081018990527fdfaf4e23f7030adafec91a682e05bf9fb30c721f9cec3d8bcfae0459c5362db19060c00160405180910390a15060019a9950505050505050505050565b600080546001600160a01b038381166001600160a01b0319831681178455604051919092169283917f8be0079c531659141344cd1fd0a4f28419497f9722a3daafe3b4186f6b6457e09190a35050565b60007f00000000000000000000000000000000000000000000000000000000000000006005548585854260405160200161475696959493929190615ec7565b6040516020818303038152906040528051906020012090506040518060a0016040528082815260200185858080601f0160208091040260200160405190810160405280939291908181526020018383808284376000920182905250938552505033602080850191909152604080850188905242606090950194909452600554835260048152929091208351815583830151805191936147fd93506001850192910190614e2b565b5060408201516002820180546001600160a01b0319166001600160a01b0390921691909117905560608201516003820155608090910151600490910155614842614a99565b600554614850906001613e8e565b60055561485c82614b52565b7faaa4c278970337923c885845b00985ecf5082317e2f9abf72a27b4d35255d67281858533864260405161489596959493929190615efe565b60405180910390a150505050565b600081848411156148c75760405162461bcd60e51b815260040161099f9190615f3f565b505050900390565b6000908152600e60205260409020805460ff19166001179055565b6040516001600160a01b03808516602483015283166044820152606481018290526115739085906323b872dd60e01b906084015b60408051601f198184030181529190526020810180516001600160e01b03166001600160e01b031990931692909217909152614ba7565b604051636eb1769f60e11b81523060048201526001600160a01b038381166024830152600091839186169063dd62ed3e9060440160206040518083038186803b1580156149a157600080fd5b505afa1580156149b5573d6000803e3d6000fd5b505050506040513d601f19601f820116820180604052508101906149d991906159bd565b6149e39190615bb4565b6040516001600160a01b03851660248201526044810182905290915061157390859063095ea7b360e01b9060640161491e565b6040805180820182526002815261031360f41b6020808301919091526001600160a01b0385166000908152600d9091529190912054614a569183906148a3565b6001600160a01b039092166000908152600d602052604090209190915550565b6001600160a01b0382166000908152600d6020526040902054614a569082613e8e565b600654600090614aaa90600a613e8e565b90506005548110614aba57506005545b60065442905b82811015613bf757600254600082815260046020819052604090912001548391614aea9190613e8e565b1015614b4057600081815260046020526040812081815590614b0f6001830182614df1565b506002810180546001600160a01b0319169055600060038201819055600490910155614b3c816001613e8e565b6006555b80614b4a81615901565b915050614ac0565b600c54614b7a57614b7a60008052600d602052600080516020615f6f83398151915254600c55565b604080518082019091526002815261189960f11b6020820152600c54614ba19183906148a3565b600c5550565b6000614bfc826040518060400160405280602081526020017f5361666545524332303a206c6f772d6c6576656c2063616c6c206661696c6564815250856001600160a01b0316614c799092919063ffffffff16565b805190915015613bf75780806020019051810190614c1a9190615ac7565b613bf75760405162461bcd60e51b815260206004820152602a60248201527f5361666545524332303a204552433230206f7065726174696f6e20646964206e6044820152691bdd081cdd58d8d9595960b21b606482015260840161099f565b6060614c888484600085614c90565b949350505050565b606082471015614cf15760405162461bcd60e51b815260206004820152602660248201527f416464726573733a20696e73756666696369656e742062616c616e636520666f6044820152651c8818d85b1b60d21b606482015260840161099f565b843b614d3f5760405162461bcd60e51b815260206004820152601d60248201527f416464726573733a2063616c6c20746f206e6f6e2d636f6e7472616374000000604482015260640161099f565b600080866001600160a01b03168587604051614d5b9190615f52565b60006040518083038185875af1925050503d8060008114614d98576040519150601f19603f3d011682016040523d82523d6000602084013e614d9d565b606091505b5091509150614dad828286614db8565b979650505050505050565b60608315614dc7575081612fc4565b825115614dd75782518084602001fd5b8160405162461bcd60e51b815260040161099f9190615f3f565b508054614dfd90615a0d565b6000825580601f10614e0d575050565b601f0160209004906000526020600020908101906137079190614eaf565b828054614e3790615a0d565b90600052602060002090601f016020900481019282614e595760008555614e9f565b82601f10614e7257805160ff1916838001178555614e9f565b82800160010185558215614e9f579182015b82811115614e9f578251825591602001919060010190614e84565b50614eab929150614eaf565b5090565b5b80821115614eab5760008155600101614eb0565b634e487b7160e01b600052600160045260246000fd5b6001600160a01b038116811461370757600080fd5b8035614efa81614eda565b919050565b634e487b7160e01b600052604160045260246000fd5b604051601f8201601f191681016001600160401b0381118282101715614f3d57614f3d614eff565b604052919050565b60006001600160401b03821115614f5e57614f5e614eff565b5060051b60200190565b600082601f830112614f7957600080fd5b81356020614f8e614f8983614f45565b614f15565b82815260059290921b84018101918181019086841115614fad57600080fd5b8286015b84811015614fc85780358352918301918301614fb1565b509695505050505050565b801515811461370757600080fd5b803560ff81168114614efa57600080fd5b60008060008060008060008060006101208a8c03121561501157600080fd5b893561501c81614eda565b985060208a8101356001600160401b038082111561503957600080fd5b6150458e838f01614f68565b9a5060408d013591508082111561505b57600080fd5b508b01601f81018d1361506d57600080fd5b803561507b614f8982614f45565b81815260059190911b8201830190838101908f83111561509a57600080fd5b928401925b828410156150c15783356150b281614fd3565b8252928401929084019061509f565b809b5050505050506150d560608b01614fe1565b95506150e360808b01614fe1565b94506150f160a08b01614fe1565b93506150ff60c08b01614fe1565b925060e08a013591506101008a013590509295985092959850929598565b60008060008060008060c0878903121561513657600080fd5b863561514181614eda565b9550602087013561515181614eda565b945060408701359350606087013592506080870135915060a08701356001600160401b0381111561518157600080fd5b61518d89828a01614f68565b9150509295509295509295565b60008083601f8401126151ac57600080fd5b5081356001600160401b038111156151c357600080fd5b6020830191508360208260051b85010111156151de57600080fd5b9250929050565b600080600080600080600060c0888a03121561520057600080fd5b873561520b81614fd3565b9650602088013561521b81614eda565b955060408801359450606088013593506080880135925060a08801356001600160401b0381111561524b57600080fd5b6152578a828b0161519a565b989b979a50959850939692959293505050565b60006020828403121561527c57600080fd5b5035919050565b60005b8381101561529e578181015183820152602001615286565b838111156115735750506000910152565b600081518084526152c7816020860160208601615283565b601f01601f19169290920160200192915050565b85815260a0602082015260006152f460a08301876152af565b6001600160a01b0395909516604083015250606081019290925260809091015292915050565b60006020808301818452808551808352604092508286019150828160051b87010184880160005b838110156153aa57603f19898403018552815160a08151855288820151818a87015261536f828701826152af565b838a01516001600160a01b0316878b015260608085015190880152608093840151939096019290925250509386019390860190600101615341565b509098975050505050505050565b600080600080608085870312156153ce57600080fd5b84356153d981614eda565b966020860135965060408601359560600135945092505050565b6000806040838503121561540657600080fd5b823561541181614eda565b946020939093013593505050565b6000806040838503121561543257600080fd5b823561543d81614eda565b9150602083013561544d81614eda565b809150509250929050565b60006101e0828403121561546b57600080fd5b50919050565b60006020828403121561548357600080fd5b81356001600160401b0381111561549957600080fd5b614c8884828501615458565b600080600080608085870312156154bb57600080fd5b84356154c681614eda565b93506020850135925060408501356154dd81614fd3565b9396929550929360600135925050565b6020808252825182820181905260009190848201906040850190845b8181101561552557835183529284019291840191600101615509565b50909695505050505050565b60006020828403121561554357600080fd5b8135612fc481614eda565b600080600080600060a0868803121561556657600080fd5b853561557181614eda565b945060208601356001600160401b038082111561558d57600080fd5b61559989838a01614f68565b9550604088013594506060880135935060808801359150808211156155bd57600080fd5b506155ca88828901614f68565b9150509295509295909350565b600080600080608085870312156155ed57600080fd5b84356155f881614eda565b9350602085013592506040850135915060608501356001600160401b0381111561562157600080fd5b61562d87828801614f68565b91505092959194509250565b60008083601f84011261564b57600080fd5b5081356001600160401b0381111561566257600080fd5b6020830191508360208285010111156151de57600080fd5b60008060006040848603121561568f57600080fd5b83356001600160401b03808211156156a657600080fd5b6156b287838801615639565b909550935060208601359150808211156156cb57600080fd5b506156d886828701615458565b9150509250925092565b600080600080600060a086880312156156fa57600080fd5b853561570581614eda565b9450602086013593506040860135925060608601359150608086013561572a81614fd3565b809150509295509295909350565b6000806000806080858703121561574e57600080fd5b84356001600160401b038082111561576557600080fd5b61577188838901614f68565b95506020870135945060408701359350606087013591508082111561579557600080fd5b5061562d87828801614f68565b600080604083850312156157b557600080fd5b50508035926020909101359150565b600080600080600080600080600060e08a8c0312156157e257600080fd5b89356001600160401b03808211156157f957600080fd5b6158058d838e01615639565b909b50995060208c0135915061581a82614fd3565b90975060408b01359061582c82614eda565b90965060608b0135955060808b0135945060a08b0135935060c08b0135908082111561585757600080fd5b506158648c828d0161519a565b915080935050809150509295985092959850929598565b6020808252818101527f4f776e61626c653a2063616c6c6572206973206e6f7420746865206f776e6572604082015260600190565b634e487b7160e01b600052601160045260246000fd5b600060ff821660ff84168060ff038211156158e3576158e36158b0565b019392505050565b634e487b7160e01b600052603260045260246000fd5b6000600019821415615915576159156158b0565b5060010190565b602080825260029082015261313560f01b604082015260600190565b6020808252601f908201527f5265656e7472616e637947756172643a207265656e7472616e742063616c6c00604082015260600190565b600082821015615981576159816158b0565b500390565b60208082526019908201527f42616c616e6365206973206e6f742073756666696369656e7400000000000000604082015260600190565b6000602082840312156159cf57600080fd5b5051919050565b6020808252601c908201527f526563656976656420616d6f756e7420696e73756666696369656e7400000000604082015260600190565b600181811c90821680615a2157607f821691505b6020821081141561546b57634e487b7160e01b600052602260045260246000fd5b6001600160a01b03958616815293909416602084015260408301919091526060820152608081019190915260a00190565b60208082526034908201527f526563656976656420616d6f756e7420686173206e6f74206d657420746865206040820152736d696e20666f7220464c4f57203220737761707360601b606082015260800190565b600060208284031215615ad957600080fd5b8151612fc481614fd3565b600060208284031215615af657600080fd5b8151612fc481614eda565b8183526000602080850194508260005b85811015615b3f578135615b2481614eda565b6001600160a01b031687529582019590820190600101615b11565b509495945050505050565b60018060a01b038716815285602082015284604082015283606082015260a060808201526000615b7e60a083018486615b01565b98975050505050505050565b848152836020820152606060408201526000615baa606083018486615b01565b9695505050505050565b60008219821115615bc757615bc76158b0565b500190565b6000816000190483118215151615615be657615be66158b0565b500290565b600082615c0857634e487b7160e01b600052601260045260246000fd5b500490565b6000808335601e19843603018112615c2457600080fd5b83016020810192503590506001600160401b03811115615c4357600080fd5b8060051b36038313156151de57600080fd5b6000808335601e19843603018112615c6c57600080fd5b83016020810192503590506001600160401b03811115615c8b57600080fd5b8036038313156151de57600080fd5b81835281816020850137506000828201602090810191909152601f909101601f19169091010190565b81835260006001600160fb1b03831115615cdc57600080fd5b8260051b8083602087013760009401602001938452509192915050565b80356001600160801b031981168114614efa57600080fd5b60208152615d3260208201615d2584614eef565b6001600160a01b03169052565b6000615d4060208401614eef565b6001600160a01b0381166040840152506040830135606083015260608301356080830152608083013560a0830152615d7b60a0840184615c0d565b6101e08060c0860152615d9361020086018385615b01565b9250615da260c0870187615c55565b9250601f19808786030160e0880152615dbc858584615c9a565b9450615dcb60e0890189615c0d565b94509150610100818887030181890152615de6868685615cc3565b9550615df4818a018a615c0d565b9550925050610120818887030181890152615e10868685615cc3565b9550615e1d818a01614eef565b9450506101409150615e39828801856001600160a01b03169052565b615e44828901614eef565b93506101609150615e5f828801856001600160a01b03169052565b61018093508188013584880152615e7884890189615c55565b945091506101a0818887030181890152615e93868685615c9a565b95506101c094508089013585890152505050615eb0828701615cf9565b6001600160801b0319169401939093529392505050565b6001600160601b03198760601b16815285601482015283856034830137603493019283019190915260548201526074019392505050565b86815260a060208201526000615f1860a083018789615c9a565b6001600160a01b039590951660408301525060608101929092526080909101529392505050565b602081526000612fc460208301846152af565b60008251615f64818460208701615283565b919091019291505056fe81955a0a11e65eac625c29e8882660bae4e165a75d72780094acae8ece9a29eea26469706673582212204d31ae3988fdb4fb2663593a06ddaa34c731bdfd8029b3a7f8ed0128476463f464736f6c63430008090033",
  "linkReferences": {},
  "deployedLinkReferences": {}
}