{
  "_format": "hh-sol-artifact-1",
  "contractName": "SwapContract",
  "sourceName": "contracts/SwapContract.sol",
  "abi": [
    {
      "inputs": [
        {
          "internalType": "address",
          "name": "_lpToken",
          "type": "address"
        },
        {
          "internalType": "address",
          "name": "_btct",
          "type": "address"
        },
        {
          "internalType": "address",
          "name": "_wETH",
          "type": "address"
        },
        {
          "internalType": "address",
          "name": "_sbBTCPool",
          "type": "address"
        },
        {
          "internalType": "address",
          "name": "_params",
          "type": "address"
        },
        {
          "internalType": "address",
          "name": "_swapRewards",
          "type": "address"
        },
        {
          "internalType": "uint256",
          "name": "_existingBTCFloat",
          "type": "uint256"
        }
      ],
      "stateMutability": "nonpayable",
      "type": "constructor"
    },
    {
      "anonymous": false,
      "inputs": [
        {
          "indexed": false,
          "internalType": "address",
          "name": "token",
          "type": "address"
        },
        {
          "indexed": false,
          "internalType": "uint256",
          "name": "amountOfLP",
          "type": "uint256"
        },
        {
          "indexed": false,
          "internalType": "uint256",
          "name": "amountOfFloat",
          "type": "uint256"
        },
        {
          "indexed": false,
          "internalType": "uint256",
          "name": "currentPriceLP",
          "type": "uint256"
        },
        {
          "indexed": false,
          "internalType": "uint256",
          "name": "withdrawal",
          "type": "uint256"
        },
        {
          "indexed": false,
          "internalType": "bytes32",
          "name": "txid",
          "type": "bytes32"
        }
      ],
      "name": "BurnLPTokensForFloat",
      "type": "event"
    },
    {
      "anonymous": false,
      "inputs": [
        {
          "indexed": false,
          "internalType": "address",
          "name": "token",
          "type": "address"
        },
        {
          "indexed": false,
          "internalType": "address",
          "name": "user",
          "type": "address"
        },
        {
          "indexed": false,
          "internalType": "uint256",
          "name": "amount",
          "type": "uint256"
        },
        {
          "indexed": false,
          "internalType": "uint256",
          "name": "balance",
          "type": "uint256"
        },
        {
          "indexed": false,
          "internalType": "uint256",
          "name": "Timestamp",
          "type": "uint256"
        }
      ],
      "name": "Deposit",
      "type": "event"
    },
    {
      "anonymous": false,
      "inputs": [
        {
          "indexed": false,
          "internalType": "uint256",
          "name": "rewardLPTsForNodes",
          "type": "uint256"
        }
      ],
      "name": "DistributeNodeRewards",
      "type": "event"
    },
    {
      "anonymous": false,
      "inputs": [
        {
          "indexed": false,
          "internalType": "address",
          "name": "to",
          "type": "address"
        },
        {
          "indexed": false,
          "internalType": "uint256",
          "name": "amountOfFloat",
          "type": "uint256"
        },
        {
          "indexed": false,
          "internalType": "uint256",
          "name": "amountOfLP",
          "type": "uint256"
        },
        {
          "indexed": false,
          "internalType": "uint256",
          "name": "currentPriceLP",
          "type": "uint256"
        },
        {
          "indexed": false,
          "internalType": "uint256",
          "name": "depositFees",
          "type": "uint256"
        },
        {
          "indexed": false,
          "internalType": "bytes32",
          "name": "txid",
          "type": "bytes32"
        }
      ],
      "name": "IssueLPTokensForFloat",
      "type": "event"
    },
    {
      "anonymous": false,
      "inputs": [
        {
          "indexed": true,
          "internalType": "address",
          "name": "previousOwner",
          "type": "address"
        },
        {
          "indexed": true,
          "internalType": "address",
          "name": "newOwner",
          "type": "address"
        }
      ],
      "name": "OwnershipTransferred",
      "type": "event"
    },
    {
      "anonymous": false,
      "inputs": [
        {
          "indexed": false,
          "internalType": "address",
          "name": "feesToken",
          "type": "address"
        },
        {
          "indexed": false,
          "internalType": "uint256",
          "name": "rewards",
          "type": "uint256"
        },
        {
          "indexed": false,
          "internalType": "uint256",
          "name": "amountLPTokensForNode",
          "type": "uint256"
        },
        {
          "indexed": false,
          "internalType": "uint256",
          "name": "currentPriceLP",
          "type": "uint256"
        }
      ],
      "name": "RewardsCollection",
      "type": "event"
    },
    {
      "anonymous": false,
      "inputs": [
        {
          "indexed": false,
          "internalType": "address",
          "name": "from",
          "type": "address"
        },
        {
          "indexed": false,
          "internalType": "address",
          "name": "to",
          "type": "address"
        },
        {
          "indexed": false,
          "internalType": "uint256",
          "name": "amount",
          "type": "uint256"
        }
      ],
      "name": "Swap",
      "type": "event"
    },
    {
      "anonymous": false,
      "inputs": [
        {
          "indexed": false,
          "internalType": "bytes32",
          "name": "SwapID",
          "type": "bytes32"
        },
        {
          "indexed": false,
          "internalType": "string",
          "name": "DestAddr",
          "type": "string"
        },
        {
          "indexed": false,
          "internalType": "address",
          "name": "RefundAddr",
          "type": "address"
        },
        {
          "indexed": false,
          "internalType": "uint256",
          "name": "AmountWBTC",
          "type": "uint256"
        },
        {
          "indexed": false,
          "internalType": "uint256",
          "name": "Timestamp",
          "type": "uint256"
        }
      ],
      "name": "SwapTokensToBTC",
      "type": "event"
    },
    {
      "anonymous": false,
      "inputs": [
        {
          "indexed": false,
          "internalType": "address",
          "name": "token",
          "type": "address"
        },
        {
          "indexed": false,
          "internalType": "address",
          "name": "user",
          "type": "address"
        },
        {
          "indexed": false,
          "internalType": "uint256",
          "name": "amount",
          "type": "uint256"
        },
        {
          "indexed": false,
          "internalType": "uint256",
          "name": "balance",
          "type": "uint256"
        },
        {
          "indexed": false,
          "internalType": "uint256",
          "name": "Timestamp",
          "type": "uint256"
        }
      ],
      "name": "Withdraw",
      "type": "event"
    },
    {
      "stateMutability": "nonpayable",
      "type": "fallback"
    },
    {
      "inputs": [],
      "name": "BTCT_ADDR",
      "outputs": [
        {
          "internalType": "address",
          "name": "",
          "type": "address"
        }
      ],
      "stateMutability": "view",
      "type": "function"
    },
    {
      "inputs": [],
      "name": "activeNodeCount",
      "outputs": [
        {
          "internalType": "uint8",
          "name": "",
          "type": "uint8"
        }
      ],
      "stateMutability": "view",
      "type": "function"
    },
    {
      "inputs": [
        {
          "internalType": "address",
          "name": "_token",
          "type": "address"
        },
        {
          "internalType": "address",
          "name": "_user",
          "type": "address"
        }
      ],
      "name": "balanceOf",
      "outputs": [
        {
          "internalType": "uint256",
          "name": "",
          "type": "uint256"
        }
      ],
      "stateMutability": "view",
      "type": "function"
    },
    {
      "inputs": [
        {
          "internalType": "address",
          "name": "_newOwner",
          "type": "address"
        },
        {
          "internalType": "address[]",
          "name": "_nodes",
          "type": "address[]"
        },
        {
          "internalType": "bool[]",
          "name": "_isRemoved",
          "type": "bool[]"
        },
        {
          "internalType": "uint8",
          "name": "_churnedInCount",
          "type": "uint8"
        },
        {
          "internalType": "uint8",
          "name": "_tssThreshold",
          "type": "uint8"
        },
        {
          "internalType": "uint256",
          "name": "_totalStakedAmount",
          "type": "uint256"
        }
      ],
      "name": "churn",
      "outputs": [
        {
          "internalType": "bool",
          "name": "",
          "type": "bool"
        }
      ],
      "stateMutability": "nonpayable",
      "type": "function"
    },
    {
      "inputs": [],
      "name": "churnedInCount",
      "outputs": [
        {
          "internalType": "uint8",
          "name": "",
          "type": "uint8"
        }
      ],
      "stateMutability": "view",
      "type": "function"
    },
    {
      "inputs": [
        {
          "internalType": "uint256",
          "name": "_incomingAmount",
          "type": "uint256"
        },
        {
          "internalType": "uint256",
          "name": "_minerFee",
          "type": "uint256"
        },
        {
          "internalType": "uint256",
          "name": "_rewardsAmount",
          "type": "uint256"
        },
        {
          "internalType": "address[]",
          "name": "_spenders",
          "type": "address[]"
        },
        {
          "internalType": "uint256[]",
          "name": "_swapAmounts",
          "type": "uint256[]"
        },
        {
          "internalType": "bool",
          "name": "_isUpdatelimitBTCForSPFlow2",
          "type": "bool"
        }
      ],
      "name": "collectSwapFeesForBTC",
      "outputs": [
        {
          "internalType": "bool",
          "name": "",
          "type": "bool"
        }
      ],
      "stateMutability": "nonpayable",
      "type": "function"
    },
    {
      "inputs": [],
      "name": "getActiveNodes",
      "outputs": [
        {
          "internalType": "address[]",
          "name": "",
          "type": "address[]"
        }
      ],
      "stateMutability": "view",
      "type": "function"
    },
    {
      "inputs": [],
      "name": "getCurrentPriceLP",
      "outputs": [
        {
          "internalType": "uint256",
          "name": "nowPrice",
          "type": "uint256"
        }
      ],
      "stateMutability": "view",
      "type": "function"
    },
    {
      "inputs": [
        {
          "internalType": "address",
          "name": "_tokenA",
          "type": "address"
        },
        {
          "internalType": "address",
          "name": "_tokenB",
          "type": "address"
        }
      ],
      "name": "getFloatReserve",
      "outputs": [
        {
          "internalType": "uint256",
          "name": "reserveA",
          "type": "uint256"
        },
        {
          "internalType": "uint256",
          "name": "reserveB",
          "type": "uint256"
        }
      ],
      "stateMutability": "view",
      "type": "function"
    },
    {
      "inputs": [],
      "name": "ip",
      "outputs": [
        {
          "internalType": "contract IParams",
          "name": "",
          "type": "address"
        }
      ],
      "stateMutability": "view",
      "type": "function"
    },
    {
      "inputs": [
        {
          "internalType": "address",
          "name": "_user",
          "type": "address"
        }
      ],
      "name": "isNodeStake",
      "outputs": [
        {
          "internalType": "bool",
          "name": "",
          "type": "bool"
        }
      ],
      "stateMutability": "view",
      "type": "function"
    },
    {
      "inputs": [
        {
          "internalType": "bytes32",
          "name": "_txid",
          "type": "bytes32"
        }
      ],
      "name": "isTxUsed",
      "outputs": [
        {
          "internalType": "bool",
          "name": "",
          "type": "bool"
        }
      ],
      "stateMutability": "view",
      "type": "function"
    },
    {
      "inputs": [],
      "name": "limitBTCForSPFlow2",
      "outputs": [
        {
          "internalType": "uint256",
          "name": "",
          "type": "uint256"
        }
      ],
      "stateMutability": "view",
      "type": "function"
    },
    {
      "inputs": [],
      "name": "lpToken",
      "outputs": [
        {
          "internalType": "contract IBurnableToken",
          "name": "",
          "type": "address"
        }
      ],
      "stateMutability": "view",
      "type": "function"
    },
    {
      "inputs": [
        {
          "internalType": "bytes32[]",
          "name": "_addressesAndAmounts",
          "type": "bytes32[]"
        },
        {
          "internalType": "uint256",
          "name": "_totalSwapped",
          "type": "uint256"
        },
        {
          "internalType": "uint256",
          "name": "_rewardsAmount",
          "type": "uint256"
        },
        {
          "internalType": "bytes32[]",
          "name": "_usedTxIds",
          "type": "bytes32[]"
        }
      ],
      "name": "multiRecordSkyPoolsTX",
      "outputs": [
        {
          "internalType": "bool",
          "name": "",
          "type": "bool"
        }
      ],
      "stateMutability": "nonpayable",
      "type": "function"
    },
    {
      "inputs": [
        {
          "internalType": "address",
          "name": "_destToken",
          "type": "address"
        },
        {
          "internalType": "bytes32[]",
          "name": "_addressesAndAmounts",
          "type": "bytes32[]"
        },
        {
          "internalType": "uint256",
          "name": "_totalSwapped",
          "type": "uint256"
        },
        {
          "internalType": "uint256",
          "name": "_rewardsAmount",
          "type": "uint256"
        },
        {
          "internalType": "bytes32[]",
          "name": "_redeemedFloatTxIds",
          "type": "bytes32[]"
        }
      ],
      "name": "multiTransferERC20TightlyPacked",
      "outputs": [
        {
          "internalType": "bool",
          "name": "",
          "type": "bool"
        }
      ],
      "stateMutability": "nonpayable",
      "type": "function"
    },
    {
      "inputs": [],
      "name": "oldestActiveIndex",
      "outputs": [
        {
          "internalType": "uint256",
          "name": "",
          "type": "uint256"
        }
      ],
      "stateMutability": "view",
      "type": "function"
    },
    {
      "inputs": [],
      "name": "owner",
      "outputs": [
        {
          "internalType": "address",
          "name": "",
          "type": "address"
        }
      ],
      "stateMutability": "view",
      "type": "function"
    },
    {
      "inputs": [],
      "name": "paraswapAddress",
      "outputs": [
        {
          "internalType": "address",
          "name": "",
          "type": "address"
        }
      ],
      "stateMutability": "view",
      "type": "function"
    },
    {
      "inputs": [
        {
          "internalType": "address",
          "name": "_token",
          "type": "address"
        },
        {
          "internalType": "bytes32",
          "name": "_addressesAndAmountOfFloat",
          "type": "bytes32"
        },
        {
          "internalType": "bytes32",
          "name": "_txid",
          "type": "bytes32"
        }
      ],
      "name": "recordIncomingFloat",
      "outputs": [
        {
          "internalType": "bool",
          "name": "",
          "type": "bool"
        }
      ],
      "stateMutability": "nonpayable",
      "type": "function"
    },
    {
      "inputs": [
        {
          "internalType": "address",
          "name": "_token",
          "type": "address"
        },
        {
          "internalType": "bytes32",
          "name": "_addressesAndAmountOfLPtoken",
          "type": "bytes32"
        },
        {
          "internalType": "uint256",
          "name": "_minerFee",
          "type": "uint256"
        },
        {
          "internalType": "bytes32",
          "name": "_txid",
          "type": "bytes32"
        }
      ],
      "name": "recordOutcomingFloat",
      "outputs": [
        {
          "internalType": "bool",
          "name": "",
          "type": "bool"
        }
      ],
      "stateMutability": "nonpayable",
      "type": "function"
    },
    {
      "inputs": [
        {
          "internalType": "address",
          "name": "_to",
          "type": "address"
        },
        {
          "internalType": "uint256",
          "name": "_totalSwapped",
          "type": "uint256"
        },
        {
          "internalType": "uint256",
          "name": "_rewardsAmount",
          "type": "uint256"
        },
        {
          "internalType": "bytes32[]",
          "name": "_usedTxIds",
          "type": "bytes32[]"
        }
      ],
      "name": "recordSkyPoolsTX",
      "outputs": [
        {
          "internalType": "bool",
          "name": "",
          "type": "bool"
        }
      ],
      "stateMutability": "nonpayable",
      "type": "function"
    },
    {
      "inputs": [
        {
          "internalType": "uint256",
          "name": "_minerFee",
          "type": "uint256"
        },
        {
          "internalType": "bytes32",
          "name": "_txid",
          "type": "bytes32"
        }
      ],
      "name": "recordUTXOSweepMinerFee",
      "outputs": [
        {
          "internalType": "bool",
          "name": "",
          "type": "bool"
        }
      ],
      "stateMutability": "nonpayable",
      "type": "function"
    },
    {
      "inputs": [
        {
          "internalType": "address",
          "name": "_token",
          "type": "address"
        },
        {
          "internalType": "uint256",
          "name": "_amount",
          "type": "uint256"
        }
      ],
      "name": "redeemERC20Token",
      "outputs": [],
      "stateMutability": "nonpayable",
      "type": "function"
    },
    {
      "inputs": [
        {
          "internalType": "uint256",
          "name": "_amount",
          "type": "uint256"
        }
      ],
      "name": "redeemEther",
      "outputs": [],
      "stateMutability": "nonpayable",
      "type": "function"
    },
    {
      "inputs": [],
      "name": "renounceOwnership",
      "outputs": [],
      "stateMutability": "nonpayable",
      "type": "function"
    },
    {
      "inputs": [],
      "name": "sbBTCPool",
      "outputs": [
        {
          "internalType": "address",
          "name": "",
          "type": "address"
        }
      ],
      "stateMutability": "view",
      "type": "function"
    },
    {
      "inputs": [
        {
          "internalType": "address",
          "name": "_destToken",
          "type": "address"
        },
        {
          "internalType": "address",
          "name": "_to",
          "type": "address"
        },
        {
          "internalType": "uint256",
          "name": "_amount",
          "type": "uint256"
        },
        {
          "internalType": "uint256",
          "name": "_totalSwapped",
          "type": "uint256"
        },
        {
          "internalType": "uint256",
          "name": "_rewardsAmount",
          "type": "uint256"
        },
        {
          "internalType": "bytes32[]",
          "name": "_redeemedFloatTxIds",
          "type": "bytes32[]"
        }
      ],
      "name": "singleTransferERC20",
      "outputs": [
        {
          "internalType": "bool",
          "name": "",
          "type": "bool"
        }
      ],
      "stateMutability": "nonpayable",
      "type": "function"
    },
    {
      "inputs": [],
      "name": "spCleanUpOldTXs",
      "outputs": [],
      "stateMutability": "nonpayable",
      "type": "function"
    },
    {
      "inputs": [
        {
          "internalType": "address",
          "name": "_token",
          "type": "address"
        },
        {
          "internalType": "uint256",
          "name": "_amount",
          "type": "uint256"
        }
      ],
      "name": "spDeposit",
      "outputs": [],
      "stateMutability": "payable",
      "type": "function"
    },
    {
      "inputs": [
        {
          "components": [
            {
              "internalType": "address",
              "name": "fromToken",
              "type": "address"
            },
            {
              "internalType": "address",
              "name": "toToken",
              "type": "address"
            },
            {
              "internalType": "uint256",
              "name": "fromAmount",
              "type": "uint256"
            },
            {
              "internalType": "uint256",
              "name": "toAmount",
              "type": "uint256"
            },
            {
              "internalType": "uint256",
              "name": "expectedAmount",
              "type": "uint256"
            },
            {
              "internalType": "address[]",
              "name": "callees",
              "type": "address[]"
            },
            {
              "internalType": "bytes",
              "name": "exchangeData",
              "type": "bytes"
            },
            {
              "internalType": "uint256[]",
              "name": "startIndexes",
              "type": "uint256[]"
            },
            {
              "internalType": "uint256[]",
              "name": "values",
              "type": "uint256[]"
            },
            {
              "internalType": "address payable",
              "name": "beneficiary",
              "type": "address"
            },
            {
              "internalType": "address payable",
              "name": "partner",
              "type": "address"
            },
            {
              "internalType": "uint256",
              "name": "feePercent",
              "type": "uint256"
            },
            {
              "internalType": "bytes",
              "name": "permit",
              "type": "bytes"
            },
            {
              "internalType": "uint256",
              "name": "deadline",
              "type": "uint256"
            },
            {
              "internalType": "bytes16",
              "name": "uuid",
              "type": "bytes16"
            }
          ],
          "internalType": "struct Utils.SimpleData",
          "name": "_data",
          "type": "tuple"
        }
      ],
      "name": "spFlow1SimpleSwap",
      "outputs": [],
      "stateMutability": "nonpayable",
      "type": "function"
    },
    {
      "inputs": [
        {
          "internalType": "bool",
          "name": "_fork",
          "type": "bool"
        },
        {
          "internalType": "address",
          "name": "_factory",
          "type": "address"
        },
        {
          "internalType": "bytes32",
          "name": "_initCode",
          "type": "bytes32"
        },
        {
          "internalType": "uint256",
          "name": "_amountIn",
          "type": "uint256"
        },
        {
          "internalType": "uint256",
          "name": "_amountOutMin",
          "type": "uint256"
        },
        {
          "internalType": "address[]",
          "name": "_path",
          "type": "address[]"
        }
      ],
      "name": "spFlow1Uniswap",
      "outputs": [
        {
          "internalType": "uint256",
          "name": "receivedAmount",
          "type": "uint256"
        }
      ],
      "stateMutability": "nonpayable",
      "type": "function"
    },
    {
      "inputs": [
        {
          "internalType": "string",
          "name": "_destinationAddressForBTC",
          "type": "string"
        },
        {
          "components": [
            {
              "internalType": "address",
              "name": "fromToken",
              "type": "address"
            },
            {
              "internalType": "address",
              "name": "toToken",
              "type": "address"
            },
            {
              "internalType": "uint256",
              "name": "fromAmount",
              "type": "uint256"
            },
            {
              "internalType": "uint256",
              "name": "toAmount",
              "type": "uint256"
            },
            {
              "internalType": "uint256",
              "name": "expectedAmount",
              "type": "uint256"
            },
            {
              "internalType": "address[]",
              "name": "callees",
              "type": "address[]"
            },
            {
              "internalType": "bytes",
              "name": "exchangeData",
              "type": "bytes"
            },
            {
              "internalType": "uint256[]",
              "name": "startIndexes",
              "type": "uint256[]"
            },
            {
              "internalType": "uint256[]",
              "name": "values",
              "type": "uint256[]"
            },
            {
              "internalType": "address payable",
              "name": "beneficiary",
              "type": "address"
            },
            {
              "internalType": "address payable",
              "name": "partner",
              "type": "address"
            },
            {
              "internalType": "uint256",
              "name": "feePercent",
              "type": "uint256"
            },
            {
              "internalType": "bytes",
              "name": "permit",
              "type": "bytes"
            },
            {
              "internalType": "uint256",
              "name": "deadline",
              "type": "uint256"
            },
            {
              "internalType": "bytes16",
              "name": "uuid",
              "type": "bytes16"
            }
          ],
          "internalType": "struct Utils.SimpleData",
          "name": "_data",
          "type": "tuple"
        }
      ],
      "name": "spFlow2SimpleSwap",
      "outputs": [
        {
          "internalType": "uint256",
          "name": "receivedAmount",
          "type": "uint256"
        }
      ],
      "stateMutability": "nonpayable",
      "type": "function"
    },
    {
      "inputs": [
        {
          "internalType": "string",
          "name": "_destinationAddressForBTC",
          "type": "string"
        },
        {
          "internalType": "bool",
          "name": "_fork",
          "type": "bool"
        },
        {
          "internalType": "address",
          "name": "_factory",
          "type": "address"
        },
        {
          "internalType": "bytes32",
          "name": "_initCode",
          "type": "bytes32"
        },
        {
          "internalType": "uint256",
          "name": "_amountIn",
          "type": "uint256"
        },
        {
          "internalType": "uint256",
          "name": "_amountOutMin",
          "type": "uint256"
        },
        {
          "internalType": "address[]",
          "name": "_path",
          "type": "address[]"
        }
      ],
      "name": "spFlow2Uniswap",
      "outputs": [
        {
          "internalType": "uint256",
          "name": "receivedAmount",
          "type": "uint256"
        }
      ],
      "stateMutability": "nonpayable",
      "type": "function"
    },
    {
      "inputs": [],
      "name": "spGetPendingSwaps",
      "outputs": [
        {
          "components": [
            {
              "internalType": "bytes32",
              "name": "SwapID",
              "type": "bytes32"
            },
            {
              "internalType": "string",
              "name": "DestAddr",
              "type": "string"
            },
            {
              "internalType": "address",
              "name": "RefundAddr",
              "type": "address"
            },
            {
              "internalType": "uint256",
              "name": "AmountWBTC",
              "type": "uint256"
            },
            {
              "internalType": "uint256",
              "name": "Timestamp",
              "type": "uint256"
            }
          ],
          "internalType": "struct SwapContract.spPendingTx[]",
          "name": "data",
          "type": "tuple[]"
        }
      ],
      "stateMutability": "view",
      "type": "function"
    },
    {
      "inputs": [
        {
          "internalType": "uint256",
          "name": "",
          "type": "uint256"
        }
      ],
      "name": "spPendingTXs",
      "outputs": [
        {
          "internalType": "bytes32",
          "name": "SwapID",
          "type": "bytes32"
        },
        {
          "internalType": "string",
          "name": "DestAddr",
          "type": "string"
        },
        {
          "internalType": "address",
          "name": "RefundAddr",
          "type": "address"
        },
        {
          "internalType": "uint256",
          "name": "AmountWBTC",
          "type": "uint256"
        },
        {
          "internalType": "uint256",
          "name": "Timestamp",
          "type": "uint256"
        }
      ],
      "stateMutability": "view",
      "type": "function"
    },
    {
      "inputs": [],
      "name": "sw",
      "outputs": [
        {
          "internalType": "contract ISwapRewards",
          "name": "",
          "type": "address"
        }
      ],
      "stateMutability": "view",
      "type": "function"
    },
    {
      "inputs": [],
      "name": "swapCount",
      "outputs": [
        {
          "internalType": "uint256",
          "name": "",
          "type": "uint256"
        }
      ],
      "stateMutability": "view",
      "type": "function"
    },
    {
      "inputs": [
        {
          "internalType": "address",
          "name": "",
          "type": "address"
        },
        {
          "internalType": "address",
          "name": "",
          "type": "address"
        }
      ],
      "name": "tokens",
      "outputs": [
        {
          "internalType": "uint256",
          "name": "",
          "type": "uint256"
        }
      ],
      "stateMutability": "view",
      "type": "function"
    },
    {
      "inputs": [],
      "name": "totalStakedAmount",
      "outputs": [
        {
          "internalType": "uint256",
          "name": "",
          "type": "uint256"
        }
      ],
      "stateMutability": "view",
      "type": "function"
    },
    {
      "inputs": [
        {
          "internalType": "address",
          "name": "newOwner",
          "type": "address"
        }
      ],
      "name": "transferOwnership",
      "outputs": [],
      "stateMutability": "nonpayable",
      "type": "function"
    },
    {
      "inputs": [],
      "name": "tssThreshold",
      "outputs": [
        {
          "internalType": "uint8",
          "name": "",
          "type": "uint8"
        }
      ],
      "stateMutability": "view",
      "type": "function"
    },
    {
      "inputs": [],
      "name": "wETH",
      "outputs": [
        {
          "internalType": "address",
          "name": "",
          "type": "address"
        }
      ],
      "stateMutability": "view",
      "type": "function"
    },
    {
      "inputs": [
        {
          "internalType": "address",
          "name": "",
          "type": "address"
        }
      ],
      "name": "whitelist",
      "outputs": [
        {
          "internalType": "bool",
          "name": "",
          "type": "bool"
        }
      ],
      "stateMutability": "view",
      "type": "function"
    },
    {
      "stateMutability": "payable",
      "type": "receive"
    }
  ],
  "bytecode": "0x6101806040523480156200001257600080fd5b506040516200644c3803806200644c833981016040819052620000359162000332565b6200004033620002c5565b600180556000600e819055600d556001600160a01b038086166101605284811661010052831660a08190526040805163f10d7c3560e01b8152905163f10d7c3591600480820192602092909190829003018186803b158015620000a257600080fd5b505afa158015620000b7573d6000803e3d6000fd5b505050506040513d601f19601f82011682018060405250810190620000dd9190620003be565b600b80546001600160a01b0319166001600160a01b0392831617905582811660c052871660808190526040805163313ce56760e01b8152905163313ce56791600480820192602092909190829003018186803b1580156200013d57600080fd5b505afa15801562000152573d6000803e3d6000fd5b505050506040513d601f19601f82011682018060405250810190620001789190620003e3565b6200018590600a6200051d565b610140526001600160a01b03861660e08190526040805163313ce56760e01b815290516008929163313ce567916004808301926020929190829003018186803b158015620001d257600080fd5b505afa158015620001e7573d6000803e3d6000fd5b505050506040513d601f19601f820116820180604052508101906200020d9190620003e3565b6200021991906200052e565b6200022690600a6200051d565b610120526001600160a01b0395861660009081526002602090815260408083208054600160ff1991821681179092559a9099168352822080548a16891790559080527fac33ff75c19e70fe83507db0d683fd3465c996598dc972688b7ace676c89077b80549098169096179096555050600390925250507f3617319a054d772f909f7c479a2cebe5066e836a939412e32403c99029b92eff5562000554565b600080546001600160a01b038381166001600160a01b0319831681178455604051919092169283917f8be0079c531659141344cd1fd0a4f28419497f9722a3daafe3b4186f6b6457e09190a35050565b80516001600160a01b03811681146200032d57600080fd5b919050565b600080600080600080600060e0888a0312156200034e57600080fd5b620003598862000315565b9650620003696020890162000315565b9550620003796040890162000315565b9450620003896060890162000315565b9350620003996080890162000315565b9250620003a960a0890162000315565b915060c0880151905092959891949750929550565b600060208284031215620003d157600080fd5b620003dc8262000315565b9392505050565b600060208284031215620003f657600080fd5b815160ff81168114620003dc57600080fd5b634e487b7160e01b600052601160045260246000fd5b600181815b808511156200045f57816000190482111562000443576200044362000408565b808516156200045157918102915b93841c939080029062000423565b509250929050565b600082620004785750600162000517565b81620004875750600062000517565b8160018114620004a05760028114620004ab57620004cb565b600191505062000517565b60ff841115620004bf57620004bf62000408565b50506001821b62000517565b5060208310610133831016604e8410600b8410161715620004f0575081810a62000517565b620004fc83836200041e565b806000190482111562000513576200051362000408565b0290505b92915050565b6000620003dc60ff84168362000467565b600060ff821660ff8416808210156200054b576200054b62000408565b90039392505050565b60805160a05160c05160e05161010051610120516101405161016051615d116200073b600039600081816102780152818161089901528181611cc501528181611d2101528181611d8e01528181611dd501528181611eb901528181612d7901528181612df30152612e3c01526000818161138d015281816113c90152818161378101528181613cac01526144940152600061396d0152600081816102cb01526137bc0152600081816103ac01528181610a7501528181610ada01528181610c1d015281816112c10152818161166e01528181612066015281816120cb015281816121b6015281816121e501528181612235015281816122c8015281816123560152818161290b0152818161297f01528181612a1601528181612bca015281816130d50152818161338b0152818161346c0152818161392f01528181613dd901528181613e5501528181613eea01526141c0015260008181610348015281816109f101526133da0152600081816107a00152818161264701528181612713015281816127d2015281816132b2015281816136da01528181613ce4015261459a01526000818161058f01528181610aa101528181610b00015281816112ed01528181612092015281816120f1015281816137ee01528181613f4301526144e10152615d116000f3fe6080604052600436106102685760003560e01c80638535490f11610144578063ca0707e7116100b6578063e6ca20841161007a578063e6ca208414610802578063ec48272914610832578063f10d7c3514610867578063f242862114610887578063f2fde38b146108bb578063f7888aec146108db576102a7565b8063ca0707e71461075b578063cf10b16b1461076e578063d023420d1461078e578063d38c7bb1146107c2578063dcc5f0c8146107e2576102a7565b8063ad289e7611610108578063ad289e76146106a6578063b345a358146106c6578063b4014fe8146106e6578063b9ae0adc14610706578063bf62dcc81461071b578063c810a5391461073b576102a7565b80638535490f146106025780638da5cb5b146106225780639b19251a14610640578063a742329d14610670578063a827278b14610690576102a7565b80632eff0d9e116101dd57806352dcd6b6116101a157806352dcd6b614610547578063567e98f9146105675780635fcbd2851461057d5780636b51e919146105b1578063715018a6146105d357806375340815146105e8576102a7565b80632eff0d9e146104a457806345137e27146104ba5780634db75485146104cf578063508493bc146104ef578063511834c314610527576102a7565b806312d1441e1161022f57806312d1441e146103ce578063130b7a63146103ed5780631ab7e9371461041b5780631bb069301461044c57806320199e99146104625780632586c56214610484576102a7565b806285aea1146102b957806289356f1461030a578062e5cee4146103365780630d63aca71461036a5780630f9094861461039a576102a7565b366102a757336001600160a01b037f000000000000000000000000000000000000000000000000000000000000000016146102a5576102a5614b2c565b005b3480156102b357600080fd5b50600080fd5b3480156102c557600080fd5b506102ed7f000000000000000000000000000000000000000000000000000000000000000081565b6040516001600160a01b0390911681526020015b60405180910390f35b34801561031657600080fd5b506009546103249060ff1681565b60405160ff9091168152602001610301565b34801561034257600080fd5b506102ed7f000000000000000000000000000000000000000000000000000000000000000081565b34801561037657600080fd5b5061038a610385366004614c3b565b610921565b6040519015158152602001610301565b3480156103a657600080fd5b506102ed7f000000000000000000000000000000000000000000000000000000000000000081565b3480156103da57600080fd5b5060095461032490610100900460ff1681565b3480156103f957600080fd5b5061040d610408366004614d1c565b610b4f565b604051908152602001610301565b34801561042757600080fd5b5061043b610436366004614da1565b610f20565b604051610301959493929190614e12565b34801561045857600080fd5b5061040d600e5481565b34801561046e57600080fd5b50610477610fe3565b6040516103019190614e51565b34801561049057600080fd5b5061038a61049f366004614eef565b6111e4565b3480156104b057600080fd5b5061040d600d5481565b3480156104c657600080fd5b5061040d6112b5565b3480156104db57600080fd5b506102a56104ea366004614f2a565b6113f1565b3480156104fb57600080fd5b5061040d61050a366004614f56565b600a60209081526000928352604080842090915290825290205481565b34801561053357600080fd5b506102a5610542366004614fa8565b611550565b34801561055357600080fd5b5061038a61056236600461505a565b6117ba565b34801561057357600080fd5b5061040d60085481565b34801561058957600080fd5b506102ed7f000000000000000000000000000000000000000000000000000000000000000081565b3480156105bd57600080fd5b506105c6611b55565b604051610301919061519c565b3480156105df57600080fd5b506102a5611c7f565b3480156105f457600080fd5b506007546103249060ff1681565b34801561060e57600080fd5b506102a561061d366004614da1565b611c93565b34801561062e57600080fd5b506000546001600160a01b03166102ed565b34801561064c57600080fd5b5061038a61065b3660046151af565b60026020526000908152604090205460ff1681565b34801561067c57600080fd5b5061038a61068b3660046151af565b611f4f565b34801561069c57600080fd5b5061040d600f5481565b3480156106b257600080fd5b5061038a6106c13660046151cc565b611f83565b3480156106d257600080fd5b5061038a6106e1366004615255565b612191565b3480156106f257600080fd5b5061040d6107013660046152f8565b612294565b34801561071257600080fd5b506102a561270c565b34801561072757600080fd5b5061038a610736366004615360565b6128e6565b34801561074757600080fd5b5061038a6107563660046153ca565b612a9d565b6102a5610769366004614f2a565b612b71565b34801561077a57600080fd5b5061038a6107893660046153ec565b612ed3565b34801561079a57600080fd5b506102ed7f000000000000000000000000000000000000000000000000000000000000000081565b3480156107ce57600080fd5b5061040d6107dd366004615421565b612fa2565b3480156107ee57600080fd5b5061038a6107fd3660046154d8565b61337f565b34801561080e57600080fd5b5061038a61081d366004614da1565b60009081526004602052604090205460ff1690565b34801561083e57600080fd5b5061085261084d366004614f56565b6134dc565b60408051928352602083019190915201610301565b34801561087357600080fd5b50600b546102ed906001600160a01b031681565b34801561089357600080fd5b506102ed7f000000000000000000000000000000000000000000000000000000000000000081565b3480156108c757600080fd5b506102a56108d63660046151af565b613506565b3480156108e757600080fd5b5061040d6108f6366004614f56565b6001600160a01b039182166000908152600a6020908152604080832093909416825291909152205490565b600061092b61357f565b6001600160a01b03871660009081526002602052604090205460ff1661097d5760405162461bcd60e51b81526020600482015260026024820152610c4d60f21b60448201526064015b60405180910390fd5b6001600160a01b0387166109b85760405162461bcd60e51b8152602060048201526002602482015261313560f01b6044820152606401610974565b60008415610a9f5760405160016266faa960e11b031981526001600160a01b0389811660048301528881166024830152604482018790527f0000000000000000000000000000000000000000000000000000000000000000169063ff320aae90606401602060405180830381600087803b158015610a3557600080fd5b505af1158015610a49573d6000803e3d6000fd5b505050506040513d601f19601f82011682018060405250810190610a6d91906155bd565b50610a9a60007f000000000000000000000000000000000000000000000000000000000000000087613596565b610b23565b7f00000000000000000000000000000000000000000000000000000000000000006001600160a01b0316886001600160a01b031614610afe577f0000000000000000000000000000000000000000000000000000000000000000610b20565b7f00000000000000000000000000000000000000000000000000000000000000005b90505b610b2d818561366c565b610b36836138c5565b610b4188888861392d565b506001979650505050505050565b600060026001541415610b745760405162461bcd60e51b8152600401610974906155da565b6002600155600083838281610b8b57610b8b615611565b9050602002016020810190610ba091906151af565b905060008484610bb160018261563d565b818110610bc057610bc0615611565b9050602002016020810190610bd591906151af565b6001600160a01b0383166000908152600a60209081526040808320338452909152902054909150871115610c1b5760405162461bcd60e51b815260040161097490615654565b7f00000000000000000000000000000000000000000000000000000000000000006001600160a01b0316826001600160a01b031614610c955760405162461bcd60e51b8152602060048201526016602482015275333937b6aa37b5b2b710109e90212a21aa2fa0a2222960511b6044820152606401610974565b6001600160a01b03811673eeeeeeeeeeeeeeeeeeeeeeeeeeeeeeeeeeeeeeee1415610cfa5760405162461bcd60e51b81526020600482015260156024820152740aae6ca40e0c2e8d040ee84a886405a7c40ee8aa89605b1b6044820152606401610974565b6040516370a0823160e01b81523060048201526000906001600160a01b038316906370a082319060240160206040518083038186803b158015610d3c57600080fd5b505afa158015610d50573d6000803e3d6000fd5b505050506040513d601f19601f82011682018060405250810190610d749190615682565b6001600160a01b0384166000908152600a60209081526040808320338452909152902054909150610da59089613a1f565b6001600160a01b0384166000908152600a602090815260408083203384529091529020558a15610de257610ddd8a8a8a8a8a8a613a32565b610dee565b610dee88888888613b5d565b6040516370a0823160e01b8152306004820152610e729082906001600160a01b038516906370a08231906024015b60206040518083038186803b158015610e3457600080fd5b505afa158015610e48573d6000803e3d6000fd5b505050506040513d601f19601f82011682018060405250810190610e6c9190615682565b90613a1f565b935086841015610eb95760405162461bcd60e51b81526020600482015260126024820152715265636569766564203c206d696e696d756d60701b6044820152606401610974565b6001600160a01b0382166000908152600a60209081526040808320338452909152902054610ee79085613c11565b6001600160a01b039092166000908152600a60209081526040808320338452909152902091909155505060018055979650505050505050565b600c6020526000908152604090208054600182018054919291610f429061569b565b80601f0160208091040260200160405190810160405280929190818152602001828054610f6e9061569b565b8015610fbb5780601f10610f9057610100808354040283529160200191610fbb565b820191906000526020600020905b815481529060010190602001808311610f9e57829003601f168201915b505050506002830154600384015460049094015492936001600160a01b039091169290915085565b60606000610ffe600e54600d54613a1f90919063ffffffff16565b6001600160401b0381111561101557611015614b67565b60405190808252806020026020018201604052801561108457816020015b6110716040518060a00160405280600080191681526020016060815260200160006001600160a01b0316815260200160008152602001600081525090565b8152602001906001900390816110335790505b509150600061109f6001600e54613c1190919063ffffffff16565b90505b600d5481116111df57600c60006110c4600e5485613c1190919063ffffffff16565b81526020019081526020016000206040518060a0016040529081600082015481526020016001820180546110f79061569b565b80601f01602080910402602001604051908101604052809291908181526020018280546111239061569b565b80156111705780601f1061114557610100808354040283529160200191611170565b820191906000526020600020905b81548152906001019060200180831161115357829003601f168201915b505050918352505060028201546001600160a01b031660208201526003820154604082015260049091015460609091015283518490849081106111b5576111b5615611565b60209081029190910101526111cb826001613c11565b9150806111d7816156d0565b9150506110a2565b505090565b60006111ee61357f565b60006111f86112b5565b6001600160a01b03871660009081526002602052604090205490915060ff166112485760405162461bcd60e51b8152602060048201526002602482015261189b60f11b6044820152606401610974565b61125486868686613c1d565b61125d57600080fd5b600191508061126a6112b5565b10156112ac5760405162461bcd60e51b8152602060048201526011602482015270496e76616c6964204c505420707269636560781b6044820152606401610974565b50949350505050565b60008060006112e560007f00000000000000000000000000000000000000000000000000000000000000006134dc565b9150915060007f00000000000000000000000000000000000000000000000000000000000000006001600160a01b03166318160ddd6040518163ffffffff1660e01b815260040160206040518083038186803b15801561134457600080fd5b505afa158015611358573d6000803e3d6000fd5b505050506040513d601f19601f8201168201806040525081019061137c9190615682565b905080156113c7576113c2816113bc7f00000000000000000000000000000000000000000000000000000000000000006113b68787613c11565b90614042565b9061404e565b6113e9565b7f00000000000000000000000000000000000000000000000000000000000000005b935050505090565b600260015414156114145760405162461bcd60e51b8152600401610974906155da565b60026001556001600160a01b0382166000908152600a602090815260408083203384529091529020548111156114835760405162461bcd60e51b8152602060048201526014602482015273496e73756666696369656e742042616c616e636560601b6044820152606401610974565b6001600160a01b0382166000908152600a602090815260408083203384529091529020546114b19082613a1f565b6001600160a01b0383166000908152600a60209081526040808320338085529252909120919091556114e59083908361392d565b6001600160a01b0382166000908152600a60209081526040808320338085529252918290205491517febff2602b3f468259e1e99f613fed6691f3a6526effe6ef3e768ba7ae7a36c4f926115409286929091869142906156eb565b60405180910390a1505060018055565b600260015414156115735760405162461bcd60e51b8152600401610974906155da565b60026001553361158b610140830161012084016151af565b6001600160a01b0316146115e15760405162461bcd60e51b815260206004820152601960248201527f62656e656669636961727920213d206d73672e73656e646572000000000000006044820152606401610974565b6040810135600a60006115f760208501856151af565b6001600160a01b031681526020810191909152604001600090812090611625610140850161012086016151af565b6001600160a01b03166001600160a01b031681526020019081526020016000205410156116645760405162461bcd60e51b815260040161097490615654565b6001600160a01b037f00000000000000000000000000000000000000000000000000000000000000001661169b60208301836151af565b6001600160a01b0316146116ea5760405162461bcd60e51b8152602060048201526016602482015275333937b6aa37b5b2b710109e90212a21aa2fa0a2222960511b6044820152606401610974565b6116f38161405a565b61175a6040820135600a600061170c60208601866151af565b6001600160a01b03168152602081019190915260400160009081209061173a610140860161012087016151af565b6001600160a01b0316815260208101919091526040016000205490613a1f565b600a600061176b60208501856151af565b6001600160a01b031681526020810191909152604001600090812090611799610140850161012086016151af565b6001600160a01b031681526020810191909152604001600020555060018055565b60006117c461357f565b60095460ff6101009091048116908416108015906117e6575060ff8360ff1611155b6118175760405162461bcd60e51b8152602060048201526002602482015261303160f01b6044820152606401610974565b61182260018461571c565b60ff168460ff16101561185c5760405162461bcd60e51b8152602060048201526002602482015261181960f11b6044820152606401610974565b84518651146118925760405162461bcd60e51b8152602060048201526002602482015261303560f01b6044820152606401610974565b61189b87613506565b60005b8651811015611ac5578581815181106118b9576118b9615611565b6020026020010151611a2e57600060ff16600560008984815181106118e0576118e0615611565b6020908102919091018101516001600160a01b031682528101919091526040016000205460ff16141561195d57600687828151811061192157611921615611565b60209081029190910181015182546001810184556000938452919092200180546001600160a01b0319166001600160a01b039092169190911790555b600160ff166005600089848151811061197857611978615611565b6020908102919091018101516001600160a01b031682528101919091526040016000205460ff16146119d1576007805460ff169060006119b783615741565b91906101000a81548160ff021916908360ff160217905550505b6001600560008984815181106119e9576119e9615611565b60200260200101516001600160a01b03166001600160a01b0316815260200190815260200160002060006101000a81548160ff021916908360ff160217905550611ab3565b6007805460ff16906000611a4183615761565b91906101000a81548160ff021916908360ff16021790555050600260056000898481518110611a7257611a72615611565b60200260200101516001600160a01b03166001600160a01b0316815260200190815260200160002060006101000a81548160ff021916908360ff1602179055505b80611abd816156d0565b91505061189e565b50600754606460ff9091161115611b285760405162461bcd60e51b815260206004820152602160248201527f53746f726564206e6f64652073697a652073686f756c64206265203c3d2031306044820152600360fc1b6064820152608401610974565b506009805460ff8481166101000261ffff1990921690861617179055600881905560019695505050505050565b600754606090600090819060ff166001600160401b03811115611b7a57611b7a614b67565b604051908082528060200260200182016040528015611ba3578160200160208202803683370190505b50905060005b600654811015611c7857600160ff166005600060068481548110611bcf57611bcf615611565b60009182526020808320909101546001600160a01b0316835282019290925260400190205460ff161415611c665760068181548110611c1057611c10615611565b9060005260206000200160009054906101000a90046001600160a01b0316828481518110611c4057611c40615611565b6001600160a01b039092166020928302919091019091015282611c62816156d0565b9350505b80611c70816156d0565b915050611ba9565b5092915050565b611c8761357f565b611c91600061416c565b565b60026001541415611cb65760405162461bcd60e51b8152600401610974906155da565b60026001556001600160a01b037f0000000000000000000000000000000000000000000000000000000000000000166000908152600a60209081526040808320338452909152902054811115611d0b57600080fd5b604051632e1a7d4d60e01b8152600481018290527f00000000000000000000000000000000000000000000000000000000000000006001600160a01b031690632e1a7d4d90602401600060405180830381600087803b158015611d6d57600080fd5b505af1158015611d81573d6000803e3d6000fd5b5050506001600160a01b037f0000000000000000000000000000000000000000000000000000000000000000166000908152600a60209081526040808320338452909152902054611dd3915082613a1f565b7f00000000000000000000000000000000000000000000000000000000000000006001600160a01b03166000908152600a60209081526040808320338085529252808320939093559151829084908381818185875af1925050503d8060008114611e59576040519150601f19603f3d011682016040523d82523d6000602084013e611e5e565b606091505b5050905080611eaf5760405162461bcd60e51b815260206004820152601e60248201527f72656365697665722072656a656374656420455448207472616e7366657200006044820152606401610974565b6001600160a01b037f0000000000000000000000000000000000000000000000000000000000000000166000908152600a60209081526040808320338085529252918290205491517febff2602b3f468259e1e99f613fed6691f3a6526effe6ef3e768ba7ae7a36c4f92611f3e9273eeeeeeeeeeeeeeeeeeeeeeeeeeeeeeeeeeeeeeee929091889142906156eb565b60405180910390a150506001805550565b6001600160a01b03811660009081526005602052604081205460ff1660011415611f7b57506001919050565b506000919050565b6000611f8d61357f565b6001600160a01b03861660009081526002602052604090205460ff16611ff55760405162461bcd60e51b815260206004820152601d60248201527f5f64657374546f6b656e206973206e6f742077686974656c69737465640000006044820152606401610974565b6001600160a01b0386166120575760405162461bcd60e51b815260206004820152602360248201527f5f64657374546f6b656e2073686f756c64206e6f74206265206164647265737360448201526228302960e81b6064820152608401610974565b600084156120905761208b60007f000000000000000000000000000000000000000000000000000000000000000087613596565b612114565b7f00000000000000000000000000000000000000000000000000000000000000006001600160a01b0316876001600160a01b0316146120ef577f0000000000000000000000000000000000000000000000000000000000000000612111565b7f00000000000000000000000000000000000000000000000000000000000000005b90505b61211e818561366c565b612127836138c5565b60005b8651811015610b415761217f8888838151811061214957612149615611565b602002602001015160001c89848151811061216657612166615611565b602002602001015160a01c6001600160601b031661392d565b80612189816156d0565b91505061212a565b600061219b61357f565b836121a557600080fd5b826121af57600080fd5b6121db60007f000000000000000000000000000000000000000000000000000000000000000086613596565b6001600160a01b037f000000000000000000000000000000000000000000000000000000000000000081166000908152600a602090815260408083209389168352929052205461222b9085613c11565b6001600160a01b037f000000000000000000000000000000000000000000000000000000000000000081166000908152600a60209081526040808320938a16835292905290812091909155612280908461366c565b612289826138c5565b506001949350505050565b6000600260015414156122b95760405162461bcd60e51b8152600401610974906155da565b60026001556001600160a01b037f0000000000000000000000000000000000000000000000000000000000000000166122f560208401846151af565b6001600160a01b0316141561234c5760405162461bcd60e51b815260206004820152601c60248201527f4d757374206e6f7420737761702066726f6d2042544320746f6b656e000000006044820152606401610974565b6001600160a01b037f00000000000000000000000000000000000000000000000000000000000000001661238660408401602085016151af565b6001600160a01b0316146123d55760405162461bcd60e51b815260206004820152601660248201527526bab9ba1039bbb0b8103a3790212a21903a37b5b2b760511b6044820152606401610974565b306123e8610140840161012085016151af565b6001600160a01b03161461243e5760405162461bcd60e51b815260206004820152601c60248201527f62656e656669636961727920213d207377617020636f6e7472616374000000006044820152606401610974565b6040820135600a600061245460208601866151af565b6001600160a01b031681526020808201929092526040908101600090812033825290925290205410156124995760405162461bcd60e51b815260040161097490615654565b60006124ab60408401602085016151af565b6040516370a0823160e01b81523060048201526001600160a01b0391909116906370a082319060240160206040518083038186803b1580156124ec57600080fd5b505afa158015612500573d6000803e3d6000fd5b505050506040513d601f19601f820116820180604052508101906125249190615682565b905061256c6040840135600a600061253f60208801886151af565b6001600160a01b031681526020808201929092526040908101600090812033825290925290205490613a1f565b600a600061257d60208701876151af565b6001600160a01b03168152602080820192909252604090810160009081203382529092529020556125ad8361405a565b6125ef816125c160408601602087016151af565b6040516370a0823160e01b81523060048201526001600160a01b0391909116906370a0823190602401610e1c565b915082608001358210156126455760405162461bcd60e51b815260206004820152601c60248201527f526563656976656420616d6f756e7420696e73756666696369656e74000000006044820152606401610974565b7f00000000000000000000000000000000000000000000000000000000000000006001600160a01b0316631411c5b76040518163ffffffff1660e01b815260040160206040518083038186803b15801561269e57600080fd5b505afa1580156126b2573d6000803e3d6000fd5b505050506040513d601f19601f820116820180604052508101906126d69190615682565b8210156126f55760405162461bcd60e51b81526004016109749061577e565b6127008585846141bc565b50600180559392505050565b60006127ae7f00000000000000000000000000000000000000000000000000000000000000006001600160a01b031663e91675b86040518163ffffffff1660e01b815260040160206040518083038186803b15801561276a57600080fd5b505afa15801561277e573d6000803e3d6000fd5b505050506040513d601f19601f820116820180604052508101906127a291906157c7565b600e549060ff16613c11565b9050600d5481106127be5750600d545b600e5442905b828110156128e157816128797f00000000000000000000000000000000000000000000000000000000000000006001600160a01b031663da284dcc6040518163ffffffff1660e01b815260040160206040518083038186803b15801561282957600080fd5b505afa15801561283d573d6000803e3d6000fd5b505050506040513d601f19601f820116820180604052508101906128619190615682565b6000848152600c602052604090206004015490613c11565b10156128cf576000818152600c602052604081208181559061289e6001830182614a59565b506002810180546001600160a01b03191690556000600382018190556004909101556128cb816001613c11565b600e555b806128d9816156d0565b9150506127c4565b505050565b60006128f061357f565b836128fa57600080fd5b8261290457600080fd5b61293060007f000000000000000000000000000000000000000000000000000000000000000086613596565b61293b60008461366c565b612944826138c5565b60005b8551811015612a9157612a0c86828151811061296557612965615611565b602002602001015160a01c6001600160601b0316600a60007f00000000000000000000000000000000000000000000000000000000000000006001600160a01b03166001600160a01b0316815260200190815260200160002060008985815181106129d2576129d2615611565b602002602001015160001c6001600160a01b03166001600160a01b0316815260200190815260200160002054613c1190919063ffffffff16565b6001600160a01b037f0000000000000000000000000000000000000000000000000000000000000000166000908152600a602052604081208851909190899085908110612a5b57612a5b615611565b6020908102919091018101516001600160a01b031682528101919091526040016000205580612a89816156d0565b915050612947565b50600195945050505050565b6000612aa761357f565b60008281526004602052604090205460ff1615612b065760405162461bcd60e51b815260206004820152601860248201527f546865207478696420697320616c7265616479207573656400000000000000006044820152606401610974565b604080518082019091526002815261189960f11b6020808301919091526000805260039052600080516020615cbc83398151915254612b46918590614348565b600080526003602052600080516020615cbc83398151915255612b6882614374565b50600192915050565b60026001541415612b945760405162461bcd60e51b8152600401610974906155da565b600260015534612d6a576001600160a01b03821673eeeeeeeeeeeeeeeeeeeeeeeeeeeeeeeeeeeeeeee1415612bc857600080fd5b7f00000000000000000000000000000000000000000000000000000000000000006001600160a01b0316826001600160a01b03161415612c0757600080fd5b6040516370a0823160e01b81523060048201526000906001600160a01b038416906370a082319060240160206040518083038186803b158015612c4957600080fd5b505afa158015612c5d573d6000803e3d6000fd5b505050506040513d601f19601f82011682018060405250810190612c819190615682565b9050612c986001600160a01b03841633308561438f565b6040516370a0823160e01b8152306004820152600090612ccd9083906001600160a01b038716906370a0823190602401610e1c565b6001600160a01b0385166000908152600a60209081526040808320338452909152902054909150612cfe9082613c11565b6001600160a01b0385166000908152600a602090815260408083203380855292529182902083905590517f4e2ca0515ed1aef1395f66b5303bb5d6f1bf9d61a353fa53f73f8ac9973fa9f692612d5b9288929091869142906156eb565b60405180910390a15050612ecb565b60003411612d7757600080fd5b7f00000000000000000000000000000000000000000000000000000000000000006001600160a01b031663d0e30db0346040518263ffffffff1660e01b81526004016000604051808303818588803b158015612dd257600080fd5b505af1158015612de6573d6000803e3d6000fd5b5050506001600160a01b037f0000000000000000000000000000000000000000000000000000000000000000166000908152600a60209081526040808320338452909152902054612e3a9250905034613c11565b7f00000000000000000000000000000000000000000000000000000000000000006001600160a01b03166000908152600a602090815260408083203380855292529182902083905590517f4e2ca0515ed1aef1395f66b5303bb5d6f1bf9d61a353fa53f73f8ac9973fa9f6926115409273eeeeeeeeeeeeeeeeeeeeeeeeeeeeeeeeeeeeeeee929091349142906156eb565b505060018055565b6000612edd61357f565b6000612ee76112b5565b6001600160a01b03861660009081526002602052604090205490915060ff16612f375760405162461bcd60e51b8152602060048201526002602482015261189b60f11b6044820152606401610974565b612f42858585614400565b612f4b57600080fd5b6001915080612f586112b5565b1015612f9a5760405162461bcd60e51b8152602060048201526011602482015270496e76616c6964204c505420707269636560781b6044820152606401610974565b509392505050565b600060026001541415612fc75760405162461bcd60e51b8152600401610974906155da565b6002600155600083838281612fde57612fde615611565b9050602002016020810190612ff391906151af565b90506000848461300460018261563d565b81811061301357613013615611565b905060200201602081019061302891906151af565b6001600160a01b0383166000908152600a6020908152604080832033845290915290205490915087111561306e5760405162461bcd60e51b815260040161097490615654565b6001600160a01b03821673eeeeeeeeeeeeeeeeeeeeeeeeeeeeeeeeeeeeeeee14156130d35760405162461bcd60e51b815260206004820152601560248201527455736520706174682077455448202d3e207742544360581b6044820152606401610974565b7f00000000000000000000000000000000000000000000000000000000000000006001600160a01b0316816001600160a01b0316146131435760405162461bcd60e51b815260206004820152600c60248201526b1cddd85c080f4f88109510d560a21b6044820152606401610974565b6040516370a0823160e01b81523060048201526000906001600160a01b038316906370a082319060240160206040518083038186803b15801561318557600080fd5b505afa158015613199573d6000803e3d6000fd5b505050506040513d601f19601f820116820180604052508101906131bd9190615682565b6001600160a01b0384166000908152600a602090815260408083203384529091529020549091506131ee9089613a1f565b6001600160a01b0384166000908152600a602090815260408083203384529091529020558a1561322b576132268a8a8a8a8a8a613a32565b613237565b61323788888888613b5d565b6040516370a0823160e01b81523060048201526132699082906001600160a01b038516906370a0823190602401610e1c565b9350868410156132b05760405162461bcd60e51b81526020600482015260126024820152715265636569766564203c206d696e696d756d60701b6044820152606401610974565b7f00000000000000000000000000000000000000000000000000000000000000006001600160a01b0316631411c5b76040518163ffffffff1660e01b815260040160206040518083038186803b15801561330957600080fd5b505afa15801561331d573d6000803e3d6000fd5b505050506040513d601f19601f820116820180604052508101906133419190615682565b8410156133605760405162461bcd60e51b81526004016109749061577e565b61336b8d8d866141bc565b505050600180559998505050505050505050565b600061338961357f565b7f000000000000000000000000000000000000000000000000000000000000000087156134a25760006133c088610e6c8b8a613a1f565b6040516349e031a560e01b81529091506001600160a01b037f000000000000000000000000000000000000000000000000000000000000000016906349e031a590613414906000908a908a906004016157e4565b602060405180830381600087803b15801561342e57600080fd5b505af1158015613442573d6000803e3d6000fd5b505050506040513d601f19601f8201168201806040525081019061346691906155bd565b5061349c7f00000000000000000000000000000000000000000000000000000000000000006000613497848c613c11565b613596565b506134ab565b876134ab575060005b6134b5818761366c565b8215610b4157610b41600080526003602052600080516020615cbc83398151915254600f55565b6001600160a01b039182166000908152600360205260408082205492909316815291909120549091565b61350e61357f565b6001600160a01b0381166135735760405162461bcd60e51b815260206004820152602660248201527f4f776e61626c653a206e6577206f776e657220697320746865207a65726f206160448201526564647265737360d01b6064820152608401610974565b61357c8161416c565b50565b6000546001600160a01b03163314611c9157600080fd5b6040805180820182526002815261313160f01b6020808301919091526001600160a01b0385166000908152600390915291909120546135d6918390614348565b6001600160a01b0380841660009081526003602052604080822093909355908516815220546136059082613c11565b6001600160a01b038481166000818152600360209081526040918290209490945580519182529185169281019290925281018290527fea368a40e9570069bb8e6511d668293ad2e1f03b0d982431fd223de9f3b70ca69060600160405180910390a1505050565b80613675575050565b600061367f6112b5565b6001600160a01b0384166000908152600360205260409020549091506136a59083613c11565b60036000856001600160a01b03166001600160a01b0316815260200190815260200160002081905550600061377360646113bc7f00000000000000000000000000000000000000000000000000000000000000006001600160a01b0316630b68134d6040518163ffffffff1660e01b815260040160206040518083038186803b15801561373157600080fd5b505afa158015613745573d6000803e3d6000fd5b505050506040513d601f19601f8201168201806040525081019061376991906157c7565b869060ff16614042565b905060006137a5836113bc847f0000000000000000000000000000000000000000000000000000000000000000614042565b6040516340c10f1960e01b81526001600160a01b037f000000000000000000000000000000000000000000000000000000000000000081166004830152602482018390529192507f0000000000000000000000000000000000000000000000000000000000000000909116906340c10f1990604401602060405180830381600087803b15801561383457600080fd5b505af1158015613848573d6000803e3d6000fd5b505050506040513d601f19601f8201168201806040525081019061386c91906155bd565b50604080516001600160a01b038716815260208101869052908101829052606081018490527fe3debe835f6848edc082b32a1d729781d3bfcd7e14422d80bcaa6794d3816b2f9060800160405180910390a15050505050565b60005b8151811015613929576001600460008484815181106138e9576138e9615611565b6020026020010151815260200190815260200160002060006101000a81548160ff0219169083151502179055508080613921906156d0565b9150506138c8565b5050565b7f00000000000000000000000000000000000000000000000000000000000000006001600160a01b0316836001600160a01b0316141561399457613991817f0000000000000000000000000000000000000000000000000000000000000000614042565b90505b60405163a9059cbb60e01b81526001600160a01b0383811660048301526024820183905284169063a9059cbb90604401602060405180830381600087803b1580156139de57600080fd5b505af11580156139f2573d6000803e3d6000fd5b505050506040513d601f19601f82011682018060405250810190613a1691906155bd565b6128e157600080fd5b6000613a2b828461563d565b9392505050565b600b5460408051631a5896b360e31b81529051613ae9926001600160a01b03169163d2c4b598916004808301926020929190829003018186803b158015613a7857600080fd5b505afa158015613a8c573d6000803e3d6000fd5b505050506040513d601f19601f82011682018060405250810190613ab0919061583c565b8584846000818110613ac457613ac4615611565b9050602002016020810190613ad991906151af565b6001600160a01b03169190614676565b600b54604051633d59840d60e21b81526001600160a01b039091169063f566103490613b2390899089908990899089908990600401615897565b600060405180830381600087803b158015613b3d57600080fd5b505af1158015613b51573d6000803e3d6000fd5b50505050505050505050565b600b5460408051631a5896b360e31b81529051613ba3926001600160a01b03169163d2c4b598916004808301926020929190829003018186803b158015613a7857600080fd5b600b54604051632a42068d60e11b81526001600160a01b03909116906354840d1a90613bd99087908790879087906004016158d7565b600060405180830381600087803b158015613bf357600080fd5b505af1158015613c07573d6000803e3d6000fd5b5050505050505050565b6000613a2b8284615901565b60008181526004602052604081205460ff1615613c615760405162461bcd60e51b8152602060048201526002602482015261181b60f11b6044820152606401610974565b83613c935760405162461bcd60e51b8152602060048201526002602482015261303760f01b6044820152606401610974565b8360a081901c6000613ca36112b5565b90506000613cd57f00000000000000000000000000000000000000000000000000000000000000006113bc8585614042565b90506000613d7d6127106113bc7f00000000000000000000000000000000000000000000000000000000000000006001600160a01b031663b6268e5d6040518163ffffffff1660e01b815260040160206040518083038186803b158015613d3b57600080fd5b505afa158015613d4f573d6000803e3d6000fd5b505050506040513d601f19601f82011682018060405250810190613d7391906157c7565b859060ff16614042565b905087613d8a8383613a1f565b1015613dbd5760405162461bcd60e51b8152602060048201526002602482015261303960f01b6044820152606401610974565b6000613dcd89610e6c8585613a1f565b9050600080613dfd60007f00000000000000000000000000000000000000000000000000000000000000006134dc565b90925090506001600160a01b038d16613e5357613e1a8585613a1f565b821015613e4e5760405162461bcd60e51b8152602060048201526002602482015261060760f31b6044820152606401610974565b613ecb565b7f00000000000000000000000000000000000000000000000000000000000000006001600160a01b03168d6001600160a01b03161415613ecb57613e978585613a1f565b811015613ecb5760405162461bcd60e51b8152602060048201526002602482015261189960f11b6044820152606401610974565b613ed58d8561366c565b613edf8d86614737565b613ee88a614374565b7f00000000000000000000000000000000000000000000000000000000000000006001600160a01b03168d6001600160a01b03161415613f2d57613f2d8d898561392d565b604051630852cd8d60e31b8152600481018890527f00000000000000000000000000000000000000000000000000000000000000006001600160a01b0316906342966c6890602401602060405180830381600087803b158015613f8f57600080fd5b505af1158015613fa3573d6000803e3d6000fd5b505050506040513d601f19601f82011682018060405250810190613fc791906155bd565b613fd057600080fd5b604080516001600160a01b038a16815260208101899052908101869052606081018790526080810184905260a081018b90527fa9da34e5e4a956b744307ae7611795634e8365951073bf049d76b64b2ae7a0589060c00160405180910390a15060019c9b505050505050505050505050565b6000613a2b8284615919565b6000613a2b8284615938565b600b5460408051631a5896b360e31b815290516140ea926001600160a01b03169163d2c4b598916004808301926020929190829003018186803b1580156140a057600080fd5b505afa1580156140b4573d6000803e3d6000fd5b505050506040513d601f19601f820116820180604052508101906140d8919061583c565b6040830135613ad960208501856151af565b600b546040516354e3f31b60e01b81526001600160a01b03909116906354e3f31b9061411a908490600401615a5e565b602060405180830381600087803b15801561413457600080fd5b505af1158015614148573d6000803e3d6000fd5b505050506040513d601f19601f820116820180604052508101906139299190615682565b600080546001600160a01b038381166001600160a01b0319831681178455604051919092169283917f8be0079c531659141344cd1fd0a4f28419497f9722a3daafe3b4186f6b6457e09190a35050565b60007f0000000000000000000000000000000000000000000000000000000000000000600d54858585426040516020016141fb96959493929190615c14565b6040516020818303038152906040528051906020012090506040518060a0016040528082815260200185858080601f0160208091040260200160405190810160405280939291908181526020018383808284376000920182905250938552505033602080850191909152604080850188905242606090950194909452600d548352600c8152929091208351815583830151805191936142a293506001850192910190614a93565b5060408201516002820180546001600160a01b0319166001600160a01b03909216919091179055606082015160038201556080909101516004909101556142e761270c565b600d546142f5906001613c11565b600d5561430182614797565b7faaa4c278970337923c885845b00985ecf5082317e2f9abf72a27b4d35255d67281858533864260405161433a96959493929190615c4b565b60405180910390a150505050565b6000818484111561436c5760405162461bcd60e51b81526004016109749190615c8c565b505050900390565b6000908152600460205260409020805460ff19166001179055565b6040516001600160a01b03808516602483015283166044820152606481018290526143fa9085906323b872dd60e01b906084015b60408051601f198184030181529190526020810180516001600160e01b03166001600160e01b0319909316929092179091526147ec565b50505050565b60008181526004602052604081205460ff16156144445760405162461bcd60e51b8152602060048201526002602482015261181b60f11b6044820152606401610974565b826144765760405162461bcd60e51b8152602060048201526002602482015261303760f01b6044820152606401610974565b8260a081901c60006144866112b5565b905060006144b8826113bc857f0000000000000000000000000000000000000000000000000000000000000000614042565b6040516340c10f1960e01b81526001600160a01b038681166004830152602482018390529192507f0000000000000000000000000000000000000000000000000000000000000000909116906340c10f1990604401602060405180830381600087803b15801561452757600080fd5b505af115801561453b573d6000803e3d6000fd5b505050506040513d601f19601f8201168201806040525081019061455f91906155bd565b5061456a88846148be565b61457386614374565b7fdfaf4e23f7030adafec91a682e05bf9fb30c721f9cec3d8bcfae0459c5362db1848483857f00000000000000000000000000000000000000000000000000000000000000006001600160a01b031663424192556040518163ffffffff1660e01b815260040160206040518083038186803b1580156145f157600080fd5b505afa158015614605573d6000803e3d6000fd5b505050506040513d601f19601f8201168201806040525081019061462991906157c7565b604080516001600160a01b039096168652602086019490945292840191909152606083015260ff16608082015260a0810188905260c00160405180910390a1506001979650505050505050565b604051636eb1769f60e11b81523060048201526001600160a01b038381166024830152600091839186169063dd62ed3e9060440160206040518083038186803b1580156146c257600080fd5b505afa1580156146d6573d6000803e3d6000fd5b505050506040513d601f19601f820116820180604052508101906146fa9190615682565b6147049190615901565b6040516001600160a01b0385166024820152604481018290529091506143fa90859063095ea7b360e01b906064016143c3565b6040805180820182526002815261031360f41b6020808301919091526001600160a01b038516600090815260039091529190912054614777918390614348565b6001600160a01b0390921660009081526003602052604090209190915550565b600f546147bf576147bf600080526003602052600080516020615cbc83398151915254600f55565b604080518082019091526002815261189960f11b6020820152600f546147e6918390614348565b600f5550565b6000614841826040518060400160405280602081526020017f5361666545524332303a206c6f772d6c6576656c2063616c6c206661696c6564815250856001600160a01b03166148e19092919063ffffffff16565b8051909150156128e1578080602001905181019061485f91906155bd565b6128e15760405162461bcd60e51b815260206004820152602a60248201527f5361666545524332303a204552433230206f7065726174696f6e20646964206e6044820152691bdd081cdd58d8d9595960b21b6064820152608401610974565b6001600160a01b0382166000908152600360205260409020546147779082613c11565b60606148f084846000856148f8565b949350505050565b6060824710156149595760405162461bcd60e51b815260206004820152602660248201527f416464726573733a20696e73756666696369656e742062616c616e636520666f6044820152651c8818d85b1b60d21b6064820152608401610974565b843b6149a75760405162461bcd60e51b815260206004820152601d60248201527f416464726573733a2063616c6c20746f206e6f6e2d636f6e74726163740000006044820152606401610974565b600080866001600160a01b031685876040516149c39190615c9f565b60006040518083038185875af1925050503d8060008114614a00576040519150601f19603f3d011682016040523d82523d6000602084013e614a05565b606091505b5091509150614a15828286614a20565b979650505050505050565b60608315614a2f575081613a2b565b825115614a3f5782518084602001fd5b8160405162461bcd60e51b81526004016109749190615c8c565b508054614a659061569b565b6000825580601f10614a75575050565b601f01602090049060005260206000209081019061357c9190614b17565b828054614a9f9061569b565b90600052602060002090601f016020900481019282614ac15760008555614b07565b82601f10614ada57805160ff1916838001178555614b07565b82800160010185558215614b07579182015b82811115614b07578251825591602001919060010190614aec565b50614b13929150614b17565b5090565b5b80821115614b135760008155600101614b18565b634e487b7160e01b600052600160045260246000fd5b6001600160a01b038116811461357c57600080fd5b8035614b6281614b42565b919050565b634e487b7160e01b600052604160045260246000fd5b604051601f8201601f191681016001600160401b0381118282101715614ba557614ba5614b67565b604052919050565b60006001600160401b03821115614bc657614bc6614b67565b5060051b60200190565b600082601f830112614be157600080fd5b81356020614bf6614bf183614bad565b614b7d565b82815260059290921b84018101918181019086841115614c1557600080fd5b8286015b84811015614c305780358352918301918301614c19565b509695505050505050565b60008060008060008060c08789031215614c5457600080fd5b8635614c5f81614b42565b95506020870135614c6f81614b42565b945060408701359350606087013592506080870135915060a08701356001600160401b03811115614c9f57600080fd5b614cab89828a01614bd0565b9150509295509295509295565b801515811461357c57600080fd5b8035614b6281614cb8565b60008083601f840112614ce357600080fd5b5081356001600160401b03811115614cfa57600080fd5b6020830191508360208260051b8501011115614d1557600080fd5b9250929050565b600080600080600080600060c0888a031215614d3757600080fd5b8735614d4281614cb8565b96506020880135614d5281614b42565b955060408801359450606088013593506080880135925060a08801356001600160401b03811115614d8257600080fd5b614d8e8a828b01614cd1565b989b979a50959850939692959293505050565b600060208284031215614db357600080fd5b5035919050565b60005b83811015614dd5578181015183820152602001614dbd565b838111156143fa5750506000910152565b60008151808452614dfe816020860160208601614dba565b601f01601f19169290920160200192915050565b85815260a060208201526000614e2b60a0830187614de6565b6001600160a01b0395909516604083015250606081019290925260809091015292915050565b60006020808301818452808551808352604092508286019150828160051b87010184880160005b83811015614ee157603f19898403018552815160a08151855288820151818a870152614ea682870182614de6565b838a01516001600160a01b0316878b015260608085015190880152608093840151939096019290925250509386019390860190600101614e78565b509098975050505050505050565b60008060008060808587031215614f0557600080fd5b8435614f1081614b42565b966020860135965060408601359560600135945092505050565b60008060408385031215614f3d57600080fd5b8235614f4881614b42565b946020939093013593505050565b60008060408385031215614f6957600080fd5b8235614f7481614b42565b91506020830135614f8481614b42565b809150509250929050565b60006101e08284031215614fa257600080fd5b50919050565b600060208284031215614fba57600080fd5b81356001600160401b03811115614fd057600080fd5b6148f084828501614f8f565b600082601f830112614fed57600080fd5b81356020614ffd614bf183614bad565b82815260059290921b8401810191818101908684111561501c57600080fd5b8286015b84811015614c3057803561503381614b42565b8352918301918301615020565b60ff8116811461357c57600080fd5b8035614b6281615040565b60008060008060008060c0878903121561507357600080fd5b863561507e81614b42565b95506020878101356001600160401b038082111561509b57600080fd5b6150a78b838c01614fdc565b975060408a01359150808211156150bd57600080fd5b508801601f81018a136150cf57600080fd5b80356150dd614bf182614bad565b81815260059190911b8201830190838101908c8311156150fc57600080fd5b928401925b8284101561512357833561511481614cb8565b82529284019290840190615101565b80985050505050506151376060880161504f565b92506151456080880161504f565b915060a087013590509295509295509295565b600081518084526020808501945080840160005b838110156151915781516001600160a01b03168752958201959082019060010161516c565b509495945050505050565b602081526000613a2b6020830184615158565b6000602082840312156151c157600080fd5b8135613a2b81614b42565b600080600080600060a086880312156151e457600080fd5b85356151ef81614b42565b945060208601356001600160401b038082111561520b57600080fd5b61521789838a01614bd0565b95506040880135945060608801359350608088013591508082111561523b57600080fd5b5061524888828901614bd0565b9150509295509295909350565b6000806000806080858703121561526b57600080fd5b843561527681614b42565b9350602085013592506040850135915060608501356001600160401b0381111561529f57600080fd5b6152ab87828801614bd0565b91505092959194509250565b60008083601f8401126152c957600080fd5b5081356001600160401b038111156152e057600080fd5b602083019150836020828501011115614d1557600080fd5b60008060006040848603121561530d57600080fd5b83356001600160401b038082111561532457600080fd5b615330878388016152b7565b9095509350602086013591508082111561534957600080fd5b5061535686828701614f8f565b9150509250925092565b6000806000806080858703121561537657600080fd5b84356001600160401b038082111561538d57600080fd5b61539988838901614bd0565b9550602087013594506040870135935060608701359150808211156153bd57600080fd5b506152ab87828801614bd0565b600080604083850312156153dd57600080fd5b50508035926020909101359150565b60008060006060848603121561540157600080fd5b833561540c81614b42565b95602085013595506040909401359392505050565b600080600080600080600080600060e08a8c03121561543f57600080fd5b89356001600160401b038082111561545657600080fd5b6154628d838e016152b7565b909b50995060208c0135915061547782614cb8565b90975060408b01359061548982614b42565b90965060608b0135955060808b0135945060a08b0135935060c08b013590808211156154b457600080fd5b506154c18c828d01614cd1565b915080935050809150509295985092959850929598565b60008060008060008060c087890312156154f157600080fd5b8635955060208088013595506040880135945060608801356001600160401b038082111561551e57600080fd5b61552a8b838c01614fdc565b955060808a013591508082111561554057600080fd5b508801601f81018a1361555257600080fd5b8035615560614bf182614bad565b81815260059190911b8201830190838101908c83111561557f57600080fd5b928401925b8284101561559d57833582529284019290840190615584565b80965050505050506155b160a08801614cc6565b90509295509295509295565b6000602082840312156155cf57600080fd5b8151613a2b81614cb8565b6020808252601f908201527f5265656e7472616e637947756172643a207265656e7472616e742063616c6c00604082015260600190565b634e487b7160e01b600052603260045260246000fd5b634e487b7160e01b600052601160045260246000fd5b60008282101561564f5761564f615627565b500390565b60208082526014908201527310985b185b98d9481a5b9cdd59999a58da595b9d60621b604082015260600190565b60006020828403121561569457600080fd5b5051919050565b600181811c908216806156af57607f821691505b60208210811415614fa257634e487b7160e01b600052602260045260246000fd5b60006000198214156156e4576156e4615627565b5060010190565b6001600160a01b03958616815293909416602084015260408301919091526060820152608081019190915260a00190565b600060ff821660ff84168060ff0382111561573957615739615627565b019392505050565b600060ff821660ff81141561575857615758615627565b60010192915050565b600060ff82168061577457615774615627565b6000190192915050565b60208082526029908201527f7265636569766564416d6f756e74203c206d696e696d756d53776170416d6f756040820152686e74466f725742544360b81b606082015260800190565b6000602082840312156157d957600080fd5b8151613a2b81615040565b6001600160a01b03841681526060602080830182905260009161580990840186615158565b838103604085015284518082528286019183019060005b81811015614ee157835183529284019291840191600101615820565b60006020828403121561584e57600080fd5b8151613a2b81614b42565b8183526000602080850194508260005b8581101561519157813561587c81614b42565b6001600160a01b031687529582019590820190600101615869565b60018060a01b038716815285602082015284604082015283606082015260a0608082015260006158cb60a083018486615859565b98975050505050505050565b8481528360208201526060604082015260006158f7606083018486615859565b9695505050505050565b6000821982111561591457615914615627565b500190565b600081600019048311821515161561593357615933615627565b500290565b60008261595557634e487b7160e01b600052601260045260246000fd5b500490565b6000808335601e1984360301811261597157600080fd5b83016020810192503590506001600160401b0381111561599057600080fd5b8060051b3603831315614d1557600080fd5b6000808335601e198436030181126159b957600080fd5b83016020810192503590506001600160401b038111156159d857600080fd5b803603831315614d1557600080fd5b81835281816020850137506000828201602090810191909152601f909101601f19169091010190565b81835260006001600160fb1b03831115615a2957600080fd5b8260051b8083602087013760009401602001938452509192915050565b80356001600160801b031981168114614b6257600080fd5b60208152615a7f60208201615a7284614b57565b6001600160a01b03169052565b6000615a8d60208401614b57565b6001600160a01b0381166040840152506040830135606083015260608301356080830152608083013560a0830152615ac860a084018461595a565b6101e08060c0860152615ae061020086018385615859565b9250615aef60c08701876159a2565b9250601f19808786030160e0880152615b098585846159e7565b9450615b1860e089018961595a565b94509150610100818887030181890152615b33868685615a10565b9550615b41818a018a61595a565b9550925050610120818887030181890152615b5d868685615a10565b9550615b6a818a01614b57565b9450506101409150615b86828801856001600160a01b03169052565b615b91828901614b57565b93506101609150615bac828801856001600160a01b03169052565b61018093508188013584880152615bc5848901896159a2565b945091506101a0818887030181890152615be08686856159e7565b95506101c094508089013585890152505050615bfd828701615a46565b6001600160801b0319169401939093529392505050565b6001600160601b03198760601b16815285601482015283856034830137603493019283019190915260548201526074019392505050565b86815260a060208201526000615c6560a0830187896159e7565b6001600160a01b039590951660408301525060608101929092526080909101529392505050565b602081526000613a2b6020830184614de6565b60008251615cb1818460208701614dba565b919091019291505056fe3617319a054d772f909f7c479a2cebe5066e836a939412e32403c99029b92effa2646970667358221220fac54facbeb3397ebcd260c4a381847f6f81f994955b518a65610bab255da57064736f6c63430008090033",
  "linkReferences": {},
  "deployedLinkReferences": {}
}