{
  "_format": "hh-sol-artifact-1",
  "contractName": "SwapContract",
  "sourceName": "contracts/SwapContract.sol",
  "abi": [
    {
      "inputs": [
        {
          "internalType": "address",
          "name": "_lpToken",
          "type": "address"
        },
        {
          "internalType": "address",
          "name": "_btct",
          "type": "address"
        },
        {
          "internalType": "uint256",
          "name": "_existingBTCFloat",
          "type": "uint256"
        }
      ],
      "stateMutability": "nonpayable",
      "type": "constructor"
    },
    {
      "anonymous": false,
      "inputs": [
        {
          "indexed": false,
          "internalType": "address",
          "name": "token",
          "type": "address"
        },
        {
          "indexed": false,
          "internalType": "uint256",
          "name": "amountOfLP",
          "type": "uint256"
        },
        {
          "indexed": false,
          "internalType": "uint256",
          "name": "amountOfFloat",
          "type": "uint256"
        },
        {
          "indexed": false,
          "internalType": "uint256",
          "name": "currentPriceLP",
          "type": "uint256"
        },
        {
          "indexed": false,
          "internalType": "uint256",
          "name": "withdrawal",
          "type": "uint256"
        },
        {
          "indexed": false,
          "internalType": "bytes32",
          "name": "txid",
          "type": "bytes32"
        }
      ],
      "name": "BurnLPTokensForFloat",
      "type": "event"
    },
    {
      "anonymous": false,
      "inputs": [
        {
          "indexed": false,
          "internalType": "uint256",
          "name": "rewardLPTsForNodes",
          "type": "uint256"
        }
      ],
      "name": "DistributeNodeRewards",
      "type": "event"
    },
    {
      "anonymous": false,
      "inputs": [
        {
          "indexed": false,
          "internalType": "address",
          "name": "to",
          "type": "address"
        },
        {
          "indexed": false,
          "internalType": "uint256",
          "name": "amountOfFloat",
          "type": "uint256"
        },
        {
          "indexed": false,
          "internalType": "uint256",
          "name": "amountOfLP",
          "type": "uint256"
        },
        {
          "indexed": false,
          "internalType": "uint256",
          "name": "currentPriceLP",
          "type": "uint256"
        },
        {
          "indexed": false,
          "internalType": "uint256",
          "name": "depositFees",
          "type": "uint256"
        },
        {
          "indexed": false,
          "internalType": "bytes32",
          "name": "txid",
          "type": "bytes32"
        }
      ],
      "name": "IssueLPTokensForFloat",
      "type": "event"
    },
    {
      "anonymous": false,
      "inputs": [
        {
          "indexed": true,
          "internalType": "address",
          "name": "previousOwner",
          "type": "address"
        },
        {
          "indexed": true,
          "internalType": "address",
          "name": "newOwner",
          "type": "address"
        }
      ],
      "name": "OwnershipTransferred",
      "type": "event"
    },
    {
      "anonymous": false,
      "inputs": [
        {
          "indexed": false,
          "internalType": "address",
          "name": "feesToken",
          "type": "address"
        },
        {
          "indexed": false,
          "internalType": "uint256",
          "name": "rewards",
          "type": "uint256"
        },
        {
          "indexed": false,
          "internalType": "uint256",
          "name": "amountLPTokensForNode",
          "type": "uint256"
        },
        {
          "indexed": false,
          "internalType": "uint256",
          "name": "currentPriceLP",
          "type": "uint256"
        }
      ],
      "name": "RewardsCollection",
      "type": "event"
    },
    {
      "anonymous": false,
      "inputs": [
        {
          "indexed": false,
          "internalType": "address",
          "name": "from",
          "type": "address"
        },
        {
          "indexed": false,
          "internalType": "address",
          "name": "to",
          "type": "address"
        },
        {
          "indexed": false,
          "internalType": "uint256",
          "name": "amount",
          "type": "uint256"
        }
      ],
      "name": "Swap",
      "type": "event"
    },
    {
      "anonymous": false,
      "inputs": [
        {
          "indexed": false,
          "internalType": "address",
          "name": "token",
          "type": "address"
        },
        {
          "indexed": false,
          "internalType": "address",
          "name": "user",
          "type": "address"
        },
        {
          "indexed": false,
          "internalType": "uint256",
          "name": "amount",
          "type": "uint256"
        },
        {
          "indexed": false,
          "internalType": "uint256",
          "name": "balance",
          "type": "uint256"
        }
      ],
      "name": "Withdraw",
      "type": "event"
    },
    {
      "stateMutability": "nonpayable",
      "type": "fallback"
    },
    {
      "inputs": [],
      "name": "BTCT_ADDR",
      "outputs": [
        {
          "internalType": "address",
          "name": "",
          "type": "address"
        }
      ],
      "stateMutability": "view",
      "type": "function"
    },
    {
      "inputs": [
        {
          "internalType": "address",
          "name": "_token",
          "type": "address"
        }
      ],
      "name": "balanceOf",
      "outputs": [
        {
          "internalType": "uint256",
          "name": "",
          "type": "uint256"
        }
      ],
      "stateMutability": "view",
      "type": "function"
    },
    {
      "inputs": [
        {
          "internalType": "address",
          "name": "_newOwner",
          "type": "address"
        },
        {
          "internalType": "bytes32[]",
          "name": "_rewardAddressAndAmounts",
          "type": "bytes32[]"
        },
        {
          "internalType": "bool[]",
          "name": "_isRemoved",
          "type": "bool[]"
        },
        {
          "internalType": "uint8",
          "name": "_churnedInCount",
          "type": "uint8"
        },
        {
          "internalType": "uint8",
          "name": "_tssThreshold",
          "type": "uint8"
        },
        {
          "internalType": "uint8",
          "name": "_nodeRewardsRatio",
          "type": "uint8"
        },
        {
          "internalType": "uint8",
          "name": "_withdrawalFeeBPS",
          "type": "uint8"
        }
      ],
      "name": "churn",
      "outputs": [
        {
          "internalType": "bool",
          "name": "",
          "type": "bool"
        }
      ],
      "stateMutability": "nonpayable",
      "type": "function"
    },
    {
      "inputs": [],
      "name": "churnedInCount",
      "outputs": [
        {
          "internalType": "uint8",
          "name": "",
          "type": "uint8"
        }
      ],
      "stateMutability": "view",
      "type": "function"
    },
    {
      "inputs": [
        {
          "internalType": "address",
          "name": "_destToken",
          "type": "address"
        },
        {
          "internalType": "uint256",
          "name": "_incomingAmount",
          "type": "uint256"
        },
        {
          "internalType": "uint256",
          "name": "_minerFee",
          "type": "uint256"
        },
        {
          "internalType": "uint256",
          "name": "_rewardsAmount",
          "type": "uint256"
        }
      ],
      "name": "collectSwapFeesForBTC",
      "outputs": [
        {
          "internalType": "bool",
          "name": "",
          "type": "bool"
        }
      ],
      "stateMutability": "nonpayable",
      "type": "function"
    },
    {
      "inputs": [],
      "name": "depositFeesBPS",
      "outputs": [
        {
          "internalType": "uint8",
          "name": "",
          "type": "uint8"
        }
      ],
      "stateMutability": "view",
      "type": "function"
    },
    {
      "inputs": [],
      "name": "distributeNodeRewards",
      "outputs": [
        {
          "internalType": "bool",
          "name": "",
          "type": "bool"
        }
      ],
      "stateMutability": "nonpayable",
      "type": "function"
    },
    {
      "inputs": [
        {
          "components": [
            {
              "internalType": "address",
              "name": "fromToken",
              "type": "address"
            },
            {
              "internalType": "uint256",
              "name": "fromAmount",
              "type": "uint256"
            },
            {
              "internalType": "uint256",
              "name": "toAmount",
              "type": "uint256"
            },
            {
              "internalType": "uint256",
              "name": "expectedAmount",
              "type": "uint256"
            },
            {
              "internalType": "address payable",
              "name": "beneficiary",
              "type": "address"
            },
            {
              "components": [
                {
                  "internalType": "address",
                  "name": "to",
                  "type": "address"
                },
                {
                  "internalType": "uint256",
                  "name": "totalNetworkFee",
                  "type": "uint256"
                },
                {
                  "components": [
                    {
                      "internalType": "address payable",
                      "name": "adapter",
                      "type": "address"
                    },
                    {
                      "internalType": "uint256",
                      "name": "percent",
                      "type": "uint256"
                    },
                    {
                      "internalType": "uint256",
                      "name": "networkFee",
                      "type": "uint256"
                    },
                    {
                      "components": [
                        {
                          "internalType": "uint256",
                          "name": "index",
                          "type": "uint256"
                        },
                        {
                          "internalType": "address",
                          "name": "targetExchange",
                          "type": "address"
                        },
                        {
                          "internalType": "uint256",
                          "name": "percent",
                          "type": "uint256"
                        },
                        {
                          "internalType": "bytes",
                          "name": "payload",
                          "type": "bytes"
                        },
                        {
                          "internalType": "uint256",
                          "name": "networkFee",
                          "type": "uint256"
                        }
                      ],
                      "internalType": "struct Utils.Route[]",
                      "name": "route",
                      "type": "tuple[]"
                    }
                  ],
                  "internalType": "struct Utils.Adapter[]",
                  "name": "adapters",
                  "type": "tuple[]"
                }
              ],
              "internalType": "struct Utils.Path[]",
              "name": "path",
              "type": "tuple[]"
            },
            {
              "internalType": "address payable",
              "name": "partner",
              "type": "address"
            },
            {
              "internalType": "uint256",
              "name": "feePercent",
              "type": "uint256"
            },
            {
              "internalType": "bytes",
              "name": "permit",
              "type": "bytes"
            },
            {
              "internalType": "uint256",
              "name": "deadline",
              "type": "uint256"
            },
            {
              "internalType": "bytes16",
              "name": "uuid",
              "type": "bytes16"
            }
          ],
          "internalType": "struct Utils.SellData",
          "name": "data",
          "type": "tuple"
        }
      ],
      "name": "doParaSwapMultiSwap",
      "outputs": [],
      "stateMutability": "nonpayable",
      "type": "function"
    },
    {
      "inputs": [
        {
          "internalType": "address",
          "name": "paraSwapAddress",
          "type": "address"
        },
        {
          "internalType": "uint256",
          "name": "amountIn",
          "type": "uint256"
        },
        {
          "internalType": "uint256",
          "name": "amountOutMin",
          "type": "uint256"
        },
        {
          "internalType": "address[]",
          "name": "path",
          "type": "address[]"
        }
      ],
      "name": "doParaSwapOnUniswap",
      "outputs": [],
      "stateMutability": "nonpayable",
      "type": "function"
    },
    {
      "inputs": [
        {
          "internalType": "address",
          "name": "paraSwapAddress",
          "type": "address"
        },
        {
          "internalType": "address",
          "name": "factory",
          "type": "address"
        },
        {
          "internalType": "bytes32",
          "name": "initCode",
          "type": "bytes32"
        },
        {
          "internalType": "uint256",
          "name": "amountIn",
          "type": "uint256"
        },
        {
          "internalType": "uint256",
          "name": "amountOutMin",
          "type": "uint256"
        },
        {
          "internalType": "address[]",
          "name": "path",
          "type": "address[]"
        }
      ],
      "name": "doParaSwapOnUniswapFork",
      "outputs": [],
      "stateMutability": "nonpayable",
      "type": "function"
    },
    {
      "inputs": [
        {
          "internalType": "address",
          "name": "paraSwapAddress",
          "type": "address"
        },
        {
          "internalType": "contract IERC20",
          "name": "fromToken",
          "type": "address"
        },
        {
          "internalType": "contract IERC20",
          "name": "toToken",
          "type": "address"
        },
        {
          "internalType": "uint256",
          "name": "fromAmount",
          "type": "uint256"
        },
        {
          "internalType": "uint256",
          "name": "amountOutMin",
          "type": "uint256"
        },
        {
          "internalType": "address",
          "name": "exchange",
          "type": "address"
        },
        {
          "internalType": "bytes",
          "name": "payload",
          "type": "bytes"
        }
      ],
      "name": "doParaSwapOnZeroXv4",
      "outputs": [],
      "stateMutability": "nonpayable",
      "type": "function"
    },
    {
      "inputs": [
        {
          "internalType": "address",
          "name": "paraSwapAddress",
          "type": "address"
        },
        {
          "internalType": "address",
          "name": "fromToken",
          "type": "address"
        },
        {
          "internalType": "uint256",
          "name": "amount",
          "type": "uint256"
        },
        {
          "components": [
            {
              "internalType": "address",
              "name": "fromToken",
              "type": "address"
            },
            {
              "internalType": "address",
              "name": "toToken",
              "type": "address"
            },
            {
              "internalType": "uint256",
              "name": "fromAmount",
              "type": "uint256"
            },
            {
              "internalType": "uint256",
              "name": "toAmount",
              "type": "uint256"
            },
            {
              "internalType": "uint256",
              "name": "expectedAmount",
              "type": "uint256"
            },
            {
              "internalType": "address[]",
              "name": "callees",
              "type": "address[]"
            },
            {
              "internalType": "bytes",
              "name": "exchangeData",
              "type": "bytes"
            },
            {
              "internalType": "uint256[]",
              "name": "startIndexes",
              "type": "uint256[]"
            },
            {
              "internalType": "uint256[]",
              "name": "values",
              "type": "uint256[]"
            },
            {
              "internalType": "address payable",
              "name": "beneficiary",
              "type": "address"
            },
            {
              "internalType": "address payable",
              "name": "partner",
              "type": "address"
            },
            {
              "internalType": "uint256",
              "name": "feePercent",
              "type": "uint256"
            },
            {
              "internalType": "bytes",
              "name": "permit",
              "type": "bytes"
            },
            {
              "internalType": "uint256",
              "name": "deadline",
              "type": "uint256"
            },
            {
              "internalType": "bytes16",
              "name": "uuid",
              "type": "bytes16"
            }
          ],
          "internalType": "struct Utils.SimpleData",
          "name": "data",
          "type": "tuple"
        }
      ],
      "name": "doParaSwapSimpleSwap",
      "outputs": [],
      "stateMutability": "payable",
      "type": "function"
    },
    {
      "inputs": [],
      "name": "feesLPTokensForNode",
      "outputs": [
        {
          "internalType": "uint256",
          "name": "",
          "type": "uint256"
        }
      ],
      "stateMutability": "view",
      "type": "function"
    },
    {
      "inputs": [],
      "name": "getActiveNodes",
      "outputs": [
        {
          "internalType": "bytes32[]",
          "name": "",
          "type": "bytes32[]"
        }
      ],
      "stateMutability": "view",
      "type": "function"
    },
    {
      "inputs": [],
      "name": "getCurrentPriceLP",
      "outputs": [
        {
          "internalType": "uint256",
          "name": "nowPrice",
          "type": "uint256"
        }
      ],
      "stateMutability": "view",
      "type": "function"
    },
    {
      "inputs": [
        {
          "internalType": "address",
          "name": "_token",
          "type": "address"
        },
        {
          "internalType": "uint256",
          "name": "_amountOfFloat",
          "type": "uint256"
        }
      ],
      "name": "getDepositFeeRate",
      "outputs": [
        {
          "internalType": "uint256",
          "name": "depositFeeRate",
          "type": "uint256"
        }
      ],
      "stateMutability": "view",
      "type": "function"
    },
    {
      "inputs": [
        {
          "internalType": "address",
          "name": "_tokenA",
          "type": "address"
        },
        {
          "internalType": "address",
          "name": "_tokenB",
          "type": "address"
        }
      ],
      "name": "getFloatReserve",
      "outputs": [
        {
          "internalType": "uint256",
          "name": "reserveA",
          "type": "uint256"
        },
        {
          "internalType": "uint256",
          "name": "reserveB",
          "type": "uint256"
        }
      ],
      "stateMutability": "view",
      "type": "function"
    },
    {
      "inputs": [],
      "name": "initialExchangeRate",
      "outputs": [
        {
          "internalType": "uint256",
          "name": "",
          "type": "uint256"
        }
      ],
      "stateMutability": "view",
      "type": "function"
    },
    {
      "inputs": [
        {
          "internalType": "bytes32",
          "name": "_txid",
          "type": "bytes32"
        }
      ],
      "name": "isTxUsed",
      "outputs": [
        {
          "internalType": "bool",
          "name": "",
          "type": "bool"
        }
      ],
      "stateMutability": "view",
      "type": "function"
    },
    {
      "inputs": [],
      "name": "lockedLPTokensForNode",
      "outputs": [
        {
          "internalType": "uint256",
          "name": "",
          "type": "uint256"
        }
      ],
      "stateMutability": "view",
      "type": "function"
    },
    {
      "inputs": [],
      "name": "lpToken",
      "outputs": [
        {
          "internalType": "address",
          "name": "",
          "type": "address"
        }
      ],
      "stateMutability": "view",
      "type": "function"
    },
    {
      "inputs": [
        {
          "internalType": "address",
          "name": "_destToken",
          "type": "address"
        },
        {
          "internalType": "bytes32[]",
          "name": "_addressesAndAmounts",
          "type": "bytes32[]"
        },
        {
          "internalType": "uint256",
          "name": "_totalSwapped",
          "type": "uint256"
        },
        {
          "internalType": "uint256",
          "name": "_rewardsAmount",
          "type": "uint256"
        },
        {
          "internalType": "bytes32[]",
          "name": "_redeemedFloatTxIds",
          "type": "bytes32[]"
        }
      ],
      "name": "multiTransferERC20TightlyPacked",
      "outputs": [
        {
          "internalType": "bool",
          "name": "",
          "type": "bool"
        }
      ],
      "stateMutability": "nonpayable",
      "type": "function"
    },
    {
      "inputs": [],
      "name": "nodeRewardsRatio",
      "outputs": [
        {
          "internalType": "uint8",
          "name": "",
          "type": "uint8"
        }
      ],
      "stateMutability": "view",
      "type": "function"
    },
    {
      "inputs": [],
      "name": "owner",
      "outputs": [
        {
          "internalType": "address",
          "name": "",
          "type": "address"
        }
      ],
      "stateMutability": "view",
      "type": "function"
    },
    {
      "inputs": [
        {
          "internalType": "address",
          "name": "_token",
          "type": "address"
        },
        {
          "internalType": "bytes32",
          "name": "_addressesAndAmountOfFloat",
          "type": "bytes32"
        },
        {
          "internalType": "bool",
          "name": "_zerofee",
          "type": "bool"
        },
        {
          "internalType": "bytes32",
          "name": "_txid",
          "type": "bytes32"
        }
      ],
      "name": "recordIncomingFloat",
      "outputs": [
        {
          "internalType": "bool",
          "name": "",
          "type": "bool"
        }
      ],
      "stateMutability": "nonpayable",
      "type": "function"
    },
    {
      "inputs": [
        {
          "internalType": "address",
          "name": "_token",
          "type": "address"
        },
        {
          "internalType": "bytes32",
          "name": "_addressesAndAmountOfLPtoken",
          "type": "bytes32"
        },
        {
          "internalType": "uint256",
          "name": "_minerFee",
          "type": "uint256"
        },
        {
          "internalType": "bytes32",
          "name": "_txid",
          "type": "bytes32"
        }
      ],
      "name": "recordOutcomingFloat",
      "outputs": [
        {
          "internalType": "bool",
          "name": "",
          "type": "bool"
        }
      ],
      "stateMutability": "nonpayable",
      "type": "function"
    },
    {
      "inputs": [
        {
          "internalType": "address",
          "name": "_destToken",
          "type": "address"
        },
        {
          "internalType": "address",
          "name": "_to",
          "type": "address"
        },
        {
          "internalType": "uint256",
          "name": "_amount",
          "type": "uint256"
        },
        {
          "internalType": "uint256",
          "name": "_totalSwapped",
          "type": "uint256"
        },
        {
          "internalType": "bytes32[]",
          "name": "_redeemedFloatTxIds",
          "type": "bytes32[]"
        }
      ],
      "name": "recordSkyPoolsTX",
      "outputs": [
        {
          "internalType": "bool",
          "name": "",
          "type": "bool"
        }
      ],
      "stateMutability": "nonpayable",
      "type": "function"
    },
    {
      "inputs": [
        {
          "internalType": "uint256",
          "name": "_minerFee",
          "type": "uint256"
        },
        {
          "internalType": "bytes32",
          "name": "_txid",
          "type": "bytes32"
        }
      ],
      "name": "recordUTXOSweepMinerFee",
      "outputs": [
        {
          "internalType": "bool",
          "name": "",
          "type": "bool"
        }
      ],
      "stateMutability": "nonpayable",
      "type": "function"
    },
    {
      "inputs": [
        {
          "internalType": "address",
          "name": "_token",
          "type": "address"
        },
        {
          "internalType": "uint256",
          "name": "_amount",
          "type": "uint256"
        }
      ],
      "name": "redeemERC20Token",
      "outputs": [
        {
          "internalType": "bool",
          "name": "",
          "type": "bool"
        }
      ],
      "stateMutability": "nonpayable",
      "type": "function"
    },
    {
      "inputs": [],
      "name": "renounceOwnership",
      "outputs": [],
      "stateMutability": "nonpayable",
      "type": "function"
    },
    {
      "inputs": [
        {
          "internalType": "address",
          "name": "_destToken",
          "type": "address"
        },
        {
          "internalType": "address",
          "name": "_to",
          "type": "address"
        },
        {
          "internalType": "uint256",
          "name": "_amount",
          "type": "uint256"
        },
        {
          "internalType": "uint256",
          "name": "_totalSwapped",
          "type": "uint256"
        },
        {
          "internalType": "uint256",
          "name": "_rewardsAmount",
          "type": "uint256"
        },
        {
          "internalType": "bytes32[]",
          "name": "_redeemedFloatTxIds",
          "type": "bytes32[]"
        }
      ],
      "name": "singleTransferERC20",
      "outputs": [
        {
          "internalType": "bool",
          "name": "",
          "type": "bool"
        }
      ],
      "stateMutability": "nonpayable",
      "type": "function"
    },
    {
      "inputs": [
        {
          "internalType": "address",
          "name": "",
          "type": "address"
        },
        {
          "internalType": "address",
          "name": "",
          "type": "address"
        }
      ],
      "name": "tokens",
      "outputs": [
        {
          "internalType": "uint256",
          "name": "",
          "type": "uint256"
        }
      ],
      "stateMutability": "view",
      "type": "function"
    },
    {
      "inputs": [
        {
          "internalType": "address",
          "name": "newOwner",
          "type": "address"
        }
      ],
      "name": "transferOwnership",
      "outputs": [],
      "stateMutability": "nonpayable",
      "type": "function"
    },
    {
      "inputs": [],
      "name": "tssThreshold",
      "outputs": [
        {
          "internalType": "uint8",
          "name": "",
          "type": "uint8"
        }
      ],
      "stateMutability": "view",
      "type": "function"
    },
    {
      "inputs": [
        {
          "internalType": "address",
          "name": "",
          "type": "address"
        }
      ],
      "name": "whitelist",
      "outputs": [
        {
          "internalType": "bool",
          "name": "",
          "type": "bool"
        }
      ],
      "stateMutability": "view",
      "type": "function"
    },
    {
      "inputs": [],
      "name": "withdrawalFeeBPS",
      "outputs": [
        {
          "internalType": "uint8",
          "name": "",
          "type": "uint8"
        }
      ],
      "stateMutability": "view",
      "type": "function"
    }
  ],
  "bytecode": "0x60806040523480156200001157600080fd5b5060405162003e5c38038062003e5c8339810160408190526200003491620002bd565b6000620000406200029c565b600080546001600160a01b0319166001600160a01b0383169081178255604051929350917f8be0079c531659141344cd1fd0a4f28419497f9722a3daafe3b4186f6b6457e0908290a350600280546001600160a01b0319166001600160a01b0385811691909117918290556040805163313ce56760e01b81529051929091169163313ce56791600480820192602092909190829003018186803b158015620000e757600080fd5b505afa158015620000fc573d6000803e3d6000fd5b505050506040513d601f19601f82011682018060405250810190620001229190620002fd565b60ff16600a0a600955600180546001600160a01b0319166001600160a01b0384169081179091556004805462ff00001916624200001763ff000000191663320000001760ff60201b19166414000000001781556040805163313ce56760e01b815290516008939263313ce56792808201926020929091829003018186803b158015620001ad57600080fd5b505afa158015620001c2573d6000803e3d6000fd5b505050506040513d601f19601f82011682018060405250810190620001e89190620002fd565b0360ff16600a90810a600855600954600755600060058190556006819055600180546001600160a01b039081168352600360209081526040808520805460ff1990811686179091556002549093168552842080548316841790559280527f3617319a054d772f909f7c479a2cebe5066e836a939412e32403c99029b92eff80549091169091179055527f13da86008ba1c6922daee3e07db95305ef49ebced9f5467a0b8613fcc6b343e35550620003279050565b3390565b80516001600160a01b0381168114620002b857600080fd5b919050565b600080600060608486031215620002d2578283fd5b620002dd84620002a0565b9250620002ed60208501620002a0565b9150604084015190509250925092565b6000602082840312156200030f578081fd5b815160ff8116811462000320578182fd5b9392505050565b613b2580620003376000396000f3fe60806040526004361061020e5760003560e01c80636b51e91911610118578063ad289e76116100a0578063e6ca20841161006f578063e6ca2084146105cc578063e9e9bf6a146105ec578063ec48272914610601578063f2fde38b1461062f578063f7824bc71461064f5761020e565b8063ad289e7614610557578063b6268e5d14610577578063c810a5391461058c578063d6b2779a146105ac5761020e565b80638006cc3e116100e75780638006cc3e146104c2578063874d060f146104e25780638da5cb5b146105025780639281fd1d146105175780639b19251a146105375761020e565b80636b51e919146104565780636d019f351461047857806370a082311461048d578063715018a6146104ad5761020e565b8063424192551161019b5780634e54cee01161016a5780634e54cee0146103c1578063508493bc146103e15780635fcbd2851461040157806361b856841461041657806363f289d9146104365761020e565b8063424192551461036457806345137e271461037957806348c21e5f1461038e5780634db75485146103a15761020e565b80630f909486116101e25780630f909486146102cb57806312d1441e146102ed5780632586c562146103025780632d55282d146103225780633b6fa127146103445761020e565b806289356f1461023c57806303d4b143146102675780630b68134d146102895780630d63aca71461029e575b34801561021a57600080fd5b5060405162461bcd60e51b815260040161023390613532565b60405180910390fd5b34801561024857600080fd5b50610251610664565b60405161025e9190613965565b60405180910390f35b34801561027357600080fd5b50610287610282366004612fe1565b61066d565b005b34801561029557600080fd5b50610251610670565b3480156102aa57600080fd5b506102be6102b9366004612bc7565b61067f565b60405161025e919061326a565b3480156102d757600080fd5b506102e06107ca565b60405161025e9190613113565b3480156102f957600080fd5b506102516107d9565b34801561030e57600080fd5b506102be61031d366004612e17565b6107e7565b34801561032e57600080fd5b506103376108d9565b60405161025e9190613924565b34801561035057600080fd5b5061033761035f366004612f1b565b6108df565b34801561037057600080fd5b5061025161096b565b34801561038557600080fd5b5061033761097b565b61028761039c366004612ae6565b610a73565b3480156103ad57600080fd5b506102be6103bc366004612f1b565b610c35565b3480156103cd57600080fd5b506102be6103dc366004612c42565b610d45565b3480156103ed57600080fd5b506103376103fc366004612a2b565b610f73565b34801561040d57600080fd5b506102e0610f90565b34801561042257600080fd5b50610287610431366004612e51565b610f9f565b34801561044257600080fd5b506102be610451366004612dd0565b611013565b34801561046257600080fd5b5061046b6110c8565b60405161025e9190613226565b34801561048457600080fd5b50610337611226565b34801561049957600080fd5b506103376104a8366004612a0f565b61122c565b3480156104b957600080fd5b50610287611256565b3480156104ce57600080fd5b506102be6104dd366004612e17565b611302565b3480156104ee57600080fd5b506102876104fd366004612f46565b6113fe565b34801561050e57600080fd5b506102e0611469565b34801561052357600080fd5b50610287610532366004612a63565b611478565b34801561054357600080fd5b506102be610552366004612a0f565b61156e565b34801561056357600080fd5b506102be610572366004612d57565b611583565b34801561058357600080fd5b50610251611709565b34801561059857600080fd5b506102be6105a7366004613031565b61171a565b3480156105b857600080fd5b506102be6105c7366004612b54565b61184e565b3480156105d857600080fd5b506102be6105e7366004612fc9565b6119b3565b3480156105f857600080fd5b506102be6119c8565b34801561060d57600080fd5b5061062161061c366004612a2b565b611c15565b60405161025e92919061392d565b34801561063b57600080fd5b5061028761064a366004612a0f565b611c3f565b34801561065b57600080fd5b50610337611d41565b60045460ff1681565b50565b60045462010000900460ff1681565b6000610689611d47565b6001600160a01b031661069a611469565b6001600160a01b0316146106e3576040805162461bcd60e51b81526020600482018190526024820152600080516020613aa9833981519152604482015290519081900360640190fd5b6001600160a01b03871660009081526003602052604090205460ff1661071b5760405162461bcd60e51b8152600401610233906135f5565b6001600160a01b0387166107415760405162461bcd60e51b815260040161023390613719565b6000841561076757600154610762906000906001600160a01b031687611d4b565b61077a565b8461077a57506001546001600160a01b03165b6002546001600160a01b038981169116141561079e57506002546001600160a01b03165b6107a88185611e2e565b6107b183611f82565b6107bc888888611fd1565b506001979650505050505050565b6001546001600160a01b031681565b600454610100900460ff1681565b60006107f1611d47565b6001600160a01b0316610802611469565b6001600160a01b03161461084b576040805162461bcd60e51b81526020600482018190526024820152600080516020613aa9833981519152604482015290519081900360640190fd5b600061085561097b565b6001600160a01b03871660009081526003602052604090205490915060ff166108905760405162461bcd60e51b8152600401610233906136ee565b61089c86868686612086565b6108a557600080fd5b60019150806108b261097b565b10156108d05760405162461bcd60e51b81526004016102339061375c565b50949350505050565b60055481565b6000806108ec8484612320565b90508060ff166001141561092e576001546001600160a01b03858116911614610916576000610924565b6004546301000000900460ff165b60ff169150610964565b8060ff1660021415610964576001600160a01b0384161561095057600061095e565b6004546301000000900460ff165b60ff1691505b5092915050565b6004546301000000900460ff1681565b600154600090819081906109999082906001600160a01b0316611c15565b915091506000600260009054906101000a90046001600160a01b03166001600160a01b03166318160ddd6040518163ffffffff1660e01b815260040160206040518083038186803b1580156109ed57600080fd5b505afa158015610a01573d6000803e3d6000fd5b505050506040513d601f19601f82011682018060405250810190610a259190613019565b90508015610a6757610a62610a45600554836123da90919063ffffffff16565b600954610a5c90610a5687876123da565b9061243b565b90612494565b610a6b565b6007545b935050505090565b33610a8661014083016101208401612a0f565b6001600160a01b031614610aac5760405162461bcd60e51b8152600401610233906132fc565b6040810135600f6000610ac26020850185612a0f565b6001600160a01b031681526020810191909152604001600090812090610af061014085016101208601612a0f565b6001600160a01b03166001600160a01b03168152602001908152602001600020541015610b2f5760405162461bcd60e51b8152600401610233906133c6565b60405163095ea7b360e01b81526001600160a01b0384169063095ea7b390610b5d9030908690600401613127565b602060405180830381600087803b158015610b7757600080fd5b505af1158015610b8b573d6000803e3d6000fd5b505050506040513d601f19601f82011682018060405250810190610baf9190612fad565b506040516354e3f31b60e01b81526001600160a01b038516906354e3f31b90610bdc908490600401613787565b602060405180830381600087803b158015610bf657600080fd5b505af1158015610c0a573d6000803e3d6000fd5b505050506040513d601f19601f82011682018060405250810190610c2e9190613019565b5050505050565b6001600160a01b0382166000908152600f60209081526040808320338452909152812054821115610c785760405162461bcd60e51b8152600401610233906136c0565b6001600160a01b0383166000908152600f60209081526040808320338452909152902054610ca690836124fb565b6001600160a01b0384166000908152600f6020908152604080832033808552925290912091909155610cda90849084611fd1565b6001600160a01b0383166000908152600f60209081526040808320338085529252918290205491517ff341246adaac6f497bc2a656f546ab9e182111d630394f0c57c710a59a2cb56792610d3392879290918791613140565b60405180910390a15060015b92915050565b6000610d4f611d47565b6001600160a01b0316610d60611469565b6001600160a01b031614610da9576040805162461bcd60e51b81526020600482018190526024820152600080516020613aa9833981519152604482015290519081900360640190fd5b60045460ff610100909104811690851610801590610dcb575060ff8460ff1611155b610de75760405162461bcd60e51b815260040161023390613451565b6001840160ff168560ff161015610e105760405162461bcd60e51b815260040161023390613506565b60648360ff161115610e345760405162461bcd60e51b8152600401610233906132c5565b60648260ff161115610e585760405162461bcd60e51b8152600401610233906134cf565b8551875114610e795760405162461bcd60e51b815260040161023390613663565b610e8288611c3f565b60005b8751811015610eea576000610eac898381518110610e9f57fe5b6020026020010151612558565b509050610ee0818a8481518110610ebf57fe5b60200260200101518a8581518110610ed357fe5b6020026020010151612561565b5050600101610e85565b506060610ef56110c8565b9050606481511115610f195760405162461bcd60e51b8152600401610233906135b4565b50506004805460ff191660ff9586161761ff001916610100948616949094029390931762ff0000191662010000928516929092029190911764ff000000001916640100000000919093160291909117905550600192915050565b600f60209081526000928352604080842090915290825290205481565b6002546001600160a01b031681565b604051636446680560e01b81526001600160a01b03891690636446680590610fd7908a908a908a908a908a908a908a90600401613275565b600060405180830381600087803b158015610ff157600080fd5b505af1158015611005573d6000803e3d6000fd5b505050505050505050505050565b600061101d611d47565b6001600160a01b031661102e611469565b6001600160a01b031614611077576040805162461bcd60e51b81526020600482018190526024820152600080516020613aa9833981519152604482015290519081900360640190fd5b600061108161097b565b6001600160a01b03871660009081526003602052604090205490915060ff166110bc5760405162461bcd60e51b8152600401610233906136ee565b61089c86868686612630565b606060008060005b600e5481101561112b57600c6000600e83815481106110eb57fe5b60009182526020808320909101546001600160a01b0316835282019290925260400190205415611123576111208360016123da565b92505b6001016110d0565b506060826001600160401b038111801561114457600080fd5b5060405190808252806020026020018201604052801561116e578160200160208202803683370190505b50905060005b600e5481101561121e57600c6000600e838154811061118f57fe5b60009182526020808320909101546001600160a01b031683528201929092526040019020541561121657600c6000600e83815481106111ca57fe5b60009182526020808320909101546001600160a01b0316835282019290925260400190205482518390859081106111fd57fe5b60209081029190910101526112138360016123da565b92505b600101611174565b509250505090565b60075481565b6001600160a01b0381166000908152600f602090815260408083203384529091529020545b919050565b61125e611d47565b6001600160a01b031661126f611469565b6001600160a01b0316146112b8576040805162461bcd60e51b81526020600482018190526024820152600080516020613aa9833981519152604482015290519081900360640190fd5b600080546040516001600160a01b03909116907f8be0079c531659141344cd1fd0a4f28419497f9722a3daafe3b4186f6b6457e0908390a3600080546001600160a01b0319169055565b600061130c611d47565b6001600160a01b031661131d611469565b6001600160a01b031614611366576040805162461bcd60e51b81526020600482018190526024820152600080516020613aa9833981519152604482015290519081900360640190fd5b6001600160a01b0385161561138d5760405162461bcd60e51b815260040161023390613498565b6001546001600160a01b031684156113df5760006113b5856113af88876124fb565b906124fb565b6001549091506113d9906001600160a01b031660006113d484896123da565b611d4b565b506113e8565b846113e8575060005b6113f28184611e2e565b50600195945050505050565b604051632a42068d60e11b81526001600160a01b038616906354840d1a9061143090879087908790879060040161393b565b600060405180830381600087803b15801561144a57600080fd5b505af115801561145e573d6000803e3d6000fd5b505050505050505050565b6000546001600160a01b031690565b60015460405163095ea7b360e01b81526001600160a01b039091169063095ea7b3906114aa9030908890600401613127565b602060405180830381600087803b1580156114c457600080fd5b505af11580156114d8573d6000803e3d6000fd5b505050506040513d601f19601f820116820180604052508101906114fc9190612fad565b50604051633d59840d60e21b81526001600160a01b0388169063f5661034906115339089908990899089908990899060040161318d565b600060405180830381600087803b15801561154d57600080fd5b505af1158015611561573d6000803e3d6000fd5b5050505050505050505050565b60036020526000908152604090205460ff1681565b600061158d611d47565b6001600160a01b031661159e611469565b6001600160a01b0316146115e7576040805162461bcd60e51b81526020600482018190526024820152600080516020613aa9833981519152604482015290519081900360640190fd5b6001600160a01b03861660009081526003602052604090205460ff1661161f5760405162461bcd60e51b8152600401610233906135f5565b6001600160a01b0386166116455760405162461bcd60e51b815260040161023390613719565b6000841561166b57600154611666906000906001600160a01b031687611d4b565b61167e565b8461167e57506001546001600160a01b03165b6002546001600160a01b03888116911614156116a257506002546001600160a01b03165b6116ac8185611e2e565b6116b583611f82565b60005b86518110156107bc57611701888883815181106116d157fe5b602002602001015160001c8984815181106116e857fe5b602002602001015160a01c6001600160601b0316611fd1565b6001016116b8565b600454640100000000900460ff1681565b6000611724611d47565b6001600160a01b0316611735611469565b6001600160a01b03161461177e576040805162461bcd60e51b81526020600482018190526024820152600080516020613aa9833981519152604482015290519081900360640190fd5b611787826119b3565b156117a45760405162461bcd60e51b81526004016102339061357d565b60408051808201909152601d81527f42544320666c6f617420616d6f756e7420696e73756666696369656e7400000060208083019190915260008052600a90527f13da86008ba1c6922daee3e07db95305ef49ebced9f5467a0b8613fcc6b343e3546118119185906127f3565b60008052600a6020527f13da86008ba1c6922daee3e07db95305ef49ebced9f5467a0b8613fcc6b343e3556118458261288a565b50600192915050565b6000611858611d47565b6001600160a01b0316611869611469565b6001600160a01b0316146118b2576040805162461bcd60e51b81526020600482018190526024820152600080516020613aa9833981519152604482015290519081900360640190fd5b6001600160a01b03861660009081526003602052604090205460ff166118ea5760405162461bcd60e51b8152600401610233906135f5565b6001600160a01b0386166119105760405162461bcd60e51b815260040161023390613719565b6000831561193657600154611931906000906001600160a01b031686611d4b565b611949565b8361194957506001546001600160a01b03165b6002546001600160a01b038881169116141561196d57506002546001600160a01b03165b61197787866128a5565b61198083611f82565b505050506001600160a01b039283166000908152600f602090815260408083209490951682529290925291902055600190565b6000908152600b602052604090205460ff1690565b6000806119e26006546005546123da90919063ffffffff16565b905060008111611a045760405162461bcd60e51b815260040161023390613381565b6060611a0e6110c8565b90506000805b8251811015611a5957611a4f838281518110611a2c57fe5b602002602001015160a01c6001600160601b0316836123da90919063ffffffff16565b9150600101611a14565b506002546005546040516340c10f1960e01b81526001600160a01b03909216916340c10f1991611a8e91309190600401613127565b602060405180830381600087803b158015611aa857600080fd5b505af1158015611abc573d6000803e3d6000fd5b505050506040513d601f19601f82011682018060405250810190611ae09190612fad565b5060005b8251811015611bc95760025483516001600160a01b039091169063a9059cbb90859084908110611b1057fe5b602002602001015160001c611b5185610a5c888781518110611b2e57fe5b602002602001015160a01c6001600160601b03168a61243b90919063ffffffff16565b6040518363ffffffff1660e01b8152600401611b6e929190613127565b602060405180830381600087803b158015611b8857600080fd5b505af1158015611b9c573d6000803e3d6000fd5b505050506040513d601f19601f82011682018060405250810190611bc09190612fad565b50600101611ae4565b507f86dd6ae252e62228b47b3c1a12762cbf634952b2d29319b04f4f72fb153bcbdd83604051611bf99190613924565b60405180910390a1505060006005819055600655506001905090565b6001600160a01b039182166000908152600a60205260408082205492909316815291909120549091565b611c47611d47565b6001600160a01b0316611c58611469565b6001600160a01b031614611ca1576040805162461bcd60e51b81526020600482018190526024820152600080516020613aa9833981519152604482015290519081900360640190fd5b6001600160a01b038116611ce65760405162461bcd60e51b8152600401808060200182810382526026815260200180613a626026913960400191505060405180910390fd5b600080546040516001600160a01b03808516939216917f8be0079c531659141344cd1fd0a4f28419497f9722a3daafe3b4186f6b6457e091a3600080546001600160a01b0319166001600160a01b0392909216919091179055565b60065481565b3390565b60408051808201825260208082527f5f737761703a20666c6f617420616d6f756e7420696e73756666696369656e74818301526001600160a01b0385166000908152600a9091529190912054611da29183906127f3565b6001600160a01b038084166000908152600a60205260408082209390935590851681522054611dd190826123da565b6001600160a01b0384166000908152600a60205260409081902091909155517fea368a40e9570069bb8e6511d668293ad2e1f03b0d982431fd223de9f3b70ca690611e2190859085908590613169565b60405180910390a1505050565b80611e3857611f7e565b6002546001600160a01b0383811691161415611ea257600654611e5b90826123da565b6006556040517fe3debe835f6848edc082b32a1d729781d3bfcd7e14422d80bcaa6794d3816b2f90611e95908490849060009081906131cd565b60405180910390a1611f7e565b6000611eac61097b565b6001600160a01b0384166000908152600a6020526040902054909150611ed290836123da565b6001600160a01b0384166000908152600a6020526040812091909155600454611f0c90606490610a5c90869062010000900460ff1661243b565b90506000611f2983610a5c6009548561243b90919063ffffffff16565b600554909150611f3990826123da565b6005556040517fe3debe835f6848edc082b32a1d729781d3bfcd7e14422d80bcaa6794d3816b2f90611f729087908790859088906131cd565b60405180910390a15050505b5050565b60005b8151811015611f7e576001600b6000848481518110611fa057fe5b6020908102919091018101518252810191909152604001600020805460ff1916911515919091179055600101611f85565b6001546001600160a01b0384811691161415611ff857600854611ff590829061243b565b90505b60405163a9059cbb60e01b81526001600160a01b0384169063a9059cbb906120269085908590600401613127565b602060405180830381600087803b15801561204057600080fd5b505af1158015612054573d6000803e3d6000fd5b505050506040513d601f19601f820116820180604052508101906120789190612fad565b61208157600080fd5b505050565b6000612091826119b3565b156120ae5760405162461bcd60e51b81526004016102339061357d565b836120cb5760405162461bcd60e51b81526004016102339061362c565b6000806120d786612558565b9150915060006120e561097b565b90506000612102600954610a5c848661243b90919063ffffffff16565b6004549091506000906121299061271090610a5c908590640100000000900460ff1661243b565b90508761213683836124fb565b10156121545760405162461bcd60e51b8152600401610233906133fd565b6000612164896113af85856124fb565b60015490915060009081906121839082906001600160a01b0316611c15565b90925090506001600160a01b038d166121c4576121a085856124fb565b8210156121bf5760405162461bcd60e51b81526004016102339061334a565b612203565b6001546001600160a01b038e811691161415612203576121e485856124fb565b8110156122035760405162461bcd60e51b81526004016102339061334a565b61220d8d85611e2e565b6122178d866128a5565b6122208a61288a565b6001546001600160a01b038e811691161415612241576122418d8985611fd1565b600254604051630852cd8d60e31b81526001600160a01b03909116906342966c6890612271908a90600401613924565b602060405180830381600087803b15801561228b57600080fd5b505af115801561229f573d6000803e3d6000fd5b505050506040513d601f19601f820116820180604052508101906122c39190612fad565b6122cc57600080fd5b7fa9da34e5e4a956b744307ae7611795634e8365951073bf049d76b64b2ae7a05888888789878f604051612305969594939291906131f3565b60405180910390a15060019c9b505050505050505050505050565b6001546000908190819061233e9082906001600160a01b0316611c15565b909250905060006123636003610a5c6002610a568961235d89896123da565b906123da565b6001549091506001600160a01b03878116911614801561238c57508061238983876123da565b10155b1561239d5760019350505050610d3f565b6001600160a01b0386161580156123bd5750806123ba84876123da565b10155b156123ce5760029350505050610d3f565b50600095945050505050565b600082820183811015612434576040805162461bcd60e51b815260206004820152601b60248201527f536166654d6174683a206164646974696f6e206f766572666c6f770000000000604482015290519081900360640190fd5b9392505050565b60008261244a57506000610d3f565b8282028284828161245757fe5b04146124345760405162461bcd60e51b8152600401808060200182810382526021815260200180613a886021913960400191505060405180910390fd5b60008082116124ea576040805162461bcd60e51b815260206004820152601a60248201527f536166654d6174683a206469766973696f6e206279207a65726f000000000000604482015290519081900360640190fd5b8183816124f357fe5b049392505050565b600082821115612552576040805162461bcd60e51b815260206004820152601e60248201527f536166654d6174683a207375627472616374696f6e206f766572666c6f770000604482015290519081900360640190fd5b50900390565b9060a082901c90565b6000811561258a57506001600160a01b0383166000908152600c60205260408120556001612434565b6001600160a01b0384166000908152600d602052604090205460ff1661260e57600e805460018082019092557fbb7b4a454dc3493923482f07822329ed19e8244eff582cc204f8554c3620c3fd0180546001600160a01b0319166001600160a01b0387169081179091556000908152600d60205260409020805460ff191690911790555b50506001600160a01b03919091166000908152600c6020526040902055600190565b600061263b826119b3565b156126585760405162461bcd60e51b81526004016102339061357d565b836126755760405162461bcd60e51b81526004016102339061362c565b60008061268186612558565b91509150600061268f61097b565b905060006126ac82610a5c6009548661243b90919063ffffffff16565b905060006126ba8a856108df565b90506000816126ca5760006126da565b6126da612710610a5c858561243b565b90508880156126e857508015155b156126f257600080fd5b6002546001600160a01b03166340c10f198761270e86856124fb565b6040518363ffffffff1660e01b815260040161272b929190613127565b602060405180830381600087803b15801561274557600080fd5b505af1158015612759573d6000803e3d6000fd5b505050506040513d601f19601f8201168201806040525081019061277d9190612fad565b5060055461278b90826123da565b6005556127988b86612902565b6127a18861288a565b7fdfaf4e23f7030adafec91a682e05bf9fb30c721f9cec3d8bcfae0459c5362db186868587858d6040516127da969594939291906131f3565b60405180910390a15060019a9950505050505050505050565b600081848411156128825760405162461bcd60e51b81526004018080602001828103825283818151815260200191508051906020019080838360005b8381101561284757818101518382015260200161282f565b50505050905090810190601f1680156128745780820380516001836020036101000a031916815260200191505b509250505060405180910390fd5b505050900390565b6000908152600b60205260409020805460ff19166001179055565b6128e281604051806060016040528060278152602001613ac9602791396001600160a01b0385166000908152600a602052604090205491906127f3565b6001600160a01b039092166000908152600a602052604090209190915550565b6001600160a01b0382166000908152600a60205260409020546128e290826123da565b803561125181613a3e565b60008083601f840112612941578182fd5b5081356001600160401b03811115612957578182fd5b602083019150836020808302850101111561297157600080fd5b9250929050565b600082601f830112612988578081fd5b813561299b61299682613996565b613973565b8181529150602080830190848101818402860182018710156129bc57600080fd5b60005b848110156129db578135845292820192908201906001016129bf565b505050505092915050565b80356001600160801b03198116811461125157600080fd5b803560ff8116811461125157600080fd5b600060208284031215612a20578081fd5b813561243481613a3e565b60008060408385031215612a3d578081fd5b8235612a4881613a3e565b91506020830135612a5881613a3e565b809150509250929050565b600080600080600080600060c0888a031215612a7d578283fd5b8735612a8881613a3e565b96506020880135612a9881613a3e565b955060408801359450606088013593506080880135925060a08801356001600160401b03811115612ac7578283fd5b612ad38a828b01612930565b989b979a50959850939692959293505050565b60008060008060808587031215612afb578384fd5b8435612b0681613a3e565b93506020850135612b1681613a3e565b92506040850135915060608501356001600160401b03811115612b37578182fd5b85016101e08188031215612b49578182fd5b939692955090935050565b600080600080600060a08688031215612b6b578081fd5b8535612b7681613a3e565b94506020860135612b8681613a3e565b9350604086013592506060860135915060808601356001600160401b03811115612bae578182fd5b612bba88828901612978565b9150509295509295909350565b60008060008060008060c08789031215612bdf578182fd5b8635612bea81613a3e565b95506020870135612bfa81613a3e565b945060408701359350606087013592506080870135915060a08701356001600160401b03811115612c29578182fd5b612c3589828a01612978565b9150509295509295509295565b600080600080600080600060e0888a031215612c5c578081fd5b8735612c6781613a3e565b96506020888101356001600160401b0380821115612c83578384fd5b612c8f8c838d01612978565b985060408b0135915080821115612ca4578384fd5b508901601f81018b13612cb5578283fd5b8035612cc361299682613996565b81815283810190838501858402850186018f1015612cdf578687fd5b8694505b83851015612d0a578035612cf681613a53565b835260019490940193918501918501612ce3565b508099505050505050612d1f606089016129fe565b9350612d2d608089016129fe565b9250612d3b60a089016129fe565b9150612d4960c089016129fe565b905092959891949750929550565b600080600080600060a08688031215612d6e578283fd5b8535612d7981613a3e565b945060208601356001600160401b0380821115612d94578485fd5b612da089838a01612978565b955060408801359450606088013593506080880135915080821115612dc3578283fd5b50612bba88828901612978565b60008060008060808587031215612de5578182fd5b8435612df081613a3e565b9350602085013592506040850135612e0781613a53565b9396929550929360600135925050565b60008060008060808587031215612e2c578182fd5b8435612e3781613a3e565b966020860135965060408601359560600135945092505050565b60008060008060008060008060e0898b031215612e6c578182fd5b8835612e7781613a3e565b97506020890135612e8781613a3e565b96506040890135612e9781613a3e565b9550606089013594506080890135935060a0890135612eb581613a3e565b925060c08901356001600160401b0380821115612ed0578384fd5b818b0191508b601f830112612ee3578384fd5b813581811115612ef1578485fd5b8c6020828501011115612f02578485fd5b6020830194508093505050509295985092959890939650565b60008060408385031215612f2d578182fd5b8235612f3881613a3e565b946020939093013593505050565b600080600080600060808688031215612f5d578283fd5b8535612f6881613a3e565b9450602086013593506040860135925060608601356001600160401b03811115612f90578182fd5b612f9c88828901612930565b969995985093965092949392505050565b600060208284031215612fbe578081fd5b815161243481613a53565b600060208284031215612fda578081fd5b5035919050565b600060208284031215612ff2578081fd5b81356001600160401b03811115613007578182fd5b82016101608185031215612434578182fd5b60006020828403121561302a578081fd5b5051919050565b60008060408385031215613043578182fd5b50508035926020909101359150565b6001600160a01b03169052565b60008284526020808501945082825b8581101561309c57813561308181613a3e565b6001600160a01b03168752958201959082019060010161306e565b509495945050505050565b81835260006001600160fb1b038311156130bf578081fd5b6020830280836020870137939093016020019283525090919050565b6001600160801b0319169052565b60008284528282602086013780602084860101526020601f19601f85011685010190509392505050565b6001600160a01b0391909116815260200190565b6001600160a01b03929092168252602082015260400190565b6001600160a01b0394851681529290931660208301526040820152606081019190915260800190565b6001600160a01b039384168152919092166020820152604081019190915260600190565b600060018060a01b038816825286602083015285604083015284606083015260a060808301526131c160a08301848661305f565b98975050505050505050565b6001600160a01b0394909416845260208401929092526040830152606082015260800190565b6001600160a01b03969096168652602086019490945260408501929092526060840152608083015260a082015260c00190565b6020808252825182820181905260009190848201906040850190845b8181101561325e57835183529284019291840191600101613242565b50909695505050505050565b901515815260200190565b6001600160a01b038881168252878116602083015260408201879052606082018690528416608082015260c060a082018190526000906132b890830184866130e9565b9998505050505050505050565b6020808252601e908201527f5f6e6f646552657761726473526174696f206973206e6f742076616c69640000604082015260600190565b6020808252602e908201527f596f752063616e206f6e6c79206578656375746520737761707320746f20796f60408201526d7572206f776e206164647265737360901b606082015260800190565b6020808252601f908201527f54686520666c6f61742062616c616e636520696e73756666696369656e742e00604082015260600190565b60208082526025908201527f746f74616c5265776172644c5073466f724e6f6465206973206e6f7420706f73604082015264697469766560d81b606082015260800190565b60208082526019908201527f42616c616e6365206973206e6f742073756666696369656e7400000000000000604082015260600190565b60208082526034908201527f4572726f723a20616d6f756e744f66466c6f61742e737562287769746864726160408201527377616c4665657329203c205f6d696e657246656560601b606082015260800190565b60208082526027908201527f5f7473735468726573686f6c642073686f756c64206265203e3d2074737354686040820152661c995cda1bdb1960ca1b606082015260800190565b6020808252601f908201527f5f64657374546f6b656e2073686f756c64206265206164647265737328302900604082015260600190565b6020808252601c908201527f5f7769746864726177616c46656542505320697320696e76616c696400000000604082015260600190565b6020808252601290820152716e2073686f756c64206265203e3d20742b3160701b604082015260600190565b6020808252602b908201527f5468697320636f6e747261637420646f65736e277420616c6c6f77207265636560408201526a34bb34b7339022ba3432b960a91b606082015260800190565b60208082526018908201527f546865207478696420697320616c726561647920757365640000000000000000604082015260600190565b60208082526021908201527f53746f726564206e6f64652073697a652073686f756c64206265203c3d2031306040820152600360fc1b606082015260800190565b6020808252601d908201527f5f64657374546f6b656e206973206e6f742077686974656c6973746564000000604082015260600190565b6020808252601c908201527f546865207472616e73616374696f6e206973206e6f742076616c696400000000604082015260600190565b6020808252603b908201527f5f72657761726441646472657373416e64416d6f756e747320616e64205f697360408201527f52656d6f766564206c656e677468206973206e6f74206d617463680000000000606082015260800190565b602080825260149082015273496e73756666696369656e742042616c616e636560601b604082015260600190565b60208082526011908201527017dd1bdad95b881a5cc81a5b9d985b1a59607a1b604082015260600190565b60208082526023908201527f5f64657374546f6b656e2073686f756c64206e6f74206265206164647265737360408201526228302960e81b606082015260800190565b602080825260119082015270496e76616c6964204c505420707269636560781b604082015260600190565b6000602082526137a26020830161379d85612925565b613052565b6137ae60208401612925565b6137bb6040840182613052565b506040830135606083015260608301356080830152608083013560a08301526137e760a08401846139b3565b6101e08060c08601526137ff6102008601838561305f565b925061380e60c08701876139fa565b9250601f19808786030160e08801526138288585846130e9565b945061383760e08901896139b3565b945091506101008188870301818901526138528686856130a7565b9550613860818a018a6139b3565b955092505061012081888703018189015261387c8686856130a7565b9550613889818a01612925565b945050610140915061389d82880185613052565b6138a8828901612925565b935061016091506138bb82880185613052565b610180935081880135848801526138d4848901896139fa565b945091506101a08188870301818901526138ef8686856130e9565b95506101c09450808901358589015250505061390c8287016129e6565b915061391a818601836130db565b5090949350505050565b90815260200190565b918252602082015260400190565b60008582528460208301526060604083015261395b60608301848661305f565b9695505050505050565b60ff91909116815260200190565b6040518181016001600160401b038111828210171561398e57fe5b604052919050565b60006001600160401b038211156139a957fe5b5060209081020190565b6000808335601e198436030181126139c9578283fd5b83016020810192503590506001600160401b038111156139e857600080fd5b60208102360383131561297157600080fd5b6000808335601e19843603018112613a10578283fd5b83016020810192503590506001600160401b03811115613a2f57600080fd5b80360383131561297157600080fd5b6001600160a01b038116811461066d57600080fd5b801515811461066d57600080fdfe4f776e61626c653a206e6577206f776e657220697320746865207a65726f2061646472657373536166654d6174683a206d756c7469706c69636174696f6e206f766572666c6f774f776e61626c653a2063616c6c6572206973206e6f7420746865206f776e65725f72656d6f7665466c6f61743a20666c6f617420616d6f756e7420696e73756666696369656e74a2646970667358221220894ee4a4efd489498d4dc312c7008737069b729f359dff0fbe9ac313cf2a62a564736f6c63430007050033",
  "linkReferences": {},
  "deployedLinkReferences": {}
}