{
  "_format": "hh-sol-artifact-1",
  "contractName": "SwapContract",
  "sourceName": "contracts/SwapContract.sol",
  "abi": [
    {
      "inputs": [
        {
          "internalType": "address",
          "name": "_lpToken",
          "type": "address"
        },
        {
          "internalType": "address",
          "name": "_btct",
          "type": "address"
        },
        {
          "internalType": "address",
          "name": "_wETH",
          "type": "address"
        },
        {
          "internalType": "uint256",
          "name": "_existingBTCFloat",
          "type": "uint256"
        }
      ],
      "stateMutability": "nonpayable",
      "type": "constructor"
    },
    {
      "anonymous": false,
      "inputs": [
        {
          "indexed": false,
          "internalType": "address",
          "name": "token",
          "type": "address"
        },
        {
          "indexed": false,
          "internalType": "uint256",
          "name": "amountOfLP",
          "type": "uint256"
        },
        {
          "indexed": false,
          "internalType": "uint256",
          "name": "amountOfFloat",
          "type": "uint256"
        },
        {
          "indexed": false,
          "internalType": "uint256",
          "name": "currentPriceLP",
          "type": "uint256"
        },
        {
          "indexed": false,
          "internalType": "uint256",
          "name": "withdrawal",
          "type": "uint256"
        },
        {
          "indexed": false,
          "internalType": "bytes32",
          "name": "txid",
          "type": "bytes32"
        }
      ],
      "name": "BurnLPTokensForFloat",
      "type": "event"
    },
    {
      "anonymous": false,
      "inputs": [
        {
          "indexed": false,
          "internalType": "address",
          "name": "token",
          "type": "address"
        },
        {
          "indexed": false,
          "internalType": "address",
          "name": "user",
          "type": "address"
        },
        {
          "indexed": false,
          "internalType": "uint256",
          "name": "amount",
          "type": "uint256"
        },
        {
          "indexed": false,
          "internalType": "uint256",
          "name": "balance",
          "type": "uint256"
        },
        {
          "indexed": false,
          "internalType": "uint256",
          "name": "Timestamp",
          "type": "uint256"
        }
      ],
      "name": "Deposit",
      "type": "event"
    },
    {
      "anonymous": false,
      "inputs": [
        {
          "indexed": false,
          "internalType": "uint256",
          "name": "rewardLPTsForNodes",
          "type": "uint256"
        }
      ],
      "name": "DistributeNodeRewards",
      "type": "event"
    },
    {
      "anonymous": false,
      "inputs": [
        {
          "indexed": false,
          "internalType": "address",
          "name": "to",
          "type": "address"
        },
        {
          "indexed": false,
          "internalType": "uint256",
          "name": "amountOfFloat",
          "type": "uint256"
        },
        {
          "indexed": false,
          "internalType": "uint256",
          "name": "amountOfLP",
          "type": "uint256"
        },
        {
          "indexed": false,
          "internalType": "uint256",
          "name": "currentPriceLP",
          "type": "uint256"
        },
        {
          "indexed": false,
          "internalType": "uint256",
          "name": "depositFees",
          "type": "uint256"
        },
        {
          "indexed": false,
          "internalType": "bytes32",
          "name": "txid",
          "type": "bytes32"
        }
      ],
      "name": "IssueLPTokensForFloat",
      "type": "event"
    },
    {
      "anonymous": false,
      "inputs": [
        {
          "indexed": true,
          "internalType": "address",
          "name": "previousOwner",
          "type": "address"
        },
        {
          "indexed": true,
          "internalType": "address",
          "name": "newOwner",
          "type": "address"
        }
      ],
      "name": "OwnershipTransferred",
      "type": "event"
    },
    {
      "anonymous": false,
      "inputs": [
        {
          "indexed": false,
          "internalType": "address",
          "name": "feesToken",
          "type": "address"
        },
        {
          "indexed": false,
          "internalType": "uint256",
          "name": "rewards",
          "type": "uint256"
        },
        {
          "indexed": false,
          "internalType": "uint256",
          "name": "amountLPTokensForNode",
          "type": "uint256"
        },
        {
          "indexed": false,
          "internalType": "uint256",
          "name": "currentPriceLP",
          "type": "uint256"
        }
      ],
      "name": "RewardsCollection",
      "type": "event"
    },
    {
      "anonymous": false,
      "inputs": [
        {
          "indexed": false,
          "internalType": "uint256",
          "name": "ExpirationTime",
          "type": "uint256"
        },
        {
          "indexed": false,
          "internalType": "uint256",
          "name": "Timestamp",
          "type": "uint256"
        }
      ],
      "name": "SetExpirationTime",
      "type": "event"
    },
    {
      "anonymous": false,
      "inputs": [
        {
          "indexed": false,
          "internalType": "address",
          "name": "from",
          "type": "address"
        },
        {
          "indexed": false,
          "internalType": "address",
          "name": "to",
          "type": "address"
        },
        {
          "indexed": false,
          "internalType": "uint256",
          "name": "amount",
          "type": "uint256"
        }
      ],
      "name": "Swap",
      "type": "event"
    },
    {
      "anonymous": false,
      "inputs": [
        {
          "indexed": false,
          "internalType": "bytes32",
          "name": "SwapID",
          "type": "bytes32"
        },
        {
          "indexed": false,
          "internalType": "string",
          "name": "DestAddr",
          "type": "string"
        },
        {
          "indexed": false,
          "internalType": "address",
          "name": "RefundAddr",
          "type": "address"
        },
        {
          "indexed": false,
          "internalType": "uint256",
          "name": "AmountWBTC",
          "type": "uint256"
        },
        {
          "indexed": false,
          "internalType": "uint256",
          "name": "Timestamp",
          "type": "uint256"
        }
      ],
      "name": "SwapTokensToBTC",
      "type": "event"
    },
    {
      "anonymous": false,
      "inputs": [
        {
          "indexed": false,
          "internalType": "address",
          "name": "token",
          "type": "address"
        },
        {
          "indexed": false,
          "internalType": "address",
          "name": "user",
          "type": "address"
        },
        {
          "indexed": false,
          "internalType": "uint256",
          "name": "amount",
          "type": "uint256"
        },
        {
          "indexed": false,
          "internalType": "uint256",
          "name": "balance",
          "type": "uint256"
        },
        {
          "indexed": false,
          "internalType": "uint256",
          "name": "Timestamp",
          "type": "uint256"
        }
      ],
      "name": "Withdraw",
      "type": "event"
    },
    {
      "stateMutability": "nonpayable",
      "type": "fallback"
    },
    {
      "inputs": [],
      "name": "BTCT_ADDR",
      "outputs": [
        {
          "internalType": "address",
          "name": "",
          "type": "address"
        }
      ],
      "stateMutability": "view",
      "type": "function"
    },
    {
      "inputs": [
        {
          "internalType": "address",
          "name": "_token",
          "type": "address"
        },
        {
          "internalType": "address",
          "name": "_user",
          "type": "address"
        }
      ],
      "name": "balanceOf",
      "outputs": [
        {
          "internalType": "uint256",
          "name": "",
          "type": "uint256"
        }
      ],
      "stateMutability": "view",
      "type": "function"
    },
    {
      "inputs": [
        {
          "internalType": "address",
          "name": "_newOwner",
          "type": "address"
        },
        {
          "internalType": "bytes32[]",
          "name": "_rewardAddressAndAmounts",
          "type": "bytes32[]"
        },
        {
          "internalType": "bool[]",
          "name": "_isRemoved",
          "type": "bool[]"
        },
        {
          "internalType": "uint8",
          "name": "_churnedInCount",
          "type": "uint8"
        },
        {
          "internalType": "uint8",
          "name": "_tssThreshold",
          "type": "uint8"
        },
        {
          "internalType": "uint8",
          "name": "_nodeRewardsRatio",
          "type": "uint8"
        },
        {
          "internalType": "uint8",
          "name": "_withdrawalFeeBPS",
          "type": "uint8"
        },
        {
          "internalType": "uint256",
          "name": "_minimumSwapAmountForWBTC",
          "type": "uint256"
        },
        {
          "internalType": "uint256",
          "name": "_expirationTime",
          "type": "uint256"
        }
      ],
      "name": "churn",
      "outputs": [
        {
          "internalType": "bool",
          "name": "",
          "type": "bool"
        }
      ],
      "stateMutability": "nonpayable",
      "type": "function"
    },
    {
      "inputs": [],
      "name": "churnedInCount",
      "outputs": [
        {
          "internalType": "uint8",
          "name": "",
          "type": "uint8"
        }
      ],
      "stateMutability": "view",
      "type": "function"
    },
    {
      "inputs": [
        {
          "internalType": "address",
          "name": "_destToken",
          "type": "address"
        },
        {
          "internalType": "uint256",
          "name": "_incomingAmount",
          "type": "uint256"
        },
        {
          "internalType": "uint256",
          "name": "_minerFee",
          "type": "uint256"
        },
        {
          "internalType": "uint256",
          "name": "_rewardsAmount",
          "type": "uint256"
        },
        {
          "internalType": "bool",
          "name": "_isUpdatelimitBTCForSPFlow2",
          "type": "bool"
        }
      ],
      "name": "collectSwapFeesForBTC",
      "outputs": [
        {
          "internalType": "bool",
          "name": "",
          "type": "bool"
        }
      ],
      "stateMutability": "nonpayable",
      "type": "function"
    },
    {
      "inputs": [],
      "name": "depositFeesBPS",
      "outputs": [
        {
          "internalType": "uint8",
          "name": "",
          "type": "uint8"
        }
      ],
      "stateMutability": "view",
      "type": "function"
    },
    {
      "inputs": [],
      "name": "distributeNodeRewards",
      "outputs": [
        {
          "internalType": "bool",
          "name": "",
          "type": "bool"
        }
      ],
      "stateMutability": "nonpayable",
      "type": "function"
    },
    {
      "inputs": [],
      "name": "expirationTime",
      "outputs": [
        {
          "internalType": "uint256",
          "name": "",
          "type": "uint256"
        }
      ],
      "stateMutability": "view",
      "type": "function"
    },
    {
      "inputs": [],
      "name": "feesLPTokensForNode",
      "outputs": [
        {
          "internalType": "uint256",
          "name": "",
          "type": "uint256"
        }
      ],
      "stateMutability": "view",
      "type": "function"
    },
    {
      "inputs": [],
      "name": "getActiveNodes",
      "outputs": [
        {
          "internalType": "bytes32[]",
          "name": "",
          "type": "bytes32[]"
        }
      ],
      "stateMutability": "view",
      "type": "function"
    },
    {
      "inputs": [],
      "name": "getCurrentPriceLP",
      "outputs": [
        {
          "internalType": "uint256",
          "name": "nowPrice",
          "type": "uint256"
        }
      ],
      "stateMutability": "view",
      "type": "function"
    },
    {
      "inputs": [
        {
          "internalType": "address",
          "name": "_token",
          "type": "address"
        },
        {
          "internalType": "uint256",
          "name": "_amountOfFloat",
          "type": "uint256"
        }
      ],
      "name": "getDepositFeeRate",
      "outputs": [
        {
          "internalType": "uint256",
          "name": "depositFeeRate",
          "type": "uint256"
        }
      ],
      "stateMutability": "view",
      "type": "function"
    },
    {
      "inputs": [
        {
          "internalType": "address",
          "name": "_tokenA",
          "type": "address"
        },
        {
          "internalType": "address",
          "name": "_tokenB",
          "type": "address"
        }
      ],
      "name": "getFloatReserve",
      "outputs": [
        {
          "internalType": "uint256",
          "name": "reserveA",
          "type": "uint256"
        },
        {
          "internalType": "uint256",
          "name": "reserveB",
          "type": "uint256"
        }
      ],
      "stateMutability": "view",
      "type": "function"
    },
    {
      "inputs": [
        {
          "internalType": "address",
          "name": "_user",
          "type": "address"
        }
      ],
      "name": "getNodeStake",
      "outputs": [
        {
          "internalType": "uint256",
          "name": "staked",
          "type": "uint256"
        }
      ],
      "stateMutability": "view",
      "type": "function"
    },
    {
      "inputs": [],
      "name": "initialExchangeRate",
      "outputs": [
        {
          "internalType": "uint256",
          "name": "",
          "type": "uint256"
        }
      ],
      "stateMutability": "view",
      "type": "function"
    },
    {
      "inputs": [
        {
          "internalType": "bytes32",
          "name": "_txid",
          "type": "bytes32"
        }
      ],
      "name": "isTxUsed",
      "outputs": [
        {
          "internalType": "bool",
          "name": "",
          "type": "bool"
        }
      ],
      "stateMutability": "view",
      "type": "function"
    },
    {
      "inputs": [],
      "name": "limitBTCForSPFlow2",
      "outputs": [
        {
          "internalType": "uint256",
          "name": "",
          "type": "uint256"
        }
      ],
      "stateMutability": "view",
      "type": "function"
    },
    {
      "inputs": [],
      "name": "lockedLPTokensForNode",
      "outputs": [
        {
          "internalType": "uint256",
          "name": "",
          "type": "uint256"
        }
      ],
      "stateMutability": "view",
      "type": "function"
    },
    {
      "inputs": [],
      "name": "lpToken",
      "outputs": [
        {
          "internalType": "address",
          "name": "",
          "type": "address"
        }
      ],
      "stateMutability": "view",
      "type": "function"
    },
    {
      "inputs": [],
      "name": "minimumSwapAmountForWBTC",
      "outputs": [
        {
          "internalType": "uint256",
          "name": "",
          "type": "uint256"
        }
      ],
      "stateMutability": "view",
      "type": "function"
    },
    {
      "inputs": [
        {
          "internalType": "bytes32[]",
          "name": "_addressesAndAmounts",
          "type": "bytes32[]"
        },
        {
          "internalType": "uint256",
          "name": "_totalSwapped",
          "type": "uint256"
        },
        {
          "internalType": "uint256",
          "name": "_rewardsAmount",
          "type": "uint256"
        },
        {
          "internalType": "bytes32[]",
          "name": "_usedTxIds",
          "type": "bytes32[]"
        }
      ],
      "name": "multiRecordSkyPoolsTX",
      "outputs": [
        {
          "internalType": "bool",
          "name": "",
          "type": "bool"
        }
      ],
      "stateMutability": "nonpayable",
      "type": "function"
    },
    {
      "inputs": [
        {
          "internalType": "address",
          "name": "_destToken",
          "type": "address"
        },
        {
          "internalType": "bytes32[]",
          "name": "_addressesAndAmounts",
          "type": "bytes32[]"
        },
        {
          "internalType": "uint256",
          "name": "_totalSwapped",
          "type": "uint256"
        },
        {
          "internalType": "uint256",
          "name": "_rewardsAmount",
          "type": "uint256"
        },
        {
          "internalType": "bytes32[]",
          "name": "_redeemedFloatTxIds",
          "type": "bytes32[]"
        }
      ],
      "name": "multiTransferERC20TightlyPacked",
      "outputs": [
        {
          "internalType": "bool",
          "name": "",
          "type": "bool"
        }
      ],
      "stateMutability": "nonpayable",
      "type": "function"
    },
    {
      "inputs": [],
      "name": "nodeRewardsRatio",
      "outputs": [
        {
          "internalType": "uint8",
          "name": "",
          "type": "uint8"
        }
      ],
      "stateMutability": "view",
      "type": "function"
    },
    {
      "inputs": [],
      "name": "oldestActiveIndex",
      "outputs": [
        {
          "internalType": "uint256",
          "name": "",
          "type": "uint256"
        }
      ],
      "stateMutability": "view",
      "type": "function"
    },
    {
      "inputs": [],
      "name": "owner",
      "outputs": [
        {
          "internalType": "address",
          "name": "",
          "type": "address"
        }
      ],
      "stateMutability": "view",
      "type": "function"
    },
    {
      "inputs": [
        {
          "internalType": "address",
          "name": "_token",
          "type": "address"
        },
        {
          "internalType": "bytes32",
          "name": "_addressesAndAmountOfFloat",
          "type": "bytes32"
        },
        {
          "internalType": "bool",
          "name": "_zerofee",
          "type": "bool"
        },
        {
          "internalType": "bytes32",
          "name": "_txid",
          "type": "bytes32"
        }
      ],
      "name": "recordIncomingFloat",
      "outputs": [
        {
          "internalType": "bool",
          "name": "",
          "type": "bool"
        }
      ],
      "stateMutability": "nonpayable",
      "type": "function"
    },
    {
      "inputs": [
        {
          "internalType": "address",
          "name": "_token",
          "type": "address"
        },
        {
          "internalType": "bytes32",
          "name": "_addressesAndAmountOfLPtoken",
          "type": "bytes32"
        },
        {
          "internalType": "uint256",
          "name": "_minerFee",
          "type": "uint256"
        },
        {
          "internalType": "bytes32",
          "name": "_txid",
          "type": "bytes32"
        }
      ],
      "name": "recordOutcomingFloat",
      "outputs": [
        {
          "internalType": "bool",
          "name": "",
          "type": "bool"
        }
      ],
      "stateMutability": "nonpayable",
      "type": "function"
    },
    {
      "inputs": [
        {
          "internalType": "address",
          "name": "_to",
          "type": "address"
        },
        {
          "internalType": "uint256",
          "name": "_totalSwapped",
          "type": "uint256"
        },
        {
          "internalType": "uint256",
          "name": "_rewardsAmount",
          "type": "uint256"
        },
        {
          "internalType": "bytes32[]",
          "name": "_usedTxIds",
          "type": "bytes32[]"
        }
      ],
      "name": "recordSkyPoolsTX",
      "outputs": [
        {
          "internalType": "bool",
          "name": "",
          "type": "bool"
        }
      ],
      "stateMutability": "nonpayable",
      "type": "function"
    },
    {
      "inputs": [
        {
          "internalType": "uint256",
          "name": "_minerFee",
          "type": "uint256"
        },
        {
          "internalType": "bytes32",
          "name": "_txid",
          "type": "bytes32"
        }
      ],
      "name": "recordUTXOSweepMinerFee",
      "outputs": [
        {
          "internalType": "bool",
          "name": "",
          "type": "bool"
        }
      ],
      "stateMutability": "nonpayable",
      "type": "function"
    },
    {
      "inputs": [
        {
          "internalType": "address",
          "name": "_token",
          "type": "address"
        },
        {
          "internalType": "uint256",
          "name": "_amount",
          "type": "uint256"
        }
      ],
      "name": "redeemERC20Token",
      "outputs": [],
      "stateMutability": "nonpayable",
      "type": "function"
    },
    {
      "inputs": [
        {
          "internalType": "uint256",
          "name": "_amount",
          "type": "uint256"
        }
      ],
      "name": "redeemEther",
      "outputs": [],
      "stateMutability": "nonpayable",
      "type": "function"
    },
    {
      "inputs": [],
      "name": "renounceOwnership",
      "outputs": [],
      "stateMutability": "nonpayable",
      "type": "function"
    },
    {
      "inputs": [
        {
          "internalType": "address",
          "name": "_destToken",
          "type": "address"
        },
        {
          "internalType": "address",
          "name": "_to",
          "type": "address"
        },
        {
          "internalType": "uint256",
          "name": "_amount",
          "type": "uint256"
        },
        {
          "internalType": "uint256",
          "name": "_totalSwapped",
          "type": "uint256"
        },
        {
          "internalType": "uint256",
          "name": "_rewardsAmount",
          "type": "uint256"
        },
        {
          "internalType": "bytes32[]",
          "name": "_redeemedFloatTxIds",
          "type": "bytes32[]"
        }
      ],
      "name": "singleTransferERC20",
      "outputs": [
        {
          "internalType": "bool",
          "name": "",
          "type": "bool"
        }
      ],
      "stateMutability": "nonpayable",
      "type": "function"
    },
    {
      "inputs": [
        {
          "internalType": "uint256",
          "name": "_loopCount",
          "type": "uint256"
        }
      ],
      "name": "spCleanUpOldTXs",
      "outputs": [],
      "stateMutability": "nonpayable",
      "type": "function"
    },
    {
      "inputs": [
        {
          "internalType": "address",
          "name": "_token",
          "type": "address"
        },
        {
          "internalType": "uint256",
          "name": "_amount",
          "type": "uint256"
        }
      ],
      "name": "spDeposit",
      "outputs": [],
      "stateMutability": "payable",
      "type": "function"
    },
    {
      "inputs": [
        {
          "components": [
            {
              "internalType": "address",
              "name": "fromToken",
              "type": "address"
            },
            {
              "internalType": "address",
              "name": "toToken",
              "type": "address"
            },
            {
              "internalType": "uint256",
              "name": "fromAmount",
              "type": "uint256"
            },
            {
              "internalType": "uint256",
              "name": "toAmount",
              "type": "uint256"
            },
            {
              "internalType": "uint256",
              "name": "expectedAmount",
              "type": "uint256"
            },
            {
              "internalType": "address[]",
              "name": "callees",
              "type": "address[]"
            },
            {
              "internalType": "bytes",
              "name": "exchangeData",
              "type": "bytes"
            },
            {
              "internalType": "uint256[]",
              "name": "startIndexes",
              "type": "uint256[]"
            },
            {
              "internalType": "uint256[]",
              "name": "values",
              "type": "uint256[]"
            },
            {
              "internalType": "address payable",
              "name": "beneficiary",
              "type": "address"
            },
            {
              "internalType": "address payable",
              "name": "partner",
              "type": "address"
            },
            {
              "internalType": "uint256",
              "name": "feePercent",
              "type": "uint256"
            },
            {
              "internalType": "bytes",
              "name": "permit",
              "type": "bytes"
            },
            {
              "internalType": "uint256",
              "name": "deadline",
              "type": "uint256"
            },
            {
              "internalType": "bytes16",
              "name": "uuid",
              "type": "bytes16"
            }
          ],
          "internalType": "struct Utils.SimpleData",
          "name": "_data",
          "type": "tuple"
        }
      ],
      "name": "spFlow1SimpleSwap",
      "outputs": [],
      "stateMutability": "nonpayable",
      "type": "function"
    },
    {
      "inputs": [
        {
          "internalType": "bool",
          "name": "_fork",
          "type": "bool"
        },
        {
          "internalType": "address",
          "name": "_factory",
          "type": "address"
        },
        {
          "internalType": "bytes32",
          "name": "_initCode",
          "type": "bytes32"
        },
        {
          "internalType": "uint256",
          "name": "_amountIn",
          "type": "uint256"
        },
        {
          "internalType": "uint256",
          "name": "_amountOutMin",
          "type": "uint256"
        },
        {
          "internalType": "address[]",
          "name": "_path",
          "type": "address[]"
        }
      ],
      "name": "spFlow1Uniswap",
      "outputs": [
        {
          "internalType": "uint256",
          "name": "receivedAmount",
          "type": "uint256"
        }
      ],
      "stateMutability": "nonpayable",
      "type": "function"
    },
    {
      "inputs": [
        {
          "internalType": "string",
          "name": "_destinationAddressForBTC",
          "type": "string"
        },
        {
          "components": [
            {
              "internalType": "address",
              "name": "fromToken",
              "type": "address"
            },
            {
              "internalType": "address",
              "name": "toToken",
              "type": "address"
            },
            {
              "internalType": "uint256",
              "name": "fromAmount",
              "type": "uint256"
            },
            {
              "internalType": "uint256",
              "name": "toAmount",
              "type": "uint256"
            },
            {
              "internalType": "uint256",
              "name": "expectedAmount",
              "type": "uint256"
            },
            {
              "internalType": "address[]",
              "name": "callees",
              "type": "address[]"
            },
            {
              "internalType": "bytes",
              "name": "exchangeData",
              "type": "bytes"
            },
            {
              "internalType": "uint256[]",
              "name": "startIndexes",
              "type": "uint256[]"
            },
            {
              "internalType": "uint256[]",
              "name": "values",
              "type": "uint256[]"
            },
            {
              "internalType": "address payable",
              "name": "beneficiary",
              "type": "address"
            },
            {
              "internalType": "address payable",
              "name": "partner",
              "type": "address"
            },
            {
              "internalType": "uint256",
              "name": "feePercent",
              "type": "uint256"
            },
            {
              "internalType": "bytes",
              "name": "permit",
              "type": "bytes"
            },
            {
              "internalType": "uint256",
              "name": "deadline",
              "type": "uint256"
            },
            {
              "internalType": "bytes16",
              "name": "uuid",
              "type": "bytes16"
            }
          ],
          "internalType": "struct Utils.SimpleData",
          "name": "_data",
          "type": "tuple"
        }
      ],
      "name": "spFlow2SimpleSwap",
      "outputs": [
        {
          "internalType": "uint256",
          "name": "receivedAmount",
          "type": "uint256"
        }
      ],
      "stateMutability": "nonpayable",
      "type": "function"
    },
    {
      "inputs": [
        {
          "internalType": "string",
          "name": "_destinationAddressForBTC",
          "type": "string"
        },
        {
          "internalType": "bool",
          "name": "_fork",
          "type": "bool"
        },
        {
          "internalType": "address",
          "name": "_factory",
          "type": "address"
        },
        {
          "internalType": "bytes32",
          "name": "_initCode",
          "type": "bytes32"
        },
        {
          "internalType": "uint256",
          "name": "_amountIn",
          "type": "uint256"
        },
        {
          "internalType": "uint256",
          "name": "_amountOutMin",
          "type": "uint256"
        },
        {
          "internalType": "address[]",
          "name": "_path",
          "type": "address[]"
        }
      ],
      "name": "spFlow2Uniswap",
      "outputs": [
        {
          "internalType": "uint256",
          "name": "receivedAmount",
          "type": "uint256"
        }
      ],
      "stateMutability": "nonpayable",
      "type": "function"
    },
    {
      "inputs": [],
      "name": "spGetPendingSwaps",
      "outputs": [
        {
          "components": [
            {
              "internalType": "bytes32",
              "name": "SwapID",
              "type": "bytes32"
            },
            {
              "internalType": "string",
              "name": "DestAddr",
              "type": "string"
            },
            {
              "internalType": "address",
              "name": "RefundAddr",
              "type": "address"
            },
            {
              "internalType": "uint256",
              "name": "AmountWBTC",
              "type": "uint256"
            },
            {
              "internalType": "uint256",
              "name": "Timestamp",
              "type": "uint256"
            }
          ],
          "internalType": "struct SwapContract.spPendingTx[]",
          "name": "data",
          "type": "tuple[]"
        }
      ],
      "stateMutability": "view",
      "type": "function"
    },
    {
      "inputs": [
        {
          "internalType": "uint256",
          "name": "",
          "type": "uint256"
        }
      ],
      "name": "spPendingTXs",
      "outputs": [
        {
          "internalType": "bytes32",
          "name": "SwapID",
          "type": "bytes32"
        },
        {
          "internalType": "string",
          "name": "DestAddr",
          "type": "string"
        },
        {
          "internalType": "address",
          "name": "RefundAddr",
          "type": "address"
        },
        {
          "internalType": "uint256",
          "name": "AmountWBTC",
          "type": "uint256"
        },
        {
          "internalType": "uint256",
          "name": "Timestamp",
          "type": "uint256"
        }
      ],
      "stateMutability": "view",
      "type": "function"
    },
    {
      "inputs": [],
      "name": "swapCount",
      "outputs": [
        {
          "internalType": "uint256",
          "name": "",
          "type": "uint256"
        }
      ],
      "stateMutability": "view",
      "type": "function"
    },
    {
      "inputs": [
        {
          "internalType": "address",
          "name": "",
          "type": "address"
        },
        {
          "internalType": "address",
          "name": "",
          "type": "address"
        }
      ],
      "name": "tokens",
      "outputs": [
        {
          "internalType": "uint256",
          "name": "",
          "type": "uint256"
        }
      ],
      "stateMutability": "view",
      "type": "function"
    },
    {
      "inputs": [
        {
          "internalType": "address",
          "name": "newOwner",
          "type": "address"
        }
      ],
      "name": "transferOwnership",
      "outputs": [],
      "stateMutability": "nonpayable",
      "type": "function"
    },
    {
      "inputs": [],
      "name": "tssThreshold",
      "outputs": [
        {
          "internalType": "uint8",
          "name": "",
          "type": "uint8"
        }
      ],
      "stateMutability": "view",
      "type": "function"
    },
    {
      "inputs": [],
      "name": "wETH",
      "outputs": [
        {
          "internalType": "address",
          "name": "",
          "type": "address"
        }
      ],
      "stateMutability": "view",
      "type": "function"
    },
    {
      "inputs": [
        {
          "internalType": "address",
          "name": "",
          "type": "address"
        }
      ],
      "name": "whitelist",
      "outputs": [
        {
          "internalType": "bool",
          "name": "",
          "type": "bool"
        }
      ],
      "stateMutability": "view",
      "type": "function"
    },
    {
      "inputs": [],
      "name": "withdrawalFeeBPS",
      "outputs": [
        {
          "internalType": "uint8",
          "name": "",
          "type": "uint8"
        }
      ],
      "stateMutability": "view",
      "type": "function"
    },
    {
      "stateMutability": "payable",
      "type": "receive"
    }
  ],
  "bytecode": "0x6101206040523480156200001257600080fd5b50604051620066973803806200669783398101604081905262000035916200033f565b6200004033620002d2565b600180556202a300600255615dc0600355600060068190556005556001600160a01b0380831661010052841660a08190526040805163313ce56760e01b8152905163313ce56791600480820192602092909190829003018186803b158015620000a857600080fd5b505afa158015620000bd573d6000803e3d6000fd5b505050506040513d601f19601f82011682018060405250810190620000e3919062000391565b620000f090600a620004d2565b60e0526001600160a01b03831660808190526008805464ffffff000019166414324200001781556040805163313ce56760e01b8152905191929163313ce56791600480820192602092909190829003018186803b1580156200015157600080fd5b505afa15801562000166573d6000803e3d6000fd5b505050506040513d601f19601f820116820180604052508101906200018c919062000391565b620001989190620004e3565b620001a590600a620004d2565b60c08181525050836001600160a01b031663313ce5676040518163ffffffff1660e01b815260040160206040518083038186803b158015620001e657600080fd5b505afa158015620001fb573d6000803e3d6000fd5b505050506040513d601f19601f8201168201806040525081019062000221919062000391565b6200022e90600a620004d2565b600b5560006009819055600a8190556001600160a01b039384168152600760209081526040808320805460ff199081166001908117909255979096168352822080548716861790559080527f6d5257204ebe7d88fd91ae87941cb2dd9d8062b64ae5a2bd2d28ec40b9fbf6df805490951690931790935550600d90527f81955a0a11e65eac625c29e8882660bae4e165a75d72780094acae8ece9a29ee5562000509565b600080546001600160a01b038381166001600160a01b0319831681178455604051919092169283917f8be0079c531659141344cd1fd0a4f28419497f9722a3daafe3b4186f6b6457e09190a35050565b80516001600160a01b03811681146200033a57600080fd5b919050565b600080600080608085870312156200035657600080fd5b620003618562000322565b9350620003716020860162000322565b9250620003816040860162000322565b6060959095015193969295505050565b600060208284031215620003a457600080fd5b815160ff81168114620003b657600080fd5b9392505050565b634e487b7160e01b600052601160045260246000fd5b600181815b8085111562000414578160001904821115620003f857620003f8620003bd565b808516156200040657918102915b93841c9390800290620003d8565b509250929050565b6000826200042d57506001620004cc565b816200043c57506000620004cc565b8160018114620004555760028114620004605762000480565b6001915050620004cc565b60ff841115620004745762000474620003bd565b50506001821b620004cc565b5060208310610133831016604e8410600b8410161715620004a5575081810a620004cc565b620004b18383620003d3565b8060001904821115620004c857620004c8620003bd565b0290505b92915050565b6000620003b660ff8416836200041c565b600060ff821660ff841680821015620005005762000500620003bd565b90039392505050565b60805160a05160c05160e05161010051615fe4620006b3600039600081816102a6015281816108d601528181611eb901528181611f1501528181611f8201528181611fc9015281816120ad01528181612da001528181612e1a0152612e6301526000818161181e0152818161395201528181613e7301526144cf01526000613a890152600081816105ec01528181610d7501528181610db00152818161176a015281816122090152818161224401528181613380015281816134130152818161383e015281816140f7015261454301526000818161039a01528181610d2101528181610d5301528181610eca01528181610f460152818161169f0152818161173e01528181611af8015281816121b5015281816121e70152818161232701528181612356015281816123a601528181612439015281816124c70152818161280a01528181612846015281816129090152818161297d01528181612a1401528181612b9d01528181612fee015281816130d001528181613a4b01528181613f5701528181613fee0152818161409e015281816142020152818161424f01526146d90152615fe46000f3fe6080604052600436106102965760003560e01c80636d019f351161015a578063c810a539116100c1578063e9e9bf6a1161007a578063e9e9bf6a1461087a578063ec4827291461088f578063f2428621146108c4578063f2fde38b146108f8578063f7824bc714610918578063f7888aec1461092e576102d5565b8063c810a539146107c1578063ca0707e7146107e1578063cfbf92a9146107f4578063d38c7bb114610814578063da284dcc14610834578063e6ca20841461084a576102d5565b8063ad289e7611610113578063ad289e76146106ff578063b345a3581461071f578063b4014fe81461073f578063b6268e5d1461075f578063b81102de14610781578063bf62dcc8146107a1576102d5565b80636d019f3514610650578063715018a6146106665780638535490f1461067b5780638da5cb5b1461069b5780639b19251a146106b9578063a827278b146106e9576102d5565b80632586c562116101fe5780634db75485116101b75780634db7548514610562578063508493bc14610582578063511834c3146105ba5780635fcbd285146105da57806363f289d91461060e5780636b51e9191461062e576102d5565b80632586c562146104c05780632d55282d146104e05780632eff0d9e146104f65780633b6fa1271461050c578063424192551461052c57806345137e271461054d576102d5565b8063130b7a6311610250578063130b7a63146103f35780631411c5b7146104215780631ab7e937146104375780631bb069301461046857806320199e991461047e57806321959d3c146104a0576102d5565b806289356f146102e757806308493505146103185780630b68134d146103485780630d63aca7146103685780630f9094861461038857806312d1441e146103d4576102d5565b366102d557336001600160a01b037f000000000000000000000000000000000000000000000000000000000000000016146102d3576102d3614e7f565b005b3480156102e157600080fd5b50600080fd5b3480156102f357600080fd5b506008546103019060ff1681565b60405160ff90911681526020015b60405180910390f35b34801561032457600080fd5b50610338610333366004614fad565b610974565b604051901515815260200161030f565b34801561035457600080fd5b506008546103019062010000900460ff1681565b34801561037457600080fd5b506103386103833660046150d8565b610c1d565b34801561039457600080fd5b506103bc7f000000000000000000000000000000000000000000000000000000000000000081565b6040516001600160a01b03909116815260200161030f565b3480156103e057600080fd5b5060085461030190610100900460ff1681565b3480156103ff57600080fd5b5061041361040e3660046151a0565b610dfc565b60405190815260200161030f565b34801561042d57600080fd5b5061041360035481565b34801561044357600080fd5b50610457610452366004615225565b611236565b60405161030f959493929190615296565b34801561047457600080fd5b5061041360065481565b34801561048a57600080fd5b506104936112f9565b60405161030f91906152d5565b3480156104ac57600080fd5b506102d36104bb366004615225565b6114fa565b3480156104cc57600080fd5b506103386104db366004615373565b6115b8565b3480156104ec57600080fd5b5061041360095481565b34801561050257600080fd5b5061041360055481565b34801561051857600080fd5b506104136105273660046153ae565b611682565b34801561053857600080fd5b50600854610301906301000000900460ff1681565b34801561055957600080fd5b50610413611732565b34801561056e57600080fd5b506102d361057d3660046153ae565b611864565b34801561058e57600080fd5b5061041361059d3660046153da565b601260209081526000928352604080842090915290825290205481565b3480156105c657600080fd5b506102d36105d536600461542c565b6119c3565b3480156105e657600080fd5b506103bc7f000000000000000000000000000000000000000000000000000000000000000081565b34801561061a57600080fd5b50610338610629366004615460565b611c5d565b34801561063a57600080fd5b50610643611cc6565b60405161030f91906154a8565b34801561065c57600080fd5b50610413600b5481565b34801561067257600080fd5b506102d3611e51565b34801561068757600080fd5b506102d3610696366004615225565b611e87565b3480156106a757600080fd5b506000546001600160a01b03166103bc565b3480156106c557600080fd5b506103386106d43660046154ec565b60076020526000908152604090205460ff1681565b3480156106f557600080fd5b50610413600c5481565b34801561070b57600080fd5b5061033861071a366004615509565b612143565b34801561072b57600080fd5b5061033861073a366004615592565b6122e1565b34801561074b57600080fd5b5061041361075a366004615635565b612405565b34801561076b57600080fd5b5060085461030190640100000000900460ff1681565b34801561078d57600080fd5b5061033861079c36600461569d565b6127c9565b3480156107ad57600080fd5b506103386107bc3660046156f3565b6128c3565b3480156107cd57600080fd5b506103386107dc36600461575d565b612a9b565b6102d36107ef3660046153ae565b612b44565b34801561080057600080fd5b5061041361080f3660046154ec565b612efa565b34801561082057600080fd5b5061041361082f36600461577f565b612f20565b34801561084057600080fd5b5061041360025481565b34801561085657600080fd5b50610338610865366004615225565b6000908152600e602052604090205460ff1690565b34801561088657600080fd5b506103386132d1565b34801561089b57600080fd5b506108af6108aa3660046153da565b613572565b6040805192835260208301919091520161030f565b3480156108d057600080fd5b506103bc7f000000000000000000000000000000000000000000000000000000000000000081565b34801561090457600080fd5b506102d36109133660046154ec565b61359c565b34801561092457600080fd5b50610413600a5481565b34801561093a57600080fd5b506104136109493660046153da565b6001600160a01b03918216600090815260126020908152604080832093909416825291909152205490565b600080546001600160a01b031633146109a85760405162461bcd60e51b815260040161099f90615836565b60405180910390fd5b60085460ff6101009091048116908716108015906109ca575060ff8660ff1611155b610a265760405162461bcd60e51b815260206004820152602760248201527f5f7473735468726573686f6c642073686f756c64206265203e3d2074737354686044820152661c995cda1bdb1960ca1b606482015260840161099f565b610a31600187615881565b60ff168760ff161015610a7b5760405162461bcd60e51b81526020600482015260126024820152716e2073686f756c64206265203e3d20742b3160701b604482015260640161099f565b60648560ff161115610a8c57600080fd5b60648460ff161115610a9d57600080fd5b8751895114610aab57600080fd5b8215610ab75760038390555b8115610ac657610ac682613637565b610acf8a61359c565b60005b8951811015610b58576000610b038b8381518110610af257610af26158a6565b60200260200101519060a082901c90565b509050610b43818c8481518110610b1c57610b1c6158a6565b60200260200101518c8581518110610b3657610b366158a6565b6020026020010151613677565b50508080610b50906158bc565b915050610ad2565b506000610b63611cc6565b9050606481511115610bc15760405162461bcd60e51b815260206004820152602160248201527f53746f726564206e6f64652073697a652073686f756c64206265203c3d2031306044820152600360fc1b606482015260840161099f565b50506008805460ff8581166401000000000264ff000000001988831662010000021664ff00ff0000198a84166101000261ffff19909516938c169390931793909317919091169190911717905560019998505050505050505050565b600080546001600160a01b03163314610c485760405162461bcd60e51b815260040161099f90615836565b6001600160a01b03871660009081526007602052604090205460ff16610cb05760405162461bcd60e51b815260206004820152601d60248201527f5f64657374546f6b656e206973206e6f742077686974656c6973746564000000604482015260640161099f565b6001600160a01b038716610d125760405162461bcd60e51b815260206004820152602360248201527f5f64657374546f6b656e2073686f756c64206e6f74206265206164647265737360448201526228302960e81b606482015260840161099f565b60008415610d4b57610d4660007f000000000000000000000000000000000000000000000000000000000000000087613746565b610d73565b84610d7357507f00000000000000000000000000000000000000000000000000000000000000005b7f00000000000000000000000000000000000000000000000000000000000000006001600160a01b0316886001600160a01b03161415610dd057507f00000000000000000000000000000000000000000000000000000000000000005b610dda8185613833565b610de3836139e1565b610dee888888613a49565b506001979650505050505050565b600060026001541415610e215760405162461bcd60e51b815260040161099f906158d7565b6002600155600083838281610e3857610e386158a6565b9050602002016020810190610e4d91906154ec565b905060008484610e5e60018261590e565b818110610e6d57610e6d6158a6565b9050602002016020810190610e8291906154ec565b6001600160a01b0383166000908152601260209081526040808320338452909152902054909150871115610ec85760405162461bcd60e51b815260040161099f90615925565b7f00000000000000000000000000000000000000000000000000000000000000006001600160a01b0316826001600160a01b031614610f445760405162461bcd60e51b815260206004820152601860248201527726bab9ba1039bbb0b810333937b690212a21903a37b5b2b760411b604482015260640161099f565b7f00000000000000000000000000000000000000000000000000000000000000006001600160a01b0316816001600160a01b03161415610fc65760405162461bcd60e51b815260206004820152601960248201527f456e64696e6720746f6b656e206d757374206265207742544300000000000000604482015260640161099f565b6001600160a01b03811673eeeeeeeeeeeeeeeeeeeeeeeeeeeeeeeeeeeeeeee141561102b5760405162461bcd60e51b81526020600482015260156024820152740aae6ca40e0c2e8d040ee84a886405a7c40ee8aa89605b1b604482015260640161099f565b6040516370a0823160e01b81523060048201526000906001600160a01b038316906370a082319060240160206040518083038186803b15801561106d57600080fd5b505afa158015611081573d6000803e3d6000fd5b505050506040513d601f19601f820116820180604052508101906110a5919061595c565b6001600160a01b03841660009081526012602090815260408083203384529091529020549091506110d69089613b40565b6001600160a01b03841660009081526012602090815260408083203384529091529020558a156111135761110e8a8a8a8a8a8a613b4c565b61111f565b61111f88888888613c92565b6040516370a0823160e01b81523060048201526111a39082906001600160a01b038516906370a08231906024015b60206040518083038186803b15801561116557600080fd5b505afa158015611179573d6000803e3d6000fd5b505050506040513d601f19601f8201168201806040525081019061119d919061595c565b90613b40565b9350868410156111c55760405162461bcd60e51b815260040161099f90615975565b836111cf57600080fd5b6001600160a01b03821660009081526012602090815260408083203384529091529020546111fd9085613dd2565b6001600160a01b039092166000908152601260209081526040808320338452909152902091909155505060018055979650505050505050565b60046020526000908152604090208054600182018054919291611258906159ac565b80601f0160208091040260200160405190810160405280929190818152602001828054611284906159ac565b80156112d15780601f106112a6576101008083540402835291602001916112d1565b820191906000526020600020905b8154815290600101906020018083116112b457829003601f168201915b505050506002830154600384015460049094015492936001600160a01b039091169290915085565b60606000611314600654600554613b4090919063ffffffff16565b6001600160401b0381111561132b5761132b614eba565b60405190808252806020026020018201604052801561139a57816020015b6113876040518060a00160405280600080191681526020016060815260200160006001600160a01b0316815260200160008152602001600081525090565b8152602001906001900390816113495790505b50915060006113b56001600654613dd290919063ffffffff16565b90505b60055481116114f557600460006113da60065485613dd290919063ffffffff16565b81526020019081526020016000206040518060a00160405290816000820154815260200160018201805461140d906159ac565b80601f0160208091040260200160405190810160405280929190818152602001828054611439906159ac565b80156114865780601f1061145b57610100808354040283529160200191611486565b820191906000526020600020905b81548152906001019060200180831161146957829003601f168201915b505050918352505060028201546001600160a01b031660208201526003820154604082015260049091015460609091015283518490849081106114cb576114cb6158a6565b60209081029190910101526114e1826001613dd2565b9150806114ed816158bc565b9150506113b8565b505090565b60065460009061150a9083613dd2565b9050600554811061151a57506005545b60065442905b828110156115b25760025460008281526004602081905260409091200154839161154a9190613dd2565b10156115a05760008181526004602052604081208181559061156f6001830182614dac565b506002810180546001600160a01b031916905560006003820181905560049091015561159c816001613dd2565b6006555b806115aa816158bc565b915050611520565b50505050565b600080546001600160a01b031633146115e35760405162461bcd60e51b815260040161099f90615836565b60006115ed611732565b6001600160a01b03871660009081526007602052604090205490915060ff1661161557600080fd5b61162186868686613dde565b61162a57600080fd5b6001915080611637611732565b10156116795760405162461bcd60e51b8152602060048201526011602482015270496e76616c6964204c505420707269636560781b604482015260640161099f565b50949350505050565b60008061168f84846141f6565b90508060ff16600114156116f5577f00000000000000000000000000000000000000000000000000000000000000006001600160a01b0316846001600160a01b0316146116dd5760006116eb565b6008546301000000900460ff165b60ff16915061172b565b8060ff166002141561172b576001600160a01b03841615611717576000611725565b6008546301000000900460ff165b60ff1691505b5092915050565b600080600061176260007f0000000000000000000000000000000000000000000000000000000000000000613572565b9150915060007f00000000000000000000000000000000000000000000000000000000000000006001600160a01b03166318160ddd6040518163ffffffff1660e01b815260040160206040518083038186803b1580156117c157600080fd5b505afa1580156117d5573d6000803e3d6000fd5b505050506040513d601f19601f820116820180604052508101906117f9919061595c565b905080156118585761185361181960095483613dd290919063ffffffff16565b61184d7f00000000000000000000000000000000000000000000000000000000000000006118478787613dd2565b906142e5565b906142f1565b61185c565b600b545b935050505090565b600260015414156118875760405162461bcd60e51b815260040161099f906158d7565b60026001556001600160a01b03821660009081526012602090815260408083203384529091529020548111156118f65760405162461bcd60e51b8152602060048201526014602482015273496e73756666696369656e742042616c616e636560601b604482015260640161099f565b6001600160a01b03821660009081526012602090815260408083203384529091529020546119249082613b40565b6001600160a01b03831660009081526012602090815260408083203380855292529091209190915561195890839083613a49565b6001600160a01b0382166000908152601260209081526040808320338085529252918290205491517febff2602b3f468259e1e99f613fed6691f3a6526effe6ef3e768ba7ae7a36c4f926119b39286929091869142906159e1565b60405180910390a1505060018055565b600260015414156119e65760405162461bcd60e51b815260040161099f906158d7565b6002600155336119fe610140830161012084016154ec565b6001600160a01b031614611a6b5760405162461bcd60e51b815260206004820152602e60248201527f596f752063616e206f6e6c79206578656375746520737761707320746f20796f60448201526d7572206f776e206164647265737360901b606482015260840161099f565b604081013560126000611a8160208501856154ec565b6001600160a01b031681526020810191909152604001600090812090611aaf610140850161012086016154ec565b6001600160a01b03166001600160a01b03168152602001908152602001600020541015611aee5760405162461bcd60e51b815260040161099f90615925565b6001600160a01b037f000000000000000000000000000000000000000000000000000000000000000016611b2560208301836154ec565b6001600160a01b031614611b8d5760405162461bcd60e51b815260206004820152602960248201527f66726f6d546f6b656e206d7573742062652074686520726571756972656420426044820152682a21ba103a37b5b2b760b91b606482015260840161099f565b611b96816142fd565b611bfd604082013560126000611baf60208601866154ec565b6001600160a01b031681526020810191909152604001600090812090611bdd610140860161012087016154ec565b6001600160a01b0316815260208101919091526040016000205490613b40565b60126000611c0e60208501856154ec565b6001600160a01b031681526020810191909152604001600090812090611c3c610140850161012086016154ec565b6001600160a01b031681526020810191909152604001600020555060018055565b600080546001600160a01b03163314611c885760405162461bcd60e51b815260040161099f90615836565b6000611c92611732565b6001600160a01b03871660009081526007602052604090205490915060ff16611cba57600080fd5b61162186868686614435565b606060008060005b601154811015611d3957600f600060118381548110611cef57611cef6158a6565b60009182526020808320909101546001600160a01b0316835282019290925260400190205415611d2757611d24836001613dd2565b92505b80611d31816158bc565b915050611cce565b506000826001600160401b03811115611d5457611d54614eba565b604051908082528060200260200182016040528015611d7d578160200160208202803683370190505b50905060005b601154811015611e4957600f600060118381548110611da457611da46158a6565b60009182526020808320909101546001600160a01b0316835282019290925260400190205415611e3757600f600060118381548110611de557611de56158a6565b60009182526020808320909101546001600160a01b031683528201929092526040019020548251839085908110611e1e57611e1e6158a6565b6020908102919091010152611e34836001613dd2565b92505b80611e41816158bc565b915050611d83565b509392505050565b6000546001600160a01b03163314611e7b5760405162461bcd60e51b815260040161099f90615836565b611e856000614685565b565b60026001541415611eaa5760405162461bcd60e51b815260040161099f906158d7565b60026001556001600160a01b037f0000000000000000000000000000000000000000000000000000000000000000166000908152601260209081526040808320338452909152902054811115611eff57600080fd5b604051632e1a7d4d60e01b8152600481018290527f00000000000000000000000000000000000000000000000000000000000000006001600160a01b031690632e1a7d4d90602401600060405180830381600087803b158015611f6157600080fd5b505af1158015611f75573d6000803e3d6000fd5b5050506001600160a01b037f0000000000000000000000000000000000000000000000000000000000000000166000908152601260209081526040808320338452909152902054611fc7915082613b40565b7f00000000000000000000000000000000000000000000000000000000000000006001600160a01b03166000908152601260209081526040808320338085529252808320939093559151829084908381818185875af1925050503d806000811461204d576040519150601f19603f3d011682016040523d82523d6000602084013e612052565b606091505b50509050806120a35760405162461bcd60e51b815260206004820152601e60248201527f72656365697665722072656a656374656420455448207472616e736665720000604482015260640161099f565b6001600160a01b037f0000000000000000000000000000000000000000000000000000000000000000166000908152601260209081526040808320338085529252918290205491517febff2602b3f468259e1e99f613fed6691f3a6526effe6ef3e768ba7ae7a36c4f926121329273eeeeeeeeeeeeeeeeeeeeeeeeeeeeeeeeeeeeeeee929091889142906159e1565b60405180910390a150506001805550565b600080546001600160a01b0316331461216e5760405162461bcd60e51b815260040161099f90615836565b6001600160a01b03861660009081526007602052604090205460ff1661219357600080fd5b6001600160a01b0386166121a657600080fd5b600084156121df576121da60007f000000000000000000000000000000000000000000000000000000000000000087613746565b612207565b8461220757507f00000000000000000000000000000000000000000000000000000000000000005b7f00000000000000000000000000000000000000000000000000000000000000006001600160a01b0316876001600160a01b0316141561226457507f00000000000000000000000000000000000000000000000000000000000000005b61226e8185613833565b612277836139e1565b60005b8651811015610dee576122cf88888381518110612299576122996158a6565b602002602001015160001c8984815181106122b6576122b66158a6565b602002602001015160a01c6001600160601b0316613a49565b806122d9816158bc565b91505061227a565b600080546001600160a01b0316331461230c5760405162461bcd60e51b815260040161099f90615836565b8361231657600080fd5b8261232057600080fd5b61234c60007f000000000000000000000000000000000000000000000000000000000000000086613746565b6001600160a01b037f0000000000000000000000000000000000000000000000000000000000000000811660009081526012602090815260408083209389168352929052205461239c9085613dd2565b6001600160a01b037f000000000000000000000000000000000000000000000000000000000000000081166000908152601260209081526040808320938a168352929052908120919091556123f19084613833565b6123fa826139e1565b506001949350505050565b60006002600154141561242a5760405162461bcd60e51b815260040161099f906158d7565b60026001556001600160a01b037f00000000000000000000000000000000000000000000000000000000000000001661246660208401846154ec565b6001600160a01b031614156124bd5760405162461bcd60e51b815260206004820152601c60248201527f4d757374206e6f7420737761702066726f6d2042544320746f6b656e00000000604482015260640161099f565b6001600160a01b037f0000000000000000000000000000000000000000000000000000000000000000166124f760408401602085016154ec565b6001600160a01b0316146125465760405162461bcd60e51b815260206004820152601660248201527526bab9ba1039bbb0b8103a3790212a21903a37b5b2b760511b604482015260640161099f565b30612559610140840161012085016154ec565b6001600160a01b0316146125b95760405162461bcd60e51b815260206004820152602160248201527f42656e6566696369617279206d757374206265207468697320636f6e747261636044820152601d60fa1b606482015260840161099f565b6040820135601260006125cf60208601866154ec565b6001600160a01b031681526020808201929092526040908101600090812033825290925290205410156126145760405162461bcd60e51b815260040161099f90615925565b600061262660408401602085016154ec565b6040516370a0823160e01b81523060048201526001600160a01b0391909116906370a082319060240160206040518083038186803b15801561266757600080fd5b505afa15801561267b573d6000803e3d6000fd5b505050506040513d601f19601f8201168201806040525081019061269f919061595c565b90506126e76040840135601260006126ba60208801886154ec565b6001600160a01b031681526020808201929092526040908101600090812033825290925290205490613b40565b601260006126f860208701876154ec565b6001600160a01b0316815260208082019290925260409081016000908120338252909252902055612728836142fd565b61276a8161273c60408601602087016154ec565b6040516370a0823160e01b81523060048201526001600160a01b0391909116906370a082319060240161114d565b915082608001358210156127905760405162461bcd60e51b815260040161099f90615975565b6003548210156127b25760405162461bcd60e51b815260040161099f90615a12565b6127bd8585846146d5565b50600180559392505050565b600080546001600160a01b031633146127f45760405162461bcd60e51b815260040161099f90615836565b6001600160a01b0386161561280857600080fd5b7f0000000000000000000000000000000000000000000000000000000000000000851561287c57600061283f8661119d8988613b40565b90506128767f00000000000000000000000000000000000000000000000000000000000000006000612871848a613dd2565b613746565b50612885565b85612885575060005b61288f8185613833565b82156128b6576128b660008052600d602052600080516020615f6883398151915254600c55565b5060019695505050505050565b600080546001600160a01b031633146128ee5760405162461bcd60e51b815260040161099f90615836565b836128f857600080fd5b8261290257600080fd5b61292e60007f000000000000000000000000000000000000000000000000000000000000000086613746565b612939600084613833565b612942826139e1565b60005b8551811015612a8f57612a0a868281518110612963576129636158a6565b602002602001015160a01c6001600160601b0316601260007f00000000000000000000000000000000000000000000000000000000000000006001600160a01b03166001600160a01b0316815260200190815260200160002060008985815181106129d0576129d06158a6565b602002602001015160001c6001600160a01b03166001600160a01b0316815260200190815260200160002054613dd290919063ffffffff16565b6001600160a01b037f00000000000000000000000000000000000000000000000000000000000000001660009081526012602052604081208851909190899085908110612a5957612a596158a6565b6020908102919091018101516001600160a01b031682528101919091526040016000205580612a87816158bc565b915050612945565b50600195945050505050565b600080546001600160a01b03163314612ac65760405162461bcd60e51b815260040161099f90615836565b6000828152600e602052604090205460ff1615612af55760405162461bcd60e51b815260040161099f90615a66565b60008052600d602052600080516020615f6883398151915254612b189084613b40565b60008052600d602052600080516020615f6883398151915255612b3a82614861565b5060015b92915050565b60026001541415612b675760405162461bcd60e51b815260040161099f906158d7565b600260015534612d91576001600160a01b03821673eeeeeeeeeeeeeeeeeeeeeeeeeeeeeeeeeeeeeeee1415612b9b57600080fd5b7f00000000000000000000000000000000000000000000000000000000000000006001600160a01b0316826001600160a01b03161415612bda57600080fd5b6040516370a0823160e01b81523060048201526000906001600160a01b038416906370a082319060240160206040518083038186803b158015612c1c57600080fd5b505afa158015612c30573d6000803e3d6000fd5b505050506040513d601f19601f82011682018060405250810190612c54919061595c565b9050612c6b6001600160a01b03841633308561487c565b6040516370a0823160e01b81523060048201526000906001600160a01b038516906370a082319060240160206040518083038186803b158015612cad57600080fd5b505afa158015612cc1573d6000803e3d6000fd5b505050506040513d601f19601f82011682018060405250810190612ce5919061595c565b90506000612cf38284613b40565b6001600160a01b0386166000908152601260209081526040808320338452909152902054909150612d249082613dd2565b6001600160a01b03861660009081526012602090815260408083203380855292529182902083905590517f4e2ca0515ed1aef1395f66b5303bb5d6f1bf9d61a353fa53f73f8ac9973fa9f692612d819289929091869142906159e1565b60405180910390a1505050612ef2565b60003411612d9e57600080fd5b7f00000000000000000000000000000000000000000000000000000000000000006001600160a01b031663d0e30db0346040518263ffffffff1660e01b81526004016000604051808303818588803b158015612df957600080fd5b505af1158015612e0d573d6000803e3d6000fd5b5050506001600160a01b037f0000000000000000000000000000000000000000000000000000000000000000166000908152601260209081526040808320338452909152902054612e619250905034613dd2565b7f00000000000000000000000000000000000000000000000000000000000000006001600160a01b031660009081526012602090815260408083203380855292529182902083905590517f4e2ca0515ed1aef1395f66b5303bb5d6f1bf9d61a353fa53f73f8ac9973fa9f6926119b39273eeeeeeeeeeeeeeeeeeeeeeeeeeeeeeeeeeeeeeee929091349142906159e1565b505060018055565b6001600160a01b0381166000908152600f602052604081205460a081901c5b9392505050565b600060026001541415612f455760405162461bcd60e51b815260040161099f906158d7565b6002600155600083838281612f5c57612f5c6158a6565b9050602002016020810190612f7191906154ec565b905060008484612f8260018261590e565b818110612f9157612f916158a6565b9050602002016020810190612fa691906154ec565b6001600160a01b0383166000908152601260209081526040808320338452909152902054909150871115612fec5760405162461bcd60e51b815260040161099f90615925565b7f00000000000000000000000000000000000000000000000000000000000000006001600160a01b0316826001600160a01b031614156130695760405162461bcd60e51b815260206004820152601860248201527726bab9ba1039bbb0b810333937b690212a21903a37b5b2b760411b604482015260640161099f565b6001600160a01b03821673eeeeeeeeeeeeeeeeeeeeeeeeeeeeeeeeeeeeeeee14156130ce5760405162461bcd60e51b815260206004820152601560248201527455736520706174682077455448202d3e207742544360581b604482015260640161099f565b7f00000000000000000000000000000000000000000000000000000000000000006001600160a01b0316816001600160a01b0316146131485760405162461bcd60e51b815260206004820152601660248201527526bab9ba1039bbb0b8103a3790212a21903a37b5b2b760511b604482015260640161099f565b6040516370a0823160e01b81523060048201526000906001600160a01b038316906370a082319060240160206040518083038186803b15801561318a57600080fd5b505afa15801561319e573d6000803e3d6000fd5b505050506040513d601f19601f820116820180604052508101906131c2919061595c565b6001600160a01b03841660009081526012602090815260408083203384529091529020549091506131f39089613b40565b6001600160a01b03841660009081526012602090815260408083203384529091529020558a156132305761322b8a8a8a8a8a8a613b4c565b61323c565b61323c88888888613c92565b6040516370a0823160e01b815230600482015261326e9082906001600160a01b038516906370a082319060240161114d565b9350868410156132905760405162461bcd60e51b815260040161099f90615975565b6003548410156132b25760405162461bcd60e51b815260040161099f90615a12565b6132bd8d8d866146d5565b505050600180559998505050505050505050565b6000806132eb600a54600954613dd290919063ffffffff16565b9050600081116132fa57600080fd5b6000613304611cc6565b90506000805b825181101561335f5761334b838281518110613328576133286158a6565b602002602001015160a01c6001600160601b031683613dd290919063ffffffff16565b915080613357816158bc565b91505061330a565b506009546040516340c10f1960e01b815230600482015260248101919091527f00000000000000000000000000000000000000000000000000000000000000006001600160a01b0316906340c10f1990604401602060405180830381600087803b1580156133cc57600080fd5b505af11580156133e0573d6000803e3d6000fd5b505050506040513d601f19601f820116820180604052508101906134049190615a9d565b5060005b825181101561352a577f00000000000000000000000000000000000000000000000000000000000000006001600160a01b031663a9059cbb848381518110613452576134526158a6565b602002602001015160001c6134998561184d888781518110613476576134766158a6565b602002602001015160a01c6001600160601b03168a6142e590919063ffffffff16565b6040516001600160e01b031960e085901b1681526001600160a01b0390921660048301526024820152604401602060405180830381600087803b1580156134df57600080fd5b505af11580156134f3573d6000803e3d6000fd5b505050506040513d601f19601f820116820180604052508101906135179190615a9d565b5080613522816158bc565b915050613408565b506040518381527f86dd6ae252e62228b47b3c1a12762cbf634952b2d29319b04f4f72fb153bcbdd9060200160405180910390a1505060006009819055600a55506001919050565b6001600160a01b039182166000908152600d60205260408082205492909316815291909120549091565b6000546001600160a01b031633146135c65760405162461bcd60e51b815260040161099f90615836565b6001600160a01b03811661362b5760405162461bcd60e51b815260206004820152602660248201527f4f776e61626c653a206e6577206f776e657220697320746865207a65726f206160448201526564647265737360d01b606482015260840161099f565b61363481614685565b50565b6002819055604080518281524260208201527fa1cc12e33e9907b789fd3c10ea0afd9d3e563e2db44d84c7269534f1046d1ca1910160405180910390a150565b600081156136a057506001600160a01b0383166000908152600f60205260408120556001612f19565b6001600160a01b03841660009081526010602052604090205460ff16613724576011805460018082019092557f31ecc21a745e3968a04e9570e4425bc18fa8019c68028196b546d1669c200c680180546001600160a01b0319166001600160a01b0387169081179091556000908152601060205260409020805460ff191690911790555b50506001600160a01b03919091166000908152600f6020526040902055600190565b60408051808201825260208082527f5f737761703a20666c6f617420616d6f756e7420696e73756666696369656e74818301526001600160a01b0385166000908152600d909152919091205461379d9183906148e7565b6001600160a01b038084166000908152600d602052604080822093909355908516815220546137cc9082613dd2565b6001600160a01b038481166000818152600d60209081526040918290209490945580519182529185169281019290925281018290527fea368a40e9570069bb8e6511d668293ad2e1f03b0d982431fd223de9f3b70ca69060600160405180910390a1505050565b8061383c575050565b7f00000000000000000000000000000000000000000000000000000000000000006001600160a01b0316826001600160a01b031614156138da57600a546138839082613dd2565b600a55604080516001600160a01b0384168152602081018390526000818301819052606082015290517fe3debe835f6848edc082b32a1d729781d3bfcd7e14422d80bcaa6794d3816b2f9181900360800190a15050565b60006138e4611732565b6001600160a01b0384166000908152600d602052604090205490915061390a9083613dd2565b6001600160a01b0384166000908152600d60205260408120919091556008546139449060649061184d90869062010000900460ff166142e5565b905060006139768361184d847f00000000000000000000000000000000000000000000000000000000000000006142e5565b6009549091506139869082613dd2565b600955604080516001600160a01b038716815260208101869052908101829052606081018490527fe3debe835f6848edc082b32a1d729781d3bfcd7e14422d80bcaa6794d3816b2f9060800160405180910390a15050505050565b60005b8151811015613a45576001600e6000848481518110613a0557613a056158a6565b6020026020010151815260200190815260200160002060006101000a81548160ff0219169083151502179055508080613a3d906158bc565b9150506139e4565b5050565b7f00000000000000000000000000000000000000000000000000000000000000006001600160a01b0316836001600160a01b03161415613ab057613aad817f00000000000000000000000000000000000000000000000000000000000000006142e5565b90505b60405163a9059cbb60e01b81526001600160a01b0383811660048301526024820183905284169063a9059cbb90604401602060405180830381600087803b158015613afa57600080fd5b505af1158015613b0e573d6000803e3d6000fd5b505050506040513d601f19601f82011682018060405250810190613b329190615a9d565b613b3b57600080fd5b505050565b6000612f19828461590e565b600082826000818110613b6157613b616158a6565b9050602002016020810190613b7691906154ec565b9050600073def171fe48cf0115b1d80b88dc8eab59176fee576001600160a01b031663d2c4b5986040518163ffffffff1660e01b815260040160206040518083038186803b158015613bc757600080fd5b505afa158015613bdb573d6000803e3d6000fd5b505050506040513d601f19601f82011682018060405250810190613bff9190615aba565b9050613c156001600160a01b0383168288614913565b604051633d59840d60e21b815273def171fe48cf0115b1d80b88dc8eab59176fee579063f566103490613c56908b908b908b908b908b908b90600401615b20565b600060405180830381600087803b158015613c7057600080fd5b505af1158015613c84573d6000803e3d6000fd5b505050505050505050505050565b600082826000818110613ca757613ca76158a6565b9050602002016020810190613cbc91906154ec565b9050600073def171fe48cf0115b1d80b88dc8eab59176fee576001600160a01b031663d2c4b5986040518163ffffffff1660e01b815260040160206040518083038186803b158015613d0d57600080fd5b505afa158015613d21573d6000803e3d6000fd5b505050506040513d601f19601f82011682018060405250810190613d459190615aba565b9050613d5b6001600160a01b0383168288614913565b604051632a42068d60e11b815273def171fe48cf0115b1d80b88dc8eab59176fee57906354840d1a90613d98908990899089908990600401615b60565b600060405180830381600087803b158015613db257600080fd5b505af1158015613dc6573d6000803e3d6000fd5b50505050505050505050565b6000612f198284615b8a565b6000818152600e602052604081205460ff1615613e0d5760405162461bcd60e51b815260040161099f90615a66565b83613e5a5760405162461bcd60e51b815260206004820152601c60248201527f546865207472616e73616374696f6e206973206e6f742076616c696400000000604482015260640161099f565b8360a081901c6000613e6a611732565b90506000613e9c7f000000000000000000000000000000000000000000000000000000000000000061184d85856142e5565b600854909150600090613ec3906127109061184d908590640100000000900460ff166142e5565b905087613ed08383613b40565b1015613f3b5760405162461bcd60e51b815260206004820152603460248201527f4572726f723a20616d6f756e744f66466c6f61742e737562287769746864726160448201527377616c4665657329203c205f6d696e657246656560601b606482015260840161099f565b6000613f4b8961119d8585613b40565b9050600080613f7b60007f0000000000000000000000000000000000000000000000000000000000000000613572565b90925090506001600160a01b038d16613fec57613f988585613b40565b821015613fe75760405162461bcd60e51b815260206004820152601f60248201527f54686520666c6f61742062616c616e636520696e73756666696369656e742e00604482015260640161099f565b61407f565b7f00000000000000000000000000000000000000000000000000000000000000006001600160a01b03168d6001600160a01b0316141561407f576140308585613b40565b81101561407f5760405162461bcd60e51b815260206004820152601f60248201527f54686520666c6f61742062616c616e636520696e73756666696369656e742e00604482015260640161099f565b6140898d85613833565b6140938d866149d4565b61409c8a614861565b7f00000000000000000000000000000000000000000000000000000000000000006001600160a01b03168d6001600160a01b031614156140e1576140e18d8985613a49565b604051630852cd8d60e31b8152600481018890527f00000000000000000000000000000000000000000000000000000000000000006001600160a01b0316906342966c6890602401602060405180830381600087803b15801561414357600080fd5b505af1158015614157573d6000803e3d6000fd5b505050506040513d601f19601f8201168201806040525081019061417b9190615a9d565b61418457600080fd5b604080516001600160a01b038a16815260208101899052908101869052606081018790526080810184905260a081018b90527fa9da34e5e4a956b744307ae7611795634e8365951073bf049d76b64b2ae7a0589060c00160405180910390a15060019c9b505050505050505050505050565b600080600061422660007f0000000000000000000000000000000000000000000000000000000000000000613572565b9092509050600061424b600361184d6002611847896142458989613dd2565b90613dd2565b90507f00000000000000000000000000000000000000000000000000000000000000006001600160a01b0316866001600160a01b03161480156142975750806142948387613dd2565b10155b156142a85760019350505050612b3e565b6001600160a01b0386161580156142c85750806142c58487613dd2565b10155b156142d95760029350505050612b3e565b50600095945050505050565b6000612f198284615ba2565b6000612f198284615bc1565b600073def171fe48cf0115b1d80b88dc8eab59176fee576001600160a01b031663d2c4b5986040518163ffffffff1660e01b815260040160206040518083038186803b15801561434c57600080fd5b505afa158015614360573d6000803e3d6000fd5b505050506040513d601f19601f820116820180604052508101906143849190615aba565b90506143ac81604084013561439c60208601866154ec565b6001600160a01b03169190614913565b6040516354e3f31b60e01b815273def171fe48cf0115b1d80b88dc8eab59176fee57906354e3f31b906143e3908590600401615ce7565b602060405180830381600087803b1580156143fd57600080fd5b505af1158015614411573d6000803e3d6000fd5b505050506040513d601f19601f82011682018060405250810190613b3b919061595c565b6000818152600e602052604081205460ff16156144645760405162461bcd60e51b815260040161099f90615a66565b836144b15760405162461bcd60e51b815260206004820152601c60248201527f546865207472616e73616374696f6e206973206e6f742076616c696400000000604482015260640161099f565b8360a081901c60006144c1611732565b905060006144f38261184d857f00000000000000000000000000000000000000000000000000000000000000006142e5565b905060006145018a85611682565b9050600081614511576000614521565b61452161271061184d85856142e5565b905088801561452f57508015155b1561453957600080fd5b6001600160a01b037f0000000000000000000000000000000000000000000000000000000000000000166340c10f19876145738685613b40565b6040516001600160e01b031960e085901b1681526001600160a01b0390921660048301526024820152604401602060405180830381600087803b1580156145b957600080fd5b505af11580156145cd573d6000803e3d6000fd5b505050506040513d601f19601f820116820180604052508101906145f19190615a9d565b506009546145ff9082613dd2565b60095561460c8b86614a31565b61461588614861565b604080516001600160a01b038816815260208101879052908101849052606081018590526080810182905260a081018990527fdfaf4e23f7030adafec91a682e05bf9fb30c721f9cec3d8bcfae0459c5362db19060c00160405180910390a15060019a9950505050505050505050565b600080546001600160a01b038381166001600160a01b0319831681178455604051919092169283917f8be0079c531659141344cd1fd0a4f28419497f9722a3daafe3b4186f6b6457e09190a35050565b60007f00000000000000000000000000000000000000000000000000000000000000006005548585854260405160200161471496959493929190615e9d565b6040516020818303038152906040528051906020012090506040518060a0016040528082815260200185858080601f0160208091040260200160405190810160405280939291908181526020018383808284376000920182905250938552505033602080850191909152604080850188905242606090950194909452600554835260048152929091208351815583830151805191936147bb93506001850192910190614de6565b5060408201516002820180546001600160a01b0319166001600160a01b0390921691909117905560608201516003820155608090910151600490910155614800614a54565b60055461480e906001613dd2565b60055561481a82614b0d565b7faaa4c278970337923c885845b00985ecf5082317e2f9abf72a27b4d35255d67281858533864260405161485396959493929190615ed4565b60405180910390a150505050565b6000908152600e60205260409020805460ff19166001179055565b6040516001600160a01b03808516602483015283166044820152606481018290526115b29085906323b872dd60e01b906084015b60408051601f198184030181529190526020810180516001600160e01b03166001600160e01b031990931692909217909152614b62565b6000818484111561490b5760405162461bcd60e51b815260040161099f9190615f15565b505050900390565b604051636eb1769f60e11b81523060048201526001600160a01b038381166024830152600091839186169063dd62ed3e9060440160206040518083038186803b15801561495f57600080fd5b505afa158015614973573d6000803e3d6000fd5b505050506040513d601f19601f82011682018060405250810190614997919061595c565b6149a19190615b8a565b6040516001600160a01b0385166024820152604481018290529091506115b290859063095ea7b360e01b906064016148b0565b614a1181604051806060016040528060278152602001615f88602791396001600160a01b0385166000908152600d602052604090205491906148e7565b6001600160a01b039092166000908152600d602052604090209190915550565b6001600160a01b0382166000908152600d6020526040902054614a119082613dd2565b600654600090614a6590600a613dd2565b90506005548110614a7557506005545b60065442905b82811015613b3b57600254600082815260046020819052604090912001548391614aa59190613dd2565b1015614afb57600081815260046020526040812081815590614aca6001830182614dac565b506002810180546001600160a01b0319169055600060038201819055600490910155614af7816001613dd2565b6006555b80614b05816158bc565b915050614a7b565b600c54614b3557614b3560008052600d602052600080516020615f6883398151915254600c55565b614b5c81604051806060016040528060238152602001615f4560239139600c5491906148e7565b600c5550565b6000614bb7826040518060400160405280602081526020017f5361666545524332303a206c6f772d6c6576656c2063616c6c206661696c6564815250856001600160a01b0316614c349092919063ffffffff16565b805190915015613b3b5780806020019051810190614bd59190615a9d565b613b3b5760405162461bcd60e51b815260206004820152602a60248201527f5361666545524332303a204552433230206f7065726174696f6e20646964206e6044820152691bdd081cdd58d8d9595960b21b606482015260840161099f565b6060614c438484600085614c4b565b949350505050565b606082471015614cac5760405162461bcd60e51b815260206004820152602660248201527f416464726573733a20696e73756666696369656e742062616c616e636520666f6044820152651c8818d85b1b60d21b606482015260840161099f565b843b614cfa5760405162461bcd60e51b815260206004820152601d60248201527f416464726573733a2063616c6c20746f206e6f6e2d636f6e7472616374000000604482015260640161099f565b600080866001600160a01b03168587604051614d169190615f28565b60006040518083038185875af1925050503d8060008114614d53576040519150601f19603f3d011682016040523d82523d6000602084013e614d58565b606091505b5091509150614d68828286614d73565b979650505050505050565b60608315614d82575081612f19565b825115614d925782518084602001fd5b8160405162461bcd60e51b815260040161099f9190615f15565b508054614db8906159ac565b6000825580601f10614dc8575050565b601f0160209004906000526020600020908101906136349190614e6a565b828054614df2906159ac565b90600052602060002090601f016020900481019282614e145760008555614e5a565b82601f10614e2d57805160ff1916838001178555614e5a565b82800160010185558215614e5a579182015b82811115614e5a578251825591602001919060010190614e3f565b50614e66929150614e6a565b5090565b5b80821115614e665760008155600101614e6b565b634e487b7160e01b600052600160045260246000fd5b6001600160a01b038116811461363457600080fd5b8035614eb581614e95565b919050565b634e487b7160e01b600052604160045260246000fd5b604051601f8201601f191681016001600160401b0381118282101715614ef857614ef8614eba565b604052919050565b60006001600160401b03821115614f1957614f19614eba565b5060051b60200190565b600082601f830112614f3457600080fd5b81356020614f49614f4483614f00565b614ed0565b82815260059290921b84018101918181019086841115614f6857600080fd5b8286015b84811015614f835780358352918301918301614f6c565b509695505050505050565b801515811461363457600080fd5b803560ff81168114614eb557600080fd5b60008060008060008060008060006101208a8c031215614fcc57600080fd5b8935614fd781614e95565b985060208a8101356001600160401b0380821115614ff457600080fd5b6150008e838f01614f23565b9a5060408d013591508082111561501657600080fd5b508b01601f81018d1361502857600080fd5b8035615036614f4482614f00565b81815260059190911b8201830190838101908f83111561505557600080fd5b928401925b8284101561507c57833561506d81614f8e565b8252928401929084019061505a565b809b50505050505061509060608b01614f9c565b955061509e60808b01614f9c565b94506150ac60a08b01614f9c565b93506150ba60c08b01614f9c565b925060e08a013591506101008a013590509295985092959850929598565b60008060008060008060c087890312156150f157600080fd5b86356150fc81614e95565b9550602087013561510c81614e95565b945060408701359350606087013592506080870135915060a08701356001600160401b0381111561513c57600080fd5b61514889828a01614f23565b9150509295509295509295565b60008083601f84011261516757600080fd5b5081356001600160401b0381111561517e57600080fd5b6020830191508360208260051b850101111561519957600080fd5b9250929050565b600080600080600080600060c0888a0312156151bb57600080fd5b87356151c681614f8e565b965060208801356151d681614e95565b955060408801359450606088013593506080880135925060a08801356001600160401b0381111561520657600080fd5b6152128a828b01615155565b989b979a50959850939692959293505050565b60006020828403121561523757600080fd5b5035919050565b60005b83811015615259578181015183820152602001615241565b838111156115b25750506000910152565b6000815180845261528281602086016020860161523e565b601f01601f19169290920160200192915050565b85815260a0602082015260006152af60a083018761526a565b6001600160a01b0395909516604083015250606081019290925260809091015292915050565b60006020808301818452808551808352604092508286019150828160051b87010184880160005b8381101561536557603f19898403018552815160a08151855288820151818a87015261532a8287018261526a565b838a01516001600160a01b0316878b0152606080850151908801526080938401519390960192909252505093860193908601906001016152fc565b509098975050505050505050565b6000806000806080858703121561538957600080fd5b843561539481614e95565b966020860135965060408601359560600135945092505050565b600080604083850312156153c157600080fd5b82356153cc81614e95565b946020939093013593505050565b600080604083850312156153ed57600080fd5b82356153f881614e95565b9150602083013561540881614e95565b809150509250929050565b60006101e0828403121561542657600080fd5b50919050565b60006020828403121561543e57600080fd5b81356001600160401b0381111561545457600080fd5b614c4384828501615413565b6000806000806080858703121561547657600080fd5b843561548181614e95565b935060208501359250604085013561549881614f8e565b9396929550929360600135925050565b6020808252825182820181905260009190848201906040850190845b818110156154e0578351835292840192918401916001016154c4565b50909695505050505050565b6000602082840312156154fe57600080fd5b8135612f1981614e95565b600080600080600060a0868803121561552157600080fd5b853561552c81614e95565b945060208601356001600160401b038082111561554857600080fd5b61555489838a01614f23565b95506040880135945060608801359350608088013591508082111561557857600080fd5b5061558588828901614f23565b9150509295509295909350565b600080600080608085870312156155a857600080fd5b84356155b381614e95565b9350602085013592506040850135915060608501356001600160401b038111156155dc57600080fd5b6155e887828801614f23565b91505092959194509250565b60008083601f84011261560657600080fd5b5081356001600160401b0381111561561d57600080fd5b60208301915083602082850101111561519957600080fd5b60008060006040848603121561564a57600080fd5b83356001600160401b038082111561566157600080fd5b61566d878388016155f4565b9095509350602086013591508082111561568657600080fd5b5061569386828701615413565b9150509250925092565b600080600080600060a086880312156156b557600080fd5b85356156c081614e95565b945060208601359350604086013592506060860135915060808601356156e581614f8e565b809150509295509295909350565b6000806000806080858703121561570957600080fd5b84356001600160401b038082111561572057600080fd5b61572c88838901614f23565b95506020870135945060408701359350606087013591508082111561575057600080fd5b506155e887828801614f23565b6000806040838503121561577057600080fd5b50508035926020909101359150565b600080600080600080600080600060e08a8c03121561579d57600080fd5b89356001600160401b03808211156157b457600080fd5b6157c08d838e016155f4565b909b50995060208c013591506157d582614f8e565b90975060408b0135906157e782614e95565b90965060608b0135955060808b0135945060a08b0135935060c08b0135908082111561581257600080fd5b5061581f8c828d01615155565b915080935050809150509295985092959850929598565b6020808252818101527f4f776e61626c653a2063616c6c6572206973206e6f7420746865206f776e6572604082015260600190565b634e487b7160e01b600052601160045260246000fd5b600060ff821660ff84168060ff0382111561589e5761589e61586b565b019392505050565b634e487b7160e01b600052603260045260246000fd5b60006000198214156158d0576158d061586b565b5060010190565b6020808252601f908201527f5265656e7472616e637947756172643a207265656e7472616e742063616c6c00604082015260600190565b6000828210156159205761592061586b565b500390565b60208082526019908201527f42616c616e6365206973206e6f742073756666696369656e7400000000000000604082015260600190565b60006020828403121561596e57600080fd5b5051919050565b6020808252601c908201527f526563656976656420616d6f756e7420696e73756666696369656e7400000000604082015260600190565b600181811c908216806159c057607f821691505b6020821081141561542657634e487b7160e01b600052602260045260246000fd5b6001600160a01b03958616815293909416602084015260408301919091526060820152608081019190915260a00190565b60208082526034908201527f526563656976656420616d6f756e7420686173206e6f74206d657420746865206040820152736d696e20666f7220464c4f57203220737761707360601b606082015260800190565b60208082526018908201527f546865207478696420697320616c726561647920757365640000000000000000604082015260600190565b600060208284031215615aaf57600080fd5b8151612f1981614f8e565b600060208284031215615acc57600080fd5b8151612f1981614e95565b8183526000602080850194508260005b85811015615b15578135615afa81614e95565b6001600160a01b031687529582019590820190600101615ae7565b509495945050505050565b60018060a01b038716815285602082015284604082015283606082015260a060808201526000615b5460a083018486615ad7565b98975050505050505050565b848152836020820152606060408201526000615b80606083018486615ad7565b9695505050505050565b60008219821115615b9d57615b9d61586b565b500190565b6000816000190483118215151615615bbc57615bbc61586b565b500290565b600082615bde57634e487b7160e01b600052601260045260246000fd5b500490565b6000808335601e19843603018112615bfa57600080fd5b83016020810192503590506001600160401b03811115615c1957600080fd5b8060051b360383131561519957600080fd5b6000808335601e19843603018112615c4257600080fd5b83016020810192503590506001600160401b03811115615c6157600080fd5b80360383131561519957600080fd5b81835281816020850137506000828201602090810191909152601f909101601f19169091010190565b81835260006001600160fb1b03831115615cb257600080fd5b8260051b8083602087013760009401602001938452509192915050565b80356001600160801b031981168114614eb557600080fd5b60208152615d0860208201615cfb84614eaa565b6001600160a01b03169052565b6000615d1660208401614eaa565b6001600160a01b0381166040840152506040830135606083015260608301356080830152608083013560a0830152615d5160a0840184615be3565b6101e08060c0860152615d6961020086018385615ad7565b9250615d7860c0870187615c2b565b9250601f19808786030160e0880152615d92858584615c70565b9450615da160e0890189615be3565b94509150610100818887030181890152615dbc868685615c99565b9550615dca818a018a615be3565b9550925050610120818887030181890152615de6868685615c99565b9550615df3818a01614eaa565b9450506101409150615e0f828801856001600160a01b03169052565b615e1a828901614eaa565b93506101609150615e35828801856001600160a01b03169052565b61018093508188013584880152615e4e84890189615c2b565b945091506101a0818887030181890152615e69868685615c70565b95506101c094508089013585890152505050615e86828701615ccf565b6001600160801b0319169401939093529392505050565b6001600160601b03198760601b16815285601482015283856034830137603493019283019190915260548201526074019392505050565b86815260a060208201526000615eee60a083018789615c70565b6001600160a01b039590951660408301525060608101929092526080909101529392505050565b602081526000612f19602083018461526a565b60008251615f3a81846020870161523e565b919091019291505056fe696e73756666696369656e742042544320666c6f61747320666f72205350466c6f773281955a0a11e65eac625c29e8882660bae4e165a75d72780094acae8ece9a29ee5f72656d6f7665466c6f61743a20666c6f617420616d6f756e7420696e73756666696369656e74a26469706673582212207dcc04e488d56e08c6f2049a61692ec6c9c320b2c7d9c707e4ffff30efaf1e9864736f6c63430008090033",
  "linkReferences": {},
  "deployedLinkReferences": {}
}