{
  "_format": "hh-sol-artifact-1",
  "contractName": "SwapContract",
  "sourceName": "contracts/SwapContract.sol",
  "abi": [
    {
      "inputs": [
        {
          "internalType": "address",
          "name": "_lpToken",
          "type": "address"
        },
        {
          "internalType": "address",
          "name": "_btct",
          "type": "address"
        },
        {
          "internalType": "uint256",
          "name": "_existingBTCFloat",
          "type": "uint256"
        }
      ],
      "stateMutability": "nonpayable",
      "type": "constructor"
    },
    {
      "anonymous": false,
      "inputs": [
        {
          "indexed": false,
          "internalType": "address",
          "name": "token",
          "type": "address"
        },
        {
          "indexed": false,
          "internalType": "uint256",
          "name": "amountOfLP",
          "type": "uint256"
        },
        {
          "indexed": false,
          "internalType": "uint256",
          "name": "amountOfFloat",
          "type": "uint256"
        },
        {
          "indexed": false,
          "internalType": "uint256",
          "name": "currentPriceLP",
          "type": "uint256"
        },
        {
          "indexed": false,
          "internalType": "uint256",
          "name": "withdrawal",
          "type": "uint256"
        },
        {
          "indexed": false,
          "internalType": "bytes32",
          "name": "txid",
          "type": "bytes32"
        }
      ],
      "name": "BurnLPTokensForFloat",
      "type": "event"
    },
    {
      "anonymous": false,
      "inputs": [
        {
          "indexed": false,
          "internalType": "uint256",
          "name": "rewardLPTsForNodes",
          "type": "uint256"
        }
      ],
      "name": "DistributeNodeRewards",
      "type": "event"
    },
    {
      "anonymous": false,
      "inputs": [
        {
          "indexed": false,
          "internalType": "address",
          "name": "to",
          "type": "address"
        },
        {
          "indexed": false,
          "internalType": "uint256",
          "name": "amountOfFloat",
          "type": "uint256"
        },
        {
          "indexed": false,
          "internalType": "uint256",
          "name": "amountOfLP",
          "type": "uint256"
        },
        {
          "indexed": false,
          "internalType": "uint256",
          "name": "currentPriceLP",
          "type": "uint256"
        },
        {
          "indexed": false,
          "internalType": "uint256",
          "name": "depositFees",
          "type": "uint256"
        },
        {
          "indexed": false,
          "internalType": "bytes32",
          "name": "txid",
          "type": "bytes32"
        }
      ],
      "name": "IssueLPTokensForFloat",
      "type": "event"
    },
    {
      "anonymous": false,
      "inputs": [
        {
          "indexed": true,
          "internalType": "address",
          "name": "previousOwner",
          "type": "address"
        },
        {
          "indexed": true,
          "internalType": "address",
          "name": "newOwner",
          "type": "address"
        }
      ],
      "name": "OwnershipTransferred",
      "type": "event"
    },
    {
      "anonymous": false,
      "inputs": [
        {
          "indexed": false,
          "internalType": "address",
          "name": "feesToken",
          "type": "address"
        },
        {
          "indexed": false,
          "internalType": "uint256",
          "name": "rewards",
          "type": "uint256"
        },
        {
          "indexed": false,
          "internalType": "uint256",
          "name": "amountLPTokensForNode",
          "type": "uint256"
        },
        {
          "indexed": false,
          "internalType": "uint256",
          "name": "currentPriceLP",
          "type": "uint256"
        }
      ],
      "name": "RewardsCollection",
      "type": "event"
    },
    {
      "anonymous": false,
      "inputs": [
        {
          "indexed": false,
          "internalType": "address",
          "name": "from",
          "type": "address"
        },
        {
          "indexed": false,
          "internalType": "address",
          "name": "to",
          "type": "address"
        },
        {
          "indexed": false,
          "internalType": "uint256",
          "name": "amount",
          "type": "uint256"
        }
      ],
      "name": "Swap",
      "type": "event"
    },
    {
      "stateMutability": "nonpayable",
      "type": "fallback"
    },
    {
      "inputs": [],
      "name": "BTCT_ADDR",
      "outputs": [
        {
          "internalType": "address",
          "name": "",
          "type": "address"
        }
      ],
      "stateMutability": "view",
      "type": "function"
    },
    {
      "inputs": [
        {
          "internalType": "address",
          "name": "_token",
          "type": "address"
        }
      ],
      "name": "balanceOf",
      "outputs": [
        {
          "internalType": "uint256",
          "name": "",
          "type": "uint256"
        }
      ],
      "stateMutability": "view",
      "type": "function"
    },
    {
      "inputs": [
        {
          "internalType": "address",
          "name": "_newOwner",
          "type": "address"
        },
        {
          "internalType": "bytes32[]",
          "name": "_rewardAddressAndAmounts",
          "type": "bytes32[]"
        },
        {
          "internalType": "bool[]",
          "name": "_isRemoved",
          "type": "bool[]"
        },
        {
          "internalType": "uint8",
          "name": "_churnedInCount",
          "type": "uint8"
        },
        {
          "internalType": "uint8",
          "name": "_tssThreshold",
          "type": "uint8"
        },
        {
          "internalType": "uint8",
          "name": "_nodeRewardsRatio",
          "type": "uint8"
        },
        {
          "internalType": "uint8",
          "name": "_withdrawalFeeBPS",
          "type": "uint8"
        }
      ],
      "name": "churn",
      "outputs": [
        {
          "internalType": "bool",
          "name": "",
          "type": "bool"
        }
      ],
      "stateMutability": "nonpayable",
      "type": "function"
    },
    {
      "inputs": [],
      "name": "churnedInCount",
      "outputs": [
        {
          "internalType": "uint8",
          "name": "",
          "type": "uint8"
        }
      ],
      "stateMutability": "view",
      "type": "function"
    },
    {
      "inputs": [
        {
          "internalType": "address",
          "name": "_destToken",
          "type": "address"
        },
        {
          "internalType": "uint256",
          "name": "_incomingAmount",
          "type": "uint256"
        },
        {
          "internalType": "uint256",
          "name": "_minerFee",
          "type": "uint256"
        },
        {
          "internalType": "uint256",
          "name": "_rewardsAmount",
          "type": "uint256"
        }
      ],
      "name": "collectSwapFeesForBTC",
      "outputs": [
        {
          "internalType": "bool",
          "name": "",
          "type": "bool"
        }
      ],
      "stateMutability": "nonpayable",
      "type": "function"
    },
    {
      "inputs": [],
      "name": "depositFeesBPS",
      "outputs": [
        {
          "internalType": "uint8",
          "name": "",
          "type": "uint8"
        }
      ],
      "stateMutability": "view",
      "type": "function"
    },
    {
      "inputs": [],
      "name": "distributeNodeRewards",
      "outputs": [
        {
          "internalType": "bool",
          "name": "",
          "type": "bool"
        }
      ],
      "stateMutability": "nonpayable",
      "type": "function"
    },
    {
      "inputs": [],
      "name": "do1InchTrade",
      "outputs": [
        {
          "internalType": "bool",
          "name": "",
          "type": "bool"
        }
      ],
      "stateMutability": "nonpayable",
      "type": "function"
    },
    {
      "inputs": [],
      "name": "doParaSwap",
      "outputs": [
        {
          "internalType": "bool",
          "name": "",
          "type": "bool"
        }
      ],
      "stateMutability": "nonpayable",
      "type": "function"
    },
    {
      "inputs": [],
      "name": "feesLPTokensForNode",
      "outputs": [
        {
          "internalType": "uint256",
          "name": "",
          "type": "uint256"
        }
      ],
      "stateMutability": "view",
      "type": "function"
    },
    {
      "inputs": [],
      "name": "getActiveNodes",
      "outputs": [
        {
          "internalType": "bytes32[]",
          "name": "",
          "type": "bytes32[]"
        }
      ],
      "stateMutability": "view",
      "type": "function"
    },
    {
      "inputs": [],
      "name": "getCurrentPriceLP",
      "outputs": [
        {
          "internalType": "uint256",
          "name": "nowPrice",
          "type": "uint256"
        }
      ],
      "stateMutability": "view",
      "type": "function"
    },
    {
      "inputs": [
        {
          "internalType": "address",
          "name": "_token",
          "type": "address"
        },
        {
          "internalType": "uint256",
          "name": "_amountOfFloat",
          "type": "uint256"
        }
      ],
      "name": "getDepositFeeRate",
      "outputs": [
        {
          "internalType": "uint256",
          "name": "depositFeeRate",
          "type": "uint256"
        }
      ],
      "stateMutability": "view",
      "type": "function"
    },
    {
      "inputs": [
        {
          "internalType": "address",
          "name": "_tokenA",
          "type": "address"
        },
        {
          "internalType": "address",
          "name": "_tokenB",
          "type": "address"
        }
      ],
      "name": "getFloatReserve",
      "outputs": [
        {
          "internalType": "uint256",
          "name": "reserveA",
          "type": "uint256"
        },
        {
          "internalType": "uint256",
          "name": "reserveB",
          "type": "uint256"
        }
      ],
      "stateMutability": "view",
      "type": "function"
    },
    {
      "inputs": [],
      "name": "initialExchangeRate",
      "outputs": [
        {
          "internalType": "uint256",
          "name": "",
          "type": "uint256"
        }
      ],
      "stateMutability": "view",
      "type": "function"
    },
    {
      "inputs": [
        {
          "internalType": "bytes32",
          "name": "_txid",
          "type": "bytes32"
        }
      ],
      "name": "isTxUsed",
      "outputs": [
        {
          "internalType": "bool",
          "name": "",
          "type": "bool"
        }
      ],
      "stateMutability": "view",
      "type": "function"
    },
    {
      "inputs": [],
      "name": "lockedLPTokensForNode",
      "outputs": [
        {
          "internalType": "uint256",
          "name": "",
          "type": "uint256"
        }
      ],
      "stateMutability": "view",
      "type": "function"
    },
    {
      "inputs": [],
      "name": "lpToken",
      "outputs": [
        {
          "internalType": "address",
          "name": "",
          "type": "address"
        }
      ],
      "stateMutability": "view",
      "type": "function"
    },
    {
      "inputs": [
        {
          "internalType": "address",
          "name": "_destToken",
          "type": "address"
        },
        {
          "internalType": "bytes32[]",
          "name": "_addressesAndAmounts",
          "type": "bytes32[]"
        },
        {
          "internalType": "uint256",
          "name": "_totalSwapped",
          "type": "uint256"
        },
        {
          "internalType": "uint256",
          "name": "_rewardsAmount",
          "type": "uint256"
        },
        {
          "internalType": "bytes32[]",
          "name": "_redeemedFloatTxIds",
          "type": "bytes32[]"
        }
      ],
      "name": "multiTransferERC20TightlyPacked",
      "outputs": [
        {
          "internalType": "bool",
          "name": "",
          "type": "bool"
        }
      ],
      "stateMutability": "nonpayable",
      "type": "function"
    },
    {
      "inputs": [],
      "name": "nodeRewardsRatio",
      "outputs": [
        {
          "internalType": "uint8",
          "name": "",
          "type": "uint8"
        }
      ],
      "stateMutability": "view",
      "type": "function"
    },
    {
      "inputs": [],
      "name": "owner",
      "outputs": [
        {
          "internalType": "address",
          "name": "",
          "type": "address"
        }
      ],
      "stateMutability": "view",
      "type": "function"
    },
    {
      "inputs": [
        {
          "internalType": "address",
          "name": "_token",
          "type": "address"
        },
        {
          "internalType": "bytes32",
          "name": "_addressesAndAmountOfFloat",
          "type": "bytes32"
        },
        {
          "internalType": "bool",
          "name": "_zerofee",
          "type": "bool"
        },
        {
          "internalType": "bytes32",
          "name": "_txid",
          "type": "bytes32"
        }
      ],
      "name": "recordIncomingFloat",
      "outputs": [
        {
          "internalType": "bool",
          "name": "",
          "type": "bool"
        }
      ],
      "stateMutability": "nonpayable",
      "type": "function"
    },
    {
      "inputs": [
        {
          "internalType": "address",
          "name": "_token",
          "type": "address"
        },
        {
          "internalType": "bytes32",
          "name": "_addressesAndAmountOfLPtoken",
          "type": "bytes32"
        },
        {
          "internalType": "uint256",
          "name": "_minerFee",
          "type": "uint256"
        },
        {
          "internalType": "bytes32",
          "name": "_txid",
          "type": "bytes32"
        }
      ],
      "name": "recordOutcomingFloat",
      "outputs": [
        {
          "internalType": "bool",
          "name": "",
          "type": "bool"
        }
      ],
      "stateMutability": "nonpayable",
      "type": "function"
    },
    {
      "inputs": [
        {
          "internalType": "address",
          "name": "_destToken",
          "type": "address"
        },
        {
          "internalType": "address",
          "name": "_to",
          "type": "address"
        },
        {
          "internalType": "uint256",
          "name": "_amount",
          "type": "uint256"
        },
        {
          "internalType": "bytes32[]",
          "name": "_redeemedFloatTxIds",
          "type": "bytes32[]"
        }
      ],
      "name": "recordSkyPoolsTX",
      "outputs": [
        {
          "internalType": "bool",
          "name": "",
          "type": "bool"
        }
      ],
      "stateMutability": "nonpayable",
      "type": "function"
    },
    {
      "inputs": [
        {
          "internalType": "uint256",
          "name": "_minerFee",
          "type": "uint256"
        },
        {
          "internalType": "bytes32",
          "name": "_txid",
          "type": "bytes32"
        }
      ],
      "name": "recordUTXOSweepMinerFee",
      "outputs": [
        {
          "internalType": "bool",
          "name": "",
          "type": "bool"
        }
      ],
      "stateMutability": "nonpayable",
      "type": "function"
    },
    {
      "inputs": [
        {
          "internalType": "address",
          "name": "_token",
          "type": "address"
        },
        {
          "internalType": "uint256",
          "name": "_amount",
          "type": "uint256"
        }
      ],
      "name": "redeemERC20Token",
      "outputs": [
        {
          "internalType": "bool",
          "name": "",
          "type": "bool"
        }
      ],
      "stateMutability": "nonpayable",
      "type": "function"
    },
    {
      "inputs": [],
      "name": "renounceOwnership",
      "outputs": [],
      "stateMutability": "nonpayable",
      "type": "function"
    },
    {
      "inputs": [
        {
          "internalType": "address",
          "name": "_destToken",
          "type": "address"
        },
        {
          "internalType": "address",
          "name": "_to",
          "type": "address"
        },
        {
          "internalType": "uint256",
          "name": "_amount",
          "type": "uint256"
        },
        {
          "internalType": "uint256",
          "name": "_totalSwapped",
          "type": "uint256"
        },
        {
          "internalType": "uint256",
          "name": "_rewardsAmount",
          "type": "uint256"
        },
        {
          "internalType": "bytes32[]",
          "name": "_redeemedFloatTxIds",
          "type": "bytes32[]"
        }
      ],
      "name": "singleTransferERC20",
      "outputs": [
        {
          "internalType": "bool",
          "name": "",
          "type": "bool"
        }
      ],
      "stateMutability": "nonpayable",
      "type": "function"
    },
    {
      "inputs": [
        {
          "internalType": "address",
          "name": "",
          "type": "address"
        },
        {
          "internalType": "address",
          "name": "",
          "type": "address"
        }
      ],
      "name": "tokens",
      "outputs": [
        {
          "internalType": "uint256",
          "name": "",
          "type": "uint256"
        }
      ],
      "stateMutability": "view",
      "type": "function"
    },
    {
      "inputs": [
        {
          "internalType": "address",
          "name": "newOwner",
          "type": "address"
        }
      ],
      "name": "transferOwnership",
      "outputs": [],
      "stateMutability": "nonpayable",
      "type": "function"
    },
    {
      "inputs": [],
      "name": "tssThreshold",
      "outputs": [
        {
          "internalType": "uint8",
          "name": "",
          "type": "uint8"
        }
      ],
      "stateMutability": "view",
      "type": "function"
    },
    {
      "inputs": [
        {
          "internalType": "address",
          "name": "",
          "type": "address"
        }
      ],
      "name": "whitelist",
      "outputs": [
        {
          "internalType": "bool",
          "name": "",
          "type": "bool"
        }
      ],
      "stateMutability": "view",
      "type": "function"
    },
    {
      "inputs": [],
      "name": "withdrawalFeeBPS",
      "outputs": [
        {
          "internalType": "uint8",
          "name": "",
          "type": "uint8"
        }
      ],
      "stateMutability": "view",
      "type": "function"
    }
  ],
  "bytecode": "0x60806040523480156200001157600080fd5b50604051620030d6380380620030d6833981810160405260608110156200003757600080fd5b508051602082015160409092015190919060006200005462000296565b600080546001600160a01b0319166001600160a01b0383169081178255604051929350917f8be0079c531659141344cd1fd0a4f28419497f9722a3daafe3b4186f6b6457e0908290a350600280546001600160a01b0319166001600160a01b0385811691909117918290556040805163313ce56760e01b81529051929091169163313ce56791600480820192602092909190829003018186803b158015620000fb57600080fd5b505afa15801562000110573d6000803e3d6000fd5b505050506040513d60208110156200012757600080fd5b505160ff16600a0a600955600180546001600160a01b0319166001600160a01b0384169081179091556004805462ff00001916624200001763ff000000191663320000001760ff60201b19166414000000001781556040805163313ce56760e01b815290516008939263313ce56792808201926020929091829003018186803b158015620001b457600080fd5b505afa158015620001c9573d6000803e3d6000fd5b505050506040513d6020811015620001e057600080fd5b50510360ff16600a90810a600855600954600755600060058190556006819055600180546001600160a01b039081168352600360209081526040808520805460ff1990811686179091556002549093168552842080548316841790559280527f3617319a054d772f909f7c479a2cebe5066e836a939412e32403c99029b92eff80549091169091179055527f13da86008ba1c6922daee3e07db95305ef49ebced9f5467a0b8613fcc6b343e355506200029a9050565b3390565b612e2c80620002aa6000396000f3fe608060405234801561001057600080fd5b50600436106101fa5760003560e01c80635fcbd2851161011a5780639b19251a116100ad578063e6ca20841161007c578063e6ca2084146108d3578063e9e9bf6a146108f0578063ec482729146108f8578063f2fde38b1461093f578063f7824bc714610965576101fa565b80639b19251a14610743578063ad289e7614610769578063b6268e5d146108a8578063c810a539146108b0576101fa565b806370a08231116100e957806370a08231146106d3578063715018a6146106f95780638006cc3e146107035780638da5cb5b1461073b576101fa565b80635fcbd2851461063157806363f289d9146106395780636b51e919146106735780636d019f35146106cb576101fa565b806330adb1181161019257806345468b661161016157806345468b661461032a5780634db75485146104895780634e54cee0146104b5578063508493bc14610603576101fa565b806330adb1181461038c5780633b6fa1271461044d578063424192551461047957806345137e2714610481576101fa565b80630fd3d41c116101ce5780630fd3d41c1461032a57806312d1441e146103325780632586c5621461033a5780632d55282d14610372576101fa565b806289356f146101ff5780630b68134d1461021d5780630d63aca7146102255780630f90948614610306575b600080fd5b61020761096d565b6040805160ff9092168252519081900360200190f35b610207610976565b6102f2600480360360c081101561023b57600080fd5b6001600160a01b0382358116926020810135909116916040820135916060810135916080820135919081019060c0810160a0820135600160201b81111561028157600080fd5b82018360208201111561029357600080fd5b803590602001918460208302840111600160201b831117156102b457600080fd5b919080806020026020016040519081016040528093929190818152602001838360200280828437600092019190915250929550610985945050505050565b604080519115158252519081900360200190f35b61030e610b24565b604080516001600160a01b039092168252519081900360200190f35b6102f2610b33565b610207610b38565b6102f26004803603608081101561035057600080fd5b506001600160a01b038135169060208101359060408101359060600135610b46565b61037a610c8a565b60408051918252519081900360200190f35b6102f2600480360360808110156103a257600080fd5b6001600160a01b03823581169260208101359091169160408201359190810190608081016060820135600160201b8111156103dc57600080fd5b8201836020820111156103ee57600080fd5b803590602001918460208302840111600160201b8311171561040f57600080fd5b919080806020026020016040519081016040528093929190818152602001838360200280828437600092019190915250929550610c90945050505050565b61037a6004803603604081101561046357600080fd5b506001600160a01b038135169060200135610e12565b610207610e9e565b61037a610eae565b6102f26004803603604081101561049f57600080fd5b506001600160a01b038135169060200135610f9a565b6102f2600480360360e08110156104cb57600080fd5b6001600160a01b038235169190810190604081016020820135600160201b8111156104f557600080fd5b82018360208201111561050757600080fd5b803590602001918460208302840111600160201b8311171561052857600080fd5b9190808060200260200160405190810160405280939291908181526020018383602002808284376000920191909152509295949360208101935035915050600160201b81111561057757600080fd5b82018360208201111561058957600080fd5b803590602001918460208302840111600160201b831117156105aa57600080fd5b9190808060200260200160405190810160405280939291908181526020018383602002808284376000920191909152509295505060ff83358116945060208401358116936040810135821693506060013516905061100e565b61037a6004803603604081101561061957600080fd5b506001600160a01b038135811691602001351661132c565b61030e611349565b6102f26004803603608081101561064f57600080fd5b506001600160a01b0381351690602081013590604081013515159060600135611358565b61067b611436565b60408051602080825283518183015283519192839290830191858101910280838360005b838110156106b757818101518382015260200161069f565b505050509050019250505060405180910390f35b61037a611595565b61037a600480360360208110156106e957600080fd5b50356001600160a01b031661159b565b6107016115c1565b005b6102f26004803603608081101561071957600080fd5b506001600160a01b03813516906020810135906040810135906060013561166d565b61030e61179e565b6102f26004803603602081101561075957600080fd5b50356001600160a01b03166117ad565b6102f2600480360360a081101561077f57600080fd5b6001600160a01b038235169190810190604081016020820135600160201b8111156107a957600080fd5b8201836020820111156107bb57600080fd5b803590602001918460208302840111600160201b831117156107dc57600080fd5b9190808060200260200160405190810160405280939291908181526020018383602002808284376000920191909152509295843595602086013595919450925060608101915060400135600160201b81111561083757600080fd5b82018360208201111561084957600080fd5b803590602001918460208302840111600160201b8311171561086a57600080fd5b9190808060200260200160405190810160405280939291908181526020018383602002808284376000920191909152509295506117c2945050505050565b61020761199c565b6102f2600480360360408110156108c657600080fd5b50803590602001356119ac565b6102f2600480360360208110156108e957600080fd5b5035611b07565b6102f2611b1c565b6109266004803603604081101561090e57600080fd5b506001600160a01b0381358116916020013516611d83565b6040805192835260208301919091528051918290030190f35b6107016004803603602081101561095557600080fd5b50356001600160a01b0316611dad565b61037a611eaf565b60045460ff1681565b60045462010000900460ff1681565b600061098f611eb5565b6001600160a01b03166109a061179e565b6001600160a01b0316146109e9576040805162461bcd60e51b81526020600482018190526024820152600080516020612d52833981519152604482015290519081900360640190fd5b6001600160a01b03871660009081526003602052604090205460ff16610a56576040805162461bcd60e51b815260206004820152601d60248201527f5f64657374546f6b656e206973206e6f742077686974656c6973746564000000604482015290519081900360640190fd5b6001600160a01b038716610a9b5760405162461bcd60e51b8152600401808060200182810382526023815260200180612dd46023913960400191505060405180910390fd5b60008415610ac157600154610abc906000906001600160a01b031687611eb9565b610ad4565b84610ad457506001546001600160a01b03165b6002546001600160a01b0389811691161415610af857506002546001600160a01b03165b610b028185611fa5565b610b0b8361211c565b610b1688888861216b565b506001979650505050505050565b6001546001600160a01b031681565b600090565b600454610100900460ff1681565b6000610b50611eb5565b6001600160a01b0316610b6161179e565b6001600160a01b031614610baa576040805162461bcd60e51b81526020600482018190526024820152600080516020612d52833981519152604482015290519081900360640190fd5b6000610bb4610eae565b6001600160a01b03871660009081526003602052604090205490915060ff16610c18576040805162461bcd60e51b815260206004820152601160248201527017dd1bdad95b881a5cc81a5b9d985b1a59607a1b604482015290519081900360640190fd5b610c2486868686612223565b610c2d57600080fd5b6001915080610c3a610eae565b1015610c81576040805162461bcd60e51b8152602060048201526011602482015270496e76616c6964204c505420707269636560781b604482015290519081900360640190fd5b50949350505050565b60055481565b6000610c9a611eb5565b6001600160a01b0316610cab61179e565b6001600160a01b031614610cf4576040805162461bcd60e51b81526020600482018190526024820152600080516020612d52833981519152604482015290519081900360640190fd5b6001600160a01b03851660009081526003602052604090205460ff16610d61576040805162461bcd60e51b815260206004820152601d60248201527f5f64657374546f6b656e206973206e6f742077686974656c6973746564000000604482015290519081900360640190fd5b6001600160a01b038516610da65760405162461bcd60e51b8152600401808060200182810382526023815260200180612dd46023913960400191505060405180910390fd5b6002546000906001600160a01b0387811691161415610dcd57506002546001600160a01b03165b610dd786856125bf565b610de08361211c565b5050506001600160a01b039283166000908152600f602090815260408083209490951682529290925291902055600190565b600080610e1f848461261c565b90508060ff1660011415610e61576001546001600160a01b03858116911614610e49576000610e57565b6004546301000000900460ff165b60ff169150610e97565b8060ff1660021415610e97576001600160a01b03841615610e83576000610e91565b6004546301000000900460ff165b60ff1691505b5092915050565b6004546301000000900460ff1681565b60015460009081908190610ecc9082906001600160a01b0316611d83565b915091506000600260009054906101000a90046001600160a01b03166001600160a01b03166318160ddd6040518163ffffffff1660e01b815260040160206040518083038186803b158015610f2057600080fd5b505afa158015610f34573d6000803e3d6000fd5b505050506040513d6020811015610f4a57600080fd5b505190508015610f8e57610f89610f6c600554836126d690919063ffffffff16565b600954610f8390610f7d87876126d6565b90612737565b90612790565b610f92565b6007545b935050505090565b6001600160a01b0382166000908152600f60209081526040808320338452909152812054821115610fca57600080fd5b6001600160a01b0383166000908152600f60209081526040808320338452909152902054610ff890836127f7565b5061100483338461216b565b5060015b92915050565b6000611018611eb5565b6001600160a01b031661102961179e565b6001600160a01b031614611072576040805162461bcd60e51b81526020600482018190526024820152600080516020612d52833981519152604482015290519081900360640190fd5b60045460ff610100909104811690851610801590611094575060ff8460ff1611155b6110cf5760405162461bcd60e51b8152600401808060200182810382526027815260200180612ce96027913960400191505060405180910390fd5b6001840160ff168560ff161015611122576040805162461bcd60e51b81526020600482015260126024820152716e2073686f756c64206265203e3d20742b3160701b604482015290519081900360640190fd5b60648360ff16111561117b576040805162461bcd60e51b815260206004820152601e60248201527f5f6e6f646552657761726473526174696f206973206e6f742076616c69640000604482015290519081900360640190fd5b60648260ff1611156111d4576040805162461bcd60e51b815260206004820152601c60248201527f5f7769746864726177616c46656542505320697320696e76616c696400000000604482015290519081900360640190fd5b85518751146112145760405162461bcd60e51b815260040180806020018281038252603b815260200180612d99603b913960400191505060405180910390fd5b61121d88611dad565b60005b875181101561128557600061124789838151811061123a57fe5b6020026020010151612854565b50905061127b818a848151811061125a57fe5b60200260200101518a858151811061126e57fe5b602002602001015161285d565b5050600101611220565b506060611290611436565b90506064815111156112d35760405162461bcd60e51b8152600401808060200182810382526021815260200180612d316021913960400191505060405180910390fd5b50506004805460ff191660ff9586161761ff001916610100948616949094029390931762ff0000191662010000928516929092029190911764ff000000001916600160201b919093160291909117905550600192915050565b600f60209081526000928352604080842090915290825290205481565b6002546001600160a01b031681565b6000611362611eb5565b6001600160a01b031661137361179e565b6001600160a01b0316146113bc576040805162461bcd60e51b81526020600482018190526024820152600080516020612d52833981519152604482015290519081900360640190fd5b60006113c6610eae565b6001600160a01b03871660009081526003602052604090205490915060ff1661142a576040805162461bcd60e51b815260206004820152601160248201527017dd1bdad95b881a5cc81a5b9d985b1a59607a1b604482015290519081900360640190fd5b610c248686868661294d565b606060008060005b600e5481101561149957600c6000600e838154811061145957fe5b60009182526020808320909101546001600160a01b03168352820192909252604001902054156114915761148e8360016126d6565b92505b60010161143e565b5060608267ffffffffffffffff811180156114b357600080fd5b506040519080825280602002602001820160405280156114dd578160200160208202803683370190505b50905060005b600e5481101561158d57600c6000600e83815481106114fe57fe5b60009182526020808320909101546001600160a01b031683528201929092526040019020541561158557600c6000600e838154811061153957fe5b60009182526020808320909101546001600160a01b03168352820192909252604001902054825183908590811061156c57fe5b60209081029190910101526115828360016126d6565b92505b6001016114e3565b509250505090565b60075481565b6001600160a01b03166000908152600f6020908152604080832033845290915290205490565b6115c9611eb5565b6001600160a01b03166115da61179e565b6001600160a01b031614611623576040805162461bcd60e51b81526020600482018190526024820152600080516020612d52833981519152604482015290519081900360640190fd5b600080546040516001600160a01b03909116907f8be0079c531659141344cd1fd0a4f28419497f9722a3daafe3b4186f6b6457e0908390a3600080546001600160a01b0319169055565b6000611677611eb5565b6001600160a01b031661168861179e565b6001600160a01b0316146116d1576040805162461bcd60e51b81526020600482018190526024820152600080516020612d52833981519152604482015290519081900360640190fd5b6001600160a01b0385161561172d576040805162461bcd60e51b815260206004820152601f60248201527f5f64657374546f6b656e2073686f756c64206265206164647265737328302900604482015290519081900360640190fd5b6001546001600160a01b0316841561177f5760006117558561174f88876127f7565b906127f7565b600154909150611779906001600160a01b0316600061177484896126d6565b611eb9565b50611788565b84611788575060005b6117928184611fa5565b50600195945050505050565b6000546001600160a01b031690565b60036020526000908152604090205460ff1681565b60006117cc611eb5565b6001600160a01b03166117dd61179e565b6001600160a01b031614611826576040805162461bcd60e51b81526020600482018190526024820152600080516020612d52833981519152604482015290519081900360640190fd5b6001600160a01b03861660009081526003602052604090205460ff16611893576040805162461bcd60e51b815260206004820152601d60248201527f5f64657374546f6b656e206973206e6f742077686974656c6973746564000000604482015290519081900360640190fd5b6001600160a01b0386166118d85760405162461bcd60e51b8152600401808060200182810382526023815260200180612dd46023913960400191505060405180910390fd5b600084156118fe576001546118f9906000906001600160a01b031687611eb9565b611911565b8461191157506001546001600160a01b03165b6002546001600160a01b038881169116141561193557506002546001600160a01b03165b61193f8185611fa5565b6119488361211c565b60005b8651811015610b16576119948888838151811061196457fe5b602002602001015160001c89848151811061197b57fe5b602002602001015160a01c6001600160601b031661216b565b60010161194b565b600454600160201b900460ff1681565b60006119b6611eb5565b6001600160a01b03166119c761179e565b6001600160a01b031614611a10576040805162461bcd60e51b81526020600482018190526024820152600080516020612d52833981519152604482015290519081900360640190fd5b611a1982611b07565b15611a66576040805162461bcd60e51b8152602060048201526018602482015277151a19481d1e1a59081a5cc8185b1c9958591e481d5cd95960421b604482015290519081900360640190fd5b60408051808201909152601d81527f42544320666c6f617420616d6f756e7420696e73756666696369656e7400000060208083019190915260008052600a90527f13da86008ba1c6922daee3e07db95305ef49ebced9f5467a0b8613fcc6b343e354611ad3918590612b94565b60008052600a6020527f13da86008ba1c6922daee3e07db95305ef49ebced9f5467a0b8613fcc6b343e35561100482612c2b565b6000908152600b602052604090205460ff1690565b600080611b366006546005546126d690919063ffffffff16565b905060008111611b775760405162461bcd60e51b8152600401808060200182810382526025815260200180612c6a6025913960400191505060405180910390fd5b6060611b81611436565b90506000805b8251811015611bcc57611bc2838281518110611b9f57fe5b602002602001015160a01c6001600160601b0316836126d690919063ffffffff16565b9150600101611b87565b50600254600554604080516340c10f1960e01b81523060048201526024810192909252516001600160a01b03909216916340c10f19916044808201926020929091908290030181600087803b158015611c2457600080fd5b505af1158015611c38573d6000803e3d6000fd5b505050506040513d6020811015611c4e57600080fd5b50600090505b8251811015611d3b5760025483516001600160a01b039091169063a9059cbb90859084908110611c8057fe5b602002602001015160001c611cc185610f83888781518110611c9e57fe5b602002602001015160a01c6001600160601b03168a61273790919063ffffffff16565b6040518363ffffffff1660e01b815260040180836001600160a01b0316815260200182815260200192505050602060405180830381600087803b158015611d0757600080fd5b505af1158015611d1b573d6000803e3d6000fd5b505050506040513d6020811015611d3157600080fd5b5050600101611c54565b506040805184815290517f86dd6ae252e62228b47b3c1a12762cbf634952b2d29319b04f4f72fb153bcbdd9181900360200190a1505060006005819055600655506001905090565b6001600160a01b039182166000908152600a60205260408082205492909316815291909120549091565b611db5611eb5565b6001600160a01b0316611dc661179e565b6001600160a01b031614611e0f576040805162461bcd60e51b81526020600482018190526024820152600080516020612d52833981519152604482015290519081900360640190fd5b6001600160a01b038116611e545760405162461bcd60e51b8152600401808060200182810382526026815260200180612cc36026913960400191505060405180910390fd5b600080546040516001600160a01b03808516939216917f8be0079c531659141344cd1fd0a4f28419497f9722a3daafe3b4186f6b6457e091a3600080546001600160a01b0319166001600160a01b0392909216919091179055565b60065481565b3390565b60408051808201825260208082527f5f737761703a20666c6f617420616d6f756e7420696e73756666696369656e74818301526001600160a01b0385166000908152600a9091529190912054611f10918390612b94565b6001600160a01b038084166000908152600a60205260408082209390935590851681522054611f3f90826126d6565b6001600160a01b038085166000818152600a602090815260409182902094909455805191825291851692810192909252818101839052517fea368a40e9570069bb8e6511d668293ad2e1f03b0d982431fd223de9f3b70ca69181900360600190a1505050565b80611faf57612118565b6002546001600160a01b038381169116141561202a57600654611fd290826126d6565b600655604080516001600160a01b0384168152602081018390526000818301819052606082015290517fe3debe835f6848edc082b32a1d729781d3bfcd7e14422d80bcaa6794d3816b2f9181900360800190a1612118565b6000612034610eae565b6001600160a01b0384166000908152600a602052604090205490915061205a90836126d6565b6001600160a01b0384166000908152600a602052604081209190915560045461209490606490610f8390869062010000900460ff16612737565b905060006120b183610f836009548561273790919063ffffffff16565b6005549091506120c190826126d6565b600555604080516001600160a01b0387168152602081018690528082018390526060810185905290517fe3debe835f6848edc082b32a1d729781d3bfcd7e14422d80bcaa6794d3816b2f9181900360800190a15050505b5050565b60005b8151811015612118576001600b600084848151811061213a57fe5b6020908102919091018101518252810191909152604001600020805460ff191691151591909117905560010161211f565b6001546001600160a01b03848116911614156121925760085461218f908290612737565b90505b826001600160a01b031663a9059cbb83836040518363ffffffff1660e01b815260040180836001600160a01b0316815260200182815260200192505050602060405180830381600087803b1580156121e957600080fd5b505af11580156121fd573d6000803e3d6000fd5b505050506040513d602081101561221357600080fd5b505161221e57600080fd5b505050565b600061222e82611b07565b1561227b576040805162461bcd60e51b8152602060048201526018602482015277151a19481d1e1a59081a5cc8185b1c9958591e481d5cd95960421b604482015290519081900360640190fd5b836122cd576040805162461bcd60e51b815260206004820152601c60248201527f546865207472616e73616374696f6e206973206e6f742076616c696400000000604482015290519081900360640190fd5b6000806122d986612854565b9150915060006122e7610eae565b90506000612304600954610f83848661273790919063ffffffff16565b60045490915060009061232a9061271090610f83908590600160201b900460ff16612737565b90508761233783836127f7565b10156123745760405162461bcd60e51b8152600401808060200182810382526034815260200180612c8f6034913960400191505060405180910390fd5b60006123848961174f85856127f7565b60015490915060009081906123a39082906001600160a01b0316611d83565b90925090506001600160a01b038d16612419576123c085856127f7565b821015612414576040805162461bcd60e51b815260206004820152601f60248201527f54686520666c6f61742062616c616e636520696e73756666696369656e742e00604482015290519081900360640190fd5b61248d565b6001546001600160a01b038e81169116141561248d5761243985856127f7565b81101561248d576040805162461bcd60e51b815260206004820152601f60248201527f54686520666c6f61742062616c616e636520696e73756666696369656e742e00604482015290519081900360640190fd5b6124978d85611fa5565b6124a18d866125bf565b6124aa8a612c2b565b6001546001600160a01b038e8116911614156124cb576124cb8d898561216b565b60025460408051630852cd8d60e31b8152600481018a905290516001600160a01b03909216916342966c68916024808201926020929091908290030181600087803b15801561251957600080fd5b505af115801561252d573d6000803e3d6000fd5b505050506040513d602081101561254357600080fd5b505161254e57600080fd5b604080516001600160a01b038a16815260208101899052808201879052606081018890526080810185905260a081018c905290517fa9da34e5e4a956b744307ae7611795634e8365951073bf049d76b64b2ae7a0589181900360c00190a15060019c9b505050505050505050505050565b6125fc81604051806060016040528060278152602001612d72602791396001600160a01b0385166000908152600a60205260409020549190612b94565b6001600160a01b039092166000908152600a602052604090209190915550565b6001546000908190819061263a9082906001600160a01b0316611d83565b9092509050600061265f6003610f836002610f7d8961265989896126d6565b906126d6565b6001549091506001600160a01b03878116911614801561268857508061268583876126d6565b10155b156126995760019350505050611008565b6001600160a01b0386161580156126b95750806126b684876126d6565b10155b156126ca5760029350505050611008565b50600095945050505050565b600082820183811015612730576040805162461bcd60e51b815260206004820152601b60248201527f536166654d6174683a206164646974696f6e206f766572666c6f770000000000604482015290519081900360640190fd5b9392505050565b60008261274657506000611008565b8282028284828161275357fe5b04146127305760405162461bcd60e51b8152600401808060200182810382526021815260200180612d106021913960400191505060405180910390fd5b60008082116127e6576040805162461bcd60e51b815260206004820152601a60248201527f536166654d6174683a206469766973696f6e206279207a65726f000000000000604482015290519081900360640190fd5b8183816127ef57fe5b049392505050565b60008282111561284e576040805162461bcd60e51b815260206004820152601e60248201527f536166654d6174683a207375627472616374696f6e206f766572666c6f770000604482015290519081900360640190fd5b50900390565b9060a082901c90565b6000811561288657506001600160a01b0383166000908152600c60205260408120556001612730565b6001600160a01b0384166000908152600d602052604090205460ff1661290a57600e805460018082019092557fbb7b4a454dc3493923482f07822329ed19e8244eff582cc204f8554c3620c3fd0180546001600160a01b0319166001600160a01b0387169081179091556000908152600d60205260409020805460ff191690911790555b6001600160a01b0384166000908152600c6020526040902054612943576001600160a01b0384166000908152600c602052604090208390555b5060019392505050565b600061295882611b07565b156129a5576040805162461bcd60e51b8152602060048201526018602482015277151a19481d1e1a59081a5cc8185b1c9958591e481d5cd95960421b604482015290519081900360640190fd5b836129f7576040805162461bcd60e51b815260206004820152601c60248201527f546865207472616e73616374696f6e206973206e6f742076616c696400000000604482015290519081900360640190fd5b600080612a0386612854565b915091506000612a11610eae565b90506000612a2e82610f836009548661273790919063ffffffff16565b90506000612a3c8a85610e12565b9050600081612a4c576000612a5c565b612a5c612710610f838585612737565b9050888015612a6a57508015155b15612a7457600080fd5b6002546001600160a01b03166340c10f1987612a9086856127f7565b6040518363ffffffff1660e01b815260040180836001600160a01b0316815260200182815260200192505050602060405180830381600087803b158015612ad657600080fd5b505af1158015612aea573d6000803e3d6000fd5b505050506040513d6020811015612b0057600080fd5b5050600554612b0f90826126d6565b600555612b1c8b86612c46565b612b2588612c2b565b604080516001600160a01b038816815260208101879052808201859052606081018690526080810183905260a081018a905290517fdfaf4e23f7030adafec91a682e05bf9fb30c721f9cec3d8bcfae0459c5362db19181900360c00190a15060019a9950505050505050505050565b60008184841115612c235760405162461bcd60e51b81526004018080602001828103825283818151815260200191508051906020019080838360005b83811015612be8578181015183820152602001612bd0565b50505050905090810190601f168015612c155780820380516001836020036101000a031916815260200191505b509250505060405180910390fd5b505050900390565b6000908152600b60205260409020805460ff19166001179055565b6001600160a01b0382166000908152600a60205260409020546125fc90826126d656fe746f74616c5265776172644c5073466f724e6f6465206973206e6f7420706f7369746976654572726f723a20616d6f756e744f66466c6f61742e737562287769746864726177616c4665657329203c205f6d696e65724665654f776e61626c653a206e6577206f776e657220697320746865207a65726f20616464726573735f7473735468726573686f6c642073686f756c64206265203e3d207473735468726573686f6c64536166654d6174683a206d756c7469706c69636174696f6e206f766572666c6f7753746f726564206e6f64652073697a652073686f756c64206265203c3d203130304f776e61626c653a2063616c6c6572206973206e6f7420746865206f776e65725f72656d6f7665466c6f61743a20666c6f617420616d6f756e7420696e73756666696369656e745f72657761726441646472657373416e64416d6f756e747320616e64205f697352656d6f766564206c656e677468206973206e6f74206d617463685f64657374546f6b656e2073686f756c64206e6f742062652061646472657373283029a264697066735822122010fcbf124750f8f13b97113ee8249ce64c59d775ad03d3e2e9cf0efd7cca924e64736f6c63430007030033",
  "linkReferences": {},
  "deployedLinkReferences": {}
}