{
  "_format": "hh-sol-artifact-1",
  "contractName": "SwapContract",
  "sourceName": "contracts/SwapContract.sol",
  "abi": [
    {
      "inputs": [
        {
          "internalType": "address",
          "name": "_lpToken",
          "type": "address"
        },
        {
          "internalType": "address",
          "name": "_btct",
          "type": "address"
        },
        {
          "internalType": "uint256",
          "name": "_existingBTCFloat",
          "type": "uint256"
        }
      ],
      "stateMutability": "nonpayable",
      "type": "constructor"
    },
    {
      "anonymous": false,
      "inputs": [
        {
          "indexed": false,
          "internalType": "address",
          "name": "token",
          "type": "address"
        },
        {
          "indexed": false,
          "internalType": "uint256",
          "name": "amountOfLP",
          "type": "uint256"
        },
        {
          "indexed": false,
          "internalType": "uint256",
          "name": "amountOfFloat",
          "type": "uint256"
        },
        {
          "indexed": false,
          "internalType": "uint256",
          "name": "currentPriceLP",
          "type": "uint256"
        },
        {
          "indexed": false,
          "internalType": "uint256",
          "name": "withdrawal",
          "type": "uint256"
        },
        {
          "indexed": false,
          "internalType": "bytes32",
          "name": "txid",
          "type": "bytes32"
        }
      ],
      "name": "BurnLPTokensForFloat",
      "type": "event"
    },
    {
      "anonymous": false,
      "inputs": [
        {
          "indexed": false,
          "internalType": "uint256",
          "name": "rewardLPTsForNodes",
          "type": "uint256"
        }
      ],
      "name": "DistributeNodeRewards",
      "type": "event"
    },
    {
      "anonymous": false,
      "inputs": [
        {
          "indexed": false,
          "internalType": "address",
          "name": "to",
          "type": "address"
        },
        {
          "indexed": false,
          "internalType": "uint256",
          "name": "amountOfFloat",
          "type": "uint256"
        },
        {
          "indexed": false,
          "internalType": "uint256",
          "name": "amountOfLP",
          "type": "uint256"
        },
        {
          "indexed": false,
          "internalType": "uint256",
          "name": "currentPriceLP",
          "type": "uint256"
        },
        {
          "indexed": false,
          "internalType": "uint256",
          "name": "depositFees",
          "type": "uint256"
        },
        {
          "indexed": false,
          "internalType": "bytes32",
          "name": "txid",
          "type": "bytes32"
        }
      ],
      "name": "IssueLPTokensForFloat",
      "type": "event"
    },
    {
      "anonymous": false,
      "inputs": [
        {
          "indexed": true,
          "internalType": "address",
          "name": "previousOwner",
          "type": "address"
        },
        {
          "indexed": true,
          "internalType": "address",
          "name": "newOwner",
          "type": "address"
        }
      ],
      "name": "OwnershipTransferred",
      "type": "event"
    },
    {
      "anonymous": false,
      "inputs": [
        {
          "indexed": false,
          "internalType": "address",
          "name": "feesToken",
          "type": "address"
        },
        {
          "indexed": false,
          "internalType": "uint256",
          "name": "rewards",
          "type": "uint256"
        },
        {
          "indexed": false,
          "internalType": "uint256",
          "name": "amountLPTokensForNode",
          "type": "uint256"
        },
        {
          "indexed": false,
          "internalType": "uint256",
          "name": "currentPriceLP",
          "type": "uint256"
        }
      ],
      "name": "RewardsCollection",
      "type": "event"
    },
    {
      "anonymous": false,
      "inputs": [
        {
          "indexed": false,
          "internalType": "address",
          "name": "from",
          "type": "address"
        },
        {
          "indexed": false,
          "internalType": "address",
          "name": "to",
          "type": "address"
        },
        {
          "indexed": false,
          "internalType": "uint256",
          "name": "amount",
          "type": "uint256"
        }
      ],
      "name": "Swap",
      "type": "event"
    },
    {
      "anonymous": false,
      "inputs": [
        {
          "indexed": false,
          "internalType": "address",
          "name": "token",
          "type": "address"
        },
        {
          "indexed": false,
          "internalType": "address",
          "name": "user",
          "type": "address"
        },
        {
          "indexed": false,
          "internalType": "uint256",
          "name": "amount",
          "type": "uint256"
        },
        {
          "indexed": false,
          "internalType": "uint256",
          "name": "balance",
          "type": "uint256"
        }
      ],
      "name": "Withdraw",
      "type": "event"
    },
    {
      "stateMutability": "nonpayable",
      "type": "fallback"
    },
    {
      "inputs": [],
      "name": "BTCT_ADDR",
      "outputs": [
        {
          "internalType": "address",
          "name": "",
          "type": "address"
        }
      ],
      "stateMutability": "view",
      "type": "function"
    },
    {
      "inputs": [
        {
          "internalType": "address",
          "name": "_token",
          "type": "address"
        }
      ],
      "name": "balanceOf",
      "outputs": [
        {
          "internalType": "uint256",
          "name": "",
          "type": "uint256"
        }
      ],
      "stateMutability": "view",
      "type": "function"
    },
    {
      "inputs": [
        {
          "internalType": "address",
          "name": "_newOwner",
          "type": "address"
        },
        {
          "internalType": "bytes32[]",
          "name": "_rewardAddressAndAmounts",
          "type": "bytes32[]"
        },
        {
          "internalType": "bool[]",
          "name": "_isRemoved",
          "type": "bool[]"
        },
        {
          "internalType": "uint8",
          "name": "_churnedInCount",
          "type": "uint8"
        },
        {
          "internalType": "uint8",
          "name": "_tssThreshold",
          "type": "uint8"
        },
        {
          "internalType": "uint8",
          "name": "_nodeRewardsRatio",
          "type": "uint8"
        },
        {
          "internalType": "uint8",
          "name": "_withdrawalFeeBPS",
          "type": "uint8"
        }
      ],
      "name": "churn",
      "outputs": [
        {
          "internalType": "bool",
          "name": "",
          "type": "bool"
        }
      ],
      "stateMutability": "nonpayable",
      "type": "function"
    },
    {
      "inputs": [],
      "name": "churnedInCount",
      "outputs": [
        {
          "internalType": "uint8",
          "name": "",
          "type": "uint8"
        }
      ],
      "stateMutability": "view",
      "type": "function"
    },
    {
      "inputs": [
        {
          "internalType": "address",
          "name": "_destToken",
          "type": "address"
        },
        {
          "internalType": "uint256",
          "name": "_incomingAmount",
          "type": "uint256"
        },
        {
          "internalType": "uint256",
          "name": "_minerFee",
          "type": "uint256"
        },
        {
          "internalType": "uint256",
          "name": "_rewardsAmount",
          "type": "uint256"
        }
      ],
      "name": "collectSwapFeesForBTC",
      "outputs": [
        {
          "internalType": "bool",
          "name": "",
          "type": "bool"
        }
      ],
      "stateMutability": "nonpayable",
      "type": "function"
    },
    {
      "inputs": [],
      "name": "depositFeesBPS",
      "outputs": [
        {
          "internalType": "uint8",
          "name": "",
          "type": "uint8"
        }
      ],
      "stateMutability": "view",
      "type": "function"
    },
    {
      "inputs": [],
      "name": "distributeNodeRewards",
      "outputs": [
        {
          "internalType": "bool",
          "name": "",
          "type": "bool"
        }
      ],
      "stateMutability": "nonpayable",
      "type": "function"
    },
    {
      "inputs": [],
      "name": "do1InchTrade",
      "outputs": [
        {
          "internalType": "bool",
          "name": "",
          "type": "bool"
        }
      ],
      "stateMutability": "nonpayable",
      "type": "function"
    },
    {
      "inputs": [
        {
          "internalType": "address",
          "name": "paraSwapAddress",
          "type": "address"
        }
      ],
      "name": "doParaSwapMultiSwap",
      "outputs": [],
      "stateMutability": "nonpayable",
      "type": "function"
    },
    {
      "inputs": [
        {
          "internalType": "address",
          "name": "paraSwapAddress",
          "type": "address"
        },
        {
          "internalType": "uint256",
          "name": "_amountIn",
          "type": "uint256"
        },
        {
          "internalType": "uint256",
          "name": "_amountOutMin",
          "type": "uint256"
        },
        {
          "internalType": "address[]",
          "name": "_path",
          "type": "address[]"
        },
        {
          "internalType": "uint8",
          "name": "_referrer",
          "type": "uint8"
        }
      ],
      "name": "doParaSwapOnUniswap",
      "outputs": [],
      "stateMutability": "nonpayable",
      "type": "function"
    },
    {
      "inputs": [
        {
          "internalType": "address",
          "name": "paraSwapAddress",
          "type": "address"
        },
        {
          "internalType": "address",
          "name": "_factory",
          "type": "address"
        },
        {
          "internalType": "bytes32",
          "name": "_initCode",
          "type": "bytes32"
        },
        {
          "internalType": "uint256",
          "name": "_amountIn",
          "type": "uint256"
        },
        {
          "internalType": "uint256",
          "name": "_amountOutMin",
          "type": "uint256"
        },
        {
          "internalType": "address[]",
          "name": "_path",
          "type": "address[]"
        },
        {
          "internalType": "uint8",
          "name": "_referrer",
          "type": "uint8"
        }
      ],
      "name": "doParaSwapOnUniswapFork",
      "outputs": [],
      "stateMutability": "nonpayable",
      "type": "function"
    },
    {
      "inputs": [],
      "name": "feesLPTokensForNode",
      "outputs": [
        {
          "internalType": "uint256",
          "name": "",
          "type": "uint256"
        }
      ],
      "stateMutability": "view",
      "type": "function"
    },
    {
      "inputs": [],
      "name": "getActiveNodes",
      "outputs": [
        {
          "internalType": "bytes32[]",
          "name": "",
          "type": "bytes32[]"
        }
      ],
      "stateMutability": "view",
      "type": "function"
    },
    {
      "inputs": [],
      "name": "getCurrentPriceLP",
      "outputs": [
        {
          "internalType": "uint256",
          "name": "nowPrice",
          "type": "uint256"
        }
      ],
      "stateMutability": "view",
      "type": "function"
    },
    {
      "inputs": [
        {
          "internalType": "address",
          "name": "_token",
          "type": "address"
        },
        {
          "internalType": "uint256",
          "name": "_amountOfFloat",
          "type": "uint256"
        }
      ],
      "name": "getDepositFeeRate",
      "outputs": [
        {
          "internalType": "uint256",
          "name": "depositFeeRate",
          "type": "uint256"
        }
      ],
      "stateMutability": "view",
      "type": "function"
    },
    {
      "inputs": [
        {
          "internalType": "address",
          "name": "_tokenA",
          "type": "address"
        },
        {
          "internalType": "address",
          "name": "_tokenB",
          "type": "address"
        }
      ],
      "name": "getFloatReserve",
      "outputs": [
        {
          "internalType": "uint256",
          "name": "reserveA",
          "type": "uint256"
        },
        {
          "internalType": "uint256",
          "name": "reserveB",
          "type": "uint256"
        }
      ],
      "stateMutability": "view",
      "type": "function"
    },
    {
      "inputs": [],
      "name": "initialExchangeRate",
      "outputs": [
        {
          "internalType": "uint256",
          "name": "",
          "type": "uint256"
        }
      ],
      "stateMutability": "view",
      "type": "function"
    },
    {
      "inputs": [
        {
          "internalType": "bytes32",
          "name": "_txid",
          "type": "bytes32"
        }
      ],
      "name": "isTxUsed",
      "outputs": [
        {
          "internalType": "bool",
          "name": "",
          "type": "bool"
        }
      ],
      "stateMutability": "view",
      "type": "function"
    },
    {
      "inputs": [],
      "name": "lockedLPTokensForNode",
      "outputs": [
        {
          "internalType": "uint256",
          "name": "",
          "type": "uint256"
        }
      ],
      "stateMutability": "view",
      "type": "function"
    },
    {
      "inputs": [],
      "name": "lpToken",
      "outputs": [
        {
          "internalType": "address",
          "name": "",
          "type": "address"
        }
      ],
      "stateMutability": "view",
      "type": "function"
    },
    {
      "inputs": [
        {
          "internalType": "address",
          "name": "_destToken",
          "type": "address"
        },
        {
          "internalType": "bytes32[]",
          "name": "_addressesAndAmounts",
          "type": "bytes32[]"
        },
        {
          "internalType": "uint256",
          "name": "_totalSwapped",
          "type": "uint256"
        },
        {
          "internalType": "uint256",
          "name": "_rewardsAmount",
          "type": "uint256"
        },
        {
          "internalType": "bytes32[]",
          "name": "_redeemedFloatTxIds",
          "type": "bytes32[]"
        }
      ],
      "name": "multiTransferERC20TightlyPacked",
      "outputs": [
        {
          "internalType": "bool",
          "name": "",
          "type": "bool"
        }
      ],
      "stateMutability": "nonpayable",
      "type": "function"
    },
    {
      "inputs": [],
      "name": "nodeRewardsRatio",
      "outputs": [
        {
          "internalType": "uint8",
          "name": "",
          "type": "uint8"
        }
      ],
      "stateMutability": "view",
      "type": "function"
    },
    {
      "inputs": [],
      "name": "owner",
      "outputs": [
        {
          "internalType": "address",
          "name": "",
          "type": "address"
        }
      ],
      "stateMutability": "view",
      "type": "function"
    },
    {
      "inputs": [
        {
          "internalType": "address",
          "name": "_token",
          "type": "address"
        },
        {
          "internalType": "bytes32",
          "name": "_addressesAndAmountOfFloat",
          "type": "bytes32"
        },
        {
          "internalType": "bool",
          "name": "_zerofee",
          "type": "bool"
        },
        {
          "internalType": "bytes32",
          "name": "_txid",
          "type": "bytes32"
        }
      ],
      "name": "recordIncomingFloat",
      "outputs": [
        {
          "internalType": "bool",
          "name": "",
          "type": "bool"
        }
      ],
      "stateMutability": "nonpayable",
      "type": "function"
    },
    {
      "inputs": [
        {
          "internalType": "address",
          "name": "_token",
          "type": "address"
        },
        {
          "internalType": "bytes32",
          "name": "_addressesAndAmountOfLPtoken",
          "type": "bytes32"
        },
        {
          "internalType": "uint256",
          "name": "_minerFee",
          "type": "uint256"
        },
        {
          "internalType": "bytes32",
          "name": "_txid",
          "type": "bytes32"
        }
      ],
      "name": "recordOutcomingFloat",
      "outputs": [
        {
          "internalType": "bool",
          "name": "",
          "type": "bool"
        }
      ],
      "stateMutability": "nonpayable",
      "type": "function"
    },
    {
      "inputs": [
        {
          "internalType": "address",
          "name": "_destToken",
          "type": "address"
        },
        {
          "internalType": "address",
          "name": "_to",
          "type": "address"
        },
        {
          "internalType": "uint256",
          "name": "_amount",
          "type": "uint256"
        },
        {
          "internalType": "uint256",
          "name": "_totalSwapped",
          "type": "uint256"
        },
        {
          "internalType": "bytes32[]",
          "name": "_redeemedFloatTxIds",
          "type": "bytes32[]"
        }
      ],
      "name": "recordSkyPoolsTX",
      "outputs": [
        {
          "internalType": "bool",
          "name": "",
          "type": "bool"
        }
      ],
      "stateMutability": "nonpayable",
      "type": "function"
    },
    {
      "inputs": [
        {
          "internalType": "uint256",
          "name": "_minerFee",
          "type": "uint256"
        },
        {
          "internalType": "bytes32",
          "name": "_txid",
          "type": "bytes32"
        }
      ],
      "name": "recordUTXOSweepMinerFee",
      "outputs": [
        {
          "internalType": "bool",
          "name": "",
          "type": "bool"
        }
      ],
      "stateMutability": "nonpayable",
      "type": "function"
    },
    {
      "inputs": [
        {
          "internalType": "address",
          "name": "_token",
          "type": "address"
        },
        {
          "internalType": "uint256",
          "name": "_amount",
          "type": "uint256"
        }
      ],
      "name": "redeemERC20Token",
      "outputs": [
        {
          "internalType": "bool",
          "name": "",
          "type": "bool"
        }
      ],
      "stateMutability": "nonpayable",
      "type": "function"
    },
    {
      "inputs": [],
      "name": "renounceOwnership",
      "outputs": [],
      "stateMutability": "nonpayable",
      "type": "function"
    },
    {
      "inputs": [
        {
          "internalType": "address",
          "name": "_destToken",
          "type": "address"
        },
        {
          "internalType": "address",
          "name": "_to",
          "type": "address"
        },
        {
          "internalType": "uint256",
          "name": "_amount",
          "type": "uint256"
        },
        {
          "internalType": "uint256",
          "name": "_totalSwapped",
          "type": "uint256"
        },
        {
          "internalType": "uint256",
          "name": "_rewardsAmount",
          "type": "uint256"
        },
        {
          "internalType": "bytes32[]",
          "name": "_redeemedFloatTxIds",
          "type": "bytes32[]"
        }
      ],
      "name": "singleTransferERC20",
      "outputs": [
        {
          "internalType": "bool",
          "name": "",
          "type": "bool"
        }
      ],
      "stateMutability": "nonpayable",
      "type": "function"
    },
    {
      "inputs": [
        {
          "internalType": "address",
          "name": "",
          "type": "address"
        },
        {
          "internalType": "address",
          "name": "",
          "type": "address"
        }
      ],
      "name": "tokens",
      "outputs": [
        {
          "internalType": "uint256",
          "name": "",
          "type": "uint256"
        }
      ],
      "stateMutability": "view",
      "type": "function"
    },
    {
      "inputs": [
        {
          "internalType": "address",
          "name": "newOwner",
          "type": "address"
        }
      ],
      "name": "transferOwnership",
      "outputs": [],
      "stateMutability": "nonpayable",
      "type": "function"
    },
    {
      "inputs": [],
      "name": "tssThreshold",
      "outputs": [
        {
          "internalType": "uint8",
          "name": "",
          "type": "uint8"
        }
      ],
      "stateMutability": "view",
      "type": "function"
    },
    {
      "inputs": [
        {
          "internalType": "address",
          "name": "",
          "type": "address"
        }
      ],
      "name": "whitelist",
      "outputs": [
        {
          "internalType": "bool",
          "name": "",
          "type": "bool"
        }
      ],
      "stateMutability": "view",
      "type": "function"
    },
    {
      "inputs": [],
      "name": "withdrawalFeeBPS",
      "outputs": [
        {
          "internalType": "uint8",
          "name": "",
          "type": "uint8"
        }
      ],
      "stateMutability": "view",
      "type": "function"
    }
  ],
  "bytecode": "0x60806040523480156200001157600080fd5b506040516200352438038062003524833981810160405260608110156200003757600080fd5b508051602082015160409092015190919060006200005462000296565b600080546001600160a01b0319166001600160a01b0383169081178255604051929350917f8be0079c531659141344cd1fd0a4f28419497f9722a3daafe3b4186f6b6457e0908290a350600280546001600160a01b0319166001600160a01b0385811691909117918290556040805163313ce56760e01b81529051929091169163313ce56791600480820192602092909190829003018186803b158015620000fb57600080fd5b505afa15801562000110573d6000803e3d6000fd5b505050506040513d60208110156200012757600080fd5b505160ff16600a0a600955600180546001600160a01b0319166001600160a01b0384169081179091556004805462ff00001916624200001763ff000000191663320000001760ff60201b19166414000000001781556040805163313ce56760e01b815290516008939263313ce56792808201926020929091829003018186803b158015620001b457600080fd5b505afa158015620001c9573d6000803e3d6000fd5b505050506040513d6020811015620001e057600080fd5b50510360ff16600a90810a600855600954600755600060058190556006819055600180546001600160a01b039081168352600360209081526040808520805460ff1990811686179091556002549093168552842080548316841790559280527f3617319a054d772f909f7c479a2cebe5066e836a939412e32403c99029b92eff80549091169091179055527f13da86008ba1c6922daee3e07db95305ef49ebced9f5467a0b8613fcc6b343e355506200029a9050565b3390565b61327a80620002aa6000396000f3fe608060405234801561001057600080fd5b50600436106102105760003560e01c80636d019f3511610125578063b6268e5d116100ad578063e9e9bf6a1161007c578063e9e9bf6a146109be578063ec482729146109c6578063f2fde38b14610a0d578063f7824bc714610a33578063f9f479e114610a3b57610210565b8063b6268e5d146108b0578063c810a539146108b8578063d6b2779a146108db578063e6ca2084146109a157610210565b8063824d026d116100f4578063824d026d14610690578063888d0dd71461071d5780638da5cb5b146107435780639b19251a1461074b578063ad289e761461077157610210565b80636d019f351461062057806370a0823114610628578063715018a61461064e5780638006cc3e1461065857610210565b80633b6fa127116101a85780634e54cee0116101775780634e54cee01461040a578063508493bc146105585780635fcbd2851461058657806363f289d91461058e5780636b51e919146105c857610210565b80633b6fa127146103a257806342419255146103ce57806345137e27146103d65780634db75485146103de57610210565b80630fd3d41c116101e45780630fd3d41c1461034057806312d1441e146103485780632586c562146103505780632d55282d1461038857610210565b806289356f146102155780630b68134d146102335780630d63aca71461023b5780630f9094861461031c575b600080fd5b61021d610ad8565b6040805160ff9092168252519081900360200190f35b61021d610ae1565b610308600480360360c081101561025157600080fd5b6001600160a01b0382358116926020810135909116916040820135916060810135916080820135919081019060c0810160a0820135600160201b81111561029757600080fd5b8201836020820111156102a957600080fd5b803590602001918460208302840111600160201b831117156102ca57600080fd5b919080806020026020016040519081016040528093929190818152602001838360200280828437600092019190915250929550610af0945050505050565b604080519115158252519081900360200190f35b610324610c8f565b604080516001600160a01b039092168252519081900360200190f35b610308610c9e565b61021d610ca3565b6103086004803603608081101561036657600080fd5b506001600160a01b038135169060208101359060408101359060600135610cb1565b610390610df5565b60408051918252519081900360200190f35b610390600480360360408110156103b857600080fd5b506001600160a01b038135169060200135610dfb565b61021d610e87565b610390610e97565b610308600480360360408110156103f457600080fd5b506001600160a01b038135169060200135610f83565b610308600480360360e081101561042057600080fd5b6001600160a01b038235169190810190604081016020820135600160201b81111561044a57600080fd5b82018360208201111561045c57600080fd5b803590602001918460208302840111600160201b8311171561047d57600080fd5b9190808060200260200160405190810160405280939291908181526020018383602002808284376000920191909152509295949360208101935035915050600160201b8111156104cc57600080fd5b8201836020820111156104de57600080fd5b803590602001918460208302840111600160201b831117156104ff57600080fd5b9190808060200260200160405190810160405280939291908181526020018383602002808284376000920191909152509295505060ff8335811694506020840135811693604081013582169350606001351690506110c7565b6103906004803603604081101561056e57600080fd5b506001600160a01b03813581169160200135166113e5565b610324611402565b610308600480360360808110156105a457600080fd5b506001600160a01b0381351690602081013590604081013515159060600135611411565b6105d06114ef565b60408051602080825283518183015283519192839290830191858101910280838360005b8381101561060c5781810151838201526020016105f4565b505050509050019250505060405180910390f35b61039061164e565b6103906004803603602081101561063e57600080fd5b50356001600160a01b0316611654565b61065661167a565b005b6103086004803603608081101561066e57600080fd5b506001600160a01b038135169060208101359060408101359060600135611726565b610656600480360360a08110156106a657600080fd5b6001600160a01b038235169160208101359160408201359190810190608081016060820135600160201b8111156106dc57600080fd5b8201836020820111156106ee57600080fd5b803590602001918460208302840111600160201b8311171561070f57600080fd5b91935091503560ff16611857565b6106566004803603602081101561073357600080fd5b50356001600160a01b0316611907565b610324611913565b6103086004803603602081101561076157600080fd5b50356001600160a01b0316611922565b610308600480360360a081101561078757600080fd5b6001600160a01b038235169190810190604081016020820135600160201b8111156107b157600080fd5b8201836020820111156107c357600080fd5b803590602001918460208302840111600160201b831117156107e457600080fd5b9190808060200260200160405190810160405280939291908181526020018383602002808284376000920191909152509295843595602086013595919450925060608101915060400135600160201b81111561083f57600080fd5b82018360208201111561085157600080fd5b803590602001918460208302840111600160201b8311171561087257600080fd5b919080806020026020016040519081016040528093929190818152602001838360200280828437600092019190915250929550611937945050505050565b61021d611b11565b610308600480360360408110156108ce57600080fd5b5080359060200135611b21565b610308600480360360a08110156108f157600080fd5b6001600160a01b03823581169260208101359091169160408201359160608101359181019060a081016080820135600160201b81111561093057600080fd5b82018360208201111561094257600080fd5b803590602001918460208302840111600160201b8311171561096357600080fd5b919080806020026020016040519081016040528093929190818152602001838360200280828437600092019190915250929550611c85945050505050565b610308600480360360208110156109b757600080fd5b5035611e3e565b610308611e53565b6109f4600480360360408110156109dc57600080fd5b506001600160a01b03813581169160200135166120ba565b6040805192835260208301919091528051918290030190f35b61065660048036036020811015610a2357600080fd5b50356001600160a01b03166120e4565b6103906121e6565b610656600480360360e0811015610a5157600080fd5b6001600160a01b0382358116926020810135909116916040820135916060810135916080820135919081019060c0810160a0820135600160201b811115610a9757600080fd5b820183602082011115610aa957600080fd5b803590602001918460208302840111600160201b83111715610aca57600080fd5b91935091503560ff166121ec565b60045460ff1681565b60045462010000900460ff1681565b6000610afa6122b7565b6001600160a01b0316610b0b611913565b6001600160a01b031614610b54576040805162461bcd60e51b815260206004820181905260248201526000805160206131a0833981519152604482015290519081900360640190fd5b6001600160a01b03871660009081526003602052604090205460ff16610bc1576040805162461bcd60e51b815260206004820152601d60248201527f5f64657374546f6b656e206973206e6f742077686974656c6973746564000000604482015290519081900360640190fd5b6001600160a01b038716610c065760405162461bcd60e51b81526004018080602001828103825260238152602001806132226023913960400191505060405180910390fd5b60008415610c2c57600154610c27906000906001600160a01b0316876122bb565b610c3f565b84610c3f57506001546001600160a01b03165b6002546001600160a01b0389811691161415610c6357506002546001600160a01b03165b610c6d81856123a7565b610c768361251e565b610c8188888861256d565b506001979650505050505050565b6001546001600160a01b031681565b600090565b600454610100900460ff1681565b6000610cbb6122b7565b6001600160a01b0316610ccc611913565b6001600160a01b031614610d15576040805162461bcd60e51b815260206004820181905260248201526000805160206131a0833981519152604482015290519081900360640190fd5b6000610d1f610e97565b6001600160a01b03871660009081526003602052604090205490915060ff16610d83576040805162461bcd60e51b815260206004820152601160248201527017dd1bdad95b881a5cc81a5b9d985b1a59607a1b604482015290519081900360640190fd5b610d8f86868686612625565b610d9857600080fd5b6001915080610da5610e97565b1015610dec576040805162461bcd60e51b8152602060048201526011602482015270496e76616c6964204c505420707269636560781b604482015290519081900360640190fd5b50949350505050565b60055481565b600080610e0884846129c1565b90508060ff1660011415610e4a576001546001600160a01b03858116911614610e32576000610e40565b6004546301000000900460ff165b60ff169150610e80565b8060ff1660021415610e80576001600160a01b03841615610e6c576000610e7a565b6004546301000000900460ff165b60ff1691505b5092915050565b6004546301000000900460ff1681565b60015460009081908190610eb59082906001600160a01b03166120ba565b915091506000600260009054906101000a90046001600160a01b03166001600160a01b03166318160ddd6040518163ffffffff1660e01b815260040160206040518083038186803b158015610f0957600080fd5b505afa158015610f1d573d6000803e3d6000fd5b505050506040513d6020811015610f3357600080fd5b505190508015610f7757610f72610f5560055483612a7b90919063ffffffff16565b600954610f6c90610f668787612a7b565b90612adc565b90612b35565b610f7b565b6007545b935050505090565b6001600160a01b0382166000908152600f60209081526040808320338452909152812054821115610ff2576040805162461bcd60e51b8152602060048201526014602482015273496e73756666696369656e742042616c616e636560601b604482015290519081900360640190fd5b6001600160a01b0383166000908152600f602090815260408083203384529091529020546110209083612b9c565b6001600160a01b0384166000908152600f60209081526040808320338085529252909120919091556110549084908461256d565b6001600160a01b0383166000818152600f602090815260408083203380855290835292819020548151948552918401929092528282018590526060830152517ff341246adaac6f497bc2a656f546ab9e182111d630394f0c57c710a59a2cb5679181900360800190a15060015b92915050565b60006110d16122b7565b6001600160a01b03166110e2611913565b6001600160a01b03161461112b576040805162461bcd60e51b815260206004820181905260248201526000805160206131a0833981519152604482015290519081900360640190fd5b60045460ff61010090910481169085161080159061114d575060ff8460ff1611155b6111885760405162461bcd60e51b81526004018080602001828103825260278152602001806131376027913960400191505060405180910390fd5b6001840160ff168560ff1610156111db576040805162461bcd60e51b81526020600482015260126024820152716e2073686f756c64206265203e3d20742b3160701b604482015290519081900360640190fd5b60648360ff161115611234576040805162461bcd60e51b815260206004820152601e60248201527f5f6e6f646552657761726473526174696f206973206e6f742076616c69640000604482015290519081900360640190fd5b60648260ff16111561128d576040805162461bcd60e51b815260206004820152601c60248201527f5f7769746864726177616c46656542505320697320696e76616c696400000000604482015290519081900360640190fd5b85518751146112cd5760405162461bcd60e51b815260040180806020018281038252603b8152602001806131e7603b913960400191505060405180910390fd5b6112d6886120e4565b60005b875181101561133e5760006113008983815181106112f357fe5b6020026020010151612bf9565b509050611334818a848151811061131357fe5b60200260200101518a858151811061132757fe5b6020026020010151612c02565b50506001016112d9565b5060606113496114ef565b905060648151111561138c5760405162461bcd60e51b815260040180806020018281038252602181526020018061317f6021913960400191505060405180910390fd5b50506004805460ff191660ff9586161761ff001916610100948616949094029390931762ff0000191662010000928516929092029190911764ff000000001916600160201b919093160291909117905550600192915050565b600f60209081526000928352604080842090915290825290205481565b6002546001600160a01b031681565b600061141b6122b7565b6001600160a01b031661142c611913565b6001600160a01b031614611475576040805162461bcd60e51b815260206004820181905260248201526000805160206131a0833981519152604482015290519081900360640190fd5b600061147f610e97565b6001600160a01b03871660009081526003602052604090205490915060ff166114e3576040805162461bcd60e51b815260206004820152601160248201527017dd1bdad95b881a5cc81a5b9d985b1a59607a1b604482015290519081900360640190fd5b610d8f86868686612cd1565b606060008060005b600e5481101561155257600c6000600e838154811061151257fe5b60009182526020808320909101546001600160a01b031683528201929092526040019020541561154a57611547836001612a7b565b92505b6001016114f7565b5060608267ffffffffffffffff8111801561156c57600080fd5b50604051908082528060200260200182016040528015611596578160200160208202803683370190505b50905060005b600e5481101561164657600c6000600e83815481106115b757fe5b60009182526020808320909101546001600160a01b031683528201929092526040019020541561163e57600c6000600e83815481106115f257fe5b60009182526020808320909101546001600160a01b03168352820192909252604001902054825183908590811061162557fe5b602090810291909101015261163b836001612a7b565b92505b60010161159c565b509250505090565b60075481565b6001600160a01b03166000908152600f6020908152604080832033845290915290205490565b6116826122b7565b6001600160a01b0316611693611913565b6001600160a01b0316146116dc576040805162461bcd60e51b815260206004820181905260248201526000805160206131a0833981519152604482015290519081900360640190fd5b600080546040516001600160a01b03909116907f8be0079c531659141344cd1fd0a4f28419497f9722a3daafe3b4186f6b6457e0908390a3600080546001600160a01b0319169055565b60006117306122b7565b6001600160a01b0316611741611913565b6001600160a01b03161461178a576040805162461bcd60e51b815260206004820181905260248201526000805160206131a0833981519152604482015290519081900360640190fd5b6001600160a01b038516156117e6576040805162461bcd60e51b815260206004820152601f60248201527f5f64657374546f6b656e2073686f756c64206265206164647265737328302900604482015290519081900360640190fd5b6001546001600160a01b0316841561183857600061180e856118088887612b9c565b90612b9c565b600154909150611832906001600160a01b0316600061182d8489612a7b565b6122bb565b50611841565b84611841575060005b61184b81846123a7565b50600195945050505050565b856001600160a01b03166358b9d17986868686866040518663ffffffff1660e01b815260040180868152602001858152602001806020018360ff1681526020018281038252858582818152602001925060200280828437600081840152601f19601f8201169050808301925050509650505050505050600060405180830381600087803b1580156118e757600080fd5b505af11580156118fb573d6000803e3d6000fd5b50505050505050505050565b61191081612f18565b50565b6000546001600160a01b031690565b60036020526000908152604090205460ff1681565b60006119416122b7565b6001600160a01b0316611952611913565b6001600160a01b03161461199b576040805162461bcd60e51b815260206004820181905260248201526000805160206131a0833981519152604482015290519081900360640190fd5b6001600160a01b03861660009081526003602052604090205460ff16611a08576040805162461bcd60e51b815260206004820152601d60248201527f5f64657374546f6b656e206973206e6f742077686974656c6973746564000000604482015290519081900360640190fd5b6001600160a01b038616611a4d5760405162461bcd60e51b81526004018080602001828103825260238152602001806132226023913960400191505060405180910390fd5b60008415611a7357600154611a6e906000906001600160a01b0316876122bb565b611a86565b84611a8657506001546001600160a01b03165b6002546001600160a01b0388811691161415611aaa57506002546001600160a01b03165b611ab481856123a7565b611abd8361251e565b60005b8651811015610c8157611b0988888381518110611ad957fe5b602002602001015160001c898481518110611af057fe5b602002602001015160a01c6001600160601b031661256d565b600101611ac0565b600454600160201b900460ff1681565b6000611b2b6122b7565b6001600160a01b0316611b3c611913565b6001600160a01b031614611b85576040805162461bcd60e51b815260206004820181905260248201526000805160206131a0833981519152604482015290519081900360640190fd5b611b8e82611e3e565b15611bdb576040805162461bcd60e51b8152602060048201526018602482015277151a19481d1e1a59081a5cc8185b1c9958591e481d5cd95960421b604482015290519081900360640190fd5b60408051808201909152601d81527f42544320666c6f617420616d6f756e7420696e73756666696369656e7400000060208083019190915260008052600a90527f13da86008ba1c6922daee3e07db95305ef49ebced9f5467a0b8613fcc6b343e354611c48918590612f64565b60008052600a6020527f13da86008ba1c6922daee3e07db95305ef49ebced9f5467a0b8613fcc6b343e355611c7c82612ffb565b50600192915050565b6000611c8f6122b7565b6001600160a01b0316611ca0611913565b6001600160a01b031614611ce9576040805162461bcd60e51b815260206004820181905260248201526000805160206131a0833981519152604482015290519081900360640190fd5b6001600160a01b03861660009081526003602052604090205460ff16611d56576040805162461bcd60e51b815260206004820152601d60248201527f5f64657374546f6b656e206973206e6f742077686974656c6973746564000000604482015290519081900360640190fd5b6001600160a01b038616611d9b5760405162461bcd60e51b81526004018080602001828103825260238152602001806132226023913960400191505060405180910390fd5b60008315611dc157600154611dbc906000906001600160a01b0316866122bb565b611dd4565b83611dd457506001546001600160a01b03165b6002546001600160a01b0388811691161415611df857506002546001600160a01b03165b611e028786613016565b611e0b8361251e565b505050506001600160a01b039283166000908152600f602090815260408083209490951682529290925291902055600190565b6000908152600b602052604090205460ff1690565b600080611e6d600654600554612a7b90919063ffffffff16565b905060008111611eae5760405162461bcd60e51b81526004018080602001828103825260258152602001806130b86025913960400191505060405180910390fd5b6060611eb86114ef565b90506000805b8251811015611f0357611ef9838281518110611ed657fe5b602002602001015160a01c6001600160601b031683612a7b90919063ffffffff16565b9150600101611ebe565b50600254600554604080516340c10f1960e01b81523060048201526024810192909252516001600160a01b03909216916340c10f19916044808201926020929091908290030181600087803b158015611f5b57600080fd5b505af1158015611f6f573d6000803e3d6000fd5b505050506040513d6020811015611f8557600080fd5b50600090505b82518110156120725760025483516001600160a01b039091169063a9059cbb90859084908110611fb757fe5b602002602001015160001c611ff885610f6c888781518110611fd557fe5b602002602001015160a01c6001600160601b03168a612adc90919063ffffffff16565b6040518363ffffffff1660e01b815260040180836001600160a01b0316815260200182815260200192505050602060405180830381600087803b15801561203e57600080fd5b505af1158015612052573d6000803e3d6000fd5b505050506040513d602081101561206857600080fd5b5050600101611f8b565b506040805184815290517f86dd6ae252e62228b47b3c1a12762cbf634952b2d29319b04f4f72fb153bcbdd9181900360200190a1505060006005819055600655506001905090565b6001600160a01b039182166000908152600a60205260408082205492909316815291909120549091565b6120ec6122b7565b6001600160a01b03166120fd611913565b6001600160a01b031614612146576040805162461bcd60e51b815260206004820181905260248201526000805160206131a0833981519152604482015290519081900360640190fd5b6001600160a01b03811661218b5760405162461bcd60e51b81526004018080602001828103825260268152602001806131116026913960400191505060405180910390fd5b600080546040516001600160a01b03808516939216917f8be0079c531659141344cd1fd0a4f28419497f9722a3daafe3b4186f6b6457e091a3600080546001600160a01b0319166001600160a01b0392909216919091179055565b60065481565b876001600160a01b0316630863b7ac888888888888886040518863ffffffff1660e01b815260040180886001600160a01b03168152602001878152602001868152602001858152602001806020018360ff1681526020018281038252858582818152602001925060200280828437600081840152601f19601f82011690508083019250505098505050505050505050600060405180830381600087803b15801561229557600080fd5b505af11580156122a9573d6000803e3d6000fd5b505050505050505050505050565b3390565b60408051808201825260208082527f5f737761703a20666c6f617420616d6f756e7420696e73756666696369656e74818301526001600160a01b0385166000908152600a9091529190912054612312918390612f64565b6001600160a01b038084166000908152600a602052604080822093909355908516815220546123419082612a7b565b6001600160a01b038085166000818152600a602090815260409182902094909455805191825291851692810192909252818101839052517fea368a40e9570069bb8e6511d668293ad2e1f03b0d982431fd223de9f3b70ca69181900360600190a1505050565b806123b15761251a565b6002546001600160a01b038381169116141561242c576006546123d49082612a7b565b600655604080516001600160a01b0384168152602081018390526000818301819052606082015290517fe3debe835f6848edc082b32a1d729781d3bfcd7e14422d80bcaa6794d3816b2f9181900360800190a161251a565b6000612436610e97565b6001600160a01b0384166000908152600a602052604090205490915061245c9083612a7b565b6001600160a01b0384166000908152600a602052604081209190915560045461249690606490610f6c90869062010000900460ff16612adc565b905060006124b383610f6c60095485612adc90919063ffffffff16565b6005549091506124c39082612a7b565b600555604080516001600160a01b0387168152602081018690528082018390526060810185905290517fe3debe835f6848edc082b32a1d729781d3bfcd7e14422d80bcaa6794d3816b2f9181900360800190a15050505b5050565b60005b815181101561251a576001600b600084848151811061253c57fe5b6020908102919091018101518252810191909152604001600020805460ff1916911515919091179055600101612521565b6001546001600160a01b038481169116141561259457600854612591908290612adc565b90505b826001600160a01b031663a9059cbb83836040518363ffffffff1660e01b815260040180836001600160a01b0316815260200182815260200192505050602060405180830381600087803b1580156125eb57600080fd5b505af11580156125ff573d6000803e3d6000fd5b505050506040513d602081101561261557600080fd5b505161262057600080fd5b505050565b600061263082611e3e565b1561267d576040805162461bcd60e51b8152602060048201526018602482015277151a19481d1e1a59081a5cc8185b1c9958591e481d5cd95960421b604482015290519081900360640190fd5b836126cf576040805162461bcd60e51b815260206004820152601c60248201527f546865207472616e73616374696f6e206973206e6f742076616c696400000000604482015290519081900360640190fd5b6000806126db86612bf9565b9150915060006126e9610e97565b90506000612706600954610f6c8486612adc90919063ffffffff16565b60045490915060009061272c9061271090610f6c908590600160201b900460ff16612adc565b9050876127398383612b9c565b10156127765760405162461bcd60e51b81526004018080602001828103825260348152602001806130dd6034913960400191505060405180910390fd5b6000612786896118088585612b9c565b60015490915060009081906127a59082906001600160a01b03166120ba565b90925090506001600160a01b038d1661281b576127c28585612b9c565b821015612816576040805162461bcd60e51b815260206004820152601f60248201527f54686520666c6f61742062616c616e636520696e73756666696369656e742e00604482015290519081900360640190fd5b61288f565b6001546001600160a01b038e81169116141561288f5761283b8585612b9c565b81101561288f576040805162461bcd60e51b815260206004820152601f60248201527f54686520666c6f61742062616c616e636520696e73756666696369656e742e00604482015290519081900360640190fd5b6128998d856123a7565b6128a38d86613016565b6128ac8a612ffb565b6001546001600160a01b038e8116911614156128cd576128cd8d898561256d565b60025460408051630852cd8d60e31b8152600481018a905290516001600160a01b03909216916342966c68916024808201926020929091908290030181600087803b15801561291b57600080fd5b505af115801561292f573d6000803e3d6000fd5b505050506040513d602081101561294557600080fd5b505161295057600080fd5b604080516001600160a01b038a16815260208101899052808201879052606081018890526080810185905260a081018c905290517fa9da34e5e4a956b744307ae7611795634e8365951073bf049d76b64b2ae7a0589181900360c00190a15060019c9b505050505050505050505050565b600154600090819081906129df9082906001600160a01b03166120ba565b90925090506000612a046003610f6c6002610f66896129fe8989612a7b565b90612a7b565b6001549091506001600160a01b038781169116148015612a2d575080612a2a8387612a7b565b10155b15612a3e57600193505050506110c1565b6001600160a01b038616158015612a5e575080612a5b8487612a7b565b10155b15612a6f57600293505050506110c1565b50600095945050505050565b600082820183811015612ad5576040805162461bcd60e51b815260206004820152601b60248201527f536166654d6174683a206164646974696f6e206f766572666c6f770000000000604482015290519081900360640190fd5b9392505050565b600082612aeb575060006110c1565b82820282848281612af857fe5b0414612ad55760405162461bcd60e51b815260040180806020018281038252602181526020018061315e6021913960400191505060405180910390fd5b6000808211612b8b576040805162461bcd60e51b815260206004820152601a60248201527f536166654d6174683a206469766973696f6e206279207a65726f000000000000604482015290519081900360640190fd5b818381612b9457fe5b049392505050565b600082821115612bf3576040805162461bcd60e51b815260206004820152601e60248201527f536166654d6174683a207375627472616374696f6e206f766572666c6f770000604482015290519081900360640190fd5b50900390565b9060a082901c90565b60008115612c2b57506001600160a01b0383166000908152600c60205260408120556001612ad5565b6001600160a01b0384166000908152600d602052604090205460ff16612caf57600e805460018082019092557fbb7b4a454dc3493923482f07822329ed19e8244eff582cc204f8554c3620c3fd0180546001600160a01b0319166001600160a01b0387169081179091556000908152600d60205260409020805460ff191690911790555b50506001600160a01b03919091166000908152600c6020526040902055600190565b6000612cdc82611e3e565b15612d29576040805162461bcd60e51b8152602060048201526018602482015277151a19481d1e1a59081a5cc8185b1c9958591e481d5cd95960421b604482015290519081900360640190fd5b83612d7b576040805162461bcd60e51b815260206004820152601c60248201527f546865207472616e73616374696f6e206973206e6f742076616c696400000000604482015290519081900360640190fd5b600080612d8786612bf9565b915091506000612d95610e97565b90506000612db282610f6c60095486612adc90919063ffffffff16565b90506000612dc08a85610dfb565b9050600081612dd0576000612de0565b612de0612710610f6c8585612adc565b9050888015612dee57508015155b15612df857600080fd5b6002546001600160a01b03166340c10f1987612e148685612b9c565b6040518363ffffffff1660e01b815260040180836001600160a01b0316815260200182815260200192505050602060405180830381600087803b158015612e5a57600080fd5b505af1158015612e6e573d6000803e3d6000fd5b505050506040513d6020811015612e8457600080fd5b5050600554612e939082612a7b565b600555612ea08b86613073565b612ea988612ffb565b604080516001600160a01b038816815260208101879052808201859052606081018690526080810183905260a081018a905290517fdfaf4e23f7030adafec91a682e05bf9fb30c721f9cec3d8bcfae0459c5362db19181900360c00190a15060019a9950505050505050505050565b604080516001600160a01b0383166024808301919091528251808303909101815260449091019091526020810180516001600160e01b031663161765e160e11b17905261191090613096565b60008184841115612ff35760405162461bcd60e51b81526004018080602001828103825283818151815260200191508051906020019080838360005b83811015612fb8578181015183820152602001612fa0565b50505050905090810190601f168015612fe55780820380516001836020036101000a031916815260200191505b509250505060405180910390fd5b505050900390565b6000908152600b60205260409020805460ff19166001179055565b613053816040518060600160405280602781526020016131c0602791396001600160a01b0385166000908152600a60205260409020549190612f64565b6001600160a01b039092166000908152600a602052604090209190915550565b6001600160a01b0382166000908152600a60205260409020546130539082612a7b565b80516a636f6e736f6c652e6c6f67602083016000808483855afa505050505056fe746f74616c5265776172644c5073466f724e6f6465206973206e6f7420706f7369746976654572726f723a20616d6f756e744f66466c6f61742e737562287769746864726177616c4665657329203c205f6d696e65724665654f776e61626c653a206e6577206f776e657220697320746865207a65726f20616464726573735f7473735468726573686f6c642073686f756c64206265203e3d207473735468726573686f6c64536166654d6174683a206d756c7469706c69636174696f6e206f766572666c6f7753746f726564206e6f64652073697a652073686f756c64206265203c3d203130304f776e61626c653a2063616c6c6572206973206e6f7420746865206f776e65725f72656d6f7665466c6f61743a20666c6f617420616d6f756e7420696e73756666696369656e745f72657761726441646472657373416e64416d6f756e747320616e64205f697352656d6f766564206c656e677468206973206e6f74206d617463685f64657374546f6b656e2073686f756c64206e6f742062652061646472657373283029a264697066735822122069d97ccb45562f1e9ad46b8c644fefb4d9ce8f26930ae18e89d88688f6d4980f64736f6c63430007050033",
  "linkReferences": {},
  "deployedLinkReferences": {}
}