{
  "_format": "hh-sol-artifact-1",
  "contractName": "SwapContract",
  "sourceName": "contracts/SwapContract.sol",
  "abi": [
    {
      "inputs": [
        {
          "internalType": "address",
          "name": "_lpToken",
          "type": "address"
        },
        {
          "internalType": "address",
          "name": "_btct",
          "type": "address"
        },
        {
          "internalType": "uint256",
          "name": "_existingBTCFloat",
          "type": "uint256"
        }
      ],
      "stateMutability": "nonpayable",
      "type": "constructor"
    },
    {
      "anonymous": false,
      "inputs": [
        {
          "indexed": false,
          "internalType": "address",
          "name": "token",
          "type": "address"
        },
        {
          "indexed": false,
          "internalType": "uint256",
          "name": "amountOfLP",
          "type": "uint256"
        },
        {
          "indexed": false,
          "internalType": "uint256",
          "name": "amountOfFloat",
          "type": "uint256"
        },
        {
          "indexed": false,
          "internalType": "uint256",
          "name": "currentPriceLP",
          "type": "uint256"
        },
        {
          "indexed": false,
          "internalType": "uint256",
          "name": "withdrawal",
          "type": "uint256"
        },
        {
          "indexed": false,
          "internalType": "bytes32",
          "name": "txid",
          "type": "bytes32"
        }
      ],
      "name": "BurnLPTokensForFloat",
      "type": "event"
    },
    {
      "anonymous": false,
      "inputs": [
        {
          "indexed": false,
          "internalType": "address",
          "name": "token",
          "type": "address"
        },
        {
          "indexed": false,
          "internalType": "address",
          "name": "user",
          "type": "address"
        },
        {
          "indexed": false,
          "internalType": "uint256",
          "name": "amount",
          "type": "uint256"
        },
        {
          "indexed": false,
          "internalType": "uint256",
          "name": "balance",
          "type": "uint256"
        },
        {
          "indexed": false,
          "internalType": "uint256",
          "name": "Timestamp",
          "type": "uint256"
        }
      ],
      "name": "Deposit",
      "type": "event"
    },
    {
      "anonymous": false,
      "inputs": [
        {
          "indexed": false,
          "internalType": "uint256",
          "name": "rewardLPTsForNodes",
          "type": "uint256"
        }
      ],
      "name": "DistributeNodeRewards",
      "type": "event"
    },
    {
      "anonymous": false,
      "inputs": [
        {
          "indexed": false,
          "internalType": "address",
          "name": "to",
          "type": "address"
        },
        {
          "indexed": false,
          "internalType": "uint256",
          "name": "amountOfFloat",
          "type": "uint256"
        },
        {
          "indexed": false,
          "internalType": "uint256",
          "name": "amountOfLP",
          "type": "uint256"
        },
        {
          "indexed": false,
          "internalType": "uint256",
          "name": "currentPriceLP",
          "type": "uint256"
        },
        {
          "indexed": false,
          "internalType": "uint256",
          "name": "depositFees",
          "type": "uint256"
        },
        {
          "indexed": false,
          "internalType": "bytes32",
          "name": "txid",
          "type": "bytes32"
        }
      ],
      "name": "IssueLPTokensForFloat",
      "type": "event"
    },
    {
      "anonymous": false,
      "inputs": [
        {
          "indexed": true,
          "internalType": "address",
          "name": "previousOwner",
          "type": "address"
        },
        {
          "indexed": true,
          "internalType": "address",
          "name": "newOwner",
          "type": "address"
        }
      ],
      "name": "OwnershipTransferred",
      "type": "event"
    },
    {
      "anonymous": false,
      "inputs": [
        {
          "indexed": false,
          "internalType": "address",
          "name": "feesToken",
          "type": "address"
        },
        {
          "indexed": false,
          "internalType": "uint256",
          "name": "rewards",
          "type": "uint256"
        },
        {
          "indexed": false,
          "internalType": "uint256",
          "name": "amountLPTokensForNode",
          "type": "uint256"
        },
        {
          "indexed": false,
          "internalType": "uint256",
          "name": "currentPriceLP",
          "type": "uint256"
        }
      ],
      "name": "RewardsCollection",
      "type": "event"
    },
    {
      "anonymous": false,
      "inputs": [
        {
          "indexed": false,
          "internalType": "address",
          "name": "from",
          "type": "address"
        },
        {
          "indexed": false,
          "internalType": "address",
          "name": "to",
          "type": "address"
        },
        {
          "indexed": false,
          "internalType": "uint256",
          "name": "amount",
          "type": "uint256"
        }
      ],
      "name": "Swap",
      "type": "event"
    },
    {
      "anonymous": false,
      "inputs": [
        {
          "indexed": false,
          "internalType": "address",
          "name": "token",
          "type": "address"
        },
        {
          "indexed": false,
          "internalType": "address",
          "name": "user",
          "type": "address"
        },
        {
          "indexed": false,
          "internalType": "uint256",
          "name": "amount",
          "type": "uint256"
        },
        {
          "indexed": false,
          "internalType": "uint256",
          "name": "balance",
          "type": "uint256"
        }
      ],
      "name": "Withdraw",
      "type": "event"
    },
    {
      "stateMutability": "nonpayable",
      "type": "fallback"
    },
    {
      "inputs": [],
      "name": "BTCT_ADDR",
      "outputs": [
        {
          "internalType": "address",
          "name": "",
          "type": "address"
        }
      ],
      "stateMutability": "view",
      "type": "function"
    },
    {
      "inputs": [
        {
          "internalType": "address",
          "name": "_token",
          "type": "address"
        },
        {
          "internalType": "address",
          "name": "_user",
          "type": "address"
        }
      ],
      "name": "balanceOf",
      "outputs": [
        {
          "internalType": "uint256",
          "name": "",
          "type": "uint256"
        }
      ],
      "stateMutability": "view",
      "type": "function"
    },
    {
      "inputs": [
        {
          "internalType": "address",
          "name": "_newOwner",
          "type": "address"
        },
        {
          "internalType": "bytes32[]",
          "name": "_rewardAddressAndAmounts",
          "type": "bytes32[]"
        },
        {
          "internalType": "bool[]",
          "name": "_isRemoved",
          "type": "bool[]"
        },
        {
          "internalType": "uint8",
          "name": "_churnedInCount",
          "type": "uint8"
        },
        {
          "internalType": "uint8",
          "name": "_tssThreshold",
          "type": "uint8"
        },
        {
          "internalType": "uint8",
          "name": "_nodeRewardsRatio",
          "type": "uint8"
        },
        {
          "internalType": "uint8",
          "name": "_withdrawalFeeBPS",
          "type": "uint8"
        }
      ],
      "name": "churn",
      "outputs": [
        {
          "internalType": "bool",
          "name": "",
          "type": "bool"
        }
      ],
      "stateMutability": "nonpayable",
      "type": "function"
    },
    {
      "inputs": [],
      "name": "churnedInCount",
      "outputs": [
        {
          "internalType": "uint8",
          "name": "",
          "type": "uint8"
        }
      ],
      "stateMutability": "view",
      "type": "function"
    },
    {
      "inputs": [
        {
          "internalType": "address",
          "name": "_destToken",
          "type": "address"
        },
        {
          "internalType": "uint256",
          "name": "_incomingAmount",
          "type": "uint256"
        },
        {
          "internalType": "uint256",
          "name": "_minerFee",
          "type": "uint256"
        },
        {
          "internalType": "uint256",
          "name": "_rewardsAmount",
          "type": "uint256"
        }
      ],
      "name": "collectSwapFeesForBTC",
      "outputs": [
        {
          "internalType": "bool",
          "name": "",
          "type": "bool"
        }
      ],
      "stateMutability": "nonpayable",
      "type": "function"
    },
    {
      "inputs": [],
      "name": "depositFeesBPS",
      "outputs": [
        {
          "internalType": "uint8",
          "name": "",
          "type": "uint8"
        }
      ],
      "stateMutability": "view",
      "type": "function"
    },
    {
      "inputs": [],
      "name": "distributeNodeRewards",
      "outputs": [
        {
          "internalType": "bool",
          "name": "",
          "type": "bool"
        }
      ],
      "stateMutability": "nonpayable",
      "type": "function"
    },
    {
      "inputs": [
        {
          "internalType": "address",
          "name": "paraSwapAddress",
          "type": "address"
        },
        {
          "components": [
            {
              "internalType": "address",
              "name": "fromToken",
              "type": "address"
            },
            {
              "internalType": "address",
              "name": "toToken",
              "type": "address"
            },
            {
              "internalType": "uint256",
              "name": "fromAmount",
              "type": "uint256"
            },
            {
              "internalType": "uint256",
              "name": "toAmount",
              "type": "uint256"
            },
            {
              "internalType": "uint256",
              "name": "expectedAmount",
              "type": "uint256"
            },
            {
              "internalType": "address[]",
              "name": "callees",
              "type": "address[]"
            },
            {
              "internalType": "bytes",
              "name": "exchangeData",
              "type": "bytes"
            },
            {
              "internalType": "uint256[]",
              "name": "startIndexes",
              "type": "uint256[]"
            },
            {
              "internalType": "uint256[]",
              "name": "values",
              "type": "uint256[]"
            },
            {
              "internalType": "address payable",
              "name": "beneficiary",
              "type": "address"
            },
            {
              "internalType": "address payable",
              "name": "partner",
              "type": "address"
            },
            {
              "internalType": "uint256",
              "name": "feePercent",
              "type": "uint256"
            },
            {
              "internalType": "bytes",
              "name": "permit",
              "type": "bytes"
            },
            {
              "internalType": "uint256",
              "name": "deadline",
              "type": "uint256"
            },
            {
              "internalType": "bytes16",
              "name": "uuid",
              "type": "bytes16"
            }
          ],
          "internalType": "struct Utils.SimpleData",
          "name": "data",
          "type": "tuple"
        }
      ],
      "name": "doParaSwap",
      "outputs": [],
      "stateMutability": "nonpayable",
      "type": "function"
    },
    {
      "inputs": [],
      "name": "feesLPTokensForNode",
      "outputs": [
        {
          "internalType": "uint256",
          "name": "",
          "type": "uint256"
        }
      ],
      "stateMutability": "view",
      "type": "function"
    },
    {
      "inputs": [],
      "name": "getActiveNodes",
      "outputs": [
        {
          "internalType": "bytes32[]",
          "name": "",
          "type": "bytes32[]"
        }
      ],
      "stateMutability": "view",
      "type": "function"
    },
    {
      "inputs": [],
      "name": "getCurrentPriceLP",
      "outputs": [
        {
          "internalType": "uint256",
          "name": "nowPrice",
          "type": "uint256"
        }
      ],
      "stateMutability": "view",
      "type": "function"
    },
    {
      "inputs": [
        {
          "internalType": "address",
          "name": "_token",
          "type": "address"
        },
        {
          "internalType": "uint256",
          "name": "_amountOfFloat",
          "type": "uint256"
        }
      ],
      "name": "getDepositFeeRate",
      "outputs": [
        {
          "internalType": "uint256",
          "name": "depositFeeRate",
          "type": "uint256"
        }
      ],
      "stateMutability": "view",
      "type": "function"
    },
    {
      "inputs": [
        {
          "internalType": "address",
          "name": "_tokenA",
          "type": "address"
        },
        {
          "internalType": "address",
          "name": "_tokenB",
          "type": "address"
        }
      ],
      "name": "getFloatReserve",
      "outputs": [
        {
          "internalType": "uint256",
          "name": "reserveA",
          "type": "uint256"
        },
        {
          "internalType": "uint256",
          "name": "reserveB",
          "type": "uint256"
        }
      ],
      "stateMutability": "view",
      "type": "function"
    },
    {
      "inputs": [],
      "name": "initialExchangeRate",
      "outputs": [
        {
          "internalType": "uint256",
          "name": "",
          "type": "uint256"
        }
      ],
      "stateMutability": "view",
      "type": "function"
    },
    {
      "inputs": [
        {
          "internalType": "bytes32",
          "name": "_txid",
          "type": "bytes32"
        }
      ],
      "name": "isTxUsed",
      "outputs": [
        {
          "internalType": "bool",
          "name": "",
          "type": "bool"
        }
      ],
      "stateMutability": "view",
      "type": "function"
    },
    {
      "inputs": [],
      "name": "lockedLPTokensForNode",
      "outputs": [
        {
          "internalType": "uint256",
          "name": "",
          "type": "uint256"
        }
      ],
      "stateMutability": "view",
      "type": "function"
    },
    {
      "inputs": [],
      "name": "lpToken",
      "outputs": [
        {
          "internalType": "address",
          "name": "",
          "type": "address"
        }
      ],
      "stateMutability": "view",
      "type": "function"
    },
    {
      "inputs": [
        {
          "internalType": "address",
          "name": "_destToken",
          "type": "address"
        },
        {
          "internalType": "bytes32[]",
          "name": "_addressesAndAmounts",
          "type": "bytes32[]"
        },
        {
          "internalType": "uint256",
          "name": "_totalSwapped",
          "type": "uint256"
        },
        {
          "internalType": "uint256",
          "name": "_rewardsAmount",
          "type": "uint256"
        },
        {
          "internalType": "bytes32[]",
          "name": "_redeemedFloatTxIds",
          "type": "bytes32[]"
        }
      ],
      "name": "multiTransferERC20TightlyPacked",
      "outputs": [
        {
          "internalType": "bool",
          "name": "",
          "type": "bool"
        }
      ],
      "stateMutability": "nonpayable",
      "type": "function"
    },
    {
      "inputs": [],
      "name": "nodeRewardsRatio",
      "outputs": [
        {
          "internalType": "uint8",
          "name": "",
          "type": "uint8"
        }
      ],
      "stateMutability": "view",
      "type": "function"
    },
    {
      "inputs": [],
      "name": "owner",
      "outputs": [
        {
          "internalType": "address",
          "name": "",
          "type": "address"
        }
      ],
      "stateMutability": "view",
      "type": "function"
    },
    {
      "inputs": [
        {
          "internalType": "address",
          "name": "_token",
          "type": "address"
        },
        {
          "internalType": "bytes32",
          "name": "_addressesAndAmountOfFloat",
          "type": "bytes32"
        },
        {
          "internalType": "bool",
          "name": "_zerofee",
          "type": "bool"
        },
        {
          "internalType": "bytes32",
          "name": "_txid",
          "type": "bytes32"
        }
      ],
      "name": "recordIncomingFloat",
      "outputs": [
        {
          "internalType": "bool",
          "name": "",
          "type": "bool"
        }
      ],
      "stateMutability": "nonpayable",
      "type": "function"
    },
    {
      "inputs": [
        {
          "internalType": "address",
          "name": "_token",
          "type": "address"
        },
        {
          "internalType": "bytes32",
          "name": "_addressesAndAmountOfLPtoken",
          "type": "bytes32"
        },
        {
          "internalType": "uint256",
          "name": "_minerFee",
          "type": "uint256"
        },
        {
          "internalType": "bytes32",
          "name": "_txid",
          "type": "bytes32"
        }
      ],
      "name": "recordOutcomingFloat",
      "outputs": [
        {
          "internalType": "bool",
          "name": "",
          "type": "bool"
        }
      ],
      "stateMutability": "nonpayable",
      "type": "function"
    },
    {
      "inputs": [
        {
          "internalType": "address",
          "name": "_destToken",
          "type": "address"
        },
        {
          "internalType": "address",
          "name": "_to",
          "type": "address"
        },
        {
          "internalType": "uint256",
          "name": "_amount",
          "type": "uint256"
        },
        {
          "internalType": "uint256",
          "name": "_totalSwapped",
          "type": "uint256"
        },
        {
          "internalType": "bytes32[]",
          "name": "_redeemedFloatTxIds",
          "type": "bytes32[]"
        }
      ],
      "name": "recordSkyPoolsTX",
      "outputs": [
        {
          "internalType": "bool",
          "name": "",
          "type": "bool"
        }
      ],
      "stateMutability": "nonpayable",
      "type": "function"
    },
    {
      "inputs": [
        {
          "internalType": "uint256",
          "name": "_minerFee",
          "type": "uint256"
        },
        {
          "internalType": "bytes32",
          "name": "_txid",
          "type": "bytes32"
        }
      ],
      "name": "recordUTXOSweepMinerFee",
      "outputs": [
        {
          "internalType": "bool",
          "name": "",
          "type": "bool"
        }
      ],
      "stateMutability": "nonpayable",
      "type": "function"
    },
    {
      "inputs": [
        {
          "internalType": "address",
          "name": "_token",
          "type": "address"
        },
        {
          "internalType": "uint256",
          "name": "_amount",
          "type": "uint256"
        }
      ],
      "name": "redeemERC20Token",
      "outputs": [
        {
          "internalType": "bool",
          "name": "",
          "type": "bool"
        }
      ],
      "stateMutability": "nonpayable",
      "type": "function"
    },
    {
      "inputs": [],
      "name": "renounceOwnership",
      "outputs": [],
      "stateMutability": "nonpayable",
      "type": "function"
    },
    {
      "inputs": [
        {
          "internalType": "address",
          "name": "_destToken",
          "type": "address"
        },
        {
          "internalType": "address",
          "name": "_to",
          "type": "address"
        },
        {
          "internalType": "uint256",
          "name": "_amount",
          "type": "uint256"
        },
        {
          "internalType": "uint256",
          "name": "_totalSwapped",
          "type": "uint256"
        },
        {
          "internalType": "uint256",
          "name": "_rewardsAmount",
          "type": "uint256"
        },
        {
          "internalType": "bytes32[]",
          "name": "_redeemedFloatTxIds",
          "type": "bytes32[]"
        }
      ],
      "name": "singleTransferERC20",
      "outputs": [
        {
          "internalType": "bool",
          "name": "",
          "type": "bool"
        }
      ],
      "stateMutability": "nonpayable",
      "type": "function"
    },
    {
      "inputs": [],
      "name": "spDepositEther",
      "outputs": [],
      "stateMutability": "payable",
      "type": "function"
    },
    {
      "inputs": [
        {
          "internalType": "address",
          "name": "token",
          "type": "address"
        },
        {
          "internalType": "uint256",
          "name": "amount",
          "type": "uint256"
        }
      ],
      "name": "spDepositToken",
      "outputs": [],
      "stateMutability": "nonpayable",
      "type": "function"
    },
    {
      "inputs": [
        {
          "internalType": "address",
          "name": "destinationAddressForBTC",
          "type": "address"
        }
      ],
      "name": "spParaSwapSimpleSwapAndRecord",
      "outputs": [],
      "stateMutability": "nonpayable",
      "type": "function"
    },
    {
      "inputs": [
        {
          "internalType": "uint256",
          "name": "",
          "type": "uint256"
        }
      ],
      "name": "spPendingTXs",
      "outputs": [
        {
          "internalType": "uint256",
          "name": "SwapID",
          "type": "uint256"
        },
        {
          "internalType": "address",
          "name": "DestAddr",
          "type": "address"
        },
        {
          "internalType": "uint256",
          "name": "AmountWBTC",
          "type": "uint256"
        },
        {
          "internalType": "uint256",
          "name": "Timestamp",
          "type": "uint256"
        }
      ],
      "stateMutability": "view",
      "type": "function"
    },
    {
      "inputs": [
        {
          "internalType": "address",
          "name": "",
          "type": "address"
        },
        {
          "internalType": "address",
          "name": "",
          "type": "address"
        }
      ],
      "name": "tokens",
      "outputs": [
        {
          "internalType": "uint256",
          "name": "",
          "type": "uint256"
        }
      ],
      "stateMutability": "view",
      "type": "function"
    },
    {
      "inputs": [
        {
          "internalType": "address",
          "name": "newOwner",
          "type": "address"
        }
      ],
      "name": "transferOwnership",
      "outputs": [],
      "stateMutability": "nonpayable",
      "type": "function"
    },
    {
      "inputs": [],
      "name": "tssThreshold",
      "outputs": [
        {
          "internalType": "uint8",
          "name": "",
          "type": "uint8"
        }
      ],
      "stateMutability": "view",
      "type": "function"
    },
    {
      "inputs": [
        {
          "internalType": "address",
          "name": "",
          "type": "address"
        }
      ],
      "name": "whitelist",
      "outputs": [
        {
          "internalType": "bool",
          "name": "",
          "type": "bool"
        }
      ],
      "stateMutability": "view",
      "type": "function"
    },
    {
      "inputs": [],
      "name": "withdrawalFeeBPS",
      "outputs": [
        {
          "internalType": "uint8",
          "name": "",
          "type": "uint8"
        }
      ],
      "stateMutability": "view",
      "type": "function"
    }
  ],
  "bytecode": "0x60806040523480156200001157600080fd5b5060405162003df638038062003df68339810160408190526200003491620002bd565b6000620000406200029c565b600080546001600160a01b0319166001600160a01b0383169081178255604051929350917f8be0079c531659141344cd1fd0a4f28419497f9722a3daafe3b4186f6b6457e0908290a350600480546001600160a01b0319166001600160a01b03858116919091178083556040805163313ce56760e01b81529051919092169263313ce56792808201926020929091829003018186803b158015620000e357600080fd5b505afa158015620000f8573d6000803e3d6000fd5b505050506040513d601f19601f820116820180604052508101906200011e9190620002fd565b60ff16600a0a600955600380546001600160a01b0319166001600160a01b0384169081179091556004805460ff60b01b1916602160b11b1760ff60b81b1916601960b91b1760ff60c01b1916600560c21b1781556040805163313ce56760e01b815290516008939263313ce56792808201926020929091829003018186803b158015620001aa57600080fd5b505afa158015620001bf573d6000803e3d6000fd5b505050506040513d601f19601f82011682018060405250810190620001e59190620002fd565b0360ff16600a90810a6008556009546007556000600581905560068190556003546001600160a01b039081168252600260209081526040808420805460ff199081166001908117909255600454909416855290842080548416821790559280527fac33ff75c19e70fe83507db0d683fd3465c996598dc972688b7ace676c89077b80549092169092179055527f13da86008ba1c6922daee3e07db95305ef49ebced9f5467a0b8613fcc6b343e35550620003279050565b3390565b80516001600160a01b0381168114620002b857600080fd5b919050565b600080600060608486031215620002d2578283fd5b620002dd84620002a0565b9250620002ed60208501620002a0565b9150604084015190509250925092565b6000602082840312156200030f578081fd5b815160ff8116811462000320578182fd5b9392505050565b613abf80620003376000396000f3fe60806040526004361061020e5760003560e01c80636d019f3511610118578063c5f627ab116100a0578063e9e9bf6a1161006f578063e9e9bf6a146105d1578063ec482729146105e6578063f2fde38b14610614578063f7824bc714610634578063f7888aec146106495761020e565b8063c5f627ab14610569578063c810a53914610571578063d6b2779a14610591578063e6ca2084146105b15761020e565b80638da5cb5b116100e75780638da5cb5b146104df5780638e483f9e146104f45780639b19251a14610514578063ad289e7614610534578063b6268e5d146105545761020e565b80636d019f3514610475578063715018a61461048a5780638006cc3e1461049f5780638a3e152c146104bf5761020e565b80633b6fa1271161019b5780634e54cee01161016a5780634e54cee0146103de578063508493bc146103fe5780635fcbd2851461041e57806363f289d9146104335780636b51e919146104535761020e565b80633b6fa12714610374578063424192551461039457806345137e27146103a95780634db75485146103be5761020e565b806312d1441e116101e257806312d1441e146102cb5780631ab7e937146102e05780632586c562146103105780632d55282d14610330578063305ddc94146103525761020e565b806289356f1461023c5780630b68134d146102675780630d63aca71461027c5780630f909486146102a9575b34801561021a57600080fd5b5060405162461bcd60e51b815260040161023390613472565b60405180910390fd5b34801561024857600080fd5b50610251610669565b60405161025e91906138f4565b60405180910390f35b34801561027357600080fd5b50610251610679565b34801561028857600080fd5b5061029c610297366004612c65565b610689565b60405161025e91906131dd565b3480156102b557600080fd5b506102be6107d4565b60405161025e9190613095565b3480156102d757600080fd5b506102516107e3565b3480156102ec57600080fd5b506103006102fb366004612f83565b6107f3565b60405161025e94939291906138c2565b34801561031c57600080fd5b5061029c61032b366004612eb8565b610825565b34801561033c57600080fd5b50610345610917565b60405161025e91906138b9565b34801561035e57600080fd5b5061037261036d366004612ef2565b61091d565b005b34801561038057600080fd5b5061034561038f366004612f3c565b610ba2565b3480156103a057600080fd5b50610251610c2e565b3480156103b557600080fd5b50610345610c3e565b3480156103ca57600080fd5b5061029c6103d9366004612f3c565b610d36565b3480156103ea57600080fd5b5061029c6103f9366004612ce1565b610e46565b34801561040a57600080fd5b50610345610419366004612bb9565b611083565b34801561042a57600080fd5b506102be6110a0565b34801561043f57600080fd5b5061029c61044e366004612e71565b6110af565b34801561045f57600080fd5b50610468611164565b60405161025e9190613199565b34801561048157600080fd5b506103456112c3565b34801561049657600080fd5b506103726112c9565b3480156104ab57600080fd5b5061029c6104ba366004612eb8565b611375565b3480156104cb57600080fd5b506103726104da366004612b81565b611471565b3480156104eb57600080fd5b506102be6114d6565b34801561050057600080fd5b5061037261050f366004612f3c565b6114e5565b34801561052057600080fd5b5061029c61052f366004612b81565b611631565b34801561054057600080fd5b5061029c61054f366004612df7565b611646565b34801561056057600080fd5b506102516117cc565b6103726117dc565b34801561057d57600080fd5b5061029c61058c366004612fb3565b6118a7565b34801561059d57600080fd5b5061029c6105ac366004612bf1565b6119db565b3480156105bd57600080fd5b5061029c6105cc366004612f83565b611b40565b3480156105dd57600080fd5b5061029c611b58565b3480156105f257600080fd5b50610606610601366004612bb9565b611da5565b60405161025e9291906138e6565b34801561062057600080fd5b5061037261062f366004612b81565b611dcf565b34801561064057600080fd5b50610345611ed1565b34801561065557600080fd5b50610345610664366004612bb9565b611ed7565b600454600160a01b900460ff1681565b600454600160b01b900460ff1681565b6000610693611f02565b6001600160a01b03166106a46114d6565b6001600160a01b0316146106ed576040805162461bcd60e51b81526020600482018190526024820152600080516020613a43833981519152604482015290519081900360640190fd5b6001600160a01b03871660009081526002602052604090205460ff166107255760405162461bcd60e51b81526004016102339061358a565b6001600160a01b03871661074b5760405162461bcd60e51b8152600401610233906136ae565b600084156107715760035461076c906000906001600160a01b031687611f06565b610784565b8461078457506003546001600160a01b03165b6004546001600160a01b03898116911614156107a857506004546001600160a01b03165b6107b28185611fe9565b6107bb8361213e565b6107c688888861218d565b506001979650505050505050565b6003546001600160a01b031681565b600454600160a81b900460ff1681565b600160208190526000918252604090912080549181015460028201546003909201546001600160a01b03909116919084565b600061082f611f02565b6001600160a01b03166108406114d6565b6001600160a01b031614610889576040805162461bcd60e51b81526020600482018190526024820152600080516020613a43833981519152604482015290519081900360640190fd5b6000610893610c3e565b6001600160a01b03871660009081526002602052604090205490915060ff166108ce5760405162461bcd60e51b815260040161023390613683565b6108da86868686612242565b6108e357600080fd5b60019150806108f0610c3e565b101561090e5760405162461bcd60e51b8152600401610233906136f1565b50949350505050565b60055481565b3361093061014083016101208401612b81565b6001600160a01b0316146109565760405162461bcd60e51b81526004016102339061321f565b6040810135600f600061096c6020850185612b81565b6001600160a01b03168152602081019190915260400160009081209061099a61014085016101208601612b81565b6001600160a01b03166001600160a01b031681526020019081526020016000205410156109d95760405162461bcd60e51b8152600401610233906132e9565b6003546001600160a01b03166109f26020830183612b81565b6001600160a01b031614610a185760405162461bcd60e51b815260040161023390613320565b6000826001600160a01b031663d2c4b5986040518163ffffffff1660e01b815260040160206040518083038186803b158015610a5357600080fd5b505afa158015610a67573d6000803e3d6000fd5b505050506040513d601f19601f82011682018060405250810190610a8b9190612b9d565b9050610a9a6020830183612b81565b6001600160a01b031663095ea7b38284604001356040518363ffffffff1660e01b8152600401610acb9291906130cd565b602060405180830381600087803b158015610ae557600080fd5b505af1158015610af9573d6000803e3d6000fd5b505050506040513d601f19601f82011682018060405250810190610b1d9190612f67565b506040516354e3f31b60e01b81526001600160a01b038416906354e3f31b90610b4a90859060040161371c565b602060405180830381600087803b158015610b6457600080fd5b505af1158015610b78573d6000803e3d6000fd5b505050506040513d601f19601f82011682018060405250810190610b9c9190612f9b565b50505050565b600080610baf84846124da565b90508060ff1660011415610bf1576003546001600160a01b03858116911614610bd9576000610be7565b600454600160b81b900460ff165b60ff169150610c27565b8060ff1660021415610c27576001600160a01b03841615610c13576000610c21565b600454600160b81b900460ff165b60ff1691505b5092915050565b600454600160b81b900460ff1681565b60035460009081908190610c5c9082906001600160a01b0316611da5565b915091506000600460009054906101000a90046001600160a01b03166001600160a01b03166318160ddd6040518163ffffffff1660e01b815260040160206040518083038186803b158015610cb057600080fd5b505afa158015610cc4573d6000803e3d6000fd5b505050506040513d601f19601f82011682018060405250810190610ce89190612f9b565b90508015610d2a57610d25610d086005548361259490919063ffffffff16565b600954610d1f90610d198787612594565b906125f5565b9061264e565b610d2e565b6007545b935050505090565b6001600160a01b0382166000908152600f60209081526040808320338452909152812054821115610d795760405162461bcd60e51b815260040161023390613655565b6001600160a01b0383166000908152600f60209081526040808320338452909152902054610da790836126b5565b6001600160a01b0384166000908152600f6020908152604080832033808552925290912091909155610ddb9084908461218d565b6001600160a01b0383166000908152600f60209081526040808320338085529252918290205491517ff341246adaac6f497bc2a656f546ab9e182111d630394f0c57c710a59a2cb56792610e34928792909187916130e6565b60405180910390a15060015b92915050565b6000610e50611f02565b6001600160a01b0316610e616114d6565b6001600160a01b031614610eaa576040805162461bcd60e51b81526020600482018190526024820152600080516020613a43833981519152604482015290519081900360640190fd5b60045460ff600160a81b909104811690851610801590610ece575060ff8460ff1611155b610eea5760405162461bcd60e51b8152600401610233906133bd565b6001840160ff168560ff161015610f135760405162461bcd60e51b8152600401610233906134e6565b60648360ff161115610f375760405162461bcd60e51b8152600401610233906131e8565b60648260ff161115610f5b5760405162461bcd60e51b81526004016102339061343b565b8551875114610f7c5760405162461bcd60e51b8152600401610233906135f8565b610f8588611dcf565b60005b8751811015610fed576000610faf898381518110610fa257fe5b6020026020010151612712565b509050610fe3818a8481518110610fc257fe5b60200260200101518a8581518110610fd657fe5b602002602001015161271b565b5050600101610f88565b506060610ff8611164565b905060648151111561101c5760405162461bcd60e51b815260040161023390613549565b50506004805460ff60a01b1916600160a01b60ff968716021760ff60a81b1916600160a81b948616949094029390931760ff60b01b1916600160b01b928516929092029190911760ff60c01b1916600160c01b919093160291909117905550600192915050565b600f60209081526000928352604080842090915290825290205481565b6004546001600160a01b031681565b60006110b9611f02565b6001600160a01b03166110ca6114d6565b6001600160a01b031614611113576040805162461bcd60e51b81526020600482018190526024820152600080516020613a43833981519152604482015290519081900360640190fd5b600061111d610c3e565b6001600160a01b03871660009081526002602052604090205490915060ff166111585760405162461bcd60e51b815260040161023390613683565b6108da868686866127ea565b606060008060005b600e548110156111c757600c6000600e838154811061118757fe5b60009182526020808320909101546001600160a01b03168352820192909252604001902054156111bf576111bc836001612594565b92505b60010161116c565b5060608267ffffffffffffffff811180156111e157600080fd5b5060405190808252806020026020018201604052801561120b578160200160208202803683370190505b50905060005b600e548110156112bb57600c6000600e838154811061122c57fe5b60009182526020808320909101546001600160a01b03168352820192909252604001902054156112b357600c6000600e838154811061126757fe5b60009182526020808320909101546001600160a01b03168352820192909252604001902054825183908590811061129a57fe5b60209081029190910101526112b0836001612594565b92505b600101611211565b509250505090565b60075481565b6112d1611f02565b6001600160a01b03166112e26114d6565b6001600160a01b03161461132b576040805162461bcd60e51b81526020600482018190526024820152600080516020613a43833981519152604482015290519081900360640190fd5b600080546040516001600160a01b03909116907f8be0079c531659141344cd1fd0a4f28419497f9722a3daafe3b4186f6b6457e0908390a3600080546001600160a01b0319169055565b600061137f611f02565b6001600160a01b03166113906114d6565b6001600160a01b0316146113d9576040805162461bcd60e51b81526020600482018190526024820152600080516020613a43833981519152604482015290519081900360640190fd5b6001600160a01b038516156114005760405162461bcd60e51b815260040161023390613404565b6003546001600160a01b031684156114525760006114288561142288876126b5565b906126b5565b60035490915061144c906001600160a01b031660006114478489612594565b611f06565b5061145b565b8461145b575060005b6114658184611fe9565b50600195945050505050565b611479611f02565b6001600160a01b031661148a6114d6565b6001600160a01b0316146114d3576040805162461bcd60e51b81526020600482018190526024820152600080516020613a43833981519152604482015290519081900360640190fd5b50565b6000546001600160a01b031690565b6001600160a01b03821673eeeeeeeeeeeeeeeeeeeeeeeeeeeeeeeeeeeeeeee141561150f57600080fd5b6040516323b872dd60e01b81526001600160a01b038316906323b872dd9061153f903390309086906004016130a9565b602060405180830381600087803b15801561155957600080fd5b505af115801561156d573d6000803e3d6000fd5b505050506040513d601f19601f820116820180604052508101906115919190612f67565b61159a57600080fd5b6001600160a01b0382166000908152600f602090815260408083203384529091529020546115c89082612594565b6001600160a01b0383166000908152600f602090815260408083203380855292529182902083905590517f4e2ca0515ed1aef1395f66b5303bb5d6f1bf9d61a353fa53f73f8ac9973fa9f69261162592869290918691429061310f565b60405180910390a15050565b60026020526000908152604090205460ff1681565b6000611650611f02565b6001600160a01b03166116616114d6565b6001600160a01b0316146116aa576040805162461bcd60e51b81526020600482018190526024820152600080516020613a43833981519152604482015290519081900360640190fd5b6001600160a01b03861660009081526002602052604090205460ff166116e25760405162461bcd60e51b81526004016102339061358a565b6001600160a01b0386166117085760405162461bcd60e51b8152600401610233906136ae565b6000841561172e57600354611729906000906001600160a01b031687611f06565b611741565b8461174157506003546001600160a01b03165b6004546001600160a01b038881169116141561176557506004546001600160a01b03165b61176f8185611fe9565b6117788361213e565b60005b86518110156107c6576117c48888838151811061179457fe5b602002602001015160001c8984815181106117ab57fe5b602002602001015160a01c6001600160601b031661218d565b60010161177b565b600454600160c01b900460ff1681565b600034116117e957600080fd5b3360009081527fa781ca3e4bac15fa51ec762ef622d608ed239712ac63433a052bbf28d546961f60205260409020546118229034612594565b3360008181527fa781ca3e4bac15fa51ec762ef622d608ed239712ac63433a052bbf28d546961f602052604090819020839055517f4e2ca0515ed1aef1395f66b5303bb5d6f1bf9d61a353fa53f73f8ac9973fa9f69261189d9273eeeeeeeeeeeeeeeeeeeeeeeeeeeeeeeeeeeeeeee9290913491429061310f565b60405180910390a1565b60006118b1611f02565b6001600160a01b03166118c26114d6565b6001600160a01b03161461190b576040805162461bcd60e51b81526020600482018190526024820152600080516020613a43833981519152604482015290519081900360640190fd5b61191482611b40565b156119315760405162461bcd60e51b815260040161023390613512565b60408051808201909152601d81527f42544320666c6f617420616d6f756e7420696e73756666696369656e7400000060208083019190915260008052600a90527f13da86008ba1c6922daee3e07db95305ef49ebced9f5467a0b8613fcc6b343e35461199e9185906129ad565b60008052600a6020527f13da86008ba1c6922daee3e07db95305ef49ebced9f5467a0b8613fcc6b343e3556119d282612a44565b50600192915050565b60006119e5611f02565b6001600160a01b03166119f66114d6565b6001600160a01b031614611a3f576040805162461bcd60e51b81526020600482018190526024820152600080516020613a43833981519152604482015290519081900360640190fd5b6001600160a01b03861660009081526002602052604090205460ff16611a775760405162461bcd60e51b81526004016102339061358a565b6001600160a01b038616611a9d5760405162461bcd60e51b8152600401610233906136ae565b60008315611ac357600354611abe906000906001600160a01b031686611f06565b611ad6565b83611ad657506003546001600160a01b03165b6004546001600160a01b0388811691161415611afa57506004546001600160a01b03165b611b048786612a5f565b611b0d8361213e565b505050506001600160a01b039283166000908152600f602090815260408083209490951682529290925291902055600190565b6000818152600b602052604090205460ff165b919050565b600080611b7260065460055461259490919063ffffffff16565b905060008111611b945760405162461bcd60e51b8152600401610233906132a4565b6060611b9e611164565b90506000805b8251811015611be957611bdf838281518110611bbc57fe5b602002602001015160a01c6001600160601b03168361259490919063ffffffff16565b9150600101611ba4565b50600480546005546040516340c10f1960e01b81526001600160a01b03909216926340c10f1992611c1e9230929091016130cd565b602060405180830381600087803b158015611c3857600080fd5b505af1158015611c4c573d6000803e3d6000fd5b505050506040513d601f19601f82011682018060405250810190611c709190612f67565b5060005b8251811015611d595760045483516001600160a01b039091169063a9059cbb90859084908110611ca057fe5b602002602001015160001c611ce185610d1f888781518110611cbe57fe5b602002602001015160a01c6001600160601b03168a6125f590919063ffffffff16565b6040518363ffffffff1660e01b8152600401611cfe9291906130cd565b602060405180830381600087803b158015611d1857600080fd5b505af1158015611d2c573d6000803e3d6000fd5b505050506040513d601f19601f82011682018060405250810190611d509190612f67565b50600101611c74565b507f86dd6ae252e62228b47b3c1a12762cbf634952b2d29319b04f4f72fb153bcbdd83604051611d8991906138b9565b60405180910390a1505060006005819055600655506001905090565b6001600160a01b039182166000908152600a60205260408082205492909316815291909120549091565b611dd7611f02565b6001600160a01b0316611de86114d6565b6001600160a01b031614611e31576040805162461bcd60e51b81526020600482018190526024820152600080516020613a43833981519152604482015290519081900360640190fd5b6001600160a01b038116611e765760405162461bcd60e51b81526004018080602001828103825260268152602001806139fc6026913960400191505060405180910390fd5b600080546040516001600160a01b03808516939216917f8be0079c531659141344cd1fd0a4f28419497f9722a3daafe3b4186f6b6457e091a3600080546001600160a01b0319166001600160a01b0392909216919091179055565b60065481565b6001600160a01b039182166000908152600f6020908152604080832093909416825291909152205490565b3390565b60408051808201825260208082527f5f737761703a20666c6f617420616d6f756e7420696e73756666696369656e74818301526001600160a01b0385166000908152600a9091529190912054611f5d9183906129ad565b6001600160a01b038084166000908152600a60205260408082209390935590851681522054611f8c9082612594565b6001600160a01b0384166000908152600a60205260409081902091909155517fea368a40e9570069bb8e6511d668293ad2e1f03b0d982431fd223de9f3b70ca690611fdc908590859085906130a9565b60405180910390a1505050565b80611ff35761213a565b6004546001600160a01b038381169116141561205d576006546120169082612594565b6006556040517fe3debe835f6848edc082b32a1d729781d3bfcd7e14422d80bcaa6794d3816b2f9061205090849084906000908190613140565b60405180910390a161213a565b6000612067610c3e565b6001600160a01b0384166000908152600a602052604090205490915061208d9083612594565b6001600160a01b0384166000908152600a60205260408120919091556004546120c890606490610d1f908690600160b01b900460ff166125f5565b905060006120e583610d1f600954856125f590919063ffffffff16565b6005549091506120f59082612594565b6005556040517fe3debe835f6848edc082b32a1d729781d3bfcd7e14422d80bcaa6794d3816b2f9061212e908790879085908890613140565b60405180910390a15050505b5050565b60005b815181101561213a576001600b600084848151811061215c57fe5b6020908102919091018101518252810191909152604001600020805460ff1916911515919091179055600101612141565b6003546001600160a01b03848116911614156121b4576008546121b19082906125f5565b90505b60405163a9059cbb60e01b81526001600160a01b0384169063a9059cbb906121e290859085906004016130cd565b602060405180830381600087803b1580156121fc57600080fd5b505af1158015612210573d6000803e3d6000fd5b505050506040513d601f19601f820116820180604052508101906122349190612f67565b61223d57600080fd5b505050565b600061224d82611b40565b1561226a5760405162461bcd60e51b815260040161023390613512565b836122875760405162461bcd60e51b8152600401610233906135c1565b60008061229386612712565b9150915060006122a1610c3e565b905060006122be600954610d1f84866125f590919063ffffffff16565b6004549091506000906122e49061271090610d1f908590600160c01b900460ff166125f5565b9050876122f183836126b5565b101561230f5760405162461bcd60e51b815260040161023390613369565b600061231f8961142285856126b5565b600354909150600090819061233e9082906001600160a01b0316611da5565b90925090506001600160a01b038d1661237f5761235b85856126b5565b82101561237a5760405162461bcd60e51b81526004016102339061326d565b6123be565b6003546001600160a01b038e8116911614156123be5761239f85856126b5565b8110156123be5760405162461bcd60e51b81526004016102339061326d565b6123c88d85611fe9565b6123d28d86612a5f565b6123db8a612a44565b6003546001600160a01b038e8116911614156123fc576123fc8d898561218d565b60048054604051630852cd8d60e31b81526001600160a01b03909116916342966c689161242b918b91016138b9565b602060405180830381600087803b15801561244557600080fd5b505af1158015612459573d6000803e3d6000fd5b505050506040513d601f19601f8201168201806040525081019061247d9190612f67565b61248657600080fd5b7fa9da34e5e4a956b744307ae7611795634e8365951073bf049d76b64b2ae7a05888888789878f6040516124bf96959493929190613166565b60405180910390a15060019c9b505050505050505050505050565b600354600090819081906124f89082906001600160a01b0316611da5565b9092509050600061251d6003610d1f6002610d19896125178989612594565b90612594565b6003549091506001600160a01b0387811691161480156125465750806125438387612594565b10155b156125575760019350505050610e40565b6001600160a01b0386161580156125775750806125748487612594565b10155b156125885760029350505050610e40565b50600095945050505050565b6000828201838110156125ee576040805162461bcd60e51b815260206004820152601b60248201527f536166654d6174683a206164646974696f6e206f766572666c6f770000000000604482015290519081900360640190fd5b9392505050565b60008261260457506000610e40565b8282028284828161261157fe5b04146125ee5760405162461bcd60e51b8152600401808060200182810382526021815260200180613a226021913960400191505060405180910390fd5b60008082116126a4576040805162461bcd60e51b815260206004820152601a60248201527f536166654d6174683a206469766973696f6e206279207a65726f000000000000604482015290519081900360640190fd5b8183816126ad57fe5b049392505050565b60008282111561270c576040805162461bcd60e51b815260206004820152601e60248201527f536166654d6174683a207375627472616374696f6e206f766572666c6f770000604482015290519081900360640190fd5b50900390565b9060a082901c90565b6000811561274457506001600160a01b0383166000908152600c602052604081205560016125ee565b6001600160a01b0384166000908152600d602052604090205460ff166127c857600e805460018082019092557fbb7b4a454dc3493923482f07822329ed19e8244eff582cc204f8554c3620c3fd0180546001600160a01b0319166001600160a01b0387169081179091556000908152600d60205260409020805460ff191690911790555b50506001600160a01b03919091166000908152600c6020526040902055600190565b60006127f582611b40565b156128125760405162461bcd60e51b815260040161023390613512565b8361282f5760405162461bcd60e51b8152600401610233906135c1565b60008061283b86612712565b915091506000612849610c3e565b9050600061286682610d1f600954866125f590919063ffffffff16565b905060006128748a85610ba2565b9050600081612884576000612894565b612894612710610d1f85856125f5565b90508880156128a257508015155b156128ac57600080fd5b6004546001600160a01b03166340c10f19876128c886856126b5565b6040518363ffffffff1660e01b81526004016128e59291906130cd565b602060405180830381600087803b1580156128ff57600080fd5b505af1158015612913573d6000803e3d6000fd5b505050506040513d601f19601f820116820180604052508101906129379190612f67565b506005546129459082612594565b6005556129528b86612abc565b61295b88612a44565b7fdfaf4e23f7030adafec91a682e05bf9fb30c721f9cec3d8bcfae0459c5362db186868587858d60405161299496959493929190613166565b60405180910390a15060019a9950505050505050505050565b60008184841115612a3c5760405162461bcd60e51b81526004018080602001828103825283818151815260200191508051906020019080838360005b83811015612a015781810151838201526020016129e9565b50505050905090810190601f168015612a2e5780820380516001836020036101000a031916815260200191505b509250505060405180910390fd5b505050900390565b6000908152600b60205260409020805460ff19166001179055565b612a9c81604051806060016040528060278152602001613a63602791396001600160a01b0385166000908152600a602052604090205491906129ad565b6001600160a01b039092166000908152600a602052604090209190915550565b6001600160a01b0382166000908152600a6020526040902054612a9c9082612594565b8035611b53816139d8565b600082601f830112612afa578081fd5b8135612b0d612b0882613926565b613902565b818152915060208083019084810181840286018201871015612b2e57600080fd5b60005b84811015612b4d57813584529282019290820190600101612b31565b505050505092915050565b80356001600160801b031981168114611b5357600080fd5b803560ff81168114611b5357600080fd5b600060208284031215612b92578081fd5b81356125ee816139d8565b600060208284031215612bae578081fd5b81516125ee816139d8565b60008060408385031215612bcb578081fd5b8235612bd6816139d8565b91506020830135612be6816139d8565b809150509250929050565b600080600080600060a08688031215612c08578081fd5b8535612c13816139d8565b94506020860135612c23816139d8565b93506040860135925060608601359150608086013567ffffffffffffffff811115612c4c578182fd5b612c5888828901612aea565b9150509295509295909350565b60008060008060008060c08789031215612c7d578081fd5b8635612c88816139d8565b95506020870135612c98816139d8565b945060408701359350606087013592506080870135915060a087013567ffffffffffffffff811115612cc8578182fd5b612cd489828a01612aea565b9150509295509295509295565b600080600080600080600060e0888a031215612cfb578081fd5b8735612d06816139d8565b965060208881013567ffffffffffffffff80821115612d23578384fd5b612d2f8c838d01612aea565b985060408b0135915080821115612d44578384fd5b508901601f81018b13612d55578283fd5b8035612d63612b0882613926565b81815283810190838501858402850186018f1015612d7f578687fd5b8694505b83851015612daa578035612d96816139ed565b835260019490940193918501918501612d83565b508099505050505050612dbf60608901612b70565b9350612dcd60808901612b70565b9250612ddb60a08901612b70565b9150612de960c08901612b70565b905092959891949750929550565b600080600080600060a08688031215612e0e578081fd5b8535612e19816139d8565b9450602086013567ffffffffffffffff80821115612e35578283fd5b612e4189838a01612aea565b955060408801359450606088013593506080880135915080821115612e64578283fd5b50612c5888828901612aea565b60008060008060808587031215612e86578182fd5b8435612e91816139d8565b9350602085013592506040850135612ea8816139ed565b9396929550929360600135925050565b60008060008060808587031215612ecd578182fd5b8435612ed8816139d8565b966020860135965060408601359560600135945092505050565b60008060408385031215612f04578182fd5b8235612f0f816139d8565b9150602083013567ffffffffffffffff811115612f2a578182fd5b83016101e08186031215612be6578182fd5b60008060408385031215612f4e578182fd5b8235612f59816139d8565b946020939093013593505050565b600060208284031215612f78578081fd5b81516125ee816139ed565b600060208284031215612f94578081fd5b5035919050565b600060208284031215612fac578081fd5b5051919050565b60008060408385031215612fc5578182fd5b50508035926020909101359150565b6001600160a01b03169052565b60008284526020808501945082825b8581101561301e578135613003816139d8565b6001600160a01b031687529582019590820190600101612ff0565b509495945050505050565b81835260006001600160fb1b03831115613041578081fd5b6020830280836020870137939093016020019283525090919050565b6001600160801b0319169052565b60008284528282602086013780602084860101526020601f19601f85011685010190509392505050565b6001600160a01b0391909116815260200190565b6001600160a01b039384168152919092166020820152604081019190915260600190565b6001600160a01b03929092168252602082015260400190565b6001600160a01b0394851681529290931660208301526040820152606081019190915260800190565b6001600160a01b03958616815293909416602084015260408301919091526060820152608081019190915260a00190565b6001600160a01b0394909416845260208401929092526040830152606082015260800190565b6001600160a01b03969096168652602086019490945260408501929092526060840152608083015260a082015260c00190565b6020808252825182820181905260009190848201906040850190845b818110156131d1578351835292840192918401916001016131b5565b50909695505050505050565b901515815260200190565b6020808252601e908201527f5f6e6f646552657761726473526174696f206973206e6f742076616c69640000604082015260600190565b6020808252602e908201527f596f752063616e206f6e6c79206578656375746520737761707320746f20796f60408201526d7572206f776e206164647265737360901b606082015260800190565b6020808252601f908201527f54686520666c6f61742062616c616e636520696e73756666696369656e742e00604082015260600190565b60208082526025908201527f746f74616c5265776172644c5073466f724e6f6465206973206e6f7420706f73604082015264697469766560d81b606082015260800190565b60208082526019908201527f42616c616e6365206973206e6f742073756666696369656e7400000000000000604082015260600190565b60208082526029908201527f66726f6d546f6b656e206d7573742062652074686520726571756972656420426040820152682a21ba103a37b5b2b760b91b606082015260800190565b60208082526034908201527f4572726f723a20616d6f756e744f66466c6f61742e737562287769746864726160408201527377616c4665657329203c205f6d696e657246656560601b606082015260800190565b60208082526027908201527f5f7473735468726573686f6c642073686f756c64206265203e3d2074737354686040820152661c995cda1bdb1960ca1b606082015260800190565b6020808252601f908201527f5f64657374546f6b656e2073686f756c64206265206164647265737328302900604082015260600190565b6020808252601c908201527f5f7769746864726177616c46656542505320697320696e76616c696400000000604082015260600190565b6020808252604e908201527f5468697320636f6e747261637420646f65736e277420616c6c6f77207265636560408201527f6976696e67204574686572202d207573652073704465706f736974282920746f60608201526d103232b837b9b4ba1032ba3432b960911b608082015260a00190565b6020808252601290820152716e2073686f756c64206265203e3d20742b3160701b604082015260600190565b60208082526018908201527f546865207478696420697320616c726561647920757365640000000000000000604082015260600190565b60208082526021908201527f53746f726564206e6f64652073697a652073686f756c64206265203c3d2031306040820152600360fc1b606082015260800190565b6020808252601d908201527f5f64657374546f6b656e206973206e6f742077686974656c6973746564000000604082015260600190565b6020808252601c908201527f546865207472616e73616374696f6e206973206e6f742076616c696400000000604082015260600190565b6020808252603b908201527f5f72657761726441646472657373416e64416d6f756e747320616e64205f697360408201527f52656d6f766564206c656e677468206973206e6f74206d617463680000000000606082015260800190565b602080825260149082015273496e73756666696369656e742042616c616e636560601b604082015260600190565b60208082526011908201527017dd1bdad95b881a5cc81a5b9d985b1a59607a1b604082015260600190565b60208082526023908201527f5f64657374546f6b656e2073686f756c64206e6f74206265206164647265737360408201526228302960e81b606082015260800190565b602080825260119082015270496e76616c6964204c505420707269636560781b604082015260600190565b6000602082526137376020830161373285612adf565b612fd4565b61374360208401612adf565b6137506040840182612fd4565b506040830135606083015260608301356080830152608083013560a083015261377c60a0840184613944565b6101e08060c086015261379461020086018385612fe1565b92506137a360c0870187613993565b9250601f19808786030160e08801526137bd85858461306b565b94506137cc60e0890189613944565b945091506101008188870301818901526137e7868685613029565b95506137f5818a018a613944565b9550925050610120818887030181890152613811868685613029565b955061381e818a01612adf565b945050610140915061383282880185612fd4565b61383d828901612adf565b9350610160915061385082880185612fd4565b6101809350818801358488015261386984890189613993565b945091506101a081888703018189015261388486868561306b565b95506101c0945080890135858901525050506138a1828701612b58565b91506138af8186018361305d565b5090949350505050565b90815260200190565b9384526001600160a01b039290921660208401526040830152606082015260800190565b918252602082015260400190565b60ff91909116815260200190565b60405181810167ffffffffffffffff8111828210171561391e57fe5b604052919050565b600067ffffffffffffffff82111561393a57fe5b5060209081020190565b6000808335601e1984360301811261395a578283fd5b830160208101925035905067ffffffffffffffff81111561397a57600080fd5b60208102360383131561398c57600080fd5b9250929050565b6000808335601e198436030181126139a9578283fd5b830160208101925035905067ffffffffffffffff8111156139c957600080fd5b80360383131561398c57600080fd5b6001600160a01b03811681146114d357600080fd5b80151581146114d357600080fdfe4f776e61626c653a206e6577206f776e657220697320746865207a65726f2061646472657373536166654d6174683a206d756c7469706c69636174696f6e206f766572666c6f774f776e61626c653a2063616c6c6572206973206e6f7420746865206f776e65725f72656d6f7665466c6f61743a20666c6f617420616d6f756e7420696e73756666696369656e74a2646970667358221220096d2687137166bb7e1839c85639ddfc3f3f0e6ee470f8cfe72030bfd8ca2a9764736f6c63430007050033",
  "linkReferences": {},
  "deployedLinkReferences": {}
}