{
  "_format": "hh-sol-artifact-1",
  "contractName": "SwapContract",
  "sourceName": "contracts/SwapContract.sol",
  "abi": [
    {
      "inputs": [
        {
          "internalType": "address",
          "name": "_lpToken",
          "type": "address"
        },
        {
          "internalType": "address",
          "name": "_btct",
          "type": "address"
        },
        {
          "internalType": "uint256",
          "name": "_existingBTCFloat",
          "type": "uint256"
        }
      ],
      "stateMutability": "nonpayable",
      "type": "constructor"
    },
    {
      "anonymous": false,
      "inputs": [
        {
          "indexed": false,
          "internalType": "address",
          "name": "token",
          "type": "address"
        },
        {
          "indexed": false,
          "internalType": "uint256",
          "name": "amountOfLP",
          "type": "uint256"
        },
        {
          "indexed": false,
          "internalType": "uint256",
          "name": "amountOfFloat",
          "type": "uint256"
        },
        {
          "indexed": false,
          "internalType": "uint256",
          "name": "currentPriceLP",
          "type": "uint256"
        },
        {
          "indexed": false,
          "internalType": "uint256",
          "name": "withdrawal",
          "type": "uint256"
        },
        {
          "indexed": false,
          "internalType": "bytes32",
          "name": "txid",
          "type": "bytes32"
        }
      ],
      "name": "BurnLPTokensForFloat",
      "type": "event"
    },
    {
      "anonymous": false,
      "inputs": [
        {
          "indexed": false,
          "internalType": "uint256",
          "name": "rewardLPTsForNodes",
          "type": "uint256"
        }
      ],
      "name": "DistributeNodeRewards",
      "type": "event"
    },
    {
      "anonymous": false,
      "inputs": [
        {
          "indexed": false,
          "internalType": "address",
          "name": "to",
          "type": "address"
        },
        {
          "indexed": false,
          "internalType": "uint256",
          "name": "amountOfFloat",
          "type": "uint256"
        },
        {
          "indexed": false,
          "internalType": "uint256",
          "name": "amountOfLP",
          "type": "uint256"
        },
        {
          "indexed": false,
          "internalType": "uint256",
          "name": "currentPriceLP",
          "type": "uint256"
        },
        {
          "indexed": false,
          "internalType": "uint256",
          "name": "depositFees",
          "type": "uint256"
        },
        {
          "indexed": false,
          "internalType": "bytes32",
          "name": "txid",
          "type": "bytes32"
        }
      ],
      "name": "IssueLPTokensForFloat",
      "type": "event"
    },
    {
      "anonymous": false,
      "inputs": [
        {
          "indexed": true,
          "internalType": "address",
          "name": "previousOwner",
          "type": "address"
        },
        {
          "indexed": true,
          "internalType": "address",
          "name": "newOwner",
          "type": "address"
        }
      ],
      "name": "OwnershipTransferred",
      "type": "event"
    },
    {
      "anonymous": false,
      "inputs": [
        {
          "indexed": false,
          "internalType": "address",
          "name": "feesToken",
          "type": "address"
        },
        {
          "indexed": false,
          "internalType": "uint256",
          "name": "rewards",
          "type": "uint256"
        },
        {
          "indexed": false,
          "internalType": "uint256",
          "name": "amountLPTokensForNode",
          "type": "uint256"
        },
        {
          "indexed": false,
          "internalType": "uint256",
          "name": "currentPriceLP",
          "type": "uint256"
        }
      ],
      "name": "RewardsCollection",
      "type": "event"
    },
    {
      "anonymous": false,
      "inputs": [
        {
          "indexed": false,
          "internalType": "address",
          "name": "from",
          "type": "address"
        },
        {
          "indexed": false,
          "internalType": "address",
          "name": "to",
          "type": "address"
        },
        {
          "indexed": false,
          "internalType": "uint256",
          "name": "amount",
          "type": "uint256"
        }
      ],
      "name": "Swap",
      "type": "event"
    },
    {
      "anonymous": false,
      "inputs": [
        {
          "indexed": false,
          "internalType": "address",
          "name": "token",
          "type": "address"
        },
        {
          "indexed": false,
          "internalType": "address",
          "name": "user",
          "type": "address"
        },
        {
          "indexed": false,
          "internalType": "uint256",
          "name": "amount",
          "type": "uint256"
        },
        {
          "indexed": false,
          "internalType": "uint256",
          "name": "balance",
          "type": "uint256"
        }
      ],
      "name": "Withdraw",
      "type": "event"
    },
    {
      "stateMutability": "nonpayable",
      "type": "fallback"
    },
    {
      "inputs": [],
      "name": "BTCT_ADDR",
      "outputs": [
        {
          "internalType": "address",
          "name": "",
          "type": "address"
        }
      ],
      "stateMutability": "view",
      "type": "function"
    },
    {
      "inputs": [
        {
          "internalType": "address",
          "name": "_token",
          "type": "address"
        }
      ],
      "name": "balanceOf",
      "outputs": [
        {
          "internalType": "uint256",
          "name": "",
          "type": "uint256"
        }
      ],
      "stateMutability": "view",
      "type": "function"
    },
    {
      "inputs": [
        {
          "internalType": "address",
          "name": "_newOwner",
          "type": "address"
        },
        {
          "internalType": "bytes32[]",
          "name": "_rewardAddressAndAmounts",
          "type": "bytes32[]"
        },
        {
          "internalType": "bool[]",
          "name": "_isRemoved",
          "type": "bool[]"
        },
        {
          "internalType": "uint8",
          "name": "_churnedInCount",
          "type": "uint8"
        },
        {
          "internalType": "uint8",
          "name": "_tssThreshold",
          "type": "uint8"
        },
        {
          "internalType": "uint8",
          "name": "_nodeRewardsRatio",
          "type": "uint8"
        },
        {
          "internalType": "uint8",
          "name": "_withdrawalFeeBPS",
          "type": "uint8"
        }
      ],
      "name": "churn",
      "outputs": [
        {
          "internalType": "bool",
          "name": "",
          "type": "bool"
        }
      ],
      "stateMutability": "nonpayable",
      "type": "function"
    },
    {
      "inputs": [],
      "name": "churnedInCount",
      "outputs": [
        {
          "internalType": "uint8",
          "name": "",
          "type": "uint8"
        }
      ],
      "stateMutability": "view",
      "type": "function"
    },
    {
      "inputs": [
        {
          "internalType": "address",
          "name": "_destToken",
          "type": "address"
        },
        {
          "internalType": "uint256",
          "name": "_incomingAmount",
          "type": "uint256"
        },
        {
          "internalType": "uint256",
          "name": "_minerFee",
          "type": "uint256"
        },
        {
          "internalType": "uint256",
          "name": "_rewardsAmount",
          "type": "uint256"
        }
      ],
      "name": "collectSwapFeesForBTC",
      "outputs": [
        {
          "internalType": "bool",
          "name": "",
          "type": "bool"
        }
      ],
      "stateMutability": "nonpayable",
      "type": "function"
    },
    {
      "inputs": [],
      "name": "depositFeesBPS",
      "outputs": [
        {
          "internalType": "uint8",
          "name": "",
          "type": "uint8"
        }
      ],
      "stateMutability": "view",
      "type": "function"
    },
    {
      "inputs": [],
      "name": "distributeNodeRewards",
      "outputs": [
        {
          "internalType": "bool",
          "name": "",
          "type": "bool"
        }
      ],
      "stateMutability": "nonpayable",
      "type": "function"
    },
    {
      "inputs": [],
      "name": "do1InchTrade",
      "outputs": [
        {
          "internalType": "bool",
          "name": "",
          "type": "bool"
        }
      ],
      "stateMutability": "nonpayable",
      "type": "function"
    },
    {
      "inputs": [
        {
          "internalType": "address",
          "name": "_paraSwapAddress",
          "type": "address"
        },
        {
          "internalType": "address",
          "name": "_factory",
          "type": "address"
        },
        {
          "internalType": "bytes32",
          "name": "_initCode",
          "type": "bytes32"
        },
        {
          "internalType": "uint256",
          "name": "_amountIn",
          "type": "uint256"
        },
        {
          "internalType": "uint256",
          "name": "_amountOutMin",
          "type": "uint256"
        },
        {
          "internalType": "address[]",
          "name": "_path",
          "type": "address[]"
        },
        {
          "internalType": "uint8",
          "name": "_referrer",
          "type": "uint8"
        }
      ],
      "name": "doParaSwap",
      "outputs": [],
      "stateMutability": "nonpayable",
      "type": "function"
    },
    {
      "inputs": [],
      "name": "feesLPTokensForNode",
      "outputs": [
        {
          "internalType": "uint256",
          "name": "",
          "type": "uint256"
        }
      ],
      "stateMutability": "view",
      "type": "function"
    },
    {
      "inputs": [],
      "name": "getActiveNodes",
      "outputs": [
        {
          "internalType": "bytes32[]",
          "name": "",
          "type": "bytes32[]"
        }
      ],
      "stateMutability": "view",
      "type": "function"
    },
    {
      "inputs": [],
      "name": "getCurrentPriceLP",
      "outputs": [
        {
          "internalType": "uint256",
          "name": "nowPrice",
          "type": "uint256"
        }
      ],
      "stateMutability": "view",
      "type": "function"
    },
    {
      "inputs": [
        {
          "internalType": "address",
          "name": "_token",
          "type": "address"
        },
        {
          "internalType": "uint256",
          "name": "_amountOfFloat",
          "type": "uint256"
        }
      ],
      "name": "getDepositFeeRate",
      "outputs": [
        {
          "internalType": "uint256",
          "name": "depositFeeRate",
          "type": "uint256"
        }
      ],
      "stateMutability": "view",
      "type": "function"
    },
    {
      "inputs": [
        {
          "internalType": "address",
          "name": "_tokenA",
          "type": "address"
        },
        {
          "internalType": "address",
          "name": "_tokenB",
          "type": "address"
        }
      ],
      "name": "getFloatReserve",
      "outputs": [
        {
          "internalType": "uint256",
          "name": "reserveA",
          "type": "uint256"
        },
        {
          "internalType": "uint256",
          "name": "reserveB",
          "type": "uint256"
        }
      ],
      "stateMutability": "view",
      "type": "function"
    },
    {
      "inputs": [],
      "name": "initialExchangeRate",
      "outputs": [
        {
          "internalType": "uint256",
          "name": "",
          "type": "uint256"
        }
      ],
      "stateMutability": "view",
      "type": "function"
    },
    {
      "inputs": [
        {
          "internalType": "bytes32",
          "name": "_txid",
          "type": "bytes32"
        }
      ],
      "name": "isTxUsed",
      "outputs": [
        {
          "internalType": "bool",
          "name": "",
          "type": "bool"
        }
      ],
      "stateMutability": "view",
      "type": "function"
    },
    {
      "inputs": [],
      "name": "lockedLPTokensForNode",
      "outputs": [
        {
          "internalType": "uint256",
          "name": "",
          "type": "uint256"
        }
      ],
      "stateMutability": "view",
      "type": "function"
    },
    {
      "inputs": [],
      "name": "lpToken",
      "outputs": [
        {
          "internalType": "address",
          "name": "",
          "type": "address"
        }
      ],
      "stateMutability": "view",
      "type": "function"
    },
    {
      "inputs": [
        {
          "internalType": "address",
          "name": "_destToken",
          "type": "address"
        },
        {
          "internalType": "bytes32[]",
          "name": "_addressesAndAmounts",
          "type": "bytes32[]"
        },
        {
          "internalType": "uint256",
          "name": "_totalSwapped",
          "type": "uint256"
        },
        {
          "internalType": "uint256",
          "name": "_rewardsAmount",
          "type": "uint256"
        },
        {
          "internalType": "bytes32[]",
          "name": "_redeemedFloatTxIds",
          "type": "bytes32[]"
        }
      ],
      "name": "multiTransferERC20TightlyPacked",
      "outputs": [
        {
          "internalType": "bool",
          "name": "",
          "type": "bool"
        }
      ],
      "stateMutability": "nonpayable",
      "type": "function"
    },
    {
      "inputs": [],
      "name": "nodeRewardsRatio",
      "outputs": [
        {
          "internalType": "uint8",
          "name": "",
          "type": "uint8"
        }
      ],
      "stateMutability": "view",
      "type": "function"
    },
    {
      "inputs": [],
      "name": "owner",
      "outputs": [
        {
          "internalType": "address",
          "name": "",
          "type": "address"
        }
      ],
      "stateMutability": "view",
      "type": "function"
    },
    {
      "inputs": [
        {
          "internalType": "address",
          "name": "_token",
          "type": "address"
        },
        {
          "internalType": "bytes32",
          "name": "_addressesAndAmountOfFloat",
          "type": "bytes32"
        },
        {
          "internalType": "bool",
          "name": "_zerofee",
          "type": "bool"
        },
        {
          "internalType": "bytes32",
          "name": "_txid",
          "type": "bytes32"
        }
      ],
      "name": "recordIncomingFloat",
      "outputs": [
        {
          "internalType": "bool",
          "name": "",
          "type": "bool"
        }
      ],
      "stateMutability": "nonpayable",
      "type": "function"
    },
    {
      "inputs": [
        {
          "internalType": "address",
          "name": "_token",
          "type": "address"
        },
        {
          "internalType": "bytes32",
          "name": "_addressesAndAmountOfLPtoken",
          "type": "bytes32"
        },
        {
          "internalType": "uint256",
          "name": "_minerFee",
          "type": "uint256"
        },
        {
          "internalType": "bytes32",
          "name": "_txid",
          "type": "bytes32"
        }
      ],
      "name": "recordOutcomingFloat",
      "outputs": [
        {
          "internalType": "bool",
          "name": "",
          "type": "bool"
        }
      ],
      "stateMutability": "nonpayable",
      "type": "function"
    },
    {
      "inputs": [
        {
          "internalType": "address",
          "name": "_destToken",
          "type": "address"
        },
        {
          "internalType": "address",
          "name": "_to",
          "type": "address"
        },
        {
          "internalType": "uint256",
          "name": "_amount",
          "type": "uint256"
        },
        {
          "internalType": "uint256",
          "name": "_totalSwapped",
          "type": "uint256"
        },
        {
          "internalType": "bytes32[]",
          "name": "_redeemedFloatTxIds",
          "type": "bytes32[]"
        }
      ],
      "name": "recordSkyPoolsTX",
      "outputs": [
        {
          "internalType": "bool",
          "name": "",
          "type": "bool"
        }
      ],
      "stateMutability": "nonpayable",
      "type": "function"
    },
    {
      "inputs": [
        {
          "internalType": "uint256",
          "name": "_minerFee",
          "type": "uint256"
        },
        {
          "internalType": "bytes32",
          "name": "_txid",
          "type": "bytes32"
        }
      ],
      "name": "recordUTXOSweepMinerFee",
      "outputs": [
        {
          "internalType": "bool",
          "name": "",
          "type": "bool"
        }
      ],
      "stateMutability": "nonpayable",
      "type": "function"
    },
    {
      "inputs": [
        {
          "internalType": "address",
          "name": "_token",
          "type": "address"
        },
        {
          "internalType": "uint256",
          "name": "_amount",
          "type": "uint256"
        }
      ],
      "name": "redeemERC20Token",
      "outputs": [
        {
          "internalType": "bool",
          "name": "",
          "type": "bool"
        }
      ],
      "stateMutability": "nonpayable",
      "type": "function"
    },
    {
      "inputs": [],
      "name": "renounceOwnership",
      "outputs": [],
      "stateMutability": "nonpayable",
      "type": "function"
    },
    {
      "inputs": [
        {
          "internalType": "address",
          "name": "_destToken",
          "type": "address"
        },
        {
          "internalType": "address",
          "name": "_to",
          "type": "address"
        },
        {
          "internalType": "uint256",
          "name": "_amount",
          "type": "uint256"
        },
        {
          "internalType": "uint256",
          "name": "_totalSwapped",
          "type": "uint256"
        },
        {
          "internalType": "uint256",
          "name": "_rewardsAmount",
          "type": "uint256"
        },
        {
          "internalType": "bytes32[]",
          "name": "_redeemedFloatTxIds",
          "type": "bytes32[]"
        }
      ],
      "name": "singleTransferERC20",
      "outputs": [
        {
          "internalType": "bool",
          "name": "",
          "type": "bool"
        }
      ],
      "stateMutability": "nonpayable",
      "type": "function"
    },
    {
      "inputs": [
        {
          "internalType": "address",
          "name": "",
          "type": "address"
        },
        {
          "internalType": "address",
          "name": "",
          "type": "address"
        }
      ],
      "name": "tokens",
      "outputs": [
        {
          "internalType": "uint256",
          "name": "",
          "type": "uint256"
        }
      ],
      "stateMutability": "view",
      "type": "function"
    },
    {
      "inputs": [
        {
          "internalType": "address",
          "name": "newOwner",
          "type": "address"
        }
      ],
      "name": "transferOwnership",
      "outputs": [],
      "stateMutability": "nonpayable",
      "type": "function"
    },
    {
      "inputs": [],
      "name": "tssThreshold",
      "outputs": [
        {
          "internalType": "uint8",
          "name": "",
          "type": "uint8"
        }
      ],
      "stateMutability": "view",
      "type": "function"
    },
    {
      "inputs": [
        {
          "internalType": "address",
          "name": "",
          "type": "address"
        }
      ],
      "name": "whitelist",
      "outputs": [
        {
          "internalType": "bool",
          "name": "",
          "type": "bool"
        }
      ],
      "stateMutability": "view",
      "type": "function"
    },
    {
      "inputs": [],
      "name": "withdrawalFeeBPS",
      "outputs": [
        {
          "internalType": "uint8",
          "name": "",
          "type": "uint8"
        }
      ],
      "stateMutability": "view",
      "type": "function"
    }
  ],
  "bytecode": "0x60806040523480156200001157600080fd5b506040516200335338038062003353833981810160405260608110156200003757600080fd5b508051602082015160409092015190919060006200005462000296565b600080546001600160a01b0319166001600160a01b0383169081178255604051929350917f8be0079c531659141344cd1fd0a4f28419497f9722a3daafe3b4186f6b6457e0908290a350600280546001600160a01b0319166001600160a01b0385811691909117918290556040805163313ce56760e01b81529051929091169163313ce56791600480820192602092909190829003018186803b158015620000fb57600080fd5b505afa15801562000110573d6000803e3d6000fd5b505050506040513d60208110156200012757600080fd5b505160ff16600a0a600955600180546001600160a01b0319166001600160a01b0384169081179091556004805462ff00001916624200001763ff000000191663320000001760ff60201b19166414000000001781556040805163313ce56760e01b815290516008939263313ce56792808201926020929091829003018186803b158015620001b457600080fd5b505afa158015620001c9573d6000803e3d6000fd5b505050506040513d6020811015620001e057600080fd5b50510360ff16600a90810a600855600954600755600060058190556006819055600180546001600160a01b039081168352600360209081526040808520805460ff1990811686179091556002549093168552842080548316841790559280527f3617319a054d772f909f7c479a2cebe5066e836a939412e32403c99029b92eff80549091169091179055527f13da86008ba1c6922daee3e07db95305ef49ebced9f5467a0b8613fcc6b343e355506200029a9050565b3390565b6130a980620002aa6000396000f3fe608060405234801561001057600080fd5b50600436106101fa5760003560e01c80636b51e9191161011a578063b6268e5d116100ad578063e6ca20841161007c578063e6ca208414610975578063e9e9bf6a14610992578063ec4827291461099a578063f2fde38b146109e1578063f7824bc714610a07576101fa565b8063b6268e5d146107e7578063c0faaa09146107ef578063c810a5391461088c578063d6b2779a146108af576101fa565b80638006cc3e116100e95780638006cc3e146106425780638da5cb5b1461067a5780639b19251a14610682578063ad289e76146106a8576101fa565b80636b51e919146105b25780636d019f351461060a57806370a0823114610612578063715018a614610638576101fa565b80633b6fa127116101925780634e54cee0116101615780634e54cee0146103f4578063508493bc146105425780635fcbd2851461057057806363f289d914610578576101fa565b80633b6fa1271461038c57806342419255146103b857806345137e27146103c05780634db75485146103c8576101fa565b80630fd3d41c116101ce5780630fd3d41c1461032a57806312d1441e146103325780632586c5621461033a5780632d55282d14610372576101fa565b806289356f146101ff5780630b68134d1461021d5780630d63aca7146102255780630f90948614610306575b600080fd5b610207610a0f565b6040805160ff9092168252519081900360200190f35b610207610a18565b6102f2600480360360c081101561023b57600080fd5b6001600160a01b0382358116926020810135909116916040820135916060810135916080820135919081019060c0810160a0820135600160201b81111561028157600080fd5b82018360208201111561029357600080fd5b803590602001918460208302840111600160201b831117156102b457600080fd5b919080806020026020016040519081016040528093929190818152602001838360200280828437600092019190915250929550610a27945050505050565b604080519115158252519081900360200190f35b61030e610bc6565b604080516001600160a01b039092168252519081900360200190f35b6102f2610bd5565b610207610bda565b6102f26004803603608081101561035057600080fd5b506001600160a01b038135169060208101359060408101359060600135610be8565b61037a610d2c565b60408051918252519081900360200190f35b61037a600480360360408110156103a257600080fd5b506001600160a01b038135169060200135610d32565b610207610dbe565b61037a610dce565b6102f2600480360360408110156103de57600080fd5b506001600160a01b038135169060200135610eba565b6102f2600480360360e081101561040a57600080fd5b6001600160a01b038235169190810190604081016020820135600160201b81111561043457600080fd5b82018360208201111561044657600080fd5b803590602001918460208302840111600160201b8311171561046757600080fd5b9190808060200260200160405190810160405280939291908181526020018383602002808284376000920191909152509295949360208101935035915050600160201b8111156104b657600080fd5b8201836020820111156104c857600080fd5b803590602001918460208302840111600160201b831117156104e957600080fd5b9190808060200260200160405190810160405280939291908181526020018383602002808284376000920191909152509295505060ff833581169450602084013581169360408101358216935060600135169050610ffe565b61037a6004803603604081101561055857600080fd5b506001600160a01b038135811691602001351661131c565b61030e611339565b6102f26004803603608081101561058e57600080fd5b506001600160a01b0381351690602081013590604081013515159060600135611348565b6105ba611426565b60408051602080825283518183015283519192839290830191858101910280838360005b838110156105f65781810151838201526020016105de565b505050509050019250505060405180910390f35b61037a611585565b61037a6004803603602081101561062857600080fd5b50356001600160a01b031661158b565b6106406115b1565b005b6102f26004803603608081101561065857600080fd5b506001600160a01b03813516906020810135906040810135906060013561165d565b61030e61178e565b6102f26004803603602081101561069857600080fd5b50356001600160a01b031661179d565b6102f2600480360360a08110156106be57600080fd5b6001600160a01b038235169190810190604081016020820135600160201b8111156106e857600080fd5b8201836020820111156106fa57600080fd5b803590602001918460208302840111600160201b8311171561071b57600080fd5b9190808060200260200160405190810160405280939291908181526020018383602002808284376000920191909152509295843595602086013595919450925060608101915060400135600160201b81111561077657600080fd5b82018360208201111561078857600080fd5b803590602001918460208302840111600160201b831117156107a957600080fd5b9190808060200260200160405190810160405280939291908181526020018383602002808284376000920191909152509295506117b2945050505050565b61020761198c565b610640600480360360e081101561080557600080fd5b6001600160a01b0382358116926020810135909116916040820135916060810135916080820135919081019060c0810160a0820135600160201b81111561084b57600080fd5b82018360208201111561085d57600080fd5b803590602001918460208302840111600160201b8311171561087e57600080fd5b91935091503560ff1661199c565b6102f2600480360360408110156108a257600080fd5b5080359060200135611a67565b6102f2600480360360a08110156108c557600080fd5b6001600160a01b03823581169260208101359091169160408201359160608101359181019060a081016080820135600160201b81111561090457600080fd5b82018360208201111561091657600080fd5b803590602001918460208302840111600160201b8311171561093757600080fd5b919080806020026020016040519081016040528093929190818152602001838360200280828437600092019190915250929550611bcb945050505050565b6102f26004803603602081101561098b57600080fd5b5035611d84565b6102f2611d99565b6109c8600480360360408110156109b057600080fd5b506001600160a01b0381358116916020013516612000565b6040805192835260208301919091528051918290030190f35b610640600480360360208110156109f757600080fd5b50356001600160a01b031661202a565b61037a61212c565b60045460ff1681565b60045462010000900460ff1681565b6000610a31612132565b6001600160a01b0316610a4261178e565b6001600160a01b031614610a8b576040805162461bcd60e51b81526020600482018190526024820152600080516020612fcf833981519152604482015290519081900360640190fd5b6001600160a01b03871660009081526003602052604090205460ff16610af8576040805162461bcd60e51b815260206004820152601d60248201527f5f64657374546f6b656e206973206e6f742077686974656c6973746564000000604482015290519081900360640190fd5b6001600160a01b038716610b3d5760405162461bcd60e51b81526004018080602001828103825260238152602001806130516023913960400191505060405180910390fd5b60008415610b6357600154610b5e906000906001600160a01b031687612136565b610b76565b84610b7657506001546001600160a01b03165b6002546001600160a01b0389811691161415610b9a57506002546001600160a01b03165b610ba48185612222565b610bad83612399565b610bb88888886123e8565b506001979650505050505050565b6001546001600160a01b031681565b600090565b600454610100900460ff1681565b6000610bf2612132565b6001600160a01b0316610c0361178e565b6001600160a01b031614610c4c576040805162461bcd60e51b81526020600482018190526024820152600080516020612fcf833981519152604482015290519081900360640190fd5b6000610c56610dce565b6001600160a01b03871660009081526003602052604090205490915060ff16610cba576040805162461bcd60e51b815260206004820152601160248201527017dd1bdad95b881a5cc81a5b9d985b1a59607a1b604482015290519081900360640190fd5b610cc6868686866124a0565b610ccf57600080fd5b6001915080610cdc610dce565b1015610d23576040805162461bcd60e51b8152602060048201526011602482015270496e76616c6964204c505420707269636560781b604482015290519081900360640190fd5b50949350505050565b60055481565b600080610d3f848461283c565b90508060ff1660011415610d81576001546001600160a01b03858116911614610d69576000610d77565b6004546301000000900460ff165b60ff169150610db7565b8060ff1660021415610db7576001600160a01b03841615610da3576000610db1565b6004546301000000900460ff165b60ff1691505b5092915050565b6004546301000000900460ff1681565b60015460009081908190610dec9082906001600160a01b0316612000565b915091506000600260009054906101000a90046001600160a01b03166001600160a01b03166318160ddd6040518163ffffffff1660e01b815260040160206040518083038186803b158015610e4057600080fd5b505afa158015610e54573d6000803e3d6000fd5b505050506040513d6020811015610e6a57600080fd5b505190508015610eae57610ea9610e8c600554836128f690919063ffffffff16565b600954610ea390610e9d87876128f6565b90612957565b906129b0565b610eb2565b6007545b935050505090565b6001600160a01b0382166000908152600f60209081526040808320338452909152812054821115610f29576040805162461bcd60e51b8152602060048201526014602482015273496e73756666696369656e742042616c616e636560601b604482015290519081900360640190fd5b6001600160a01b0383166000908152600f60209081526040808320338452909152902054610f579083612a17565b6001600160a01b0384166000908152600f6020908152604080832033808552925290912091909155610f8b908490846123e8565b6001600160a01b0383166000818152600f602090815260408083203380855290835292819020548151948552918401929092528282018590526060830152517ff341246adaac6f497bc2a656f546ab9e182111d630394f0c57c710a59a2cb5679181900360800190a15060015b92915050565b6000611008612132565b6001600160a01b031661101961178e565b6001600160a01b031614611062576040805162461bcd60e51b81526020600482018190526024820152600080516020612fcf833981519152604482015290519081900360640190fd5b60045460ff610100909104811690851610801590611084575060ff8460ff1611155b6110bf5760405162461bcd60e51b8152600401808060200182810382526027815260200180612f666027913960400191505060405180910390fd5b6001840160ff168560ff161015611112576040805162461bcd60e51b81526020600482015260126024820152716e2073686f756c64206265203e3d20742b3160701b604482015290519081900360640190fd5b60648360ff16111561116b576040805162461bcd60e51b815260206004820152601e60248201527f5f6e6f646552657761726473526174696f206973206e6f742076616c69640000604482015290519081900360640190fd5b60648260ff1611156111c4576040805162461bcd60e51b815260206004820152601c60248201527f5f7769746864726177616c46656542505320697320696e76616c696400000000604482015290519081900360640190fd5b85518751146112045760405162461bcd60e51b815260040180806020018281038252603b815260200180613016603b913960400191505060405180910390fd5b61120d8861202a565b60005b875181101561127557600061123789838151811061122a57fe5b6020026020010151612a74565b50905061126b818a848151811061124a57fe5b60200260200101518a858151811061125e57fe5b6020026020010151612a7d565b5050600101611210565b506060611280611426565b90506064815111156112c35760405162461bcd60e51b8152600401808060200182810382526021815260200180612fae6021913960400191505060405180910390fd5b50506004805460ff191660ff9586161761ff001916610100948616949094029390931762ff0000191662010000928516929092029190911764ff000000001916600160201b919093160291909117905550600192915050565b600f60209081526000928352604080842090915290825290205481565b6002546001600160a01b031681565b6000611352612132565b6001600160a01b031661136361178e565b6001600160a01b0316146113ac576040805162461bcd60e51b81526020600482018190526024820152600080516020612fcf833981519152604482015290519081900360640190fd5b60006113b6610dce565b6001600160a01b03871660009081526003602052604090205490915060ff1661141a576040805162461bcd60e51b815260206004820152601160248201527017dd1bdad95b881a5cc81a5b9d985b1a59607a1b604482015290519081900360640190fd5b610cc686868686612b6d565b606060008060005b600e5481101561148957600c6000600e838154811061144957fe5b60009182526020808320909101546001600160a01b03168352820192909252604001902054156114815761147e8360016128f6565b92505b60010161142e565b5060608267ffffffffffffffff811180156114a357600080fd5b506040519080825280602002602001820160405280156114cd578160200160208202803683370190505b50905060005b600e5481101561157d57600c6000600e83815481106114ee57fe5b60009182526020808320909101546001600160a01b031683528201929092526040019020541561157557600c6000600e838154811061152957fe5b60009182526020808320909101546001600160a01b03168352820192909252604001902054825183908590811061155c57fe5b60209081029190910101526115728360016128f6565b92505b6001016114d3565b509250505090565b60075481565b6001600160a01b03166000908152600f6020908152604080832033845290915290205490565b6115b9612132565b6001600160a01b03166115ca61178e565b6001600160a01b031614611613576040805162461bcd60e51b81526020600482018190526024820152600080516020612fcf833981519152604482015290519081900360640190fd5b600080546040516001600160a01b03909116907f8be0079c531659141344cd1fd0a4f28419497f9722a3daafe3b4186f6b6457e0908390a3600080546001600160a01b0319169055565b6000611667612132565b6001600160a01b031661167861178e565b6001600160a01b0316146116c1576040805162461bcd60e51b81526020600482018190526024820152600080516020612fcf833981519152604482015290519081900360640190fd5b6001600160a01b0385161561171d576040805162461bcd60e51b815260206004820152601f60248201527f5f64657374546f6b656e2073686f756c64206265206164647265737328302900604482015290519081900360640190fd5b6001546001600160a01b0316841561176f5760006117458561173f8887612a17565b90612a17565b600154909150611769906001600160a01b0316600061176484896128f6565b612136565b50611778565b84611778575060005b6117828184612222565b50600195945050505050565b6000546001600160a01b031690565b60036020526000908152604090205460ff1681565b60006117bc612132565b6001600160a01b03166117cd61178e565b6001600160a01b031614611816576040805162461bcd60e51b81526020600482018190526024820152600080516020612fcf833981519152604482015290519081900360640190fd5b6001600160a01b03861660009081526003602052604090205460ff16611883576040805162461bcd60e51b815260206004820152601d60248201527f5f64657374546f6b656e206973206e6f742077686974656c6973746564000000604482015290519081900360640190fd5b6001600160a01b0386166118c85760405162461bcd60e51b81526004018080602001828103825260238152602001806130516023913960400191505060405180910390fd5b600084156118ee576001546118e9906000906001600160a01b031687612136565b611901565b8461190157506001546001600160a01b03165b6002546001600160a01b038881169116141561192557506002546001600160a01b03165b61192f8185612222565b61193883612399565b60005b8651811015610bb8576119848888838151811061195457fe5b602002602001015160001c89848151811061196b57fe5b602002602001015160a01c6001600160601b03166123e8565b60010161193b565b600454600160201b900460ff1681565b876001600160a01b0316630863b7ac888888888888886040518863ffffffff1660e01b815260040180886001600160a01b03168152602001878152602001868152602001858152602001806020018360ff1681526020018281038252858582818152602001925060200280828437600081840152601f19601f82011690508083019250505098505050505050505050600060405180830381600087803b158015611a4557600080fd5b505af1158015611a59573d6000803e3d6000fd5b505050505050505050505050565b6000611a71612132565b6001600160a01b0316611a8261178e565b6001600160a01b031614611acb576040805162461bcd60e51b81526020600482018190526024820152600080516020612fcf833981519152604482015290519081900360640190fd5b611ad482611d84565b15611b21576040805162461bcd60e51b8152602060048201526018602482015277151a19481d1e1a59081a5cc8185b1c9958591e481d5cd95960421b604482015290519081900360640190fd5b60408051808201909152601d81527f42544320666c6f617420616d6f756e7420696e73756666696369656e7400000060208083019190915260008052600a90527f13da86008ba1c6922daee3e07db95305ef49ebced9f5467a0b8613fcc6b343e354611b8e918590612db4565b60008052600a6020527f13da86008ba1c6922daee3e07db95305ef49ebced9f5467a0b8613fcc6b343e355611bc282612e4b565b50600192915050565b6000611bd5612132565b6001600160a01b0316611be661178e565b6001600160a01b031614611c2f576040805162461bcd60e51b81526020600482018190526024820152600080516020612fcf833981519152604482015290519081900360640190fd5b6001600160a01b03861660009081526003602052604090205460ff16611c9c576040805162461bcd60e51b815260206004820152601d60248201527f5f64657374546f6b656e206973206e6f742077686974656c6973746564000000604482015290519081900360640190fd5b6001600160a01b038616611ce15760405162461bcd60e51b81526004018080602001828103825260238152602001806130516023913960400191505060405180910390fd5b60008315611d0757600154611d02906000906001600160a01b031686612136565b611d1a565b83611d1a57506001546001600160a01b03165b6002546001600160a01b0388811691161415611d3e57506002546001600160a01b03165b611d488786612e66565b611d5183612399565b505050506001600160a01b039283166000908152600f602090815260408083209490951682529290925291902055600190565b6000908152600b602052604090205460ff1690565b600080611db36006546005546128f690919063ffffffff16565b905060008111611df45760405162461bcd60e51b8152600401808060200182810382526025815260200180612ee76025913960400191505060405180910390fd5b6060611dfe611426565b90506000805b8251811015611e4957611e3f838281518110611e1c57fe5b602002602001015160a01c6001600160601b0316836128f690919063ffffffff16565b9150600101611e04565b50600254600554604080516340c10f1960e01b81523060048201526024810192909252516001600160a01b03909216916340c10f19916044808201926020929091908290030181600087803b158015611ea157600080fd5b505af1158015611eb5573d6000803e3d6000fd5b505050506040513d6020811015611ecb57600080fd5b50600090505b8251811015611fb85760025483516001600160a01b039091169063a9059cbb90859084908110611efd57fe5b602002602001015160001c611f3e85610ea3888781518110611f1b57fe5b602002602001015160a01c6001600160601b03168a61295790919063ffffffff16565b6040518363ffffffff1660e01b815260040180836001600160a01b0316815260200182815260200192505050602060405180830381600087803b158015611f8457600080fd5b505af1158015611f98573d6000803e3d6000fd5b505050506040513d6020811015611fae57600080fd5b5050600101611ed1565b506040805184815290517f86dd6ae252e62228b47b3c1a12762cbf634952b2d29319b04f4f72fb153bcbdd9181900360200190a1505060006005819055600655506001905090565b6001600160a01b039182166000908152600a60205260408082205492909316815291909120549091565b612032612132565b6001600160a01b031661204361178e565b6001600160a01b03161461208c576040805162461bcd60e51b81526020600482018190526024820152600080516020612fcf833981519152604482015290519081900360640190fd5b6001600160a01b0381166120d15760405162461bcd60e51b8152600401808060200182810382526026815260200180612f406026913960400191505060405180910390fd5b600080546040516001600160a01b03808516939216917f8be0079c531659141344cd1fd0a4f28419497f9722a3daafe3b4186f6b6457e091a3600080546001600160a01b0319166001600160a01b0392909216919091179055565b60065481565b3390565b60408051808201825260208082527f5f737761703a20666c6f617420616d6f756e7420696e73756666696369656e74818301526001600160a01b0385166000908152600a909152919091205461218d918390612db4565b6001600160a01b038084166000908152600a602052604080822093909355908516815220546121bc90826128f6565b6001600160a01b038085166000818152600a602090815260409182902094909455805191825291851692810192909252818101839052517fea368a40e9570069bb8e6511d668293ad2e1f03b0d982431fd223de9f3b70ca69181900360600190a1505050565b8061222c57612395565b6002546001600160a01b03838116911614156122a75760065461224f90826128f6565b600655604080516001600160a01b0384168152602081018390526000818301819052606082015290517fe3debe835f6848edc082b32a1d729781d3bfcd7e14422d80bcaa6794d3816b2f9181900360800190a1612395565b60006122b1610dce565b6001600160a01b0384166000908152600a60205260409020549091506122d790836128f6565b6001600160a01b0384166000908152600a602052604081209190915560045461231190606490610ea390869062010000900460ff16612957565b9050600061232e83610ea36009548561295790919063ffffffff16565b60055490915061233e90826128f6565b600555604080516001600160a01b0387168152602081018690528082018390526060810185905290517fe3debe835f6848edc082b32a1d729781d3bfcd7e14422d80bcaa6794d3816b2f9181900360800190a15050505b5050565b60005b8151811015612395576001600b60008484815181106123b757fe5b6020908102919091018101518252810191909152604001600020805460ff191691151591909117905560010161239c565b6001546001600160a01b038481169116141561240f5760085461240c908290612957565b90505b826001600160a01b031663a9059cbb83836040518363ffffffff1660e01b815260040180836001600160a01b0316815260200182815260200192505050602060405180830381600087803b15801561246657600080fd5b505af115801561247a573d6000803e3d6000fd5b505050506040513d602081101561249057600080fd5b505161249b57600080fd5b505050565b60006124ab82611d84565b156124f8576040805162461bcd60e51b8152602060048201526018602482015277151a19481d1e1a59081a5cc8185b1c9958591e481d5cd95960421b604482015290519081900360640190fd5b8361254a576040805162461bcd60e51b815260206004820152601c60248201527f546865207472616e73616374696f6e206973206e6f742076616c696400000000604482015290519081900360640190fd5b60008061255686612a74565b915091506000612564610dce565b90506000612581600954610ea3848661295790919063ffffffff16565b6004549091506000906125a79061271090610ea3908590600160201b900460ff16612957565b9050876125b48383612a17565b10156125f15760405162461bcd60e51b8152600401808060200182810382526034815260200180612f0c6034913960400191505060405180910390fd5b60006126018961173f8585612a17565b60015490915060009081906126209082906001600160a01b0316612000565b90925090506001600160a01b038d166126965761263d8585612a17565b821015612691576040805162461bcd60e51b815260206004820152601f60248201527f54686520666c6f61742062616c616e636520696e73756666696369656e742e00604482015290519081900360640190fd5b61270a565b6001546001600160a01b038e81169116141561270a576126b68585612a17565b81101561270a576040805162461bcd60e51b815260206004820152601f60248201527f54686520666c6f61742062616c616e636520696e73756666696369656e742e00604482015290519081900360640190fd5b6127148d85612222565b61271e8d86612e66565b6127278a612e4b565b6001546001600160a01b038e811691161415612748576127488d89856123e8565b60025460408051630852cd8d60e31b8152600481018a905290516001600160a01b03909216916342966c68916024808201926020929091908290030181600087803b15801561279657600080fd5b505af11580156127aa573d6000803e3d6000fd5b505050506040513d60208110156127c057600080fd5b50516127cb57600080fd5b604080516001600160a01b038a16815260208101899052808201879052606081018890526080810185905260a081018c905290517fa9da34e5e4a956b744307ae7611795634e8365951073bf049d76b64b2ae7a0589181900360c00190a15060019c9b505050505050505050505050565b6001546000908190819061285a9082906001600160a01b0316612000565b9092509050600061287f6003610ea36002610e9d8961287989896128f6565b906128f6565b6001549091506001600160a01b0387811691161480156128a85750806128a583876128f6565b10155b156128b95760019350505050610ff8565b6001600160a01b0386161580156128d95750806128d684876128f6565b10155b156128ea5760029350505050610ff8565b50600095945050505050565b600082820183811015612950576040805162461bcd60e51b815260206004820152601b60248201527f536166654d6174683a206164646974696f6e206f766572666c6f770000000000604482015290519081900360640190fd5b9392505050565b60008261296657506000610ff8565b8282028284828161297357fe5b04146129505760405162461bcd60e51b8152600401808060200182810382526021815260200180612f8d6021913960400191505060405180910390fd5b6000808211612a06576040805162461bcd60e51b815260206004820152601a60248201527f536166654d6174683a206469766973696f6e206279207a65726f000000000000604482015290519081900360640190fd5b818381612a0f57fe5b049392505050565b600082821115612a6e576040805162461bcd60e51b815260206004820152601e60248201527f536166654d6174683a207375627472616374696f6e206f766572666c6f770000604482015290519081900360640190fd5b50900390565b9060a082901c90565b60008115612aa657506001600160a01b0383166000908152600c60205260408120556001612950565b6001600160a01b0384166000908152600d602052604090205460ff16612b2a57600e805460018082019092557fbb7b4a454dc3493923482f07822329ed19e8244eff582cc204f8554c3620c3fd0180546001600160a01b0319166001600160a01b0387169081179091556000908152600d60205260409020805460ff191690911790555b6001600160a01b0384166000908152600c6020526040902054612b63576001600160a01b0384166000908152600c602052604090208390555b5060019392505050565b6000612b7882611d84565b15612bc5576040805162461bcd60e51b8152602060048201526018602482015277151a19481d1e1a59081a5cc8185b1c9958591e481d5cd95960421b604482015290519081900360640190fd5b83612c17576040805162461bcd60e51b815260206004820152601c60248201527f546865207472616e73616374696f6e206973206e6f742076616c696400000000604482015290519081900360640190fd5b600080612c2386612a74565b915091506000612c31610dce565b90506000612c4e82610ea36009548661295790919063ffffffff16565b90506000612c5c8a85610d32565b9050600081612c6c576000612c7c565b612c7c612710610ea38585612957565b9050888015612c8a57508015155b15612c9457600080fd5b6002546001600160a01b03166340c10f1987612cb08685612a17565b6040518363ffffffff1660e01b815260040180836001600160a01b0316815260200182815260200192505050602060405180830381600087803b158015612cf657600080fd5b505af1158015612d0a573d6000803e3d6000fd5b505050506040513d6020811015612d2057600080fd5b5050600554612d2f90826128f6565b600555612d3c8b86612ec3565b612d4588612e4b565b604080516001600160a01b038816815260208101879052808201859052606081018690526080810183905260a081018a905290517fdfaf4e23f7030adafec91a682e05bf9fb30c721f9cec3d8bcfae0459c5362db19181900360c00190a15060019a9950505050505050505050565b60008184841115612e435760405162461bcd60e51b81526004018080602001828103825283818151815260200191508051906020019080838360005b83811015612e08578181015183820152602001612df0565b50505050905090810190601f168015612e355780820380516001836020036101000a031916815260200191505b509250505060405180910390fd5b505050900390565b6000908152600b60205260409020805460ff19166001179055565b612ea381604051806060016040528060278152602001612fef602791396001600160a01b0385166000908152600a60205260409020549190612db4565b6001600160a01b039092166000908152600a602052604090209190915550565b6001600160a01b0382166000908152600a6020526040902054612ea390826128f656fe746f74616c5265776172644c5073466f724e6f6465206973206e6f7420706f7369746976654572726f723a20616d6f756e744f66466c6f61742e737562287769746864726177616c4665657329203c205f6d696e65724665654f776e61626c653a206e6577206f776e657220697320746865207a65726f20616464726573735f7473735468726573686f6c642073686f756c64206265203e3d207473735468726573686f6c64536166654d6174683a206d756c7469706c69636174696f6e206f766572666c6f7753746f726564206e6f64652073697a652073686f756c64206265203c3d203130304f776e61626c653a2063616c6c6572206973206e6f7420746865206f776e65725f72656d6f7665466c6f61743a20666c6f617420616d6f756e7420696e73756666696369656e745f72657761726441646472657373416e64416d6f756e747320616e64205f697352656d6f766564206c656e677468206973206e6f74206d617463685f64657374546f6b656e2073686f756c64206e6f742062652061646472657373283029a264697066735822122088032703ba497ca5b0c342c47c8d3fc5831a51bfa11e67127231d40c5d7c707c64736f6c63430007050033",
  "linkReferences": {},
  "deployedLinkReferences": {}
}