{
  "_format": "hh-sol-artifact-1",
  "contractName": "SwapContract",
  "sourceName": "contracts/SwapContract.sol",
  "abi": [
    {
      "inputs": [
        {
          "internalType": "address",
          "name": "_lpToken",
          "type": "address"
        },
        {
          "internalType": "address",
          "name": "_btct",
          "type": "address"
        },
        {
          "internalType": "address",
          "name": "_wETH",
          "type": "address"
        },
        {
          "internalType": "uint256",
          "name": "_existingBTCFloat",
          "type": "uint256"
        }
      ],
      "stateMutability": "nonpayable",
      "type": "constructor"
    },
    {
      "anonymous": false,
      "inputs": [
        {
          "indexed": false,
          "internalType": "address",
          "name": "token",
          "type": "address"
        },
        {
          "indexed": false,
          "internalType": "uint256",
          "name": "amountOfLP",
          "type": "uint256"
        },
        {
          "indexed": false,
          "internalType": "uint256",
          "name": "amountOfFloat",
          "type": "uint256"
        },
        {
          "indexed": false,
          "internalType": "uint256",
          "name": "currentPriceLP",
          "type": "uint256"
        },
        {
          "indexed": false,
          "internalType": "uint256",
          "name": "withdrawal",
          "type": "uint256"
        },
        {
          "indexed": false,
          "internalType": "bytes32",
          "name": "txid",
          "type": "bytes32"
        }
      ],
      "name": "BurnLPTokensForFloat",
      "type": "event"
    },
    {
      "anonymous": false,
      "inputs": [
        {
          "indexed": false,
          "internalType": "address",
          "name": "token",
          "type": "address"
        },
        {
          "indexed": false,
          "internalType": "address",
          "name": "user",
          "type": "address"
        },
        {
          "indexed": false,
          "internalType": "uint256",
          "name": "amount",
          "type": "uint256"
        },
        {
          "indexed": false,
          "internalType": "uint256",
          "name": "balance",
          "type": "uint256"
        },
        {
          "indexed": false,
          "internalType": "uint256",
          "name": "Timestamp",
          "type": "uint256"
        }
      ],
      "name": "Deposit",
      "type": "event"
    },
    {
      "anonymous": false,
      "inputs": [
        {
          "indexed": false,
          "internalType": "uint256",
          "name": "rewardLPTsForNodes",
          "type": "uint256"
        }
      ],
      "name": "DistributeNodeRewards",
      "type": "event"
    },
    {
      "anonymous": false,
      "inputs": [
        {
          "indexed": false,
          "internalType": "address",
          "name": "to",
          "type": "address"
        },
        {
          "indexed": false,
          "internalType": "uint256",
          "name": "amountOfFloat",
          "type": "uint256"
        },
        {
          "indexed": false,
          "internalType": "uint256",
          "name": "amountOfLP",
          "type": "uint256"
        },
        {
          "indexed": false,
          "internalType": "uint256",
          "name": "currentPriceLP",
          "type": "uint256"
        },
        {
          "indexed": false,
          "internalType": "uint256",
          "name": "depositFees",
          "type": "uint256"
        },
        {
          "indexed": false,
          "internalType": "bytes32",
          "name": "txid",
          "type": "bytes32"
        }
      ],
      "name": "IssueLPTokensForFloat",
      "type": "event"
    },
    {
      "anonymous": false,
      "inputs": [
        {
          "indexed": true,
          "internalType": "address",
          "name": "previousOwner",
          "type": "address"
        },
        {
          "indexed": true,
          "internalType": "address",
          "name": "newOwner",
          "type": "address"
        }
      ],
      "name": "OwnershipTransferred",
      "type": "event"
    },
    {
      "anonymous": false,
      "inputs": [
        {
          "indexed": false,
          "internalType": "address",
          "name": "feesToken",
          "type": "address"
        },
        {
          "indexed": false,
          "internalType": "uint256",
          "name": "rewards",
          "type": "uint256"
        },
        {
          "indexed": false,
          "internalType": "uint256",
          "name": "amountLPTokensForNode",
          "type": "uint256"
        },
        {
          "indexed": false,
          "internalType": "uint256",
          "name": "currentPriceLP",
          "type": "uint256"
        }
      ],
      "name": "RewardsCollection",
      "type": "event"
    },
    {
      "anonymous": false,
      "inputs": [
        {
          "indexed": false,
          "internalType": "uint256",
          "name": "ExpirationTime",
          "type": "uint256"
        },
        {
          "indexed": false,
          "internalType": "uint256",
          "name": "Timestamp",
          "type": "uint256"
        }
      ],
      "name": "SetExpirationTime",
      "type": "event"
    },
    {
      "anonymous": false,
      "inputs": [
        {
          "indexed": false,
          "internalType": "address",
          "name": "from",
          "type": "address"
        },
        {
          "indexed": false,
          "internalType": "address",
          "name": "to",
          "type": "address"
        },
        {
          "indexed": false,
          "internalType": "uint256",
          "name": "amount",
          "type": "uint256"
        }
      ],
      "name": "Swap",
      "type": "event"
    },
    {
      "anonymous": false,
      "inputs": [
        {
          "indexed": false,
          "internalType": "bytes32",
          "name": "SwapID",
          "type": "bytes32"
        },
        {
          "indexed": false,
          "internalType": "string",
          "name": "DestAddr",
          "type": "string"
        },
        {
          "indexed": false,
          "internalType": "address",
          "name": "RefundAddr",
          "type": "address"
        },
        {
          "indexed": false,
          "internalType": "uint256",
          "name": "AmountWBTC",
          "type": "uint256"
        },
        {
          "indexed": false,
          "internalType": "uint256",
          "name": "Timestamp",
          "type": "uint256"
        }
      ],
      "name": "SwapTokensToBTC",
      "type": "event"
    },
    {
      "anonymous": false,
      "inputs": [
        {
          "indexed": false,
          "internalType": "address",
          "name": "token",
          "type": "address"
        },
        {
          "indexed": false,
          "internalType": "address",
          "name": "user",
          "type": "address"
        },
        {
          "indexed": false,
          "internalType": "uint256",
          "name": "amount",
          "type": "uint256"
        },
        {
          "indexed": false,
          "internalType": "uint256",
          "name": "balance",
          "type": "uint256"
        },
        {
          "indexed": false,
          "internalType": "uint256",
          "name": "Timestamp",
          "type": "uint256"
        }
      ],
      "name": "Withdraw",
      "type": "event"
    },
    {
      "stateMutability": "nonpayable",
      "type": "fallback"
    },
    {
      "inputs": [],
      "name": "BTCT_ADDR",
      "outputs": [
        {
          "internalType": "address",
          "name": "",
          "type": "address"
        }
      ],
      "stateMutability": "view",
      "type": "function"
    },
    {
      "inputs": [
        {
          "internalType": "address",
          "name": "_token",
          "type": "address"
        },
        {
          "internalType": "address",
          "name": "_user",
          "type": "address"
        }
      ],
      "name": "balanceOf",
      "outputs": [
        {
          "internalType": "uint256",
          "name": "",
          "type": "uint256"
        }
      ],
      "stateMutability": "view",
      "type": "function"
    },
    {
      "inputs": [
        {
          "internalType": "address",
          "name": "_newOwner",
          "type": "address"
        },
        {
          "internalType": "bytes32[]",
          "name": "_rewardAddressAndAmounts",
          "type": "bytes32[]"
        },
        {
          "internalType": "bool[]",
          "name": "_isRemoved",
          "type": "bool[]"
        },
        {
          "internalType": "uint8",
          "name": "_churnedInCount",
          "type": "uint8"
        },
        {
          "internalType": "uint8",
          "name": "_tssThreshold",
          "type": "uint8"
        },
        {
          "internalType": "uint8",
          "name": "_nodeRewardsRatio",
          "type": "uint8"
        },
        {
          "internalType": "uint8",
          "name": "_withdrawalFeeBPS",
          "type": "uint8"
        },
        {
          "internalType": "uint256",
          "name": "_expirationTime",
          "type": "uint256"
        }
      ],
      "name": "churn",
      "outputs": [
        {
          "internalType": "bool",
          "name": "",
          "type": "bool"
        }
      ],
      "stateMutability": "nonpayable",
      "type": "function"
    },
    {
      "inputs": [],
      "name": "churnedInCount",
      "outputs": [
        {
          "internalType": "uint8",
          "name": "",
          "type": "uint8"
        }
      ],
      "stateMutability": "view",
      "type": "function"
    },
    {
      "inputs": [
        {
          "internalType": "address",
          "name": "_destToken",
          "type": "address"
        },
        {
          "internalType": "uint256",
          "name": "_incomingAmount",
          "type": "uint256"
        },
        {
          "internalType": "uint256",
          "name": "_minerFee",
          "type": "uint256"
        },
        {
          "internalType": "uint256",
          "name": "_rewardsAmount",
          "type": "uint256"
        }
      ],
      "name": "collectSwapFeesForBTC",
      "outputs": [
        {
          "internalType": "bool",
          "name": "",
          "type": "bool"
        }
      ],
      "stateMutability": "nonpayable",
      "type": "function"
    },
    {
      "inputs": [],
      "name": "depositFeesBPS",
      "outputs": [
        {
          "internalType": "uint8",
          "name": "",
          "type": "uint8"
        }
      ],
      "stateMutability": "view",
      "type": "function"
    },
    {
      "inputs": [],
      "name": "distributeNodeRewards",
      "outputs": [
        {
          "internalType": "bool",
          "name": "",
          "type": "bool"
        }
      ],
      "stateMutability": "nonpayable",
      "type": "function"
    },
    {
      "inputs": [],
      "name": "expirationTime",
      "outputs": [
        {
          "internalType": "uint256",
          "name": "",
          "type": "uint256"
        }
      ],
      "stateMutability": "view",
      "type": "function"
    },
    {
      "inputs": [],
      "name": "feesLPTokensForNode",
      "outputs": [
        {
          "internalType": "uint256",
          "name": "",
          "type": "uint256"
        }
      ],
      "stateMutability": "view",
      "type": "function"
    },
    {
      "inputs": [],
      "name": "getActiveNodes",
      "outputs": [
        {
          "internalType": "bytes32[]",
          "name": "",
          "type": "bytes32[]"
        }
      ],
      "stateMutability": "view",
      "type": "function"
    },
    {
      "inputs": [],
      "name": "getCurrentPriceLP",
      "outputs": [
        {
          "internalType": "uint256",
          "name": "nowPrice",
          "type": "uint256"
        }
      ],
      "stateMutability": "view",
      "type": "function"
    },
    {
      "inputs": [
        {
          "internalType": "address",
          "name": "_token",
          "type": "address"
        },
        {
          "internalType": "uint256",
          "name": "_amountOfFloat",
          "type": "uint256"
        }
      ],
      "name": "getDepositFeeRate",
      "outputs": [
        {
          "internalType": "uint256",
          "name": "depositFeeRate",
          "type": "uint256"
        }
      ],
      "stateMutability": "view",
      "type": "function"
    },
    {
      "inputs": [
        {
          "internalType": "address",
          "name": "_tokenA",
          "type": "address"
        },
        {
          "internalType": "address",
          "name": "_tokenB",
          "type": "address"
        }
      ],
      "name": "getFloatReserve",
      "outputs": [
        {
          "internalType": "uint256",
          "name": "reserveA",
          "type": "uint256"
        },
        {
          "internalType": "uint256",
          "name": "reserveB",
          "type": "uint256"
        }
      ],
      "stateMutability": "view",
      "type": "function"
    },
    {
      "inputs": [],
      "name": "initialExchangeRate",
      "outputs": [
        {
          "internalType": "uint256",
          "name": "",
          "type": "uint256"
        }
      ],
      "stateMutability": "view",
      "type": "function"
    },
    {
      "inputs": [
        {
          "internalType": "bytes32",
          "name": "_txid",
          "type": "bytes32"
        }
      ],
      "name": "isTxUsed",
      "outputs": [
        {
          "internalType": "bool",
          "name": "",
          "type": "bool"
        }
      ],
      "stateMutability": "view",
      "type": "function"
    },
    {
      "inputs": [],
      "name": "latestRemovedIndex",
      "outputs": [
        {
          "internalType": "uint256",
          "name": "",
          "type": "uint256"
        }
      ],
      "stateMutability": "view",
      "type": "function"
    },
    {
      "inputs": [],
      "name": "lockedLPTokensForNode",
      "outputs": [
        {
          "internalType": "uint256",
          "name": "",
          "type": "uint256"
        }
      ],
      "stateMutability": "view",
      "type": "function"
    },
    {
      "inputs": [],
      "name": "lpToken",
      "outputs": [
        {
          "internalType": "address",
          "name": "",
          "type": "address"
        }
      ],
      "stateMutability": "view",
      "type": "function"
    },
    {
      "inputs": [
        {
          "internalType": "address",
          "name": "_destToken",
          "type": "address"
        },
        {
          "internalType": "bytes32[]",
          "name": "_addressesAndAmounts",
          "type": "bytes32[]"
        },
        {
          "internalType": "uint256",
          "name": "_totalSwapped",
          "type": "uint256"
        },
        {
          "internalType": "uint256",
          "name": "_rewardsAmount",
          "type": "uint256"
        },
        {
          "internalType": "bytes32[]",
          "name": "_redeemedFloatTxIds",
          "type": "bytes32[]"
        }
      ],
      "name": "multiTransferERC20TightlyPacked",
      "outputs": [
        {
          "internalType": "bool",
          "name": "",
          "type": "bool"
        }
      ],
      "stateMutability": "nonpayable",
      "type": "function"
    },
    {
      "inputs": [],
      "name": "nodeRewardsRatio",
      "outputs": [
        {
          "internalType": "uint8",
          "name": "",
          "type": "uint8"
        }
      ],
      "stateMutability": "view",
      "type": "function"
    },
    {
      "inputs": [],
      "name": "owner",
      "outputs": [
        {
          "internalType": "address",
          "name": "",
          "type": "address"
        }
      ],
      "stateMutability": "view",
      "type": "function"
    },
    {
      "inputs": [
        {
          "internalType": "address",
          "name": "_token",
          "type": "address"
        },
        {
          "internalType": "bytes32",
          "name": "_addressesAndAmountOfFloat",
          "type": "bytes32"
        },
        {
          "internalType": "bool",
          "name": "_zerofee",
          "type": "bool"
        },
        {
          "internalType": "bytes32",
          "name": "_txid",
          "type": "bytes32"
        }
      ],
      "name": "recordIncomingFloat",
      "outputs": [
        {
          "internalType": "bool",
          "name": "",
          "type": "bool"
        }
      ],
      "stateMutability": "nonpayable",
      "type": "function"
    },
    {
      "inputs": [
        {
          "internalType": "address",
          "name": "_token",
          "type": "address"
        },
        {
          "internalType": "bytes32",
          "name": "_addressesAndAmountOfLPtoken",
          "type": "bytes32"
        },
        {
          "internalType": "uint256",
          "name": "_minerFee",
          "type": "uint256"
        },
        {
          "internalType": "bytes32",
          "name": "_txid",
          "type": "bytes32"
        }
      ],
      "name": "recordOutcomingFloat",
      "outputs": [
        {
          "internalType": "bool",
          "name": "",
          "type": "bool"
        }
      ],
      "stateMutability": "nonpayable",
      "type": "function"
    },
    {
      "inputs": [
        {
          "internalType": "address",
          "name": "_to",
          "type": "address"
        },
        {
          "internalType": "uint256",
          "name": "_totalSwapped",
          "type": "uint256"
        },
        {
          "internalType": "uint256",
          "name": "_rewardsAmount",
          "type": "uint256"
        },
        {
          "internalType": "bytes32[]",
          "name": "_usedTxIds",
          "type": "bytes32[]"
        }
      ],
      "name": "recordSkyPoolsTX",
      "outputs": [
        {
          "internalType": "bool",
          "name": "",
          "type": "bool"
        }
      ],
      "stateMutability": "nonpayable",
      "type": "function"
    },
    {
      "inputs": [
        {
          "internalType": "uint256",
          "name": "_minerFee",
          "type": "uint256"
        },
        {
          "internalType": "bytes32",
          "name": "_txid",
          "type": "bytes32"
        }
      ],
      "name": "recordUTXOSweepMinerFee",
      "outputs": [
        {
          "internalType": "bool",
          "name": "",
          "type": "bool"
        }
      ],
      "stateMutability": "nonpayable",
      "type": "function"
    },
    {
      "inputs": [
        {
          "internalType": "address",
          "name": "_token",
          "type": "address"
        },
        {
          "internalType": "uint256",
          "name": "_amount",
          "type": "uint256"
        }
      ],
      "name": "redeemERC20Token",
      "outputs": [],
      "stateMutability": "nonpayable",
      "type": "function"
    },
    {
      "inputs": [
        {
          "internalType": "uint256",
          "name": "_amount",
          "type": "uint256"
        }
      ],
      "name": "redeemEther",
      "outputs": [],
      "stateMutability": "nonpayable",
      "type": "function"
    },
    {
      "inputs": [],
      "name": "renounceOwnership",
      "outputs": [],
      "stateMutability": "nonpayable",
      "type": "function"
    },
    {
      "inputs": [
        {
          "internalType": "address",
          "name": "_destToken",
          "type": "address"
        },
        {
          "internalType": "address",
          "name": "_to",
          "type": "address"
        },
        {
          "internalType": "uint256",
          "name": "_amount",
          "type": "uint256"
        },
        {
          "internalType": "uint256",
          "name": "_totalSwapped",
          "type": "uint256"
        },
        {
          "internalType": "uint256",
          "name": "_rewardsAmount",
          "type": "uint256"
        },
        {
          "internalType": "bytes32[]",
          "name": "_redeemedFloatTxIds",
          "type": "bytes32[]"
        }
      ],
      "name": "singleTransferERC20",
      "outputs": [
        {
          "internalType": "bool",
          "name": "",
          "type": "bool"
        }
      ],
      "stateMutability": "nonpayable",
      "type": "function"
    },
    {
      "inputs": [
        {
          "internalType": "uint256",
          "name": "_loopCount",
          "type": "uint256"
        }
      ],
      "name": "spCleanUpOldTXs",
      "outputs": [],
      "stateMutability": "nonpayable",
      "type": "function"
    },
    {
      "inputs": [
        {
          "internalType": "address",
          "name": "_token",
          "type": "address"
        },
        {
          "internalType": "uint256",
          "name": "_amount",
          "type": "uint256"
        }
      ],
      "name": "spDeposit",
      "outputs": [],
      "stateMutability": "payable",
      "type": "function"
    },
    {
      "inputs": [
        {
          "components": [
            {
              "internalType": "address",
              "name": "fromToken",
              "type": "address"
            },
            {
              "internalType": "address",
              "name": "toToken",
              "type": "address"
            },
            {
              "internalType": "uint256",
              "name": "fromAmount",
              "type": "uint256"
            },
            {
              "internalType": "uint256",
              "name": "toAmount",
              "type": "uint256"
            },
            {
              "internalType": "uint256",
              "name": "expectedAmount",
              "type": "uint256"
            },
            {
              "internalType": "address[]",
              "name": "callees",
              "type": "address[]"
            },
            {
              "internalType": "bytes",
              "name": "exchangeData",
              "type": "bytes"
            },
            {
              "internalType": "uint256[]",
              "name": "startIndexes",
              "type": "uint256[]"
            },
            {
              "internalType": "uint256[]",
              "name": "values",
              "type": "uint256[]"
            },
            {
              "internalType": "address payable",
              "name": "beneficiary",
              "type": "address"
            },
            {
              "internalType": "address payable",
              "name": "partner",
              "type": "address"
            },
            {
              "internalType": "uint256",
              "name": "feePercent",
              "type": "uint256"
            },
            {
              "internalType": "bytes",
              "name": "permit",
              "type": "bytes"
            },
            {
              "internalType": "uint256",
              "name": "deadline",
              "type": "uint256"
            },
            {
              "internalType": "bytes16",
              "name": "uuid",
              "type": "bytes16"
            }
          ],
          "internalType": "struct Utils.SimpleData",
          "name": "_data",
          "type": "tuple"
        }
      ],
      "name": "spFlow1SimpleSwap",
      "outputs": [],
      "stateMutability": "nonpayable",
      "type": "function"
    },
    {
      "inputs": [
        {
          "internalType": "bool",
          "name": "_fork",
          "type": "bool"
        },
        {
          "internalType": "address",
          "name": "_factory",
          "type": "address"
        },
        {
          "internalType": "bytes32",
          "name": "_initCode",
          "type": "bytes32"
        },
        {
          "internalType": "uint256",
          "name": "_amountIn",
          "type": "uint256"
        },
        {
          "internalType": "uint256",
          "name": "_amountOutMin",
          "type": "uint256"
        },
        {
          "internalType": "address[]",
          "name": "_path",
          "type": "address[]"
        }
      ],
      "name": "spFlow1Uniswap",
      "outputs": [],
      "stateMutability": "nonpayable",
      "type": "function"
    },
    {
      "inputs": [
        {
          "internalType": "string",
          "name": "_destinationAddressForBTC",
          "type": "string"
        },
        {
          "components": [
            {
              "internalType": "address",
              "name": "fromToken",
              "type": "address"
            },
            {
              "internalType": "address",
              "name": "toToken",
              "type": "address"
            },
            {
              "internalType": "uint256",
              "name": "fromAmount",
              "type": "uint256"
            },
            {
              "internalType": "uint256",
              "name": "toAmount",
              "type": "uint256"
            },
            {
              "internalType": "uint256",
              "name": "expectedAmount",
              "type": "uint256"
            },
            {
              "internalType": "address[]",
              "name": "callees",
              "type": "address[]"
            },
            {
              "internalType": "bytes",
              "name": "exchangeData",
              "type": "bytes"
            },
            {
              "internalType": "uint256[]",
              "name": "startIndexes",
              "type": "uint256[]"
            },
            {
              "internalType": "uint256[]",
              "name": "values",
              "type": "uint256[]"
            },
            {
              "internalType": "address payable",
              "name": "beneficiary",
              "type": "address"
            },
            {
              "internalType": "address payable",
              "name": "partner",
              "type": "address"
            },
            {
              "internalType": "uint256",
              "name": "feePercent",
              "type": "uint256"
            },
            {
              "internalType": "bytes",
              "name": "permit",
              "type": "bytes"
            },
            {
              "internalType": "uint256",
              "name": "deadline",
              "type": "uint256"
            },
            {
              "internalType": "bytes16",
              "name": "uuid",
              "type": "bytes16"
            }
          ],
          "internalType": "struct Utils.SimpleData",
          "name": "_data",
          "type": "tuple"
        }
      ],
      "name": "spFlow2SimpleSwap",
      "outputs": [],
      "stateMutability": "nonpayable",
      "type": "function"
    },
    {
      "inputs": [
        {
          "internalType": "string",
          "name": "_destinationAddressForBTC",
          "type": "string"
        },
        {
          "internalType": "bool",
          "name": "_fork",
          "type": "bool"
        },
        {
          "internalType": "address",
          "name": "_factory",
          "type": "address"
        },
        {
          "internalType": "bytes32",
          "name": "_initCode",
          "type": "bytes32"
        },
        {
          "internalType": "uint256",
          "name": "_amountIn",
          "type": "uint256"
        },
        {
          "internalType": "uint256",
          "name": "_amountOutMin",
          "type": "uint256"
        },
        {
          "internalType": "address[]",
          "name": "_path",
          "type": "address[]"
        }
      ],
      "name": "spFlow2Uniswap",
      "outputs": [],
      "stateMutability": "nonpayable",
      "type": "function"
    },
    {
      "inputs": [],
      "name": "spGetPendingSwaps",
      "outputs": [
        {
          "components": [
            {
              "internalType": "bytes32",
              "name": "SwapID",
              "type": "bytes32"
            },
            {
              "internalType": "string",
              "name": "DestAddr",
              "type": "string"
            },
            {
              "internalType": "address",
              "name": "RefundAddr",
              "type": "address"
            },
            {
              "internalType": "uint256",
              "name": "AmountWBTC",
              "type": "uint256"
            },
            {
              "internalType": "uint256",
              "name": "Timestamp",
              "type": "uint256"
            }
          ],
          "internalType": "struct SwapContract.spPendingTx[]",
          "name": "data",
          "type": "tuple[]"
        }
      ],
      "stateMutability": "view",
      "type": "function"
    },
    {
      "inputs": [
        {
          "internalType": "uint256",
          "name": "",
          "type": "uint256"
        }
      ],
      "name": "spPendingTXs",
      "outputs": [
        {
          "internalType": "bytes32",
          "name": "SwapID",
          "type": "bytes32"
        },
        {
          "internalType": "string",
          "name": "DestAddr",
          "type": "string"
        },
        {
          "internalType": "address",
          "name": "RefundAddr",
          "type": "address"
        },
        {
          "internalType": "uint256",
          "name": "AmountWBTC",
          "type": "uint256"
        },
        {
          "internalType": "uint256",
          "name": "Timestamp",
          "type": "uint256"
        }
      ],
      "stateMutability": "view",
      "type": "function"
    },
    {
      "inputs": [],
      "name": "swapCount",
      "outputs": [
        {
          "internalType": "uint256",
          "name": "",
          "type": "uint256"
        }
      ],
      "stateMutability": "view",
      "type": "function"
    },
    {
      "inputs": [
        {
          "internalType": "address",
          "name": "",
          "type": "address"
        },
        {
          "internalType": "address",
          "name": "",
          "type": "address"
        }
      ],
      "name": "tokens",
      "outputs": [
        {
          "internalType": "uint256",
          "name": "",
          "type": "uint256"
        }
      ],
      "stateMutability": "view",
      "type": "function"
    },
    {
      "inputs": [
        {
          "internalType": "address",
          "name": "newOwner",
          "type": "address"
        }
      ],
      "name": "transferOwnership",
      "outputs": [],
      "stateMutability": "nonpayable",
      "type": "function"
    },
    {
      "inputs": [],
      "name": "tssThreshold",
      "outputs": [
        {
          "internalType": "uint8",
          "name": "",
          "type": "uint8"
        }
      ],
      "stateMutability": "view",
      "type": "function"
    },
    {
      "inputs": [],
      "name": "wETH",
      "outputs": [
        {
          "internalType": "address",
          "name": "",
          "type": "address"
        }
      ],
      "stateMutability": "view",
      "type": "function"
    },
    {
      "inputs": [
        {
          "internalType": "address",
          "name": "",
          "type": "address"
        }
      ],
      "name": "whitelist",
      "outputs": [
        {
          "internalType": "bool",
          "name": "",
          "type": "bool"
        }
      ],
      "stateMutability": "view",
      "type": "function"
    },
    {
      "inputs": [],
      "name": "withdrawalFeeBPS",
      "outputs": [
        {
          "internalType": "uint8",
          "name": "",
          "type": "uint8"
        }
      ],
      "stateMutability": "view",
      "type": "function"
    },
    {
      "stateMutability": "payable",
      "type": "receive"
    }
  ],
  "bytecode": "0x6101206040523480156200001257600080fd5b506040516200668f3803806200668f833981016040819052620000359162000339565b6200004033620002cc565b600180556202a3006002556000600581905560049081556001600160a01b0380841661010052851660a08190526040805163313ce56760e01b81529051919263313ce567928282019260209290829003018186803b158015620000a257600080fd5b505afa158015620000b7573d6000803e3d6000fd5b505050506040513d601f19601f82011682018060405250810190620000dd91906200038b565b620000ea90600a620004cc565b60e0526001600160a01b03831660808190526007805464ffffff000019166414324200001790556040805163313ce56760e01b815290516008929163313ce567916004808301926020929190829003018186803b1580156200014b57600080fd5b505afa15801562000160573d6000803e3d6000fd5b505050506040513d601f19601f820116820180604052508101906200018691906200038b565b620001929190620004dd565b6200019f90600a620004cc565b60c08181525050836001600160a01b031663313ce5676040518163ffffffff1660e01b815260040160206040518083038186803b158015620001e057600080fd5b505afa158015620001f5573d6000803e3d6000fd5b505050506040513d601f19601f820116820180604052508101906200021b91906200038b565b6200022890600a620004cc565b600a556000600881905560098190556001600160a01b039384168152600660209081526040808320805460ff199081166001908117909255979096168352822080548716861790559080527f54cdd369e4e8a8515e52ca72ec816c2101831ad1f18bf44102ed171459c9b4f8805490951690931790935550600b90527fdf7de25b7f1fd6d0b5205f0e18f1f35bd7b8d84cce336588d184533ce43a6f765562000503565b600080546001600160a01b038381166001600160a01b0319831681178455604051919092169283917f8be0079c531659141344cd1fd0a4f28419497f9722a3daafe3b4186f6b6457e09190a35050565b80516001600160a01b03811681146200033457600080fd5b919050565b600080600080608085870312156200035057600080fd5b6200035b856200031c565b93506200036b602086016200031c565b92506200037b604086016200031c565b6060959095015193969295505050565b6000602082840312156200039e57600080fd5b815160ff81168114620003b057600080fd5b9392505050565b634e487b7160e01b600052601160045260246000fd5b600181815b808511156200040e578160001904821115620003f257620003f2620003b7565b808516156200040057918102915b93841c9390800290620003d2565b509250929050565b6000826200042757506001620004c6565b816200043657506000620004c6565b81600181146200044f57600281146200045a576200047a565b6001915050620004c6565b60ff8411156200046e576200046e620003b7565b50506001821b620004c6565b5060208310610133831016604e8410600b84101617156200049f575081810a620004c6565b620004ab8383620003cd565b8060001904821115620004c257620004c2620003b7565b0290505b92915050565b6000620003b060ff84168362000416565b600060ff821660ff841680821015620004fa57620004fa620003b7565b90039392505050565b60805160a05160c05160e05161010051615fdb620006b46000396000818161027a0152818161083e015281816120f401528181612150015281816121bd01528181612204015281816122e201528181612e8d01528181612f070152612f5001526000818161158b0152818161396901528181613e9101526144ed01526000613aa001526000818161057401528181610a0101528181610a3c015281816114d701528181612495015281816124d0015281816134a5015281816135380152818161385501528181614115015261456101526000818161034e015281816109ad015281816109df01528181610b5401528181610bd501528181611211015281816112560152818161140c015281816114ab01528181611865015281816120310152818161206d01528181612441015281816124730152818161263901528181612668015281816126b8015281816127490152818161279401528181612c8a015281816130b30152818161315701528181613a6201528181613f750152818161400c015281816140bc015281816142200152818161426d0152818161480601528181614b7a0152614bbf0152615fdb6000f3fe60806040526004361061026a5760003560e01c8063715018a611610144578063c810a539116100b6578063e9e9bf6a1161007a578063e9e9bf6a146107e2578063ec482729146107f7578063f24286211461082c578063f2fde38b14610860578063f7824bc714610880578063f7888aec14610896576102a9565b8063c810a53914610749578063ca0707e714610769578063d38c7bb11461077c578063da284dcc1461079c578063e6ca2084146107b2576102a9565b806392542d6d1161010857806392542d6d146106815780639b19251a14610697578063ad289e76146106c7578063b345a358146106e7578063b4014fe814610707578063b6268e5d14610727576102a9565b8063715018a6146105ee5780637c747cf9146106035780638006cc3e146106235780638535490f146106435780638da5cb5b14610663576102a9565b80632eff0d9e116101dd578063508493bc116101a1578063508493bc1461050a578063511834c3146105425780635fcbd2851461056257806363f289d9146105965780636b51e919146105b65780636d019f35146105d8576102a9565b80632eff0d9e1461047e5780633b6fa1271461049457806342419255146104b457806345137e27146104d55780634db75485146104ea576102a9565b8063130b7a631161022f578063130b7a63146103a75780631ab7e937146103c757806320199e99146103f857806321959d3c1461041a5780632586c5621461043a5780632d55282d1461045a576102a9565b806289356f146102bb5780630b68134d146102ec5780630d63aca71461030c5780630f9094861461033c57806312d1441e14610388576102a9565b366102a957336001600160a01b037f000000000000000000000000000000000000000000000000000000000000000016146102a7576102a7614f6e565b005b3480156102b557600080fd5b50600080fd5b3480156102c757600080fd5b506007546102d59060ff1681565b60405160ff90911681526020015b60405180910390f35b3480156102f857600080fd5b506007546102d59062010000900460ff1681565b34801561031857600080fd5b5061032c61032736600461507d565b6108dc565b60405190151581526020016102e3565b34801561034857600080fd5b506103707f000000000000000000000000000000000000000000000000000000000000000081565b6040516001600160a01b0390911681526020016102e3565b34801561039457600080fd5b506007546102d590610100900460ff1681565b3480156103b357600080fd5b506102a76103c2366004615153565b610a88565b3480156103d357600080fd5b506103e76103e23660046151d8565b610eda565b6040516102e3959493929190615249565b34801561040457600080fd5b5061040d610f9d565b6040516102e39190615288565b34801561042657600080fd5b506102a76104353660046151d8565b61119e565b34801561044657600080fd5b5061032c610455366004615326565b6112ee565b34801561046657600080fd5b5061047060085481565b6040519081526020016102e3565b34801561048a57600080fd5b5061047060045481565b3480156104a057600080fd5b506104706104af366004615361565b6113ef565b3480156104c057600080fd5b506007546102d5906301000000900460ff1681565b3480156104e157600080fd5b5061047061149f565b3480156104f657600080fd5b506102a7610505366004615361565b6115d1565b34801561051657600080fd5b5061047061052536600461538d565b601060209081526000928352604080842090915290825290205481565b34801561054e57600080fd5b506102a761055d3660046153df565b611730565b34801561056e57600080fd5b506103707f000000000000000000000000000000000000000000000000000000000000000081565b3480156105a257600080fd5b5061032c6105b1366004615413565b6119ca565b3480156105c257600080fd5b506105cb611a6a565b6040516102e3919061545b565b3480156105e457600080fd5b50610470600a5481565b3480156105fa57600080fd5b506102a7611bf5565b34801561060f57600080fd5b5061032c61061e3660046154b0565b611c2b565b34801561062f57600080fd5b5061032c61063e366004615326565b611fad565b34801561064f57600080fd5b506102a761065e3660046151d8565b6120c2565b34801561066f57600080fd5b506000546001600160a01b0316610370565b34801561068d57600080fd5b5061047060055481565b3480156106a357600080fd5b5061032c6106b23660046155d1565b60066020526000908152604090205460ff1681565b3480156106d357600080fd5b5061032c6106e23660046155ee565b612379565b3480156106f357600080fd5b5061032c610702366004615677565b61256d565b34801561071357600080fd5b506102a7610722366004615748565b612717565b34801561073357600080fd5b506007546102d590640100000000900460ff1681565b34801561075557600080fd5b5061032c6107643660046157ab565b612b2c565b6102a7610777366004615361565b612c31565b34801561078857600080fd5b506102a76107973660046157cd565b612fe7565b3480156107a857600080fd5b5061047060025481565b3480156107be57600080fd5b5061032c6107cd3660046151d8565b6000908152600c602052604090205460ff1690565b3480156107ee57600080fd5b5061032c6133a5565b34801561080357600080fd5b5061081761081236600461538d565b613697565b604080519283526020830191909152016102e3565b34801561083857600080fd5b506103707f000000000000000000000000000000000000000000000000000000000000000081565b34801561086c57600080fd5b506102a761087b3660046155d1565b6136c1565b34801561088c57600080fd5b5061047060095481565b3480156108a257600080fd5b506104706108b136600461538d565b6001600160a01b03918216600090815260106020908152604080832093909416825291909152205490565b600080546001600160a01b031633146109105760405162461bcd60e51b81526004016109079061587c565b60405180910390fd5b6001600160a01b03871660009081526006602052604090205460ff166109785760405162461bcd60e51b815260206004820152601d60248201527f5f64657374546f6b656e206973206e6f742077686974656c69737465640000006044820152606401610907565b6001600160a01b03871661099e5760405162461bcd60e51b8152600401610907906158b1565b600084156109d7576109d260007f00000000000000000000000000000000000000000000000000000000000000008761375c565b6109ff565b846109ff57507f00000000000000000000000000000000000000000000000000000000000000005b7f00000000000000000000000000000000000000000000000000000000000000006001600160a01b0316886001600160a01b03161415610a5c57507f00000000000000000000000000000000000000000000000000000000000000005b610a66818561384a565b610a6f836139f8565b610a7a888888613a60565b506001979650505050505050565b60026001541415610aab5760405162461bcd60e51b8152600401610907906158f4565b6002600155600082828281610ac257610ac261592b565b9050602002016020810190610ad791906155d1565b905060008383610ae8600182615957565b818110610af757610af761592b565b9050602002016020810190610b0c91906155d1565b6001600160a01b0383166000908152601060209081526040808320338452909152902054909150861115610b525760405162461bcd60e51b81526004016109079061596e565b7f00000000000000000000000000000000000000000000000000000000000000006001600160a01b0316826001600160a01b031614610bd35760405162461bcd60e51b815260206004820152601860248201527f4d75737420737761702066726f6d2042544320746f6b656e00000000000000006044820152606401610907565b7f00000000000000000000000000000000000000000000000000000000000000006001600160a01b0316816001600160a01b03161415610c555760405162461bcd60e51b815260206004820152601960248201527f456e64696e6720746f6b656e206d7573742062652077425443000000000000006044820152606401610907565b6001600160a01b03811673eeeeeeeeeeeeeeeeeeeeeeeeeeeeeeeeeeeeeeee1415610cba5760405162461bcd60e51b81526020600482015260156024820152740aae6ca40e0c2e8d040ee84a886405a7c40ee8aa89605b1b6044820152606401610907565b6040516370a0823160e01b81523060048201526000906001600160a01b038316906370a082319060240160206040518083038186803b158015610cfc57600080fd5b505afa158015610d10573d6000803e3d6000fd5b505050506040513d601f19601f82011682018060405250810190610d3491906159a5565b6001600160a01b0384166000908152601060209081526040808320338452909152902054909150610d659088613b57565b6001600160a01b03841660009081526010602090815260408083203384529091529020558915610da257610d9d898989898989613b6a565b610dae565b610dae87878787613cb0565b6040516370a0823160e01b8152306004820152600090610e359083906001600160a01b038616906370a08231906024015b60206040518083038186803b158015610df757600080fd5b505afa158015610e0b573d6000803e3d6000fd5b505050506040513d601f19601f82011682018060405250810190610e2f91906159a5565b90613b57565b905086811015610e575760405162461bcd60e51b8152600401610907906159be565b80610e745760405162461bcd60e51b8152600401610907906159f5565b6001600160a01b0383166000908152601060209081526040808320338452909152902054610ea29082613df0565b6001600160a01b0390931660009081526010602090815260408083203384529091529020929092555050600180555050505050505050565b60036020526000908152604090208054600182018054919291610efc90615a2c565b80601f0160208091040260200160405190810160405280929190818152602001828054610f2890615a2c565b8015610f755780601f10610f4a57610100808354040283529160200191610f75565b820191906000526020600020905b815481529060010190602001808311610f5857829003601f168201915b505050506002830154600384015460049094015492936001600160a01b039091169290915085565b60606000610fb8600554600454613b5790919063ffffffff16565b6001600160401b03811115610fcf57610fcf614fa9565b60405190808252806020026020018201604052801561103e57816020015b61102b6040518060a00160405280600080191681526020016060815260200160006001600160a01b0316815260200160008152602001600081525090565b815260200190600190039081610fed5790505b50915060006110596001600554613df090919063ffffffff16565b90505b6004548111611199576003600061107e60055485613df090919063ffffffff16565b81526020019081526020016000206040518060a0016040529081600082015481526020016001820180546110b190615a2c565b80601f01602080910402602001604051908101604052809291908181526020018280546110dd90615a2c565b801561112a5780601f106110ff5761010080835404028352916020019161112a565b820191906000526020600020905b81548152906001019060200180831161110d57829003601f168201915b505050918352505060028201546001600160a01b0316602082015260038201546040820152600490910154606090910152835184908490811061116f5761116f61592b565b6020908102919091010152611185826001613df0565b91508061119181615a61565b91505061105c565b505090565b6005546000906111ae9083613df0565b905060045481106111be57506004545b60055442905b8281116112e85760025460008281526003602052604090206004015483916111ec9190613df0565b10156112d6576000818152600360208181526040808420909201546001600160a01b037f00000000000000000000000000000000000000000000000000000000000000001684526010825282842030855290915291205461124c91613b57565b6001600160a01b037f000000000000000000000000000000000000000000000000000000000000000016600090815260106020908152604080832030845282528083209390935583825260039052908120818155906112ae6001830182614e9b565b506002810180546001600160a01b031916905560006003820181905560049091015560058190555b806112e081615a61565b9150506111c4565b50505050565b600080546001600160a01b031633146113195760405162461bcd60e51b81526004016109079061587c565b600061132361149f565b6001600160a01b03871660009081526006602052604090205490915060ff166113825760405162461bcd60e51b815260206004820152601160248201527017dd1bdad95b881a5cc81a5b9d985b1a59607a1b6044820152606401610907565b61138e86868686613dfc565b61139757600080fd5b60019150806113a461149f565b10156113e65760405162461bcd60e51b8152602060048201526011602482015270496e76616c6964204c505420707269636560781b6044820152606401610907565b50949350505050565b6000806113fc8484614214565b90508060ff1660011415611462577f00000000000000000000000000000000000000000000000000000000000000006001600160a01b0316846001600160a01b03161461144a576000611458565b6007546301000000900460ff165b60ff169150611498565b8060ff1660021415611498576001600160a01b03841615611484576000611492565b6007546301000000900460ff165b60ff1691505b5092915050565b60008060006114cf60007f0000000000000000000000000000000000000000000000000000000000000000613697565b9150915060007f00000000000000000000000000000000000000000000000000000000000000006001600160a01b03166318160ddd6040518163ffffffff1660e01b815260040160206040518083038186803b15801561152e57600080fd5b505afa158015611542573d6000803e3d6000fd5b505050506040513d601f19601f8201168201806040525081019061156691906159a5565b905080156115c5576115c061158660085483613df090919063ffffffff16565b6115ba7f00000000000000000000000000000000000000000000000000000000000000006115b48787613df0565b90614303565b9061430f565b6115c9565b600a545b935050505090565b600260015414156115f45760405162461bcd60e51b8152600401610907906158f4565b60026001556001600160a01b03821660009081526010602090815260408083203384529091529020548111156116635760405162461bcd60e51b8152602060048201526014602482015273496e73756666696369656e742042616c616e636560601b6044820152606401610907565b6001600160a01b03821660009081526010602090815260408083203384529091529020546116919082613b57565b6001600160a01b0383166000908152601060209081526040808320338085529252909120919091556116c590839083613a60565b6001600160a01b0382166000908152601060209081526040808320338085529252918290205491517febff2602b3f468259e1e99f613fed6691f3a6526effe6ef3e768ba7ae7a36c4f92611720928692909186914290615a7c565b60405180910390a1505060018055565b600260015414156117535760405162461bcd60e51b8152600401610907906158f4565b60026001553361176b610140830161012084016155d1565b6001600160a01b0316146117d85760405162461bcd60e51b815260206004820152602e60248201527f596f752063616e206f6e6c79206578656375746520737761707320746f20796f60448201526d7572206f776e206164647265737360901b6064820152608401610907565b6040810135601060006117ee60208501856155d1565b6001600160a01b03168152602081019190915260400160009081209061181c610140850161012086016155d1565b6001600160a01b03166001600160a01b0316815260200190815260200160002054101561185b5760405162461bcd60e51b81526004016109079061596e565b6001600160a01b037f00000000000000000000000000000000000000000000000000000000000000001661189260208301836155d1565b6001600160a01b0316146118fa5760405162461bcd60e51b815260206004820152602960248201527f66726f6d546f6b656e206d7573742062652074686520726571756972656420426044820152682a21ba103a37b5b2b760b91b6064820152608401610907565b6119038161431b565b61196a60408201356010600061191c60208601866155d1565b6001600160a01b03168152602081019190915260400160009081209061194a610140860161012087016155d1565b6001600160a01b0316815260208101919091526040016000205490613b57565b6010600061197b60208501856155d1565b6001600160a01b0316815260208101919091526040016000908120906119a9610140850161012086016155d1565b6001600160a01b031681526020810191909152604001600020555060018055565b600080546001600160a01b031633146119f55760405162461bcd60e51b81526004016109079061587c565b60006119ff61149f565b6001600160a01b03871660009081526006602052604090205490915060ff16611a5e5760405162461bcd60e51b815260206004820152601160248201527017dd1bdad95b881a5cc81a5b9d985b1a59607a1b6044820152606401610907565b61138e86868686614453565b606060008060005b600f54811015611add57600d6000600f8381548110611a9357611a9361592b565b60009182526020808320909101546001600160a01b0316835282019290925260400190205415611acb57611ac8836001613df0565b92505b80611ad581615a61565b915050611a72565b506000826001600160401b03811115611af857611af8614fa9565b604051908082528060200260200182016040528015611b21578160200160208202803683370190505b50905060005b600f54811015611bed57600d6000600f8381548110611b4857611b4861592b565b60009182526020808320909101546001600160a01b0316835282019290925260400190205415611bdb57600d6000600f8381548110611b8957611b8961592b565b60009182526020808320909101546001600160a01b031683528201929092526040019020548251839085908110611bc257611bc261592b565b6020908102919091010152611bd8836001613df0565b92505b80611be581615a61565b915050611b27565b509392505050565b6000546001600160a01b03163314611c1f5760405162461bcd60e51b81526004016109079061587c565b611c2960006146a3565b565b600080546001600160a01b03163314611c565760405162461bcd60e51b81526004016109079061587c565b60075460ff610100909104811690861610801590611c78575060ff8560ff1611155b611cd45760405162461bcd60e51b815260206004820152602760248201527f5f7473735468726573686f6c642073686f756c64206265203e3d2074737354686044820152661c995cda1bdb1960ca1b6064820152608401610907565b611cdf600186615aad565b60ff168660ff161015611d295760405162461bcd60e51b81526020600482015260126024820152716e2073686f756c64206265203e3d20742b3160701b6044820152606401610907565b60648460ff161115611d7d5760405162461bcd60e51b815260206004820152601e60248201527f5f6e6f646552657761726473526174696f206973206e6f742076616c696400006044820152606401610907565b60648360ff161115611dd15760405162461bcd60e51b815260206004820152601c60248201527f5f7769746864726177616c46656542505320697320696e76616c6964000000006044820152606401610907565b8651885114611e485760405162461bcd60e51b815260206004820152603b60248201527f5f72657761726441646472657373416e64416d6f756e747320616e64205f697360448201527f52656d6f766564206c656e677468206973206e6f74206d6174636800000000006064820152608401610907565b8115611e5757611e57826146f3565b611e60896136c1565b60005b8851811015611ee9576000611e948a8381518110611e8357611e8361592b565b60200260200101519060a082901c90565b509050611ed4818b8481518110611ead57611ead61592b565b60200260200101518b8581518110611ec757611ec761592b565b6020026020010151614733565b50508080611ee190615a61565b915050611e63565b506000611ef4611a6a565b9050606481511115611f525760405162461bcd60e51b815260206004820152602160248201527f53746f726564206e6f64652073697a652073686f756c64206265203c3d2031306044820152600360fc1b6064820152608401610907565b50506007805460ff8481166401000000000264ff000000001987831662010000021664ff00ff0000198984166101000261ffff19909516938b1693909317939093179190911691909117179055600198975050505050505050565b600080546001600160a01b03163314611fd85760405162461bcd60e51b81526004016109079061587c565b6001600160a01b0385161561202f5760405162461bcd60e51b815260206004820152601f60248201527f5f64657374546f6b656e2073686f756c642062652061646472657373283029006044820152606401610907565b7f000000000000000000000000000000000000000000000000000000000000000084156120a357600061206685610e2f8887613b57565b905061209d7f000000000000000000000000000000000000000000000000000000000000000060006120988489613df0565b61375c565b506120ac565b846120ac575060005b6120b6818461384a565b50600195945050505050565b600260015414156120e55760405162461bcd60e51b8152600401610907906158f4565b60026001556001600160a01b037f000000000000000000000000000000000000000000000000000000000000000016600090815260106020908152604080832033845290915290205481111561213a57600080fd5b604051632e1a7d4d60e01b8152600481018290527f00000000000000000000000000000000000000000000000000000000000000006001600160a01b031690632e1a7d4d90602401600060405180830381600087803b15801561219c57600080fd5b505af11580156121b0573d6000803e3d6000fd5b5050506001600160a01b037f0000000000000000000000000000000000000000000000000000000000000000166000908152601060209081526040808320338452909152902054612202915082613b57565b7f00000000000000000000000000000000000000000000000000000000000000006001600160a01b031660009081526010602090815260408083203380855292528083209390935591518190839085908381818185875af1925050503d806000811461228a576040519150601f19603f3d011682016040523d82523d6000602084013e61228f565b606091505b5091509150816122d85760405162461bcd60e51b81526020600482015260146024820152732330b4b632b2103a379039b2b7321022ba3432b960611b6044820152606401610907565b6001600160a01b037f0000000000000000000000000000000000000000000000000000000000000000166000908152601060209081526040808320338085529252918290205491517febff2602b3f468259e1e99f613fed6691f3a6526effe6ef3e768ba7ae7a36c4f926123679273eeeeeeeeeeeeeeeeeeeeeeeeeeeeeeeeeeeeeeee92909189914290615a7c565b60405180910390a15050600180555050565b600080546001600160a01b031633146123a45760405162461bcd60e51b81526004016109079061587c565b6001600160a01b03861660009081526006602052604090205460ff1661240c5760405162461bcd60e51b815260206004820152601d60248201527f5f64657374546f6b656e206973206e6f742077686974656c69737465640000006044820152606401610907565b6001600160a01b0386166124325760405162461bcd60e51b8152600401610907906158b1565b6000841561246b5761246660007f00000000000000000000000000000000000000000000000000000000000000008761375c565b612493565b8461249357507f00000000000000000000000000000000000000000000000000000000000000005b7f00000000000000000000000000000000000000000000000000000000000000006001600160a01b0316876001600160a01b031614156124f057507f00000000000000000000000000000000000000000000000000000000000000005b6124fa818561384a565b612503836139f8565b60005b8651811015610a7a5761255b888883815181106125255761252561592b565b602002602001015160001c8984815181106125425761254261592b565b602002602001015160a01c6001600160601b0316613a60565b8061256581615a61565b915050612506565b600080546001600160a01b031633146125985760405162461bcd60e51b81526004016109079061587c565b836125e55760405162461bcd60e51b815260206004820152601e60248201527f5f746f74616c53776170706564206d757374206265206e6f6e207a65726f00006044820152606401610907565b826126325760405162461bcd60e51b815260206004820152601f60248201527f5f72657761726473416d6f756e74206d757374206265206e6f6e207a65726f006044820152606401610907565b61265e60007f00000000000000000000000000000000000000000000000000000000000000008661375c565b6001600160a01b037f000000000000000000000000000000000000000000000000000000000000000081166000908152601060209081526040808320938916835292905220546126ae9085613df0565b6001600160a01b037f000000000000000000000000000000000000000000000000000000000000000081166000908152601060209081526040808320938a16835292905290812091909155612703908461384a565b61270c826139f8565b506001949350505050565b6002600154141561273a5760405162461bcd60e51b8152600401610907906158f4565b60026001556001600160a01b037f00000000000000000000000000000000000000000000000000000000000000001661277660208301836155d1565b6001600160a01b0316141561278a57600080fd5b6001600160a01b037f0000000000000000000000000000000000000000000000000000000000000000166127c460408301602084016155d1565b6001600160a01b0316146128135760405162461bcd60e51b815260206004820152601660248201527526bab9ba1039bbb0b8103a3790212a21903a37b5b2b760511b6044820152606401610907565b30612826610140830161012084016155d1565b6001600160a01b0316146128a25760405162461bcd60e51b815260206004820152603c60248201527f596f752063616e206f6e6c79206578656375746520666c6f772032207377617060448201527f7320746f207468697320636f6e747261637427732061646472657373000000006064820152608401610907565b6040810135601060006128b860208501856155d1565b6001600160a01b031681526020808201929092526040908101600090812033825290925290205410156128fd5760405162461bcd60e51b81526004016109079061596e565b600061290f60408301602084016155d1565b6040516370a0823160e01b81523060048201526001600160a01b0391909116906370a082319060240160206040518083038186803b15801561295057600080fd5b505afa158015612964573d6000803e3d6000fd5b505050506040513d601f19601f8201168201806040525081019061298891906159a5565b90506129d06040830135601060006129a360208701876155d1565b6001600160a01b031681526020808201929092526040908101600090812033825290925290205490613b57565b601060006129e160208601866155d1565b6001600160a01b0316815260208082019290925260409081016000908120338252909252902055612a118261431b565b6000612a5582612a2760408601602087016155d1565b6040516370a0823160e01b81523060048201526001600160a01b0391909116906370a0823190602401610ddf565b90508260800135811015612a7b5760405162461bcd60e51b8152600401610907906159be565b80612a985760405162461bcd60e51b8152600401610907906159f5565b612add8160106000612ab060408801602089016155d1565b6001600160a01b031681526020808201929092526040908101600090812030825290925290205490613df0565b60106000612af160408701602088016155d1565b6001600160a01b0316815260208082019290925260409081016000908120308252909252902055612b228482614802565b5050600180555050565b600080546001600160a01b03163314612b575760405162461bcd60e51b81526004016109079061587c565b6000828152600c602052604090205460ff1615612b865760405162461bcd60e51b815260040161090790615ad2565b60408051808201909152601d81527f42544320666c6f617420616d6f756e7420696e73756666696369656e7400000060208083019190915260008052600b90527fdf7de25b7f1fd6d0b5205f0e18f1f35bd7b8d84cce336588d184533ce43a6f7654612bf3918590614932565b60008052600b6020527fdf7de25b7f1fd6d0b5205f0e18f1f35bd7b8d84cce336588d184533ce43a6f7655612c278261495e565b5060015b92915050565b60026001541415612c545760405162461bcd60e51b8152600401610907906158f4565b600260015534612e7e576001600160a01b03821673eeeeeeeeeeeeeeeeeeeeeeeeeeeeeeeeeeeeeeee1415612c8857600080fd5b7f00000000000000000000000000000000000000000000000000000000000000006001600160a01b0316826001600160a01b03161415612cc757600080fd5b6040516370a0823160e01b81523060048201526000906001600160a01b038416906370a082319060240160206040518083038186803b158015612d0957600080fd5b505afa158015612d1d573d6000803e3d6000fd5b505050506040513d601f19601f82011682018060405250810190612d4191906159a5565b9050612d586001600160a01b038416333085614979565b6040516370a0823160e01b81523060048201526000906001600160a01b038516906370a082319060240160206040518083038186803b158015612d9a57600080fd5b505afa158015612dae573d6000803e3d6000fd5b505050506040513d601f19601f82011682018060405250810190612dd291906159a5565b90506000612de08284613b57565b6001600160a01b0386166000908152601060209081526040808320338452909152902054909150612e119082613df0565b6001600160a01b03861660009081526010602090815260408083203380855292529182902083905590517f4e2ca0515ed1aef1395f66b5303bb5d6f1bf9d61a353fa53f73f8ac9973fa9f692612e6e928992909186914290615a7c565b60405180910390a1505050612fdf565b60003411612e8b57600080fd5b7f00000000000000000000000000000000000000000000000000000000000000006001600160a01b031663d0e30db0346040518263ffffffff1660e01b81526004016000604051808303818588803b158015612ee657600080fd5b505af1158015612efa573d6000803e3d6000fd5b5050506001600160a01b037f0000000000000000000000000000000000000000000000000000000000000000166000908152601060209081526040808320338452909152902054612f4e9250905034613df0565b7f00000000000000000000000000000000000000000000000000000000000000006001600160a01b031660009081526010602090815260408083203380855292529182902083905590517f4e2ca0515ed1aef1395f66b5303bb5d6f1bf9d61a353fa53f73f8ac9973fa9f6926117209273eeeeeeeeeeeeeeeeeeeeeeeeeeeeeeeeeeeeeeee92909134914290615a7c565b505060018055565b6002600154141561300a5760405162461bcd60e51b8152600401610907906158f4565b60026001556000828282816130215761302161592b565b905060200201602081019061303691906155d1565b905060008383613047600182615957565b8181106130565761305661592b565b905060200201602081019061306b91906155d1565b6001600160a01b03831660009081526010602090815260408083203384529091529020549091508611156130b15760405162461bcd60e51b81526004016109079061596e565b7f00000000000000000000000000000000000000000000000000000000000000006001600160a01b0316826001600160a01b031614156130f057600080fd5b6001600160a01b03821673eeeeeeeeeeeeeeeeeeeeeeeeeeeeeeeeeeeeeeee14156131555760405162461bcd60e51b815260206004820152601560248201527455736520706174682077455448202d3e207742544360581b6044820152606401610907565b7f00000000000000000000000000000000000000000000000000000000000000006001600160a01b0316816001600160a01b0316146131cf5760405162461bcd60e51b815260206004820152601660248201527526bab9ba1039bbb0b8103a3790212a21903a37b5b2b760511b6044820152606401610907565b6040516370a0823160e01b81523060048201526000906001600160a01b038316906370a082319060240160206040518083038186803b15801561321157600080fd5b505afa158015613225573d6000803e3d6000fd5b505050506040513d601f19601f8201168201806040525081019061324991906159a5565b6001600160a01b038416600090815260106020908152604080832033845290915290205490915061327a9088613b57565b6001600160a01b038416600090815260106020908152604080832033845290915290205589156132b7576132b2898989898989613b6a565b6132c3565b6132c387878787613cb0565b6040516370a0823160e01b81523060048201526000906132f89083906001600160a01b038616906370a0823190602401610ddf565b90508681101561331a5760405162461bcd60e51b8152600401610907906159be565b806133375760405162461bcd60e51b8152600401610907906159f5565b6001600160a01b03831660009081526010602090815260408083203084529091529020546133659082613df0565b6001600160a01b03841660009081526010602090815260408083203084529091529020556133938c82614802565b50506001805550505050505050505050565b6000806133bf600954600854613df090919063ffffffff16565b90506000811161341f5760405162461bcd60e51b815260206004820152602560248201527f746f74616c5265776172644c5073466f724e6f6465206973206e6f7420706f73604482015264697469766560d81b6064820152608401610907565b6000613429611a6a565b90506000805b82518110156134845761347083828151811061344d5761344d61592b565b602002602001015160a01c6001600160601b031683613df090919063ffffffff16565b91508061347c81615a61565b91505061342f565b506008546040516340c10f1960e01b815230600482015260248101919091527f00000000000000000000000000000000000000000000000000000000000000006001600160a01b0316906340c10f1990604401602060405180830381600087803b1580156134f157600080fd5b505af1158015613505573d6000803e3d6000fd5b505050506040513d601f19601f820116820180604052508101906135299190615b09565b5060005b825181101561364f577f00000000000000000000000000000000000000000000000000000000000000006001600160a01b031663a9059cbb8483815181106135775761357761592b565b602002602001015160001c6135be856115ba88878151811061359b5761359b61592b565b602002602001015160a01c6001600160601b03168a61430390919063ffffffff16565b6040516001600160e01b031960e085901b1681526001600160a01b0390921660048301526024820152604401602060405180830381600087803b15801561360457600080fd5b505af1158015613618573d6000803e3d6000fd5b505050506040513d601f19601f8201168201806040525081019061363c9190615b09565b508061364781615a61565b91505061352d565b506040518381527f86dd6ae252e62228b47b3c1a12762cbf634952b2d29319b04f4f72fb153bcbdd9060200160405180910390a1505060006008819055600955506001919050565b6001600160a01b039182166000908152600b60205260408082205492909316815291909120549091565b6000546001600160a01b031633146136eb5760405162461bcd60e51b81526004016109079061587c565b6001600160a01b0381166137505760405162461bcd60e51b815260206004820152602660248201527f4f776e61626c653a206e6577206f776e657220697320746865207a65726f206160448201526564647265737360d01b6064820152608401610907565b613759816146a3565b50565b60408051808201825260208082527f5f737761703a20666c6f617420616d6f756e7420696e73756666696369656e74818301526001600160a01b0385166000908152600b90915291909120546137b3918390614932565b6001600160a01b038084166000908152600b602052604080822093909355908516815220546137e29082613df0565b6001600160a01b038481166000818152600b60209081526040918290209490945580519182529185169281019290925281018290527fea368a40e9570069bb8e6511d668293ad2e1f03b0d982431fd223de9f3b70ca6906060015b60405180910390a1505050565b80613853575050565b7f00000000000000000000000000000000000000000000000000000000000000006001600160a01b0316826001600160a01b031614156138f15760095461389a9082613df0565b600955604080516001600160a01b0384168152602081018390526000818301819052606082015290517fe3debe835f6848edc082b32a1d729781d3bfcd7e14422d80bcaa6794d3816b2f9181900360800190a15050565b60006138fb61149f565b6001600160a01b0384166000908152600b60205260409020549091506139219083613df0565b6001600160a01b0384166000908152600b602052604081209190915560075461395b906064906115ba90869062010000900460ff16614303565b9050600061398d836115ba847f0000000000000000000000000000000000000000000000000000000000000000614303565b60085490915061399d9082613df0565b600855604080516001600160a01b038716815260208101869052908101829052606081018490527fe3debe835f6848edc082b32a1d729781d3bfcd7e14422d80bcaa6794d3816b2f9060800160405180910390a15050505050565b60005b8151811015613a5c576001600c6000848481518110613a1c57613a1c61592b565b6020026020010151815260200190815260200160002060006101000a81548160ff0219169083151502179055508080613a5490615a61565b9150506139fb565b5050565b7f00000000000000000000000000000000000000000000000000000000000000006001600160a01b0316836001600160a01b03161415613ac757613ac4817f0000000000000000000000000000000000000000000000000000000000000000614303565b90505b60405163a9059cbb60e01b81526001600160a01b0383811660048301526024820183905284169063a9059cbb90604401602060405180830381600087803b158015613b1157600080fd5b505af1158015613b25573d6000803e3d6000fd5b505050506040513d601f19601f82011682018060405250810190613b499190615b09565b613b5257600080fd5b505050565b6000613b638284615957565b9392505050565b600082826000818110613b7f57613b7f61592b565b9050602002016020810190613b9491906155d1565b9050600073def171fe48cf0115b1d80b88dc8eab59176fee576001600160a01b031663d2c4b5986040518163ffffffff1660e01b815260040160206040518083038186803b158015613be557600080fd5b505afa158015613bf9573d6000803e3d6000fd5b505050506040513d601f19601f82011682018060405250810190613c1d9190615b26565b9050613c336001600160a01b03831682886149e4565b604051633d59840d60e21b815273def171fe48cf0115b1d80b88dc8eab59176fee579063f566103490613c74908b908b908b908b908b908b90600401615b8c565b600060405180830381600087803b158015613c8e57600080fd5b505af1158015613ca2573d6000803e3d6000fd5b505050505050505050505050565b600082826000818110613cc557613cc561592b565b9050602002016020810190613cda91906155d1565b9050600073def171fe48cf0115b1d80b88dc8eab59176fee576001600160a01b031663d2c4b5986040518163ffffffff1660e01b815260040160206040518083038186803b158015613d2b57600080fd5b505afa158015613d3f573d6000803e3d6000fd5b505050506040513d601f19601f82011682018060405250810190613d639190615b26565b9050613d796001600160a01b03831682886149e4565b604051632a42068d60e11b815273def171fe48cf0115b1d80b88dc8eab59176fee57906354840d1a90613db6908990899089908990600401615bcc565b600060405180830381600087803b158015613dd057600080fd5b505af1158015613de4573d6000803e3d6000fd5b50505050505050505050565b6000613b638284615bf6565b6000818152600c602052604081205460ff1615613e2b5760405162461bcd60e51b815260040161090790615ad2565b83613e785760405162461bcd60e51b815260206004820152601c60248201527f546865207472616e73616374696f6e206973206e6f742076616c6964000000006044820152606401610907565b8360a081901c6000613e8861149f565b90506000613eba7f00000000000000000000000000000000000000000000000000000000000000006115ba8585614303565b600754909150600090613ee190612710906115ba908590640100000000900460ff16614303565b905087613eee8383613b57565b1015613f595760405162461bcd60e51b815260206004820152603460248201527f4572726f723a20616d6f756e744f66466c6f61742e737562287769746864726160448201527377616c4665657329203c205f6d696e657246656560601b6064820152608401610907565b6000613f6989610e2f8585613b57565b9050600080613f9960007f0000000000000000000000000000000000000000000000000000000000000000613697565b90925090506001600160a01b038d1661400a57613fb68585613b57565b8210156140055760405162461bcd60e51b815260206004820152601f60248201527f54686520666c6f61742062616c616e636520696e73756666696369656e742e006044820152606401610907565b61409d565b7f00000000000000000000000000000000000000000000000000000000000000006001600160a01b03168d6001600160a01b0316141561409d5761404e8585613b57565b81101561409d5760405162461bcd60e51b815260206004820152601f60248201527f54686520666c6f61742062616c616e636520696e73756666696369656e742e006044820152606401610907565b6140a78d8561384a565b6140b18d86614aa5565b6140ba8a61495e565b7f00000000000000000000000000000000000000000000000000000000000000006001600160a01b03168d6001600160a01b031614156140ff576140ff8d8985613a60565b604051630852cd8d60e31b8152600481018890527f00000000000000000000000000000000000000000000000000000000000000006001600160a01b0316906342966c6890602401602060405180830381600087803b15801561416157600080fd5b505af1158015614175573d6000803e3d6000fd5b505050506040513d601f19601f820116820180604052508101906141999190615b09565b6141a257600080fd5b604080516001600160a01b038a16815260208101899052908101869052606081018790526080810184905260a081018b90527fa9da34e5e4a956b744307ae7611795634e8365951073bf049d76b64b2ae7a0589060c00160405180910390a15060019c9b505050505050505050505050565b600080600061424460007f0000000000000000000000000000000000000000000000000000000000000000613697565b9092509050600061426960036115ba60026115b4896142638989613df0565b90613df0565b90507f00000000000000000000000000000000000000000000000000000000000000006001600160a01b0316866001600160a01b03161480156142b55750806142b28387613df0565b10155b156142c65760019350505050612c2b565b6001600160a01b0386161580156142e65750806142e38487613df0565b10155b156142f75760029350505050612c2b565b50600095945050505050565b6000613b638284615c0e565b6000613b638284615c2d565b600073def171fe48cf0115b1d80b88dc8eab59176fee576001600160a01b031663d2c4b5986040518163ffffffff1660e01b815260040160206040518083038186803b15801561436a57600080fd5b505afa15801561437e573d6000803e3d6000fd5b505050506040513d601f19601f820116820180604052508101906143a29190615b26565b90506143ca8160408401356143ba60208601866155d1565b6001600160a01b031691906149e4565b6040516354e3f31b60e01b815273def171fe48cf0115b1d80b88dc8eab59176fee57906354e3f31b90614401908590600401615d53565b602060405180830381600087803b15801561441b57600080fd5b505af115801561442f573d6000803e3d6000fd5b505050506040513d601f19601f82011682018060405250810190613b5291906159a5565b6000818152600c602052604081205460ff16156144825760405162461bcd60e51b815260040161090790615ad2565b836144cf5760405162461bcd60e51b815260206004820152601c60248201527f546865207472616e73616374696f6e206973206e6f742076616c6964000000006044820152606401610907565b8360a081901c60006144df61149f565b90506000614511826115ba857f0000000000000000000000000000000000000000000000000000000000000000614303565b9050600061451f8a856113ef565b905060008161452f57600061453f565b61453f6127106115ba8585614303565b905088801561454d57508015155b1561455757600080fd5b6001600160a01b037f0000000000000000000000000000000000000000000000000000000000000000166340c10f19876145918685613b57565b6040516001600160e01b031960e085901b1681526001600160a01b0390921660048301526024820152604401602060405180830381600087803b1580156145d757600080fd5b505af11580156145eb573d6000803e3d6000fd5b505050506040513d601f19601f8201168201806040525081019061460f9190615b09565b5060085461461d9082613df0565b60085561462a8b86614b02565b6146338861495e565b604080516001600160a01b038816815260208101879052908101849052606081018590526080810182905260a081018990527fdfaf4e23f7030adafec91a682e05bf9fb30c721f9cec3d8bcfae0459c5362db19060c00160405180910390a15060019a9950505050505050505050565b600080546001600160a01b038381166001600160a01b0319831681178455604051919092169283917f8be0079c531659141344cd1fd0a4f28419497f9722a3daafe3b4186f6b6457e09190a35050565b6002819055604080518281524260208201527fa1cc12e33e9907b789fd3c10ea0afd9d3e563e2db44d84c7269534f1046d1ca1910160405180910390a150565b6000811561475c57506001600160a01b0383166000908152600d60205260408120556001613b63565b6001600160a01b0384166000908152600e602052604090205460ff166147e057600f805460018082019092557f8d1108e10bcb7c27dddfc02ed9d693a074039d026cf4ea4240b40f7d581ac8020180546001600160a01b0319166001600160a01b0387169081179091556000908152600e60205260409020805460ff191690911790555b50506001600160a01b03919091166000908152600d6020526040902055600190565b60007f000000000000000000000000000000000000000000000000000000000000000060045484844260405160200161483f959493929190615f09565b60408051601f19818403018152828252805160209182012060a0840183528084528382018781523385850152606085018790524260808601526004546000908152600384529390932084518155925180519195506148a4926001850192910190614ed5565b5060408201516002820180546001600160a01b0319166001600160a01b03909216919091179055606082015160038201556080909101516004909101556148e9614b25565b6004546148f7906001613df0565b6004556040517faaa4c278970337923c885845b00985ecf5082317e2f9abf72a27b4d35255d6729061383d9083908690339087904290615249565b600081848411156149565760405162461bcd60e51b81526004016109079190615f4f565b505050900390565b6000908152600c60205260409020805460ff19166001179055565b6040516001600160a01b03808516602483015283166044820152606481018290526112e89085906323b872dd60e01b906084015b60408051601f198184030181529190526020810180516001600160e01b03166001600160e01b031990931692909217909152614c51565b604051636eb1769f60e11b81523060048201526001600160a01b038381166024830152600091839186169063dd62ed3e9060440160206040518083038186803b158015614a3057600080fd5b505afa158015614a44573d6000803e3d6000fd5b505050506040513d601f19601f82011682018060405250810190614a6891906159a5565b614a729190615bf6565b6040516001600160a01b0385166024820152604481018290529091506112e890859063095ea7b360e01b906064016149ad565b614ae281604051806060016040528060278152602001615f7f602791396001600160a01b0385166000908152600b60205260409020549190614932565b6001600160a01b039092166000908152600b602052604090209190915550565b6001600160a01b0382166000908152600b6020526040902054614ae29082613df0565b60055442905b6004548111613a5c576002546000828152600360205260409020600401548391614b559190613df0565b1015614c3f576000818152600360208181526040808420909201546001600160a01b037f000000000000000000000000000000000000000000000000000000000000000016845260108252828420308552909152912054614bb591613b57565b6001600160a01b037f00000000000000000000000000000000000000000000000000000000000000001660009081526010602090815260408083203084528252808320939093558382526003905290812081815590614c176001830182614e9b565b506002810180546001600160a01b031916905560006003820181905560049091015560058190555b80614c4981615a61565b915050614b2b565b6000614ca6826040518060400160405280602081526020017f5361666545524332303a206c6f772d6c6576656c2063616c6c206661696c6564815250856001600160a01b0316614d239092919063ffffffff16565b805190915015613b525780806020019051810190614cc49190615b09565b613b525760405162461bcd60e51b815260206004820152602a60248201527f5361666545524332303a204552433230206f7065726174696f6e20646964206e6044820152691bdd081cdd58d8d9595960b21b6064820152608401610907565b6060614d328484600085614d3a565b949350505050565b606082471015614d9b5760405162461bcd60e51b815260206004820152602660248201527f416464726573733a20696e73756666696369656e742062616c616e636520666f6044820152651c8818d85b1b60d21b6064820152608401610907565b843b614de95760405162461bcd60e51b815260206004820152601d60248201527f416464726573733a2063616c6c20746f206e6f6e2d636f6e74726163740000006044820152606401610907565b600080866001600160a01b03168587604051614e059190615f62565b60006040518083038185875af1925050503d8060008114614e42576040519150601f19603f3d011682016040523d82523d6000602084013e614e47565b606091505b5091509150614e57828286614e62565b979650505050505050565b60608315614e71575081613b63565b825115614e815782518084602001fd5b8160405162461bcd60e51b81526004016109079190615f4f565b508054614ea790615a2c565b6000825580601f10614eb7575050565b601f0160209004906000526020600020908101906137599190614f59565b828054614ee190615a2c565b90600052602060002090601f016020900481019282614f035760008555614f49565b82601f10614f1c57805160ff1916838001178555614f49565b82800160010185558215614f49579182015b82811115614f49578251825591602001919060010190614f2e565b50614f55929150614f59565b5090565b5b80821115614f555760008155600101614f5a565b634e487b7160e01b600052600160045260246000fd5b6001600160a01b038116811461375957600080fd5b8035614fa481614f84565b919050565b634e487b7160e01b600052604160045260246000fd5b604051601f8201601f191681016001600160401b0381118282101715614fe757614fe7614fa9565b604052919050565b60006001600160401b0382111561500857615008614fa9565b5060051b60200190565b600082601f83011261502357600080fd5b8135602061503861503383614fef565b614fbf565b82815260059290921b8401810191818101908684111561505757600080fd5b8286015b84811015615072578035835291830191830161505b565b509695505050505050565b60008060008060008060c0878903121561509657600080fd5b86356150a181614f84565b955060208701356150b181614f84565b945060408701359350606087013592506080870135915060a08701356001600160401b038111156150e157600080fd5b6150ed89828a01615012565b9150509295509295509295565b801515811461375957600080fd5b60008083601f84011261511a57600080fd5b5081356001600160401b0381111561513157600080fd5b6020830191508360208260051b850101111561514c57600080fd5b9250929050565b600080600080600080600060c0888a03121561516e57600080fd5b8735615179816150fa565b9650602088013561518981614f84565b955060408801359450606088013593506080880135925060a08801356001600160401b038111156151b957600080fd5b6151c58a828b01615108565b989b979a50959850939692959293505050565b6000602082840312156151ea57600080fd5b5035919050565b60005b8381101561520c5781810151838201526020016151f4565b838111156112e85750506000910152565b600081518084526152358160208601602086016151f1565b601f01601f19169290920160200192915050565b85815260a06020820152600061526260a083018761521d565b6001600160a01b0395909516604083015250606081019290925260809091015292915050565b60006020808301818452808551808352604092508286019150828160051b87010184880160005b8381101561531857603f19898403018552815160a08151855288820151818a8701526152dd8287018261521d565b838a01516001600160a01b0316878b0152606080850151908801526080938401519390960192909252505093860193908601906001016152af565b509098975050505050505050565b6000806000806080858703121561533c57600080fd5b843561534781614f84565b966020860135965060408601359560600135945092505050565b6000806040838503121561537457600080fd5b823561537f81614f84565b946020939093013593505050565b600080604083850312156153a057600080fd5b82356153ab81614f84565b915060208301356153bb81614f84565b809150509250929050565b60006101e082840312156153d957600080fd5b50919050565b6000602082840312156153f157600080fd5b81356001600160401b0381111561540757600080fd5b614d32848285016153c6565b6000806000806080858703121561542957600080fd5b843561543481614f84565b935060208501359250604085013561544b816150fa565b9396929550929360600135925050565b6020808252825182820181905260009190848201906040850190845b8181101561549357835183529284019291840191600101615477565b50909695505050505050565b803560ff81168114614fa457600080fd5b600080600080600080600080610100898b0312156154cd57600080fd5b88356154d881614f84565b97506020898101356001600160401b03808211156154f557600080fd5b6155018d838e01615012565b995060408c013591508082111561551757600080fd5b508a01601f81018c1361552957600080fd5b803561553761503382614fef565b81815260059190911b8201830190838101908e83111561555657600080fd5b928401925b8284101561557d57833561556e816150fa565b8252928401929084019061555b565b809a50505050505061559160608a0161549f565b945061559f60808a0161549f565b93506155ad60a08a0161549f565b92506155bb60c08a0161549f565b915060e089013590509295985092959890939650565b6000602082840312156155e357600080fd5b8135613b6381614f84565b600080600080600060a0868803121561560657600080fd5b853561561181614f84565b945060208601356001600160401b038082111561562d57600080fd5b61563989838a01615012565b95506040880135945060608801359350608088013591508082111561565d57600080fd5b5061566a88828901615012565b9150509295509295909350565b6000806000806080858703121561568d57600080fd5b843561569881614f84565b9350602085013592506040850135915060608501356001600160401b038111156156c157600080fd5b6156cd87828801615012565b91505092959194509250565b600082601f8301126156ea57600080fd5b81356001600160401b0381111561570357615703614fa9565b615716601f8201601f1916602001614fbf565b81815284602083860101111561572b57600080fd5b816020850160208301376000918101602001919091529392505050565b6000806040838503121561575b57600080fd5b82356001600160401b038082111561577257600080fd5b61577e868387016156d9565b9350602085013591508082111561579457600080fd5b506157a1858286016153c6565b9150509250929050565b600080604083850312156157be57600080fd5b50508035926020909101359150565b60008060008060008060008060e0898b0312156157e957600080fd5b88356001600160401b038082111561580057600080fd5b61580c8c838d016156d9565b995060208b0135915061581e826150fa565b90975060408a01359061583082614f84565b90965060608a0135955060808a0135945060a08a0135935060c08a0135908082111561585b57600080fd5b506158688b828c01615108565b999c989b5096995094979396929594505050565b6020808252818101527f4f776e61626c653a2063616c6c6572206973206e6f7420746865206f776e6572604082015260600190565b60208082526023908201527f5f64657374546f6b656e2073686f756c64206e6f74206265206164647265737360408201526228302960e81b606082015260800190565b6020808252601f908201527f5265656e7472616e637947756172643a207265656e7472616e742063616c6c00604082015260600190565b634e487b7160e01b600052603260045260246000fd5b634e487b7160e01b600052601160045260246000fd5b60008282101561596957615969615941565b500390565b60208082526019908201527f42616c616e6365206973206e6f742073756666696369656e7400000000000000604082015260600190565b6000602082840312156159b757600080fd5b5051919050565b6020808252601c908201527f526563656976656420616d6f756e7420696e73756666696369656e7400000000604082015260600190565b6020808252601c908201527f526563656976656420616d6f756e742063616e206e6f74206265203000000000604082015260600190565b600181811c90821680615a4057607f821691505b602082108114156153d957634e487b7160e01b600052602260045260246000fd5b6000600019821415615a7557615a75615941565b5060010190565b6001600160a01b03958616815293909416602084015260408301919091526060820152608081019190915260a00190565b600060ff821660ff84168060ff03821115615aca57615aca615941565b019392505050565b60208082526018908201527f546865207478696420697320616c726561647920757365640000000000000000604082015260600190565b600060208284031215615b1b57600080fd5b8151613b63816150fa565b600060208284031215615b3857600080fd5b8151613b6381614f84565b8183526000602080850194508260005b85811015615b81578135615b6681614f84565b6001600160a01b031687529582019590820190600101615b53565b509495945050505050565b60018060a01b038716815285602082015284604082015283606082015260a060808201526000615bc060a083018486615b43565b98975050505050505050565b848152836020820152606060408201526000615bec606083018486615b43565b9695505050505050565b60008219821115615c0957615c09615941565b500190565b6000816000190483118215151615615c2857615c28615941565b500290565b600082615c4a57634e487b7160e01b600052601260045260246000fd5b500490565b6000808335601e19843603018112615c6657600080fd5b83016020810192503590506001600160401b03811115615c8557600080fd5b8060051b360383131561514c57600080fd5b6000808335601e19843603018112615cae57600080fd5b83016020810192503590506001600160401b03811115615ccd57600080fd5b80360383131561514c57600080fd5b81835281816020850137506000828201602090810191909152601f909101601f19169091010190565b81835260006001600160fb1b03831115615d1e57600080fd5b8260051b8083602087013760009401602001938452509192915050565b80356001600160801b031981168114614fa457600080fd5b60208152615d7460208201615d6784614f99565b6001600160a01b03169052565b6000615d8260208401614f99565b6001600160a01b0381166040840152506040830135606083015260608301356080830152608083013560a0830152615dbd60a0840184615c4f565b6101e08060c0860152615dd561020086018385615b43565b9250615de460c0870187615c97565b9250601f19808786030160e0880152615dfe858584615cdc565b9450615e0d60e0890189615c4f565b94509150610100818887030181890152615e28868685615d05565b9550615e36818a018a615c4f565b9550925050610120818887030181890152615e52868685615d05565b9550615e5f818a01614f99565b9450506101409150615e7b828801856001600160a01b03169052565b615e86828901614f99565b93506101609150615ea1828801856001600160a01b03169052565b61018093508188013584880152615eba84890189615c97565b945091506101a0818887030181890152615ed5868685615cdc565b95506101c094508089013585890152505050615ef2828701615d3b565b6001600160801b0319169401939093529392505050565b6001600160601b03198660601b16815284601482015260008451615f348160348501602089016151f1565b90910160348101939093525060548201526074019392505050565b602081526000613b63602083018461521d565b60008251615f748184602087016151f1565b919091019291505056fe5f72656d6f7665466c6f61743a20666c6f617420616d6f756e7420696e73756666696369656e74a2646970667358221220484a6bf5165ed3dc3c0ffefc1579e7fca2de809b69fd6ce711d1b75da4a4a04664736f6c63430008090033",
  "linkReferences": {},
  "deployedLinkReferences": {}
}