{
  "_format": "hh-sol-artifact-1",
  "contractName": "SwapContract",
  "sourceName": "contracts/SwapContract.sol",
  "abi": [
    {
      "inputs": [
        {
          "internalType": "address",
          "name": "_lpToken",
          "type": "address"
        },
        {
          "internalType": "address",
          "name": "_btct",
          "type": "address"
        },
        {
          "internalType": "address",
          "name": "_wETH",
          "type": "address"
        },
        {
          "internalType": "uint256",
          "name": "_existingBTCFloat",
          "type": "uint256"
        }
      ],
      "stateMutability": "nonpayable",
      "type": "constructor"
    },
    {
      "anonymous": false,
      "inputs": [
        {
          "indexed": false,
          "internalType": "address",
          "name": "token",
          "type": "address"
        },
        {
          "indexed": false,
          "internalType": "uint256",
          "name": "amountOfLP",
          "type": "uint256"
        },
        {
          "indexed": false,
          "internalType": "uint256",
          "name": "amountOfFloat",
          "type": "uint256"
        },
        {
          "indexed": false,
          "internalType": "uint256",
          "name": "currentPriceLP",
          "type": "uint256"
        },
        {
          "indexed": false,
          "internalType": "uint256",
          "name": "withdrawal",
          "type": "uint256"
        },
        {
          "indexed": false,
          "internalType": "bytes32",
          "name": "txid",
          "type": "bytes32"
        }
      ],
      "name": "BurnLPTokensForFloat",
      "type": "event"
    },
    {
      "anonymous": false,
      "inputs": [
        {
          "indexed": false,
          "internalType": "address",
          "name": "token",
          "type": "address"
        },
        {
          "indexed": false,
          "internalType": "address",
          "name": "user",
          "type": "address"
        },
        {
          "indexed": false,
          "internalType": "uint256",
          "name": "amount",
          "type": "uint256"
        },
        {
          "indexed": false,
          "internalType": "uint256",
          "name": "balance",
          "type": "uint256"
        },
        {
          "indexed": false,
          "internalType": "uint256",
          "name": "Timestamp",
          "type": "uint256"
        }
      ],
      "name": "Deposit",
      "type": "event"
    },
    {
      "anonymous": false,
      "inputs": [
        {
          "indexed": false,
          "internalType": "uint256",
          "name": "rewardLPTsForNodes",
          "type": "uint256"
        }
      ],
      "name": "DistributeNodeRewards",
      "type": "event"
    },
    {
      "anonymous": false,
      "inputs": [
        {
          "indexed": false,
          "internalType": "address",
          "name": "to",
          "type": "address"
        },
        {
          "indexed": false,
          "internalType": "uint256",
          "name": "amountOfFloat",
          "type": "uint256"
        },
        {
          "indexed": false,
          "internalType": "uint256",
          "name": "amountOfLP",
          "type": "uint256"
        },
        {
          "indexed": false,
          "internalType": "uint256",
          "name": "currentPriceLP",
          "type": "uint256"
        },
        {
          "indexed": false,
          "internalType": "uint256",
          "name": "depositFees",
          "type": "uint256"
        },
        {
          "indexed": false,
          "internalType": "bytes32",
          "name": "txid",
          "type": "bytes32"
        }
      ],
      "name": "IssueLPTokensForFloat",
      "type": "event"
    },
    {
      "anonymous": false,
      "inputs": [
        {
          "indexed": true,
          "internalType": "address",
          "name": "previousOwner",
          "type": "address"
        },
        {
          "indexed": true,
          "internalType": "address",
          "name": "newOwner",
          "type": "address"
        }
      ],
      "name": "OwnershipTransferred",
      "type": "event"
    },
    {
      "anonymous": false,
      "inputs": [
        {
          "indexed": false,
          "internalType": "address",
          "name": "feesToken",
          "type": "address"
        },
        {
          "indexed": false,
          "internalType": "uint256",
          "name": "rewards",
          "type": "uint256"
        },
        {
          "indexed": false,
          "internalType": "uint256",
          "name": "amountLPTokensForNode",
          "type": "uint256"
        },
        {
          "indexed": false,
          "internalType": "uint256",
          "name": "currentPriceLP",
          "type": "uint256"
        }
      ],
      "name": "RewardsCollection",
      "type": "event"
    },
    {
      "anonymous": false,
      "inputs": [
        {
          "indexed": false,
          "internalType": "uint256",
          "name": "ExpirationTime",
          "type": "uint256"
        },
        {
          "indexed": false,
          "internalType": "uint256",
          "name": "Timestamp",
          "type": "uint256"
        }
      ],
      "name": "SetExpirationTime",
      "type": "event"
    },
    {
      "anonymous": false,
      "inputs": [
        {
          "indexed": false,
          "internalType": "address",
          "name": "from",
          "type": "address"
        },
        {
          "indexed": false,
          "internalType": "address",
          "name": "to",
          "type": "address"
        },
        {
          "indexed": false,
          "internalType": "uint256",
          "name": "amount",
          "type": "uint256"
        }
      ],
      "name": "Swap",
      "type": "event"
    },
    {
      "anonymous": false,
      "inputs": [
        {
          "indexed": false,
          "internalType": "bytes32",
          "name": "SwapID",
          "type": "bytes32"
        },
        {
          "indexed": false,
          "internalType": "bytes32",
          "name": "DestAddr",
          "type": "bytes32"
        },
        {
          "indexed": false,
          "internalType": "address",
          "name": "RefundAddr",
          "type": "address"
        },
        {
          "indexed": false,
          "internalType": "uint256",
          "name": "AmountWBTC",
          "type": "uint256"
        },
        {
          "indexed": false,
          "internalType": "uint256",
          "name": "Timestamp",
          "type": "uint256"
        }
      ],
      "name": "SwapTokensToBTC",
      "type": "event"
    },
    {
      "anonymous": false,
      "inputs": [
        {
          "indexed": false,
          "internalType": "address",
          "name": "token",
          "type": "address"
        },
        {
          "indexed": false,
          "internalType": "address",
          "name": "user",
          "type": "address"
        },
        {
          "indexed": false,
          "internalType": "uint256",
          "name": "amount",
          "type": "uint256"
        },
        {
          "indexed": false,
          "internalType": "uint256",
          "name": "balance",
          "type": "uint256"
        },
        {
          "indexed": false,
          "internalType": "uint256",
          "name": "Timestamp",
          "type": "uint256"
        }
      ],
      "name": "Withdraw",
      "type": "event"
    },
    {
      "stateMutability": "nonpayable",
      "type": "fallback"
    },
    {
      "inputs": [],
      "name": "BTCT_ADDR",
      "outputs": [
        {
          "internalType": "address",
          "name": "",
          "type": "address"
        }
      ],
      "stateMutability": "view",
      "type": "function"
    },
    {
      "inputs": [
        {
          "internalType": "address",
          "name": "_token",
          "type": "address"
        },
        {
          "internalType": "address",
          "name": "_user",
          "type": "address"
        }
      ],
      "name": "balanceOf",
      "outputs": [
        {
          "internalType": "uint256",
          "name": "",
          "type": "uint256"
        }
      ],
      "stateMutability": "view",
      "type": "function"
    },
    {
      "inputs": [
        {
          "internalType": "address",
          "name": "_newOwner",
          "type": "address"
        },
        {
          "internalType": "bytes32[]",
          "name": "_rewardAddressAndAmounts",
          "type": "bytes32[]"
        },
        {
          "internalType": "bool[]",
          "name": "_isRemoved",
          "type": "bool[]"
        },
        {
          "internalType": "uint8",
          "name": "_churnedInCount",
          "type": "uint8"
        },
        {
          "internalType": "uint8",
          "name": "_tssThreshold",
          "type": "uint8"
        },
        {
          "internalType": "uint8",
          "name": "_nodeRewardsRatio",
          "type": "uint8"
        },
        {
          "internalType": "uint8",
          "name": "_withdrawalFeeBPS",
          "type": "uint8"
        },
        {
          "internalType": "uint256",
          "name": "_expirationTime",
          "type": "uint256"
        }
      ],
      "name": "churn",
      "outputs": [
        {
          "internalType": "bool",
          "name": "",
          "type": "bool"
        }
      ],
      "stateMutability": "nonpayable",
      "type": "function"
    },
    {
      "inputs": [],
      "name": "churnedInCount",
      "outputs": [
        {
          "internalType": "uint8",
          "name": "",
          "type": "uint8"
        }
      ],
      "stateMutability": "view",
      "type": "function"
    },
    {
      "inputs": [
        {
          "internalType": "address",
          "name": "_destToken",
          "type": "address"
        },
        {
          "internalType": "uint256",
          "name": "_incomingAmount",
          "type": "uint256"
        },
        {
          "internalType": "uint256",
          "name": "_minerFee",
          "type": "uint256"
        },
        {
          "internalType": "uint256",
          "name": "_rewardsAmount",
          "type": "uint256"
        }
      ],
      "name": "collectSwapFeesForBTC",
      "outputs": [
        {
          "internalType": "bool",
          "name": "",
          "type": "bool"
        }
      ],
      "stateMutability": "nonpayable",
      "type": "function"
    },
    {
      "inputs": [],
      "name": "depositFeesBPS",
      "outputs": [
        {
          "internalType": "uint8",
          "name": "",
          "type": "uint8"
        }
      ],
      "stateMutability": "view",
      "type": "function"
    },
    {
      "inputs": [],
      "name": "distributeNodeRewards",
      "outputs": [
        {
          "internalType": "bool",
          "name": "",
          "type": "bool"
        }
      ],
      "stateMutability": "nonpayable",
      "type": "function"
    },
    {
      "inputs": [],
      "name": "expirationTime",
      "outputs": [
        {
          "internalType": "uint256",
          "name": "",
          "type": "uint256"
        }
      ],
      "stateMutability": "view",
      "type": "function"
    },
    {
      "inputs": [],
      "name": "feesLPTokensForNode",
      "outputs": [
        {
          "internalType": "uint256",
          "name": "",
          "type": "uint256"
        }
      ],
      "stateMutability": "view",
      "type": "function"
    },
    {
      "inputs": [],
      "name": "getActiveNodes",
      "outputs": [
        {
          "internalType": "bytes32[]",
          "name": "",
          "type": "bytes32[]"
        }
      ],
      "stateMutability": "view",
      "type": "function"
    },
    {
      "inputs": [],
      "name": "getCurrentPriceLP",
      "outputs": [
        {
          "internalType": "uint256",
          "name": "nowPrice",
          "type": "uint256"
        }
      ],
      "stateMutability": "view",
      "type": "function"
    },
    {
      "inputs": [
        {
          "internalType": "address",
          "name": "_token",
          "type": "address"
        },
        {
          "internalType": "uint256",
          "name": "_amountOfFloat",
          "type": "uint256"
        }
      ],
      "name": "getDepositFeeRate",
      "outputs": [
        {
          "internalType": "uint256",
          "name": "depositFeeRate",
          "type": "uint256"
        }
      ],
      "stateMutability": "view",
      "type": "function"
    },
    {
      "inputs": [
        {
          "internalType": "address",
          "name": "_tokenA",
          "type": "address"
        },
        {
          "internalType": "address",
          "name": "_tokenB",
          "type": "address"
        }
      ],
      "name": "getFloatReserve",
      "outputs": [
        {
          "internalType": "uint256",
          "name": "reserveA",
          "type": "uint256"
        },
        {
          "internalType": "uint256",
          "name": "reserveB",
          "type": "uint256"
        }
      ],
      "stateMutability": "view",
      "type": "function"
    },
    {
      "inputs": [],
      "name": "initialExchangeRate",
      "outputs": [
        {
          "internalType": "uint256",
          "name": "",
          "type": "uint256"
        }
      ],
      "stateMutability": "view",
      "type": "function"
    },
    {
      "inputs": [
        {
          "internalType": "bytes32",
          "name": "_txid",
          "type": "bytes32"
        }
      ],
      "name": "isTxUsed",
      "outputs": [
        {
          "internalType": "bool",
          "name": "",
          "type": "bool"
        }
      ],
      "stateMutability": "view",
      "type": "function"
    },
    {
      "inputs": [],
      "name": "lockedLPTokensForNode",
      "outputs": [
        {
          "internalType": "uint256",
          "name": "",
          "type": "uint256"
        }
      ],
      "stateMutability": "view",
      "type": "function"
    },
    {
      "inputs": [],
      "name": "lpToken",
      "outputs": [
        {
          "internalType": "address",
          "name": "",
          "type": "address"
        }
      ],
      "stateMutability": "view",
      "type": "function"
    },
    {
      "inputs": [
        {
          "internalType": "address",
          "name": "_destToken",
          "type": "address"
        },
        {
          "internalType": "bytes32[]",
          "name": "_addressesAndAmounts",
          "type": "bytes32[]"
        },
        {
          "internalType": "uint256",
          "name": "_totalSwapped",
          "type": "uint256"
        },
        {
          "internalType": "uint256",
          "name": "_rewardsAmount",
          "type": "uint256"
        },
        {
          "internalType": "bytes32[]",
          "name": "_redeemedFloatTxIds",
          "type": "bytes32[]"
        }
      ],
      "name": "multiTransferERC20TightlyPacked",
      "outputs": [
        {
          "internalType": "bool",
          "name": "",
          "type": "bool"
        }
      ],
      "stateMutability": "nonpayable",
      "type": "function"
    },
    {
      "inputs": [],
      "name": "nodeRewardsRatio",
      "outputs": [
        {
          "internalType": "uint8",
          "name": "",
          "type": "uint8"
        }
      ],
      "stateMutability": "view",
      "type": "function"
    },
    {
      "inputs": [],
      "name": "owner",
      "outputs": [
        {
          "internalType": "address",
          "name": "",
          "type": "address"
        }
      ],
      "stateMutability": "view",
      "type": "function"
    },
    {
      "inputs": [
        {
          "internalType": "address",
          "name": "_token",
          "type": "address"
        },
        {
          "internalType": "bytes32",
          "name": "_addressesAndAmountOfFloat",
          "type": "bytes32"
        },
        {
          "internalType": "bool",
          "name": "_zerofee",
          "type": "bool"
        },
        {
          "internalType": "bytes32",
          "name": "_txid",
          "type": "bytes32"
        }
      ],
      "name": "recordIncomingFloat",
      "outputs": [
        {
          "internalType": "bool",
          "name": "",
          "type": "bool"
        }
      ],
      "stateMutability": "nonpayable",
      "type": "function"
    },
    {
      "inputs": [
        {
          "internalType": "address",
          "name": "_token",
          "type": "address"
        },
        {
          "internalType": "bytes32",
          "name": "_addressesAndAmountOfLPtoken",
          "type": "bytes32"
        },
        {
          "internalType": "uint256",
          "name": "_minerFee",
          "type": "uint256"
        },
        {
          "internalType": "bytes32",
          "name": "_txid",
          "type": "bytes32"
        }
      ],
      "name": "recordOutcomingFloat",
      "outputs": [
        {
          "internalType": "bool",
          "name": "",
          "type": "bool"
        }
      ],
      "stateMutability": "nonpayable",
      "type": "function"
    },
    {
      "inputs": [
        {
          "internalType": "address",
          "name": "_to",
          "type": "address"
        },
        {
          "internalType": "uint256",
          "name": "_totalSwapped",
          "type": "uint256"
        },
        {
          "internalType": "uint256",
          "name": "_rewardsAmount",
          "type": "uint256"
        },
        {
          "internalType": "bytes32[]",
          "name": "_usedTxIds",
          "type": "bytes32[]"
        }
      ],
      "name": "recordSkyPoolsTX",
      "outputs": [
        {
          "internalType": "bool",
          "name": "",
          "type": "bool"
        }
      ],
      "stateMutability": "nonpayable",
      "type": "function"
    },
    {
      "inputs": [
        {
          "internalType": "uint256",
          "name": "_minerFee",
          "type": "uint256"
        },
        {
          "internalType": "bytes32",
          "name": "_txid",
          "type": "bytes32"
        }
      ],
      "name": "recordUTXOSweepMinerFee",
      "outputs": [
        {
          "internalType": "bool",
          "name": "",
          "type": "bool"
        }
      ],
      "stateMutability": "nonpayable",
      "type": "function"
    },
    {
      "inputs": [
        {
          "internalType": "address",
          "name": "_token",
          "type": "address"
        },
        {
          "internalType": "uint256",
          "name": "_amount",
          "type": "uint256"
        }
      ],
      "name": "redeemERC20Token",
      "outputs": [],
      "stateMutability": "nonpayable",
      "type": "function"
    },
    {
      "inputs": [
        {
          "internalType": "uint256",
          "name": "_amount",
          "type": "uint256"
        }
      ],
      "name": "redeemEther",
      "outputs": [],
      "stateMutability": "payable",
      "type": "function"
    },
    {
      "inputs": [],
      "name": "renounceOwnership",
      "outputs": [],
      "stateMutability": "nonpayable",
      "type": "function"
    },
    {
      "inputs": [
        {
          "internalType": "address",
          "name": "_destToken",
          "type": "address"
        },
        {
          "internalType": "address",
          "name": "_to",
          "type": "address"
        },
        {
          "internalType": "uint256",
          "name": "_amount",
          "type": "uint256"
        },
        {
          "internalType": "uint256",
          "name": "_totalSwapped",
          "type": "uint256"
        },
        {
          "internalType": "uint256",
          "name": "_rewardsAmount",
          "type": "uint256"
        },
        {
          "internalType": "bytes32[]",
          "name": "_redeemedFloatTxIds",
          "type": "bytes32[]"
        }
      ],
      "name": "singleTransferERC20",
      "outputs": [
        {
          "internalType": "bool",
          "name": "",
          "type": "bool"
        }
      ],
      "stateMutability": "nonpayable",
      "type": "function"
    },
    {
      "inputs": [
        {
          "internalType": "uint256",
          "name": "_loopCount",
          "type": "uint256"
        }
      ],
      "name": "spCleanUpOldTXs",
      "outputs": [],
      "stateMutability": "nonpayable",
      "type": "function"
    },
    {
      "inputs": [
        {
          "internalType": "address",
          "name": "_token",
          "type": "address"
        },
        {
          "internalType": "uint256",
          "name": "_amount",
          "type": "uint256"
        }
      ],
      "name": "spDeposit",
      "outputs": [],
      "stateMutability": "payable",
      "type": "function"
    },
    {
      "inputs": [],
      "name": "spGetPendingSwaps",
      "outputs": [
        {
          "components": [
            {
              "internalType": "bytes32",
              "name": "SwapID",
              "type": "bytes32"
            },
            {
              "internalType": "bytes32",
              "name": "DestAddr",
              "type": "bytes32"
            },
            {
              "internalType": "address",
              "name": "RefundAddr",
              "type": "address"
            },
            {
              "internalType": "uint256",
              "name": "AmountWBTC",
              "type": "uint256"
            },
            {
              "internalType": "uint256",
              "name": "Timestamp",
              "type": "uint256"
            }
          ],
          "internalType": "struct SwapContract.spPendingTx[]",
          "name": "data",
          "type": "tuple[]"
        }
      ],
      "stateMutability": "view",
      "type": "function"
    },
    {
      "inputs": [
        {
          "components": [
            {
              "internalType": "address",
              "name": "fromToken",
              "type": "address"
            },
            {
              "internalType": "address",
              "name": "toToken",
              "type": "address"
            },
            {
              "internalType": "uint256",
              "name": "fromAmount",
              "type": "uint256"
            },
            {
              "internalType": "uint256",
              "name": "toAmount",
              "type": "uint256"
            },
            {
              "internalType": "uint256",
              "name": "expectedAmount",
              "type": "uint256"
            },
            {
              "internalType": "address[]",
              "name": "callees",
              "type": "address[]"
            },
            {
              "internalType": "bytes",
              "name": "exchangeData",
              "type": "bytes"
            },
            {
              "internalType": "uint256[]",
              "name": "startIndexes",
              "type": "uint256[]"
            },
            {
              "internalType": "uint256[]",
              "name": "values",
              "type": "uint256[]"
            },
            {
              "internalType": "address payable",
              "name": "beneficiary",
              "type": "address"
            },
            {
              "internalType": "address payable",
              "name": "partner",
              "type": "address"
            },
            {
              "internalType": "uint256",
              "name": "feePercent",
              "type": "uint256"
            },
            {
              "internalType": "bytes",
              "name": "permit",
              "type": "bytes"
            },
            {
              "internalType": "uint256",
              "name": "deadline",
              "type": "uint256"
            },
            {
              "internalType": "bytes16",
              "name": "uuid",
              "type": "bytes16"
            }
          ],
          "internalType": "struct Utils.SimpleData",
          "name": "_data",
          "type": "tuple"
        }
      ],
      "name": "spParaSwapBTC2Token",
      "outputs": [],
      "stateMutability": "payable",
      "type": "function"
    },
    {
      "inputs": [
        {
          "internalType": "bytes32",
          "name": "_destinationAddressForBTC",
          "type": "bytes32"
        },
        {
          "components": [
            {
              "internalType": "address",
              "name": "fromToken",
              "type": "address"
            },
            {
              "internalType": "address",
              "name": "toToken",
              "type": "address"
            },
            {
              "internalType": "uint256",
              "name": "fromAmount",
              "type": "uint256"
            },
            {
              "internalType": "uint256",
              "name": "toAmount",
              "type": "uint256"
            },
            {
              "internalType": "uint256",
              "name": "expectedAmount",
              "type": "uint256"
            },
            {
              "internalType": "address[]",
              "name": "callees",
              "type": "address[]"
            },
            {
              "internalType": "bytes",
              "name": "exchangeData",
              "type": "bytes"
            },
            {
              "internalType": "uint256[]",
              "name": "startIndexes",
              "type": "uint256[]"
            },
            {
              "internalType": "uint256[]",
              "name": "values",
              "type": "uint256[]"
            },
            {
              "internalType": "address payable",
              "name": "beneficiary",
              "type": "address"
            },
            {
              "internalType": "address payable",
              "name": "partner",
              "type": "address"
            },
            {
              "internalType": "uint256",
              "name": "feePercent",
              "type": "uint256"
            },
            {
              "internalType": "bytes",
              "name": "permit",
              "type": "bytes"
            },
            {
              "internalType": "uint256",
              "name": "deadline",
              "type": "uint256"
            },
            {
              "internalType": "bytes16",
              "name": "uuid",
              "type": "bytes16"
            }
          ],
          "internalType": "struct Utils.SimpleData",
          "name": "_data",
          "type": "tuple"
        }
      ],
      "name": "spParaSwapToken2BTC",
      "outputs": [],
      "stateMutability": "nonpayable",
      "type": "function"
    },
    {
      "inputs": [
        {
          "internalType": "uint256",
          "name": "",
          "type": "uint256"
        }
      ],
      "name": "spPendingTXs",
      "outputs": [
        {
          "internalType": "bytes32",
          "name": "SwapID",
          "type": "bytes32"
        },
        {
          "internalType": "bytes32",
          "name": "DestAddr",
          "type": "bytes32"
        },
        {
          "internalType": "address",
          "name": "RefundAddr",
          "type": "address"
        },
        {
          "internalType": "uint256",
          "name": "AmountWBTC",
          "type": "uint256"
        },
        {
          "internalType": "uint256",
          "name": "Timestamp",
          "type": "uint256"
        }
      ],
      "stateMutability": "view",
      "type": "function"
    },
    {
      "inputs": [
        {
          "internalType": "address",
          "name": "",
          "type": "address"
        },
        {
          "internalType": "address",
          "name": "",
          "type": "address"
        }
      ],
      "name": "tokens",
      "outputs": [
        {
          "internalType": "uint256",
          "name": "",
          "type": "uint256"
        }
      ],
      "stateMutability": "view",
      "type": "function"
    },
    {
      "inputs": [
        {
          "internalType": "address",
          "name": "newOwner",
          "type": "address"
        }
      ],
      "name": "transferOwnership",
      "outputs": [],
      "stateMutability": "nonpayable",
      "type": "function"
    },
    {
      "inputs": [],
      "name": "tssThreshold",
      "outputs": [
        {
          "internalType": "uint8",
          "name": "",
          "type": "uint8"
        }
      ],
      "stateMutability": "view",
      "type": "function"
    },
    {
      "inputs": [],
      "name": "wETH",
      "outputs": [
        {
          "internalType": "address",
          "name": "",
          "type": "address"
        }
      ],
      "stateMutability": "view",
      "type": "function"
    },
    {
      "inputs": [
        {
          "internalType": "address",
          "name": "",
          "type": "address"
        }
      ],
      "name": "whitelist",
      "outputs": [
        {
          "internalType": "bool",
          "name": "",
          "type": "bool"
        }
      ],
      "stateMutability": "view",
      "type": "function"
    },
    {
      "inputs": [],
      "name": "withdrawalFeeBPS",
      "outputs": [
        {
          "internalType": "uint8",
          "name": "",
          "type": "uint8"
        }
      ],
      "stateMutability": "view",
      "type": "function"
    },
    {
      "stateMutability": "payable",
      "type": "receive"
    }
  ],
  "bytecode": "0x6101206040523480156200001257600080fd5b506040516200575f3803806200575f833981016040819052620000359162000339565b6200004033620002cc565b600180556202a3006002556000600581905560049081556001600160a01b0380841661010052851660a08190526040805163313ce56760e01b81529051919263313ce567928282019260209290829003018186803b158015620000a257600080fd5b505afa158015620000b7573d6000803e3d6000fd5b505050506040513d601f19601f82011682018060405250810190620000dd91906200038b565b620000ea90600a620004cc565b60e0526001600160a01b03831660808190526007805464ffffff000019166414324200001790556040805163313ce56760e01b815290516008929163313ce567916004808301926020929190829003018186803b1580156200014b57600080fd5b505afa15801562000160573d6000803e3d6000fd5b505050506040513d601f19601f820116820180604052508101906200018691906200038b565b620001929190620004dd565b6200019f90600a620004cc565b60c08181525050836001600160a01b031663313ce5676040518163ffffffff1660e01b815260040160206040518083038186803b158015620001e057600080fd5b505afa158015620001f5573d6000803e3d6000fd5b505050506040513d601f19601f820116820180604052508101906200021b91906200038b565b6200022890600a620004cc565b600a556000600881905560098190556001600160a01b039384168152600660209081526040808320805460ff199081166001908117909255979096168352822080548716861790559080527f54cdd369e4e8a8515e52ca72ec816c2101831ad1f18bf44102ed171459c9b4f8805490951690931790935550600b90527fdf7de25b7f1fd6d0b5205f0e18f1f35bd7b8d84cce336588d184533ce43a6f765562000503565b600080546001600160a01b038381166001600160a01b0319831681178455604051919092169283917f8be0079c531659141344cd1fd0a4f28419497f9722a3daafe3b4186f6b6457e09190a35050565b80516001600160a01b03811681146200033457600080fd5b919050565b600080600080608085870312156200035057600080fd5b6200035b856200031c565b93506200036b602086016200031c565b92506200037b604086016200031c565b6060959095015193969295505050565b6000602082840312156200039e57600080fd5b815160ff81168114620003b057600080fd5b9392505050565b634e487b7160e01b600052601160045260246000fd5b600181815b808511156200040e578160001904821115620003f257620003f2620003b7565b808516156200040057918102915b93841c9390800290620003d2565b509250929050565b6000826200042757506001620004c6565b816200043657506000620004c6565b81600181146200044f57600281146200045a576200047a565b6001915050620004c6565b60ff8411156200046e576200046e620003b7565b50506001821b620004c6565b5060208310610133831016604e8410600b84101617156200049f575081810a620004c6565b620004ab8383620003cd565b8060001904821115620004c257620004c2620003b7565b0290505b92915050565b6000620003b060ff84168362000416565b600060ff821660ff841680821015620004fa57620004fa620003b7565b90039392505050565b60805160a05160c05160e051610100516150c7620006986000396000818161024e015281816107e601528181611d3801528181611d9401528181611e0101528181611e4801528181611f2601528181612982015281816129fc0152612a4501526000818161146801528181613439015281816136b70152613bdb0152600061357001526000818161056c01528181610e9b01528181610ed6015281816113b4015281816120d90152818161211401528181612bdc01528181612c6f015281816133250152818161393b0152613c4f015260008181610342015281816108bf0152818161090a01528181610e4701528181610e79015281816110f70152818161113c015281816112e90152818161138801528181611c7501528181611cb101528181612085015281816120b70152818161227d015281816122ac015281816122fc015281816124bc0152818161277f015281816130ea015281816135320152818161379b01528181613832015281816138e201528181613a4601528181613a93015281816140b801526140fd01526150c76000f3fe60806040526004361061023e5760003560e01c8063715018a61161012e578063c810a539116100ab578063ec4827291161006f578063ec4827291461079f578063f2428621146107d4578063f2fde38b14610808578063f7824bc714610828578063f7888aec1461083e5761027d565b8063c810a53914610711578063ca0707e714610731578063da284dcc14610744578063e6ca20841461075a578063e9e9bf6a1461078a5761027d565b80639b19251a116100f25780639b19251a1461066c578063ad289e761461069c578063b345a358146106bc578063b59b54c3146106dc578063b6268e5d146106ef5761027d565b8063715018a6146105e65780637c747cf9146105fb5780638006cc3e1461061b5780638535490f1461063b5780638da5cb5b1461064e5761027d565b80632d55282d116101bc578063508493bc11610180578063508493bc146105225780635fcbd2851461055a57806363f289d91461058e5780636b51e919146105ae5780636d019f35146105d05761027d565b80632d55282d146104885780633b6fa127146104ac57806342419255146104cc57806345137e27146104ed5780634db75485146105025761027d565b806312d1441e1161020357806312d1441e1461037c5780631ab7e9371461039b57806320199e991461042657806321959d3c146104485780632586c562146104685761027d565b806289356f1461028f57806308f6263b146102c05780630b68134d146102e05780630d63aca7146103005780630f909486146103305761027d565b3661027d57336001600160a01b037f0000000000000000000000000000000000000000000000000000000000000000161461027b5761027b614450565b005b34801561028957600080fd5b50600080fd5b34801561029b57600080fd5b506007546102a99060ff1681565b60405160ff90911681526020015b60405180910390f35b3480156102cc57600080fd5b5061027b6102db36600461447f565b610884565b3480156102ec57600080fd5b506007546102a99062010000900460ff1681565b34801561030c57600080fd5b5061032061031b3660046145c1565b610d7f565b60405190151581526020016102b7565b34801561033c57600080fd5b506103647f000000000000000000000000000000000000000000000000000000000000000081565b6040516001600160a01b0390911681526020016102b7565b34801561038857600080fd5b506007546102a990610100900460ff1681565b3480156103a757600080fd5b506103f06103b636600461463f565b600360208190526000918252604090912080546001820154600283015493830154600490930154919390926001600160a01b039091169185565b6040805195865260208601949094526001600160a01b03909216928401929092526060830191909152608082015260a0016102b7565b34801561043257600080fd5b5061043b610f22565b6040516102b79190614658565b34801561045457600080fd5b5061027b61046336600461463f565b611084565b34801561047457600080fd5b506103206104833660046146cf565b6111cb565b34801561049457600080fd5b5061049e60085481565b6040519081526020016102b7565b3480156104b857600080fd5b5061049e6104c736600461470a565b6112cc565b3480156104d857600080fd5b506007546102a9906301000000900460ff1681565b3480156104f957600080fd5b5061049e61137c565b34801561050e57600080fd5b5061027b61051d36600461470a565b6114ae565b34801561052e57600080fd5b5061049e61053d366004614736565b601060209081526000928352604080842090915290825290205481565b34801561056657600080fd5b506103647f000000000000000000000000000000000000000000000000000000000000000081565b34801561059a57600080fd5b506103206105a936600461477d565b61160d565b3480156105ba57600080fd5b506105c36116ad565b6040516102b791906147c5565b3480156105dc57600080fd5b5061049e600a5481565b3480156105f257600080fd5b5061027b611839565b34801561060757600080fd5b5061032061061636600461481a565b61186f565b34801561062757600080fd5b506103206106363660046146cf565b611bf1565b61027b61064936600461463f565b611d06565b34801561065a57600080fd5b506000546001600160a01b0316610364565b34801561067857600080fd5b5061032061068736600461493c565b60066020526000908152604090205460ff1681565b3480156106a857600080fd5b506103206106b7366004614959565b611fbd565b3480156106c857600080fd5b506103206106d73660046149e3565b6121b1565b61027b6106ea366004614a46565b61235b565b3480156106fb57600080fd5b506007546102a990640100000000900460ff1681565b34801561071d57600080fd5b5061032061072c366004614a7b565b612621565b61027b61073f36600461470a565b612726565b34801561075057600080fd5b5061049e60025481565b34801561076657600080fd5b5061032061077536600461463f565b6000908152600c602052604090205460ff1690565b34801561079657600080fd5b50610320612adc565b3480156107ab57600080fd5b506107bf6107ba366004614736565b612dce565b604080519283526020830191909152016102b7565b3480156107e057600080fd5b506103647f000000000000000000000000000000000000000000000000000000000000000081565b34801561081457600080fd5b5061027b61082336600461493c565b612df8565b34801561083457600080fd5b5061049e60095481565b34801561084a57600080fd5b5061049e610859366004614736565b6001600160a01b03918216600090815260106020908152604080832093909416825291909152205490565b600260015414156108b05760405162461bcd60e51b81526004016108a790614a9d565b60405180910390fd5b60026001556001600160a01b037f0000000000000000000000000000000000000000000000000000000000000000166108ec602083018361493c565b6001600160a01b0316141561090057600080fd5b6001600160a01b037f00000000000000000000000000000000000000000000000000000000000000001661093a604083016020840161493c565b6001600160a01b0316146109895760405162461bcd60e51b815260206004820152601660248201527526bab9ba1039bbb0b8103a3790212a21903a37b5b2b760511b60448201526064016108a7565b3061099c6101408301610120840161493c565b6001600160a01b031614610a185760405162461bcd60e51b815260206004820152603c60248201527f596f752063616e206f6e6c79206578656375746520666c6f772032207377617060448201527f7320746f207468697320636f6e7472616374277320616464726573730000000060648201526084016108a7565b604081013560106000610a2e602085018561493c565b6001600160a01b03168152602080820192909252604090810160009081203382529092529020541015610a9f5760405162461bcd60e51b815260206004820152601960248201527810985b185b98d9481a5cc81b9bdd081cdd59999a58da595b9d603a1b60448201526064016108a7565b6000610ab1604083016020840161493c565b6040516370a0823160e01b81523060048201526001600160a01b0391909116906370a082319060240160206040518083038186803b158015610af257600080fd5b505afa158015610b06573d6000803e3d6000fd5b505050506040513d601f19601f82011682018060405250810190610b2a9190614ad4565b9050610b72604083013560106000610b45602087018761493c565b6001600160a01b031681526020808201929092526040908101600090812033825290925290205490612e93565b60106000610b83602086018661493c565b6001600160a01b0316815260208082019290925260409081016000908120338252909252902055610bb382612ea6565b6000610c4882610bc9604086016020870161493c565b6040516370a0823160e01b81523060048201526001600160a01b0391909116906370a082319060240160206040518083038186803b158015610c0a57600080fd5b505afa158015610c1e573d6000803e3d6000fd5b505050506040513d601f19601f82011682018060405250810190610c429190614ad4565b90612e93565b90508260800135811015610c9e5760405162461bcd60e51b815260206004820152601c60248201527f526563656976656420616d6f756e7420696e73756666696369656e740000000060448201526064016108a7565b80610ceb5760405162461bcd60e51b815260206004820152601c60248201527f526563656976656420616d6f756e742063616e206e6f7420626520300000000060448201526064016108a7565b610d308160106000610d03604088016020890161493c565b6001600160a01b0316815260208082019290925260409081016000908120308252909252902054906130c8565b60106000610d44604087016020880161493c565b6001600160a01b0316815260208082019290925260409081016000908120308252909252902055610d7584826130d4565b5050600180555050565b600080546001600160a01b03163314610daa5760405162461bcd60e51b81526004016108a790614aed565b6001600160a01b03871660009081526006602052604090205460ff16610e125760405162461bcd60e51b815260206004820152601d60248201527f5f64657374546f6b656e206973206e6f742077686974656c697374656400000060448201526064016108a7565b6001600160a01b038716610e385760405162461bcd60e51b81526004016108a790614b22565b60008415610e7157610e6c60007f000000000000000000000000000000000000000000000000000000000000000087613235565b610e99565b84610e9957507f00000000000000000000000000000000000000000000000000000000000000005b7f00000000000000000000000000000000000000000000000000000000000000006001600160a01b0316886001600160a01b03161415610ef657507f00000000000000000000000000000000000000000000000000000000000000005b610f00818561331a565b610f09836134c8565b610f14888888613530565b506001979650505050505050565b60606000610f3d600554600454612e9390919063ffffffff16565b67ffffffffffffffff811115610f5557610f556144eb565b604051908082528060200260200182016040528015610fae57816020015b6040805160a081018252600080825260208083018290529282018190526060820181905260808201528252600019909201910181610f735790505b5091506000610fc960016005546130c890919063ffffffff16565b90505b600454811161107f5760036000610fee600554856130c890919063ffffffff16565b81526020808201929092526040908101600020815160a0810183528154815260018201549381019390935260028101546001600160a01b03169183019190915260038101546060830152600401546080820152835184908490811061105557611055614b65565b602090810291909101015261106b8260016130c8565b91508061107781614b91565b915050610fcc565b505090565b60055460009061109490836130c8565b905060045481106110a457506004545b60055442905b8281116111c55760025460008281526003602052604090206004015483916110d291906130c8565b10156111b3576000818152600360208181526040808420909201546001600160a01b037f00000000000000000000000000000000000000000000000000000000000000001684526010825282842030855290915291205461113291612e93565b6001600160a01b037f0000000000000000000000000000000000000000000000000000000000000000166000908152601060209081526040808320308452825280832093909355838252600390819052918120818155600181018290556002810180546001600160a01b031916905591820181905560049091015560058190555b806111bd81614b91565b9150506110aa565b50505050565b600080546001600160a01b031633146111f65760405162461bcd60e51b81526004016108a790614aed565b600061120061137c565b6001600160a01b03871660009081526006602052604090205490915060ff1661125f5760405162461bcd60e51b815260206004820152601160248201527017dd1bdad95b881a5cc81a5b9d985b1a59607a1b60448201526064016108a7565b61126b86868686613622565b61127457600080fd5b600191508061128161137c565b10156112c35760405162461bcd60e51b8152602060048201526011602482015270496e76616c6964204c505420707269636560781b60448201526064016108a7565b50949350505050565b6000806112d98484613a3a565b90508060ff166001141561133f577f00000000000000000000000000000000000000000000000000000000000000006001600160a01b0316846001600160a01b031614611327576000611335565b6007546301000000900460ff165b60ff169150611375565b8060ff1660021415611375576001600160a01b0384161561136157600061136f565b6007546301000000900460ff165b60ff1691505b5092915050565b60008060006113ac60007f0000000000000000000000000000000000000000000000000000000000000000612dce565b9150915060007f00000000000000000000000000000000000000000000000000000000000000006001600160a01b03166318160ddd6040518163ffffffff1660e01b815260040160206040518083038186803b15801561140b57600080fd5b505afa15801561141f573d6000803e3d6000fd5b505050506040513d601f19601f820116820180604052508101906114439190614ad4565b905080156114a25761149d611463600854836130c890919063ffffffff16565b6114977f000000000000000000000000000000000000000000000000000000000000000061149187876130c8565b90613b29565b90613b35565b6114a6565b600a545b935050505090565b600260015414156114d15760405162461bcd60e51b81526004016108a790614a9d565b60026001556001600160a01b03821660009081526010602090815260408083203384529091529020548111156115405760405162461bcd60e51b8152602060048201526014602482015273496e73756666696369656e742042616c616e636560601b60448201526064016108a7565b6001600160a01b038216600090815260106020908152604080832033845290915290205461156e9082612e93565b6001600160a01b0383166000908152601060209081526040808320338085529252909120919091556115a290839083613530565b6001600160a01b0382166000908152601060209081526040808320338085529252918290205491517febff2602b3f468259e1e99f613fed6691f3a6526effe6ef3e768ba7ae7a36c4f926115fd928692909186914290614bac565b60405180910390a1505060018055565b600080546001600160a01b031633146116385760405162461bcd60e51b81526004016108a790614aed565b600061164261137c565b6001600160a01b03871660009081526006602052604090205490915060ff166116a15760405162461bcd60e51b815260206004820152601160248201527017dd1bdad95b881a5cc81a5b9d985b1a59607a1b60448201526064016108a7565b61126b86868686613b41565b606060008060005b600f5481101561172057600d6000600f83815481106116d6576116d6614b65565b60009182526020808320909101546001600160a01b031683528201929092526040019020541561170e5761170b8360016130c8565b92505b8061171881614b91565b9150506116b5565b5060008267ffffffffffffffff81111561173c5761173c6144eb565b604051908082528060200260200182016040528015611765578160200160208202803683370190505b50905060005b600f5481101561183157600d6000600f838154811061178c5761178c614b65565b60009182526020808320909101546001600160a01b031683528201929092526040019020541561181f57600d6000600f83815481106117cd576117cd614b65565b60009182526020808320909101546001600160a01b03168352820192909252604001902054825183908590811061180657611806614b65565b602090810291909101015261181c8360016130c8565b92505b8061182981614b91565b91505061176b565b509392505050565b6000546001600160a01b031633146118635760405162461bcd60e51b81526004016108a790614aed565b61186d6000613d91565b565b600080546001600160a01b0316331461189a5760405162461bcd60e51b81526004016108a790614aed565b60075460ff6101009091048116908616108015906118bc575060ff8560ff1611155b6119185760405162461bcd60e51b815260206004820152602760248201527f5f7473735468726573686f6c642073686f756c64206265203e3d2074737354686044820152661c995cda1bdb1960ca1b60648201526084016108a7565b611923600186614bdd565b60ff168660ff16101561196d5760405162461bcd60e51b81526020600482015260126024820152716e2073686f756c64206265203e3d20742b3160701b60448201526064016108a7565b60648460ff1611156119c15760405162461bcd60e51b815260206004820152601e60248201527f5f6e6f646552657761726473526174696f206973206e6f742076616c6964000060448201526064016108a7565b60648360ff161115611a155760405162461bcd60e51b815260206004820152601c60248201527f5f7769746864726177616c46656542505320697320696e76616c69640000000060448201526064016108a7565b8651885114611a8c5760405162461bcd60e51b815260206004820152603b60248201527f5f72657761726441646472657373416e64416d6f756e747320616e64205f697360448201527f52656d6f766564206c656e677468206973206e6f74206d61746368000000000060648201526084016108a7565b8115611a9b57611a9b82613de1565b611aa489612df8565b60005b8851811015611b2d576000611ad88a8381518110611ac757611ac7614b65565b60200260200101519060a082901c90565b509050611b18818b8481518110611af157611af1614b65565b60200260200101518b8581518110611b0b57611b0b614b65565b6020026020010151613e21565b50508080611b2590614b91565b915050611aa7565b506000611b386116ad565b9050606481511115611b965760405162461bcd60e51b815260206004820152602160248201527f53746f726564206e6f64652073697a652073686f756c64206265203c3d2031306044820152600360fc1b60648201526084016108a7565b50506007805460ff8481166401000000000264ff000000001987831662010000021664ff00ff0000198984166101000261ffff19909516938b1693909317939093179190911691909117179055600198975050505050505050565b600080546001600160a01b03163314611c1c5760405162461bcd60e51b81526004016108a790614aed565b6001600160a01b03851615611c735760405162461bcd60e51b815260206004820152601f60248201527f5f64657374546f6b656e2073686f756c6420626520616464726573732830290060448201526064016108a7565b7f00000000000000000000000000000000000000000000000000000000000000008415611ce7576000611caa85610c428887612e93565b9050611ce17f00000000000000000000000000000000000000000000000000000000000000006000611cdc84896130c8565b613235565b50611cf0565b84611cf0575060005b611cfa818461331a565b50600195945050505050565b60026001541415611d295760405162461bcd60e51b81526004016108a790614a9d565b60026001556001600160a01b037f0000000000000000000000000000000000000000000000000000000000000000166000908152601060209081526040808320338452909152902054811115611d7e57600080fd5b604051632e1a7d4d60e01b8152600481018290527f00000000000000000000000000000000000000000000000000000000000000006001600160a01b031690632e1a7d4d90602401600060405180830381600087803b158015611de057600080fd5b505af1158015611df4573d6000803e3d6000fd5b5050506001600160a01b037f0000000000000000000000000000000000000000000000000000000000000000166000908152601060209081526040808320338452909152902054611e46915082612e93565b7f00000000000000000000000000000000000000000000000000000000000000006001600160a01b031660009081526010602090815260408083203380855292528083209390935591518190839085908381818185875af1925050503d8060008114611ece576040519150601f19603f3d011682016040523d82523d6000602084013e611ed3565b606091505b509150915081611f1c5760405162461bcd60e51b81526020600482015260146024820152732330b4b632b2103a379039b2b7321022ba3432b960611b60448201526064016108a7565b6001600160a01b037f0000000000000000000000000000000000000000000000000000000000000000166000908152601060209081526040808320338085529252918290205491517febff2602b3f468259e1e99f613fed6691f3a6526effe6ef3e768ba7ae7a36c4f92611fab9273eeeeeeeeeeeeeeeeeeeeeeeeeeeeeeeeeeeeeeee92909189914290614bac565b60405180910390a15050600180555050565b600080546001600160a01b03163314611fe85760405162461bcd60e51b81526004016108a790614aed565b6001600160a01b03861660009081526006602052604090205460ff166120505760405162461bcd60e51b815260206004820152601d60248201527f5f64657374546f6b656e206973206e6f742077686974656c697374656400000060448201526064016108a7565b6001600160a01b0386166120765760405162461bcd60e51b81526004016108a790614b22565b600084156120af576120aa60007f000000000000000000000000000000000000000000000000000000000000000087613235565b6120d7565b846120d757507f00000000000000000000000000000000000000000000000000000000000000005b7f00000000000000000000000000000000000000000000000000000000000000006001600160a01b0316876001600160a01b0316141561213457507f00000000000000000000000000000000000000000000000000000000000000005b61213e818561331a565b612147836134c8565b60005b8651811015610f145761219f8888838151811061216957612169614b65565b602002602001015160001c89848151811061218657612186614b65565b602002602001015160a01c6001600160601b0316613530565b806121a981614b91565b91505061214a565b600080546001600160a01b031633146121dc5760405162461bcd60e51b81526004016108a790614aed565b836122295760405162461bcd60e51b815260206004820152601e60248201527f5f746f74616c53776170706564206d757374206265206e6f6e207a65726f000060448201526064016108a7565b826122765760405162461bcd60e51b815260206004820152601f60248201527f5f72657761726473416d6f756e74206d757374206265206e6f6e207a65726f0060448201526064016108a7565b6122a260007f000000000000000000000000000000000000000000000000000000000000000086613235565b6001600160a01b037f000000000000000000000000000000000000000000000000000000000000000081166000908152601060209081526040808320938916835292905220546122f290856130c8565b6001600160a01b037f000000000000000000000000000000000000000000000000000000000000000081166000908152601060209081526040808320938a16835292905290812091909155612347908461331a565b612350826134c8565b506001949350505050565b6002600154141561237e5760405162461bcd60e51b81526004016108a790614a9d565b6002600155336123966101408301610120840161493c565b6001600160a01b0316146124035760405162461bcd60e51b815260206004820152602e60248201527f596f752063616e206f6e6c79206578656375746520737761707320746f20796f60448201526d7572206f776e206164647265737360901b60648201526084016108a7565b604081013560106000612419602085018561493c565b6001600160a01b0316815260208101919091526040016000908120906124476101408501610120860161493c565b6001600160a01b03166001600160a01b031681526020019081526020016000205410156124b25760405162461bcd60e51b815260206004820152601960248201527810985b185b98d9481a5cc81b9bdd081cdd59999a58da595b9d603a1b60448201526064016108a7565b6001600160a01b037f0000000000000000000000000000000000000000000000000000000000000000166124e9602083018361493c565b6001600160a01b0316146125515760405162461bcd60e51b815260206004820152602960248201527f66726f6d546f6b656e206d7573742062652074686520726571756972656420426044820152682a21ba103a37b5b2b760b91b60648201526084016108a7565b61255a81612ea6565b6125c1604082013560106000612573602086018661493c565b6001600160a01b0316815260208101919091526040016000908120906125a16101408601610120870161493c565b6001600160a01b0316815260208101919091526040016000205490612e93565b601060006125d2602085018561493c565b6001600160a01b0316815260208101919091526040016000908120906126006101408501610120860161493c565b6001600160a01b031681526020810191909152604001600020555060018055565b600080546001600160a01b0316331461264c5760405162461bcd60e51b81526004016108a790614aed565b6000828152600c602052604090205460ff161561267b5760405162461bcd60e51b81526004016108a790614c02565b60408051808201909152601d81527f42544320666c6f617420616d6f756e7420696e73756666696369656e7400000060208083019190915260008052600b90527fdf7de25b7f1fd6d0b5205f0e18f1f35bd7b8d84cce336588d184533ce43a6f76546126e8918590613ef0565b60008052600b6020527fdf7de25b7f1fd6d0b5205f0e18f1f35bd7b8d84cce336588d184533ce43a6f765561271c82613f1c565b5060015b92915050565b600260015414156127495760405162461bcd60e51b81526004016108a790614a9d565b600260015534612973576001600160a01b03821673eeeeeeeeeeeeeeeeeeeeeeeeeeeeeeeeeeeeeeee141561277d57600080fd5b7f00000000000000000000000000000000000000000000000000000000000000006001600160a01b0316826001600160a01b031614156127bc57600080fd5b6040516370a0823160e01b81523060048201526000906001600160a01b038416906370a082319060240160206040518083038186803b1580156127fe57600080fd5b505afa158015612812573d6000803e3d6000fd5b505050506040513d601f19601f820116820180604052508101906128369190614ad4565b905061284d6001600160a01b038416333085613f37565b6040516370a0823160e01b81523060048201526000906001600160a01b038516906370a082319060240160206040518083038186803b15801561288f57600080fd5b505afa1580156128a3573d6000803e3d6000fd5b505050506040513d601f19601f820116820180604052508101906128c79190614ad4565b905060006128d58284612e93565b6001600160a01b038616600090815260106020908152604080832033845290915290205490915061290690826130c8565b6001600160a01b03861660009081526010602090815260408083203380855292529182902083905590517f4e2ca0515ed1aef1395f66b5303bb5d6f1bf9d61a353fa53f73f8ac9973fa9f692612963928992909186914290614bac565b60405180910390a1505050612ad4565b6000341161298057600080fd5b7f00000000000000000000000000000000000000000000000000000000000000006001600160a01b031663d0e30db0346040518263ffffffff1660e01b81526004016000604051808303818588803b1580156129db57600080fd5b505af11580156129ef573d6000803e3d6000fd5b5050506001600160a01b037f0000000000000000000000000000000000000000000000000000000000000000166000908152601060209081526040808320338452909152902054612a4392509050346130c8565b7f00000000000000000000000000000000000000000000000000000000000000006001600160a01b031660009081526010602090815260408083203380855292529182902083905590517f4e2ca0515ed1aef1395f66b5303bb5d6f1bf9d61a353fa53f73f8ac9973fa9f6926115fd9273eeeeeeeeeeeeeeeeeeeeeeeeeeeeeeeeeeeeeeee92909134914290614bac565b505060018055565b600080612af66009546008546130c890919063ffffffff16565b905060008111612b565760405162461bcd60e51b815260206004820152602560248201527f746f74616c5265776172644c5073466f724e6f6465206973206e6f7420706f73604482015264697469766560d81b60648201526084016108a7565b6000612b606116ad565b90506000805b8251811015612bbb57612ba7838281518110612b8457612b84614b65565b602002602001015160a01c6001600160601b0316836130c890919063ffffffff16565b915080612bb381614b91565b915050612b66565b506008546040516340c10f1960e01b815230600482015260248101919091527f00000000000000000000000000000000000000000000000000000000000000006001600160a01b0316906340c10f1990604401602060405180830381600087803b158015612c2857600080fd5b505af1158015612c3c573d6000803e3d6000fd5b505050506040513d601f19601f82011682018060405250810190612c609190614c39565b5060005b8251811015612d86577f00000000000000000000000000000000000000000000000000000000000000006001600160a01b031663a9059cbb848381518110612cae57612cae614b65565b602002602001015160001c612cf585611497888781518110612cd257612cd2614b65565b602002602001015160a01c6001600160601b03168a613b2990919063ffffffff16565b6040516001600160e01b031960e085901b1681526001600160a01b0390921660048301526024820152604401602060405180830381600087803b158015612d3b57600080fd5b505af1158015612d4f573d6000803e3d6000fd5b505050506040513d601f19601f82011682018060405250810190612d739190614c39565b5080612d7e81614b91565b915050612c64565b506040518381527f86dd6ae252e62228b47b3c1a12762cbf634952b2d29319b04f4f72fb153bcbdd9060200160405180910390a1505060006008819055600955506001919050565b6001600160a01b039182166000908152600b60205260408082205492909316815291909120549091565b6000546001600160a01b03163314612e225760405162461bcd60e51b81526004016108a790614aed565b6001600160a01b038116612e875760405162461bcd60e51b815260206004820152602660248201527f4f776e61626c653a206e6577206f776e657220697320746865207a65726f206160448201526564647265737360d01b60648201526084016108a7565b612e9081613d91565b50565b6000612e9f8284614c56565b9392505050565b73eeeeeeeeeeeeeeeeeeeeeeeeeeeeeeeeeeeeeeee612ec8602083018361493c565b6001600160a01b03161415612f175760405162461bcd60e51b815260206004820152601560248201527455736520706174682077455448202d3e207742544360581b60448201526064016108a7565b73eeeeeeeeeeeeeeeeeeeeeeeeeeeeeeeeeeeeeeee612f3c604083016020840161493c565b6001600160a01b03161415612f8b5760405162461bcd60e51b81526020600482015260156024820152740aae6ca40e0c2e8d040ee84a886405a7c40ee8aa89605b1b60448201526064016108a7565b600073def171fe48cf0115b1d80b88dc8eab59176fee576001600160a01b031663d2c4b5986040518163ffffffff1660e01b815260040160206040518083038186803b158015612fda57600080fd5b505afa158015612fee573d6000803e3d6000fd5b505050506040513d601f19601f820116820180604052508101906130129190614c6d565b905061303a81604084013561302a602086018661493c565b6001600160a01b03169190613fa2565b6040516354e3f31b60e01b815273def171fe48cf0115b1d80b88dc8eab59176fee57906354e3f31b90613071908590600401614de0565b602060405180830381600087803b15801561308b57600080fd5b505af115801561309f573d6000803e3d6000fd5b505050506040513d601f19601f820116820180604052508101906130c39190614ad4565b505050565b6000612e9f8284614f96565b6004546040516bffffffffffffffffffffffff197f000000000000000000000000000000000000000000000000000000000000000060601b1660208201526034810191909152605481018390526074810182905242609482015260009060b40160408051808303601f19018152828252805160209182012060a0840183528084528184018781523385850190815260608601888152426080880190815260048054600090815260039788905297909720975188559251600188015590516002870180546001600160a01b0319166001600160a01b0390921691909117905551928501929092559051929091019190915590506131ce614063565b6004546131dc9060016130c8565b60045560408051828152602081018590523391810191909152606081018390524260808201527f058800492a0e9d1ce3d60aa19b5a711354aaf0d831a5fa20197617dc4c0a573e9060a0015b60405180910390a1505050565b60408051808201825260208082527f5f737761703a20666c6f617420616d6f756e7420696e73756666696369656e74818301526001600160a01b0385166000908152600b909152919091205461328c918390613ef0565b6001600160a01b038084166000908152600b602052604080822093909355908516815220546132bb90826130c8565b6001600160a01b038481166000818152600b60209081526040918290209490945580519182529185169281019290925281018290527fea368a40e9570069bb8e6511d668293ad2e1f03b0d982431fd223de9f3b70ca690606001613228565b80613323575050565b7f00000000000000000000000000000000000000000000000000000000000000006001600160a01b0316826001600160a01b031614156133c15760095461336a90826130c8565b600955604080516001600160a01b0384168152602081018390526000818301819052606082015290517fe3debe835f6848edc082b32a1d729781d3bfcd7e14422d80bcaa6794d3816b2f9181900360800190a15050565b60006133cb61137c565b6001600160a01b0384166000908152600b60205260409020549091506133f190836130c8565b6001600160a01b0384166000908152600b602052604081209190915560075461342b9060649061149790869062010000900460ff16613b29565b9050600061345d83611497847f0000000000000000000000000000000000000000000000000000000000000000613b29565b60085490915061346d90826130c8565b600855604080516001600160a01b038716815260208101869052908101829052606081018490527fe3debe835f6848edc082b32a1d729781d3bfcd7e14422d80bcaa6794d3816b2f9060800160405180910390a15050505050565b60005b815181101561352c576001600c60008484815181106134ec576134ec614b65565b6020026020010151815260200190815260200160002060006101000a81548160ff021916908315150217905550808061352490614b91565b9150506134cb565b5050565b7f00000000000000000000000000000000000000000000000000000000000000006001600160a01b0316836001600160a01b0316141561359757613594817f0000000000000000000000000000000000000000000000000000000000000000613b29565b90505b60405163a9059cbb60e01b81526001600160a01b0383811660048301526024820183905284169063a9059cbb90604401602060405180830381600087803b1580156135e157600080fd5b505af11580156135f5573d6000803e3d6000fd5b505050506040513d601f19601f820116820180604052508101906136199190614c39565b6130c357600080fd5b6000818152600c602052604081205460ff16156136515760405162461bcd60e51b81526004016108a790614c02565b8361369e5760405162461bcd60e51b815260206004820152601c60248201527f546865207472616e73616374696f6e206973206e6f742076616c69640000000060448201526064016108a7565b8360a081901c60006136ae61137c565b905060006136e07f00000000000000000000000000000000000000000000000000000000000000006114978585613b29565b6007549091506000906137079061271090611497908590640100000000900460ff16613b29565b9050876137148383612e93565b101561377f5760405162461bcd60e51b815260206004820152603460248201527f4572726f723a20616d6f756e744f66466c6f61742e737562287769746864726160448201527377616c4665657329203c205f6d696e657246656560601b60648201526084016108a7565b600061378f89610c428585612e93565b90506000806137bf60007f0000000000000000000000000000000000000000000000000000000000000000612dce565b90925090506001600160a01b038d16613830576137dc8585612e93565b82101561382b5760405162461bcd60e51b815260206004820152601f60248201527f54686520666c6f61742062616c616e636520696e73756666696369656e742e0060448201526064016108a7565b6138c3565b7f00000000000000000000000000000000000000000000000000000000000000006001600160a01b03168d6001600160a01b031614156138c3576138748585612e93565b8110156138c35760405162461bcd60e51b815260206004820152601f60248201527f54686520666c6f61742062616c616e636520696e73756666696369656e742e0060448201526064016108a7565b6138cd8d8561331a565b6138d78d86614186565b6138e08a613f1c565b7f00000000000000000000000000000000000000000000000000000000000000006001600160a01b03168d6001600160a01b03161415613925576139258d8985613530565b604051630852cd8d60e31b8152600481018890527f00000000000000000000000000000000000000000000000000000000000000006001600160a01b0316906342966c6890602401602060405180830381600087803b15801561398757600080fd5b505af115801561399b573d6000803e3d6000fd5b505050506040513d601f19601f820116820180604052508101906139bf9190614c39565b6139c857600080fd5b604080516001600160a01b038a16815260208101899052908101869052606081018790526080810184905260a081018b90527fa9da34e5e4a956b744307ae7611795634e8365951073bf049d76b64b2ae7a0589060c00160405180910390a15060019c9b505050505050505050505050565b6000806000613a6a60007f0000000000000000000000000000000000000000000000000000000000000000612dce565b90925090506000613a8f6003611497600261149189613a8989896130c8565b906130c8565b90507f00000000000000000000000000000000000000000000000000000000000000006001600160a01b0316866001600160a01b0316148015613adb575080613ad883876130c8565b10155b15613aec5760019350505050612720565b6001600160a01b038616158015613b0c575080613b0984876130c8565b10155b15613b1d5760029350505050612720565b50600095945050505050565b6000612e9f8284614fae565b6000612e9f8284614fcd565b6000818152600c602052604081205460ff1615613b705760405162461bcd60e51b81526004016108a790614c02565b83613bbd5760405162461bcd60e51b815260206004820152601c60248201527f546865207472616e73616374696f6e206973206e6f742076616c69640000000060448201526064016108a7565b8360a081901c6000613bcd61137c565b90506000613bff82611497857f0000000000000000000000000000000000000000000000000000000000000000613b29565b90506000613c0d8a856112cc565b9050600081613c1d576000613c2d565b613c2d6127106114978585613b29565b9050888015613c3b57508015155b15613c4557600080fd5b6001600160a01b037f0000000000000000000000000000000000000000000000000000000000000000166340c10f1987613c7f8685612e93565b6040516001600160e01b031960e085901b1681526001600160a01b0390921660048301526024820152604401602060405180830381600087803b158015613cc557600080fd5b505af1158015613cd9573d6000803e3d6000fd5b505050506040513d601f19601f82011682018060405250810190613cfd9190614c39565b50600854613d0b90826130c8565b600855613d188b866141e3565b613d2188613f1c565b604080516001600160a01b038816815260208101879052908101849052606081018590526080810182905260a081018990527fdfaf4e23f7030adafec91a682e05bf9fb30c721f9cec3d8bcfae0459c5362db19060c00160405180910390a15060019a9950505050505050505050565b600080546001600160a01b038381166001600160a01b0319831681178455604051919092169283917f8be0079c531659141344cd1fd0a4f28419497f9722a3daafe3b4186f6b6457e09190a35050565b6002819055604080518281524260208201527fa1cc12e33e9907b789fd3c10ea0afd9d3e563e2db44d84c7269534f1046d1ca1910160405180910390a150565b60008115613e4a57506001600160a01b0383166000908152600d60205260408120556001612e9f565b6001600160a01b0384166000908152600e602052604090205460ff16613ece57600f805460018082019092557f8d1108e10bcb7c27dddfc02ed9d693a074039d026cf4ea4240b40f7d581ac8020180546001600160a01b0319166001600160a01b0387169081179091556000908152600e60205260409020805460ff191690911790555b50506001600160a01b03919091166000908152600d6020526040902055600190565b60008184841115613f145760405162461bcd60e51b81526004016108a7919061501b565b505050900390565b6000908152600c60205260409020805460ff19166001179055565b6040516001600160a01b03808516602483015283166044820152606481018290526111c59085906323b872dd60e01b906084015b60408051601f198184030181529190526020810180516001600160e01b03166001600160e01b031990931692909217909152614206565b604051636eb1769f60e11b81523060048201526001600160a01b038381166024830152600091839186169063dd62ed3e9060440160206040518083038186803b158015613fee57600080fd5b505afa158015614002573d6000803e3d6000fd5b505050506040513d601f19601f820116820180604052508101906140269190614ad4565b6140309190614f96565b6040516001600160a01b0385166024820152604481018290529091506111c590859063095ea7b360e01b90606401613f6b565b60055442905b600454811161352c57600254600082815260036020526040902060040154839161409391906130c8565b1015614174576000818152600360208181526040808420909201546001600160a01b037f0000000000000000000000000000000000000000000000000000000000000000168452601082528284203085529091529120546140f391612e93565b6001600160a01b037f0000000000000000000000000000000000000000000000000000000000000000166000908152601060209081526040808320308452825280832093909355838252600390819052918120818155600181018290556002810180546001600160a01b031916905591820181905560049091015560058190555b8061417e81614b91565b915050614069565b6141c38160405180606001604052806027815260200161506b602791396001600160a01b0385166000908152600b60205260409020549190613ef0565b6001600160a01b039092166000908152600b602052604090209190915550565b6001600160a01b0382166000908152600b60205260409020546141c390826130c8565b600061425b826040518060400160405280602081526020017f5361666545524332303a206c6f772d6c6576656c2063616c6c206661696c6564815250856001600160a01b03166142d89092919063ffffffff16565b8051909150156130c357808060200190518101906142799190614c39565b6130c35760405162461bcd60e51b815260206004820152602a60248201527f5361666545524332303a204552433230206f7065726174696f6e20646964206e6044820152691bdd081cdd58d8d9595960b21b60648201526084016108a7565b60606142e784846000856142ef565b949350505050565b6060824710156143505760405162461bcd60e51b815260206004820152602660248201527f416464726573733a20696e73756666696369656e742062616c616e636520666f6044820152651c8818d85b1b60d21b60648201526084016108a7565b843b61439e5760405162461bcd60e51b815260206004820152601d60248201527f416464726573733a2063616c6c20746f206e6f6e2d636f6e747261637400000060448201526064016108a7565b600080866001600160a01b031685876040516143ba919061504e565b60006040518083038185875af1925050503d80600081146143f7576040519150601f19603f3d011682016040523d82523d6000602084013e6143fc565b606091505b509150915061440c828286614417565b979650505050505050565b60608315614426575081612e9f565b8251156144365782518084602001fd5b8160405162461bcd60e51b81526004016108a7919061501b565b634e487b7160e01b600052600160045260246000fd5b60006101e0828403121561447957600080fd5b50919050565b6000806040838503121561449257600080fd5b82359150602083013567ffffffffffffffff8111156144b057600080fd5b6144bc85828601614466565b9150509250929050565b6001600160a01b0381168114612e9057600080fd5b80356144e6816144c6565b919050565b634e487b7160e01b600052604160045260246000fd5b604051601f8201601f1916810167ffffffffffffffff8111828210171561452a5761452a6144eb565b604052919050565b600067ffffffffffffffff82111561454c5761454c6144eb565b5060051b60200190565b600082601f83011261456757600080fd5b8135602061457c61457783614532565b614501565b82815260059290921b8401810191818101908684111561459b57600080fd5b8286015b848110156145b6578035835291830191830161459f565b509695505050505050565b60008060008060008060c087890312156145da57600080fd5b86356145e5816144c6565b955060208701356145f5816144c6565b945060408701359350606087013592506080870135915060a087013567ffffffffffffffff81111561462657600080fd5b61463289828a01614556565b9150509295509295509295565b60006020828403121561465157600080fd5b5035919050565b602080825282518282018190526000919060409081850190868401855b828110156146c2578151805185528681015187860152858101516001600160a01b031686860152606080820151908601526080908101519085015260a09093019290850190600101614675565b5091979650505050505050565b600080600080608085870312156146e557600080fd5b84356146f0816144c6565b966020860135965060408601359560600135945092505050565b6000806040838503121561471d57600080fd5b8235614728816144c6565b946020939093013593505050565b6000806040838503121561474957600080fd5b8235614754816144c6565b91506020830135614764816144c6565b809150509250929050565b8015158114612e9057600080fd5b6000806000806080858703121561479357600080fd5b843561479e816144c6565b93506020850135925060408501356147b58161476f565b9396929550929360600135925050565b6020808252825182820181905260009190848201906040850190845b818110156147fd578351835292840192918401916001016147e1565b50909695505050505050565b803560ff811681146144e657600080fd5b600080600080600080600080610100898b03121561483757600080fd5b8835614842816144c6565b975060208981013567ffffffffffffffff8082111561486057600080fd5b61486c8d838e01614556565b995060408c013591508082111561488257600080fd5b508a01601f81018c1361489457600080fd5b80356148a261457782614532565b81815260059190911b8201830190838101908e8311156148c157600080fd5b928401925b828410156148e85783356148d98161476f565b825292840192908401906148c6565b809a5050505050506148fc60608a01614809565b945061490a60808a01614809565b935061491860a08a01614809565b925061492660c08a01614809565b915060e089013590509295985092959890939650565b60006020828403121561494e57600080fd5b8135612e9f816144c6565b600080600080600060a0868803121561497157600080fd5b853561497c816144c6565b9450602086013567ffffffffffffffff8082111561499957600080fd5b6149a589838a01614556565b9550604088013594506060880135935060808801359150808211156149c957600080fd5b506149d688828901614556565b9150509295509295909350565b600080600080608085870312156149f957600080fd5b8435614a04816144c6565b93506020850135925060408501359150606085013567ffffffffffffffff811115614a2e57600080fd5b614a3a87828801614556565b91505092959194509250565b600060208284031215614a5857600080fd5b813567ffffffffffffffff811115614a6f57600080fd5b6142e784828501614466565b60008060408385031215614a8e57600080fd5b50508035926020909101359150565b6020808252601f908201527f5265656e7472616e637947756172643a207265656e7472616e742063616c6c00604082015260600190565b600060208284031215614ae657600080fd5b5051919050565b6020808252818101527f4f776e61626c653a2063616c6c6572206973206e6f7420746865206f776e6572604082015260600190565b60208082526023908201527f5f64657374546f6b656e2073686f756c64206e6f74206265206164647265737360408201526228302960e81b606082015260800190565b634e487b7160e01b600052603260045260246000fd5b634e487b7160e01b600052601160045260246000fd5b6000600019821415614ba557614ba5614b7b565b5060010190565b6001600160a01b03958616815293909416602084015260408301919091526060820152608081019190915260a00190565b600060ff821660ff84168060ff03821115614bfa57614bfa614b7b565b019392505050565b60208082526018908201527f546865207478696420697320616c726561647920757365640000000000000000604082015260600190565b600060208284031215614c4b57600080fd5b8151612e9f8161476f565b600082821015614c6857614c68614b7b565b500390565b600060208284031215614c7f57600080fd5b8151612e9f816144c6565b6000808335601e19843603018112614ca157600080fd5b830160208101925035905067ffffffffffffffff811115614cc157600080fd5b8060051b3603831315614cd357600080fd5b9250929050565b8183526000602080850194508260005b85811015614d18578135614cfd816144c6565b6001600160a01b031687529582019590820190600101614cea565b509495945050505050565b6000808335601e19843603018112614d3a57600080fd5b830160208101925035905067ffffffffffffffff811115614d5a57600080fd5b803603831315614cd357600080fd5b81835281816020850137506000828201602090810191909152601f909101601f19169091010190565b81835260006001600160fb1b03831115614dab57600080fd5b8260051b8083602087013760009401602001938452509192915050565b80356001600160801b0319811681146144e657600080fd5b60208152614e0160208201614df4846144db565b6001600160a01b03169052565b6000614e0f602084016144db565b6001600160a01b0381166040840152506040830135606083015260608301356080830152608083013560a0830152614e4a60a0840184614c8a565b6101e08060c0860152614e6261020086018385614cda565b9250614e7160c0870187614d23565b9250601f19808786030160e0880152614e8b858584614d69565b9450614e9a60e0890189614c8a565b94509150610100818887030181890152614eb5868685614d92565b9550614ec3818a018a614c8a565b9550925050610120818887030181890152614edf868685614d92565b9550614eec818a016144db565b9450506101409150614f08828801856001600160a01b03169052565b614f138289016144db565b93506101609150614f2e828801856001600160a01b03169052565b61018093508188013584880152614f4784890189614d23565b945091506101a0818887030181890152614f62868685614d69565b95506101c094508089013585890152505050614f7f828701614dc8565b6001600160801b0319169401939093529392505050565b60008219821115614fa957614fa9614b7b565b500190565b6000816000190483118215151615614fc857614fc8614b7b565b500290565b600082614fea57634e487b7160e01b600052601260045260246000fd5b500490565b60005b8381101561500a578181015183820152602001614ff2565b838111156111c55750506000910152565b602081526000825180602084015261503a816040850160208701614fef565b601f01601f19169190910160400192915050565b60008251615060818460208701614fef565b919091019291505056fe5f72656d6f7665466c6f61743a20666c6f617420616d6f756e7420696e73756666696369656e74a2646970667358221220b87ea3fc8d71e67778ab70b3d615ff7a4ff3361359674d0300c8b38424a8254c64736f6c63430008090033",
  "linkReferences": {},
  "deployedLinkReferences": {}
}