{
  "_format": "hh-sol-artifact-1",
  "contractName": "SwapContractFactory",
  "sourceName": "contracts/SwapContractFactory.sol",
  "abi": [
    {
      "anonymous": false,
      "inputs": [
        {
          "indexed": false,
          "internalType": "address",
          "name": "lpToken",
          "type": "address"
        },
        {
          "indexed": false,
          "internalType": "address",
          "name": "swapContract",
          "type": "address"
        }
      ],
      "name": "Deployed",
      "type": "event"
    },
    {
      "stateMutability": "nonpayable",
      "type": "fallback"
    },
    {
      "inputs": [
        {
          "internalType": "address",
          "name": "_owner",
          "type": "address"
        },
        {
          "internalType": "address",
          "name": "_wbtc",
          "type": "address"
        },
        {
          "internalType": "address",
          "name": "_wETH",
          "type": "address"
        },
        {
          "internalType": "uint8",
          "name": "_decimals",
          "type": "uint8"
        },
        {
          "internalType": "uint256",
          "name": "_existingBTCFloat",
          "type": "uint256"
        }
      ],
      "name": "deployNewContracts",
      "outputs": [
        {
          "internalType": "address",
          "name": "",
          "type": "address"
        }
      ],
      "stateMutability": "nonpayable",
      "type": "function"
    }
  ],
  "bytecode": "0x608060405234801561001057600080fd5b50617ae5806100206000396000f3fe608060405234801561001057600080fd5b506004361061002b5760003560e01c806391988dce14610030575b600080fd5b61004361003e36600461022f565b61005f565b6040516001600160a01b03909116815260200160405180910390f35b6000808360405161006f906101f7565b60ff9091168152602001604051809103906000f080158015610095573d6000803e3d6000fd5b5090506000818787866040516100aa90610205565b6001600160a01b0394851681529284166020840152921660408201526060810191909152608001604051809103906000f0801580156100ed573d6000803e3d6000fd5b5060405163f2fde38b60e01b81526001600160a01b0380831660048301529192509083169063f2fde38b90602401600060405180830381600087803b15801561013557600080fd5b505af1158015610149573d6000803e3d6000fd5b505060405163f2fde38b60e01b81526001600160a01b038b811660048301528416925063f2fde38b9150602401600060405180830381600087803b15801561019057600080fd5b505af11580156101a4573d6000803e3d6000fd5b5050604080516001600160a01b038087168252851660208201527f09e48df7857bd0c1e0d31bb8a85d42cf1874817895f171c917f6ee2cea73ec20935001905060405180910390a1979650505050505050565b6111a4806200029483390190565b616678806200143883390190565b80356001600160a01b038116811461022a57600080fd5b919050565b600080600080600060a0868803121561024757600080fd5b61025086610213565b945061025e60208701610213565b935061026c60408701610213565b9250606086013560ff8116811461028257600080fd5b94979396509194608001359291505056fe60806040523480156200001157600080fd5b50604051620011a4380380620011a483398101604081905262000034916200032f565b6200003f33620000af565b620000a86040518060400160405280601481526020017f5377696e67627920425443204c5020546f6b656e00000000000000000000000081525060405180604001604052806005815260200164736242544360d81b8152508360006001620000ff60201b60201c565b50620003b8565b600080546001600160a01b038381166001600160a01b0319831681178455604051919092169283917f8be0079c531659141344cd1fd0a4f28419497f9722a3daafe3b4186f6b6457e09190a35050565b84516200011490600490602088019062000289565b5083516200012a90600590602087019062000289565b50600680548215156101000261ffff1990911660ff861617179055620001636200015c6000546001600160a01b031690565b836200016a565b5050505050565b6001600160a01b038216620001c55760405162461bcd60e51b815260206004820152601f60248201527f45524332303a206d696e7420746f20746865207a65726f206164647265737300604482015260640160405180910390fd5b620001e1816003546200027460201b620005ee1790919060201c565b6003556001600160a01b03821660009081526001602090815260409091205462000216918390620005ee62000274821b17901c565b6001600160a01b0383166000818152600160205260408082209390935591519091907fddf252ad1be2c89b69c2b068fc378daa952ba7f163c4a11628f55a4df523b3ef90620002689085815260200190565b60405180910390a35050565b600062000282828462000354565b9392505050565b82805462000297906200037b565b90600052602060002090601f016020900481019282620002bb576000855562000306565b82601f10620002d657805160ff191683800117855562000306565b8280016001018555821562000306579182015b8281111562000306578251825591602001919060010190620002e9565b506200031492915062000318565b5090565b5b8082111562000314576000815560010162000319565b6000602082840312156200034257600080fd5b815160ff811681146200028257600080fd5b600082198211156200037657634e487b7160e01b600052601160045260246000fd5b500190565b600181811c908216806200039057607f821691505b60208210811415620003b257634e487b7160e01b600052602260045260246000fd5b50919050565b610ddc80620003c86000396000f3fe608060405234801561001057600080fd5b50600436106101165760003560e01c806370a08231116100a257806395d89b411161007157806395d89b4114610248578063a457c2d714610250578063a9059cbb14610263578063dd62ed3e14610276578063f2fde38b146102af57600080fd5b806370a08231146101df578063715018a614610208578063893d20e8146102125780638da5cb5b1461023757600080fd5b8063313ce567116100e9578063313ce56714610181578063395093511461019657806340c10f19146101a957806342966c68146101bc5780634bf365df146101cf57600080fd5b806306fdde031461011b578063095ea7b31461013957806318160ddd1461015c57806323b872dd1461016e575b600080fd5b6101236102c2565b6040516101309190610b1e565b60405180910390f35b61014c610147366004610b8f565b610354565b6040519015158152602001610130565b6003545b604051908152602001610130565b61014c61017c366004610bb9565b61036a565b60065460405160ff9091168152602001610130565b61014c6101a4366004610b8f565b6103d3565b61014c6101b7366004610b8f565b610409565b61014c6101ca366004610bf5565b61049e565b600654610100900460ff1661014c565b6101606101ed366004610c0e565b6001600160a01b031660009081526001602052604090205490565b6102106104b2565b005b6000546001600160a01b03165b6040516001600160a01b039091168152602001610130565b6000546001600160a01b031661021f565b6101236104e8565b61014c61025e366004610b8f565b6104f7565b61014c610271366004610b8f565b610546565b610160610284366004610c29565b6001600160a01b03918216600090815260026020908152604080832093909416825291909152205490565b6102106102bd366004610c0e565b610553565b6060600480546102d190610c5c565b80601f01602080910402602001604051908101604052809291908181526020018280546102fd90610c5c565b801561034a5780601f1061031f5761010080835404028352916020019161034a565b820191906000526020600020905b81548152906001019060200180831161032d57829003601f168201915b5050505050905090565b6000610361338484610601565b50600192915050565b6000610377848484610726565b6103c984336103c485604051806060016040528060288152602001610d5a602891396001600160a01b038a16600090815260026020908152604080832033845290915290205491906108ac565b610601565b5060019392505050565b3360008181526002602090815260408083206001600160a01b038716845290915281205490916103619185906103c490866105ee565b600080546001600160a01b0316331461043d5760405162461bcd60e51b815260040161043490610c97565b60405180910390fd5b600654610100900460ff166104945760405162461bcd60e51b815260206004820152601a60248201527f5468697320746f6b656e206973206e6f74206d696e7461626c650000000000006044820152606401610434565b61036183836108d8565b60006104aa33836109be565b506001919050565b6000546001600160a01b031633146104dc5760405162461bcd60e51b815260040161043490610c97565b6104e66000610ac2565b565b6060600580546102d190610c5c565b600061036133846103c485604051806060016040528060258152602001610d82602591393360009081526002602090815260408083206001600160a01b038d16845290915290205491906108ac565b6000610361338484610726565b6000546001600160a01b0316331461057d5760405162461bcd60e51b815260040161043490610c97565b6001600160a01b0381166105e25760405162461bcd60e51b815260206004820152602660248201527f4f776e61626c653a206e6577206f776e657220697320746865207a65726f206160448201526564647265737360d01b6064820152608401610434565b6105eb81610ac2565b50565b60006105fa8284610ce2565b9392505050565b6001600160a01b0383166106635760405162461bcd60e51b8152602060048201526024808201527f45524332303a20617070726f76652066726f6d20746865207a65726f206164646044820152637265737360e01b6064820152608401610434565b6001600160a01b0382166106c45760405162461bcd60e51b815260206004820152602260248201527f45524332303a20617070726f766520746f20746865207a65726f206164647265604482015261737360f01b6064820152608401610434565b6001600160a01b0383811660008181526002602090815260408083209487168084529482529182902085905590518481527f8c5be1e5ebec7d5bd14f71427d1e84f3dd0314c0f7b2291e5b200ac8c7c3b92591015b60405180910390a3505050565b6001600160a01b03831661078a5760405162461bcd60e51b815260206004820152602560248201527f45524332303a207472616e736665722066726f6d20746865207a65726f206164604482015264647265737360d81b6064820152608401610434565b6001600160a01b0382166107ec5760405162461bcd60e51b815260206004820152602360248201527f45524332303a207472616e7366657220746f20746865207a65726f206164647260448201526265737360e81b6064820152608401610434565b61082981604051806060016040528060268152602001610d34602691396001600160a01b03861660009081526001602052604090205491906108ac565b6001600160a01b03808516600090815260016020526040808220939093559084168152205461085890826105ee565b6001600160a01b0380841660008181526001602052604090819020939093559151908516907fddf252ad1be2c89b69c2b068fc378daa952ba7f163c4a11628f55a4df523b3ef906107199085815260200190565b600081848411156108d05760405162461bcd60e51b81526004016104349190610b1e565b505050900390565b6001600160a01b03821661092e5760405162461bcd60e51b815260206004820152601f60248201527f45524332303a206d696e7420746f20746865207a65726f2061646472657373006044820152606401610434565b60035461093b90826105ee565b6003556001600160a01b03821660009081526001602052604090205461096190826105ee565b6001600160a01b0383166000818152600160205260408082209390935591519091907fddf252ad1be2c89b69c2b068fc378daa952ba7f163c4a11628f55a4df523b3ef906109b29085815260200190565b60405180910390a35050565b6001600160a01b038216610a1e5760405162461bcd60e51b815260206004820152602160248201527f45524332303a206275726e2066726f6d20746865207a65726f206164647265736044820152607360f81b6064820152608401610434565b610a5b81604051806060016040528060228152602001610d12602291396001600160a01b03851660009081526001602052604090205491906108ac565b6001600160a01b038316600090815260016020526040902055600354610a819082610b12565b6003556040518181526000906001600160a01b038416907fddf252ad1be2c89b69c2b068fc378daa952ba7f163c4a11628f55a4df523b3ef906020016109b2565b600080546001600160a01b038381166001600160a01b0319831681178455604051919092169283917f8be0079c531659141344cd1fd0a4f28419497f9722a3daafe3b4186f6b6457e09190a35050565b60006105fa8284610cfa565b600060208083528351808285015260005b81811015610b4b57858101830151858201604001528201610b2f565b81811115610b5d576000604083870101525b50601f01601f1916929092016040019392505050565b80356001600160a01b0381168114610b8a57600080fd5b919050565b60008060408385031215610ba257600080fd5b610bab83610b73565b946020939093013593505050565b600080600060608486031215610bce57600080fd5b610bd784610b73565b9250610be560208501610b73565b9150604084013590509250925092565b600060208284031215610c0757600080fd5b5035919050565b600060208284031215610c2057600080fd5b6105fa82610b73565b60008060408385031215610c3c57600080fd5b610c4583610b73565b9150610c5360208401610b73565b90509250929050565b600181811c90821680610c7057607f821691505b60208210811415610c9157634e487b7160e01b600052602260045260246000fd5b50919050565b6020808252818101527f4f776e61626c653a2063616c6c6572206973206e6f7420746865206f776e6572604082015260600190565b634e487b7160e01b600052601160045260246000fd5b60008219821115610cf557610cf5610ccc565b500190565b600082821015610d0c57610d0c610ccc565b50039056fe45524332303a206275726e20616d6f756e7420657863656564732062616c616e636545524332303a207472616e7366657220616d6f756e7420657863656564732062616c616e636545524332303a207472616e7366657220616d6f756e74206578636565647320616c6c6f77616e636545524332303a2064656372656173656420616c6c6f77616e63652062656c6f77207a65726fa26469706673582212209b292d08de71d5da654e35c0b4bbd71bb52e727a29faa404f7d5573904569a9264736f6c634300080900336101206040523480156200001257600080fd5b50604051620066783803806200667883398101604081905262000035916200033f565b6200004033620002d2565b600180556202a300600255615dc0600355600060068190556005556001600160a01b0380831661010052841660a08190526040805163313ce56760e01b8152905163313ce56791600480820192602092909190829003018186803b158015620000a857600080fd5b505afa158015620000bd573d6000803e3d6000fd5b505050506040513d601f19601f82011682018060405250810190620000e3919062000391565b620000f090600a620004d2565b60e0526001600160a01b03831660808190526008805464ffffff000019166414324200001781556040805163313ce56760e01b8152905191929163313ce56791600480820192602092909190829003018186803b1580156200015157600080fd5b505afa15801562000166573d6000803e3d6000fd5b505050506040513d601f19601f820116820180604052508101906200018c919062000391565b620001989190620004e3565b620001a590600a620004d2565b60c08181525050836001600160a01b031663313ce5676040518163ffffffff1660e01b815260040160206040518083038186803b158015620001e657600080fd5b505afa158015620001fb573d6000803e3d6000fd5b505050506040513d601f19601f8201168201806040525081019062000221919062000391565b6200022e90600a620004d2565b600b5560006009819055600a8190556001600160a01b039384168152600760209081526040808320805460ff199081166001908117909255979096168352822080548716861790559080527f6d5257204ebe7d88fd91ae87941cb2dd9d8062b64ae5a2bd2d28ec40b9fbf6df805490951690931790935550600d90527f81955a0a11e65eac625c29e8882660bae4e165a75d72780094acae8ece9a29ee5562000509565b600080546001600160a01b038381166001600160a01b0319831681178455604051919092169283917f8be0079c531659141344cd1fd0a4f28419497f9722a3daafe3b4186f6b6457e09190a35050565b80516001600160a01b03811681146200033a57600080fd5b919050565b600080600080608085870312156200035657600080fd5b620003618562000322565b9350620003716020860162000322565b9250620003816040860162000322565b6060959095015193969295505050565b600060208284031215620003a457600080fd5b815160ff81168114620003b657600080fd5b9392505050565b634e487b7160e01b600052601160045260246000fd5b600181815b8085111562000414578160001904821115620003f857620003f8620003bd565b808516156200040657918102915b93841c9390800290620003d8565b509250929050565b6000826200042d57506001620004cc565b816200043c57506000620004cc565b8160018114620004555760028114620004605762000480565b6001915050620004cc565b60ff841115620004745762000474620003bd565b50506001821b620004cc565b5060208310610133831016604e8410600b8410161715620004a5575081810a620004cc565b620004b18383620003d3565b8060001904821115620004c857620004c8620003bd565b0290505b92915050565b6000620003b660ff8416836200041c565b600060ff821660ff841680821015620005005762000500620003bd565b90039392505050565b60805160a05160c05160e05161010051615fc5620006b3600039600081816102a6015281816108d601528181611eca01528181611f2601528181611f9301528181611fda015281816120be01528181612e4c01528181612ec60152612f0f01526000818161180701528181613a0f01528181613f2a015261451201526000613b460152600081816105ec01528181610d3601528181610d7101528181611753015281816122550152818161229001528181613454015281816134e7015281816138fb01528181614140015261458601526000818161039a01528181610ce201528181610d1401528181610e8b01528181610f07015281816116880152818161172701528181611ae1015281816122010152818161223301528181612373015281816123a2015281816123f2015281816124850152818161251301528181612869015281816128a501528181612968015281816129dc01528181612a7301528181612c490152818161309a0152818161317c01528181613b0801528181613fd601528181614052015281816140e70152818161424b01528181614298015261471c0152615fc56000f3fe6080604052600436106102965760003560e01c80636d019f351161015a578063c810a539116100c1578063e9e9bf6a1161007a578063e9e9bf6a1461087a578063ec4827291461088f578063f2428621146108c4578063f2fde38b146108f8578063f7824bc714610918578063f7888aec1461092e576102d5565b8063c810a539146107c1578063ca0707e7146107e1578063cfbf92a9146107f4578063d38c7bb114610814578063da284dcc14610834578063e6ca20841461084a576102d5565b8063ad289e7611610113578063ad289e76146106ff578063b345a3581461071f578063b4014fe81461073f578063b6268e5d1461075f578063b81102de14610781578063bf62dcc8146107a1576102d5565b80636d019f3514610650578063715018a6146106665780638535490f1461067b5780638da5cb5b1461069b5780639b19251a146106b9578063a827278b146106e9576102d5565b80632586c562116101fe5780634db75485116101b75780634db7548514610562578063508493bc14610582578063511834c3146105ba5780635fcbd285146105da57806363f289d91461060e5780636b51e9191461062e576102d5565b80632586c562146104c05780632d55282d146104e05780632eff0d9e146104f65780633b6fa1271461050c578063424192551461052c57806345137e271461054d576102d5565b8063130b7a6311610250578063130b7a63146103f35780631411c5b7146104215780631ab7e937146104375780631bb069301461046857806320199e991461047e57806321959d3c146104a0576102d5565b806289356f146102e757806308493505146103185780630b68134d146103485780630d63aca7146103685780630f9094861461038857806312d1441e146103d4576102d5565b366102d557336001600160a01b037f000000000000000000000000000000000000000000000000000000000000000016146102d3576102d3614ec5565b005b3480156102e157600080fd5b50600080fd5b3480156102f357600080fd5b506008546103019060ff1681565b60405160ff90911681526020015b60405180910390f35b34801561032457600080fd5b50610338610333366004614ff3565b610974565b604051901515815260200161030f565b34801561035457600080fd5b506008546103019062010000900460ff1681565b34801561037457600080fd5b5061033861038336600461511e565b610c35565b34801561039457600080fd5b506103bc7f000000000000000000000000000000000000000000000000000000000000000081565b6040516001600160a01b03909116815260200161030f565b3480156103e057600080fd5b5060085461030190610100900460ff1681565b3480156103ff57600080fd5b5061041361040e3660046151e6565b610dbd565b60405190815260200161030f565b34801561042d57600080fd5b5061041360035481565b34801561044357600080fd5b5061045761045236600461526b565b6111f7565b60405161030f9594939291906152dc565b34801561047457600080fd5b5061041360065481565b34801561048a57600080fd5b506104936112ba565b60405161030f919061531b565b3480156104ac57600080fd5b506102d36104bb36600461526b565b6114bb565b3480156104cc57600080fd5b506103386104db3660046153b9565b611579565b3480156104ec57600080fd5b5061041360095481565b34801561050257600080fd5b5061041360055481565b34801561051857600080fd5b506104136105273660046153f4565b61166b565b34801561053857600080fd5b50600854610301906301000000900460ff1681565b34801561055957600080fd5b5061041361171b565b34801561056e57600080fd5b506102d361057d3660046153f4565b61184d565b34801561058e57600080fd5b5061041361059d366004615420565b601260209081526000928352604080842090915290825290205481565b3480156105c657600080fd5b506102d36105d5366004615472565b6119ac565b3480156105e657600080fd5b506103bc7f000000000000000000000000000000000000000000000000000000000000000081565b34801561061a57600080fd5b506103386106293660046154a6565b611c46565b34801561063a57600080fd5b50610643611cd7565b60405161030f91906154ee565b34801561065c57600080fd5b50610413600b5481565b34801561067257600080fd5b506102d3611e62565b34801561068757600080fd5b506102d361069636600461526b565b611e98565b3480156106a757600080fd5b506000546001600160a01b03166103bc565b3480156106c557600080fd5b506103386106d4366004615532565b60076020526000908152604090205460ff1681565b3480156106f557600080fd5b50610413600c5481565b34801561070b57600080fd5b5061033861071a36600461554f565b612154565b34801561072b57600080fd5b5061033861073a3660046155d8565b61232d565b34801561074b57600080fd5b5061041361075a36600461567b565b612451565b34801561076b57600080fd5b5060085461030190640100000000900460ff1681565b34801561078d57600080fd5b5061033861079c3660046156e3565b612815565b3480156107ad57600080fd5b506103386107bc366004615739565b612922565b3480156107cd57600080fd5b506103386107dc3660046157a3565b612afa565b6102d36107ef3660046153f4565b612bf0565b34801561080057600080fd5b5061041361080f366004615532565b612fa6565b34801561082057600080fd5b5061041361082f3660046157c5565b612fcc565b34801561084057600080fd5b5061041360025481565b34801561085657600080fd5b5061033861086536600461526b565b6000908152600e602052604090205460ff1690565b34801561088657600080fd5b5061033861337d565b34801561089b57600080fd5b506108af6108aa366004615420565b613646565b6040805192835260208301919091520161030f565b3480156108d057600080fd5b506103bc7f000000000000000000000000000000000000000000000000000000000000000081565b34801561090457600080fd5b506102d3610913366004615532565b613670565b34801561092457600080fd5b50610413600a5481565b34801561093a57600080fd5b50610413610949366004615420565b6001600160a01b03918216600090815260126020908152604080832093909416825291909152205490565b600080546001600160a01b031633146109a85760405162461bcd60e51b815260040161099f9061587c565b60405180910390fd5b60085460ff6101009091048116908716108015906109ca575060ff8660ff1611155b6109fb5760405162461bcd60e51b8152602060048201526002602482015261303160f01b604482015260640161099f565b610a066001876158c7565b60ff168760ff161015610a405760405162461bcd60e51b8152602060048201526002602482015261181960f11b604482015260640161099f565b60648560ff161115610a795760405162461bcd60e51b8152602060048201526002602482015261303360f01b604482015260640161099f565b60648460ff161115610ab25760405162461bcd60e51b81526020600482015260026024820152610c0d60f21b604482015260640161099f565b8751895114610ae85760405162461bcd60e51b8152602060048201526002602482015261303560f01b604482015260640161099f565b8215610af45760038390555b8115610b0357610b038261370b565b610b0c8a613670565b60005b8951811015610b95576000610b408b8381518110610b2f57610b2f6158ec565b60200260200101519060a082901c90565b509050610b80818c8481518110610b5957610b596158ec565b60200260200101518c8581518110610b7357610b736158ec565b602002602001015161374b565b50508080610b8d90615902565b915050610b0f565b506000610ba0611cd7565b9050606481511115610bd95760405162461bcd60e51b8152602060048201526002602482015261313360f01b604482015260640161099f565b50506008805460ff8581166401000000000264ff000000001988831662010000021664ff00ff0000198a84166101000261ffff19909516938c169390931793909317919091169190911717905560019998505050505050505050565b600080546001600160a01b03163314610c605760405162461bcd60e51b815260040161099f9061587c565b6001600160a01b03871660009081526007602052604090205460ff16610cad5760405162461bcd60e51b81526020600482015260026024820152610c4d60f21b604482015260640161099f565b6001600160a01b038716610cd35760405162461bcd60e51b815260040161099f9061591d565b60008415610d0c57610d0760007f00000000000000000000000000000000000000000000000000000000000000008761381a565b610d34565b84610d3457507f00000000000000000000000000000000000000000000000000000000000000005b7f00000000000000000000000000000000000000000000000000000000000000006001600160a01b0316886001600160a01b03161415610d9157507f00000000000000000000000000000000000000000000000000000000000000005b610d9b81856138f0565b610da483613a9e565b610daf888888613b06565b506001979650505050505050565b600060026001541415610de25760405162461bcd60e51b815260040161099f90615939565b6002600155600083838281610df957610df96158ec565b9050602002016020810190610e0e9190615532565b905060008484610e1f600182615970565b818110610e2e57610e2e6158ec565b9050602002016020810190610e439190615532565b6001600160a01b0383166000908152601260209081526040808320338452909152902054909150871115610e895760405162461bcd60e51b815260040161099f90615987565b7f00000000000000000000000000000000000000000000000000000000000000006001600160a01b0316826001600160a01b031614610f055760405162461bcd60e51b815260206004820152601860248201527726bab9ba1039bbb0b810333937b690212a21903a37b5b2b760411b604482015260640161099f565b7f00000000000000000000000000000000000000000000000000000000000000006001600160a01b0316816001600160a01b03161415610f875760405162461bcd60e51b815260206004820152601960248201527f456e64696e6720746f6b656e206d757374206265207742544300000000000000604482015260640161099f565b6001600160a01b03811673eeeeeeeeeeeeeeeeeeeeeeeeeeeeeeeeeeeeeeee1415610fec5760405162461bcd60e51b81526020600482015260156024820152740aae6ca40e0c2e8d040ee84a886405a7c40ee8aa89605b1b604482015260640161099f565b6040516370a0823160e01b81523060048201526000906001600160a01b038316906370a082319060240160206040518083038186803b15801561102e57600080fd5b505afa158015611042573d6000803e3d6000fd5b505050506040513d601f19601f8201168201806040525081019061106691906159be565b6001600160a01b03841660009081526012602090815260408083203384529091529020549091506110979089613bfd565b6001600160a01b03841660009081526012602090815260408083203384529091529020558a156110d4576110cf8a8a8a8a8a8a613c09565b6110e0565b6110e088888888613d4f565b6040516370a0823160e01b81523060048201526111649082906001600160a01b038516906370a08231906024015b60206040518083038186803b15801561112657600080fd5b505afa15801561113a573d6000803e3d6000fd5b505050506040513d601f19601f8201168201806040525081019061115e91906159be565b90613bfd565b9350868410156111865760405162461bcd60e51b815260040161099f906159d7565b8361119057600080fd5b6001600160a01b03821660009081526012602090815260408083203384529091529020546111be9085613e8f565b6001600160a01b039092166000908152601260209081526040808320338452909152902091909155505060018055979650505050505050565b6004602052600090815260409020805460018201805491929161121990615a0e565b80601f016020809104026020016040519081016040528092919081815260200182805461124590615a0e565b80156112925780601f1061126757610100808354040283529160200191611292565b820191906000526020600020905b81548152906001019060200180831161127557829003601f168201915b505050506002830154600384015460049094015492936001600160a01b039091169290915085565b606060006112d5600654600554613bfd90919063ffffffff16565b6001600160401b038111156112ec576112ec614f00565b60405190808252806020026020018201604052801561135b57816020015b6113486040518060a00160405280600080191681526020016060815260200160006001600160a01b0316815260200160008152602001600081525090565b81526020019060019003908161130a5790505b50915060006113766001600654613e8f90919063ffffffff16565b90505b60055481116114b6576004600061139b60065485613e8f90919063ffffffff16565b81526020019081526020016000206040518060a0016040529081600082015481526020016001820180546113ce90615a0e565b80601f01602080910402602001604051908101604052809291908181526020018280546113fa90615a0e565b80156114475780601f1061141c57610100808354040283529160200191611447565b820191906000526020600020905b81548152906001019060200180831161142a57829003601f168201915b505050918352505060028201546001600160a01b0316602082015260038201546040820152600490910154606090910152835184908490811061148c5761148c6158ec565b60209081029190910101526114a2826001613e8f565b9150806114ae81615902565b915050611379565b505090565b6006546000906114cb9083613e8f565b905060055481106114db57506005545b60065442905b828110156115735760025460008281526004602081905260409091200154839161150b9190613e8f565b1015611561576000818152600460205260408120818155906115306001830182614df2565b506002810180546001600160a01b031916905560006003820181905560049091015561155d816001613e8f565b6006555b8061156b81615902565b9150506114e1565b50505050565b600080546001600160a01b031633146115a45760405162461bcd60e51b815260040161099f9061587c565b60006115ae61171b565b6001600160a01b03871660009081526007602052604090205490915060ff166115fe5760405162461bcd60e51b8152602060048201526002602482015261189b60f11b604482015260640161099f565b61160a86868686613e9b565b61161357600080fd5b600191508061162061171b565b10156116625760405162461bcd60e51b8152602060048201526011602482015270496e76616c6964204c505420707269636560781b604482015260640161099f565b50949350505050565b600080611678848461423f565b90508060ff16600114156116de577f00000000000000000000000000000000000000000000000000000000000000006001600160a01b0316846001600160a01b0316146116c65760006116d4565b6008546301000000900460ff165b60ff169150611714565b8060ff1660021415611714576001600160a01b0384161561170057600061170e565b6008546301000000900460ff165b60ff1691505b5092915050565b600080600061174b60007f0000000000000000000000000000000000000000000000000000000000000000613646565b9150915060007f00000000000000000000000000000000000000000000000000000000000000006001600160a01b03166318160ddd6040518163ffffffff1660e01b815260040160206040518083038186803b1580156117aa57600080fd5b505afa1580156117be573d6000803e3d6000fd5b505050506040513d601f19601f820116820180604052508101906117e291906159be565b905080156118415761183c61180260095483613e8f90919063ffffffff16565b6118367f00000000000000000000000000000000000000000000000000000000000000006118308787613e8f565b9061432e565b9061433a565b611845565b600b545b935050505090565b600260015414156118705760405162461bcd60e51b815260040161099f90615939565b60026001556001600160a01b03821660009081526012602090815260408083203384529091529020548111156118df5760405162461bcd60e51b8152602060048201526014602482015273496e73756666696369656e742042616c616e636560601b604482015260640161099f565b6001600160a01b038216600090815260126020908152604080832033845290915290205461190d9082613bfd565b6001600160a01b03831660009081526012602090815260408083203380855292529091209190915561194190839083613b06565b6001600160a01b0382166000908152601260209081526040808320338085529252918290205491517febff2602b3f468259e1e99f613fed6691f3a6526effe6ef3e768ba7ae7a36c4f9261199c928692909186914290615a43565b60405180910390a1505060018055565b600260015414156119cf5760405162461bcd60e51b815260040161099f90615939565b6002600155336119e761014083016101208401615532565b6001600160a01b031614611a545760405162461bcd60e51b815260206004820152602e60248201527f596f752063616e206f6e6c79206578656375746520737761707320746f20796f60448201526d7572206f776e206164647265737360901b606482015260840161099f565b604081013560126000611a6a6020850185615532565b6001600160a01b031681526020810191909152604001600090812090611a9861014085016101208601615532565b6001600160a01b03166001600160a01b03168152602001908152602001600020541015611ad75760405162461bcd60e51b815260040161099f90615987565b6001600160a01b037f000000000000000000000000000000000000000000000000000000000000000016611b0e6020830183615532565b6001600160a01b031614611b765760405162461bcd60e51b815260206004820152602960248201527f66726f6d546f6b656e206d7573742062652074686520726571756972656420426044820152682a21ba103a37b5b2b760b91b606482015260840161099f565b611b7f81614346565b611be6604082013560126000611b986020860186615532565b6001600160a01b031681526020810191909152604001600090812090611bc661014086016101208701615532565b6001600160a01b0316815260208101919091526040016000205490613bfd565b60126000611bf76020850185615532565b6001600160a01b031681526020810191909152604001600090812090611c2561014085016101208601615532565b6001600160a01b031681526020810191909152604001600020555060018055565b600080546001600160a01b03163314611c715760405162461bcd60e51b815260040161099f9061587c565b6000611c7b61171b565b6001600160a01b03871660009081526007602052604090205490915060ff16611ccb5760405162461bcd60e51b8152602060048201526002602482015261189b60f11b604482015260640161099f565b61160a8686868661447e565b606060008060005b601154811015611d4a57600f600060118381548110611d0057611d006158ec565b60009182526020808320909101546001600160a01b0316835282019290925260400190205415611d3857611d35836001613e8f565b92505b80611d4281615902565b915050611cdf565b506000826001600160401b03811115611d6557611d65614f00565b604051908082528060200260200182016040528015611d8e578160200160208202803683370190505b50905060005b601154811015611e5a57600f600060118381548110611db557611db56158ec565b60009182526020808320909101546001600160a01b0316835282019290925260400190205415611e4857600f600060118381548110611df657611df66158ec565b60009182526020808320909101546001600160a01b031683528201929092526040019020548251839085908110611e2f57611e2f6158ec565b6020908102919091010152611e45836001613e8f565b92505b80611e5281615902565b915050611d94565b509392505050565b6000546001600160a01b03163314611e8c5760405162461bcd60e51b815260040161099f9061587c565b611e9660006146c8565b565b60026001541415611ebb5760405162461bcd60e51b815260040161099f90615939565b60026001556001600160a01b037f0000000000000000000000000000000000000000000000000000000000000000166000908152601260209081526040808320338452909152902054811115611f1057600080fd5b604051632e1a7d4d60e01b8152600481018290527f00000000000000000000000000000000000000000000000000000000000000006001600160a01b031690632e1a7d4d90602401600060405180830381600087803b158015611f7257600080fd5b505af1158015611f86573d6000803e3d6000fd5b5050506001600160a01b037f0000000000000000000000000000000000000000000000000000000000000000166000908152601260209081526040808320338452909152902054611fd8915082613bfd565b7f00000000000000000000000000000000000000000000000000000000000000006001600160a01b03166000908152601260209081526040808320338085529252808320939093559151829084908381818185875af1925050503d806000811461205e576040519150601f19603f3d011682016040523d82523d6000602084013e612063565b606091505b50509050806120b45760405162461bcd60e51b815260206004820152601e60248201527f72656365697665722072656a656374656420455448207472616e736665720000604482015260640161099f565b6001600160a01b037f0000000000000000000000000000000000000000000000000000000000000000166000908152601260209081526040808320338085529252918290205491517febff2602b3f468259e1e99f613fed6691f3a6526effe6ef3e768ba7ae7a36c4f926121439273eeeeeeeeeeeeeeeeeeeeeeeeeeeeeeeeeeeeeeee92909188914290615a43565b60405180910390a150506001805550565b600080546001600160a01b0316331461217f5760405162461bcd60e51b815260040161099f9061587c565b6001600160a01b03861660009081526007602052604090205460ff166121cc5760405162461bcd60e51b81526020600482015260026024820152610c4d60f21b604482015260640161099f565b6001600160a01b0386166121f25760405162461bcd60e51b815260040161099f9061591d565b6000841561222b5761222660007f00000000000000000000000000000000000000000000000000000000000000008761381a565b612253565b8461225357507f00000000000000000000000000000000000000000000000000000000000000005b7f00000000000000000000000000000000000000000000000000000000000000006001600160a01b0316876001600160a01b031614156122b057507f00000000000000000000000000000000000000000000000000000000000000005b6122ba81856138f0565b6122c383613a9e565b60005b8651811015610daf5761231b888883815181106122e5576122e56158ec565b602002602001015160001c898481518110612302576123026158ec565b602002602001015160a01c6001600160601b0316613b06565b8061232581615902565b9150506122c6565b600080546001600160a01b031633146123585760405162461bcd60e51b815260040161099f9061587c565b8361236257600080fd5b8261236c57600080fd5b61239860007f00000000000000000000000000000000000000000000000000000000000000008661381a565b6001600160a01b037f000000000000000000000000000000000000000000000000000000000000000081166000908152601260209081526040808320938916835292905220546123e89085613e8f565b6001600160a01b037f000000000000000000000000000000000000000000000000000000000000000081166000908152601260209081526040808320938a1683529290529081209190915561243d90846138f0565b61244682613a9e565b506001949350505050565b6000600260015414156124765760405162461bcd60e51b815260040161099f90615939565b60026001556001600160a01b037f0000000000000000000000000000000000000000000000000000000000000000166124b26020840184615532565b6001600160a01b031614156125095760405162461bcd60e51b815260206004820152601c60248201527f4d757374206e6f7420737761702066726f6d2042544320746f6b656e00000000604482015260640161099f565b6001600160a01b037f0000000000000000000000000000000000000000000000000000000000000000166125436040840160208501615532565b6001600160a01b0316146125925760405162461bcd60e51b815260206004820152601660248201527526bab9ba1039bbb0b8103a3790212a21903a37b5b2b760511b604482015260640161099f565b306125a561014084016101208501615532565b6001600160a01b0316146126055760405162461bcd60e51b815260206004820152602160248201527f42656e6566696369617279206d757374206265207468697320636f6e747261636044820152601d60fa1b606482015260840161099f565b60408201356012600061261b6020860186615532565b6001600160a01b031681526020808201929092526040908101600090812033825290925290205410156126605760405162461bcd60e51b815260040161099f90615987565b60006126726040840160208501615532565b6040516370a0823160e01b81523060048201526001600160a01b0391909116906370a082319060240160206040518083038186803b1580156126b357600080fd5b505afa1580156126c7573d6000803e3d6000fd5b505050506040513d601f19601f820116820180604052508101906126eb91906159be565b90506127336040840135601260006127066020880188615532565b6001600160a01b031681526020808201929092526040908101600090812033825290925290205490613bfd565b601260006127446020870187615532565b6001600160a01b031681526020808201929092526040908101600090812033825290925290205561277483614346565b6127b6816127886040860160208701615532565b6040516370a0823160e01b81523060048201526001600160a01b0391909116906370a082319060240161110e565b915082608001358210156127dc5760405162461bcd60e51b815260040161099f906159d7565b6003548210156127fe5760405162461bcd60e51b815260040161099f90615a74565b612809858584614718565b50600180559392505050565b600080546001600160a01b031633146128405760405162461bcd60e51b815260040161099f9061587c565b6001600160a01b038616156128675760405162461bcd60e51b815260040161099f9061591d565b7f000000000000000000000000000000000000000000000000000000000000000085156128db57600061289e8661115e8988613bfd565b90506128d57f000000000000000000000000000000000000000000000000000000000000000060006128d0848a613e8f565b61381a565b506128e4565b856128e4575060005b6128ee81856138f0565b82156129155761291560008052600d602052600080516020615f7083398151915254600c55565b5060019695505050505050565b600080546001600160a01b0316331461294d5760405162461bcd60e51b815260040161099f9061587c565b8361295757600080fd5b8261296157600080fd5b61298d60007f00000000000000000000000000000000000000000000000000000000000000008661381a565b6129986000846138f0565b6129a182613a9e565b60005b8551811015612aee57612a698682815181106129c2576129c26158ec565b602002602001015160a01c6001600160601b0316601260007f00000000000000000000000000000000000000000000000000000000000000006001600160a01b03166001600160a01b031681526020019081526020016000206000898581518110612a2f57612a2f6158ec565b602002602001015160001c6001600160a01b03166001600160a01b0316815260200190815260200160002054613e8f90919063ffffffff16565b6001600160a01b037f00000000000000000000000000000000000000000000000000000000000000001660009081526012602052604081208851909190899085908110612ab857612ab86158ec565b6020908102919091018101516001600160a01b031682528101919091526040016000205580612ae681615902565b9150506129a4565b50600195945050505050565b600080546001600160a01b03163314612b255760405162461bcd60e51b815260040161099f9061587c565b6000828152600e602052604090205460ff1615612b845760405162461bcd60e51b815260206004820152601860248201527f546865207478696420697320616c726561647920757365640000000000000000604482015260640161099f565b604080518082019091526002815261189960f11b60208083019190915260008052600d9052600080516020615f7083398151915254612bc49185906148a4565b60008052600d602052600080516020615f7083398151915255612be6826148d0565b5060015b92915050565b60026001541415612c135760405162461bcd60e51b815260040161099f90615939565b600260015534612e3d576001600160a01b03821673eeeeeeeeeeeeeeeeeeeeeeeeeeeeeeeeeeeeeeee1415612c4757600080fd5b7f00000000000000000000000000000000000000000000000000000000000000006001600160a01b0316826001600160a01b03161415612c8657600080fd5b6040516370a0823160e01b81523060048201526000906001600160a01b038416906370a082319060240160206040518083038186803b158015612cc857600080fd5b505afa158015612cdc573d6000803e3d6000fd5b505050506040513d601f19601f82011682018060405250810190612d0091906159be565b9050612d176001600160a01b0384163330856148eb565b6040516370a0823160e01b81523060048201526000906001600160a01b038516906370a082319060240160206040518083038186803b158015612d5957600080fd5b505afa158015612d6d573d6000803e3d6000fd5b505050506040513d601f19601f82011682018060405250810190612d9191906159be565b90506000612d9f8284613bfd565b6001600160a01b0386166000908152601260209081526040808320338452909152902054909150612dd09082613e8f565b6001600160a01b03861660009081526012602090815260408083203380855292529182902083905590517f4e2ca0515ed1aef1395f66b5303bb5d6f1bf9d61a353fa53f73f8ac9973fa9f692612e2d928992909186914290615a43565b60405180910390a1505050612f9e565b60003411612e4a57600080fd5b7f00000000000000000000000000000000000000000000000000000000000000006001600160a01b031663d0e30db0346040518263ffffffff1660e01b81526004016000604051808303818588803b158015612ea557600080fd5b505af1158015612eb9573d6000803e3d6000fd5b5050506001600160a01b037f0000000000000000000000000000000000000000000000000000000000000000166000908152601260209081526040808320338452909152902054612f0d9250905034613e8f565b7f00000000000000000000000000000000000000000000000000000000000000006001600160a01b031660009081526012602090815260408083203380855292529182902083905590517f4e2ca0515ed1aef1395f66b5303bb5d6f1bf9d61a353fa53f73f8ac9973fa9f69261199c9273eeeeeeeeeeeeeeeeeeeeeeeeeeeeeeeeeeeeeeee92909134914290615a43565b505060018055565b6001600160a01b0381166000908152600f602052604081205460a081901c5b9392505050565b600060026001541415612ff15760405162461bcd60e51b815260040161099f90615939565b6002600155600083838281613008576130086158ec565b905060200201602081019061301d9190615532565b90506000848461302e600182615970565b81811061303d5761303d6158ec565b90506020020160208101906130529190615532565b6001600160a01b03831660009081526012602090815260408083203384529091529020549091508711156130985760405162461bcd60e51b815260040161099f90615987565b7f00000000000000000000000000000000000000000000000000000000000000006001600160a01b0316826001600160a01b031614156131155760405162461bcd60e51b815260206004820152601860248201527726bab9ba1039bbb0b810333937b690212a21903a37b5b2b760411b604482015260640161099f565b6001600160a01b03821673eeeeeeeeeeeeeeeeeeeeeeeeeeeeeeeeeeeeeeee141561317a5760405162461bcd60e51b815260206004820152601560248201527455736520706174682077455448202d3e207742544360581b604482015260640161099f565b7f00000000000000000000000000000000000000000000000000000000000000006001600160a01b0316816001600160a01b0316146131f45760405162461bcd60e51b815260206004820152601660248201527526bab9ba1039bbb0b8103a3790212a21903a37b5b2b760511b604482015260640161099f565b6040516370a0823160e01b81523060048201526000906001600160a01b038316906370a082319060240160206040518083038186803b15801561323657600080fd5b505afa15801561324a573d6000803e3d6000fd5b505050506040513d601f19601f8201168201806040525081019061326e91906159be565b6001600160a01b038416600090815260126020908152604080832033845290915290205490915061329f9089613bfd565b6001600160a01b03841660009081526012602090815260408083203384529091529020558a156132dc576132d78a8a8a8a8a8a613c09565b6132e8565b6132e888888888613d4f565b6040516370a0823160e01b815230600482015261331a9082906001600160a01b038516906370a082319060240161110e565b93508684101561333c5760405162461bcd60e51b815260040161099f906159d7565b60035484101561335e5760405162461bcd60e51b815260040161099f90615a74565b6133698d8d86614718565b505050600180559998505050505050505050565b600080613397600a54600954613e8f90919063ffffffff16565b9050600081116133ce5760405162461bcd60e51b8152602060048201526002602482015261313760f01b604482015260640161099f565b60006133d8611cd7565b90506000805b82518110156134335761341f8382815181106133fc576133fc6158ec565b602002602001015160a01c6001600160601b031683613e8f90919063ffffffff16565b91508061342b81615902565b9150506133de565b506009546040516340c10f1960e01b815230600482015260248101919091527f00000000000000000000000000000000000000000000000000000000000000006001600160a01b0316906340c10f1990604401602060405180830381600087803b1580156134a057600080fd5b505af11580156134b4573d6000803e3d6000fd5b505050506040513d601f19601f820116820180604052508101906134d89190615ac8565b5060005b82518110156135fe577f00000000000000000000000000000000000000000000000000000000000000006001600160a01b031663a9059cbb848381518110613526576135266158ec565b602002602001015160001c61356d8561183688878151811061354a5761354a6158ec565b602002602001015160a01c6001600160601b03168a61432e90919063ffffffff16565b6040516001600160e01b031960e085901b1681526001600160a01b0390921660048301526024820152604401602060405180830381600087803b1580156135b357600080fd5b505af11580156135c7573d6000803e3d6000fd5b505050506040513d601f19601f820116820180604052508101906135eb9190615ac8565b50806135f681615902565b9150506134dc565b506040518381527f86dd6ae252e62228b47b3c1a12762cbf634952b2d29319b04f4f72fb153bcbdd9060200160405180910390a1505060006009819055600a55506001919050565b6001600160a01b039182166000908152600d60205260408082205492909316815291909120549091565b6000546001600160a01b0316331461369a5760405162461bcd60e51b815260040161099f9061587c565b6001600160a01b0381166136ff5760405162461bcd60e51b815260206004820152602660248201527f4f776e61626c653a206e6577206f776e657220697320746865207a65726f206160448201526564647265737360d01b606482015260840161099f565b613708816146c8565b50565b6002819055604080518281524260208201527fa1cc12e33e9907b789fd3c10ea0afd9d3e563e2db44d84c7269534f1046d1ca1910160405180910390a150565b6000811561377457506001600160a01b0383166000908152600f60205260408120556001612fc5565b6001600160a01b03841660009081526010602052604090205460ff166137f8576011805460018082019092557f31ecc21a745e3968a04e9570e4425bc18fa8019c68028196b546d1669c200c680180546001600160a01b0319166001600160a01b0387169081179091556000908152601060205260409020805460ff191690911790555b50506001600160a01b03919091166000908152600f6020526040902055600190565b6040805180820182526002815261313160f01b6020808301919091526001600160a01b0385166000908152600d909152919091205461385a9183906148a4565b6001600160a01b038084166000908152600d602052604080822093909355908516815220546138899082613e8f565b6001600160a01b038481166000818152600d60209081526040918290209490945580519182529185169281019290925281018290527fea368a40e9570069bb8e6511d668293ad2e1f03b0d982431fd223de9f3b70ca69060600160405180910390a1505050565b806138f9575050565b7f00000000000000000000000000000000000000000000000000000000000000006001600160a01b0316826001600160a01b0316141561399757600a546139409082613e8f565b600a55604080516001600160a01b0384168152602081018390526000818301819052606082015290517fe3debe835f6848edc082b32a1d729781d3bfcd7e14422d80bcaa6794d3816b2f9181900360800190a15050565b60006139a161171b565b6001600160a01b0384166000908152600d60205260409020549091506139c79083613e8f565b6001600160a01b0384166000908152600d6020526040812091909155600854613a019060649061183690869062010000900460ff1661432e565b90506000613a3383611836847f000000000000000000000000000000000000000000000000000000000000000061432e565b600954909150613a439082613e8f565b600955604080516001600160a01b038716815260208101869052908101829052606081018490527fe3debe835f6848edc082b32a1d729781d3bfcd7e14422d80bcaa6794d3816b2f9060800160405180910390a15050505050565b60005b8151811015613b02576001600e6000848481518110613ac257613ac26158ec565b6020026020010151815260200190815260200160002060006101000a81548160ff0219169083151502179055508080613afa90615902565b915050613aa1565b5050565b7f00000000000000000000000000000000000000000000000000000000000000006001600160a01b0316836001600160a01b03161415613b6d57613b6a817f000000000000000000000000000000000000000000000000000000000000000061432e565b90505b60405163a9059cbb60e01b81526001600160a01b0383811660048301526024820183905284169063a9059cbb90604401602060405180830381600087803b158015613bb757600080fd5b505af1158015613bcb573d6000803e3d6000fd5b505050506040513d601f19601f82011682018060405250810190613bef9190615ac8565b613bf857600080fd5b505050565b6000612fc58284615970565b600082826000818110613c1e57613c1e6158ec565b9050602002016020810190613c339190615532565b9050600073def171fe48cf0115b1d80b88dc8eab59176fee576001600160a01b031663d2c4b5986040518163ffffffff1660e01b815260040160206040518083038186803b158015613c8457600080fd5b505afa158015613c98573d6000803e3d6000fd5b505050506040513d601f19601f82011682018060405250810190613cbc9190615ae5565b9050613cd26001600160a01b0383168288614956565b604051633d59840d60e21b815273def171fe48cf0115b1d80b88dc8eab59176fee579063f566103490613d13908b908b908b908b908b908b90600401615b4b565b600060405180830381600087803b158015613d2d57600080fd5b505af1158015613d41573d6000803e3d6000fd5b505050505050505050505050565b600082826000818110613d6457613d646158ec565b9050602002016020810190613d799190615532565b9050600073def171fe48cf0115b1d80b88dc8eab59176fee576001600160a01b031663d2c4b5986040518163ffffffff1660e01b815260040160206040518083038186803b158015613dca57600080fd5b505afa158015613dde573d6000803e3d6000fd5b505050506040513d601f19601f82011682018060405250810190613e029190615ae5565b9050613e186001600160a01b0383168288614956565b604051632a42068d60e11b815273def171fe48cf0115b1d80b88dc8eab59176fee57906354840d1a90613e55908990899089908990600401615b8b565b600060405180830381600087803b158015613e6f57600080fd5b505af1158015613e83573d6000803e3d6000fd5b50505050505050505050565b6000612fc58284615bb5565b6000818152600e602052604081205460ff1615613edf5760405162461bcd60e51b8152602060048201526002602482015261181b60f11b604482015260640161099f565b83613f115760405162461bcd60e51b8152602060048201526002602482015261303760f01b604482015260640161099f565b8360a081901c6000613f2161171b565b90506000613f537f0000000000000000000000000000000000000000000000000000000000000000611836858561432e565b600854909150600090613f7a9061271090611836908590640100000000900460ff1661432e565b905087613f878383613bfd565b1015613fba5760405162461bcd60e51b8152602060048201526002602482015261303960f01b604482015260640161099f565b6000613fca8961115e8585613bfd565b9050600080613ffa60007f0000000000000000000000000000000000000000000000000000000000000000613646565b90925090506001600160a01b038d16614050576140178585613bfd565b82101561404b5760405162461bcd60e51b8152602060048201526002602482015261060760f31b604482015260640161099f565b6140c8565b7f00000000000000000000000000000000000000000000000000000000000000006001600160a01b03168d6001600160a01b031614156140c8576140948585613bfd565b8110156140c85760405162461bcd60e51b8152602060048201526002602482015261189960f11b604482015260640161099f565b6140d28d856138f0565b6140dc8d86614a17565b6140e58a6148d0565b7f00000000000000000000000000000000000000000000000000000000000000006001600160a01b03168d6001600160a01b0316141561412a5761412a8d8985613b06565b604051630852cd8d60e31b8152600481018890527f00000000000000000000000000000000000000000000000000000000000000006001600160a01b0316906342966c6890602401602060405180830381600087803b15801561418c57600080fd5b505af11580156141a0573d6000803e3d6000fd5b505050506040513d601f19601f820116820180604052508101906141c49190615ac8565b6141cd57600080fd5b604080516001600160a01b038a16815260208101899052908101869052606081018790526080810184905260a081018b90527fa9da34e5e4a956b744307ae7611795634e8365951073bf049d76b64b2ae7a0589060c00160405180910390a15060019c9b505050505050505050505050565b600080600061426f60007f0000000000000000000000000000000000000000000000000000000000000000613646565b90925090506000614294600361183660026118308961428e8989613e8f565b90613e8f565b90507f00000000000000000000000000000000000000000000000000000000000000006001600160a01b0316866001600160a01b03161480156142e05750806142dd8387613e8f565b10155b156142f15760019350505050612bea565b6001600160a01b03861615801561431157508061430e8487613e8f565b10155b156143225760029350505050612bea565b50600095945050505050565b6000612fc58284615bcd565b6000612fc58284615bec565b600073def171fe48cf0115b1d80b88dc8eab59176fee576001600160a01b031663d2c4b5986040518163ffffffff1660e01b815260040160206040518083038186803b15801561439557600080fd5b505afa1580156143a9573d6000803e3d6000fd5b505050506040513d601f19601f820116820180604052508101906143cd9190615ae5565b90506143f58160408401356143e56020860186615532565b6001600160a01b03169190614956565b6040516354e3f31b60e01b815273def171fe48cf0115b1d80b88dc8eab59176fee57906354e3f31b9061442c908590600401615d12565b602060405180830381600087803b15801561444657600080fd5b505af115801561445a573d6000803e3d6000fd5b505050506040513d601f19601f82011682018060405250810190613bf891906159be565b6000818152600e602052604081205460ff16156144c25760405162461bcd60e51b8152602060048201526002602482015261181b60f11b604482015260640161099f565b836144f45760405162461bcd60e51b8152602060048201526002602482015261303760f01b604482015260640161099f565b8360a081901c600061450461171b565b9050600061453682611836857f000000000000000000000000000000000000000000000000000000000000000061432e565b905060006145448a8561166b565b9050600081614554576000614564565b614564612710611836858561432e565b905088801561457257508015155b1561457c57600080fd5b6001600160a01b037f0000000000000000000000000000000000000000000000000000000000000000166340c10f19876145b68685613bfd565b6040516001600160e01b031960e085901b1681526001600160a01b0390921660048301526024820152604401602060405180830381600087803b1580156145fc57600080fd5b505af1158015614610573d6000803e3d6000fd5b505050506040513d601f19601f820116820180604052508101906146349190615ac8565b506009546146429082613e8f565b60095561464f8b86614a77565b614658886148d0565b604080516001600160a01b038816815260208101879052908101849052606081018590526080810182905260a081018990527fdfaf4e23f7030adafec91a682e05bf9fb30c721f9cec3d8bcfae0459c5362db19060c00160405180910390a15060019a9950505050505050505050565b600080546001600160a01b038381166001600160a01b0319831681178455604051919092169283917f8be0079c531659141344cd1fd0a4f28419497f9722a3daafe3b4186f6b6457e09190a35050565b60007f00000000000000000000000000000000000000000000000000000000000000006005548585854260405160200161475796959493929190615ec8565b6040516020818303038152906040528051906020012090506040518060a0016040528082815260200185858080601f0160208091040260200160405190810160405280939291908181526020018383808284376000920182905250938552505033602080850191909152604080850188905242606090950194909452600554835260048152929091208351815583830151805191936147fe93506001850192910190614e2c565b5060408201516002820180546001600160a01b0319166001600160a01b0390921691909117905560608201516003820155608090910151600490910155614843614a9a565b600554614851906001613e8f565b60055561485d82614b53565b7faaa4c278970337923c885845b00985ecf5082317e2f9abf72a27b4d35255d67281858533864260405161489696959493929190615eff565b60405180910390a150505050565b600081848411156148c85760405162461bcd60e51b815260040161099f9190615f40565b505050900390565b6000908152600e60205260409020805460ff19166001179055565b6040516001600160a01b03808516602483015283166044820152606481018290526115739085906323b872dd60e01b906084015b60408051601f198184030181529190526020810180516001600160e01b03166001600160e01b031990931692909217909152614ba8565b604051636eb1769f60e11b81523060048201526001600160a01b038381166024830152600091839186169063dd62ed3e9060440160206040518083038186803b1580156149a257600080fd5b505afa1580156149b6573d6000803e3d6000fd5b505050506040513d601f19601f820116820180604052508101906149da91906159be565b6149e49190615bb5565b6040516001600160a01b03851660248201526044810182905290915061157390859063095ea7b360e01b9060640161491f565b6040805180820182526002815261031360f41b6020808301919091526001600160a01b0385166000908152600d9091529190912054614a579183906148a4565b6001600160a01b039092166000908152600d602052604090209190915550565b6001600160a01b0382166000908152600d6020526040902054614a579082613e8f565b600654600090614aab90600a613e8f565b90506005548110614abb57506005545b60065442905b82811015613bf857600254600082815260046020819052604090912001548391614aeb9190613e8f565b1015614b4157600081815260046020526040812081815590614b106001830182614df2565b506002810180546001600160a01b0319169055600060038201819055600490910155614b3d816001613e8f565b6006555b80614b4b81615902565b915050614ac1565b600c54614b7b57614b7b60008052600d602052600080516020615f7083398151915254600c55565b604080518082019091526002815261189960f11b6020820152600c54614ba29183906148a4565b600c5550565b6000614bfd826040518060400160405280602081526020017f5361666545524332303a206c6f772d6c6576656c2063616c6c206661696c6564815250856001600160a01b0316614c7a9092919063ffffffff16565b805190915015613bf85780806020019051810190614c1b9190615ac8565b613bf85760405162461bcd60e51b815260206004820152602a60248201527f5361666545524332303a204552433230206f7065726174696f6e20646964206e6044820152691bdd081cdd58d8d9595960b21b606482015260840161099f565b6060614c898484600085614c91565b949350505050565b606082471015614cf25760405162461bcd60e51b815260206004820152602660248201527f416464726573733a20696e73756666696369656e742062616c616e636520666f6044820152651c8818d85b1b60d21b606482015260840161099f565b843b614d405760405162461bcd60e51b815260206004820152601d60248201527f416464726573733a2063616c6c20746f206e6f6e2d636f6e7472616374000000604482015260640161099f565b600080866001600160a01b03168587604051614d5c9190615f53565b60006040518083038185875af1925050503d8060008114614d99576040519150601f19603f3d011682016040523d82523d6000602084013e614d9e565b606091505b5091509150614dae828286614db9565b979650505050505050565b60608315614dc8575081612fc5565b825115614dd85782518084602001fd5b8160405162461bcd60e51b815260040161099f9190615f40565b508054614dfe90615a0e565b6000825580601f10614e0e575050565b601f0160209004906000526020600020908101906137089190614eb0565b828054614e3890615a0e565b90600052602060002090601f016020900481019282614e5a5760008555614ea0565b82601f10614e7357805160ff1916838001178555614ea0565b82800160010185558215614ea0579182015b82811115614ea0578251825591602001919060010190614e85565b50614eac929150614eb0565b5090565b5b80821115614eac5760008155600101614eb1565b634e487b7160e01b600052600160045260246000fd5b6001600160a01b038116811461370857600080fd5b8035614efb81614edb565b919050565b634e487b7160e01b600052604160045260246000fd5b604051601f8201601f191681016001600160401b0381118282101715614f3e57614f3e614f00565b604052919050565b60006001600160401b03821115614f5f57614f5f614f00565b5060051b60200190565b600082601f830112614f7a57600080fd5b81356020614f8f614f8a83614f46565b614f16565b82815260059290921b84018101918181019086841115614fae57600080fd5b8286015b84811015614fc95780358352918301918301614fb2565b509695505050505050565b801515811461370857600080fd5b803560ff81168114614efb57600080fd5b60008060008060008060008060006101208a8c03121561501257600080fd5b893561501d81614edb565b985060208a8101356001600160401b038082111561503a57600080fd5b6150468e838f01614f69565b9a5060408d013591508082111561505c57600080fd5b508b01601f81018d1361506e57600080fd5b803561507c614f8a82614f46565b81815260059190911b8201830190838101908f83111561509b57600080fd5b928401925b828410156150c25783356150b381614fd4565b825292840192908401906150a0565b809b5050505050506150d660608b01614fe2565b95506150e460808b01614fe2565b94506150f260a08b01614fe2565b935061510060c08b01614fe2565b925060e08a013591506101008a013590509295985092959850929598565b60008060008060008060c0878903121561513757600080fd5b863561514281614edb565b9550602087013561515281614edb565b945060408701359350606087013592506080870135915060a08701356001600160401b0381111561518257600080fd5b61518e89828a01614f69565b9150509295509295509295565b60008083601f8401126151ad57600080fd5b5081356001600160401b038111156151c457600080fd5b6020830191508360208260051b85010111156151df57600080fd5b9250929050565b600080600080600080600060c0888a03121561520157600080fd5b873561520c81614fd4565b9650602088013561521c81614edb565b955060408801359450606088013593506080880135925060a08801356001600160401b0381111561524c57600080fd5b6152588a828b0161519b565b989b979a50959850939692959293505050565b60006020828403121561527d57600080fd5b5035919050565b60005b8381101561529f578181015183820152602001615287565b838111156115735750506000910152565b600081518084526152c8816020860160208601615284565b601f01601f19169290920160200192915050565b85815260a0602082015260006152f560a08301876152b0565b6001600160a01b0395909516604083015250606081019290925260809091015292915050565b60006020808301818452808551808352604092508286019150828160051b87010184880160005b838110156153ab57603f19898403018552815160a08151855288820151818a870152615370828701826152b0565b838a01516001600160a01b0316878b015260608085015190880152608093840151939096019290925250509386019390860190600101615342565b509098975050505050505050565b600080600080608085870312156153cf57600080fd5b84356153da81614edb565b966020860135965060408601359560600135945092505050565b6000806040838503121561540757600080fd5b823561541281614edb565b946020939093013593505050565b6000806040838503121561543357600080fd5b823561543e81614edb565b9150602083013561544e81614edb565b809150509250929050565b60006101e0828403121561546c57600080fd5b50919050565b60006020828403121561548457600080fd5b81356001600160401b0381111561549a57600080fd5b614c8984828501615459565b600080600080608085870312156154bc57600080fd5b84356154c781614edb565b93506020850135925060408501356154de81614fd4565b9396929550929360600135925050565b6020808252825182820181905260009190848201906040850190845b818110156155265783518352928401929184019160010161550a565b50909695505050505050565b60006020828403121561554457600080fd5b8135612fc581614edb565b600080600080600060a0868803121561556757600080fd5b853561557281614edb565b945060208601356001600160401b038082111561558e57600080fd5b61559a89838a01614f69565b9550604088013594506060880135935060808801359150808211156155be57600080fd5b506155cb88828901614f69565b9150509295509295909350565b600080600080608085870312156155ee57600080fd5b84356155f981614edb565b9350602085013592506040850135915060608501356001600160401b0381111561562257600080fd5b61562e87828801614f69565b91505092959194509250565b60008083601f84011261564c57600080fd5b5081356001600160401b0381111561566357600080fd5b6020830191508360208285010111156151df57600080fd5b60008060006040848603121561569057600080fd5b83356001600160401b03808211156156a757600080fd5b6156b38783880161563a565b909550935060208601359150808211156156cc57600080fd5b506156d986828701615459565b9150509250925092565b600080600080600060a086880312156156fb57600080fd5b853561570681614edb565b9450602086013593506040860135925060608601359150608086013561572b81614fd4565b809150509295509295909350565b6000806000806080858703121561574f57600080fd5b84356001600160401b038082111561576657600080fd5b61577288838901614f69565b95506020870135945060408701359350606087013591508082111561579657600080fd5b5061562e87828801614f69565b600080604083850312156157b657600080fd5b50508035926020909101359150565b600080600080600080600080600060e08a8c0312156157e357600080fd5b89356001600160401b03808211156157fa57600080fd5b6158068d838e0161563a565b909b50995060208c0135915061581b82614fd4565b90975060408b01359061582d82614edb565b90965060608b0135955060808b0135945060a08b0135935060c08b0135908082111561585857600080fd5b506158658c828d0161519b565b915080935050809150509295985092959850929598565b6020808252818101527f4f776e61626c653a2063616c6c6572206973206e6f7420746865206f776e6572604082015260600190565b634e487b7160e01b600052601160045260246000fd5b600060ff821660ff84168060ff038211156158e4576158e46158b1565b019392505050565b634e487b7160e01b600052603260045260246000fd5b6000600019821415615916576159166158b1565b5060010190565b602080825260029082015261313560f01b604082015260600190565b6020808252601f908201527f5265656e7472616e637947756172643a207265656e7472616e742063616c6c00604082015260600190565b600082821015615982576159826158b1565b500390565b60208082526019908201527f42616c616e6365206973206e6f742073756666696369656e7400000000000000604082015260600190565b6000602082840312156159d057600080fd5b5051919050565b6020808252601c908201527f526563656976656420616d6f756e7420696e73756666696369656e7400000000604082015260600190565b600181811c90821680615a2257607f821691505b6020821081141561546c57634e487b7160e01b600052602260045260246000fd5b6001600160a01b03958616815293909416602084015260408301919091526060820152608081019190915260a00190565b60208082526034908201527f526563656976656420616d6f756e7420686173206e6f74206d657420746865206040820152736d696e20666f7220464c4f57203220737761707360601b606082015260800190565b600060208284031215615ada57600080fd5b8151612fc581614fd4565b600060208284031215615af757600080fd5b8151612fc581614edb565b8183526000602080850194508260005b85811015615b40578135615b2581614edb565b6001600160a01b031687529582019590820190600101615b12565b509495945050505050565b60018060a01b038716815285602082015284604082015283606082015260a060808201526000615b7f60a083018486615b02565b98975050505050505050565b848152836020820152606060408201526000615bab606083018486615b02565b9695505050505050565b60008219821115615bc857615bc86158b1565b500190565b6000816000190483118215151615615be757615be76158b1565b500290565b600082615c0957634e487b7160e01b600052601260045260246000fd5b500490565b6000808335601e19843603018112615c2557600080fd5b83016020810192503590506001600160401b03811115615c4457600080fd5b8060051b36038313156151df57600080fd5b6000808335601e19843603018112615c6d57600080fd5b83016020810192503590506001600160401b03811115615c8c57600080fd5b8036038313156151df57600080fd5b81835281816020850137506000828201602090810191909152601f909101601f19169091010190565b81835260006001600160fb1b03831115615cdd57600080fd5b8260051b8083602087013760009401602001938452509192915050565b80356001600160801b031981168114614efb57600080fd5b60208152615d3360208201615d2684614ef0565b6001600160a01b03169052565b6000615d4160208401614ef0565b6001600160a01b0381166040840152506040830135606083015260608301356080830152608083013560a0830152615d7c60a0840184615c0e565b6101e08060c0860152615d9461020086018385615b02565b9250615da360c0870187615c56565b9250601f19808786030160e0880152615dbd858584615c9b565b9450615dcc60e0890189615c0e565b94509150610100818887030181890152615de7868685615cc4565b9550615df5818a018a615c0e565b9550925050610120818887030181890152615e11868685615cc4565b9550615e1e818a01614ef0565b9450506101409150615e3a828801856001600160a01b03169052565b615e45828901614ef0565b93506101609150615e60828801856001600160a01b03169052565b61018093508188013584880152615e7984890189615c56565b945091506101a0818887030181890152615e94868685615c9b565b95506101c094508089013585890152505050615eb1828701615cfa565b6001600160801b0319169401939093529392505050565b6001600160601b03198760601b16815285601482015283856034830137603493019283019190915260548201526074019392505050565b86815260a060208201526000615f1960a083018789615c9b565b6001600160a01b039590951660408301525060608101929092526080909101529392505050565b602081526000612fc560208301846152b0565b60008251615f65818460208701615284565b919091019291505056fe81955a0a11e65eac625c29e8882660bae4e165a75d72780094acae8ece9a29eea2646970667358221220528bcd417bd996d3c088108bec08b6518cf5e91ae4122c7f174361de081fcc3f64736f6c63430008090033a2646970667358221220aafb8edfc9891a80cb0ff8dbe961fe141cefc368eef141fa539c2684b32021a064736f6c63430008090033",
  "linkReferences": {},
  "deployedLinkReferences": {}
}