{
  "_format": "hh-sol-artifact-1",
  "contractName": "SwapContractFactory",
  "sourceName": "contracts/SwapContractFactory.sol",
  "abi": [
    {
      "anonymous": false,
      "inputs": [
        {
          "indexed": false,
          "internalType": "address",
          "name": "lpToken",
          "type": "address"
        },
        {
          "indexed": false,
          "internalType": "address",
          "name": "swapContract",
          "type": "address"
        }
      ],
      "name": "Deployed",
      "type": "event"
    },
    {
      "stateMutability": "nonpayable",
      "type": "fallback"
    },
    {
      "inputs": [
        {
          "internalType": "address",
          "name": "_owner",
          "type": "address"
        },
        {
          "internalType": "address",
          "name": "_wbtc",
          "type": "address"
        },
        {
          "internalType": "address",
          "name": "_wETH",
          "type": "address"
        },
        {
          "internalType": "uint8",
          "name": "_decimals",
          "type": "uint8"
        },
        {
          "internalType": "uint256",
          "name": "_existingBTCFloat",
          "type": "uint256"
        }
      ],
      "name": "deployNewContracts",
      "outputs": [
        {
          "internalType": "address",
          "name": "",
          "type": "address"
        }
      ],
      "stateMutability": "nonpayable",
      "type": "function"
    }
  ],
  "bytecode": "0x608060405234801561001057600080fd5b506178e9806100206000396000f3fe608060405234801561001057600080fd5b506004361061002b5760003560e01c806391988dce14610030575b600080fd5b61004361003e36600461022f565b61005f565b6040516001600160a01b03909116815260200160405180910390f35b6000808360405161006f906101f7565b60ff9091168152602001604051809103906000f080158015610095573d6000803e3d6000fd5b5090506000818787866040516100aa90610205565b6001600160a01b0394851681529284166020840152921660408201526060810191909152608001604051809103906000f0801580156100ed573d6000803e3d6000fd5b5060405163f2fde38b60e01b81526001600160a01b0380831660048301529192509083169063f2fde38b90602401600060405180830381600087803b15801561013557600080fd5b505af1158015610149573d6000803e3d6000fd5b505060405163f2fde38b60e01b81526001600160a01b038b811660048301528416925063f2fde38b9150602401600060405180830381600087803b15801561019057600080fd5b505af11580156101a4573d6000803e3d6000fd5b5050604080516001600160a01b038087168252851660208201527f09e48df7857bd0c1e0d31bb8a85d42cf1874817895f171c917f6ee2cea73ec20935001905060405180910390a1979650505050505050565b6111a4806200029483390190565b61647c806200143883390190565b80356001600160a01b038116811461022a57600080fd5b919050565b600080600080600060a0868803121561024757600080fd5b61025086610213565b945061025e60208701610213565b935061026c60408701610213565b9250606086013560ff8116811461028257600080fd5b94979396509194608001359291505056fe60806040523480156200001157600080fd5b50604051620011a4380380620011a483398101604081905262000034916200032f565b6200003f33620000af565b620000a86040518060400160405280601481526020017f5377696e67627920425443204c5020546f6b656e00000000000000000000000081525060405180604001604052806005815260200164736242544360d81b8152508360006001620000ff60201b60201c565b50620003b8565b600080546001600160a01b038381166001600160a01b0319831681178455604051919092169283917f8be0079c531659141344cd1fd0a4f28419497f9722a3daafe3b4186f6b6457e09190a35050565b84516200011490600490602088019062000289565b5083516200012a90600590602087019062000289565b50600680548215156101000261ffff1990911660ff861617179055620001636200015c6000546001600160a01b031690565b836200016a565b5050505050565b6001600160a01b038216620001c55760405162461bcd60e51b815260206004820152601f60248201527f45524332303a206d696e7420746f20746865207a65726f206164647265737300604482015260640160405180910390fd5b620001e1816003546200027460201b620005ee1790919060201c565b6003556001600160a01b03821660009081526001602090815260409091205462000216918390620005ee62000274821b17901c565b6001600160a01b0383166000818152600160205260408082209390935591519091907fddf252ad1be2c89b69c2b068fc378daa952ba7f163c4a11628f55a4df523b3ef90620002689085815260200190565b60405180910390a35050565b600062000282828462000354565b9392505050565b82805462000297906200037b565b90600052602060002090601f016020900481019282620002bb576000855562000306565b82601f10620002d657805160ff191683800117855562000306565b8280016001018555821562000306579182015b8281111562000306578251825591602001919060010190620002e9565b506200031492915062000318565b5090565b5b8082111562000314576000815560010162000319565b6000602082840312156200034257600080fd5b815160ff811681146200028257600080fd5b600082198211156200037657634e487b7160e01b600052601160045260246000fd5b500190565b600181811c908216806200039057607f821691505b60208210811415620003b257634e487b7160e01b600052602260045260246000fd5b50919050565b610ddc80620003c86000396000f3fe608060405234801561001057600080fd5b50600436106101165760003560e01c806370a08231116100a257806395d89b411161007157806395d89b4114610248578063a457c2d714610250578063a9059cbb14610263578063dd62ed3e14610276578063f2fde38b146102af57600080fd5b806370a08231146101df578063715018a614610208578063893d20e8146102125780638da5cb5b1461023757600080fd5b8063313ce567116100e9578063313ce56714610181578063395093511461019657806340c10f19146101a957806342966c68146101bc5780634bf365df146101cf57600080fd5b806306fdde031461011b578063095ea7b31461013957806318160ddd1461015c57806323b872dd1461016e575b600080fd5b6101236102c2565b6040516101309190610b1e565b60405180910390f35b61014c610147366004610b8f565b610354565b6040519015158152602001610130565b6003545b604051908152602001610130565b61014c61017c366004610bb9565b61036a565b60065460405160ff9091168152602001610130565b61014c6101a4366004610b8f565b6103d3565b61014c6101b7366004610b8f565b610409565b61014c6101ca366004610bf5565b61049e565b600654610100900460ff1661014c565b6101606101ed366004610c0e565b6001600160a01b031660009081526001602052604090205490565b6102106104b2565b005b6000546001600160a01b03165b6040516001600160a01b039091168152602001610130565b6000546001600160a01b031661021f565b6101236104e8565b61014c61025e366004610b8f565b6104f7565b61014c610271366004610b8f565b610546565b610160610284366004610c29565b6001600160a01b03918216600090815260026020908152604080832093909416825291909152205490565b6102106102bd366004610c0e565b610553565b6060600480546102d190610c5c565b80601f01602080910402602001604051908101604052809291908181526020018280546102fd90610c5c565b801561034a5780601f1061031f5761010080835404028352916020019161034a565b820191906000526020600020905b81548152906001019060200180831161032d57829003601f168201915b5050505050905090565b6000610361338484610601565b50600192915050565b6000610377848484610726565b6103c984336103c485604051806060016040528060288152602001610d5a602891396001600160a01b038a16600090815260026020908152604080832033845290915290205491906108ac565b610601565b5060019392505050565b3360008181526002602090815260408083206001600160a01b038716845290915281205490916103619185906103c490866105ee565b600080546001600160a01b0316331461043d5760405162461bcd60e51b815260040161043490610c97565b60405180910390fd5b600654610100900460ff166104945760405162461bcd60e51b815260206004820152601a60248201527f5468697320746f6b656e206973206e6f74206d696e7461626c650000000000006044820152606401610434565b61036183836108d8565b60006104aa33836109be565b506001919050565b6000546001600160a01b031633146104dc5760405162461bcd60e51b815260040161043490610c97565b6104e66000610ac2565b565b6060600580546102d190610c5c565b600061036133846103c485604051806060016040528060258152602001610d82602591393360009081526002602090815260408083206001600160a01b038d16845290915290205491906108ac565b6000610361338484610726565b6000546001600160a01b0316331461057d5760405162461bcd60e51b815260040161043490610c97565b6001600160a01b0381166105e25760405162461bcd60e51b815260206004820152602660248201527f4f776e61626c653a206e6577206f776e657220697320746865207a65726f206160448201526564647265737360d01b6064820152608401610434565b6105eb81610ac2565b50565b60006105fa8284610ce2565b9392505050565b6001600160a01b0383166106635760405162461bcd60e51b8152602060048201526024808201527f45524332303a20617070726f76652066726f6d20746865207a65726f206164646044820152637265737360e01b6064820152608401610434565b6001600160a01b0382166106c45760405162461bcd60e51b815260206004820152602260248201527f45524332303a20617070726f766520746f20746865207a65726f206164647265604482015261737360f01b6064820152608401610434565b6001600160a01b0383811660008181526002602090815260408083209487168084529482529182902085905590518481527f8c5be1e5ebec7d5bd14f71427d1e84f3dd0314c0f7b2291e5b200ac8c7c3b92591015b60405180910390a3505050565b6001600160a01b03831661078a5760405162461bcd60e51b815260206004820152602560248201527f45524332303a207472616e736665722066726f6d20746865207a65726f206164604482015264647265737360d81b6064820152608401610434565b6001600160a01b0382166107ec5760405162461bcd60e51b815260206004820152602360248201527f45524332303a207472616e7366657220746f20746865207a65726f206164647260448201526265737360e81b6064820152608401610434565b61082981604051806060016040528060268152602001610d34602691396001600160a01b03861660009081526001602052604090205491906108ac565b6001600160a01b03808516600090815260016020526040808220939093559084168152205461085890826105ee565b6001600160a01b0380841660008181526001602052604090819020939093559151908516907fddf252ad1be2c89b69c2b068fc378daa952ba7f163c4a11628f55a4df523b3ef906107199085815260200190565b600081848411156108d05760405162461bcd60e51b81526004016104349190610b1e565b505050900390565b6001600160a01b03821661092e5760405162461bcd60e51b815260206004820152601f60248201527f45524332303a206d696e7420746f20746865207a65726f2061646472657373006044820152606401610434565b60035461093b90826105ee565b6003556001600160a01b03821660009081526001602052604090205461096190826105ee565b6001600160a01b0383166000818152600160205260408082209390935591519091907fddf252ad1be2c89b69c2b068fc378daa952ba7f163c4a11628f55a4df523b3ef906109b29085815260200190565b60405180910390a35050565b6001600160a01b038216610a1e5760405162461bcd60e51b815260206004820152602160248201527f45524332303a206275726e2066726f6d20746865207a65726f206164647265736044820152607360f81b6064820152608401610434565b610a5b81604051806060016040528060228152602001610d12602291396001600160a01b03851660009081526001602052604090205491906108ac565b6001600160a01b038316600090815260016020526040902055600354610a819082610b12565b6003556040518181526000906001600160a01b038416907fddf252ad1be2c89b69c2b068fc378daa952ba7f163c4a11628f55a4df523b3ef906020016109b2565b600080546001600160a01b038381166001600160a01b0319831681178455604051919092169283917f8be0079c531659141344cd1fd0a4f28419497f9722a3daafe3b4186f6b6457e09190a35050565b60006105fa8284610cfa565b600060208083528351808285015260005b81811015610b4b57858101830151858201604001528201610b2f565b81811115610b5d576000604083870101525b50601f01601f1916929092016040019392505050565b80356001600160a01b0381168114610b8a57600080fd5b919050565b60008060408385031215610ba257600080fd5b610bab83610b73565b946020939093013593505050565b600080600060608486031215610bce57600080fd5b610bd784610b73565b9250610be560208501610b73565b9150604084013590509250925092565b600060208284031215610c0757600080fd5b5035919050565b600060208284031215610c2057600080fd5b6105fa82610b73565b60008060408385031215610c3c57600080fd5b610c4583610b73565b9150610c5360208401610b73565b90509250929050565b600181811c90821680610c7057607f821691505b60208210811415610c9157634e487b7160e01b600052602260045260246000fd5b50919050565b6020808252818101527f4f776e61626c653a2063616c6c6572206973206e6f7420746865206f776e6572604082015260600190565b634e487b7160e01b600052601160045260246000fd5b60008219821115610cf557610cf5610ccc565b500190565b600082821015610d0c57610d0c610ccc565b50039056fe45524332303a206275726e20616d6f756e7420657863656564732062616c616e636545524332303a207472616e7366657220616d6f756e7420657863656564732062616c616e636545524332303a207472616e7366657220616d6f756e74206578636565647320616c6c6f77616e636545524332303a2064656372656173656420616c6c6f77616e63652062656c6f77207a65726fa26469706673582212209b292d08de71d5da654e35c0b4bbd71bb52e727a29faa404f7d5573904569a9264736f6c634300080900336101206040523480156200001257600080fd5b506040516200647c3803806200647c833981016040819052620000359162000339565b6200004033620002cc565b600180556202a3006002556000600581905560049081556001600160a01b0380841661010052851660a08190526040805163313ce56760e01b81529051919263313ce567928282019260209290829003018186803b158015620000a257600080fd5b505afa158015620000b7573d6000803e3d6000fd5b505050506040513d601f19601f82011682018060405250810190620000dd91906200038b565b620000ea90600a620004cc565b60e0526001600160a01b03831660808190526007805464ffffff000019166414324200001790556040805163313ce56760e01b815290516008929163313ce567916004808301926020929190829003018186803b1580156200014b57600080fd5b505afa15801562000160573d6000803e3d6000fd5b505050506040513d601f19601f820116820180604052508101906200018691906200038b565b620001929190620004dd565b6200019f90600a620004cc565b60c08181525050836001600160a01b031663313ce5676040518163ffffffff1660e01b815260040160206040518083038186803b158015620001e057600080fd5b505afa158015620001f5573d6000803e3d6000fd5b505050506040513d601f19601f820116820180604052508101906200021b91906200038b565b6200022890600a620004cc565b600a556000600881905560098190556001600160a01b039384168152600660209081526040808320805460ff199081166001908117909255979096168352822080548716861790559080527f54cdd369e4e8a8515e52ca72ec816c2101831ad1f18bf44102ed171459c9b4f8805490951690931790935550600b90527fdf7de25b7f1fd6d0b5205f0e18f1f35bd7b8d84cce336588d184533ce43a6f765562000503565b600080546001600160a01b038381166001600160a01b0319831681178455604051919092169283917f8be0079c531659141344cd1fd0a4f28419497f9722a3daafe3b4186f6b6457e09190a35050565b80516001600160a01b03811681146200033457600080fd5b919050565b600080600080608085870312156200035057600080fd5b6200035b856200031c565b93506200036b602086016200031c565b92506200037b604086016200031c565b6060959095015193969295505050565b6000602082840312156200039e57600080fd5b815160ff81168114620003b057600080fd5b9392505050565b634e487b7160e01b600052601160045260246000fd5b600181815b808511156200040e578160001904821115620003f257620003f2620003b7565b808516156200040057918102915b93841c9390800290620003d2565b509250929050565b6000826200042757506001620004c6565b816200043657506000620004c6565b81600181146200044f57600281146200045a576200047a565b6001915050620004c6565b60ff8411156200046e576200046e620003b7565b50506001821b620004c6565b5060208310610133831016604e8410600b84101617156200049f575081810a620004c6565b620004ab8383620003cd565b8060001904821115620004c257620004c2620003b7565b0290505b92915050565b6000620003b060ff84168362000416565b600060ff821660ff841680821015620004fa57620004fa620003b7565b90039392505050565b60805160a05160c05160e05161010051615dc8620006b46000396000818161027a0152818161083e01528181611f7001528181611fcc01528181612039015281816120800152818161212401528181612c5501528181612ccf0152612d180152600081816115810152818161371f01528181613c4701526142a30152600061385601526000818161058a01528181610a0101528181610a3c015281816114cd015281816122d7015281816123120152818161325c015281816132ef0152818161360b01528181613ecb015261431701526000818161034e015281816109ad015281816109df01528181610b5401528181610bd5015281816111fe0152818161124301528181611402015281816114a10152818161185b01528181611ead01528181611ee901528181612283015281816122b50152818161247b015281816124aa015281816124fa0152818161258b015281816125d601528181612a5201528181612e7b01528181612f1f0152818161381801528181613d2b01528181613dc201528181613e7201528181613fd601528181614023015281816145bc0152818161498401526149c90152615dc86000f3fe60806040526004361061026a5760003560e01c80636d019f3511610144578063c810a539116100b6578063e9e9bf6a1161007a578063e9e9bf6a146107e2578063ec482729146107f7578063f24286211461082c578063f2fde38b14610860578063f7824bc714610880578063f7888aec14610896576102a9565b8063c810a53914610749578063ca0707e714610769578063d38c7bb11461077c578063da284dcc1461079c578063e6ca2084146107b2576102a9565b80638da5cb5b116101085780638da5cb5b146106795780639b19251a14610697578063ad289e76146106c7578063b345a358146106e7578063b4014fe814610707578063b6268e5d14610727576102a9565b80636d019f35146105ee578063715018a6146106045780637c747cf9146106195780638006cc3e146106395780638535490f14610659576102a9565b80632d55282d116101dd5780634db75485116101a15780634db7548514610500578063508493bc14610520578063511834c3146105585780635fcbd2851461057857806363f289d9146105ac5780636b51e919146105cc576102a9565b80632d55282d1461047e5780632eff0d9e146104945780633b6fa127146104aa57806342419255146104ca57806345137e27146104eb576102a9565b8063130b7a631161022f578063130b7a63146103a75780631ab7e937146103c75780631bb06930146103f857806320199e991461041c57806321959d3c1461043e5780632586c5621461045e576102a9565b806289356f146102bb5780630b68134d146102ec5780630d63aca71461030c5780630f9094861461033c57806312d1441e14610388576102a9565b366102a957336001600160a01b037f000000000000000000000000000000000000000000000000000000000000000016146102a7576102a7614d81565b005b3480156102b557600080fd5b50600080fd5b3480156102c757600080fd5b506007546102d59060ff1681565b60405160ff90911681526020015b60405180910390f35b3480156102f857600080fd5b506007546102d59062010000900460ff1681565b34801561031857600080fd5b5061032c610327366004614e90565b6108dc565b60405190151581526020016102e3565b34801561034857600080fd5b506103707f000000000000000000000000000000000000000000000000000000000000000081565b6040516001600160a01b0390911681526020016102e3565b34801561039457600080fd5b506007546102d590610100900460ff1681565b3480156103b357600080fd5b506102a76103c2366004614f66565b610a88565b3480156103d357600080fd5b506103e76103e2366004614feb565b610ec7565b6040516102e395949392919061505c565b34801561040457600080fd5b5061040e60055481565b6040519081526020016102e3565b34801561042857600080fd5b50610431610f8a565b6040516102e3919061509b565b34801561044a57600080fd5b506102a7610459366004614feb565b61118b565b34801561046a57600080fd5b5061032c610479366004615139565b6112e4565b34801561048a57600080fd5b5061040e60085481565b3480156104a057600080fd5b5061040e60045481565b3480156104b657600080fd5b5061040e6104c5366004615174565b6113e5565b3480156104d657600080fd5b506007546102d5906301000000900460ff1681565b3480156104f757600080fd5b5061040e611495565b34801561050c57600080fd5b506102a761051b366004615174565b6115c7565b34801561052c57600080fd5b5061040e61053b3660046151a0565b601060209081526000928352604080842090915290825290205481565b34801561056457600080fd5b506102a76105733660046151f2565b611726565b34801561058457600080fd5b506103707f000000000000000000000000000000000000000000000000000000000000000081565b3480156105b857600080fd5b5061032c6105c7366004615226565b6119c0565b3480156105d857600080fd5b506105e1611a60565b6040516102e3919061526e565b3480156105fa57600080fd5b5061040e600a5481565b34801561061057600080fd5b506102a7611beb565b34801561062557600080fd5b5061032c6106343660046152c3565b611c21565b34801561064557600080fd5b5061032c610654366004615139565b611e29565b34801561066557600080fd5b506102a7610674366004614feb565b611f3e565b34801561068557600080fd5b506000546001600160a01b0316610370565b3480156106a357600080fd5b5061032c6106b23660046153e4565b60066020526000908152604090205460ff1681565b3480156106d357600080fd5b5061032c6106e2366004615401565b6121bb565b3480156106f357600080fd5b5061032c61070236600461548a565b6123af565b34801561071357600080fd5b506102a761072236600461552d565b612559565b34801561073357600080fd5b506007546102d590640100000000900460ff1681565b34801561075557600080fd5b5061032c610764366004615595565b6128f4565b6102a7610777366004615174565b6129f9565b34801561078857600080fd5b506102a76107973660046155b7565b612daf565b3480156107a857600080fd5b5061040e60025481565b3480156107be57600080fd5b5061032c6107cd366004614feb565b6000908152600c602052604090205460ff1690565b3480156107ee57600080fd5b5061032c61315c565b34801561080357600080fd5b506108176108123660046151a0565b61344e565b604080519283526020830191909152016102e3565b34801561083857600080fd5b506103707f000000000000000000000000000000000000000000000000000000000000000081565b34801561086c57600080fd5b506102a761087b3660046153e4565b613478565b34801561088c57600080fd5b5061040e60095481565b3480156108a257600080fd5b5061040e6108b13660046151a0565b6001600160a01b03918216600090815260106020908152604080832093909416825291909152205490565b600080546001600160a01b031633146109105760405162461bcd60e51b81526004016109079061566e565b60405180910390fd5b6001600160a01b03871660009081526006602052604090205460ff166109785760405162461bcd60e51b815260206004820152601d60248201527f5f64657374546f6b656e206973206e6f742077686974656c69737465640000006044820152606401610907565b6001600160a01b03871661099e5760405162461bcd60e51b8152600401610907906156a3565b600084156109d7576109d260007f000000000000000000000000000000000000000000000000000000000000000087613513565b6109ff565b846109ff57507f00000000000000000000000000000000000000000000000000000000000000005b7f00000000000000000000000000000000000000000000000000000000000000006001600160a01b0316886001600160a01b03161415610a5c57507f00000000000000000000000000000000000000000000000000000000000000005b610a668185613600565b610a6f836137ae565b610a7a888888613816565b506001979650505050505050565b60026001541415610aab5760405162461bcd60e51b8152600401610907906156e6565b6002600155600082828281610ac257610ac261571d565b9050602002016020810190610ad791906153e4565b905060008383610ae8600182615749565b818110610af757610af761571d565b9050602002016020810190610b0c91906153e4565b6001600160a01b0383166000908152601060209081526040808320338452909152902054909150861115610b525760405162461bcd60e51b815260040161090790615760565b7f00000000000000000000000000000000000000000000000000000000000000006001600160a01b0316826001600160a01b031614610bd35760405162461bcd60e51b815260206004820152601860248201527f4d75737420737761702066726f6d2042544320746f6b656e00000000000000006044820152606401610907565b7f00000000000000000000000000000000000000000000000000000000000000006001600160a01b0316816001600160a01b03161415610c555760405162461bcd60e51b815260206004820152601960248201527f456e64696e6720746f6b656e206d7573742062652077425443000000000000006044820152606401610907565b6001600160a01b03811673eeeeeeeeeeeeeeeeeeeeeeeeeeeeeeeeeeeeeeee1415610cba5760405162461bcd60e51b81526020600482015260156024820152740aae6ca40e0c2e8d040ee84a886405a7c40ee8aa89605b1b6044820152606401610907565b6040516370a0823160e01b81523060048201526000906001600160a01b038316906370a082319060240160206040518083038186803b158015610cfc57600080fd5b505afa158015610d10573d6000803e3d6000fd5b505050506040513d601f19601f82011682018060405250810190610d349190615797565b6001600160a01b0384166000908152601060209081526040808320338452909152902054909150610d65908861390d565b6001600160a01b03841660009081526010602090815260408083203384529091529020558915610da257610d9d898989898989613920565b610dae565b610dae87878787613a66565b6040516370a0823160e01b8152306004820152600090610e359083906001600160a01b038616906370a08231906024015b60206040518083038186803b158015610df757600080fd5b505afa158015610e0b573d6000803e3d6000fd5b505050506040513d601f19601f82011682018060405250810190610e2f9190615797565b9061390d565b905086811015610e575760405162461bcd60e51b8152600401610907906157b0565b80610e6157600080fd5b6001600160a01b0383166000908152601060209081526040808320338452909152902054610e8f9082613ba6565b6001600160a01b0390931660009081526010602090815260408083203384529091529020929092555050600180555050505050505050565b60036020526000908152604090208054600182018054919291610ee9906157e7565b80601f0160208091040260200160405190810160405280929190818152602001828054610f15906157e7565b8015610f625780601f10610f3757610100808354040283529160200191610f62565b820191906000526020600020905b815481529060010190602001808311610f4557829003601f168201915b505050506002830154600384015460049094015492936001600160a01b039091169290915085565b60606000610fa560055460045461390d90919063ffffffff16565b6001600160401b03811115610fbc57610fbc614dbc565b60405190808252806020026020018201604052801561102b57816020015b6110186040518060a00160405280600080191681526020016060815260200160006001600160a01b0316815260200160008152602001600081525090565b815260200190600190039081610fda5790505b50915060006110466001600554613ba690919063ffffffff16565b90505b6004548111611186576003600061106b60055485613ba690919063ffffffff16565b81526020019081526020016000206040518060a00160405290816000820154815260200160018201805461109e906157e7565b80601f01602080910402602001604051908101604052809291908181526020018280546110ca906157e7565b80156111175780601f106110ec57610100808354040283529160200191611117565b820191906000526020600020905b8154815290600101906020018083116110fa57829003601f168201915b505050918352505060028201546001600160a01b0316602082015260038201546040820152600490910154606090910152835184908490811061115c5761115c61571d565b6020908102919091010152611172826001613ba6565b91508061117e8161581c565b915050611049565b505090565b60055460009061119b9083613ba6565b905060045481106111ab57506004545b60055442905b8281116112de5760025460008281526003602052604090206004015483916111d99190613ba6565b10156112cc576000818152600360208181526040808420909201546001600160a01b037f0000000000000000000000000000000000000000000000000000000000000000168452601082528284203085529091529120546112399161390d565b6001600160a01b037f0000000000000000000000000000000000000000000000000000000000000000166000908152601060209081526040808320308452825280832093909355838252600390529081208181559061129b6001830182614cae565b506002810180546001600160a01b03191690556000600382018190556004909101556112c8816001613ba6565b6005555b806112d68161581c565b9150506111b1565b50505050565b600080546001600160a01b0316331461130f5760405162461bcd60e51b81526004016109079061566e565b6000611319611495565b6001600160a01b03871660009081526006602052604090205490915060ff166113785760405162461bcd60e51b815260206004820152601160248201527017dd1bdad95b881a5cc81a5b9d985b1a59607a1b6044820152606401610907565b61138486868686613bb2565b61138d57600080fd5b600191508061139a611495565b10156113dc5760405162461bcd60e51b8152602060048201526011602482015270496e76616c6964204c505420707269636560781b6044820152606401610907565b50949350505050565b6000806113f28484613fca565b90508060ff1660011415611458577f00000000000000000000000000000000000000000000000000000000000000006001600160a01b0316846001600160a01b03161461144057600061144e565b6007546301000000900460ff165b60ff16915061148e565b8060ff166002141561148e576001600160a01b0384161561147a576000611488565b6007546301000000900460ff165b60ff1691505b5092915050565b60008060006114c560007f000000000000000000000000000000000000000000000000000000000000000061344e565b9150915060007f00000000000000000000000000000000000000000000000000000000000000006001600160a01b03166318160ddd6040518163ffffffff1660e01b815260040160206040518083038186803b15801561152457600080fd5b505afa158015611538573d6000803e3d6000fd5b505050506040513d601f19601f8201168201806040525081019061155c9190615797565b905080156115bb576115b661157c60085483613ba690919063ffffffff16565b6115b07f00000000000000000000000000000000000000000000000000000000000000006115aa8787613ba6565b906140b9565b906140c5565b6115bf565b600a545b935050505090565b600260015414156115ea5760405162461bcd60e51b8152600401610907906156e6565b60026001556001600160a01b03821660009081526010602090815260408083203384529091529020548111156116595760405162461bcd60e51b8152602060048201526014602482015273496e73756666696369656e742042616c616e636560601b6044820152606401610907565b6001600160a01b0382166000908152601060209081526040808320338452909152902054611687908261390d565b6001600160a01b0383166000908152601060209081526040808320338085529252909120919091556116bb90839083613816565b6001600160a01b0382166000908152601060209081526040808320338085529252918290205491517febff2602b3f468259e1e99f613fed6691f3a6526effe6ef3e768ba7ae7a36c4f92611716928692909186914290615837565b60405180910390a1505060018055565b600260015414156117495760405162461bcd60e51b8152600401610907906156e6565b600260015533611761610140830161012084016153e4565b6001600160a01b0316146117ce5760405162461bcd60e51b815260206004820152602e60248201527f596f752063616e206f6e6c79206578656375746520737761707320746f20796f60448201526d7572206f776e206164647265737360901b6064820152608401610907565b6040810135601060006117e460208501856153e4565b6001600160a01b031681526020810191909152604001600090812090611812610140850161012086016153e4565b6001600160a01b03166001600160a01b031681526020019081526020016000205410156118515760405162461bcd60e51b815260040161090790615760565b6001600160a01b037f00000000000000000000000000000000000000000000000000000000000000001661188860208301836153e4565b6001600160a01b0316146118f05760405162461bcd60e51b815260206004820152602960248201527f66726f6d546f6b656e206d7573742062652074686520726571756972656420426044820152682a21ba103a37b5b2b760b91b6064820152608401610907565b6118f9816140d1565b61196060408201356010600061191260208601866153e4565b6001600160a01b031681526020810191909152604001600090812090611940610140860161012087016153e4565b6001600160a01b031681526020810191909152604001600020549061390d565b6010600061197160208501856153e4565b6001600160a01b03168152602081019190915260400160009081209061199f610140850161012086016153e4565b6001600160a01b031681526020810191909152604001600020555060018055565b600080546001600160a01b031633146119eb5760405162461bcd60e51b81526004016109079061566e565b60006119f5611495565b6001600160a01b03871660009081526006602052604090205490915060ff16611a545760405162461bcd60e51b815260206004820152601160248201527017dd1bdad95b881a5cc81a5b9d985b1a59607a1b6044820152606401610907565b61138486868686614209565b606060008060005b600f54811015611ad357600d6000600f8381548110611a8957611a8961571d565b60009182526020808320909101546001600160a01b0316835282019290925260400190205415611ac157611abe836001613ba6565b92505b80611acb8161581c565b915050611a68565b506000826001600160401b03811115611aee57611aee614dbc565b604051908082528060200260200182016040528015611b17578160200160208202803683370190505b50905060005b600f54811015611be357600d6000600f8381548110611b3e57611b3e61571d565b60009182526020808320909101546001600160a01b0316835282019290925260400190205415611bd157600d6000600f8381548110611b7f57611b7f61571d565b60009182526020808320909101546001600160a01b031683528201929092526040019020548251839085908110611bb857611bb861571d565b6020908102919091010152611bce836001613ba6565b92505b80611bdb8161581c565b915050611b1d565b509392505050565b6000546001600160a01b03163314611c155760405162461bcd60e51b81526004016109079061566e565b611c1f6000614459565b565b600080546001600160a01b03163314611c4c5760405162461bcd60e51b81526004016109079061566e565b60075460ff610100909104811690861610801590611c6e575060ff8560ff1611155b611c7757600080fd5b611c82600186615868565b60ff168660ff161015611c9457600080fd5b60648460ff161115611ca557600080fd5b60648360ff161115611cb657600080fd5b8651885114611cc457600080fd5b8115611cd357611cd3826144a9565b611cdc89613478565b60005b8851811015611d65576000611d108a8381518110611cff57611cff61571d565b60200260200101519060a082901c90565b509050611d50818b8481518110611d2957611d2961571d565b60200260200101518b8581518110611d4357611d4361571d565b60200260200101516144e9565b50508080611d5d9061581c565b915050611cdf565b506000611d70611a60565b9050606481511115611dce5760405162461bcd60e51b815260206004820152602160248201527f53746f726564206e6f64652073697a652073686f756c64206265203c3d2031306044820152600360fc1b6064820152608401610907565b50506007805460ff8481166401000000000264ff000000001987831662010000021664ff00ff0000198984166101000261ffff19909516938b1693909317939093179190911691909117179055600198975050505050505050565b600080546001600160a01b03163314611e545760405162461bcd60e51b81526004016109079061566e565b6001600160a01b03851615611eab5760405162461bcd60e51b815260206004820152601f60248201527f5f64657374546f6b656e2073686f756c642062652061646472657373283029006044820152606401610907565b7f00000000000000000000000000000000000000000000000000000000000000008415611f1f576000611ee285610e2f888761390d565b9050611f197f00000000000000000000000000000000000000000000000000000000000000006000611f148489613ba6565b613513565b50611f28565b84611f28575060005b611f328184613600565b50600195945050505050565b60026001541415611f615760405162461bcd60e51b8152600401610907906156e6565b60026001556001600160a01b037f0000000000000000000000000000000000000000000000000000000000000000166000908152601060209081526040808320338452909152902054811115611fb657600080fd5b604051632e1a7d4d60e01b8152600481018290527f00000000000000000000000000000000000000000000000000000000000000006001600160a01b031690632e1a7d4d90602401600060405180830381600087803b15801561201857600080fd5b505af115801561202c573d6000803e3d6000fd5b5050506001600160a01b037f000000000000000000000000000000000000000000000000000000000000000016600090815260106020908152604080832033845290915290205461207e91508261390d565b7f00000000000000000000000000000000000000000000000000000000000000006001600160a01b031660009081526010602090815260408083203380855292528083209390935591518190839085908381818185875af1925050503d8060008114612106576040519150601f19603f3d011682016040523d82523d6000602084013e61210b565b606091505b50915091508161211a57600080fd5b6001600160a01b037f0000000000000000000000000000000000000000000000000000000000000000166000908152601060209081526040808320338085529252918290205491517febff2602b3f468259e1e99f613fed6691f3a6526effe6ef3e768ba7ae7a36c4f926121a99273eeeeeeeeeeeeeeeeeeeeeeeeeeeeeeeeeeeeeeee92909189914290615837565b60405180910390a15050600180555050565b600080546001600160a01b031633146121e65760405162461bcd60e51b81526004016109079061566e565b6001600160a01b03861660009081526006602052604090205460ff1661224e5760405162461bcd60e51b815260206004820152601d60248201527f5f64657374546f6b656e206973206e6f742077686974656c69737465640000006044820152606401610907565b6001600160a01b0386166122745760405162461bcd60e51b8152600401610907906156a3565b600084156122ad576122a860007f000000000000000000000000000000000000000000000000000000000000000087613513565b6122d5565b846122d557507f00000000000000000000000000000000000000000000000000000000000000005b7f00000000000000000000000000000000000000000000000000000000000000006001600160a01b0316876001600160a01b0316141561233257507f00000000000000000000000000000000000000000000000000000000000000005b61233c8185613600565b612345836137ae565b60005b8651811015610a7a5761239d888883815181106123675761236761571d565b602002602001015160001c8984815181106123845761238461571d565b602002602001015160a01c6001600160601b0316613816565b806123a78161581c565b915050612348565b600080546001600160a01b031633146123da5760405162461bcd60e51b81526004016109079061566e565b836124275760405162461bcd60e51b815260206004820152601e60248201527f5f746f74616c53776170706564206d757374206265206e6f6e207a65726f00006044820152606401610907565b826124745760405162461bcd60e51b815260206004820152601f60248201527f5f72657761726473416d6f756e74206d757374206265206e6f6e207a65726f006044820152606401610907565b6124a060007f000000000000000000000000000000000000000000000000000000000000000086613513565b6001600160a01b037f000000000000000000000000000000000000000000000000000000000000000081166000908152601060209081526040808320938916835292905220546124f09085613ba6565b6001600160a01b037f000000000000000000000000000000000000000000000000000000000000000081166000908152601060209081526040808320938a168352929052908120919091556125459084613600565b61254e826137ae565b506001949350505050565b6002600154141561257c5760405162461bcd60e51b8152600401610907906156e6565b60026001556001600160a01b037f0000000000000000000000000000000000000000000000000000000000000000166125b860208301836153e4565b6001600160a01b031614156125cc57600080fd5b6001600160a01b037f00000000000000000000000000000000000000000000000000000000000000001661260660408301602084016153e4565b6001600160a01b0316146126555760405162461bcd60e51b815260206004820152601660248201527526bab9ba1039bbb0b8103a3790212a21903a37b5b2b760511b6044820152606401610907565b30612668610140830161012084016153e4565b6001600160a01b03161461267b57600080fd5b60408101356010600061269160208501856153e4565b6001600160a01b031681526020808201929092526040908101600090812033825290925290205410156126d65760405162461bcd60e51b815260040161090790615760565b60006126e860408301602084016153e4565b6040516370a0823160e01b81523060048201526001600160a01b0391909116906370a082319060240160206040518083038186803b15801561272957600080fd5b505afa15801561273d573d6000803e3d6000fd5b505050506040513d601f19601f820116820180604052508101906127619190615797565b90506127a960408301356010600061277c60208701876153e4565b6001600160a01b03168152602080820192909252604090810160009081203382529092529020549061390d565b601060006127ba60208601866153e4565b6001600160a01b03168152602080820192909252604090810160009081203382529092529020556127ea826140d1565b600061282e8261280060408601602087016153e4565b6040516370a0823160e01b81523060048201526001600160a01b0391909116906370a0823190602401610ddf565b905082608001358110156128545760405162461bcd60e51b8152600401610907906157b0565b8061285e57600080fd5b6128a3816010600061287660408801602089016153e4565b6001600160a01b031681526020808201929092526040908101600090812030825290925290205490613ba6565b601060006128b760408701602088016153e4565b6001600160a01b03168152602080820192909252604090810160009081203082529092529020556128e98585836145b8565b505060018055505050565b600080546001600160a01b0316331461291f5760405162461bcd60e51b81526004016109079061566e565b6000828152600c602052604090205460ff161561294e5760405162461bcd60e51b81526004016109079061588d565b60408051808201909152601d81527f42544320666c6f617420616d6f756e7420696e73756666696369656e7400000060208083019190915260008052600b90527fdf7de25b7f1fd6d0b5205f0e18f1f35bd7b8d84cce336588d184533ce43a6f76546129bb91859061473c565b60008052600b6020527fdf7de25b7f1fd6d0b5205f0e18f1f35bd7b8d84cce336588d184533ce43a6f76556129ef82614768565b5060015b92915050565b60026001541415612a1c5760405162461bcd60e51b8152600401610907906156e6565b600260015534612c46576001600160a01b03821673eeeeeeeeeeeeeeeeeeeeeeeeeeeeeeeeeeeeeeee1415612a5057600080fd5b7f00000000000000000000000000000000000000000000000000000000000000006001600160a01b0316826001600160a01b03161415612a8f57600080fd5b6040516370a0823160e01b81523060048201526000906001600160a01b038416906370a082319060240160206040518083038186803b158015612ad157600080fd5b505afa158015612ae5573d6000803e3d6000fd5b505050506040513d601f19601f82011682018060405250810190612b099190615797565b9050612b206001600160a01b038416333085614783565b6040516370a0823160e01b81523060048201526000906001600160a01b038516906370a082319060240160206040518083038186803b158015612b6257600080fd5b505afa158015612b76573d6000803e3d6000fd5b505050506040513d601f19601f82011682018060405250810190612b9a9190615797565b90506000612ba8828461390d565b6001600160a01b0386166000908152601060209081526040808320338452909152902054909150612bd99082613ba6565b6001600160a01b03861660009081526010602090815260408083203380855292529182902083905590517f4e2ca0515ed1aef1395f66b5303bb5d6f1bf9d61a353fa53f73f8ac9973fa9f692612c36928992909186914290615837565b60405180910390a1505050612da7565b60003411612c5357600080fd5b7f00000000000000000000000000000000000000000000000000000000000000006001600160a01b031663d0e30db0346040518263ffffffff1660e01b81526004016000604051808303818588803b158015612cae57600080fd5b505af1158015612cc2573d6000803e3d6000fd5b5050506001600160a01b037f0000000000000000000000000000000000000000000000000000000000000000166000908152601060209081526040808320338452909152902054612d169250905034613ba6565b7f00000000000000000000000000000000000000000000000000000000000000006001600160a01b031660009081526010602090815260408083203380855292529182902083905590517f4e2ca0515ed1aef1395f66b5303bb5d6f1bf9d61a353fa53f73f8ac9973fa9f6926117169273eeeeeeeeeeeeeeeeeeeeeeeeeeeeeeeeeeeeeeee92909134914290615837565b505060018055565b60026001541415612dd25760405162461bcd60e51b8152600401610907906156e6565b6002600155600082828281612de957612de961571d565b9050602002016020810190612dfe91906153e4565b905060008383612e0f600182615749565b818110612e1e57612e1e61571d565b9050602002016020810190612e3391906153e4565b6001600160a01b0383166000908152601060209081526040808320338452909152902054909150861115612e795760405162461bcd60e51b815260040161090790615760565b7f00000000000000000000000000000000000000000000000000000000000000006001600160a01b0316826001600160a01b03161415612eb857600080fd5b6001600160a01b03821673eeeeeeeeeeeeeeeeeeeeeeeeeeeeeeeeeeeeeeee1415612f1d5760405162461bcd60e51b815260206004820152601560248201527455736520706174682077455448202d3e207742544360581b6044820152606401610907565b7f00000000000000000000000000000000000000000000000000000000000000006001600160a01b0316816001600160a01b031614612f975760405162461bcd60e51b815260206004820152601660248201527526bab9ba1039bbb0b8103a3790212a21903a37b5b2b760511b6044820152606401610907565b6040516370a0823160e01b81523060048201526000906001600160a01b038316906370a082319060240160206040518083038186803b158015612fd957600080fd5b505afa158015612fed573d6000803e3d6000fd5b505050506040513d601f19601f820116820180604052508101906130119190615797565b6001600160a01b0384166000908152601060209081526040808320338452909152902054909150613042908861390d565b6001600160a01b0384166000908152601060209081526040808320338452909152902055891561307f5761307a898989898989613920565b61308b565b61308b87878787613a66565b6040516370a0823160e01b81523060048201526000906130c09083906001600160a01b038616906370a0823190602401610ddf565b9050868110156130e25760405162461bcd60e51b8152600401610907906157b0565b806130ec57600080fd5b6001600160a01b038316600090815260106020908152604080832030845290915290205461311a9082613ba6565b6001600160a01b03841660009081526010602090815260408083203084529091529020556131498d8d836145b8565b5050600180555050505050505050505050565b600080613176600954600854613ba690919063ffffffff16565b9050600081116131d65760405162461bcd60e51b815260206004820152602560248201527f746f74616c5265776172644c5073466f724e6f6465206973206e6f7420706f73604482015264697469766560d81b6064820152608401610907565b60006131e0611a60565b90506000805b825181101561323b576132278382815181106132045761320461571d565b602002602001015160a01c6001600160601b031683613ba690919063ffffffff16565b9150806132338161581c565b9150506131e6565b506008546040516340c10f1960e01b815230600482015260248101919091527f00000000000000000000000000000000000000000000000000000000000000006001600160a01b0316906340c10f1990604401602060405180830381600087803b1580156132a857600080fd5b505af11580156132bc573d6000803e3d6000fd5b505050506040513d601f19601f820116820180604052508101906132e091906158c4565b5060005b8251811015613406577f00000000000000000000000000000000000000000000000000000000000000006001600160a01b031663a9059cbb84838151811061332e5761332e61571d565b602002602001015160001c613375856115b08887815181106133525761335261571d565b602002602001015160a01c6001600160601b03168a6140b990919063ffffffff16565b6040516001600160e01b031960e085901b1681526001600160a01b0390921660048301526024820152604401602060405180830381600087803b1580156133bb57600080fd5b505af11580156133cf573d6000803e3d6000fd5b505050506040513d601f19601f820116820180604052508101906133f391906158c4565b50806133fe8161581c565b9150506132e4565b506040518381527f86dd6ae252e62228b47b3c1a12762cbf634952b2d29319b04f4f72fb153bcbdd9060200160405180910390a1505060006008819055600955506001919050565b6001600160a01b039182166000908152600b60205260408082205492909316815291909120549091565b6000546001600160a01b031633146134a25760405162461bcd60e51b81526004016109079061566e565b6001600160a01b0381166135075760405162461bcd60e51b815260206004820152602660248201527f4f776e61626c653a206e6577206f776e657220697320746865207a65726f206160448201526564647265737360d01b6064820152608401610907565b61351081614459565b50565b60408051808201825260208082527f5f737761703a20666c6f617420616d6f756e7420696e73756666696369656e74818301526001600160a01b0385166000908152600b909152919091205461356a91839061473c565b6001600160a01b038084166000908152600b602052604080822093909355908516815220546135999082613ba6565b6001600160a01b038481166000818152600b60209081526040918290209490945580519182529185169281019290925281018290527fea368a40e9570069bb8e6511d668293ad2e1f03b0d982431fd223de9f3b70ca69060600160405180910390a1505050565b80613609575050565b7f00000000000000000000000000000000000000000000000000000000000000006001600160a01b0316826001600160a01b031614156136a7576009546136509082613ba6565b600955604080516001600160a01b0384168152602081018390526000818301819052606082015290517fe3debe835f6848edc082b32a1d729781d3bfcd7e14422d80bcaa6794d3816b2f9181900360800190a15050565b60006136b1611495565b6001600160a01b0384166000908152600b60205260409020549091506136d79083613ba6565b6001600160a01b0384166000908152600b6020526040812091909155600754613711906064906115b090869062010000900460ff166140b9565b90506000613743836115b0847f00000000000000000000000000000000000000000000000000000000000000006140b9565b6008549091506137539082613ba6565b600855604080516001600160a01b038716815260208101869052908101829052606081018490527fe3debe835f6848edc082b32a1d729781d3bfcd7e14422d80bcaa6794d3816b2f9060800160405180910390a15050505050565b60005b8151811015613812576001600c60008484815181106137d2576137d261571d565b6020026020010151815260200190815260200160002060006101000a81548160ff021916908315150217905550808061380a9061581c565b9150506137b1565b5050565b7f00000000000000000000000000000000000000000000000000000000000000006001600160a01b0316836001600160a01b0316141561387d5761387a817f00000000000000000000000000000000000000000000000000000000000000006140b9565b90505b60405163a9059cbb60e01b81526001600160a01b0383811660048301526024820183905284169063a9059cbb90604401602060405180830381600087803b1580156138c757600080fd5b505af11580156138db573d6000803e3d6000fd5b505050506040513d601f19601f820116820180604052508101906138ff91906158c4565b61390857600080fd5b505050565b60006139198284615749565b9392505050565b6000828260008181106139355761393561571d565b905060200201602081019061394a91906153e4565b9050600073def171fe48cf0115b1d80b88dc8eab59176fee576001600160a01b031663d2c4b5986040518163ffffffff1660e01b815260040160206040518083038186803b15801561399b57600080fd5b505afa1580156139af573d6000803e3d6000fd5b505050506040513d601f19601f820116820180604052508101906139d391906158e1565b90506139e96001600160a01b03831682886147ee565b604051633d59840d60e21b815273def171fe48cf0115b1d80b88dc8eab59176fee579063f566103490613a2a908b908b908b908b908b908b90600401615947565b600060405180830381600087803b158015613a4457600080fd5b505af1158015613a58573d6000803e3d6000fd5b505050505050505050505050565b600082826000818110613a7b57613a7b61571d565b9050602002016020810190613a9091906153e4565b9050600073def171fe48cf0115b1d80b88dc8eab59176fee576001600160a01b031663d2c4b5986040518163ffffffff1660e01b815260040160206040518083038186803b158015613ae157600080fd5b505afa158015613af5573d6000803e3d6000fd5b505050506040513d601f19601f82011682018060405250810190613b1991906158e1565b9050613b2f6001600160a01b03831682886147ee565b604051632a42068d60e11b815273def171fe48cf0115b1d80b88dc8eab59176fee57906354840d1a90613b6c908990899089908990600401615987565b600060405180830381600087803b158015613b8657600080fd5b505af1158015613b9a573d6000803e3d6000fd5b50505050505050505050565b600061391982846159b1565b6000818152600c602052604081205460ff1615613be15760405162461bcd60e51b81526004016109079061588d565b83613c2e5760405162461bcd60e51b815260206004820152601c60248201527f546865207472616e73616374696f6e206973206e6f742076616c6964000000006044820152606401610907565b8360a081901c6000613c3e611495565b90506000613c707f00000000000000000000000000000000000000000000000000000000000000006115b085856140b9565b600754909150600090613c9790612710906115b0908590640100000000900460ff166140b9565b905087613ca4838361390d565b1015613d0f5760405162461bcd60e51b815260206004820152603460248201527f4572726f723a20616d6f756e744f66466c6f61742e737562287769746864726160448201527377616c4665657329203c205f6d696e657246656560601b6064820152608401610907565b6000613d1f89610e2f858561390d565b9050600080613d4f60007f000000000000000000000000000000000000000000000000000000000000000061344e565b90925090506001600160a01b038d16613dc057613d6c858561390d565b821015613dbb5760405162461bcd60e51b815260206004820152601f60248201527f54686520666c6f61742062616c616e636520696e73756666696369656e742e006044820152606401610907565b613e53565b7f00000000000000000000000000000000000000000000000000000000000000006001600160a01b03168d6001600160a01b03161415613e5357613e04858561390d565b811015613e535760405162461bcd60e51b815260206004820152601f60248201527f54686520666c6f61742062616c616e636520696e73756666696369656e742e006044820152606401610907565b613e5d8d85613600565b613e678d866148af565b613e708a614768565b7f00000000000000000000000000000000000000000000000000000000000000006001600160a01b03168d6001600160a01b03161415613eb557613eb58d8985613816565b604051630852cd8d60e31b8152600481018890527f00000000000000000000000000000000000000000000000000000000000000006001600160a01b0316906342966c6890602401602060405180830381600087803b158015613f1757600080fd5b505af1158015613f2b573d6000803e3d6000fd5b505050506040513d601f19601f82011682018060405250810190613f4f91906158c4565b613f5857600080fd5b604080516001600160a01b038a16815260208101899052908101869052606081018790526080810184905260a081018b90527fa9da34e5e4a956b744307ae7611795634e8365951073bf049d76b64b2ae7a0589060c00160405180910390a15060019c9b505050505050505050505050565b6000806000613ffa60007f000000000000000000000000000000000000000000000000000000000000000061344e565b9092509050600061401f60036115b060026115aa896140198989613ba6565b90613ba6565b90507f00000000000000000000000000000000000000000000000000000000000000006001600160a01b0316866001600160a01b031614801561406b5750806140688387613ba6565b10155b1561407c57600193505050506129f3565b6001600160a01b03861615801561409c5750806140998487613ba6565b10155b156140ad57600293505050506129f3565b50600095945050505050565b600061391982846159c9565b600061391982846159e8565b600073def171fe48cf0115b1d80b88dc8eab59176fee576001600160a01b031663d2c4b5986040518163ffffffff1660e01b815260040160206040518083038186803b15801561412057600080fd5b505afa158015614134573d6000803e3d6000fd5b505050506040513d601f19601f8201168201806040525081019061415891906158e1565b905061418081604084013561417060208601866153e4565b6001600160a01b031691906147ee565b6040516354e3f31b60e01b815273def171fe48cf0115b1d80b88dc8eab59176fee57906354e3f31b906141b7908590600401615b0e565b602060405180830381600087803b1580156141d157600080fd5b505af11580156141e5573d6000803e3d6000fd5b505050506040513d601f19601f820116820180604052508101906139089190615797565b6000818152600c602052604081205460ff16156142385760405162461bcd60e51b81526004016109079061588d565b836142855760405162461bcd60e51b815260206004820152601c60248201527f546865207472616e73616374696f6e206973206e6f742076616c6964000000006044820152606401610907565b8360a081901c6000614295611495565b905060006142c7826115b0857f00000000000000000000000000000000000000000000000000000000000000006140b9565b905060006142d58a856113e5565b90506000816142e55760006142f5565b6142f56127106115b085856140b9565b905088801561430357508015155b1561430d57600080fd5b6001600160a01b037f0000000000000000000000000000000000000000000000000000000000000000166340c10f1987614347868561390d565b6040516001600160e01b031960e085901b1681526001600160a01b0390921660048301526024820152604401602060405180830381600087803b15801561438d57600080fd5b505af11580156143a1573d6000803e3d6000fd5b505050506040513d601f19601f820116820180604052508101906143c591906158c4565b506008546143d39082613ba6565b6008556143e08b8661490c565b6143e988614768565b604080516001600160a01b038816815260208101879052908101849052606081018590526080810182905260a081018990527fdfaf4e23f7030adafec91a682e05bf9fb30c721f9cec3d8bcfae0459c5362db19060c00160405180910390a15060019a9950505050505050505050565b600080546001600160a01b038381166001600160a01b0319831681178455604051919092169283917f8be0079c531659141344cd1fd0a4f28419497f9722a3daafe3b4186f6b6457e09190a35050565b6002819055604080518281524260208201527fa1cc12e33e9907b789fd3c10ea0afd9d3e563e2db44d84c7269534f1046d1ca1910160405180910390a150565b6000811561451257506001600160a01b0383166000908152600d60205260408120556001613919565b6001600160a01b0384166000908152600e602052604090205460ff1661459657600f805460018082019092557f8d1108e10bcb7c27dddfc02ed9d693a074039d026cf4ea4240b40f7d581ac8020180546001600160a01b0319166001600160a01b0387169081179091556000908152600e60205260409020805460ff191690911790555b50506001600160a01b03919091166000908152600d6020526040902055600190565b60007f0000000000000000000000000000000000000000000000000000000000000000600454858585426040516020016145f796959493929190615cc4565b6040516020818303038152906040528051906020012090506040518060a0016040528082815260200185858080601f01602080910402602001604051908101604052809392919081815260200183838082843760009201829052509385525050336020808501919091526040808501889052426060909501949094526004548352600381529290912083518155838301518051919361469e93506001850192910190614ce8565b5060408201516002820180546001600160a01b0319166001600160a01b03909216919091179055606082015160038201556080909101516004909101556146e361492f565b6004546146f1906001613ba6565b6004556040517faaa4c278970337923c885845b00985ecf5082317e2f9abf72a27b4d35255d6729061472e90839087908790339088904290615cfb565b60405180910390a150505050565b600081848411156147605760405162461bcd60e51b81526004016109079190615d3c565b505050900390565b6000908152600c60205260409020805460ff19166001179055565b6040516001600160a01b03808516602483015283166044820152606481018290526112de9085906323b872dd60e01b906084015b60408051601f198184030181529190526020810180516001600160e01b03166001600160e01b031990931692909217909152614a64565b604051636eb1769f60e11b81523060048201526001600160a01b038381166024830152600091839186169063dd62ed3e9060440160206040518083038186803b15801561483a57600080fd5b505afa15801561484e573d6000803e3d6000fd5b505050506040513d601f19601f820116820180604052508101906148729190615797565b61487c91906159b1565b6040516001600160a01b0385166024820152604481018290529091506112de90859063095ea7b360e01b906064016147b7565b6148ec81604051806060016040528060278152602001615d6c602791396001600160a01b0385166000908152600b6020526040902054919061473c565b6001600160a01b039092166000908152600b602052604090209190915550565b6001600160a01b0382166000908152600b60205260409020546148ec9082613ba6565b60055442905b600454811161381257600254600082815260036020526040902060040154839161495f9190613ba6565b1015614a52576000818152600360208181526040808420909201546001600160a01b037f0000000000000000000000000000000000000000000000000000000000000000168452601082528284203085529091529120546149bf9161390d565b6001600160a01b037f00000000000000000000000000000000000000000000000000000000000000001660009081526010602090815260408083203084528252808320939093558382526003905290812081815590614a216001830182614cae565b506002810180546001600160a01b0319169055600060038201819055600490910155614a4e816001613ba6565b6005555b80614a5c8161581c565b915050614935565b6000614ab9826040518060400160405280602081526020017f5361666545524332303a206c6f772d6c6576656c2063616c6c206661696c6564815250856001600160a01b0316614b369092919063ffffffff16565b8051909150156139085780806020019051810190614ad791906158c4565b6139085760405162461bcd60e51b815260206004820152602a60248201527f5361666545524332303a204552433230206f7065726174696f6e20646964206e6044820152691bdd081cdd58d8d9595960b21b6064820152608401610907565b6060614b458484600085614b4d565b949350505050565b606082471015614bae5760405162461bcd60e51b815260206004820152602660248201527f416464726573733a20696e73756666696369656e742062616c616e636520666f6044820152651c8818d85b1b60d21b6064820152608401610907565b843b614bfc5760405162461bcd60e51b815260206004820152601d60248201527f416464726573733a2063616c6c20746f206e6f6e2d636f6e74726163740000006044820152606401610907565b600080866001600160a01b03168587604051614c189190615d4f565b60006040518083038185875af1925050503d8060008114614c55576040519150601f19603f3d011682016040523d82523d6000602084013e614c5a565b606091505b5091509150614c6a828286614c75565b979650505050505050565b60608315614c84575081613919565b825115614c945782518084602001fd5b8160405162461bcd60e51b81526004016109079190615d3c565b508054614cba906157e7565b6000825580601f10614cca575050565b601f0160209004906000526020600020908101906135109190614d6c565b828054614cf4906157e7565b90600052602060002090601f016020900481019282614d165760008555614d5c565b82601f10614d2f57805160ff1916838001178555614d5c565b82800160010185558215614d5c579182015b82811115614d5c578251825591602001919060010190614d41565b50614d68929150614d6c565b5090565b5b80821115614d685760008155600101614d6d565b634e487b7160e01b600052600160045260246000fd5b6001600160a01b038116811461351057600080fd5b8035614db781614d97565b919050565b634e487b7160e01b600052604160045260246000fd5b604051601f8201601f191681016001600160401b0381118282101715614dfa57614dfa614dbc565b604052919050565b60006001600160401b03821115614e1b57614e1b614dbc565b5060051b60200190565b600082601f830112614e3657600080fd5b81356020614e4b614e4683614e02565b614dd2565b82815260059290921b84018101918181019086841115614e6a57600080fd5b8286015b84811015614e855780358352918301918301614e6e565b509695505050505050565b60008060008060008060c08789031215614ea957600080fd5b8635614eb481614d97565b95506020870135614ec481614d97565b945060408701359350606087013592506080870135915060a08701356001600160401b03811115614ef457600080fd5b614f0089828a01614e25565b9150509295509295509295565b801515811461351057600080fd5b60008083601f840112614f2d57600080fd5b5081356001600160401b03811115614f4457600080fd5b6020830191508360208260051b8501011115614f5f57600080fd5b9250929050565b600080600080600080600060c0888a031215614f8157600080fd5b8735614f8c81614f0d565b96506020880135614f9c81614d97565b955060408801359450606088013593506080880135925060a08801356001600160401b03811115614fcc57600080fd5b614fd88a828b01614f1b565b989b979a50959850939692959293505050565b600060208284031215614ffd57600080fd5b5035919050565b60005b8381101561501f578181015183820152602001615007565b838111156112de5750506000910152565b60008151808452615048816020860160208601615004565b601f01601f19169290920160200192915050565b85815260a06020820152600061507560a0830187615030565b6001600160a01b0395909516604083015250606081019290925260809091015292915050565b60006020808301818452808551808352604092508286019150828160051b87010184880160005b8381101561512b57603f19898403018552815160a08151855288820151818a8701526150f082870182615030565b838a01516001600160a01b0316878b0152606080850151908801526080938401519390960192909252505093860193908601906001016150c2565b509098975050505050505050565b6000806000806080858703121561514f57600080fd5b843561515a81614d97565b966020860135965060408601359560600135945092505050565b6000806040838503121561518757600080fd5b823561519281614d97565b946020939093013593505050565b600080604083850312156151b357600080fd5b82356151be81614d97565b915060208301356151ce81614d97565b809150509250929050565b60006101e082840312156151ec57600080fd5b50919050565b60006020828403121561520457600080fd5b81356001600160401b0381111561521a57600080fd5b614b45848285016151d9565b6000806000806080858703121561523c57600080fd5b843561524781614d97565b935060208501359250604085013561525e81614f0d565b9396929550929360600135925050565b6020808252825182820181905260009190848201906040850190845b818110156152a65783518352928401929184019160010161528a565b50909695505050505050565b803560ff81168114614db757600080fd5b600080600080600080600080610100898b0312156152e057600080fd5b88356152eb81614d97565b97506020898101356001600160401b038082111561530857600080fd5b6153148d838e01614e25565b995060408c013591508082111561532a57600080fd5b508a01601f81018c1361533c57600080fd5b803561534a614e4682614e02565b81815260059190911b8201830190838101908e83111561536957600080fd5b928401925b8284101561539057833561538181614f0d565b8252928401929084019061536e565b809a5050505050506153a460608a016152b2565b94506153b260808a016152b2565b93506153c060a08a016152b2565b92506153ce60c08a016152b2565b915060e089013590509295985092959890939650565b6000602082840312156153f657600080fd5b813561391981614d97565b600080600080600060a0868803121561541957600080fd5b853561542481614d97565b945060208601356001600160401b038082111561544057600080fd5b61544c89838a01614e25565b95506040880135945060608801359350608088013591508082111561547057600080fd5b5061547d88828901614e25565b9150509295509295909350565b600080600080608085870312156154a057600080fd5b84356154ab81614d97565b9350602085013592506040850135915060608501356001600160401b038111156154d457600080fd5b6154e087828801614e25565b91505092959194509250565b60008083601f8401126154fe57600080fd5b5081356001600160401b0381111561551557600080fd5b602083019150836020828501011115614f5f57600080fd5b60008060006040848603121561554257600080fd5b83356001600160401b038082111561555957600080fd5b615565878388016154ec565b9095509350602086013591508082111561557e57600080fd5b5061558b868287016151d9565b9150509250925092565b600080604083850312156155a857600080fd5b50508035926020909101359150565b600080600080600080600080600060e08a8c0312156155d557600080fd5b89356001600160401b03808211156155ec57600080fd5b6155f88d838e016154ec565b909b50995060208c0135915061560d82614f0d565b90975060408b01359061561f82614d97565b90965060608b0135955060808b0135945060a08b0135935060c08b0135908082111561564a57600080fd5b506156578c828d01614f1b565b915080935050809150509295985092959850929598565b6020808252818101527f4f776e61626c653a2063616c6c6572206973206e6f7420746865206f776e6572604082015260600190565b60208082526023908201527f5f64657374546f6b656e2073686f756c64206e6f74206265206164647265737360408201526228302960e81b606082015260800190565b6020808252601f908201527f5265656e7472616e637947756172643a207265656e7472616e742063616c6c00604082015260600190565b634e487b7160e01b600052603260045260246000fd5b634e487b7160e01b600052601160045260246000fd5b60008282101561575b5761575b615733565b500390565b60208082526019908201527f42616c616e6365206973206e6f742073756666696369656e7400000000000000604082015260600190565b6000602082840312156157a957600080fd5b5051919050565b6020808252601c908201527f526563656976656420616d6f756e7420696e73756666696369656e7400000000604082015260600190565b600181811c908216806157fb57607f821691505b602082108114156151ec57634e487b7160e01b600052602260045260246000fd5b600060001982141561583057615830615733565b5060010190565b6001600160a01b03958616815293909416602084015260408301919091526060820152608081019190915260a00190565b600060ff821660ff84168060ff0382111561588557615885615733565b019392505050565b60208082526018908201527f546865207478696420697320616c726561647920757365640000000000000000604082015260600190565b6000602082840312156158d657600080fd5b815161391981614f0d565b6000602082840312156158f357600080fd5b815161391981614d97565b8183526000602080850194508260005b8581101561593c57813561592181614d97565b6001600160a01b03168752958201959082019060010161590e565b509495945050505050565b60018060a01b038716815285602082015284604082015283606082015260a06080820152600061597b60a0830184866158fe565b98975050505050505050565b8481528360208201526060604082015260006159a76060830184866158fe565b9695505050505050565b600082198211156159c4576159c4615733565b500190565b60008160001904831182151516156159e3576159e3615733565b500290565b600082615a0557634e487b7160e01b600052601260045260246000fd5b500490565b6000808335601e19843603018112615a2157600080fd5b83016020810192503590506001600160401b03811115615a4057600080fd5b8060051b3603831315614f5f57600080fd5b6000808335601e19843603018112615a6957600080fd5b83016020810192503590506001600160401b03811115615a8857600080fd5b803603831315614f5f57600080fd5b81835281816020850137506000828201602090810191909152601f909101601f19169091010190565b81835260006001600160fb1b03831115615ad957600080fd5b8260051b8083602087013760009401602001938452509192915050565b80356001600160801b031981168114614db757600080fd5b60208152615b2f60208201615b2284614dac565b6001600160a01b03169052565b6000615b3d60208401614dac565b6001600160a01b0381166040840152506040830135606083015260608301356080830152608083013560a0830152615b7860a0840184615a0a565b6101e08060c0860152615b90610200860183856158fe565b9250615b9f60c0870187615a52565b9250601f19808786030160e0880152615bb9858584615a97565b9450615bc860e0890189615a0a565b94509150610100818887030181890152615be3868685615ac0565b9550615bf1818a018a615a0a565b9550925050610120818887030181890152615c0d868685615ac0565b9550615c1a818a01614dac565b9450506101409150615c36828801856001600160a01b03169052565b615c41828901614dac565b93506101609150615c5c828801856001600160a01b03169052565b61018093508188013584880152615c7584890189615a52565b945091506101a0818887030181890152615c90868685615a97565b95506101c094508089013585890152505050615cad828701615af6565b6001600160801b0319169401939093529392505050565b6001600160601b03198760601b16815285601482015283856034830137603493019283019190915260548201526074019392505050565b86815260a060208201526000615d1560a083018789615a97565b6001600160a01b039590951660408301525060608101929092526080909101529392505050565b6020815260006139196020830184615030565b60008251615d61818460208701615004565b919091019291505056fe5f72656d6f7665466c6f61743a20666c6f617420616d6f756e7420696e73756666696369656e74a264697066735822122089b40aea985de2b35845a5927ad5486487659fc9e1d02e08c9283f874f619ade64736f6c63430008090033a26469706673582212209f0fcbf48231702a989a5b0749db51106dd16c4fd6eb620893ced4ebadc9353964736f6c63430008090033",
  "linkReferences": {},
  "deployedLinkReferences": {}
}