{
  "_format": "hh-sol-artifact-1",
  "contractName": "LPToken",
  "sourceName": "contracts/LPToken.sol",
  "abi": [
    {
      "inputs": [
        {
          "internalType": "uint8",
          "name": "_decimals",
          "type": "uint8"
        }
      ],
      "stateMutability": "nonpayable",
      "type": "constructor"
    },
    {
      "anonymous": false,
      "inputs": [
        {
          "indexed": true,
          "internalType": "address",
          "name": "owner",
          "type": "address"
        },
        {
          "indexed": true,
          "internalType": "address",
          "name": "spender",
          "type": "address"
        },
        {
          "indexed": false,
          "internalType": "uint256",
          "name": "value",
          "type": "uint256"
        }
      ],
      "name": "Approval",
      "type": "event"
    },
    {
      "anonymous": false,
      "inputs": [
        {
          "indexed": true,
          "internalType": "address",
          "name": "previousOwner",
          "type": "address"
        },
        {
          "indexed": true,
          "internalType": "address",
          "name": "newOwner",
          "type": "address"
        }
      ],
      "name": "OwnershipTransferred",
      "type": "event"
    },
    {
      "anonymous": false,
      "inputs": [
        {
          "indexed": true,
          "internalType": "address",
          "name": "from",
          "type": "address"
        },
        {
          "indexed": true,
          "internalType": "address",
          "name": "to",
          "type": "address"
        },
        {
          "indexed": false,
          "internalType": "uint256",
          "name": "value",
          "type": "uint256"
        }
      ],
      "name": "Transfer",
      "type": "event"
    },
    {
      "inputs": [
        {
          "internalType": "address",
          "name": "owner",
          "type": "address"
        },
        {
          "internalType": "address",
          "name": "spender",
          "type": "address"
        }
      ],
      "name": "allowance",
      "outputs": [
        {
          "internalType": "uint256",
          "name": "",
          "type": "uint256"
        }
      ],
      "stateMutability": "view",
      "type": "function"
    },
    {
      "inputs": [
        {
          "internalType": "address",
          "name": "spender",
          "type": "address"
        },
        {
          "internalType": "uint256",
          "name": "amount",
          "type": "uint256"
        }
      ],
      "name": "approve",
      "outputs": [
        {
          "internalType": "bool",
          "name": "",
          "type": "bool"
        }
      ],
      "stateMutability": "nonpayable",
      "type": "function"
    },
    {
      "inputs": [
        {
          "internalType": "address",
          "name": "account",
          "type": "address"
        }
      ],
      "name": "balanceOf",
      "outputs": [
        {
          "internalType": "uint256",
          "name": "",
          "type": "uint256"
        }
      ],
      "stateMutability": "view",
      "type": "function"
    },
    {
      "inputs": [
        {
          "internalType": "uint256",
          "name": "amount",
          "type": "uint256"
        }
      ],
      "name": "burn",
      "outputs": [
        {
          "internalType": "bool",
          "name": "",
          "type": "bool"
        }
      ],
      "stateMutability": "nonpayable",
      "type": "function"
    },
    {
      "inputs": [],
      "name": "decimals",
      "outputs": [
        {
          "internalType": "uint8",
          "name": "",
          "type": "uint8"
        }
      ],
      "stateMutability": "view",
      "type": "function"
    },
    {
      "inputs": [
        {
          "internalType": "address",
          "name": "spender",
          "type": "address"
        },
        {
          "internalType": "uint256",
          "name": "subtractedValue",
          "type": "uint256"
        }
      ],
      "name": "decreaseAllowance",
      "outputs": [
        {
          "internalType": "bool",
          "name": "",
          "type": "bool"
        }
      ],
      "stateMutability": "nonpayable",
      "type": "function"
    },
    {
      "inputs": [],
      "name": "getOwner",
      "outputs": [
        {
          "internalType": "address",
          "name": "",
          "type": "address"
        }
      ],
      "stateMutability": "view",
      "type": "function"
    },
    {
      "inputs": [
        {
          "internalType": "address",
          "name": "spender",
          "type": "address"
        },
        {
          "internalType": "uint256",
          "name": "addedValue",
          "type": "uint256"
        }
      ],
      "name": "increaseAllowance",
      "outputs": [
        {
          "internalType": "bool",
          "name": "",
          "type": "bool"
        }
      ],
      "stateMutability": "nonpayable",
      "type": "function"
    },
    {
      "inputs": [
        {
          "internalType": "address",
          "name": "target",
          "type": "address"
        },
        {
          "internalType": "uint256",
          "name": "amount",
          "type": "uint256"
        }
      ],
      "name": "mint",
      "outputs": [
        {
          "internalType": "bool",
          "name": "",
          "type": "bool"
        }
      ],
      "stateMutability": "nonpayable",
      "type": "function"
    },
    {
      "inputs": [],
      "name": "mintable",
      "outputs": [
        {
          "internalType": "bool",
          "name": "",
          "type": "bool"
        }
      ],
      "stateMutability": "view",
      "type": "function"
    },
    {
      "inputs": [],
      "name": "name",
      "outputs": [
        {
          "internalType": "string",
          "name": "",
          "type": "string"
        }
      ],
      "stateMutability": "view",
      "type": "function"
    },
    {
      "inputs": [],
      "name": "owner",
      "outputs": [
        {
          "internalType": "address",
          "name": "",
          "type": "address"
        }
      ],
      "stateMutability": "view",
      "type": "function"
    },
    {
      "inputs": [],
      "name": "renounceOwnership",
      "outputs": [],
      "stateMutability": "nonpayable",
      "type": "function"
    },
    {
      "inputs": [],
      "name": "symbol",
      "outputs": [
        {
          "internalType": "string",
          "name": "",
          "type": "string"
        }
      ],
      "stateMutability": "view",
      "type": "function"
    },
    {
      "inputs": [],
      "name": "totalSupply",
      "outputs": [
        {
          "internalType": "uint256",
          "name": "",
          "type": "uint256"
        }
      ],
      "stateMutability": "view",
      "type": "function"
    },
    {
      "inputs": [
        {
          "internalType": "address",
          "name": "recipient",
          "type": "address"
        },
        {
          "internalType": "uint256",
          "name": "amount",
          "type": "uint256"
        }
      ],
      "name": "transfer",
      "outputs": [
        {
          "internalType": "bool",
          "name": "",
          "type": "bool"
        }
      ],
      "stateMutability": "nonpayable",
      "type": "function"
    },
    {
      "inputs": [
        {
          "internalType": "address",
          "name": "sender",
          "type": "address"
        },
        {
          "internalType": "address",
          "name": "recipient",
          "type": "address"
        },
        {
          "internalType": "uint256",
          "name": "amount",
          "type": "uint256"
        }
      ],
      "name": "transferFrom",
      "outputs": [
        {
          "internalType": "bool",
          "name": "",
          "type": "bool"
        }
      ],
      "stateMutability": "nonpayable",
      "type": "function"
    },
    {
      "inputs": [
        {
          "internalType": "address",
          "name": "newOwner",
          "type": "address"
        }
      ],
      "name": "transferOwnership",
      "outputs": [],
      "stateMutability": "nonpayable",
      "type": "function"
    }
  ],
  "bytecode": "0x60806040523480156200001157600080fd5b506040516200141838038062001418833981810160405260208110156200003757600080fd5b5051600062000045620000ff565b600080546001600160a01b0319166001600160a01b0383169081178255604051929350917f8be0079c531659141344cd1fd0a4f28419497f9722a3daafe3b4186f6b6457e0908290a350620000f86040518060400160405280601481526020017f5377696e67627920425443204c5020546f6b656e00000000000000000000000081525060405180604001604052806005815260200164736242544360d81b81525083600060016200010360201b60201c565b5062000379565b3390565b845162000118906004906020880190620002dd565b5083516200012e906005906020870190620002dd565b506006805460ff191660ff85161761ff00191661010083151502179055620001606200015962000167565b8362000176565b5050505050565b6000546001600160a01b031690565b6001600160a01b038216620001d2576040805162461bcd60e51b815260206004820152601f60248201527f45524332303a206d696e7420746f20746865207a65726f206164647265737300604482015290519081900360640190fd5b620001ee816003546200027b60201b620009821790919060201c565b6003556001600160a01b03821660009081526001602090815260409091205462000223918390620009826200027b821b17901c565b6001600160a01b03831660008181526001602090815260408083209490945583518581529351929391927fddf252ad1be2c89b69c2b068fc378daa952ba7f163c4a11628f55a4df523b3ef9281900390910190a35050565b600082820183811015620002d6576040805162461bcd60e51b815260206004820152601b60248201527f536166654d6174683a206164646974696f6e206f766572666c6f770000000000604482015290519081900360640190fd5b9392505050565b828054600181600116156101000203166002900490600052602060002090601f016020900481019282601f106200032057805160ff191683800117855562000350565b8280016001018555821562000350579182015b828111156200035057825182559160200191906001019062000333565b506200035e92915062000362565b5090565b5b808211156200035e576000815560010162000363565b61108f80620003896000396000f3fe608060405234801561001057600080fd5b50600436106101165760003560e01c806370a08231116100a257806395d89b411161007157806395d89b411461031f578063a457c2d714610327578063a9059cbb14610353578063dd62ed3e1461037f578063f2fde38b146103ad57610116565b806370a08231146102c3578063715018a6146102e9578063893d20e8146102f35780638da5cb5b1461031757610116565b8063313ce567116100e9578063313ce56714610228578063395093511461024657806340c10f191461027257806342966c681461029e5780634bf365df146102bb57610116565b806306fdde031461011b578063095ea7b31461019857806318160ddd146101d857806323b872dd146101f2575b600080fd5b6101236103d3565b6040805160208082528351818301528351919283929083019185019080838360005b8381101561015d578181015183820152602001610145565b50505050905090810190601f16801561018a5780820380516001836020036101000a031916815260200191505b509250505060405180910390f35b6101c4600480360360408110156101ae57600080fd5b506001600160a01b038135169060200135610469565b604080519115158252519081900360200190f35b6101e0610486565b60408051918252519081900360200190f35b6101c46004803603606081101561020857600080fd5b506001600160a01b0381358116916020810135909116906040013561048c565b610230610513565b6040805160ff9092168252519081900360200190f35b6101c46004803603604081101561025c57600080fd5b506001600160a01b03813516906020013561051c565b6101c46004803603604081101561028857600080fd5b506001600160a01b03813516906020013561056a565b6101c4600480360360208110156102b457600080fd5b5035610646565b6101c4610661565b6101e0600480360360208110156102d957600080fd5b50356001600160a01b031661066f565b6102f161068a565b005b6102fb610748565b604080516001600160a01b039092168252519081900360200190f35b6102fb610757565b610123610766565b6101c46004803603604081101561033d57600080fd5b506001600160a01b0381351690602001356107c7565b6101c46004803603604081101561036957600080fd5b506001600160a01b03813516906020013561082f565b6101e06004803603604081101561039557600080fd5b506001600160a01b0381358116916020013516610843565b6102f1600480360360208110156103c357600080fd5b50356001600160a01b031661086e565b60048054604080516020601f600260001961010060018816150201909516949094049384018190048102820181019092528281526060939092909183018282801561045f5780601f106104345761010080835404028352916020019161045f565b820191906000526020600020905b81548152906001019060200180831161044257829003601f168201915b5050505050905090565b600061047d6104766109e3565b84846109e7565b50600192915050565b60035490565b6000610499848484610ad3565b610509846104a56109e3565b61050485604051806060016040528060288152602001610fa3602891396001600160a01b038a166000908152600260205260408120906104e36109e3565b6001600160a01b031681526020810191909152604001600020549190610c25565b6109e7565b5060019392505050565b60065460ff1690565b600061047d6105296109e3565b84610504856002600061053a6109e3565b6001600160a01b03908116825260208083019390935260409182016000908120918c168152925290205490610982565b60006105746109e3565b6001600160a01b0316610585610757565b6001600160a01b0316146105e0576040805162461bcd60e51b815260206004820181905260248201527f4f776e61626c653a2063616c6c6572206973206e6f7420746865206f776e6572604482015290519081900360640190fd5b600654610100900460ff1661063c576040805162461bcd60e51b815260206004820152601a60248201527f5468697320746f6b656e206973206e6f74206d696e7461626c65000000000000604482015290519081900360640190fd5b61047d8383610cbc565b60006106596106536109e3565b83610da2565b506001919050565b600654610100900460ff1690565b6001600160a01b031660009081526001602052604090205490565b6106926109e3565b6001600160a01b03166106a3610757565b6001600160a01b0316146106fe576040805162461bcd60e51b815260206004820181905260248201527f4f776e61626c653a2063616c6c6572206973206e6f7420746865206f776e6572604482015290519081900360640190fd5b600080546040516001600160a01b03909116907f8be0079c531659141344cd1fd0a4f28419497f9722a3daafe3b4186f6b6457e0908390a3600080546001600160a01b0319169055565b6000610752610757565b905090565b6000546001600160a01b031690565b60058054604080516020601f600260001961010060018816150201909516949094049384018190048102820181019092528281526060939092909183018282801561045f5780601f106104345761010080835404028352916020019161045f565b600061047d6107d46109e3565b846105048560405180606001604052806025815260200161103560259139600260006107fe6109e3565b6001600160a01b03908116825260208083019390935260409182016000908120918d16815292529020549190610c25565b600061047d61083c6109e3565b8484610ad3565b6001600160a01b03918216600090815260026020908152604080832093909416825291909152205490565b6108766109e3565b6001600160a01b0316610887610757565b6001600160a01b0316146108e2576040805162461bcd60e51b815260206004820181905260248201527f4f776e61626c653a2063616c6c6572206973206e6f7420746865206f776e6572604482015290519081900360640190fd5b6001600160a01b0381166109275760405162461bcd60e51b8152600401808060200182810382526026815260200180610f356026913960400191505060405180910390fd5b600080546040516001600160a01b03808516939216917f8be0079c531659141344cd1fd0a4f28419497f9722a3daafe3b4186f6b6457e091a3600080546001600160a01b0319166001600160a01b0392909216919091179055565b6000828201838110156109dc576040805162461bcd60e51b815260206004820152601b60248201527f536166654d6174683a206164646974696f6e206f766572666c6f770000000000604482015290519081900360640190fd5b9392505050565b3390565b6001600160a01b038316610a2c5760405162461bcd60e51b81526004018080602001828103825260248152602001806110116024913960400191505060405180910390fd5b6001600160a01b038216610a715760405162461bcd60e51b8152600401808060200182810382526022815260200180610f5b6022913960400191505060405180910390fd5b6001600160a01b03808416600081815260026020908152604080832094871680845294825291829020859055815185815291517f8c5be1e5ebec7d5bd14f71427d1e84f3dd0314c0f7b2291e5b200ac8c7c3b9259281900390910190a3505050565b6001600160a01b038316610b185760405162461bcd60e51b8152600401808060200182810382526025815260200180610fec6025913960400191505060405180910390fd5b6001600160a01b038216610b5d5760405162461bcd60e51b8152600401808060200182810382526023815260200180610ef06023913960400191505060405180910390fd5b610b9a81604051806060016040528060268152602001610f7d602691396001600160a01b0386166000908152600160205260409020549190610c25565b6001600160a01b038085166000908152600160205260408082209390935590841681522054610bc99082610982565b6001600160a01b0380841660008181526001602090815260409182902094909455805185815290519193928716927fddf252ad1be2c89b69c2b068fc378daa952ba7f163c4a11628f55a4df523b3ef92918290030190a3505050565b60008184841115610cb45760405162461bcd60e51b81526004018080602001828103825283818151815260200191508051906020019080838360005b83811015610c79578181015183820152602001610c61565b50505050905090810190601f168015610ca65780820380516001836020036101000a031916815260200191505b509250505060405180910390fd5b505050900390565b6001600160a01b038216610d17576040805162461bcd60e51b815260206004820152601f60248201527f45524332303a206d696e7420746f20746865207a65726f206164647265737300604482015290519081900360640190fd5b600354610d249082610982565b6003556001600160a01b038216600090815260016020526040902054610d4a9082610982565b6001600160a01b03831660008181526001602090815260408083209490945583518581529351929391927fddf252ad1be2c89b69c2b068fc378daa952ba7f163c4a11628f55a4df523b3ef9281900390910190a35050565b6001600160a01b038216610de75760405162461bcd60e51b8152600401808060200182810382526021815260200180610fcb6021913960400191505060405180910390fd5b610e2481604051806060016040528060228152602001610f13602291396001600160a01b0385166000908152600160205260409020549190610c25565b6001600160a01b038316600090815260016020526040902055600354610e4a9082610e92565b6003556040805182815290516000916001600160a01b038516917fddf252ad1be2c89b69c2b068fc378daa952ba7f163c4a11628f55a4df523b3ef9181900360200190a35050565b600082821115610ee9576040805162461bcd60e51b815260206004820152601e60248201527f536166654d6174683a207375627472616374696f6e206f766572666c6f770000604482015290519081900360640190fd5b5090039056fe45524332303a207472616e7366657220746f20746865207a65726f206164647265737345524332303a206275726e20616d6f756e7420657863656564732062616c616e63654f776e61626c653a206e6577206f776e657220697320746865207a65726f206164647265737345524332303a20617070726f766520746f20746865207a65726f206164647265737345524332303a207472616e7366657220616d6f756e7420657863656564732062616c616e636545524332303a207472616e7366657220616d6f756e74206578636565647320616c6c6f77616e636545524332303a206275726e2066726f6d20746865207a65726f206164647265737345524332303a207472616e736665722066726f6d20746865207a65726f206164647265737345524332303a20617070726f76652066726f6d20746865207a65726f206164647265737345524332303a2064656372656173656420616c6c6f77616e63652062656c6f77207a65726fa2646970667358221220ada84c9293ef738b4f9eb93da0089d2b94d238fe0ed7703745e9b101a2a13a0964736f6c63430007030033",
  "linkReferences": {},
  "deployedLinkReferences": {}
}