{
  "_format": "hh-sol-artifact-1",
  "contractName": "SwapRewards",
  "sourceName": "contracts/SwapRewards.sol",
  "abi": [
    {
      "inputs": [
        {
          "internalType": "address",
          "name": "_owner",
          "type": "address"
        },
        {
          "internalType": "address",
          "name": "_swingby",
          "type": "address"
        },
        {
          "internalType": "address",
          "name": "_swap",
          "type": "address"
        }
      ],
      "stateMutability": "nonpayable",
      "type": "constructor"
    },
    {
      "anonymous": false,
      "inputs": [
        {
          "indexed": true,
          "internalType": "address",
          "name": "previousOwner",
          "type": "address"
        },
        {
          "indexed": true,
          "internalType": "address",
          "name": "newOwner",
          "type": "address"
        }
      ],
      "name": "OwnershipTransferred",
      "type": "event"
    },
    {
      "anonymous": false,
      "inputs": [
        {
          "indexed": false,
          "internalType": "address",
          "name": "to",
          "type": "address"
        },
        {
          "indexed": false,
          "internalType": "uint256",
          "name": "amount",
          "type": "uint256"
        },
        {
          "indexed": false,
          "internalType": "uint256",
          "name": "rebate",
          "type": "uint256"
        }
      ],
      "name": "Paid",
      "type": "event"
    },
    {
      "inputs": [],
      "name": "owner",
      "outputs": [
        {
          "internalType": "address",
          "name": "",
          "type": "address"
        }
      ],
      "stateMutability": "view",
      "type": "function"
    },
    {
      "inputs": [
        {
          "internalType": "address",
          "name": "_dest",
          "type": "address"
        },
        {
          "internalType": "address",
          "name": "_receiver",
          "type": "address"
        },
        {
          "internalType": "uint256",
          "name": "_swapped",
          "type": "uint256"
        }
      ],
      "name": "pullRewards",
      "outputs": [],
      "stateMutability": "nonpayable",
      "type": "function"
    },
    {
      "inputs": [
        {
          "internalType": "address",
          "name": "_dest",
          "type": "address"
        },
        {
          "internalType": "address[]",
          "name": "_receiver",
          "type": "address[]"
        },
        {
          "internalType": "uint256[]",
          "name": "_swapped",
          "type": "uint256[]"
        }
      ],
      "name": "pullRewardsMulti",
      "outputs": [],
      "stateMutability": "nonpayable",
      "type": "function"
    },
    {
      "inputs": [],
      "name": "rebateRate",
      "outputs": [
        {
          "internalType": "uint256",
          "name": "",
          "type": "uint256"
        }
      ],
      "stateMutability": "view",
      "type": "function"
    },
    {
      "inputs": [],
      "name": "renounceOwnership",
      "outputs": [],
      "stateMutability": "nonpayable",
      "type": "function"
    },
    {
      "inputs": [],
      "name": "rewardToken",
      "outputs": [
        {
          "internalType": "contract IERC20",
          "name": "",
          "type": "address"
        }
      ],
      "stateMutability": "view",
      "type": "function"
    },
    {
      "inputs": [
        {
          "internalType": "address",
          "name": "_swap",
          "type": "address"
        },
        {
          "internalType": "uint256",
          "name": "_newRebateRate",
          "type": "uint256"
        },
        {
          "internalType": "uint256",
          "name": "_thresholdRatio",
          "type": "uint256"
        }
      ],
      "name": "setSwap",
      "outputs": [],
      "stateMutability": "nonpayable",
      "type": "function"
    },
    {
      "inputs": [],
      "name": "swapContract",
      "outputs": [
        {
          "internalType": "contract ISwapContract",
          "name": "",
          "type": "address"
        }
      ],
      "stateMutability": "view",
      "type": "function"
    },
    {
      "inputs": [],
      "name": "thresholdRatio",
      "outputs": [
        {
          "internalType": "uint256",
          "name": "",
          "type": "uint256"
        }
      ],
      "stateMutability": "view",
      "type": "function"
    },
    {
      "inputs": [
        {
          "internalType": "address",
          "name": "newOwner",
          "type": "address"
        }
      ],
      "name": "transferOwnership",
      "outputs": [],
      "stateMutability": "nonpayable",
      "type": "function"
    }
  ],
  "bytecode": "0x60a0604052601e60025560376003553480156200001b57600080fd5b50604051620011c8380380620011c88339810160408190526200003e9162000270565b620000493362000132565b6001600160a01b038316620000a55760405162461bcd60e51b815260206004820152601b60248201527f6f776e65722061646472657373206973206e6f7420626520307830000000000060448201526064015b60405180910390fd5b6001600160a01b038216620000fd5760405162461bcd60e51b815260206004820152601f60248201527f7377696e6762792061646472657373206d757374206e6f74206265203078300060448201526064016200009c565b620001088362000182565b6001600160a01b03918216608052600180546001600160a01b0319169190921617905550620002ba565b600080546001600160a01b038381166001600160a01b0319831681178455604051919092169283917f8be0079c531659141344cd1fd0a4f28419497f9722a3daafe3b4186f6b6457e09190a35050565b6000546001600160a01b03163314620001de5760405162461bcd60e51b815260206004820181905260248201527f4f776e61626c653a2063616c6c6572206973206e6f7420746865206f776e657260448201526064016200009c565b6001600160a01b038116620002455760405162461bcd60e51b815260206004820152602660248201527f4f776e61626c653a206e6577206f776e657220697320746865207a65726f206160448201526564647265737360d01b60648201526084016200009c565b620002508162000132565b50565b80516001600160a01b03811681146200026b57600080fd5b919050565b6000806000606084860312156200028657600080fd5b620002918462000253565b9250620002a16020850162000253565b9150620002b16040850162000253565b90509250925092565b608051610ee4620002e460003960008181610148015281816103b901526109950152610ee46000f3fe608060405234801561001057600080fd5b506004361061009e5760003560e01c8063b681a1e711610066578063b681a1e714610110578063c0324da114610127578063f2fde38b14610130578063f7c618c114610143578063ff320aae1461016a57600080fd5b806349e031a5146100a3578063715018a6146100b85780638da5cb5b146100c05780638ea83031146100ea578063a9d6e083146100fd575b600080fd5b6100b66100b1366004610c42565b61017d565b005b6100b661057b565b6000546001600160a01b03165b6040516001600160a01b0390911681526020015b60405180910390f35b6001546100cd906001600160a01b031681565b6100b661010b366004610d18565b6105e1565b61011960025481565b6040519081526020016100e1565b61011960035481565b6100b661013e366004610d4d565b6106fc565b6100cd7f000000000000000000000000000000000000000000000000000000000000000081565b6100b6610178366004610d6a565b6107c7565b6001546001600160a01b031633146101dc5760405162461bcd60e51b815260206004820152601a60248201527f63616c6c6572206973206e6f74207377617020636f6e7461637400000000000060448201526064015b60405180910390fd5b805182511461022d5760405162461bcd60e51b815260206004820152601760248201527f61727261792073697a65206973206e6f74206d6174636800000000000000000060448201526064016101d3565b600154604080516307c84a4360e11b815290516000926001600160a01b031691630f90948691600480830192602092919082900301818787803b15801561027357600080fd5b505af1158015610287573d6000803e3d6000fd5b505050506040513d601f19601f820116820180604052508101906102ab9190610dab565b60015460405163ec48272960e01b81526000600482018190526001600160a01b038085166024840152939450928392169063ec482729906044016040805180830381600087803b1580156102fe57600080fd5b505af1158015610312573d6000803e3d6000fd5b505050506040513d601f19601f820116820180604052508101906103369190610dc8565b915091506000610366606461036060035461035a8688610adc90919063ffffffff16565b90610aef565b90610afb565b9050836001600160a01b0316876001600160a01b03161480156103895750808210155b806103a657506001600160a01b0387161580156103a65750808310155b156105725760005b8651811015610570577f00000000000000000000000000000000000000000000000000000000000000006001600160a01b031663a9059cbb8883815181106103f8576103f8610dec565b602002602001015161043c6402540be40061035a60646103606002548e8a8151811061042657610426610dec565b6020026020010151610aef90919063ffffffff16565b6040516001600160e01b031960e085901b1681526001600160a01b0390921660048301526024820152604401602060405180830381600087803b15801561048257600080fd5b505af1158015610496573d6000803e3d6000fd5b505050506040513d601f19601f820116820180604052508101906104ba9190610e02565b507fdf9a51129930649214df58f542322c245372c6f2fa6fc3c9b40d927c597cd2308782815181106104ee576104ee610dec565b602002602001015187838151811061050857610508610dec565b60200260200101516105366402540be40061035a60646103606002548e8a8151811061042657610426610dec565b604080516001600160a01b03909416845260208401929092529082015260600160405180910390a18061056881610e3a565b9150506103ae565b505b50505050505050565b6000546001600160a01b031633146105d55760405162461bcd60e51b815260206004820181905260248201527f4f776e61626c653a2063616c6c6572206973206e6f7420746865206f776e657260448201526064016101d3565b6105df6000610b07565b565b6000546001600160a01b031633146106245760405162461bcd60e51b815260206004820152600660248201526510b7bbb732b960d11b60448201526064016101d3565b60648211156106755760405162461bcd60e51b815260206004820152601b60248201527f5f6e657752656261746552617465206973206e6f742076616c6964000000000060448201526064016101d3565b60148110158015610687575060648111155b6106d35760405162461bcd60e51b815260206004820152601c60248201527f5f7468726573686f6c64526174696f206973206e6f742076616c69640000000060448201526064016101d3565b600180546001600160a01b0319166001600160a01b039490941693909317909255600255600355565b6000546001600160a01b031633146107565760405162461bcd60e51b815260206004820181905260248201527f4f776e61626c653a2063616c6c6572206973206e6f7420746865206f776e657260448201526064016101d3565b6001600160a01b0381166107bb5760405162461bcd60e51b815260206004820152602660248201527f4f776e61626c653a206e6577206f776e657220697320746865207a65726f206160448201526564647265737360d01b60648201526084016101d3565b6107c481610b07565b50565b6001546001600160a01b031633146108215760405162461bcd60e51b815260206004820152601a60248201527f63616c6c6572206973206e6f74207377617020636f6e7461637400000000000060448201526064016101d3565b600154604080516307c84a4360e11b815290516000926001600160a01b031691630f90948691600480830192602092919082900301818787803b15801561086757600080fd5b505af115801561087b573d6000803e3d6000fd5b505050506040513d601f19601f8201168201806040525081019061089f9190610dab565b60015460405163ec48272960e01b81526000600482018190526001600160a01b038085166024840152939450928392169063ec482729906044016040805180830381600087803b1580156108f257600080fd5b505af1158015610906573d6000803e3d6000fd5b505050506040513d601f19601f8201168201806040525081019061092a9190610dc8565b91509150600061094e606461036060035461035a8688610adc90919063ffffffff16565b9050836001600160a01b0316876001600160a01b03161480156109715750808210155b8061098e57506001600160a01b03871615801561098e5750808310155b15610572577f00000000000000000000000000000000000000000000000000000000000000006001600160a01b031663a9059cbb876109e66402540be40061035a60646103606002548d610aef90919063ffffffff16565b6040516001600160e01b031960e085901b1681526001600160a01b0390921660048301526024820152604401602060405180830381600087803b158015610a2c57600080fd5b505af1158015610a40573d6000803e3d6000fd5b505050506040513d601f19601f82011682018060405250810190610a649190610e02565b507fdf9a51129930649214df58f542322c245372c6f2fa6fc3c9b40d927c597cd2308686610aab6402540be40061035a60646103606002548d610aef90919063ffffffff16565b604080516001600160a01b03909416845260208401929092529082015260600160405180910390a150505050505050565b6000610ae88284610e55565b9392505050565b6000610ae88284610e6d565b6000610ae88284610e8c565b600080546001600160a01b038381166001600160a01b0319831681178455604051919092169283917f8be0079c531659141344cd1fd0a4f28419497f9722a3daafe3b4186f6b6457e09190a35050565b6001600160a01b03811681146107c457600080fd5b634e487b7160e01b600052604160045260246000fd5b604051601f8201601f1916810167ffffffffffffffff81118282101715610bab57610bab610b6c565b604052919050565b600067ffffffffffffffff821115610bcd57610bcd610b6c565b5060051b60200190565b600082601f830112610be857600080fd5b81356020610bfd610bf883610bb3565b610b82565b82815260059290921b84018101918181019086841115610c1c57600080fd5b8286015b84811015610c375780358352918301918301610c20565b509695505050505050565b600080600060608486031215610c5757600080fd5b8335610c6281610b57565b925060208481013567ffffffffffffffff80821115610c8057600080fd5b818701915087601f830112610c9457600080fd5b8135610ca2610bf882610bb3565b81815260059190911b8301840190848101908a831115610cc157600080fd5b938501935b82851015610ce8578435610cd981610b57565b82529385019390850190610cc6565b965050506040870135925080831115610d0057600080fd5b5050610d0e86828701610bd7565b9150509250925092565b600080600060608486031215610d2d57600080fd5b8335610d3881610b57565b95602085013595506040909401359392505050565b600060208284031215610d5f57600080fd5b8135610ae881610b57565b600080600060608486031215610d7f57600080fd5b8335610d8a81610b57565b92506020840135610d9a81610b57565b929592945050506040919091013590565b600060208284031215610dbd57600080fd5b8151610ae881610b57565b60008060408385031215610ddb57600080fd5b505080516020909101519092909150565b634e487b7160e01b600052603260045260246000fd5b600060208284031215610e1457600080fd5b81518015158114610ae857600080fd5b634e487b7160e01b600052601160045260246000fd5b6000600019821415610e4e57610e4e610e24565b5060010190565b60008219821115610e6857610e68610e24565b500190565b6000816000190483118215151615610e8757610e87610e24565b500290565b600082610ea957634e487b7160e01b600052601260045260246000fd5b50049056fea26469706673582212200854d3e89bf32ff283e80668bb9dd0f6cc6b234b5cc04f427d782d456b8ae6e964736f6c63430008090033",
  "linkReferences": {},
  "deployedLinkReferences": {}
}