{
  "_format": "hh-sol-artifact-1",
  "contractName": "SwapRewards",
  "sourceName": "contracts/SwapRewards.sol",
  "abi": [
    {
      "inputs": [
        {
          "internalType": "address",
          "name": "_owner",
          "type": "address"
        },
        {
          "internalType": "address",
          "name": "_swingby",
          "type": "address"
        },
        {
          "internalType": "address",
          "name": "_swap",
          "type": "address"
        }
      ],
      "stateMutability": "nonpayable",
      "type": "constructor"
    },
    {
      "anonymous": false,
      "inputs": [
        {
          "indexed": true,
          "internalType": "address",
          "name": "previousOwner",
          "type": "address"
        },
        {
          "indexed": true,
          "internalType": "address",
          "name": "newOwner",
          "type": "address"
        }
      ],
      "name": "OwnershipTransferred",
      "type": "event"
    },
    {
      "anonymous": false,
      "inputs": [
        {
          "indexed": false,
          "internalType": "address",
          "name": "to",
          "type": "address"
        },
        {
          "indexed": false,
          "internalType": "uint256",
          "name": "amount",
          "type": "uint256"
        },
        {
          "indexed": false,
          "internalType": "uint256",
          "name": "rebate",
          "type": "uint256"
        }
      ],
      "name": "Paid",
      "type": "event"
    },
    {
      "inputs": [],
      "name": "owner",
      "outputs": [
        {
          "internalType": "address",
          "name": "",
          "type": "address"
        }
      ],
      "stateMutability": "view",
      "type": "function"
    },
    {
      "inputs": [
        {
          "internalType": "address",
          "name": "_dest",
          "type": "address"
        },
        {
          "internalType": "address",
          "name": "_receiver",
          "type": "address"
        },
        {
          "internalType": "uint256",
          "name": "_swapped",
          "type": "uint256"
        }
      ],
      "name": "pullRewards",
      "outputs": [],
      "stateMutability": "nonpayable",
      "type": "function"
    },
    {
      "inputs": [
        {
          "internalType": "address",
          "name": "_dest",
          "type": "address"
        },
        {
          "internalType": "address[]",
          "name": "_receiver",
          "type": "address[]"
        },
        {
          "internalType": "uint256[]",
          "name": "_swapped",
          "type": "uint256[]"
        }
      ],
      "name": "pullRewardsMulti",
      "outputs": [
        {
          "internalType": "bool",
          "name": "",
          "type": "bool"
        }
      ],
      "stateMutability": "nonpayable",
      "type": "function"
    },
    {
      "inputs": [],
      "name": "rebateRate",
      "outputs": [
        {
          "internalType": "uint256",
          "name": "",
          "type": "uint256"
        }
      ],
      "stateMutability": "view",
      "type": "function"
    },
    {
      "inputs": [],
      "name": "renounceOwnership",
      "outputs": [],
      "stateMutability": "nonpayable",
      "type": "function"
    },
    {
      "inputs": [],
      "name": "rewardToken",
      "outputs": [
        {
          "internalType": "contract IERC20",
          "name": "",
          "type": "address"
        }
      ],
      "stateMutability": "view",
      "type": "function"
    },
    {
      "inputs": [
        {
          "internalType": "address",
          "name": "_swap",
          "type": "address"
        },
        {
          "internalType": "uint256",
          "name": "_newRebateRate",
          "type": "uint256"
        },
        {
          "internalType": "uint256",
          "name": "_thresholdRatio",
          "type": "uint256"
        }
      ],
      "name": "setSwap",
      "outputs": [],
      "stateMutability": "nonpayable",
      "type": "function"
    },
    {
      "inputs": [],
      "name": "swapContract",
      "outputs": [
        {
          "internalType": "contract ISwapContract",
          "name": "",
          "type": "address"
        }
      ],
      "stateMutability": "view",
      "type": "function"
    },
    {
      "inputs": [],
      "name": "thresholdRatio",
      "outputs": [
        {
          "internalType": "uint256",
          "name": "",
          "type": "uint256"
        }
      ],
      "stateMutability": "view",
      "type": "function"
    },
    {
      "inputs": [
        {
          "internalType": "address",
          "name": "newOwner",
          "type": "address"
        }
      ],
      "name": "transferOwnership",
      "outputs": [],
      "stateMutability": "nonpayable",
      "type": "function"
    }
  ],
  "bytecode": "0x60a0604052601e60025560376003553480156200001b57600080fd5b50604051620011e1380380620011e18339810160408190526200003e9162000270565b620000493362000132565b6001600160a01b038316620000a55760405162461bcd60e51b815260206004820152601b60248201527f6f776e65722061646472657373206973206e6f7420626520307830000000000060448201526064015b60405180910390fd5b6001600160a01b038216620000fd5760405162461bcd60e51b815260206004820152601f60248201527f7377696e6762792061646472657373206d757374206e6f74206265203078300060448201526064016200009c565b620001088362000182565b6001600160a01b03918216608052600180546001600160a01b0319169190921617905550620002ba565b600080546001600160a01b038381166001600160a01b0319831681178455604051919092169283917f8be0079c531659141344cd1fd0a4f28419497f9722a3daafe3b4186f6b6457e09190a35050565b6000546001600160a01b03163314620001de5760405162461bcd60e51b815260206004820181905260248201527f4f776e61626c653a2063616c6c6572206973206e6f7420746865206f776e657260448201526064016200009c565b6001600160a01b038116620002455760405162461bcd60e51b815260206004820152602660248201527f4f776e61626c653a206e6577206f776e657220697320746865207a65726f206160448201526564647265737360d01b60648201526084016200009c565b620002508162000132565b50565b80516001600160a01b03811681146200026b57600080fd5b919050565b6000806000606084860312156200028657600080fd5b620002918462000253565b9250620002a16020850162000253565b9150620002b16040850162000253565b90509250925092565b608051610efd620002e460003960008181610158015281816103cc01526109ad0152610efd6000f3fe608060405234801561001057600080fd5b506004361061009e5760003560e01c8063b681a1e711610066578063b681a1e714610120578063c0324da114610137578063f2fde38b14610140578063f7c618c114610153578063ff320aae1461017a57600080fd5b806349e031a5146100a3578063715018a6146100cb5780638da5cb5b146100d55780638ea83031146100fa578063a9d6e0831461010d575b600080fd5b6100b66100b1366004610c5b565b61018d565b60405190151581526020015b60405180910390f35b6100d3610593565b005b6000546001600160a01b03165b6040516001600160a01b0390911681526020016100c2565b6001546100e2906001600160a01b031681565b6100d361011b366004610d31565b6105f9565b61012960025481565b6040519081526020016100c2565b61012960035481565b6100d361014e366004610d66565b610714565b6100e27f000000000000000000000000000000000000000000000000000000000000000081565b6100d3610188366004610d83565b6107df565b6001546000906001600160a01b031633146101ef5760405162461bcd60e51b815260206004820152601a60248201527f63616c6c6572206973206e6f74207377617020636f6e7461637400000000000060448201526064015b60405180910390fd5b81518351146102405760405162461bcd60e51b815260206004820152601760248201527f61727261792073697a65206973206e6f74206d6174636800000000000000000060448201526064016101e6565b600154604080516307c84a4360e11b815290516000926001600160a01b031691630f90948691600480830192602092919082900301818787803b15801561028657600080fd5b505af115801561029a573d6000803e3d6000fd5b505050506040513d601f19601f820116820180604052508101906102be9190610dc4565b60015460405163ec48272960e01b81526000600482018190526001600160a01b038085166024840152939450928392169063ec482729906044016040805180830381600087803b15801561031157600080fd5b505af1158015610325573d6000803e3d6000fd5b505050506040513d601f19601f820116820180604052508101906103499190610de1565b915091506000610379606461037360035461036d8688610af590919063ffffffff16565b90610b08565b90610b14565b9050836001600160a01b0316886001600160a01b031614801561039c5750808210155b806103b957506001600160a01b0388161580156103b95750808310155b156105855760005b8751811015610583577f00000000000000000000000000000000000000000000000000000000000000006001600160a01b031663a9059cbb89838151811061040b5761040b610e05565b602002602001015161044f6402540be40061036d60646103736002548f8a8151811061043957610439610e05565b6020026020010151610b0890919063ffffffff16565b6040516001600160e01b031960e085901b1681526001600160a01b0390921660048301526024820152604401602060405180830381600087803b15801561049557600080fd5b505af11580156104a9573d6000803e3d6000fd5b505050506040513d601f19601f820116820180604052508101906104cd9190610e1b565b507fdf9a51129930649214df58f542322c245372c6f2fa6fc3c9b40d927c597cd23088828151811061050157610501610e05565b602002602001015188838151811061051b5761051b610e05565b60200260200101516105496402540be40061036d60646103736002548f8a8151811061043957610439610e05565b604080516001600160a01b03909416845260208401929092529082015260600160405180910390a18061057b81610e53565b9150506103c1565b505b506001979650505050505050565b6000546001600160a01b031633146105ed5760405162461bcd60e51b815260206004820181905260248201527f4f776e61626c653a2063616c6c6572206973206e6f7420746865206f776e657260448201526064016101e6565b6105f76000610b20565b565b6000546001600160a01b0316331461063c5760405162461bcd60e51b815260206004820152600660248201526510b7bbb732b960d11b60448201526064016101e6565b606482111561068d5760405162461bcd60e51b815260206004820152601b60248201527f5f6e657752656261746552617465206973206e6f742076616c6964000000000060448201526064016101e6565b6014811015801561069f575060648111155b6106eb5760405162461bcd60e51b815260206004820152601c60248201527f5f7468726573686f6c64526174696f206973206e6f742076616c69640000000060448201526064016101e6565b600180546001600160a01b0319166001600160a01b039490941693909317909255600255600355565b6000546001600160a01b0316331461076e5760405162461bcd60e51b815260206004820181905260248201527f4f776e61626c653a2063616c6c6572206973206e6f7420746865206f776e657260448201526064016101e6565b6001600160a01b0381166107d35760405162461bcd60e51b815260206004820152602660248201527f4f776e61626c653a206e6577206f776e657220697320746865207a65726f206160448201526564647265737360d01b60648201526084016101e6565b6107dc81610b20565b50565b6001546001600160a01b031633146108395760405162461bcd60e51b815260206004820152601a60248201527f63616c6c6572206973206e6f74207377617020636f6e7461637400000000000060448201526064016101e6565b600154604080516307c84a4360e11b815290516000926001600160a01b031691630f90948691600480830192602092919082900301818787803b15801561087f57600080fd5b505af1158015610893573d6000803e3d6000fd5b505050506040513d601f19601f820116820180604052508101906108b79190610dc4565b60015460405163ec48272960e01b81526000600482018190526001600160a01b038085166024840152939450928392169063ec482729906044016040805180830381600087803b15801561090a57600080fd5b505af115801561091e573d6000803e3d6000fd5b505050506040513d601f19601f820116820180604052508101906109429190610de1565b915091506000610966606461037360035461036d8688610af590919063ffffffff16565b9050836001600160a01b0316876001600160a01b03161480156109895750808210155b806109a657506001600160a01b0387161580156109a65750808310155b15610aec577f00000000000000000000000000000000000000000000000000000000000000006001600160a01b031663a9059cbb876109fe6402540be40061036d60646103736002548d610b0890919063ffffffff16565b6040516001600160e01b031960e085901b1681526001600160a01b0390921660048301526024820152604401602060405180830381600087803b158015610a4457600080fd5b505af1158015610a58573d6000803e3d6000fd5b505050506040513d601f19601f82011682018060405250810190610a7c9190610e1b565b507fdf9a51129930649214df58f542322c245372c6f2fa6fc3c9b40d927c597cd2308686610ac36402540be40061036d60646103736002548d610b0890919063ffffffff16565b604080516001600160a01b03909416845260208401929092529082015260600160405180910390a15b50505050505050565b6000610b018284610e6e565b9392505050565b6000610b018284610e86565b6000610b018284610ea5565b600080546001600160a01b038381166001600160a01b0319831681178455604051919092169283917f8be0079c531659141344cd1fd0a4f28419497f9722a3daafe3b4186f6b6457e09190a35050565b6001600160a01b03811681146107dc57600080fd5b634e487b7160e01b600052604160045260246000fd5b604051601f8201601f1916810167ffffffffffffffff81118282101715610bc457610bc4610b85565b604052919050565b600067ffffffffffffffff821115610be657610be6610b85565b5060051b60200190565b600082601f830112610c0157600080fd5b81356020610c16610c1183610bcc565b610b9b565b82815260059290921b84018101918181019086841115610c3557600080fd5b8286015b84811015610c505780358352918301918301610c39565b509695505050505050565b600080600060608486031215610c7057600080fd5b8335610c7b81610b70565b925060208481013567ffffffffffffffff80821115610c9957600080fd5b818701915087601f830112610cad57600080fd5b8135610cbb610c1182610bcc565b81815260059190911b8301840190848101908a831115610cda57600080fd5b938501935b82851015610d01578435610cf281610b70565b82529385019390850190610cdf565b965050506040870135925080831115610d1957600080fd5b5050610d2786828701610bf0565b9150509250925092565b600080600060608486031215610d4657600080fd5b8335610d5181610b70565b95602085013595506040909401359392505050565b600060208284031215610d7857600080fd5b8135610b0181610b70565b600080600060608486031215610d9857600080fd5b8335610da381610b70565b92506020840135610db381610b70565b929592945050506040919091013590565b600060208284031215610dd657600080fd5b8151610b0181610b70565b60008060408385031215610df457600080fd5b505080516020909101519092909150565b634e487b7160e01b600052603260045260246000fd5b600060208284031215610e2d57600080fd5b81518015158114610b0157600080fd5b634e487b7160e01b600052601160045260246000fd5b6000600019821415610e6757610e67610e3d565b5060010190565b60008219821115610e8157610e81610e3d565b500190565b6000816000190483118215151615610ea057610ea0610e3d565b500290565b600082610ec257634e487b7160e01b600052601260045260246000fd5b50049056fea264697066735822122076af69e3f8892feba4468f924f05705cb6ad1e5387e35786b9df901ada7bf31b64736f6c63430008090033",
  "linkReferences": {},
  "deployedLinkReferences": {}
}