{
  "contractName": "Burner",
  "abi": [
    {
      "inputs": [
        {
          "internalType": "address",
          "name": "_token",
          "type": "address"
        }
      ],
      "stateMutability": "nonpayable",
      "type": "constructor"
    },
    {
      "stateMutability": "nonpayable",
      "type": "fallback"
    },
    {
      "inputs": [],
      "name": "token",
      "outputs": [
        {
          "internalType": "address",
          "name": "",
          "type": "address"
        }
      ],
      "stateMutability": "view",
      "type": "function"
    },
    {
      "inputs": [],
      "name": "burn",
      "outputs": [],
      "stateMutability": "nonpayable",
      "type": "function"
    }
  ],
  "bytecode": "0x608060405234801561001057600080fd5b506040516102e53803806102e58339818101604052602081101561003357600080fd5b8101908080519060200190929190505050806000806101000a81548173ffffffffffffffffffffffffffffffffffffffff021916908373ffffffffffffffffffffffffffffffffffffffff16021790555050610251806100946000396000f3fe608060405234801561001057600080fd5b506004361061003a5760003560e01c806344df8e7014610040578063fc0c546a1461004a5761003b565b5b600080fd5b61004861007e565b005b6100526101f7565b604051808273ffffffffffffffffffffffffffffffffffffffff16815260200191505060405180910390f35b60008060009054906101000a900473ffffffffffffffffffffffffffffffffffffffff1673ffffffffffffffffffffffffffffffffffffffff166370a08231306040518263ffffffff1660e01b8152600401808273ffffffffffffffffffffffffffffffffffffffff16815260200191505060206040518083038186803b15801561010857600080fd5b505afa15801561011c573d6000803e3d6000fd5b505050506040513d602081101561013257600080fd5b8101908080519060200190929190505050905060008054906101000a900473ffffffffffffffffffffffffffffffffffffffff1673ffffffffffffffffffffffffffffffffffffffff166342966c68826040518263ffffffff1660e01b815260040180828152602001915050602060405180830381600087803b1580156101b857600080fd5b505af11580156101cc573d6000803e3d6000fd5b505050506040513d60208110156101e257600080fd5b81019080805190602001909291905050505050565b60008054906101000a900473ffffffffffffffffffffffffffffffffffffffff168156fea2646970667358221220666628e643a29bddc362a9ca2de3fd93cefc9f64b597a716f91f6ee7a630928664736f6c63430007000033",
  "immutableReferences": {},
  "source": "pragma solidity =0.7.0;\n\nimport \"./interfaces/ISwapContract.sol\";\nimport \"./interfaces/IBurnableToken.sol\";\n\ncontract Burner {\n    address public token;\n\n    constructor(address _token) public {\n        token = _token;\n    }\n\n    function burn() external {\n        uint256 amount = IBurnableToken(token).balanceOf(address(this));\n        IBurnableToken(token).burn(amount);\n    }\n\n    // The contract doesn't allow receiving Ether.\n    fallback() external {\n        revert();\n    }\n}\n",
  "sourcePath": "/Users/yusakusenga/go/src/github.com/SwingbyProtocol/skybridge-contract/contracts/Burner.sol",
  "compiler": {
    "name": "solc",
    "version": "0.7.0+commit.9e61f92b.Emscripten.clang"
  },
  "schemaVersion": "3.3.1",
  "updatedAt": "2020-11-06T09:57:13.873Z",
  "devdoc": {
    "kind": "dev",
    "methods": {},
    "version": 1
  },
  "userdoc": {
    "kind": "user",
    "methods": {},
    "version": 1
  }
}