{
  "contractName": "Forwarder",
  "abi": [
    {
      "inputs": [
        {
          "internalType": "address payable",
          "name": "_parent",
          "type": "address"
        }
      ],
      "stateMutability": "nonpayable",
      "type": "constructor"
    },
    {
      "inputs": [
        {
          "internalType": "address",
          "name": "_token",
          "type": "address"
        }
      ],
      "name": "forward",
      "outputs": [
        {
          "internalType": "uint256",
          "name": "amount",
          "type": "uint256"
        }
      ],
      "stateMutability": "payable",
      "type": "function"
    }
  ],
  "bytecode": "0x608060405234801561001057600080fd5b506040516103613803806103618339818101604052602081101561003357600080fd5b8101908080519060200190929190505050806000806101000a81548173ffffffffffffffffffffffffffffffffffffffff021916908373ffffffffffffffffffffffffffffffffffffffff160217905550506102cd806100946000396000f3fe60806040526004361061001e5760003560e01c8063101e895214610023575b600080fd5b6100656004803603602081101561003957600080fd5b81019080803573ffffffffffffffffffffffffffffffffffffffff16906020019092919050505061007b565b6040518082815260200191505060405180910390f35b60008073ffffffffffffffffffffffffffffffffffffffff168273ffffffffffffffffffffffffffffffffffffffff1614156101205747905060008054906101000a900473ffffffffffffffffffffffffffffffffffffffff1673ffffffffffffffffffffffffffffffffffffffff166108fc829081150290604051600060405180830381858888f1935050505015801561011a573d6000803e3d6000fd5b50610292565b8173ffffffffffffffffffffffffffffffffffffffff166370a08231306040518263ffffffff1660e01b8152600401808273ffffffffffffffffffffffffffffffffffffffff16815260200191505060206040518083038186803b15801561018757600080fd5b505afa15801561019b573d6000803e3d6000fd5b505050506040513d60208110156101b157600080fd5b810190808051906020019092919050505090508173ffffffffffffffffffffffffffffffffffffffff1663a9059cbb60008054906101000a900473ffffffffffffffffffffffffffffffffffffffff16836040518363ffffffff1660e01b8152600401808373ffffffffffffffffffffffffffffffffffffffff16815260200182815260200192505050602060405180830381600087803b15801561025557600080fd5b505af1158015610269573d6000803e3d6000fd5b505050506040513d602081101561027f57600080fd5b8101908080519060200190929190505050505b91905056fea264697066735822122015f1df51b0e9c4ef6716394c075f609f30cac3fbe938113ea2c5784df892c42f64736f6c63430007000033",
  "immutableReferences": {},
  "source": "pragma solidity =0.7.0;\n\nimport \"./interfaces/IERC20.sol\";\n\ncontract Forwarder {\n    address payable private parent;\n\n    constructor(address payable _parent) public {\n        parent = _parent;\n    }\n\n    function forward(address _token) public payable returns (uint256 amount) {\n        if (_token == address(0)) {\n            amount = address(this).balance;\n            parent.transfer(amount);\n        } else {\n            amount = IERC20(_token).balanceOf(address(this));\n            IERC20(_token).transfer(parent, amount);\n        }\n    }\n}\n",
  "sourcePath": "/Users/yusakusenga/go/src/github.com/SwingbyProtocol/skybridge-contract/contracts/Forwarder.sol",
  "compiler": {
    "name": "solc",
    "version": "0.7.0+commit.9e61f92b.Emscripten.clang"
  },
  "schemaVersion": "3.3.1",
  "updatedAt": "2020-11-06T09:57:13.874Z",
  "devdoc": {
    "kind": "dev",
    "methods": {},
    "version": 1
  },
  "userdoc": {
    "kind": "user",
    "methods": {},
    "version": 1
  }
}