{
  "contractName": "SwapContract",
  "abi": [
    {
      "inputs": [
        {
          "internalType": "address",
          "name": "_lpToken",
          "type": "address"
        }
      ],
      "stateMutability": "nonpayable",
      "type": "constructor"
    },
    {
      "anonymous": false,
      "inputs": [
        {
          "indexed": true,
          "internalType": "address",
          "name": "previousOwner",
          "type": "address"
        },
        {
          "indexed": true,
          "internalType": "address",
          "name": "newOwner",
          "type": "address"
        }
      ],
      "name": "OwnershipTransferred",
      "type": "event"
    },
    {
      "anonymous": false,
      "inputs": [
        {
          "indexed": true,
          "internalType": "address",
          "name": "sender",
          "type": "address"
        },
        {
          "indexed": false,
          "internalType": "uint256",
          "name": "amount",
          "type": "uint256"
        }
      ],
      "name": "RedeemWithBurnLPtoken",
      "type": "event"
    },
    {
      "stateMutability": "nonpayable",
      "type": "fallback"
    },
    {
      "inputs": [],
      "name": "burner",
      "outputs": [
        {
          "internalType": "contract Burner",
          "name": "",
          "type": "address"
        }
      ],
      "stateMutability": "view",
      "type": "function"
    },
    {
      "inputs": [],
      "name": "owner",
      "outputs": [
        {
          "internalType": "address",
          "name": "",
          "type": "address"
        }
      ],
      "stateMutability": "view",
      "type": "function"
    },
    {
      "inputs": [],
      "name": "renounceOwnership",
      "outputs": [],
      "stateMutability": "nonpayable",
      "type": "function"
    },
    {
      "inputs": [
        {
          "internalType": "address",
          "name": "newOwner",
          "type": "address"
        }
      ],
      "name": "transferOwnership",
      "outputs": [],
      "stateMutability": "nonpayable",
      "type": "function"
    },
    {
      "inputs": [
        {
          "internalType": "address",
          "name": "_token",
          "type": "address"
        },
        {
          "internalType": "address",
          "name": "_to",
          "type": "address"
        },
        {
          "internalType": "uint256",
          "name": "_amount",
          "type": "uint256"
        }
      ],
      "name": "singleTransferERC20",
      "outputs": [],
      "stateMutability": "nonpayable",
      "type": "function"
    },
    {
      "inputs": [
        {
          "internalType": "address",
          "name": "_token",
          "type": "address"
        },
        {
          "internalType": "bytes32[]",
          "name": "_addressesAndAmounts",
          "type": "bytes32[]"
        },
        {
          "internalType": "uint8",
          "name": "_inputDecimals",
          "type": "uint8"
        }
      ],
      "name": "multiTransferERC20TightlyPacked",
      "outputs": [
        {
          "internalType": "bool",
          "name": "",
          "type": "bool"
        }
      ],
      "stateMutability": "nonpayable",
      "type": "function"
    },
    {
      "inputs": [
        {
          "internalType": "address",
          "name": "token",
          "type": "address"
        },
        {
          "internalType": "address[]",
          "name": "_contributors",
          "type": "address[]"
        },
        {
          "internalType": "uint256[]",
          "name": "_amounts",
          "type": "uint256[]"
        },
        {
          "internalType": "uint256",
          "name": "_feesRatioForLP",
          "type": "uint256"
        }
      ],
      "name": "multiTransferERC20",
      "outputs": [
        {
          "internalType": "bool",
          "name": "",
          "type": "bool"
        }
      ],
      "stateMutability": "nonpayable",
      "type": "function"
    },
    {
      "inputs": [
        {
          "internalType": "address",
          "name": "_dist",
          "type": "address"
        },
        {
          "internalType": "uint256",
          "name": "_amount",
          "type": "uint256"
        }
      ],
      "name": "mintLPToken",
      "outputs": [
        {
          "internalType": "bool",
          "name": "",
          "type": "bool"
        }
      ],
      "stateMutability": "nonpayable",
      "type": "function"
    },
    {
      "inputs": [
        {
          "internalType": "address",
          "name": "_token",
          "type": "address"
        },
        {
          "internalType": "uint256",
          "name": "_amount",
          "type": "uint256"
        }
      ],
      "name": "addFloatForBTCToken",
      "outputs": [],
      "stateMutability": "nonpayable",
      "type": "function"
    },
    {
      "inputs": [
        {
          "internalType": "address",
          "name": "_token",
          "type": "address"
        },
        {
          "internalType": "uint256",
          "name": "_amountOfLPToken",
          "type": "uint256"
        }
      ],
      "name": "redeemFloatForBTCToken",
      "outputs": [],
      "stateMutability": "nonpayable",
      "type": "function"
    },
    {
      "inputs": [],
      "name": "distributeNodeRewards",
      "outputs": [],
      "stateMutability": "nonpayable",
      "type": "function"
    }
  ],
  "bytecode": "0x60806040523480156200001157600080fd5b50604051620021c1380380620021c1833981810160405260208110156200003757600080fd5b810190808051906020019092919050505060006200005a6200018c60201b60201c565b9050806000806101000a81548173ffffffffffffffffffffffffffffffffffffffff021916908373ffffffffffffffffffffffffffffffffffffffff1602179055508073ffffffffffffffffffffffffffffffffffffffff16600073ffffffffffffffffffffffffffffffffffffffff167f8be0079c531659141344cd1fd0a4f28419497f9722a3daafe3b4186f6b6457e060405160405180910390a35080604051620001079062000194565b808273ffffffffffffffffffffffffffffffffffffffff168152602001915050604051809103906000f08015801562000144573d6000803e3d6000fd5b50600560006101000a81548173ffffffffffffffffffffffffffffffffffffffff021916908373ffffffffffffffffffffffffffffffffffffffff16021790555050620001a2565b600033905090565b6102e58062001edc83390190565b611d2a80620001b26000396000f3fe608060405234801561001057600080fd5b50600436106100ad5760003560e01c80638da5cb5b116100715780638da5cb5b14610288578063ac2aaa3c146102bc578063b5a7692714610448578063e4418c0a146104ac578063e9e9bf6a1461051a578063f2fde38b14610524576100ae565b80630b897bb7146100b357806327810b6e146101ae57806348d123e7146101e2578063715018a6146102305780637ce9880c1461023a576100ae565b5b600080fd5b610196600480360360608110156100c957600080fd5b81019080803573ffffffffffffffffffffffffffffffffffffffff1690602001909291908035906020019064010000000081111561010657600080fd5b82018360208201111561011857600080fd5b8035906020019184602083028401116401000000008311171561013a57600080fd5b919080806020026020016040519081016040528093929190818152602001838360200280828437600081840152601f19601f820116905080830192505050505050509192919290803560ff169060200190929190505050610568565b60405180821515815260200191505060405180910390f35b6101b66108e3565b604051808273ffffffffffffffffffffffffffffffffffffffff16815260200191505060405180910390f35b61022e600480360360408110156101f857600080fd5b81019080803573ffffffffffffffffffffffffffffffffffffffff16906020019092919080359060200190929190505050610909565b005b610238610c3b565b005b6102866004803603604081101561025057600080fd5b81019080803573ffffffffffffffffffffffffffffffffffffffff16906020019092919080359060200190929190505050610dc1565b005b610290610f36565b604051808273ffffffffffffffffffffffffffffffffffffffff16815260200191505060405180910390f35b610430600480360360808110156102d257600080fd5b81019080803573ffffffffffffffffffffffffffffffffffffffff1690602001909291908035906020019064010000000081111561030f57600080fd5b82018360208201111561032157600080fd5b8035906020019184602083028401116401000000008311171561034357600080fd5b919080806020026020016040519081016040528093929190818152602001838360200280828437600081840152601f19601f820116905080830192505050505050509192919290803590602001906401000000008111156103a357600080fd5b8201836020820111156103b557600080fd5b803590602001918460208302840111640100000000831117156103d757600080fd5b919080806020026020016040519081016040528093929190818152602001838360200280828437600081840152601f19601f82011690508083019250505050505050919291929080359060200190929190505050610f5f565b60405180821515815260200191505060405180910390f35b6104946004803603604081101561045e57600080fd5b81019080803573ffffffffffffffffffffffffffffffffffffffff16906020019092919080359060200190929190505050611180565b60405180821515815260200191505060405180910390f35b610518600480360360608110156104c257600080fd5b81019080803573ffffffffffffffffffffffffffffffffffffffff169060200190929190803573ffffffffffffffffffffffffffffffffffffffff16906020019092919080359060200190929190505050611320565b005b6105226114a2565b005b6105666004803603602081101561053a57600080fd5b81019080803573ffffffffffffffffffffffffffffffffffffffff1690602001909291905050506114a4565b005b6000610572611578565b73ffffffffffffffffffffffffffffffffffffffff1660008054906101000a900473ffffffffffffffffffffffffffffffffffffffff1673ffffffffffffffffffffffffffffffffffffffff1614610632576040517f08c379a00000000000000000000000000000000000000000000000000000000081526004018080602001828103825260208152602001807f4f776e61626c653a2063616c6c6572206973206e6f7420746865206f776e657281525060200191505060405180910390fd5b600073ffffffffffffffffffffffffffffffffffffffff168473ffffffffffffffffffffffffffffffffffffffff16141561066c57600080fd5b60005b83518110156108db576000859050600085838151811061068b57fe5b602002602001015160001c90506000858373ffffffffffffffffffffffffffffffffffffffff1663313ce5676040518163ffffffff1660e01b815260040160206040518083038186803b1580156106e157600080fd5b505afa1580156106f5573d6000803e3d6000fd5b505050506040513d602081101561070b57600080fd5b810190808051906020019092919050505003905060008160ff161015610799576040517f08c379a00000000000000000000000000000000000000000000000000000000081526004018080602001828103825260148152602001807f626f6f73742073686f756c64206265203e3d203000000000000000000000000081525060200191505060405180910390fd5b60008060ff168260ff1614156107d5578785815181106107b557fe5b602002602001015160a01c6bffffffffffffffffffffffff169050610815565b6108128260ff16600a0a8987815181106107eb57fe5b602002602001015160a01c6bffffffffffffffffffffffff1661158090919063ffffffff16565b90505b8373ffffffffffffffffffffffffffffffffffffffff1663a9059cbb84836040518363ffffffff1660e01b8152600401808373ffffffffffffffffffffffffffffffffffffffff16815260200182815260200192505050602060405180830381600087803b15801561088657600080fd5b505af115801561089a573d6000803e3d6000fd5b505050506040513d60208110156108b057600080fd5b81019080805190602001909291905050506108ca57600080fd5b50505050808060010191505061066f565b509392505050565b600560009054906101000a900473ffffffffffffffffffffffffffffffffffffffff1681565b600160009054906101000a900473ffffffffffffffffffffffffffffffffffffffff1673ffffffffffffffffffffffffffffffffffffffff166323b872dd61094f611578565b30846040518463ffffffff1660e01b8152600401808473ffffffffffffffffffffffffffffffffffffffff1681526020018373ffffffffffffffffffffffffffffffffffffffff1681526020018281526020019350505050602060405180830381600087803b1580156109c157600080fd5b505af11580156109d5573d6000803e3d6000fd5b505050506040513d60208110156109eb57600080fd5b810190808051906020019092919050505050600160009054906101000a900473ffffffffffffffffffffffffffffffffffffffff1673ffffffffffffffffffffffffffffffffffffffff166342966c68826040518263ffffffff1660e01b815260040180828152602001915050602060405180830381600087803b158015610a7257600080fd5b505af1158015610a86573d6000803e3d6000fd5b505050506040513d6020811015610a9c57600080fd5b8101908080519060200190929190505050506000610ab983611606565b90506000610aea670de0b6b3a7640000610adc848661158090919063ffffffff16565b6118a690919063ffffffff16565b9050610b3e81600360008773ffffffffffffffffffffffffffffffffffffffff1673ffffffffffffffffffffffffffffffffffffffff168152602001908152602001600020546118f090919063ffffffff16565b600360008673ffffffffffffffffffffffffffffffffffffffff1673ffffffffffffffffffffffffffffffffffffffff168152602001908152602001600020819055508373ffffffffffffffffffffffffffffffffffffffff1663a9059cbb610ba5611578565b836040518363ffffffff1660e01b8152600401808373ffffffffffffffffffffffffffffffffffffffff16815260200182815260200192505050602060405180830381600087803b158015610bf957600080fd5b505af1158015610c0d573d6000803e3d6000fd5b505050506040513d6020811015610c2357600080fd5b81019080805190602001909291905050505050505050565b610c43611578565b73ffffffffffffffffffffffffffffffffffffffff1660008054906101000a900473ffffffffffffffffffffffffffffffffffffffff1673ffffffffffffffffffffffffffffffffffffffff1614610d03576040517f08c379a00000000000000000000000000000000000000000000000000000000081526004018080602001828103825260208152602001807f4f776e61626c653a2063616c6c6572206973206e6f7420746865206f776e657281525060200191505060405180910390fd5b600073ffffffffffffffffffffffffffffffffffffffff1660008054906101000a900473ffffffffffffffffffffffffffffffffffffffff1673ffffffffffffffffffffffffffffffffffffffff167f8be0079c531659141344cd1fd0a4f28419497f9722a3daafe3b4186f6b6457e060405160405180910390a360008060006101000a81548173ffffffffffffffffffffffffffffffffffffffff021916908373ffffffffffffffffffffffffffffffffffffffff160217905550565b8173ffffffffffffffffffffffffffffffffffffffff166323b872dd610de5611578565b30846040518463ffffffff1660e01b8152600401808473ffffffffffffffffffffffffffffffffffffffff1681526020018373ffffffffffffffffffffffffffffffffffffffff1681526020018281526020019350505050602060405180830381600087803b158015610e5757600080fd5b505af1158015610e6b573d6000803e3d6000fd5b505050506040513d6020811015610e8157600080fd5b810190808051906020019092919050505050610ee581600360008573ffffffffffffffffffffffffffffffffffffffff1673ffffffffffffffffffffffffffffffffffffffff1681526020019081526020016000205461193a90919063ffffffff16565b600360008473ffffffffffffffffffffffffffffffffffffffff1673ffffffffffffffffffffffffffffffffffffffff16815260200190815260200160002081905550610f3182611606565b505050565b60008060009054906101000a900473ffffffffffffffffffffffffffffffffffffffff16905090565b6000610f69611578565b73ffffffffffffffffffffffffffffffffffffffff1660008054906101000a900473ffffffffffffffffffffffffffffffffffffffff1673ffffffffffffffffffffffffffffffffffffffff1614611029576040517f08c379a00000000000000000000000000000000000000000000000000000000081526004018080602001828103825260208152602001807f4f776e61626c653a2063616c6c6572206973206e6f7420746865206f776e657281525060200191505060405180910390fd5b8251845114611083576040517f08c379a0000000000000000000000000000000000000000000000000000000008152600401808060200182810382526022815260200180611cd36022913960400191505060405180910390fd5b60005b8451811015611177578573ffffffffffffffffffffffffffffffffffffffff1663a9059cbb8683815181106110b757fe5b60200260200101518684815181106110cb57fe5b60200260200101516040518363ffffffff1660e01b8152600401808373ffffffffffffffffffffffffffffffffffffffff16815260200182815260200192505050602060405180830381600087803b15801561112657600080fd5b505af115801561113a573d6000803e3d6000fd5b505050506040513d602081101561115057600080fd5b810190808051906020019092919050505061116a57600080fd5b8080600101915050611086565b50949350505050565b600061118a611578565b73ffffffffffffffffffffffffffffffffffffffff1660008054906101000a900473ffffffffffffffffffffffffffffffffffffffff1673ffffffffffffffffffffffffffffffffffffffff161461124a576040517f08c379a00000000000000000000000000000000000000000000000000000000081526004018080602001828103825260208152602001807f4f776e61626c653a2063616c6c6572206973206e6f7420746865206f776e657281525060200191505060405180910390fd5b600160009054906101000a900473ffffffffffffffffffffffffffffffffffffffff1673ffffffffffffffffffffffffffffffffffffffff166340c10f1984846040518363ffffffff1660e01b8152600401808373ffffffffffffffffffffffffffffffffffffffff16815260200182815260200192505050602060405180830381600087803b1580156112dd57600080fd5b505af11580156112f1573d6000803e3d6000fd5b505050506040513d602081101561130757600080fd5b8101908080519060200190929190505050905092915050565b611328611578565b73ffffffffffffffffffffffffffffffffffffffff1660008054906101000a900473ffffffffffffffffffffffffffffffffffffffff1673ffffffffffffffffffffffffffffffffffffffff16146113e8576040517f08c379a00000000000000000000000000000000000000000000000000000000081526004018080602001828103825260208152602001807f4f776e61626c653a2063616c6c6572206973206e6f7420746865206f776e657281525060200191505060405180910390fd5b8273ffffffffffffffffffffffffffffffffffffffff1663a9059cbb83836040518363ffffffff1660e01b8152600401808373ffffffffffffffffffffffffffffffffffffffff16815260200182815260200192505050602060405180830381600087803b15801561145957600080fd5b505af115801561146d573d6000803e3d6000fd5b505050506040513d602081101561148357600080fd5b810190808051906020019092919050505061149d57600080fd5b505050565b565b6114ac611578565b73ffffffffffffffffffffffffffffffffffffffff1660008054906101000a900473ffffffffffffffffffffffffffffffffffffffff1673ffffffffffffffffffffffffffffffffffffffff161461156c576040517f08c379a00000000000000000000000000000000000000000000000000000000081526004018080602001828103825260208152602001807f4f776e61626c653a2063616c6c6572206973206e6f7420746865206f776e657281525060200191505060405180910390fd5b611575816119c2565b50565b600033905090565b6000808314156115935760009050611600565b60008284029050828482816115a457fe5b04146115fb576040517f08c379a0000000000000000000000000000000000000000000000000000000008152600401808060200182810382526021815260200180611cb26021913960400191505060405180910390fd5b809150505b92915050565b600080600260008473ffffffffffffffffffffffffffffffffffffffff1673ffffffffffffffffffffffffffffffffffffffff1681526020019081526020016000205490506000600360008573ffffffffffffffffffffffffffffffffffffffff1673ffffffffffffffffffffffffffffffffffffffff16815260200190815260200160002054905060006116a4838361193a90919063ffffffff16565b90506000611842600160009054906101000a900473ffffffffffffffffffffffffffffffffffffffff1673ffffffffffffffffffffffffffffffffffffffff166370a08231600560009054906101000a900473ffffffffffffffffffffffffffffffffffffffff166040518263ffffffff1660e01b8152600401808273ffffffffffffffffffffffffffffffffffffffff16815260200191505060206040518083038186803b15801561175657600080fd5b505afa15801561176a573d6000803e3d6000fd5b505050506040513d602081101561178057600080fd5b8101908080519060200190929190505050600160009054906101000a900473ffffffffffffffffffffffffffffffffffffffff1673ffffffffffffffffffffffffffffffffffffffff166318160ddd6040518163ffffffff1660e01b815260040160206040518083038186803b1580156117f957600080fd5b505afa15801561180d573d6000803e3d6000fd5b505050506040513d602081101561182357600080fd5b81019080805190602001909291905050506118f090919063ffffffff16565b905061185781836118a690919063ffffffff16565b945084600460008873ffffffffffffffffffffffffffffffffffffffff1673ffffffffffffffffffffffffffffffffffffffff1681526020019081526020016000208190555050505050919050565b60006118e883836040518060400160405280601a81526020017f536166654d6174683a206469766973696f6e206279207a65726f000000000000815250611b05565b905092915050565b600061193283836040518060400160405280601e81526020017f536166654d6174683a207375627472616374696f6e206f766572666c6f770000815250611bcb565b905092915050565b6000808284019050838110156119b8576040517f08c379a000000000000000000000000000000000000000000000000000000000815260040180806020018281038252601b8152602001807f536166654d6174683a206164646974696f6e206f766572666c6f77000000000081525060200191505060405180910390fd5b8091505092915050565b600073ffffffffffffffffffffffffffffffffffffffff168173ffffffffffffffffffffffffffffffffffffffff161415611a48576040517f08c379a0000000000000000000000000000000000000000000000000000000008152600401808060200182810382526026815260200180611c8c6026913960400191505060405180910390fd5b8073ffffffffffffffffffffffffffffffffffffffff1660008054906101000a900473ffffffffffffffffffffffffffffffffffffffff1673ffffffffffffffffffffffffffffffffffffffff167f8be0079c531659141344cd1fd0a4f28419497f9722a3daafe3b4186f6b6457e060405160405180910390a3806000806101000a81548173ffffffffffffffffffffffffffffffffffffffff021916908373ffffffffffffffffffffffffffffffffffffffff16021790555050565b60008083118290611bb1576040517f08c379a00000000000000000000000000000000000000000000000000000000081526004018080602001828103825283818151815260200191508051906020019080838360005b83811015611b76578082015181840152602081019050611b5b565b50505050905090810190601f168015611ba35780820380516001836020036101000a031916815260200191505b509250505060405180910390fd5b506000838581611bbd57fe5b049050809150509392505050565b6000838311158290611c78576040517f08c379a00000000000000000000000000000000000000000000000000000000081526004018080602001828103825283818151815260200191508051906020019080838360005b83811015611c3d578082015181840152602081019050611c22565b50505050905090810190601f168015611c6a5780820380516001836020036101000a031916815260200191505b509250505060405180910390fd5b506000838503905080915050939250505056fe4f776e61626c653a206e6577206f776e657220697320746865207a65726f2061646472657373536166654d6174683a206d756c7469706c69636174696f6e206f766572666c6f774c656e677468206f6620696e70757473206172726179206973206d69736d61746368a2646970667358221220fb977492cfc4e59f0a871d9fd5fd03e862e59eb588d1a191f3cc856133d0556964736f6c63430007000033608060405234801561001057600080fd5b506040516102e53803806102e58339818101604052602081101561003357600080fd5b8101908080519060200190929190505050806000806101000a81548173ffffffffffffffffffffffffffffffffffffffff021916908373ffffffffffffffffffffffffffffffffffffffff16021790555050610251806100946000396000f3fe608060405234801561001057600080fd5b506004361061003a5760003560e01c806344df8e7014610040578063fc0c546a1461004a5761003b565b5b600080fd5b61004861007e565b005b6100526101f7565b604051808273ffffffffffffffffffffffffffffffffffffffff16815260200191505060405180910390f35b60008060009054906101000a900473ffffffffffffffffffffffffffffffffffffffff1673ffffffffffffffffffffffffffffffffffffffff166370a08231306040518263ffffffff1660e01b8152600401808273ffffffffffffffffffffffffffffffffffffffff16815260200191505060206040518083038186803b15801561010857600080fd5b505afa15801561011c573d6000803e3d6000fd5b505050506040513d602081101561013257600080fd5b8101908080519060200190929190505050905060008054906101000a900473ffffffffffffffffffffffffffffffffffffffff1673ffffffffffffffffffffffffffffffffffffffff166342966c68826040518263ffffffff1660e01b815260040180828152602001915050602060405180830381600087803b1580156101b857600080fd5b505af11580156101cc573d6000803e3d6000fd5b505050506040513d60208110156101e257600080fd5b81019080805190602001909291905050505050565b60008054906101000a900473ffffffffffffffffffffffffffffffffffffffff168156fea2646970667358221220666628e643a29bddc362a9ca2de3fd93cefc9f64b597a716f91f6ee7a630928664736f6c63430007000033",
  "immutableReferences": {},
  "source": "pragma solidity =0.7.0;\n\nimport \"./interfaces/IBurnableToken.sol\";\nimport \"./interfaces/IERC20.sol\";\nimport \"./interfaces/ISwapContract.sol\";\nimport \"./Ownable.sol\";\nimport \"./SafeMath.sol\";\nimport \"./Burner.sol\";\n\ncontract SwapContract is ISwapContract, Ownable {\n    using SafeMath for uint256;\n\n    address private lpToken;\n    // Token address -> amount\n    mapping(address => uint256) collectedFeesOfToken;\n    mapping(address => uint256) floatAmountOfToken;\n    mapping(address => uint256) currentExchangeRate;\n    Burner public burner;\n\n    event RedeemWithBurnLPtoken(address indexed sender, uint256 amount);\n\n    constructor(address _lpToken) public {\n        burner = new Burner(_lpToken);\n    }\n\n    /**\n     * Transfer part\n     */\n\n    function singleTransferERC20(\n        address _token,\n        address _to,\n        uint256 _amount\n    ) public onlyOwner {\n        require(IERC20(_token).transfer(_to, _amount));\n    }\n\n    function multiTransferERC20TightlyPacked(\n        address _token,\n        bytes32[] memory _addressesAndAmounts,\n        uint8 _inputDecimals\n    ) public override onlyOwner returns (bool) {\n        require(_token != address(0));\n        for (uint256 i = 0; i < _addressesAndAmounts.length; i++) {\n            IERC20 token = IERC20(_token);\n            address to = address(uint160(uint256(_addressesAndAmounts[i])));\n            uint8 boost = token.decimals() - _inputDecimals;\n            require(boost >= 0, \"boost should be >= 0\");\n            uint256 amount;\n            if (boost == uint8(0)) {\n                amount = uint256(uint96(bytes12(_addressesAndAmounts[i])));\n            } else {\n                amount = uint256(uint96(bytes12(_addressesAndAmounts[i]))).mul(\n                    10**uint256(boost)\n                );\n            }\n            require(token.transfer(to, amount));\n        }\n    }\n\n    function multiTransferERC20(\n        address token,\n        address[] memory _contributors,\n        uint256[] memory _amounts,\n        uint256 _feesRatioForLP\n    ) public override onlyOwner returns (bool) {\n        require(\n            _contributors.length == _amounts.length,\n            \"Length of inputs array is mismatch\"\n        );\n        for (uint256 i = 0; i < _contributors.length; i++) {\n            require(IERC20(token).transfer(_contributors[i], _amounts[i]));\n        }\n    }\n\n    /**\n     * Float part\n     */\n\n    function mintLPToken(address _dist, uint256 _amount)\n        public\n        onlyOwner\n        returns (bool)\n    {\n        return IBurnableToken(lpToken).mint(_dist, _amount);\n    }\n\n    function addFloatForBTCToken(address _token, uint256 _amount) public {\n        // Transfer tokens to this contract from users.\n        IERC20(_token).transferFrom(_msgSender(), address(this), _amount);\n        // Update float amount\n        floatAmountOfToken[_token] = floatAmountOfToken[_token].add(_amount);\n        // Update LP token price\n        _updatePool(_token);\n    }\n\n    function redeemFloatForBTCToken(address _token, uint256 _amountOfLPToken)\n        public\n    {\n        IBurnableToken(lpToken).transferFrom(\n            _msgSender(),\n            address(this),\n            _amountOfLPToken\n        );\n        IBurnableToken(lpToken).burn(_amountOfLPToken);\n        // Update LP token price\n        uint256 newExchangeRate = _updatePool(_token);\n        uint256 floatAmount = _amountOfLPToken.mul(newExchangeRate).div(1e18);\n        floatAmountOfToken[_token] = floatAmountOfToken[_token].sub(\n            floatAmount\n        );\n        IERC20(_token).transfer(_msgSender(), floatAmount);\n    }\n\n    function distributeNodeRewards() public override {}\n\n    function _burnLPToken(uint256 _amount) internal returns (bool) {\n        return IBurnableToken(lpToken).burn(_amount);\n    }\n\n    function _updatePool(address _token)\n        internal\n        returns (uint256 newExchangeRate)\n    {\n        // for reduce gas cost.\n        uint256 collectedFess = collectedFeesOfToken[_token];\n        uint256 floatAmount = floatAmountOfToken[_token];\n        uint256 newQuantityBTCTokens = floatAmount.add(collectedFess);\n        // WIP: have to support multiple coins\n        // logic: rate = (fess + total float amount) / total amount of LP token\n        uint256 totalActiveLPTokens = IBurnableToken(lpToken)\n            .totalSupply()\n            .sub(IBurnableToken(lpToken).balanceOf(address(burner)));\n        newExchangeRate = newQuantityBTCTokens.div(totalActiveLPTokens);\n        currentExchangeRate[_token] = newExchangeRate;\n        return newExchangeRate;\n    }\n\n    // The contract doesn't allow receiving Ether.\n    fallback() external {\n        revert();\n    }\n}\n",
  "sourcePath": "/Users/yusakusenga/go/src/github.com/SwingbyProtocol/skybridge-contract/contracts/SwapContract.sol",
  "compiler": {
    "name": "solc",
    "version": "0.7.0+commit.9e61f92b.Emscripten.clang"
  },
  "schemaVersion": "3.3.1",
  "updatedAt": "2020-11-06T09:19:25.038Z",
  "devdoc": {
    "kind": "dev",
    "methods": {
      "owner()": {
        "details": "Returns the address of the current owner."
      },
      "renounceOwnership()": {
        "details": "Leaves the contract without owner. It will not be possible to call `onlyOwner` functions anymore. Can only be called by the current owner. NOTE: Renouncing ownership will leave the contract without an owner, thereby removing any functionality that is only available to the owner."
      },
      "transferOwnership(address)": {
        "details": "Transfers ownership of the contract to a new account (`newOwner`). Can only be called by the current owner."
      }
    },
    "version": 1
  },
  "userdoc": {
    "kind": "user",
    "methods": {
      "mintLPToken(address,uint256)": {
        "notice": "Float part"
      },
      "singleTransferERC20(address,address,uint256)": {
        "notice": "Transfer part"
      }
    },
    "version": 1
  }
}